{
  "abi": [
    {
      "type": "constructor",
      "inputs": [
        {
          "name": "_eas",
          "type": "address",
          "internalType": "contract IEAS"
        },
        {
          "name": "_schemaRegistry",
          "type": "address",
          "internalType": "contract ISchemaRegistry"
        }
      ],
      "stateMutability": "nonpayable"
    },
    {
      "type": "receive",
      "stateMutability": "payable"
    },
    {
      "type": "function",
      "name": "ATTESTATION_SCHEMA",
      "inputs": [],
      "outputs": [
        {
          "name": "",
          "type": "bytes32",
          "internalType": "bytes32"
        }
      ],
      "stateMutability": "view"
    },
    {
      "type": "function",
      "name": "MAX_BUNDLE_ITEMS",
      "inputs": [],
      "outputs": [
        {
          "name": "",
          "type": "uint256",
          "internalType": "uint256"
        }
      ],
      "stateMutability": "view"
    },
    {
      "type": "function",
      "name": "attest",
      "inputs": [
        {
          "name": "attestation",
          "type": "tuple",
          "internalType": "struct Attestation",
          "components": [
            {
              "name": "uid",
              "type": "bytes32",
              "internalType": "bytes32"
            },
            {
              "name": "schema",
              "type": "bytes32",
              "internalType": "bytes32"
            },
            {
              "name": "time",
              "type": "uint64",
              "internalType": "uint64"
            },
            {
              "name": "expirationTime",
              "type": "uint64",
              "internalType": "uint64"
            },
            {
              "name": "revocationTime",
              "type": "uint64",
              "internalType": "uint64"
            },
            {
              "name": "refUID",
              "type": "bytes32",
              "internalType": "bytes32"
            },
            {
              "name": "recipient",
              "type": "address",
              "internalType": "address"
            },
            {
              "name": "attester",
              "type": "address",
              "internalType": "address"
            },
            {
              "name": "revocable",
              "type": "bool",
              "internalType": "bool"
            },
            {
              "name": "data",
              "type": "bytes",
              "internalType": "bytes"
            }
          ]
        }
      ],
      "outputs": [
        {
          "name": "",
          "type": "bool",
          "internalType": "bool"
        }
      ],
      "stateMutability": "payable"
    },
    {
      "type": "function",
      "name": "checkObligation",
      "inputs": [
        {
          "name": "obligation",
          "type": "tuple",
          "internalType": "struct Attestation",
          "components": [
            {
              "name": "uid",
              "type": "bytes32",
              "internalType": "bytes32"
            },
            {
              "name": "schema",
              "type": "bytes32",
              "internalType": "bytes32"
            },
            {
              "name": "time",
              "type": "uint64",
              "internalType": "uint64"
            },
            {
              "name": "expirationTime",
              "type": "uint64",
              "internalType": "uint64"
            },
            {
              "name": "revocationTime",
              "type": "uint64",
              "internalType": "uint64"
            },
            {
              "name": "refUID",
              "type": "bytes32",
              "internalType": "bytes32"
            },
            {
              "name": "recipient",
              "type": "address",
              "internalType": "address"
            },
            {
              "name": "attester",
              "type": "address",
              "internalType": "address"
            },
            {
              "name": "revocable",
              "type": "bool",
              "internalType": "bool"
            },
            {
              "name": "data",
              "type": "bytes",
              "internalType": "bytes"
            }
          ]
        },
        {
          "name": "demand",
          "type": "bytes",
          "internalType": "bytes"
        },
        {
          "name": "",
          "type": "bytes32",
          "internalType": "bytes32"
        }
      ],
      "outputs": [
        {
          "name": "",
          "type": "bool",
          "internalType": "bool"
        }
      ],
      "stateMutability": "view"
    },
    {
      "type": "function",
      "name": "collectEscrow",
      "inputs": [
        {
          "name": "escrow",
          "type": "bytes32",
          "internalType": "bytes32"
        },
        {
          "name": "fulfillment",
          "type": "bytes32",
          "internalType": "bytes32"
        }
      ],
      "outputs": [
        {
          "name": "",
          "type": "bool",
          "internalType": "bool"
        }
      ],
      "stateMutability": "nonpayable"
    },
    {
      "type": "function",
      "name": "collectEscrowRaw",
      "inputs": [
        {
          "name": "_escrow",
          "type": "bytes32",
          "internalType": "bytes32"
        },
        {
          "name": "_fulfillment",
          "type": "bytes32",
          "internalType": "bytes32"
        }
      ],
      "outputs": [
        {
          "name": "",
          "type": "bytes",
          "internalType": "bytes"
        }
      ],
      "stateMutability": "nonpayable"
    },
    {
      "type": "function",
      "name": "decodeObligationData",
      "inputs": [
        {
          "name": "data",
          "type": "bytes",
          "internalType": "bytes"
        }
      ],
      "outputs": [
        {
          "name": "",
          "type": "tuple",
          "internalType": "struct UnconditionalTokenBundleEscrowObligation.ObligationData",
          "components": [
            {
              "name": "arbiter",
              "type": "address",
              "internalType": "address"
            },
            {
              "name": "demand",
              "type": "bytes",
              "internalType": "bytes"
            },
            {
              "name": "nativeAmount",
              "type": "uint256",
              "internalType": "uint256"
            },
            {
              "name": "erc20Tokens",
              "type": "address[]",
              "internalType": "address[]"
            },
            {
              "name": "erc20Amounts",
              "type": "uint256[]",
              "internalType": "uint256[]"
            },
            {
              "name": "erc721Tokens",
              "type": "address[]",
              "internalType": "address[]"
            },
            {
              "name": "erc721TokenIds",
              "type": "uint256[]",
              "internalType": "uint256[]"
            },
            {
              "name": "erc1155Tokens",
              "type": "address[]",
              "internalType": "address[]"
            },
            {
              "name": "erc1155TokenIds",
              "type": "uint256[]",
              "internalType": "uint256[]"
            },
            {
              "name": "erc1155Amounts",
              "type": "uint256[]",
              "internalType": "uint256[]"
            }
          ]
        }
      ],
      "stateMutability": "pure"
    },
    {
      "type": "function",
      "name": "doObligation",
      "inputs": [
        {
          "name": "data",
          "type": "tuple",
          "internalType": "struct UnconditionalTokenBundleEscrowObligation.ObligationData",
          "components": [
            {
              "name": "arbiter",
              "type": "address",
              "internalType": "address"
            },
            {
              "name": "demand",
              "type": "bytes",
              "internalType": "bytes"
            },
            {
              "name": "nativeAmount",
              "type": "uint256",
              "internalType": "uint256"
            },
            {
              "name": "erc20Tokens",
              "type": "address[]",
              "internalType": "address[]"
            },
            {
              "name": "erc20Amounts",
              "type": "uint256[]",
              "internalType": "uint256[]"
            },
            {
              "name": "erc721Tokens",
              "type": "address[]",
              "internalType": "address[]"
            },
            {
              "name": "erc721TokenIds",
              "type": "uint256[]",
              "internalType": "uint256[]"
            },
            {
              "name": "erc1155Tokens",
              "type": "address[]",
              "internalType": "address[]"
            },
            {
              "name": "erc1155TokenIds",
              "type": "uint256[]",
              "internalType": "uint256[]"
            },
            {
              "name": "erc1155Amounts",
              "type": "uint256[]",
              "internalType": "uint256[]"
            }
          ]
        },
        {
          "name": "expirationTime",
          "type": "uint64",
          "internalType": "uint64"
        }
      ],
      "outputs": [
        {
          "name": "",
          "type": "bytes32",
          "internalType": "bytes32"
        }
      ],
      "stateMutability": "payable"
    },
    {
      "type": "function",
      "name": "doObligationFor",
      "inputs": [
        {
          "name": "data",
          "type": "tuple",
          "internalType": "struct UnconditionalTokenBundleEscrowObligation.ObligationData",
          "components": [
            {
              "name": "arbiter",
              "type": "address",
              "internalType": "address"
            },
            {
              "name": "demand",
              "type": "bytes",
              "internalType": "bytes"
            },
            {
              "name": "nativeAmount",
              "type": "uint256",
              "internalType": "uint256"
            },
            {
              "name": "erc20Tokens",
              "type": "address[]",
              "internalType": "address[]"
            },
            {
              "name": "erc20Amounts",
              "type": "uint256[]",
              "internalType": "uint256[]"
            },
            {
              "name": "erc721Tokens",
              "type": "address[]",
              "internalType": "address[]"
            },
            {
              "name": "erc721TokenIds",
              "type": "uint256[]",
              "internalType": "uint256[]"
            },
            {
              "name": "erc1155Tokens",
              "type": "address[]",
              "internalType": "address[]"
            },
            {
              "name": "erc1155TokenIds",
              "type": "uint256[]",
              "internalType": "uint256[]"
            },
            {
              "name": "erc1155Amounts",
              "type": "uint256[]",
              "internalType": "uint256[]"
            }
          ]
        },
        {
          "name": "expirationTime",
          "type": "uint64",
          "internalType": "uint64"
        },
        {
          "name": "recipient",
          "type": "address",
          "internalType": "address"
        }
      ],
      "outputs": [
        {
          "name": "",
          "type": "bytes32",
          "internalType": "bytes32"
        }
      ],
      "stateMutability": "payable"
    },
    {
      "type": "function",
      "name": "doObligationRaw",
      "inputs": [
        {
          "name": "data",
          "type": "bytes",
          "internalType": "bytes"
        },
        {
          "name": "expirationTime",
          "type": "uint64",
          "internalType": "uint64"
        },
        {
          "name": "refUID",
          "type": "bytes32",
          "internalType": "bytes32"
        }
      ],
      "outputs": [
        {
          "name": "uid_",
          "type": "bytes32",
          "internalType": "bytes32"
        }
      ],
      "stateMutability": "payable"
    },
    {
      "type": "function",
      "name": "extractArbiterAndDemand",
      "inputs": [
        {
          "name": "data",
          "type": "bytes",
          "internalType": "bytes"
        }
      ],
      "outputs": [
        {
          "name": "arbiter",
          "type": "address",
          "internalType": "address"
        },
        {
          "name": "demand",
          "type": "bytes",
          "internalType": "bytes"
        }
      ],
      "stateMutability": "pure"
    },
    {
      "type": "function",
      "name": "getObligationData",
      "inputs": [
        {
          "name": "uid",
          "type": "bytes32",
          "internalType": "bytes32"
        }
      ],
      "outputs": [
        {
          "name": "",
          "type": "tuple",
          "internalType": "struct UnconditionalTokenBundleEscrowObligation.ObligationData",
          "components": [
            {
              "name": "arbiter",
              "type": "address",
              "internalType": "address"
            },
            {
              "name": "demand",
              "type": "bytes",
              "internalType": "bytes"
            },
            {
              "name": "nativeAmount",
              "type": "uint256",
              "internalType": "uint256"
            },
            {
              "name": "erc20Tokens",
              "type": "address[]",
              "internalType": "address[]"
            },
            {
              "name": "erc20Amounts",
              "type": "uint256[]",
              "internalType": "uint256[]"
            },
            {
              "name": "erc721Tokens",
              "type": "address[]",
              "internalType": "address[]"
            },
            {
              "name": "erc721TokenIds",
              "type": "uint256[]",
              "internalType": "uint256[]"
            },
            {
              "name": "erc1155Tokens",
              "type": "address[]",
              "internalType": "address[]"
            },
            {
              "name": "erc1155TokenIds",
              "type": "uint256[]",
              "internalType": "uint256[]"
            },
            {
              "name": "erc1155Amounts",
              "type": "uint256[]",
              "internalType": "uint256[]"
            }
          ]
        }
      ],
      "stateMutability": "view"
    },
    {
      "type": "function",
      "name": "getSchema",
      "inputs": [],
      "outputs": [
        {
          "name": "",
          "type": "tuple",
          "internalType": "struct SchemaRecord",
          "components": [
            {
              "name": "uid",
              "type": "bytes32",
              "internalType": "bytes32"
            },
            {
              "name": "resolver",
              "type": "address",
              "internalType": "contract ISchemaResolver"
            },
            {
              "name": "revocable",
              "type": "bool",
              "internalType": "bool"
            },
            {
              "name": "schema",
              "type": "string",
              "internalType": "string"
            }
          ]
        }
      ],
      "stateMutability": "view"
    },
    {
      "type": "function",
      "name": "isPayable",
      "inputs": [],
      "outputs": [
        {
          "name": "",
          "type": "bool",
          "internalType": "bool"
        }
      ],
      "stateMutability": "pure"
    },
    {
      "type": "function",
      "name": "multiAttest",
      "inputs": [
        {
          "name": "attestations",
          "type": "tuple[]",
          "internalType": "struct Attestation[]",
          "components": [
            {
              "name": "uid",
              "type": "bytes32",
              "internalType": "bytes32"
            },
            {
              "name": "schema",
              "type": "bytes32",
              "internalType": "bytes32"
            },
            {
              "name": "time",
              "type": "uint64",
              "internalType": "uint64"
            },
            {
              "name": "expirationTime",
              "type": "uint64",
              "internalType": "uint64"
            },
            {
              "name": "revocationTime",
              "type": "uint64",
              "internalType": "uint64"
            },
            {
              "name": "refUID",
              "type": "bytes32",
              "internalType": "bytes32"
            },
            {
              "name": "recipient",
              "type": "address",
              "internalType": "address"
            },
            {
              "name": "attester",
              "type": "address",
              "internalType": "address"
            },
            {
              "name": "revocable",
              "type": "bool",
              "internalType": "bool"
            },
            {
              "name": "data",
              "type": "bytes",
              "internalType": "bytes"
            }
          ]
        },
        {
          "name": "values",
          "type": "uint256[]",
          "internalType": "uint256[]"
        }
      ],
      "outputs": [
        {
          "name": "",
          "type": "bool",
          "internalType": "bool"
        }
      ],
      "stateMutability": "payable"
    },
    {
      "type": "function",
      "name": "multiRevoke",
      "inputs": [
        {
          "name": "attestations",
          "type": "tuple[]",
          "internalType": "struct Attestation[]",
          "components": [
            {
              "name": "uid",
              "type": "bytes32",
              "internalType": "bytes32"
            },
            {
              "name": "schema",
              "type": "bytes32",
              "internalType": "bytes32"
            },
            {
              "name": "time",
              "type": "uint64",
              "internalType": "uint64"
            },
            {
              "name": "expirationTime",
              "type": "uint64",
              "internalType": "uint64"
            },
            {
              "name": "revocationTime",
              "type": "uint64",
              "internalType": "uint64"
            },
            {
              "name": "refUID",
              "type": "bytes32",
              "internalType": "bytes32"
            },
            {
              "name": "recipient",
              "type": "address",
              "internalType": "address"
            },
            {
              "name": "attester",
              "type": "address",
              "internalType": "address"
            },
            {
              "name": "revocable",
              "type": "bool",
              "internalType": "bool"
            },
            {
              "name": "data",
              "type": "bytes",
              "internalType": "bytes"
            }
          ]
        },
        {
          "name": "values",
          "type": "uint256[]",
          "internalType": "uint256[]"
        }
      ],
      "outputs": [
        {
          "name": "",
          "type": "bool",
          "internalType": "bool"
        }
      ],
      "stateMutability": "payable"
    },
    {
      "type": "function",
      "name": "onERC1155BatchReceived",
      "inputs": [
        {
          "name": "",
          "type": "address",
          "internalType": "address"
        },
        {
          "name": "",
          "type": "address",
          "internalType": "address"
        },
        {
          "name": "",
          "type": "uint256[]",
          "internalType": "uint256[]"
        },
        {
          "name": "",
          "type": "uint256[]",
          "internalType": "uint256[]"
        },
        {
          "name": "",
          "type": "bytes",
          "internalType": "bytes"
        }
      ],
      "outputs": [
        {
          "name": "",
          "type": "bytes4",
          "internalType": "bytes4"
        }
      ],
      "stateMutability": "nonpayable"
    },
    {
      "type": "function",
      "name": "onERC1155Received",
      "inputs": [
        {
          "name": "",
          "type": "address",
          "internalType": "address"
        },
        {
          "name": "",
          "type": "address",
          "internalType": "address"
        },
        {
          "name": "",
          "type": "uint256",
          "internalType": "uint256"
        },
        {
          "name": "",
          "type": "uint256",
          "internalType": "uint256"
        },
        {
          "name": "",
          "type": "bytes",
          "internalType": "bytes"
        }
      ],
      "outputs": [
        {
          "name": "",
          "type": "bytes4",
          "internalType": "bytes4"
        }
      ],
      "stateMutability": "nonpayable"
    },
    {
      "type": "function",
      "name": "reclaimExpired",
      "inputs": [
        {
          "name": "uid",
          "type": "bytes32",
          "internalType": "bytes32"
        }
      ],
      "outputs": [
        {
          "name": "",
          "type": "bool",
          "internalType": "bool"
        }
      ],
      "stateMutability": "nonpayable"
    },
    {
      "type": "function",
      "name": "revoke",
      "inputs": [
        {
          "name": "attestation",
          "type": "tuple",
          "internalType": "struct Attestation",
          "components": [
            {
              "name": "uid",
              "type": "bytes32",
              "internalType": "bytes32"
            },
            {
              "name": "schema",
              "type": "bytes32",
              "internalType": "bytes32"
            },
            {
              "name": "time",
              "type": "uint64",
              "internalType": "uint64"
            },
            {
              "name": "expirationTime",
              "type": "uint64",
              "internalType": "uint64"
            },
            {
              "name": "revocationTime",
              "type": "uint64",
              "internalType": "uint64"
            },
            {
              "name": "refUID",
              "type": "bytes32",
              "internalType": "bytes32"
            },
            {
              "name": "recipient",
              "type": "address",
              "internalType": "address"
            },
            {
              "name": "attester",
              "type": "address",
              "internalType": "address"
            },
            {
              "name": "revocable",
              "type": "bool",
              "internalType": "bool"
            },
            {
              "name": "data",
              "type": "bytes",
              "internalType": "bytes"
            }
          ]
        }
      ],
      "outputs": [
        {
          "name": "",
          "type": "bool",
          "internalType": "bool"
        }
      ],
      "stateMutability": "payable"
    },
    {
      "type": "function",
      "name": "supportsInterface",
      "inputs": [
        {
          "name": "interfaceId",
          "type": "bytes4",
          "internalType": "bytes4"
        }
      ],
      "outputs": [
        {
          "name": "",
          "type": "bool",
          "internalType": "bool"
        }
      ],
      "stateMutability": "view"
    },
    {
      "type": "function",
      "name": "unsafePartiallyCollectEscrow",
      "inputs": [
        {
          "name": "_escrow",
          "type": "bytes32",
          "internalType": "bytes32"
        },
        {
          "name": "_fulfillment",
          "type": "bytes32",
          "internalType": "bytes32"
        }
      ],
      "outputs": [
        {
          "name": "",
          "type": "bool",
          "internalType": "bool"
        }
      ],
      "stateMutability": "nonpayable"
    },
    {
      "type": "function",
      "name": "unsafePartiallyReclaimExpired",
      "inputs": [
        {
          "name": "uid",
          "type": "bytes32",
          "internalType": "bytes32"
        }
      ],
      "outputs": [
        {
          "name": "",
          "type": "bool",
          "internalType": "bool"
        }
      ],
      "stateMutability": "nonpayable"
    },
    {
      "type": "function",
      "name": "version",
      "inputs": [],
      "outputs": [
        {
          "name": "",
          "type": "string",
          "internalType": "string"
        }
      ],
      "stateMutability": "view"
    },
    {
      "type": "event",
      "name": "ERC1155TransferFailedOnRelease",
      "inputs": [
        {
          "name": "token",
          "type": "address",
          "indexed": true,
          "internalType": "address"
        },
        {
          "name": "to",
          "type": "address",
          "indexed": true,
          "internalType": "address"
        },
        {
          "name": "tokenId",
          "type": "uint256",
          "indexed": false,
          "internalType": "uint256"
        },
        {
          "name": "amount",
          "type": "uint256",
          "indexed": false,
          "internalType": "uint256"
        }
      ],
      "anonymous": false
    },
    {
      "type": "event",
      "name": "ERC20TransferFailedOnRelease",
      "inputs": [
        {
          "name": "token",
          "type": "address",
          "indexed": true,
          "internalType": "address"
        },
        {
          "name": "to",
          "type": "address",
          "indexed": true,
          "internalType": "address"
        },
        {
          "name": "amount",
          "type": "uint256",
          "indexed": false,
          "internalType": "uint256"
        }
      ],
      "anonymous": false
    },
    {
      "type": "event",
      "name": "ERC721TransferFailedOnRelease",
      "inputs": [
        {
          "name": "token",
          "type": "address",
          "indexed": true,
          "internalType": "address"
        },
        {
          "name": "to",
          "type": "address",
          "indexed": true,
          "internalType": "address"
        },
        {
          "name": "tokenId",
          "type": "uint256",
          "indexed": false,
          "internalType": "uint256"
        }
      ],
      "anonymous": false
    },
    {
      "type": "event",
      "name": "EscrowCollected",
      "inputs": [
        {
          "name": "escrow",
          "type": "bytes32",
          "indexed": true,
          "internalType": "bytes32"
        },
        {
          "name": "fulfillment",
          "type": "bytes32",
          "indexed": true,
          "internalType": "bytes32"
        },
        {
          "name": "fulfiller",
          "type": "address",
          "indexed": true,
          "internalType": "address"
        }
      ],
      "anonymous": false
    },
    {
      "type": "event",
      "name": "EscrowMade",
      "inputs": [
        {
          "name": "escrow",
          "type": "bytes32",
          "indexed": true,
          "internalType": "bytes32"
        },
        {
          "name": "buyer",
          "type": "address",
          "indexed": true,
          "internalType": "address"
        }
      ],
      "anonymous": false
    },
    {
      "type": "event",
      "name": "NativeTokenTransferFailedOnRelease",
      "inputs": [
        {
          "name": "to",
          "type": "address",
          "indexed": true,
          "internalType": "address"
        },
        {
          "name": "amount",
          "type": "uint256",
          "indexed": false,
          "internalType": "uint256"
        }
      ],
      "anonymous": false
    },
    {
      "type": "error",
      "name": "AccessDenied",
      "inputs": []
    },
    {
      "type": "error",
      "name": "ArrayLengthMismatch",
      "inputs": []
    },
    {
      "type": "error",
      "name": "AttestationNotFound",
      "inputs": [
        {
          "name": "attestationId",
          "type": "bytes32",
          "internalType": "bytes32"
        }
      ]
    },
    {
      "type": "error",
      "name": "AttestationRevoked",
      "inputs": []
    },
    {
      "type": "error",
      "name": "DeadlineExpired",
      "inputs": []
    },
    {
      "type": "error",
      "name": "ERC1155TransferFailed",
      "inputs": [
        {
          "name": "token",
          "type": "address",
          "internalType": "address"
        },
        {
          "name": "from",
          "type": "address",
          "internalType": "address"
        },
        {
          "name": "to",
          "type": "address",
          "internalType": "address"
        },
        {
          "name": "tokenId",
          "type": "uint256",
          "internalType": "uint256"
        },
        {
          "name": "amount",
          "type": "uint256",
          "internalType": "uint256"
        }
      ]
    },
    {
      "type": "error",
      "name": "ERC20TransferFailed",
      "inputs": [
        {
          "name": "token",
          "type": "address",
          "internalType": "address"
        },
        {
          "name": "from",
          "type": "address",
          "internalType": "address"
        },
        {
          "name": "to",
          "type": "address",
          "internalType": "address"
        },
        {
          "name": "amount",
          "type": "uint256",
          "internalType": "uint256"
        }
      ]
    },
    {
      "type": "error",
      "name": "ERC721TransferFailed",
      "inputs": [
        {
          "name": "token",
          "type": "address",
          "internalType": "address"
        },
        {
          "name": "from",
          "type": "address",
          "internalType": "address"
        },
        {
          "name": "to",
          "type": "address",
          "internalType": "address"
        },
        {
          "name": "tokenId",
          "type": "uint256",
          "internalType": "uint256"
        }
      ]
    },
    {
      "type": "error",
      "name": "IncorrectPayment",
      "inputs": [
        {
          "name": "expected",
          "type": "uint256",
          "internalType": "uint256"
        },
        {
          "name": "received",
          "type": "uint256",
          "internalType": "uint256"
        }
      ]
    },
    {
      "type": "error",
      "name": "InsufficientValue",
      "inputs": []
    },
    {
      "type": "error",
      "name": "InvalidAttestationUid",
      "inputs": []
    },
    {
      "type": "error",
      "name": "InvalidEAS",
      "inputs": []
    },
    {
      "type": "error",
      "name": "InvalidEscrowAttestation",
      "inputs": []
    },
    {
      "type": "error",
      "name": "InvalidFulfillment",
      "inputs": []
    },
    {
      "type": "error",
      "name": "InvalidLength",
      "inputs": []
    },
    {
      "type": "error",
      "name": "NativeTokenTransferFailed",
      "inputs": [
        {
          "name": "to",
          "type": "address",
          "internalType": "address"
        },
        {
          "name": "amount",
          "type": "uint256",
          "internalType": "uint256"
        }
      ]
    },
    {
      "type": "error",
      "name": "NotFromThisAttester",
      "inputs": []
    },
    {
      "type": "error",
      "name": "NotPayable",
      "inputs": []
    },
    {
      "type": "error",
      "name": "ReentrancyGuardReentrantCall",
      "inputs": []
    },
    {
      "type": "error",
      "name": "RevocationFailed",
      "inputs": [
        {
          "name": "attestationId",
          "type": "bytes32",
          "internalType": "bytes32"
        }
      ]
    },
    {
      "type": "error",
      "name": "SchemaRegistrationFailed",
      "inputs": [
        {
          "name": "uid",
          "type": "bytes32",
          "internalType": "bytes32"
        }
      ]
    },
    {
      "type": "error",
      "name": "TooManyBundleItems",
      "inputs": [
        {
          "name": "provided",
          "type": "uint256",
          "internalType": "uint256"
        },
        {
          "name": "max",
          "type": "uint256",
          "internalType": "uint256"
        }
      ]
    },
    {
      "type": "error",
      "name": "UnauthorizedCall",
      "inputs": []
    }
  ],
  "bytecode": {
    "object": "0x610160806040523461029e576040816146c4803803809161002082856102a2565b83398101031261029e5780516001600160a01b0381169182820361029e5760200151916001600160a01b0383169081840361029e57610120936040519161006786846102a2565b60e283527f6164647265737320617262697465722c2062797465732064656d616e642c207560208401527f696e74323536206e6174697665416d6f756e742c20616464726573735b5d206560408401527f72633230546f6b656e732c2075696e743235365b5d206572633230416d6f756e60608401527f74732c20616464726573735b5d20657263373231546f6b656e732c2075696e7460808401527f3235365b5d20657263373231546f6b656e4964732c20616464726573735b5d2060a08401527f65726331313535546f6b656e732c2075696e743235365b5d206572633131353560c08401527f546f6b656e4964732c2075696e743235365b5d2065726331313535416d6f756e60e084015261747360f01b6101008401526001608052600360a0525f60c0521561028f57836101a99460e05285526101005230916103bd565b6101405260017f9b779b17422d0df92223018b32b4d1fa46e071723d6817e2486d003becc55f005560405161412b9182610599833960805182611773015260a0518261179f015260c051826117ca015260e051826139020152610100518261157701525181818161057b01528181610fd8015281816111cb01528181611426015281816119400152818161268201528181612ae401526137b20152610140518181816105bb01528181610ee30152818161117c015281816113d701528181611545015281816116c6015281816118b0015281816125f30152818161289701526136b50152f35b6341bc07ff60e11b5f5260045ffd5b5f80fd5b601f909101601f19168101906001600160401b038211908210176102c557604052565b634e487b7160e01b5f52604160045260245ffd5b60208183031261029e578051906001600160401b03821161029e57019060808282031261029e5760405191608083016001600160401b038111848210176102c5576040528051835260208101516001600160a01b038116810361029e5760208401526040810151801515810361029e5760408401526060810151906001600160401b03821161029e570181601f8201121561029e578051906001600160401b0382116102c55760405192610397601f8401601f1916602001856102a2565b8284526020838301011161029e57815f9260208093018386015e83010152606082015290565b929160405190602082018351926104076015602083818901978089885e810160018060601b03198860601b1683820152600160f81b60348201520301600a198101845201826102a2565b5190206040516351753e3760e11b81526004810182905290956001600160a01b031693905f81602481885afa80156105185787915f9161057e575b505114610578579060846020926040519485938492630c1af44f60e31b8452606060048501525180928160648601528585015e5f84838501015260018060a01b0316602483015260016044830152601f801991011681010301815f865af15f9181610544575b5061052357505f602491604051928380926351753e3760e11b82528760048301525afa80156105185783915f916104f6575b5051146104f45750639e6113d560e01b5f5260045260245ffd5b565b61051291503d805f833e61050a81836102a2565b8101906102d9565b5f6104da565b6040513d5f823e3d90fd5b91928091508203610532575090565b639e6113d560e01b5f5260045260245ffd5b9091506020813d602011610570575b81610560602093836102a2565b8101031261029e5751905f6104a8565b3d9150610553565b50505050565b61059291503d805f833e61050a81836102a2565b5f61044256fe6080806040526004361015610029575b50361561001a575f80fd5b631574f9f360e01b5f5260045ffd5b5f905f3560e01c90816301ffc9a714611ace575080630fcec5b11461187d57806311453bb7146118615780632c713cd91461184357806354fd4d501461175257806355b0769b146116e95780635bf2f20d146116ae5780636b122fe0146115045780637d2c2931146113a85780638371ef591461134957806388e5b2d9146112fb578063891d9ea81461131a57806391db0b7e146112fb578063975240161461114d578063b3b902d4146106dc578063bc197c8114610646578063c6ec50701461053a578063c93844be14610377578063ce46e0461461035b578063cf84e82c146102d5578063e49617e1146102ba578063e60c3505146102ba578063e6c9714d146101935763f23a6e610361000f57346101905760a036600319011261019057610152611d43565b5061015b611d59565b506084356001600160401b03811161018e5761017b903690600401611c78565b5060405163f23a6e6160e01b8152602090f35b505b80fd5b503461019057606036600319011261019057600435906001600160401b03821161019057610140600319833603011261019057604051916101d383611bcf565b80600401358352602481013560208401526101f060448201611b71565b604084015261020160648201611b71565b606084015261021260848201611b71565b608084015260a481013560a084015261022d60c48201611d6f565b60c084015261023e60e48201611d6f565b60e084015261010481013580151581036102b6576101008401526101248101356001600160401b0381116102b65761027b91369101600401611c78565b610120830152602435906001600160401b0382116101905760206102ac846102a63660048701611c78565b90612890565b6040519015158152f35b8280fd5b60206102ac6102c836611f53565b6102d0613900565b613941565b506060366003190112610190576004356001600160401b03811161018e57610140600319823603011261018e5761030a611b5b565b604435929091906001600160a01b0384168403610190576020610353858561034061034e876040519283916004018883016120ee565b03601f198101835282611c06565b6130e9565b604051908152f35b5034610190578060031936011261019057602090604051908152f35b5034610190576020366003190112610190576004356001600160401b03811161018e576103a8903690600401611d16565b6103b39291926127e1565b5082019160208184031261018e578035906001600160401b0382116102b65701906101408284031261019057604051916103ec83611bcf565b6103f581611d6f565b835260208101356001600160401b0381116102b65784610416918301611c78565b60208401526040810135604084015260608101356001600160401b0381116102b6578461044491830161282b565b606084015260808101356001600160401b0381116102b65784610468918301611d9a565b608084015260a08101356001600160401b0381116102b6578461048c91830161282b565b60a084015260c08101356001600160401b0381116102b657846104b0918301611d9a565b60c084015260e08101356001600160401b0381116102b657846104d491830161282b565b60e08401526101008101356001600160401b0381116102b657846104f9918301611d9a565b610100840152610120810135916001600160401b038311610190575092610524916105369401611d9a565b61012082015260405191829182611e66565b0390f35b5034610190576020366003190112610190576105546127e1565b5061055d61298e565b506040516328c44a9960e21b815260048035908201529080826024817f00000000000000000000000000000000000000000000000000000000000000006001600160a01b03165afa918215610639578192610615575b5060208201517f000000000000000000000000000000000000000000000000000000000000000003610606576105366105fa61012084015160208082518301019101612394565b60405191829182611e66565b635527981560e11b8152600490fd5b6106329192503d8084833e61062a8183611c06565b8101906129ec565b905f6105b3565b50604051903d90823e3d90fd5b50346101905760a036600319011261019057610660611d43565b50610669611d59565b506044356001600160401b03811161018e57610689903690600401611d9a565b506064356001600160401b03811161018e576106a9903690600401611d9a565b506084356001600160401b03811161018e576106c9903690600401611c78565b5060405163bc197c8160e01b8152602090f35b506060366003190112610190576004356001600160401b03811161018e57610708903690600401611d16565b61071f610713611b5b565b92604435923691611c42565b92610728612956565b61073b6020855186010160208601612394565b9260608401928351519560808601968751510361113e5760a086018051519260c08801938451510361112f5760e0880194855151986101008101998a515181149081159161111e575b5061110f576107a461079b8a515186515190614089565b88515190614089565b603281116110f857506040810151806110db575b50875b895180518210156109d4576024906020906001600160a01b03906107e0908590613e52565b5116604051928380926370a0823160e01b82523060048301525afa9081156109c957908d8b8d8594829461098e575b5051602494610835916001600160a01b039061082c908390613e52565b51169351613e52565b5191604051926323b872dd60e01b835233600452308652604452600160208360648180865af1925114821615610981575b50906040528b60605260208d6108848660018060a01b039251613e52565b5116604051948580926370a0823160e01b82523060048301525afa928315610976578f93929185918e9461093a575b5015938415610918575b505050506108cd576001016107bb565b89518c916108f2916001600160a01b03906108e9908390613e52565b51169251613e52565b51604051634a73404560e11b81529182916109149130903390600486016140aa565b0390fd5b610930939450906109299151613e52565b5190614089565b115f80838f6108bd565b94509250506020833d821161096e575b8161095760209383611c06565b8101031261096a57838f9351925f6108b3565b5f80fd5b3d915061094a565b6040513d8e823e3d90fd5b3b15153d1516165f610866565b9450505050506020813d82116109c1575b816109ac60209383611c06565b8101031261096a575181908d8b8d602461080f565b3d915061099f565b6040513d8c823e3d90fd5b5050908792918a9795969784965b86518051891015610c39576001600160a01b0390610a01908a90613e52565b51166020610a108a8d51613e52565b516024604051809481936331a9108f60e11b835260048301525afa908115610c2e578791610bf5575b50336001600160a01b0390911603610bdd5786516001600160a01b0390610a61908a90613e52565b5116610a6e898c51613e52565b51813b15610bad576040516323b872dd60e01b8152336004820152306024820152604481019190915290879081908390606490829084905af19182610bc4575b5050610aee5789610acc89896108e98260018060a01b039251613e52565b5160405163045b391760e01b81529182916109149130903390600486016140aa565b9091929394959660018060a01b03610b07828a51613e52565b51166020610b16838d51613e52565b516024604051809481936331a9108f60e11b835260048301525afa908115610bb9578891610b7c575b50306001600160a01b0390911603610b6057600101969594939291906109e2565b87518a91610acc916001600160a01b03906108e9908390613e52565b90506020813d8211610bb1575b81610b9660209383611c06565b81010312610bad57610ba7906122a4565b8b610b3f565b8780fd5b3d9150610b89565b6040513d8a823e3d90fd5b81610bce91611c06565b610bd957868c610aae565b8680fd5b89610acc89896108e98260018060a01b039251613e52565b90506020813d8211610c26575b81610c0f60209383611c06565b81010312610bd957610c20906122a4565b8b610a39565b3d9150610c02565b6040513d89823e3d90fd5b508493868a949394610120829501965b84518051871015610ede57610ca6906020906001600160a01b0390610c6f908a90613e52565b5116610c7c898b51613e52565b51604051627eeac760e11b8152306004820152602481019190915292839190829081906044820190565b03915afa908115610ed3578491610ea2575b5085516001600160a01b0390610ccf908990613e52565b5116610cdc888a51613e52565b5190610ce9898c51613e52565b5191813b15610bd957610d19928792839283604051809781958294637921219560e11b8452303360048601614051565b03925af19182610e89575b5050610d9f578888610914610d5b8a610d53818c610d4a8260018060a01b039251613e52565b51169551613e52565b519451613e52565b5160405163334a7d1b60e21b81526001600160a01b0390931660048401523360248401523060448401526064830193909352608482019290925290819060a4820190565b610df59097969192939497602060018060a01b03610dbe858a51613e52565b5116610dcb858b51613e52565b51604051627eeac760e11b8152306004820152602481019190915293849190829081906044820190565b03915afa918215610e7e578692610e49575b50610e1790610929848c51613e52565b11610e29576001019495929190610c49565b85610914610d5b83610d53818a610d4a8f9860018060a01b039251613e52565b9091506020813d8211610e76575b81610e6460209383611c06565b8101031261096a575190610e17610e07565b3d9150610e57565b6040513d88823e3d90fd5b81610e9391611c06565b610e9e57848b610d24565b8480fd5b90506020813d8211610ecb575b81610ebc60209383611c06565b8101031261096a575189610cb8565b3d9150610eaf565b6040513d86823e3d90fd5b5093507f0000000000000000000000000000000000000000000000000000000000000000936001600160401b0360405194610f1886611beb565b33865216806020860152600160408601528160608601528260808601528360a08601526020604051610f4981611b85565b8781528181019687526040518097819263f17325e760e01b8352846004840152516024830152516040604483015260018060a01b0381511660648301526001600160401b03848201511660848301526040810151151560a4830152606081015160c483015260a0610fca608083015160c060e4860152610124850190611b37565b9101516101048301520381877f00000000000000000000000000000000000000000000000000000000000000006001600160a01b03165af1948515610ed35784956110a1575b5094610120916020966040519261102684611bcf565b878452888401526001600160401b0342166040840152606083015284608083015260a08201523360c08201523060e082015260016101008201520152817f8f7f2dbafd79125e808bf16a53d7fa4e17b8b6374ced76d946a45f94b7bf4d06339280a360015f5160206140d65f395f51905f5255604051908152f35b9094506020813d6020116110d3575b816110bd60209383611c06565b810103126110cf575193610120611010565b8380fd5b3d91506110b0565b3481146107b857630d35e92160e01b895260045234602452604488fd5b6325b198a560e21b89526004526032602452604488fd5b63512509d360e11b8852600488fd5b90506101208201515114155f610784565b63512509d360e11b8652600486fd5b63512509d360e11b8452600484fd5b5034610190576020366003190112610190576004359061116b612956565b61117482612abe565b9160208301517f00000000000000000000000000000000000000000000000000000000000000008091036112ec57606084016001600160401b03815116156112dd57516001600160401b031642106112ce576040517f00000000000000000000000000000000000000000000000000000000000000006001600160a01b031691906111fe81611b85565b8381528460208201526040519161121483611b85565b82526020820152813b156110cf57604051634692626760e01b8152815160048201526020918201518051602483015290910151604482015290839081908390606490829084905af191826112b9575b505061127c5763614cf93960e01b825260045260249150fd5b61012083015160c084015161129c916001600160a01b0390911690612c0d565b5060015f5160206140d65f395f51905f5255602060405160018152f35b816112c391611c06565b6102b657825f611263565b637bf6a16f60e01b8352600483fd5b637bf6a16f60e01b8452600484fd5b63629cd40b60e11b8352600483fd5b60206102ac61130936611cc6565b92611315929192613900565b61252b565b50346101905761053661133561132f36611b21565b906125cf565b604051918291602083526020830190611b37565b503461019057602036600319011261019057600435906001600160401b0382116101905761138261137d3660048501611c78565b612502565b604080516001600160a01b03909316835260208301819052829161053691830190611b37565b503461019057602036600319011261019057600435906113c6612956565b6113cf82612abe565b9160208301517f00000000000000000000000000000000000000000000000000000000000000008091036112ec57606084016001600160401b03815116156112dd57516001600160401b031642106112ce576040517f00000000000000000000000000000000000000000000000000000000000000006001600160a01b0316919061145981611b85565b8381528460208201526040519161146f83611b85565b82526020820152813b156110cf57604051634692626760e01b8152815160048201526020918201518051602483015290910151604482015290839081908390606490829084905af191826114ef575b50506114d75763614cf93960e01b825260045260249150fd5b60c083015161129c906001600160a01b03168461395a565b816114f991611c06565b6102b657825f6114be565b503461019057806003193601126101905760608060405161152481611bb4565b8381528360208201528360408201520152604051906351753e3760e11b82527f00000000000000000000000000000000000000000000000000000000000000006004830152808260248160018060a01b037f0000000000000000000000000000000000000000000000000000000000000000165afa9081156116a25780916115ed575b606082610536604051928392602084528051602085015260018060a01b0360208201511660408501526040810151151582850152015160808084015260a0830190611b37565b90503d8082843e6115fe8184611c06565b82019160208184031261018e578051906001600160401b0382116102b6570190608082840312610190576040519161163583611bb4565b8051835260208101516001600160a01b03811681036102b657602084015261165f60408201611f87565b60408401526060810151906001600160401b0382116102b657019083601f8301121561019057506060928160206116989351910161226e565b828201525f6115a7565b604051903d90823e3d90fd5b503461019057806003193601126101905760206040517f00000000000000000000000000000000000000000000000000000000000000008152f35b50604036600319011261019057600435906001600160401b03821161019057610140600319833603011261019057602061035361173d8461174b61172b611b5b565b916040519384916004018783016120ee565b03601f198101845283611c06565b33916130e9565b503461019057806003193601126101905760206113356001610536936117977f0000000000000000000000000000000000000000000000000000000000000000612f7c565b9082856117c37f0000000000000000000000000000000000000000000000000000000000000000612f7c565b81806117ee7f0000000000000000000000000000000000000000000000000000000000000000612f7c565b926040519a888c995191829101848b015e880190601760f91b83830152805192839101602183015e010190601760f91b84830152805192839101600283015e010190838201520301601f198101835282611c06565b50346101905761185561132f36611b21565b50602060405160018152f35b5034610190578060031936011261019057602060405160328152f35b503461096a5761188c36611b21565b9190611896612956565b61189f81612abe565b926118a981612abe565b60208501517f0000000000000000000000000000000000000000000000000000000000000000809103611abf576118df86612b6c565b15611abf5761191a60206101208801976118f98951612502565b915160405163e6c9714d60e01b815294859384928392918a60048501611f94565b03916001600160a01b03165afa908115611ab4575f91611a7a575b5015611a6b576040517f00000000000000000000000000000000000000000000000000000000000000006001600160a01b03169061197281611b85565b8581525f60208201526040519261198884611b85565b83526020830152803b1561096a57604051634692626760e01b815282516004820152602092830151805160248301529092015160448301525f908290606490829084905af19081611a56575b506119ed5763614cf93960e01b84526004839052602484fd5b935160c09094018051602095611a0c916001600160a01b031690612c0d565b5060018060a01b03905116917ff96e77bc177ae8e2ff25185e7c6d85f8ba97c8bdd9d46933aac70a7a33edf6c06040519480a460015f5160206140d65f395f51905f525560018152f35b611a639195505f90611c06565b5f935f6119d4565b630ebe58ef60e11b5f5260045ffd5b90506020813d602011611aac575b81611a9560209383611c06565b8101031261096a57611aa690611f87565b5f611935565b3d9150611a88565b6040513d5f823e3d90fd5b63629cd40b60e11b5f5260045ffd5b3461096a57602036600319011261096a576004359063ffffffff60e01b821680920361096a57602091630271189760e51b8114908115611b10575b5015158152f35b6301ffc9a760e01b14905083611b09565b604090600319011261096a576004359060243590565b805180835260209291819084018484015e5f828201840152601f01601f1916010190565b602435906001600160401b038216820361096a57565b35906001600160401b038216820361096a57565b604081019081106001600160401b03821117611ba057604052565b634e487b7160e01b5f52604160045260245ffd5b608081019081106001600160401b03821117611ba057604052565b61014081019081106001600160401b03821117611ba057604052565b60c081019081106001600160401b03821117611ba057604052565b90601f801991011681019081106001600160401b03821117611ba057604052565b6001600160401b038111611ba057601f01601f191660200190565b929192611c4e82611c27565b91611c5c6040519384611c06565b82948184528183011161096a578281602093845f960137010152565b9080601f8301121561096a57816020611c9393359101611c42565b90565b9181601f8401121561096a578235916001600160401b03831161096a576020808501948460051b01011161096a57565b604060031982011261096a576004356001600160401b03811161096a5781611cf091600401611c96565b92909291602435906001600160401b03821161096a57611d1291600401611c96565b9091565b9181601f8401121561096a578235916001600160401b03831161096a576020838186019501011161096a57565b600435906001600160a01b038216820361096a57565b602435906001600160a01b038216820361096a57565b35906001600160a01b038216820361096a57565b6001600160401b038111611ba05760051b60200190565b9080601f8301121561096a578135611db181611d83565b92611dbf6040519485611c06565b81845260208085019260051b82010192831161096a57602001905b828210611de75750505090565b8135815260209182019101611dda565b90602080835192838152019201905f5b818110611e145750505090565b82516001600160a01b0316845260209384019390920191600101611e07565b90602080835192838152019201905f5b818110611e505750505090565b8251845260209384019390920191600101611e43565b90611c93916020815260018060a01b038251166020820152610120611f3d611f27611f10611efa611ee4611ece611eae60208a015161014060408b01526101608a0190611b37565b60408a015160608a015260608a0151601f198a83030160808b0152611df7565b6080890151888203601f190160a08a0152611e33565b60a0880151878203601f190160c0890152611df7565b60c0870151868203601f190160e0880152611e33565b60e0860151858203601f1901610100870152611df7565b610100850151848203601f190184860152611e33565b92015190610140601f1982850301910152611e33565b602060031982011261096a57600435906001600160401b03821161096a5761014090829003600319011261096a5760040190565b5190811515820361096a57565b9392916120529061204461012060409460608952805160608a0152602081015160808a01526001600160401b03868201511660a08a01526001600160401b0360608201511660c08a01526001600160401b0360808201511660e08a015260a08101516101008a015260018060a01b0360c082015116828a015260018060a01b0360e0820151166101408a015261010081015115156101608a015201516101406101808901526101a0880190611b37565b908682036020880152611b37565b930152565b9035601e198236030181121561096a5701602081359101916001600160401b03821161096a578160051b3603831361096a57565b916020908281520191905f5b8181106120a45750505090565b909192602080600192838060a01b036120bc88611d6f565b168152019401929101612097565b81835290916001600160fb1b03831161096a5760209260051b809284830137010190565b60208152906001600160a01b0361210482611d6f565b1660208301526020810135601e198236030181121561096a578101916020833593016001600160401b03841161096a57833603811361096a5761224f61222e61220e6121ef6121d06121b189611c939a61225b9861014060408c0152816101608c01526101808b01375f610180828b010152601f8019910116880160408a013560608a015261018061219960608c018c612057565b919092601f19828d8303010160808d0152019161208b565b6121be60808a018a612057565b898303601f190160a08b0152906120ca565b6121dd60a0890189612057565b888303601f190160c08a01529061208b565b6121fc60c0880188612057565b878303601f190160e0890152906120ca565b61221b60e0870187612057565b868303601f19016101008801529061208b565b61223c610100860186612057565b858303601f1901610120870152906120ca565b92610120810190612057565b91610140601f19828603019101526120ca565b92919261227a82611c27565b916122886040519384611c06565b82948184528183011161096a578281602093845f96015e010152565b51906001600160a01b038216820361096a57565b9080601f8301121561096a578151611c939260200161226e565b9080601f8301121561096a5781516122e981611d83565b926122f76040519485611c06565b81845260208085019260051b82010192831161096a57602001905b82821061231f5750505090565b6020809161232c846122a4565b815201910190612312565b9080601f8301121561096a57815161234e81611d83565b9261235c6040519485611c06565b81845260208085019260051b82010192831161096a57602001905b8282106123845750505090565b8151815260209182019101612377565b60208183031261096a578051906001600160401b03821161096a57016101408183031261096a57604051916123c883611bcf565b6123d1826122a4565b835260208201516001600160401b03811161096a57816123f29184016122b8565b60208401526040820151604084015260608201516001600160401b03811161096a57816124209184016122d2565b606084015260808201516001600160401b03811161096a5781612444918401612337565b608084015260a08201516001600160401b03811161096a57816124689184016122d2565b60a084015260c08201516001600160401b03811161096a578161248c918401612337565b60c084015260e08201516001600160401b03811161096a57816124b09184016122d2565b60e08401526101008201516001600160401b03811161096a57816124d5918401612337565b6101008401526101208201516001600160401b03811161096a576124f99201612337565b61012082015290565b6125159060208082518301019101612394565b80516020909101516001600160a01b0390911691565b9290928184036125c0575f91345b858410156125b557818410156125a1578360051b80860135908282116125925784013561013e198536030181121561096a57612576908501613941565b156125875760019103930192612539565b505050505050505f90565b63044044a560e21b5f5260045ffd5b634e487b7160e01b5f52603260045260245ffd5b505050505050600190565b63251f56a160e21b5f5260045ffd5b6125d7612956565b5f916125e282612abe565b906125ec81612abe565b60208301517f0000000000000000000000000000000000000000000000000000000000000000809103611abf5761262284612b6c565b15611abf5761265c602061263a610120870151612502565b875160405163e6c9714d60e01b81529485939284928392918a60048501611f94565b03916001600160a01b03165afa908115611ab4575f916127a7575b5015611a6b576040517f00000000000000000000000000000000000000000000000000000000000000006001600160a01b0316906126b481611b85565b8681525f6020820152604051926126ca84611b85565b83526020830152803b1561096a57604051634692626760e01b815282516004820152602092830151805160248301529092015160448301525f908290606490829084905af19081612792575b5061272f5763614cf93960e01b85526004849052602485fd5b60c001805190949391927ff96e77bc177ae8e2ff25185e7c6d85f8ba97c8bdd9d46933aac70a7a33edf6c091612770916001600160a01b039091169061395a565b94516001600160a01b03169380a49060015f5160206140d65f395f51905f5255565b61279f9196505f90611c06565b5f945f612716565b90506020813d6020116127d9575b816127c260209383611c06565b8101031261096a576127d390611f87565b5f612677565b3d91506127b5565b604051906127ee82611bcf565b6060610120835f81528260208201525f604082015282808201528260808201528260a08201528260c08201528260e0820152826101008201520152565b9080601f8301121561096a57813561284281611d83565b926128506040519485611c06565b81845260208085019260051b82010192831161096a57602001905b8282106128785750505090565b6020809161288584611d6f565b81520191019061286b565b60208101517f000000000000000000000000000000000000000000000000000000000000000003612950576128d66101206128e692015160208082518301019101612394565b9160208082518301019101612394565b604082015160408201511115918261293e575b82612925575b8261290957505090565b6020919250810151818151910120910151602081519101201490565b805182516001600160a01b0390811691161492506128ff565b915061294a8183613e66565b916128f9565b50505f90565b60025f5160206140d65f395f51905f52541461297f5760025f5160206140d65f395f51905f5255565b633ee5aeb560e01b5f5260045ffd5b6040519061299b82611bcf565b6060610120835f81525f60208201525f60408201525f838201525f60808201525f60a08201525f60c08201525f60e08201525f6101008201520152565b51906001600160401b038216820361096a57565b60208183031261096a578051906001600160401b03821161096a57016101408183031261096a5760405191612a2083611bcf565b8151835260208201516020840152612a3a604083016129d8565b6040840152612a4b606083016129d8565b6060840152612a5c608083016129d8565b608084015260a082015160a0840152612a7760c083016122a4565b60c0840152612a8860e083016122a4565b60e0840152612a9a6101008301611f87565b6101008401526101208201516001600160401b03811161096a576124f992016122b8565b90612ac761298e565b506040516328c44a9960e21b815260048101839052915f836024817f00000000000000000000000000000000000000000000000000000000000000006001600160a01b03165afa928315611ab4575f93612b50575b508251818115918215612b45575b5050612b335750565b6301fb6dd160e01b5f5260045260245ffd5b14159050815f612b2a565b612b659193503d805f833e61062a8183611c06565b915f612b1c565b805115612bcf576001600160401b036060820151168015159081612bc4575b50612bb557608001516001600160401b0316612ba657600190565b637b6227e960e11b5f5260045ffd5b631ab7da6b60e01b5f5260045ffd5b90504210155f612b8b565b635c2c7f8960e01b5f5260045ffd5b3d15612c08573d90612bef82611c27565b91612bfd6040519384611c06565b82523d5f602084013e565b606090565b612c209060208082518301019101612394565b6040810180519081612f2b575b5090916001600160a01b0381169150608083019060608401905f5b82518051821015612d1357600191906001600160a01b0390612c6b908390613e52565b5116612c78828751613e52565b51906040519163a9059cbb60e01b5f528860045260245260205f60448180855af190845f5114821615612d06575b509060405215612cb7575b01612c48565b85828060a01b03612cc9838751613e52565b51167f6a0720b70d5a8914c9378c90e36e760e11a1c79840d56909d7562c7c79654e0b6020612cf9858a51613e52565b51604051908152a3612cb1565b3b15153d1516165f612ca6565b505094939150505f9060a081019060c08101925b82518051821015612e08576001600160a01b0390612d46908390613e52565b511690612d54818651613e52565b51823b1561096a576040516323b872dd60e01b81523060048201526001600160a01b038a16602482015260448101919091526001925f908290606490829084905af19081612df8575b50612df35785828060a01b03612db4838751613e52565b51167f0863b761d932722655fba74d8a2c2b32a37c3d52195357bf7b4610ebfc6944e06020612de4858a51613e52565b51604051908152a35b01612d27565b612ded565b5f612e0291611c06565b5f612d9d565b50506101008101925060e081019150610120015f5b82518051821015612f0f576001600160a01b0390612e3c908390613e52565b511690612e4a818651613e52565b5191612e57828551613e52565b5192813b1561096a57600193612e89925f92838d60405196879586948593637921219560e11b85523060048601614051565b03925af19081612eff575b50612efa5785828060a01b03612eab838751613e52565b51167f15fffc8b1069bee41edd748e645887f613b87a2d861ab91a772fc4a11ebe53026040612edb858a51613e52565b51612ee7868951613e52565b5182519182526020820152a35b01612e1d565b612ef4565b5f612f0991611c06565b5f612e94565b5050505050509050604051612f25602082611c06565b5f815290565b5f80808060018060a01b03881695865af1612f44612bde565b50612c2d5760207ff7c9ce661c79b7ec4fedd33edef0ee43991ab10fc7464e4764925d33e3dfd0bc9151604051908152a25f80612c2d565b805f9172184f03e93ff9f4daa797ed6e38ed64bf6a1f0160401b8210156130c6575b806d04ee2d6d415b85acef8100000000600a9210156130ab575b662386f26fc10000811015613097575b6305f5e100811015613086575b612710811015613077575b6064811015613069575b101561305e575b600a6021600184019361300385611c27565b946130116040519687611c06565b808652613020601f1991611c27565b013660208701378401015b5f1901916f181899199a1a9b1b9c1cb0b131b232b360811b8282061a835304801561305957600a909161302b565b505090565b600190910190612ff1565b606460029104930192612fea565b61271060049104930192612fe0565b6305f5e10060089104930192612fd5565b662386f26fc1000060109104930192612fc8565b6d04ee2d6d415b85acef810000000060209104930192612fb8565b506040915072184f03e93ff9f4daa797ed6e38ed64bf6a1f0160401b8104612f9e565b929091926130f5612956565b6131086020825183010160208301612394565b926060840192835151956080860196875151036138e05760a08601908151519360c0880194855151036138e05760e08801978851516101008201908151518114908115916138ef575b506138e0576131716131688a515187515190614089565b8b515190614089565b603281116138c957506040820151806138ac575b505f5b8951805182101561331f576024906020906001600160a01b03906131ad908590613e52565b5116604051928380926370a0823160e01b82523060048301525afa908115611ab4575f916132ee575b508c6131ef838d6108e98260018060a01b039251613e52565b5191604051926323b872dd60e01b5f52336004523060245260445260205f60648180865af19160015f51148316156132dd575b50602491926040525f60605260208d6132438660018060a01b039251613e52565b5116604051938480926370a0823160e01b82523060048301525afa918215611ab4578f9385915f946132a5575b501593841561328a575b505050506108cd57600101613188565b61329b939450906109299151613e52565b115f80838f61327a565b94509250506020833d82116132d5575b816132c260209383611c06565b8101031261096a57838f9351925f613270565b3d91506132b5565b916024923b15153d15161691613222565b90506020813d8211613317575b8161330860209383611c06565b8101031261096a57515f6131d6565b3d91506132fb565b5050929599509295965092965f965b86518051891015613509576001600160a01b039061334d908a90613e52565b5116602061335c8a8d51613e52565b516024604051809481936331a9108f60e11b835260048301525afa908115611ab4575f916134d0575b50336001600160a01b0390911603610bdd5786516001600160a01b03906133ad908a90613e52565b51166133ba898c51613e52565b5190803b1561096a576040516323b872dd60e01b815233600482015230602482015260448101929092525f908290606490829084905af190816134c0575b506134155789610acc89896108e98260018060a01b039251613e52565b9091929394959660018060a01b0361342e828a51613e52565b5116602061343d838d51613e52565b516024604051809481936331a9108f60e11b835260048301525afa908115611ab4575f91613487575b50306001600160a01b0390911603610b60576001019695949392919061332e565b90506020813d82116134b8575b816134a160209383611c06565b8101031261096a576134b2906122a4565b5f613466565b3d9150613494565b5f6134ca91611c06565b5f6133f8565b90506020813d8211613501575b816134ea60209383611c06565b8101031261096a576134fb906122a4565b5f613385565b3d91506134dd565b50939498509450959094506101205f9501965b845180518710156136aa57613542906020906001600160a01b0390610c6f908a90613e52565b03915afa908115611ab4575f91613679575b5085516001600160a01b039061356b908990613e52565b5116613578888a51613e52565b51613584898c51613e52565b51823b1561096a576135b1925f9283604051809681958294637921219560e11b8452303360048601614051565b03925af19081613669575b506135e1578888610914610d5b8a610d53818c610d4a8260018060a01b039251613e52565b6136009097969192939497602060018060a01b03610dbe858a51613e52565b03915afa918215611ab4575f92613634575b5061362290610929848c51613e52565b11610e2957600101949592919061351c565b9091506020813d8211613661575b8161364f60209383611c06565b8101031261096a575190613622613612565b3d9150613642565b5f61367391611c06565b5f6135bc565b90506020813d82116136a2575b8161369360209383611c06565b8101031261096a57515f613554565b3d9150613686565b5095509550915091507f00000000000000000000000000000000000000000000000000000000000000006001600160401b03604051946136e986611beb565b60018060a01b03169384865216806020860152600160408601525f60608601528260808601525f60a0860152602060405161372381611b85565b8381528181019687526040518097819263f17325e760e01b8352846004840152516024830152516040604483015260018060a01b0381511660648301526001600160401b03848201511660848301526040810151151560a4830152606081015160c483015260a06137a4608083015160c060e4860152610124850190611b37565b91015161010483015203815f7f00000000000000000000000000000000000000000000000000000000000000006001600160a01b03165af1948515611ab4575f95613874575b509061012091604051916137fd83611bcf565b86835260208301526001600160401b034216604083015260608201525f60808201525f60a08201528360c08201523060e082015260016101008201520152817f8f7f2dbafd79125e808bf16a53d7fa4e17b8b6374ced76d946a45f94b7bf4d065f80a39060015f5160206140d65f395f51905f5255565b919094506020823d6020116138a4575b8161389160209383611c06565b8101031261096a579051936101206137ea565b3d9150613884565b34811461318557630d35e92160e01b5f526004523460245260445ffd5b6325b198a560e21b5f52600452603260245260445ffd5b63512509d360e11b5f5260045ffd5b90506101208301515114155f613151565b7f00000000000000000000000000000000000000000000000000000000000000006001600160a01b0316330361393257565b634ca8886760e01b5f5260045ffd5b60e0013560018060a01b03811680910361096a57301490565b61012061397591939293015160208082518301019101612394565b6040810180519081613e1d575b50909160808301915060608301906001600160a01b038516905f5b83518051821015613b57576024906020906001600160a01b03906139c2908590613e52565b5116604051928380926370a0823160e01b82528860048301525afa908115611ab4575f91613b26575b50602460018060a01b03613a00848851613e52565b5116613a0d848951613e52565b51906040519163a9059cbb60e01b5f5287600452835260205f60448180855af19060015f5114821615613b19575b5090604052602060018060a01b03613a54868a51613e52565b5116604051938480926370a0823160e01b82528a60048301525afa918215611ab4575f92613ae6575b5015918215613acd575b5050613a955760010161399d565b84610914613ab1838761082c8c9660018060a01b039251613e52565b51604051634a73404560e11b81529384933090600486016140aa565b613ade919250610929848951613e52565b115f80613a87565b9091506020813d8211613b11575b81613b0160209383611c06565b8101031261096a5751905f613a7d565b3d9150613af4565b3b15153d1516165f613a3b565b90506020813d8211613b4f575b81613b4060209383611c06565b8101031261096a57515f6139eb565b3d9150613b33565b505060c08501945f945060a08101935091905b83518051861015613cec576001600160a01b0390613b89908790613e52565b5116613b96868851613e52565b5190803b1561096a576040516323b872dd60e01b81523060048201526001600160a01b038a16602482015260448101929092525f908290606490829084905af19081613cdc575b50613c1b5750505081613bff9161082c6109149460018060a01b039251613e52565b5160405163045b391760e01b81529384933090600486016140aa565b9091949360018060a01b03613c31828651613e52565b51166020613c40838851613e52565b516024604051809481936331a9108f60e11b835260048301525afa8015611ab45784915f91613ca1575b506001600160a01b031603613c855760010193949190613b6a565b84610914613bff838761082c8c9660018060a01b039251613e52565b9150506020813d8211613cd4575b81613cbc60209383611c06565b8101031261096a57613cce84916122a4565b5f613c6a565b3d9150613caf565b5f613ce691611c06565b5f613bdd565b509350509250505f60e0830161012061010085019401925b81518051841015613e08576001600160a01b0390613d23908590613e52565b5116613d30848751613e52565b51613d3c858751613e52565b51823b1561096a57613d6a925f92838b60405196879586948593637921219560e11b85523060048601614051565b03925af19081613df8575b50613dee575081613da381613dab93613d9a610914979660018060a01b039251613e52565b51169651613e52565b519251613e52565b5160405163334a7d1b60e21b81526001600160a01b03948516600482015230602482015294909316604485015260648401526084830191909152819060a4820190565b9160010191613d04565b5f613e0291611c06565b5f613d75565b50945050505050604051612f25602082611c06565b5f80808060018060a01b03891695865af1613e36612bde565b506139825751906338f0620160e21b5f5260045260245260445ffd5b80518210156125a15760209160051b010190565b6060810191825151606082019081515111614049575f5b815151811015613ef65784516001600160a01b0390613e9d908390613e52565b511660018060a01b03613eb1838551613e52565b511614801590613ed1575b613ec857600101613e7d565b50505050505f90565b50613ee0816080860151613e52565b51613eef826080860151613e52565b5111613ebc565b5050915060a081019182515160a082019081515111614049575f5b815151811015613f825784516001600160a01b0390613f31908390613e52565b511660018060a01b03613f45838551613e52565b511614801590613f5c575b613ec857600101613f11565b50613f6b8160c0860151613e52565b51613f7a8260c0860151613e52565b511415613f50565b5050915060e08101918251519260e082019384515111614049575f5b84515181101561403f5781516001600160a01b0390613fbe908390613e52565b511660018060a01b03613fd2838851613e52565b511614801590614017575b8015613ff0575b613ec857600101613f9e565b5061400081610120860151613e52565b5161401082610120860151613e52565b5111613fe4565b5061402781610100860151613e52565b5161403782610100860151613e52565b511415613fdd565b5050505050600190565b505050505f90565b6001600160a01b039182168152911660208201526040810191909152606081019190915260a0608082018190525f9082015260c00190565b9190820180921161409657565b634e487b7160e01b5f52601160045260245ffd5b6001600160a01b0391821681529181166020830152909116604082015260608101919091526080019056fe9b779b17422d0df92223018b32b4d1fa46e071723d6817e2486d003becc55f00a26469706673582212200de4c45e964fc39ea6fd0a60ca4244ed5b20c5f52d23fd1e6e20c98a80da731764736f6c634300081b0033",
    "linkReferences": {}
  },
  "methodIdentifiers": {
    "ATTESTATION_SCHEMA()": "5bf2f20d",
    "MAX_BUNDLE_ITEMS()": "11453bb7",
    "attest((bytes32,bytes32,uint64,uint64,uint64,bytes32,address,address,bool,bytes))": "e60c3505",
    "checkObligation((bytes32,bytes32,uint64,uint64,uint64,bytes32,address,address,bool,bytes),bytes,bytes32)": "e6c9714d",
    "collectEscrow(bytes32,bytes32)": "2c713cd9",
    "collectEscrowRaw(bytes32,bytes32)": "891d9ea8",
    "decodeObligationData(bytes)": "c93844be",
    "doObligation((address,bytes,uint256,address[],uint256[],address[],uint256[],address[],uint256[],uint256[]),uint64)": "55b0769b",
    "doObligationFor((address,bytes,uint256,address[],uint256[],address[],uint256[],address[],uint256[],uint256[]),uint64,address)": "cf84e82c",
    "doObligationRaw(bytes,uint64,bytes32)": "b3b902d4",
    "extractArbiterAndDemand(bytes)": "8371ef59",
    "getObligationData(bytes32)": "c6ec5070",
    "getSchema()": "6b122fe0",
    "isPayable()": "ce46e046",
    "multiAttest((bytes32,bytes32,uint64,uint64,uint64,bytes32,address,address,bool,bytes)[],uint256[])": "91db0b7e",
    "multiRevoke((bytes32,bytes32,uint64,uint64,uint64,bytes32,address,address,bool,bytes)[],uint256[])": "88e5b2d9",
    "onERC1155BatchReceived(address,address,uint256[],uint256[],bytes)": "bc197c81",
    "onERC1155Received(address,address,uint256,uint256,bytes)": "f23a6e61",
    "reclaimExpired(bytes32)": "7d2c2931",
    "revoke((bytes32,bytes32,uint64,uint64,uint64,bytes32,address,address,bool,bytes))": "e49617e1",
    "supportsInterface(bytes4)": "01ffc9a7",
    "unsafePartiallyCollectEscrow(bytes32,bytes32)": "0fcec5b1",
    "unsafePartiallyReclaimExpired(bytes32)": "97524016",
    "version()": "54fd4d50"
  },
  "id": 140
}