{
  "abi": [
    {
      "type": "constructor",
      "inputs": [
        {
          "name": "_eas",
          "type": "address",
          "internalType": "contract IEAS"
        },
        {
          "name": "_schemaRegistry",
          "type": "address",
          "internalType": "contract ISchemaRegistry"
        }
      ],
      "stateMutability": "nonpayable"
    },
    {
      "type": "receive",
      "stateMutability": "payable"
    },
    {
      "type": "function",
      "name": "ATTESTATION_SCHEMA",
      "inputs": [],
      "outputs": [
        {
          "name": "",
          "type": "bytes32",
          "internalType": "bytes32"
        }
      ],
      "stateMutability": "view"
    },
    {
      "type": "function",
      "name": "ATTESTATION_SCHEMA_REVOCABLE",
      "inputs": [],
      "outputs": [
        {
          "name": "",
          "type": "bool",
          "internalType": "bool"
        }
      ],
      "stateMutability": "view"
    },
    {
      "type": "function",
      "name": "VALIDATION_SCHEMA",
      "inputs": [],
      "outputs": [
        {
          "name": "",
          "type": "bytes32",
          "internalType": "bytes32"
        }
      ],
      "stateMutability": "view"
    },
    {
      "type": "function",
      "name": "attest",
      "inputs": [
        {
          "name": "attestation",
          "type": "tuple",
          "internalType": "struct Attestation",
          "components": [
            {
              "name": "uid",
              "type": "bytes32",
              "internalType": "bytes32"
            },
            {
              "name": "schema",
              "type": "bytes32",
              "internalType": "bytes32"
            },
            {
              "name": "time",
              "type": "uint64",
              "internalType": "uint64"
            },
            {
              "name": "expirationTime",
              "type": "uint64",
              "internalType": "uint64"
            },
            {
              "name": "revocationTime",
              "type": "uint64",
              "internalType": "uint64"
            },
            {
              "name": "refUID",
              "type": "bytes32",
              "internalType": "bytes32"
            },
            {
              "name": "recipient",
              "type": "address",
              "internalType": "address"
            },
            {
              "name": "attester",
              "type": "address",
              "internalType": "address"
            },
            {
              "name": "revocable",
              "type": "bool",
              "internalType": "bool"
            },
            {
              "name": "data",
              "type": "bytes",
              "internalType": "bytes"
            }
          ]
        }
      ],
      "outputs": [
        {
          "name": "",
          "type": "bool",
          "internalType": "bool"
        }
      ],
      "stateMutability": "payable"
    },
    {
      "type": "function",
      "name": "check",
      "inputs": [
        {
          "name": "obligation",
          "type": "tuple",
          "internalType": "struct Attestation",
          "components": [
            {
              "name": "uid",
              "type": "bytes32",
              "internalType": "bytes32"
            },
            {
              "name": "schema",
              "type": "bytes32",
              "internalType": "bytes32"
            },
            {
              "name": "time",
              "type": "uint64",
              "internalType": "uint64"
            },
            {
              "name": "expirationTime",
              "type": "uint64",
              "internalType": "uint64"
            },
            {
              "name": "revocationTime",
              "type": "uint64",
              "internalType": "uint64"
            },
            {
              "name": "refUID",
              "type": "bytes32",
              "internalType": "bytes32"
            },
            {
              "name": "recipient",
              "type": "address",
              "internalType": "address"
            },
            {
              "name": "attester",
              "type": "address",
              "internalType": "address"
            },
            {
              "name": "revocable",
              "type": "bool",
              "internalType": "bool"
            },
            {
              "name": "data",
              "type": "bytes",
              "internalType": "bytes"
            }
          ]
        },
        {
          "name": "demand",
          "type": "bytes",
          "internalType": "bytes"
        },
        {
          "name": "",
          "type": "bytes32",
          "internalType": "bytes32"
        }
      ],
      "outputs": [
        {
          "name": "",
          "type": "bool",
          "internalType": "bool"
        }
      ],
      "stateMutability": "view"
    },
    {
      "type": "function",
      "name": "collect",
      "inputs": [
        {
          "name": "_escrow",
          "type": "bytes32",
          "internalType": "bytes32"
        },
        {
          "name": "_fulfillment",
          "type": "bytes32",
          "internalType": "bytes32"
        }
      ],
      "outputs": [
        {
          "name": "",
          "type": "bytes",
          "internalType": "bytes"
        }
      ],
      "stateMutability": "nonpayable"
    },
    {
      "type": "function",
      "name": "decodeCondition",
      "inputs": [
        {
          "name": "data",
          "type": "bytes",
          "internalType": "bytes"
        }
      ],
      "outputs": [
        {
          "name": "arbiter",
          "type": "address",
          "internalType": "address"
        },
        {
          "name": "demand",
          "type": "bytes",
          "internalType": "bytes"
        }
      ],
      "stateMutability": "pure"
    },
    {
      "type": "function",
      "name": "decodeObligationData",
      "inputs": [
        {
          "name": "data",
          "type": "bytes",
          "internalType": "bytes"
        }
      ],
      "outputs": [
        {
          "name": "",
          "type": "tuple",
          "internalType": "struct UnconditionalAttestationReferenceEscrowObligation.ObligationData",
          "components": [
            {
              "name": "arbiter",
              "type": "address",
              "internalType": "address"
            },
            {
              "name": "demand",
              "type": "bytes",
              "internalType": "bytes"
            },
            {
              "name": "attestationUid",
              "type": "bytes32",
              "internalType": "bytes32"
            },
            {
              "name": "validationExpirationTime",
              "type": "uint64",
              "internalType": "uint64"
            },
            {
              "name": "validationRevocable",
              "type": "bool",
              "internalType": "bool"
            }
          ]
        }
      ],
      "stateMutability": "pure"
    },
    {
      "type": "function",
      "name": "doObligation",
      "inputs": [
        {
          "name": "data",
          "type": "tuple",
          "internalType": "struct UnconditionalAttestationReferenceEscrowObligation.ObligationData",
          "components": [
            {
              "name": "arbiter",
              "type": "address",
              "internalType": "address"
            },
            {
              "name": "demand",
              "type": "bytes",
              "internalType": "bytes"
            },
            {
              "name": "attestationUid",
              "type": "bytes32",
              "internalType": "bytes32"
            },
            {
              "name": "validationExpirationTime",
              "type": "uint64",
              "internalType": "uint64"
            },
            {
              "name": "validationRevocable",
              "type": "bool",
              "internalType": "bool"
            }
          ]
        },
        {
          "name": "expirationTime",
          "type": "uint64",
          "internalType": "uint64"
        }
      ],
      "outputs": [
        {
          "name": "",
          "type": "bytes32",
          "internalType": "bytes32"
        }
      ],
      "stateMutability": "nonpayable"
    },
    {
      "type": "function",
      "name": "doObligationFor",
      "inputs": [
        {
          "name": "data",
          "type": "tuple",
          "internalType": "struct UnconditionalAttestationReferenceEscrowObligation.ObligationData",
          "components": [
            {
              "name": "arbiter",
              "type": "address",
              "internalType": "address"
            },
            {
              "name": "demand",
              "type": "bytes",
              "internalType": "bytes"
            },
            {
              "name": "attestationUid",
              "type": "bytes32",
              "internalType": "bytes32"
            },
            {
              "name": "validationExpirationTime",
              "type": "uint64",
              "internalType": "uint64"
            },
            {
              "name": "validationRevocable",
              "type": "bool",
              "internalType": "bool"
            }
          ]
        },
        {
          "name": "expirationTime",
          "type": "uint64",
          "internalType": "uint64"
        },
        {
          "name": "recipient",
          "type": "address",
          "internalType": "address"
        }
      ],
      "outputs": [
        {
          "name": "",
          "type": "bytes32",
          "internalType": "bytes32"
        }
      ],
      "stateMutability": "nonpayable"
    },
    {
      "type": "function",
      "name": "doObligationRaw",
      "inputs": [
        {
          "name": "data",
          "type": "bytes",
          "internalType": "bytes"
        },
        {
          "name": "expirationTime",
          "type": "uint64",
          "internalType": "uint64"
        },
        {
          "name": "refUID",
          "type": "bytes32",
          "internalType": "bytes32"
        }
      ],
      "outputs": [
        {
          "name": "uid_",
          "type": "bytes32",
          "internalType": "bytes32"
        }
      ],
      "stateMutability": "payable"
    },
    {
      "type": "function",
      "name": "getObligationData",
      "inputs": [
        {
          "name": "uid",
          "type": "bytes32",
          "internalType": "bytes32"
        }
      ],
      "outputs": [
        {
          "name": "",
          "type": "tuple",
          "internalType": "struct UnconditionalAttestationReferenceEscrowObligation.ObligationData",
          "components": [
            {
              "name": "arbiter",
              "type": "address",
              "internalType": "address"
            },
            {
              "name": "demand",
              "type": "bytes",
              "internalType": "bytes"
            },
            {
              "name": "attestationUid",
              "type": "bytes32",
              "internalType": "bytes32"
            },
            {
              "name": "validationExpirationTime",
              "type": "uint64",
              "internalType": "uint64"
            },
            {
              "name": "validationRevocable",
              "type": "bool",
              "internalType": "bool"
            }
          ]
        }
      ],
      "stateMutability": "view"
    },
    {
      "type": "function",
      "name": "getSchema",
      "inputs": [],
      "outputs": [
        {
          "name": "",
          "type": "tuple",
          "internalType": "struct SchemaRecord",
          "components": [
            {
              "name": "uid",
              "type": "bytes32",
              "internalType": "bytes32"
            },
            {
              "name": "resolver",
              "type": "address",
              "internalType": "contract ISchemaResolver"
            },
            {
              "name": "revocable",
              "type": "bool",
              "internalType": "bool"
            },
            {
              "name": "schema",
              "type": "string",
              "internalType": "string"
            }
          ]
        }
      ],
      "stateMutability": "view"
    },
    {
      "type": "function",
      "name": "isPayable",
      "inputs": [],
      "outputs": [
        {
          "name": "",
          "type": "bool",
          "internalType": "bool"
        }
      ],
      "stateMutability": "pure"
    },
    {
      "type": "function",
      "name": "multiAttest",
      "inputs": [
        {
          "name": "attestations",
          "type": "tuple[]",
          "internalType": "struct Attestation[]",
          "components": [
            {
              "name": "uid",
              "type": "bytes32",
              "internalType": "bytes32"
            },
            {
              "name": "schema",
              "type": "bytes32",
              "internalType": "bytes32"
            },
            {
              "name": "time",
              "type": "uint64",
              "internalType": "uint64"
            },
            {
              "name": "expirationTime",
              "type": "uint64",
              "internalType": "uint64"
            },
            {
              "name": "revocationTime",
              "type": "uint64",
              "internalType": "uint64"
            },
            {
              "name": "refUID",
              "type": "bytes32",
              "internalType": "bytes32"
            },
            {
              "name": "recipient",
              "type": "address",
              "internalType": "address"
            },
            {
              "name": "attester",
              "type": "address",
              "internalType": "address"
            },
            {
              "name": "revocable",
              "type": "bool",
              "internalType": "bool"
            },
            {
              "name": "data",
              "type": "bytes",
              "internalType": "bytes"
            }
          ]
        },
        {
          "name": "values",
          "type": "uint256[]",
          "internalType": "uint256[]"
        }
      ],
      "outputs": [
        {
          "name": "",
          "type": "bool",
          "internalType": "bool"
        }
      ],
      "stateMutability": "payable"
    },
    {
      "type": "function",
      "name": "multiRevoke",
      "inputs": [
        {
          "name": "attestations",
          "type": "tuple[]",
          "internalType": "struct Attestation[]",
          "components": [
            {
              "name": "uid",
              "type": "bytes32",
              "internalType": "bytes32"
            },
            {
              "name": "schema",
              "type": "bytes32",
              "internalType": "bytes32"
            },
            {
              "name": "time",
              "type": "uint64",
              "internalType": "uint64"
            },
            {
              "name": "expirationTime",
              "type": "uint64",
              "internalType": "uint64"
            },
            {
              "name": "revocationTime",
              "type": "uint64",
              "internalType": "uint64"
            },
            {
              "name": "refUID",
              "type": "bytes32",
              "internalType": "bytes32"
            },
            {
              "name": "recipient",
              "type": "address",
              "internalType": "address"
            },
            {
              "name": "attester",
              "type": "address",
              "internalType": "address"
            },
            {
              "name": "revocable",
              "type": "bool",
              "internalType": "bool"
            },
            {
              "name": "data",
              "type": "bytes",
              "internalType": "bytes"
            }
          ]
        },
        {
          "name": "values",
          "type": "uint256[]",
          "internalType": "uint256[]"
        }
      ],
      "outputs": [
        {
          "name": "",
          "type": "bool",
          "internalType": "bool"
        }
      ],
      "stateMutability": "payable"
    },
    {
      "type": "function",
      "name": "reclaim",
      "inputs": [
        {
          "name": "uid",
          "type": "bytes32",
          "internalType": "bytes32"
        }
      ],
      "outputs": [
        {
          "name": "",
          "type": "bool",
          "internalType": "bool"
        }
      ],
      "stateMutability": "nonpayable"
    },
    {
      "type": "function",
      "name": "revoke",
      "inputs": [
        {
          "name": "attestation",
          "type": "tuple",
          "internalType": "struct Attestation",
          "components": [
            {
              "name": "uid",
              "type": "bytes32",
              "internalType": "bytes32"
            },
            {
              "name": "schema",
              "type": "bytes32",
              "internalType": "bytes32"
            },
            {
              "name": "time",
              "type": "uint64",
              "internalType": "uint64"
            },
            {
              "name": "expirationTime",
              "type": "uint64",
              "internalType": "uint64"
            },
            {
              "name": "revocationTime",
              "type": "uint64",
              "internalType": "uint64"
            },
            {
              "name": "refUID",
              "type": "bytes32",
              "internalType": "bytes32"
            },
            {
              "name": "recipient",
              "type": "address",
              "internalType": "address"
            },
            {
              "name": "attester",
              "type": "address",
              "internalType": "address"
            },
            {
              "name": "revocable",
              "type": "bool",
              "internalType": "bool"
            },
            {
              "name": "data",
              "type": "bytes",
              "internalType": "bytes"
            }
          ]
        }
      ],
      "outputs": [
        {
          "name": "",
          "type": "bool",
          "internalType": "bool"
        }
      ],
      "stateMutability": "payable"
    },
    {
      "type": "function",
      "name": "version",
      "inputs": [],
      "outputs": [
        {
          "name": "",
          "type": "string",
          "internalType": "string"
        }
      ],
      "stateMutability": "view"
    },
    {
      "type": "event",
      "name": "EscrowCollected",
      "inputs": [
        {
          "name": "escrowUid",
          "type": "bytes32",
          "indexed": true,
          "internalType": "bytes32"
        },
        {
          "name": "fulfillmentUid",
          "type": "bytes32",
          "indexed": true,
          "internalType": "bytes32"
        },
        {
          "name": "fulfiller",
          "type": "address",
          "indexed": true,
          "internalType": "address"
        }
      ],
      "anonymous": false
    },
    {
      "type": "event",
      "name": "EscrowMade",
      "inputs": [
        {
          "name": "escrowUid",
          "type": "bytes32",
          "indexed": true,
          "internalType": "bytes32"
        },
        {
          "name": "escrower",
          "type": "address",
          "indexed": true,
          "internalType": "address"
        }
      ],
      "anonymous": false
    },
    {
      "type": "error",
      "name": "AccessDenied",
      "inputs": []
    },
    {
      "type": "error",
      "name": "AttestationNotFound",
      "inputs": [
        {
          "name": "attestationId",
          "type": "bytes32",
          "internalType": "bytes32"
        }
      ]
    },
    {
      "type": "error",
      "name": "AttestationRevoked",
      "inputs": []
    },
    {
      "type": "error",
      "name": "DeadlineExpired",
      "inputs": []
    },
    {
      "type": "error",
      "name": "InsufficientValue",
      "inputs": []
    },
    {
      "type": "error",
      "name": "InvalidAttestationUid",
      "inputs": []
    },
    {
      "type": "error",
      "name": "InvalidEAS",
      "inputs": []
    },
    {
      "type": "error",
      "name": "InvalidEscrowAttestation",
      "inputs": []
    },
    {
      "type": "error",
      "name": "InvalidFulfillment",
      "inputs": []
    },
    {
      "type": "error",
      "name": "InvalidLength",
      "inputs": []
    },
    {
      "type": "error",
      "name": "NotFromThisAttester",
      "inputs": []
    },
    {
      "type": "error",
      "name": "NotPayable",
      "inputs": []
    },
    {
      "type": "error",
      "name": "ReentrancyGuardReentrantCall",
      "inputs": []
    },
    {
      "type": "error",
      "name": "RevocationFailed",
      "inputs": [
        {
          "name": "attestationId",
          "type": "bytes32",
          "internalType": "bytes32"
        }
      ]
    },
    {
      "type": "error",
      "name": "SchemaRegistrationFailed",
      "inputs": [
        {
          "name": "uid",
          "type": "bytes32",
          "internalType": "bytes32"
        }
      ]
    },
    {
      "type": "error",
      "name": "UnauthorizedCall",
      "inputs": []
    }
  ],
  "bytecode": {
    "object": "0x6101a0806040523461026f5760408161239680380380916100208285610273565b83398101031261026f5780516001600160a01b0381169182820361026f5760200151906001600160a01b03821680830361026f576040519361006360a086610273565b607085527f6164647265737320617262697465722c2062797465732064656d616e642c206260208601527f797465733332206174746573746174696f6e5569642c2075696e74363420766160408601527f6c69646174696f6e45787069726174696f6e54696d652c20626f6f6c2076616c60608601526f69646174696f6e5265766f6361626c6560801b60808601526001608052600360a0525f60c052156102605761018e93826101279360e052610120528361010052600161016052309161038e565b6101405260017f9b779b17422d0df92223018b32b4d1fa46e071723d6817e2486d003becc55f005560405161015d604082610273565b601f81527f627974657333322076616c6964617465644174746573746174696f6e556964006020820152309161038e565b61018052604051611e2c908161056a823960805181610f9b015260a05181610fc6015260c05181610ff1015260e05181611afd01526101005181610e120152610120518181816102b30152818161077e0152818161098901528181610b14015281816118910152611cd801526101405181818161013d015281816107be015281816108d901528181610ac601528181610de001528181610f59015281816116d201526117f90152610160518181816108610152818161091c01526118450152610180518181816103f001526106160152f35b6341bc07ff60e11b5f5260045ffd5b5f80fd5b601f909101601f19168101906001600160401b0382119082101761029657604052565b634e487b7160e01b5f52604160045260245ffd5b60208183031261026f578051906001600160401b03821161026f57019060808282031261026f5760405191608083016001600160401b03811184821017610296576040528051835260208101516001600160a01b038116810361026f5760208401526040810151801515810361026f5760408401526060810151906001600160401b03821161026f570181601f8201121561026f578051906001600160401b0382116102965760405192610368601f8401601f191660200185610273565b8284526020838301011161026f57815f9260208093018386015e83010152606082015290565b929160405190602082018351926103d86015602083818901978089885e810160018060601b03198860601b1683820152600160f81b60348201520301600a19810184520182610273565b5190206040516351753e3760e11b81526004810182905290956001600160a01b031693905f81602481885afa80156104e95787915f9161054f575b505114610549579060846020926040519485938492630c1af44f60e31b8452606060048501525180928160648601528585015e5f84838501015260018060a01b0316602483015260016044830152601f801991011681010301815f865af15f9181610515575b506104f457505f602491604051928380926351753e3760e11b82528760048301525afa80156104e95783915f916104c7575b5051146104c55750639e6113d560e01b5f5260045260245ffd5b565b6104e391503d805f833e6104db8183610273565b8101906102aa565b5f6104ab565b6040513d5f823e3d90fd5b91928091508203610503575090565b639e6113d560e01b5f5260045260245ffd5b9091506020813d602011610541575b8161053160209383610273565b8101031261026f5751905f610479565b3d9150610524565b50505050565b61056391503d805f833e6104db8183610273565b5f61041356fe6080806040526004361015610029575b50361561001a575f80fd5b631574f9f360e01b5f5260045ffd5b5f905f3560e01c9081633ce645d514611103575080634e3fa9261461107e57806354fd4d5014610f7c5780635bf2f20d14610f425780636b122fe014610da1578063760bd11814610d4357806388e5b2d914610c0e5780638da3721a14610c2d57806391db0b7e14610c0e57806396afb36514610a97578063b3b902d414610886578063b587a5eb14610849578063c6ec50701461073d578063c93844be14610655578063ce46e04614610639578063df61dd2c146105fe578063e49617e1146105d9578063e60c3505146105d95763ea6ec49c0361000f57346105d65760403660031901126105d65760243590600435610122611b55565b61012b81611cb2565b61013484611cb2565b906020810151907f00000000000000000000000000000000000000000000000000000000000000008092036105c7578051156105b8576001600160401b0360608201511680151590816105ad575b5061059e576001600160401b0360808201511661058f5761027360206101208084019360c0876102856101b588516115fe565b9190945191604051988997889687966346d1b90d60e11b885260606004890152805160648901528b81015160848901526001600160401b0360408201511660a48901526001600160401b0360608201511660c48901526001600160401b0360808201511660e489015260a0810151610104890152019d8e60018060a01b0390511661012488015260018060a01b0360e082015116610144880152610100810151151561016488015201516101406101848701526101a48601906111a8565b848103600319016024860152906111a8565b604483019190915203916001600160a01b03165afa90811561058457869161054a575b501561053b576040517f00000000000000000000000000000000000000000000000000000000000000006001600160a01b031692906102e681611217565b858152866020820152604051916102fc83611217565b82526020820152823b1561053757604051634692626760e01b8152815160048201526020918201518051602483015290910151604482015285808260648183885af19182610522575b505061035f5763614cf93960e01b85526004849052602485fd5b6104318594939260209261038660018060a01b03865116915185808251830101910161156d565b6001600160401b0360608201511690604060808201511515910151906040519282888501528784526103b9604085611268565b604051946103c68661124d565b8552878501526040840152606083015260808201528660a0820152604051906103ee82611217565b7f000000000000000000000000000000000000000000000000000000000000000082528482015260405196878094819363f17325e760e01b835260048301611d60565b03925af19283156105175784936104bd575b50907ff96e77bc177ae8e2ff25185e7c6d85f8ba97c8bdd9d46933aac70a7a33edf6c0946104b9939260405193602085015260208452610484604085611268565b516040519687966001600160a01b03909216939180a460015f516020611dd75f395f51905f52556020835260208301906111a8565b0390f35b9250906020833d60201161050f575b816104d960209383611268565b8101031261050b57915191907ff96e77bc177ae8e2ff25185e7c6d85f8ba97c8bdd9d46933aac70a7a33edf6c0610443565b5f80fd5b3d91506104cc565b6040513d86823e3d90fd5b8161052c91611268565b61053757855f610345565b8580fd5b630ebe58ef60e11b8552600485fd5b90506020813d60201161057c575b8161056560209383611268565b8101031261053757610576906114e8565b5f6102a8565b3d9150610558565b6040513d88823e3d90fd5b637b6227e960e11b8552600485fd5b631ab7da6b60e01b8552600485fd5b90504210155f610182565b635c2c7f8960e01b8552600485fd5b63629cd40b60e11b8552600485fd5b80fd5b60206105f46105e736611408565b6105ef611afb565b611b3c565b6040519015158152f35b50346105d657806003193601126105d65760206040517f00000000000000000000000000000000000000000000000000000000000000008152f35b50346105d657806003193601126105d657602090604051908152f35b50346105d65760203660031901126105d6576004356001600160401b03811161073557610686903690600401611385565b6106919291926117c0565b50820191602081840312610735578035906001600160401b03821161073957019160a08382031261073557604051916106c983611232565b6106d284611194565b83526020840135906001600160401b0382116105d65750836106fe610724936080936104b997016112da565b60208501526040810135604085015261071960608201611180565b606085015201611378565b6080820152604051918291826113b2565b5080fd5b8280fd5b50346105d65760203660031901126105d6576107576117c0565b50610760611b8d565b506040516328c44a9960e21b815260048035908201529080826024817f00000000000000000000000000000000000000000000000000000000000000006001600160a01b03165afa91821561083c578192610818575b5060208201517f000000000000000000000000000000000000000000000000000000000000000003610809576104b96107fd6101208401516020808251830101910161156d565b604051918291826113b2565b635527981560e11b8152600490fd5b6108359192503d8084833e61082d8183611268565b810190611bd7565b905f6107b6565b50604051903d90823e3d90fd5b50346105d657806003193601126105d65760206040517f000000000000000000000000000000000000000000000000000000000000000015158152f35b5060603660031901126105d6576004356001600160401b038111610735576108b5610984913690600401611385565b92906108ce6108c261116a565b916044359536916112a4565b906108d7611b55565b7f0000000000000000000000000000000000000000000000000000000000000000906001600160401b036040519161090e8361124d565b3383521680602083015260207f00000000000000000000000000000000000000000000000000000000000000001515928360408201528860608201528560808201528660a08201526040519061096382611217565b858252828201526040518098819263f17325e760e01b835260048301611d60565b0381887f00000000000000000000000000000000000000000000000000000000000000006001600160a01b03165af1958615610a8c578596610a51575b50906020966101209392604051936109d8856111fb565b888552898501526001600160401b0342166040850152606084015285608084015260a08301523360c08301523060e08301526101008201520152817f8f7f2dbafd79125e808bf16a53d7fa4e17b8b6374ced76d946a45f94b7bf4d06339280a360015f516020611dd75f395f51905f5255604051908152f35b92919095506020833d602011610a84575b81610a6f60209383611268565b8101031261050b5791519490919060206109c1565b3d9150610a62565b6040513d87823e3d90fd5b503461050b57602036600319011261050b5760043590610ab5611b55565b610abe82611cb2565b6020810151907f0000000000000000000000000000000000000000000000000000000000000000809203610bff576060016001600160401b0381511615610bf057516001600160401b03164210610bf0576040517f00000000000000000000000000000000000000000000000000000000000000006001600160a01b031690610b4681611217565b8481525f602082015260405192610b5c84611217565b83526020830152803b1561050b57604051634692626760e01b815282516004820152602092830151805160248301529092015160448301525f908290606490829084905af19081610bdb575b50610bbf5760249163614cf93960e01b8252600452fd5b60015f516020611dd75f395f51905f5255602060405160018152f35b610be89192505f90611268565b5f905f610ba8565b637bf6a16f60e01b5f5260045ffd5b63629cd40b60e11b5f5260045ffd5b60206105f4610c1c36611328565b92610c28929192611afb565b611627565b3461050b57606036600319011261050b576004356001600160401b03811161050b57610140600319823603011261050b5760405190610c6b826111fb565b8060040135825260248101356020830152610c8860448201611180565b6040830152610c9960648201611180565b6060830152610caa60848201611180565b608083015260a481013560a0830152610cc560c48201611194565b60c0830152610cd660e48201611194565b60e0830152610ce86101048201611378565b610100830152610124810135906001600160401b03821161050b576004610d1292369201016112da565b6101208201526024356001600160401b03811161050b57602091610d3d6105f49236906004016112da565b906116cb565b3461050b57602036600319011261050b576004356001600160401b03811161050b57610d76610d7b9136906004016112da565b6115fe565b604080516001600160a01b0390931683526020830181905282916104b9918301906111a8565b3461050b575f36600319011261050b57606080604051610dc0816111cc565b5f81525f60208201525f604082015201526040516351753e3760e11b81527f000000000000000000000000000000000000000000000000000000000000000060048201525f8160248160018060a01b037f0000000000000000000000000000000000000000000000000000000000000000165afa8015610f37575f90610e87575b6060906104b9604051928392602084528051602085015260018060a01b0360208201511660408501526040810151151582850152015160808084015260a08301906111a8565b503d805f833e610e978183611268565b81019060208183031261050b578051906001600160401b03821161050b570160808183031261050b5760405190610ecd826111cc565b8051825260208101516001600160a01b038116810361050b576020830152610ef7604082016114e8565b60408301526060810151906001600160401b03821161050b570182601f8201121561050b57606092816020610f2e935191016114f5565b82820152610e41565b6040513d5f823e3d90fd5b3461050b575f36600319011261050b5760206040517f00000000000000000000000000000000000000000000000000000000000000008152f35b3461050b575f36600319011261050b576104b9602061106a6001610fbf7f000000000000000000000000000000000000000000000000000000000000000061198e565b8184610fea7f000000000000000000000000000000000000000000000000000000000000000061198e565b81806110157f000000000000000000000000000000000000000000000000000000000000000061198e565b9260405199878b985191829101848a015e870190601760f91b83830152805192839101602183015e010190601760f91b84830152805192839101600283015e01015f838201520301601f198101835282611268565b6040519182916020835260208301906111a8565b3461050b57606036600319011261050b576004356001600160401b03811161050b5760a0600319823603011261050b576110b661116a565b906044356001600160a01b038116810361050b576020926110e86110f66110fb9460405192839160040188830161143c565b03601f198101835282611268565b6117eb565b604051908152f35b3461050b57604036600319011261050b576004356001600160401b03811161050b5760a0600319823603011261050b57816110fb9161116360209461115561114961116a565b9360040187830161143c565b03601f198101845283611268565b33916117eb565b602435906001600160401b038216820361050b57565b35906001600160401b038216820361050b57565b35906001600160a01b038216820361050b57565b805180835260209291819084018484015e5f828201840152601f01601f1916010190565b608081019081106001600160401b038211176111e757604052565b634e487b7160e01b5f52604160045260245ffd5b61014081019081106001600160401b038211176111e757604052565b604081019081106001600160401b038211176111e757604052565b60a081019081106001600160401b038211176111e757604052565b60c081019081106001600160401b038211176111e757604052565b90601f801991011681019081106001600160401b038211176111e757604052565b6001600160401b0381116111e757601f01601f191660200190565b9291926112b082611289565b916112be6040519384611268565b82948184528183011161050b578281602093845f960137010152565b9080601f8301121561050b578160206112f5933591016112a4565b90565b9181601f8401121561050b578235916001600160401b03831161050b576020808501948460051b01011161050b57565b604060031982011261050b576004356001600160401b03811161050b5781611352916004016112f8565b92909291602435906001600160401b03821161050b57611374916004016112f8565b9091565b3590811515820361050b57565b9181601f8401121561050b578235916001600160401b03831161050b576020838186019501011161050b57565b6020815260018060a01b03825116602082015260a060806113e1602085015183604086015260c08501906111a8565b93604081015160608501526001600160401b03606082015116828501520151151591015290565b602060031982011261050b57600435906001600160401b03821161050b5761014090829003600319011261050b5760040190565b602081526001600160a01b0361145183611194565b1660208201526020820135601e198336030181121561050b578201602081359101926001600160401b03821161050b57813603841361050b5760806114d5918360e09660a060408801528160c0880152878701375f868587010152604081013560608601526001600160401b036114ca60608301611180565b168286015201611378565b151560a0830152601f01601f1916010190565b5190811515820361050b57565b92919261150182611289565b9161150f6040519384611268565b82948184528183011161050b578281602093845f96015e010152565b51906001600160a01b038216820361050b57565b9080601f8301121561050b5781516112f5926020016114f5565b51906001600160401b038216820361050b57565b60208183031261050b578051906001600160401b03821161050b570160a08183031261050b57604051916115a083611232565b6115a98261152b565b83526020820151916001600160401b03831161050b576115d06080926115f694830161153f565b6020850152604081015160408501526115eb60608201611559565b6060850152016114e8565b608082015290565b611611906020808251830101910161156d565b80516020909101516001600160a01b0390911691565b9290928184036116bc575f91345b858410156116b1578184101561169d578360051b808601359082821161168e5784013561013e198536030181121561050b57611672908501611b3c565b156116835760019103930192611635565b505050505050505f90565b63044044a560e21b5f5260045ffd5b634e487b7160e01b5f52603260045260245ffd5b505050505050600190565b63251f56a160e21b5f5260045ffd5b60208101517f0000000000000000000000000000000000000000000000000000000000000000036117ba576117116101206117219201516020808251830101910161156d565b916020808251830101910161156d565b60408201516040820151149182611795575b8261177e575b82611765575b8261174957505090565b6020919250810151818151910120910151602081519101201490565b805182516001600160a01b03908116911614925061173f565b915060808201511515608082015115151491611739565b91506001600160401b036060830151166001600160401b036060830151161491611733565b50505f90565b604051906117cd82611232565b5f608083828152606060208201528260408201528260608201520152565b61188c926117f7611b55565b7f0000000000000000000000000000000000000000000000000000000000000000906001600160401b036040519161182e8361124d565b60018060a01b0316948583521680602083015260207f00000000000000000000000000000000000000000000000000000000000000001515928360408201525f60608201528560808201525f60a08201526040519061096382611217565b03815f7f00000000000000000000000000000000000000000000000000000000000000006001600160a01b03165af1958615610f37575f96611952575b50906101209291604051926118dd846111fb565b87845260208401526001600160401b034216604084015260608301525f60808301525f60a08301528460c08301523060e08301526101008201520152817f8f7f2dbafd79125e808bf16a53d7fa4e17b8b6374ced76d946a45f94b7bf4d065f80a39060015f516020611dd75f395f51905f5255565b92919095506020833d602011611986575b8161197060209383611268565b8101031261050b576101209251959091926118c9565b3d9150611963565b805f9172184f03e93ff9f4daa797ed6e38ed64bf6a1f0160401b821015611ad8575b806d04ee2d6d415b85acef8100000000600a921015611abd575b662386f26fc10000811015611aa9575b6305f5e100811015611a98575b612710811015611a89575b6064811015611a7b575b1015611a70575b600a60216001840193611a1585611289565b94611a236040519687611268565b808652611a32601f1991611289565b013660208701378401015b5f1901916f181899199a1a9b1b9c1cb0b131b232b360811b8282061a8353048015611a6b57600a9091611a3d565b505090565b600190910190611a03565b6064600291049301926119fc565b612710600491049301926119f2565b6305f5e100600891049301926119e7565b662386f26fc10000601091049301926119da565b6d04ee2d6d415b85acef8100000000602091049301926119ca565b506040915072184f03e93ff9f4daa797ed6e38ed64bf6a1f0160401b81046119b0565b7f00000000000000000000000000000000000000000000000000000000000000006001600160a01b03163303611b2d57565b634ca8886760e01b5f5260045ffd5b60e0013560018060a01b03811680910361050b57301490565b60025f516020611dd75f395f51905f525414611b7e5760025f516020611dd75f395f51905f5255565b633ee5aeb560e01b5f5260045ffd5b60405190611b9a826111fb565b6060610120835f81525f60208201525f60408201525f838201525f60808201525f60a08201525f60c08201525f60e08201525f6101008201520152565b60208183031261050b578051906001600160401b03821161050b57016101408183031261050b5760405191611c0b836111fb565b8151835260208201516020840152611c2560408301611559565b6040840152611c3660608301611559565b6060840152611c4760808301611559565b608084015260a082015160a0840152611c6260c0830161152b565b60c0840152611c7360e0830161152b565b60e0840152611c8561010083016114e8565b6101008401526101208201516001600160401b03811161050b57611ca9920161153f565b61012082015290565b90611cbb611b8d565b506040516328c44a9960e21b815260048101839052915f836024817f00000000000000000000000000000000000000000000000000000000000000006001600160a01b03165afa928315610f37575f93611d44575b508251818115918215611d39575b5050611d275750565b6301fb6dd160e01b5f5260045260245ffd5b14159050815f611d1e565b611d599193503d805f833e61082d8183611268565b915f611d10565b9060209081835280518284015201519060408082015260018060a01b0382511660608201526001600160401b0360208301511660808201526040820151151560a0820152606082015160c082015261010060a0611dcd608085015160c060e08601526101208501906111a8565b9301519101529056fe9b779b17422d0df92223018b32b4d1fa46e071723d6817e2486d003becc55f00a2646970667358221220dd7e0eefc1e13ed50038f086a27abda61595d8699368014fe6b139e04456a65b64736f6c634300081b0033",
    "linkReferences": {}
  },
  "methodIdentifiers": {
    "ATTESTATION_SCHEMA()": "5bf2f20d",
    "ATTESTATION_SCHEMA_REVOCABLE()": "b587a5eb",
    "VALIDATION_SCHEMA()": "df61dd2c",
    "attest((bytes32,bytes32,uint64,uint64,uint64,bytes32,address,address,bool,bytes))": "e60c3505",
    "check((bytes32,bytes32,uint64,uint64,uint64,bytes32,address,address,bool,bytes),bytes,bytes32)": "8da3721a",
    "collect(bytes32,bytes32)": "ea6ec49c",
    "decodeCondition(bytes)": "760bd118",
    "decodeObligationData(bytes)": "c93844be",
    "doObligation((address,bytes,bytes32,uint64,bool),uint64)": "3ce645d5",
    "doObligationFor((address,bytes,bytes32,uint64,bool),uint64,address)": "4e3fa926",
    "doObligationRaw(bytes,uint64,bytes32)": "b3b902d4",
    "getObligationData(bytes32)": "c6ec5070",
    "getSchema()": "6b122fe0",
    "isPayable()": "ce46e046",
    "multiAttest((bytes32,bytes32,uint64,uint64,uint64,bytes32,address,address,bool,bytes)[],uint256[])": "91db0b7e",
    "multiRevoke((bytes32,bytes32,uint64,uint64,uint64,bytes32,address,address,bool,bytes)[],uint256[])": "88e5b2d9",
    "reclaim(bytes32)": "96afb365",
    "revoke((bytes32,bytes32,uint64,uint64,uint64,bytes32,address,address,bool,bytes))": "e49617e1",
    "version()": "54fd4d50"
  },
  "id": 134
}