{
  "abi": [
    {
      "type": "constructor",
      "inputs": [
        {
          "name": "_eas",
          "type": "address",
          "internalType": "contract IEAS"
        },
        {
          "name": "_schemaRegistry",
          "type": "address",
          "internalType": "contract ISchemaRegistry"
        }
      ],
      "stateMutability": "nonpayable"
    },
    {
      "type": "receive",
      "stateMutability": "payable"
    },
    {
      "type": "function",
      "name": "ATTESTATION_SCHEMA",
      "inputs": [],
      "outputs": [
        {
          "name": "",
          "type": "bytes32",
          "internalType": "bytes32"
        }
      ],
      "stateMutability": "view"
    },
    {
      "type": "function",
      "name": "ATTESTATION_SCHEMA_REVOCABLE",
      "inputs": [],
      "outputs": [
        {
          "name": "",
          "type": "bool",
          "internalType": "bool"
        }
      ],
      "stateMutability": "view"
    },
    {
      "type": "function",
      "name": "VALIDATION_SCHEMA",
      "inputs": [],
      "outputs": [
        {
          "name": "",
          "type": "bytes32",
          "internalType": "bytes32"
        }
      ],
      "stateMutability": "view"
    },
    {
      "type": "function",
      "name": "attest",
      "inputs": [
        {
          "name": "attestation",
          "type": "tuple",
          "internalType": "struct Attestation",
          "components": [
            {
              "name": "uid",
              "type": "bytes32",
              "internalType": "bytes32"
            },
            {
              "name": "schema",
              "type": "bytes32",
              "internalType": "bytes32"
            },
            {
              "name": "time",
              "type": "uint64",
              "internalType": "uint64"
            },
            {
              "name": "expirationTime",
              "type": "uint64",
              "internalType": "uint64"
            },
            {
              "name": "revocationTime",
              "type": "uint64",
              "internalType": "uint64"
            },
            {
              "name": "refUID",
              "type": "bytes32",
              "internalType": "bytes32"
            },
            {
              "name": "recipient",
              "type": "address",
              "internalType": "address"
            },
            {
              "name": "attester",
              "type": "address",
              "internalType": "address"
            },
            {
              "name": "revocable",
              "type": "bool",
              "internalType": "bool"
            },
            {
              "name": "data",
              "type": "bytes",
              "internalType": "bytes"
            }
          ]
        }
      ],
      "outputs": [
        {
          "name": "",
          "type": "bool",
          "internalType": "bool"
        }
      ],
      "stateMutability": "payable"
    },
    {
      "type": "function",
      "name": "check",
      "inputs": [
        {
          "name": "obligation",
          "type": "tuple",
          "internalType": "struct Attestation",
          "components": [
            {
              "name": "uid",
              "type": "bytes32",
              "internalType": "bytes32"
            },
            {
              "name": "schema",
              "type": "bytes32",
              "internalType": "bytes32"
            },
            {
              "name": "time",
              "type": "uint64",
              "internalType": "uint64"
            },
            {
              "name": "expirationTime",
              "type": "uint64",
              "internalType": "uint64"
            },
            {
              "name": "revocationTime",
              "type": "uint64",
              "internalType": "uint64"
            },
            {
              "name": "refUID",
              "type": "bytes32",
              "internalType": "bytes32"
            },
            {
              "name": "recipient",
              "type": "address",
              "internalType": "address"
            },
            {
              "name": "attester",
              "type": "address",
              "internalType": "address"
            },
            {
              "name": "revocable",
              "type": "bool",
              "internalType": "bool"
            },
            {
              "name": "data",
              "type": "bytes",
              "internalType": "bytes"
            }
          ]
        },
        {
          "name": "demand",
          "type": "bytes",
          "internalType": "bytes"
        },
        {
          "name": "",
          "type": "bytes32",
          "internalType": "bytes32"
        }
      ],
      "outputs": [
        {
          "name": "",
          "type": "bool",
          "internalType": "bool"
        }
      ],
      "stateMutability": "view"
    },
    {
      "type": "function",
      "name": "collect",
      "inputs": [
        {
          "name": "_escrow",
          "type": "bytes32",
          "internalType": "bytes32"
        },
        {
          "name": "_fulfillment",
          "type": "bytes32",
          "internalType": "bytes32"
        }
      ],
      "outputs": [
        {
          "name": "",
          "type": "bytes",
          "internalType": "bytes"
        }
      ],
      "stateMutability": "nonpayable"
    },
    {
      "type": "function",
      "name": "decodeCondition",
      "inputs": [
        {
          "name": "data",
          "type": "bytes",
          "internalType": "bytes"
        }
      ],
      "outputs": [
        {
          "name": "arbiter",
          "type": "address",
          "internalType": "address"
        },
        {
          "name": "demand",
          "type": "bytes",
          "internalType": "bytes"
        }
      ],
      "stateMutability": "pure"
    },
    {
      "type": "function",
      "name": "decodeObligationData",
      "inputs": [
        {
          "name": "data",
          "type": "bytes",
          "internalType": "bytes"
        }
      ],
      "outputs": [
        {
          "name": "",
          "type": "tuple",
          "internalType": "struct UnconditionalAttestationReferenceEscrowObligation.ObligationData",
          "components": [
            {
              "name": "arbiter",
              "type": "address",
              "internalType": "address"
            },
            {
              "name": "demand",
              "type": "bytes",
              "internalType": "bytes"
            },
            {
              "name": "attestationUid",
              "type": "bytes32",
              "internalType": "bytes32"
            },
            {
              "name": "validationExpirationTime",
              "type": "uint64",
              "internalType": "uint64"
            },
            {
              "name": "validationRevocable",
              "type": "bool",
              "internalType": "bool"
            }
          ]
        }
      ],
      "stateMutability": "pure"
    },
    {
      "type": "function",
      "name": "doObligation",
      "inputs": [
        {
          "name": "data",
          "type": "tuple",
          "internalType": "struct UnconditionalAttestationReferenceEscrowObligation.ObligationData",
          "components": [
            {
              "name": "arbiter",
              "type": "address",
              "internalType": "address"
            },
            {
              "name": "demand",
              "type": "bytes",
              "internalType": "bytes"
            },
            {
              "name": "attestationUid",
              "type": "bytes32",
              "internalType": "bytes32"
            },
            {
              "name": "validationExpirationTime",
              "type": "uint64",
              "internalType": "uint64"
            },
            {
              "name": "validationRevocable",
              "type": "bool",
              "internalType": "bool"
            }
          ]
        },
        {
          "name": "expirationTime",
          "type": "uint64",
          "internalType": "uint64"
        }
      ],
      "outputs": [
        {
          "name": "",
          "type": "bytes32",
          "internalType": "bytes32"
        }
      ],
      "stateMutability": "nonpayable"
    },
    {
      "type": "function",
      "name": "doObligationFor",
      "inputs": [
        {
          "name": "data",
          "type": "tuple",
          "internalType": "struct UnconditionalAttestationReferenceEscrowObligation.ObligationData",
          "components": [
            {
              "name": "arbiter",
              "type": "address",
              "internalType": "address"
            },
            {
              "name": "demand",
              "type": "bytes",
              "internalType": "bytes"
            },
            {
              "name": "attestationUid",
              "type": "bytes32",
              "internalType": "bytes32"
            },
            {
              "name": "validationExpirationTime",
              "type": "uint64",
              "internalType": "uint64"
            },
            {
              "name": "validationRevocable",
              "type": "bool",
              "internalType": "bool"
            }
          ]
        },
        {
          "name": "expirationTime",
          "type": "uint64",
          "internalType": "uint64"
        },
        {
          "name": "recipient",
          "type": "address",
          "internalType": "address"
        }
      ],
      "outputs": [
        {
          "name": "",
          "type": "bytes32",
          "internalType": "bytes32"
        }
      ],
      "stateMutability": "nonpayable"
    },
    {
      "type": "function",
      "name": "doObligationRaw",
      "inputs": [
        {
          "name": "data",
          "type": "bytes",
          "internalType": "bytes"
        },
        {
          "name": "expirationTime",
          "type": "uint64",
          "internalType": "uint64"
        },
        {
          "name": "refUID",
          "type": "bytes32",
          "internalType": "bytes32"
        }
      ],
      "outputs": [
        {
          "name": "uid_",
          "type": "bytes32",
          "internalType": "bytes32"
        }
      ],
      "stateMutability": "payable"
    },
    {
      "type": "function",
      "name": "getObligationData",
      "inputs": [
        {
          "name": "uid",
          "type": "bytes32",
          "internalType": "bytes32"
        }
      ],
      "outputs": [
        {
          "name": "",
          "type": "tuple",
          "internalType": "struct UnconditionalAttestationReferenceEscrowObligation.ObligationData",
          "components": [
            {
              "name": "arbiter",
              "type": "address",
              "internalType": "address"
            },
            {
              "name": "demand",
              "type": "bytes",
              "internalType": "bytes"
            },
            {
              "name": "attestationUid",
              "type": "bytes32",
              "internalType": "bytes32"
            },
            {
              "name": "validationExpirationTime",
              "type": "uint64",
              "internalType": "uint64"
            },
            {
              "name": "validationRevocable",
              "type": "bool",
              "internalType": "bool"
            }
          ]
        }
      ],
      "stateMutability": "view"
    },
    {
      "type": "function",
      "name": "getSchema",
      "inputs": [],
      "outputs": [
        {
          "name": "",
          "type": "tuple",
          "internalType": "struct SchemaRecord",
          "components": [
            {
              "name": "uid",
              "type": "bytes32",
              "internalType": "bytes32"
            },
            {
              "name": "resolver",
              "type": "address",
              "internalType": "contract ISchemaResolver"
            },
            {
              "name": "revocable",
              "type": "bool",
              "internalType": "bool"
            },
            {
              "name": "schema",
              "type": "string",
              "internalType": "string"
            }
          ]
        }
      ],
      "stateMutability": "view"
    },
    {
      "type": "function",
      "name": "isPayable",
      "inputs": [],
      "outputs": [
        {
          "name": "",
          "type": "bool",
          "internalType": "bool"
        }
      ],
      "stateMutability": "pure"
    },
    {
      "type": "function",
      "name": "multiAttest",
      "inputs": [
        {
          "name": "attestations",
          "type": "tuple[]",
          "internalType": "struct Attestation[]",
          "components": [
            {
              "name": "uid",
              "type": "bytes32",
              "internalType": "bytes32"
            },
            {
              "name": "schema",
              "type": "bytes32",
              "internalType": "bytes32"
            },
            {
              "name": "time",
              "type": "uint64",
              "internalType": "uint64"
            },
            {
              "name": "expirationTime",
              "type": "uint64",
              "internalType": "uint64"
            },
            {
              "name": "revocationTime",
              "type": "uint64",
              "internalType": "uint64"
            },
            {
              "name": "refUID",
              "type": "bytes32",
              "internalType": "bytes32"
            },
            {
              "name": "recipient",
              "type": "address",
              "internalType": "address"
            },
            {
              "name": "attester",
              "type": "address",
              "internalType": "address"
            },
            {
              "name": "revocable",
              "type": "bool",
              "internalType": "bool"
            },
            {
              "name": "data",
              "type": "bytes",
              "internalType": "bytes"
            }
          ]
        },
        {
          "name": "values",
          "type": "uint256[]",
          "internalType": "uint256[]"
        }
      ],
      "outputs": [
        {
          "name": "",
          "type": "bool",
          "internalType": "bool"
        }
      ],
      "stateMutability": "payable"
    },
    {
      "type": "function",
      "name": "multiRevoke",
      "inputs": [
        {
          "name": "attestations",
          "type": "tuple[]",
          "internalType": "struct Attestation[]",
          "components": [
            {
              "name": "uid",
              "type": "bytes32",
              "internalType": "bytes32"
            },
            {
              "name": "schema",
              "type": "bytes32",
              "internalType": "bytes32"
            },
            {
              "name": "time",
              "type": "uint64",
              "internalType": "uint64"
            },
            {
              "name": "expirationTime",
              "type": "uint64",
              "internalType": "uint64"
            },
            {
              "name": "revocationTime",
              "type": "uint64",
              "internalType": "uint64"
            },
            {
              "name": "refUID",
              "type": "bytes32",
              "internalType": "bytes32"
            },
            {
              "name": "recipient",
              "type": "address",
              "internalType": "address"
            },
            {
              "name": "attester",
              "type": "address",
              "internalType": "address"
            },
            {
              "name": "revocable",
              "type": "bool",
              "internalType": "bool"
            },
            {
              "name": "data",
              "type": "bytes",
              "internalType": "bytes"
            }
          ]
        },
        {
          "name": "values",
          "type": "uint256[]",
          "internalType": "uint256[]"
        }
      ],
      "outputs": [
        {
          "name": "",
          "type": "bool",
          "internalType": "bool"
        }
      ],
      "stateMutability": "payable"
    },
    {
      "type": "function",
      "name": "reclaim",
      "inputs": [
        {
          "name": "uid",
          "type": "bytes32",
          "internalType": "bytes32"
        }
      ],
      "outputs": [
        {
          "name": "",
          "type": "bool",
          "internalType": "bool"
        }
      ],
      "stateMutability": "nonpayable"
    },
    {
      "type": "function",
      "name": "revoke",
      "inputs": [
        {
          "name": "attestation",
          "type": "tuple",
          "internalType": "struct Attestation",
          "components": [
            {
              "name": "uid",
              "type": "bytes32",
              "internalType": "bytes32"
            },
            {
              "name": "schema",
              "type": "bytes32",
              "internalType": "bytes32"
            },
            {
              "name": "time",
              "type": "uint64",
              "internalType": "uint64"
            },
            {
              "name": "expirationTime",
              "type": "uint64",
              "internalType": "uint64"
            },
            {
              "name": "revocationTime",
              "type": "uint64",
              "internalType": "uint64"
            },
            {
              "name": "refUID",
              "type": "bytes32",
              "internalType": "bytes32"
            },
            {
              "name": "recipient",
              "type": "address",
              "internalType": "address"
            },
            {
              "name": "attester",
              "type": "address",
              "internalType": "address"
            },
            {
              "name": "revocable",
              "type": "bool",
              "internalType": "bool"
            },
            {
              "name": "data",
              "type": "bytes",
              "internalType": "bytes"
            }
          ]
        }
      ],
      "outputs": [
        {
          "name": "",
          "type": "bool",
          "internalType": "bool"
        }
      ],
      "stateMutability": "payable"
    },
    {
      "type": "function",
      "name": "supportsInterface",
      "inputs": [
        {
          "name": "interfaceId",
          "type": "bytes4",
          "internalType": "bytes4"
        }
      ],
      "outputs": [
        {
          "name": "",
          "type": "bool",
          "internalType": "bool"
        }
      ],
      "stateMutability": "view"
    },
    {
      "type": "function",
      "name": "version",
      "inputs": [],
      "outputs": [
        {
          "name": "",
          "type": "string",
          "internalType": "string"
        }
      ],
      "stateMutability": "view"
    },
    {
      "type": "event",
      "name": "EscrowCollected",
      "inputs": [
        {
          "name": "escrowUid",
          "type": "bytes32",
          "indexed": true,
          "internalType": "bytes32"
        },
        {
          "name": "fulfillmentUid",
          "type": "bytes32",
          "indexed": true,
          "internalType": "bytes32"
        },
        {
          "name": "fulfiller",
          "type": "address",
          "indexed": true,
          "internalType": "address"
        }
      ],
      "anonymous": false
    },
    {
      "type": "event",
      "name": "EscrowMade",
      "inputs": [
        {
          "name": "escrowUid",
          "type": "bytes32",
          "indexed": true,
          "internalType": "bytes32"
        },
        {
          "name": "escrower",
          "type": "address",
          "indexed": true,
          "internalType": "address"
        }
      ],
      "anonymous": false
    },
    {
      "type": "event",
      "name": "EscrowReclaimed",
      "inputs": [
        {
          "name": "escrowUid",
          "type": "bytes32",
          "indexed": true,
          "internalType": "bytes32"
        },
        {
          "name": "escrower",
          "type": "address",
          "indexed": true,
          "internalType": "address"
        }
      ],
      "anonymous": false
    },
    {
      "type": "error",
      "name": "AccessDenied",
      "inputs": []
    },
    {
      "type": "error",
      "name": "AttestationNotFound",
      "inputs": [
        {
          "name": "attestationId",
          "type": "bytes32",
          "internalType": "bytes32"
        }
      ]
    },
    {
      "type": "error",
      "name": "AttestationRevoked",
      "inputs": []
    },
    {
      "type": "error",
      "name": "DeadlineExpired",
      "inputs": []
    },
    {
      "type": "error",
      "name": "InsufficientValue",
      "inputs": []
    },
    {
      "type": "error",
      "name": "InvalidAttestationUid",
      "inputs": []
    },
    {
      "type": "error",
      "name": "InvalidEAS",
      "inputs": []
    },
    {
      "type": "error",
      "name": "InvalidEscrowAttestation",
      "inputs": []
    },
    {
      "type": "error",
      "name": "InvalidFulfillment",
      "inputs": []
    },
    {
      "type": "error",
      "name": "InvalidLength",
      "inputs": []
    },
    {
      "type": "error",
      "name": "NotFromThisAttester",
      "inputs": []
    },
    {
      "type": "error",
      "name": "NotPayable",
      "inputs": []
    },
    {
      "type": "error",
      "name": "ReentrancyGuardReentrantCall",
      "inputs": []
    },
    {
      "type": "error",
      "name": "RevocationFailed",
      "inputs": [
        {
          "name": "attestationId",
          "type": "bytes32",
          "internalType": "bytes32"
        }
      ]
    },
    {
      "type": "error",
      "name": "SchemaRegistrationFailed",
      "inputs": [
        {
          "name": "uid",
          "type": "bytes32",
          "internalType": "bytes32"
        }
      ]
    },
    {
      "type": "error",
      "name": "UnauthorizedCall",
      "inputs": []
    }
  ],
  "bytecode": {
    "object": "0x6101a0806040523461026f5760408161244780380380916100208285610273565b83398101031261026f5780516001600160a01b0381169182820361026f5760200151906001600160a01b03821680830361026f576040519361006360a086610273565b607085527f6164647265737320617262697465722c2062797465732064656d616e642c206260208601527f797465733332206174746573746174696f6e5569642c2075696e74363420766160408601527f6c69646174696f6e45787069726174696f6e54696d652c20626f6f6c2076616c60608601526f69646174696f6e5265766f6361626c6560801b60808601526001608052600360a0525f60c052156102605761018e93826101279360e052610120528361010052600161016052309161038e565b6101405260017f9b779b17422d0df92223018b32b4d1fa46e071723d6817e2486d003becc55f005560405161015d604082610273565b601f81527f627974657333322076616c6964617465644174746573746174696f6e556964006020820152309161038e565b61018052604051611edd908161056a823960805181610fdb015260a05181611006015260c05181611031015260e05181611bae01526101005181610e520152610120518181816102be015281816107890152818161099401528181610b20015281816119420152611d89015261014051818181610148015281816107c9015281816108e401528181610ad101528181610e2001528181610f990152818161178301526118aa01526101605181818161086c0152818161092701526118f60152610180518181816103fb01526106210152f35b6341bc07ff60e11b5f5260045ffd5b5f80fd5b601f909101601f19168101906001600160401b0382119082101761029657604052565b634e487b7160e01b5f52604160045260245ffd5b60208183031261026f578051906001600160401b03821161026f57019060808282031261026f5760405191608083016001600160401b03811184821017610296576040528051835260208101516001600160a01b038116810361026f5760208401526040810151801515810361026f5760408401526060810151906001600160401b03821161026f570181601f8201121561026f578051906001600160401b0382116102965760405192610368601f8401601f191660200185610273565b8284526020838301011161026f57815f9260208093018386015e83010152606082015290565b929160405190602082018351926103d86015602083818901978089885e810160018060601b03198860601b1683820152600160f81b60348201520301600a19810184520182610273565b5190206040516351753e3760e11b81526004810182905290956001600160a01b031693905f81602481885afa80156104e95787915f9161054f575b505114610549579060846020926040519485938492630c1af44f60e31b8452606060048501525180928160648601528585015e5f84838501015260018060a01b0316602483015260016044830152601f801991011681010301815f865af15f9181610515575b506104f457505f602491604051928380926351753e3760e11b82528760048301525afa80156104e95783915f916104c7575b5051146104c55750639e6113d560e01b5f5260045260245ffd5b565b6104e391503d805f833e6104db8183610273565b8101906102aa565b5f6104ab565b6040513d5f823e3d90fd5b91928091508203610503575090565b639e6113d560e01b5f5260045260245ffd5b9091506020813d602011610541575b8161053160209383610273565b8101031261026f5751905f610479565b3d9150610524565b50505050565b61056391503d805f833e6104db8183610273565b5f61041356fe6080806040526004361015610029575b50361561001a575f80fd5b631574f9f360e01b5f5260045ffd5b5f905f3560e01c90816301ffc9a7146111ae575080633ce645d5146111435780634e3fa926146110be57806354fd4d5014610fbc5780635bf2f20d14610f825780636b122fe014610de1578063760bd11814610d8357806388e5b2d914610c4e5780638da3721a14610c6d57806391db0b7e14610c4e57806396afb36514610aa2578063b3b902d414610891578063b587a5eb14610854578063c6ec507014610748578063c93844be14610660578063ce46e04614610644578063df61dd2c14610609578063e49617e1146105e4578063e60c3505146105e45763ea6ec49c0361000f57346105e15760403660031901126105e1576024359060043561012d611c06565b61013681611d63565b61013f84611d63565b906020810151907f00000000000000000000000000000000000000000000000000000000000000008092036105d2578051156105c3576001600160401b0360608201511680151590816105b8575b506105a9576001600160401b0360808201511661059a5761027e60206101208084019360c0876102906101c088516116af565b9190945191604051988997889687966346d1b90d60e11b885260606004890152805160648901528b81015160848901526001600160401b0360408201511660a48901526001600160401b0360608201511660c48901526001600160401b0360808201511660e489015260a0810151610104890152019d8e60018060a01b0390511661012488015260018060a01b0360e082015116610144880152610100810151151561016488015201516101406101848701526101a4860190611259565b84810360031901602486015290611259565b604483019190915203916001600160a01b03165afa90811561058f578691610555575b5015610546576040517f00000000000000000000000000000000000000000000000000000000000000006001600160a01b031692906102f1816112c8565b85815286602082015260405191610307836112c8565b82526020820152823b1561054257604051634692626760e01b8152815160048201526020918201518051602483015290910151604482015285808260648183885af1918261052d575b505061036a5763614cf93960e01b85526004849052602485fd5b61043c8594939260209261039160018060a01b03865116915185808251830101910161161e565b6001600160401b0360608201511690604060808201511515910151906040519282888501528784526103c4604085611319565b604051946103d1866112fe565b8552878501526040840152606083015260808201528660a0820152604051906103f9826112c8565b7f000000000000000000000000000000000000000000000000000000000000000082528482015260405196878094819363f17325e760e01b835260048301611e11565b03925af19283156105225784936104c8575b50907ff96e77bc177ae8e2ff25185e7c6d85f8ba97c8bdd9d46933aac70a7a33edf6c0946104c493926040519360208501526020845261048f604085611319565b516040519687966001600160a01b03909216939180a460015f516020611e885f395f51905f5255602083526020830190611259565b0390f35b9250906020833d60201161051a575b816104e460209383611319565b8101031261051657915191907ff96e77bc177ae8e2ff25185e7c6d85f8ba97c8bdd9d46933aac70a7a33edf6c061044e565b5f80fd5b3d91506104d7565b6040513d86823e3d90fd5b8161053791611319565b61054257855f610350565b8580fd5b630ebe58ef60e11b8552600485fd5b90506020813d602011610587575b8161057060209383611319565b810103126105425761058190611599565b5f6102b3565b3d9150610563565b6040513d88823e3d90fd5b637b6227e960e11b8552600485fd5b631ab7da6b60e01b8552600485fd5b90504210155f61018d565b635c2c7f8960e01b8552600485fd5b63629cd40b60e11b8552600485fd5b80fd5b60206105ff6105f2366114b9565b6105fa611bac565b611bed565b6040519015158152f35b50346105e157806003193601126105e15760206040517f00000000000000000000000000000000000000000000000000000000000000008152f35b50346105e157806003193601126105e157602090604051908152f35b50346105e15760203660031901126105e1576004356001600160401b03811161074057610691903690600401611436565b61069c929192611871565b50820191602081840312610740578035906001600160401b03821161074457019160a08382031261074057604051916106d4836112e3565b6106dd84611245565b83526020840135906001600160401b0382116105e157508361070961072f936080936104c4970161138b565b60208501526040810135604085015261072460608201611231565b606085015201611429565b608082015260405191829182611463565b5080fd5b8280fd5b50346105e15760203660031901126105e157610762611871565b5061076b611c3e565b506040516328c44a9960e21b815260048035908201529080826024817f00000000000000000000000000000000000000000000000000000000000000006001600160a01b03165afa918215610847578192610823575b5060208201517f000000000000000000000000000000000000000000000000000000000000000003610814576104c46108086101208401516020808251830101910161161e565b60405191829182611463565b635527981560e11b8152600490fd5b6108409192503d8084833e6108388183611319565b810190611c88565b905f6107c1565b50604051903d90823e3d90fd5b50346105e157806003193601126105e15760206040517f000000000000000000000000000000000000000000000000000000000000000015158152f35b5060603660031901126105e1576004356001600160401b038111610740576108c061098f913690600401611436565b92906108d96108cd61121b565b91604435953691611355565b906108e2611c06565b7f0000000000000000000000000000000000000000000000000000000000000000906001600160401b0360405191610919836112fe565b3383521680602083015260207f00000000000000000000000000000000000000000000000000000000000000001515928360408201528860608201528560808201528660a08201526040519061096e826112c8565b858252828201526040518098819263f17325e760e01b835260048301611e11565b0381887f00000000000000000000000000000000000000000000000000000000000000006001600160a01b03165af1958615610a97578596610a5c575b50906020966101209392604051936109e3856112ac565b888552898501526001600160401b0342166040850152606084015285608084015260a08301523360c08301523060e08301526101008201520152817f8f7f2dbafd79125e808bf16a53d7fa4e17b8b6374ced76d946a45f94b7bf4d06339280a360015f516020611e885f395f51905f5255604051908152f35b92919095506020833d602011610a8f575b81610a7a60209383611319565b810103126105165791519490919060206109cc565b3d9150610a6d565b6040513d87823e3d90fd5b50346105165760203660031901126105165760043590610ac0611c06565b610ac982611d63565b9160208301517f0000000000000000000000000000000000000000000000000000000000000000809103610c3f57606084016001600160401b0381511615610c3057516001600160401b03164210610c30576040517f00000000000000000000000000000000000000000000000000000000000000006001600160a01b031690610b52816112c8565b8381525f602082015260405192610b68846112c8565b83526020830152803b1561051657604051634692626760e01b815282516004820152602092830151805160248301529092015160448301525f908290606490829084905af19081610c1b575b50610bcc5763614cf93960e01b825260045260249150fd5b60209260c060018060a01b0391015116907f655ef333d5efcbf5aa343f02bcd9e3539f9c9f9ee8b9cfa7d8910b1bd7e0a8326040519380a360015f516020611e885f395f51905f525560018152f35b610c289193505f90611319565b5f915f610bb4565b637bf6a16f60e01b5f5260045ffd5b63629cd40b60e11b5f5260045ffd5b60206105ff610c5c366113d9565b92610c68929192611bac565b6116d8565b34610516576060366003190112610516576004356001600160401b0381116105165761014060031982360301126105165760405190610cab826112ac565b8060040135825260248101356020830152610cc860448201611231565b6040830152610cd960648201611231565b6060830152610cea60848201611231565b608083015260a481013560a0830152610d0560c48201611245565b60c0830152610d1660e48201611245565b60e0830152610d286101048201611429565b610100830152610124810135906001600160401b038211610516576004610d52923692010161138b565b6101208201526024356001600160401b03811161051657602091610d7d6105ff92369060040161138b565b9061177c565b34610516576020366003190112610516576004356001600160401b03811161051657610db6610dbb91369060040161138b565b6116af565b604080516001600160a01b0390931683526020830181905282916104c491830190611259565b34610516575f36600319011261051657606080604051610e008161127d565b5f81525f60208201525f604082015201526040516351753e3760e11b81527f000000000000000000000000000000000000000000000000000000000000000060048201525f8160248160018060a01b037f0000000000000000000000000000000000000000000000000000000000000000165afa8015610f77575f90610ec7575b6060906104c4604051928392602084528051602085015260018060a01b0360208201511660408501526040810151151582850152015160808084015260a0830190611259565b503d805f833e610ed78183611319565b810190602081830312610516578051906001600160401b03821161051657016080818303126105165760405190610f0d8261127d565b8051825260208101516001600160a01b0381168103610516576020830152610f3760408201611599565b60408301526060810151906001600160401b038211610516570182601f8201121561051657606092816020610f6e935191016115a6565b82820152610e81565b6040513d5f823e3d90fd5b34610516575f3660031901126105165760206040517f00000000000000000000000000000000000000000000000000000000000000008152f35b34610516575f366003190112610516576104c460206110aa6001610fff7f0000000000000000000000000000000000000000000000000000000000000000611a3f565b818461102a7f0000000000000000000000000000000000000000000000000000000000000000611a3f565b81806110557f0000000000000000000000000000000000000000000000000000000000000000611a3f565b9260405199878b985191829101848a015e870190601760f91b83830152805192839101602183015e010190601760f91b84830152805192839101600283015e01015f838201520301601f198101835282611319565b604051918291602083526020830190611259565b34610516576060366003190112610516576004356001600160401b0381116105165760a06003198236030112610516576110f661121b565b906044356001600160a01b03811681036105165760209261112861113661113b946040519283916004018883016114ed565b03601f198101835282611319565b61189c565b604051908152f35b34610516576040366003190112610516576004356001600160401b0381116105165760a060031982360301126105165761113b6111996020926111a761118761121b565b916040519384916004018783016114ed565b03601f198101845283611319565b339161189c565b34610516576020366003190112610516576004359063ffffffff60e01b8216809203610516576020916346d1b90d60e11b81149081156111f0575b5015158152f35b630acaa6e160e01b81149150811561120a575b50836111e9565b6301ffc9a760e01b14905083611203565b602435906001600160401b038216820361051657565b35906001600160401b038216820361051657565b35906001600160a01b038216820361051657565b805180835260209291819084018484015e5f828201840152601f01601f1916010190565b608081019081106001600160401b0382111761129857604052565b634e487b7160e01b5f52604160045260245ffd5b61014081019081106001600160401b0382111761129857604052565b604081019081106001600160401b0382111761129857604052565b60a081019081106001600160401b0382111761129857604052565b60c081019081106001600160401b0382111761129857604052565b90601f801991011681019081106001600160401b0382111761129857604052565b6001600160401b03811161129857601f01601f191660200190565b9291926113618261133a565b9161136f6040519384611319565b829481845281830111610516578281602093845f960137010152565b9080601f83011215610516578160206113a693359101611355565b90565b9181601f84011215610516578235916001600160401b038311610516576020808501948460051b01011161051657565b6040600319820112610516576004356001600160401b0381116105165781611403916004016113a9565b92909291602435906001600160401b03821161051657611425916004016113a9565b9091565b3590811515820361051657565b9181601f84011215610516578235916001600160401b038311610516576020838186019501011161051657565b6020815260018060a01b03825116602082015260a06080611492602085015183604086015260c0850190611259565b93604081015160608501526001600160401b03606082015116828501520151151591015290565b602060031982011261051657600435906001600160401b038211610516576101409082900360031901126105165760040190565b602081526001600160a01b0361150283611245565b1660208201526020820135601e1983360301811215610516578201602081359101926001600160401b038211610516578136038413610516576080611586918360e09660a060408801528160c0880152878701375f868587010152604081013560608601526001600160401b0361157b60608301611231565b168286015201611429565b151560a0830152601f01601f1916010190565b5190811515820361051657565b9291926115b28261133a565b916115c06040519384611319565b829481845281830111610516578281602093845f96015e010152565b51906001600160a01b038216820361051657565b9080601f830112156105165781516113a6926020016115a6565b51906001600160401b038216820361051657565b602081830312610516578051906001600160401b038211610516570160a0818303126105165760405191611651836112e3565b61165a826115dc565b83526020820151916001600160401b038311610516576116816080926116a79483016115f0565b60208501526040810151604085015261169c6060820161160a565b606085015201611599565b608082015290565b6116c2906020808251830101910161161e565b80516020909101516001600160a01b0390911691565b92909281840361176d575f91345b85841015611762578184101561174e578360051b808601359082821161173f5784013561013e198536030181121561051657611723908501611bed565b1561173457600191039301926116e6565b505050505050505f90565b63044044a560e21b5f5260045ffd5b634e487b7160e01b5f52603260045260245ffd5b505050505050600190565b63251f56a160e21b5f5260045ffd5b60208101517f00000000000000000000000000000000000000000000000000000000000000000361186b576117c26101206117d29201516020808251830101910161161e565b916020808251830101910161161e565b60408201516040820151149182611846575b8261182f575b82611816575b826117fa57505090565b6020919250810151818151910120910151602081519101201490565b805182516001600160a01b0390811691161492506117f0565b9150608082015115156080820151151514916117ea565b91506001600160401b036060830151166001600160401b0360608301511614916117e4565b50505f90565b6040519061187e826112e3565b5f608083828152606060208201528260408201528260608201520152565b61193d926118a8611c06565b7f0000000000000000000000000000000000000000000000000000000000000000906001600160401b03604051916118df836112fe565b60018060a01b0316948583521680602083015260207f00000000000000000000000000000000000000000000000000000000000000001515928360408201525f60608201528560808201525f60a08201526040519061096e826112c8565b03815f7f00000000000000000000000000000000000000000000000000000000000000006001600160a01b03165af1958615610f77575f96611a03575b509061012092916040519261198e846112ac565b87845260208401526001600160401b034216604084015260608301525f60808301525f60a08301528460c08301523060e08301526101008201520152817f8f7f2dbafd79125e808bf16a53d7fa4e17b8b6374ced76d946a45f94b7bf4d065f80a39060015f516020611e885f395f51905f5255565b92919095506020833d602011611a37575b81611a2160209383611319565b810103126105165761012092519590919261197a565b3d9150611a14565b805f9172184f03e93ff9f4daa797ed6e38ed64bf6a1f0160401b821015611b89575b806d04ee2d6d415b85acef8100000000600a921015611b6e575b662386f26fc10000811015611b5a575b6305f5e100811015611b49575b612710811015611b3a575b6064811015611b2c575b1015611b21575b600a60216001840193611ac68561133a565b94611ad46040519687611319565b808652611ae3601f199161133a565b013660208701378401015b5f1901916f181899199a1a9b1b9c1cb0b131b232b360811b8282061a8353048015611b1c57600a9091611aee565b505090565b600190910190611ab4565b606460029104930192611aad565b61271060049104930192611aa3565b6305f5e10060089104930192611a98565b662386f26fc1000060109104930192611a8b565b6d04ee2d6d415b85acef810000000060209104930192611a7b565b506040915072184f03e93ff9f4daa797ed6e38ed64bf6a1f0160401b8104611a61565b7f00000000000000000000000000000000000000000000000000000000000000006001600160a01b03163303611bde57565b634ca8886760e01b5f5260045ffd5b60e0013560018060a01b03811680910361051657301490565b60025f516020611e885f395f51905f525414611c2f5760025f516020611e885f395f51905f5255565b633ee5aeb560e01b5f5260045ffd5b60405190611c4b826112ac565b6060610120835f81525f60208201525f60408201525f838201525f60808201525f60a08201525f60c08201525f60e08201525f6101008201520152565b602081830312610516578051906001600160401b0382116105165701610140818303126105165760405191611cbc836112ac565b8151835260208201516020840152611cd66040830161160a565b6040840152611ce76060830161160a565b6060840152611cf86080830161160a565b608084015260a082015160a0840152611d1360c083016115dc565b60c0840152611d2460e083016115dc565b60e0840152611d366101008301611599565b6101008401526101208201516001600160401b03811161051657611d5a92016115f0565b61012082015290565b90611d6c611c3e565b506040516328c44a9960e21b815260048101839052915f836024817f00000000000000000000000000000000000000000000000000000000000000006001600160a01b03165afa928315610f77575f93611df5575b508251818115918215611dea575b5050611dd85750565b6301fb6dd160e01b5f5260045260245ffd5b14159050815f611dcf565b611e0a9193503d805f833e6108388183611319565b915f611dc1565b9060209081835280518284015201519060408082015260018060a01b0382511660608201526001600160401b0360208301511660808201526040820151151560a0820152606082015160c082015261010060a0611e7e608085015160c060e0860152610120850190611259565b9301519101529056fe9b779b17422d0df92223018b32b4d1fa46e071723d6817e2486d003becc55f00a264697066735822122010b2e743c7a130d647cb96a38b5fffd0955c67e3ea2eac191a22eabce945fd4264736f6c634300081b0033",
    "linkReferences": {}
  },
  "methodIdentifiers": {
    "ATTESTATION_SCHEMA()": "5bf2f20d",
    "ATTESTATION_SCHEMA_REVOCABLE()": "b587a5eb",
    "VALIDATION_SCHEMA()": "df61dd2c",
    "attest((bytes32,bytes32,uint64,uint64,uint64,bytes32,address,address,bool,bytes))": "e60c3505",
    "check((bytes32,bytes32,uint64,uint64,uint64,bytes32,address,address,bool,bytes),bytes,bytes32)": "8da3721a",
    "collect(bytes32,bytes32)": "ea6ec49c",
    "decodeCondition(bytes)": "760bd118",
    "decodeObligationData(bytes)": "c93844be",
    "doObligation((address,bytes,bytes32,uint64,bool),uint64)": "3ce645d5",
    "doObligationFor((address,bytes,bytes32,uint64,bool),uint64,address)": "4e3fa926",
    "doObligationRaw(bytes,uint64,bytes32)": "b3b902d4",
    "getObligationData(bytes32)": "c6ec5070",
    "getSchema()": "6b122fe0",
    "isPayable()": "ce46e046",
    "multiAttest((bytes32,bytes32,uint64,uint64,uint64,bytes32,address,address,bool,bytes)[],uint256[])": "91db0b7e",
    "multiRevoke((bytes32,bytes32,uint64,uint64,uint64,bytes32,address,address,bool,bytes)[],uint256[])": "88e5b2d9",
    "reclaim(bytes32)": "96afb365",
    "revoke((bytes32,bytes32,uint64,uint64,uint64,bytes32,address,address,bool,bytes))": "e49617e1",
    "supportsInterface(bytes4)": "01ffc9a7",
    "version()": "54fd4d50"
  },
  "id": 144
}