{
  "abi": [
    {
      "type": "constructor",
      "inputs": [
        {
          "name": "_eas",
          "type": "address",
          "internalType": "contract IEAS"
        },
        {
          "name": "_schemaRegistry",
          "type": "address",
          "internalType": "contract ISchemaRegistry"
        }
      ],
      "stateMutability": "nonpayable"
    },
    {
      "type": "receive",
      "stateMutability": "payable"
    },
    {
      "type": "function",
      "name": "ATTESTATION_SCHEMA",
      "inputs": [],
      "outputs": [
        {
          "name": "",
          "type": "bytes32",
          "internalType": "bytes32"
        }
      ],
      "stateMutability": "view"
    },
    {
      "type": "function",
      "name": "ATTESTATION_SCHEMA_REVOCABLE",
      "inputs": [],
      "outputs": [
        {
          "name": "",
          "type": "bool",
          "internalType": "bool"
        }
      ],
      "stateMutability": "view"
    },
    {
      "type": "function",
      "name": "attest",
      "inputs": [
        {
          "name": "attestation",
          "type": "tuple",
          "internalType": "struct Attestation",
          "components": [
            {
              "name": "uid",
              "type": "bytes32",
              "internalType": "bytes32"
            },
            {
              "name": "schema",
              "type": "bytes32",
              "internalType": "bytes32"
            },
            {
              "name": "time",
              "type": "uint64",
              "internalType": "uint64"
            },
            {
              "name": "expirationTime",
              "type": "uint64",
              "internalType": "uint64"
            },
            {
              "name": "revocationTime",
              "type": "uint64",
              "internalType": "uint64"
            },
            {
              "name": "refUID",
              "type": "bytes32",
              "internalType": "bytes32"
            },
            {
              "name": "recipient",
              "type": "address",
              "internalType": "address"
            },
            {
              "name": "attester",
              "type": "address",
              "internalType": "address"
            },
            {
              "name": "revocable",
              "type": "bool",
              "internalType": "bool"
            },
            {
              "name": "data",
              "type": "bytes",
              "internalType": "bytes"
            }
          ]
        }
      ],
      "outputs": [
        {
          "name": "",
          "type": "bool",
          "internalType": "bool"
        }
      ],
      "stateMutability": "payable"
    },
    {
      "type": "function",
      "name": "check",
      "inputs": [
        {
          "name": "obligation",
          "type": "tuple",
          "internalType": "struct Attestation",
          "components": [
            {
              "name": "uid",
              "type": "bytes32",
              "internalType": "bytes32"
            },
            {
              "name": "schema",
              "type": "bytes32",
              "internalType": "bytes32"
            },
            {
              "name": "time",
              "type": "uint64",
              "internalType": "uint64"
            },
            {
              "name": "expirationTime",
              "type": "uint64",
              "internalType": "uint64"
            },
            {
              "name": "revocationTime",
              "type": "uint64",
              "internalType": "uint64"
            },
            {
              "name": "refUID",
              "type": "bytes32",
              "internalType": "bytes32"
            },
            {
              "name": "recipient",
              "type": "address",
              "internalType": "address"
            },
            {
              "name": "attester",
              "type": "address",
              "internalType": "address"
            },
            {
              "name": "revocable",
              "type": "bool",
              "internalType": "bool"
            },
            {
              "name": "data",
              "type": "bytes",
              "internalType": "bytes"
            }
          ]
        },
        {
          "name": "demand",
          "type": "bytes",
          "internalType": "bytes"
        },
        {
          "name": "",
          "type": "bytes32",
          "internalType": "bytes32"
        }
      ],
      "outputs": [
        {
          "name": "",
          "type": "bool",
          "internalType": "bool"
        }
      ],
      "stateMutability": "view"
    },
    {
      "type": "function",
      "name": "collect",
      "inputs": [
        {
          "name": "_escrow",
          "type": "bytes32",
          "internalType": "bytes32"
        },
        {
          "name": "_fulfillment",
          "type": "bytes32",
          "internalType": "bytes32"
        }
      ],
      "outputs": [
        {
          "name": "",
          "type": "bytes",
          "internalType": "bytes"
        }
      ],
      "stateMutability": "nonpayable"
    },
    {
      "type": "function",
      "name": "decodeCondition",
      "inputs": [
        {
          "name": "data",
          "type": "bytes",
          "internalType": "bytes"
        }
      ],
      "outputs": [
        {
          "name": "arbiter",
          "type": "address",
          "internalType": "address"
        },
        {
          "name": "demand",
          "type": "bytes",
          "internalType": "bytes"
        }
      ],
      "stateMutability": "pure"
    },
    {
      "type": "function",
      "name": "decodeObligationData",
      "inputs": [
        {
          "name": "data",
          "type": "bytes",
          "internalType": "bytes"
        }
      ],
      "outputs": [
        {
          "name": "",
          "type": "tuple",
          "internalType": "struct UnconditionalERC1155EscrowObligation.ObligationData",
          "components": [
            {
              "name": "arbiter",
              "type": "address",
              "internalType": "address"
            },
            {
              "name": "demand",
              "type": "bytes",
              "internalType": "bytes"
            },
            {
              "name": "token",
              "type": "address",
              "internalType": "address"
            },
            {
              "name": "tokenId",
              "type": "uint256",
              "internalType": "uint256"
            },
            {
              "name": "amount",
              "type": "uint256",
              "internalType": "uint256"
            }
          ]
        }
      ],
      "stateMutability": "pure"
    },
    {
      "type": "function",
      "name": "doObligation",
      "inputs": [
        {
          "name": "data",
          "type": "tuple",
          "internalType": "struct UnconditionalERC1155EscrowObligation.ObligationData",
          "components": [
            {
              "name": "arbiter",
              "type": "address",
              "internalType": "address"
            },
            {
              "name": "demand",
              "type": "bytes",
              "internalType": "bytes"
            },
            {
              "name": "token",
              "type": "address",
              "internalType": "address"
            },
            {
              "name": "tokenId",
              "type": "uint256",
              "internalType": "uint256"
            },
            {
              "name": "amount",
              "type": "uint256",
              "internalType": "uint256"
            }
          ]
        },
        {
          "name": "expirationTime",
          "type": "uint64",
          "internalType": "uint64"
        }
      ],
      "outputs": [
        {
          "name": "",
          "type": "bytes32",
          "internalType": "bytes32"
        }
      ],
      "stateMutability": "nonpayable"
    },
    {
      "type": "function",
      "name": "doObligationFor",
      "inputs": [
        {
          "name": "data",
          "type": "tuple",
          "internalType": "struct UnconditionalERC1155EscrowObligation.ObligationData",
          "components": [
            {
              "name": "arbiter",
              "type": "address",
              "internalType": "address"
            },
            {
              "name": "demand",
              "type": "bytes",
              "internalType": "bytes"
            },
            {
              "name": "token",
              "type": "address",
              "internalType": "address"
            },
            {
              "name": "tokenId",
              "type": "uint256",
              "internalType": "uint256"
            },
            {
              "name": "amount",
              "type": "uint256",
              "internalType": "uint256"
            }
          ]
        },
        {
          "name": "expirationTime",
          "type": "uint64",
          "internalType": "uint64"
        },
        {
          "name": "recipient",
          "type": "address",
          "internalType": "address"
        }
      ],
      "outputs": [
        {
          "name": "",
          "type": "bytes32",
          "internalType": "bytes32"
        }
      ],
      "stateMutability": "nonpayable"
    },
    {
      "type": "function",
      "name": "doObligationRaw",
      "inputs": [
        {
          "name": "data",
          "type": "bytes",
          "internalType": "bytes"
        },
        {
          "name": "expirationTime",
          "type": "uint64",
          "internalType": "uint64"
        },
        {
          "name": "refUID",
          "type": "bytes32",
          "internalType": "bytes32"
        }
      ],
      "outputs": [
        {
          "name": "uid_",
          "type": "bytes32",
          "internalType": "bytes32"
        }
      ],
      "stateMutability": "payable"
    },
    {
      "type": "function",
      "name": "getObligationData",
      "inputs": [
        {
          "name": "uid",
          "type": "bytes32",
          "internalType": "bytes32"
        }
      ],
      "outputs": [
        {
          "name": "",
          "type": "tuple",
          "internalType": "struct UnconditionalERC1155EscrowObligation.ObligationData",
          "components": [
            {
              "name": "arbiter",
              "type": "address",
              "internalType": "address"
            },
            {
              "name": "demand",
              "type": "bytes",
              "internalType": "bytes"
            },
            {
              "name": "token",
              "type": "address",
              "internalType": "address"
            },
            {
              "name": "tokenId",
              "type": "uint256",
              "internalType": "uint256"
            },
            {
              "name": "amount",
              "type": "uint256",
              "internalType": "uint256"
            }
          ]
        }
      ],
      "stateMutability": "view"
    },
    {
      "type": "function",
      "name": "getSchema",
      "inputs": [],
      "outputs": [
        {
          "name": "",
          "type": "tuple",
          "internalType": "struct SchemaRecord",
          "components": [
            {
              "name": "uid",
              "type": "bytes32",
              "internalType": "bytes32"
            },
            {
              "name": "resolver",
              "type": "address",
              "internalType": "contract ISchemaResolver"
            },
            {
              "name": "revocable",
              "type": "bool",
              "internalType": "bool"
            },
            {
              "name": "schema",
              "type": "string",
              "internalType": "string"
            }
          ]
        }
      ],
      "stateMutability": "view"
    },
    {
      "type": "function",
      "name": "isPayable",
      "inputs": [],
      "outputs": [
        {
          "name": "",
          "type": "bool",
          "internalType": "bool"
        }
      ],
      "stateMutability": "pure"
    },
    {
      "type": "function",
      "name": "multiAttest",
      "inputs": [
        {
          "name": "attestations",
          "type": "tuple[]",
          "internalType": "struct Attestation[]",
          "components": [
            {
              "name": "uid",
              "type": "bytes32",
              "internalType": "bytes32"
            },
            {
              "name": "schema",
              "type": "bytes32",
              "internalType": "bytes32"
            },
            {
              "name": "time",
              "type": "uint64",
              "internalType": "uint64"
            },
            {
              "name": "expirationTime",
              "type": "uint64",
              "internalType": "uint64"
            },
            {
              "name": "revocationTime",
              "type": "uint64",
              "internalType": "uint64"
            },
            {
              "name": "refUID",
              "type": "bytes32",
              "internalType": "bytes32"
            },
            {
              "name": "recipient",
              "type": "address",
              "internalType": "address"
            },
            {
              "name": "attester",
              "type": "address",
              "internalType": "address"
            },
            {
              "name": "revocable",
              "type": "bool",
              "internalType": "bool"
            },
            {
              "name": "data",
              "type": "bytes",
              "internalType": "bytes"
            }
          ]
        },
        {
          "name": "values",
          "type": "uint256[]",
          "internalType": "uint256[]"
        }
      ],
      "outputs": [
        {
          "name": "",
          "type": "bool",
          "internalType": "bool"
        }
      ],
      "stateMutability": "payable"
    },
    {
      "type": "function",
      "name": "multiRevoke",
      "inputs": [
        {
          "name": "attestations",
          "type": "tuple[]",
          "internalType": "struct Attestation[]",
          "components": [
            {
              "name": "uid",
              "type": "bytes32",
              "internalType": "bytes32"
            },
            {
              "name": "schema",
              "type": "bytes32",
              "internalType": "bytes32"
            },
            {
              "name": "time",
              "type": "uint64",
              "internalType": "uint64"
            },
            {
              "name": "expirationTime",
              "type": "uint64",
              "internalType": "uint64"
            },
            {
              "name": "revocationTime",
              "type": "uint64",
              "internalType": "uint64"
            },
            {
              "name": "refUID",
              "type": "bytes32",
              "internalType": "bytes32"
            },
            {
              "name": "recipient",
              "type": "address",
              "internalType": "address"
            },
            {
              "name": "attester",
              "type": "address",
              "internalType": "address"
            },
            {
              "name": "revocable",
              "type": "bool",
              "internalType": "bool"
            },
            {
              "name": "data",
              "type": "bytes",
              "internalType": "bytes"
            }
          ]
        },
        {
          "name": "values",
          "type": "uint256[]",
          "internalType": "uint256[]"
        }
      ],
      "outputs": [
        {
          "name": "",
          "type": "bool",
          "internalType": "bool"
        }
      ],
      "stateMutability": "payable"
    },
    {
      "type": "function",
      "name": "onERC1155BatchReceived",
      "inputs": [
        {
          "name": "",
          "type": "address",
          "internalType": "address"
        },
        {
          "name": "",
          "type": "address",
          "internalType": "address"
        },
        {
          "name": "",
          "type": "uint256[]",
          "internalType": "uint256[]"
        },
        {
          "name": "",
          "type": "uint256[]",
          "internalType": "uint256[]"
        },
        {
          "name": "",
          "type": "bytes",
          "internalType": "bytes"
        }
      ],
      "outputs": [
        {
          "name": "",
          "type": "bytes4",
          "internalType": "bytes4"
        }
      ],
      "stateMutability": "nonpayable"
    },
    {
      "type": "function",
      "name": "onERC1155Received",
      "inputs": [
        {
          "name": "",
          "type": "address",
          "internalType": "address"
        },
        {
          "name": "",
          "type": "address",
          "internalType": "address"
        },
        {
          "name": "",
          "type": "uint256",
          "internalType": "uint256"
        },
        {
          "name": "",
          "type": "uint256",
          "internalType": "uint256"
        },
        {
          "name": "",
          "type": "bytes",
          "internalType": "bytes"
        }
      ],
      "outputs": [
        {
          "name": "",
          "type": "bytes4",
          "internalType": "bytes4"
        }
      ],
      "stateMutability": "nonpayable"
    },
    {
      "type": "function",
      "name": "reclaim",
      "inputs": [
        {
          "name": "uid",
          "type": "bytes32",
          "internalType": "bytes32"
        }
      ],
      "outputs": [
        {
          "name": "",
          "type": "bool",
          "internalType": "bool"
        }
      ],
      "stateMutability": "nonpayable"
    },
    {
      "type": "function",
      "name": "revoke",
      "inputs": [
        {
          "name": "attestation",
          "type": "tuple",
          "internalType": "struct Attestation",
          "components": [
            {
              "name": "uid",
              "type": "bytes32",
              "internalType": "bytes32"
            },
            {
              "name": "schema",
              "type": "bytes32",
              "internalType": "bytes32"
            },
            {
              "name": "time",
              "type": "uint64",
              "internalType": "uint64"
            },
            {
              "name": "expirationTime",
              "type": "uint64",
              "internalType": "uint64"
            },
            {
              "name": "revocationTime",
              "type": "uint64",
              "internalType": "uint64"
            },
            {
              "name": "refUID",
              "type": "bytes32",
              "internalType": "bytes32"
            },
            {
              "name": "recipient",
              "type": "address",
              "internalType": "address"
            },
            {
              "name": "attester",
              "type": "address",
              "internalType": "address"
            },
            {
              "name": "revocable",
              "type": "bool",
              "internalType": "bool"
            },
            {
              "name": "data",
              "type": "bytes",
              "internalType": "bytes"
            }
          ]
        }
      ],
      "outputs": [
        {
          "name": "",
          "type": "bool",
          "internalType": "bool"
        }
      ],
      "stateMutability": "payable"
    },
    {
      "type": "function",
      "name": "supportsInterface",
      "inputs": [
        {
          "name": "interfaceId",
          "type": "bytes4",
          "internalType": "bytes4"
        }
      ],
      "outputs": [
        {
          "name": "",
          "type": "bool",
          "internalType": "bool"
        }
      ],
      "stateMutability": "view"
    },
    {
      "type": "function",
      "name": "version",
      "inputs": [],
      "outputs": [
        {
          "name": "",
          "type": "string",
          "internalType": "string"
        }
      ],
      "stateMutability": "view"
    },
    {
      "type": "event",
      "name": "EscrowCollected",
      "inputs": [
        {
          "name": "escrowUid",
          "type": "bytes32",
          "indexed": true,
          "internalType": "bytes32"
        },
        {
          "name": "fulfillmentUid",
          "type": "bytes32",
          "indexed": true,
          "internalType": "bytes32"
        },
        {
          "name": "fulfiller",
          "type": "address",
          "indexed": true,
          "internalType": "address"
        }
      ],
      "anonymous": false
    },
    {
      "type": "event",
      "name": "EscrowMade",
      "inputs": [
        {
          "name": "escrowUid",
          "type": "bytes32",
          "indexed": true,
          "internalType": "bytes32"
        },
        {
          "name": "escrower",
          "type": "address",
          "indexed": true,
          "internalType": "address"
        }
      ],
      "anonymous": false
    },
    {
      "type": "event",
      "name": "EscrowReclaimed",
      "inputs": [
        {
          "name": "escrowUid",
          "type": "bytes32",
          "indexed": true,
          "internalType": "bytes32"
        },
        {
          "name": "escrower",
          "type": "address",
          "indexed": true,
          "internalType": "address"
        }
      ],
      "anonymous": false
    },
    {
      "type": "error",
      "name": "AccessDenied",
      "inputs": []
    },
    {
      "type": "error",
      "name": "AttestationNotFound",
      "inputs": [
        {
          "name": "attestationId",
          "type": "bytes32",
          "internalType": "bytes32"
        }
      ]
    },
    {
      "type": "error",
      "name": "AttestationRevoked",
      "inputs": []
    },
    {
      "type": "error",
      "name": "DeadlineExpired",
      "inputs": []
    },
    {
      "type": "error",
      "name": "ERC1155TransferFailed",
      "inputs": [
        {
          "name": "token",
          "type": "address",
          "internalType": "address"
        },
        {
          "name": "from",
          "type": "address",
          "internalType": "address"
        },
        {
          "name": "to",
          "type": "address",
          "internalType": "address"
        },
        {
          "name": "tokenId",
          "type": "uint256",
          "internalType": "uint256"
        },
        {
          "name": "amount",
          "type": "uint256",
          "internalType": "uint256"
        }
      ]
    },
    {
      "type": "error",
      "name": "InsufficientValue",
      "inputs": []
    },
    {
      "type": "error",
      "name": "InvalidAttestationUid",
      "inputs": []
    },
    {
      "type": "error",
      "name": "InvalidEAS",
      "inputs": []
    },
    {
      "type": "error",
      "name": "InvalidEscrowAttestation",
      "inputs": []
    },
    {
      "type": "error",
      "name": "InvalidFulfillment",
      "inputs": []
    },
    {
      "type": "error",
      "name": "InvalidLength",
      "inputs": []
    },
    {
      "type": "error",
      "name": "NotFromThisAttester",
      "inputs": []
    },
    {
      "type": "error",
      "name": "NotPayable",
      "inputs": []
    },
    {
      "type": "error",
      "name": "ReentrancyGuardReentrantCall",
      "inputs": []
    },
    {
      "type": "error",
      "name": "RevocationFailed",
      "inputs": [
        {
          "name": "attestationId",
          "type": "bytes32",
          "internalType": "bytes32"
        }
      ]
    },
    {
      "type": "error",
      "name": "SchemaRegistrationFailed",
      "inputs": [
        {
          "name": "uid",
          "type": "bytes32",
          "internalType": "bytes32"
        }
      ]
    },
    {
      "type": "error",
      "name": "UnauthorizedCall",
      "inputs": []
    }
  ],
  "bytecode": {
    "object": "0x61018080604052346101ef5760408161294a803803809161002082856101f3565b8339810103126101ef578051906001600160a01b038216908183036101ef57602001516001600160a01b03811691908281036101ef57604051916100656080846101f3565b604d83527f6164647265737320617262697465722c2062797465732064656d616e642c206160208401527f64647265737320746f6b656e2c2075696e7432353620746f6b656e49642c207560408401526c1a5b9d0c8d4d88185b5bdd5b9d609a1b60608401526001608052600360a0525f60c052156101e057836100fb9460e0526101205261010052600161016052309161030e565b6101405260017f9b779b17422d0df92223018b32b4d1fa46e071723d6817e2486d003becc55f005560405161246090816104ea8239608051816112e3015260a0518161130e015260c05181611339015260e05181611c5e0152610100518161115a0152610120518181816103ae0152818161075801528181610bad01528181610e0f01528181611e4d015261214c0152610140518181816102390152818161079801528181610a9401528181610dc001528181611128015281816112a10152818161193c015261202c0152610160518181816108d101528181610ad601526120750152f35b6341bc07ff60e11b5f5260045ffd5b5f80fd5b601f909101601f19168101906001600160401b0382119082101761021657604052565b634e487b7160e01b5f52604160045260245ffd5b6020818303126101ef578051906001600160401b0382116101ef5701906080828203126101ef5760405191608083016001600160401b03811184821017610216576040528051835260208101516001600160a01b03811681036101ef576020840152604081015180151581036101ef5760408401526060810151906001600160401b0382116101ef570181601f820112156101ef578051906001600160401b03821161021657604051926102e8601f8401601f1916602001856101f3565b828452602083830101116101ef57815f9260208093018386015e83010152606082015290565b929160405190602082018351926103586015602083818901978089885e810160018060601b03198860601b1683820152600160f81b60348201520301600a198101845201826101f3565b5190206040516351753e3760e11b81526004810182905290956001600160a01b031693905f81602481885afa80156104695787915f916104cf575b5051146104c9579060846020926040519485938492630c1af44f60e31b8452606060048501525180928160648601528585015e5f84838501015260018060a01b0316602483015260016044830152601f801991011681010301815f865af15f9181610495575b5061047457505f602491604051928380926351753e3760e11b82528760048301525afa80156104695783915f91610447575b5051146104455750639e6113d560e01b5f5260045260245ffd5b565b61046391503d805f833e61045b81836101f3565b81019061022a565b5f61042b565b6040513d5f823e3d90fd5b91928091508203610483575090565b639e6113d560e01b5f5260045260245ffd5b9091506020813d6020116104c1575b816104b1602093836101f3565b810103126101ef5751905f6103f9565b3d91506104a4565b50505050565b6104e391503d805f833e61045b81836101f3565b5f61039356fe6080806040526004361015610029575b50361561001a575f80fd5b631574f9f360e01b5f5260045ffd5b5f905f3560e01c90816301ffc9a7146113c65750806354fd4d50146112c45780635bf2f20d1461128a5780636b122fe0146110e9578063760bd1181461108b57806388e5b2d914610f545780638da3721a14610f7357806391db0b7e14610f5457806396afb36514610d91578063b3b902d4146108f6578063b587a5eb146108b9578063bc197c8114610823578063c6ec507014610717578063c93844be1461063a578063ce46e0461461061e578063cecf1aff146105b1578063e49617e11461058c578063e60c35051461058c578063ea6ec49c146101fe578063f23a6e61146101a85763f23be17b0361000f57346101a15760603660031901126101a1576004356001600160401b0381116101a45760a060031982360301126101a4576101506115e9565b604435929091906001600160a01b03841684036101a1576020610199858561018661019487604051928391600401888301611a4d565b03601f1981018352826114d9565b611ed5565b604051908152f35b80fd5b5080fd5b50346101a15760a03660031901126101a1576101c2611613565b506101cb611629565b506084356001600160401b0381116101a4576101eb90369060040161154b565b5060405163f23a6e6160e01b8152602090f35b50346101a15760403660031901126101a1576024359060043561021f611cb6565b61022881611e27565b61023184611e27565b9060208101517f000000000000000000000000000000000000000000000000000000000000000080910361057d5781511561056e576001600160401b036060830151168015159081610563575b50610554576001600160401b036080830151166105455761036e60206101208560c06102ac83880151611868565b610380899492945191604051988997889687966346d1b90d60e11b885260606004890152805160648901528b81015160848901526001600160401b0360408201511660a48901526001600160401b0360608201511660c48901526001600160401b0360808201511660e489015260a0810151610104890152019d8e60018060a01b0390511661012488015260018060a01b0360e082015116610144880152610100810151151561016488015201516101406101848701526101a4860190611419565b84810360031901602486015290611419565b604483019190915203916001600160a01b03165afa90811561053a578691610500575b50156104f1576040517f00000000000000000000000000000000000000000000000000000000000000006001600160a01b031691906103e181611488565b858152866020820152604051916103f783611488565b82526020820152813b156104ed57604051634692626760e01b8152815160048201526020918201518051602483015290910151604482015290859081908390606490829084905af191826104d4575b50506104605763614cf93960e01b84526004839052602484fd5b917ff96e77bc177ae8e2ff25185e7c6d85f8ba97c8bdd9d46933aac70a7a33edf6c09461049a6104d09460018060a01b0385511690612332565b92516040519687966001600160a01b03909216939180a460015f51602061240b5f395f51905f5255602083526020830190611419565b0390f35b816104de916114d9565b6104e957845f610446565b8480fd5b8580fd5b630ebe58ef60e11b8552600485fd5b90506020813d602011610532575b8161051b602093836114d9565b810103126104ed5761052c9061176d565b5f6103a3565b3d915061050e565b6040513d88823e3d90fd5b637b6227e960e11b8552600485fd5b631ab7da6b60e01b8552600485fd5b90504210155f61027e565b635c2c7f8960e01b8552600485fd5b63629cd40b60e11b8552600485fd5b60206105a761059a36611739565b6105a2611c5c565b611c9d565b6040519015158152f35b50346101a15760403660031901126101a157600435906001600160401b0382116101a15760a060031983360301126101a1576020610199610609846106176105f76115e9565b91604051938491600401878301611a4d565b03601f1981018452836114d9565b3391611ed5565b50346101a157806003193601126101a157602090604051908152f35b50346101a15760203660031901126101a1576004356001600160401b0381116101a45761066b903690600401611653565b610676929192611a22565b508201916020818403126101a4578035906001600160401b03821161071357019160a0838203126101a457604051916106ae836114a3565b6106b78461163f565b83526020840135906001600160401b0382116101a15750926106e06080926104d095830161154b565b60208401526106f16040820161163f565b60408401526060810135606084015201356080820152604051918291826116e7565b8280fd5b50346101a15760203660031901126101a157610731611a22565b5061073a611cee565b506040516328c44a9960e21b815260048035908201529080826024817f00000000000000000000000000000000000000000000000000000000000000006001600160a01b03165afa9182156108165781926107f2575b5060208201517f0000000000000000000000000000000000000000000000000000000000000000036107e3576104d06107d7610120840151602080825183010191016117de565b604051918291826116e7565b635527981560e11b8152600490fd5b61080f9192503d8084833e61080781836114d9565b810190611d4c565b905f610790565b50604051903d90823e3d90fd5b50346101a15760a03660031901126101a15761083d611613565b50610846611629565b506044356001600160401b0381116101a457610866903690600401611680565b506064356001600160401b0381116101a457610886903690600401611680565b506084356001600160401b0381116101a4576108a690369060040161154b565b5060405163bc197c8160e01b8152602090f35b50346101a157806003193601126101a15760206040517f000000000000000000000000000000000000000000000000000000000000000015158152f35b5060603660031901126101a1576004356001600160401b0381116101a457610922903690600401611653565b909161093b61092f6115e9565b93604435933691611515565b91610944611cb6565b61095760208451850101602085016117de565b604081810180516060840180519351627eeac760e11b815230600482015260248101949094529397939691959290602090829060449082906001600160a01b03165afa908115610d86578391610d54575b508551875160809099018051909990916001600160a01b031690813b156104ed576109f0928692839283604051809781958294637921219560e11b84523033600486016122c7565b03925af19182610d3b575b5050610a365785518751895160405163334a7d1b60e21b8152928392610a329291309033906001600160a01b0316600487016122ff565b0390fd5b85518751604051627eeac760e11b8152306004820152602481019190915289928992899290602090829060449082906001600160a01b03165afa908115610d30578791610cfa575b5084518201809211610ce65710610cb5575050507f0000000000000000000000000000000000000000000000000000000000000000936001600160401b0360405194610ac9866114be565b33865216908160208601527f00000000000000000000000000000000000000000000000000000000000000001515918260408701528160608701528360808701528460a08701526020604051610b1e81611488565b8881528181019788526040518098819263f17325e760e01b8352846004840152516024830152516040604483015260018060a01b0381511660648301526001600160401b03848201511660848301526040810151151560a4830152606081015160c483015260a0610b9f608083015160c060e4860152610124850190611419565b9101516101048301520381887f00000000000000000000000000000000000000000000000000000000000000006001600160a01b03165af1958615610caa578596610c75575b5091602096916101209360405193610bfc8561146c565b888552898501526001600160401b0342166040850152606084015285608084015260a08301523360c08301523060e08301526101008201520152817f8f7f2dbafd79125e808bf16a53d7fa4e17b8b6374ced76d946a45f94b7bf4d06339280a360015f51602061240b5f395f51905f5255604051908152f35b9095506020813d602011610ca2575b81610c91602093836114d9565b810103126104e95751946020610be5565b3d9150610c84565b6040513d87823e3d90fd5b519051915160405163334a7d1b60e21b8152928392610a32929190309033906001600160a01b0316600487016122ff565b634e487b7160e01b87526011600452602487fd5b90506020813d602011610d28575b81610d15602093836114d9565b81010312610d24575189610a7e565b5f80fd5b3d9150610d08565b6040513d89823e3d90fd5b81610d45916114d9565b610d5057835f6109fb565b8380fd5b90506020813d602011610d7e575b81610d6f602093836114d9565b81010312610d2457515f6109a8565b3d9150610d62565b6040513d85823e3d90fd5b5034610d24576020366003190112610d245760043590610daf611cb6565b610db882611e27565b9160208301517f0000000000000000000000000000000000000000000000000000000000000000809103610f4557606084016001600160401b0381511615610f3657516001600160401b03164210610f36576040517f00000000000000000000000000000000000000000000000000000000000000006001600160a01b031690610e4181611488565b8381525f602082015260405192610e5784611488565b83526020830152803b15610d2457604051634692626760e01b815282516004820152602092830151805160248301529092015160448301525f908290606490829084905af19081610f21575b50610ebb5763614cf93960e01b825260045260249150fd5b60c083018051602094610ed7916001600160a01b031690612332565b5060018060a01b03905116907f655ef333d5efcbf5aa343f02bcd9e3539f9c9f9ee8b9cfa7d8910b1bd7e0a8326040519380a360015f51602061240b5f395f51905f525560018152f35b610f2e9193505f906114d9565b5f915f610ea3565b637bf6a16f60e01b5f5260045ffd5b63629cd40b60e11b5f5260045ffd5b60206105a7610f6236611599565b92610f6e929192611c5c565b611891565b34610d24576060366003190112610d24576004356001600160401b038111610d24576101406003198236030112610d245760405190610fb18261146c565b8060040135825260248101356020830152610fce604482016115ff565b6040830152610fdf606482016115ff565b6060830152610ff0608482016115ff565b608083015260a481013560a083015261100b60c4820161163f565b60c083015261101c60e4820161163f565b60e08301526101048101358015158103610d2457610100830152610124810135906001600160401b038211610d2457600461105a923692010161154b565b6101208201526024356001600160401b038111610d24576020916110856105a792369060040161154b565b90611935565b34610d24576020366003190112610d24576004356001600160401b038111610d24576110be6110c391369060040161154b565b611868565b604080516001600160a01b0390931683526020830181905282916104d091830190611419565b34610d24575f366003190112610d24576060806040516111088161143d565b5f81525f60208201525f604082015201526040516351753e3760e11b81527f000000000000000000000000000000000000000000000000000000000000000060048201525f8160248160018060a01b037f0000000000000000000000000000000000000000000000000000000000000000165afa801561127f575f906111cf575b6060906104d0604051928392602084528051602085015260018060a01b0360208201511660408501526040810151151582850152015160808084015260a0830190611419565b503d805f833e6111df81836114d9565b810190602081830312610d24578051906001600160401b038211610d245701608081830312610d2457604051906112158261143d565b8051825260208101516001600160a01b0381168103610d2457602083015261123f6040820161176d565b60408301526060810151906001600160401b038211610d24570182601f82011215610d24576060928160206112769351910161177a565b82820152611189565b6040513d5f823e3d90fd5b34610d24575f366003190112610d245760206040517f00000000000000000000000000000000000000000000000000000000000000008152f35b34610d24575f366003190112610d24576104d060206113b260016113077f0000000000000000000000000000000000000000000000000000000000000000611aef565b81846113327f0000000000000000000000000000000000000000000000000000000000000000611aef565b818061135d7f0000000000000000000000000000000000000000000000000000000000000000611aef565b9260405199878b985191829101848a015e870190601760f91b83830152805192839101602183015e010190601760f91b84830152805192839101600283015e01015f838201520301601f1981018352826114d9565b604051918291602083526020830190611419565b34610d24576020366003190112610d24576004359063ffffffff60e01b8216809203610d2457602091630271189760e51b8114908115611408575b5015158152f35b6301ffc9a760e01b14905083611401565b805180835260209291819084018484015e5f828201840152601f01601f1916010190565b608081019081106001600160401b0382111761145857604052565b634e487b7160e01b5f52604160045260245ffd5b61014081019081106001600160401b0382111761145857604052565b604081019081106001600160401b0382111761145857604052565b60a081019081106001600160401b0382111761145857604052565b60c081019081106001600160401b0382111761145857604052565b90601f801991011681019081106001600160401b0382111761145857604052565b6001600160401b03811161145857601f01601f191660200190565b929192611521826114fa565b9161152f60405193846114d9565b829481845281830111610d24578281602093845f960137010152565b9080601f83011215610d245781602061156693359101611515565b90565b9181601f84011215610d24578235916001600160401b038311610d24576020808501948460051b010111610d2457565b6040600319820112610d24576004356001600160401b038111610d2457816115c391600401611569565b92909291602435906001600160401b038211610d24576115e591600401611569565b9091565b602435906001600160401b0382168203610d2457565b35906001600160401b0382168203610d2457565b600435906001600160a01b0382168203610d2457565b602435906001600160a01b0382168203610d2457565b35906001600160a01b0382168203610d2457565b9181601f84011215610d24578235916001600160401b038311610d245760208381860195010111610d2457565b9080601f83011215610d24578135916001600160401b038311611458578260051b90604051936116b360208401866114d9565b8452602080850192820101928311610d2457602001905b8282106116d75750505090565b81358152602091820191016116ca565b6020815260018060a01b03825116602082015260a06080611716602085015183604086015260c0850190611419565b93600180841b036040820151166060850152606081015182850152015191015290565b6020600319820112610d2457600435906001600160401b038211610d2457610140908290036003190112610d245760040190565b51908115158203610d2457565b929192611786826114fa565b9161179460405193846114d9565b829481845281830111610d24578281602093845f96015e010152565b51906001600160a01b0382168203610d2457565b9080601f83011215610d245781516115669260200161177a565b602081830312610d24578051906001600160401b038211610d2457019060a082820312610d245760405191611812836114a3565b61181b816117b0565b835260208101516001600160401b038111610d245760809261183e9183016117c4565b602084015261184f604082016117b0565b6040840152606081015160608401520151608082015290565b61187b90602080825183010191016117de565b80516020909101516001600160a01b0390911691565b929092818403611926575f91345b8584101561191b5781841015611907578360051b80860135908282116118f85784013561013e1985360301811215610d24576118dc908501611c9d565b156118ed576001910393019261189f565b505050505050505f90565b63044044a560e21b5f5260045ffd5b634e487b7160e01b5f52603260045260245ffd5b505050505050600190565b63251f56a160e21b5f5260045ffd5b60208101517f000000000000000000000000000000000000000000000000000000000000000003611a1c5761197b61012061198b920151602080825183010191016117de565b91602080825183010191016117de565b604082810151908201516001600160a01b039081169116149182611a09575b826119f5575b826119dc575b826119c057505090565b6020919250810151818151910120910151602081519101201490565b805182516001600160a01b0390811691161492506119b6565b9150608082015160808201511115916119b0565b91506060820151606082015114916119aa565b50505f90565b60405190611a2f826114a3565b5f608083828152606060208201528260408201528260608201520152565b602081526001600160a01b03611a628361163f565b1660208201526020820135601e1983360301811215610d245782016020813591016001600160401b038211610d24578136038113610d245760e0938260809260a060408701528160c0870152868601375f8484018601526001600160a01b03611acd6040830161163f565b166060850152606081013582850152013560a0830152601f8019910116010190565b805f9172184f03e93ff9f4daa797ed6e38ed64bf6a1f0160401b821015611c39575b806d04ee2d6d415b85acef8100000000600a921015611c1e575b662386f26fc10000811015611c0a575b6305f5e100811015611bf9575b612710811015611bea575b6064811015611bdc575b1015611bd1575b600a60216001840193611b76856114fa565b94611b8460405196876114d9565b808652611b93601f19916114fa565b013660208701378401015b5f1901916f181899199a1a9b1b9c1cb0b131b232b360811b8282061a8353048015611bcc57600a9091611b9e565b505090565b600190910190611b64565b606460029104930192611b5d565b61271060049104930192611b53565b6305f5e10060089104930192611b48565b662386f26fc1000060109104930192611b3b565b6d04ee2d6d415b85acef810000000060209104930192611b2b565b506040915072184f03e93ff9f4daa797ed6e38ed64bf6a1f0160401b8104611b11565b7f00000000000000000000000000000000000000000000000000000000000000006001600160a01b03163303611c8e57565b634ca8886760e01b5f5260045ffd5b60e0013560018060a01b038116809103610d2457301490565b60025f51602061240b5f395f51905f525414611cdf5760025f51602061240b5f395f51905f5255565b633ee5aeb560e01b5f5260045ffd5b60405190611cfb8261146c565b6060610120835f81525f60208201525f60408201525f838201525f60808201525f60a08201525f60c08201525f60e08201525f6101008201520152565b51906001600160401b0382168203610d2457565b602081830312610d24578051906001600160401b038211610d24570161014081830312610d245760405191611d808361146c565b8151835260208201516020840152611d9a60408301611d38565b6040840152611dab60608301611d38565b6060840152611dbc60808301611d38565b608084015260a082015160a0840152611dd760c083016117b0565b60c0840152611de860e083016117b0565b60e0840152611dfa610100830161176d565b6101008401526101208201516001600160401b038111610d2457611e1e92016117c4565b61012082015290565b90611e30611cee565b506040516328c44a9960e21b815260048101839052915f836024817f00000000000000000000000000000000000000000000000000000000000000006001600160a01b03165afa92831561127f575f93611eb9575b508251818115918215611eae575b5050611e9c5750565b6301fb6dd160e01b5f5260045260245ffd5b14159050815f611e93565b611ece9193503d805f833e61080781836114d9565b915f611e85565b9190925f91611ee2611cb6565b611ef560208551860101602086016117de565b604081810180516060840180519351627eeac760e11b815230600482015260248101949094529398939791969290602090829060449082906001600160a01b03165afa90811561127f575f91612295575b5060018060a01b03875116608089519a01998a51823b15610d2457611f86925f9283604051809681958294637921219560e11b84523033600486016122c7565b03925af19081612280575b50611fc757865188518a5160405163334a7d1b60e21b8152928392610a329291309033906001600160a01b0316600487016122ff565b86518851604051627eeac760e11b815230600482015260248101919091529699959894979396929594939290602090829060449082906001600160a01b03165afa908115610d3057879161224e575b5084518201809211610ce65710610cb5575050507f00000000000000000000000000000000000000000000000000000000000000006001600160401b0360405195612060876114be565b60018060a01b031694858752168060208701527f00000000000000000000000000000000000000000000000000000000000000001515908160408801528460608801528360808801528460a088015260206040516120bd81611488565b8481528181019889526040518099819263f17325e760e01b8352846004840152516024830152516040604483015260018060a01b0381511660648301526001600160401b03848201511660848301526040810151151560a4830152606081015160c483015260a061213e608083015160c060e4860152610124850190611419565b9101516101048301520381887f00000000000000000000000000000000000000000000000000000000000000006001600160a01b03165af1968715610caa57859761220e575b508694927f8f7f2dbafd79125e808bf16a53d7fa4e17b8b6374ced76d946a45f94b7bf4d06949261012092604051926121bc8461146c565b88845260208401526001600160401b034216604084015260608301528460808301528460a08301528760c08301523060e0830152610100820152015280a39060015f51602061240b5f395f51905f5255565b909493929196506020813d602011612246575b8161222e602093836114d9565b81010312610d50575195929391929091610120612184565b3d9150612221565b90506020813d602011612278575b81612269602093836114d9565b81010312610d2457515f612016565b3d915061225c565b61228d9194505f906114d9565b5f925f611f91565b90506020813d6020116122bf575b816122b0602093836114d9565b81010312610d2457515f611f46565b3d91506122a3565b6001600160a01b039182168152911660208201526040810191909152606081019190915260a0608082018190525f9082015260c00190565b6001600160a01b039182168152918116602083015290911660408201526060810191909152608081019190915260a00190565b61012061234d919392930151602080825183010191016117de565b604081018051925f9360018060a01b0316936060840194608086519501948551823b15610d245761239a925f92838b60405196879586948593637921219560e11b855230600486016122c7565b03925af190816123f5575b506123db575050519151905160405163334a7d1b60e21b8152938493610a3293919030906001600160a01b0316600487016122ff565b935093505050604051906123f06020836114d9565b815290565b6124029192505f906114d9565b5f905f6123a556fe9b779b17422d0df92223018b32b4d1fa46e071723d6817e2486d003becc55f00a26469706673582212202118c5df8b98067920356049b8b9ed16035895a85c665acab0f3baf300c0246f64736f6c634300081b0033",
    "linkReferences": {}
  },
  "methodIdentifiers": {
    "ATTESTATION_SCHEMA()": "5bf2f20d",
    "ATTESTATION_SCHEMA_REVOCABLE()": "b587a5eb",
    "attest((bytes32,bytes32,uint64,uint64,uint64,bytes32,address,address,bool,bytes))": "e60c3505",
    "check((bytes32,bytes32,uint64,uint64,uint64,bytes32,address,address,bool,bytes),bytes,bytes32)": "8da3721a",
    "collect(bytes32,bytes32)": "ea6ec49c",
    "decodeCondition(bytes)": "760bd118",
    "decodeObligationData(bytes)": "c93844be",
    "doObligation((address,bytes,address,uint256,uint256),uint64)": "cecf1aff",
    "doObligationFor((address,bytes,address,uint256,uint256),uint64,address)": "f23be17b",
    "doObligationRaw(bytes,uint64,bytes32)": "b3b902d4",
    "getObligationData(bytes32)": "c6ec5070",
    "getSchema()": "6b122fe0",
    "isPayable()": "ce46e046",
    "multiAttest((bytes32,bytes32,uint64,uint64,uint64,bytes32,address,address,bool,bytes)[],uint256[])": "91db0b7e",
    "multiRevoke((bytes32,bytes32,uint64,uint64,uint64,bytes32,address,address,bool,bytes)[],uint256[])": "88e5b2d9",
    "onERC1155BatchReceived(address,address,uint256[],uint256[],bytes)": "bc197c81",
    "onERC1155Received(address,address,uint256,uint256,bytes)": "f23a6e61",
    "reclaim(bytes32)": "96afb365",
    "revoke((bytes32,bytes32,uint64,uint64,uint64,bytes32,address,address,bool,bytes))": "e49617e1",
    "supportsInterface(bytes4)": "01ffc9a7",
    "version()": "54fd4d50"
  },
  "id": 110
}