{
  "abi": [
    {
      "type": "constructor",
      "inputs": [
        {
          "name": "_eas",
          "type": "address",
          "internalType": "contract IEAS"
        },
        {
          "name": "_schemaRegistry",
          "type": "address",
          "internalType": "contract ISchemaRegistry"
        }
      ],
      "stateMutability": "nonpayable"
    },
    {
      "type": "receive",
      "stateMutability": "payable"
    },
    {
      "type": "function",
      "name": "ATTESTATION_SCHEMA",
      "inputs": [],
      "outputs": [
        {
          "name": "",
          "type": "bytes32",
          "internalType": "bytes32"
        }
      ],
      "stateMutability": "view"
    },
    {
      "type": "function",
      "name": "MAX_BUNDLE_ITEMS",
      "inputs": [],
      "outputs": [
        {
          "name": "",
          "type": "uint256",
          "internalType": "uint256"
        }
      ],
      "stateMutability": "view"
    },
    {
      "type": "function",
      "name": "attest",
      "inputs": [
        {
          "name": "attestation",
          "type": "tuple",
          "internalType": "struct Attestation",
          "components": [
            {
              "name": "uid",
              "type": "bytes32",
              "internalType": "bytes32"
            },
            {
              "name": "schema",
              "type": "bytes32",
              "internalType": "bytes32"
            },
            {
              "name": "time",
              "type": "uint64",
              "internalType": "uint64"
            },
            {
              "name": "expirationTime",
              "type": "uint64",
              "internalType": "uint64"
            },
            {
              "name": "revocationTime",
              "type": "uint64",
              "internalType": "uint64"
            },
            {
              "name": "refUID",
              "type": "bytes32",
              "internalType": "bytes32"
            },
            {
              "name": "recipient",
              "type": "address",
              "internalType": "address"
            },
            {
              "name": "attester",
              "type": "address",
              "internalType": "address"
            },
            {
              "name": "revocable",
              "type": "bool",
              "internalType": "bool"
            },
            {
              "name": "data",
              "type": "bytes",
              "internalType": "bytes"
            }
          ]
        }
      ],
      "outputs": [
        {
          "name": "",
          "type": "bool",
          "internalType": "bool"
        }
      ],
      "stateMutability": "payable"
    },
    {
      "type": "function",
      "name": "checkObligation",
      "inputs": [
        {
          "name": "obligation",
          "type": "tuple",
          "internalType": "struct Attestation",
          "components": [
            {
              "name": "uid",
              "type": "bytes32",
              "internalType": "bytes32"
            },
            {
              "name": "schema",
              "type": "bytes32",
              "internalType": "bytes32"
            },
            {
              "name": "time",
              "type": "uint64",
              "internalType": "uint64"
            },
            {
              "name": "expirationTime",
              "type": "uint64",
              "internalType": "uint64"
            },
            {
              "name": "revocationTime",
              "type": "uint64",
              "internalType": "uint64"
            },
            {
              "name": "refUID",
              "type": "bytes32",
              "internalType": "bytes32"
            },
            {
              "name": "recipient",
              "type": "address",
              "internalType": "address"
            },
            {
              "name": "attester",
              "type": "address",
              "internalType": "address"
            },
            {
              "name": "revocable",
              "type": "bool",
              "internalType": "bool"
            },
            {
              "name": "data",
              "type": "bytes",
              "internalType": "bytes"
            }
          ]
        },
        {
          "name": "demand",
          "type": "bytes",
          "internalType": "bytes"
        },
        {
          "name": "",
          "type": "bytes32",
          "internalType": "bytes32"
        }
      ],
      "outputs": [
        {
          "name": "",
          "type": "bool",
          "internalType": "bool"
        }
      ],
      "stateMutability": "view"
    },
    {
      "type": "function",
      "name": "collectEscrow",
      "inputs": [
        {
          "name": "escrow",
          "type": "bytes32",
          "internalType": "bytes32"
        },
        {
          "name": "fulfillment",
          "type": "bytes32",
          "internalType": "bytes32"
        }
      ],
      "outputs": [
        {
          "name": "",
          "type": "bool",
          "internalType": "bool"
        }
      ],
      "stateMutability": "nonpayable"
    },
    {
      "type": "function",
      "name": "collectEscrowRaw",
      "inputs": [
        {
          "name": "_escrow",
          "type": "bytes32",
          "internalType": "bytes32"
        },
        {
          "name": "_fulfillment",
          "type": "bytes32",
          "internalType": "bytes32"
        }
      ],
      "outputs": [
        {
          "name": "",
          "type": "bytes",
          "internalType": "bytes"
        }
      ],
      "stateMutability": "nonpayable"
    },
    {
      "type": "function",
      "name": "decodeObligationData",
      "inputs": [
        {
          "name": "data",
          "type": "bytes",
          "internalType": "bytes"
        }
      ],
      "outputs": [
        {
          "name": "",
          "type": "tuple",
          "internalType": "struct UnconditionalTokenBundleEscrowObligation.ObligationData",
          "components": [
            {
              "name": "arbiter",
              "type": "address",
              "internalType": "address"
            },
            {
              "name": "demand",
              "type": "bytes",
              "internalType": "bytes"
            },
            {
              "name": "nativeAmount",
              "type": "uint256",
              "internalType": "uint256"
            },
            {
              "name": "erc20Tokens",
              "type": "address[]",
              "internalType": "address[]"
            },
            {
              "name": "erc20Amounts",
              "type": "uint256[]",
              "internalType": "uint256[]"
            },
            {
              "name": "erc721Tokens",
              "type": "address[]",
              "internalType": "address[]"
            },
            {
              "name": "erc721TokenIds",
              "type": "uint256[]",
              "internalType": "uint256[]"
            },
            {
              "name": "erc1155Tokens",
              "type": "address[]",
              "internalType": "address[]"
            },
            {
              "name": "erc1155TokenIds",
              "type": "uint256[]",
              "internalType": "uint256[]"
            },
            {
              "name": "erc1155Amounts",
              "type": "uint256[]",
              "internalType": "uint256[]"
            }
          ]
        }
      ],
      "stateMutability": "pure"
    },
    {
      "type": "function",
      "name": "doObligation",
      "inputs": [
        {
          "name": "data",
          "type": "tuple",
          "internalType": "struct UnconditionalTokenBundleEscrowObligation.ObligationData",
          "components": [
            {
              "name": "arbiter",
              "type": "address",
              "internalType": "address"
            },
            {
              "name": "demand",
              "type": "bytes",
              "internalType": "bytes"
            },
            {
              "name": "nativeAmount",
              "type": "uint256",
              "internalType": "uint256"
            },
            {
              "name": "erc20Tokens",
              "type": "address[]",
              "internalType": "address[]"
            },
            {
              "name": "erc20Amounts",
              "type": "uint256[]",
              "internalType": "uint256[]"
            },
            {
              "name": "erc721Tokens",
              "type": "address[]",
              "internalType": "address[]"
            },
            {
              "name": "erc721TokenIds",
              "type": "uint256[]",
              "internalType": "uint256[]"
            },
            {
              "name": "erc1155Tokens",
              "type": "address[]",
              "internalType": "address[]"
            },
            {
              "name": "erc1155TokenIds",
              "type": "uint256[]",
              "internalType": "uint256[]"
            },
            {
              "name": "erc1155Amounts",
              "type": "uint256[]",
              "internalType": "uint256[]"
            }
          ]
        },
        {
          "name": "expirationTime",
          "type": "uint64",
          "internalType": "uint64"
        }
      ],
      "outputs": [
        {
          "name": "",
          "type": "bytes32",
          "internalType": "bytes32"
        }
      ],
      "stateMutability": "payable"
    },
    {
      "type": "function",
      "name": "doObligationFor",
      "inputs": [
        {
          "name": "data",
          "type": "tuple",
          "internalType": "struct UnconditionalTokenBundleEscrowObligation.ObligationData",
          "components": [
            {
              "name": "arbiter",
              "type": "address",
              "internalType": "address"
            },
            {
              "name": "demand",
              "type": "bytes",
              "internalType": "bytes"
            },
            {
              "name": "nativeAmount",
              "type": "uint256",
              "internalType": "uint256"
            },
            {
              "name": "erc20Tokens",
              "type": "address[]",
              "internalType": "address[]"
            },
            {
              "name": "erc20Amounts",
              "type": "uint256[]",
              "internalType": "uint256[]"
            },
            {
              "name": "erc721Tokens",
              "type": "address[]",
              "internalType": "address[]"
            },
            {
              "name": "erc721TokenIds",
              "type": "uint256[]",
              "internalType": "uint256[]"
            },
            {
              "name": "erc1155Tokens",
              "type": "address[]",
              "internalType": "address[]"
            },
            {
              "name": "erc1155TokenIds",
              "type": "uint256[]",
              "internalType": "uint256[]"
            },
            {
              "name": "erc1155Amounts",
              "type": "uint256[]",
              "internalType": "uint256[]"
            }
          ]
        },
        {
          "name": "expirationTime",
          "type": "uint64",
          "internalType": "uint64"
        },
        {
          "name": "recipient",
          "type": "address",
          "internalType": "address"
        }
      ],
      "outputs": [
        {
          "name": "",
          "type": "bytes32",
          "internalType": "bytes32"
        }
      ],
      "stateMutability": "payable"
    },
    {
      "type": "function",
      "name": "doObligationRaw",
      "inputs": [
        {
          "name": "data",
          "type": "bytes",
          "internalType": "bytes"
        },
        {
          "name": "expirationTime",
          "type": "uint64",
          "internalType": "uint64"
        },
        {
          "name": "refUID",
          "type": "bytes32",
          "internalType": "bytes32"
        }
      ],
      "outputs": [
        {
          "name": "uid_",
          "type": "bytes32",
          "internalType": "bytes32"
        }
      ],
      "stateMutability": "payable"
    },
    {
      "type": "function",
      "name": "extractArbiterAndDemand",
      "inputs": [
        {
          "name": "data",
          "type": "bytes",
          "internalType": "bytes"
        }
      ],
      "outputs": [
        {
          "name": "arbiter",
          "type": "address",
          "internalType": "address"
        },
        {
          "name": "demand",
          "type": "bytes",
          "internalType": "bytes"
        }
      ],
      "stateMutability": "pure"
    },
    {
      "type": "function",
      "name": "getObligationData",
      "inputs": [
        {
          "name": "uid",
          "type": "bytes32",
          "internalType": "bytes32"
        }
      ],
      "outputs": [
        {
          "name": "",
          "type": "tuple",
          "internalType": "struct UnconditionalTokenBundleEscrowObligation.ObligationData",
          "components": [
            {
              "name": "arbiter",
              "type": "address",
              "internalType": "address"
            },
            {
              "name": "demand",
              "type": "bytes",
              "internalType": "bytes"
            },
            {
              "name": "nativeAmount",
              "type": "uint256",
              "internalType": "uint256"
            },
            {
              "name": "erc20Tokens",
              "type": "address[]",
              "internalType": "address[]"
            },
            {
              "name": "erc20Amounts",
              "type": "uint256[]",
              "internalType": "uint256[]"
            },
            {
              "name": "erc721Tokens",
              "type": "address[]",
              "internalType": "address[]"
            },
            {
              "name": "erc721TokenIds",
              "type": "uint256[]",
              "internalType": "uint256[]"
            },
            {
              "name": "erc1155Tokens",
              "type": "address[]",
              "internalType": "address[]"
            },
            {
              "name": "erc1155TokenIds",
              "type": "uint256[]",
              "internalType": "uint256[]"
            },
            {
              "name": "erc1155Amounts",
              "type": "uint256[]",
              "internalType": "uint256[]"
            }
          ]
        }
      ],
      "stateMutability": "view"
    },
    {
      "type": "function",
      "name": "getSchema",
      "inputs": [],
      "outputs": [
        {
          "name": "",
          "type": "tuple",
          "internalType": "struct SchemaRecord",
          "components": [
            {
              "name": "uid",
              "type": "bytes32",
              "internalType": "bytes32"
            },
            {
              "name": "resolver",
              "type": "address",
              "internalType": "contract ISchemaResolver"
            },
            {
              "name": "revocable",
              "type": "bool",
              "internalType": "bool"
            },
            {
              "name": "schema",
              "type": "string",
              "internalType": "string"
            }
          ]
        }
      ],
      "stateMutability": "view"
    },
    {
      "type": "function",
      "name": "isPayable",
      "inputs": [],
      "outputs": [
        {
          "name": "",
          "type": "bool",
          "internalType": "bool"
        }
      ],
      "stateMutability": "pure"
    },
    {
      "type": "function",
      "name": "multiAttest",
      "inputs": [
        {
          "name": "attestations",
          "type": "tuple[]",
          "internalType": "struct Attestation[]",
          "components": [
            {
              "name": "uid",
              "type": "bytes32",
              "internalType": "bytes32"
            },
            {
              "name": "schema",
              "type": "bytes32",
              "internalType": "bytes32"
            },
            {
              "name": "time",
              "type": "uint64",
              "internalType": "uint64"
            },
            {
              "name": "expirationTime",
              "type": "uint64",
              "internalType": "uint64"
            },
            {
              "name": "revocationTime",
              "type": "uint64",
              "internalType": "uint64"
            },
            {
              "name": "refUID",
              "type": "bytes32",
              "internalType": "bytes32"
            },
            {
              "name": "recipient",
              "type": "address",
              "internalType": "address"
            },
            {
              "name": "attester",
              "type": "address",
              "internalType": "address"
            },
            {
              "name": "revocable",
              "type": "bool",
              "internalType": "bool"
            },
            {
              "name": "data",
              "type": "bytes",
              "internalType": "bytes"
            }
          ]
        },
        {
          "name": "values",
          "type": "uint256[]",
          "internalType": "uint256[]"
        }
      ],
      "outputs": [
        {
          "name": "",
          "type": "bool",
          "internalType": "bool"
        }
      ],
      "stateMutability": "payable"
    },
    {
      "type": "function",
      "name": "multiRevoke",
      "inputs": [
        {
          "name": "attestations",
          "type": "tuple[]",
          "internalType": "struct Attestation[]",
          "components": [
            {
              "name": "uid",
              "type": "bytes32",
              "internalType": "bytes32"
            },
            {
              "name": "schema",
              "type": "bytes32",
              "internalType": "bytes32"
            },
            {
              "name": "time",
              "type": "uint64",
              "internalType": "uint64"
            },
            {
              "name": "expirationTime",
              "type": "uint64",
              "internalType": "uint64"
            },
            {
              "name": "revocationTime",
              "type": "uint64",
              "internalType": "uint64"
            },
            {
              "name": "refUID",
              "type": "bytes32",
              "internalType": "bytes32"
            },
            {
              "name": "recipient",
              "type": "address",
              "internalType": "address"
            },
            {
              "name": "attester",
              "type": "address",
              "internalType": "address"
            },
            {
              "name": "revocable",
              "type": "bool",
              "internalType": "bool"
            },
            {
              "name": "data",
              "type": "bytes",
              "internalType": "bytes"
            }
          ]
        },
        {
          "name": "values",
          "type": "uint256[]",
          "internalType": "uint256[]"
        }
      ],
      "outputs": [
        {
          "name": "",
          "type": "bool",
          "internalType": "bool"
        }
      ],
      "stateMutability": "payable"
    },
    {
      "type": "function",
      "name": "onERC1155BatchReceived",
      "inputs": [
        {
          "name": "",
          "type": "address",
          "internalType": "address"
        },
        {
          "name": "",
          "type": "address",
          "internalType": "address"
        },
        {
          "name": "",
          "type": "uint256[]",
          "internalType": "uint256[]"
        },
        {
          "name": "",
          "type": "uint256[]",
          "internalType": "uint256[]"
        },
        {
          "name": "",
          "type": "bytes",
          "internalType": "bytes"
        }
      ],
      "outputs": [
        {
          "name": "",
          "type": "bytes4",
          "internalType": "bytes4"
        }
      ],
      "stateMutability": "nonpayable"
    },
    {
      "type": "function",
      "name": "onERC1155Received",
      "inputs": [
        {
          "name": "",
          "type": "address",
          "internalType": "address"
        },
        {
          "name": "",
          "type": "address",
          "internalType": "address"
        },
        {
          "name": "",
          "type": "uint256",
          "internalType": "uint256"
        },
        {
          "name": "",
          "type": "uint256",
          "internalType": "uint256"
        },
        {
          "name": "",
          "type": "bytes",
          "internalType": "bytes"
        }
      ],
      "outputs": [
        {
          "name": "",
          "type": "bytes4",
          "internalType": "bytes4"
        }
      ],
      "stateMutability": "nonpayable"
    },
    {
      "type": "function",
      "name": "reclaimExpired",
      "inputs": [
        {
          "name": "uid",
          "type": "bytes32",
          "internalType": "bytes32"
        }
      ],
      "outputs": [
        {
          "name": "",
          "type": "bool",
          "internalType": "bool"
        }
      ],
      "stateMutability": "nonpayable"
    },
    {
      "type": "function",
      "name": "revoke",
      "inputs": [
        {
          "name": "attestation",
          "type": "tuple",
          "internalType": "struct Attestation",
          "components": [
            {
              "name": "uid",
              "type": "bytes32",
              "internalType": "bytes32"
            },
            {
              "name": "schema",
              "type": "bytes32",
              "internalType": "bytes32"
            },
            {
              "name": "time",
              "type": "uint64",
              "internalType": "uint64"
            },
            {
              "name": "expirationTime",
              "type": "uint64",
              "internalType": "uint64"
            },
            {
              "name": "revocationTime",
              "type": "uint64",
              "internalType": "uint64"
            },
            {
              "name": "refUID",
              "type": "bytes32",
              "internalType": "bytes32"
            },
            {
              "name": "recipient",
              "type": "address",
              "internalType": "address"
            },
            {
              "name": "attester",
              "type": "address",
              "internalType": "address"
            },
            {
              "name": "revocable",
              "type": "bool",
              "internalType": "bool"
            },
            {
              "name": "data",
              "type": "bytes",
              "internalType": "bytes"
            }
          ]
        }
      ],
      "outputs": [
        {
          "name": "",
          "type": "bool",
          "internalType": "bool"
        }
      ],
      "stateMutability": "payable"
    },
    {
      "type": "function",
      "name": "supportsInterface",
      "inputs": [
        {
          "name": "interfaceId",
          "type": "bytes4",
          "internalType": "bytes4"
        }
      ],
      "outputs": [
        {
          "name": "",
          "type": "bool",
          "internalType": "bool"
        }
      ],
      "stateMutability": "view"
    },
    {
      "type": "function",
      "name": "unsafePartiallyCollectEscrow",
      "inputs": [
        {
          "name": "_escrow",
          "type": "bytes32",
          "internalType": "bytes32"
        },
        {
          "name": "_fulfillment",
          "type": "bytes32",
          "internalType": "bytes32"
        }
      ],
      "outputs": [
        {
          "name": "",
          "type": "bool",
          "internalType": "bool"
        }
      ],
      "stateMutability": "nonpayable"
    },
    {
      "type": "function",
      "name": "unsafePartiallyReclaimExpired",
      "inputs": [
        {
          "name": "uid",
          "type": "bytes32",
          "internalType": "bytes32"
        }
      ],
      "outputs": [
        {
          "name": "",
          "type": "bool",
          "internalType": "bool"
        }
      ],
      "stateMutability": "nonpayable"
    },
    {
      "type": "function",
      "name": "version",
      "inputs": [],
      "outputs": [
        {
          "name": "",
          "type": "string",
          "internalType": "string"
        }
      ],
      "stateMutability": "view"
    },
    {
      "type": "event",
      "name": "ERC1155TransferFailedOnRelease",
      "inputs": [
        {
          "name": "token",
          "type": "address",
          "indexed": true,
          "internalType": "address"
        },
        {
          "name": "to",
          "type": "address",
          "indexed": true,
          "internalType": "address"
        },
        {
          "name": "tokenId",
          "type": "uint256",
          "indexed": false,
          "internalType": "uint256"
        },
        {
          "name": "amount",
          "type": "uint256",
          "indexed": false,
          "internalType": "uint256"
        }
      ],
      "anonymous": false
    },
    {
      "type": "event",
      "name": "ERC20TransferFailedOnRelease",
      "inputs": [
        {
          "name": "token",
          "type": "address",
          "indexed": true,
          "internalType": "address"
        },
        {
          "name": "to",
          "type": "address",
          "indexed": true,
          "internalType": "address"
        },
        {
          "name": "amount",
          "type": "uint256",
          "indexed": false,
          "internalType": "uint256"
        }
      ],
      "anonymous": false
    },
    {
      "type": "event",
      "name": "ERC721TransferFailedOnRelease",
      "inputs": [
        {
          "name": "token",
          "type": "address",
          "indexed": true,
          "internalType": "address"
        },
        {
          "name": "to",
          "type": "address",
          "indexed": true,
          "internalType": "address"
        },
        {
          "name": "tokenId",
          "type": "uint256",
          "indexed": false,
          "internalType": "uint256"
        }
      ],
      "anonymous": false
    },
    {
      "type": "event",
      "name": "EscrowCollected",
      "inputs": [
        {
          "name": "escrow",
          "type": "bytes32",
          "indexed": true,
          "internalType": "bytes32"
        },
        {
          "name": "fulfillment",
          "type": "bytes32",
          "indexed": true,
          "internalType": "bytes32"
        },
        {
          "name": "fulfiller",
          "type": "address",
          "indexed": true,
          "internalType": "address"
        }
      ],
      "anonymous": false
    },
    {
      "type": "event",
      "name": "EscrowMade",
      "inputs": [
        {
          "name": "escrow",
          "type": "bytes32",
          "indexed": true,
          "internalType": "bytes32"
        },
        {
          "name": "buyer",
          "type": "address",
          "indexed": true,
          "internalType": "address"
        }
      ],
      "anonymous": false
    },
    {
      "type": "event",
      "name": "NativeTokenTransferFailedOnRelease",
      "inputs": [
        {
          "name": "to",
          "type": "address",
          "indexed": true,
          "internalType": "address"
        },
        {
          "name": "amount",
          "type": "uint256",
          "indexed": false,
          "internalType": "uint256"
        }
      ],
      "anonymous": false
    },
    {
      "type": "error",
      "name": "AccessDenied",
      "inputs": []
    },
    {
      "type": "error",
      "name": "ArrayLengthMismatch",
      "inputs": []
    },
    {
      "type": "error",
      "name": "AttestationNotFound",
      "inputs": [
        {
          "name": "attestationId",
          "type": "bytes32",
          "internalType": "bytes32"
        }
      ]
    },
    {
      "type": "error",
      "name": "AttestationRevoked",
      "inputs": []
    },
    {
      "type": "error",
      "name": "DeadlineExpired",
      "inputs": []
    },
    {
      "type": "error",
      "name": "ERC1155TransferFailed",
      "inputs": [
        {
          "name": "token",
          "type": "address",
          "internalType": "address"
        },
        {
          "name": "from",
          "type": "address",
          "internalType": "address"
        },
        {
          "name": "to",
          "type": "address",
          "internalType": "address"
        },
        {
          "name": "tokenId",
          "type": "uint256",
          "internalType": "uint256"
        },
        {
          "name": "amount",
          "type": "uint256",
          "internalType": "uint256"
        }
      ]
    },
    {
      "type": "error",
      "name": "ERC20TransferFailed",
      "inputs": [
        {
          "name": "token",
          "type": "address",
          "internalType": "address"
        },
        {
          "name": "from",
          "type": "address",
          "internalType": "address"
        },
        {
          "name": "to",
          "type": "address",
          "internalType": "address"
        },
        {
          "name": "amount",
          "type": "uint256",
          "internalType": "uint256"
        }
      ]
    },
    {
      "type": "error",
      "name": "ERC721TransferFailed",
      "inputs": [
        {
          "name": "token",
          "type": "address",
          "internalType": "address"
        },
        {
          "name": "from",
          "type": "address",
          "internalType": "address"
        },
        {
          "name": "to",
          "type": "address",
          "internalType": "address"
        },
        {
          "name": "tokenId",
          "type": "uint256",
          "internalType": "uint256"
        }
      ]
    },
    {
      "type": "error",
      "name": "IncorrectPayment",
      "inputs": [
        {
          "name": "expected",
          "type": "uint256",
          "internalType": "uint256"
        },
        {
          "name": "received",
          "type": "uint256",
          "internalType": "uint256"
        }
      ]
    },
    {
      "type": "error",
      "name": "InsufficientValue",
      "inputs": []
    },
    {
      "type": "error",
      "name": "InvalidAttestationUid",
      "inputs": []
    },
    {
      "type": "error",
      "name": "InvalidEAS",
      "inputs": []
    },
    {
      "type": "error",
      "name": "InvalidEscrowAttestation",
      "inputs": []
    },
    {
      "type": "error",
      "name": "InvalidFulfillment",
      "inputs": []
    },
    {
      "type": "error",
      "name": "InvalidLength",
      "inputs": []
    },
    {
      "type": "error",
      "name": "NativeTokenTransferFailed",
      "inputs": [
        {
          "name": "to",
          "type": "address",
          "internalType": "address"
        },
        {
          "name": "amount",
          "type": "uint256",
          "internalType": "uint256"
        }
      ]
    },
    {
      "type": "error",
      "name": "NotFromThisAttester",
      "inputs": []
    },
    {
      "type": "error",
      "name": "NotPayable",
      "inputs": []
    },
    {
      "type": "error",
      "name": "ReentrancyGuardReentrantCall",
      "inputs": []
    },
    {
      "type": "error",
      "name": "RevocationFailed",
      "inputs": [
        {
          "name": "attestationId",
          "type": "bytes32",
          "internalType": "bytes32"
        }
      ]
    },
    {
      "type": "error",
      "name": "SchemaRegistrationFailed",
      "inputs": [
        {
          "name": "uid",
          "type": "bytes32",
          "internalType": "bytes32"
        }
      ]
    },
    {
      "type": "error",
      "name": "TooManyBundleItems",
      "inputs": [
        {
          "name": "provided",
          "type": "uint256",
          "internalType": "uint256"
        },
        {
          "name": "max",
          "type": "uint256",
          "internalType": "uint256"
        }
      ]
    },
    {
      "type": "error",
      "name": "UnauthorizedCall",
      "inputs": []
    }
  ],
  "bytecode": {
    "object": "0x610160806040523461029e576040816146fd803803809161002082856102a2565b83398101031261029e5780516001600160a01b0381169182820361029e5760200151916001600160a01b0383169081840361029e57610120936040519161006786846102a2565b60e283527f6164647265737320617262697465722c2062797465732064656d616e642c207560208401527f696e74323536206e6174697665416d6f756e742c20616464726573735b5d206560408401527f72633230546f6b656e732c2075696e743235365b5d206572633230416d6f756e60608401527f74732c20616464726573735b5d20657263373231546f6b656e732c2075696e7460808401527f3235365b5d20657263373231546f6b656e4964732c20616464726573735b5d2060a08401527f65726331313535546f6b656e732c2075696e743235365b5d206572633131353560c08401527f546f6b656e4964732c2075696e743235365b5d2065726331313535416d6f756e60e084015261747360f01b6101008401526001608052600360a0525f60c0521561028f57836101a99460e05285526101005230916103bd565b6101405260017f9b779b17422d0df92223018b32b4d1fa46e071723d6817e2486d003becc55f00556040516141649182610599833960805182611789015260a051826117b5015260c051826117e0015260e0518261393b0152610100518261158d01525181818161057b01528181610fd8015281816111e30152818161143c0152818161196a015281816126bb01528181612b1d01526137eb0152610140518181816105bb01528181610ee30152818161117c015281816113ed0152818161155b015281816116dc015281816118c60152818161262c015281816128d001526136ee0152f35b6341bc07ff60e11b5f5260045ffd5b5f80fd5b601f909101601f19168101906001600160401b038211908210176102c557604052565b634e487b7160e01b5f52604160045260245ffd5b60208183031261029e578051906001600160401b03821161029e57019060808282031261029e5760405191608083016001600160401b038111848210176102c5576040528051835260208101516001600160a01b038116810361029e5760208401526040810151801515810361029e5760408401526060810151906001600160401b03821161029e570181601f8201121561029e578051906001600160401b0382116102c55760405192610397601f8401601f1916602001856102a2565b8284526020838301011161029e57815f9260208093018386015e83010152606082015290565b929160405190602082018351926104076015602083818901978089885e810160018060601b03198860601b1683820152600160f81b60348201520301600a198101845201826102a2565b5190206040516351753e3760e11b81526004810182905290956001600160a01b031693905f81602481885afa80156105185787915f9161057e575b505114610578579060846020926040519485938492630c1af44f60e31b8452606060048501525180928160648601528585015e5f84838501015260018060a01b0316602483015260016044830152601f801991011681010301815f865af15f9181610544575b5061052357505f602491604051928380926351753e3760e11b82528760048301525afa80156105185783915f916104f6575b5051146104f45750639e6113d560e01b5f5260045260245ffd5b565b61051291503d805f833e61050a81836102a2565b8101906102d9565b5f6104da565b6040513d5f823e3d90fd5b91928091508203610532575090565b639e6113d560e01b5f5260045260245ffd5b9091506020813d602011610570575b81610560602093836102a2565b8101031261029e5751905f6104a8565b3d9150610553565b50505050565b61059291503d805f833e61050a81836102a2565b5f61044256fe6080806040526004361015610029575b50361561001a575f80fd5b631574f9f360e01b5f5260045ffd5b5f905f3560e01c90816301ffc9a714611b07575080630fcec5b11461189357806311453bb7146118775780632c713cd91461185957806354fd4d501461176857806355b0769b146116ff5780635bf2f20d146116c45780636b122fe01461151a5780637d2c2931146113be5780638371ef591461135f57806388e5b2d914611311578063891d9ea81461133057806391db0b7e14611311578063975240161461114d578063b3b902d4146106dc578063bc197c8114610646578063c6ec50701461053a578063c93844be14610377578063ce46e0461461035b578063cf84e82c146102d5578063e49617e1146102ba578063e60c3505146102ba578063e6c9714d146101935763f23a6e610361000f57346101905760a036600319011261019057610152611d7c565b5061015b611d92565b506084356001600160401b03811161018e5761017b903690600401611cb1565b5060405163f23a6e6160e01b8152602090f35b505b80fd5b503461019057606036600319011261019057600435906001600160401b03821161019057610140600319833603011261019057604051916101d383611c08565b80600401358352602481013560208401526101f060448201611baa565b604084015261020160648201611baa565b606084015261021260848201611baa565b608084015260a481013560a084015261022d60c48201611da8565b60c084015261023e60e48201611da8565b60e084015261010481013580151581036102b6576101008401526101248101356001600160401b0381116102b65761027b91369101600401611cb1565b610120830152602435906001600160401b0382116101905760206102ac846102a63660048701611cb1565b906128c9565b6040519015158152f35b8280fd5b60206102ac6102c836611f8c565b6102d0613939565b61397a565b506060366003190112610190576004356001600160401b03811161018e57610140600319823603011261018e5761030a611b94565b604435929091906001600160a01b0384168403610190576020610353858561034061034e87604051928391600401888301612127565b03601f198101835282611c3f565b613122565b604051908152f35b5034610190578060031936011261019057602090604051908152f35b5034610190576020366003190112610190576004356001600160401b03811161018e576103a8903690600401611d4f565b6103b392919261281a565b5082019160208184031261018e578035906001600160401b0382116102b65701906101408284031261019057604051916103ec83611c08565b6103f581611da8565b835260208101356001600160401b0381116102b65784610416918301611cb1565b60208401526040810135604084015260608101356001600160401b0381116102b65784610444918301612864565b606084015260808101356001600160401b0381116102b65784610468918301611dd3565b608084015260a08101356001600160401b0381116102b6578461048c918301612864565b60a084015260c08101356001600160401b0381116102b657846104b0918301611dd3565b60c084015260e08101356001600160401b0381116102b657846104d4918301612864565b60e08401526101008101356001600160401b0381116102b657846104f9918301611dd3565b610100840152610120810135916001600160401b038311610190575092610524916105369401611dd3565b61012082015260405191829182611e9f565b0390f35b50346101905760203660031901126101905761055461281a565b5061055d6129c7565b506040516328c44a9960e21b815260048035908201529080826024817f00000000000000000000000000000000000000000000000000000000000000006001600160a01b03165afa918215610639578192610615575b5060208201517f000000000000000000000000000000000000000000000000000000000000000003610606576105366105fa610120840151602080825183010191016123cd565b60405191829182611e9f565b635527981560e11b8152600490fd5b6106329192503d8084833e61062a8183611c3f565b810190612a25565b905f6105b3565b50604051903d90823e3d90fd5b50346101905760a036600319011261019057610660611d7c565b50610669611d92565b506044356001600160401b03811161018e57610689903690600401611dd3565b506064356001600160401b03811161018e576106a9903690600401611dd3565b506084356001600160401b03811161018e576106c9903690600401611cb1565b5060405163bc197c8160e01b8152602090f35b506060366003190112610190576004356001600160401b03811161018e57610708903690600401611d4f565b61071f610713611b94565b92604435923691611c7b565b9261072861298f565b61073b60208551860101602086016123cd565b9260608401928351519560808601968751510361113e5760a086018051519260c08801938451510361112f5760e0880194855151986101008101998a515181149081159161111e575b5061110f576107a461079b8a5151865151906140c2565b885151906140c2565b603281116110f857506040810151806110db575b50875b895180518210156109d4576024906020906001600160a01b03906107e0908590613e8b565b5116604051928380926370a0823160e01b82523060048301525afa9081156109c957908d8b8d8594829461098e575b5051602494610835916001600160a01b039061082c908390613e8b565b51169351613e8b565b5191604051926323b872dd60e01b835233600452308652604452600160208360648180865af1925114821615610981575b50906040528b60605260208d6108848660018060a01b039251613e8b565b5116604051948580926370a0823160e01b82523060048301525afa928315610976578f93929185918e9461093a575b5015938415610918575b505050506108cd576001016107bb565b89518c916108f2916001600160a01b03906108e9908390613e8b565b51169251613e8b565b51604051634a73404560e11b81529182916109149130903390600486016140e3565b0390fd5b610930939450906109299151613e8b565b51906140c2565b115f80838f6108bd565b94509250506020833d821161096e575b8161095760209383611c3f565b8101031261096a57838f9351925f6108b3565b5f80fd5b3d915061094a565b6040513d8e823e3d90fd5b3b15153d1516165f610866565b9450505050506020813d82116109c1575b816109ac60209383611c3f565b8101031261096a575181908d8b8d602461080f565b3d915061099f565b6040513d8c823e3d90fd5b5050908792918a9795969784965b86518051891015610c39576001600160a01b0390610a01908a90613e8b565b51166020610a108a8d51613e8b565b516024604051809481936331a9108f60e11b835260048301525afa908115610c2e578791610bf5575b50336001600160a01b0390911603610bdd5786516001600160a01b0390610a61908a90613e8b565b5116610a6e898c51613e8b565b51813b15610bad576040516323b872dd60e01b8152336004820152306024820152604481019190915290879081908390606490829084905af19182610bc4575b5050610aee5789610acc89896108e98260018060a01b039251613e8b565b5160405163045b391760e01b81529182916109149130903390600486016140e3565b9091929394959660018060a01b03610b07828a51613e8b565b51166020610b16838d51613e8b565b516024604051809481936331a9108f60e11b835260048301525afa908115610bb9578891610b7c575b50306001600160a01b0390911603610b6057600101969594939291906109e2565b87518a91610acc916001600160a01b03906108e9908390613e8b565b90506020813d8211610bb1575b81610b9660209383611c3f565b81010312610bad57610ba7906122dd565b8b610b3f565b8780fd5b3d9150610b89565b6040513d8a823e3d90fd5b81610bce91611c3f565b610bd957868c610aae565b8680fd5b89610acc89896108e98260018060a01b039251613e8b565b90506020813d8211610c26575b81610c0f60209383611c3f565b81010312610bd957610c20906122dd565b8b610a39565b3d9150610c02565b6040513d89823e3d90fd5b508493868a949394610120829501965b84518051871015610ede57610ca6906020906001600160a01b0390610c6f908a90613e8b565b5116610c7c898b51613e8b565b51604051627eeac760e11b8152306004820152602481019190915292839190829081906044820190565b03915afa908115610ed3578491610ea2575b5085516001600160a01b0390610ccf908990613e8b565b5116610cdc888a51613e8b565b5190610ce9898c51613e8b565b5191813b15610bd957610d19928792839283604051809781958294637921219560e11b845230336004860161408a565b03925af19182610e89575b5050610d9f578888610914610d5b8a610d53818c610d4a8260018060a01b039251613e8b565b51169551613e8b565b519451613e8b565b5160405163334a7d1b60e21b81526001600160a01b0390931660048401523360248401523060448401526064830193909352608482019290925290819060a4820190565b610df59097969192939497602060018060a01b03610dbe858a51613e8b565b5116610dcb858b51613e8b565b51604051627eeac760e11b8152306004820152602481019190915293849190829081906044820190565b03915afa918215610e7e578692610e49575b50610e1790610929848c51613e8b565b11610e29576001019495929190610c49565b85610914610d5b83610d53818a610d4a8f9860018060a01b039251613e8b565b9091506020813d8211610e76575b81610e6460209383611c3f565b8101031261096a575190610e17610e07565b3d9150610e57565b6040513d88823e3d90fd5b81610e9391611c3f565b610e9e57848b610d24565b8480fd5b90506020813d8211610ecb575b81610ebc60209383611c3f565b8101031261096a575189610cb8565b3d9150610eaf565b6040513d86823e3d90fd5b5093507f0000000000000000000000000000000000000000000000000000000000000000936001600160401b0360405194610f1886611c24565b33865216806020860152600160408601528160608601528260808601528360a08601526020604051610f4981611bbe565b8781528181019687526040518097819263f17325e760e01b8352846004840152516024830152516040604483015260018060a01b0381511660648301526001600160401b03848201511660848301526040810151151560a4830152606081015160c483015260a0610fca608083015160c060e4860152610124850190611b70565b9101516101048301520381877f00000000000000000000000000000000000000000000000000000000000000006001600160a01b03165af1948515610ed35784956110a1575b5094610120916020966040519261102684611c08565b878452888401526001600160401b0342166040840152606083015284608083015260a08201523360c08201523060e082015260016101008201520152817f8f7f2dbafd79125e808bf16a53d7fa4e17b8b6374ced76d946a45f94b7bf4d06339280a360015f51602061410f5f395f51905f5255604051908152f35b9094506020813d6020116110d3575b816110bd60209383611c3f565b810103126110cf575193610120611010565b8380fd5b3d91506110b0565b3481146107b857630d35e92160e01b895260045234602452604488fd5b6325b198a560e21b89526004526032602452604488fd5b63512509d360e11b8852600488fd5b90506101208201515114155f610784565b63512509d360e11b8652600486fd5b63512509d360e11b8452600484fd5b5034610190576020366003190112610190576004359061116b61298f565b61117482612af7565b9160208301517f000000000000000000000000000000000000000000000000000000000000000080910361130257606084016001600160401b03815116156112e457516001600160401b031642106112f35760c0840180519091906001600160a01b031633036112e4576040517f00000000000000000000000000000000000000000000000000000000000000006001600160a01b0316919061121681611bbe565b8481528560208201526040519161122c83611bbe565b82526020820152813b15610e9e57604051634692626760e01b8152815160048201526020918201518051602483015290910151604482015290849081908390606490829084905af191826112cf575b50506112955763614cf93960e01b83526004829052602483fd5b61012084015190516112b2916001600160a01b0390911690612c46565b5060015f51602061410f5f395f51905f5255602060405160018152f35b816112d991611c3f565b6110cf57835f61127b565b637bf6a16f60e01b8452600484fd5b637bf6a16f60e01b8352600483fd5b63629cd40b60e11b8352600483fd5b60206102ac61131f36611cff565b9261132b929192613939565b612564565b50346101905761053661134b61134536611b5a565b90612608565b604051918291602083526020830190611b70565b503461019057602036600319011261019057600435906001600160401b038211610190576113986113933660048501611cb1565b61253b565b604080516001600160a01b03909316835260208301819052829161053691830190611b70565b503461019057602036600319011261019057600435906113dc61298f565b6113e582612af7565b9160208301517f000000000000000000000000000000000000000000000000000000000000000080910361130257606084016001600160401b03815116156112e457516001600160401b031642106112f3576040517f00000000000000000000000000000000000000000000000000000000000000006001600160a01b0316919061146f81611bbe565b8381528460208201526040519161148583611bbe565b82526020820152813b156110cf57604051634692626760e01b8152815160048201526020918201518051602483015290910151604482015290839081908390606490829084905af19182611505575b50506114ed5763614cf93960e01b825260045260249150fd5b60c08301516112b2906001600160a01b031684613993565b8161150f91611c3f565b6102b657825f6114d4565b503461019057806003193601126101905760608060405161153a81611bed565b8381528360208201528360408201520152604051906351753e3760e11b82527f00000000000000000000000000000000000000000000000000000000000000006004830152808260248160018060a01b037f0000000000000000000000000000000000000000000000000000000000000000165afa9081156116b8578091611603575b606082610536604051928392602084528051602085015260018060a01b0360208201511660408501526040810151151582850152015160808084015260a0830190611b70565b90503d8082843e6116148184611c3f565b82019160208184031261018e578051906001600160401b0382116102b6570190608082840312610190576040519161164b83611bed565b8051835260208101516001600160a01b03811681036102b657602084015261167560408201611fc0565b60408401526060810151906001600160401b0382116102b657019083601f8301121561019057506060928160206116ae935191016122a7565b828201525f6115bd565b604051903d90823e3d90fd5b503461019057806003193601126101905760206040517f00000000000000000000000000000000000000000000000000000000000000008152f35b50604036600319011261019057600435906001600160401b03821161019057610140600319833603011261019057602061035361175384611761611741611b94565b91604051938491600401878301612127565b03601f198101845283611c3f565b3391613122565b5034610190578060031936011261019057602061134b6001610536936117ad7f0000000000000000000000000000000000000000000000000000000000000000612fb5565b9082856117d97f0000000000000000000000000000000000000000000000000000000000000000612fb5565b81806118047f0000000000000000000000000000000000000000000000000000000000000000612fb5565b926040519a888c995191829101848b015e880190601760f91b83830152805192839101602183015e010190601760f91b84830152805192839101600283015e010190838201520301601f198101835282611c3f565b50346101905761186b61134536611b5a565b50602060405160018152f35b5034610190578060031936011261019057602060405160328152f35b503461096a576118a236611b5a565b91906118ac61298f565b6118b581612af7565b926118bf81612af7565b60208501517f0000000000000000000000000000000000000000000000000000000000000000809103611af8576118f586612ba5565b15611af85760c08601516001600160a01b03163303611ae9576119446020610120880197611923895161253b565b915160405163e6c9714d60e01b815294859384928392918a60048501611fcd565b03916001600160a01b03165afa908115611ade575f91611aa4575b5015611a95576040517f00000000000000000000000000000000000000000000000000000000000000006001600160a01b03169061199c81611bbe565b8581525f6020820152604051926119b284611bbe565b83526020830152803b1561096a57604051634692626760e01b815282516004820152602092830151805160248301529092015160448301525f908290606490829084905af19081611a80575b50611a175763614cf93960e01b84526004839052602484fd5b935160c09094018051602095611a36916001600160a01b031690612c46565b5060018060a01b03905116917ff96e77bc177ae8e2ff25185e7c6d85f8ba97c8bdd9d46933aac70a7a33edf6c06040519480a460015f51602061410f5f395f51905f525560018152f35b611a8d9195505f90611c3f565b5f935f6119fe565b630ebe58ef60e11b5f5260045ffd5b90506020813d602011611ad6575b81611abf60209383611c3f565b8101031261096a57611ad090611fc0565b5f61195f565b3d9150611ab2565b6040513d5f823e3d90fd5b637bf6a16f60e01b5f5260045ffd5b63629cd40b60e11b5f5260045ffd5b3461096a57602036600319011261096a576004359063ffffffff60e01b821680920361096a57602091630271189760e51b8114908115611b49575b5015158152f35b6301ffc9a760e01b14905083611b42565b604090600319011261096a576004359060243590565b805180835260209291819084018484015e5f828201840152601f01601f1916010190565b602435906001600160401b038216820361096a57565b35906001600160401b038216820361096a57565b604081019081106001600160401b03821117611bd957604052565b634e487b7160e01b5f52604160045260245ffd5b608081019081106001600160401b03821117611bd957604052565b61014081019081106001600160401b03821117611bd957604052565b60c081019081106001600160401b03821117611bd957604052565b90601f801991011681019081106001600160401b03821117611bd957604052565b6001600160401b038111611bd957601f01601f191660200190565b929192611c8782611c60565b91611c956040519384611c3f565b82948184528183011161096a578281602093845f960137010152565b9080601f8301121561096a57816020611ccc93359101611c7b565b90565b9181601f8401121561096a578235916001600160401b03831161096a576020808501948460051b01011161096a57565b604060031982011261096a576004356001600160401b03811161096a5781611d2991600401611ccf565b92909291602435906001600160401b03821161096a57611d4b91600401611ccf565b9091565b9181601f8401121561096a578235916001600160401b03831161096a576020838186019501011161096a57565b600435906001600160a01b038216820361096a57565b602435906001600160a01b038216820361096a57565b35906001600160a01b038216820361096a57565b6001600160401b038111611bd95760051b60200190565b9080601f8301121561096a578135611dea81611dbc565b92611df86040519485611c3f565b81845260208085019260051b82010192831161096a57602001905b828210611e205750505090565b8135815260209182019101611e13565b90602080835192838152019201905f5b818110611e4d5750505090565b82516001600160a01b0316845260209384019390920191600101611e40565b90602080835192838152019201905f5b818110611e895750505090565b8251845260209384019390920191600101611e7c565b90611ccc916020815260018060a01b038251166020820152610120611f76611f60611f49611f33611f1d611f07611ee760208a015161014060408b01526101608a0190611b70565b60408a015160608a015260608a0151601f198a83030160808b0152611e30565b6080890151888203601f190160a08a0152611e6c565b60a0880151878203601f190160c0890152611e30565b60c0870151868203601f190160e0880152611e6c565b60e0860151858203601f1901610100870152611e30565b610100850151848203601f190184860152611e6c565b92015190610140601f1982850301910152611e6c565b602060031982011261096a57600435906001600160401b03821161096a5761014090829003600319011261096a5760040190565b5190811515820361096a57565b93929161208b9061207d61012060409460608952805160608a0152602081015160808a01526001600160401b03868201511660a08a01526001600160401b0360608201511660c08a01526001600160401b0360808201511660e08a015260a08101516101008a015260018060a01b0360c082015116828a015260018060a01b0360e0820151166101408a015261010081015115156101608a015201516101406101808901526101a0880190611b70565b908682036020880152611b70565b930152565b9035601e198236030181121561096a5701602081359101916001600160401b03821161096a578160051b3603831361096a57565b916020908281520191905f5b8181106120dd5750505090565b909192602080600192838060a01b036120f588611da8565b1681520194019291016120d0565b81835290916001600160fb1b03831161096a5760209260051b809284830137010190565b60208152906001600160a01b0361213d82611da8565b1660208301526020810135601e198236030181121561096a578101916020833593016001600160401b03841161096a57833603811361096a576122886122676122476122286122096121ea89611ccc9a6122949861014060408c0152816101608c01526101808b01375f610180828b010152601f8019910116880160408a013560608a01526101806121d260608c018c612090565b919092601f19828d8303010160808d015201916120c4565b6121f760808a018a612090565b898303601f190160a08b015290612103565b61221660a0890189612090565b888303601f190160c08a0152906120c4565b61223560c0880188612090565b878303601f190160e089015290612103565b61225460e0870187612090565b868303601f1901610100880152906120c4565b612275610100860186612090565b858303601f190161012087015290612103565b92610120810190612090565b91610140601f1982860301910152612103565b9291926122b382611c60565b916122c16040519384611c3f565b82948184528183011161096a578281602093845f96015e010152565b51906001600160a01b038216820361096a57565b9080601f8301121561096a578151611ccc926020016122a7565b9080601f8301121561096a57815161232281611dbc565b926123306040519485611c3f565b81845260208085019260051b82010192831161096a57602001905b8282106123585750505090565b60208091612365846122dd565b81520191019061234b565b9080601f8301121561096a57815161238781611dbc565b926123956040519485611c3f565b81845260208085019260051b82010192831161096a57602001905b8282106123bd5750505090565b81518152602091820191016123b0565b60208183031261096a578051906001600160401b03821161096a57016101408183031261096a576040519161240183611c08565b61240a826122dd565b835260208201516001600160401b03811161096a578161242b9184016122f1565b60208401526040820151604084015260608201516001600160401b03811161096a578161245991840161230b565b606084015260808201516001600160401b03811161096a578161247d918401612370565b608084015260a08201516001600160401b03811161096a57816124a191840161230b565b60a084015260c08201516001600160401b03811161096a57816124c5918401612370565b60c084015260e08201516001600160401b03811161096a57816124e991840161230b565b60e08401526101008201516001600160401b03811161096a578161250e918401612370565b6101008401526101208201516001600160401b03811161096a576125329201612370565b61012082015290565b61254e90602080825183010191016123cd565b80516020909101516001600160a01b0390911691565b9290928184036125f9575f91345b858410156125ee57818410156125da578360051b80860135908282116125cb5784013561013e198536030181121561096a576125af90850161397a565b156125c05760019103930192612572565b505050505050505f90565b63044044a560e21b5f5260045ffd5b634e487b7160e01b5f52603260045260245ffd5b505050505050600190565b63251f56a160e21b5f5260045ffd5b61261061298f565b5f9161261b82612af7565b9061262581612af7565b60208301517f0000000000000000000000000000000000000000000000000000000000000000809103611af85761265b84612ba5565b15611af857612695602061267361012087015161253b565b875160405163e6c9714d60e01b81529485939284928392918a60048501611fcd565b03916001600160a01b03165afa908115611ade575f916127e0575b5015611a95576040517f00000000000000000000000000000000000000000000000000000000000000006001600160a01b0316906126ed81611bbe565b8681525f60208201526040519261270384611bbe565b83526020830152803b1561096a57604051634692626760e01b815282516004820152602092830151805160248301529092015160448301525f908290606490829084905af190816127cb575b506127685763614cf93960e01b85526004849052602485fd5b60c001805190949391927ff96e77bc177ae8e2ff25185e7c6d85f8ba97c8bdd9d46933aac70a7a33edf6c0916127a9916001600160a01b0390911690613993565b94516001600160a01b03169380a49060015f51602061410f5f395f51905f5255565b6127d89196505f90611c3f565b5f945f61274f565b90506020813d602011612812575b816127fb60209383611c3f565b8101031261096a5761280c90611fc0565b5f6126b0565b3d91506127ee565b6040519061282782611c08565b6060610120835f81528260208201525f604082015282808201528260808201528260a08201528260c08201528260e0820152826101008201520152565b9080601f8301121561096a57813561287b81611dbc565b926128896040519485611c3f565b81845260208085019260051b82010192831161096a57602001905b8282106128b15750505090565b602080916128be84611da8565b8152019101906128a4565b60208101517f0000000000000000000000000000000000000000000000000000000000000000036129895761290f61012061291f920151602080825183010191016123cd565b91602080825183010191016123cd565b6040820151604082015111159182612977575b8261295e575b8261294257505090565b6020919250810151818151910120910151602081519101201490565b805182516001600160a01b039081169116149250612938565b91506129838183613e9f565b91612932565b50505f90565b60025f51602061410f5f395f51905f5254146129b85760025f51602061410f5f395f51905f5255565b633ee5aeb560e01b5f5260045ffd5b604051906129d482611c08565b6060610120835f81525f60208201525f60408201525f838201525f60808201525f60a08201525f60c08201525f60e08201525f6101008201520152565b51906001600160401b038216820361096a57565b60208183031261096a578051906001600160401b03821161096a57016101408183031261096a5760405191612a5983611c08565b8151835260208201516020840152612a7360408301612a11565b6040840152612a8460608301612a11565b6060840152612a9560808301612a11565b608084015260a082015160a0840152612ab060c083016122dd565b60c0840152612ac160e083016122dd565b60e0840152612ad36101008301611fc0565b6101008401526101208201516001600160401b03811161096a5761253292016122f1565b90612b006129c7565b506040516328c44a9960e21b815260048101839052915f836024817f00000000000000000000000000000000000000000000000000000000000000006001600160a01b03165afa928315611ade575f93612b89575b508251818115918215612b7e575b5050612b6c5750565b6301fb6dd160e01b5f5260045260245ffd5b14159050815f612b63565b612b9e9193503d805f833e61062a8183611c3f565b915f612b55565b805115612c08576001600160401b036060820151168015159081612bfd575b50612bee57608001516001600160401b0316612bdf57600190565b637b6227e960e11b5f5260045ffd5b631ab7da6b60e01b5f5260045ffd5b90504210155f612bc4565b635c2c7f8960e01b5f5260045ffd5b3d15612c41573d90612c2882611c60565b91612c366040519384611c3f565b82523d5f602084013e565b606090565b612c5990602080825183010191016123cd565b6040810180519081612f64575b5090916001600160a01b0381169150608083019060608401905f5b82518051821015612d4c57600191906001600160a01b0390612ca4908390613e8b565b5116612cb1828751613e8b565b51906040519163a9059cbb60e01b5f528860045260245260205f60448180855af190845f5114821615612d3f575b509060405215612cf0575b01612c81565b85828060a01b03612d02838751613e8b565b51167f6a0720b70d5a8914c9378c90e36e760e11a1c79840d56909d7562c7c79654e0b6020612d32858a51613e8b565b51604051908152a3612cea565b3b15153d1516165f612cdf565b505094939150505f9060a081019060c08101925b82518051821015612e41576001600160a01b0390612d7f908390613e8b565b511690612d8d818651613e8b565b51823b1561096a576040516323b872dd60e01b81523060048201526001600160a01b038a16602482015260448101919091526001925f908290606490829084905af19081612e31575b50612e2c5785828060a01b03612ded838751613e8b565b51167f0863b761d932722655fba74d8a2c2b32a37c3d52195357bf7b4610ebfc6944e06020612e1d858a51613e8b565b51604051908152a35b01612d60565b612e26565b5f612e3b91611c3f565b5f612dd6565b50506101008101925060e081019150610120015f5b82518051821015612f48576001600160a01b0390612e75908390613e8b565b511690612e83818651613e8b565b5191612e90828551613e8b565b5192813b1561096a57600193612ec2925f92838d60405196879586948593637921219560e11b8552306004860161408a565b03925af19081612f38575b50612f335785828060a01b03612ee4838751613e8b565b51167f15fffc8b1069bee41edd748e645887f613b87a2d861ab91a772fc4a11ebe53026040612f14858a51613e8b565b51612f20868951613e8b565b5182519182526020820152a35b01612e56565b612f2d565b5f612f4291611c3f565b5f612ecd565b5050505050509050604051612f5e602082611c3f565b5f815290565b5f80808060018060a01b03881695865af1612f7d612c17565b50612c665760207ff7c9ce661c79b7ec4fedd33edef0ee43991ab10fc7464e4764925d33e3dfd0bc9151604051908152a25f80612c66565b805f9172184f03e93ff9f4daa797ed6e38ed64bf6a1f0160401b8210156130ff575b806d04ee2d6d415b85acef8100000000600a9210156130e4575b662386f26fc100008110156130d0575b6305f5e1008110156130bf575b6127108110156130b0575b60648110156130a2575b1015613097575b600a6021600184019361303c85611c60565b9461304a6040519687611c3f565b808652613059601f1991611c60565b013660208701378401015b5f1901916f181899199a1a9b1b9c1cb0b131b232b360811b8282061a835304801561309257600a9091613064565b505090565b60019091019061302a565b606460029104930192613023565b61271060049104930192613019565b6305f5e1006008910493019261300e565b662386f26fc1000060109104930192613001565b6d04ee2d6d415b85acef810000000060209104930192612ff1565b506040915072184f03e93ff9f4daa797ed6e38ed64bf6a1f0160401b8104612fd7565b9290919261312e61298f565b61314160208251830101602083016123cd565b926060840192835151956080860196875151036139195760a08601908151519360c0880194855151036139195760e0880197885151610100820190815151811490811591613928575b50613919576131aa6131a18a5151875151906140c2565b8b5151906140c2565b6032811161390257506040820151806138e5575b505f5b89518051821015613358576024906020906001600160a01b03906131e6908590613e8b565b5116604051928380926370a0823160e01b82523060048301525afa908115611ade575f91613327575b508c613228838d6108e98260018060a01b039251613e8b565b5191604051926323b872dd60e01b5f52336004523060245260445260205f60648180865af19160015f5114831615613316575b50602491926040525f60605260208d61327c8660018060a01b039251613e8b565b5116604051938480926370a0823160e01b82523060048301525afa918215611ade578f9385915f946132de575b50159384156132c3575b505050506108cd576001016131c1565b6132d4939450906109299151613e8b565b115f80838f6132b3565b94509250506020833d821161330e575b816132fb60209383611c3f565b8101031261096a57838f9351925f6132a9565b3d91506132ee565b916024923b15153d1516169161325b565b90506020813d8211613350575b8161334160209383611c3f565b8101031261096a57515f61320f565b3d9150613334565b5050929599509295965092965f965b86518051891015613542576001600160a01b0390613386908a90613e8b565b511660206133958a8d51613e8b565b516024604051809481936331a9108f60e11b835260048301525afa908115611ade575f91613509575b50336001600160a01b0390911603610bdd5786516001600160a01b03906133e6908a90613e8b565b51166133f3898c51613e8b565b5190803b1561096a576040516323b872dd60e01b815233600482015230602482015260448101929092525f908290606490829084905af190816134f9575b5061344e5789610acc89896108e98260018060a01b039251613e8b565b9091929394959660018060a01b03613467828a51613e8b565b51166020613476838d51613e8b565b516024604051809481936331a9108f60e11b835260048301525afa908115611ade575f916134c0575b50306001600160a01b0390911603610b605760010196959493929190613367565b90506020813d82116134f1575b816134da60209383611c3f565b8101031261096a576134eb906122dd565b5f61349f565b3d91506134cd565b5f61350391611c3f565b5f613431565b90506020813d821161353a575b8161352360209383611c3f565b8101031261096a57613534906122dd565b5f6133be565b3d9150613516565b50939498509450959094506101205f9501965b845180518710156136e35761357b906020906001600160a01b0390610c6f908a90613e8b565b03915afa908115611ade575f916136b2575b5085516001600160a01b03906135a4908990613e8b565b51166135b1888a51613e8b565b516135bd898c51613e8b565b51823b1561096a576135ea925f9283604051809681958294637921219560e11b845230336004860161408a565b03925af190816136a2575b5061361a578888610914610d5b8a610d53818c610d4a8260018060a01b039251613e8b565b6136399097969192939497602060018060a01b03610dbe858a51613e8b565b03915afa918215611ade575f9261366d575b5061365b90610929848c51613e8b565b11610e29576001019495929190613555565b9091506020813d821161369a575b8161368860209383611c3f565b8101031261096a57519061365b61364b565b3d915061367b565b5f6136ac91611c3f565b5f6135f5565b90506020813d82116136db575b816136cc60209383611c3f565b8101031261096a57515f61358d565b3d91506136bf565b5095509550915091507f00000000000000000000000000000000000000000000000000000000000000006001600160401b036040519461372286611c24565b60018060a01b03169384865216806020860152600160408601525f60608601528260808601525f60a0860152602060405161375c81611bbe565b8381528181019687526040518097819263f17325e760e01b8352846004840152516024830152516040604483015260018060a01b0381511660648301526001600160401b03848201511660848301526040810151151560a4830152606081015160c483015260a06137dd608083015160c060e4860152610124850190611b70565b91015161010483015203815f7f00000000000000000000000000000000000000000000000000000000000000006001600160a01b03165af1948515611ade575f956138ad575b5090610120916040519161383683611c08565b86835260208301526001600160401b034216604083015260608201525f60808201525f60a08201528360c08201523060e082015260016101008201520152817f8f7f2dbafd79125e808bf16a53d7fa4e17b8b6374ced76d946a45f94b7bf4d065f80a39060015f51602061410f5f395f51905f5255565b919094506020823d6020116138dd575b816138ca60209383611c3f565b8101031261096a57905193610120613823565b3d91506138bd565b3481146131be57630d35e92160e01b5f526004523460245260445ffd5b6325b198a560e21b5f52600452603260245260445ffd5b63512509d360e11b5f5260045ffd5b90506101208301515114155f61318a565b7f00000000000000000000000000000000000000000000000000000000000000006001600160a01b0316330361396b57565b634ca8886760e01b5f5260045ffd5b60e0013560018060a01b03811680910361096a57301490565b6101206139ae919392930151602080825183010191016123cd565b6040810180519081613e56575b50909160808301915060608301906001600160a01b038516905f5b83518051821015613b90576024906020906001600160a01b03906139fb908590613e8b565b5116604051928380926370a0823160e01b82528860048301525afa908115611ade575f91613b5f575b50602460018060a01b03613a39848851613e8b565b5116613a46848951613e8b565b51906040519163a9059cbb60e01b5f5287600452835260205f60448180855af19060015f5114821615613b52575b5090604052602060018060a01b03613a8d868a51613e8b565b5116604051938480926370a0823160e01b82528a60048301525afa918215611ade575f92613b1f575b5015918215613b06575b5050613ace576001016139d6565b84610914613aea838761082c8c9660018060a01b039251613e8b565b51604051634a73404560e11b81529384933090600486016140e3565b613b17919250610929848951613e8b565b115f80613ac0565b9091506020813d8211613b4a575b81613b3a60209383611c3f565b8101031261096a5751905f613ab6565b3d9150613b2d565b3b15153d1516165f613a74565b90506020813d8211613b88575b81613b7960209383611c3f565b8101031261096a57515f613a24565b3d9150613b6c565b505060c08501945f945060a08101935091905b83518051861015613d25576001600160a01b0390613bc2908790613e8b565b5116613bcf868851613e8b565b5190803b1561096a576040516323b872dd60e01b81523060048201526001600160a01b038a16602482015260448101929092525f908290606490829084905af19081613d15575b50613c545750505081613c389161082c6109149460018060a01b039251613e8b565b5160405163045b391760e01b81529384933090600486016140e3565b9091949360018060a01b03613c6a828651613e8b565b51166020613c79838851613e8b565b516024604051809481936331a9108f60e11b835260048301525afa8015611ade5784915f91613cda575b506001600160a01b031603613cbe5760010193949190613ba3565b84610914613c38838761082c8c9660018060a01b039251613e8b565b9150506020813d8211613d0d575b81613cf560209383611c3f565b8101031261096a57613d0784916122dd565b5f613ca3565b3d9150613ce8565b5f613d1f91611c3f565b5f613c16565b509350509250505f60e0830161012061010085019401925b81518051841015613e41576001600160a01b0390613d5c908590613e8b565b5116613d69848751613e8b565b51613d75858751613e8b565b51823b1561096a57613da3925f92838b60405196879586948593637921219560e11b8552306004860161408a565b03925af19081613e31575b50613e27575081613ddc81613de493613dd3610914979660018060a01b039251613e8b565b51169651613e8b565b519251613e8b565b5160405163334a7d1b60e21b81526001600160a01b03948516600482015230602482015294909316604485015260648401526084830191909152819060a4820190565b9160010191613d3d565b5f613e3b91611c3f565b5f613dae565b50945050505050604051612f5e602082611c3f565b5f80808060018060a01b03891695865af1613e6f612c17565b506139bb5751906338f0620160e21b5f5260045260245260445ffd5b80518210156125da5760209160051b010190565b6060810191825151606082019081515111614082575f5b815151811015613f2f5784516001600160a01b0390613ed6908390613e8b565b511660018060a01b03613eea838551613e8b565b511614801590613f0a575b613f0157600101613eb6565b50505050505f90565b50613f19816080860151613e8b565b51613f28826080860151613e8b565b5111613ef5565b5050915060a081019182515160a082019081515111614082575f5b815151811015613fbb5784516001600160a01b0390613f6a908390613e8b565b511660018060a01b03613f7e838551613e8b565b511614801590613f95575b613f0157600101613f4a565b50613fa48160c0860151613e8b565b51613fb38260c0860151613e8b565b511415613f89565b5050915060e08101918251519260e082019384515111614082575f5b8451518110156140785781516001600160a01b0390613ff7908390613e8b565b511660018060a01b0361400b838851613e8b565b511614801590614050575b8015614029575b613f0157600101613fd7565b5061403981610120860151613e8b565b5161404982610120860151613e8b565b511161401d565b5061406081610100860151613e8b565b5161407082610100860151613e8b565b511415614016565b5050505050600190565b505050505f90565b6001600160a01b039182168152911660208201526040810191909152606081019190915260a0608082018190525f9082015260c00190565b919082018092116140cf57565b634e487b7160e01b5f52601160045260245ffd5b6001600160a01b0391821681529181166020830152909116604082015260608101919091526080019056fe9b779b17422d0df92223018b32b4d1fa46e071723d6817e2486d003becc55f00a26469706673582212208ef593803c3166ae61014a3c41ea2763414b728dbea6dd49e6e9952ba502055464736f6c634300081b0033",
    "linkReferences": {}
  },
  "methodIdentifiers": {
    "ATTESTATION_SCHEMA()": "5bf2f20d",
    "MAX_BUNDLE_ITEMS()": "11453bb7",
    "attest((bytes32,bytes32,uint64,uint64,uint64,bytes32,address,address,bool,bytes))": "e60c3505",
    "checkObligation((bytes32,bytes32,uint64,uint64,uint64,bytes32,address,address,bool,bytes),bytes,bytes32)": "e6c9714d",
    "collectEscrow(bytes32,bytes32)": "2c713cd9",
    "collectEscrowRaw(bytes32,bytes32)": "891d9ea8",
    "decodeObligationData(bytes)": "c93844be",
    "doObligation((address,bytes,uint256,address[],uint256[],address[],uint256[],address[],uint256[],uint256[]),uint64)": "55b0769b",
    "doObligationFor((address,bytes,uint256,address[],uint256[],address[],uint256[],address[],uint256[],uint256[]),uint64,address)": "cf84e82c",
    "doObligationRaw(bytes,uint64,bytes32)": "b3b902d4",
    "extractArbiterAndDemand(bytes)": "8371ef59",
    "getObligationData(bytes32)": "c6ec5070",
    "getSchema()": "6b122fe0",
    "isPayable()": "ce46e046",
    "multiAttest((bytes32,bytes32,uint64,uint64,uint64,bytes32,address,address,bool,bytes)[],uint256[])": "91db0b7e",
    "multiRevoke((bytes32,bytes32,uint64,uint64,uint64,bytes32,address,address,bool,bytes)[],uint256[])": "88e5b2d9",
    "onERC1155BatchReceived(address,address,uint256[],uint256[],bytes)": "bc197c81",
    "onERC1155Received(address,address,uint256,uint256,bytes)": "f23a6e61",
    "reclaimExpired(bytes32)": "7d2c2931",
    "revoke((bytes32,bytes32,uint64,uint64,uint64,bytes32,address,address,bool,bytes))": "e49617e1",
    "supportsInterface(bytes4)": "01ffc9a7",
    "unsafePartiallyCollectEscrow(bytes32,bytes32)": "0fcec5b1",
    "unsafePartiallyReclaimExpired(bytes32)": "97524016",
    "version()": "54fd4d50"
  },
  "id": 90
}