{"abi":[{"type":"constructor","inputs":[{"name":"_eas","type":"address","internalType":"contract IEAS"}],"stateMutability":"nonpayable"},{"type":"function","name":"checkObligation","inputs":[{"name":"obligation","type":"tuple","internalType":"struct Attestation","components":[{"name":"uid","type":"bytes32","internalType":"bytes32"},{"name":"schema","type":"bytes32","internalType":"bytes32"},{"name":"time","type":"uint64","internalType":"uint64"},{"name":"expirationTime","type":"uint64","internalType":"uint64"},{"name":"revocationTime","type":"uint64","internalType":"uint64"},{"name":"refUID","type":"bytes32","internalType":"bytes32"},{"name":"recipient","type":"address","internalType":"address"},{"name":"attester","type":"address","internalType":"address"},{"name":"revocable","type":"bool","internalType":"bool"},{"name":"data","type":"bytes","internalType":"bytes"}]},{"name":"demand","type":"bytes","internalType":"bytes"},{"name":"counteroffer","type":"bytes32","internalType":"bytes32"}],"outputs":[{"name":"","type":"bool","internalType":"bool"}],"stateMutability":"view"},{"type":"function","name":"confirm","inputs":[{"name":"_obligation","type":"bytes32","internalType":"bytes32"}],"outputs":[],"stateMutability":"nonpayable"},{"type":"function","name":"decodeDemandData","inputs":[{"name":"data","type":"bytes","internalType":"bytes"}],"outputs":[{"name":"","type":"tuple","internalType":"struct ConfirmationArbiterComposing.DemandData","components":[{"name":"baseArbiter","type":"address","internalType":"address"},{"name":"baseDemand","type":"bytes","internalType":"bytes"}]}],"stateMutability":"pure"},{"type":"function","name":"requestConfirmation","inputs":[{"name":"_obligation","type":"bytes32","internalType":"bytes32"}],"outputs":[],"stateMutability":"nonpayable"},{"type":"event","name":"ConfirmationMade","inputs":[{"name":"obligation","type":"bytes32","indexed":true,"internalType":"bytes32"}],"anonymous":false},{"type":"event","name":"ConfirmationRequested","inputs":[{"name":"obligation","type":"bytes32","indexed":true,"internalType":"bytes32"},{"name":"confirmer","type":"address","indexed":true,"internalType":"address"}],"anonymous":false},{"type":"error","name":"UnauthorizedConfirmation","inputs":[]},{"type":"error","name":"UnauthorizedConfirmationRequest","inputs":[]}],"bytecode":{"object":"0x608034606f57601f61099a38819003918201601f19168301916001600160401b03831184841017607357808492602094604052833981010312606f57516001600160a01b03811690819003606f575f80546001600160a01b03191691909117905560405161091290816100888239f35b5f80fd5b634e487b7160e01b5f52604160045260245ffdfe6080806040526004361015610012575f80fd5b5f3560e01c908163797af627146103a757508063838a68d9146102a4578063e6c9714d1461017f5763e9af836114610048575f80fd5b3461017b57602036600319011261017b5760043560018060a01b035f54166040516328c44a9960e21b81528260048201525f81602481855afa908115610130575f91610161575b5060e08101516001600160a01b03163314158061014a575b61013b5760a05f9101516024604051809481936328c44a9960e21b835260048301525afa908115610130575f9161010e575b5060c001516001600160a01b0316907fcd96d6feb2cd81dd296aa8a2564f04a99fef9d2bedf2aa811458f1a93692b5a65f80a3005b61012a91503d805f833e6101228183610520565b810190610645565b5f6100d9565b6040513d5f823e3d90fd5b63020a627d60e11b5f5260045ffd5b5060c08101516001600160a01b03163314156100a7565b61017591503d805f833e6101228183610520565b5f61008f565b5f80fd5b3461017b57606036600319011261017b576004356001600160401b03811161017b57610140600319823603011261017b57604051906101bd82610504565b80600401358252602481013560208301526101da60448201610541565b60408301526101eb60648201610541565b60608301526101fc60848201610541565b608083015260a481013560a083015261021760c48201610555565b60c083015261022860e48201610555565b60e0830152610104810135801515810361017b57610100830152610124810135906001600160401b03821161017b5760046102669236920101610584565b6101208201526024356001600160401b03811161017b5760209161029161029a923690600401610584565b60443591610720565b6040519015158152f35b3461017b57602036600319011261017b576004356001600160401b03811161017b573660238201121561017b5780600401356001600160401b03811161017b578101602481019136831161017b5760606020604051610302816104d5565b5f8152015260208183031261017b576024810135906001600160401b03821161017b5701906040908290031261017b576040519161033f836104d5565b61034b60248301610555565b83526044820135916001600160401b03831161017b5761036e9201602401610584565b90602081019182526103a36040519283926020845260018060a01b0390511660208401525160408084015260608301906104b1565b0390f35b3461017b57602036600319011261017b576004359060018060a01b035f54166328c44a9960e21b82528260048301525f82602481845afa918215610130575f92610495575b505f60a08301516024604051809481936328c44a9960e21b835260048301525afa908115610130575f9161047b575b5060c001516001600160a01b0316330361046c57515f52600160205260405f20600160ff198254161790557fa700a55a4863d261377939619f5fca949e358206c8de19eea3133e5ec04cfae65f80a2005b6331eb5cd360e11b5f5260045ffd5b61048f91503d805f833e6101228183610520565b8361041b565b6104aa9192503d805f833e6101228183610520565b90836103ec565b805180835260209291819084018484015e5f828201840152601f01601f1916010190565b604081019081106001600160401b038211176104f057604052565b634e487b7160e01b5f52604160045260245ffd5b61014081019081106001600160401b038211176104f057604052565b90601f801991011681019081106001600160401b038211176104f057604052565b35906001600160401b038216820361017b57565b35906001600160a01b038216820361017b57565b6001600160401b0381116104f057601f01601f191660200190565b81601f8201121561017b5780359061059b82610569565b926105a96040519485610520565b8284526020838301011161017b57815f926020809301838601378301015290565b51906001600160401b038216820361017b57565b51906001600160a01b038216820361017b57565b5190811515820361017b57565b81601f8201121561017b5780519061061682610569565b926106246040519485610520565b8284526020838301011161017b57815f9260208093018386015e8301015290565b60208183031261017b578051906001600160401b03821161017b57016101408183031261017b576040519161067983610504565b8151835260208201516020840152610693604083016105ca565b60408401526106a4606083016105ca565b60608401526106b5608083016105ca565b608084015260a082015160a08401526106d060c083016105de565b60c08401526106e160e083016105de565b60e08401526106f361010083016105f2565b6101008401526101208201516001600160401b03811161017b5761071792016105ff565b61012082015290565b815182019160208184031261017b576020810151906001600160401b03821161017b57019160408382031261017b576040519261075c846104d5565b610768602082016105de565b84526040810151916001600160401b03831161017b5761078f9260208092019201016105ff565b6020830190815281515f52600160205260ff60405f205416156108d457915191516040805163e6c9714d60e01b8152606060048201819052845160648301526020808601516084840152928501516001600160401b0390811660a484015290850151811660c483015260808501511660e482015260a084015161010482015260c08401516001600160a01b0390811661012483015260e08501518116610144830152610100850151151561016483015261012090940151610140610184830152909591948694169284928392909161088291610870906101a48601906104b1565b848103600319016024860152906104b1565b90604483015203915afa908115610130575f9161089d575090565b90506020813d6020116108cc575b816108b860209383610520565b8101031261017b576108c9906105f2565b90565b3d91506108ab565b505050505f9056fea26469706673582212204e7407b6dae2834cb4ebb95695e878c8f8896821581f98d282fd73b7d1ab56d764736f6c634300081c0033","linkReferences":{}},"methodIdentifiers":{"checkObligation((bytes32,bytes32,uint64,uint64,uint64,bytes32,address,address,bool,bytes),bytes,bytes32)":"e6c9714d","confirm(bytes32)":"797af627","decodeDemandData(bytes)":"838a68d9","requestConfirmation(bytes32)":"e9af8361"},"id":113}