{"abi":[{"type":"constructor","inputs":[{"name":"_eas","type":"address","internalType":"contract IEAS"}],"stateMutability":"nonpayable"},{"type":"function","name":"checkObligation","inputs":[{"name":"obligation","type":"tuple","internalType":"struct Attestation","components":[{"name":"uid","type":"bytes32","internalType":"bytes32"},{"name":"schema","type":"bytes32","internalType":"bytes32"},{"name":"time","type":"uint64","internalType":"uint64"},{"name":"expirationTime","type":"uint64","internalType":"uint64"},{"name":"revocationTime","type":"uint64","internalType":"uint64"},{"name":"refUID","type":"bytes32","internalType":"bytes32"},{"name":"recipient","type":"address","internalType":"address"},{"name":"attester","type":"address","internalType":"address"},{"name":"revocable","type":"bool","internalType":"bool"},{"name":"data","type":"bytes","internalType":"bytes"}]},{"name":"","type":"bytes","internalType":"bytes"},{"name":"","type":"bytes32","internalType":"bytes32"}],"outputs":[{"name":"","type":"bool","internalType":"bool"}],"stateMutability":"view"},{"type":"function","name":"confirm","inputs":[{"name":"_obligation","type":"bytes32","internalType":"bytes32"}],"outputs":[],"stateMutability":"nonpayable"},{"type":"function","name":"requestConfirmation","inputs":[{"name":"_obligation","type":"bytes32","internalType":"bytes32"}],"outputs":[],"stateMutability":"nonpayable"},{"type":"event","name":"ConfirmationMade","inputs":[{"name":"obligation","type":"bytes32","indexed":true,"internalType":"bytes32"}],"anonymous":false},{"type":"event","name":"ConfirmationRequested","inputs":[{"name":"obligation","type":"bytes32","indexed":true,"internalType":"bytes32"},{"name":"confirmer","type":"address","indexed":true,"internalType":"address"}],"anonymous":false},{"type":"error","name":"UnauthorizedConfirmation","inputs":[]},{"type":"error","name":"UnauthorizedConfirmationRequest","inputs":[]}],"bytecode":{"object":"0x608034606f57601f61068a38819003918201601f19168301916001600160401b03831184841017607357808492602094604052833981010312606f57516001600160a01b03811690819003606f575f80546001600160a01b03191691909117905560405161060290816100888239f35b5f80fd5b634e487b7160e01b5f52604160045260245ffdfe6080806040526004361015610012575f80fd5b5f3560e01c908163797af627146102a057508063e6c9714d146101745763e9af83611461003d575f80fd5b346101705760203660031901126101705760043560018060a01b035f54166040516328c44a9960e21b81528260048201525f81602481855afa908115610125575f91610156575b5060e08101516001600160a01b03163314158061013f575b6101305760a05f9101516024604051809481936328c44a9960e21b835260048301525afa908115610125575f91610103575b5060c001516001600160a01b0316907fcd96d6feb2cd81dd296aa8a2564f04a99fef9d2bedf2aa811458f1a93692b5a65f80a3005b61011f91503d805f833e61011781836103db565b8101906104b1565b5f6100ce565b6040513d5f823e3d90fd5b63020a627d60e11b5f5260045ffd5b5060c08101516001600160a01b031633141561009c565b61016a91503d805f833e61011781836103db565b5f610084565b5f80fd5b346101705760603660031901126101705760043567ffffffffffffffff811161017057610140600319823603011261017057604051906101b3826103aa565b80600401358252602481013560208301526101d0604482016103fd565b60408301526101e1606482016103fd565b60608301526101f2608482016103fd565b608083015260a481013560a083015261020d60c48201610412565b60c083015261021e60e48201610412565b60e08301526101048101358015158103610170576101008301526101248101359067ffffffffffffffff821161017057600461025d9236920101610442565b61012082015260243567ffffffffffffffff811161017057610283903690600401610442565b50515f526001602052602060ff60405f2054166040519015158152f35b34610170576020366003190112610170576004359060018060a01b035f54166328c44a9960e21b82528260048301525f82602481845afa918215610125575f9261038e575b505f60a08301516024604051809481936328c44a9960e21b835260048301525afa908115610125575f91610374575b5060c001516001600160a01b0316330361036557515f52600160205260405f20600160ff198254161790557fa700a55a4863d261377939619f5fca949e358206c8de19eea3133e5ec04cfae65f80a2005b6331eb5cd360e11b5f5260045ffd5b61038891503d805f833e61011781836103db565b83610314565b6103a39192503d805f833e61011781836103db565b90836102e5565b610140810190811067ffffffffffffffff8211176103c757604052565b634e487b7160e01b5f52604160045260245ffd5b90601f8019910116810190811067ffffffffffffffff8211176103c757604052565b359067ffffffffffffffff8216820361017057565b35906001600160a01b038216820361017057565b67ffffffffffffffff81116103c757601f01601f191660200190565b81601f820112156101705780359061045982610426565b9261046760405194856103db565b8284526020838301011161017057815f926020809301838601378301015290565b519067ffffffffffffffff8216820361017057565b51906001600160a01b038216820361017057565b6020818303126101705780519067ffffffffffffffff82116101705701906101408282031261017057604051916104e7836103aa565b805183526020810151602084015261050160408201610488565b604084015261051260608201610488565b606084015261052360808201610488565b608084015260a081015160a084015261053e60c0820161049d565b60c084015261054f60e0820161049d565b60e08401526101008101518015158103610170576101008401526101208101519067ffffffffffffffff8211610170570181601f820112156101705780519061059782610426565b926105a560405194856103db565b8284526020838301011161017057815f9260208093018386015e830101526101208201529056fea2646970667358221220d2c338dc3b3517544c3d351f98941c87e67e9aa4b7f21f508b943fe0b7980ce364736f6c634300081c0033","linkReferences":{}},"methodIdentifiers":{"checkObligation((bytes32,bytes32,uint64,uint64,uint64,bytes32,address,address,bool,bytes),bytes,bytes32)":"e6c9714d","confirm(bytes32)":"797af627","requestConfirmation(bytes32)":"e9af8361"},"id":112}