{
  "abi": [
    {
      "type": "function",
      "name": "checkObligation",
      "inputs": [
        {
          "name": "obligation",
          "type": "tuple",
          "internalType": "struct Attestation",
          "components": [
            {
              "name": "uid",
              "type": "bytes32",
              "internalType": "bytes32"
            },
            {
              "name": "schema",
              "type": "bytes32",
              "internalType": "bytes32"
            },
            {
              "name": "time",
              "type": "uint64",
              "internalType": "uint64"
            },
            {
              "name": "expirationTime",
              "type": "uint64",
              "internalType": "uint64"
            },
            {
              "name": "revocationTime",
              "type": "uint64",
              "internalType": "uint64"
            },
            {
              "name": "refUID",
              "type": "bytes32",
              "internalType": "bytes32"
            },
            {
              "name": "recipient",
              "type": "address",
              "internalType": "address"
            },
            {
              "name": "attester",
              "type": "address",
              "internalType": "address"
            },
            {
              "name": "revocable",
              "type": "bool",
              "internalType": "bool"
            },
            {
              "name": "data",
              "type": "bytes",
              "internalType": "bytes"
            }
          ]
        },
        {
          "name": "demand",
          "type": "bytes",
          "internalType": "bytes"
        },
        {
          "name": "fulfilling",
          "type": "bytes32",
          "internalType": "bytes32"
        }
      ],
      "outputs": [
        {
          "name": "",
          "type": "bool",
          "internalType": "bool"
        }
      ],
      "stateMutability": "view"
    },
    {
      "type": "function",
      "name": "decodeDemandData",
      "inputs": [
        {
          "name": "data",
          "type": "bytes",
          "internalType": "bytes"
        }
      ],
      "outputs": [
        {
          "name": "",
          "type": "tuple",
          "internalType": "struct ERC8004Arbiter.DemandData",
          "components": [
            {
              "name": "validationRegistry",
              "type": "address",
              "internalType": "address"
            },
            {
              "name": "validatorAddress",
              "type": "address",
              "internalType": "address"
            },
            {
              "name": "minResponse",
              "type": "uint8",
              "internalType": "uint8"
            },
            {
              "name": "data",
              "type": "bytes",
              "internalType": "bytes"
            }
          ]
        }
      ],
      "stateMutability": "pure"
    },
    {
      "type": "function",
      "name": "requestHashFor",
      "inputs": [
        {
          "name": "uid",
          "type": "bytes32",
          "internalType": "bytes32"
        },
        {
          "name": "data",
          "type": "bytes",
          "internalType": "bytes"
        }
      ],
      "outputs": [
        {
          "name": "",
          "type": "bytes32",
          "internalType": "bytes32"
        }
      ],
      "stateMutability": "pure"
    },
    {
      "type": "error",
      "name": "FulfillmentMustReferenceEscrow",
      "inputs": []
    },
    {
      "type": "error",
      "name": "InvalidMinResponse",
      "inputs": []
    },
    {
      "type": "error",
      "name": "ResponseBelowMinimum",
      "inputs": []
    },
    {
      "type": "error",
      "name": "ValidationNotFound",
      "inputs": []
    },
    {
      "type": "error",
      "name": "ValidatorMismatch",
      "inputs": []
    }
  ],
  "bytecode": {
    "object": "0x608080604052346015576106cc908161001a8239f35b5f80fdfe60806040526004361015610011575f80fd5b5f3560e01c8063728797ee146104d7578063838a68d91461037d5763e6c9714d1461003a575f80fd5b3461033c57606036600319011261033c576004356001600160401b03811161033c57610140600319823603011261033c576040519061014082018281106001600160401b038211176103695760405280600401358252602481013560208301526100a6604482016105dd565b60408301526100b7606482016105dd565b60608301526100c8608482016105dd565b608083015260a082019060a481013582526100e560c482016105f1565b60c08401526100f660e482016105f1565b60e0840152610104810135801515810361033c57610100840152610124810135906001600160401b03821161033c5760046101349236920101610573565b6101208301526024356001600160401b03811161033c57610159903690600401610573565b8051810191602083019160208185031261033c576020810151906001600160401b03821161033c5701926080908490031261033c576040519361019b8561051c565b6101a76020850161063e565b85526101b56040850161063e565b92602086019384526101c960608601610652565b946040870195865260808101516001600160401b03811161033c5760209101019080601f8301121561033c57815161020392602001610660565b916060860192835260443590510361035a57606460ff8551161161034b575f916102309151905190610605565b935160405160016234050160e21b031981526004810195909552849060249082906001600160a01b03165afa928315610340575f905f946102d1575b506001600160a01b03169081156102c257516001600160a01b0316036102b35760ff809151169116106102a457602060405160018152f35b632be54c6b60e21b5f5260045ffd5b63d5fd645b60e01b5f5260045ffd5b637f7667e360e11b5f5260045ffd5b9350503d805f853e6102e38185610537565b830160c08482031261033c576102f88461063e565b9061030560408601610652565b946080810151906001600160401b03821161033c57019080601f8301121561033c57815161033592602001610660565b505f61026c565b5f80fd5b6040513d5f823e3d90fd5b6346162fc560e01b5f5260045ffd5b638874563160e01b5f5260045ffd5b634e487b7160e01b5f52604160045260245ffd5b3461033c57602036600319011261033c576004356001600160401b03811161033c573660238201121561033c5780600401356001600160401b03811161033c57810190602482019036821161033c576060806040516103db8161051c565b5f81525f60208201525f604082015201526020602319602483860301011261033c576024810135906001600160401b03821161033c5701916080908390031261033c576040519061042b8261051c565b610437602484016105f1565b8252610445604484016105f1565b926020830193845260648101359060ff8216820361033c576040840191825260848101356001600160401b03811161033c576104d393602461048b9260ff940101610573565b91606085019283526040519586956020875260018060a01b03905116602087015260018060a01b039051166040860152511660608401525160808084015260a08301906105b9565b0390f35b3461033c57604036600319011261033c576024356001600160401b03811161033c5761051461050c6020923690600401610573565b600435610605565b604051908152f35b608081019081106001600160401b0382111761036957604052565b90601f801991011681019081106001600160401b0382111761036957604052565b6001600160401b03811161036957601f01601f191660200190565b81601f8201121561033c5780359061058a82610558565b926105986040519485610537565b8284526020838301011161033c57815f926020809301838601378301015290565b805180835260209291819084018484015e5f828201840152601f01601f1916010190565b35906001600160401b038216820361033c57565b35906001600160a01b038216820361033c57565b9061063861062a916040519283916020830195865260408084015260608301906105b9565b03601f198101835282610537565b51902090565b51906001600160a01b038216820361033c57565b519060ff8216820361033c57565b92919261066c82610558565b9161067a6040519384610537565b82948184528183011161033c578281602093845f96015e01015256fea264697066735822122042a1452879ab1a6adc69ad706318177ec1a374c6f086db34c11f109a6f9eb72264736f6c634300081b0033",
    "linkReferences": {}
  },
  "methodIdentifiers": {
    "checkObligation((bytes32,bytes32,uint64,uint64,uint64,bytes32,address,address,bool,bytes),bytes,bytes32)": "e6c9714d",
    "decodeDemandData(bytes)": "838a68d9",
    "requestHashFor(bytes32,bytes)": "728797ee"
  },
  "id": 76
}