{
  "abi": [
    {
      "type": "function",
      "name": "checkObligation",
      "inputs": [
        {
          "name": "obligation",
          "type": "tuple",
          "internalType": "struct Attestation",
          "components": [
            {
              "name": "uid",
              "type": "bytes32",
              "internalType": "bytes32"
            },
            {
              "name": "schema",
              "type": "bytes32",
              "internalType": "bytes32"
            },
            {
              "name": "time",
              "type": "uint64",
              "internalType": "uint64"
            },
            {
              "name": "expirationTime",
              "type": "uint64",
              "internalType": "uint64"
            },
            {
              "name": "revocationTime",
              "type": "uint64",
              "internalType": "uint64"
            },
            {
              "name": "refUID",
              "type": "bytes32",
              "internalType": "bytes32"
            },
            {
              "name": "recipient",
              "type": "address",
              "internalType": "address"
            },
            {
              "name": "attester",
              "type": "address",
              "internalType": "address"
            },
            {
              "name": "revocable",
              "type": "bool",
              "internalType": "bool"
            },
            {
              "name": "data",
              "type": "bytes",
              "internalType": "bytes"
            }
          ]
        },
        {
          "name": "demand",
          "type": "bytes",
          "internalType": "bytes"
        },
        {
          "name": "fulfilling",
          "type": "bytes32",
          "internalType": "bytes32"
        }
      ],
      "outputs": [
        {
          "name": "",
          "type": "bool",
          "internalType": "bool"
        }
      ],
      "stateMutability": "view"
    },
    {
      "type": "function",
      "name": "decodeDemandData",
      "inputs": [
        {
          "name": "data",
          "type": "bytes",
          "internalType": "bytes"
        }
      ],
      "outputs": [
        {
          "name": "",
          "type": "tuple",
          "internalType": "struct ERC8004Arbiter.DemandData",
          "components": [
            {
              "name": "validationRegistry",
              "type": "address",
              "internalType": "address"
            },
            {
              "name": "validatorAddress",
              "type": "address",
              "internalType": "address"
            },
            {
              "name": "minResponse",
              "type": "uint8",
              "internalType": "uint8"
            }
          ]
        }
      ],
      "stateMutability": "pure"
    },
    {
      "type": "error",
      "name": "FulfillmentMustReferenceEscrow",
      "inputs": []
    },
    {
      "type": "error",
      "name": "InvalidMinResponse",
      "inputs": []
    },
    {
      "type": "error",
      "name": "ResponseBelowMinimum",
      "inputs": []
    },
    {
      "type": "error",
      "name": "ValidationNotFound",
      "inputs": []
    },
    {
      "type": "error",
      "name": "ValidatorMismatch",
      "inputs": []
    }
  ],
  "bytecode": {
    "object": "0x60808060405234601557610531908161001a8239f35b5f80fdfe6080806040526004361015610012575f80fd5b5f3560e01c908163838a68d914610331575063e6c9714d14610032575f80fd5b346102f05760603660031901126102f05760043567ffffffffffffffff81116102f05761014060031982360301126102f05760405190610140820182811067ffffffffffffffff82111761031d5760405280600401358252602481013560208301526100a06044820161044e565b60408301526100b16064820161044e565b60608301526100c26084820161044e565b608083015260a082019060a481013582526100df60c48201610463565b60c08401526100f060e48201610463565b60e084015261010481013580151581036102f0576101008401526101248101359067ffffffffffffffff82116102f057600461012f9236920101610493565b61012083015260243567ffffffffffffffff81116102f057610155903690600401610493565b6060818051810103126102f0576040519261016f84610410565b61017b602083016104d9565b845261019c606061018e604085016104d9565b9360208701948552016104ed565b926040850193845260443590510361030e57606460ff845116116102ff5751925160405160016234050160e21b0319815260048101949094525f90849060249082906001600160a01b03165afa9283156102f4575f905f9461025e575b506001600160a01b031690811561024f57516001600160a01b0316036102405760ff8091511691161061023157602060405160018152f35b632be54c6b60e21b5f5260045ffd5b63d5fd645b60e01b5f5260045ffd5b637f7667e360e11b5f5260045ffd5b9350503d805f853e610270818561042c565b830160c0848203126102f057610285846104d9565b90610292604086016104ed565b9460808101519067ffffffffffffffff82116102f0570181601f820112156102f05780516102bf81610477565b926102cd604051948561042c565b818452602082840101116102f0575f928160208094018483015e0101525f6101f9565b5f80fd5b6040513d5f823e3d90fd5b6346162fc560e01b5f5260045ffd5b638874563160e01b5f5260045ffd5b634e487b7160e01b5f52604160045260245ffd5b346102f05760203660031901126102f0576004359067ffffffffffffffff82116102f057366023830112156102f057816004013567ffffffffffffffff81116102f05782013660248201116102f0575f60408361038f606095610410565b828152602081018390520152829003126102f0576040516103af81610410565b6103bb60248301610463565b9081815260646103cd60448501610463565b9360208301948552013560ff811681036102f057604091820190815281516001600160a01b03938416815293519092166020840152905160ff1690820152606090f35b6060810190811067ffffffffffffffff82111761031d57604052565b90601f8019910116810190811067ffffffffffffffff82111761031d57604052565b359067ffffffffffffffff821682036102f057565b35906001600160a01b03821682036102f057565b67ffffffffffffffff811161031d57601f01601f191660200190565b81601f820112156102f0578035906104aa82610477565b926104b8604051948561042c565b828452602083830101116102f057815f926020809301838601378301015290565b51906001600160a01b03821682036102f057565b519060ff821682036102f05756fea2646970667358221220c4e690a0804fa605f9256df4ea44d3c8586b55ad408d345f4eeaa94f8330bd0464736f6c634300081b0033",
    "linkReferences": {}
  },
  "methodIdentifiers": {
    "checkObligation((bytes32,bytes32,uint64,uint64,uint64,bytes32,address,address,bool,bytes),bytes,bytes32)": "e6c9714d",
    "decodeDemandData(bytes)": "838a68d9"
  },
  "id": 78
}