{
  "abi": [
    {
      "type": "function",
      "name": "check",
      "inputs": [
        {
          "name": "fulfillment",
          "type": "tuple",
          "internalType": "struct Attestation",
          "components": [
            {
              "name": "uid",
              "type": "bytes32",
              "internalType": "bytes32"
            },
            {
              "name": "schema",
              "type": "bytes32",
              "internalType": "bytes32"
            },
            {
              "name": "time",
              "type": "uint64",
              "internalType": "uint64"
            },
            {
              "name": "expirationTime",
              "type": "uint64",
              "internalType": "uint64"
            },
            {
              "name": "revocationTime",
              "type": "uint64",
              "internalType": "uint64"
            },
            {
              "name": "refUID",
              "type": "bytes32",
              "internalType": "bytes32"
            },
            {
              "name": "recipient",
              "type": "address",
              "internalType": "address"
            },
            {
              "name": "attester",
              "type": "address",
              "internalType": "address"
            },
            {
              "name": "revocable",
              "type": "bool",
              "internalType": "bool"
            },
            {
              "name": "data",
              "type": "bytes",
              "internalType": "bytes"
            }
          ]
        },
        {
          "name": "demand",
          "type": "bytes",
          "internalType": "bytes"
        },
        {
          "name": "escrowUid",
          "type": "bytes32",
          "internalType": "bytes32"
        }
      ],
      "outputs": [
        {
          "name": "",
          "type": "bool",
          "internalType": "bool"
        }
      ],
      "stateMutability": "view"
    },
    {
      "type": "function",
      "name": "decodeDemandData",
      "inputs": [
        {
          "name": "data",
          "type": "bytes",
          "internalType": "bytes"
        }
      ],
      "outputs": [
        {
          "name": "",
          "type": "tuple",
          "internalType": "struct ERC8004Arbiter.DemandData",
          "components": [
            {
              "name": "validationRegistry",
              "type": "address",
              "internalType": "address"
            },
            {
              "name": "validatorAddress",
              "type": "address",
              "internalType": "address"
            },
            {
              "name": "minResponse",
              "type": "uint8",
              "internalType": "uint8"
            },
            {
              "name": "data",
              "type": "bytes",
              "internalType": "bytes"
            }
          ]
        }
      ],
      "stateMutability": "pure"
    },
    {
      "type": "function",
      "name": "requestHashFor",
      "inputs": [
        {
          "name": "uid",
          "type": "bytes32",
          "internalType": "bytes32"
        },
        {
          "name": "data",
          "type": "bytes",
          "internalType": "bytes"
        }
      ],
      "outputs": [
        {
          "name": "",
          "type": "bytes32",
          "internalType": "bytes32"
        }
      ],
      "stateMutability": "pure"
    },
    {
      "type": "function",
      "name": "supportsInterface",
      "inputs": [
        {
          "name": "interfaceId",
          "type": "bytes4",
          "internalType": "bytes4"
        }
      ],
      "outputs": [
        {
          "name": "",
          "type": "bool",
          "internalType": "bool"
        }
      ],
      "stateMutability": "view"
    },
    {
      "type": "error",
      "name": "FulfillmentMustReferenceEscrow",
      "inputs": []
    },
    {
      "type": "error",
      "name": "InvalidMinResponse",
      "inputs": []
    },
    {
      "type": "error",
      "name": "ResponseBelowMinimum",
      "inputs": []
    },
    {
      "type": "error",
      "name": "ValidationNotFound",
      "inputs": []
    },
    {
      "type": "error",
      "name": "ValidatorMismatch",
      "inputs": []
    }
  ],
  "bytecode": {
    "object": "0x60808060405234601557610740908161001a8239f35b5f80fdfe6080806040526004361015610012575f80fd5b5f3560e01c90816301ffc9a71461053d57508063728797ee146104f8578063838a68d91461039e57638da3721a14610048575f80fd5b34610352576060366003190112610352576004356001600160401b038111610352576101406003198236030112610352576040519061014082018281106001600160401b0382111761038a5760405280600401358252602481013560208301526100b460448201610651565b60408301526100c560648201610651565b60608301526100d660848201610651565b608083015260a082019060a481013582526100f360c48201610665565b60c084015261010460e48201610665565b60e0840152610104810135801515810361035257610100840152610124810135906001600160401b03821161035257600461014292369201016105e7565b6101208301526024356001600160401b038111610352576101679036906004016105e7565b80518101916020830191602081850312610352576020810151906001600160401b0382116103525701926080908490031261035257604051936101a985610590565b6101b5602085016106b2565b85526101c3604085016106b2565b92602086019384526101d7606086016106c6565b946040870195865260808101516001600160401b0381116103525760209101019080601f83011215610352578151610211926020016106d4565b916060860192835260443590510361037b5760ff8451168015908115610370575b50610361575f916102469151905190610679565b935160405160016234050160e21b031981526004810195909552849060249082906001600160a01b03165afa928315610356575f905f946102e7575b506001600160a01b03169081156102d857516001600160a01b0316036102c95760ff809151169116106102ba57602060405160018152f35b632be54c6b60e21b5f5260045ffd5b63d5fd645b60e01b5f5260045ffd5b637f7667e360e11b5f5260045ffd5b9350503d805f853e6102f981856105ab565b830160c0848203126103525761030e846106b2565b9061031b604086016106c6565b946080810151906001600160401b03821161035257019080601f8301121561035257815161034b926020016106d4565b505f610282565b5f80fd5b6040513d5f823e3d90fd5b6346162fc560e01b5f5260045ffd5b60649150115f610232565b638874563160e01b5f5260045ffd5b634e487b7160e01b5f52604160045260245ffd5b34610352576020366003190112610352576004356001600160401b03811161035257366023820112156103525780600401356001600160401b038111610352578101906024820190368211610352576060806040516103fc81610590565b5f81525f60208201525f6040820152015260206023196024838603010112610352576024810135906001600160401b03821161035257019160809083900312610352576040519061044c82610590565b61045860248401610665565b825261046660448401610665565b926020830193845260648101359060ff82168203610352576040840191825260848101356001600160401b038111610352576104f49360246104ac9260ff9401016105e7565b91606085019283526040519586956020875260018060a01b03905116602087015260018060a01b039051166040860152511660608401525160808084015260a083019061062d565b0390f35b34610352576040366003190112610352576024356001600160401b0381116103525761053561052d60209236906004016105e7565b600435610679565b604051908152f35b34610352576020366003190112610352576004359063ffffffff60e01b8216809203610352576020916346d1b90d60e11b811490811561057f575b5015158152f35b6301ffc9a760e01b14905083610578565b608081019081106001600160401b0382111761038a57604052565b90601f801991011681019081106001600160401b0382111761038a57604052565b6001600160401b03811161038a57601f01601f191660200190565b81601f82011215610352578035906105fe826105cc565b9261060c60405194856105ab565b8284526020838301011161035257815f926020809301838601378301015290565b805180835260209291819084018484015e5f828201840152601f01601f1916010190565b35906001600160401b038216820361035257565b35906001600160a01b038216820361035257565b906106ac61069e9160405192839160208301958652604080840152606083019061062d565b03601f1981018352826105ab565b51902090565b51906001600160a01b038216820361035257565b519060ff8216820361035257565b9291926106e0826105cc565b916106ee60405193846105ab565b829481845281830111610352578281602093845f96015e01015256fea2646970667358221220002368900e5cf870aa19c095f8cb942f9a5ec30d2b53f571f4797e3a17c3650264736f6c634300081b0033",
    "linkReferences": {}
  },
  "methodIdentifiers": {
    "check((bytes32,bytes32,uint64,uint64,uint64,bytes32,address,address,bool,bytes),bytes,bytes32)": "8da3721a",
    "decodeDemandData(bytes)": "838a68d9",
    "requestHashFor(bytes32,bytes)": "728797ee",
    "supportsInterface(bytes4)": "01ffc9a7"
  },
  "id": 93
}