{"abi":[{"type":"function","name":"checkObligation","inputs":[{"name":"obligation","type":"tuple","internalType":"struct Attestation","components":[{"name":"uid","type":"bytes32","internalType":"bytes32"},{"name":"schema","type":"bytes32","internalType":"bytes32"},{"name":"time","type":"uint64","internalType":"uint64"},{"name":"expirationTime","type":"uint64","internalType":"uint64"},{"name":"revocationTime","type":"uint64","internalType":"uint64"},{"name":"refUID","type":"bytes32","internalType":"bytes32"},{"name":"recipient","type":"address","internalType":"address"},{"name":"attester","type":"address","internalType":"address"},{"name":"revocable","type":"bool","internalType":"bool"},{"name":"data","type":"bytes","internalType":"bytes"}]},{"name":"","type":"bytes","internalType":"bytes"},{"name":"","type":"bytes32","internalType":"bytes32"}],"outputs":[{"name":"","type":"bool","internalType":"bool"}],"stateMutability":"view"},{"type":"error","name":"AttestationRevoked","inputs":[]},{"type":"error","name":"DeadlineExpired","inputs":[]}],"bytecode":{"object":"0x60808060405234601557610288908161001a8239f35b5f80fdfe60806040526004361015610011575f80fd5b5f3560e01c63e6c9714d14610024575f80fd5b346101a95760603660031901126101a95760043567ffffffffffffffff81116101a95761014060031982360301126101a957604051610140810181811067ffffffffffffffff8211176101ad576040528160040135815260248201356020820152610091604483016101c1565b60408201526100a2606483016101c1565b90606081019182526100b6608484016101c1565b926080820193845260a481013560a08301526100d460c482016101d6565b60c08301526100e560e482016101d6565b60e083015261010481013580151581036101a95761010083015261012481013567ffffffffffffffff81116101a95761012091600461012792369201016101ea565b9101526024359067ffffffffffffffff82116101a95761015467ffffffffffffffff9236906004016101ea565b505116801515908161019e575b5061018f575167ffffffffffffffff1661018057602060405160018152f35b637b6227e960e11b5f5260045ffd5b631ab7da6b60e01b5f5260045ffd5b90504210155f610161565b5f80fd5b634e487b7160e01b5f52604160045260245ffd5b359067ffffffffffffffff821682036101a957565b35906001600160a01b03821682036101a957565b81601f820112156101a95780359067ffffffffffffffff82116101ad5760405192601f8301601f19908116603f0116840167ffffffffffffffff8111858210176101ad57604052828452602083830101116101a957815f92602080930183860137830101529056fea26469706673582212209152c8835558939d420f84341592d6145f735d27e5d40375f892195f5f4bf1b764736f6c634300081b0033","linkReferences":{}},"methodIdentifiers":{"checkObligation((bytes32,bytes32,uint64,uint64,uint64,bytes32,address,address,bool,bytes),bytes,bytes32)":"e6c9714d"},"id":79}