{"abi":[{"type":"function","name":"checkObligation","inputs":[{"name":"obligation","type":"tuple","internalType":"struct Attestation","components":[{"name":"uid","type":"bytes32","internalType":"bytes32"},{"name":"schema","type":"bytes32","internalType":"bytes32"},{"name":"time","type":"uint64","internalType":"uint64"},{"name":"expirationTime","type":"uint64","internalType":"uint64"},{"name":"revocationTime","type":"uint64","internalType":"uint64"},{"name":"refUID","type":"bytes32","internalType":"bytes32"},{"name":"recipient","type":"address","internalType":"address"},{"name":"attester","type":"address","internalType":"address"},{"name":"revocable","type":"bool","internalType":"bool"},{"name":"data","type":"bytes","internalType":"bytes"}]},{"name":"demand","type":"bytes","internalType":"bytes"},{"name":"counteroffer","type":"bytes32","internalType":"bytes32"}],"outputs":[{"name":"","type":"bool","internalType":"bool"}],"stateMutability":"view"},{"type":"function","name":"decodeDemandData","inputs":[{"name":"data","type":"bytes","internalType":"bytes"}],"outputs":[{"name":"","type":"tuple","internalType":"struct NotArbiter.DemandData","components":[{"name":"baseArbiter","type":"address","internalType":"address"},{"name":"baseDemand","type":"bytes","internalType":"bytes"}]}],"stateMutability":"pure"}],"bytecode":{"object":"0x60808060405234601557610525908161001a8239f35b5f80fdfe60806040526004361015610011575f80fd5b5f3560e01c8063838a68d91461017d5763e6c9714d1461002f575f80fd5b34610165576060366003190112610165576004356001600160401b038111610165576101406003198236030112610165576040519061014082018281106001600160401b0382111761016957604052806004013582526024810135602083015261009b604482016102a8565b60408301526100ac606482016102a8565b60608301526100bd608482016102a8565b608083015260a481013560a08301526100d860c482016102bc565b60c08301526100e960e482016102bc565b60e0830152610104810135801515810361016557610100830152610124810135906001600160401b038211610165576004610127923692010161023e565b6101208201526024356001600160401b0381116101655760209161015261015b92369060040161023e565b604435916103a1565b6040519015158152f35b5f80fd5b634e487b7160e01b5f52604160045260245ffd5b34610165576020366003190112610165576004356001600160401b038111610165576101b76101b2602092369060040161023e565b6102d0565b6101e360405192839281845260018060a01b038151168285015201516040808401526060830190610284565b0390f35b604081019081106001600160401b0382111761016957604052565b90601f801991011681019081106001600160401b0382111761016957604052565b6001600160401b03811161016957601f01601f191660200190565b81601f820112156101655780359061025582610223565b926102636040519485610202565b8284526020838301011161016557815f926020809301838601378301015290565b805180835260209291819084018484015e5f828201840152601f01601f1916010190565b35906001600160401b038216820361016557565b35906001600160a01b038216820361016557565b606060206040516102e0816101e7565b5f8152015280518101906020820190602081840312610165576020810151906001600160401b038211610165570191604090839003126101655760405191610327836101e7565b60208101516001600160a01b038116810361016557835260408101516001600160401b03811161016557602091010181601f820112156101655780519061036d82610223565b9261037b6040519485610202565b8284526020838301011161016557815f9260208093018386015e83010152602082015290565b61047f906101206103b36020946102d0565b918460018060a01b03845116930151956104916040519788968795869563e6c9714d60e01b875260606004880152805160648801528a81015160848801526001600160401b0360408201511660a48801526001600160401b0360608201511660c48801526001600160401b0360808201511660e488015260a081015161010488015260018060a01b0360c08201511661012488015260018060a01b0360e082015116610144880152610100810151151561016488015201516101406101848701526101a4860190610284565b84810360031901602486015290610284565b90604483015203915afa5f91816104b2575b506104ae5750600190565b1590565b9091506020813d6020116104e7575b816104ce60209383610202565b810103126101655751801515810361016557905f6104a3565b3d91506104c156fea2646970667358221220db21b4f5d36f8dfce222edf405d8bfca687a24da85ce31b84c3e7f8b6a11a6f964736f6c634300081c0033","linkReferences":{}},"methodIdentifiers":{"checkObligation((bytes32,bytes32,uint64,uint64,uint64,bytes32,address,address,bool,bytes),bytes,bytes32)":"e6c9714d","decodeDemandData(bytes)":"838a68d9"},"id":127}