{
  "abi": [
    {
      "type": "function",
      "name": "check",
      "inputs": [
        {
          "name": "fulfillment",
          "type": "tuple",
          "internalType": "struct Attestation",
          "components": [
            {
              "name": "uid",
              "type": "bytes32",
              "internalType": "bytes32"
            },
            {
              "name": "schema",
              "type": "bytes32",
              "internalType": "bytes32"
            },
            {
              "name": "time",
              "type": "uint64",
              "internalType": "uint64"
            },
            {
              "name": "expirationTime",
              "type": "uint64",
              "internalType": "uint64"
            },
            {
              "name": "revocationTime",
              "type": "uint64",
              "internalType": "uint64"
            },
            {
              "name": "refUID",
              "type": "bytes32",
              "internalType": "bytes32"
            },
            {
              "name": "recipient",
              "type": "address",
              "internalType": "address"
            },
            {
              "name": "attester",
              "type": "address",
              "internalType": "address"
            },
            {
              "name": "revocable",
              "type": "bool",
              "internalType": "bool"
            },
            {
              "name": "data",
              "type": "bytes",
              "internalType": "bytes"
            }
          ]
        },
        {
          "name": "",
          "type": "bytes",
          "internalType": "bytes"
        },
        {
          "name": "escrowUid",
          "type": "bytes32",
          "internalType": "bytes32"
        }
      ],
      "outputs": [
        {
          "name": "",
          "type": "bool",
          "internalType": "bool"
        }
      ],
      "stateMutability": "pure"
    },
    {
      "type": "error",
      "name": "EscrowReferenceMismatch",
      "inputs": []
    }
  ],
  "bytecode": {
    "object": "0x6080806040523460155761024a908161001a8239f35b5f80fdfe60806040526004361015610011575f80fd5b5f3560e01c638da3721a14610024575f80fd5b3461016b57606036600319011261016b5760043567ffffffffffffffff811161016b57610140600319823603011261016b57604051610140810181811067ffffffffffffffff82111761016f57604052816004013581526024820135602082015261009160448301610183565b60408201526100a260648301610183565b60608201526100b360848301610183565b608082015260a081019160a481013583526100d060c48201610198565b60c08301526100e160e48201610198565b60e0830152610104810135801515810361016b5761010083015261012481013567ffffffffffffffff811161016b5761012091600461012392369201016101ac565b91015260243567ffffffffffffffff811161016b576101469036906004016101ac565b5060443590510361015c57602060405160018152f35b63bf4bbdcd60e01b5f5260045ffd5b5f80fd5b634e487b7160e01b5f52604160045260245ffd5b359067ffffffffffffffff8216820361016b57565b35906001600160a01b038216820361016b57565b81601f8201121561016b5780359067ffffffffffffffff821161016f5760405192601f8301601f19908116603f0116840167ffffffffffffffff81118582101761016f576040528284526020838301011161016b57815f92602080930183860137830101529056fea264697066735822122024256c990e1bc2d69847dcdd579aaf04bd3184524554aa401d9c0320a8c6af7a64736f6c634300081b0033",
    "linkReferences": {}
  },
  "methodIdentifiers": {
    "check((bytes32,bytes32,uint64,uint64,uint64,bytes32,address,address,bool,bytes),bytes,bytes32)": "8da3721a"
  },
  "id": 90
}