{"abi":[{"type":"constructor","inputs":[{"name":"_eas","type":"address","internalType":"contract IEAS"}],"stateMutability":"nonpayable"},{"type":"function","name":"checkObligation","inputs":[{"name":"obligation","type":"tuple","internalType":"struct Attestation","components":[{"name":"uid","type":"bytes32","internalType":"bytes32"},{"name":"schema","type":"bytes32","internalType":"bytes32"},{"name":"time","type":"uint64","internalType":"uint64"},{"name":"expirationTime","type":"uint64","internalType":"uint64"},{"name":"revocationTime","type":"uint64","internalType":"uint64"},{"name":"refUID","type":"bytes32","internalType":"bytes32"},{"name":"recipient","type":"address","internalType":"address"},{"name":"attester","type":"address","internalType":"address"},{"name":"revocable","type":"bool","internalType":"bool"},{"name":"data","type":"bytes","internalType":"bytes"}]},{"name":"demand","type":"bytes","internalType":"bytes"},{"name":"counteroffer","type":"bytes32","internalType":"bytes32"}],"outputs":[{"name":"","type":"bool","internalType":"bool"}],"stateMutability":"view"},{"type":"function","name":"confirm","inputs":[{"name":"_obligation","type":"bytes32","internalType":"bytes32"}],"outputs":[],"stateMutability":"nonpayable"},{"type":"function","name":"confirmations","inputs":[{"name":"","type":"bytes32","internalType":"bytes32"}],"outputs":[{"name":"","type":"bool","internalType":"bool"}],"stateMutability":"view"},{"type":"function","name":"counterofferToObligation","inputs":[{"name":"","type":"bytes32","internalType":"bytes32"}],"outputs":[{"name":"","type":"bytes32","internalType":"bytes32"}],"stateMutability":"view"},{"type":"function","name":"decodeDemandData","inputs":[{"name":"data","type":"bytes","internalType":"bytes"}],"outputs":[{"name":"","type":"tuple","internalType":"struct RevocableConfirmationArbiterComposing.DemandData","components":[{"name":"baseArbiter","type":"address","internalType":"address"},{"name":"baseDemand","type":"bytes","internalType":"bytes"}]}],"stateMutability":"pure"},{"type":"function","name":"eas","inputs":[],"outputs":[{"name":"","type":"address","internalType":"contract IEAS"}],"stateMutability":"view"},{"type":"function","name":"requestConfirmation","inputs":[{"name":"_obligation","type":"bytes32","internalType":"bytes32"}],"outputs":[],"stateMutability":"nonpayable"},{"type":"function","name":"revoke","inputs":[{"name":"_obligation","type":"bytes32","internalType":"bytes32"}],"outputs":[],"stateMutability":"nonpayable"},{"type":"event","name":"ConfirmationMade","inputs":[{"name":"obligation","type":"bytes32","indexed":true,"internalType":"bytes32"},{"name":"counteroffer","type":"bytes32","indexed":true,"internalType":"bytes32"}],"anonymous":false},{"type":"event","name":"ConfirmationRequested","inputs":[{"name":"obligation","type":"bytes32","indexed":true,"internalType":"bytes32"},{"name":"confirmer","type":"address","indexed":true,"internalType":"address"},{"name":"counteroffer","type":"bytes32","indexed":true,"internalType":"bytes32"}],"anonymous":false},{"type":"event","name":"ConfirmationRevoked","inputs":[{"name":"obligation","type":"bytes32","indexed":true,"internalType":"bytes32"},{"name":"counteroffer","type":"bytes32","indexed":true,"internalType":"bytes32"}],"anonymous":false},{"type":"error","name":"AnotherObligationAlreadyConfirmed","inputs":[]},{"type":"error","name":"NoConfirmationToRevoke","inputs":[]},{"type":"error","name":"UnauthorizedConfirmation","inputs":[]},{"type":"error","name":"UnauthorizedConfirmationRequest","inputs":[]},{"type":"error","name":"UnauthorizedRevocation","inputs":[]}],"bytecode":{"object":"0x60a03461007e57601f610c8138819003918201601f19168301916001600160401b038311848410176100825780849260209460405283398101031261007e57516001600160a01b038116810361007e57608052604051610bea9081610097823960805181818160d10152818161034e015281816105e101526106380152f35b5f80fd5b634e487b7160e01b5f52604160045260245ffdfe6080806040526004361015610012575f80fd5b5f3560e01c908163797af62714610610575080638150864d146105cc578063838a68d9146104c957806386c2ec341461049f578063b75c7dc614610323578063e6c9714d146101fe578063e9af8361146100a65763ec95bfe714610074575f80fd5b346100a25760203660031901126100a2576004355f525f602052602060ff60405f2054166040519015158152f35b5f80fd5b346100a25760203660031901126100a2576040516328c44a9960e21b815260048035908201819052907f00000000000000000000000000000000000000000000000000000000000000006001600160a01b0316905f81602481855afa9081156101b3575f916101e4575b5060e08101516001600160a01b0316331415806101cd575b6101be5760a05f9101516024604051809481936328c44a9960e21b835260048301525afa9081156101b3575f91610191575b5060018060a01b0360c0820151169051917f93ece828de650a0159786850192cbcd721ab720e1ee81b00365a5c8d63886b315f80a4005b6101ad91503d805f833e6101a581836107f9565b81019061091e565b8261015a565b6040513d5f823e3d90fd5b63020a627d60e11b5f5260045ffd5b5060c08101516001600160a01b0316331415610128565b6101f891503d805f833e6101a581836107f9565b83610110565b346100a25760603660031901126100a2576004356001600160401b0381116100a25761014060031982360301126100a2576040519061023c826107dd565b80600401358252602481013560208301526102596044820161081a565b604083015261026a6064820161081a565b606083015261027b6084820161081a565b608083015260a481013560a083015261029660c4820161082e565b60c08301526102a760e4820161082e565b60e083015261010481013580151581036100a257610100830152610124810135906001600160401b0382116100a25760046102e5923692010161085d565b6101208201526024356001600160401b0381116100a25760209161031061031992369060040161085d565b604435916109f9565b6040519015158152f35b346100a25760203660031901126100a2576040516328c44a9960e21b815260048035908201819052907f00000000000000000000000000000000000000000000000000000000000000006001600160a01b03165f82602481845afa80156101b35760a05f916024948391610485575b50015191604051938480926328c44a9960e21b82528560048301525afa9182156101b3575f92610469575b5060c08201516001600160a01b0316330361045a57825f525f60205260ff60405f205416158015610444575b61043557825f525f60205260405f2060ff1981541690555f5260016020525f604081205551907f137a0dfcce695307235e039aa2ae70da634ed7f10a6a5a536b3a8c15d758aa1e5f80a3005b6339abb17d60e01b5f5260045ffd5b50805f5260016020528260405f205414156103e9565b630feaf7d560e31b5f5260045ffd5b61047e9192503d805f833e6101a581836107f9565b90836103bd565b61049991503d8085833e6101a581836107f9565b86610392565b346100a25760203660031901126100a2576004355f526001602052602060405f2054604051908152f35b346100a25760203660031901126100a2576004356001600160401b0381116100a257366023820112156100a25780600401356001600160401b0381116100a257810160248101913683116100a25760606020604051610527816107ae565b5f815201526020818303126100a2576024810135906001600160401b0382116100a2570190604090829003126100a25760405191610564836107ae565b6105706024830161082e565b83526044820135916001600160401b0383116100a257610593920160240161085d565b90602081019182526105c86040519283926020845260018060a01b03905116602084015251604080840152606083019061078a565b0390f35b346100a2575f3660031901126100a2576040517f00000000000000000000000000000000000000000000000000000000000000006001600160a01b03168152602090f35b346100a25760203660031901126100a2576328c44a9960e21b815260048035908201819052907f00000000000000000000000000000000000000000000000000000000000000006001600160a01b03165f82602481845afa80156101b3576024925f91610770575b505f60a082015192604051948580926328c44a9960e21b82528660048301525afa9283156101b3575f93610754575b5060c08301516001600160a01b0316330361074557815f52600160205260405f205415158061072f575b61072057515f525f60205260405f20600160ff198254161790555f5260016020528160405f205551907fd22fd165f2b163f7b94d6e2b15443105c17bfae3fa2242150644ab76a95d532e5f80a3005b63fa3fe8a760e01b5f5260045ffd5b50815f5260016020528360405f205414156106d1565b6331eb5cd360e11b5f5260045ffd5b6107699193503d805f833e6101a581836107f9565b91846106a7565b61078491503d805f833e6101a581836107f9565b84610678565b805180835260209291819084018484015e5f828201840152601f01601f1916010190565b604081019081106001600160401b038211176107c957604052565b634e487b7160e01b5f52604160045260245ffd5b61014081019081106001600160401b038211176107c957604052565b90601f801991011681019081106001600160401b038211176107c957604052565b35906001600160401b03821682036100a257565b35906001600160a01b03821682036100a257565b6001600160401b0381116107c957601f01601f191660200190565b81601f820112156100a25780359061087482610842565b9261088260405194856107f9565b828452602083830101116100a257815f926020809301838601378301015290565b51906001600160401b03821682036100a257565b51906001600160a01b03821682036100a257565b519081151582036100a257565b81601f820112156100a2578051906108ef82610842565b926108fd60405194856107f9565b828452602083830101116100a257815f9260208093018386015e8301015290565b6020818303126100a2578051906001600160401b0382116100a25701610140818303126100a25760405191610952836107dd565b815183526020820151602084015261096c604083016108a3565b604084015261097d606083016108a3565b606084015261098e608083016108a3565b608084015260a082015160a08401526109a960c083016108b7565b60c08401526109ba60e083016108b7565b60e08401526109cc61010083016108cb565b6101008401526101208201516001600160401b0381116100a2576109f092016108d8565b61012082015290565b81518201916020818403126100a2576020810151906001600160401b0382116100a25701916040838203126100a25760405192610a35846107ae565b610a41602082016108b7565b84526040810151916001600160401b0383116100a257610a689260208092019201016108d8565b6020830190815281515f525f60205260ff60405f20541615610bac57915191516040805163e6c9714d60e01b8152606060048201819052845160648301526020808601516084840152928501516001600160401b0390811660a484015290850151811660c483015260808501511660e482015260a084015161010482015260c08401516001600160a01b0390811661012483015260e085015181166101448301526101008501511515610164830152610120909401516101406101848301529095919486941692849283929091610b5a91610b48906101a486019061078a565b8481036003190160248601529061078a565b90604483015203915afa9081156101b3575f91610b75575090565b90506020813d602011610ba4575b81610b90602093836107f9565b810103126100a257610ba1906108cb565b90565b3d9150610b83565b505050505f9056fea2646970667358221220d2409d06d725b56a7a7996ca9451a40678527ba797b58f46d2564e34e3a93c4864736f6c634300081c0033","linkReferences":{}},"methodIdentifiers":{"checkObligation((bytes32,bytes32,uint64,uint64,uint64,bytes32,address,address,bool,bytes),bytes,bytes32)":"e6c9714d","confirm(bytes32)":"797af627","confirmations(bytes32)":"ec95bfe7","counterofferToObligation(bytes32)":"86c2ec34","decodeDemandData(bytes)":"838a68d9","eas()":"8150864d","requestConfirmation(bytes32)":"e9af8361","revoke(bytes32)":"b75c7dc6"},"id":115}