{"abi":[{"type":"constructor","inputs":[{"name":"_eas","type":"address","internalType":"contract IEAS"}],"stateMutability":"nonpayable"},{"type":"function","name":"checkObligation","inputs":[{"name":"obligation","type":"tuple","internalType":"struct Attestation","components":[{"name":"uid","type":"bytes32","internalType":"bytes32"},{"name":"schema","type":"bytes32","internalType":"bytes32"},{"name":"time","type":"uint64","internalType":"uint64"},{"name":"expirationTime","type":"uint64","internalType":"uint64"},{"name":"revocationTime","type":"uint64","internalType":"uint64"},{"name":"refUID","type":"bytes32","internalType":"bytes32"},{"name":"recipient","type":"address","internalType":"address"},{"name":"attester","type":"address","internalType":"address"},{"name":"revocable","type":"bool","internalType":"bool"},{"name":"data","type":"bytes","internalType":"bytes"}]},{"name":"","type":"bytes","internalType":"bytes"},{"name":"","type":"bytes32","internalType":"bytes32"}],"outputs":[{"name":"","type":"bool","internalType":"bool"}],"stateMutability":"view"},{"type":"function","name":"confirm","inputs":[{"name":"_obligation","type":"bytes32","internalType":"bytes32"}],"outputs":[],"stateMutability":"nonpayable"},{"type":"function","name":"confirmations","inputs":[{"name":"","type":"bytes32","internalType":"bytes32"}],"outputs":[{"name":"","type":"bool","internalType":"bool"}],"stateMutability":"view"},{"type":"function","name":"counterofferToObligation","inputs":[{"name":"","type":"bytes32","internalType":"bytes32"}],"outputs":[{"name":"","type":"bytes32","internalType":"bytes32"}],"stateMutability":"view"},{"type":"function","name":"eas","inputs":[],"outputs":[{"name":"","type":"address","internalType":"contract IEAS"}],"stateMutability":"view"},{"type":"function","name":"requestConfirmation","inputs":[{"name":"_obligation","type":"bytes32","internalType":"bytes32"}],"outputs":[],"stateMutability":"nonpayable"},{"type":"function","name":"revoke","inputs":[{"name":"_obligation","type":"bytes32","internalType":"bytes32"}],"outputs":[],"stateMutability":"nonpayable"},{"type":"event","name":"ConfirmationMade","inputs":[{"name":"obligation","type":"bytes32","indexed":true,"internalType":"bytes32"},{"name":"counteroffer","type":"bytes32","indexed":true,"internalType":"bytes32"}],"anonymous":false},{"type":"event","name":"ConfirmationRequested","inputs":[{"name":"obligation","type":"bytes32","indexed":true,"internalType":"bytes32"},{"name":"confirmer","type":"address","indexed":true,"internalType":"address"},{"name":"counteroffer","type":"bytes32","indexed":true,"internalType":"bytes32"}],"anonymous":false},{"type":"event","name":"ConfirmationRevoked","inputs":[{"name":"obligation","type":"bytes32","indexed":true,"internalType":"bytes32"},{"name":"counteroffer","type":"bytes32","indexed":true,"internalType":"bytes32"}],"anonymous":false},{"type":"error","name":"AnotherObligationAlreadyConfirmed","inputs":[]},{"type":"error","name":"NoConfirmationToRevoke","inputs":[]},{"type":"error","name":"UnauthorizedConfirmation","inputs":[]},{"type":"error","name":"UnauthorizedConfirmationRequest","inputs":[]},{"type":"error","name":"UnauthorizedRevocation","inputs":[]}],"bytecode":{"object":"0x60a03461007e57601f61097138819003918201601f19168301916001600160401b038311848410176100825780849260209460405283398101031261007e57516001600160a01b038116810361007e576080526040516108da9081610097823960805181818160c601528181610349015281816104d901526105300152f35b5f80fd5b634e487b7160e01b5f52604160045260245ffdfe6080806040526004361015610012575f80fd5b5f3560e01c908163797af62714610508575080638150864d146104c457806386c2ec341461049a578063b75c7dc61461031e578063e6c9714d146101f3578063e9af83611461009b5763ec95bfe714610069575f80fd5b34610097576020366003190112610097576004355f525f602052602060ff60405f2054166040519015158152f35b5f80fd5b34610097576020366003190112610097576040516328c44a9960e21b815260048035908201819052907f00000000000000000000000000000000000000000000000000000000000000006001600160a01b0316905f81602481855afa9081156101a8575f916101d9575b5060e08101516001600160a01b0316331415806101c2575b6101b35760a05f9101516024604051809481936328c44a9960e21b835260048301525afa9081156101a8575f91610186575b5060018060a01b0360c0820151169051917f93ece828de650a0159786850192cbcd721ab720e1ee81b00365a5c8d63886b315f80a4005b6101a291503d805f833e61019a81836106b3565b810190610789565b8261014f565b6040513d5f823e3d90fd5b63020a627d60e11b5f5260045ffd5b5060c08101516001600160a01b031633141561011d565b6101ed91503d805f833e61019a81836106b3565b83610105565b346100975760603660031901126100975760043567ffffffffffffffff8111610097576101406003198236030112610097576040519061023282610682565b806004013582526024810135602083015261024f604482016106d5565b6040830152610260606482016106d5565b6060830152610271608482016106d5565b608083015260a481013560a083015261028c60c482016106ea565b60c083015261029d60e482016106ea565b60e08301526101048101358015158103610097576101008301526101248101359067ffffffffffffffff82116100975760046102dc923692010161071a565b61012082015260243567ffffffffffffffff81116100975761030290369060040161071a565b50515f525f602052602060ff60405f2054166040519015158152f35b34610097576020366003190112610097576040516328c44a9960e21b815260048035908201819052907f00000000000000000000000000000000000000000000000000000000000000006001600160a01b03165f82602481845afa80156101a85760a05f916024948391610480575b50015191604051938480926328c44a9960e21b82528560048301525afa9182156101a8575f92610464575b5060c08201516001600160a01b0316330361045557825f525f60205260ff60405f20541615801561043f575b61043057825f525f60205260405f2060ff1981541690555f5260016020525f604081205551907f137a0dfcce695307235e039aa2ae70da634ed7f10a6a5a536b3a8c15d758aa1e5f80a3005b6339abb17d60e01b5f5260045ffd5b50805f5260016020528260405f205414156103e4565b630feaf7d560e31b5f5260045ffd5b6104799192503d805f833e61019a81836106b3565b90836103b8565b61049491503d8085833e61019a81836106b3565b8661038d565b34610097576020366003190112610097576004355f526001602052602060405f2054604051908152f35b34610097575f366003190112610097576040517f00000000000000000000000000000000000000000000000000000000000000006001600160a01b03168152602090f35b34610097576020366003190112610097576328c44a9960e21b815260048035908201819052907f00000000000000000000000000000000000000000000000000000000000000006001600160a01b03165f82602481845afa80156101a8576024925f91610668575b505f60a082015192604051948580926328c44a9960e21b82528660048301525afa9283156101a8575f9361064c575b5060c08301516001600160a01b0316330361063d57815f52600160205260405f2054151580610627575b61061857515f525f60205260405f20600160ff198254161790555f5260016020528160405f205551907fd22fd165f2b163f7b94d6e2b15443105c17bfae3fa2242150644ab76a95d532e5f80a3005b63fa3fe8a760e01b5f5260045ffd5b50815f5260016020528360405f205414156105c9565b6331eb5cd360e11b5f5260045ffd5b6106619193503d805f833e61019a81836106b3565b918461059f565b61067c91503d805f833e61019a81836106b3565b84610570565b610140810190811067ffffffffffffffff82111761069f57604052565b634e487b7160e01b5f52604160045260245ffd5b90601f8019910116810190811067ffffffffffffffff82111761069f57604052565b359067ffffffffffffffff8216820361009757565b35906001600160a01b038216820361009757565b67ffffffffffffffff811161069f57601f01601f191660200190565b81601f8201121561009757803590610731826106fe565b9261073f60405194856106b3565b8284526020838301011161009757815f926020809301838601378301015290565b519067ffffffffffffffff8216820361009757565b51906001600160a01b038216820361009757565b6020818303126100975780519067ffffffffffffffff82116100975701906101408282031261009757604051916107bf83610682565b80518352602081015160208401526107d960408201610760565b60408401526107ea60608201610760565b60608401526107fb60808201610760565b608084015260a081015160a084015261081660c08201610775565b60c084015261082760e08201610775565b60e08401526101008101518015158103610097576101008401526101208101519067ffffffffffffffff8211610097570181601f820112156100975780519061086f826106fe565b9261087d60405194856106b3565b8284526020838301011161009757815f9260208093018386015e830101526101208201529056fea264697066735822122000e668f49730806bb75b28034baa2b14ff2a4e58cdf4428845d7659a7afd09f064736f6c634300081c0033","linkReferences":{}},"methodIdentifiers":{"checkObligation((bytes32,bytes32,uint64,uint64,uint64,bytes32,address,address,bool,bytes),bytes,bytes32)":"e6c9714d","confirm(bytes32)":"797af627","confirmations(bytes32)":"ec95bfe7","counterofferToObligation(bytes32)":"86c2ec34","eas()":"8150864d","requestConfirmation(bytes32)":"e9af8361","revoke(bytes32)":"b75c7dc6"},"id":114}