{
  "abi": [
    {
      "type": "function",
      "name": "check",
      "inputs": [
        {
          "name": "",
          "type": "tuple",
          "internalType": "struct Attestation",
          "components": [
            {
              "name": "uid",
              "type": "bytes32",
              "internalType": "bytes32"
            },
            {
              "name": "schema",
              "type": "bytes32",
              "internalType": "bytes32"
            },
            {
              "name": "time",
              "type": "uint64",
              "internalType": "uint64"
            },
            {
              "name": "expirationTime",
              "type": "uint64",
              "internalType": "uint64"
            },
            {
              "name": "revocationTime",
              "type": "uint64",
              "internalType": "uint64"
            },
            {
              "name": "refUID",
              "type": "bytes32",
              "internalType": "bytes32"
            },
            {
              "name": "recipient",
              "type": "address",
              "internalType": "address"
            },
            {
              "name": "attester",
              "type": "address",
              "internalType": "address"
            },
            {
              "name": "revocable",
              "type": "bool",
              "internalType": "bool"
            },
            {
              "name": "data",
              "type": "bytes",
              "internalType": "bytes"
            }
          ]
        },
        {
          "name": "",
          "type": "bytes",
          "internalType": "bytes"
        },
        {
          "name": "",
          "type": "bytes32",
          "internalType": "bytes32"
        }
      ],
      "outputs": [
        {
          "name": "",
          "type": "bool",
          "internalType": "bool"
        }
      ],
      "stateMutability": "pure"
    },
    {
      "type": "function",
      "name": "supportsInterface",
      "inputs": [
        {
          "name": "interfaceId",
          "type": "bytes4",
          "internalType": "bytes4"
        }
      ],
      "outputs": [
        {
          "name": "",
          "type": "bool",
          "internalType": "bool"
        }
      ],
      "stateMutability": "view"
    }
  ],
  "bytecode": {
    "object": "0x60808060405234601557610291908161001a8239f35b5f80fdfe6080806040526004361015610012575f80fd5b5f3560e01c90816301ffc9a7146101775750638da3721a14610032575f80fd5b3461015f57606036600319011261015f5760043567ffffffffffffffff811161015f57610140600319823603011261015f5760405190610140820182811067ffffffffffffffff8211176101635760405280600401358252602481013560208301526100a0604482016101ca565b60408301526100b1606482016101ca565b60608301526100c2608482016101ca565b608083015260a481013560a08301526100dd60c482016101df565b60c08301526100ee60e482016101df565b60e0830152610104810135801515810361015f5761010083015261012481013567ffffffffffffffff811161015f5761012091600461013092369201016101f3565b91015260243567ffffffffffffffff811161015f576101539036906004016101f3565b50602060405160018152f35b5f80fd5b634e487b7160e01b5f52604160045260245ffd5b3461015f57602036600319011261015f576004359063ffffffff60e01b821680920361015f576020916346d1b90d60e11b81149081156101b9575b5015158152f35b6301ffc9a760e01b149050836101b2565b359067ffffffffffffffff8216820361015f57565b35906001600160a01b038216820361015f57565b81601f8201121561015f5780359067ffffffffffffffff82116101635760405192601f8301601f19908116603f0116840167ffffffffffffffff811185821017610163576040528284526020838301011161015f57815f92602080930183860137830101529056fea264697066735822122049f076ab29d71a47886733d7a12c25d0984a12059aac1d760f02d6b29bb8457764736f6c634300081b0033",
    "linkReferences": {}
  },
  "methodIdentifiers": {
    "check((bytes32,bytes32,uint64,uint64,uint64,bytes32,address,address,bool,bytes),bytes,bytes32)": "8da3721a",
    "supportsInterface(bytes4)": "01ffc9a7"
  },
  "id": 98
}