{
  "abi": [
    {
      "type": "constructor",
      "inputs": [
        {
          "name": "_eas",
          "type": "address",
          "internalType": "contract IEAS"
        }
      ],
      "stateMutability": "nonpayable"
    },
    {
      "type": "function",
      "name": "arbitrate",
      "inputs": [
        {
          "name": "fulfillmentUid",
          "type": "bytes32",
          "internalType": "bytes32"
        },
        {
          "name": "demand",
          "type": "bytes",
          "internalType": "bytes"
        },
        {
          "name": "decision",
          "type": "bool",
          "internalType": "bool"
        }
      ],
      "outputs": [],
      "stateMutability": "nonpayable"
    },
    {
      "type": "function",
      "name": "check",
      "inputs": [
        {
          "name": "fulfillment",
          "type": "tuple",
          "internalType": "struct Attestation",
          "components": [
            {
              "name": "uid",
              "type": "bytes32",
              "internalType": "bytes32"
            },
            {
              "name": "schema",
              "type": "bytes32",
              "internalType": "bytes32"
            },
            {
              "name": "time",
              "type": "uint64",
              "internalType": "uint64"
            },
            {
              "name": "expirationTime",
              "type": "uint64",
              "internalType": "uint64"
            },
            {
              "name": "revocationTime",
              "type": "uint64",
              "internalType": "uint64"
            },
            {
              "name": "refUID",
              "type": "bytes32",
              "internalType": "bytes32"
            },
            {
              "name": "recipient",
              "type": "address",
              "internalType": "address"
            },
            {
              "name": "attester",
              "type": "address",
              "internalType": "address"
            },
            {
              "name": "revocable",
              "type": "bool",
              "internalType": "bool"
            },
            {
              "name": "data",
              "type": "bytes",
              "internalType": "bytes"
            }
          ]
        },
        {
          "name": "demand",
          "type": "bytes",
          "internalType": "bytes"
        },
        {
          "name": "",
          "type": "bytes32",
          "internalType": "bytes32"
        }
      ],
      "outputs": [
        {
          "name": "",
          "type": "bool",
          "internalType": "bool"
        }
      ],
      "stateMutability": "view"
    },
    {
      "type": "function",
      "name": "decodeDemandData",
      "inputs": [
        {
          "name": "data",
          "type": "bytes",
          "internalType": "bytes"
        }
      ],
      "outputs": [
        {
          "name": "",
          "type": "tuple",
          "internalType": "struct TrustedOracleArbiter.DemandData",
          "components": [
            {
              "name": "oracle",
              "type": "address",
              "internalType": "address"
            },
            {
              "name": "data",
              "type": "bytes",
              "internalType": "bytes"
            }
          ]
        }
      ],
      "stateMutability": "pure"
    },
    {
      "type": "function",
      "name": "requestArbitration",
      "inputs": [
        {
          "name": "fulfillmentUid",
          "type": "bytes32",
          "internalType": "bytes32"
        },
        {
          "name": "oracle",
          "type": "address",
          "internalType": "address"
        },
        {
          "name": "demand",
          "type": "bytes",
          "internalType": "bytes"
        }
      ],
      "outputs": [],
      "stateMutability": "nonpayable"
    },
    {
      "type": "function",
      "name": "supportsInterface",
      "inputs": [
        {
          "name": "interfaceId",
          "type": "bytes4",
          "internalType": "bytes4"
        }
      ],
      "outputs": [
        {
          "name": "",
          "type": "bool",
          "internalType": "bool"
        }
      ],
      "stateMutability": "view"
    },
    {
      "type": "event",
      "name": "ArbitrationMade",
      "inputs": [
        {
          "name": "decisionKey",
          "type": "bytes32",
          "indexed": true,
          "internalType": "bytes32"
        },
        {
          "name": "fulfillmentUid",
          "type": "bytes32",
          "indexed": true,
          "internalType": "bytes32"
        },
        {
          "name": "oracle",
          "type": "address",
          "indexed": true,
          "internalType": "address"
        },
        {
          "name": "decision",
          "type": "bool",
          "indexed": false,
          "internalType": "bool"
        }
      ],
      "anonymous": false
    },
    {
      "type": "event",
      "name": "ArbitrationRequested",
      "inputs": [
        {
          "name": "fulfillmentUid",
          "type": "bytes32",
          "indexed": true,
          "internalType": "bytes32"
        },
        {
          "name": "oracle",
          "type": "address",
          "indexed": true,
          "internalType": "address"
        },
        {
          "name": "demand",
          "type": "bytes",
          "indexed": false,
          "internalType": "bytes"
        }
      ],
      "anonymous": false
    },
    {
      "type": "error",
      "name": "UnauthorizedArbitrationRequest",
      "inputs": []
    }
  ],
  "bytecode": {
    "object": "0x608034606f57601f61089738819003918201601f19168301916001600160401b03831184841017607357808492602094604052833981010312606f57516001600160a01b03811690819003606f575f80546001600160a01b03191691909117905560405161080f90816100888239f35b5f80fd5b634e487b7160e01b5f52604160045260245ffdfe6080806040526004361015610012575f80fd5b5f3560e01c90816301ffc9a7146105e6575080636f6bd32b146103e2578063838a68d9146102df5780638da3721a146101115763fcb0c39014610053575f80fd5b3461010d57606036600319011261010d576004356024356001600160401b03811161010d576100869036906004016106d4565b906044359182151580930361010d576040516100b9816100ab602082019486866107c0565b03601f198101835282610698565b519020335f52600160205260405f20815f5260205260405f2060ff1981541660ff85161790556040519283527fbbe9caf8b56a2139bcb80c791657954e2e1ddfad0cf3725d0ce16838a46752d160203394a4005b5f80fd5b3461010d57606036600319011261010d576004356001600160401b03811161010d57610140600319823603011261010d576040519061014f8261064d565b806004013582526024810135602083015261016c6044820161073e565b604083015261017d6064820161073e565b606083015261018e6084820161073e565b608083015260a481013560a08301526101a960c48201610639565b60c08301526101ba60e48201610639565b60e0830152610104810135801515810361010d57610100830152610124810135906001600160401b03821161010d5760046101f892369201016106d4565b6101208201526024356001600160401b03811161010d5761021d9036906004016106d4565b90815182019160208184031261010d576020810151906001600160401b03821161010d570160408184031261010d57604051926102598461067d565b61026560208301610766565b845260408201516001600160401b03811161010d576100ab92602061029292816102ac950192010161077a565b9283602086015251926040519283916020830195866107c0565b5190209060018060a01b039051165f52600160205260405f20905f52602052602060ff60405f2054166040519015158152f35b3461010d57602036600319011261010d576004356001600160401b03811161010d573660238201121561010d5780600401356001600160401b03811161010d578101602481019136831161010d576060602060405161033d8161067d565b5f8152015260208183031261010d576024810135906001600160401b03821161010d5701906040908290031261010d576040519161037a8361067d565b61038660248301610639565b83526044820135916001600160401b03831161010d576103a992016024016106d4565b90602081019182526103de6040519283926020845260018060a01b03905116602084015251604080840152606083019061071a565b0390f35b3461010d57606036600319011261010d576024356001600160a01b038116906004359082900361010d576044356001600160401b03811161010d5761042b9036906004016106d4565b5f80546040516328c44a9960e21b8152600481018590529190829060249082906001600160a01b03165afa9081156105db575f916104e7575b5060e08101516001600160a01b031633141590816104cf575b506104c0576104bb7f5a87a605f49708d9bbadaa74684a5e23583375d9ed010cda2db60567202de60b9160405191829160208352602083019061071a565b0390a3005b63ff323ecb60e01b5f5260045ffd5b60c001516001600160a01b031633141590508461047d565b90503d805f833e6104f88183610698565b81019060208183031261010d578051906001600160401b03821161010d57016101408183031261010d576040519161052f8361064d565b815183526020820151602084015261054960408301610752565b604084015261055a60608301610752565b606084015261056b60808301610752565b608084015260a082015160a084015261058660c08301610766565b60c084015261059760e08301610766565b60e0840152610100820151801515810361010d576101008401526101208201516001600160401b03811161010d576105cf920161077a565b61012082015284610464565b6040513d5f823e3d90fd5b3461010d57602036600319011261010d576004359063ffffffff60e01b821680920361010d576020916346d1b90d60e11b8114908115610628575b5015158152f35b6301ffc9a760e01b14905083610621565b35906001600160a01b038216820361010d57565b61014081019081106001600160401b0382111761066957604052565b634e487b7160e01b5f52604160045260245ffd5b604081019081106001600160401b0382111761066957604052565b90601f801991011681019081106001600160401b0382111761066957604052565b6001600160401b03811161066957601f01601f191660200190565b81601f8201121561010d578035906106eb826106b9565b926106f96040519485610698565b8284526020838301011161010d57815f926020809301838601378301015290565b805180835260209291819084018484015e5f828201840152601f01601f1916010190565b35906001600160401b038216820361010d57565b51906001600160401b038216820361010d57565b51906001600160a01b038216820361010d57565b81601f8201121561010d57805190610791826106b9565b9261079f6040519485610698565b8284526020838301011161010d57815f9260208093018386015e8301015290565b602092839282528051928391018483015e01015f81529056fea26469706673582212209a971b7524322bc61dada9e82f05d7dffd5d4ad45f6f967e036945cba51b935564736f6c634300081b0033",
    "linkReferences": {}
  },
  "methodIdentifiers": {
    "arbitrate(bytes32,bytes,bool)": "fcb0c390",
    "check((bytes32,bytes32,uint64,uint64,uint64,bytes32,address,address,bool,bytes),bytes,bytes32)": "8da3721a",
    "decodeDemandData(bytes)": "838a68d9",
    "requestArbitration(bytes32,address,bytes)": "6f6bd32b",
    "supportsInterface(bytes4)": "01ffc9a7"
  },
  "id": 98
}