{
  "abi": [
    {
      "type": "constructor",
      "inputs": [
        {
          "name": "_eas",
          "type": "address",
          "internalType": "contract IEAS"
        },
        {
          "name": "_schemaRegistry",
          "type": "address",
          "internalType": "contract ISchemaRegistry"
        }
      ],
      "stateMutability": "nonpayable"
    },
    {
      "type": "receive",
      "stateMutability": "payable"
    },
    {
      "type": "function",
      "name": "ATTESTATION_SCHEMA",
      "inputs": [],
      "outputs": [
        {
          "name": "",
          "type": "bytes32",
          "internalType": "bytes32"
        }
      ],
      "stateMutability": "view"
    },
    {
      "type": "function",
      "name": "MAX_HOOKS",
      "inputs": [],
      "outputs": [
        {
          "name": "",
          "type": "uint256",
          "internalType": "uint256"
        }
      ],
      "stateMutability": "view"
    },
    {
      "type": "function",
      "name": "attest",
      "inputs": [
        {
          "name": "attestation",
          "type": "tuple",
          "internalType": "struct Attestation",
          "components": [
            {
              "name": "uid",
              "type": "bytes32",
              "internalType": "bytes32"
            },
            {
              "name": "schema",
              "type": "bytes32",
              "internalType": "bytes32"
            },
            {
              "name": "time",
              "type": "uint64",
              "internalType": "uint64"
            },
            {
              "name": "expirationTime",
              "type": "uint64",
              "internalType": "uint64"
            },
            {
              "name": "revocationTime",
              "type": "uint64",
              "internalType": "uint64"
            },
            {
              "name": "refUID",
              "type": "bytes32",
              "internalType": "bytes32"
            },
            {
              "name": "recipient",
              "type": "address",
              "internalType": "address"
            },
            {
              "name": "attester",
              "type": "address",
              "internalType": "address"
            },
            {
              "name": "revocable",
              "type": "bool",
              "internalType": "bool"
            },
            {
              "name": "data",
              "type": "bytes",
              "internalType": "bytes"
            }
          ]
        }
      ],
      "outputs": [
        {
          "name": "",
          "type": "bool",
          "internalType": "bool"
        }
      ],
      "stateMutability": "payable"
    },
    {
      "type": "function",
      "name": "checkObligation",
      "inputs": [
        {
          "name": "obligation",
          "type": "tuple",
          "internalType": "struct Attestation",
          "components": [
            {
              "name": "uid",
              "type": "bytes32",
              "internalType": "bytes32"
            },
            {
              "name": "schema",
              "type": "bytes32",
              "internalType": "bytes32"
            },
            {
              "name": "time",
              "type": "uint64",
              "internalType": "uint64"
            },
            {
              "name": "expirationTime",
              "type": "uint64",
              "internalType": "uint64"
            },
            {
              "name": "revocationTime",
              "type": "uint64",
              "internalType": "uint64"
            },
            {
              "name": "refUID",
              "type": "bytes32",
              "internalType": "bytes32"
            },
            {
              "name": "recipient",
              "type": "address",
              "internalType": "address"
            },
            {
              "name": "attester",
              "type": "address",
              "internalType": "address"
            },
            {
              "name": "revocable",
              "type": "bool",
              "internalType": "bool"
            },
            {
              "name": "data",
              "type": "bytes",
              "internalType": "bytes"
            }
          ]
        },
        {
          "name": "demand",
          "type": "bytes",
          "internalType": "bytes"
        },
        {
          "name": "",
          "type": "bytes32",
          "internalType": "bytes32"
        }
      ],
      "outputs": [
        {
          "name": "",
          "type": "bool",
          "internalType": "bool"
        }
      ],
      "stateMutability": "view"
    },
    {
      "type": "function",
      "name": "collectEscrow",
      "inputs": [
        {
          "name": "escrow",
          "type": "bytes32",
          "internalType": "bytes32"
        },
        {
          "name": "fulfillment",
          "type": "bytes32",
          "internalType": "bytes32"
        }
      ],
      "outputs": [
        {
          "name": "",
          "type": "bool",
          "internalType": "bool"
        }
      ],
      "stateMutability": "nonpayable"
    },
    {
      "type": "function",
      "name": "collectEscrowRaw",
      "inputs": [
        {
          "name": "_escrow",
          "type": "bytes32",
          "internalType": "bytes32"
        },
        {
          "name": "_fulfillment",
          "type": "bytes32",
          "internalType": "bytes32"
        }
      ],
      "outputs": [
        {
          "name": "",
          "type": "bytes",
          "internalType": "bytes"
        }
      ],
      "stateMutability": "nonpayable"
    },
    {
      "type": "function",
      "name": "decodeObligationData",
      "inputs": [
        {
          "name": "data",
          "type": "bytes",
          "internalType": "bytes"
        }
      ],
      "outputs": [
        {
          "name": "",
          "type": "tuple",
          "internalType": "struct HooksEscrowObligation.ObligationData",
          "components": [
            {
              "name": "arbiter",
              "type": "address",
              "internalType": "address"
            },
            {
              "name": "demand",
              "type": "bytes",
              "internalType": "bytes"
            },
            {
              "name": "hooks",
              "type": "address[]",
              "internalType": "address[]"
            },
            {
              "name": "hookDatas",
              "type": "bytes[]",
              "internalType": "bytes[]"
            },
            {
              "name": "values",
              "type": "uint256[]",
              "internalType": "uint256[]"
            }
          ]
        }
      ],
      "stateMutability": "pure"
    },
    {
      "type": "function",
      "name": "doObligation",
      "inputs": [
        {
          "name": "data",
          "type": "tuple",
          "internalType": "struct HooksEscrowObligation.ObligationData",
          "components": [
            {
              "name": "arbiter",
              "type": "address",
              "internalType": "address"
            },
            {
              "name": "demand",
              "type": "bytes",
              "internalType": "bytes"
            },
            {
              "name": "hooks",
              "type": "address[]",
              "internalType": "address[]"
            },
            {
              "name": "hookDatas",
              "type": "bytes[]",
              "internalType": "bytes[]"
            },
            {
              "name": "values",
              "type": "uint256[]",
              "internalType": "uint256[]"
            }
          ]
        },
        {
          "name": "expirationTime",
          "type": "uint64",
          "internalType": "uint64"
        }
      ],
      "outputs": [
        {
          "name": "",
          "type": "bytes32",
          "internalType": "bytes32"
        }
      ],
      "stateMutability": "payable"
    },
    {
      "type": "function",
      "name": "doObligationFor",
      "inputs": [
        {
          "name": "data",
          "type": "tuple",
          "internalType": "struct HooksEscrowObligation.ObligationData",
          "components": [
            {
              "name": "arbiter",
              "type": "address",
              "internalType": "address"
            },
            {
              "name": "demand",
              "type": "bytes",
              "internalType": "bytes"
            },
            {
              "name": "hooks",
              "type": "address[]",
              "internalType": "address[]"
            },
            {
              "name": "hookDatas",
              "type": "bytes[]",
              "internalType": "bytes[]"
            },
            {
              "name": "values",
              "type": "uint256[]",
              "internalType": "uint256[]"
            }
          ]
        },
        {
          "name": "expirationTime",
          "type": "uint64",
          "internalType": "uint64"
        },
        {
          "name": "recipient",
          "type": "address",
          "internalType": "address"
        }
      ],
      "outputs": [
        {
          "name": "",
          "type": "bytes32",
          "internalType": "bytes32"
        }
      ],
      "stateMutability": "payable"
    },
    {
      "type": "function",
      "name": "doObligationRaw",
      "inputs": [
        {
          "name": "data",
          "type": "bytes",
          "internalType": "bytes"
        },
        {
          "name": "expirationTime",
          "type": "uint64",
          "internalType": "uint64"
        },
        {
          "name": "refUID",
          "type": "bytes32",
          "internalType": "bytes32"
        }
      ],
      "outputs": [
        {
          "name": "uid_",
          "type": "bytes32",
          "internalType": "bytes32"
        }
      ],
      "stateMutability": "payable"
    },
    {
      "type": "function",
      "name": "extractArbiterAndDemand",
      "inputs": [
        {
          "name": "data",
          "type": "bytes",
          "internalType": "bytes"
        }
      ],
      "outputs": [
        {
          "name": "arbiter",
          "type": "address",
          "internalType": "address"
        },
        {
          "name": "demand",
          "type": "bytes",
          "internalType": "bytes"
        }
      ],
      "stateMutability": "pure"
    },
    {
      "type": "function",
      "name": "getObligationData",
      "inputs": [
        {
          "name": "uid",
          "type": "bytes32",
          "internalType": "bytes32"
        }
      ],
      "outputs": [
        {
          "name": "",
          "type": "tuple",
          "internalType": "struct HooksEscrowObligation.ObligationData",
          "components": [
            {
              "name": "arbiter",
              "type": "address",
              "internalType": "address"
            },
            {
              "name": "demand",
              "type": "bytes",
              "internalType": "bytes"
            },
            {
              "name": "hooks",
              "type": "address[]",
              "internalType": "address[]"
            },
            {
              "name": "hookDatas",
              "type": "bytes[]",
              "internalType": "bytes[]"
            },
            {
              "name": "values",
              "type": "uint256[]",
              "internalType": "uint256[]"
            }
          ]
        }
      ],
      "stateMutability": "view"
    },
    {
      "type": "function",
      "name": "getSchema",
      "inputs": [],
      "outputs": [
        {
          "name": "",
          "type": "tuple",
          "internalType": "struct SchemaRecord",
          "components": [
            {
              "name": "uid",
              "type": "bytes32",
              "internalType": "bytes32"
            },
            {
              "name": "resolver",
              "type": "address",
              "internalType": "contract ISchemaResolver"
            },
            {
              "name": "revocable",
              "type": "bool",
              "internalType": "bool"
            },
            {
              "name": "schema",
              "type": "string",
              "internalType": "string"
            }
          ]
        }
      ],
      "stateMutability": "view"
    },
    {
      "type": "function",
      "name": "isPayable",
      "inputs": [],
      "outputs": [
        {
          "name": "",
          "type": "bool",
          "internalType": "bool"
        }
      ],
      "stateMutability": "pure"
    },
    {
      "type": "function",
      "name": "multiAttest",
      "inputs": [
        {
          "name": "attestations",
          "type": "tuple[]",
          "internalType": "struct Attestation[]",
          "components": [
            {
              "name": "uid",
              "type": "bytes32",
              "internalType": "bytes32"
            },
            {
              "name": "schema",
              "type": "bytes32",
              "internalType": "bytes32"
            },
            {
              "name": "time",
              "type": "uint64",
              "internalType": "uint64"
            },
            {
              "name": "expirationTime",
              "type": "uint64",
              "internalType": "uint64"
            },
            {
              "name": "revocationTime",
              "type": "uint64",
              "internalType": "uint64"
            },
            {
              "name": "refUID",
              "type": "bytes32",
              "internalType": "bytes32"
            },
            {
              "name": "recipient",
              "type": "address",
              "internalType": "address"
            },
            {
              "name": "attester",
              "type": "address",
              "internalType": "address"
            },
            {
              "name": "revocable",
              "type": "bool",
              "internalType": "bool"
            },
            {
              "name": "data",
              "type": "bytes",
              "internalType": "bytes"
            }
          ]
        },
        {
          "name": "values",
          "type": "uint256[]",
          "internalType": "uint256[]"
        }
      ],
      "outputs": [
        {
          "name": "",
          "type": "bool",
          "internalType": "bool"
        }
      ],
      "stateMutability": "payable"
    },
    {
      "type": "function",
      "name": "multiRevoke",
      "inputs": [
        {
          "name": "attestations",
          "type": "tuple[]",
          "internalType": "struct Attestation[]",
          "components": [
            {
              "name": "uid",
              "type": "bytes32",
              "internalType": "bytes32"
            },
            {
              "name": "schema",
              "type": "bytes32",
              "internalType": "bytes32"
            },
            {
              "name": "time",
              "type": "uint64",
              "internalType": "uint64"
            },
            {
              "name": "expirationTime",
              "type": "uint64",
              "internalType": "uint64"
            },
            {
              "name": "revocationTime",
              "type": "uint64",
              "internalType": "uint64"
            },
            {
              "name": "refUID",
              "type": "bytes32",
              "internalType": "bytes32"
            },
            {
              "name": "recipient",
              "type": "address",
              "internalType": "address"
            },
            {
              "name": "attester",
              "type": "address",
              "internalType": "address"
            },
            {
              "name": "revocable",
              "type": "bool",
              "internalType": "bool"
            },
            {
              "name": "data",
              "type": "bytes",
              "internalType": "bytes"
            }
          ]
        },
        {
          "name": "values",
          "type": "uint256[]",
          "internalType": "uint256[]"
        }
      ],
      "outputs": [
        {
          "name": "",
          "type": "bool",
          "internalType": "bool"
        }
      ],
      "stateMutability": "payable"
    },
    {
      "type": "function",
      "name": "reclaimExpired",
      "inputs": [
        {
          "name": "uid",
          "type": "bytes32",
          "internalType": "bytes32"
        }
      ],
      "outputs": [
        {
          "name": "",
          "type": "bool",
          "internalType": "bool"
        }
      ],
      "stateMutability": "nonpayable"
    },
    {
      "type": "function",
      "name": "revoke",
      "inputs": [
        {
          "name": "attestation",
          "type": "tuple",
          "internalType": "struct Attestation",
          "components": [
            {
              "name": "uid",
              "type": "bytes32",
              "internalType": "bytes32"
            },
            {
              "name": "schema",
              "type": "bytes32",
              "internalType": "bytes32"
            },
            {
              "name": "time",
              "type": "uint64",
              "internalType": "uint64"
            },
            {
              "name": "expirationTime",
              "type": "uint64",
              "internalType": "uint64"
            },
            {
              "name": "revocationTime",
              "type": "uint64",
              "internalType": "uint64"
            },
            {
              "name": "refUID",
              "type": "bytes32",
              "internalType": "bytes32"
            },
            {
              "name": "recipient",
              "type": "address",
              "internalType": "address"
            },
            {
              "name": "attester",
              "type": "address",
              "internalType": "address"
            },
            {
              "name": "revocable",
              "type": "bool",
              "internalType": "bool"
            },
            {
              "name": "data",
              "type": "bytes",
              "internalType": "bytes"
            }
          ]
        }
      ],
      "outputs": [
        {
          "name": "",
          "type": "bool",
          "internalType": "bool"
        }
      ],
      "stateMutability": "payable"
    },
    {
      "type": "function",
      "name": "version",
      "inputs": [],
      "outputs": [
        {
          "name": "",
          "type": "string",
          "internalType": "string"
        }
      ],
      "stateMutability": "view"
    },
    {
      "type": "event",
      "name": "EscrowCollected",
      "inputs": [
        {
          "name": "escrow",
          "type": "bytes32",
          "indexed": true,
          "internalType": "bytes32"
        },
        {
          "name": "fulfillment",
          "type": "bytes32",
          "indexed": true,
          "internalType": "bytes32"
        },
        {
          "name": "fulfiller",
          "type": "address",
          "indexed": true,
          "internalType": "address"
        }
      ],
      "anonymous": false
    },
    {
      "type": "event",
      "name": "EscrowMade",
      "inputs": [
        {
          "name": "escrow",
          "type": "bytes32",
          "indexed": true,
          "internalType": "bytes32"
        },
        {
          "name": "buyer",
          "type": "address",
          "indexed": true,
          "internalType": "address"
        }
      ],
      "anonymous": false
    },
    {
      "type": "error",
      "name": "AccessDenied",
      "inputs": []
    },
    {
      "type": "error",
      "name": "ArrayLengthMismatch",
      "inputs": []
    },
    {
      "type": "error",
      "name": "AttestationNotFound",
      "inputs": [
        {
          "name": "attestationId",
          "type": "bytes32",
          "internalType": "bytes32"
        }
      ]
    },
    {
      "type": "error",
      "name": "AttestationRevoked",
      "inputs": []
    },
    {
      "type": "error",
      "name": "DeadlineExpired",
      "inputs": []
    },
    {
      "type": "error",
      "name": "InsufficientValue",
      "inputs": []
    },
    {
      "type": "error",
      "name": "InvalidAttestationUid",
      "inputs": []
    },
    {
      "type": "error",
      "name": "InvalidEAS",
      "inputs": []
    },
    {
      "type": "error",
      "name": "InvalidEscrowAttestation",
      "inputs": []
    },
    {
      "type": "error",
      "name": "InvalidFulfillment",
      "inputs": []
    },
    {
      "type": "error",
      "name": "InvalidLength",
      "inputs": []
    },
    {
      "type": "error",
      "name": "NotFromThisAttester",
      "inputs": []
    },
    {
      "type": "error",
      "name": "NotPayable",
      "inputs": []
    },
    {
      "type": "error",
      "name": "ReentrancyGuardReentrantCall",
      "inputs": []
    },
    {
      "type": "error",
      "name": "RevocationFailed",
      "inputs": [
        {
          "name": "attestationId",
          "type": "bytes32",
          "internalType": "bytes32"
        }
      ]
    },
    {
      "type": "error",
      "name": "SchemaRegistrationFailed",
      "inputs": [
        {
          "name": "uid",
          "type": "bytes32",
          "internalType": "bytes32"
        }
      ]
    },
    {
      "type": "error",
      "name": "TooManyHooks",
      "inputs": [
        {
          "name": "provided",
          "type": "uint256",
          "internalType": "uint256"
        },
        {
          "name": "max",
          "type": "uint256",
          "internalType": "uint256"
        }
      ]
    },
    {
      "type": "error",
      "name": "UnauthorizedCall",
      "inputs": []
    },
    {
      "type": "error",
      "name": "ValueMismatch",
      "inputs": [
        {
          "name": "expected",
          "type": "uint256",
          "internalType": "uint256"
        },
        {
          "name": "received",
          "type": "uint256",
          "internalType": "uint256"
        }
      ]
    }
  ],
  "bytecode": {
    "object": "0x61016080604052346101e157604081612b59803803809161002082856101e5565b8339810103126101e1578051906001600160a01b038216908183036101e157602001516001600160a01b03811691908281036101e157604051916100656080846101e5565b605383527f6164647265737320617262697465722c2062797465732064656d616e642c206160208401527f6464726573735b5d20686f6f6b732c2062797465735b5d20686f6f6b4461746160408401527f732c2075696e743235365b5d2076616c7565730000000000000000000000000060608401526001608052600360a0525f60c052156101d257836101059460e05261012052610100523091610300565b6101405260017f9b779b17422d0df92223018b32b4d1fa46e071723d6817e2486d003becc55f005560405161267d90816104dc823960805181610e4c015260a05181610e77015260c05181610ea2015260e051816124fb01526101005181610cc30152610120518181816104ea0152818161082001528181610a8a01528181611a1e0152818161206f015261242f01526101405181818161052a0152818161077301528181610a3b01528181610c9101528181610e0a015281816118b601528181611cc20152611fc20152f35b6341bc07ff60e11b5f5260045ffd5b5f80fd5b601f909101601f19168101906001600160401b0382119082101761020857604052565b634e487b7160e01b5f52604160045260245ffd5b6020818303126101e1578051906001600160401b0382116101e15701906080828203126101e15760405191608083016001600160401b03811184821017610208576040528051835260208101516001600160a01b03811681036101e1576020840152604081015180151581036101e15760408401526060810151906001600160401b0382116101e1570181601f820112156101e1578051906001600160401b03821161020857604051926102da601f8401601f1916602001856101e5565b828452602083830101116101e157815f9260208093018386015e83010152606082015290565b9291604051906020820183519261034a6015602083818901978089885e810160018060601b03198860601b1683820152600160f81b60348201520301600a198101845201826101e5565b5190206040516351753e3760e11b81526004810182905290956001600160a01b031693905f81602481885afa801561045b5787915f916104c1575b5051146104bb579060846020926040519485938492630c1af44f60e31b8452606060048501525180928160648601528585015e5f84838501015260018060a01b0316602483015260016044830152601f801991011681010301815f865af15f9181610487575b5061046657505f602491604051928380926351753e3760e11b82528760048301525afa801561045b5783915f91610439575b5051146104375750639e6113d560e01b5f5260045260245ffd5b565b61045591503d805f833e61044d81836101e5565b81019061021c565b5f61041d565b6040513d5f823e3d90fd5b91928091508203610475575090565b639e6113d560e01b5f5260045260245ffd5b9091506020813d6020116104b3575b816104a3602093836101e5565b810103126101e15751905f6103eb565b3d9150610496565b50505050565b6104d591503d805f833e61044d81836101e5565b5f61038556fe6080806040526004361015610029575b50361561001a575f80fd5b631574f9f360e01b5f5260045ffd5b5f905f3560e01c90816306920f9614610f53575080632c713cd914610f365780634fa4467c14610f1b57806354fd4d5014610e2d5780635bf2f20d14610df35780636b122fe014610c525780637d2c293114610a0c5780638371ef59146109ad57806388e5b2d91461095f578063891d9ea81461097e57806391db0b7e1461095f57806393abe3dc146108ef578063b3b902d4146105b5578063c6ec5070146104a9578063c93844be14610262578063ce46e04614610246578063e49617e11461022b578063e60c35051461022b5763e6c9714d0361000f573461022457606036600319011261022457600435906001600160401b0382116102245761014060031983360301126102245760405191610141836110a3565b806004013583526024810135602084015261015e60448201610fdc565b604084015261016f60648201610fdc565b606084015261018060848201610fdc565b608084015260a481013560a084015261019b60c48201610ff0565b60c08401526101ac60e48201610ff0565b60e08401526101048101358015158103610227576101008401526101248101356001600160401b038111610227576101e99136910160040161114c565b610120830152602435906001600160401b03821161022457602061021a84610214366004870161114c565b90611cbb565b6040519015158152f35b80fd5b8280fd5b602061021a61023936611351565b6102416124f9565b61253a565b5034610224578060031936011261022457602090604051908152f35b5034610224576020366003190112610224576004356001600160401b038111610458576102939036906004016111ea565b61029e929192611c4f565b50820191602081840312610458578035906001600160401b03821161022757019060a08284031261022457604051916102d683611088565b6102df81610ff0565b835260208101356001600160401b038111610227578461030091830161114c565b602084015260408101356001600160401b03811161022757810184601f8201121561022757803590610331826115c3565b9161033f60405193846110da565b80835260208084019160051b8301019187831161048d57602001905b82821061049157505050604084015260608101356001600160401b03811161022757810184601f8201121561022757803590610396826115c3565b916103a460405193846110da565b80835260208084019160051b8301019187831161048d5760208101915b83831061045c575050505060608401526080810135906001600160401b03821161022757019280601f85011215610458578335936103fe856115c3565b9261040c60405194856110da565b85845260208085019660051b8301019283116102245750602001935b81851061044857608084018390526040518061044486826112a2565b0390f35b8435815260209485019401610428565b5080fd5b82356001600160401b0381116104895760209161047e8b84809487010161114c565b8152019201916103c1565b8780fd5b8580fd5b6020809161049e84610ff0565b81520191019061035b565b5034610224576020366003190112610224576104c3611c4f565b506104cc6122d0565b506040516328c44a9960e21b815260048035908201529080826024817f00000000000000000000000000000000000000000000000000000000000000006001600160a01b03165afa9182156105a8578192610584575b5060208201517f00000000000000000000000000000000000000000000000000000000000000000361057557610444610569610120840151602080825183010191016115da565b604051918291826112a2565b635527981560e11b8152600490fd5b6105a19192503d8084833e61059981836110da565b81019061232e565b905f610522565b50604051903d90823e3d90fd5b506060366003190112610224576004356001600160401b038111610458576105e46105f69136906004016111ea565b91906105ee610fc6565b923691611116565b6105fe612298565b61061160208251830101602083016115da565b9061061b826125c5565b60808201928492835b855180518610156106625785610639916124b7565b51810180911161064e57600190940193610624565b634e487b7160e01b87526011600452602487fd5b50869386918034036108d95750849391849182936060604087019601945b86518051821015610727576001600160a01b039061069f9083906124b7565b51166106ac8286516124b7565b51906106b98389516124b7565b51813b156104895787916106e791604051948580948193631dc8160b60e01b835230903390600485016124cb565b03925af190811561071c578691610703575b5050600101610680565b8161070d916110da565b6107185784896106f9565b8480fd5b6040513d88823e3d90fd5b505091506001600160401b0360405192610740846110bf565b33845216602083015260016040830152604435606083015260808201528160a082015260206040516107718161106d565b7f000000000000000000000000000000000000000000000000000000000000000081528181019283526040518093819263f17325e760e01b8352846004840152516024830152516040604483015260018060a01b0381511660648301526001600160401b03848201511660848301526040810151151560a4830152606081015160c483015260a0610812608083015160c060e486015261012485019061101a565b9101516101048301520381857f00000000000000000000000000000000000000000000000000000000000000006001600160a01b03165af19081156108ce57829161089b575b50602091817f8f7f2dbafd79125e808bf16a53d7fa4e17b8b6374ced76d946a45f94b7bf4d06339280a360015f5160206126285f395f51905f5255604051908152f35b90506020813d6020116108c6575b816108b6602093836110da565b8101031261045857516020610858565b3d91506108a9565b6040513d84823e3d90fd5b630626ade360e41b865260045234602452604485fd5b50604036600319011261022457600435906001600160401b0382116102245760a0600319833603011261022457602061095761094284610950610930610fc6565b9160405193849160040187830161140a565b03601f1981018452836110da565b3391611e4c565b604051908152f35b602061021a61096d3661119a565b926109799291926124f9565b6117ed565b50346102245761044461099961099336611004565b90611891565b60405191829160208352602083019061101a565b503461022457602036600319011261022457600435906001600160401b038211610224576109e66109e1366004850161114c565b6117c4565b604080516001600160a01b0390931683526020830181905282916104449183019061101a565b5034610c30576020366003190112610c305760043590610a2a612298565b610a3382612409565b9160208301517f0000000000000000000000000000000000000000000000000000000000000000809103610c4357606084016001600160401b0381511615610c3457516001600160401b03164210610c34576040517f00000000000000000000000000000000000000000000000000000000000000006001600160a01b031690610abc8161106d565b8381525f602082015260405192610ad28461106d565b83526020830152803b15610c3057604051634692626760e01b815282516004820152602092830151805160248301529092015160448301525f908290606490829084905af19081610c1b575b50610b365763614cf93960e01b825260045260249150fd5b5090610b5f6101208201519160c060018060a01b039101511691602080825183010191016115da565b90610b69826125c5565b6040820191606001835b83518051821015610bff5785906001600160a01b0390610b949084906124b7565b5116610ba18385516124b7565b5190803b1561022757610bd18392918392604051948580948193638b9d453960e01b83528c3091600485016124cb565b03925af180156108ce57610bea575b5050600101610b73565b81610bf4916110da565b61071857845f610be0565b60015f5160206126285f395f51905f5255602060405160018152f35b610c289193505f906110da565b5f915f610b1e565b5f80fd5b637bf6a16f60e01b5f5260045ffd5b63629cd40b60e11b5f5260045ffd5b34610c30575f366003190112610c3057606080604051610c718161103e565b5f81525f60208201525f604082015201526040516351753e3760e11b81527f000000000000000000000000000000000000000000000000000000000000000060048201525f8160248160018060a01b037f0000000000000000000000000000000000000000000000000000000000000000165afa8015610de8575f90610d38575b606090610444604051928392602084528051602085015260018060a01b0360208201511660408501526040810151151582850152015160808084015260a083019061101a565b503d805f833e610d4881836110da565b810190602081830312610c30578051906001600160401b038211610c305701608081830312610c305760405190610d7e8261103e565b8051825260208101516001600160a01b0381168103610c30576020830152610da860408201611552565b60408301526060810151906001600160401b038211610c30570182601f82011215610c3057606092816020610ddf9351910161155f565b82820152610cf2565b6040513d5f823e3d90fd5b34610c30575f366003190112610c305760206040517f00000000000000000000000000000000000000000000000000000000000000008152f35b34610c30575f366003190112610c305761044460206109996001610e707f000000000000000000000000000000000000000000000000000000000000000061212b565b8184610e9b7f000000000000000000000000000000000000000000000000000000000000000061212b565b8180610ec67f000000000000000000000000000000000000000000000000000000000000000061212b565b9260405199878b985191829101848a015e870190601760f91b83830152805192839101602183015e010190601760f91b84830152805192839101600283015e01015f838201520301601f1981018352826110da565b34610c30575f366003190112610c3057602060405160328152f35b34610c3057610f4761099336611004565b50602060405160018152f35b6060366003190112610c30576004356001600160401b038111610c305760a06003198236030112610c3057610f86610fc6565b604435906001600160a01b0382168203610c305783610fc1602095610fb36109579660040188830161140a565b03601f1981018352826110da565b611e4c565b602435906001600160401b0382168203610c3057565b35906001600160401b0382168203610c3057565b35906001600160a01b0382168203610c3057565b6040906003190112610c30576004359060243590565b805180835260209291819084018484015e5f828201840152601f01601f1916010190565b608081019081106001600160401b0382111761105957604052565b634e487b7160e01b5f52604160045260245ffd5b604081019081106001600160401b0382111761105957604052565b60a081019081106001600160401b0382111761105957604052565b61014081019081106001600160401b0382111761105957604052565b60c081019081106001600160401b0382111761105957604052565b90601f801991011681019081106001600160401b0382111761105957604052565b6001600160401b03811161105957601f01601f191660200190565b929192611122826110fb565b9161113060405193846110da565b829481845281830111610c30578281602093845f960137010152565b9080601f83011215610c305781602061116793359101611116565b90565b9181601f84011215610c30578235916001600160401b038311610c30576020808501948460051b010111610c3057565b6040600319820112610c30576004356001600160401b038111610c3057816111c49160040161116a565b92909291602435906001600160401b038211610c30576111e69160040161116a565b9091565b9181601f84011215610c30578235916001600160401b038311610c305760208381860195010111610c3057565b9080602083519182815201916020808360051b8301019401925f915b83831061124257505050505090565b9091929394602080611260600193601f19868203018752895161101a565b97019301930191939290611233565b90602080835192838152019201905f5b81811061128c5750505090565b825184526020938401939092019160010161127f565b602080825282516001600160a01b03168183015282015160a06040830152909291906112d29060c085019061101a565b92604082015193601f19828203016060830152602080865192838152019501905f5b81811061133257505050608061131d61116794956060850151601f198583030184860152611217565b9201519060a0601f198285030191015261126f565b82516001600160a01b03168752602096870196909201916001016112f4565b6020600319820112610c3057600435906001600160401b038211610c3057610140908290036003190112610c305760040190565b9035601e1982360301811215610c305701602081359101916001600160401b038211610c30578136038313610c3057565b908060209392818452848401375f828201840152601f01601f1916010190565b9035601e1982360301811215610c305701602081359101916001600160401b038211610c30578160051b36038313610c3057565b602081526001600160a01b0361141f83610ff0565b1660208201526114466114356020840184611385565b60a0604085015260c08401916113b6565b91602061145660408301836113d6565b848603601f1901606086015280865294909101935f5b81811061152c5750505061148360608201826113d6565b601f19848603016080850152808552602085019460208260051b82010195835f925b8484106114f4575050505050508060806114c09201906113d6565b828403601f190160a09093019290925281835290916001600160fb1b038311610c305760209260051b809284830137010190565b90919293949760208061151c600193601f198682030188526115168d88611385565b906113b6565b9a019401940192949391906114a5565b909194602080600192838060a01b036115448a610ff0565b16815201960192910161146c565b51908115158203610c3057565b92919261156b826110fb565b9161157960405193846110da565b829481845281830111610c30578281602093845f96015e010152565b51906001600160a01b0382168203610c3057565b9080601f83011215610c305781516111679260200161155f565b6001600160401b0381116110595760051b60200190565b602081830312610c30578051906001600160401b038211610c3057019060a082820312610c30576040519161160e83611088565b61161781611595565b835260208101516001600160401b038111610c3057826116389183016115a9565b602084015260408101516001600160401b038111610c3057810182601f82011215610c3057805190611669826115c3565b9161167760405193846110da565b80835260208084019160051b83010191858311610c3057602001905b8282106117ac57505050604084015260608101516001600160401b038111610c3057810182601f82011215610c305780516116cd816115c3565b916116db60405193846110da565b81835260208084019260051b82010191858311610c305760208201905b83821061177f575050505060608401526080810151906001600160401b038211610c3057019080601f83011215610c30578151611734816115c3565b9261174260405194856110da565b81845260208085019260051b820101928311610c3057602001905b82821061176f57505050608082015290565b815181526020918201910161175d565b81516001600160401b038111610c30576020916117a1898480948801016115a9565b8152019101906116f8565b602080916117b984611595565b815201910190611693565b6117d790602080825183010191016115da565b80516020909101516001600160a01b0390911691565b929092818403611882575f91345b858410156118775781841015611863578360051b80860135908282116118545784013561013e1985360301811215610c305761183890850161253a565b1561184957600191039301926117fb565b505050505050505f90565b63044044a560e21b5f5260045ffd5b634e487b7160e01b5f52603260045260245ffd5b505050505050600190565b63251f56a160e21b5f5260045ffd5b9061189a612298565b5f926118a583612409565b6118ae83612409565b9060208101517f0000000000000000000000000000000000000000000000000000000000000000809103610c43576118e582612553565b15610c43576101208201916118fa83516117c4565b60a08601918251845103611c065761191187612553565b15611c06578660209360c0936119f06101209751916119de604051998a988997889763e6c9714d60e01b8952606060048a0152815160648a01528c82015160848a01526001600160401b0360408301511660a48a01526001600160401b0360608301511660c48a01526001600160401b0360808301511660e48a015251610104890152019d8e60018060a01b0390511661012488015260018060a01b0360e082015116610144880152610100810151151561016488015201516101406101848701526101a486019061101a565b8481036003190160248601529061101a565b604483019190915203916001600160a01b03165afa908115610de8575f91611c15575b5015611c06576040517f00000000000000000000000000000000000000000000000000000000000000006001600160a01b031690611a508161106d565b8781525f602082015260405192611a668461106d565b83526020830152803b15610c3057604051634692626760e01b815282516004820152602092830151805160248301529092015160448301525f908290606490829084905af19081611bf1575b50611acb5763614cf93960e01b86526004859052602486fd5b9390939291925192611af060018060a01b0386511694602080825183010191016115da565b94611afa866125c5565b604086019560600193875b87518051821015611b945789906001600160a01b0390611b269084906124b7565b5116611b338389516124b7565b5190803b1561022757611b629183918b83604051809681958294631a6a589360e01b84523091600485016124cb565b03925af180156108ce57611b7b575b5050600101611b05565b81611b85916110da565b611b9057885f611b71565b8880fd5b5050935094509492507ff96e77bc177ae8e2ff25185e7c6d85f8ba97c8bdd9d46933aac70a7a33edf6c060405194611bcd6020876110da565b848652516001600160a01b03169380a49060015f5160206126285f395f51905f5255565b611bfe9197505f906110da565b5f955f611ab2565b630ebe58ef60e11b5f5260045ffd5b90506020813d602011611c47575b81611c30602093836110da565b81010312610c3057611c4190611552565b5f611a13565b3d9150611c23565b60405190611c5c82611088565b60606080835f815282602082015282604082015282808201520152565b60206040818301928281528451809452019201905f5b818110611c9c5750505090565b82516001600160a01b0316845260209384019390920191600101611c8f565b60208101517f000000000000000000000000000000000000000000000000000000000000000003611e4657611d01610120611d11920151602080825183010191016115da565b91602080825183010191016115da565b815181516001600160a01b039081169116149182611e25575b82611de2575b82611d8f575b82611d4057505090565b6080919250810151604051611d6581610fb3602082019460208652604083019061126f565b519020910151604051611d8881610fb3602082019460208652604083019061126f565b5190201490565b91506060820151604051611db381610fb36020820194602086526040830190611217565b5190206060820151604051611dd881610fb36020820194602086526040830190611217565b5190201491611d36565b91506040820151604051611dfe81610fb3602082019485611c79565b5190206040820151604051611e1b81610fb3602082019485611c79565b5190201491611d30565b91506020820151602081519101206020820151602081519101201491611d2a565b50505f90565b929190611e57612298565b611e6a60208551860101602086016115da565b90611e74826125c5565b5f5f9560808401915b82518051891015611ebb5788611e92916124b7565b518101809111611ea757600190970196611e7d565b634e487b7160e01b5f52601160045260245ffd5b509093965094919493909380340361211557506060860195604001945f5b86518051821015611f6b576001600160a01b0390611ef89083906124b7565b511690611f068188516124b7565b5191611f13828b516124b7565b51813b15610c30575f91611f4191604051958680948193631dc8160b60e01b835230903390600485016124cb565b03925af1918215610de857600192611f5b575b5001611ed9565b5f611f65916110da565b5f611f54565b50509350935093506001600160401b0360405193611f88856110bf565b60018060a01b031692838552166020840152600160408401525f606084015260808301525f60a08301526020604051611fc08161106d565b7f000000000000000000000000000000000000000000000000000000000000000081528181019384526040518094819263f17325e760e01b8352846004840152516024830152516040604483015260018060a01b0381511660648301526001600160401b03848201511660848301526040810151151560a4830152606081015160c483015260a0612061608083015160c060e486015261012485019061101a565b91015161010483015203815f7f00000000000000000000000000000000000000000000000000000000000000006001600160a01b03165af1918215610de8575f926120e1575b50817f8f7f2dbafd79125e808bf16a53d7fa4e17b8b6374ced76d946a45f94b7bf4d065f80a39060015f5160206126285f395f51905f5255565b9091506020813d60201161210d575b816120fd602093836110da565b81010312610c305751905f6120a7565b3d91506120f0565b630626ade360e41b5f526004523460245260445ffd5b805f9172184f03e93ff9f4daa797ed6e38ed64bf6a1f0160401b821015612275575b806d04ee2d6d415b85acef8100000000600a92101561225a575b662386f26fc10000811015612246575b6305f5e100811015612235575b612710811015612226575b6064811015612218575b101561220d575b600a602160018401936121b2856110fb565b946121c060405196876110da565b8086526121cf601f19916110fb565b013660208701378401015b5f1901916f181899199a1a9b1b9c1cb0b131b232b360811b8282061a835304801561220857600a90916121da565b505090565b6001909101906121a0565b606460029104930192612199565b6127106004910493019261218f565b6305f5e10060089104930192612184565b662386f26fc1000060109104930192612177565b6d04ee2d6d415b85acef810000000060209104930192612167565b506040915072184f03e93ff9f4daa797ed6e38ed64bf6a1f0160401b810461214d565b60025f5160206126285f395f51905f5254146122c15760025f5160206126285f395f51905f5255565b633ee5aeb560e01b5f5260045ffd5b604051906122dd826110a3565b6060610120835f81525f60208201525f60408201525f838201525f60808201525f60a08201525f60c08201525f60e08201525f6101008201520152565b51906001600160401b0382168203610c3057565b602081830312610c30578051906001600160401b038211610c30570161014081830312610c305760405191612362836110a3565b815183526020820151602084015261237c6040830161231a565b604084015261238d6060830161231a565b606084015261239e6080830161231a565b608084015260a082015160a08401526123b960c08301611595565b60c08401526123ca60e08301611595565b60e08401526123dc6101008301611552565b6101008401526101208201516001600160401b038111610c305761240092016115a9565b61012082015290565b906124126122d0565b506040516328c44a9960e21b815260048101839052915f836024817f00000000000000000000000000000000000000000000000000000000000000006001600160a01b03165afa928315610de8575f9361249b575b508251818115918215612490575b505061247e5750565b6301fb6dd160e01b5f5260045260245ffd5b14159050815f612475565b6124b09193503d805f833e61059981836110da565b915f612467565b80518210156118635760209160051b010190565b9193926124e260409260608552606085019061101a565b6001600160a01b0395861660208501529416910152565b7f00000000000000000000000000000000000000000000000000000000000000006001600160a01b0316330361252b57565b634ca8886760e01b5f5260045ffd5b60e0013560018060a01b038116809103610c3057301490565b8051156125b6576001600160401b0360608201511680151590816125ab575b5061259c57608001516001600160401b031661258d57600190565b637b6227e960e11b5f5260045ffd5b631ab7da6b60e01b5f5260045ffd5b90504210155f612572565b635c2c7f8960e01b5f5260045ffd5b6040810190815151606082015151811491821592612617575b5050612608575151603281116125f15750565b630e9407b360e11b5f52600452603260245260445ffd5b63512509d360e11b5f5260045ffd5b6080015151141590505f806125de56fe9b779b17422d0df92223018b32b4d1fa46e071723d6817e2486d003becc55f00a2646970667358221220c61cef85cc88e49c489dcee2b136cf3d23b4816b24c440d2e3d293900d2fa48164736f6c634300081b0033",
    "linkReferences": {}
  },
  "methodIdentifiers": {
    "ATTESTATION_SCHEMA()": "5bf2f20d",
    "MAX_HOOKS()": "4fa4467c",
    "attest((bytes32,bytes32,uint64,uint64,uint64,bytes32,address,address,bool,bytes))": "e60c3505",
    "checkObligation((bytes32,bytes32,uint64,uint64,uint64,bytes32,address,address,bool,bytes),bytes,bytes32)": "e6c9714d",
    "collectEscrow(bytes32,bytes32)": "2c713cd9",
    "collectEscrowRaw(bytes32,bytes32)": "891d9ea8",
    "decodeObligationData(bytes)": "c93844be",
    "doObligation((address,bytes,address[],bytes[],uint256[]),uint64)": "93abe3dc",
    "doObligationFor((address,bytes,address[],bytes[],uint256[]),uint64,address)": "06920f96",
    "doObligationRaw(bytes,uint64,bytes32)": "b3b902d4",
    "extractArbiterAndDemand(bytes)": "8371ef59",
    "getObligationData(bytes32)": "c6ec5070",
    "getSchema()": "6b122fe0",
    "isPayable()": "ce46e046",
    "multiAttest((bytes32,bytes32,uint64,uint64,uint64,bytes32,address,address,bool,bytes)[],uint256[])": "91db0b7e",
    "multiRevoke((bytes32,bytes32,uint64,uint64,uint64,bytes32,address,address,bool,bytes)[],uint256[])": "88e5b2d9",
    "reclaimExpired(bytes32)": "7d2c2931",
    "revoke((bytes32,bytes32,uint64,uint64,uint64,bytes32,address,address,bool,bytes))": "e49617e1",
    "version()": "54fd4d50"
  },
  "id": 101
}