{
  "abi": [
    {
      "type": "constructor",
      "inputs": [
        {
          "name": "_eas",
          "type": "address",
          "internalType": "contract IEAS"
        },
        {
          "name": "_escrowObligation",
          "type": "address",
          "internalType": "contract NativeTokenEscrowObligation"
        }
      ],
      "stateMutability": "nonpayable"
    },
    {
      "type": "receive",
      "stateMutability": "payable"
    },
    {
      "type": "function",
      "name": "EXECUTOR_SENTINEL",
      "inputs": [],
      "outputs": [
        {
          "name": "",
          "type": "address",
          "internalType": "address"
        }
      ],
      "stateMutability": "view"
    },
    {
      "type": "function",
      "name": "MAX_SPLITS",
      "inputs": [],
      "outputs": [
        {
          "name": "",
          "type": "uint256",
          "internalType": "uint256"
        }
      ],
      "stateMutability": "view"
    },
    {
      "type": "function",
      "name": "activeSettlement",
      "inputs": [],
      "outputs": [
        {
          "name": "",
          "type": "bytes32",
          "internalType": "bytes32"
        }
      ],
      "stateMutability": "view"
    },
    {
      "type": "function",
      "name": "arbitrate",
      "inputs": [
        {
          "name": "fulfillment",
          "type": "bytes32",
          "internalType": "bytes32"
        },
        {
          "name": "escrow",
          "type": "bytes32",
          "internalType": "bytes32"
        },
        {
          "name": "splits",
          "type": "tuple[]",
          "internalType": "struct NativeTokenSplitter.Split[]",
          "components": [
            {
              "name": "recipient",
              "type": "address",
              "internalType": "address"
            },
            {
              "name": "amount",
              "type": "uint256",
              "internalType": "uint256"
            }
          ]
        }
      ],
      "outputs": [],
      "stateMutability": "nonpayable"
    },
    {
      "type": "function",
      "name": "check",
      "inputs": [
        {
          "name": "fulfillment",
          "type": "tuple",
          "internalType": "struct Attestation",
          "components": [
            {
              "name": "uid",
              "type": "bytes32",
              "internalType": "bytes32"
            },
            {
              "name": "schema",
              "type": "bytes32",
              "internalType": "bytes32"
            },
            {
              "name": "time",
              "type": "uint64",
              "internalType": "uint64"
            },
            {
              "name": "expirationTime",
              "type": "uint64",
              "internalType": "uint64"
            },
            {
              "name": "revocationTime",
              "type": "uint64",
              "internalType": "uint64"
            },
            {
              "name": "refUID",
              "type": "bytes32",
              "internalType": "bytes32"
            },
            {
              "name": "recipient",
              "type": "address",
              "internalType": "address"
            },
            {
              "name": "attester",
              "type": "address",
              "internalType": "address"
            },
            {
              "name": "revocable",
              "type": "bool",
              "internalType": "bool"
            },
            {
              "name": "data",
              "type": "bytes",
              "internalType": "bytes"
            }
          ]
        },
        {
          "name": "demand",
          "type": "bytes",
          "internalType": "bytes"
        },
        {
          "name": "escrow",
          "type": "bytes32",
          "internalType": "bytes32"
        }
      ],
      "outputs": [
        {
          "name": "",
          "type": "bool",
          "internalType": "bool"
        }
      ],
      "stateMutability": "view"
    },
    {
      "type": "function",
      "name": "collectAndDistribute",
      "inputs": [
        {
          "name": "escrow",
          "type": "bytes32",
          "internalType": "bytes32"
        },
        {
          "name": "fulfillment",
          "type": "bytes32",
          "internalType": "bytes32"
        }
      ],
      "outputs": [],
      "stateMutability": "nonpayable"
    },
    {
      "type": "function",
      "name": "createFulfillment",
      "inputs": [
        {
          "name": "obligationContract",
          "type": "address",
          "internalType": "address"
        },
        {
          "name": "data",
          "type": "bytes",
          "internalType": "bytes"
        },
        {
          "name": "expirationTime",
          "type": "uint64",
          "internalType": "uint64"
        },
        {
          "name": "refUID",
          "type": "bytes32",
          "internalType": "bytes32"
        }
      ],
      "outputs": [
        {
          "name": "fulfillmentUid",
          "type": "bytes32",
          "internalType": "bytes32"
        }
      ],
      "stateMutability": "payable"
    },
    {
      "type": "function",
      "name": "decodeDemandData",
      "inputs": [
        {
          "name": "data",
          "type": "bytes",
          "internalType": "bytes"
        }
      ],
      "outputs": [
        {
          "name": "",
          "type": "tuple",
          "internalType": "struct NativeTokenSplitter.DemandData",
          "components": [
            {
              "name": "oracle",
              "type": "address",
              "internalType": "address"
            },
            {
              "name": "data",
              "type": "bytes",
              "internalType": "bytes"
            }
          ]
        }
      ],
      "stateMutability": "pure"
    },
    {
      "type": "function",
      "name": "eas",
      "inputs": [],
      "outputs": [
        {
          "name": "",
          "type": "address",
          "internalType": "contract IEAS"
        }
      ],
      "stateMutability": "view"
    },
    {
      "type": "function",
      "name": "escrowObligation",
      "inputs": [],
      "outputs": [
        {
          "name": "",
          "type": "address",
          "internalType": "contract IEscrow"
        }
      ],
      "stateMutability": "view"
    },
    {
      "type": "function",
      "name": "fulfillers",
      "inputs": [
        {
          "name": "",
          "type": "bytes32",
          "internalType": "bytes32"
        }
      ],
      "outputs": [
        {
          "name": "",
          "type": "address",
          "internalType": "address"
        }
      ],
      "stateMutability": "view"
    },
    {
      "type": "function",
      "name": "getSplits",
      "inputs": [
        {
          "name": "oracle",
          "type": "address",
          "internalType": "address"
        },
        {
          "name": "fulfillment",
          "type": "bytes32",
          "internalType": "bytes32"
        },
        {
          "name": "escrow",
          "type": "bytes32",
          "internalType": "bytes32"
        }
      ],
      "outputs": [
        {
          "name": "",
          "type": "tuple[]",
          "internalType": "struct NativeTokenSplitter.Split[]",
          "components": [
            {
              "name": "recipient",
              "type": "address",
              "internalType": "address"
            },
            {
              "name": "amount",
              "type": "uint256",
              "internalType": "uint256"
            }
          ]
        }
      ],
      "stateMutability": "view"
    },
    {
      "type": "function",
      "name": "hasDecision",
      "inputs": [
        {
          "name": "",
          "type": "address",
          "internalType": "address"
        },
        {
          "name": "",
          "type": "bytes32",
          "internalType": "bytes32"
        }
      ],
      "outputs": [
        {
          "name": "",
          "type": "bool",
          "internalType": "bool"
        }
      ],
      "stateMutability": "view"
    },
    {
      "type": "function",
      "name": "requestArbitration",
      "inputs": [
        {
          "name": "_fulfillment",
          "type": "bytes32",
          "internalType": "bytes32"
        },
        {
          "name": "_escrow",
          "type": "bytes32",
          "internalType": "bytes32"
        },
        {
          "name": "oracle",
          "type": "address",
          "internalType": "address"
        },
        {
          "name": "demand",
          "type": "bytes",
          "internalType": "bytes"
        }
      ],
      "outputs": [],
      "stateMutability": "nonpayable"
    },
    {
      "type": "function",
      "name": "supportsInterface",
      "inputs": [
        {
          "name": "interfaceId",
          "type": "bytes4",
          "internalType": "bytes4"
        }
      ],
      "outputs": [
        {
          "name": "",
          "type": "bool",
          "internalType": "bool"
        }
      ],
      "stateMutability": "view"
    },
    {
      "type": "function",
      "name": "unsafePartiallyCollectAndDistribute",
      "inputs": [
        {
          "name": "escrow",
          "type": "bytes32",
          "internalType": "bytes32"
        },
        {
          "name": "fulfillment",
          "type": "bytes32",
          "internalType": "bytes32"
        }
      ],
      "outputs": [],
      "stateMutability": "nonpayable"
    },
    {
      "type": "event",
      "name": "ArbitrationMade",
      "inputs": [
        {
          "name": "decisionKey",
          "type": "bytes32",
          "indexed": true,
          "internalType": "bytes32"
        },
        {
          "name": "fulfillmentUid",
          "type": "bytes32",
          "indexed": true,
          "internalType": "bytes32"
        },
        {
          "name": "oracle",
          "type": "address",
          "indexed": true,
          "internalType": "address"
        },
        {
          "name": "splits",
          "type": "tuple[]",
          "indexed": false,
          "internalType": "struct NativeTokenSplitter.Split[]",
          "components": [
            {
              "name": "recipient",
              "type": "address",
              "internalType": "address"
            },
            {
              "name": "amount",
              "type": "uint256",
              "internalType": "uint256"
            }
          ]
        }
      ],
      "anonymous": false
    },
    {
      "type": "event",
      "name": "ArbitrationRequested",
      "inputs": [
        {
          "name": "fulfillment",
          "type": "bytes32",
          "indexed": true,
          "internalType": "bytes32"
        },
        {
          "name": "escrow",
          "type": "bytes32",
          "indexed": true,
          "internalType": "bytes32"
        },
        {
          "name": "oracle",
          "type": "address",
          "indexed": true,
          "internalType": "address"
        },
        {
          "name": "demand",
          "type": "bytes",
          "indexed": false,
          "internalType": "bytes"
        }
      ],
      "anonymous": false
    },
    {
      "type": "event",
      "name": "EscrowCollectedAndDistributed",
      "inputs": [
        {
          "name": "escrowUid",
          "type": "bytes32",
          "indexed": true,
          "internalType": "bytes32"
        },
        {
          "name": "fulfillmentUid",
          "type": "bytes32",
          "indexed": true,
          "internalType": "bytes32"
        },
        {
          "name": "fulfiller",
          "type": "address",
          "indexed": true,
          "internalType": "address"
        },
        {
          "name": "splits",
          "type": "tuple[]",
          "indexed": false,
          "internalType": "struct NativeTokenSplitter.Split[]",
          "components": [
            {
              "name": "recipient",
              "type": "address",
              "internalType": "address"
            },
            {
              "name": "amount",
              "type": "uint256",
              "internalType": "uint256"
            }
          ]
        }
      ],
      "anonymous": false
    },
    {
      "type": "event",
      "name": "FulfillmentCreated",
      "inputs": [
        {
          "name": "fulfillmentUid",
          "type": "bytes32",
          "indexed": true,
          "internalType": "bytes32"
        },
        {
          "name": "fulfiller",
          "type": "address",
          "indexed": true,
          "internalType": "address"
        },
        {
          "name": "obligationContract",
          "type": "address",
          "indexed": true,
          "internalType": "address"
        }
      ],
      "anonymous": false
    },
    {
      "type": "event",
      "name": "NativeTransferFailedOnDistribute",
      "inputs": [
        {
          "name": "recipient",
          "type": "address",
          "indexed": true,
          "internalType": "address"
        },
        {
          "name": "amount",
          "type": "uint256",
          "indexed": false,
          "internalType": "uint256"
        }
      ],
      "anonymous": false
    },
    {
      "type": "error",
      "name": "AttestationRevoked",
      "inputs": []
    },
    {
      "type": "error",
      "name": "DeadlineExpired",
      "inputs": []
    },
    {
      "type": "error",
      "name": "EmptySplits",
      "inputs": []
    },
    {
      "type": "error",
      "name": "FulfillerAlreadyRecorded",
      "inputs": [
        {
          "name": "fulfillment",
          "type": "bytes32",
          "internalType": "bytes32"
        }
      ]
    },
    {
      "type": "error",
      "name": "InvalidAttestationUid",
      "inputs": []
    },
    {
      "type": "error",
      "name": "InvalidCollectedAmount",
      "inputs": [
        {
          "name": "expected",
          "type": "uint256",
          "internalType": "uint256"
        },
        {
          "name": "actual",
          "type": "uint256",
          "internalType": "uint256"
        }
      ]
    },
    {
      "type": "error",
      "name": "InvalidCreatedFulfillment",
      "inputs": [
        {
          "name": "fulfillment",
          "type": "bytes32",
          "internalType": "bytes32"
        }
      ]
    },
    {
      "type": "error",
      "name": "InvalidEscrowAttestation",
      "inputs": []
    },
    {
      "type": "error",
      "name": "InvalidFulfillmentRecipient",
      "inputs": []
    },
    {
      "type": "error",
      "name": "InvalidFulfillmentUid",
      "inputs": []
    },
    {
      "type": "error",
      "name": "InvalidSplits",
      "inputs": [
        {
          "name": "totalExpected",
          "type": "uint256",
          "internalType": "uint256"
        },
        {
          "name": "totalProvided",
          "type": "uint256",
          "internalType": "uint256"
        }
      ]
    },
    {
      "type": "error",
      "name": "NativeTokenTransferFailed",
      "inputs": [
        {
          "name": "to",
          "type": "address",
          "internalType": "address"
        },
        {
          "name": "amount",
          "type": "uint256",
          "internalType": "uint256"
        }
      ]
    },
    {
      "type": "error",
      "name": "NoFulfillerRecorded",
      "inputs": [
        {
          "name": "fulfillment",
          "type": "bytes32",
          "internalType": "bytes32"
        }
      ]
    },
    {
      "type": "error",
      "name": "ReentrancyGuardReentrantCall",
      "inputs": []
    },
    {
      "type": "error",
      "name": "TooManySplits",
      "inputs": [
        {
          "name": "provided",
          "type": "uint256",
          "internalType": "uint256"
        },
        {
          "name": "max",
          "type": "uint256",
          "internalType": "uint256"
        }
      ]
    },
    {
      "type": "error",
      "name": "UnauthorizedArbitrationRequest",
      "inputs": []
    },
    {
      "type": "error",
      "name": "UnauthorizedPartialSettlement",
      "inputs": [
        {
          "name": "fulfillment",
          "type": "bytes32",
          "internalType": "bytes32"
        },
        {
          "name": "caller",
          "type": "address",
          "internalType": "address"
        }
      ]
    }
  ],
  "bytecode": {
    "object": "0x60a0346100c257601f6118d938819003918201601f19168301916001600160401b038311848410176100c65780849260409485528339810103126100c25780516001600160a01b03811691908290036100c257602001516001600160a01b03811691908290036100c25760017f9b779b17422d0df92223018b32b4d1fa46e071723d6817e2486d003becc55f00555f80546001600160a01b0319169190911790556080526040516117fe90816100db82396080518181816103c4015261141c0152f35b5f80fd5b634e487b7160e01b5f52604160045260245ffdfe608080604052600436101561001c575b50361561001a575f80fd5b005b5f3560e01c90816301ffc9a714610ef4575080632257c0e314610e3257806339fcc92b14610e155780633de93b3814610d315780634e2d3b1214610cff5780635123666d146109d45780638150864d146109ad578063838a68d9146108d157806386314b0d146107b15780638da3721a14610635578063a1a80488146105ec578063b48210ca146105d1578063c880c06f146105b5578063d1be3507146103f3578063d43a0c93146103af5763ed7180e3146100d8575f61000f565b60803660031901126103a3576100ec610f47565b6024356001600160401b0381116103a35761010b903690600401610fd5565b604435906001600160401b0382168092036103a3576064359361012c611397565b604051632cee40b560e21b81526060600482015260648101839052946001600160a01b03919091169390828260848801375f60848488010152836024870152806044870152602086608481601f19601f880116810103018134895af195861561035d575f96610377575b508515610368575f80546040516328c44a9960e21b815260048101899052929190839060249082906001600160a01b03165afa91821561035d575f92610339575b508682511494851595610321575b8515610309575b85156102f1575b5084156102e2575b5083156102b7575b5050506102a4575f828152600360205260409020546001600160a01b031661029157816020925f526003835260405f2060018060a01b0333166bffffffffffffffffffffffff60a01b8254161790556040519133827ff845579b2e96200541b4e2b438fbb65e772b70ac68265030aa16f6d8e16501d95f80a460015f5160206117a95f395f51905f52558152f35b5063aa8904b160e01b5f5260045260245ffd5b5063f9d7a76560e01b5f5260045260245ffd5b6102d1929350610120015160208151910120923691611099565b6020815191012014155f8080610203565b60a0820151141593505f6101fb565b60608301516001600160401b0316141594505f6101f3565b60c08301516001600160a01b031630141595506101ec565b60e08301516001600160a01b031687141595506101e5565b6103569192503d805f833e61034e818361105d565b8101906111b2565b905f6101d7565b6040513d5f823e3d90fd5b6303acddcd60e41b5f5260045ffd5b9095506020813d6020116103a7575b816103936020938361105d565b810103126103a35751945f610196565b5f80fd5b3d9150610386565b346103a3575f3660031901126103a3576040517f00000000000000000000000000000000000000000000000000000000000000006001600160a01b03168152602090f35b346103a35761040136610fbf565b9061040a611397565b5f8281526003602052604080822054825491516328c44a9960e21b815260048101869052926001600160a01b0391821692909184916024918391165afa91821561035d575f92610599575b503314159081610581575b5061056a5761046f82826113cf565b5f838152600360205260408120546001600160a01b031693905b8251811015610520576001906001600160a01b036104b58785836104ad868a611101565b515116611733565b165f80808060206104c6878b611101565b510151855af16104d4611115565b50156104e2575b5001610489565b7f49883307846eabe1e4a9b4d7e3378305c6115c7df65c270a47f9f9cfe3ab69ad6020806105108589611101565b510151604051908152a2866104db565b5091906105547fc7918d6463b26dbfeb2ac95f43cbdd4fe5d152c0b6551bc1e9922bd1b1ac32879160405191829182610f71565b0390a460015f5160206117a95f395f51905f5255005b506345fbd31960e11b5f526004523360245260445ffd5b60e001516001600160a01b0316331415905083610460565b6105ae9192503d805f833e61034e818361105d565b9084610455565b346103a3575f3660031901126103a357602060405161eeee8152f35b346103a3575f3660031901126103a357602060405160328152f35b346103a35760403660031901126103a3576001600160a01b0361060d610f47565b165f52600160205260405f206024355f52602052602060ff60405f2054166040519015158152f35b346103a35760603660031901126103a3576004356001600160401b0381116103a35761014060031982360301126103a3576040519061067382611041565b8060040135825260248101356020830152610690604482016110ed565b60408301526106a1606482016110ed565b60608301526106b2608482016110ed565b608083015260a481013560a08301526106cd60c48201610f5d565b60c08301526106de60e48201610f5d565b60e083015261010481013580151581036103a357610100830152610124810135906001600160401b0382116103a357600461071c92369201016110cf565b6101208201526024356001600160401b0381116103a35761075f61074761076a9236906004016110cf565b61075084611784565b6020808251830101910161130e565b916044359051611371565b9081600254149081610784575b6020826040519015158152f35b905060018060a01b039051165f52600160205260405f20905f52602052602060ff60405f20541682610777565b346103a35760803660031901126103a3576044356001600160a01b03811690602435908290036103a3576064356001600160401b0381116103a3576107fa9036906004016110cf565b5f80546040516328c44a9960e21b8152600481018590529190829060249082906001600160a01b03165afa90811561035d575f916108b7575b5060e08101516001600160a01b0316331415908161089f575b50610890577f8c71f7964ccbceaff13fb1c085cf7491115c2bed4a6aca02c6c6208f08609b82604051602081528061088b600435946020830190611002565b0390a4005b63ff323ecb60e01b5f5260045ffd5b60c001516001600160a01b031633141590508461084c565b6108cb91503d805f833e61034e818361105d565b84610833565b346103a35760203660031901126103a3576004356001600160401b0381116103a357610901903690600401610fd5565b6060602060405161091181611026565b5f815201528101906020818303126103a3578035906001600160401b0382116103a357016040818303126103a3576040519161094c83611026565b61095582610f5d565b835260208201356001600160401b0381116103a35761097492016110cf565b90602081019182526109a96040519283926020845260018060a01b039051166020840152516040808401526060830190611002565b0390f35b346103a3575f3660031901126103a3575f546040516001600160a01b039091168152602090f35b346103a35760603660031901126103a3576044356024356004356001600160401b0383116103a357366023840112156103a3578260040135906001600160401b0382116103a3576024840193602436918460061b0101116103a3578015610368575f80546040516328c44a9960e21b8152600481018690529190829060249082906001600160a01b03165afa801561035d57610120610a89916040935f91610ce5575b5001516020808251830101910161128f565b01518215610cd65760328311610cbe575f905f5b848110610c9c5750808203610c8757505082610ab891611371565b90335f52600460205260405f20825f5260205260405f208054905f815581610c3c575b50505f5b818110610b825750335f52600160205260405f20825f5260205260405f20600160ff1982541617905560405190806020830160208452526040820194905f5b818110610b5257505050807fcb69e0d2c25bc3247c37f1a1b54a09e56f58301351ae8eeb49fb9750045ba7409133950390a4005b909195604080600192838060a01b03610b6a8b610f5d565b16815260208a81013590820152019701929101610b1e565b335f52600460205260405f20835f5260205260405f2090610ba4818488611774565b9180549068010000000000000000821015610c285760018201808255821015610c14575f5260205f209060011b0182359260018060a01b03841684036103a35781546001600160a01b0319166001600160a01b039094169390931781556020929092013560019283015501610adf565b634e487b7160e01b5f52603260045260245ffd5b634e487b7160e01b5f52604160045260245ffd5b6001600160ff1b0382168203610c73575f5260205f209060011b8101905b81811015610adb575f8082556001820155600201610c5a565b634e487b7160e01b5f52601160045260245ffd5b63ba660bff60e01b5f5260045260245260445ffd5b916020610caa84878a611774565b01358101809111610c735791600101610a9d565b8263b268613560e01b5f52600452603260245260445ffd5b63143160cf60e01b5f5260045ffd5b610cf991503d805f833e61034e818361105d565b88610a77565b346103a35760203660031901126103a3576004355f526003602052602060018060a01b0360405f205416604051908152f35b346103a357610d3f36610fbf565b90610d48611397565b610d5282826113cf565b5f838152600360205260408120549193916001600160a01b0316905b8451811015610de2576001600160a01b03610d8f8385836104ad868b611101565b165f8080806020610da0878c611101565b510151855af1610dae611115565b5015610dbd5750600101610d6e565b6020610dc98388611101565b510151906338f0620160e21b5f5260045260245260445ffd5b50917fc7918d6463b26dbfeb2ac95f43cbdd4fe5d152c0b6551bc1e9922bd1b1ac32876105548560405191829182610f71565b346103a3575f3660031901126103a3576020600254604051908152f35b346103a35760603660031901126103a3576001600160a01b03610e53610f47565b165f52600460205260405f20610e6d604435602435611371565b5f5260205260405f2080546001600160401b038111610c285760405191610e9a60208360051b018461105d565b81835260208301905f5260205f205f915b838310610ec057604051806109a98782610f71565b60026020600192604051610ed381611026565b848060a01b0386541681528486015483820152815201920192019190610eab565b346103a35760203660031901126103a3576004359063ffffffff60e01b82168092036103a3576020916346d1b90d60e11b8114908115610f36575b5015158152f35b6301ffc9a760e01b14905083610f2f565b600435906001600160a01b03821682036103a357565b35906001600160a01b03821682036103a357565b60206040818301928281528451809452019201905f5b818110610f945750505090565b825180516001600160a01b031685526020908101518186015260409094019390920191600101610f87565b60409060031901126103a3576004359060243590565b9181601f840112156103a3578235916001600160401b0383116103a357602083818601950101116103a357565b805180835260209291819084018484015e5f828201840152601f01601f1916010190565b604081019081106001600160401b03821117610c2857604052565b61014081019081106001600160401b03821117610c2857604052565b90601f801991011681019081106001600160401b03821117610c2857604052565b6001600160401b038111610c2857601f01601f191660200190565b9291926110a58261107e565b916110b3604051938461105d565b8294818452818301116103a3578281602093845f960137010152565b9080601f830112156103a3578160206110ea93359101611099565b90565b35906001600160401b03821682036103a357565b8051821015610c145760209160051b010190565b3d1561113f573d906111268261107e565b91611134604051938461105d565b82523d5f602084013e565b606090565b51906001600160401b03821682036103a357565b51906001600160a01b03821682036103a357565b81601f820112156103a3578051906111838261107e565b92611191604051948561105d565b828452602083830101116103a357815f9260208093018386015e8301015290565b6020818303126103a3578051906001600160401b0382116103a35701610140818303126103a357604051916111e683611041565b815183526020820151602084015261120060408301611144565b604084015261121160608301611144565b606084015261122260808301611144565b608084015260a082015160a084015261123d60c08301611158565b60c084015261124e60e08301611158565b60e084015261010082015180151581036103a3576101008401526101208201516001600160401b0381116103a357611286920161116c565b61012082015290565b6020818303126103a3578051906001600160401b0382116103a35701906060828203126103a35760405191606083018381106001600160401b03821117610c28576040526112dc81611158565b835260208101516001600160401b0381116103a3576040926112ff91830161116c565b60208401520151604082015290565b6020818303126103a3578051906001600160401b0382116103a357016040818303126103a3576040519161134183611026565b61134a82611158565b835260208201516001600160401b0381116103a357611369920161116c565b602082015290565b90604051906020820192835260408201526040815261139160608261105d565b51902090565b60025f5160206117a95f395f51905f5254146113c05760025f5160206117a95f395f51905f5255565b633ee5aeb560e01b5f5260045ffd5b5f80546040516328c44a9960e21b81526004810184905293949392916001600160a01b039091169083602481845afa92831561035d575f93611717575b5060e08301516001600160a01b037f0000000000000000000000000000000000000000000000000000000000000000811694911684148015906116b1575b6116a257805115611693576001600160401b036060820151168015159081611688575b50611679576001600160401b0360808201511661166a575f602492604051938480926328c44a9960e21b82528a60048301525afa90811561035d576114c0610120926114d1945f91611650575b50611784565b01516020808251830101910161128f565b9160208301516114f160018060a01b03916020808251830101910161130e565b51165f52600460205260405f206115088387611371565b5f5260205260405f2080546001600160401b038111610c28576040519161153560208360051b018461105d565b81835260208301905f5260205f205f915b83831061161c57505050505f9095604447946115628184611371565b600255836040519586948593633a9bb12760e21b8552600485015260248401525af1801561035d576115e2575b505f600255604047920151908083106115cb578203918211610c73578082036115b6575050565b631a3dba0360e31b5f5260045260245260445ffd5b50631a3dba0360e31b5f526004525f60245260445ffd5b3d805f833e6115f1818361105d565b81016020828203126103a35781516001600160401b0381116103a357611617920161116c565b61158f565b6002602060019260405161162f81611026565b848060a01b0386541681528486015483820152815201920192019190611546565b61166491503d805f833e61034e818361105d565b5f6114ba565b637b6227e960e11b5f5260045ffd5b631ab7da6b60e01b5f5260045ffd5b90504210155f61146d565b635c2c7f8960e01b5f5260045ffd5b63629cd40b60e11b5f5260045ffd5b50602081810151604051635bf2f20d60e01b81529182600481895afa91821561035d575f926116e3575b50141561144a565b9091506020813d60201161170f575b816116ff6020938361105d565b810103126103a35751905f6116db565b3d91506116f2565b61172c9193503d805f833e61034e818361105d565b915f61140c565b91906001600160a01b03831661eeee1461174c57505090565b9091506001600160a01b03821615611762575090565b6379c5a2db60e01b5f5260045260245ffd5b9190811015610c145760061b0190565b60c001516001600160a01b0316300361179957565b634672d00f60e01b5f5260045ffdfe9b779b17422d0df92223018b32b4d1fa46e071723d6817e2486d003becc55f00a264697066735822122053dbf31cf98ad666547260f94c19199c6a059b163003510e27887e08d217facb64736f6c634300081b0033",
    "linkReferences": {}
  },
  "methodIdentifiers": {
    "EXECUTOR_SENTINEL()": "c880c06f",
    "MAX_SPLITS()": "b48210ca",
    "activeSettlement()": "39fcc92b",
    "arbitrate(bytes32,bytes32,(address,uint256)[])": "5123666d",
    "check((bytes32,bytes32,uint64,uint64,uint64,bytes32,address,address,bool,bytes),bytes,bytes32)": "8da3721a",
    "collectAndDistribute(bytes32,bytes32)": "3de93b38",
    "createFulfillment(address,bytes,uint64,bytes32)": "ed7180e3",
    "decodeDemandData(bytes)": "838a68d9",
    "eas()": "8150864d",
    "escrowObligation()": "d43a0c93",
    "fulfillers(bytes32)": "4e2d3b12",
    "getSplits(address,bytes32,bytes32)": "2257c0e3",
    "hasDecision(address,bytes32)": "a1a80488",
    "requestArbitration(bytes32,bytes32,address,bytes)": "86314b0d",
    "supportsInterface(bytes4)": "01ffc9a7",
    "unsafePartiallyCollectAndDistribute(bytes32,bytes32)": "d1be3507"
  },
  "id": 93
}