{
  "abi": [
    {
      "type": "constructor",
      "inputs": [
        {
          "name": "_eas",
          "type": "address",
          "internalType": "contract IEAS"
        },
        {
          "name": "_escrowObligation",
          "type": "address",
          "internalType": "contract TokenBundleEscrowObligation"
        }
      ],
      "stateMutability": "nonpayable"
    },
    {
      "type": "receive",
      "stateMutability": "payable"
    },
    {
      "type": "function",
      "name": "EXECUTOR_SENTINEL",
      "inputs": [],
      "outputs": [
        {
          "name": "",
          "type": "address",
          "internalType": "address"
        }
      ],
      "stateMutability": "view"
    },
    {
      "type": "function",
      "name": "MAX_SPLITS",
      "inputs": [],
      "outputs": [
        {
          "name": "",
          "type": "uint256",
          "internalType": "uint256"
        }
      ],
      "stateMutability": "view"
    },
    {
      "type": "function",
      "name": "activeSettlement",
      "inputs": [],
      "outputs": [
        {
          "name": "",
          "type": "bytes32",
          "internalType": "bytes32"
        }
      ],
      "stateMutability": "view"
    },
    {
      "type": "function",
      "name": "arbitrate",
      "inputs": [
        {
          "name": "fulfillment",
          "type": "bytes32",
          "internalType": "bytes32"
        },
        {
          "name": "escrow",
          "type": "bytes32",
          "internalType": "bytes32"
        },
        {
          "name": "splits",
          "type": "tuple[]",
          "internalType": "struct TokenBundleSplitterBase.BundleSplit[]",
          "components": [
            {
              "name": "recipient",
              "type": "address",
              "internalType": "address"
            },
            {
              "name": "nativeAmount",
              "type": "uint256",
              "internalType": "uint256"
            },
            {
              "name": "erc20Amounts",
              "type": "uint256[]",
              "internalType": "uint256[]"
            },
            {
              "name": "erc721Indices",
              "type": "uint256[]",
              "internalType": "uint256[]"
            },
            {
              "name": "erc1155Amounts",
              "type": "uint256[]",
              "internalType": "uint256[]"
            }
          ]
        }
      ],
      "outputs": [],
      "stateMutability": "nonpayable"
    },
    {
      "type": "function",
      "name": "check",
      "inputs": [
        {
          "name": "fulfillment",
          "type": "tuple",
          "internalType": "struct Attestation",
          "components": [
            {
              "name": "uid",
              "type": "bytes32",
              "internalType": "bytes32"
            },
            {
              "name": "schema",
              "type": "bytes32",
              "internalType": "bytes32"
            },
            {
              "name": "time",
              "type": "uint64",
              "internalType": "uint64"
            },
            {
              "name": "expirationTime",
              "type": "uint64",
              "internalType": "uint64"
            },
            {
              "name": "revocationTime",
              "type": "uint64",
              "internalType": "uint64"
            },
            {
              "name": "refUID",
              "type": "bytes32",
              "internalType": "bytes32"
            },
            {
              "name": "recipient",
              "type": "address",
              "internalType": "address"
            },
            {
              "name": "attester",
              "type": "address",
              "internalType": "address"
            },
            {
              "name": "revocable",
              "type": "bool",
              "internalType": "bool"
            },
            {
              "name": "data",
              "type": "bytes",
              "internalType": "bytes"
            }
          ]
        },
        {
          "name": "demand",
          "type": "bytes",
          "internalType": "bytes"
        },
        {
          "name": "escrow",
          "type": "bytes32",
          "internalType": "bytes32"
        }
      ],
      "outputs": [
        {
          "name": "",
          "type": "bool",
          "internalType": "bool"
        }
      ],
      "stateMutability": "view"
    },
    {
      "type": "function",
      "name": "collectAndDistribute",
      "inputs": [
        {
          "name": "escrow",
          "type": "bytes32",
          "internalType": "bytes32"
        },
        {
          "name": "fulfillment",
          "type": "bytes32",
          "internalType": "bytes32"
        }
      ],
      "outputs": [],
      "stateMutability": "nonpayable"
    },
    {
      "type": "function",
      "name": "createFulfillment",
      "inputs": [
        {
          "name": "obligationContract",
          "type": "address",
          "internalType": "address"
        },
        {
          "name": "data",
          "type": "bytes",
          "internalType": "bytes"
        },
        {
          "name": "expirationTime",
          "type": "uint64",
          "internalType": "uint64"
        },
        {
          "name": "refUID",
          "type": "bytes32",
          "internalType": "bytes32"
        }
      ],
      "outputs": [
        {
          "name": "fulfillmentUid",
          "type": "bytes32",
          "internalType": "bytes32"
        }
      ],
      "stateMutability": "payable"
    },
    {
      "type": "function",
      "name": "decodeDemandData",
      "inputs": [
        {
          "name": "data",
          "type": "bytes",
          "internalType": "bytes"
        }
      ],
      "outputs": [
        {
          "name": "",
          "type": "tuple",
          "internalType": "struct TokenBundleSplitterBase.DemandData",
          "components": [
            {
              "name": "oracle",
              "type": "address",
              "internalType": "address"
            },
            {
              "name": "data",
              "type": "bytes",
              "internalType": "bytes"
            }
          ]
        }
      ],
      "stateMutability": "pure"
    },
    {
      "type": "function",
      "name": "eas",
      "inputs": [],
      "outputs": [
        {
          "name": "",
          "type": "address",
          "internalType": "contract IEAS"
        }
      ],
      "stateMutability": "view"
    },
    {
      "type": "function",
      "name": "escrowObligation",
      "inputs": [],
      "outputs": [
        {
          "name": "",
          "type": "address",
          "internalType": "contract IEscrow"
        }
      ],
      "stateMutability": "view"
    },
    {
      "type": "function",
      "name": "fulfillers",
      "inputs": [
        {
          "name": "",
          "type": "bytes32",
          "internalType": "bytes32"
        }
      ],
      "outputs": [
        {
          "name": "",
          "type": "address",
          "internalType": "address"
        }
      ],
      "stateMutability": "view"
    },
    {
      "type": "function",
      "name": "getSplits",
      "inputs": [
        {
          "name": "oracle",
          "type": "address",
          "internalType": "address"
        },
        {
          "name": "fulfillment",
          "type": "bytes32",
          "internalType": "bytes32"
        },
        {
          "name": "escrow",
          "type": "bytes32",
          "internalType": "bytes32"
        }
      ],
      "outputs": [
        {
          "name": "",
          "type": "tuple[]",
          "internalType": "struct TokenBundleSplitterBase.BundleSplit[]",
          "components": [
            {
              "name": "recipient",
              "type": "address",
              "internalType": "address"
            },
            {
              "name": "nativeAmount",
              "type": "uint256",
              "internalType": "uint256"
            },
            {
              "name": "erc20Amounts",
              "type": "uint256[]",
              "internalType": "uint256[]"
            },
            {
              "name": "erc721Indices",
              "type": "uint256[]",
              "internalType": "uint256[]"
            },
            {
              "name": "erc1155Amounts",
              "type": "uint256[]",
              "internalType": "uint256[]"
            }
          ]
        }
      ],
      "stateMutability": "view"
    },
    {
      "type": "function",
      "name": "hasDecision",
      "inputs": [
        {
          "name": "",
          "type": "address",
          "internalType": "address"
        },
        {
          "name": "",
          "type": "bytes32",
          "internalType": "bytes32"
        }
      ],
      "outputs": [
        {
          "name": "",
          "type": "bool",
          "internalType": "bool"
        }
      ],
      "stateMutability": "view"
    },
    {
      "type": "function",
      "name": "onERC1155BatchReceived",
      "inputs": [
        {
          "name": "",
          "type": "address",
          "internalType": "address"
        },
        {
          "name": "",
          "type": "address",
          "internalType": "address"
        },
        {
          "name": "",
          "type": "uint256[]",
          "internalType": "uint256[]"
        },
        {
          "name": "",
          "type": "uint256[]",
          "internalType": "uint256[]"
        },
        {
          "name": "",
          "type": "bytes",
          "internalType": "bytes"
        }
      ],
      "outputs": [
        {
          "name": "",
          "type": "bytes4",
          "internalType": "bytes4"
        }
      ],
      "stateMutability": "nonpayable"
    },
    {
      "type": "function",
      "name": "onERC1155Received",
      "inputs": [
        {
          "name": "",
          "type": "address",
          "internalType": "address"
        },
        {
          "name": "",
          "type": "address",
          "internalType": "address"
        },
        {
          "name": "",
          "type": "uint256",
          "internalType": "uint256"
        },
        {
          "name": "",
          "type": "uint256",
          "internalType": "uint256"
        },
        {
          "name": "",
          "type": "bytes",
          "internalType": "bytes"
        }
      ],
      "outputs": [
        {
          "name": "",
          "type": "bytes4",
          "internalType": "bytes4"
        }
      ],
      "stateMutability": "nonpayable"
    },
    {
      "type": "function",
      "name": "requestArbitration",
      "inputs": [
        {
          "name": "_fulfillment",
          "type": "bytes32",
          "internalType": "bytes32"
        },
        {
          "name": "_escrow",
          "type": "bytes32",
          "internalType": "bytes32"
        },
        {
          "name": "oracle",
          "type": "address",
          "internalType": "address"
        },
        {
          "name": "demand",
          "type": "bytes",
          "internalType": "bytes"
        }
      ],
      "outputs": [],
      "stateMutability": "nonpayable"
    },
    {
      "type": "function",
      "name": "supportsInterface",
      "inputs": [
        {
          "name": "interfaceId",
          "type": "bytes4",
          "internalType": "bytes4"
        }
      ],
      "outputs": [
        {
          "name": "",
          "type": "bool",
          "internalType": "bool"
        }
      ],
      "stateMutability": "view"
    },
    {
      "type": "function",
      "name": "unsafePartiallyCollectAndDistribute",
      "inputs": [
        {
          "name": "escrow",
          "type": "bytes32",
          "internalType": "bytes32"
        },
        {
          "name": "fulfillment",
          "type": "bytes32",
          "internalType": "bytes32"
        }
      ],
      "outputs": [],
      "stateMutability": "nonpayable"
    },
    {
      "type": "event",
      "name": "ArbitrationMade",
      "inputs": [
        {
          "name": "decisionKey",
          "type": "bytes32",
          "indexed": true,
          "internalType": "bytes32"
        },
        {
          "name": "fulfillmentUid",
          "type": "bytes32",
          "indexed": true,
          "internalType": "bytes32"
        },
        {
          "name": "oracle",
          "type": "address",
          "indexed": true,
          "internalType": "address"
        }
      ],
      "anonymous": false
    },
    {
      "type": "event",
      "name": "ArbitrationRequested",
      "inputs": [
        {
          "name": "fulfillment",
          "type": "bytes32",
          "indexed": true,
          "internalType": "bytes32"
        },
        {
          "name": "escrow",
          "type": "bytes32",
          "indexed": true,
          "internalType": "bytes32"
        },
        {
          "name": "oracle",
          "type": "address",
          "indexed": true,
          "internalType": "address"
        },
        {
          "name": "demand",
          "type": "bytes",
          "indexed": false,
          "internalType": "bytes"
        }
      ],
      "anonymous": false
    },
    {
      "type": "event",
      "name": "ERC1155TransferFailedOnDistribute",
      "inputs": [
        {
          "name": "recipient",
          "type": "address",
          "indexed": true,
          "internalType": "address"
        },
        {
          "name": "token",
          "type": "address",
          "indexed": true,
          "internalType": "address"
        },
        {
          "name": "tokenId",
          "type": "uint256",
          "indexed": false,
          "internalType": "uint256"
        },
        {
          "name": "amount",
          "type": "uint256",
          "indexed": false,
          "internalType": "uint256"
        }
      ],
      "anonymous": false
    },
    {
      "type": "event",
      "name": "ERC20TransferFailedOnDistribute",
      "inputs": [
        {
          "name": "recipient",
          "type": "address",
          "indexed": true,
          "internalType": "address"
        },
        {
          "name": "token",
          "type": "address",
          "indexed": true,
          "internalType": "address"
        },
        {
          "name": "amount",
          "type": "uint256",
          "indexed": false,
          "internalType": "uint256"
        }
      ],
      "anonymous": false
    },
    {
      "type": "event",
      "name": "ERC721TransferFailedOnDistribute",
      "inputs": [
        {
          "name": "recipient",
          "type": "address",
          "indexed": true,
          "internalType": "address"
        },
        {
          "name": "token",
          "type": "address",
          "indexed": true,
          "internalType": "address"
        },
        {
          "name": "tokenId",
          "type": "uint256",
          "indexed": false,
          "internalType": "uint256"
        }
      ],
      "anonymous": false
    },
    {
      "type": "event",
      "name": "EscrowCollectedAndDistributed",
      "inputs": [
        {
          "name": "escrowUid",
          "type": "bytes32",
          "indexed": true,
          "internalType": "bytes32"
        },
        {
          "name": "fulfillmentUid",
          "type": "bytes32",
          "indexed": true,
          "internalType": "bytes32"
        },
        {
          "name": "fulfiller",
          "type": "address",
          "indexed": true,
          "internalType": "address"
        }
      ],
      "anonymous": false
    },
    {
      "type": "event",
      "name": "FulfillmentCreated",
      "inputs": [
        {
          "name": "fulfillmentUid",
          "type": "bytes32",
          "indexed": true,
          "internalType": "bytes32"
        },
        {
          "name": "fulfiller",
          "type": "address",
          "indexed": true,
          "internalType": "address"
        },
        {
          "name": "obligationContract",
          "type": "address",
          "indexed": true,
          "internalType": "address"
        }
      ],
      "anonymous": false
    },
    {
      "type": "event",
      "name": "NativeTransferFailedOnDistribute",
      "inputs": [
        {
          "name": "recipient",
          "type": "address",
          "indexed": true,
          "internalType": "address"
        },
        {
          "name": "amount",
          "type": "uint256",
          "indexed": false,
          "internalType": "uint256"
        }
      ],
      "anonymous": false
    },
    {
      "type": "error",
      "name": "AttestationRevoked",
      "inputs": []
    },
    {
      "type": "error",
      "name": "DeadlineExpired",
      "inputs": []
    },
    {
      "type": "error",
      "name": "DuplicateERC721Assignment",
      "inputs": [
        {
          "name": "tokenIndex",
          "type": "uint256",
          "internalType": "uint256"
        }
      ]
    },
    {
      "type": "error",
      "name": "ERC1155TransferFailed",
      "inputs": [
        {
          "name": "token",
          "type": "address",
          "internalType": "address"
        },
        {
          "name": "to",
          "type": "address",
          "internalType": "address"
        },
        {
          "name": "tokenId",
          "type": "uint256",
          "internalType": "uint256"
        },
        {
          "name": "amount",
          "type": "uint256",
          "internalType": "uint256"
        }
      ]
    },
    {
      "type": "error",
      "name": "ERC20TransferFailed",
      "inputs": [
        {
          "name": "token",
          "type": "address",
          "internalType": "address"
        },
        {
          "name": "to",
          "type": "address",
          "internalType": "address"
        },
        {
          "name": "amount",
          "type": "uint256",
          "internalType": "uint256"
        }
      ]
    },
    {
      "type": "error",
      "name": "ERC721TransferFailed",
      "inputs": [
        {
          "name": "token",
          "type": "address",
          "internalType": "address"
        },
        {
          "name": "to",
          "type": "address",
          "internalType": "address"
        },
        {
          "name": "tokenId",
          "type": "uint256",
          "internalType": "uint256"
        }
      ]
    },
    {
      "type": "error",
      "name": "EmptySplits",
      "inputs": []
    },
    {
      "type": "error",
      "name": "FulfillerAlreadyRecorded",
      "inputs": [
        {
          "name": "fulfillment",
          "type": "bytes32",
          "internalType": "bytes32"
        }
      ]
    },
    {
      "type": "error",
      "name": "InvalidAttestationUid",
      "inputs": []
    },
    {
      "type": "error",
      "name": "InvalidCollectedAmount",
      "inputs": [
        {
          "name": "expected",
          "type": "uint256",
          "internalType": "uint256"
        },
        {
          "name": "actual",
          "type": "uint256",
          "internalType": "uint256"
        }
      ]
    },
    {
      "type": "error",
      "name": "InvalidCreatedFulfillment",
      "inputs": [
        {
          "name": "fulfillment",
          "type": "bytes32",
          "internalType": "bytes32"
        }
      ]
    },
    {
      "type": "error",
      "name": "InvalidERC1155ArrayLength",
      "inputs": [
        {
          "name": "splitIndex",
          "type": "uint256",
          "internalType": "uint256"
        },
        {
          "name": "expected",
          "type": "uint256",
          "internalType": "uint256"
        },
        {
          "name": "provided",
          "type": "uint256",
          "internalType": "uint256"
        }
      ]
    },
    {
      "type": "error",
      "name": "InvalidERC1155SplitTotal",
      "inputs": [
        {
          "name": "tokenIndex",
          "type": "uint256",
          "internalType": "uint256"
        },
        {
          "name": "expected",
          "type": "uint256",
          "internalType": "uint256"
        },
        {
          "name": "provided",
          "type": "uint256",
          "internalType": "uint256"
        }
      ]
    },
    {
      "type": "error",
      "name": "InvalidERC20ArrayLength",
      "inputs": [
        {
          "name": "splitIndex",
          "type": "uint256",
          "internalType": "uint256"
        },
        {
          "name": "expected",
          "type": "uint256",
          "internalType": "uint256"
        },
        {
          "name": "provided",
          "type": "uint256",
          "internalType": "uint256"
        }
      ]
    },
    {
      "type": "error",
      "name": "InvalidERC20SplitTotal",
      "inputs": [
        {
          "name": "tokenIndex",
          "type": "uint256",
          "internalType": "uint256"
        },
        {
          "name": "expected",
          "type": "uint256",
          "internalType": "uint256"
        },
        {
          "name": "provided",
          "type": "uint256",
          "internalType": "uint256"
        }
      ]
    },
    {
      "type": "error",
      "name": "InvalidERC721Index",
      "inputs": [
        {
          "name": "index",
          "type": "uint256",
          "internalType": "uint256"
        },
        {
          "name": "max",
          "type": "uint256",
          "internalType": "uint256"
        }
      ]
    },
    {
      "type": "error",
      "name": "InvalidERC721Receipt",
      "inputs": [
        {
          "name": "token",
          "type": "address",
          "internalType": "address"
        },
        {
          "name": "tokenId",
          "type": "uint256",
          "internalType": "uint256"
        }
      ]
    },
    {
      "type": "error",
      "name": "InvalidEscrowAttestation",
      "inputs": []
    },
    {
      "type": "error",
      "name": "InvalidFulfillmentRecipient",
      "inputs": []
    },
    {
      "type": "error",
      "name": "InvalidFulfillmentUid",
      "inputs": []
    },
    {
      "type": "error",
      "name": "InvalidNativeSplitTotal",
      "inputs": [
        {
          "name": "expected",
          "type": "uint256",
          "internalType": "uint256"
        },
        {
          "name": "provided",
          "type": "uint256",
          "internalType": "uint256"
        }
      ]
    },
    {
      "type": "error",
      "name": "MissingERC721Assignment",
      "inputs": [
        {
          "name": "tokenIndex",
          "type": "uint256",
          "internalType": "uint256"
        }
      ]
    },
    {
      "type": "error",
      "name": "NativeTokenTransferFailed",
      "inputs": [
        {
          "name": "to",
          "type": "address",
          "internalType": "address"
        },
        {
          "name": "amount",
          "type": "uint256",
          "internalType": "uint256"
        }
      ]
    },
    {
      "type": "error",
      "name": "NoFulfillerRecorded",
      "inputs": [
        {
          "name": "fulfillment",
          "type": "bytes32",
          "internalType": "bytes32"
        }
      ]
    },
    {
      "type": "error",
      "name": "ReentrancyGuardReentrantCall",
      "inputs": []
    },
    {
      "type": "error",
      "name": "TooManySplits",
      "inputs": [
        {
          "name": "provided",
          "type": "uint256",
          "internalType": "uint256"
        },
        {
          "name": "max",
          "type": "uint256",
          "internalType": "uint256"
        }
      ]
    },
    {
      "type": "error",
      "name": "UnauthorizedArbitrationRequest",
      "inputs": []
    },
    {
      "type": "error",
      "name": "UnauthorizedPartialSettlement",
      "inputs": [
        {
          "name": "fulfillment",
          "type": "bytes32",
          "internalType": "bytes32"
        },
        {
          "name": "caller",
          "type": "address",
          "internalType": "address"
        }
      ]
    }
  ],
  "bytecode": {
    "object": "0x60a0346100c257601f61302438819003918201601f19168301916001600160401b038311848410176100c65780849260409485528339810103126100c25780516001600160a01b03811691908290036100c257602001516001600160a01b03811691908290036100c25760017f9b779b17422d0df92223018b32b4d1fa46e071723d6817e2486d003becc55f00555f80546001600160a01b031916919091179055608052604051612f4990816100db823960805181818161042f01526124100152f35b5f80fd5b634e487b7160e01b5f52604160045260245ffdfe608080604052600436101561001c575b50361561001a575f80fd5b005b5f3560e01c90816301ffc9a714611b49575080632257c0e3146119b557806339fcc92b146119985780633c9d7240146112985780633de93b3814610e765780634e2d3b1214610e445780638150864d14610e1d578063838a68d914610d4157806386314b0d14610c215780638da3721a14610aa5578063a1a8048814610a5c578063b48210ca14610a41578063bc197c81146109ac578063c880c06f14610990578063d1be35071461045e578063d43a0c931461041a578063ed7180e3146101475763f23a6e61146100ee575f61000f565b346101435760a036600319011261014357610107611bb6565b50610110611bcc565b506084356001600160401b03811161014357610130903690600401611d54565b5060405163f23a6e6160e01b8152602090f35b5f80fd5b60803660031901126101435761015b611bb6565b6024356001600160401b0381116101435761017a903690600401611c3f565b604435906001600160401b038216809203610143576064359361019b61234b565b604051632cee40b560e21b81526060600482015260648101839052946001600160a01b03919091169390828260848801375f60848488010152836024870152806044870152602086608481601f19601f880116810103018134895af19586156103cc575f966103e6575b5085156103d7575f80546040516328c44a9960e21b815260048101899052929190839060249082906001600160a01b03165afa9182156103cc575f926103a8575b508682511494851595610390575b8515610378575b8515610360575b508415610351575b508315610326575b505050610313575f828152600360205260409020546001600160a01b031661030057816020925f526003835260405f2060018060a01b0333166bffffffffffffffffffffffff60a01b8254161790556040519133827ff845579b2e96200541b4e2b438fbb65e772b70ac68265030aa16f6d8e16501d95f80a460015f516020612ef45f395f51905f52558152f35b5063aa8904b160e01b5f5260045260245ffd5b5063f9d7a76560e01b5f5260045260245ffd5b610340929350610120015160208151910120923691611d1e565b602081519101201415838080610272565b60a0820151141593508661026a565b60608301516001600160401b03161415945087610262565b60c08301516001600160a01b0316301415955061025b565b60e08301516001600160a01b03168714159550610254565b6103c59192503d805f833e6103bd8183611ce2565b810190611eb2565b9087610246565b6040513d5f823e3d90fd5b6303acddcd60e41b5f5260045ffd5b9095506020813d602011610412575b8161040260209383611ce2565b8101031261014357519486610205565b3d91506103f5565b34610143575f366003190112610143576040517f00000000000000000000000000000000000000000000000000000000000000006001600160a01b03168152602090f35b346101435761046c36611c29565b61047461234b565b5f8181526003602052604080822054825491516328c44a9960e21b815260048101859052926001600160a01b0391821692909184916024918391165afa9182156103cc575f92610974575b50331415908161095c575b50610946576104d98183612383565b5f838152600360205260408120549194909390916001600160a01b03165b835185101561090e5761051f81836001600160a01b0361051789896121b6565b515116612d05565b9261052a86866121b6565b519260208401805190816108bd575b50506040840195925f5b87518051821015610637579061055b816001936121b6565b51610567575b01610543565b8860608c01838060a01b0361057d8483516121b6565b5116908361058c8185516121b6565b51926040519063a9059cbb60e01b5f528d888060a01b0316948560045260245260205f60448180855af190885f511482161561062a575b5090604052156105d7575b50505050610561565b610619817ff74480709fec33a3b1a6a81aaf2a8fa70d719b88009fbee204be461d84f84df0936106106020948a8060a01b0392516121b6565b511695516121b6565b51604051908152a3888c80836105ce565b3b15153d1516165f6105c3565b505096939290979195505f95606084019760a084019960c08501985b8a51805182101561074d5781610668916121b6565b51908c61067d8360018060a01b0392516121b6565b51169161068b818d516121b6565b5192803b1561014357604051632142170760e11b81523060048201526001600160a01b038d16602482015260448101949094526001938f915f908290606490829084905af1908161073d575b50610736576106fb906106f183868060a01b0392516121b6565b5116918d516121b6565b516040519081527f2cdd66d926c3684d9b7be9910be2f61678a88971bc9187ef07b86dc048964aa460208d868060a01b031692a35b01610653565b5050610730565b5f61074791611ce2565b5f6106d7565b5050949699509497509091955060805f9501945b855180518210156108a85781610776916121b6565b51610784575b600101610761565b60e087019060018060a01b0361079b8284516121b6565b5116916101008901906107af8383516121b6565b51936107bc848b516121b6565b5190803b1561014357604051637921219560e11b81523060048201526001600160a01b038f1660248201526044810196909652606486019190915260a060848601525f60a486018190526001958592909190829060c490829084905af19081610898575b50610890576108439161083a82878060a01b0392516121b6565b511692516121b6565b5161084f838a516121b6565b5160405191825260208201527f616cfada1d83c91b3ab4d0488d450dbb131a917d044bde559c55552aebdf433f60408d868060a01b031692a35b905061077c565b505050610889565b5f6108a291611ce2565b8e610820565b505094965094600191929350019392916104f7565b5f80808060018060a01b038b1695865af16108d6612d46565b506105395760207f49883307846eabe1e4a9b4d7e3378305c6115c7df65c270a47f9f9cfe3ab69ad9151604051908152a28880610539565b917f38f05a74107505cf7df4cc8ba5851ede31789102da819ba98b8f39107e73ec6f5f80a460015f516020612ef45f395f51905f5255005b6345fbd31960e11b5f526004523360245260445ffd5b60e001516001600160a01b03163314159050836104ca565b6109899192503d805f833e6103bd8183611ce2565b90846104bf565b34610143575f36600319011261014357602060405161eeee8152f35b346101435760a0366003190112610143576109c5611bb6565b506109ce611bcc565b506044356001600160401b038111610143576109ee903690600401611d9d565b506064356001600160401b03811161014357610a0e903690600401611d9d565b506084356001600160401b03811161014357610a2e903690600401611d54565b5060405163bc197c8160e01b8152602090f35b34610143575f36600319011261014357602060405160328152f35b34610143576040366003190112610143576001600160a01b03610a7d611bb6565b165f52600160205260405f206024355f52602052602060ff60405f2054166040519015158152f35b34610143576060366003190112610143576004356001600160401b0381116101435761014060031982360301126101435760405190610ae382611cc6565b8060040135825260248101356020830152610b0060448201611d72565b6040830152610b1160648201611d72565b6060830152610b2260848201611d72565b608083015260a481013560a0830152610b3d60c48201611be2565b60c0830152610b4e60e48201611be2565b60e0830152610104810135801515810361014357610100830152610124810135906001600160401b038211610143576004610b8c9236920101611d54565b6101208201526024356001600160401b03811161014357610bcf610bb7610bda923690600401611d54565b610bc084612d75565b602080825183010191016121de565b916044359051612241565b9081600254149081610bf4575b6020826040519015158152f35b905060018060a01b039051165f52600160205260405f20905f52602052602060ff60405f20541682610be7565b34610143576080366003190112610143576044356001600160a01b0381169060243590829003610143576064356001600160401b03811161014357610c6a903690600401611d54565b5f80546040516328c44a9960e21b8152600481018590529190829060249082906001600160a01b03165afa9081156103cc575f91610d27575b5060e08101516001600160a01b03163314159081610d0f575b50610d00577f8c71f7964ccbceaff13fb1c085cf7491115c2bed4a6aca02c6c6208f08609b826040516020815280610cfb600435946020830190611c6c565b0390a4005b63ff323ecb60e01b5f5260045ffd5b60c001516001600160a01b0316331415905084610cbc565b610d3b91503d805f833e6103bd8183611ce2565b84610ca3565b34610143576020366003190112610143576004356001600160401b03811161014357610d71903690600401611c3f565b60606020604051610d8181611cab565b5f81520152810190602081830312610143578035906001600160401b03821161014357016040818303126101435760405191610dbc83611cab565b610dc582611be2565b835260208201356001600160401b03811161014357610de49201611d54565b9060208101918252610e196040519283926020845260018060a01b039051166020840152516040808401526060830190611c6c565b0390f35b34610143575f366003190112610143575f546040516001600160a01b039091168152602090f35b34610143576020366003190112610143576004355f526003602052602060018060a01b0360405f205416604051908152f35b3461014357610e8436611c29565b90610e8d61234b565b610e978282612383565b5f848152600360205260408120549294926001600160a01b03165b855182101561125f57610ed281856001600160a01b03610517868b6121b6565b93610edd83886121b6565b5195602087018051908161122a575b50506040870197925f5b89518051821015610fd65781610f0b916121b6565b51610f19575b600101610ef6565b6060870180516001600160a01b0390610f339084906121b6565b511690610f41838d516121b6565b51916040519063a9059cbb60e01b5f5260018060a01b038c16938460045260245260205f60448180855af19060015f5114821615610fc9575b509060405215610f8b575050610f11565b518b92610faf916001600160a01b0390610fa69083906121b6565b511693516121b6565b51916307a1d48760e01b5f5260045260245260445260645ffd5b3b15153d1516168e610f7a565b5050939197509194955f94606082019660a082019560c083019a5b895180518a10156110c15789611006916121b6565b51988c6110208b8b61083a8260018060a01b0392516121b6565b5190803b1561014357604051632142170760e11b81523060048201526001600160a01b038f16602482015260448101929092525f908290606490829084905af190816110b1575b506110a7578c8c6110858c8c610fa68260018060a01b0392516121b6565b519163e3bbfcd760e01b5f5260045260018060a01b031660245260445260645ffd5b6001019850610ff1565b5f6110bb91611ce2565b8e611067565b5095949a50955091955096955060805f9501945b8551805182101561121457816110ea916121b6565b516110f8575b6001016110d5565b979260e08893959298019460018060a01b036111158b88516121b6565b5116986101008501996111298c8c516121b6565b516111358d8b516121b6565b51823b1561014357604051637921219560e11b81523060048201526001600160a01b038d1660248201526044810192909252606482015260a060848201525f60a482018190529091829060c490829084905af19081611204575b506111f75760848a8a8a6111c58f6111bd818e6111b48260018060a01b0392516121b6565b511696516121b6565b5192516121b6565b51604051636bb6a96f60e01b815260048101949094526001600160a01b03909216602484015260448301526064820152fd5b92955092975092976110f0565b5f61120e91611ce2565b8c61118f565b5050945094956001919293500190929491610eb2565b5f80808060018060a01b038c1695865af1611243612d46565b50610eec5751906338f0620160e21b5f5260045260245260445ffd5b83857f38f05a74107505cf7df4cc8ba5851ede31789102da819ba98b8f39107e73ec6f5f80a460015f516020612ef45f395f51905f5255005b34610143576060366003190112610143576044356024356004356001600160401b0383116101435736602384011215610143578260040135906001600160401b038211610143576024840193602436918460051b0101116101435780156103d7575f80546040516328c44a9960e21b8152600481018690529190829060249082906001600160a01b03165afa9081156103cc5761134c91610120915f9161197e575b50015160208082518301019101612051565b821561196f575f5f5b84811061194c575060408201518082036119375750506060810151515f5b8481106118f05750608082015f5b8281106118805750505060a08101515161139a81611d86565b6113a76040519182611ce2565b818152601f196113b683611d86565b013660208301375f5b8581106117e45750908592915f5b8281106117b05750505060e081015151905f5b8581106117625750610120015f5b8281106116e25750505061140191612241565b92603282116116ca57335f52600460205260405f20845f5260205260405f208054905f81558161165f575b50505f915b80831061148457505050335f52600160205260405f20825f5260205260405f20600160ff1982541617905533917f316840fa12fff978748bb0addc98aa699d0e100e99cb115876030599d06fb01a5f80a4005b9390919293335f52600460205260405f20825f5260205260405f208054600160401b81101561164b576114bc9160018201815561230b565b5050335f52600460205260405f20825f526020526114dd8460405f2061230b565b50926114ea858383612267565b356001600160a01b03811681036101435784546001600160a01b0319166001600160a01b03919091161784556020611523868484612267565b013560018501556002840192611538846122db565b60046003860195611548876122db565b0190611553826122db565b5f5b61156d611563898787612267565b6040810190612296565b90508110156115a1578061159b61159460019361158e6115638d8b8b612267565b906122cb565b3588612324565b01611555565b5096909493505f5b6115c16115b7888686612267565b6060810190612296565b90508110156115ef57806115e96115e260019361158e6115b78c8a8a612267565b3587612324565b016115a9565b5095909392505f5b61160f611605878588612267565b6080810190612296565b905081101561163d578061163761163060019361158e6116058b898c612267565b3586612324565b016115f7565b509493600101929150611431565b634e487b7160e01b5f52604160045260245ffd5b816005029160058304036116b6575f5260205f20908101905b8181101561142c57805f600592555f6001820155611698600282016122db565b6116a4600382016122db565b6116b0600482016122db565b01611678565b634e487b7160e01b5f52601160045260245ffd5b5063b268613560e01b5f52600452603260245260445ffd5b909192505f5f5b82878a81841061173b575050611701915084516121b6565b5181036117155750600101908592916113ee565b918161172191516121b6565b5190631eb1f02960e11b5f5260045260245260445260645ffd5b61175b9261158e61160586600197989561175495612267565b3590612289565b91016116e9565b9092508161177461160583888b612267565b905003611786576001019185926113e0565b9061179561160583878a612267565b9290506317bcc85f60e31b5f5260045260245260445260645ffd5b90919293506117bf81836121b6565b51156117d25760010190869392916113cd565b6338b14a1f60e01b5f5260045260245ffd5b935f97969195939297505f5b6117fe6115b787878b612267565b905081101561186e576118198161158e6115b789898d612267565b35898110156118575761182c81896121b6565b516118465790600161183f81938a6121b6565b52016117f0565b621e911960ea1b5f5260045260245ffd5b89906365b330b960e11b5f5260045260245260445ffd5b509360019097929395919697016113bf565b5f5f5b82888b8184106118d057505061189b915084516121b6565b5181036118ab5750600101611381565b91816118b791516121b6565b519062bb838b60e81b5f5260045260245260445260645ffd5b6118e99261158e61156386600197989561175495612267565b9101611883565b816118ff61156383888b612267565b90500361190e57600101611373565b9061191d61156383878a612267565b92905062b4d7f160e81b5f5260045260245260445260645ffd5b63c153acdd60e01b5f5260045260245260445ffd5b90611968600191602061196085898c612267565b013590612289565b9101611355565b63143160cf60e01b5f5260045ffd5b61199291503d805f833e6103bd8183611ce2565b8761133a565b34610143575f366003190112610143576020600254604051908152f35b34610143576060366003190112610143576001600160a01b036119d6611bb6565b165f52600460205260405f206119f0604435602435612241565b5f5260205260405f20805490611a0582611d86565b91611a136040519384611ce2565b8083526020830180925f5260205f205f915b838310611ae257848660405191829160208301906020845251809152604083019060408160051b85010192915f905b828210611a6357505050500390f35b91936001919395506020611ad28192603f198a8203018652885190858060a01b03825116815283820151848201526080611ac1611aaf604085015160a0604086015260a0850190611bf6565b60608501518482036060860152611bf6565b920151906080818403910152611bf6565b9601920192018594939192611a54565b60056020600192604051611af581611c90565b848060a01b0386541681528486015483820152611b1460028701611dfa565b6040820152611b2560038701611dfa565b6060820152611b3660048701611dfa565b6080820152815201920192019190611a25565b34610143576020366003190112610143576004359063ffffffff60e01b821680920361014357602091630271189760e51b8114908115611b8b575b5015158152f35b6346d1b90d60e11b811491508115611ba5575b5083611b84565b6301ffc9a760e01b14905083611b9e565b600435906001600160a01b038216820361014357565b602435906001600160a01b038216820361014357565b35906001600160a01b038216820361014357565b90602080835192838152019201905f5b818110611c135750505090565b8251845260209384019390920191600101611c06565b6040906003190112610143576004359060243590565b9181601f84011215610143578235916001600160401b038311610143576020838186019501011161014357565b805180835260209291819084018484015e5f828201840152601f01601f1916010190565b60a081019081106001600160401b0382111761164b57604052565b604081019081106001600160401b0382111761164b57604052565b61014081019081106001600160401b0382111761164b57604052565b90601f801991011681019081106001600160401b0382111761164b57604052565b6001600160401b03811161164b57601f01601f191660200190565b929192611d2a82611d03565b91611d386040519384611ce2565b829481845281830111610143578281602093845f960137010152565b9080601f8301121561014357816020611d6f93359101611d1e565b90565b35906001600160401b038216820361014357565b6001600160401b03811161164b5760051b60200190565b9080601f83011215610143578135611db481611d86565b92611dc26040519485611ce2565b81845260208085019260051b82010192831161014357602001905b828210611dea5750505090565b8135815260209182019101611ddd565b90604051918281549182825260208201905f5260205f20925f5b818110611e2b575050611e2992500383611ce2565b565b8454835260019485019487945060209093019201611e14565b51906001600160401b038216820361014357565b51906001600160a01b038216820361014357565b81601f8201121561014357805190611e8382611d03565b92611e916040519485611ce2565b8284526020838301011161014357815f9260208093018386015e8301015290565b602081830312610143578051906001600160401b0382116101435701610140818303126101435760405191611ee683611cc6565b8151835260208201516020840152611f0060408301611e44565b6040840152611f1160608301611e44565b6060840152611f2260808301611e44565b608084015260a082015160a0840152611f3d60c08301611e58565b60c0840152611f4e60e08301611e58565b60e08401526101008201518015158103610143576101008401526101208201516001600160401b03811161014357611f869201611e6c565b61012082015290565b9080601f83011215610143578151611fa681611d86565b92611fb46040519485611ce2565b81845260208085019260051b82010192831161014357602001905b828210611fdc5750505090565b60208091611fe984611e58565b815201910190611fcf565b9080601f8301121561014357815161200b81611d86565b926120196040519485611ce2565b81845260208085019260051b82010192831161014357602001905b8282106120415750505090565b8151815260209182019101612034565b602081830312610143578051906001600160401b038211610143570161014081830312610143576040519161208583611cc6565b61208e82611e58565b835260208201516001600160401b03811161014357816120af918401611e6c565b60208401526040820151604084015260608201516001600160401b03811161014357816120dd918401611f8f565b606084015260808201516001600160401b0381116101435781612101918401611ff4565b608084015260a08201516001600160401b0381116101435781612125918401611f8f565b60a084015260c08201516001600160401b0381116101435781612149918401611ff4565b60c084015260e08201516001600160401b038111610143578161216d918401611f8f565b60e08401526101008201516001600160401b0381116101435781612192918401611ff4565b6101008401526101208201516001600160401b03811161014357611f869201611ff4565b80518210156121ca5760209160051b010190565b634e487b7160e01b5f52603260045260245ffd5b602081830312610143578051906001600160401b0382116101435701604081830312610143576040519161221183611cab565b61221a82611e58565b835260208201516001600160401b038111610143576122399201611e6c565b602082015290565b906040519060208201928352604082015260408152612261606082611ce2565b51902090565b91908110156121ca5760051b81013590609e1981360301821215610143570190565b919082018092116116b657565b903590601e198136030182121561014357018035906001600160401b03821161014357602001918160051b3603831361014357565b91908110156121ca5760051b0190565b8054905f8155816122ea575050565b5f5260205f20908101905b818110612300575050565b5f81556001016122f5565b80548210156121ca575f52600560205f20910201905f90565b805490600160401b82101561164b57600182018082558210156121ca575f5260205f200155565b60025f516020612ef45f395f51905f5254146123745760025f516020612ef45f395f51905f5255565b633ee5aeb560e01b5f5260045ffd5b9091606061012060405161239681611cc6565b5f81528260208201525f604082015282808201528260808201528260a08201528260c08201528260e082015282610100820152015260018060a01b035f541690604051916328c44a9960e21b83528360048401525f83602481845afa9283156103cc575f93612ce9575b5060e08301516001600160a01b037f000000000000000000000000000000000000000000000000000000000000000081169491168414801590612c83575b612c7457805115612c65576001600160401b036060820151168015159081612c5a575b50612c4b576001600160401b03608082015116612c3c575f602492604051938480926328c44a9960e21b82528a60048301525afa9081156103cc576124b7610120926124c8945f91612c22575b50979697612d75565b015160208082518301019101612051565b9360208501516124e860018060a01b0391602080825183010191016121de565b51165f52600460205260405f206124ff8286612241565b5f5260205260405f20805461251381611d86565b916125216040519384611ce2565b81835260208301905f5260205f205f915b838310612bb55750505050905f9560a081019460c08201975b86518051821015612626576001600160a01b039061256a9083906121b6565b51166020612579838c516121b6565b516024604051809481936331a9108f60e11b835260048301525afa9081156103cc575f916125ed575b506001600160a01b031630146125ba5760010161254b565b865189916125d6916001600160a01b039061083a9083906121b6565b5190631e40975f60e01b5f5260045260245260445ffd5b90506020813d821161261e575b8161260760209383611ce2565b810103126101435761261890611e58565b5f6125a2565b3d91506125fa565b5050919396949590929647936060810191612642835151612d99565b975f5b845180518210156126da57602491906020906001600160a01b039061266b9084906121b6565b5116604051938480926370a0823160e01b82523060048301525afa80156103cc575f906126a8575b600192506126a1828d6121b6565b5201612645565b506020823d82116126d2575b816126c160209383611ce2565b810103126101435760019151612693565b3d91506126b4565b505091939890929497959960e08501936126f5855151612d99565b995f9c61010088019d5b875180518210156127b157908f602090612728836127529561083a8260018060a01b03926121b6565b51604051627eeac760e11b8152306004820152602481019190915293849190829081906044820190565b03915afa80156103cc578e925f91612779575b50612772826001946121b6565b52016126ff565b9250506020823d82116127a9575b8161279460209383611ce2565b810103126101435790518d9190612772612765565b3d9150612787565b50509193969a94989c979b60445f9294979b6127cd8184612241565b600255836040519687948593633a9bb12760e21b8552600485015260248401525af180156103cc57612b74575b61281791505f60029c9893959994969c554760408b015191612dcb565b5f945b8951518610156129625761282e868a612e15565b15612951575f9a60018060a01b03612847888d516121b6565b5116985f5b8c5180518210156128a2578b906001600160a01b039061286d9084906121b6565b51161461287d575b60010161284c565b9c61289a6001918f612893908f608001516121b6565b5190612289565b9d9050612875565b50509492979b9196909593985060246128bb828e6121b6565b518c516020906001600160a01b03906128d59086906121b6565b5116604051938480926370a0823160e01b82523060048301525afa9182156103cc575f9261291b575b509261290c91600194612dcb565b0194999590929691939961281a565b9150926020823d8211612949575b8161293660209383611ce2565b81010312610143579051909260016128fe565b3d9150612929565b946001909a9492979391969a61290c565b985098969193509193505f5b86518051821015612a18576001600160a01b039061298d9083906121b6565b5116602061299c838c516121b6565b516024604051809481936331a9108f60e11b835260048301525afa9081156103cc575f916129df575b50306001600160a01b03909116036125ba5760010161296e565b90506020813d8211612a10575b816129f960209383611ce2565b8101031261014357612a0a90611e58565b5f6129c5565b3d91506129ec565b505093919592965093505f945b845151861015612b6b57612a398685612e6d565b15612b62575f9460018060a01b03612a528883516121b6565b511691612a608886516121b6565b51935f5b83518051821015612acd5785906001600160a01b0390612a859084906121b6565b51161480612ab9575b612a9b575b600101612a64565b97612ab16001916128938b6101208c01516121b6565b989050612a93565b5085612ac68289516121b6565b5114612a8e565b505093509690959150612b05612ae3828a6121b6565b51602060018060a01b03612af8858b516121b6565b51166127288589516121b6565b03915afa9182156103cc575f92612b2c575b5092612b2591600194612dcb565b0194612a25565b9150926020823d8211612b5a575b81612b4760209383611ce2565b8101031261014357905190926001612b17565b3d9150612b3a565b94600190612b25565b93509450509150565b3d805f843e612b838184611ce2565b820191602081840312610143578051926001600160401b0384116101435761281793612baf9201611e6c565b506127fa565b6005602060019260409c9b9c51612bcb81611c90565b848060a01b0386541681528486015483820152612bea60028701611dfa565b6040820152612bfb60038701611dfa565b6060820152612c0c60048701611dfa565b6080820152815201920192019190989798612532565b612c3691503d805f833e6103bd8183611ce2565b5f6124ae565b637b6227e960e11b5f5260045ffd5b631ab7da6b60e01b5f5260045ffd5b90504210155f612461565b635c2c7f8960e01b5f5260045ffd5b63629cd40b60e11b5f5260045ffd5b50602081810151604051635bf2f20d60e01b81529182600481895afa9182156103cc575f92612cb5575b50141561243e565b9091506020813d602011612ce1575b81612cd160209383611ce2565b810103126101435751905f612cad565b3d9150612cc4565b612cfe9193503d805f833e6103bd8183611ce2565b915f612400565b91906001600160a01b03831661eeee14612d1e57505090565b9091506001600160a01b03821615612d34575090565b6379c5a2db60e01b5f5260045260245ffd5b3d15612d70573d90612d5782611d03565b91612d656040519384611ce2565b82523d5f602084013e565b606090565b60c001516001600160a01b03163003612d8a57565b634672d00f60e01b5f5260045ffd5b90612da382611d86565b612db06040519182611ce2565b8281528092612dc1601f1991611d86565b0190602036910137565b919091808310612dfe5782039182116116b657808203612de9575050565b631a3dba0360e31b5f5260045260245260445ffd5b50631a3dba0360e31b5f526004525f60245260445ffd5b60600180516001600160a01b0390612e2e9084906121b6565b5116905f5b838110612e435750505050600190565b8260018060a01b03612e568385516121b6565b511614612e6557600101612e33565b505050505f90565b60e081019061010060018060a01b03612e878585516121b6565b5116910191612e978484516121b6565b51915f5b858110612ead57505050505050600190565b8160018060a01b03612ec08386516121b6565b51161480612edf575b612ed557600101612e9b565b5050505050505f90565b5083612eec8287516121b6565b5114612ec956fe9b779b17422d0df92223018b32b4d1fa46e071723d6817e2486d003becc55f00a264697066735822122055cc0dd2e642fb8258b36661a635448e49c0ddf2094b0700cdc922040ac7316364736f6c634300081b0033",
    "linkReferences": {}
  },
  "methodIdentifiers": {
    "EXECUTOR_SENTINEL()": "c880c06f",
    "MAX_SPLITS()": "b48210ca",
    "activeSettlement()": "39fcc92b",
    "arbitrate(bytes32,bytes32,(address,uint256,uint256[],uint256[],uint256[])[])": "3c9d7240",
    "check((bytes32,bytes32,uint64,uint64,uint64,bytes32,address,address,bool,bytes),bytes,bytes32)": "8da3721a",
    "collectAndDistribute(bytes32,bytes32)": "3de93b38",
    "createFulfillment(address,bytes,uint64,bytes32)": "ed7180e3",
    "decodeDemandData(bytes)": "838a68d9",
    "eas()": "8150864d",
    "escrowObligation()": "d43a0c93",
    "fulfillers(bytes32)": "4e2d3b12",
    "getSplits(address,bytes32,bytes32)": "2257c0e3",
    "hasDecision(address,bytes32)": "a1a80488",
    "onERC1155BatchReceived(address,address,uint256[],uint256[],bytes)": "bc197c81",
    "onERC1155Received(address,address,uint256,uint256,bytes)": "f23a6e61",
    "requestArbitration(bytes32,bytes32,address,bytes)": "86314b0d",
    "supportsInterface(bytes4)": "01ffc9a7",
    "unsafePartiallyCollectAndDistribute(bytes32,bytes32)": "d1be3507"
  },
  "id": 95
}