{
  "abi": [
    {
      "type": "constructor",
      "inputs": [
        {
          "name": "_eas",
          "type": "address",
          "internalType": "contract IEAS"
        }
      ],
      "stateMutability": "nonpayable"
    },
    {
      "type": "receive",
      "stateMutability": "payable"
    },
    {
      "type": "function",
      "name": "EXECUTOR_SENTINEL",
      "inputs": [],
      "outputs": [
        {
          "name": "",
          "type": "address",
          "internalType": "address"
        }
      ],
      "stateMutability": "view"
    },
    {
      "type": "function",
      "name": "MAX_SPLITS",
      "inputs": [],
      "outputs": [
        {
          "name": "",
          "type": "uint256",
          "internalType": "uint256"
        }
      ],
      "stateMutability": "view"
    },
    {
      "type": "function",
      "name": "arbitrate",
      "inputs": [
        {
          "name": "fulfillment",
          "type": "bytes32",
          "internalType": "bytes32"
        },
        {
          "name": "escrow",
          "type": "bytes32",
          "internalType": "bytes32"
        },
        {
          "name": "splits",
          "type": "tuple[]",
          "internalType": "struct TokenBundleSplitterBase.BundleSplit[]",
          "components": [
            {
              "name": "recipient",
              "type": "address",
              "internalType": "address"
            },
            {
              "name": "nativeAmount",
              "type": "uint256",
              "internalType": "uint256"
            },
            {
              "name": "erc20Amounts",
              "type": "uint256[]",
              "internalType": "uint256[]"
            },
            {
              "name": "erc721Indices",
              "type": "uint256[]",
              "internalType": "uint256[]"
            },
            {
              "name": "erc1155Amounts",
              "type": "uint256[]",
              "internalType": "uint256[]"
            }
          ]
        }
      ],
      "outputs": [],
      "stateMutability": "nonpayable"
    },
    {
      "type": "function",
      "name": "check",
      "inputs": [
        {
          "name": "fulfillment",
          "type": "tuple",
          "internalType": "struct Attestation",
          "components": [
            {
              "name": "uid",
              "type": "bytes32",
              "internalType": "bytes32"
            },
            {
              "name": "schema",
              "type": "bytes32",
              "internalType": "bytes32"
            },
            {
              "name": "time",
              "type": "uint64",
              "internalType": "uint64"
            },
            {
              "name": "expirationTime",
              "type": "uint64",
              "internalType": "uint64"
            },
            {
              "name": "revocationTime",
              "type": "uint64",
              "internalType": "uint64"
            },
            {
              "name": "refUID",
              "type": "bytes32",
              "internalType": "bytes32"
            },
            {
              "name": "recipient",
              "type": "address",
              "internalType": "address"
            },
            {
              "name": "attester",
              "type": "address",
              "internalType": "address"
            },
            {
              "name": "revocable",
              "type": "bool",
              "internalType": "bool"
            },
            {
              "name": "data",
              "type": "bytes",
              "internalType": "bytes"
            }
          ]
        },
        {
          "name": "demand",
          "type": "bytes",
          "internalType": "bytes"
        },
        {
          "name": "escrow",
          "type": "bytes32",
          "internalType": "bytes32"
        }
      ],
      "outputs": [
        {
          "name": "",
          "type": "bool",
          "internalType": "bool"
        }
      ],
      "stateMutability": "view"
    },
    {
      "type": "function",
      "name": "collectAndDistribute",
      "inputs": [
        {
          "name": "escrowContract",
          "type": "address",
          "internalType": "address"
        },
        {
          "name": "escrow",
          "type": "bytes32",
          "internalType": "bytes32"
        },
        {
          "name": "fulfillment",
          "type": "bytes32",
          "internalType": "bytes32"
        }
      ],
      "outputs": [],
      "stateMutability": "nonpayable"
    },
    {
      "type": "function",
      "name": "createFulfillment",
      "inputs": [
        {
          "name": "obligationContract",
          "type": "address",
          "internalType": "address"
        },
        {
          "name": "data",
          "type": "bytes",
          "internalType": "bytes"
        },
        {
          "name": "expirationTime",
          "type": "uint64",
          "internalType": "uint64"
        },
        {
          "name": "refUID",
          "type": "bytes32",
          "internalType": "bytes32"
        }
      ],
      "outputs": [
        {
          "name": "fulfillmentUid",
          "type": "bytes32",
          "internalType": "bytes32"
        }
      ],
      "stateMutability": "payable"
    },
    {
      "type": "function",
      "name": "decodeDemandData",
      "inputs": [
        {
          "name": "data",
          "type": "bytes",
          "internalType": "bytes"
        }
      ],
      "outputs": [
        {
          "name": "",
          "type": "tuple",
          "internalType": "struct TokenBundleSplitterBase.DemandData",
          "components": [
            {
              "name": "oracle",
              "type": "address",
              "internalType": "address"
            },
            {
              "name": "data",
              "type": "bytes",
              "internalType": "bytes"
            }
          ]
        }
      ],
      "stateMutability": "pure"
    },
    {
      "type": "function",
      "name": "eas",
      "inputs": [],
      "outputs": [
        {
          "name": "",
          "type": "address",
          "internalType": "contract IEAS"
        }
      ],
      "stateMutability": "view"
    },
    {
      "type": "function",
      "name": "fulfillers",
      "inputs": [
        {
          "name": "",
          "type": "bytes32",
          "internalType": "bytes32"
        }
      ],
      "outputs": [
        {
          "name": "",
          "type": "address",
          "internalType": "address"
        }
      ],
      "stateMutability": "view"
    },
    {
      "type": "function",
      "name": "getSplits",
      "inputs": [
        {
          "name": "oracle",
          "type": "address",
          "internalType": "address"
        },
        {
          "name": "fulfillment",
          "type": "bytes32",
          "internalType": "bytes32"
        },
        {
          "name": "escrow",
          "type": "bytes32",
          "internalType": "bytes32"
        }
      ],
      "outputs": [
        {
          "name": "",
          "type": "tuple[]",
          "internalType": "struct TokenBundleSplitterBase.BundleSplit[]",
          "components": [
            {
              "name": "recipient",
              "type": "address",
              "internalType": "address"
            },
            {
              "name": "nativeAmount",
              "type": "uint256",
              "internalType": "uint256"
            },
            {
              "name": "erc20Amounts",
              "type": "uint256[]",
              "internalType": "uint256[]"
            },
            {
              "name": "erc721Indices",
              "type": "uint256[]",
              "internalType": "uint256[]"
            },
            {
              "name": "erc1155Amounts",
              "type": "uint256[]",
              "internalType": "uint256[]"
            }
          ]
        }
      ],
      "stateMutability": "view"
    },
    {
      "type": "function",
      "name": "hasDecision",
      "inputs": [
        {
          "name": "",
          "type": "address",
          "internalType": "address"
        },
        {
          "name": "",
          "type": "bytes32",
          "internalType": "bytes32"
        }
      ],
      "outputs": [
        {
          "name": "",
          "type": "bool",
          "internalType": "bool"
        }
      ],
      "stateMutability": "view"
    },
    {
      "type": "function",
      "name": "onERC1155BatchReceived",
      "inputs": [
        {
          "name": "",
          "type": "address",
          "internalType": "address"
        },
        {
          "name": "",
          "type": "address",
          "internalType": "address"
        },
        {
          "name": "",
          "type": "uint256[]",
          "internalType": "uint256[]"
        },
        {
          "name": "",
          "type": "uint256[]",
          "internalType": "uint256[]"
        },
        {
          "name": "",
          "type": "bytes",
          "internalType": "bytes"
        }
      ],
      "outputs": [
        {
          "name": "",
          "type": "bytes4",
          "internalType": "bytes4"
        }
      ],
      "stateMutability": "nonpayable"
    },
    {
      "type": "function",
      "name": "onERC1155Received",
      "inputs": [
        {
          "name": "",
          "type": "address",
          "internalType": "address"
        },
        {
          "name": "",
          "type": "address",
          "internalType": "address"
        },
        {
          "name": "",
          "type": "uint256",
          "internalType": "uint256"
        },
        {
          "name": "",
          "type": "uint256",
          "internalType": "uint256"
        },
        {
          "name": "",
          "type": "bytes",
          "internalType": "bytes"
        }
      ],
      "outputs": [
        {
          "name": "",
          "type": "bytes4",
          "internalType": "bytes4"
        }
      ],
      "stateMutability": "nonpayable"
    },
    {
      "type": "function",
      "name": "requestArbitration",
      "inputs": [
        {
          "name": "_fulfillment",
          "type": "bytes32",
          "internalType": "bytes32"
        },
        {
          "name": "_escrow",
          "type": "bytes32",
          "internalType": "bytes32"
        },
        {
          "name": "oracle",
          "type": "address",
          "internalType": "address"
        },
        {
          "name": "demand",
          "type": "bytes",
          "internalType": "bytes"
        }
      ],
      "outputs": [],
      "stateMutability": "nonpayable"
    },
    {
      "type": "function",
      "name": "supportsInterface",
      "inputs": [
        {
          "name": "interfaceId",
          "type": "bytes4",
          "internalType": "bytes4"
        }
      ],
      "outputs": [
        {
          "name": "",
          "type": "bool",
          "internalType": "bool"
        }
      ],
      "stateMutability": "view"
    },
    {
      "type": "function",
      "name": "unsafePartiallyCollectAndDistribute",
      "inputs": [
        {
          "name": "escrowContract",
          "type": "address",
          "internalType": "address"
        },
        {
          "name": "escrow",
          "type": "bytes32",
          "internalType": "bytes32"
        },
        {
          "name": "fulfillment",
          "type": "bytes32",
          "internalType": "bytes32"
        }
      ],
      "outputs": [],
      "stateMutability": "nonpayable"
    },
    {
      "type": "event",
      "name": "ArbitrationMade",
      "inputs": [
        {
          "name": "decisionKey",
          "type": "bytes32",
          "indexed": true,
          "internalType": "bytes32"
        },
        {
          "name": "fulfillmentUid",
          "type": "bytes32",
          "indexed": true,
          "internalType": "bytes32"
        },
        {
          "name": "oracle",
          "type": "address",
          "indexed": true,
          "internalType": "address"
        }
      ],
      "anonymous": false
    },
    {
      "type": "event",
      "name": "ArbitrationRequested",
      "inputs": [
        {
          "name": "fulfillment",
          "type": "bytes32",
          "indexed": true,
          "internalType": "bytes32"
        },
        {
          "name": "escrow",
          "type": "bytes32",
          "indexed": true,
          "internalType": "bytes32"
        },
        {
          "name": "oracle",
          "type": "address",
          "indexed": true,
          "internalType": "address"
        },
        {
          "name": "demand",
          "type": "bytes",
          "indexed": false,
          "internalType": "bytes"
        }
      ],
      "anonymous": false
    },
    {
      "type": "event",
      "name": "ERC1155TransferFailedOnDistribute",
      "inputs": [
        {
          "name": "recipient",
          "type": "address",
          "indexed": true,
          "internalType": "address"
        },
        {
          "name": "token",
          "type": "address",
          "indexed": true,
          "internalType": "address"
        },
        {
          "name": "tokenId",
          "type": "uint256",
          "indexed": false,
          "internalType": "uint256"
        },
        {
          "name": "amount",
          "type": "uint256",
          "indexed": false,
          "internalType": "uint256"
        }
      ],
      "anonymous": false
    },
    {
      "type": "event",
      "name": "ERC20TransferFailedOnDistribute",
      "inputs": [
        {
          "name": "recipient",
          "type": "address",
          "indexed": true,
          "internalType": "address"
        },
        {
          "name": "token",
          "type": "address",
          "indexed": true,
          "internalType": "address"
        },
        {
          "name": "amount",
          "type": "uint256",
          "indexed": false,
          "internalType": "uint256"
        }
      ],
      "anonymous": false
    },
    {
      "type": "event",
      "name": "ERC721TransferFailedOnDistribute",
      "inputs": [
        {
          "name": "recipient",
          "type": "address",
          "indexed": true,
          "internalType": "address"
        },
        {
          "name": "token",
          "type": "address",
          "indexed": true,
          "internalType": "address"
        },
        {
          "name": "tokenId",
          "type": "uint256",
          "indexed": false,
          "internalType": "uint256"
        }
      ],
      "anonymous": false
    },
    {
      "type": "event",
      "name": "EscrowCollectedAndDistributed",
      "inputs": [
        {
          "name": "escrowUid",
          "type": "bytes32",
          "indexed": true,
          "internalType": "bytes32"
        },
        {
          "name": "fulfillmentUid",
          "type": "bytes32",
          "indexed": true,
          "internalType": "bytes32"
        },
        {
          "name": "fulfiller",
          "type": "address",
          "indexed": true,
          "internalType": "address"
        }
      ],
      "anonymous": false
    },
    {
      "type": "event",
      "name": "FulfillmentCreated",
      "inputs": [
        {
          "name": "fulfillmentUid",
          "type": "bytes32",
          "indexed": true,
          "internalType": "bytes32"
        },
        {
          "name": "fulfiller",
          "type": "address",
          "indexed": true,
          "internalType": "address"
        },
        {
          "name": "obligationContract",
          "type": "address",
          "indexed": true,
          "internalType": "address"
        }
      ],
      "anonymous": false
    },
    {
      "type": "event",
      "name": "NativeTransferFailedOnDistribute",
      "inputs": [
        {
          "name": "recipient",
          "type": "address",
          "indexed": true,
          "internalType": "address"
        },
        {
          "name": "amount",
          "type": "uint256",
          "indexed": false,
          "internalType": "uint256"
        }
      ],
      "anonymous": false
    },
    {
      "type": "error",
      "name": "AttestationRevoked",
      "inputs": []
    },
    {
      "type": "error",
      "name": "DeadlineExpired",
      "inputs": []
    },
    {
      "type": "error",
      "name": "ERC1155TransferFailed",
      "inputs": [
        {
          "name": "token",
          "type": "address",
          "internalType": "address"
        },
        {
          "name": "to",
          "type": "address",
          "internalType": "address"
        },
        {
          "name": "tokenId",
          "type": "uint256",
          "internalType": "uint256"
        },
        {
          "name": "amount",
          "type": "uint256",
          "internalType": "uint256"
        }
      ]
    },
    {
      "type": "error",
      "name": "ERC20TransferFailed",
      "inputs": [
        {
          "name": "token",
          "type": "address",
          "internalType": "address"
        },
        {
          "name": "to",
          "type": "address",
          "internalType": "address"
        },
        {
          "name": "amount",
          "type": "uint256",
          "internalType": "uint256"
        }
      ]
    },
    {
      "type": "error",
      "name": "ERC721TransferFailed",
      "inputs": [
        {
          "name": "token",
          "type": "address",
          "internalType": "address"
        },
        {
          "name": "to",
          "type": "address",
          "internalType": "address"
        },
        {
          "name": "tokenId",
          "type": "uint256",
          "internalType": "uint256"
        }
      ]
    },
    {
      "type": "error",
      "name": "EmptySplits",
      "inputs": []
    },
    {
      "type": "error",
      "name": "FulfillerAlreadyRecorded",
      "inputs": [
        {
          "name": "fulfillment",
          "type": "bytes32",
          "internalType": "bytes32"
        }
      ]
    },
    {
      "type": "error",
      "name": "InvalidAttestationUid",
      "inputs": []
    },
    {
      "type": "error",
      "name": "InvalidCollectedAmount",
      "inputs": [
        {
          "name": "expected",
          "type": "uint256",
          "internalType": "uint256"
        },
        {
          "name": "actual",
          "type": "uint256",
          "internalType": "uint256"
        }
      ]
    },
    {
      "type": "error",
      "name": "InvalidCreatedFulfillment",
      "inputs": [
        {
          "name": "fulfillment",
          "type": "bytes32",
          "internalType": "bytes32"
        }
      ]
    },
    {
      "type": "error",
      "name": "InvalidERC721Receipt",
      "inputs": [
        {
          "name": "token",
          "type": "address",
          "internalType": "address"
        },
        {
          "name": "tokenId",
          "type": "uint256",
          "internalType": "uint256"
        }
      ]
    },
    {
      "type": "error",
      "name": "InvalidEscrowAttestation",
      "inputs": []
    },
    {
      "type": "error",
      "name": "InvalidFulfillmentRecipient",
      "inputs": []
    },
    {
      "type": "error",
      "name": "InvalidFulfillmentUid",
      "inputs": []
    },
    {
      "type": "error",
      "name": "NativeTokenRefundFailed",
      "inputs": [
        {
          "name": "recipient",
          "type": "address",
          "internalType": "address"
        },
        {
          "name": "amount",
          "type": "uint256",
          "internalType": "uint256"
        }
      ]
    },
    {
      "type": "error",
      "name": "NativeTokenTransferFailed",
      "inputs": [
        {
          "name": "to",
          "type": "address",
          "internalType": "address"
        },
        {
          "name": "amount",
          "type": "uint256",
          "internalType": "uint256"
        }
      ]
    },
    {
      "type": "error",
      "name": "NoFulfillerRecorded",
      "inputs": [
        {
          "name": "fulfillment",
          "type": "bytes32",
          "internalType": "bytes32"
        }
      ]
    },
    {
      "type": "error",
      "name": "ReentrancyGuardReentrantCall",
      "inputs": []
    },
    {
      "type": "error",
      "name": "TooManySplits",
      "inputs": [
        {
          "name": "provided",
          "type": "uint256",
          "internalType": "uint256"
        },
        {
          "name": "max",
          "type": "uint256",
          "internalType": "uint256"
        }
      ]
    },
    {
      "type": "error",
      "name": "UnauthorizedArbitrationRequest",
      "inputs": []
    }
  ],
  "bytecode": {
    "object": "0x608034609357601f612bb738819003918201601f19168301916001600160401b03831184841017609757808492602094604052833981010312609357516001600160a01b0381169081900360935760017f9b779b17422d0df92223018b32b4d1fa46e071723d6817e2486d003becc55f00555f80546001600160a01b031916919091179055604051612b0b90816100ac8239f35b5f80fd5b634e487b7160e01b5f52604160045260245ffdfe608080604052600436101561001c575b50361561001a575f80fd5b005b5f3560e01c90816301ffc9a71461167c575080632257c0e3146114f25780633c9d7240146111915780634e2d3b121461115f57806373e0d48f14610ce45780638150864d14610cbd578063838a68d914610be157806386314b0d14610ac15780638da3721a1461095b578063a1a8048814610912578063b48210ca146108f7578063bc197c8114610862578063c1dd2c6e1461042d578063c880c06f14610411578063ed7180e3146101315763f23a6e61146100d8575f61000f565b3461012d5760a036600319011261012d576100f16116e9565b506100fa6116ff565b506084356001600160401b03811161012d5761011a90369060040161189b565b5060405163f23a6e6160e01b8152602090f35b5f80fd5b608036600319011261012d576101456116e9565b6024356001600160401b03811161012d57610164903690600401611786565b916044356001600160401b03811680910361012d5760643593610185611c6b565b61018f3447611b61565b604051632cee40b560e21b81526060600482015260648101839052956001600160a01b03909416949093828260848901375f60848489010152836024880152806044880152602087608481601f19601f8801168101030181348a5af19687156103c3575f976103dd575b5086156103ce575f80546040516328c44a9960e21b8152600481018a9052929190839060249082906001600160a01b03165afa9182156103c3575f9261039f575b508782511494851595610387575b851561036f575b8515610357575b508415610348575b50831561031d575b50505061030a575f838152600260205260409020546001600160a01b03166102f7575f83815260026020908152604090912080546001600160a01b031916339081179091559093916102b891906128fd565b6040519133827ff845579b2e96200541b4e2b438fbb65e772b70ac68265030aa16f6d8e16501d95f80a460015f516020612ab65f395f51905f52558152f35b8263aa8904b160e01b5f5260045260245ffd5b8263f9d7a76560e01b5f5260045260245ffd5b610337929350610120015160208151910120923691611865565b602081519101201415848080610266565b60a0820151141593508761025e565b60608301516001600160401b03161415945088610256565b60c08301516001600160a01b0316301415955061024f565b60e08301516001600160a01b03168814159550610248565b6103bc9192503d805f833e6103b48183611829565b810190611a21565b908861023a565b6040513d5f823e3d90fd5b6303acddcd60e41b5f5260045ffd5b9096506020813d602011610409575b816103f960209383611829565b8101031261012d575195876101f9565b3d91506103ec565b3461012d575f36600319011261012d57602060405161eeee8152f35b3461012d5761045061043e36611729565b818194929361044b611c6b565b611d65565b5f848152600260205260408120549294926001600160a01b03165b85518210156108295761049381856001600160a01b0361048b868b61198b565b515116612869565b9361049e838861198b565b519560208701805190816107f4575b50506040870197925f5b8951805182101561059757816104cc9161198b565b516104da575b6001016104b7565b6060870180516001600160a01b03906104f490849061198b565b511690610502838d5161198b565b51916040519063a9059cbb60e01b5f5260018060a01b038c16938460045260245260205f60448180855af19060015f511482161561058a575b50906040521561054c5750506104d2565b518b92610570916001600160a01b039061056790839061198b565b5116935161198b565b51916307a1d48760e01b5f5260045260245260445260645ffd5b3b15153d1516168e61053b565b5050939197509194955f94606082019660a082019560c083019a5b895180518a101561068b57896105c79161198b565b51988c6105ea8b8b6105e18260018060a01b03925161198b565b5116925161198b565b5190803b1561012d57604051632142170760e11b81523060048201526001600160a01b038f16602482015260448101929092525f908290606490829084905af1908161067b575b50610671578c8c61064f8c8c6105678260018060a01b03925161198b565b519163e3bbfcd760e01b5f5260045260018060a01b031660245260445260645ffd5b60010198506105b2565b5f61068591611829565b8e610631565b5095949a50955091955096955060805f9501945b855180518210156107de57816106b49161198b565b516106c2575b60010161069f565b979260e08893959298019460018060a01b036106df8b885161198b565b5116986101008501996106f38c8c5161198b565b516106ff8d8b5161198b565b51823b1561012d57604051637921219560e11b81523060048201526001600160a01b038d1660248201526044810192909252606482015260a060848201525f60a482018190529091829060c490829084905af190816107ce575b506107c15760848a8a8a61078f8f610787818e61077e8260018060a01b03925161198b565b5116965161198b565b51925161198b565b51604051636bb6a96f60e01b815260048101949094526001600160a01b03909216602484015260448301526064820152fd5b92955092975092976106ba565b5f6107d891611829565b8c610759565b505094509495600191929350019092949161046b565b5f80808060018060a01b038c1695865af161080d6128aa565b506104ad5751906338f0620160e21b5f5260045260245260445ffd5b83857f38f05a74107505cf7df4cc8ba5851ede31789102da819ba98b8f39107e73ec6f5f80a460015f516020612ab65f395f51905f5255005b3461012d5760a036600319011261012d5761087b6116e9565b506108846116ff565b506044356001600160401b03811161012d576108a49036906004016118e4565b506064356001600160401b03811161012d576108c49036906004016118e4565b506084356001600160401b03811161012d576108e490369060040161189b565b5060405163bc197c8160e01b8152602090f35b3461012d575f36600319011261012d57602060405160328152f35b3461012d57604036600319011261012d576001600160a01b036109336116e9565b165f52600160205260405f206024355f52602052602060ff60405f2054166040519015158152f35b3461012d57606036600319011261012d576004356001600160401b03811161012d57610140600319823603011261012d57604051906109998261180d565b80600401358252602481013560208301526109b6604482016118b9565b60408301526109c7606482016118b9565b60608301526109d8608482016118b9565b608083015260a481013560a08301526109f360c48201611715565b60c0830152610a0460e48201611715565b60e0830152610104810135801515810361012d57610100830152610124810135906001600160401b03821161012d576004610a42923692010161189b565b6101208201526024356001600160401b03811161012d57610a6790369060040161189b565b610a70826128d9565b80516001600160a01b0391610a8d91810160209081019101611afe565b51165f526001602052610aa860405f20916044359051611b6e565b5f52602052602060ff60405f2054166040519015158152f35b3461012d57608036600319011261012d576044356001600160a01b038116906024359082900361012d576064356001600160401b03811161012d57610b0a90369060040161189b565b5f80546040516328c44a9960e21b8152600481018590529190829060249082906001600160a01b03165afa9081156103c3575f91610bc7575b5060e08101516001600160a01b03163314159081610baf575b50610ba0577f8c71f7964ccbceaff13fb1c085cf7491115c2bed4a6aca02c6c6208f08609b826040516020815280610b9b6004359460208301906117b3565b0390a4005b63ff323ecb60e01b5f5260045ffd5b60c001516001600160a01b0316331415905084610b5c565b610bdb91503d805f833e6103b48183611829565b84610b43565b3461012d57602036600319011261012d576004356001600160401b03811161012d57610c11903690600401611786565b60606020604051610c21816117f2565b5f8152015281019060208183031261012d578035906001600160401b03821161012d570160408183031261012d5760405191610c5c836117f2565b610c6582611715565b835260208201356001600160401b03811161012d57610c84920161189b565b9060208101918252610cb96040519283926020845260018060a01b0390511660208401525160408084015260608301906117b3565b0390f35b3461012d575f36600319011261012d575f546040516001600160a01b039091168152602090f35b3461012d57610d03610cf536611729565b81819361044b959395611c6b565b5f838152600260205260408120549194909390916001600160a01b03165b835185101561112757610d4181836001600160a01b0361048b898961198b565b92610d4c868661198b565b519260208401805190816110d6575b50506040840195925f5b87518051821015610e595790610d7d8160019361198b565b51610d89575b01610d65565b8860608c01838060a01b03610d9f84835161198b565b51169083610dae81855161198b565b51926040519063a9059cbb60e01b5f528d888060a01b0316948560045260245260205f60448180855af190885f5114821615610e4c575b509060405215610df9575b50505050610d83565b610e3b817ff74480709fec33a3b1a6a81aaf2a8fa70d719b88009fbee204be461d84f84df093610e326020948a8060a01b03925161198b565b5116955161198b565b51604051908152a3888c8083610df0565b3b15153d1516165f610de5565b505096939290979195505f95606084019760a084019960c08501985b8a518051821015610f6f5781610e8a9161198b565b51908c610e9f8360018060a01b03925161198b565b511691610ead818d5161198b565b5192803b1561012d57604051632142170760e11b81523060048201526001600160a01b038d16602482015260448101949094526001938f915f908290606490829084905af19081610f5f575b50610f5857610f1d90610f1383868060a01b03925161198b565b5116918d5161198b565b516040519081527f2cdd66d926c3684d9b7be9910be2f61678a88971bc9187ef07b86dc048964aa460208d868060a01b031692a35b01610e75565b5050610f52565b5f610f6991611829565b5f610ef9565b5050949699509497509091955060805f9501945b855180518210156110c15781610f989161198b565b51610fa6575b600101610f83565b60e087019060018060a01b03610fbd82845161198b565b511691610100890190610fd183835161198b565b5193610fde848b5161198b565b5190803b1561012d57604051637921219560e11b81523060048201526001600160a01b038f1660248201526044810196909652606486019190915260a060848601525f60a486018190526001958592909190829060c490829084905af190816110b1575b506110a95761105c916105e182878060a01b03925161198b565b51611068838a5161198b565b5160405191825260208201527f616cfada1d83c91b3ab4d0488d450dbb131a917d044bde559c55552aebdf433f60408d868060a01b031692a35b9050610f9e565b5050506110a2565b5f6110bb91611829565b8e611042565b50509496509460019192935001939291610d21565b5f80808060018060a01b038b1695865af16110ef6128aa565b50610d5b5760207f49883307846eabe1e4a9b4d7e3378305c6115c7df65c270a47f9f9cfe3ab69ad9151604051908152a28880610d5b565b917f38f05a74107505cf7df4cc8ba5851ede31789102da819ba98b8f39107e73ec6f5f80a460015f516020612ab65f395f51905f5255005b3461012d57602036600319011261012d576004355f526002602052602060018060a01b0360405f205416604051908152f35b3461012d57606036600319011261012d576044356024356004356001600160401b03831161012d573660238401121561012d578260040135906001600160401b03821161012d576024840193602436918460051b01011161012d5780156103ce57826111fc91611b6e565b9281156114e357603282116114cb57335f52600360205260405f20845f5260205260405f208054905f815581611460575b50505f915b80831061128557505050335f52600160205260405f20825f5260205260405f20600160ff1982541617905533917f316840fa12fff978748bb0addc98aa699d0e100e99cb115876030599d06fb01a5f80a4005b9390919293335f52600360205260405f20825f5260205260405f208054600160401b81101561144c576112bd91600182018155611bc4565b5050335f52600360205260405f20825f526020526112de8460405f20611bc4565b50926112eb858383611bdd565b356001600160a01b038116810361012d5784546001600160a01b0319166001600160a01b03919091161784556020611324868484611bdd565b01356001850155600284019261133984611b94565b6004600386019561134987611b94565b019061135482611b94565b5f5b61136e611364898787611bdd565b6040810190611bff565b90508110156113a2578061139c61139560019361138f6113648d8b8b611bdd565b90611c34565b3588611c44565b01611356565b5096909493505f5b6113c26113b8888686611bdd565b6060810190611bff565b90508110156113f057806113ea6113e360019361138f6113b88c8a8a611bdd565b3587611c44565b016113aa565b5095909392505f5b611410611406878588611bdd565b6080810190611bff565b905081101561143e578061143861143160019361138f6114068b898c611bdd565b3586611c44565b016113f8565b509493600101929150611232565b634e487b7160e01b5f52604160045260245ffd5b816005029160058304036114b7575f5260205f20908101905b8181101561122d57805f600592555f600182015561149960028201611b94565b6114a560038201611b94565b6114b160048201611b94565b01611479565b634e487b7160e01b5f52601160045260245ffd5b5063b268613560e01b5f52600452603260245260445ffd5b63143160cf60e01b5f5260045ffd5b3461012d5761152361150336611729565b6001600160a01b039092165f908152600360205260409020929190611b6e565b5f5260205260405f20805490611538826118cd565b916115466040519384611829565b8083526020830180925f5260205f205f915b83831061161557848660405191829160208301906020845251809152604083019060408160051b85010192915f905b82821061159657505050500390f35b919360019193955060206116058192603f198a8203018652885190858060a01b038251168152838201518482015260806115f46115e2604085015160a0604086015260a0850190611753565b60608501518482036060860152611753565b920151906080818403910152611753565b9601920192018594939192611587565b60056020600192604051611628816117d7565b848060a01b038654168152848601548382015261164760028701611941565b604082015261165860038701611941565b606082015261166960048701611941565b6080820152815201920192019190611558565b3461012d57602036600319011261012d576004359063ffffffff60e01b821680920361012d57602091630271189760e51b81149081156116be575b5015158152f35b6346d1b90d60e11b8114915081156116d8575b50836116b7565b6301ffc9a760e01b149050836116d1565b600435906001600160a01b038216820361012d57565b602435906001600160a01b038216820361012d57565b35906001600160a01b038216820361012d57565b606090600319011261012d576004356001600160a01b038116810361012d57906024359060443590565b90602080835192838152019201905f5b8181106117705750505090565b8251845260209384019390920191600101611763565b9181601f8401121561012d578235916001600160401b03831161012d576020838186019501011161012d57565b805180835260209291819084018484015e5f828201840152601f01601f1916010190565b60a081019081106001600160401b0382111761144c57604052565b604081019081106001600160401b0382111761144c57604052565b61014081019081106001600160401b0382111761144c57604052565b90601f801991011681019081106001600160401b0382111761144c57604052565b6001600160401b03811161144c57601f01601f191660200190565b9291926118718261184a565b9161187f6040519384611829565b82948184528183011161012d578281602093845f960137010152565b9080601f8301121561012d578160206118b693359101611865565b90565b35906001600160401b038216820361012d57565b6001600160401b03811161144c5760051b60200190565b9080601f8301121561012d5781356118fb816118cd565b926119096040519485611829565b81845260208085019260051b82010192831161012d57602001905b8282106119315750505090565b8135815260209182019101611924565b90604051918281549182825260208201905f5260205f20925f5b81811061197257505061197092500383611829565b565b845483526001948501948794506020909301920161195b565b805182101561199f5760209160051b010190565b634e487b7160e01b5f52603260045260245ffd5b51906001600160401b038216820361012d57565b51906001600160a01b038216820361012d57565b81601f8201121561012d578051906119f28261184a565b92611a006040519485611829565b8284526020838301011161012d57815f9260208093018386015e8301015290565b60208183031261012d578051906001600160401b03821161012d57016101408183031261012d5760405191611a558361180d565b8151835260208201516020840152611a6f604083016119b3565b6040840152611a80606083016119b3565b6060840152611a91608083016119b3565b608084015260a082015160a0840152611aac60c083016119c7565b60c0840152611abd60e083016119c7565b60e0840152610100820151801515810361012d576101008401526101208201516001600160401b03811161012d57611af592016119db565b61012082015290565b60208183031261012d578051906001600160401b03821161012d570160408183031261012d5760405191611b31836117f2565b611b3a826119c7565b835260208201516001600160401b03811161012d57611b5992016119db565b602082015290565b919082039182116114b757565b906040519060208201928352604082015260408152611b8e606082611829565b51902090565b8054905f815581611ba3575050565b5f5260205f20908101905b818110611bb9575050565b5f8155600101611bae565b805482101561199f575f52600560205f20910201905f90565b919081101561199f5760051b81013590609e198136030182121561012d570190565b903590601e198136030182121561012d57018035906001600160401b03821161012d57602001918160051b3603831361012d57565b919081101561199f5760051b0190565b805490600160401b82101561144c576001820180825582101561199f575f5260205f200155565b60025f516020612ab65f395f51905f525414611c945760025f516020612ab65f395f51905f5255565b633ee5aeb560e01b5f5260045ffd5b9080601f8301121561012d578151611cba816118cd565b92611cc86040519485611829565b81845260208085019260051b82010192831161012d57602001905b828210611cf05750505090565b60208091611cfd846119c7565b815201910190611ce3565b9080601f8301121561012d578151611d1f816118cd565b92611d2d6040519485611829565b81845260208085019260051b82010192831161012d57602001905b828210611d555750505090565b8151815260209182019101611d48565b6060610120604051611d768161180d565b5f81528260208201525f604082015282808201528260808201528260a08201528260c08201528260e082015282610100820152015260018060a01b035f54166040516328c44a9960e21b81528360048201525f81602481855afa9081156103c3575f9161284f575b5060e08101516001600160a01b038481169116148015906127e0575b6127d1578051156127c2576001600160401b0360608201511680151590816127b7575b506127a8576001600160401b03608082015116612799575f602492604051938480926328c44a9960e21b82528960048301525afa9182156103c35761012092611e6d915f9161277f575b506128d9565b01518051810194602086019160208188031261012d576020810151906001600160401b03821161012d570195610140908790031261012d5760405195611eb28761180d565b611ebe602082016119c7565b875260408101516001600160401b03811161012d57836020611ee2928401016119db565b92602088019384526060820151604089015260808201516001600160401b03811161012d57816020611f1692850101611ca3565b606089015260a08201516001600160401b03811161012d57816020611f3d92850101611d08565b608089015260c08201516001600160401b03811161012d57816020611f6492850101611ca3565b60a089015260e08201516001600160401b03811161012d57816020611f8b92850101611d08565b60c08901526101008201516001600160401b03811161012d57816020611fb392850101611ca3565b60e08901526101208201516001600160401b03811161012d57816020611fdb92850101611d08565b610100890152610140820151916001600160401b03831161012d576120039201602001611d08565b61012087015285915161202660018060a01b039160208082518301019101611afe565b51165f52600360205260405f2061203d8587611b6e565b5f5260205260405f208054612051816118cd565b9161205f6040519384611829565b81835260208301905f5260205f205f915b8383106127185750505050905f5b60a08801518051821015612169576001600160a01b03906120a090839061198b565b511660206120b28360c08c015161198b565b516024604051809481936331a9108f60e11b835260048301525afa9081156103c3575f91612130575b506001600160a01b031630146120f35760010161207e565b612119889160c060018060a01b0361210f8360a087015161198b565b511693015161198b565b5190631e40975f60e01b5f5260045260245260445ffd5b90506020813d8211612161575b8161214a60209383611829565b8101031261012d5761215b906119c7565b5f6120db565b3d915061213d565b505092959093949194479361218260608401515161294e565b955f5b6060850151805182101561221d57602491906020906001600160a01b03906121ae90849061198b565b5116604051938480926370a0823160e01b82523060048301525afa80156103c3575f906121eb575b600192506121e4828b61198b565b5201612185565b506020823d8211612215575b8161220460209383611829565b8101031261012d57600191516121d6565b3d91506121f7565b505091949796909295939661223660e08801515161294e565b985f5b60e089015180518210156122f0579060208a612267836101006122919661210f8360018060a01b039261198b565b51604051627eeac760e11b8152306004820152602481019190915293849190829081906044820190565b03915afa80156103c3578c925f916122b8575b506122b18260019461198b565b5201612239565b9250506020823d82116122e8575b816122d360209383611829565b8101031261012d5790518b91906122b16122a4565b3d91506122c6565b5050919498939760445f929497836040519687948593633a9bb12760e21b85526004850152602484015260018060a01b03165af180156103c3576126d7575b6123459150969291959647604087015191612980565b5f945b6060850151518610156124895761235f86866129ca565b1561247d575f9660018060a01b0361237b88606089015161198b565b5116945f5b606088015180518210156123d85787906001600160a01b03906123a490849061198b565b5116146123b4575b600101612380565b986123d06001916123c98c60808c015161198b565b5190612a22565b9990506123ac565b5050945095969091929660246123ee828a61198b565b51602060018060a01b036124068560608c015161198b565b5116604051938480926370a0823160e01b82523060048301525afa9182156103c3575f92612447575b509261243d91600194612980565b0194959190612348565b9150926020823d8211612475575b8161246260209383611829565b8101031261012d5790519092600161242f565b3d9150612455565b9091959460019061243d565b929450929490505f5b60a0860151805182101561255e576001600160a01b03906124b490839061198b565b511660206124c68360c08a015161198b565b516024604051809481936331a9108f60e11b835260048301525afa9081156103c3575f91612525575b50306001600160a01b039091160361250957600101612492565b612119869160c060018060a01b0361210f8360a087015161198b565b90506020813d8211612556575b8161253f60209383611829565b8101031261012d57612550906119c7565b5f6124ef565b3d9150612532565b5091945f94939092505b60e0830151518510156126cf5761257f8584612a2f565b156126c2575f9360018060a01b0361259b8760e087015161198b565b5116916125ad8761010087015161198b565b51935f5b60e087015180518210156126215785906001600160a01b03906125d590849061198b565b51161480612609575b6125eb575b6001016125b1565b966126016001916123c98a6101208b015161198b565b9790506125e3565b508561261a826101008a015161198b565b51146125de565b50509691949592509250612661612638828961198b565b51602060018060a01b036126508560e08b015161198b565b5116612267856101008b015161198b565b03915afa9182156103c3575f9261268c575b509261268191600194612980565b019390929192612568565b9150926020823d82116126ba575b816126a760209383611829565b8101031261012d57905190926001612673565b3d915061269a565b9093600190939293612681565b935091935050565b3d805f843e6126e68184611829565b82019160208184031261012d578051926001600160401b03841161012d576123459361271292016119db565b5061232f565b6005602060019260405161272b816117d7565b848060a01b038654168152848601548382015261274a60028701611941565b604082015261275b60038701611941565b606082015261276c60048701611941565b6080820152815201920192019190612070565b61279391503d805f833e6103b48183611829565b5f611e67565b637b6227e960e11b5f5260045ffd5b631ab7da6b60e01b5f5260045ffd5b90504210155f611e1d565b635c2c7f8960e01b5f5260045ffd5b63629cd40b60e11b5f5260045ffd5b50602081810151604051635bf2f20d60e01b815291826004816001600160a01b0389165afa9182156103c3575f9261281b575b501415611dfa565b9091506020813d602011612847575b8161283760209383611829565b8101031261012d5751905f612813565b3d915061282a565b61286391503d805f833e6103b48183611829565b5f611dde565b91906001600160a01b03831661eeee1461288257505090565b9091506001600160a01b03821615612898575090565b6379c5a2db60e01b5f5260045260245ffd5b3d156128d4573d906128bb8261184a565b916128c96040519384611829565b82523d5f602084013e565b606090565b60c001516001600160a01b031630036128ee57565b634672d00f60e01b5f5260045ffd5b4790808211156129495761291091611b61565b906001600160a01b03165f80808085855af161292a6128aa565b5015612934575050565b632247bb8b60e21b5f5260045260245260445ffd5b505050565b90612958826118cd565b6129656040519182611829565b8281528092612976601f19916118cd565b0190602036910137565b908181106129b3579061299291611b61565b9080820361299e575050565b631a3dba0360e31b5f5260045260245260445ffd5b82631a3dba0360e31b5f526004525f60245260445ffd5b60600180516001600160a01b03906129e390849061198b565b5116905f5b8381106129f85750505050600190565b8260018060a01b03612a0b83855161198b565b511614612a1a576001016129e8565b505050505f90565b919082018092116114b757565b60e081019061010060018060a01b03612a4985855161198b565b5116910191612a5984845161198b565b51915f5b858110612a6f57505050505050600190565b8160018060a01b03612a8283865161198b565b51161480612aa1575b612a9757600101612a5d565b5050505050505f90565b5083612aae82875161198b565b5114612a8b56fe9b779b17422d0df92223018b32b4d1fa46e071723d6817e2486d003becc55f00a26469706673582212204b1d2bd18de0a2f2895b95cb8449a94d7e5932fdbcb682c85ba5c054749533a364736f6c634300081b0033",
    "linkReferences": {}
  },
  "methodIdentifiers": {
    "EXECUTOR_SENTINEL()": "c880c06f",
    "MAX_SPLITS()": "b48210ca",
    "arbitrate(bytes32,bytes32,(address,uint256,uint256[],uint256[],uint256[])[])": "3c9d7240",
    "check((bytes32,bytes32,uint64,uint64,uint64,bytes32,address,address,bool,bytes),bytes,bytes32)": "8da3721a",
    "collectAndDistribute(address,bytes32,bytes32)": "c1dd2c6e",
    "createFulfillment(address,bytes,uint64,bytes32)": "ed7180e3",
    "decodeDemandData(bytes)": "838a68d9",
    "eas()": "8150864d",
    "fulfillers(bytes32)": "4e2d3b12",
    "getSplits(address,bytes32,bytes32)": "2257c0e3",
    "hasDecision(address,bytes32)": "a1a80488",
    "onERC1155BatchReceived(address,address,uint256[],uint256[],bytes)": "bc197c81",
    "onERC1155Received(address,address,uint256,uint256,bytes)": "f23a6e61",
    "requestArbitration(bytes32,bytes32,address,bytes)": "86314b0d",
    "supportsInterface(bytes4)": "01ffc9a7",
    "unsafePartiallyCollectAndDistribute(address,bytes32,bytes32)": "73e0d48f"
  },
  "id": 91
}