{
  "abi": [
    {
      "type": "constructor",
      "inputs": [
        {
          "name": "_eas",
          "type": "address",
          "internalType": "contract IEAS"
        },
        {
          "name": "_erc20Payment",
          "type": "address",
          "internalType": "contract ERC20PaymentObligation"
        },
        {
          "name": "_erc721Payment",
          "type": "address",
          "internalType": "contract ERC721PaymentObligation"
        },
        {
          "name": "_erc1155Payment",
          "type": "address",
          "internalType": "contract ERC1155PaymentObligation"
        },
        {
          "name": "_nativePayment",
          "type": "address",
          "internalType": "contract NativeTokenPaymentObligation"
        },
        {
          "name": "_bundlePayment",
          "type": "address",
          "internalType": "contract TokenBundlePaymentObligation"
        }
      ],
      "stateMutability": "nonpayable"
    },
    {
      "type": "function",
      "name": "onERC1155BatchReceived",
      "inputs": [
        {
          "name": "",
          "type": "address",
          "internalType": "address"
        },
        {
          "name": "",
          "type": "address",
          "internalType": "address"
        },
        {
          "name": "",
          "type": "uint256[]",
          "internalType": "uint256[]"
        },
        {
          "name": "",
          "type": "uint256[]",
          "internalType": "uint256[]"
        },
        {
          "name": "",
          "type": "bytes",
          "internalType": "bytes"
        }
      ],
      "outputs": [
        {
          "name": "",
          "type": "bytes4",
          "internalType": "bytes4"
        }
      ],
      "stateMutability": "pure"
    },
    {
      "type": "function",
      "name": "onERC1155Received",
      "inputs": [
        {
          "name": "",
          "type": "address",
          "internalType": "address"
        },
        {
          "name": "",
          "type": "address",
          "internalType": "address"
        },
        {
          "name": "",
          "type": "uint256",
          "internalType": "uint256"
        },
        {
          "name": "",
          "type": "uint256",
          "internalType": "uint256"
        },
        {
          "name": "",
          "type": "bytes",
          "internalType": "bytes"
        }
      ],
      "outputs": [
        {
          "name": "",
          "type": "bytes4",
          "internalType": "bytes4"
        }
      ],
      "stateMutability": "pure"
    },
    {
      "type": "function",
      "name": "payBundleAndCollect",
      "inputs": [
        {
          "name": "escrowUid",
          "type": "bytes32",
          "internalType": "bytes32"
        }
      ],
      "outputs": [
        {
          "name": "",
          "type": "bytes32",
          "internalType": "bytes32"
        }
      ],
      "stateMutability": "payable"
    },
    {
      "type": "function",
      "name": "payErc1155AndCollect",
      "inputs": [
        {
          "name": "escrowUid",
          "type": "bytes32",
          "internalType": "bytes32"
        }
      ],
      "outputs": [
        {
          "name": "",
          "type": "bytes32",
          "internalType": "bytes32"
        }
      ],
      "stateMutability": "nonpayable"
    },
    {
      "type": "function",
      "name": "payErc20AndCollect",
      "inputs": [
        {
          "name": "escrowUid",
          "type": "bytes32",
          "internalType": "bytes32"
        }
      ],
      "outputs": [
        {
          "name": "",
          "type": "bytes32",
          "internalType": "bytes32"
        }
      ],
      "stateMutability": "nonpayable"
    },
    {
      "type": "function",
      "name": "payErc721AndCollect",
      "inputs": [
        {
          "name": "escrowUid",
          "type": "bytes32",
          "internalType": "bytes32"
        }
      ],
      "outputs": [
        {
          "name": "",
          "type": "bytes32",
          "internalType": "bytes32"
        }
      ],
      "stateMutability": "nonpayable"
    },
    {
      "type": "function",
      "name": "payNativeAndCollect",
      "inputs": [
        {
          "name": "escrowUid",
          "type": "bytes32",
          "internalType": "bytes32"
        }
      ],
      "outputs": [
        {
          "name": "",
          "type": "bytes32",
          "internalType": "bytes32"
        }
      ],
      "stateMutability": "payable"
    },
    {
      "type": "function",
      "name": "permitAndPayBundleAndCollect",
      "inputs": [
        {
          "name": "escrowUid",
          "type": "bytes32",
          "internalType": "bytes32"
        },
        {
          "name": "permits",
          "type": "tuple[]",
          "internalType": "struct AtomicPaymentUtils.ERC20PermitSignature[]",
          "components": [
            {
              "name": "v",
              "type": "uint8",
              "internalType": "uint8"
            },
            {
              "name": "r",
              "type": "bytes32",
              "internalType": "bytes32"
            },
            {
              "name": "s",
              "type": "bytes32",
              "internalType": "bytes32"
            },
            {
              "name": "deadline",
              "type": "uint256",
              "internalType": "uint256"
            }
          ]
        }
      ],
      "outputs": [
        {
          "name": "",
          "type": "bytes32",
          "internalType": "bytes32"
        }
      ],
      "stateMutability": "payable"
    },
    {
      "type": "function",
      "name": "permitAndPayErc20AndCollect",
      "inputs": [
        {
          "name": "escrowUid",
          "type": "bytes32",
          "internalType": "bytes32"
        },
        {
          "name": "deadline",
          "type": "uint256",
          "internalType": "uint256"
        },
        {
          "name": "v",
          "type": "uint8",
          "internalType": "uint8"
        },
        {
          "name": "r",
          "type": "bytes32",
          "internalType": "bytes32"
        },
        {
          "name": "s",
          "type": "bytes32",
          "internalType": "bytes32"
        }
      ],
      "outputs": [
        {
          "name": "",
          "type": "bytes32",
          "internalType": "bytes32"
        }
      ],
      "stateMutability": "nonpayable"
    },
    {
      "type": "function",
      "name": "permitAndPayWithErc20",
      "inputs": [
        {
          "name": "token",
          "type": "address",
          "internalType": "address"
        },
        {
          "name": "amount",
          "type": "uint256",
          "internalType": "uint256"
        },
        {
          "name": "payee",
          "type": "address",
          "internalType": "address"
        },
        {
          "name": "refUID",
          "type": "bytes32",
          "internalType": "bytes32"
        },
        {
          "name": "deadline",
          "type": "uint256",
          "internalType": "uint256"
        },
        {
          "name": "v",
          "type": "uint8",
          "internalType": "uint8"
        },
        {
          "name": "r",
          "type": "bytes32",
          "internalType": "bytes32"
        },
        {
          "name": "s",
          "type": "bytes32",
          "internalType": "bytes32"
        }
      ],
      "outputs": [
        {
          "name": "",
          "type": "bytes32",
          "internalType": "bytes32"
        }
      ],
      "stateMutability": "nonpayable"
    },
    {
      "type": "function",
      "name": "supportsInterface",
      "inputs": [
        {
          "name": "interfaceId",
          "type": "bytes4",
          "internalType": "bytes4"
        }
      ],
      "outputs": [
        {
          "name": "",
          "type": "bool",
          "internalType": "bool"
        }
      ],
      "stateMutability": "pure"
    },
    {
      "type": "error",
      "name": "AttestationNotFound",
      "inputs": [
        {
          "name": "attestationId",
          "type": "bytes32",
          "internalType": "bytes32"
        }
      ]
    },
    {
      "type": "error",
      "name": "CouldntCollectEscrow",
      "inputs": []
    },
    {
      "type": "error",
      "name": "IncorrectNativeAmount",
      "inputs": [
        {
          "name": "expected",
          "type": "uint256",
          "internalType": "uint256"
        },
        {
          "name": "actual",
          "type": "uint256",
          "internalType": "uint256"
        }
      ]
    },
    {
      "type": "error",
      "name": "InvalidSignatureLength",
      "inputs": []
    },
    {
      "type": "error",
      "name": "PermitFailed",
      "inputs": [
        {
          "name": "token",
          "type": "address",
          "internalType": "address"
        },
        {
          "name": "reason",
          "type": "string",
          "internalType": "string"
        }
      ]
    },
    {
      "type": "error",
      "name": "SafeERC20FailedOperation",
      "inputs": [
        {
          "name": "token",
          "type": "address",
          "internalType": "address"
        }
      ]
    }
  ],
  "bytecode": {
    "object": "0x6101403461011857601f611b5a38819003918201601f19168301916001600160401b0383118484101761011c5780849260c094604052833981010312610118578051906001600160a01b03821682036101185760208101516001600160a01b03811681036101185760408201516001600160a01b0381168103610118576060830151916001600160a01b0383168303610118576080840151936001600160a01b03851685036101185760a00151946001600160a01b03861686036101185760805260a05260c05260e0526101005261012052604051611a299081610131823960805181610e80015260a051816112bb015260c051816103cd015260e0518161060b0152610100518161093f015261012051816115c60152f35b5f80fd5b634e487b7160e01b5f52604160045260245ffdfe6080806040526004361015610012575f80fd5b5f905f3560e01c90816301ffc9a7146109a3575080632b7aa72e146108965780633f5630c51461080e5780634a8fe372146107c957806359e990f21461074a578063802ca0c6146105165780639351412a14610324578063bc197c811461028b578063f1f2af7f1461014d578063f20cea54146100f25763f23a6e6114610097575f80fd5b346100ef5760a03660031901126100ef576100b06109d9565b506100b96109ef565b506084356001600160401b0381116100ed576100d9903690600401610a35565b505060405163f23a6e6160e01b8152602090f35b505b80fd5b5060203660031901126100ef57602060043561014561012861012d8361011781610e18565b878082969396518301019101610c24565b6113f4565b60e090910151909283916001600160a01b0316611075565b604051908152f35b5060403660031901126100ef576004356024356001600160401b03811161028757366023820112156102875780600401356001600160401b038111610283576024820191602436918360071b010111610283579282936101af6101c194610e18565b60208082979397518301019101610c24565b6020810195865151830361027457604082019695845b87518051821015610263576001600160a01b03906101f690839061134d565b5116610203828b5161134d565b51606061021184898c611375565b013561021e84898c611375565b359160ff8316830361025f57610259928594928c926040610251888e602061024960019d838b611375565b013597611375565b013594611160565b016101d7565b8980fd5b6020846101458561012d838a6113f4565b634be6321b60e01b8452600484fd5b8380fd5b8280fd5b50346100ef5760a03660031901126100ef576102a56109d9565b506102ae6109ef565b506044356001600160401b0381116100ed576102ce903690600401610a05565b50506064356001600160401b0381116100ed576102ef903690600401610a05565b50506084356001600160401b0381116100ed57610310903690600401610a35565b505060405163bc197c8160e01b8152602090f35b50346100ef5760203660031901126100ef576004359061034382610e18565b80939193518101606082820312610283579060208061036493019101610ace565b80516020820180519092916001600160a01b031690813b156104fd576040516323b872dd60e01b815233600482015230602482015260448101919091529085908290606490829084905af180156104f257908591610501575b5050805191516001600160a01b037f00000000000000000000000000000000000000000000000000000000000000008116931690813b156104fd5760405163095ea7b360e01b81526001600160a01b038516600482015260248101919091529085908290604490829084905af180156104f25784929186916104d7575b5092602092916104629460405180968195829463108d1d5d60e21b8452339060048501610b0e565b03925af19283156104cb5792610492575b5060e090920151602092610145918391906001600160a01b0316611075565b9091506020813d6020116104c3575b816104ae60209383610a99565b810103126104bf5751906020610473565b5f80fd5b3d91506104a1565b604051903d90823e3d90fd5b81929350906104e591610a99565b610283578290845f61043a565b6040513d87823e3d90fd5b8580fd5b8161050b91610a99565b61028357835f6103bd565b50346104bf5760203660031901126104bf576004359061053582610e18565b6080818095939551810103126104bf57604051608081018181106001600160401b038211176107365760405261056d60208301610aba565b9081815260408301519160208201928084526060850151906105986080604086019784895201610aba565b60608501908152926001600160a01b031691823b156104bf57604051637921219560e11b81523360048201523060248201526044810192909252606482015260a060848201525f60a482018190529091829060c490829084905af1801561072b57610716575b5081516001600160a01b037f00000000000000000000000000000000000000000000000000000000000000008116929116803b156107125787809160446040518094819363a22cb46560e01b8352886004840152600160248401525af180156107075790889392916106e8575b506040516352056edb60e11b815293516001600160a01b03908116600486015294516024850152945160448401529351909216606482015233608482015260a4810184905291602091839160c49183915af19283156104cb5792610492575060e090920151602092610145918391906001600160a01b0316611075565b836106f69194929394610a99565b610703579086915f61066b565b8680fd5b6040513d8a823e3d90fd5b8780fd5b6107239196505f90610a99565b5f945f6105fe565b6040513d5f823e3d90fd5b634e487b7160e01b5f52604160045260245ffd5b346104bf5760a03660031901126104bf5760443560043560ff821682036104bf5761077481610e18565b929083518401936060818603126104bf5783610145936107c46107a161012d94602080809b019101610ace565b8051898201519193608435926064359260243591906001600160a01b0316611160565b611288565b346104bf5760203660031901126104bf576004356107e681610e18565b8051810192916060828503126104bf5761012d836107c4610145946020808099019101610ace565b346104bf576101003660031901126104bf576108286109d9565b602435906044356001600160a01b03811691908290036104bf5760a4359160ff831683036104bf5760209361086c6101459460e4359060c435906084358588611160565b6040519261087984610a62565b6001600160a01b0316835284830152604082015260643590611288565b60203660031901126104bf576004356108ae81610e18565b90916040828051810103126104bf5760405191604083018381106001600160401b03821117610736576040526108ee604060208301519283865201610aba565b906020840191825280340361098d57508251604051632634e40960e01b81529351600485015290516001600160a01b03908116602485015233604485015260648401839052602091849160849183917f0000000000000000000000000000000000000000000000000000000000000000165af191821561072b575f92610492575060e090920151602092610145918391906001600160a01b0316611075565b635693fffb60e01b5f526004523460245260445ffd5b346104bf5760203660031901126104bf576004359063ffffffff60e01b82168092036104bf57602091630271189760e51b148152f35b600435906001600160a01b03821682036104bf57565b602435906001600160a01b03821682036104bf57565b9181601f840112156104bf578235916001600160401b0383116104bf576020808501948460051b0101116104bf57565b9181601f840112156104bf578235916001600160401b0383116104bf57602083818601950101116104bf57565b606081019081106001600160401b0382111761073657604052565b61014081019081106001600160401b0382111761073657604052565b90601f801991011681019081106001600160401b0382111761073657604052565b51906001600160a01b03821682036104bf57565b91908260609103126104bf57604051610ae681610a62565b6040610b09818395610af781610aba565b85526020810151602086015201610aba565b910152565b81516001600160a01b0390811682526020808401519083015260409283015181169282019290925291166060820152608081019190915260a00190565b6001600160401b0381116107365760051b60200190565b9080601f830112156104bf578151610b7981610b4b565b92610b876040519485610a99565b81845260208085019260051b8201019283116104bf57602001905b828210610baf5750505090565b60208091610bbc84610aba565b815201910190610ba2565b9080601f830112156104bf578151610bde81610b4b565b92610bec6040519485610a99565b81845260208085019260051b8201019283116104bf57602001905b828210610c145750505090565b8151815260209182019101610c07565b6020818303126104bf578051906001600160401b0382116104bf5701610120818303126104bf576040519161012083018381106001600160401b03821117610736576040528151835260208201516001600160401b0381116104bf5781610c8c918401610b62565b602084015260408201516001600160401b0381116104bf5781610cb0918401610bc7565b604084015260608201516001600160401b0381116104bf5781610cd4918401610b62565b606084015260808201516001600160401b0381116104bf5781610cf8918401610bc7565b608084015260a08201516001600160401b0381116104bf5781610d1c918401610b62565b60a084015260c08201516001600160401b0381116104bf5781610d40918401610bc7565b60c084015260e0820151916001600160401b0383116104bf57610d6b61010092610d76948301610bc7565b60e085015201610aba565b61010082015290565b51906001600160401b03821682036104bf57565b6001600160401b03811161073657601f01601f191660200190565b81601f820112156104bf57805190610dc582610d93565b92610dd36040519485610a99565b828452602083830101116104bf57815f9260208093018386015e8301015290565b805180835260209291819084018484015e5f828201840152601f01601f1916010190565b906060610120604051610e2a81610a7d565b5f81525f60208201525f60408201525f838201525f60808201525f60a08201525f60c08201525f60e08201525f61010082015201526040516328c44a9960e21b81528260048201525f8160248160018060a01b037f0000000000000000000000000000000000000000000000000000000000000000165afa90811561072b575f91610f81575b5080928151818115918215610f76575b5050610f64575060e081015161012090910151604051630ec17a2360e31b815260206004820152915f9183916001600160a01b03169082908190610f08906024830190610df4565b03915afa90811561072b575f91610f1d575090565b90503d805f833e610f2e8183610a99565b81016040828203126104bf57610f4382610aba565b5060208201516001600160401b0381116104bf57610f619201610dae565b90565b6301fb6dd160e01b5f5260045260245ffd5b14159050815f610ec0565b90503d805f833e610f928183610a99565b8101906020818303126104bf578051906001600160401b0382116104bf5701610140818303126104bf5760405191610fc983610a7d565b8151835260208201516020840152610fe360408301610d7f565b6040840152610ff460608301610d7f565b606084015261100560808301610d7f565b608084015260a082015160a084015261102060c08301610aba565b60c084015261103160e08301610aba565b60e084015261010082015180151581036104bf576101008401526101208201516001600160401b0381116104bf576110699201610dae565b6101208201525f610eb0565b5f9291838093604051906020820193633a9bb12760e21b855260248301526044820152604481526110a7606482610a99565b51925af13d156110e9573d6110bb81610d93565b906110c96040519283610a99565b81525f60203d92013e5b156110da57565b63a97a981d60e01b5f5260045ffd5b6110d3565b5f60443d10610f61576040513d600319016004823e8051913d60248401116001600160401b0384111761115a57828201928351916001600160401b038311611152573d840160031901858401602001116111525750610f6192910160200190610a99565b949350505050565b92915050565b6001600160a01b031695909490939192909190863b156104bf5760ff906040519463d505accf60e01b86525f973360048801523060248801526044870152606486015216608484015260a483015260c48201525f8160e48183885af19081611273575b5061126e57508060033d1161125d575b506308c379a01461121b575b608490604051906308f14ec160e11b8252600482015260406024820152600d60448201526c2ab735b737bbb71032b93937b960991b6064820152fd5b6112236110ee565b90816112305790506111df565b6112596040519283926308f14ec160e11b84526004840152604060248401526044830190610df4565b0390fd5b9050600481803e5160e01c5f6111d3565b915050565b6112809193505f90610a99565b5f915f6111c3565b6113099160209160018060a01b03815116906112ad8482019283519030903390611853565b805191516001600160a01b037f00000000000000000000000000000000000000000000000000000000000000008116936112ea92918591166118e5565b5f60405180968195829463108d1d5d60e21b8452339060048501610b0e565b03925af190811561072b575f9161131e575090565b90506020813d602011611345575b8161133960209383610a99565b810103126104bf575190565b3d915061132c565b80518210156113615760209160051b010190565b634e487b7160e01b5f52603260045260245ffd5b91908110156113615760071b0190565b90602080835192838152019201905f5b8181106113a25750505090565b82516001600160a01b0316845260209384019390920191600101611395565b90602080835192838152019201905f5b8181106113de5750505090565b82518452602093840193909201916001016113d1565b91825180340361098d575060408301929160208301915f5b83518051821015611451576001919061144b906001600160a01b039061143390849061134d565b5116611440838a5161134d565b519030903390611853565b0161140c565b50506080840194936060810193909290915f5b855180518210156114ee576001600160a01b039061148390839061134d565b511690611491818a5161134d565b5191803b156104bf576040516323b872dd60e01b815233600482015230602482015260448101939093525f908390606490829084905af191821561072b576001926114de575b5001611464565b5f6114e891610a99565b5f6114d7565b50509295909491935f9460a088019260c089019860e08101975b855180518210156115b1576001600160a01b039061152790839061134d565b511690611535818d5161134d565b51611541828c5161134d565b51833b156104bf57604051637921219560e11b81523360048201523060248201526044810192909252606482015260a060848201525f60a482018190529092839060c490829084905af191821561072b576001926115a1575b5001611508565b5f6115ab91610a99565b5f61159a565b50509397929691959890949860018060a01b037f000000000000000000000000000000000000000000000000000000000000000016975f5b8851805182101561162757906116218d8c61161a8460019661161182898060a01b039261134d565b5116935161134d565b51916118e5565b016115e9565b5050929599909396989194985f5b845180518210156116b85790611658818e936116118260018060a01b039261134d565b5191803b156104bf5760405163095ea7b360e01b81526001600160a01b038d16600482015260248101939093525f908390604490829084905af191821561072b576001926116a8575b5001611635565b5f6116b291610a99565b5f6116a1565b505091939699959890929497995f5b8551805182101561173c576001600160a01b03906116e690839061134d565b511690813b156104bf575f809260448f604051958693849263a22cb46560e01b84526004840152600160248401525af191821561072b5760019261172c575b50016116c7565b5f61173691610a99565b5f611725565b5050919395989092949699978351966040519a8b998a98899863ef6ce33f60e01b8a5260048a0160609052885160648b01525160848a0161012090526101848a0161178691611385565b90518982036063190160a48b015261179e91906113c1565b90518882036063190160c48a01526117b69190611385565b90518782036063190160e48901526117ce91906113c1565b9051868203606319016101048801526117e79190611385565b90518582036063190161012487015261180091906113c1565b90518482036063190161014486015261181991906113c1565b610100909201516001600160a01b0316610164840152336024840152604483015203915a94602095f190811561072b575f9161131e575090565b6040516323b872dd60e01b5f9081526001600160a01b039384166004529290931660245260449390935260209060648180865af19060015f51148216156118c4575b6040525f606052156118a45750565b635274afe760e01b5f9081526001600160a01b0391909116600452602490fd5b9060018115166118dc57823b15153d15161690611895565b503d5f823e3d90fd5b916040519163095ea7b360e01b5f5260018060a01b031691826004528160245260205f60448180885af19060015f51148216156119e4575b6040521561192a57505050565b60405163095ea7b360e01b5f52826004525f60245260205f60448180885af19060015f51148216156119cc575b604052156119ae576040519163095ea7b360e01b5f5260045260245260205f60448180865af19060015f5114821615611996575b604052156118a45750565b9060018115166118dc57823b15153d1516169061198b565b635274afe760e01b5f9081526001600160a01b038416600452602490fd5b9060018115166118dc57843b15153d15161690611957565b90843b15153d1516169061191d56fea2646970667358221220052fdede27134a816948e3a76283177396996c0941e76fb3dab804bb383fbd9a64736f6c634300081b0033",
    "linkReferences": {}
  },
  "methodIdentifiers": {
    "onERC1155BatchReceived(address,address,uint256[],uint256[],bytes)": "bc197c81",
    "onERC1155Received(address,address,uint256,uint256,bytes)": "f23a6e61",
    "payBundleAndCollect(bytes32)": "f20cea54",
    "payErc1155AndCollect(bytes32)": "802ca0c6",
    "payErc20AndCollect(bytes32)": "4a8fe372",
    "payErc721AndCollect(bytes32)": "9351412a",
    "payNativeAndCollect(bytes32)": "2b7aa72e",
    "permitAndPayBundleAndCollect(bytes32,(uint8,bytes32,bytes32,uint256)[])": "f1f2af7f",
    "permitAndPayErc20AndCollect(bytes32,uint256,uint8,bytes32,bytes32)": "59e990f2",
    "permitAndPayWithErc20(address,uint256,address,bytes32,uint256,uint8,bytes32,bytes32)": "3f5630c5",
    "supportsInterface(bytes4)": "01ffc9a7"
  },
  "id": 78
}