{
  "abi": [
    {
      "type": "constructor",
      "inputs": [
        {
          "name": "_eas",
          "type": "address",
          "internalType": "contract IEAS"
        }
      ],
      "stateMutability": "nonpayable"
    },
    {
      "type": "function",
      "name": "attestAndCreateReferenceEscrow",
      "inputs": [
        {
          "name": "escrow",
          "type": "address",
          "internalType": "contract AttestationReferenceEscrowObligation"
        },
        {
          "name": "request",
          "type": "tuple",
          "internalType": "struct AttestationRequest",
          "components": [
            {
              "name": "schema",
              "type": "bytes32",
              "internalType": "bytes32"
            },
            {
              "name": "data",
              "type": "tuple",
              "internalType": "struct AttestationRequestData",
              "components": [
                {
                  "name": "recipient",
                  "type": "address",
                  "internalType": "address"
                },
                {
                  "name": "expirationTime",
                  "type": "uint64",
                  "internalType": "uint64"
                },
                {
                  "name": "revocable",
                  "type": "bool",
                  "internalType": "bool"
                },
                {
                  "name": "refUID",
                  "type": "bytes32",
                  "internalType": "bytes32"
                },
                {
                  "name": "data",
                  "type": "bytes",
                  "internalType": "bytes"
                },
                {
                  "name": "value",
                  "type": "uint256",
                  "internalType": "uint256"
                }
              ]
            }
          ]
        },
        {
          "name": "escrowData",
          "type": "tuple",
          "internalType": "struct AtomicAttestationUtils.ReferenceEscrowData",
          "components": [
            {
              "name": "arbiter",
              "type": "address",
              "internalType": "address"
            },
            {
              "name": "demand",
              "type": "bytes",
              "internalType": "bytes"
            },
            {
              "name": "expirationTime",
              "type": "uint64",
              "internalType": "uint64"
            }
          ]
        },
        {
          "name": "escrowExpirationTime",
          "type": "uint64",
          "internalType": "uint64"
        }
      ],
      "outputs": [
        {
          "name": "attestationUid",
          "type": "bytes32",
          "internalType": "bytes32"
        },
        {
          "name": "escrowUid",
          "type": "bytes32",
          "internalType": "bytes32"
        }
      ],
      "stateMutability": "payable"
    },
    {
      "type": "function",
      "name": "attestAndCreateUnconditionalReferenceEscrow",
      "inputs": [
        {
          "name": "escrow",
          "type": "address",
          "internalType": "contract UnconditionalAttestationReferenceEscrowObligation"
        },
        {
          "name": "request",
          "type": "tuple",
          "internalType": "struct AttestationRequest",
          "components": [
            {
              "name": "schema",
              "type": "bytes32",
              "internalType": "bytes32"
            },
            {
              "name": "data",
              "type": "tuple",
              "internalType": "struct AttestationRequestData",
              "components": [
                {
                  "name": "recipient",
                  "type": "address",
                  "internalType": "address"
                },
                {
                  "name": "expirationTime",
                  "type": "uint64",
                  "internalType": "uint64"
                },
                {
                  "name": "revocable",
                  "type": "bool",
                  "internalType": "bool"
                },
                {
                  "name": "refUID",
                  "type": "bytes32",
                  "internalType": "bytes32"
                },
                {
                  "name": "data",
                  "type": "bytes",
                  "internalType": "bytes"
                },
                {
                  "name": "value",
                  "type": "uint256",
                  "internalType": "uint256"
                }
              ]
            }
          ]
        },
        {
          "name": "escrowData",
          "type": "tuple",
          "internalType": "struct AtomicAttestationUtils.ReferenceEscrowData",
          "components": [
            {
              "name": "arbiter",
              "type": "address",
              "internalType": "address"
            },
            {
              "name": "demand",
              "type": "bytes",
              "internalType": "bytes"
            },
            {
              "name": "expirationTime",
              "type": "uint64",
              "internalType": "uint64"
            }
          ]
        },
        {
          "name": "escrowExpirationTime",
          "type": "uint64",
          "internalType": "uint64"
        }
      ],
      "outputs": [
        {
          "name": "attestationUid",
          "type": "bytes32",
          "internalType": "bytes32"
        },
        {
          "name": "escrowUid",
          "type": "bytes32",
          "internalType": "bytes32"
        }
      ],
      "stateMutability": "payable"
    },
    {
      "type": "function",
      "name": "eas",
      "inputs": [],
      "outputs": [
        {
          "name": "",
          "type": "address",
          "internalType": "contract IEAS"
        }
      ],
      "stateMutability": "view"
    },
    {
      "type": "event",
      "name": "ReferenceEscrowCreated",
      "inputs": [
        {
          "name": "escrow",
          "type": "address",
          "indexed": true,
          "internalType": "address"
        },
        {
          "name": "attestationUid",
          "type": "bytes32",
          "indexed": true,
          "internalType": "bytes32"
        },
        {
          "name": "escrowUid",
          "type": "bytes32",
          "indexed": true,
          "internalType": "bytes32"
        },
        {
          "name": "unconditional",
          "type": "bool",
          "indexed": false,
          "internalType": "bool"
        }
      ],
      "anonymous": false
    },
    {
      "type": "error",
      "name": "IncorrectAttestationValue",
      "inputs": [
        {
          "name": "expected",
          "type": "uint256",
          "internalType": "uint256"
        },
        {
          "name": "actual",
          "type": "uint256",
          "internalType": "uint256"
        }
      ]
    },
    {
      "type": "error",
      "name": "UnsupportedRevocableAttestation",
      "inputs": []
    }
  ],
  "bytecode": {
    "object": "0x60a034606d57601f61072638819003918201601f19168301916001600160401b03831184841017607157808492602094604052833981010312606d57516001600160a01b0381168103606d576080526040516106a0908161008682396080518181816101df01526105da0152f35b5f80fd5b634e487b7160e01b5f52604160045260245ffdfe60806040526004361015610011575f80fd5b5f3560e01c80634747e8211461020e5780638150864d146101ca5763b3bde17a1461003a575f80fd5b60803660031901126101b3576004356001600160a01b038116908190036101b3576024356001600160401b0381116101b357604060031982360301126101b357604435906001600160401b0382116101b3578160040190606060031984360301126101b357610138916020916001600160401b03604461010b6100c76100be610314565b946004016104ad565b976100eb6100e26100d78861032a565b97602484019061033e565b94909201610370565b92604051966100f988610384565b6001600160a01b0316875236916103d4565b8585015286604085015216606083015260405193849283926332bd03ad60e01b8452339160048501610419565b03815f875af19081156101bf575f91610188575b5080826040947ff9ccf65376e0262c5a0a0b0b757402ff3ef54d79544918cc18d27b5850015d466020875160018152a482519182526020820152f35b90506020813d6020116101b7575b816101a3602093836103b3565b810103126101b35751604061014c565b5f80fd5b3d9150610196565b6040513d5f823e3d90fd5b346101b3575f3660031901126101b3576040517f00000000000000000000000000000000000000000000000000000000000000006001600160a01b03168152602090f35b60803660031901126101b3576004356001600160a01b038116908190036101b3576024356001600160401b0381116101b357604060031982360301126101b357604435906001600160401b0382116101b3578160040190606060031984360301126101b357610292916020916001600160401b03604461010b6100c76100be610314565b03815f875af19081156101bf575f916102e1575b5080826040947ff9ccf65376e0262c5a0a0b0b757402ff3ef54d79544918cc18d27b5850015d46602087515f8152a482519182526020820152f35b90506020813d60201161030c575b816102fc602093836103b3565b810103126101b3575160406102a6565b3d91506102ef565b606435906001600160401b03821682036101b357565b356001600160a01b03811681036101b35790565b903590601e19813603018212156101b357018035906001600160401b0382116101b3576020019181360383136101b357565b356001600160401b03811681036101b35790565b608081019081106001600160401b0382111761039f57604052565b634e487b7160e01b5f52604160045260245ffd5b90601f801991011681019081106001600160401b0382111761039f57604052565b9291926001600160401b03821161039f57604051916103fd601f8201601f1916602001846103b3565b8294818452818301116101b3578281602093845f960137010152565b9193926001600160401b036040926060855260018060a01b03815116606086015281606060a08160e0896020808801516080808401528051809481940152016101008c015e5f8383838d01010152601f801991011689010101928681015160a089015201511660c08601529516602084015260018060a01b0316910152565b90359060be19813603018212156101b3570190565b602081019060a06104be8383610498565b01359060406104cd8483610498565b013580151581036101b35761065b578134036106445760405163f17325e760e01b8152602060048201528135602482015292353682900360be19018112156101b357604060448501520180356001600160a01b038116908190036101b357606484015260208101356001600160401b0381168091036101b357608484015260408101358015158091036101b35760a4840152606081013560c48401526080810135601e19823603018112156101b357810191602083359301926001600160401b0381116101b35780360384136101b357610144858260a08296839560209960c060e487015281610124870152868601375f8484018601520135610104830152601f01601f191681010301917f00000000000000000000000000000000000000000000000000000000000000006001600160a01b03165af19081156101bf575f91610615575090565b90506020813d60201161063c575b81610630602093836103b3565b810103126101b3575190565b3d9150610623565b506351f15f6d60e01b5f526004523460245260445ffd5b63c24c119360e01b5f5260045ffdfea26469706673582212207e918bab1fd8a8ed69dc1e827519cf9a5b0a05ae40e5216092022c472aa6f1d564736f6c634300081b0033",
    "linkReferences": {}
  },
  "methodIdentifiers": {
    "attestAndCreateReferenceEscrow(address,(bytes32,(address,uint64,bool,bytes32,bytes,uint256)),(address,bytes,uint64),uint64)": "4747e821",
    "attestAndCreateUnconditionalReferenceEscrow(address,(bytes32,(address,uint64,bool,bytes32,bytes,uint256)),(address,bytes,uint64),uint64)": "b3bde17a",
    "eas()": "8150864d"
  },
  "id": 66
}