{
  "abi": [
    {
      "type": "constructor",
      "inputs": [
        {
          "name": "_eas",
          "type": "address",
          "internalType": "contract IEAS"
        },
        {
          "name": "_erc20Payment",
          "type": "address",
          "internalType": "contract ERC20PaymentObligation"
        },
        {
          "name": "_erc721Payment",
          "type": "address",
          "internalType": "contract ERC721PaymentObligation"
        },
        {
          "name": "_erc1155Payment",
          "type": "address",
          "internalType": "contract ERC1155PaymentObligation"
        },
        {
          "name": "_nativePayment",
          "type": "address",
          "internalType": "contract NativeTokenPaymentObligation"
        },
        {
          "name": "_bundlePayment",
          "type": "address",
          "internalType": "contract TokenBundlePaymentObligation"
        }
      ],
      "stateMutability": "nonpayable"
    },
    {
      "type": "function",
      "name": "onERC1155BatchReceived",
      "inputs": [
        {
          "name": "",
          "type": "address",
          "internalType": "address"
        },
        {
          "name": "",
          "type": "address",
          "internalType": "address"
        },
        {
          "name": "",
          "type": "uint256[]",
          "internalType": "uint256[]"
        },
        {
          "name": "",
          "type": "uint256[]",
          "internalType": "uint256[]"
        },
        {
          "name": "",
          "type": "bytes",
          "internalType": "bytes"
        }
      ],
      "outputs": [
        {
          "name": "",
          "type": "bytes4",
          "internalType": "bytes4"
        }
      ],
      "stateMutability": "pure"
    },
    {
      "type": "function",
      "name": "onERC1155Received",
      "inputs": [
        {
          "name": "",
          "type": "address",
          "internalType": "address"
        },
        {
          "name": "",
          "type": "address",
          "internalType": "address"
        },
        {
          "name": "",
          "type": "uint256",
          "internalType": "uint256"
        },
        {
          "name": "",
          "type": "uint256",
          "internalType": "uint256"
        },
        {
          "name": "",
          "type": "bytes",
          "internalType": "bytes"
        }
      ],
      "outputs": [
        {
          "name": "",
          "type": "bytes4",
          "internalType": "bytes4"
        }
      ],
      "stateMutability": "pure"
    },
    {
      "type": "function",
      "name": "payBundleAndCollect",
      "inputs": [
        {
          "name": "escrowUid",
          "type": "bytes32",
          "internalType": "bytes32"
        }
      ],
      "outputs": [
        {
          "name": "",
          "type": "bytes32",
          "internalType": "bytes32"
        }
      ],
      "stateMutability": "payable"
    },
    {
      "type": "function",
      "name": "payErc1155AndCollect",
      "inputs": [
        {
          "name": "escrowUid",
          "type": "bytes32",
          "internalType": "bytes32"
        }
      ],
      "outputs": [
        {
          "name": "",
          "type": "bytes32",
          "internalType": "bytes32"
        }
      ],
      "stateMutability": "nonpayable"
    },
    {
      "type": "function",
      "name": "payErc20AndCollect",
      "inputs": [
        {
          "name": "escrowUid",
          "type": "bytes32",
          "internalType": "bytes32"
        }
      ],
      "outputs": [
        {
          "name": "",
          "type": "bytes32",
          "internalType": "bytes32"
        }
      ],
      "stateMutability": "nonpayable"
    },
    {
      "type": "function",
      "name": "payErc721AndCollect",
      "inputs": [
        {
          "name": "escrowUid",
          "type": "bytes32",
          "internalType": "bytes32"
        }
      ],
      "outputs": [
        {
          "name": "",
          "type": "bytes32",
          "internalType": "bytes32"
        }
      ],
      "stateMutability": "nonpayable"
    },
    {
      "type": "function",
      "name": "payNativeAndCollect",
      "inputs": [
        {
          "name": "escrowUid",
          "type": "bytes32",
          "internalType": "bytes32"
        }
      ],
      "outputs": [
        {
          "name": "",
          "type": "bytes32",
          "internalType": "bytes32"
        }
      ],
      "stateMutability": "payable"
    },
    {
      "type": "function",
      "name": "permitAndPayBundleAndCollect",
      "inputs": [
        {
          "name": "escrowUid",
          "type": "bytes32",
          "internalType": "bytes32"
        },
        {
          "name": "permits",
          "type": "tuple[]",
          "internalType": "struct AtomicPaymentUtils.ERC20PermitSignature[]",
          "components": [
            {
              "name": "v",
              "type": "uint8",
              "internalType": "uint8"
            },
            {
              "name": "r",
              "type": "bytes32",
              "internalType": "bytes32"
            },
            {
              "name": "s",
              "type": "bytes32",
              "internalType": "bytes32"
            },
            {
              "name": "deadline",
              "type": "uint256",
              "internalType": "uint256"
            }
          ]
        }
      ],
      "outputs": [
        {
          "name": "",
          "type": "bytes32",
          "internalType": "bytes32"
        }
      ],
      "stateMutability": "payable"
    },
    {
      "type": "function",
      "name": "permitAndPayErc20AndCollect",
      "inputs": [
        {
          "name": "escrowUid",
          "type": "bytes32",
          "internalType": "bytes32"
        },
        {
          "name": "deadline",
          "type": "uint256",
          "internalType": "uint256"
        },
        {
          "name": "v",
          "type": "uint8",
          "internalType": "uint8"
        },
        {
          "name": "r",
          "type": "bytes32",
          "internalType": "bytes32"
        },
        {
          "name": "s",
          "type": "bytes32",
          "internalType": "bytes32"
        }
      ],
      "outputs": [
        {
          "name": "",
          "type": "bytes32",
          "internalType": "bytes32"
        }
      ],
      "stateMutability": "nonpayable"
    },
    {
      "type": "function",
      "name": "permitAndPayWithErc20",
      "inputs": [
        {
          "name": "token",
          "type": "address",
          "internalType": "address"
        },
        {
          "name": "amount",
          "type": "uint256",
          "internalType": "uint256"
        },
        {
          "name": "payee",
          "type": "address",
          "internalType": "address"
        },
        {
          "name": "refUID",
          "type": "bytes32",
          "internalType": "bytes32"
        },
        {
          "name": "deadline",
          "type": "uint256",
          "internalType": "uint256"
        },
        {
          "name": "v",
          "type": "uint8",
          "internalType": "uint8"
        },
        {
          "name": "r",
          "type": "bytes32",
          "internalType": "bytes32"
        },
        {
          "name": "s",
          "type": "bytes32",
          "internalType": "bytes32"
        }
      ],
      "outputs": [
        {
          "name": "",
          "type": "bytes32",
          "internalType": "bytes32"
        }
      ],
      "stateMutability": "nonpayable"
    },
    {
      "type": "function",
      "name": "supportsInterface",
      "inputs": [
        {
          "name": "interfaceId",
          "type": "bytes4",
          "internalType": "bytes4"
        }
      ],
      "outputs": [
        {
          "name": "",
          "type": "bool",
          "internalType": "bool"
        }
      ],
      "stateMutability": "pure"
    },
    {
      "type": "error",
      "name": "AttestationNotFound",
      "inputs": [
        {
          "name": "attestationId",
          "type": "bytes32",
          "internalType": "bytes32"
        }
      ]
    },
    {
      "type": "error",
      "name": "CouldntCollectEscrow",
      "inputs": []
    },
    {
      "type": "error",
      "name": "IncorrectNativeAmount",
      "inputs": [
        {
          "name": "expected",
          "type": "uint256",
          "internalType": "uint256"
        },
        {
          "name": "actual",
          "type": "uint256",
          "internalType": "uint256"
        }
      ]
    },
    {
      "type": "error",
      "name": "InvalidSignatureLength",
      "inputs": []
    },
    {
      "type": "error",
      "name": "PermitFailed",
      "inputs": [
        {
          "name": "token",
          "type": "address",
          "internalType": "address"
        },
        {
          "name": "reason",
          "type": "string",
          "internalType": "string"
        }
      ]
    },
    {
      "type": "error",
      "name": "SafeERC20FailedOperation",
      "inputs": [
        {
          "name": "token",
          "type": "address",
          "internalType": "address"
        }
      ]
    }
  ],
  "bytecode": {
    "object": "0x6101403461011857601f611d3e38819003918201601f19168301916001600160401b0383118484101761011c5780849260c094604052833981010312610118578051906001600160a01b03821682036101185760208101516001600160a01b03811681036101185760408201516001600160a01b0381168103610118576060830151916001600160a01b0383168303610118576080840151936001600160a01b03851685036101185760a00151946001600160a01b03861686036101185760805260a05260c05260e0526101005261012052604051611c0d9081610131823960805181610ec0015260a05181611327015260c05181610419015260e051816106570152610100518161098b015261012051816116440152f35b5f80fd5b634e487b7160e01b5f52604160045260245ffdfe6080806040526004361015610012575f80fd5b5f905f3560e01c90816301ffc9a7146109ef575080632b7aa72e146108e25780633f5630c51461085a5780634a8fe3721461081557806359e990f214610796578063802ca0c6146105625780639351412a14610370578063bc197c81146102d7578063f1f2af7f1461014d578063f20cea54146100f25763f23a6e6114610097575f80fd5b346100ef5760a03660031901126100ef576100b0610a25565b506100b9610a3b565b506084356001600160401b0381116100ed576100d9903690600401610a81565b505060405163f23a6e6160e01b8152602090f35b505b80fd5b5060203660031901126100ef57602060043561014561012861012d8361011781610e58565b878082969396518301019101610c70565b611472565b60e090910151909283916001600160a01b03166110b5565b604051908152f35b5060403660031901126100ef576004356024356001600160401b0381116102d357366023820112156102d35780600401356001600160401b0381116102cf573660248260071b840101116102cf5791806101a96101bb92610e58565b60208082959395518301019101610c70565b948093819260208801935b8451518110156101fb576101da818a611b05565b6101e7575b6001016101c6565b956101f36001916113b9565b9690506101df565b5086889681036102c0578391845b8651518110156102af5761021d818a611b05565b156102a75761022b846113b9565b93838110156102935760071b850160018060a01b0361024b838a516113db565b511690610258838c611b5d565b9160248201359060ff8216820361028f579160019493916102899360648301359360846044850135940135916111aa565b01610209565b8980fd5b634e487b7160e01b87526032600452602487fd5b600190610289565b6020826101458a61012d838e611472565b634be6321b60e01b8452600484fd5b8380fd5b8280fd5b50346100ef5760a03660031901126100ef576102f1610a25565b506102fa610a3b565b506044356001600160401b0381116100ed5761031a903690600401610a51565b50506064356001600160401b0381116100ed5761033b903690600401610a51565b50506084356001600160401b0381116100ed5761035c903690600401610a81565b505060405163bc197c8160e01b8152602090f35b50346100ef5760203660031901126100ef576004359061038f82610e58565b809391935181016060828203126102cf57906020806103b093019101610b1a565b80516020820180519092916001600160a01b031690813b15610549576040516323b872dd60e01b815233600482015230602482015260448101919091529085908290606490829084905af1801561053e5790859161054d575b5050805191516001600160a01b037f00000000000000000000000000000000000000000000000000000000000000008116931690813b156105495760405163095ea7b360e01b81526001600160a01b038516600482015260248101919091529085908290604490829084905af1801561053e578492918691610523575b5092602092916104ae9460405180968195829463108d1d5d60e21b8452339060048501610b5a565b03925af192831561051757926104de575b5060e090920151602092610145918391906001600160a01b03166110b5565b9091506020813d60201161050f575b816104fa60209383610ae5565b8101031261050b57519060206104bf565b5f80fd5b3d91506104ed565b604051903d90823e3d90fd5b819293509061053191610ae5565b6102cf578290845f610486565b6040513d87823e3d90fd5b8580fd5b8161055791610ae5565b6102cf57835f610409565b503461050b57602036600319011261050b576004359061058182610e58565b60808180959395518101031261050b57604051608081018181106001600160401b03821117610782576040526105b960208301610b06565b9081815260408301519160208201928084526060850151906105e46080604086019784895201610b06565b60608501908152926001600160a01b031691823b1561050b57604051637921219560e11b81523360048201523060248201526044810192909252606482015260a060848201525f60a482018190529091829060c490829084905af1801561077757610762575b5081516001600160a01b037f00000000000000000000000000000000000000000000000000000000000000008116929116803b1561075e5787809160446040518094819363a22cb46560e01b8352886004840152600160248401525af18015610753579088939291610734575b506040516352056edb60e11b815293516001600160a01b03908116600486015294516024850152945160448401529351909216606482015233608482015260a4810184905291602091839160c49183915af192831561051757926104de575060e090920151602092610145918391906001600160a01b03166110b5565b836107429194929394610ae5565b61074f579086915f6106b7565b8680fd5b6040513d8a823e3d90fd5b8780fd5b61076f9196505f90610ae5565b5f945f61064a565b6040513d5f823e3d90fd5b634e487b7160e01b5f52604160045260245ffd5b3461050b5760a036600319011261050b5760443560043560ff8216820361050b576107c081610e58565b9290835184019360608186031261050b5783610145936108106107ed61012d94602080809b019101610b1a565b8051898201519193608435926064359260243591906001600160a01b03166111aa565b6112f4565b3461050b57602036600319011261050b5760043561083281610e58565b80518101929160608285031261050b5761012d83610810610145946020808099019101610b1a565b3461050b5761010036600319011261050b57610874610a25565b602435906044356001600160a01b038116919082900361050b5760a4359160ff8316830361050b576020936108b86101459460e4359060c4359060843585886111aa565b604051926108c584610aae565b6001600160a01b03168352848301526040820152606435906112f4565b602036600319011261050b576004356108fa81610e58565b909160408280518101031261050b5760405191604083018381106001600160401b038211176107825760405261093a604060208301519283865201610b06565b90602084019182528034036109d957508251604051632634e40960e01b81529351600485015290516001600160a01b03908116602485015233604485015260648401839052602091849160849183917f0000000000000000000000000000000000000000000000000000000000000000165af1918215610777575f926104de575060e090920151602092610145918391906001600160a01b03166110b5565b635693fffb60e01b5f526004523460245260445ffd5b3461050b57602036600319011261050b576004359063ffffffff60e01b821680920361050b57602091630271189760e51b148152f35b600435906001600160a01b038216820361050b57565b602435906001600160a01b038216820361050b57565b9181601f8401121561050b578235916001600160401b03831161050b576020808501948460051b01011161050b57565b9181601f8401121561050b578235916001600160401b03831161050b576020838186019501011161050b57565b606081019081106001600160401b0382111761078257604052565b61014081019081106001600160401b0382111761078257604052565b90601f801991011681019081106001600160401b0382111761078257604052565b51906001600160a01b038216820361050b57565b919082606091031261050b57604051610b3281610aae565b6040610b55818395610b4381610b06565b85526020810151602086015201610b06565b910152565b81516001600160a01b0390811682526020808401519083015260409283015181169282019290925291166060820152608081019190915260a00190565b6001600160401b0381116107825760051b60200190565b9080601f8301121561050b578151610bc581610b97565b92610bd36040519485610ae5565b81845260208085019260051b82010192831161050b57602001905b828210610bfb5750505090565b60208091610c0884610b06565b815201910190610bee565b9080601f8301121561050b578151610c2a81610b97565b92610c386040519485610ae5565b81845260208085019260051b82010192831161050b57602001905b828210610c605750505090565b8151815260209182019101610c53565b60208183031261050b578051906001600160401b03821161050b57016101208183031261050b576040519161012083018381106001600160401b03821117610782576040528151835260208201516001600160401b03811161050b5781610cd8918401610bae565b602084015260408201516001600160401b03811161050b5781610cfc918401610c13565b604084015260608201516001600160401b03811161050b5781610d20918401610bae565b606084015260808201516001600160401b03811161050b5781610d44918401610c13565b608084015260a08201516001600160401b03811161050b5781610d68918401610bae565b60a084015260c08201516001600160401b03811161050b5781610d8c918401610c13565b60c084015260e0820151916001600160401b03831161050b57610db761010092610dc2948301610c13565b60e085015201610b06565b61010082015290565b51906001600160401b038216820361050b57565b81601f8201121561050b578051906001600160401b0382116107825760405192610e13601f8401601f191660200185610ae5565b8284526020838301011161050b57815f9260208093018386015e8301015290565b805180835260209291819084018484015e5f828201840152601f01601f1916010190565b906060610120604051610e6a81610ac9565b5f81525f60208201525f60408201525f838201525f60808201525f60a08201525f60c08201525f60e08201525f61010082015201526040516328c44a9960e21b81528260048201525f8160248160018060a01b037f0000000000000000000000000000000000000000000000000000000000000000165afa908115610777575f91610fc1575b5080928151818115918215610fb6575b5050610fa4575060e081015161012090910151604051630ec17a2360e31b815260206004820152915f9183916001600160a01b03169082908190610f48906024830190610e34565b03915afa908115610777575f91610f5d575090565b90503d805f833e610f6e8183610ae5565b810160408282031261050b57610f8382610b06565b5060208201516001600160401b03811161050b57610fa19201610ddf565b90565b6301fb6dd160e01b5f5260045260245ffd5b14159050815f610f00565b90503d805f833e610fd28183610ae5565b81019060208183031261050b578051906001600160401b03821161050b57016101408183031261050b576040519161100983610ac9565b815183526020820151602084015261102360408301610dcb565b604084015261103460608301610dcb565b606084015261104560808301610dcb565b608084015260a082015160a084015261106060c08301610b06565b60c084015261107160e08301610b06565b60e0840152610100820151801515810361050b576101008401526101208201516001600160401b03811161050b576110a99201610ddf565b6101208201525f610ef0565b9160445f92836040519586948593633a9bb12760e21b85526004850152602484015260018060a01b03165af190816110fe575b506110fc5763a97a981d60e01b5f5260045ffd5b565b3d805f833e61110d8183610ae5565b810160208282031261050b5781516001600160401b03811161050b576111339201610ddf565b6110e8565b5f60443d10610fa1576040513d600319016004823e8051913d60248401116001600160401b038411176111a457828201928351916001600160401b03831161119c573d8401600319018584016020011161119c5750610fa192910160200190610ae5565b949350505050565b92915050565b6001600160a01b03811695919490939190863b1561050b5760ff6040519363d505accf60e01b85525f95336004870152306024870152886044870152606486015216608484015260a483015260c48201525f8160e48183895af190816112df575b506112d9578060033d116112c8575b506308c379a014611273575b90611230916118f0565b61127057608490604051906308f14ec160e11b8252600482015260406024820152600d60448201526c2ab735b737bbb71032b93937b960991b6064820152fd5b50565b61127b611138565b806112865750611226565b9391611291916118f0565b6112c357506112bf6040519283926308f14ec160e11b84526004840152604060248401526044830190610e34565b0390fd5b915050565b9050600481803e5160e01c5f61121a565b50505050565b6112ec9192505f90610ae5565b5f905f61120b565b6113759160209160018060a01b03815116906113198482019283519030903390611965565b805191516001600160a01b037f000000000000000000000000000000000000000000000000000000000000000081169361135692918591166119f7565b5f60405180968195829463108d1d5d60e21b8452339060048501610b5a565b03925af1908115610777575f9161138a575090565b90506020813d6020116113b1575b816113a560209383610ae5565b8101031261050b575190565b3d9150611398565b5f1981146113c75760010190565b634e487b7160e01b5f52601160045260245ffd5b80518210156113ef5760209160051b010190565b634e487b7160e01b5f52603260045260245ffd5b90602080835192838152019201905f5b8181106114205750505090565b82516001600160a01b0316845260209384019390920191600101611413565b90602080835192838152019201905f5b81811061145c5750505090565b825184526020938401939092019160010161144f565b9081518034036109d95750905f90602081019360408201925b855180518210156114d057600191906114ca906001600160a01b03906114b29084906113db565b51166114bf8388516113db565b519030903390611965565b0161148b565b5050608082019491939190606085015f5b8151805182101561156b576001600160a01b03906115009083906113db565b51169061150e818a516113db565b5191803b1561050b576040516323b872dd60e01b815233600482015230602482015260448101939093525f908390606490829084905af19182156107775760019261155b575b50016114e1565b5f61156591610ae5565b5f611554565b5050929594919390945f9460a084019160c085019860e08601975b8451805182101561162f576001600160a01b03906115a59083906113db565b5116906115b3818d516113db565b516115bf828c516113db565b51833b1561050b57604051637921219560e11b81523360048201523060248201526044810192909252606482015260a060848201525f60a482018190529092839060c490829084905af19182156107775760019261161f575b5001611586565b5f61162991610ae5565b5f611618565b50509397909498919596929660018060a01b037f000000000000000000000000000000000000000000000000000000000000000016975f5b8851518110156116bd5780808d8c8c61168260019684611b05565b156116b457836116a8916116a06116ae96898060a01b0392516113db565b511693611b5d565b916119f7565b01611667565b505050506116ae565b509193959998909294965f5b8451805182101561175557906116f5818e936116ec8260018060a01b03926113db565b511693516113db565b5191803b1561050b5760405163095ea7b360e01b81526001600160a01b038d16600482015260248101939093525f908390604490829084905af191821561077757600192611745575b50016116c9565b5f61174f91610ae5565b5f61173e565b505091939699959890929497995f5b855180518210156117d9576001600160a01b03906117839083906113db565b511690813b1561050b575f809260448f604051958693849263a22cb46560e01b84526004840152600160248401525af1918215610777576001926117c9575b5001611764565b5f6117d391610ae5565b5f6117c2565b5050919395989092949699978351966040519a8b998a98899863ef6ce33f60e01b8a5260048a0160609052885160648b01525160848a0161012090526101848a0161182391611403565b90518982036063190160a48b015261183b919061143f565b90518882036063190160c48a01526118539190611403565b90518782036063190160e489015261186b919061143f565b9051868203606319016101048801526118849190611403565b90518582036063190161012487015261189d919061143f565b9051848203606319016101448601526118b6919061143f565b610100909201516001600160a01b0316610164840152336024840152604483015203915a94602095f1908115610777575f9161138a575090565b604051636eb1769f60e11b815233600482015230602482015290602090829060449082906001600160a01b03165afa908115610777575f91611933575b50101590565b90506020813d60201161195d575b8161194e60209383610ae5565b8101031261050b57515f61192d565b3d9150611941565b6040516323b872dd60e01b5f9081526001600160a01b039384166004529290931660245260449390935260209060648180865af19060015f51148216156119d6575b6040525f606052156119b65750565b635274afe760e01b5f9081526001600160a01b0391909116600452602490fd5b9060018115166119ee57823b15153d151616906119a7565b503d5f823e3d90fd5b916040519163095ea7b360e01b5f5260018060a01b031691826004528160245260205f60448180885af19060015f5114821615611af6575b60405215611a3c57505050565b60405163095ea7b360e01b5f52826004525f60245260205f60448180885af19060015f5114821615611ade575b60405215611ac0576040519163095ea7b360e01b5f5260045260245260205f60448180865af19060015f5114821615611aa8575b604052156119b65750565b9060018115166119ee57823b15153d15161690611a9d565b635274afe760e01b5f9081526001600160a01b038416600452602490fd5b9060018115166119ee57843b15153d15161690611a69565b90843b15153d15161690611a2f565b60200180516001600160a01b0390611b1e9084906113db565b5116905f5b838110611b335750505050600190565b8260018060a01b03611b468385516113db565b511614611b5557600101611b23565b505050505f90565b6020810180515f9491936001600160a01b0391611b7a91906113db565b5116905f5b84518051821015611bcf5783906001600160a01b0390611ba09084906113db565b511614611bb0575b600101611b7f565b94611bbf8660408601516113db565b5181018091116113c75794611ba8565b50509250505056fea2646970667358221220a9c81054474fab6624b4293ddb766050d5e73afdb0c1fbe1029455a5c2f2256a64736f6c634300081b0033",
    "linkReferences": {}
  },
  "methodIdentifiers": {
    "onERC1155BatchReceived(address,address,uint256[],uint256[],bytes)": "bc197c81",
    "onERC1155Received(address,address,uint256,uint256,bytes)": "f23a6e61",
    "payBundleAndCollect(bytes32)": "f20cea54",
    "payErc1155AndCollect(bytes32)": "802ca0c6",
    "payErc20AndCollect(bytes32)": "4a8fe372",
    "payErc721AndCollect(bytes32)": "9351412a",
    "payNativeAndCollect(bytes32)": "2b7aa72e",
    "permitAndPayBundleAndCollect(bytes32,(uint8,bytes32,bytes32,uint256)[])": "f1f2af7f",
    "permitAndPayErc20AndCollect(bytes32,uint256,uint8,bytes32,bytes32)": "59e990f2",
    "permitAndPayWithErc20(address,uint256,address,bytes32,uint256,uint8,bytes32,bytes32)": "3f5630c5",
    "supportsInterface(bytes4)": "01ffc9a7"
  },
  "id": 81
}