{
  "abi": [
    {
      "type": "constructor",
      "inputs": [
        {
          "name": "_eas",
          "type": "address",
          "internalType": "contract IEAS"
        },
        {
          "name": "_erc20Escrow",
          "type": "address",
          "internalType": "contract ERC20EscrowObligation"
        },
        {
          "name": "_erc20Payment",
          "type": "address",
          "internalType": "contract ERC20PaymentObligation"
        },
        {
          "name": "_erc721Escrow",
          "type": "address",
          "internalType": "contract ERC721EscrowObligation"
        },
        {
          "name": "_erc721Payment",
          "type": "address",
          "internalType": "contract ERC721PaymentObligation"
        },
        {
          "name": "_erc1155Escrow",
          "type": "address",
          "internalType": "contract ERC1155EscrowObligation"
        },
        {
          "name": "_erc1155Payment",
          "type": "address",
          "internalType": "contract ERC1155PaymentObligation"
        },
        {
          "name": "_bundleEscrow",
          "type": "address",
          "internalType": "contract TokenBundleEscrowObligation"
        },
        {
          "name": "_bundlePayment",
          "type": "address",
          "internalType": "contract TokenBundlePaymentObligation"
        },
        {
          "name": "_nativeEscrow",
          "type": "address",
          "internalType": "contract NativeTokenEscrowObligation"
        },
        {
          "name": "_nativePayment",
          "type": "address",
          "internalType": "contract NativeTokenPaymentObligation"
        }
      ],
      "stateMutability": "nonpayable"
    },
    {
      "type": "function",
      "name": "buyBundleWithErc1155",
      "inputs": [
        {
          "name": "bidToken",
          "type": "address",
          "internalType": "address"
        },
        {
          "name": "bidTokenId",
          "type": "uint256",
          "internalType": "uint256"
        },
        {
          "name": "bidAmount",
          "type": "uint256",
          "internalType": "uint256"
        },
        {
          "name": "askData",
          "type": "tuple",
          "internalType": "struct TokenBundlePaymentObligation.ObligationData",
          "components": [
            {
              "name": "nativeAmount",
              "type": "uint256",
              "internalType": "uint256"
            },
            {
              "name": "erc20Tokens",
              "type": "address[]",
              "internalType": "address[]"
            },
            {
              "name": "erc20Amounts",
              "type": "uint256[]",
              "internalType": "uint256[]"
            },
            {
              "name": "erc721Tokens",
              "type": "address[]",
              "internalType": "address[]"
            },
            {
              "name": "erc721TokenIds",
              "type": "uint256[]",
              "internalType": "uint256[]"
            },
            {
              "name": "erc1155Tokens",
              "type": "address[]",
              "internalType": "address[]"
            },
            {
              "name": "erc1155TokenIds",
              "type": "uint256[]",
              "internalType": "uint256[]"
            },
            {
              "name": "erc1155Amounts",
              "type": "uint256[]",
              "internalType": "uint256[]"
            },
            {
              "name": "payee",
              "type": "address",
              "internalType": "address"
            }
          ]
        },
        {
          "name": "expiration",
          "type": "uint64",
          "internalType": "uint64"
        }
      ],
      "outputs": [
        {
          "name": "",
          "type": "bytes32",
          "internalType": "bytes32"
        }
      ],
      "stateMutability": "nonpayable"
    },
    {
      "type": "function",
      "name": "buyErc1155ForErc1155",
      "inputs": [
        {
          "name": "bidToken",
          "type": "address",
          "internalType": "address"
        },
        {
          "name": "bidTokenId",
          "type": "uint256",
          "internalType": "uint256"
        },
        {
          "name": "bidAmount",
          "type": "uint256",
          "internalType": "uint256"
        },
        {
          "name": "askToken",
          "type": "address",
          "internalType": "address"
        },
        {
          "name": "askId",
          "type": "uint256",
          "internalType": "uint256"
        },
        {
          "name": "askAmount",
          "type": "uint256",
          "internalType": "uint256"
        },
        {
          "name": "expiration",
          "type": "uint64",
          "internalType": "uint64"
        }
      ],
      "outputs": [
        {
          "name": "",
          "type": "bytes32",
          "internalType": "bytes32"
        }
      ],
      "stateMutability": "nonpayable"
    },
    {
      "type": "function",
      "name": "buyErc20WithErc1155",
      "inputs": [
        {
          "name": "bidToken",
          "type": "address",
          "internalType": "address"
        },
        {
          "name": "bidTokenId",
          "type": "uint256",
          "internalType": "uint256"
        },
        {
          "name": "bidAmount",
          "type": "uint256",
          "internalType": "uint256"
        },
        {
          "name": "askToken",
          "type": "address",
          "internalType": "address"
        },
        {
          "name": "askAmount",
          "type": "uint256",
          "internalType": "uint256"
        },
        {
          "name": "expiration",
          "type": "uint64",
          "internalType": "uint64"
        }
      ],
      "outputs": [
        {
          "name": "",
          "type": "bytes32",
          "internalType": "bytes32"
        }
      ],
      "stateMutability": "nonpayable"
    },
    {
      "type": "function",
      "name": "buyErc721WithErc1155",
      "inputs": [
        {
          "name": "bidToken",
          "type": "address",
          "internalType": "address"
        },
        {
          "name": "bidTokenId",
          "type": "uint256",
          "internalType": "uint256"
        },
        {
          "name": "bidAmount",
          "type": "uint256",
          "internalType": "uint256"
        },
        {
          "name": "askToken",
          "type": "address",
          "internalType": "address"
        },
        {
          "name": "askTokenId",
          "type": "uint256",
          "internalType": "uint256"
        },
        {
          "name": "expiration",
          "type": "uint64",
          "internalType": "uint64"
        }
      ],
      "outputs": [
        {
          "name": "",
          "type": "bytes32",
          "internalType": "bytes32"
        }
      ],
      "stateMutability": "nonpayable"
    },
    {
      "type": "function",
      "name": "buyEthWithErc1155",
      "inputs": [
        {
          "name": "bidToken",
          "type": "address",
          "internalType": "address"
        },
        {
          "name": "bidTokenId",
          "type": "uint256",
          "internalType": "uint256"
        },
        {
          "name": "bidAmount",
          "type": "uint256",
          "internalType": "uint256"
        },
        {
          "name": "askAmount",
          "type": "uint256",
          "internalType": "uint256"
        },
        {
          "name": "expiration",
          "type": "uint64",
          "internalType": "uint64"
        }
      ],
      "outputs": [
        {
          "name": "",
          "type": "bytes32",
          "internalType": "bytes32"
        }
      ],
      "stateMutability": "nonpayable"
    },
    {
      "type": "function",
      "name": "onERC1155BatchReceived",
      "inputs": [
        {
          "name": "",
          "type": "address",
          "internalType": "address"
        },
        {
          "name": "",
          "type": "address",
          "internalType": "address"
        },
        {
          "name": "",
          "type": "uint256[]",
          "internalType": "uint256[]"
        },
        {
          "name": "",
          "type": "uint256[]",
          "internalType": "uint256[]"
        },
        {
          "name": "",
          "type": "bytes",
          "internalType": "bytes"
        }
      ],
      "outputs": [
        {
          "name": "",
          "type": "bytes4",
          "internalType": "bytes4"
        }
      ],
      "stateMutability": "pure"
    },
    {
      "type": "function",
      "name": "onERC1155Received",
      "inputs": [
        {
          "name": "",
          "type": "address",
          "internalType": "address"
        },
        {
          "name": "",
          "type": "address",
          "internalType": "address"
        },
        {
          "name": "",
          "type": "uint256",
          "internalType": "uint256"
        },
        {
          "name": "",
          "type": "uint256",
          "internalType": "uint256"
        },
        {
          "name": "",
          "type": "bytes",
          "internalType": "bytes"
        }
      ],
      "outputs": [
        {
          "name": "",
          "type": "bytes4",
          "internalType": "bytes4"
        }
      ],
      "stateMutability": "pure"
    },
    {
      "type": "function",
      "name": "payErc1155ForBundle",
      "inputs": [
        {
          "name": "buyAttestation",
          "type": "bytes32",
          "internalType": "bytes32"
        }
      ],
      "outputs": [
        {
          "name": "",
          "type": "bytes32",
          "internalType": "bytes32"
        }
      ],
      "stateMutability": "nonpayable"
    },
    {
      "type": "function",
      "name": "payErc1155ForErc1155",
      "inputs": [
        {
          "name": "buyAttestation",
          "type": "bytes32",
          "internalType": "bytes32"
        }
      ],
      "outputs": [
        {
          "name": "",
          "type": "bytes32",
          "internalType": "bytes32"
        }
      ],
      "stateMutability": "nonpayable"
    },
    {
      "type": "function",
      "name": "payErc1155ForErc20",
      "inputs": [
        {
          "name": "buyAttestation",
          "type": "bytes32",
          "internalType": "bytes32"
        }
      ],
      "outputs": [
        {
          "name": "",
          "type": "bytes32",
          "internalType": "bytes32"
        }
      ],
      "stateMutability": "nonpayable"
    },
    {
      "type": "function",
      "name": "payErc1155ForErc721",
      "inputs": [
        {
          "name": "buyAttestation",
          "type": "bytes32",
          "internalType": "bytes32"
        }
      ],
      "outputs": [
        {
          "name": "",
          "type": "bytes32",
          "internalType": "bytes32"
        }
      ],
      "stateMutability": "nonpayable"
    },
    {
      "type": "function",
      "name": "payErc1155ForEth",
      "inputs": [
        {
          "name": "buyAttestation",
          "type": "bytes32",
          "internalType": "bytes32"
        }
      ],
      "outputs": [
        {
          "name": "",
          "type": "bytes32",
          "internalType": "bytes32"
        }
      ],
      "stateMutability": "nonpayable"
    },
    {
      "type": "function",
      "name": "payEthForErc1155",
      "inputs": [
        {
          "name": "buyAttestation",
          "type": "bytes32",
          "internalType": "bytes32"
        }
      ],
      "outputs": [
        {
          "name": "",
          "type": "bytes32",
          "internalType": "bytes32"
        }
      ],
      "stateMutability": "payable"
    },
    {
      "type": "function",
      "name": "supportsInterface",
      "inputs": [
        {
          "name": "interfaceId",
          "type": "bytes4",
          "internalType": "bytes4"
        }
      ],
      "outputs": [
        {
          "name": "",
          "type": "bool",
          "internalType": "bool"
        }
      ],
      "stateMutability": "pure"
    },
    {
      "type": "error",
      "name": "AttestationNotFound",
      "inputs": [
        {
          "name": "attestationId",
          "type": "bytes32",
          "internalType": "bytes32"
        }
      ]
    },
    {
      "type": "error",
      "name": "CouldntCollectEscrow",
      "inputs": []
    }
  ],
  "bytecode": {
    "object": "0x6080346101ff57601f61225c38819003918201601f19168301916001600160401b0383118484101761020357808492610160946040528339810103126101ff5780516001600160a01b03811691908290036101ff5760208101516001600160a01b038116908190036101ff5760408201516001600160a01b038116908190036101ff5760608301516001600160a01b038116908190036101ff5760808401516001600160a01b038116908190036101ff5760a08501516001600160a01b03811691908290036101ff5760c08601516001600160a01b03811693908490036101ff5760e08701516001600160a01b03811695908690036101ff576101008801516001600160a01b03811697908890036101ff576101208901516001600160a01b03811699908a90036101ff5761014001516001600160a01b0381169a908b90036101ff5760018060a01b03195f5416175f5560018060a01b0319600154161760015560018060a01b0319600254161760025560018060a01b0319600354161760035560018060a01b0319600454161760045560018060a01b0319600554161760055560018060a01b0319600654161760065560018060a01b0319600754161760075560018060a01b0319600854161760085560018060a01b0319600954161760095560018060a01b0319600a541617600a5560405161204490816102188239f35b5f80fd5b634e487b7160e01b5f52604160045260245ffdfe6080806040526004361015610012575f80fd5b5f905f3560e01c90816301d71c0f146116cb5750806301ffc9a7146116905780631fa56b2014611599578063253d181d1461143c57806333666e5f1461122d5780634d2ac84c14610f6c578063576748fb14610e1e5780636d1d261f14610cc057806378a56f8f14610a83578063af808a2a14610858578063bc197c81146107bf578063d7452d9014610418578063da7af446146101135763f23a6e61146100b8575f80fd5b346101105760a0366003190112610110576100d16118f9565b506100da61190f565b506084356001600160401b03811161010e576100fa9036906004016119d5565b505060405163f23a6e6160e01b8152602090f35b505b80fd5b50346101105760203660031901126101105780546040516328c44a9960e21b815260048035908201819052918390829060249082906001600160a01b03165afa9081156103b65783916103f6575b508051156103e2576101208391015180518101906020818303126103de576020810151906001600160401b0382116103c157016060818303126103de576040516101aa81611a02565b6101b660208301611ad3565b81526040820151926001600160401b0384116103da5760606101e5610200956020806040950191870101611ae7565b93846020850152015191015260208082518301019101611c99565b9160018060a01b0383511660208401516040850151823b156103da5761024192859283604051809681958294637921219560e11b8452303360048601611ce3565b03925af19081156103b65783916103c5575b505082516006546001600160a01b039182169116813b156103c157839160448392604051948593849263a22cb46560e01b84526004840152600160248401525af180156103b6576103a1575b506020816102d29460018060a01b036006541690856040518098819582946352056edb60e11b8452339060048501611d1b565b03925af192831561039657829361035b575b508190604460018060a01b0360095416916040519687938492633a9bb12760e21b845260048401528760248401525af192831561034e5760209361032d575b5050604051908152f35b610348913d8091833e6103408183611a9e565b810190611d62565b5f610323565b50604051903d90823e3d90fd5b915091506020813d60201161038e575b8161037860209383611a9e565b8101031261038a5751908290816102e4565b5f80fd5b3d915061036b565b6040513d84823e3d90fd5b6103ac838092611a9e565b61010e575f61029f565b6040513d85823e3d90fd5b8380fd5b816103cf91611a9e565b61010e57815f610253565b8480fd5b8280fd5b6301fb6dd160e01b83526004829052602483fd5b61041291503d8085833e61040a8183611a9e565b810190611b3c565b5f610161565b5034610110576020366003190112610110576004358160248160018060a01b03815416604051928380926328c44a9960e21b82528760048301525afa8015610396576101209183916107a5575b5001518051810160208101916020818303126103c1576020810151906001600160401b0382116103da57019061014090829003126103de576040516104a981611a82565b6104b560208301611ad3565b815260408201516001600160401b0381116103da578360206104d992850101611ae7565b91602082019283526060810151604083015260808101516001600160401b0381116107a15784602061050d92840101611f4c565b606083015260a08101516001600160401b0381116107a15784602061053492840101611fb1565b608083015260c08101516001600160401b0381116107a15784602061055b92840101611f4c565b60a083015260e08101516001600160401b0381116107a15784602061058292840101611fb1565b60c08301526101008101516001600160401b0381116107a1578460206105aa92840101611f4c565b60e08301526101208101516001600160401b0381116107a1578460206105d292840101611fb1565b6101008301526101408101516001600160401b0381116107a15761061494602061060192610120940101611fb1565b9101525160208082518301019101611c99565b9160018060a01b0383511660208401516040850151823b156103da5761065592859283604051809681958294637921219560e11b8452303360048601611ce3565b03925af19081156103b657839161078c575b505082516006546001600160a01b039182169116813b156103c157839160448392604051948593849263a22cb46560e01b84526004840152600160248401525af180156103b657610777575b506020816106e69460018060a01b036006541690856040518098819582946352056edb60e11b8452339060048501611d1b565b03925af1928315610396578293610740575b508190604460018060a01b0360075416916040519687938492633a9bb12760e21b845260048401528760248401525af192831561034e5760209361032d575050604051908152f35b915091506020813d60201161076f575b8161075d60209383611a9e565b8101031261038a5751908290816106f8565b3d9150610750565b610782838092611a9e565b61010e575f6106b3565b8161079691611a9e565b61010e57815f610667565b8580fd5b6107b991503d8085833e61040a8183611a9e565b5f610465565b50346101105760a0366003190112610110576107d96118f9565b506107e261190f565b506044356001600160401b03811161010e576108029036906004016119a5565b50506064356001600160401b03811161010e576108239036906004016119a5565b50506084356001600160401b03811161010e576108449036906004016119d5565b505060405163bc197c8160e01b8152602090f35b50346101105760203660031901126101105780546040516328c44a9960e21b815260048035908201819052918390829060249082906001600160a01b03165afa9081156103b6578391610a69575b508051156103e2576108dc60206108cb61012086940151828082518301019101611c19565b015160208082518301019101611c99565b9160018060a01b0383511660208401516040850151823b156103da5761091d92859283604051809681958294637921219560e11b8452303360048601611ce3565b03925af19081156103b6578391610a54575b505082516006546001600160a01b039182169116813b156103c157839160448392604051948593849263a22cb46560e01b84526004840152600160248401525af180156103b657610a3f575b506020816109ae9460018060a01b036006541690856040518098819582946352056edb60e11b8452339060048501611d1b565b03925af1928315610396578293610a08575b508190604460018060a01b0360015416916040519687938492633a9bb12760e21b845260048401528760248401525af192831561034e5760209361032d575050604051908152f35b915091506020813d602011610a37575b81610a2560209383611a9e565b8101031261038a5751908290816109c0565b3d9150610a18565b610a4a838092611a9e565b61010e575f61097b565b81610a5e91611a9e565b61010e57815f61092f565b610a7d91503d8085833e61040a8183611a9e565b5f6108a6565b50346101105760e036600319011261011057610a9d6118f9565b6064356001600160a01b0381169160243591604435908490036103da5760c435916001600160401b03831683036107a1576001600160a01b031692833b156107a157604051637921219560e11b81528690818180610b018787303360048601611ce3565b0381838a5af1801561039657610cab575b50506005546001600160a01b0316843b15610ca7576040519063a22cb46560e01b8252600482015260016024820152868160448183895af18015610c9c57610c87575b50600554600654604051610c2c98976020976001600160a01b039384169794909316959394929190610b8682611a67565b81526084358882015260a4356040820152336060820152610bdc604051918983019060609060018060a01b03815116835260208101516020840152604081015160408401528160018060a01b0391015116910152565b60808152610beb60a082611a9e565b60405196610bf888611a31565b8752878701526040860152606085015260808401528460405180978195829463f23be17b60e01b8452339160048501611d8a565b03925af1908115610c7b5790610c48575b602090604051908152f35b506020813d602011610c73575b81610c6260209383611a9e565b8101031261038a5760209051610c3d565b3d9150610c55565b604051903d90823e3d90fd5b610c92878092611a9e565b6107a1575f610b55565b6040513d89823e3d90fd5b8680fd5b81610cb591611a9e565b6107a157855f610b12565b503461011057610ccf3661194f565b909491939092916001600160a01b0316803b15610ca757604051637921219560e11b81528790818180610d088888303360048601611ce3565b038183875af1801561039657610e09575b50506005546001600160a01b0316813b15610e05576040519063a22cb46560e01b8252600482015260016024820152878160448183865af18015610dfa57610de5575b50600554600254604051610c2c99986020986001600160a01b039384169894909316969395939492610d8d83611a02565b60018060a01b0316825288820152336040820152610dd6604051918983019060409060018060a01b038151168352602081015160208401528160018060a01b0391015116910152565b60608152610beb608082611a9e565b610df0888092611a9e565b610ca7575f610d5c565b6040513d8a823e3d90fd5b8780fd5b81610e1391611a9e565b610ca757865f610d19565b50346101105760a036600319011261011057610e386118f9565b60243560443591610e47611939565b6001600160a01b0390911692833b156103da57604051637921219560e11b81528590818180610e7c8689303360048601611ce3565b0381838a5af1801561039657610f57575b50506005546001600160a01b0316843b156107a1576040519063a22cb46560e01b8252600482015260016024820152858160448183895af18015610f4c57610f37575b50600554600a54604051610c2c97966020966001600160a01b039384169694909316949291610efe81611a4c565b606435815233888201526040518151818a019081526020928301516001600160a01b031692019190915260408152610beb606082611a9e565b610f42868092611a9e565b6103da575f610ed0565b6040513d88823e3d90fd5b81610f6191611a9e565b6103da57845f610e8d565b50346101105760a036600319011261011057610f866118f9565b6024359190606435906044356001600160401b0383116103c157826004019461012060031985360301126103da57610fbc611939565b926001600160a01b0316803b156107a157604051637921219560e11b8152868180610fed8787303360048601611ce3565b038183865af18015610c9c57908791611218575b50506005546001600160a01b0316813b15610ca7576040519063a22cb46560e01b8252600482015260016024820152868160448183865af18015610c9c57908791611203575b5050600554600854604080516020808201528a35918101919091526001600160a01b0391821699919092169682916110826024830182611e9e565b60608501610120905261016085019061109a92611ed2565b6110a76044840183611e9e565b858303603f190160808701526110bd9291611f11565b6110ca6064840183611e9e565b858303603f190160a08701526110e09291611ed2565b6110ed6084840183611e9e565b858303603f190160c08701526111039291611f11565b61111060a4840183611e9e565b858303603f190160e08701526111269291611ed2565b61113360c4840183611e9e565b858303603f190161010087015261114a9291611f11565b9060e4830161115891611e9e565b848303603f190161012086015261116f9291611f11565b906001600160a01b03906111869061010401611925565b1661014083015203601f198101825261119f9082611a9e565b604051976111ac89611a31565b885260208801526040870152606086015260808501526040518094819263f23be17b60e01b8352339060048401926111e393611d8a565b0381845a94602095f1908115610c7b5790610c4857602090604051908152f35b8161120d91611a9e565b6107a157855f611047565b8161122291611a9e565b6107a157855f611001565b5034610110576020366003190112610110576004358160248160018060a01b03815416604051928380926328c44a9960e21b82528760048301525afa908115610396576108cb610120611295936020938691611422575b500151828082518301019101611e14565b9160018060a01b0383511660208401516040850151823b156103da576112d692859283604051809681958294637921219560e11b8452303360048601611ce3565b03925af19081156103b657839161140d575b505082516006546001600160a01b039182169116813b156103c157839160448392604051948593849263a22cb46560e01b84526004840152600160248401525af180156103b6576113f8575b506020816113679460018060a01b036006541690856040518098819582946352056edb60e11b8452339060048501611d1b565b03925af19283156103965782936113c1575b508190604460018060a01b0360055416916040519687938492633a9bb12760e21b845260048401528760248401525af192831561034e5760209361032d575050604051908152f35b915091506020813d6020116113f0575b816113de60209383611a9e565b8101031261038a575190829081611379565b3d91506113d1565b611403838092611a9e565b61010e575f611334565b8161141791611a9e565b61010e57815f6112e8565b61143691503d8088833e61040a8183611a9e565b5f611284565b5060203660031901126101105780546040516328c44a9960e21b815260048035908201819052918390829060249082906001600160a01b03165afa9081156103b657839161157f575b508051156103e25760206114a761012085930151828082518301019101611e14565b01519160408380518101031261010e57602061151c60846040516114ca81611a4c565b6114dd6040858901519889845201611ad3565b81850152600a54604051632634e40960e01b8152825160048201526020909201516001600160a01b039081166024840152919788948593919290911690565b3360448401528660648401525af19283156103965782936113c157508190604460018060a01b0360055416916040519687938492633a9bb12760e21b845260048401528760248401525af192831561034e5760209361032d575050604051908152f35b61159391503d8085833e61040a8183611a9e565b5f611485565b5034610110576115a83661194f565b909491939092916001600160a01b0316803b15610ca757604051637921219560e11b815287908181806115e18888303360048601611ce3565b038183875af180156103965761167b575b50506005546001600160a01b0316813b15610e05576040519063a22cb46560e01b8252600482015260016024820152878160448183865af18015610dfa57611666575b50600554600454604051610c2c99986020986001600160a01b039384169894909316969395939492610d8d83611a02565b611671888092611a9e565b610ca7575f611635565b8161168591611a9e565b610ca757865f6115f2565b50346101105760203660031901126101105760043563ffffffff60e01b811680910361010e57604051630271189760e51b9091148152602090f35b90503461038a57602036600319011261038a57600435905f8160248160018060a01b038454166328c44a9960e21b82528660048301525afa9081156118c1575f916118df575b508051156118cc5760206108cb610120611735930151828082518301019101611c19565b9060018060a01b0382511660208301516040840151823b1561038a57611776925f9283604051809681958294637921219560e11b8452303360048601611ce3565b03925af180156118c1576118ac575b5081516006548492916001600160a01b039081169116813b156103c157839160448392604051948593849263a22cb46560e01b84526004840152600160248401525af180156103b657611897575b506020816118069460018060a01b036006541690856040518098819582946352056edb60e11b8452339060048501611d1b565b03925af1928315610396578293611860575b508190604460018060a01b0360035416916040519687938492633a9bb12760e21b845260048401528760248401525af192831561034e5760209361032d575050604051908152f35b915091506020813d60201161188f575b8161187d60209383611a9e565b8101031261038a575190829081611818565b3d9150611870565b6118a2838092611a9e565b61010e575f6117d3565b6118b99193505f90611a9e565b5f915f611785565b6040513d5f823e3d90fd5b506301fb6dd160e01b5f5260045260245ffd5b6118f391503d805f833e61040a8183611a9e565b5f611711565b600435906001600160a01b038216820361038a57565b602435906001600160a01b038216820361038a57565b35906001600160a01b038216820361038a57565b608435906001600160401b038216820361038a57565b60c090600319011261038a576004356001600160a01b038116810361038a579060243590604435906064356001600160a01b038116810361038a57906084359060a4356001600160401b038116810361038a5790565b9181601f8401121561038a578235916001600160401b03831161038a576020808501948460051b01011161038a57565b9181601f8401121561038a578235916001600160401b03831161038a576020838186019501011161038a57565b606081019081106001600160401b03821117611a1d57604052565b634e487b7160e01b5f52604160045260245ffd5b60a081019081106001600160401b03821117611a1d57604052565b604081019081106001600160401b03821117611a1d57604052565b608081019081106001600160401b03821117611a1d57604052565b61014081019081106001600160401b03821117611a1d57604052565b90601f801991011681019081106001600160401b03821117611a1d57604052565b51906001600160401b038216820361038a57565b51906001600160a01b038216820361038a57565b81601f8201121561038a578051906001600160401b038211611a1d5760405192611b1b601f8401601f191660200185611a9e565b8284526020838301011161038a57815f9260208093018386015e8301015290565b60208183031261038a578051906001600160401b03821161038a57016101408183031261038a5760405191611b7083611a82565b8151835260208201516020840152611b8a60408301611abf565b6040840152611b9b60608301611abf565b6060840152611bac60808301611abf565b608084015260a082015160a0840152611bc760c08301611ad3565b60c0840152611bd860e08301611ad3565b60e0840152610100820151801515810361038a576101008401526101208201516001600160401b03811161038a57611c109201611ae7565b61012082015290565b60208183031261038a578051906001600160401b03821161038a57019060808282031261038a5760405191611c4d83611a67565b611c5681611ad3565b835260208101516001600160401b03811161038a57606092611c79918301611ae7565b6020840152611c8a60408201611ad3565b60408401520151606082015290565b9081608091031261038a57611cdb606060405192611cb684611a67565b611cbf81611ad3565b8452602081015160208501526040810151604085015201611ad3565b606082015290565b6001600160a01b039182168152911660208201526040810191909152606081019190915260a0608082018190525f9082015260c00190565b81516001600160a01b03908116825260208084015190830152604080840151908301526060928301518116928201929092529116608082015260a081019190915260c00190565b9060208282031261038a5781516001600160401b03811161038a57611d879201611ae7565b90565b9193926001600160401b03610120602060806040956060885260018060a01b0381511660608901528281015160a0838a01528051938491826101008c015201858a015e5f84848a01015260018060a01b03878201511660a0890152606081015160c0890152015160e0870152601f80199101168501019516602084015260018060a01b0316910152565b60208183031261038a578051906001600160401b03821161038a57019060a08282031261038a5760405191611e4883611a31565b611e5181611ad3565b835260208101516001600160401b03811161038a57608092611e74918301611ae7565b6020840152611e8560408201611ad3565b6040840152606081015160608401520151608082015290565b9035601e198236030181121561038a5701602081359101916001600160401b03821161038a578160051b3603831361038a57565b916020908281520191905f5b818110611eeb5750505090565b909192602080600192838060a01b03611f0388611925565b168152019401929101611ede565b81835290916001600160fb1b03831161038a5760209260051b809284830137010190565b6001600160401b038111611a1d5760051b60200190565b9080601f8301121561038a578151611f6381611f35565b92611f716040519485611a9e565b81845260208085019260051b82010192831161038a57602001905b828210611f995750505090565b60208091611fa684611ad3565b815201910190611f8c565b9080601f8301121561038a578151611fc881611f35565b92611fd66040519485611a9e565b81845260208085019260051b82010192831161038a57602001905b828210611ffe5750505090565b8151815260209182019101611ff156fea2646970667358221220794240149494f87941e57fe0c8c303598d55c0dda10ab341daf68dfdb1abb5e764736f6c634300081b0033",
    "linkReferences": {}
  },
  "methodIdentifiers": {
    "buyBundleWithErc1155(address,uint256,uint256,(uint256,address[],uint256[],address[],uint256[],address[],uint256[],uint256[],address),uint64)": "4d2ac84c",
    "buyErc1155ForErc1155(address,uint256,uint256,address,uint256,uint256,uint64)": "78a56f8f",
    "buyErc20WithErc1155(address,uint256,uint256,address,uint256,uint64)": "6d1d261f",
    "buyErc721WithErc1155(address,uint256,uint256,address,uint256,uint64)": "1fa56b20",
    "buyEthWithErc1155(address,uint256,uint256,uint256,uint64)": "576748fb",
    "onERC1155BatchReceived(address,address,uint256[],uint256[],bytes)": "bc197c81",
    "onERC1155Received(address,address,uint256,uint256,bytes)": "f23a6e61",
    "payErc1155ForBundle(bytes32)": "d7452d90",
    "payErc1155ForErc1155(bytes32)": "33666e5f",
    "payErc1155ForErc20(bytes32)": "af808a2a",
    "payErc1155ForErc721(bytes32)": "01d71c0f",
    "payErc1155ForEth(bytes32)": "da7af446",
    "payEthForErc1155(bytes32)": "253d181d",
    "supportsInterface(bytes4)": "01ffc9a7"
  },
  "id": 152
}