{
  "abi": [
    {
      "type": "constructor",
      "inputs": [
        {
          "name": "_eas",
          "type": "address",
          "internalType": "contract IEAS"
        },
        {
          "name": "_erc20Escrow",
          "type": "address",
          "internalType": "contract ERC20EscrowObligation"
        },
        {
          "name": "_erc20Payment",
          "type": "address",
          "internalType": "contract ERC20PaymentObligation"
        },
        {
          "name": "_erc721Escrow",
          "type": "address",
          "internalType": "contract ERC721EscrowObligation"
        },
        {
          "name": "_erc721Payment",
          "type": "address",
          "internalType": "contract ERC721PaymentObligation"
        },
        {
          "name": "_erc1155Escrow",
          "type": "address",
          "internalType": "contract ERC1155EscrowObligation"
        },
        {
          "name": "_erc1155Payment",
          "type": "address",
          "internalType": "contract ERC1155PaymentObligation"
        },
        {
          "name": "_bundleEscrow",
          "type": "address",
          "internalType": "contract TokenBundleEscrowObligation"
        },
        {
          "name": "_bundlePayment",
          "type": "address",
          "internalType": "contract TokenBundlePaymentObligation"
        },
        {
          "name": "_nativeEscrow",
          "type": "address",
          "internalType": "contract NativeTokenEscrowObligation"
        },
        {
          "name": "_nativePayment",
          "type": "address",
          "internalType": "contract NativeTokenPaymentObligation"
        }
      ],
      "stateMutability": "nonpayable"
    },
    {
      "type": "function",
      "name": "buyBundleWithErc20",
      "inputs": [
        {
          "name": "bidToken",
          "type": "address",
          "internalType": "address"
        },
        {
          "name": "bidAmount",
          "type": "uint256",
          "internalType": "uint256"
        },
        {
          "name": "askData",
          "type": "tuple",
          "internalType": "struct TokenBundlePaymentObligation.ObligationData",
          "components": [
            {
              "name": "nativeAmount",
              "type": "uint256",
              "internalType": "uint256"
            },
            {
              "name": "erc20Tokens",
              "type": "address[]",
              "internalType": "address[]"
            },
            {
              "name": "erc20Amounts",
              "type": "uint256[]",
              "internalType": "uint256[]"
            },
            {
              "name": "erc721Tokens",
              "type": "address[]",
              "internalType": "address[]"
            },
            {
              "name": "erc721TokenIds",
              "type": "uint256[]",
              "internalType": "uint256[]"
            },
            {
              "name": "erc1155Tokens",
              "type": "address[]",
              "internalType": "address[]"
            },
            {
              "name": "erc1155TokenIds",
              "type": "uint256[]",
              "internalType": "uint256[]"
            },
            {
              "name": "erc1155Amounts",
              "type": "uint256[]",
              "internalType": "uint256[]"
            },
            {
              "name": "payee",
              "type": "address",
              "internalType": "address"
            }
          ]
        },
        {
          "name": "expiration",
          "type": "uint64",
          "internalType": "uint64"
        }
      ],
      "outputs": [
        {
          "name": "",
          "type": "bytes32",
          "internalType": "bytes32"
        }
      ],
      "stateMutability": "nonpayable"
    },
    {
      "type": "function",
      "name": "buyErc1155WithErc20",
      "inputs": [
        {
          "name": "bidToken",
          "type": "address",
          "internalType": "address"
        },
        {
          "name": "bidAmount",
          "type": "uint256",
          "internalType": "uint256"
        },
        {
          "name": "askToken",
          "type": "address",
          "internalType": "address"
        },
        {
          "name": "askId",
          "type": "uint256",
          "internalType": "uint256"
        },
        {
          "name": "askAmount",
          "type": "uint256",
          "internalType": "uint256"
        },
        {
          "name": "expiration",
          "type": "uint64",
          "internalType": "uint64"
        }
      ],
      "outputs": [
        {
          "name": "",
          "type": "bytes32",
          "internalType": "bytes32"
        }
      ],
      "stateMutability": "nonpayable"
    },
    {
      "type": "function",
      "name": "buyErc20ForErc20",
      "inputs": [
        {
          "name": "bidToken",
          "type": "address",
          "internalType": "address"
        },
        {
          "name": "bidAmount",
          "type": "uint256",
          "internalType": "uint256"
        },
        {
          "name": "askToken",
          "type": "address",
          "internalType": "address"
        },
        {
          "name": "askAmount",
          "type": "uint256",
          "internalType": "uint256"
        },
        {
          "name": "expiration",
          "type": "uint64",
          "internalType": "uint64"
        }
      ],
      "outputs": [
        {
          "name": "",
          "type": "bytes32",
          "internalType": "bytes32"
        }
      ],
      "stateMutability": "nonpayable"
    },
    {
      "type": "function",
      "name": "buyErc721WithErc20",
      "inputs": [
        {
          "name": "bidToken",
          "type": "address",
          "internalType": "address"
        },
        {
          "name": "bidAmount",
          "type": "uint256",
          "internalType": "uint256"
        },
        {
          "name": "askToken",
          "type": "address",
          "internalType": "address"
        },
        {
          "name": "askId",
          "type": "uint256",
          "internalType": "uint256"
        },
        {
          "name": "expiration",
          "type": "uint64",
          "internalType": "uint64"
        }
      ],
      "outputs": [
        {
          "name": "",
          "type": "bytes32",
          "internalType": "bytes32"
        }
      ],
      "stateMutability": "nonpayable"
    },
    {
      "type": "function",
      "name": "buyEthWithErc20",
      "inputs": [
        {
          "name": "bidToken",
          "type": "address",
          "internalType": "address"
        },
        {
          "name": "bidAmount",
          "type": "uint256",
          "internalType": "uint256"
        },
        {
          "name": "askAmount",
          "type": "uint256",
          "internalType": "uint256"
        },
        {
          "name": "expiration",
          "type": "uint64",
          "internalType": "uint64"
        }
      ],
      "outputs": [
        {
          "name": "",
          "type": "bytes32",
          "internalType": "bytes32"
        }
      ],
      "stateMutability": "nonpayable"
    },
    {
      "type": "function",
      "name": "payErc20ForBundle",
      "inputs": [
        {
          "name": "buyAttestation",
          "type": "bytes32",
          "internalType": "bytes32"
        }
      ],
      "outputs": [
        {
          "name": "",
          "type": "bytes32",
          "internalType": "bytes32"
        }
      ],
      "stateMutability": "nonpayable"
    },
    {
      "type": "function",
      "name": "payErc20ForErc1155",
      "inputs": [
        {
          "name": "buyAttestation",
          "type": "bytes32",
          "internalType": "bytes32"
        }
      ],
      "outputs": [
        {
          "name": "",
          "type": "bytes32",
          "internalType": "bytes32"
        }
      ],
      "stateMutability": "nonpayable"
    },
    {
      "type": "function",
      "name": "payErc20ForErc20",
      "inputs": [
        {
          "name": "buyAttestation",
          "type": "bytes32",
          "internalType": "bytes32"
        }
      ],
      "outputs": [
        {
          "name": "",
          "type": "bytes32",
          "internalType": "bytes32"
        }
      ],
      "stateMutability": "nonpayable"
    },
    {
      "type": "function",
      "name": "payErc20ForErc721",
      "inputs": [
        {
          "name": "buyAttestation",
          "type": "bytes32",
          "internalType": "bytes32"
        }
      ],
      "outputs": [
        {
          "name": "",
          "type": "bytes32",
          "internalType": "bytes32"
        }
      ],
      "stateMutability": "nonpayable"
    },
    {
      "type": "function",
      "name": "payErc20ForEth",
      "inputs": [
        {
          "name": "buyAttestation",
          "type": "bytes32",
          "internalType": "bytes32"
        }
      ],
      "outputs": [
        {
          "name": "",
          "type": "bytes32",
          "internalType": "bytes32"
        }
      ],
      "stateMutability": "nonpayable"
    },
    {
      "type": "function",
      "name": "permitAndBuyBundleWithErc20",
      "inputs": [
        {
          "name": "bidToken",
          "type": "address",
          "internalType": "address"
        },
        {
          "name": "bidAmount",
          "type": "uint256",
          "internalType": "uint256"
        },
        {
          "name": "askData",
          "type": "tuple",
          "internalType": "struct TokenBundlePaymentObligation.ObligationData",
          "components": [
            {
              "name": "nativeAmount",
              "type": "uint256",
              "internalType": "uint256"
            },
            {
              "name": "erc20Tokens",
              "type": "address[]",
              "internalType": "address[]"
            },
            {
              "name": "erc20Amounts",
              "type": "uint256[]",
              "internalType": "uint256[]"
            },
            {
              "name": "erc721Tokens",
              "type": "address[]",
              "internalType": "address[]"
            },
            {
              "name": "erc721TokenIds",
              "type": "uint256[]",
              "internalType": "uint256[]"
            },
            {
              "name": "erc1155Tokens",
              "type": "address[]",
              "internalType": "address[]"
            },
            {
              "name": "erc1155TokenIds",
              "type": "uint256[]",
              "internalType": "uint256[]"
            },
            {
              "name": "erc1155Amounts",
              "type": "uint256[]",
              "internalType": "uint256[]"
            },
            {
              "name": "payee",
              "type": "address",
              "internalType": "address"
            }
          ]
        },
        {
          "name": "expiration",
          "type": "uint64",
          "internalType": "uint64"
        },
        {
          "name": "deadline",
          "type": "uint256",
          "internalType": "uint256"
        },
        {
          "name": "v",
          "type": "uint8",
          "internalType": "uint8"
        },
        {
          "name": "r",
          "type": "bytes32",
          "internalType": "bytes32"
        },
        {
          "name": "s",
          "type": "bytes32",
          "internalType": "bytes32"
        }
      ],
      "outputs": [
        {
          "name": "",
          "type": "bytes32",
          "internalType": "bytes32"
        }
      ],
      "stateMutability": "nonpayable"
    },
    {
      "type": "function",
      "name": "permitAndBuyErc1155WithErc20",
      "inputs": [
        {
          "name": "bidToken",
          "type": "address",
          "internalType": "address"
        },
        {
          "name": "bidAmount",
          "type": "uint256",
          "internalType": "uint256"
        },
        {
          "name": "askToken",
          "type": "address",
          "internalType": "address"
        },
        {
          "name": "askId",
          "type": "uint256",
          "internalType": "uint256"
        },
        {
          "name": "askAmount",
          "type": "uint256",
          "internalType": "uint256"
        },
        {
          "name": "expiration",
          "type": "uint64",
          "internalType": "uint64"
        },
        {
          "name": "deadline",
          "type": "uint256",
          "internalType": "uint256"
        },
        {
          "name": "v",
          "type": "uint8",
          "internalType": "uint8"
        },
        {
          "name": "r",
          "type": "bytes32",
          "internalType": "bytes32"
        },
        {
          "name": "s",
          "type": "bytes32",
          "internalType": "bytes32"
        }
      ],
      "outputs": [
        {
          "name": "",
          "type": "bytes32",
          "internalType": "bytes32"
        }
      ],
      "stateMutability": "nonpayable"
    },
    {
      "type": "function",
      "name": "permitAndBuyErc20ForErc20",
      "inputs": [
        {
          "name": "bidToken",
          "type": "address",
          "internalType": "address"
        },
        {
          "name": "bidAmount",
          "type": "uint256",
          "internalType": "uint256"
        },
        {
          "name": "askToken",
          "type": "address",
          "internalType": "address"
        },
        {
          "name": "askAmount",
          "type": "uint256",
          "internalType": "uint256"
        },
        {
          "name": "expiration",
          "type": "uint64",
          "internalType": "uint64"
        },
        {
          "name": "deadline",
          "type": "uint256",
          "internalType": "uint256"
        },
        {
          "name": "v",
          "type": "uint8",
          "internalType": "uint8"
        },
        {
          "name": "r",
          "type": "bytes32",
          "internalType": "bytes32"
        },
        {
          "name": "s",
          "type": "bytes32",
          "internalType": "bytes32"
        }
      ],
      "outputs": [
        {
          "name": "",
          "type": "bytes32",
          "internalType": "bytes32"
        }
      ],
      "stateMutability": "nonpayable"
    },
    {
      "type": "function",
      "name": "permitAndBuyErc721WithErc20",
      "inputs": [
        {
          "name": "bidToken",
          "type": "address",
          "internalType": "address"
        },
        {
          "name": "bidAmount",
          "type": "uint256",
          "internalType": "uint256"
        },
        {
          "name": "askToken",
          "type": "address",
          "internalType": "address"
        },
        {
          "name": "askId",
          "type": "uint256",
          "internalType": "uint256"
        },
        {
          "name": "expiration",
          "type": "uint64",
          "internalType": "uint64"
        },
        {
          "name": "deadline",
          "type": "uint256",
          "internalType": "uint256"
        },
        {
          "name": "v",
          "type": "uint8",
          "internalType": "uint8"
        },
        {
          "name": "r",
          "type": "bytes32",
          "internalType": "bytes32"
        },
        {
          "name": "s",
          "type": "bytes32",
          "internalType": "bytes32"
        }
      ],
      "outputs": [
        {
          "name": "",
          "type": "bytes32",
          "internalType": "bytes32"
        }
      ],
      "stateMutability": "nonpayable"
    },
    {
      "type": "function",
      "name": "permitAndBuyEthWithErc20",
      "inputs": [
        {
          "name": "bidToken",
          "type": "address",
          "internalType": "address"
        },
        {
          "name": "bidAmount",
          "type": "uint256",
          "internalType": "uint256"
        },
        {
          "name": "askAmount",
          "type": "uint256",
          "internalType": "uint256"
        },
        {
          "name": "expiration",
          "type": "uint64",
          "internalType": "uint64"
        },
        {
          "name": "deadline",
          "type": "uint256",
          "internalType": "uint256"
        },
        {
          "name": "v",
          "type": "uint8",
          "internalType": "uint8"
        },
        {
          "name": "r",
          "type": "bytes32",
          "internalType": "bytes32"
        },
        {
          "name": "s",
          "type": "bytes32",
          "internalType": "bytes32"
        }
      ],
      "outputs": [
        {
          "name": "",
          "type": "bytes32",
          "internalType": "bytes32"
        }
      ],
      "stateMutability": "nonpayable"
    },
    {
      "type": "function",
      "name": "permitAndBuyWithErc20",
      "inputs": [
        {
          "name": "token",
          "type": "address",
          "internalType": "address"
        },
        {
          "name": "amount",
          "type": "uint256",
          "internalType": "uint256"
        },
        {
          "name": "arbiter",
          "type": "address",
          "internalType": "address"
        },
        {
          "name": "demand",
          "type": "bytes",
          "internalType": "bytes"
        },
        {
          "name": "expiration",
          "type": "uint64",
          "internalType": "uint64"
        },
        {
          "name": "deadline",
          "type": "uint256",
          "internalType": "uint256"
        },
        {
          "name": "v",
          "type": "uint8",
          "internalType": "uint8"
        },
        {
          "name": "r",
          "type": "bytes32",
          "internalType": "bytes32"
        },
        {
          "name": "s",
          "type": "bytes32",
          "internalType": "bytes32"
        }
      ],
      "outputs": [
        {
          "name": "",
          "type": "bytes32",
          "internalType": "bytes32"
        }
      ],
      "stateMutability": "nonpayable"
    },
    {
      "type": "function",
      "name": "permitAndPayErc20ForBundle",
      "inputs": [
        {
          "name": "buyAttestation",
          "type": "bytes32",
          "internalType": "bytes32"
        },
        {
          "name": "deadline",
          "type": "uint256",
          "internalType": "uint256"
        },
        {
          "name": "v",
          "type": "uint8",
          "internalType": "uint8"
        },
        {
          "name": "r",
          "type": "bytes32",
          "internalType": "bytes32"
        },
        {
          "name": "s",
          "type": "bytes32",
          "internalType": "bytes32"
        }
      ],
      "outputs": [
        {
          "name": "",
          "type": "bytes32",
          "internalType": "bytes32"
        }
      ],
      "stateMutability": "nonpayable"
    },
    {
      "type": "function",
      "name": "permitAndPayErc20ForErc1155",
      "inputs": [
        {
          "name": "buyAttestation",
          "type": "bytes32",
          "internalType": "bytes32"
        },
        {
          "name": "deadline",
          "type": "uint256",
          "internalType": "uint256"
        },
        {
          "name": "v",
          "type": "uint8",
          "internalType": "uint8"
        },
        {
          "name": "r",
          "type": "bytes32",
          "internalType": "bytes32"
        },
        {
          "name": "s",
          "type": "bytes32",
          "internalType": "bytes32"
        }
      ],
      "outputs": [
        {
          "name": "",
          "type": "bytes32",
          "internalType": "bytes32"
        }
      ],
      "stateMutability": "nonpayable"
    },
    {
      "type": "function",
      "name": "permitAndPayErc20ForErc20",
      "inputs": [
        {
          "name": "buyAttestation",
          "type": "bytes32",
          "internalType": "bytes32"
        },
        {
          "name": "deadline",
          "type": "uint256",
          "internalType": "uint256"
        },
        {
          "name": "v",
          "type": "uint8",
          "internalType": "uint8"
        },
        {
          "name": "r",
          "type": "bytes32",
          "internalType": "bytes32"
        },
        {
          "name": "s",
          "type": "bytes32",
          "internalType": "bytes32"
        }
      ],
      "outputs": [
        {
          "name": "",
          "type": "bytes32",
          "internalType": "bytes32"
        }
      ],
      "stateMutability": "nonpayable"
    },
    {
      "type": "function",
      "name": "permitAndPayErc20ForErc721",
      "inputs": [
        {
          "name": "buyAttestation",
          "type": "bytes32",
          "internalType": "bytes32"
        },
        {
          "name": "deadline",
          "type": "uint256",
          "internalType": "uint256"
        },
        {
          "name": "v",
          "type": "uint8",
          "internalType": "uint8"
        },
        {
          "name": "r",
          "type": "bytes32",
          "internalType": "bytes32"
        },
        {
          "name": "s",
          "type": "bytes32",
          "internalType": "bytes32"
        }
      ],
      "outputs": [
        {
          "name": "",
          "type": "bytes32",
          "internalType": "bytes32"
        }
      ],
      "stateMutability": "nonpayable"
    },
    {
      "type": "function",
      "name": "permitAndPayErc20ForEth",
      "inputs": [
        {
          "name": "buyAttestation",
          "type": "bytes32",
          "internalType": "bytes32"
        },
        {
          "name": "deadline",
          "type": "uint256",
          "internalType": "uint256"
        },
        {
          "name": "v",
          "type": "uint8",
          "internalType": "uint8"
        },
        {
          "name": "r",
          "type": "bytes32",
          "internalType": "bytes32"
        },
        {
          "name": "s",
          "type": "bytes32",
          "internalType": "bytes32"
        }
      ],
      "outputs": [
        {
          "name": "",
          "type": "bytes32",
          "internalType": "bytes32"
        }
      ],
      "stateMutability": "nonpayable"
    },
    {
      "type": "function",
      "name": "permitAndPayWithErc20",
      "inputs": [
        {
          "name": "token",
          "type": "address",
          "internalType": "address"
        },
        {
          "name": "amount",
          "type": "uint256",
          "internalType": "uint256"
        },
        {
          "name": "payee",
          "type": "address",
          "internalType": "address"
        },
        {
          "name": "refUID",
          "type": "bytes32",
          "internalType": "bytes32"
        },
        {
          "name": "deadline",
          "type": "uint256",
          "internalType": "uint256"
        },
        {
          "name": "v",
          "type": "uint8",
          "internalType": "uint8"
        },
        {
          "name": "r",
          "type": "bytes32",
          "internalType": "bytes32"
        },
        {
          "name": "s",
          "type": "bytes32",
          "internalType": "bytes32"
        }
      ],
      "outputs": [
        {
          "name": "",
          "type": "bytes32",
          "internalType": "bytes32"
        }
      ],
      "stateMutability": "nonpayable"
    },
    {
      "type": "error",
      "name": "AttestationNotFound",
      "inputs": [
        {
          "name": "attestationId",
          "type": "bytes32",
          "internalType": "bytes32"
        }
      ]
    },
    {
      "type": "error",
      "name": "CouldntCollectEscrow",
      "inputs": []
    },
    {
      "type": "error",
      "name": "PermitFailed",
      "inputs": [
        {
          "name": "token",
          "type": "address",
          "internalType": "address"
        },
        {
          "name": "reason",
          "type": "string",
          "internalType": "string"
        }
      ]
    }
  ],
  "bytecode": {
    "object": "0x6080346101ff57601f61327b38819003918201601f19168301916001600160401b0383118484101761020357808492610160946040528339810103126101ff5780516001600160a01b03811691908290036101ff5760208101516001600160a01b038116908190036101ff5760408201516001600160a01b038116908190036101ff5760608301516001600160a01b038116908190036101ff5760808401516001600160a01b038116908190036101ff5760a08501516001600160a01b03811691908290036101ff5760c08601516001600160a01b03811693908490036101ff5760e08701516001600160a01b03811695908690036101ff576101008801516001600160a01b03811697908890036101ff576101208901516001600160a01b03811699908a90036101ff5761014001516001600160a01b0381169a908b90036101ff5760018060a01b03195f5416175f5560018060a01b0319600154161760015560018060a01b0319600254161760025560018060a01b0319600354161760035560018060a01b0319600454161760045560018060a01b0319600554161760055560018060a01b0319600654161760065560018060a01b0319600754161760075560018060a01b0319600854161760085560018060a01b0319600954161760095560018060a01b0319600a541617600a5560405161306390816102188239f35b5f80fd5b634e487b7160e01b5f52604160045260245ffdfe6080806040526004361015610012575f80fd5b5f905f3560e01c9081631454e3d2146110e7575080631b24bf52146110cb5780632676380114610ff45780632bf2ee3914610f465780633d94053d14610f295780633f5630c514610d4457806346b3aca214610d0357806357b378a614610cce57806367cebb7014610a1a57806372448d4d14610902578063759503f21461086d578063a0309a341461080b578063a40318ca14610765578063a6113164146106d2578063a663332a1461061c578063a6c002e914610589578063a7a6884d146104f2578063a827053014610453578063ab2fc265146103c0578063b56edf5414610302578063c1778389146101d75763e3139e8614610110575f80fd5b346101d45761011e3661118d565b9160248660018060a09897981b03815416604051928380926328c44a9960e21b82528960048301525afa9081156101c957916101926020610182610120610199979561019e9b9a99978d859e926101a6575b50500151828082518301019101611bea565b015189808251830101910161155d565b9586611d4f565b612e55565b604051908152f35b6101c292503d8091833e6101ba81836112dd565b810190611402565b5f80610170565b6040513d89823e3d90fd5b80fd5b50346101d4576101403660031901126101d4576101f26111b9565b602435916101fe6111cf565b9261020761120f565b9160e43560ff811681036102fe576001600160a01b03851690813b156102fa5761025a8392839260405195868094819363d505accf60e01b83526101243590610104359060c4358d30336004890161159c565b03925af191826102e5575b50506102d157826102746115dd565b6308c379a0146102a0575b6040516308f14ec160e11b815290819061029c90600483016116b3565b0390fd5b6102a86115f8565b90816102b557905061027f565b61029c6040519283926308f14ec160e11b845260048401611691565b61019e9260209460843592606435926127cd565b6102f08280926112dd565b6101d45780610265565b8280fd5b5080fd5b50346101d45760203660031901126101d457602490600435610322611907565b5081546040516328c44a9960e21b81526004810183905293839185919082906001600160a01b03165afa809383946103a4575b5061036d576301fb6dd160e01b825260045260249150fd5b61019e60209161039e8361038e610120880151828082518301019101611bea565b015184808251830101910161155d565b90612e55565b6103b99194503d8085833e6101ba81836112dd565b925f610355565b50346101d4576103cf36611319565b969893969495949093926001600160a01b03891691823b1561044f5790848b61041482969594604051998a978896879563d505accf60e01b875230336004890161159c565b03925af1918261043a575b505061042e57836102746115dd565b60209461019e946126a3565b6104458280926112dd565b6101d4578061041f565b8480fd5b50346101d45760203660031901126101d45780546040516328c44a9960e21b815260048035908201819052918390829060249082906001600160a01b03165afa9081156104e757602061038e61012061019e95946104c694888599926104cc575b505001518280825183010191016114dd565b90612aa5565b6104e092503d8091833e6101ba81836112dd565b5f806104b4565b6040513d85823e3d90fd5b50346101d45761050136611319565b93989497959695949390926001600160a01b03861691823b156105855760405163d505accf60e01b8152948694869493859387938593610547938e30336004890161159c565b03925af1801561057a57610565575b602061019e8888888888612053565b6105708280926112dd565b6101d45780610556565b6040513d84823e3d90fd5b8580fd5b50346101d4576105983661118d565b9160248660018060a09897981b03815416604051928380926328c44a9960e21b82528960048301525afa9081156101c9579161019260206101826101206105fc979561019e9b9a99978d859e92610601575b50500151828082518301019101611951565b6124cb565b61061592503d8091833e6101ba81836112dd565b5f806105ea565b50346101d45760203660031901126101d4576024600435918060018060a01b03815416604051938480926328c44a9960e21b82528760048301525afa9182156106c55781926106a9575b5081511561069557602061019e8461068f8361038e610120880151828082518301019101611ab9565b90612c7d565b6301fb6dd160e01b81526004839052602490fd5b6106be9192503d8084833e6101ba81836112dd565b905f610666565b50604051903d90823e3d90fd5b50346101d4576106e13661118d565b9160248660018060a09897981b03815416604051928380926328c44a9960e21b82528960048301525afa9081156101c957916101926020610182610120610745979561019e9b9a99978d859e9261074a575b50500151828082518301019101611ab9565b612c7d565b61075e92503d8091833e6101ba81836112dd565b5f80610733565b50346101d4576101003660031901126101d4576107806111b9565b60243561078b6111f9565b9261079461117d565b6001600160a01b03841690813b156102fa576107d78392839260405194858094819363d505accf60e01b835260e4359060c435906084358d30336004890161159c565b03925af1801561057a576107f6575b602061019e86604435868861294f565b6108018280926112dd565b6101d457806107e6565b50346101d45760803660031901126101d4576108256111b9565b604435916001600160401b0383116101d45761012060031984360301126101d457602061019e84846108636108586111f9565b9236906004016117c4565b90602435906122c4565b50346101d45760203660031901126101d4576024600435918060018060a01b03815416604051938480926328c44a9960e21b82528760048301525afa9182156106c55781926108e6575b5081511561069557602061019e846108e08361038e6101208801518280825183010191016114dd565b90611e31565b6108fb9192503d8084833e6101ba81836112dd565b905f6108b7565b50346101d4576109113661118d565b85546040516328c44a9960e21b815260048101879052949694929392908590829060249082906001600160a01b03165afa908115610a0f5761096e61012061097f9360209389916109f5575b5001518280825183010191016114dd565b01516020808251830101910161155d565b9560018060a01b0387511691602088015190833b156109f15786949392916109c186926040519889978896879563d505accf60e01b875230336004890161159c565b03925af1801561057a576109dc575b602061019e8585612aa5565b6109e78280926112dd565b6101d457806109d0565b8680fd5b610a0991503d808b833e6101ba81836112dd565b5f61095d565b6040513d87823e3d90fd5b50346101d4576101203660031901126101d457610a356111b9565b602435610a406111cf565b91606435916001600160401b03831161044f573660238401121561044f5784836004013593610a6e856112fe565b94610a7c60405196876112dd565b80865236602482840101116102fa57806024602093018388013785010152608435916001600160401b0383168303610585578560c4359160ff831683036102fe576001600160a01b031691823b156102fe5781610afc916040518093819263d505accf60e01b8352610104359060e4359060a4358b30336004890161159c565b038183875af1801561057a57610cb9575b50506040516323b872dd60e01b815260208180610b2f863033600485016119eb565b03818a865af180156101c957610c82575b5060015460405163095ea7b360e01b81526001600160a01b039091166004820152602481018390526020816044818a865af180156101c957610c38575b509160209391610bd996959360018060a01b03600154169360405195610ba2876112a6565b60018060a01b03168652868601526040850152606084015284604051809781958294630c1e4a7160e41b8452339160048501611a51565b03925af1908115610c2c5790610bf5575b602090604051908152f35b506020813d602011610c24575b81610c0f602093836112dd565b81010312610c205760209051610bea565b5f80fd5b3d9150610c02565b604051903d90823e3d90fd5b6020813d602011610c7a575b81610c51602093836112dd565b810103126109f15791610bd996959391610c6d602096946113af565b5091939596509193610b7d565b3d9150610c44565b6020813d602011610cb1575b81610c9b602093836112dd565b810103126109f157610cac906113af565b610b40565b3d9150610c8e565b81610cc3916112dd565b61058557855f610b0d565b50346101d45760803660031901126101d457602061019e610ced6111b9565b610cf56111f9565b90604435906024359061294f565b50346101d45760c03660031901126101d457602061019e610d226111b9565b610d2a6111cf565b610d3261120f565b916084359160643591602435906127cd565b50346101d4576101003660031901126101d45780610d606111b9565b602435610d6b6111cf565b91610d7461117d565b6001600160a01b0390911690813b1561044f5784610db4916040518093819263d505accf60e01b835260e4359060c435906084358a30336004890161159c565b038183865af1908115610a0f578591610f0f575b50506040516323b872dd60e01b815260208180610dea863033600485016119eb565b038188865af18015610a0f57610ed8575b5060025460405163095ea7b360e01b81526001600160a01b0390911660048201526024810183905260208160448188865af18015610a0f57610e94575b5090610bd99160209360018060a01b03600254169260405192610e5a84611277565b8352858301526001600160a01b03166040808301919091525163108d1d5d60e21b8152958693849283919060643590339060048501611a0d565b91906020833d602011610ed0575b81610eaf602093836112dd565b8101031261044f57602093610ec6610bd9946113af565b5093509091610e38565b3d9150610ea2565b6020813d602011610f07575b81610ef1602093836112dd565b8101031261044f57610f02906113af565b610dfb565b3d9150610ee4565b81610f19916112dd565b610f2457835f610dc8565b505050fd5b50346101d457602061019e610f3d36611225565b939290926126a3565b50346101d45760203660031901126101d457602490600435610f66611907565b5081546040516328c44a9960e21b81526004810183905293839185919082906001600160a01b03165afa80938394610fd8575b50610fb1576301fb6dd160e01b825260045260249150fd5b61019e602091610fd28361038e610120880151828082518301019101611951565b906124cb565b610fed9194503d8085833e6101ba81836112dd565b925f610f99565b34610c2057610100366003190112610c205761100e6111b9565b6044356024356001600160401b038211610c20576101206003198336030112610c20576110396111f9565b9161104261117d565b6001600160a01b038516803b15610c205760405163d505accf60e01b8152915f9183918290849082906110869060e4359060c435906084358d30336004890161159c565b03925af190816110bb575b5061109f57836102746115dd565b9261019e92916110b560209536906004016117c4565b916122c4565b5f6110c5916112dd565b5f611091565b34610c2057602061019e6110de36611225565b93929092612053565b34610c20576110f53661118d565b5f80546328c44a9960e21b8852600488018790529396929593839060249082906001600160a01b03165afa948515611172576020966101928861018261012061019e9a611153985f91611158575001518280825183010191016114dd565b611e31565b61116c91503d805f833e6101ba81836112dd565b8d61095d565b6040513d5f823e3d90fd5b60a4359060ff82168203610c2057565b60a0906003190112610c2057600435906024359060443560ff81168103610c2057906064359060843590565b600435906001600160a01b0382168203610c2057565b604435906001600160a01b0382168203610c2057565b35906001600160a01b0382168203610c2057565b606435906001600160401b0382168203610c2057565b60a435906001600160401b0382168203610c2057565b60a0906003190112610c20576004356001600160a01b0381168103610c205790602435906044356001600160a01b0381168103610c205790606435906084356001600160401b0381168103610c205790565b606081019081106001600160401b0382111761129257604052565b634e487b7160e01b5f52604160045260245ffd5b608081019081106001600160401b0382111761129257604052565b61014081019081106001600160401b0382111761129257604052565b90601f801991011681019081106001600160401b0382111761129257604052565b6001600160401b03811161129257601f01601f191660200190565b610120906003190112610c20576004356001600160a01b0381168103610c205790602435906044356001600160a01b0381168103610c205790606435906084356001600160401b0381168103610c20579060a4359060c43560ff81168103610c20579060e435906101043590565b51906001600160401b0382168203610c2057565b51906001600160a01b0382168203610c2057565b51908115158203610c2057565b81601f82011215610c20578051906113d3826112fe565b926113e160405194856112dd565b82845260208383010111610c2057815f9260208093018386015e8301015290565b602081830312610c20578051906001600160401b038211610c20570161014081830312610c205760405191611436836112c1565b815183526020820151602084015261145060408301611387565b604084015261146160608301611387565b606084015261147260808301611387565b608084015260a082015160a084015261148d60c0830161139b565b60c084015261149e60e0830161139b565b60e08401526114b061010083016113af565b6101008401526101208201516001600160401b038111610c20576114d492016113bc565b61012082015290565b602081830312610c20578051906001600160401b038211610c20570190608082820312610c205760405191611511836112a6565b61151a8161139b565b835260208101516001600160401b038111610c205760609261153d9183016113bc565b602084015261154e6040820161139b565b60408401520151606082015290565b90816060910312610c2057611594604080519261157984611277565b6115828161139b565b8452602081015160208501520161139b565b604082015290565b9360c095919897969360ff9360e087019a60018060a01b0316875260018060a01b031660208701526040860152606085015216608083015260a08201520152565b5f9060033d116115e957565b905060045f803e5f5160e01c90565b5f60443d1061165c576040513d600319016004823e8051913d60248401116001600160401b0384111761166757828201928351916001600160401b03831161165f573d8401600319018584016020011161165f575061165c929101602001906112dd565b90565b949350505050565b92915050565b805180835260209291819084018484015e5f828201840152601f01601f1916010190565b6001600160a01b03909116815260406020820181905261165c9291019061166d565b6001600160a01b039091168152604060208201819052600d908201526c2ab735b737bbb71032b93937b960991b606082015260800190565b6001600160401b0381116112925760051b60200190565b9080601f83011215610c20578135611719816116eb565b9261172760405194856112dd565b81845260208085019260051b820101928311610c2057602001905b82821061174f5750505090565b6020809161175c846111e5565b815201910190611742565b9080601f83011215610c2057813561177e816116eb565b9261178c60405194856112dd565b81845260208085019260051b820101928311610c2057602001905b8282106117b45750505090565b81358152602091820191016117a7565b91909161012081840312610c20576040519061012082018281106001600160401b038211176112925760405281938135835260208201356001600160401b038111610c205781611815918401611702565b602084015260408201356001600160401b038111610c205781611839918401611767565b604084015260608201356001600160401b038111610c20578161185d918401611702565b606084015260808201356001600160401b038111610c205781611881918401611767565b608084015260a08201356001600160401b038111610c2057816118a5918401611702565b60a084015260c08201356001600160401b038111610c2057816118c9918401611767565b60c084015260e0820135906001600160401b038211610c2057826118f7610100949261190294869401611767565b60e0860152016111e5565b910152565b60405190611914826112c1565b6060610120835f81525f60208201525f60408201525f838201525f60808201525f60a08201525f60c08201525f60e08201525f6101008201520152565b602081830312610c20578051906001600160401b038211610c2057019060a082820312610c20576040519160a083018381106001600160401b038211176112925760405261199e8161139b565b835260208101516001600160401b038111610c20576080926119c19183016113bc565b60208401526119d26040820161139b565b6040840152606081015160608401520151608082015290565b6001600160a01b03918216815291166020820152604081019190915260600190565b81516001600160a01b03908116825260208084015190830152604092830151169181019190915260a08101939291608091906001600160a01b031660608201520152565b9193926001600160401b036040926060855260018060a01b0381511660608601526060611a8c602083015160808089015260e088019061166d565b858301516001600160a01b0390811660a0890152919092015160c087015291909616602085015216910152565b602081830312610c20578051906001600160401b038211610c20570190606082820312610c205760405191611aed83611277565b611af68161139b565b835260208101516001600160401b038111610c2057604092611b199183016113bc565b60208401520151604082015290565b9080601f83011215610c20578151611b3f816116eb565b92611b4d60405194856112dd565b81845260208085019260051b820101928311610c2057602001905b828210611b755750505090565b60208091611b828461139b565b815201910190611b68565b9080601f83011215610c20578151611ba4816116eb565b92611bb260405194856112dd565b81845260208085019260051b820101928311610c2057602001905b828210611bda5750505090565b8151815260209182019101611bcd565b602081830312610c20578051906001600160401b038211610c20570161014081830312610c205760405191611c1e836112c1565b611c278261139b565b835260208201516001600160401b038111610c205781611c489184016113bc565b60208401526040820151604084015260608201516001600160401b038111610c205781611c76918401611b28565b606084015260808201516001600160401b038111610c205781611c9a918401611b8d565b608084015260a08201516001600160401b038111610c205781611cbe918401611b28565b60a084015260c08201516001600160401b038111610c205781611ce2918401611b8d565b60c084015260e08201516001600160401b038111610c205781611d06918401611b28565b60e08401526101008201516001600160401b038111610c205781611d2b918401611b8d565b6101008401526101208201516001600160401b038111610c20576114d49201611b8d565b805160208201519196959193926001600160a01b0390911691823b15610c20575f94611d9586926040519889978896879563d505accf60e01b875230336004890161159c565b03925af19081611e21575b50611e1d5750611dae6115dd565b6308c379a014611de0575b516040516308f14ec160e11b815290819061029c906001600160a01b0316600483016116b3565b611de86115f8565b9081611df5579050611db9565b516040516308f14ec160e11b815291829161029c91906001600160a01b031660048401611691565b9050565b5f611e2b916112dd565b5f611da0565b60018060a01b038251165f6020611e658186019384516040519485809481936323b872dd60e01b83523033600485016119eb565b03925af1801561117257612013575b508251600254915160405163095ea7b360e01b81526001600160a01b039384166004820152602481019190915291602091839116815f81604481015b03925af1801561117257611fd0575b50602081611ef29360018060a01b0360025416905f60405180978195829463108d1d5d60e21b8452339060048501611a0d565b03925af1918215611172575f92611f9b575b50600354604051632c713cd960e01b8152600481019290925260248201839052602090829060449082905f906001600160a01b03165af1908115611172575f91611f61575b5015611f525790565b63a97a981d60e01b5f5260045ffd5b90506020813d602011611f93575b81611f7c602093836112dd565b81010312610c2057611f8d906113af565b5f611f49565b3d9150611f6f565b9091506020813d602011611fc8575b81611fb7602093836112dd565b81010312610c205751906020611f04565b3d9150611faa565b916020833d60201161200b575b81611fea602093836112dd565b81010312610c205781602091612002611ef2956113af565b50935050611ebf565b3d9150611fdd565b6020813d60201161204b575b8161202c602093836112dd565b81010312610c2057611eb0916120436020926113af565b509150611e74565b3d915061201f565b6040516323b872dd60e01b81526001600160a01b0390911694919060208180612081853033600485016119eb565b03815f8a5af180156111725761221e575b5060015460405163095ea7b360e01b81526001600160a01b039091166004820152602481018290526020816044815f8a5af18015611172576121d6575b50600154600254604051612192976020976001600160a01b03938416979390941695949390926120fe83611277565b60018060a01b0316825287820152336040820152612147604051918883019060409060018060a01b038151168352602081015160208401528160018060a01b0391015116910152565b606081526121566080826112dd565b60405195612163876112a6565b865286860152604085015260608401525f604051809681958294630c1e4a7160e41b8452339160048501611a51565b03925af1908115611172575f916121a7575090565b90506020813d6020116121ce575b816121c2602093836112dd565b81010312610c20575190565b3d91506121b5565b939291906020853d602011612216575b816121f3602093836112dd565b81010312610c20576121929561220a6020966113af565b509550909192936120cf565b3d91506121e6565b6020813d60201161224d575b81612237602093836112dd565b81010312610c2057612248906113af565b612092565b3d915061222a565b90602080835192838152019201905f5b8181106122725750505090565b82516001600160a01b0316845260209384019390920191600101612265565b90602080835192838152019201905f5b8181106122ae5750505090565b82518452602093840193909201916001016122a1565b6040516323b872dd60e01b815291936001600160a01b0390911691602081806122f2883033600485016119eb565b03815f875af1801561117257612494575b5060015460405163095ea7b360e01b81526001600160a01b039091166004820152602481018590526020816044815f875af180156111725761244e575b5090602092916121929460018060a01b03600154169260018060a01b03600854169461215660405180928980830152805160408301526124296124126123fb6123e56123cf6123b98f6123a39088015161012060608b01526101608a0190612255565b6040880151898203603f190160808b0152612291565b6060870151888203603f190160a08a0152612255565b6080860151878203603f190160c0890152612291565b60a0850151868203603f190160e0880152612255565b60c0840151858203603f1901610100870152612291565b60e0830151848203603f1901610120860152612291565b61010091909101516001600160a01b031661014083015203601f1981018352826112dd565b9291906020843d60201161248c575b8161246a602093836112dd565b81010312610c2057612192946124816020956113af565b509450909192612340565b3d915061245d565b6020813d6020116124c3575b816124ad602093836112dd565b81010312610c20576124be906113af565b612303565b3d91506124a0565b60018060a01b038251165f60206124ff8186019384516040519485809481936323b872dd60e01b83523033600485016119eb565b03925af1801561117257612663575b508251600254915160405163095ea7b360e01b81526001600160a01b039384166004820152602481019190915291602091839116815f81604481015b03925af1801561117257612620575b5060208161258c9360018060a01b0360025416905f60405180978195829463108d1d5d60e21b8452339060048501611a0d565b03925af1918215611172575f926125eb575b50600554604051632c713cd960e01b8152600481019290925260248201839052602090829060449082905f906001600160a01b03165af1908115611172575f91611f61575015611f525790565b9091506020813d602011612618575b81612607602093836112dd565b81010312610c20575190602061259e565b3d91506125fa565b916020833d60201161265b575b8161263a602093836112dd565b81010312610c20578160209161265261258c956113af565b50935050612559565b3d915061262d565b6020813d60201161269b575b8161267c602093836112dd565b81010312610c205761254a916126936020926113af565b50915061250e565b3d915061266f565b6040516323b872dd60e01b81526001600160a01b03909116949190602081806126d1853033600485016119eb565b03815f8a5af1801561117257612796575b5060015460405163095ea7b360e01b81526001600160a01b039091166004820152602481018290526020816044815f8a5af180156111725761274e575b50600154600454604051612192976020976001600160a01b03938416979390941695949390926120fe83611277565b939291906020853d60201161278e575b8161276b602093836112dd565b81010312610c2057612192956127826020966113af565b5095509091929361271f565b3d915061275e565b6020813d6020116127c5575b816127af602093836112dd565b81010312610c20576127c0906113af565b6126e2565b3d91506127a2565b6040516323b872dd60e01b81529295926001600160a01b0390911690602081806127fc863033600485016119eb565b03815f865af1801561117257612918575b5060015460405163095ea7b360e01b81526001600160a01b039091166004820152602481018390526020816044815f865af18015611172576128ce575b50600154600654604051612192986020986001600160a01b0393841698949093169695949391929060609061287e856112a6565b60018060a01b0316938481528a8101938452604081019283520191338352604051938a85015251604084015251606083015260018060a01b0390511660808201526080815261215660a0826112dd565b94939291906020863d602011612910575b816128ec602093836112dd565b81010312610c2057612192966129036020976113af565b509650909192939461284a565b3d91506128df565b6020813d602011612947575b81612931602093836112dd565b81010312610c2057612942906113af565b61280d565b3d9150612924565b6040516323b872dd60e01b815292936001600160a01b03909116926020818061297d863033600485016119eb565b03815f885af1801561117257612a6e575b5060015460405163095ea7b360e01b81526001600160a01b039091166004820152602481018390526020816044815f885af1801561117257612a37575b5060018060a01b03600154169060018060a01b03600a5416926040519460408601968688106001600160401b0389111761129257602080976121929960405282815201338152604051918883015260018060a01b039051166040820152604081526121566060826112dd565b6020813d602011612a66575b81612a50602093836112dd565b81010312610c2057612a61906113af565b6129cb565b3d9150612a43565b6020813d602011612a9d575b81612a87602093836112dd565b81010312610c2057612a98906113af565b61298e565b3d9150612a7a565b60018060a01b038251165f6020612ad98186019384516040519485809481936323b872dd60e01b83523033600485016119eb565b03925af1801561117257612c3d575b508251600254915160405163095ea7b360e01b81526001600160a01b039384166004820152602481019190915291602091839116815f81604481015b03925af1801561117257612bfa575b50602081612b669360018060a01b0360025416905f60405180978195829463108d1d5d60e21b8452339060048501611a0d565b03925af1918215611172575f92612bc5575b50600154604051632c713cd960e01b8152600481019290925260248201839052602090829060449082905f906001600160a01b03165af1908115611172575f91611f61575015611f525790565b9091506020813d602011612bf2575b81612be1602093836112dd565b81010312610c205751906020612b78565b3d9150612bd4565b916020833d602011612c35575b81612c14602093836112dd565b81010312610c205781602091612c2c612b66956113af565b50935050612b33565b3d9150612c07565b6020813d602011612c75575b81612c56602093836112dd565b81010312610c2057612b2491612c6d6020926113af565b509150612ae8565b3d9150612c49565b60018060a01b038251165f6020612cb18186019384516040519485809481936323b872dd60e01b83523033600485016119eb565b03925af1801561117257612e15575b508251600254915160405163095ea7b360e01b81526001600160a01b039384166004820152602481019190915291602091839116815f81604481015b03925af1801561117257612dd2575b50602081612d3e9360018060a01b0360025416905f60405180978195829463108d1d5d60e21b8452339060048501611a0d565b03925af1918215611172575f92612d9d575b50600954604051632c713cd960e01b8152600481019290925260248201839052602090829060449082905f906001600160a01b03165af1908115611172575f91611f61575015611f525790565b9091506020813d602011612dca575b81612db9602093836112dd565b81010312610c205751906020612d50565b3d9150612dac565b916020833d602011612e0d575b81612dec602093836112dd565b81010312610c205781602091612e04612d3e956113af565b50935050612d0b565b3d9150612ddf565b6020813d602011612e4d575b81612e2e602093836112dd565b81010312610c2057612cfc91612e456020926113af565b509150612cc0565b3d9150612e21565b60018060a01b038251165f6020612e898186019384516040519485809481936323b872dd60e01b83523033600485016119eb565b03925af1801561117257612fed575b508251600254915160405163095ea7b360e01b81526001600160a01b039384166004820152602481019190915291602091839116815f81604481015b03925af1801561117257612faa575b50602081612f169360018060a01b0360025416905f60405180978195829463108d1d5d60e21b8452339060048501611a0d565b03925af1918215611172575f92612f75575b50600754604051632c713cd960e01b8152600481019290925260248201839052602090829060449082905f906001600160a01b03165af1908115611172575f91611f61575015611f525790565b9091506020813d602011612fa2575b81612f91602093836112dd565b81010312610c205751906020612f28565b3d9150612f84565b916020833d602011612fe5575b81612fc4602093836112dd565b81010312610c205781602091612fdc612f16956113af565b50935050612ee3565b3d9150612fb7565b6020813d602011613025575b81613006602093836112dd565b81010312610c2057612ed49161301d6020926113af565b509150612e98565b3d9150612ff956fea2646970667358221220839dc3c3669afa132e6e79495a3d5b5d8e638b27d1a3910d466d7c0ae28846ec64736f6c634300081b0033",
    "linkReferences": {}
  },
  "methodIdentifiers": {
    "buyBundleWithErc20(address,uint256,(uint256,address[],uint256[],address[],uint256[],address[],uint256[],uint256[],address),uint64)": "a0309a34",
    "buyErc1155WithErc20(address,uint256,address,uint256,uint256,uint64)": "46b3aca2",
    "buyErc20ForErc20(address,uint256,address,uint256,uint64)": "1b24bf52",
    "buyErc721WithErc20(address,uint256,address,uint256,uint64)": "3d94053d",
    "buyEthWithErc20(address,uint256,uint256,uint64)": "57b378a6",
    "payErc20ForBundle(bytes32)": "b56edf54",
    "payErc20ForErc1155(bytes32)": "2bf2ee39",
    "payErc20ForErc20(bytes32)": "a8270530",
    "payErc20ForErc721(bytes32)": "759503f2",
    "payErc20ForEth(bytes32)": "a663332a",
    "permitAndBuyBundleWithErc20(address,uint256,(uint256,address[],uint256[],address[],uint256[],address[],uint256[],uint256[],address),uint64,uint256,uint8,bytes32,bytes32)": "26763801",
    "permitAndBuyErc1155WithErc20(address,uint256,address,uint256,uint256,uint64,uint256,uint8,bytes32,bytes32)": "c1778389",
    "permitAndBuyErc20ForErc20(address,uint256,address,uint256,uint64,uint256,uint8,bytes32,bytes32)": "a7a6884d",
    "permitAndBuyErc721WithErc20(address,uint256,address,uint256,uint64,uint256,uint8,bytes32,bytes32)": "ab2fc265",
    "permitAndBuyEthWithErc20(address,uint256,uint256,uint64,uint256,uint8,bytes32,bytes32)": "a40318ca",
    "permitAndBuyWithErc20(address,uint256,address,bytes,uint64,uint256,uint8,bytes32,bytes32)": "67cebb70",
    "permitAndPayErc20ForBundle(bytes32,uint256,uint8,bytes32,bytes32)": "e3139e86",
    "permitAndPayErc20ForErc1155(bytes32,uint256,uint8,bytes32,bytes32)": "a6c002e9",
    "permitAndPayErc20ForErc20(bytes32,uint256,uint8,bytes32,bytes32)": "72448d4d",
    "permitAndPayErc20ForErc721(bytes32,uint256,uint8,bytes32,bytes32)": "1454e3d2",
    "permitAndPayErc20ForEth(bytes32,uint256,uint8,bytes32,bytes32)": "a6113164",
    "permitAndPayWithErc20(address,uint256,address,bytes32,uint256,uint8,bytes32,bytes32)": "3f5630c5"
  },
  "id": 92
}