{
  "abi": [
    {
      "type": "constructor",
      "inputs": [
        {
          "name": "_eas",
          "type": "address",
          "internalType": "contract IEAS"
        },
        {
          "name": "_erc20Escrow",
          "type": "address",
          "internalType": "contract ERC20EscrowObligation"
        },
        {
          "name": "_erc20Payment",
          "type": "address",
          "internalType": "contract ERC20PaymentObligation"
        },
        {
          "name": "_erc721Escrow",
          "type": "address",
          "internalType": "contract ERC721EscrowObligation"
        },
        {
          "name": "_erc721Payment",
          "type": "address",
          "internalType": "contract ERC721PaymentObligation"
        },
        {
          "name": "_erc1155Escrow",
          "type": "address",
          "internalType": "contract ERC1155EscrowObligation"
        },
        {
          "name": "_erc1155Payment",
          "type": "address",
          "internalType": "contract ERC1155PaymentObligation"
        },
        {
          "name": "_bundleEscrow",
          "type": "address",
          "internalType": "contract TokenBundleEscrowObligation"
        },
        {
          "name": "_bundlePayment",
          "type": "address",
          "internalType": "contract TokenBundlePaymentObligation"
        },
        {
          "name": "_nativeEscrow",
          "type": "address",
          "internalType": "contract NativeTokenEscrowObligation"
        },
        {
          "name": "_nativePayment",
          "type": "address",
          "internalType": "contract NativeTokenPaymentObligation"
        }
      ],
      "stateMutability": "nonpayable"
    },
    {
      "type": "receive",
      "stateMutability": "payable"
    },
    {
      "type": "function",
      "name": "buyBundleWithEth",
      "inputs": [
        {
          "name": "bidAmount",
          "type": "uint256",
          "internalType": "uint256"
        },
        {
          "name": "askData",
          "type": "tuple",
          "internalType": "struct TokenBundlePaymentObligation.ObligationData",
          "components": [
            {
              "name": "nativeAmount",
              "type": "uint256",
              "internalType": "uint256"
            },
            {
              "name": "erc20Tokens",
              "type": "address[]",
              "internalType": "address[]"
            },
            {
              "name": "erc20Amounts",
              "type": "uint256[]",
              "internalType": "uint256[]"
            },
            {
              "name": "erc721Tokens",
              "type": "address[]",
              "internalType": "address[]"
            },
            {
              "name": "erc721TokenIds",
              "type": "uint256[]",
              "internalType": "uint256[]"
            },
            {
              "name": "erc1155Tokens",
              "type": "address[]",
              "internalType": "address[]"
            },
            {
              "name": "erc1155TokenIds",
              "type": "uint256[]",
              "internalType": "uint256[]"
            },
            {
              "name": "erc1155Amounts",
              "type": "uint256[]",
              "internalType": "uint256[]"
            },
            {
              "name": "payee",
              "type": "address",
              "internalType": "address"
            }
          ]
        },
        {
          "name": "expiration",
          "type": "uint64",
          "internalType": "uint64"
        }
      ],
      "outputs": [
        {
          "name": "",
          "type": "bytes32",
          "internalType": "bytes32"
        }
      ],
      "stateMutability": "payable"
    },
    {
      "type": "function",
      "name": "buyErc1155WithEth",
      "inputs": [
        {
          "name": "bidAmount",
          "type": "uint256",
          "internalType": "uint256"
        },
        {
          "name": "askToken",
          "type": "address",
          "internalType": "address"
        },
        {
          "name": "askTokenId",
          "type": "uint256",
          "internalType": "uint256"
        },
        {
          "name": "askAmount",
          "type": "uint256",
          "internalType": "uint256"
        },
        {
          "name": "expiration",
          "type": "uint64",
          "internalType": "uint64"
        }
      ],
      "outputs": [
        {
          "name": "",
          "type": "bytes32",
          "internalType": "bytes32"
        }
      ],
      "stateMutability": "payable"
    },
    {
      "type": "function",
      "name": "buyErc20WithEth",
      "inputs": [
        {
          "name": "bidAmount",
          "type": "uint256",
          "internalType": "uint256"
        },
        {
          "name": "askToken",
          "type": "address",
          "internalType": "address"
        },
        {
          "name": "askAmount",
          "type": "uint256",
          "internalType": "uint256"
        },
        {
          "name": "expiration",
          "type": "uint64",
          "internalType": "uint64"
        }
      ],
      "outputs": [
        {
          "name": "",
          "type": "bytes32",
          "internalType": "bytes32"
        }
      ],
      "stateMutability": "payable"
    },
    {
      "type": "function",
      "name": "buyErc721WithEth",
      "inputs": [
        {
          "name": "bidAmount",
          "type": "uint256",
          "internalType": "uint256"
        },
        {
          "name": "askToken",
          "type": "address",
          "internalType": "address"
        },
        {
          "name": "askTokenId",
          "type": "uint256",
          "internalType": "uint256"
        },
        {
          "name": "expiration",
          "type": "uint64",
          "internalType": "uint64"
        }
      ],
      "outputs": [
        {
          "name": "",
          "type": "bytes32",
          "internalType": "bytes32"
        }
      ],
      "stateMutability": "payable"
    },
    {
      "type": "function",
      "name": "buyEthForEth",
      "inputs": [
        {
          "name": "bidAmount",
          "type": "uint256",
          "internalType": "uint256"
        },
        {
          "name": "askAmount",
          "type": "uint256",
          "internalType": "uint256"
        },
        {
          "name": "expiration",
          "type": "uint64",
          "internalType": "uint64"
        }
      ],
      "outputs": [
        {
          "name": "",
          "type": "bytes32",
          "internalType": "bytes32"
        }
      ],
      "stateMutability": "payable"
    },
    {
      "type": "function",
      "name": "payEthForBundle",
      "inputs": [
        {
          "name": "buyAttestation",
          "type": "bytes32",
          "internalType": "bytes32"
        }
      ],
      "outputs": [
        {
          "name": "",
          "type": "bytes32",
          "internalType": "bytes32"
        }
      ],
      "stateMutability": "payable"
    },
    {
      "type": "function",
      "name": "payEthForErc1155",
      "inputs": [
        {
          "name": "buyAttestation",
          "type": "bytes32",
          "internalType": "bytes32"
        }
      ],
      "outputs": [
        {
          "name": "",
          "type": "bytes32",
          "internalType": "bytes32"
        }
      ],
      "stateMutability": "payable"
    },
    {
      "type": "function",
      "name": "payEthForErc20",
      "inputs": [
        {
          "name": "buyAttestation",
          "type": "bytes32",
          "internalType": "bytes32"
        }
      ],
      "outputs": [
        {
          "name": "",
          "type": "bytes32",
          "internalType": "bytes32"
        }
      ],
      "stateMutability": "payable"
    },
    {
      "type": "function",
      "name": "payEthForErc721",
      "inputs": [
        {
          "name": "buyAttestation",
          "type": "bytes32",
          "internalType": "bytes32"
        }
      ],
      "outputs": [
        {
          "name": "",
          "type": "bytes32",
          "internalType": "bytes32"
        }
      ],
      "stateMutability": "payable"
    },
    {
      "type": "function",
      "name": "payEthForEth",
      "inputs": [
        {
          "name": "buyAttestation",
          "type": "bytes32",
          "internalType": "bytes32"
        }
      ],
      "outputs": [
        {
          "name": "",
          "type": "bytes32",
          "internalType": "bytes32"
        }
      ],
      "stateMutability": "payable"
    },
    {
      "type": "error",
      "name": "AttestationNotFound",
      "inputs": [
        {
          "name": "attestationId",
          "type": "bytes32",
          "internalType": "bytes32"
        }
      ]
    },
    {
      "type": "error",
      "name": "CouldntCollectEscrow",
      "inputs": []
    },
    {
      "type": "error",
      "name": "MsgValueMismatch",
      "inputs": []
    }
  ],
  "bytecode": {
    "object": "0x6080346101ff57601f6115a038819003918201601f19168301916001600160401b0383118484101761020357808492610160946040528339810103126101ff5780516001600160a01b03811691908290036101ff5760208101516001600160a01b038116908190036101ff5760408201516001600160a01b038116908190036101ff5760608301516001600160a01b038116908190036101ff5760808401516001600160a01b038116908190036101ff5760a08501516001600160a01b03811691908290036101ff5760c08601516001600160a01b03811693908490036101ff5760e08701516001600160a01b03811695908690036101ff576101008801516001600160a01b03811697908890036101ff576101208901516001600160a01b03811699908a90036101ff5761014001516001600160a01b0381169a908b90036101ff5760018060a01b03195f5416175f5560018060a01b0319600154161760015560018060a01b0319600254161760025560018060a01b0319600354161760035560018060a01b0319600454161760045560018060a01b0319600554161760055560018060a01b0319600654161760065560018060a01b0319600754161760075560018060a01b0319600854161760085560018060a01b0319600954161760095560018060a01b0319600a541617600a5560405161138890816102188239f35b5f80fd5b634e487b7160e01b5f52604160045260245ffdfe608080604052600436101561001c575b50361561001a575f80fd5b005b5f3560e01c90816314e1f2af14610bbc57508063253d181d146109e15780635747e3e2146107ec57806381e3b3d0146107ad5780639dfb380b14610716578063a4511639146105f3578063add4fc3d146104ad578063b9362afe1461042c578063ceaa0526146101f45763f36b979c14610096575f61000f565b60a03660031901126101ce576004356024356001600160a01b038116908190036101ce57608435906001600160401b03821682036101ce578234036101e557600954600654604051610187956020956001600160a01b03938416959490931693909161010181610f25565b8181528681019060443582526060604082019160643583520191338352604051938985015251604084015251606083015260018060a01b0390511660808201526080815261015060a082610f40565b6040519461015d86610eef565b8552858501528060408501526040518096819582946385514c5160e01b8452339160048501611265565b03925af180156101da575f906101a3575b602090604051908152f35b506020813d6020116101d2575b816101bd60209383610f40565b810103126101ce5760209051610198565b5f80fd5b3d91506101b0565b6040513d5f823e3d90fd5b63bc6f88c560e01b5f5260045ffd5b60203660031901126101ce5760043560245f60018060a01b03815416604051928380926328c44a9960e21b82528660048301525afa80156101da57610120915f9161040a575b5001519081518201916020818403126101ce576020810151906001600160401b0382116101ce5701916060838203126101ce576040519061027a82610eef565b61028660208501610f75565b825260408401516001600160401b0381116101ce5761032494602093604060606102bb6102d49588808b990191870101610f96565b938488850152015191015283808251830101910161119f565b600a548151604051632634e40960e01b8152835160048201526020909301516001600160a01b03908116602485015233604485015260648401949094529195869390911691839182906084820190565b03925af19182156101da575f926103d5575b50600954604051632c713cd960e01b8152600481019290925260248201839052602090829060449082905f906001600160a01b03165af19081156101da575f9161039b575b501561038c57602090604051908152f35b63a97a981d60e01b5f5260045ffd5b90506020813d6020116103cd575b816103b660209383610f40565b810103126101ce576103c790610f89565b8261037b565b3d91506103a9565b9091506020813d602011610402575b816103f160209383610f40565b810103126101ce5751906020610336565b3d91506103e4565b61042691503d805f833e61041e8183610f40565b810190610feb565b8361023a565b60603660031901126101ce57600435610443610e6b565b8134036101e557600954600a54604051610187946020946001600160a01b0393841694909316929161047481610f0a565b6024358152338682015260405181518188019081526020928301516001600160a01b031692019190915260408152610150606082610f40565b60203660031901126101ce5760043560245f60018060a01b03815416604051928380926328c44a9960e21b82528660048301525afa9081156101da575f916105d9575b508051156105c657906020816102d48261051a61012061052a9701518280825183010191016112d2565b015183808251830101910161119f565b03925af19182156101da575f92610591575b50600354604051632c713cd960e01b8152600481019290925260248201839052602090829060449082905f906001600160a01b03165af19081156101da575f9161039b57501561038c57602090604051908152f35b9091506020813d6020116105be575b816105ad60209383610f40565b810103126101ce575190602061053c565b3d91506105a0565b506301fb6dd160e01b5f5260045260245ffd5b6105ed91503d805f833e61041e8183610f40565b826104f0565b60203660031901126101ce5760043560245f60018060a01b03815416604051928380926328c44a9960e21b82528660048301525afa9081156101da575f916106fc575b508051156105c657906020816102d48261051a6101206106609701518280825183010191016112d2565b03925af19182156101da575f926106c7575b50600154604051632c713cd960e01b8152600481019290925260248201839052602090829060449082905f906001600160a01b03165af19081156101da575f9161039b57501561038c57602090604051908152f35b9091506020813d6020116106f4575b816106e360209383610f40565b810103126101ce5751906020610672565b3d91506106d6565b61071091503d805f833e61041e8183610f40565b82610636565b61071f36610e95565b92918234036101e557600954600254604051610187966020966001600160a01b0393841696949093169490939061075583610eef565b60018060a01b031682528682015233604082015261079e604051918783019060409060018060a01b038151168352602081015160208401528160018060a01b0391015116910152565b60608152610150608082610f40565b6107b636610e95565b92918234036101e557600954600454604051610187966020966001600160a01b0393841696949093169490939061075583610eef565b60603660031901126101ce576004356024356001600160401b0381116101ce57806004019161012060031983360301126101ce57610828610e6b565b908034036101e557600954600854604080516020808201528735918101919091526001600160a01b03918216969190921694829161086960248301826111ce565b60608501610120905261016085019061088192611202565b61088e60448401836111ce565b858303603f190160808701526108a49291611241565b6108b160648401836111ce565b858303603f190160a08701526108c79291611202565b6108d460848401836111ce565b858303603f190160c08701526108ea9291611241565b6108f760a48401836111ce565b858303603f190160e087015261090d9291611202565b61091a60c48401836111ce565b858303603f19016101008701526109319291611241565b9060e4830161093f916111ce565b848303603f19016101208601526109569291611241565b906001600160a01b039061096d9061010401610e81565b1661014083015203601f19810182526109869082610f40565b6040519461099386610eef565b8552602085015280604085015260405180809581946385514c5160e01b8352339060048401926109c293611265565b03915a94602095f180156101da575f906101a357602090604051908152f35b60203660031901126101ce5760043560245f60018060a01b03815416604051928380926328c44a9960e21b82528660048301525afa9081156101da575f91610ba2575b508051156105c65761012001519081518201916020818403126101ce576020810151906001600160401b0382116101ce57019160a0838203126101ce576040519060a082018281106001600160401b03821117610b8e57604052610a8a60208501610f75565b825260408401516001600160401b0381116101ce57610af294602093608060a0610abf6102d49588808b990191870101610f96565b938488850152610ad160608201610f75565b6040850152828101516060850152015191015283808251830101910161119f565b03925af19182156101da575f92610b59575b50600554604051632c713cd960e01b8152600481019290925260248201839052602090829060449082905f906001600160a01b03165af19081156101da575f9161039b57501561038c57602090604051908152f35b9091506020813d602011610b86575b81610b7560209383610f40565b810103126101ce5751906020610b04565b3d9150610b68565b634e487b7160e01b5f52604160045260245ffd5b610bb691503d805f833e61041e8183610f40565b82610a24565b60203660031901126101ce57600435905f8160248160018060a01b038454166328c44a9960e21b82528660048301525afa80156101da57610120915f91610e51575b500151908151820160208101926020818303126101ce576020810151906001600160401b0382116101ce57019061014090829003126101ce5760405192610c4484610ed3565b610c5060208301610f75565b845260408201516001600160401b0381116101ce57816020610c7492850101610f96565b90602085019182526060830151604086015260808301516001600160401b0381116101ce57816020610ca8928601016110dd565b606086015260a08301516001600160401b0381116101ce57816020610ccf92860101611142565b608086015260c08301516001600160401b0381116101ce57816020610cf6928601016110dd565b60a086015260e08301516001600160401b0381116101ce57816020610d1d92860101611142565b60c08601526101008301516001600160401b0381116101ce57816020610d45928601016110dd565b60e08601526101208301516001600160401b0381116101ce57816020610d6d92860101611142565b610100860152610140830151916001600160401b0383116101ce57610db595610120610da36102d4946020899781990101611142565b9101525183808251830101910161119f565b03925af19182156101da575f92610e1c575b50600754604051632c713cd960e01b8152600481019290925260248201839052602090829060449082905f906001600160a01b03165af19081156101da575f9161039b57501561038c57602090604051908152f35b9091506020813d602011610e49575b81610e3860209383610f40565b810103126101ce5751906020610dc7565b3d9150610e2b565b610e6591503d805f833e61041e8183610f40565b83610bfe565b604435906001600160401b03821682036101ce57565b35906001600160a01b03821682036101ce57565b60809060031901126101ce57600435906024356001600160a01b03811681036101ce5790604435906064356001600160401b03811681036101ce5790565b61014081019081106001600160401b03821117610b8e57604052565b606081019081106001600160401b03821117610b8e57604052565b604081019081106001600160401b03821117610b8e57604052565b608081019081106001600160401b03821117610b8e57604052565b90601f801991011681019081106001600160401b03821117610b8e57604052565b51906001600160401b03821682036101ce57565b51906001600160a01b03821682036101ce57565b519081151582036101ce57565b81601f820112156101ce578051906001600160401b038211610b8e5760405192610fca601f8401601f191660200185610f40565b828452602083830101116101ce57815f9260208093018386015e8301015290565b6020818303126101ce578051906001600160401b0382116101ce5701610140818303126101ce576040519161101f83610ed3565b815183526020820151602084015261103960408301610f61565b604084015261104a60608301610f61565b606084015261105b60808301610f61565b608084015260a082015160a084015261107660c08301610f75565b60c084015261108760e08301610f75565b60e08401526110996101008301610f89565b6101008401526101208201516001600160401b0381116101ce576110bd9201610f96565b61012082015290565b6001600160401b038111610b8e5760051b60200190565b9080601f830112156101ce5781516110f4816110c6565b926111026040519485610f40565b81845260208085019260051b8201019283116101ce57602001905b82821061112a5750505090565b6020809161113784610f75565b81520191019061111d565b9080601f830112156101ce578151611159816110c6565b926111676040519485610f40565b81845260208085019260051b8201019283116101ce57602001905b82821061118f5750505090565b8151815260209182019101611182565b908160409103126101ce576111c66020604051926111bc84610f0a565b8051845201610f75565b602082015290565b9035601e19823603018112156101ce5701602081359101916001600160401b0382116101ce578160051b360383136101ce57565b916020908281520191905f5b81811061121b5750505090565b909192602080600192838060a01b0361123388610e81565b16815201940192910161120e565b81835290916001600160fb1b0383116101ce5760209260051b809284830137010190565b9193926001600160401b0360e06020604080956060885260018060a01b03815116606089015282810151606060808a015280519384918260c08c015201858a015e5f84848a010152015160a0870152601f80199101168501019516602084015260018060a01b0316910152565b6020818303126101ce578051906001600160401b0382116101ce5701906080828203126101ce576040519161130683610f25565b61130f81610f75565b835260208101516001600160401b0381116101ce57606092611332918301610f96565b602084015261134360408201610f75565b6040840152015160608201529056fea2646970667358221220c7624d7908f55c34f84b45f4e29b260005d364a35fbefae29e8d9f4b072240c164736f6c634300081b0033",
    "linkReferences": {}
  },
  "methodIdentifiers": {
    "buyBundleWithEth(uint256,(uint256,address[],uint256[],address[],uint256[],address[],uint256[],uint256[],address),uint64)": "5747e3e2",
    "buyErc1155WithEth(uint256,address,uint256,uint256,uint64)": "f36b979c",
    "buyErc20WithEth(uint256,address,uint256,uint64)": "9dfb380b",
    "buyErc721WithEth(uint256,address,uint256,uint64)": "81e3b3d0",
    "buyEthForEth(uint256,uint256,uint64)": "b9362afe",
    "payEthForBundle(bytes32)": "14e1f2af",
    "payEthForErc1155(bytes32)": "253d181d",
    "payEthForErc20(bytes32)": "a4511639",
    "payEthForErc721(bytes32)": "add4fc3d",
    "payEthForEth(bytes32)": "ceaa0526"
  },
  "id": 94
}