{
  "abi": [
    {
      "type": "constructor",
      "inputs": [
        {
          "name": "_eas",
          "type": "address",
          "internalType": "contract IEAS"
        },
        {
          "name": "_erc20Escrow",
          "type": "address",
          "internalType": "contract ERC20EscrowObligation"
        },
        {
          "name": "_erc20Payment",
          "type": "address",
          "internalType": "contract ERC20PaymentObligation"
        },
        {
          "name": "_erc721Escrow",
          "type": "address",
          "internalType": "contract ERC721EscrowObligation"
        },
        {
          "name": "_erc721Payment",
          "type": "address",
          "internalType": "contract ERC721PaymentObligation"
        },
        {
          "name": "_erc1155Escrow",
          "type": "address",
          "internalType": "contract ERC1155EscrowObligation"
        },
        {
          "name": "_erc1155Payment",
          "type": "address",
          "internalType": "contract ERC1155PaymentObligation"
        },
        {
          "name": "_bundleEscrow",
          "type": "address",
          "internalType": "contract TokenBundleEscrowObligation"
        },
        {
          "name": "_bundlePayment",
          "type": "address",
          "internalType": "contract TokenBundlePaymentObligation"
        },
        {
          "name": "_nativeEscrow",
          "type": "address",
          "internalType": "contract NativeTokenEscrowObligation"
        },
        {
          "name": "_nativePayment",
          "type": "address",
          "internalType": "contract NativeTokenPaymentObligation"
        }
      ],
      "stateMutability": "nonpayable"
    },
    {
      "type": "function",
      "name": "buyBundleWithEth",
      "inputs": [
        {
          "name": "bidAmount",
          "type": "uint256",
          "internalType": "uint256"
        },
        {
          "name": "askData",
          "type": "tuple",
          "internalType": "struct TokenBundlePaymentObligation.ObligationData",
          "components": [
            {
              "name": "nativeAmount",
              "type": "uint256",
              "internalType": "uint256"
            },
            {
              "name": "erc20Tokens",
              "type": "address[]",
              "internalType": "address[]"
            },
            {
              "name": "erc20Amounts",
              "type": "uint256[]",
              "internalType": "uint256[]"
            },
            {
              "name": "erc721Tokens",
              "type": "address[]",
              "internalType": "address[]"
            },
            {
              "name": "erc721TokenIds",
              "type": "uint256[]",
              "internalType": "uint256[]"
            },
            {
              "name": "erc1155Tokens",
              "type": "address[]",
              "internalType": "address[]"
            },
            {
              "name": "erc1155TokenIds",
              "type": "uint256[]",
              "internalType": "uint256[]"
            },
            {
              "name": "erc1155Amounts",
              "type": "uint256[]",
              "internalType": "uint256[]"
            },
            {
              "name": "payee",
              "type": "address",
              "internalType": "address"
            }
          ]
        },
        {
          "name": "expiration",
          "type": "uint64",
          "internalType": "uint64"
        }
      ],
      "outputs": [
        {
          "name": "",
          "type": "bytes32",
          "internalType": "bytes32"
        }
      ],
      "stateMutability": "payable"
    },
    {
      "type": "function",
      "name": "buyErc1155WithEth",
      "inputs": [
        {
          "name": "bidAmount",
          "type": "uint256",
          "internalType": "uint256"
        },
        {
          "name": "askToken",
          "type": "address",
          "internalType": "address"
        },
        {
          "name": "askTokenId",
          "type": "uint256",
          "internalType": "uint256"
        },
        {
          "name": "askAmount",
          "type": "uint256",
          "internalType": "uint256"
        },
        {
          "name": "expiration",
          "type": "uint64",
          "internalType": "uint64"
        }
      ],
      "outputs": [
        {
          "name": "",
          "type": "bytes32",
          "internalType": "bytes32"
        }
      ],
      "stateMutability": "payable"
    },
    {
      "type": "function",
      "name": "buyErc20WithEth",
      "inputs": [
        {
          "name": "bidAmount",
          "type": "uint256",
          "internalType": "uint256"
        },
        {
          "name": "askToken",
          "type": "address",
          "internalType": "address"
        },
        {
          "name": "askAmount",
          "type": "uint256",
          "internalType": "uint256"
        },
        {
          "name": "expiration",
          "type": "uint64",
          "internalType": "uint64"
        }
      ],
      "outputs": [
        {
          "name": "",
          "type": "bytes32",
          "internalType": "bytes32"
        }
      ],
      "stateMutability": "payable"
    },
    {
      "type": "function",
      "name": "buyErc721WithEth",
      "inputs": [
        {
          "name": "bidAmount",
          "type": "uint256",
          "internalType": "uint256"
        },
        {
          "name": "askToken",
          "type": "address",
          "internalType": "address"
        },
        {
          "name": "askTokenId",
          "type": "uint256",
          "internalType": "uint256"
        },
        {
          "name": "expiration",
          "type": "uint64",
          "internalType": "uint64"
        }
      ],
      "outputs": [
        {
          "name": "",
          "type": "bytes32",
          "internalType": "bytes32"
        }
      ],
      "stateMutability": "payable"
    },
    {
      "type": "function",
      "name": "buyEthForEth",
      "inputs": [
        {
          "name": "bidAmount",
          "type": "uint256",
          "internalType": "uint256"
        },
        {
          "name": "askAmount",
          "type": "uint256",
          "internalType": "uint256"
        },
        {
          "name": "expiration",
          "type": "uint64",
          "internalType": "uint64"
        }
      ],
      "outputs": [
        {
          "name": "",
          "type": "bytes32",
          "internalType": "bytes32"
        }
      ],
      "stateMutability": "payable"
    },
    {
      "type": "function",
      "name": "payEthForBundle",
      "inputs": [
        {
          "name": "buyAttestation",
          "type": "bytes32",
          "internalType": "bytes32"
        }
      ],
      "outputs": [
        {
          "name": "",
          "type": "bytes32",
          "internalType": "bytes32"
        }
      ],
      "stateMutability": "payable"
    },
    {
      "type": "function",
      "name": "payEthForErc1155",
      "inputs": [
        {
          "name": "buyAttestation",
          "type": "bytes32",
          "internalType": "bytes32"
        }
      ],
      "outputs": [
        {
          "name": "",
          "type": "bytes32",
          "internalType": "bytes32"
        }
      ],
      "stateMutability": "payable"
    },
    {
      "type": "function",
      "name": "payEthForErc20",
      "inputs": [
        {
          "name": "buyAttestation",
          "type": "bytes32",
          "internalType": "bytes32"
        }
      ],
      "outputs": [
        {
          "name": "",
          "type": "bytes32",
          "internalType": "bytes32"
        }
      ],
      "stateMutability": "payable"
    },
    {
      "type": "function",
      "name": "payEthForErc721",
      "inputs": [
        {
          "name": "buyAttestation",
          "type": "bytes32",
          "internalType": "bytes32"
        }
      ],
      "outputs": [
        {
          "name": "",
          "type": "bytes32",
          "internalType": "bytes32"
        }
      ],
      "stateMutability": "payable"
    },
    {
      "type": "function",
      "name": "payEthForEth",
      "inputs": [
        {
          "name": "buyAttestation",
          "type": "bytes32",
          "internalType": "bytes32"
        }
      ],
      "outputs": [
        {
          "name": "",
          "type": "bytes32",
          "internalType": "bytes32"
        }
      ],
      "stateMutability": "payable"
    },
    {
      "type": "error",
      "name": "AttestationNotFound",
      "inputs": [
        {
          "name": "attestationId",
          "type": "bytes32",
          "internalType": "bytes32"
        }
      ]
    },
    {
      "type": "error",
      "name": "CouldntCollectEscrow",
      "inputs": []
    },
    {
      "type": "error",
      "name": "MsgValueMismatch",
      "inputs": []
    }
  ],
  "bytecode": {
    "object": "0x6080346101ff57601f61154738819003918201601f19168301916001600160401b0383118484101761020357808492610160946040528339810103126101ff5780516001600160a01b03811691908290036101ff5760208101516001600160a01b038116908190036101ff5760408201516001600160a01b038116908190036101ff5760608301516001600160a01b038116908190036101ff5760808401516001600160a01b038116908190036101ff5760a08501516001600160a01b03811691908290036101ff5760c08601516001600160a01b03811693908490036101ff5760e08701516001600160a01b03811695908690036101ff576101008801516001600160a01b03811697908890036101ff576101208901516001600160a01b03811699908a90036101ff5761014001516001600160a01b0381169a908b90036101ff5760018060a01b03195f5416175f5560018060a01b0319600154161760015560018060a01b0319600254161760025560018060a01b0319600354161760035560018060a01b0319600454161760045560018060a01b0319600554161760055560018060a01b0319600654161760065560018060a01b0319600754161760075560018060a01b0319600854161760085560018060a01b0319600954161760095560018060a01b0319600a541617600a5560405161132f90816102188239f35b5f80fd5b634e487b7160e01b5f52604160045260245ffdfe6080806040526004361015610012575f80fd5b5f3560e01c90816314e1f2af14610b5357508063253d181d146109855780635747e3e21461079057806381e3b3d0146107515780639dfb380b146106ba578063a4511639146105a4578063add4fc3d1461046b578063b9362afe146103ea578063ceaa0526146101e85763f36b979c1461008a575f80fd5b60a03660031901126101c2576004356024356001600160a01b038116908190036101c257608435906001600160401b03821682036101c2578234036101d95760095460065460405161017b956020956001600160a01b0393841695949093169390916100f581610eaf565b8181528681019060443582526060604082019160643583520191338352604051938985015251604084015251606083015260018060a01b0390511660808201526080815261014460a082610eca565b6040519461015186610e79565b8552858501528060408501526040518096819582946385514c5160e01b845233916004850161120c565b03925af180156101ce575f90610197575b602090604051908152f35b506020813d6020116101c6575b816101b160209383610eca565b810103126101c2576020905161018c565b5f80fd5b3d91506101a4565b6040513d5f823e3d90fd5b63bc6f88c560e01b5f5260045ffd5b60203660031901126101c25760043560245f60018060a01b03815416604051928380926328c44a9960e21b82528660048301525afa80156101ce57610120915f916103c8575b5001519081518201916020818403126101c2576020810151906001600160401b0382116101c25701916060838203126101c2576040519061026e82610e79565b61027a60208501610eff565b825260408401516001600160401b0381116101c25761031894602093604060606102af6102c89588808b990191870101610f13565b938488850152015191015283808251830101910161111e565b600a548151604051632634e40960e01b8152835160048201526020909301516001600160a01b03908116602485015233604485015260648401949094529195869390911691839182906084820190565b03925af19182156101ce575f92610394575b50905f8092604460018060a01b0360095416916040519586938492633a9bb12760e21b845260048401528660248401525af19182156101ce57602092610374575b50604051908152f35b61038f903d805f833e6103878183610eca565b81019061114d565b61036b565b91506020823d6020116103c0575b816103af60209383610eca565b810103126101c2579051905f61032a565b3d91506103a2565b6103e491503d805f833e6103dc8183610eca565b810190610f68565b8361022e565b60603660031901126101c257600435610401610df5565b8134036101d957600954600a5460405161017b946020946001600160a01b0393841694909316929161043281610e94565b6024358152338682015260405181518188019081526020928301516001600160a01b031692019190915260408152610144606082610eca565b60203660031901126101c25760043560245f60018060a01b03815416604051928380926328c44a9960e21b82528660048301525afa9081156101ce575f9161058a575b5080511561057757906020816102c8826104d86101206104e8970151828082518301019101611279565b015183808251830101910161111e565b03925af19182156101ce575f92610543575b50905f8092604460018060a01b0360035416916040519586938492633a9bb12760e21b845260048401528660248401525af19182156101ce576020926103745750604051908152f35b91506020823d60201161056f575b8161055e60209383610eca565b810103126101c2579051905f6104fa565b3d9150610551565b506301fb6dd160e01b5f5260045260245ffd5b61059e91503d805f833e6103dc8183610eca565b826104ae565b60203660031901126101c25760043560245f60018060a01b03815416604051928380926328c44a9960e21b82528660048301525afa9081156101ce575f916106a0575b5080511561057757906020816102c8826104d8610120610611970151828082518301019101611279565b03925af19182156101ce575f9261066c575b50905f8092604460018060a01b0360015416916040519586938492633a9bb12760e21b845260048401528660248401525af19182156101ce576020926103745750604051908152f35b91506020823d602011610698575b8161068760209383610eca565b810103126101c2579051905f610623565b3d915061067a565b6106b491503d805f833e6103dc8183610eca565b826105e7565b6106c336610e1f565b92918234036101d95760095460025460405161017b966020966001600160a01b039384169694909316949093906106f983610e79565b60018060a01b0316825286820152336040820152610742604051918783019060409060018060a01b038151168352602081015160208401528160018060a01b0391015116910152565b60608152610144608082610eca565b61075a36610e1f565b92918234036101d95760095460045460405161017b966020966001600160a01b039384169694909316949093906106f983610e79565b60603660031901126101c2576004356024356001600160401b0381116101c257806004019161012060031983360301126101c2576107cc610df5565b908034036101d957600954600854604080516020808201528735918101919091526001600160a01b03918216969190921694829161080d6024830182611175565b606085016101209052610160850190610825926111a9565b6108326044840183611175565b858303603f1901608087015261084892916111e8565b6108556064840183611175565b858303603f190160a087015261086b92916111a9565b6108786084840183611175565b858303603f190160c087015261088e92916111e8565b61089b60a4840183611175565b858303603f190160e08701526108b192916111a9565b6108be60c4840183611175565b858303603f19016101008701526108d592916111e8565b9060e483016108e391611175565b848303603f19016101208601526108fa92916111e8565b906001600160a01b03906109119061010401610e0b565b1661014083015203601f198101825261092a9082610eca565b6040519461093786610e79565b8552602085015280604085015260405180809581946385514c5160e01b8352339060048401926109669361120c565b03915a94602095f180156101ce575f9061019757602090604051908152f35b60203660031901126101c25760043560245f60018060a01b03815416604051928380926328c44a9960e21b82528660048301525afa9081156101ce575f91610b39575b508051156105775761012001519081518201916020818403126101c2576020810151906001600160401b0382116101c257019160a0838203126101c2576040519060a082018281106001600160401b03821117610b2557604052610a2e60208501610eff565b825260408401516001600160401b0381116101c257610a9694602093608060a0610a636102c89588808b990191870101610f13565b938488850152610a7560608201610eff565b6040850152828101516060850152015191015283808251830101910161111e565b03925af19182156101ce575f92610af1575b50905f8092604460018060a01b0360055416916040519586938492633a9bb12760e21b845260048401528660248401525af19182156101ce576020926103745750604051908152f35b91506020823d602011610b1d575b81610b0c60209383610eca565b810103126101c2579051905f610aa8565b3d9150610aff565b634e487b7160e01b5f52604160045260245ffd5b610b4d91503d805f833e6103dc8183610eca565b826109c8565b60203660031901126101c257600435905f8160248160018060a01b038454166328c44a9960e21b82528660048301525afa80156101ce57610120915f91610ddb575b500151908151820160208101926020818303126101c2576020810151906001600160401b0382116101c257019061014090829003126101c25760405192610bdb84610e5d565b610be760208301610eff565b845260408201516001600160401b0381116101c257816020610c0b92850101610f13565b90602085019182526060830151604086015260808301516001600160401b0381116101c257816020610c3f9286010161105c565b606086015260a08301516001600160401b0381116101c257816020610c66928601016110c1565b608086015260c08301516001600160401b0381116101c257816020610c8d9286010161105c565b60a086015260e08301516001600160401b0381116101c257816020610cb4928601016110c1565b60c08601526101008301516001600160401b0381116101c257816020610cdc9286010161105c565b60e08601526101208301516001600160401b0381116101c257816020610d04928601016110c1565b610100860152610140830151916001600160401b0383116101c257610d4c95610120610d3a6102c89460208997819901016110c1565b9101525183808251830101910161111e565b03925af19182156101ce575f92610da7575b50905f8092604460018060a01b0360075416916040519586938492633a9bb12760e21b845260048401528660248401525af19182156101ce576020926103745750604051908152f35b91506020823d602011610dd3575b81610dc260209383610eca565b810103126101c2579051905f610d5e565b3d9150610db5565b610def91503d805f833e6103dc8183610eca565b83610b95565b604435906001600160401b03821682036101c257565b35906001600160a01b03821682036101c257565b60809060031901126101c257600435906024356001600160a01b03811681036101c25790604435906064356001600160401b03811681036101c25790565b61014081019081106001600160401b03821117610b2557604052565b606081019081106001600160401b03821117610b2557604052565b604081019081106001600160401b03821117610b2557604052565b608081019081106001600160401b03821117610b2557604052565b90601f801991011681019081106001600160401b03821117610b2557604052565b51906001600160401b03821682036101c257565b51906001600160a01b03821682036101c257565b81601f820112156101c2578051906001600160401b038211610b255760405192610f47601f8401601f191660200185610eca565b828452602083830101116101c257815f9260208093018386015e8301015290565b6020818303126101c2578051906001600160401b0382116101c25701610140818303126101c25760405191610f9c83610e5d565b8151835260208201516020840152610fb660408301610eeb565b6040840152610fc760608301610eeb565b6060840152610fd860808301610eeb565b608084015260a082015160a0840152610ff360c08301610eff565b60c084015261100460e08301610eff565b60e084015261010082015180151581036101c2576101008401526101208201516001600160401b0381116101c25761103c9201610f13565b61012082015290565b6001600160401b038111610b255760051b60200190565b9080601f830112156101c257815161107381611045565b926110816040519485610eca565b81845260208085019260051b8201019283116101c257602001905b8282106110a95750505090565b602080916110b684610eff565b81520191019061109c565b9080601f830112156101c25781516110d881611045565b926110e66040519485610eca565b81845260208085019260051b8201019283116101c257602001905b82821061110e5750505090565b8151815260209182019101611101565b908160409103126101c25761114560206040519261113b84610e94565b8051845201610eff565b602082015290565b906020828203126101c25781516001600160401b0381116101c2576111729201610f13565b90565b9035601e19823603018112156101c25701602081359101916001600160401b0382116101c2578160051b360383136101c257565b916020908281520191905f5b8181106111c25750505090565b909192602080600192838060a01b036111da88610e0b565b1681520194019291016111b5565b81835290916001600160fb1b0383116101c25760209260051b809284830137010190565b9193926001600160401b0360e06020604080956060885260018060a01b03815116606089015282810151606060808a015280519384918260c08c015201858a015e5f84848a010152015160a0870152601f80199101168501019516602084015260018060a01b0316910152565b6020818303126101c2578051906001600160401b0382116101c25701906080828203126101c257604051916112ad83610eaf565b6112b681610eff565b835260208101516001600160401b0381116101c2576060926112d9918301610f13565b60208401526112ea60408201610eff565b6040840152015160608201529056fea26469706673582212200083d32928dada7b0cde9ae541fee101265d3221cc6dd3a5dc5fbb5b0e0eda2364736f6c634300081b0033",
    "linkReferences": {}
  },
  "methodIdentifiers": {
    "buyBundleWithEth(uint256,(uint256,address[],uint256[],address[],uint256[],address[],uint256[],uint256[],address),uint64)": "5747e3e2",
    "buyErc1155WithEth(uint256,address,uint256,uint256,uint64)": "f36b979c",
    "buyErc20WithEth(uint256,address,uint256,uint64)": "9dfb380b",
    "buyErc721WithEth(uint256,address,uint256,uint64)": "81e3b3d0",
    "buyEthForEth(uint256,uint256,uint64)": "b9362afe",
    "payEthForBundle(bytes32)": "14e1f2af",
    "payEthForErc1155(bytes32)": "253d181d",
    "payEthForErc20(bytes32)": "a4511639",
    "payEthForErc721(bytes32)": "add4fc3d",
    "payEthForEth(bytes32)": "ceaa0526"
  },
  "id": 155
}