{
  "abi": [
    {
      "type": "constructor",
      "inputs": [
        {
          "name": "_eas",
          "type": "address",
          "internalType": "contract IEAS"
        },
        {
          "name": "_erc20Escrow",
          "type": "address",
          "internalType": "contract ERC20EscrowObligation"
        },
        {
          "name": "_erc20Payment",
          "type": "address",
          "internalType": "contract ERC20PaymentObligation"
        },
        {
          "name": "_erc721Escrow",
          "type": "address",
          "internalType": "contract ERC721EscrowObligation"
        },
        {
          "name": "_erc721Payment",
          "type": "address",
          "internalType": "contract ERC721PaymentObligation"
        },
        {
          "name": "_erc1155Escrow",
          "type": "address",
          "internalType": "contract ERC1155EscrowObligation"
        },
        {
          "name": "_erc1155Payment",
          "type": "address",
          "internalType": "contract ERC1155PaymentObligation"
        },
        {
          "name": "_bundleEscrow",
          "type": "address",
          "internalType": "contract TokenBundleEscrowObligation"
        },
        {
          "name": "_bundlePayment",
          "type": "address",
          "internalType": "contract TokenBundlePaymentObligation"
        },
        {
          "name": "_nativeEscrow",
          "type": "address",
          "internalType": "contract NativeTokenEscrowObligation"
        },
        {
          "name": "_nativePayment",
          "type": "address",
          "internalType": "contract NativeTokenPaymentObligation"
        }
      ],
      "stateMutability": "nonpayable"
    },
    {
      "type": "function",
      "name": "payEthForBundle",
      "inputs": [
        {
          "name": "buyAttestation",
          "type": "bytes32",
          "internalType": "bytes32"
        }
      ],
      "outputs": [
        {
          "name": "",
          "type": "bytes32",
          "internalType": "bytes32"
        }
      ],
      "stateMutability": "payable"
    },
    {
      "type": "function",
      "name": "payEthForErc1155",
      "inputs": [
        {
          "name": "buyAttestation",
          "type": "bytes32",
          "internalType": "bytes32"
        }
      ],
      "outputs": [
        {
          "name": "",
          "type": "bytes32",
          "internalType": "bytes32"
        }
      ],
      "stateMutability": "payable"
    },
    {
      "type": "function",
      "name": "payEthForErc20",
      "inputs": [
        {
          "name": "buyAttestation",
          "type": "bytes32",
          "internalType": "bytes32"
        }
      ],
      "outputs": [
        {
          "name": "",
          "type": "bytes32",
          "internalType": "bytes32"
        }
      ],
      "stateMutability": "payable"
    },
    {
      "type": "function",
      "name": "payEthForErc721",
      "inputs": [
        {
          "name": "buyAttestation",
          "type": "bytes32",
          "internalType": "bytes32"
        }
      ],
      "outputs": [
        {
          "name": "",
          "type": "bytes32",
          "internalType": "bytes32"
        }
      ],
      "stateMutability": "payable"
    },
    {
      "type": "function",
      "name": "payEthForEth",
      "inputs": [
        {
          "name": "buyAttestation",
          "type": "bytes32",
          "internalType": "bytes32"
        }
      ],
      "outputs": [
        {
          "name": "",
          "type": "bytes32",
          "internalType": "bytes32"
        }
      ],
      "stateMutability": "payable"
    },
    {
      "type": "error",
      "name": "AttestationNotFound",
      "inputs": [
        {
          "name": "attestationId",
          "type": "bytes32",
          "internalType": "bytes32"
        }
      ]
    },
    {
      "type": "error",
      "name": "CouldntCollectEscrow",
      "inputs": []
    },
    {
      "type": "error",
      "name": "MsgValueMismatch",
      "inputs": []
    }
  ],
  "bytecode": {
    "object": "0x6080346101ff57601f610ee938819003918201601f19168301916001600160401b0383118484101761020357808492610160946040528339810103126101ff5780516001600160a01b03811691908290036101ff5760208101516001600160a01b038116908190036101ff5760408201516001600160a01b038116908190036101ff5760608301516001600160a01b038116908190036101ff5760808401516001600160a01b038116908190036101ff5760a08501516001600160a01b03811691908290036101ff5760c08601516001600160a01b03811693908490036101ff5760e08701516001600160a01b03811695908690036101ff576101008801516001600160a01b03811697908890036101ff576101208901516001600160a01b03811699908a90036101ff5761014001516001600160a01b0381169a908b90036101ff5760018060a01b03195f5416175f5560018060a01b0319600154161760015560018060a01b0319600254161760025560018060a01b0319600354161760035560018060a01b0319600454161760045560018060a01b0319600554161760055560018060a01b0319600654161760065560018060a01b0319600754161760075560018060a01b0319600854161760085560018060a01b0319600954161760095560018060a01b0319600a541617600a55604051610cd190816102188239f35b5f80fd5b634e487b7160e01b5f52604160045260245ffdfe6080806040526004361015610012575f80fd5b5f3560e01c90816314e1f2af1461069157508063253d181d146104d7578063a4511639146103c1578063add4fc3d146102885763ceaa052614610053575f80fd5b60203660031901126102465760043560245f60018060a01b03815416604051928380926328c44a9960e21b82528660048301525afa801561020f57610120915f91610266575b500151908151820191602081840312610246576020810151906001600160401b0382116102465701916060838203126102465760405190606082018281106001600160401b03821117610252576040526100f560208501610984565b825260408401516001600160401b03811161024657610193946020936040606061012a6101439588808b990191870101610998565b9384888501520151910152838082518301019101610ba3565b600a548151604051632634e40960e01b8152835160048201526020909301516001600160a01b03908116602485015233604485015260648401949094529195869390911691839182906084820190565b03925af191821561020f575f9261021a575b50905f8092604460018060a01b0360095416916040519586938492633a9bb12760e21b845260048401528660248401525af191821561020f576020926101ef575b50604051908152f35b61020a903d805f833e610202818361094f565b810190610be3565b6101e6565b6040513d5f823e3d90fd5b91506020823d60201161024a575b816102356020938361094f565b81010312610246579051905f6101a5565b5f80fd5b3d9150610228565b634e487b7160e01b5f52604160045260245ffd5b61028291503d805f833e61027a818361094f565b8101906109ed565b5f610099565b60203660031901126102465760043560245f60018060a01b03815416604051928380926328c44a9960e21b82528660048301525afa90811561020f575f916103a7575b508051156103945790602081610143826102f5610120610305970151828082518301019101610c0b565b0151838082518301019101610ba3565b03925af191821561020f575f92610360575b50905f8092604460018060a01b0360035416916040519586938492633a9bb12760e21b845260048401528660248401525af191821561020f576020926101ef5750604051908152f35b91506020823d60201161038c575b8161037b6020938361094f565b81010312610246579051905f610317565b3d915061036e565b506301fb6dd160e01b5f5260045260245ffd5b6103bb91503d805f833e61027a818361094f565b826102cb565b60203660031901126102465760043560245f60018060a01b03815416604051928380926328c44a9960e21b82528660048301525afa90811561020f575f916104bd575b508051156103945790602081610143826102f561012061042e970151828082518301019101610c0b565b03925af191821561020f575f92610489575b50905f8092604460018060a01b0360015416916040519586938492633a9bb12760e21b845260048401528660248401525af191821561020f576020926101ef5750604051908152f35b91506020823d6020116104b5575b816104a46020938361094f565b81010312610246579051905f610440565b3d9150610497565b6104d191503d805f833e61027a818361094f565b82610404565b60203660031901126102465760043560245f60018060a01b03815416604051928380926328c44a9960e21b82528660048301525afa90811561020f575f91610677575b50805115610394576101200151908151820191602081840312610246576020810151906001600160401b03821161024657019160a083820312610246576040519060a082018281106001600160401b038211176102525760405261058060208501610984565b825260408401516001600160401b038111610246576105e894602093608060a06105b56101439588808b990191870101610998565b9384888501526105c760608201610984565b60408501528281015160608501520151910152838082518301019101610ba3565b03925af191821561020f575f92610643575b50905f8092604460018060a01b0360055416916040519586938492633a9bb12760e21b845260048401528660248401525af191821561020f576020926101ef5750604051908152f35b91506020823d60201161066f575b8161065e6020938361094f565b81010312610246579051905f6105fa565b3d9150610651565b61068b91503d805f833e61027a818361094f565b8261051a565b602036600319011261024657600435905f8160248160018060a01b038454166328c44a9960e21b82528660048301525afa801561020f57610120915f91610919575b50015190815182016020810192602081830312610246576020810151906001600160401b0382116102465701906101409082900312610246576040519261071984610933565b61072560208301610984565b845260408201516001600160401b0381116102465781602061074992850101610998565b90602085019182526060830151604086015260808301516001600160401b0381116102465781602061077d92860101610ae1565b606086015260a08301516001600160401b038111610246578160206107a492860101610b46565b608086015260c08301516001600160401b038111610246578160206107cb92860101610ae1565b60a086015260e08301516001600160401b038111610246578160206107f292860101610b46565b60c08601526101008301516001600160401b0381116102465781602061081a92860101610ae1565b60e08601526101208301516001600160401b0381116102465781602061084292860101610b46565b610100860152610140830151916001600160401b0383116102465761088a95610120610878610143946020899781990101610b46565b91015251838082518301019101610ba3565b03925af191821561020f575f926108e5575b50905f8092604460018060a01b0360075416916040519586938492633a9bb12760e21b845260048401528660248401525af191821561020f576020926101ef5750604051908152f35b91506020823d602011610911575b816109006020938361094f565b81010312610246579051905f61089c565b3d91506108f3565b61092d91503d805f833e61027a818361094f565b836106d3565b61014081019081106001600160401b0382111761025257604052565b90601f801991011681019081106001600160401b0382111761025257604052565b51906001600160401b038216820361024657565b51906001600160a01b038216820361024657565b81601f82011215610246578051906001600160401b03821161025257604051926109cc601f8401601f19166020018561094f565b8284526020838301011161024657815f9260208093018386015e8301015290565b602081830312610246578051906001600160401b0382116102465701610140818303126102465760405191610a2183610933565b8151835260208201516020840152610a3b60408301610970565b6040840152610a4c60608301610970565b6060840152610a5d60808301610970565b608084015260a082015160a0840152610a7860c08301610984565b60c0840152610a8960e08301610984565b60e08401526101008201518015158103610246576101008401526101208201516001600160401b03811161024657610ac19201610998565b61012082015290565b6001600160401b0381116102525760051b60200190565b9080601f83011215610246578151610af881610aca565b92610b06604051948561094f565b81845260208085019260051b82010192831161024657602001905b828210610b2e5750505090565b60208091610b3b84610984565b815201910190610b21565b9080601f83011215610246578151610b5d81610aca565b92610b6b604051948561094f565b81845260208085019260051b82010192831161024657602001905b828210610b935750505090565b8151815260209182019101610b86565b908160409103126102465760405190604082018281106001600160401b038211176102525760405280518252610bdb90602001610984565b602082015290565b906020828203126102465781516001600160401b03811161024657610c089201610998565b90565b602081830312610246578051906001600160401b0382116102465701906080828203126102465760405191608083018381106001600160401b0382111761025257604052610c5881610984565b835260208101516001600160401b03811161024657606092610c7b918301610998565b6020840152610c8c60408201610984565b6040840152015160608201529056fea26469706673582212202dbec61be2c65458d084f33261505e0c4dbe52098e05ee2508b97ac79a1182a564736f6c634300081b0033",
    "linkReferences": {}
  },
  "methodIdentifiers": {
    "payEthForBundle(bytes32)": "14e1f2af",
    "payEthForErc1155(bytes32)": "253d181d",
    "payEthForErc20(bytes32)": "a4511639",
    "payEthForErc721(bytes32)": "add4fc3d",
    "payEthForEth(bytes32)": "ceaa0526"
  },
  "id": 131
}