{
  "abi": [
    {
      "type": "constructor",
      "inputs": [
        {
          "name": "_eas",
          "type": "address",
          "internalType": "contract IEAS"
        },
        {
          "name": "_schemaRegistry",
          "type": "address",
          "internalType": "contract ISchemaRegistry"
        }
      ],
      "stateMutability": "nonpayable"
    },
    {
      "type": "receive",
      "stateMutability": "payable"
    },
    {
      "type": "function",
      "name": "ATTESTATION_SCHEMA",
      "inputs": [],
      "outputs": [
        {
          "name": "",
          "type": "bytes32",
          "internalType": "bytes32"
        }
      ],
      "stateMutability": "view"
    },
    {
      "type": "function",
      "name": "VALIDATION_SCHEMA",
      "inputs": [],
      "outputs": [
        {
          "name": "",
          "type": "bytes32",
          "internalType": "bytes32"
        }
      ],
      "stateMutability": "view"
    },
    {
      "type": "function",
      "name": "attest",
      "inputs": [
        {
          "name": "attestation",
          "type": "tuple",
          "internalType": "struct Attestation",
          "components": [
            {
              "name": "uid",
              "type": "bytes32",
              "internalType": "bytes32"
            },
            {
              "name": "schema",
              "type": "bytes32",
              "internalType": "bytes32"
            },
            {
              "name": "time",
              "type": "uint64",
              "internalType": "uint64"
            },
            {
              "name": "expirationTime",
              "type": "uint64",
              "internalType": "uint64"
            },
            {
              "name": "revocationTime",
              "type": "uint64",
              "internalType": "uint64"
            },
            {
              "name": "refUID",
              "type": "bytes32",
              "internalType": "bytes32"
            },
            {
              "name": "recipient",
              "type": "address",
              "internalType": "address"
            },
            {
              "name": "attester",
              "type": "address",
              "internalType": "address"
            },
            {
              "name": "revocable",
              "type": "bool",
              "internalType": "bool"
            },
            {
              "name": "data",
              "type": "bytes",
              "internalType": "bytes"
            }
          ]
        }
      ],
      "outputs": [
        {
          "name": "",
          "type": "bool",
          "internalType": "bool"
        }
      ],
      "stateMutability": "payable"
    },
    {
      "type": "function",
      "name": "checkObligation",
      "inputs": [
        {
          "name": "obligation",
          "type": "tuple",
          "internalType": "struct Attestation",
          "components": [
            {
              "name": "uid",
              "type": "bytes32",
              "internalType": "bytes32"
            },
            {
              "name": "schema",
              "type": "bytes32",
              "internalType": "bytes32"
            },
            {
              "name": "time",
              "type": "uint64",
              "internalType": "uint64"
            },
            {
              "name": "expirationTime",
              "type": "uint64",
              "internalType": "uint64"
            },
            {
              "name": "revocationTime",
              "type": "uint64",
              "internalType": "uint64"
            },
            {
              "name": "refUID",
              "type": "bytes32",
              "internalType": "bytes32"
            },
            {
              "name": "recipient",
              "type": "address",
              "internalType": "address"
            },
            {
              "name": "attester",
              "type": "address",
              "internalType": "address"
            },
            {
              "name": "revocable",
              "type": "bool",
              "internalType": "bool"
            },
            {
              "name": "data",
              "type": "bytes",
              "internalType": "bytes"
            }
          ]
        },
        {
          "name": "demand",
          "type": "bytes",
          "internalType": "bytes"
        },
        {
          "name": "",
          "type": "bytes32",
          "internalType": "bytes32"
        }
      ],
      "outputs": [
        {
          "name": "",
          "type": "bool",
          "internalType": "bool"
        }
      ],
      "stateMutability": "view"
    },
    {
      "type": "function",
      "name": "collectEscrow",
      "inputs": [
        {
          "name": "escrow",
          "type": "bytes32",
          "internalType": "bytes32"
        },
        {
          "name": "fulfillment",
          "type": "bytes32",
          "internalType": "bytes32"
        }
      ],
      "outputs": [
        {
          "name": "",
          "type": "bytes32",
          "internalType": "bytes32"
        }
      ],
      "stateMutability": "nonpayable"
    },
    {
      "type": "function",
      "name": "collectEscrowRaw",
      "inputs": [
        {
          "name": "_escrow",
          "type": "bytes32",
          "internalType": "bytes32"
        },
        {
          "name": "_fulfillment",
          "type": "bytes32",
          "internalType": "bytes32"
        }
      ],
      "outputs": [
        {
          "name": "",
          "type": "bytes",
          "internalType": "bytes"
        }
      ],
      "stateMutability": "nonpayable"
    },
    {
      "type": "function",
      "name": "decodeObligationData",
      "inputs": [
        {
          "name": "data",
          "type": "bytes",
          "internalType": "bytes"
        }
      ],
      "outputs": [
        {
          "name": "",
          "type": "tuple",
          "internalType": "struct AttestationEscrowObligation2.ObligationData",
          "components": [
            {
              "name": "arbiter",
              "type": "address",
              "internalType": "address"
            },
            {
              "name": "demand",
              "type": "bytes",
              "internalType": "bytes"
            },
            {
              "name": "attestationUid",
              "type": "bytes32",
              "internalType": "bytes32"
            }
          ]
        }
      ],
      "stateMutability": "pure"
    },
    {
      "type": "function",
      "name": "doObligation",
      "inputs": [
        {
          "name": "data",
          "type": "tuple",
          "internalType": "struct AttestationEscrowObligation2.ObligationData",
          "components": [
            {
              "name": "arbiter",
              "type": "address",
              "internalType": "address"
            },
            {
              "name": "demand",
              "type": "bytes",
              "internalType": "bytes"
            },
            {
              "name": "attestationUid",
              "type": "bytes32",
              "internalType": "bytes32"
            }
          ]
        },
        {
          "name": "expirationTime",
          "type": "uint64",
          "internalType": "uint64"
        }
      ],
      "outputs": [
        {
          "name": "",
          "type": "bytes32",
          "internalType": "bytes32"
        }
      ],
      "stateMutability": "nonpayable"
    },
    {
      "type": "function",
      "name": "doObligationFor",
      "inputs": [
        {
          "name": "data",
          "type": "tuple",
          "internalType": "struct AttestationEscrowObligation2.ObligationData",
          "components": [
            {
              "name": "arbiter",
              "type": "address",
              "internalType": "address"
            },
            {
              "name": "demand",
              "type": "bytes",
              "internalType": "bytes"
            },
            {
              "name": "attestationUid",
              "type": "bytes32",
              "internalType": "bytes32"
            }
          ]
        },
        {
          "name": "expirationTime",
          "type": "uint64",
          "internalType": "uint64"
        },
        {
          "name": "recipient",
          "type": "address",
          "internalType": "address"
        }
      ],
      "outputs": [
        {
          "name": "",
          "type": "bytes32",
          "internalType": "bytes32"
        }
      ],
      "stateMutability": "nonpayable"
    },
    {
      "type": "function",
      "name": "doObligationRaw",
      "inputs": [
        {
          "name": "data",
          "type": "bytes",
          "internalType": "bytes"
        },
        {
          "name": "expirationTime",
          "type": "uint64",
          "internalType": "uint64"
        },
        {
          "name": "refUID",
          "type": "bytes32",
          "internalType": "bytes32"
        }
      ],
      "outputs": [
        {
          "name": "uid_",
          "type": "bytes32",
          "internalType": "bytes32"
        }
      ],
      "stateMutability": "payable"
    },
    {
      "type": "function",
      "name": "extractArbiterAndDemand",
      "inputs": [
        {
          "name": "data",
          "type": "bytes",
          "internalType": "bytes"
        }
      ],
      "outputs": [
        {
          "name": "arbiter",
          "type": "address",
          "internalType": "address"
        },
        {
          "name": "demand",
          "type": "bytes",
          "internalType": "bytes"
        }
      ],
      "stateMutability": "pure"
    },
    {
      "type": "function",
      "name": "getObligationData",
      "inputs": [
        {
          "name": "uid",
          "type": "bytes32",
          "internalType": "bytes32"
        }
      ],
      "outputs": [
        {
          "name": "",
          "type": "tuple",
          "internalType": "struct AttestationEscrowObligation2.ObligationData",
          "components": [
            {
              "name": "arbiter",
              "type": "address",
              "internalType": "address"
            },
            {
              "name": "demand",
              "type": "bytes",
              "internalType": "bytes"
            },
            {
              "name": "attestationUid",
              "type": "bytes32",
              "internalType": "bytes32"
            }
          ]
        }
      ],
      "stateMutability": "view"
    },
    {
      "type": "function",
      "name": "getSchema",
      "inputs": [],
      "outputs": [
        {
          "name": "",
          "type": "tuple",
          "internalType": "struct SchemaRecord",
          "components": [
            {
              "name": "uid",
              "type": "bytes32",
              "internalType": "bytes32"
            },
            {
              "name": "resolver",
              "type": "address",
              "internalType": "contract ISchemaResolver"
            },
            {
              "name": "revocable",
              "type": "bool",
              "internalType": "bool"
            },
            {
              "name": "schema",
              "type": "string",
              "internalType": "string"
            }
          ]
        }
      ],
      "stateMutability": "view"
    },
    {
      "type": "function",
      "name": "isPayable",
      "inputs": [],
      "outputs": [
        {
          "name": "",
          "type": "bool",
          "internalType": "bool"
        }
      ],
      "stateMutability": "pure"
    },
    {
      "type": "function",
      "name": "multiAttest",
      "inputs": [
        {
          "name": "attestations",
          "type": "tuple[]",
          "internalType": "struct Attestation[]",
          "components": [
            {
              "name": "uid",
              "type": "bytes32",
              "internalType": "bytes32"
            },
            {
              "name": "schema",
              "type": "bytes32",
              "internalType": "bytes32"
            },
            {
              "name": "time",
              "type": "uint64",
              "internalType": "uint64"
            },
            {
              "name": "expirationTime",
              "type": "uint64",
              "internalType": "uint64"
            },
            {
              "name": "revocationTime",
              "type": "uint64",
              "internalType": "uint64"
            },
            {
              "name": "refUID",
              "type": "bytes32",
              "internalType": "bytes32"
            },
            {
              "name": "recipient",
              "type": "address",
              "internalType": "address"
            },
            {
              "name": "attester",
              "type": "address",
              "internalType": "address"
            },
            {
              "name": "revocable",
              "type": "bool",
              "internalType": "bool"
            },
            {
              "name": "data",
              "type": "bytes",
              "internalType": "bytes"
            }
          ]
        },
        {
          "name": "values",
          "type": "uint256[]",
          "internalType": "uint256[]"
        }
      ],
      "outputs": [
        {
          "name": "",
          "type": "bool",
          "internalType": "bool"
        }
      ],
      "stateMutability": "payable"
    },
    {
      "type": "function",
      "name": "multiRevoke",
      "inputs": [
        {
          "name": "attestations",
          "type": "tuple[]",
          "internalType": "struct Attestation[]",
          "components": [
            {
              "name": "uid",
              "type": "bytes32",
              "internalType": "bytes32"
            },
            {
              "name": "schema",
              "type": "bytes32",
              "internalType": "bytes32"
            },
            {
              "name": "time",
              "type": "uint64",
              "internalType": "uint64"
            },
            {
              "name": "expirationTime",
              "type": "uint64",
              "internalType": "uint64"
            },
            {
              "name": "revocationTime",
              "type": "uint64",
              "internalType": "uint64"
            },
            {
              "name": "refUID",
              "type": "bytes32",
              "internalType": "bytes32"
            },
            {
              "name": "recipient",
              "type": "address",
              "internalType": "address"
            },
            {
              "name": "attester",
              "type": "address",
              "internalType": "address"
            },
            {
              "name": "revocable",
              "type": "bool",
              "internalType": "bool"
            },
            {
              "name": "data",
              "type": "bytes",
              "internalType": "bytes"
            }
          ]
        },
        {
          "name": "values",
          "type": "uint256[]",
          "internalType": "uint256[]"
        }
      ],
      "outputs": [
        {
          "name": "",
          "type": "bool",
          "internalType": "bool"
        }
      ],
      "stateMutability": "payable"
    },
    {
      "type": "function",
      "name": "reclaimExpired",
      "inputs": [
        {
          "name": "uid",
          "type": "bytes32",
          "internalType": "bytes32"
        }
      ],
      "outputs": [
        {
          "name": "",
          "type": "bool",
          "internalType": "bool"
        }
      ],
      "stateMutability": "nonpayable"
    },
    {
      "type": "function",
      "name": "revoke",
      "inputs": [
        {
          "name": "attestation",
          "type": "tuple",
          "internalType": "struct Attestation",
          "components": [
            {
              "name": "uid",
              "type": "bytes32",
              "internalType": "bytes32"
            },
            {
              "name": "schema",
              "type": "bytes32",
              "internalType": "bytes32"
            },
            {
              "name": "time",
              "type": "uint64",
              "internalType": "uint64"
            },
            {
              "name": "expirationTime",
              "type": "uint64",
              "internalType": "uint64"
            },
            {
              "name": "revocationTime",
              "type": "uint64",
              "internalType": "uint64"
            },
            {
              "name": "refUID",
              "type": "bytes32",
              "internalType": "bytes32"
            },
            {
              "name": "recipient",
              "type": "address",
              "internalType": "address"
            },
            {
              "name": "attester",
              "type": "address",
              "internalType": "address"
            },
            {
              "name": "revocable",
              "type": "bool",
              "internalType": "bool"
            },
            {
              "name": "data",
              "type": "bytes",
              "internalType": "bytes"
            }
          ]
        }
      ],
      "outputs": [
        {
          "name": "",
          "type": "bool",
          "internalType": "bool"
        }
      ],
      "stateMutability": "payable"
    },
    {
      "type": "function",
      "name": "version",
      "inputs": [],
      "outputs": [
        {
          "name": "",
          "type": "string",
          "internalType": "string"
        }
      ],
      "stateMutability": "view"
    },
    {
      "type": "event",
      "name": "EscrowCollected",
      "inputs": [
        {
          "name": "escrow",
          "type": "bytes32",
          "indexed": true,
          "internalType": "bytes32"
        },
        {
          "name": "fulfillment",
          "type": "bytes32",
          "indexed": true,
          "internalType": "bytes32"
        },
        {
          "name": "fulfiller",
          "type": "address",
          "indexed": true,
          "internalType": "address"
        }
      ],
      "anonymous": false
    },
    {
      "type": "event",
      "name": "EscrowMade",
      "inputs": [
        {
          "name": "escrow",
          "type": "bytes32",
          "indexed": true,
          "internalType": "bytes32"
        },
        {
          "name": "buyer",
          "type": "address",
          "indexed": true,
          "internalType": "address"
        }
      ],
      "anonymous": false
    },
    {
      "type": "error",
      "name": "AccessDenied",
      "inputs": []
    },
    {
      "type": "error",
      "name": "AttestationNotFound",
      "inputs": [
        {
          "name": "attestationId",
          "type": "bytes32",
          "internalType": "bytes32"
        }
      ]
    },
    {
      "type": "error",
      "name": "AttestationRevoked",
      "inputs": []
    },
    {
      "type": "error",
      "name": "DeadlineExpired",
      "inputs": []
    },
    {
      "type": "error",
      "name": "InsufficientValue",
      "inputs": []
    },
    {
      "type": "error",
      "name": "InvalidAttestationUid",
      "inputs": []
    },
    {
      "type": "error",
      "name": "InvalidEAS",
      "inputs": []
    },
    {
      "type": "error",
      "name": "InvalidEscrowAttestation",
      "inputs": []
    },
    {
      "type": "error",
      "name": "InvalidFulfillment",
      "inputs": []
    },
    {
      "type": "error",
      "name": "InvalidLength",
      "inputs": []
    },
    {
      "type": "error",
      "name": "NotFromThisAttester",
      "inputs": []
    },
    {
      "type": "error",
      "name": "NotPayable",
      "inputs": []
    },
    {
      "type": "error",
      "name": "ReentrancyGuardReentrantCall",
      "inputs": []
    },
    {
      "type": "error",
      "name": "RevocationFailed",
      "inputs": [
        {
          "name": "attestationId",
          "type": "bytes32",
          "internalType": "bytes32"
        }
      ]
    },
    {
      "type": "error",
      "name": "SchemaRegistrationFailed",
      "inputs": [
        {
          "name": "uid",
          "type": "bytes32",
          "internalType": "bytes32"
        }
      ]
    },
    {
      "type": "error",
      "name": "UnauthorizedCall",
      "inputs": []
    }
  ],
  "bytecode": {
    "object": "0x610180806040523461020b576040816121158038038091610020828561020f565b83398101031261020b5780516001600160a01b0381169182820361020b5760200151906001600160a01b03821680830361020b576040519361006360608661020f565b603585527f6164647265737320617262697465722c2062797465732064656d616e642c206260208601527f797465733332206174746573746174696f6e556964000000000000000000000060408601526001608052600360a0525f60c052156101fc5761014993826100e29360e052610120528361010052309161032a565b6101405260017f9b779b17422d0df92223018b32b4d1fa46e071723d6817e2486d003becc55f005560405161011860408261020f565b601f81527f627974657333322076616c6964617465644174746573746174696f6e556964006020820152309161032a565b61016052604051611c0f9081610506823960805181610b1e015260a05181610b49015260c05181610b74015260e0518161197d015261010051816109950152610120518181816103a5015281816105d30152818161082a01528181611214015281816118f30152611b130152610140518181816103e50152818161058f015281816107dc0152818161096301528181610adc015281816110ac015261154901526101605181818161025f01526113390152f35b6341bc07ff60e11b5f5260045ffd5b5f80fd5b601f909101601f19168101906001600160401b0382119082101761023257604052565b634e487b7160e01b5f52604160045260245ffd5b60208183031261020b578051906001600160401b03821161020b57019060808282031261020b5760405191608083016001600160401b03811184821017610232576040528051835260208101516001600160a01b038116810361020b5760208401526040810151801515810361020b5760408401526060810151906001600160401b03821161020b570181601f8201121561020b578051906001600160401b0382116102325760405192610304601f8401601f19166020018561020f565b8284526020838301011161020b57815f9260208093018386015e83010152606082015290565b929160405190602082018351926103746015602083818901978089885e810160018060601b03198860601b1683820152600160f81b60348201520301600a1981018452018261020f565b5190206040516351753e3760e11b81526004810182905290956001600160a01b031693905f81602481885afa80156104855787915f916104eb575b5051146104e5579060846020926040519485938492630c1af44f60e31b8452606060048501525180928160648601528585015e5f84838501015260018060a01b0316602483015260016044830152601f801991011681010301815f865af15f91816104b1575b5061049057505f602491604051928380926351753e3760e11b82528760048301525afa80156104855783915f91610463575b5051146104615750639e6113d560e01b5f5260045260245ffd5b565b61047f91503d805f833e610477818361020f565b810190610246565b5f610447565b6040513d5f823e3d90fd5b9192809150820361049f575090565b639e6113d560e01b5f5260045260245ffd5b9091506020813d6020116104dd575b816104cd6020938361020f565b8101031261020b5751905f610415565b3d91506104c0565b50505050565b6104ff91503d805f833e610477818361020f565b5f6103af56fe60806040526004361015610027575b3615610018575f80fd5b631574f9f360e01b5f5260045ffd5b5f5f3560e01c80632c713cd914610bed57806354fd4d5014610aff5780635bf2f20d14610ac55780636b122fe0146109245780637d2c2931146107ad5780638371ef591461074e57806388e5b2d914610700578063891d9ea81461071f57806391db0b7e14610700578063aadc8f6314610693578063b3b902d4146104fa578063b5f3baff14610470578063c6ec507014610364578063c93844be1461029e578063ce46e04614610282578063df61dd2c14610247578063e49617e11461022c578063e60c35051461022c5763e6c9714d14610103575061000e565b3461022557606036600319011261022557600435906001600160401b038211610225576101406003198336030112610225576040519161014283610cbd565b806004013583526024810135602084015261015f60448201610e1a565b604084015261017060648201610e1a565b606084015261018160848201610e1a565b608084015260a481013560a084015261019c60c48201610e5b565b60c08401526101ad60e48201610e5b565b60e08401526101048101358015158103610228576101008401526101248101356001600160401b038111610228576101ea91369101600401610d66565b610120830152602435906001600160401b03821161022557602061021b846102153660048701610d66565b90611542565b6040519015158152f35b80fd5b8280fd5b602061021b61023a36610ea6565b61024261197b565b6119bc565b503461022557806003193601126102255760206040517f00000000000000000000000000000000000000000000000000000000000000008152f35b5034610225578060031936011261022557602090604051908152f35b5034610225576020366003190112610225576004356001600160401b038111610360576102cf903690600401610e2e565b6102da929192611523565b50820191602081840312610360578035906001600160401b038211610228570191606083820312610360576040519161031283610ca2565b61031b84610e5b565b83526020840135906001600160401b03821161022557509261034460409261035c958301610d66565b60208401520135604082015260405191829182610e6f565b0390f35b5080fd5b50346102255760203660031901126102255761037e611523565b50610387611794565b506040516328c44a9960e21b815260048035908201529080826024817f00000000000000000000000000000000000000000000000000000000000000006001600160a01b03165afa91821561046357819261043f575b5060208201517f0000000000000000000000000000000000000000000000000000000000000000036104305761035c61042461012084015160208082518301019101610f4b565b60405191829182610e6f565b635527981560e11b8152600490fd5b61045c9192503d8084833e6104548183610cf4565b8101906117f2565b905f6103dd565b50604051903d90823e3d90fd5b5034610225576060366003190112610225576004356001600160401b0381116103605760606003198236030112610360576104a9610e04565b604435929091906001600160a01b03841684036102255760206104f285856104df6104ed876040519283916004018883016114a5565b03601f198101835282610cf4565b611ab4565b604051908152f35b506060366003190112610225576004356001600160401b0381116103605790602061054161052f6105ce943690600401610e2e565b9190610539610e04565b923691610d30565b61054961175c565b6001600160401b036040519261055e84610cd9565b338452168383015260016040830152604435606083015260808201528260a08201526040519061058d82610c87565b7f00000000000000000000000000000000000000000000000000000000000000008252828201526040518094819263f17325e760e01b835260048301611a47565b0381847f00000000000000000000000000000000000000000000000000000000000000006001600160a01b03165af190811561068757809161064e575b60209250817f8f7f2dbafd79125e808bf16a53d7fa4e17b8b6374ced76d946a45f94b7bf4d06339280a360015f516020611bba5f395f51905f5255604051908152f35b90506020823d60201161067f575b8161066960209383610cf4565b8101031261067b57602091519061060b565b5f80fd5b3d915061065c565b604051903d90823e3d90fd5b503461022557604036600319011261022557600435906001600160401b03821161022557606060031983360301126102255760206104f26106eb846106f96106d9610e04565b916040519384916004018783016114a5565b03601f198101845283610cf4565b3391611ab4565b602061021b61070e36610db4565b9261071a92919261197b565b610fe3565b50346102255761035c61073a61073436610c1e565b90611087565b604051918291602083526020830190610c34565b503461022557602036600319011261022557600435906001600160401b038211610225576107876107823660048501610d66565b610fba565b604080516001600160a01b03909316835260208301819052829161035c91830190610c34565b503461067b57602036600319011261067b57600435906107cb61175c565b6107d4826118cd565b6020810151907f0000000000000000000000000000000000000000000000000000000000000000809203610915576060016001600160401b038151161561090657516001600160401b03164210610906576040517f00000000000000000000000000000000000000000000000000000000000000006001600160a01b03169061085c81610c87565b8481525f60208201526040519261087284610c87565b83526020830152803b1561067b57604051634692626760e01b815282516004820152602092830151805160248301529092015160448301525f908290606490829084905af190816108f1575b506108d55760249163614cf93960e01b8252600452fd5b60015f516020611bba5f395f51905f5255602060405160018152f35b6108fe9192505f90610cf4565b5f905f6108be565b637bf6a16f60e01b5f5260045ffd5b63629cd40b60e11b5f5260045ffd5b3461067b575f36600319011261067b5760608060405161094381610c58565b5f81525f60208201525f604082015201526040516351753e3760e11b81527f000000000000000000000000000000000000000000000000000000000000000060048201525f8160248160018060a01b037f0000000000000000000000000000000000000000000000000000000000000000165afa8015610aba575f90610a0a575b60609061035c604051928392602084528051602085015260018060a01b0360208201511660408501526040810151151582850152015160808084015260a0830190610c34565b503d805f833e610a1a8183610cf4565b81019060208183031261067b578051906001600160401b03821161067b570160808183031261067b5760405190610a5082610c58565b8051825260208101516001600160a01b038116810361067b576020830152610a7a60408201610eda565b60408301526060810151906001600160401b03821161067b570182601f8201121561067b57606092816020610ab193519101610ee7565b828201526109c4565b6040513d5f823e3d90fd5b3461067b575f36600319011261067b5760206040517f00000000000000000000000000000000000000000000000000000000000000008152f35b3461067b575f36600319011261067b5761035c602061073a6001610b427f00000000000000000000000000000000000000000000000000000000000000006115ef565b8184610b6d7f00000000000000000000000000000000000000000000000000000000000000006115ef565b8180610b987f00000000000000000000000000000000000000000000000000000000000000006115ef565b9260405199878b985191829101848a015e870190601760f91b83830152805192839101602183015e010190601760f91b84830152805192839101600283015e01015f838201520301601f198101835282610cf4565b3461067b57610bfe61073436610c1e565b6020815191818082019384920101031261067b5760209051604051908152f35b604090600319011261067b576004359060243590565b805180835260209291819084018484015e5f828201840152601f01601f1916010190565b608081019081106001600160401b03821117610c7357604052565b634e487b7160e01b5f52604160045260245ffd5b604081019081106001600160401b03821117610c7357604052565b606081019081106001600160401b03821117610c7357604052565b61014081019081106001600160401b03821117610c7357604052565b60c081019081106001600160401b03821117610c7357604052565b90601f801991011681019081106001600160401b03821117610c7357604052565b6001600160401b038111610c7357601f01601f191660200190565b929192610d3c82610d15565b91610d4a6040519384610cf4565b82948184528183011161067b578281602093845f960137010152565b9080601f8301121561067b57816020610d8193359101610d30565b90565b9181601f8401121561067b578235916001600160401b03831161067b576020808501948460051b01011161067b57565b604060031982011261067b576004356001600160401b03811161067b5781610dde91600401610d84565b92909291602435906001600160401b03821161067b57610e0091600401610d84565b9091565b602435906001600160401b038216820361067b57565b35906001600160401b038216820361067b57565b9181601f8401121561067b578235916001600160401b03831161067b576020838186019501011161067b57565b35906001600160a01b038216820361067b57565b6020815260018060a01b03825116602082015260606040610e9d602085015183838601526080850190610c34565b93015191015290565b602060031982011261067b57600435906001600160401b03821161067b5761014090829003600319011261067b5760040190565b5190811515820361067b57565b929192610ef382610d15565b91610f016040519384610cf4565b82948184528183011161067b578281602093845f96015e010152565b51906001600160a01b038216820361067b57565b9080601f8301121561067b578151610d8192602001610ee7565b60208183031261067b578051906001600160401b03821161067b57019060608282031261067b5760405191610f7f83610ca2565b610f8881610f1d565b835260208101516001600160401b03811161067b57604092610fab918301610f31565b60208401520151604082015290565b610fcd9060208082518301019101610f4b565b80516020909101516001600160a01b0390911691565b929092818403611078575f91345b8584101561106d5781841015611059578360051b808601359082821161104a5784013561013e198536030181121561067b5761102e9085016119bc565b1561103f5760019103930192610ff1565b505050505050505f90565b63044044a560e21b5f5260045ffd5b634e487b7160e01b5f52603260045260245ffd5b505050505050600190565b63251f56a160e21b5f5260045ffd5b61108f61175c565b5f9161109a826118cd565b6110a3826118cd565b906020810151907f0000000000000000000000000000000000000000000000000000000000000000809203610915576110db816119d5565b15610915576101208101906110f08251610fba565b60a0860191825184510361145c57611107876119d5565b1561145c578660209360c0936111e66101209751916111d4604051998a988997889763e6c9714d60e01b8952606060048a0152815160648a01528c82015160848a01526001600160401b0360408301511660a48a01526001600160401b0360608301511660c48a01526001600160401b0360808301511660e48a015251610104890152019d8e60018060a01b0390511661012488015260018060a01b0360e082015116610144880152610100810151151561016488015201516101406101848701526101a4860190610c34565b84810360031901602486015290610c34565b604483019190915203916001600160a01b03165afa908115610aba575f9161146b575b501561145c576040517f00000000000000000000000000000000000000000000000000000000000000006001600160a01b0316929061124781610c87565b8681525f60208201526040519161125d83610c87565b82526020820152823b1561067b57604051634692626760e01b815281516004820152602091820151805160248301529091015160448201525f8160648183875af19081611447575b506112be5763614cf93960e01b86526004859052602486fd5b61137a869593926020925160406112e760018060a01b0387511692868082518301019101610f4b565b0151604051908086830152858252611300604083610cf4565b6040519261130d84610cd9565b83528986840152896040840152606083015260808201528760a08201526040519061133782610c87565b7f000000000000000000000000000000000000000000000000000000000000000082528482015260405198898094819363f17325e760e01b835260048301611a47565b03925af194851561143c5784956113e8575b507ff96e77bc177ae8e2ff25185e7c6d85f8ba97c8bdd9d46933aac70a7a33edf6c090604051956020870152602086526113c7604087610cf4565b516001600160a01b03169380a49060015f516020611bba5f395f51905f5255565b9094506020813d602011611434575b8161140460209383610cf4565b8101031261067b5751937ff96e77bc177ae8e2ff25185e7c6d85f8ba97c8bdd9d46933aac70a7a33edf6c061138c565b3d91506113f7565b6040513d86823e3d90fd5b6114549197505f90610cf4565b5f955f6112a5565b630ebe58ef60e11b5f5260045ffd5b90506020813d60201161149d575b8161148660209383610cf4565b8101031261067b5761149790610eda565b5f611209565b3d9150611479565b602081526001600160a01b036114ba83610e5b565b1660208201526020820135601e198336030181121561067b5782016020813591016001600160401b03821161067b57813603811361067b5760a09382604092606084870152816080870152868601375f84840186015201356060830152601f01601f1916010190565b6040519061153082610ca2565b5f604083828152606060208201520152565b60208101517f0000000000000000000000000000000000000000000000000000000000000000036115e95761158861012061159892015160208082518301019101610f4b565b9160208082518301019101610f4b565b604082015160408201511491826115d0575b826115b457505090565b6020919250810151818151910120910151602081519101201490565b805182516001600160a01b0390811691161492506115aa565b50505f90565b805f9172184f03e93ff9f4daa797ed6e38ed64bf6a1f0160401b821015611739575b806d04ee2d6d415b85acef8100000000600a92101561171e575b662386f26fc1000081101561170a575b6305f5e1008110156116f9575b6127108110156116ea575b60648110156116dc575b10156116d1575b600a6021600184019361167685610d15565b946116846040519687610cf4565b808652611693601f1991610d15565b013660208701378401015b5f1901916f181899199a1a9b1b9c1cb0b131b232b360811b8282061a83530480156116cc57600a909161169e565b505090565b600190910190611664565b60646002910493019261165d565b61271060049104930192611653565b6305f5e10060089104930192611648565b662386f26fc100006010910493019261163b565b6d04ee2d6d415b85acef81000000006020910493019261162b565b506040915072184f03e93ff9f4daa797ed6e38ed64bf6a1f0160401b8104611611565b60025f516020611bba5f395f51905f5254146117855760025f516020611bba5f395f51905f5255565b633ee5aeb560e01b5f5260045ffd5b604051906117a182610cbd565b6060610120835f81525f60208201525f60408201525f838201525f60808201525f60a08201525f60c08201525f60e08201525f6101008201520152565b51906001600160401b038216820361067b57565b60208183031261067b578051906001600160401b03821161067b57016101408183031261067b576040519161182683610cbd565b8151835260208201516020840152611840604083016117de565b6040840152611851606083016117de565b6060840152611862608083016117de565b608084015260a082015160a084015261187d60c08301610f1d565b60c084015261188e60e08301610f1d565b60e08401526118a06101008301610eda565b6101008401526101208201516001600160401b03811161067b576118c49201610f31565b61012082015290565b906118d6611794565b506040516328c44a9960e21b815260048101839052915f836024817f00000000000000000000000000000000000000000000000000000000000000006001600160a01b03165afa928315610aba575f9361195f575b508251818115918215611954575b50506119425750565b6301fb6dd160e01b5f5260045260245ffd5b14159050815f611939565b6119749193503d805f833e6104548183610cf4565b915f61192b565b7f00000000000000000000000000000000000000000000000000000000000000006001600160a01b031633036119ad57565b634ca8886760e01b5f5260045ffd5b60e0013560018060a01b03811680910361067b57301490565b805115611a38576001600160401b036060820151168015159081611a2d575b50611a1e57608001516001600160401b0316611a0f57600190565b637b6227e960e11b5f5260045ffd5b631ab7da6b60e01b5f5260045ffd5b90504210155f6119f4565b635c2c7f8960e01b5f5260045ffd5b9060209081835280518284015201519060408082015260018060a01b0382511660608201526001600160401b0360208301511660808201526040820151151560a0820152606082015160c082015261010060a0610e9d608085015160c060e0860152610120850190610c34565b611b0e92602091611ac361175c565b6001600160401b0360405192611ad884610cd9565b60018060a01b0316948584521683830152600160408301525f606083015260808201525f60a08201526040519061058d82610c87565b03815f7f00000000000000000000000000000000000000000000000000000000000000006001600160a01b03165af1918215610aba575f92611b85575b50817f8f7f2dbafd79125e808bf16a53d7fa4e17b8b6374ced76d946a45f94b7bf4d065f80a39060015f516020611bba5f395f51905f5255565b9091506020813d602011611bb1575b81611ba160209383610cf4565b8101031261067b5751905f611b4b565b3d9150611b9456fe9b779b17422d0df92223018b32b4d1fa46e071723d6817e2486d003becc55f00a264697066735822122043710e99046218d7d0a6364ee4ca474d1790b48fbe902d4734f83dbd3b85f3eb64736f6c634300081b0033",
    "linkReferences": {}
  },
  "methodIdentifiers": {
    "ATTESTATION_SCHEMA()": "5bf2f20d",
    "VALIDATION_SCHEMA()": "df61dd2c",
    "attest((bytes32,bytes32,uint64,uint64,uint64,bytes32,address,address,bool,bytes))": "e60c3505",
    "checkObligation((bytes32,bytes32,uint64,uint64,uint64,bytes32,address,address,bool,bytes),bytes,bytes32)": "e6c9714d",
    "collectEscrow(bytes32,bytes32)": "2c713cd9",
    "collectEscrowRaw(bytes32,bytes32)": "891d9ea8",
    "decodeObligationData(bytes)": "c93844be",
    "doObligation((address,bytes,bytes32),uint64)": "aadc8f63",
    "doObligationFor((address,bytes,bytes32),uint64,address)": "b5f3baff",
    "doObligationRaw(bytes,uint64,bytes32)": "b3b902d4",
    "extractArbiterAndDemand(bytes)": "8371ef59",
    "getObligationData(bytes32)": "c6ec5070",
    "getSchema()": "6b122fe0",
    "isPayable()": "ce46e046",
    "multiAttest((bytes32,bytes32,uint64,uint64,uint64,bytes32,address,address,bool,bytes)[],uint256[])": "91db0b7e",
    "multiRevoke((bytes32,bytes32,uint64,uint64,uint64,bytes32,address,address,bool,bytes)[],uint256[])": "88e5b2d9",
    "reclaimExpired(bytes32)": "7d2c2931",
    "revoke((bytes32,bytes32,uint64,uint64,uint64,bytes32,address,address,bool,bytes))": "e49617e1",
    "version()": "54fd4d50"
  },
  "id": 94
}