{
  "abi": [
    {
      "type": "constructor",
      "inputs": [
        {
          "name": "_eas",
          "type": "address",
          "internalType": "contract IEAS"
        },
        {
          "name": "_schemaRegistry",
          "type": "address",
          "internalType": "contract ISchemaRegistry"
        }
      ],
      "stateMutability": "nonpayable"
    },
    {
      "type": "receive",
      "stateMutability": "payable"
    },
    {
      "type": "function",
      "name": "ATTESTATION_SCHEMA",
      "inputs": [],
      "outputs": [
        {
          "name": "",
          "type": "bytes32",
          "internalType": "bytes32"
        }
      ],
      "stateMutability": "view"
    },
    {
      "type": "function",
      "name": "ATTESTATION_SCHEMA_REVOCABLE",
      "inputs": [],
      "outputs": [
        {
          "name": "",
          "type": "bool",
          "internalType": "bool"
        }
      ],
      "stateMutability": "view"
    },
    {
      "type": "function",
      "name": "attest",
      "inputs": [
        {
          "name": "attestation",
          "type": "tuple",
          "internalType": "struct Attestation",
          "components": [
            {
              "name": "uid",
              "type": "bytes32",
              "internalType": "bytes32"
            },
            {
              "name": "schema",
              "type": "bytes32",
              "internalType": "bytes32"
            },
            {
              "name": "time",
              "type": "uint64",
              "internalType": "uint64"
            },
            {
              "name": "expirationTime",
              "type": "uint64",
              "internalType": "uint64"
            },
            {
              "name": "revocationTime",
              "type": "uint64",
              "internalType": "uint64"
            },
            {
              "name": "refUID",
              "type": "bytes32",
              "internalType": "bytes32"
            },
            {
              "name": "recipient",
              "type": "address",
              "internalType": "address"
            },
            {
              "name": "attester",
              "type": "address",
              "internalType": "address"
            },
            {
              "name": "revocable",
              "type": "bool",
              "internalType": "bool"
            },
            {
              "name": "data",
              "type": "bytes",
              "internalType": "bytes"
            }
          ]
        }
      ],
      "outputs": [
        {
          "name": "",
          "type": "bool",
          "internalType": "bool"
        }
      ],
      "stateMutability": "payable"
    },
    {
      "type": "function",
      "name": "check",
      "inputs": [
        {
          "name": "obligation",
          "type": "tuple",
          "internalType": "struct Attestation",
          "components": [
            {
              "name": "uid",
              "type": "bytes32",
              "internalType": "bytes32"
            },
            {
              "name": "schema",
              "type": "bytes32",
              "internalType": "bytes32"
            },
            {
              "name": "time",
              "type": "uint64",
              "internalType": "uint64"
            },
            {
              "name": "expirationTime",
              "type": "uint64",
              "internalType": "uint64"
            },
            {
              "name": "revocationTime",
              "type": "uint64",
              "internalType": "uint64"
            },
            {
              "name": "refUID",
              "type": "bytes32",
              "internalType": "bytes32"
            },
            {
              "name": "recipient",
              "type": "address",
              "internalType": "address"
            },
            {
              "name": "attester",
              "type": "address",
              "internalType": "address"
            },
            {
              "name": "revocable",
              "type": "bool",
              "internalType": "bool"
            },
            {
              "name": "data",
              "type": "bytes",
              "internalType": "bytes"
            }
          ]
        },
        {
          "name": "demand",
          "type": "bytes",
          "internalType": "bytes"
        },
        {
          "name": "",
          "type": "bytes32",
          "internalType": "bytes32"
        }
      ],
      "outputs": [
        {
          "name": "",
          "type": "bool",
          "internalType": "bool"
        }
      ],
      "stateMutability": "view"
    },
    {
      "type": "function",
      "name": "collect",
      "inputs": [
        {
          "name": "_escrow",
          "type": "bytes32",
          "internalType": "bytes32"
        },
        {
          "name": "_fulfillment",
          "type": "bytes32",
          "internalType": "bytes32"
        }
      ],
      "outputs": [
        {
          "name": "",
          "type": "bytes",
          "internalType": "bytes"
        }
      ],
      "stateMutability": "nonpayable"
    },
    {
      "type": "function",
      "name": "decodeCondition",
      "inputs": [
        {
          "name": "data",
          "type": "bytes",
          "internalType": "bytes"
        }
      ],
      "outputs": [
        {
          "name": "arbiter",
          "type": "address",
          "internalType": "address"
        },
        {
          "name": "demand",
          "type": "bytes",
          "internalType": "bytes"
        }
      ],
      "stateMutability": "pure"
    },
    {
      "type": "function",
      "name": "decodeObligationData",
      "inputs": [
        {
          "name": "data",
          "type": "bytes",
          "internalType": "bytes"
        }
      ],
      "outputs": [
        {
          "name": "",
          "type": "tuple",
          "internalType": "struct ERC20EscrowObligation.ObligationData",
          "components": [
            {
              "name": "arbiter",
              "type": "address",
              "internalType": "address"
            },
            {
              "name": "demand",
              "type": "bytes",
              "internalType": "bytes"
            },
            {
              "name": "token",
              "type": "address",
              "internalType": "address"
            },
            {
              "name": "amount",
              "type": "uint256",
              "internalType": "uint256"
            }
          ]
        }
      ],
      "stateMutability": "pure"
    },
    {
      "type": "function",
      "name": "doObligation",
      "inputs": [
        {
          "name": "data",
          "type": "tuple",
          "internalType": "struct ERC20EscrowObligation.ObligationData",
          "components": [
            {
              "name": "arbiter",
              "type": "address",
              "internalType": "address"
            },
            {
              "name": "demand",
              "type": "bytes",
              "internalType": "bytes"
            },
            {
              "name": "token",
              "type": "address",
              "internalType": "address"
            },
            {
              "name": "amount",
              "type": "uint256",
              "internalType": "uint256"
            }
          ]
        },
        {
          "name": "expirationTime",
          "type": "uint64",
          "internalType": "uint64"
        }
      ],
      "outputs": [
        {
          "name": "",
          "type": "bytes32",
          "internalType": "bytes32"
        }
      ],
      "stateMutability": "nonpayable"
    },
    {
      "type": "function",
      "name": "doObligationFor",
      "inputs": [
        {
          "name": "data",
          "type": "tuple",
          "internalType": "struct ERC20EscrowObligation.ObligationData",
          "components": [
            {
              "name": "arbiter",
              "type": "address",
              "internalType": "address"
            },
            {
              "name": "demand",
              "type": "bytes",
              "internalType": "bytes"
            },
            {
              "name": "token",
              "type": "address",
              "internalType": "address"
            },
            {
              "name": "amount",
              "type": "uint256",
              "internalType": "uint256"
            }
          ]
        },
        {
          "name": "expirationTime",
          "type": "uint64",
          "internalType": "uint64"
        },
        {
          "name": "recipient",
          "type": "address",
          "internalType": "address"
        }
      ],
      "outputs": [
        {
          "name": "",
          "type": "bytes32",
          "internalType": "bytes32"
        }
      ],
      "stateMutability": "nonpayable"
    },
    {
      "type": "function",
      "name": "doObligationRaw",
      "inputs": [
        {
          "name": "data",
          "type": "bytes",
          "internalType": "bytes"
        },
        {
          "name": "expirationTime",
          "type": "uint64",
          "internalType": "uint64"
        },
        {
          "name": "refUID",
          "type": "bytes32",
          "internalType": "bytes32"
        }
      ],
      "outputs": [
        {
          "name": "uid_",
          "type": "bytes32",
          "internalType": "bytes32"
        }
      ],
      "stateMutability": "payable"
    },
    {
      "type": "function",
      "name": "getObligationData",
      "inputs": [
        {
          "name": "uid",
          "type": "bytes32",
          "internalType": "bytes32"
        }
      ],
      "outputs": [
        {
          "name": "",
          "type": "tuple",
          "internalType": "struct ERC20EscrowObligation.ObligationData",
          "components": [
            {
              "name": "arbiter",
              "type": "address",
              "internalType": "address"
            },
            {
              "name": "demand",
              "type": "bytes",
              "internalType": "bytes"
            },
            {
              "name": "token",
              "type": "address",
              "internalType": "address"
            },
            {
              "name": "amount",
              "type": "uint256",
              "internalType": "uint256"
            }
          ]
        }
      ],
      "stateMutability": "view"
    },
    {
      "type": "function",
      "name": "getSchema",
      "inputs": [],
      "outputs": [
        {
          "name": "",
          "type": "tuple",
          "internalType": "struct SchemaRecord",
          "components": [
            {
              "name": "uid",
              "type": "bytes32",
              "internalType": "bytes32"
            },
            {
              "name": "resolver",
              "type": "address",
              "internalType": "contract ISchemaResolver"
            },
            {
              "name": "revocable",
              "type": "bool",
              "internalType": "bool"
            },
            {
              "name": "schema",
              "type": "string",
              "internalType": "string"
            }
          ]
        }
      ],
      "stateMutability": "view"
    },
    {
      "type": "function",
      "name": "isPayable",
      "inputs": [],
      "outputs": [
        {
          "name": "",
          "type": "bool",
          "internalType": "bool"
        }
      ],
      "stateMutability": "pure"
    },
    {
      "type": "function",
      "name": "multiAttest",
      "inputs": [
        {
          "name": "attestations",
          "type": "tuple[]",
          "internalType": "struct Attestation[]",
          "components": [
            {
              "name": "uid",
              "type": "bytes32",
              "internalType": "bytes32"
            },
            {
              "name": "schema",
              "type": "bytes32",
              "internalType": "bytes32"
            },
            {
              "name": "time",
              "type": "uint64",
              "internalType": "uint64"
            },
            {
              "name": "expirationTime",
              "type": "uint64",
              "internalType": "uint64"
            },
            {
              "name": "revocationTime",
              "type": "uint64",
              "internalType": "uint64"
            },
            {
              "name": "refUID",
              "type": "bytes32",
              "internalType": "bytes32"
            },
            {
              "name": "recipient",
              "type": "address",
              "internalType": "address"
            },
            {
              "name": "attester",
              "type": "address",
              "internalType": "address"
            },
            {
              "name": "revocable",
              "type": "bool",
              "internalType": "bool"
            },
            {
              "name": "data",
              "type": "bytes",
              "internalType": "bytes"
            }
          ]
        },
        {
          "name": "values",
          "type": "uint256[]",
          "internalType": "uint256[]"
        }
      ],
      "outputs": [
        {
          "name": "",
          "type": "bool",
          "internalType": "bool"
        }
      ],
      "stateMutability": "payable"
    },
    {
      "type": "function",
      "name": "multiRevoke",
      "inputs": [
        {
          "name": "attestations",
          "type": "tuple[]",
          "internalType": "struct Attestation[]",
          "components": [
            {
              "name": "uid",
              "type": "bytes32",
              "internalType": "bytes32"
            },
            {
              "name": "schema",
              "type": "bytes32",
              "internalType": "bytes32"
            },
            {
              "name": "time",
              "type": "uint64",
              "internalType": "uint64"
            },
            {
              "name": "expirationTime",
              "type": "uint64",
              "internalType": "uint64"
            },
            {
              "name": "revocationTime",
              "type": "uint64",
              "internalType": "uint64"
            },
            {
              "name": "refUID",
              "type": "bytes32",
              "internalType": "bytes32"
            },
            {
              "name": "recipient",
              "type": "address",
              "internalType": "address"
            },
            {
              "name": "attester",
              "type": "address",
              "internalType": "address"
            },
            {
              "name": "revocable",
              "type": "bool",
              "internalType": "bool"
            },
            {
              "name": "data",
              "type": "bytes",
              "internalType": "bytes"
            }
          ]
        },
        {
          "name": "values",
          "type": "uint256[]",
          "internalType": "uint256[]"
        }
      ],
      "outputs": [
        {
          "name": "",
          "type": "bool",
          "internalType": "bool"
        }
      ],
      "stateMutability": "payable"
    },
    {
      "type": "function",
      "name": "reclaim",
      "inputs": [
        {
          "name": "uid",
          "type": "bytes32",
          "internalType": "bytes32"
        }
      ],
      "outputs": [
        {
          "name": "",
          "type": "bool",
          "internalType": "bool"
        }
      ],
      "stateMutability": "nonpayable"
    },
    {
      "type": "function",
      "name": "revoke",
      "inputs": [
        {
          "name": "attestation",
          "type": "tuple",
          "internalType": "struct Attestation",
          "components": [
            {
              "name": "uid",
              "type": "bytes32",
              "internalType": "bytes32"
            },
            {
              "name": "schema",
              "type": "bytes32",
              "internalType": "bytes32"
            },
            {
              "name": "time",
              "type": "uint64",
              "internalType": "uint64"
            },
            {
              "name": "expirationTime",
              "type": "uint64",
              "internalType": "uint64"
            },
            {
              "name": "revocationTime",
              "type": "uint64",
              "internalType": "uint64"
            },
            {
              "name": "refUID",
              "type": "bytes32",
              "internalType": "bytes32"
            },
            {
              "name": "recipient",
              "type": "address",
              "internalType": "address"
            },
            {
              "name": "attester",
              "type": "address",
              "internalType": "address"
            },
            {
              "name": "revocable",
              "type": "bool",
              "internalType": "bool"
            },
            {
              "name": "data",
              "type": "bytes",
              "internalType": "bytes"
            }
          ]
        }
      ],
      "outputs": [
        {
          "name": "",
          "type": "bool",
          "internalType": "bool"
        }
      ],
      "stateMutability": "payable"
    },
    {
      "type": "function",
      "name": "version",
      "inputs": [],
      "outputs": [
        {
          "name": "",
          "type": "string",
          "internalType": "string"
        }
      ],
      "stateMutability": "view"
    },
    {
      "type": "event",
      "name": "EscrowCollected",
      "inputs": [
        {
          "name": "escrowUid",
          "type": "bytes32",
          "indexed": true,
          "internalType": "bytes32"
        },
        {
          "name": "fulfillmentUid",
          "type": "bytes32",
          "indexed": true,
          "internalType": "bytes32"
        },
        {
          "name": "fulfiller",
          "type": "address",
          "indexed": true,
          "internalType": "address"
        }
      ],
      "anonymous": false
    },
    {
      "type": "event",
      "name": "EscrowMade",
      "inputs": [
        {
          "name": "escrowUid",
          "type": "bytes32",
          "indexed": true,
          "internalType": "bytes32"
        },
        {
          "name": "escrower",
          "type": "address",
          "indexed": true,
          "internalType": "address"
        }
      ],
      "anonymous": false
    },
    {
      "type": "error",
      "name": "AccessDenied",
      "inputs": []
    },
    {
      "type": "error",
      "name": "AttestationNotFound",
      "inputs": [
        {
          "name": "attestationId",
          "type": "bytes32",
          "internalType": "bytes32"
        }
      ]
    },
    {
      "type": "error",
      "name": "AttestationRevoked",
      "inputs": []
    },
    {
      "type": "error",
      "name": "DeadlineExpired",
      "inputs": []
    },
    {
      "type": "error",
      "name": "ERC20TransferFailed",
      "inputs": [
        {
          "name": "token",
          "type": "address",
          "internalType": "address"
        },
        {
          "name": "from",
          "type": "address",
          "internalType": "address"
        },
        {
          "name": "to",
          "type": "address",
          "internalType": "address"
        },
        {
          "name": "amount",
          "type": "uint256",
          "internalType": "uint256"
        }
      ]
    },
    {
      "type": "error",
      "name": "InsufficientValue",
      "inputs": []
    },
    {
      "type": "error",
      "name": "InvalidAttestationUid",
      "inputs": []
    },
    {
      "type": "error",
      "name": "InvalidEAS",
      "inputs": []
    },
    {
      "type": "error",
      "name": "InvalidEscrowAttestation",
      "inputs": []
    },
    {
      "type": "error",
      "name": "InvalidFulfillment",
      "inputs": []
    },
    {
      "type": "error",
      "name": "InvalidLength",
      "inputs": []
    },
    {
      "type": "error",
      "name": "NotFromThisAttester",
      "inputs": []
    },
    {
      "type": "error",
      "name": "NotPayable",
      "inputs": []
    },
    {
      "type": "error",
      "name": "ReentrancyGuardReentrantCall",
      "inputs": []
    },
    {
      "type": "error",
      "name": "RevocationFailed",
      "inputs": [
        {
          "name": "attestationId",
          "type": "bytes32",
          "internalType": "bytes32"
        }
      ]
    },
    {
      "type": "error",
      "name": "SchemaRegistrationFailed",
      "inputs": [
        {
          "name": "uid",
          "type": "bytes32",
          "internalType": "bytes32"
        }
      ]
    },
    {
      "type": "error",
      "name": "UnauthorizedCall",
      "inputs": []
    }
  ],
  "bytecode": {
    "object": "0x61018080604052346101d9576040816126b5803803809161002082856101dd565b8339810103126101d9578051906001600160a01b038216908183036101d957602001516001600160a01b03811691908281036101d957604051916100656060846101dd565b603c83527f6164647265737320617262697465722c2062797465732064656d616e642c206160208401527f64647265737320746f6b656e2c2075696e7432353620616d6f756e740000000060408401526001608052600360a0525f60c052156101ca57836100e59460e052610120526101005260016101605230916102f8565b6101405260017f9b779b17422d0df92223018b32b4d1fa46e071723d6817e2486d003becc55f00556040516121e190816104d48239608051816110ec015260a05181611117015260c05181611142015260e0518161192601526101005181610f63015261012051818181610299015281816105aa0152818161098801528181610c4901528181611b150152611dad015261014051818181610132015281816105ea0152818161086f01528181610bfa01528181610f31015281816110aa0152818161162e0152611c8d015261016051818181610717015281816108b10152611cd60152f35b6341bc07ff60e11b5f5260045ffd5b5f80fd5b601f909101601f19168101906001600160401b0382119082101761020057604052565b634e487b7160e01b5f52604160045260245ffd5b6020818303126101d9578051906001600160401b0382116101d95701906080828203126101d95760405191608083016001600160401b03811184821017610200576040528051835260208101516001600160a01b03811681036101d9576020840152604081015180151581036101d95760408401526060810151906001600160401b0382116101d9570181601f820112156101d9578051906001600160401b03821161020057604051926102d2601f8401601f1916602001856101dd565b828452602083830101116101d957815f9260208093018386015e83010152606082015290565b929160405190602082018351926103426015602083818901978089885e810160018060601b03198860601b1683820152600160f81b60348201520301600a198101845201826101dd565b5190206040516351753e3760e11b81526004810182905290956001600160a01b031693905f81602481885afa80156104535787915f916104b9575b5051146104b3579060846020926040519485938492630c1af44f60e31b8452606060048501525180928160648601528585015e5f84838501015260018060a01b0316602483015260016044830152601f801991011681010301815f865af15f918161047f575b5061045e57505f602491604051928380926351753e3760e11b82528760048301525afa80156104535783915f91610431575b50511461042f5750639e6113d560e01b5f5260045260245ffd5b565b61044d91503d805f833e61044581836101dd565b810190610214565b5f610415565b6040513d5f823e3d90fd5b9192809150820361046d575090565b639e6113d560e01b5f5260045260245ffd5b9091506020813d6020116104ab575b8161049b602093836101dd565b810103126101d95751905f6103e3565b3d915061048e565b50505050565b6104cd91503d805f833e61044581836101dd565b5f61037d56fe60806040526004361015610027575b3615610018575f80fd5b631574f9f360e01b5f5260045ffd5b5f5f3560e01c806354fd4d50146110cd5780635bf2f20d146110935780636b122fe014610ef2578063760bd11814610e9457806388e5b2d914610d5d5780638da3721a14610d7c57806391db0b7e14610d5d57806396afb36514610bcb578063a4f0d51714610b5e578063b3b902d41461073c578063b587a5eb146106ff578063c1e4a71014610675578063c6ec507014610569578063c93844be14610492578063ce46e04614610476578063e49617e114610451578063e60c3505146104515763ea6ec49c146100f8575061000e565b3461044e57604036600319011261044e576024359060043561011861197e565b61012181611aef565b61012a84611aef565b9060208101517f000000000000000000000000000000000000000000000000000000000000000080910361043f5761016182611f33565b1561043f5761017461012083015161155a565b60a085019081518551036104305761018b86611f33565b1561043057610120928660209360c09361026b895191610259604051998a98899788976346d1b90d60e11b8952606060048a0152815160648a01528c82015160848a01526001600160401b0360408301511660a48a01526001600160401b0360608301511660c48a01526001600160401b0360808301511660e48a015251610104890152019d8e60018060a01b0390511661012488015260018060a01b0360e082015116610144880152610100810151151561016488015201516101406101848701526101a48601906111cb565b848103600319016024860152906111cb565b604483019190915203916001600160a01b03165afa9081156104255786916103eb575b50156103dc576040517f00000000000000000000000000000000000000000000000000000000000000006001600160a01b031691906102cc8161123a565b858152866020820152604051916102e28361123a565b82526020820152813b156103d857604051634692626760e01b8152815160048201526020918201518051602483015290910151604482015290859081908390606490829084905af191826103bf575b505061034b5763614cf93960e01b84526004839052602484fd5b917ff96e77bc177ae8e2ff25185e7c6d85f8ba97c8bdd9d46933aac70a7a33edf6c0946103856103bb9460018060a01b0385511690611fc6565b92516040519687966001600160a01b03909216939180a460015f51602061218c5f395f51905f52556020835260208301906111cb565b0390f35b816103c991611270565b6103d457845f610331565b8480fd5b8580fd5b630ebe58ef60e11b8552600485fd5b90506020813d60201161041d575b8161040660209383611270565b810103126103d85761041790611469565b5f61028e565b3d91506103f9565b6040513d88823e3d90fd5b630ebe58ef60e11b8852600488fd5b63629cd40b60e11b8552600485fd5b80fd5b602061046c61045f36611435565b610467611924565b611965565b6040519015158152f35b503461044e578060031936011261044e57602090604051908152f35b503461044e57602036600319011261044e576004356001600160401b038111610561576104c39036906004016113be565b6104ce929192611793565b50820191602081840312610561578035906001600160401b0382116105655701916080838203126105615760405191610506836111ef565b61050f846113aa565b83526020840135906001600160401b03821161044e5750926105386060926103bb9583016112e2565b6020840152610549604082016113aa565b604084015201356060820152604051918291826113eb565b5080fd5b8280fd5b503461044e57602036600319011261044e57610583611793565b5061058c6119b6565b506040516328c44a9960e21b815260048035908201529080826024817f00000000000000000000000000000000000000000000000000000000000000006001600160a01b03165afa918215610668578192610644575b5060208201517f000000000000000000000000000000000000000000000000000000000000000003610635576103bb610629610120840151602080825183010191016114da565b604051918291826113eb565b635527981560e11b8152600490fd5b6106619192503d8084833e6106598183611270565b810190611a14565b905f6105e2565b50604051903d90823e3d90fd5b503461044e57606036600319011261044e576004356001600160401b0381116105615760806003198236030112610561576106ae611380565b604435929091906001600160a01b038416840361044e5760206106f785856106e46106f2876040519283916004018883016116fb565b03601f198101835282611270565b611b9d565b604051908152f35b503461044e578060031936011261044e5760206040517f000000000000000000000000000000000000000000000000000000000000000015158152f35b50606036600319011261044e576004356001600160401b038111610561576107689036906004016113be565b91610780610774611380565b926044359436916112ac565b61078861197e565b61079b60208251830101602083016114da565b6040818101805191516370a0823160e01b81523060048201529091602090829060249082906001600160a01b03165afa908115610a85578591610b2c575b50815160609390930180516040516323b872dd60e01b8852336004523060245260449190915290936001600160a01b031660208760648180855af1906001885114821615610b1f575b50816040528660605260208260248160018060a01b038851166370a0823160e01b82523060048301525afa918215610b14578792610adc575b5015918215610ac6575b5050610a905750507f0000000000000000000000000000000000000000000000000000000000000000936001600160401b03604051946108a486611255565b33865216908160208601527f00000000000000000000000000000000000000000000000000000000000000001515918260408701528160608701528360808701528460a087015260206040516108f98161123a565b8881528181019788526040518098819263f17325e760e01b8352846004840152516024830152516040604483015260018060a01b0381511660648301526001600160401b03848201511660848301526040810151151560a4830152606081015160c483015260a061097a608083015160c060e48601526101248501906111cb565b9101516101048301520381887f00000000000000000000000000000000000000000000000000000000000000006001600160a01b03165af1958615610a85578596610a50575b50916020969161012093604051936109d78561121e565b888552898501526001600160401b0342166040850152606084015285608084015260a08301523360c08301523060e08301526101008201520152817f8f7f2dbafd79125e808bf16a53d7fa4e17b8b6374ced76d946a45f94b7bf4d06339280a360015f51602061218c5f395f51905f5255604051908152f35b9095506020813d602011610a7d575b81610a6c60209383611270565b810103126103d457519460206109c0565b3d9150610a5f565b6040513d87823e3d90fd5b519051604051634a73404560e11b81526001600160a01b0390921660048301523360248301523060448301526064820152608490fd5b610ad4919250845190611fa5565b115f80610865565b9091506020813d602011610b0c575b81610af860209383611270565b81010312610b085751905f61085b565b5f80fd5b3d9150610aeb565b6040513d89823e3d90fd5b3b15153d1516165f610822565b90506020813d602011610b56575b81610b4760209383611270565b81010312610b0857515f6107d9565b3d9150610b3a565b503461044e57604036600319011261044e57600435906001600160401b03821161044e576080600319833603011261044e5760206106f7610bb684610bc4610ba4611380565b916040519384916004018783016116fb565b03601f198101845283611270565b3391611b9d565b5034610b08576020366003190112610b085760043590610be961197e565b610bf282611aef565b9160208301517f0000000000000000000000000000000000000000000000000000000000000000809103610d4e57606084016001600160401b0381511615610d3f57516001600160401b03164210610d3f576040517f00000000000000000000000000000000000000000000000000000000000000006001600160a01b031690610c7b8161123a565b8381525f602082015260405192610c918461123a565b83526020830152803b15610b0857604051634692626760e01b815282516004820152602092830151805160248301529092015160448301525f908290606490829084905af19081610d2a575b50610cf55763614cf93960e01b825260045260249150fd5b60c0830151610d0d906001600160a01b031684611fc6565b5060015f51602061218c5f395f51905f5255602060405160018152f35b610d379193505f90611270565b5f915f610cdd565b637bf6a16f60e01b5f5260045ffd5b63629cd40b60e11b5f5260045ffd5b602061046c610d6b36611330565b92610d77929192611924565b611583565b34610b08576060366003190112610b08576004356001600160401b038111610b08576101406003198236030112610b085760405190610dba8261121e565b8060040135825260248101356020830152610dd760448201611396565b6040830152610de860648201611396565b6060830152610df960848201611396565b608083015260a481013560a0830152610e1460c482016113aa565b60c0830152610e2560e482016113aa565b60e08301526101048101358015158103610b0857610100830152610124810135906001600160401b038211610b08576004610e6392369201016112e2565b6101208201526024356001600160401b038111610b0857602091610e8e61046c9236906004016112e2565b90611627565b34610b08576020366003190112610b08576004356001600160401b038111610b0857610ec7610ecc9136906004016112e2565b61155a565b604080516001600160a01b0390931683526020830181905282916103bb918301906111cb565b34610b08575f366003190112610b0857606080604051610f11816111ef565b5f81525f60208201525f604082015201526040516351753e3760e11b81527f000000000000000000000000000000000000000000000000000000000000000060048201525f8160248160018060a01b037f0000000000000000000000000000000000000000000000000000000000000000165afa8015611088575f90610fd8575b6060906103bb604051928392602084528051602085015260018060a01b0360208201511660408501526040810151151582850152015160808084015260a08301906111cb565b503d805f833e610fe88183611270565b810190602081830312610b08578051906001600160401b038211610b085701608081830312610b08576040519061101e826111ef565b8051825260208101516001600160a01b0381168103610b0857602083015261104860408201611469565b60408301526060810151906001600160401b038211610b08570182601f82011215610b085760609281602061107f93519101611476565b82820152610f92565b6040513d5f823e3d90fd5b34610b08575f366003190112610b085760206040517f00000000000000000000000000000000000000000000000000000000000000008152f35b34610b08575f366003190112610b08576103bb60206111bb60016111107f00000000000000000000000000000000000000000000000000000000000000006117b7565b818461113b7f00000000000000000000000000000000000000000000000000000000000000006117b7565b81806111667f00000000000000000000000000000000000000000000000000000000000000006117b7565b9260405199878b985191829101848a015e870190601760f91b83830152805192839101602183015e010190601760f91b84830152805192839101600283015e01015f838201520301601f198101835282611270565b6040519182916020835260208301905b805180835260209291819084018484015e5f828201840152601f01601f1916010190565b608081019081106001600160401b0382111761120a57604052565b634e487b7160e01b5f52604160045260245ffd5b61014081019081106001600160401b0382111761120a57604052565b604081019081106001600160401b0382111761120a57604052565b60c081019081106001600160401b0382111761120a57604052565b90601f801991011681019081106001600160401b0382111761120a57604052565b6001600160401b03811161120a57601f01601f191660200190565b9291926112b882611291565b916112c66040519384611270565b829481845281830111610b08578281602093845f960137010152565b9080601f83011215610b08578160206112fd933591016112ac565b90565b9181601f84011215610b08578235916001600160401b038311610b08576020808501948460051b010111610b0857565b6040600319820112610b08576004356001600160401b038111610b08578161135a91600401611300565b92909291602435906001600160401b038211610b085761137c91600401611300565b9091565b602435906001600160401b0382168203610b0857565b35906001600160401b0382168203610b0857565b35906001600160a01b0382168203610b0857565b9181601f84011215610b08578235916001600160401b038311610b085760208381860195010111610b0857565b6020815260018060a01b0382511660208201526080606061141a602085015183604086015260a08501906111cb565b60408501516001600160a01b03168483015293015191015290565b6020600319820112610b0857600435906001600160401b038211610b0857610140908290036003190112610b085760040190565b51908115158203610b0857565b92919261148282611291565b916114906040519384611270565b829481845281830111610b08578281602093845f96015e010152565b51906001600160a01b0382168203610b0857565b9080601f83011215610b085781516112fd92602001611476565b602081830312610b08578051906001600160401b038211610b08570190608082820312610b08576040519161150e836111ef565b611517816114ac565b835260208101516001600160401b038111610b085760609261153a9183016114c0565b602084015261154b604082016114ac565b60408401520151606082015290565b61156d90602080825183010191016114da565b80516020909101516001600160a01b0390911691565b929092818403611618575f91345b8584101561160d57818410156115f9578360051b80860135908282116115ea5784013561013e1985360301811215610b08576115ce908501611965565b156115df5760019103930192611591565b505050505050505f90565b63044044a560e21b5f5260045ffd5b634e487b7160e01b5f52603260045260245ffd5b505050505050600190565b63251f56a160e21b5f5260045ffd5b60208101517f0000000000000000000000000000000000000000000000000000000000000000036116f55761166d61012061167d920151602080825183010191016114da565b91602080825183010191016114da565b604082810151908201516001600160a01b0390811691161491826116e1575b826116c8575b826116ac57505090565b6020919250810151818151910120910151602081519101201490565b805182516001600160a01b0390811691161492506116a2565b91506060820151606082015111159161169c565b50505f90565b602081526001600160a01b03611710836113aa565b1660208201526020820135601e1983360301811215610b085782016020813591016001600160401b038211610b08578136038113610b085760c09382606092608060408701528160a0870152868601375f8484018601526001600160a01b0361177b604083016113aa565b168483015201356080830152601f01601f1916010190565b604051906117a0826111ef565b5f6060838281528160208201528260408201520152565b805f9172184f03e93ff9f4daa797ed6e38ed64bf6a1f0160401b821015611901575b806d04ee2d6d415b85acef8100000000600a9210156118e6575b662386f26fc100008110156118d2575b6305f5e1008110156118c1575b6127108110156118b2575b60648110156118a4575b1015611899575b600a6021600184019361183e85611291565b9461184c6040519687611270565b80865261185b601f1991611291565b013660208701378401015b5f1901916f181899199a1a9b1b9c1cb0b131b232b360811b8282061a835304801561189457600a9091611866565b505090565b60019091019061182c565b606460029104930192611825565b6127106004910493019261181b565b6305f5e10060089104930192611810565b662386f26fc1000060109104930192611803565b6d04ee2d6d415b85acef8100000000602091049301926117f3565b506040915072184f03e93ff9f4daa797ed6e38ed64bf6a1f0160401b81046117d9565b7f00000000000000000000000000000000000000000000000000000000000000006001600160a01b0316330361195657565b634ca8886760e01b5f5260045ffd5b60e0013560018060a01b038116809103610b0857301490565b60025f51602061218c5f395f51905f5254146119a75760025f51602061218c5f395f51905f5255565b633ee5aeb560e01b5f5260045ffd5b604051906119c38261121e565b6060610120835f81525f60208201525f60408201525f838201525f60808201525f60a08201525f60c08201525f60e08201525f6101008201520152565b51906001600160401b0382168203610b0857565b602081830312610b08578051906001600160401b038211610b08570161014081830312610b085760405191611a488361121e565b8151835260208201516020840152611a6260408301611a00565b6040840152611a7360608301611a00565b6060840152611a8460808301611a00565b608084015260a082015160a0840152611a9f60c083016114ac565b60c0840152611ab060e083016114ac565b60e0840152611ac26101008301611469565b6101008401526101208201516001600160401b038111610b0857611ae692016114c0565b61012082015290565b90611af86119b6565b506040516328c44a9960e21b815260048101839052915f836024817f00000000000000000000000000000000000000000000000000000000000000006001600160a01b03165afa928315611088575f93611b81575b508251818115918215611b76575b5050611b645750565b6301fb6dd160e01b5f5260045260245ffd5b14159050815f611b5b565b611b969193503d805f833e6106598183611270565b915f611b4d565b611ba561197e565b611bb860208251830101602083016114da565b6040818101805191516370a0823160e01b81523060048201529091602090829060249082906001600160a01b03165afa908115611088575f91611f01575b50606060018060a01b03835116930192835190604051916323b872dd60e01b5f52336004523060245260445260205f60648180855af19060015f5114821615611ef4575b5060408290525f60605283516370a0823160e01b8352306004840152602090839060249082906001600160a01b03165afa918215611088575f92611ec0575b5015918215611eaa575b5050610a905750507f00000000000000000000000000000000000000000000000000000000000000006001600160401b0360405194611cc186611255565b60018060a01b031693848652168060208601527f00000000000000000000000000000000000000000000000000000000000000001515908160408701525f60608701528360808701525f60a08701526020604051611d1e8161123a565b8481528181019788526040518098819263f17325e760e01b8352846004840152516024830152516040604483015260018060a01b0381511660648301526001600160401b03848201511660848301526040810151151560a4830152606081015160c483015260a0611d9f608083015160c060e48601526101248501906111cb565b91015161010483015203815f7f00000000000000000000000000000000000000000000000000000000000000006001600160a01b03165af1958615611088575f96611e6e575b5090610120929160405192611df98461121e565b87845260208401526001600160401b034216604084015260608301525f60808301525f60a08301528460c08301523060e08301526101008201520152817f8f7f2dbafd79125e808bf16a53d7fa4e17b8b6374ced76d946a45f94b7bf4d065f80a39060015f51602061218c5f395f51905f5255565b92919095506020833d602011611ea2575b81611e8c60209383611270565b81010312610b0857610120925195909192611de5565b3d9150611e7f565b611eb8919250845190611fa5565b115f80611c83565b9091506020813d602011611eec575b81611edc60209383611270565b81010312610b085751905f611c79565b3d9150611ecf565b3b15153d1516165f611c3a565b90506020813d602011611f2b575b81611f1c60209383611270565b81010312610b0857515f611bf6565b3d9150611f0f565b805115611f96576001600160401b036060820151168015159081611f8b575b50611f7c57608001516001600160401b0316611f6d57600190565b637b6227e960e11b5f5260045ffd5b631ab7da6b60e01b5f5260045ffd5b90504210155f611f52565b635c2c7f8960e01b5f5260045ffd5b91908201809211611fb257565b634e487b7160e01b5f52601160045260245ffd5b610120611fde910151602080825183010191016114da565b6040818101805191516370a0823160e01b81526001600160a01b038581166004830181905294929391929160209184916024918391165afa918215611088575f92612157575b50606060018060a01b038451169101938451916040519263a9059cbb60e01b5f52826004526024528260205f60448180865af19160015f5114831615612145575b50602481602093948160405260018060a01b03895116906370a0823160e01b835260048301525afa918215611088575f92612111575b50159182156120fb575b50506120c2575050506040516120bc602082611270565b5f815290565b519051604051634a73404560e11b81526001600160a01b0392831660048201523060248201529290911660448301526064820152608490fd5b612109919250845190611fa5565b115f806120a5565b9091506020813d60201161213d575b8161212d60209383611270565b81010312610b085751905f61209b565b3d9150612120565b3d15903b151516909116906024612065565b9091506020813d602011612183575b8161217360209383611270565b81010312610b085751905f612024565b3d915061216656fe9b779b17422d0df92223018b32b4d1fa46e071723d6817e2486d003becc55f00a264697066735822122055927dbd3d99f5d31da5ff1e3ed5c2587d693258a7f4609e921f26b717e446be64736f6c634300081b0033",
    "linkReferences": {}
  },
  "methodIdentifiers": {
    "ATTESTATION_SCHEMA()": "5bf2f20d",
    "ATTESTATION_SCHEMA_REVOCABLE()": "b587a5eb",
    "attest((bytes32,bytes32,uint64,uint64,uint64,bytes32,address,address,bool,bytes))": "e60c3505",
    "check((bytes32,bytes32,uint64,uint64,uint64,bytes32,address,address,bool,bytes),bytes,bytes32)": "8da3721a",
    "collect(bytes32,bytes32)": "ea6ec49c",
    "decodeCondition(bytes)": "760bd118",
    "decodeObligationData(bytes)": "c93844be",
    "doObligation((address,bytes,address,uint256),uint64)": "a4f0d517",
    "doObligationFor((address,bytes,address,uint256),uint64,address)": "c1e4a710",
    "doObligationRaw(bytes,uint64,bytes32)": "b3b902d4",
    "getObligationData(bytes32)": "c6ec5070",
    "getSchema()": "6b122fe0",
    "isPayable()": "ce46e046",
    "multiAttest((bytes32,bytes32,uint64,uint64,uint64,bytes32,address,address,bool,bytes)[],uint256[])": "91db0b7e",
    "multiRevoke((bytes32,bytes32,uint64,uint64,uint64,bytes32,address,address,bool,bytes)[],uint256[])": "88e5b2d9",
    "reclaim(bytes32)": "96afb365",
    "revoke((bytes32,bytes32,uint64,uint64,uint64,bytes32,address,address,bool,bytes))": "e49617e1",
    "version()": "54fd4d50"
  },
  "id": 122
}