{
  "abi": [
    {
      "type": "constructor",
      "inputs": [
        {
          "name": "_eas",
          "type": "address",
          "internalType": "contract IEAS"
        },
        {
          "name": "_schemaRegistry",
          "type": "address",
          "internalType": "contract ISchemaRegistry"
        }
      ],
      "stateMutability": "nonpayable"
    },
    {
      "type": "receive",
      "stateMutability": "payable"
    },
    {
      "type": "function",
      "name": "ATTESTATION_SCHEMA",
      "inputs": [],
      "outputs": [
        {
          "name": "",
          "type": "bytes32",
          "internalType": "bytes32"
        }
      ],
      "stateMutability": "view"
    },
    {
      "type": "function",
      "name": "ATTESTATION_SCHEMA_REVOCABLE",
      "inputs": [],
      "outputs": [
        {
          "name": "",
          "type": "bool",
          "internalType": "bool"
        }
      ],
      "stateMutability": "view"
    },
    {
      "type": "function",
      "name": "attest",
      "inputs": [
        {
          "name": "attestation",
          "type": "tuple",
          "internalType": "struct Attestation",
          "components": [
            {
              "name": "uid",
              "type": "bytes32",
              "internalType": "bytes32"
            },
            {
              "name": "schema",
              "type": "bytes32",
              "internalType": "bytes32"
            },
            {
              "name": "time",
              "type": "uint64",
              "internalType": "uint64"
            },
            {
              "name": "expirationTime",
              "type": "uint64",
              "internalType": "uint64"
            },
            {
              "name": "revocationTime",
              "type": "uint64",
              "internalType": "uint64"
            },
            {
              "name": "refUID",
              "type": "bytes32",
              "internalType": "bytes32"
            },
            {
              "name": "recipient",
              "type": "address",
              "internalType": "address"
            },
            {
              "name": "attester",
              "type": "address",
              "internalType": "address"
            },
            {
              "name": "revocable",
              "type": "bool",
              "internalType": "bool"
            },
            {
              "name": "data",
              "type": "bytes",
              "internalType": "bytes"
            }
          ]
        }
      ],
      "outputs": [
        {
          "name": "",
          "type": "bool",
          "internalType": "bool"
        }
      ],
      "stateMutability": "payable"
    },
    {
      "type": "function",
      "name": "check",
      "inputs": [
        {
          "name": "obligation",
          "type": "tuple",
          "internalType": "struct Attestation",
          "components": [
            {
              "name": "uid",
              "type": "bytes32",
              "internalType": "bytes32"
            },
            {
              "name": "schema",
              "type": "bytes32",
              "internalType": "bytes32"
            },
            {
              "name": "time",
              "type": "uint64",
              "internalType": "uint64"
            },
            {
              "name": "expirationTime",
              "type": "uint64",
              "internalType": "uint64"
            },
            {
              "name": "revocationTime",
              "type": "uint64",
              "internalType": "uint64"
            },
            {
              "name": "refUID",
              "type": "bytes32",
              "internalType": "bytes32"
            },
            {
              "name": "recipient",
              "type": "address",
              "internalType": "address"
            },
            {
              "name": "attester",
              "type": "address",
              "internalType": "address"
            },
            {
              "name": "revocable",
              "type": "bool",
              "internalType": "bool"
            },
            {
              "name": "data",
              "type": "bytes",
              "internalType": "bytes"
            }
          ]
        },
        {
          "name": "demand",
          "type": "bytes",
          "internalType": "bytes"
        },
        {
          "name": "",
          "type": "bytes32",
          "internalType": "bytes32"
        }
      ],
      "outputs": [
        {
          "name": "",
          "type": "bool",
          "internalType": "bool"
        }
      ],
      "stateMutability": "view"
    },
    {
      "type": "function",
      "name": "collect",
      "inputs": [
        {
          "name": "_escrow",
          "type": "bytes32",
          "internalType": "bytes32"
        },
        {
          "name": "_fulfillment",
          "type": "bytes32",
          "internalType": "bytes32"
        }
      ],
      "outputs": [
        {
          "name": "",
          "type": "bytes",
          "internalType": "bytes"
        }
      ],
      "stateMutability": "nonpayable"
    },
    {
      "type": "function",
      "name": "decodeCondition",
      "inputs": [
        {
          "name": "data",
          "type": "bytes",
          "internalType": "bytes"
        }
      ],
      "outputs": [
        {
          "name": "arbiter",
          "type": "address",
          "internalType": "address"
        },
        {
          "name": "demand",
          "type": "bytes",
          "internalType": "bytes"
        }
      ],
      "stateMutability": "pure"
    },
    {
      "type": "function",
      "name": "decodeObligationData",
      "inputs": [
        {
          "name": "data",
          "type": "bytes",
          "internalType": "bytes"
        }
      ],
      "outputs": [
        {
          "name": "",
          "type": "tuple",
          "internalType": "struct ERC721EscrowObligation.ObligationData",
          "components": [
            {
              "name": "arbiter",
              "type": "address",
              "internalType": "address"
            },
            {
              "name": "demand",
              "type": "bytes",
              "internalType": "bytes"
            },
            {
              "name": "token",
              "type": "address",
              "internalType": "address"
            },
            {
              "name": "tokenId",
              "type": "uint256",
              "internalType": "uint256"
            }
          ]
        }
      ],
      "stateMutability": "pure"
    },
    {
      "type": "function",
      "name": "doObligation",
      "inputs": [
        {
          "name": "data",
          "type": "tuple",
          "internalType": "struct ERC721EscrowObligation.ObligationData",
          "components": [
            {
              "name": "arbiter",
              "type": "address",
              "internalType": "address"
            },
            {
              "name": "demand",
              "type": "bytes",
              "internalType": "bytes"
            },
            {
              "name": "token",
              "type": "address",
              "internalType": "address"
            },
            {
              "name": "tokenId",
              "type": "uint256",
              "internalType": "uint256"
            }
          ]
        },
        {
          "name": "expirationTime",
          "type": "uint64",
          "internalType": "uint64"
        }
      ],
      "outputs": [
        {
          "name": "",
          "type": "bytes32",
          "internalType": "bytes32"
        }
      ],
      "stateMutability": "nonpayable"
    },
    {
      "type": "function",
      "name": "doObligationFor",
      "inputs": [
        {
          "name": "data",
          "type": "tuple",
          "internalType": "struct ERC721EscrowObligation.ObligationData",
          "components": [
            {
              "name": "arbiter",
              "type": "address",
              "internalType": "address"
            },
            {
              "name": "demand",
              "type": "bytes",
              "internalType": "bytes"
            },
            {
              "name": "token",
              "type": "address",
              "internalType": "address"
            },
            {
              "name": "tokenId",
              "type": "uint256",
              "internalType": "uint256"
            }
          ]
        },
        {
          "name": "expirationTime",
          "type": "uint64",
          "internalType": "uint64"
        },
        {
          "name": "recipient",
          "type": "address",
          "internalType": "address"
        }
      ],
      "outputs": [
        {
          "name": "",
          "type": "bytes32",
          "internalType": "bytes32"
        }
      ],
      "stateMutability": "nonpayable"
    },
    {
      "type": "function",
      "name": "doObligationRaw",
      "inputs": [
        {
          "name": "data",
          "type": "bytes",
          "internalType": "bytes"
        },
        {
          "name": "expirationTime",
          "type": "uint64",
          "internalType": "uint64"
        },
        {
          "name": "refUID",
          "type": "bytes32",
          "internalType": "bytes32"
        }
      ],
      "outputs": [
        {
          "name": "uid_",
          "type": "bytes32",
          "internalType": "bytes32"
        }
      ],
      "stateMutability": "payable"
    },
    {
      "type": "function",
      "name": "getObligationData",
      "inputs": [
        {
          "name": "uid",
          "type": "bytes32",
          "internalType": "bytes32"
        }
      ],
      "outputs": [
        {
          "name": "",
          "type": "tuple",
          "internalType": "struct ERC721EscrowObligation.ObligationData",
          "components": [
            {
              "name": "arbiter",
              "type": "address",
              "internalType": "address"
            },
            {
              "name": "demand",
              "type": "bytes",
              "internalType": "bytes"
            },
            {
              "name": "token",
              "type": "address",
              "internalType": "address"
            },
            {
              "name": "tokenId",
              "type": "uint256",
              "internalType": "uint256"
            }
          ]
        }
      ],
      "stateMutability": "view"
    },
    {
      "type": "function",
      "name": "getSchema",
      "inputs": [],
      "outputs": [
        {
          "name": "",
          "type": "tuple",
          "internalType": "struct SchemaRecord",
          "components": [
            {
              "name": "uid",
              "type": "bytes32",
              "internalType": "bytes32"
            },
            {
              "name": "resolver",
              "type": "address",
              "internalType": "contract ISchemaResolver"
            },
            {
              "name": "revocable",
              "type": "bool",
              "internalType": "bool"
            },
            {
              "name": "schema",
              "type": "string",
              "internalType": "string"
            }
          ]
        }
      ],
      "stateMutability": "view"
    },
    {
      "type": "function",
      "name": "isPayable",
      "inputs": [],
      "outputs": [
        {
          "name": "",
          "type": "bool",
          "internalType": "bool"
        }
      ],
      "stateMutability": "pure"
    },
    {
      "type": "function",
      "name": "multiAttest",
      "inputs": [
        {
          "name": "attestations",
          "type": "tuple[]",
          "internalType": "struct Attestation[]",
          "components": [
            {
              "name": "uid",
              "type": "bytes32",
              "internalType": "bytes32"
            },
            {
              "name": "schema",
              "type": "bytes32",
              "internalType": "bytes32"
            },
            {
              "name": "time",
              "type": "uint64",
              "internalType": "uint64"
            },
            {
              "name": "expirationTime",
              "type": "uint64",
              "internalType": "uint64"
            },
            {
              "name": "revocationTime",
              "type": "uint64",
              "internalType": "uint64"
            },
            {
              "name": "refUID",
              "type": "bytes32",
              "internalType": "bytes32"
            },
            {
              "name": "recipient",
              "type": "address",
              "internalType": "address"
            },
            {
              "name": "attester",
              "type": "address",
              "internalType": "address"
            },
            {
              "name": "revocable",
              "type": "bool",
              "internalType": "bool"
            },
            {
              "name": "data",
              "type": "bytes",
              "internalType": "bytes"
            }
          ]
        },
        {
          "name": "values",
          "type": "uint256[]",
          "internalType": "uint256[]"
        }
      ],
      "outputs": [
        {
          "name": "",
          "type": "bool",
          "internalType": "bool"
        }
      ],
      "stateMutability": "payable"
    },
    {
      "type": "function",
      "name": "multiRevoke",
      "inputs": [
        {
          "name": "attestations",
          "type": "tuple[]",
          "internalType": "struct Attestation[]",
          "components": [
            {
              "name": "uid",
              "type": "bytes32",
              "internalType": "bytes32"
            },
            {
              "name": "schema",
              "type": "bytes32",
              "internalType": "bytes32"
            },
            {
              "name": "time",
              "type": "uint64",
              "internalType": "uint64"
            },
            {
              "name": "expirationTime",
              "type": "uint64",
              "internalType": "uint64"
            },
            {
              "name": "revocationTime",
              "type": "uint64",
              "internalType": "uint64"
            },
            {
              "name": "refUID",
              "type": "bytes32",
              "internalType": "bytes32"
            },
            {
              "name": "recipient",
              "type": "address",
              "internalType": "address"
            },
            {
              "name": "attester",
              "type": "address",
              "internalType": "address"
            },
            {
              "name": "revocable",
              "type": "bool",
              "internalType": "bool"
            },
            {
              "name": "data",
              "type": "bytes",
              "internalType": "bytes"
            }
          ]
        },
        {
          "name": "values",
          "type": "uint256[]",
          "internalType": "uint256[]"
        }
      ],
      "outputs": [
        {
          "name": "",
          "type": "bool",
          "internalType": "bool"
        }
      ],
      "stateMutability": "payable"
    },
    {
      "type": "function",
      "name": "reclaim",
      "inputs": [
        {
          "name": "uid",
          "type": "bytes32",
          "internalType": "bytes32"
        }
      ],
      "outputs": [
        {
          "name": "",
          "type": "bool",
          "internalType": "bool"
        }
      ],
      "stateMutability": "nonpayable"
    },
    {
      "type": "function",
      "name": "revoke",
      "inputs": [
        {
          "name": "attestation",
          "type": "tuple",
          "internalType": "struct Attestation",
          "components": [
            {
              "name": "uid",
              "type": "bytes32",
              "internalType": "bytes32"
            },
            {
              "name": "schema",
              "type": "bytes32",
              "internalType": "bytes32"
            },
            {
              "name": "time",
              "type": "uint64",
              "internalType": "uint64"
            },
            {
              "name": "expirationTime",
              "type": "uint64",
              "internalType": "uint64"
            },
            {
              "name": "revocationTime",
              "type": "uint64",
              "internalType": "uint64"
            },
            {
              "name": "refUID",
              "type": "bytes32",
              "internalType": "bytes32"
            },
            {
              "name": "recipient",
              "type": "address",
              "internalType": "address"
            },
            {
              "name": "attester",
              "type": "address",
              "internalType": "address"
            },
            {
              "name": "revocable",
              "type": "bool",
              "internalType": "bool"
            },
            {
              "name": "data",
              "type": "bytes",
              "internalType": "bytes"
            }
          ]
        }
      ],
      "outputs": [
        {
          "name": "",
          "type": "bool",
          "internalType": "bool"
        }
      ],
      "stateMutability": "payable"
    },
    {
      "type": "function",
      "name": "version",
      "inputs": [],
      "outputs": [
        {
          "name": "",
          "type": "string",
          "internalType": "string"
        }
      ],
      "stateMutability": "view"
    },
    {
      "type": "event",
      "name": "EscrowCollected",
      "inputs": [
        {
          "name": "escrowUid",
          "type": "bytes32",
          "indexed": true,
          "internalType": "bytes32"
        },
        {
          "name": "fulfillmentUid",
          "type": "bytes32",
          "indexed": true,
          "internalType": "bytes32"
        },
        {
          "name": "fulfiller",
          "type": "address",
          "indexed": true,
          "internalType": "address"
        }
      ],
      "anonymous": false
    },
    {
      "type": "event",
      "name": "EscrowMade",
      "inputs": [
        {
          "name": "escrowUid",
          "type": "bytes32",
          "indexed": true,
          "internalType": "bytes32"
        },
        {
          "name": "escrower",
          "type": "address",
          "indexed": true,
          "internalType": "address"
        }
      ],
      "anonymous": false
    },
    {
      "type": "error",
      "name": "AccessDenied",
      "inputs": []
    },
    {
      "type": "error",
      "name": "AttestationNotFound",
      "inputs": [
        {
          "name": "attestationId",
          "type": "bytes32",
          "internalType": "bytes32"
        }
      ]
    },
    {
      "type": "error",
      "name": "AttestationRevoked",
      "inputs": []
    },
    {
      "type": "error",
      "name": "DeadlineExpired",
      "inputs": []
    },
    {
      "type": "error",
      "name": "ERC721TransferFailed",
      "inputs": [
        {
          "name": "token",
          "type": "address",
          "internalType": "address"
        },
        {
          "name": "from",
          "type": "address",
          "internalType": "address"
        },
        {
          "name": "to",
          "type": "address",
          "internalType": "address"
        },
        {
          "name": "tokenId",
          "type": "uint256",
          "internalType": "uint256"
        }
      ]
    },
    {
      "type": "error",
      "name": "InsufficientValue",
      "inputs": []
    },
    {
      "type": "error",
      "name": "InvalidAttestationUid",
      "inputs": []
    },
    {
      "type": "error",
      "name": "InvalidEAS",
      "inputs": []
    },
    {
      "type": "error",
      "name": "InvalidEscrowAttestation",
      "inputs": []
    },
    {
      "type": "error",
      "name": "InvalidFulfillment",
      "inputs": []
    },
    {
      "type": "error",
      "name": "InvalidLength",
      "inputs": []
    },
    {
      "type": "error",
      "name": "NotFromThisAttester",
      "inputs": []
    },
    {
      "type": "error",
      "name": "NotPayable",
      "inputs": []
    },
    {
      "type": "error",
      "name": "ReentrancyGuardReentrantCall",
      "inputs": []
    },
    {
      "type": "error",
      "name": "RevocationFailed",
      "inputs": [
        {
          "name": "attestationId",
          "type": "bytes32",
          "internalType": "bytes32"
        }
      ]
    },
    {
      "type": "error",
      "name": "SchemaRegistrationFailed",
      "inputs": [
        {
          "name": "uid",
          "type": "bytes32",
          "internalType": "bytes32"
        }
      ]
    },
    {
      "type": "error",
      "name": "UnauthorizedCall",
      "inputs": []
    }
  ],
  "bytecode": {
    "object": "0x61018080604052346101d957604081612838803803809161002082856101dd565b8339810103126101d9578051906001600160a01b038216908183036101d957602001516001600160a01b03811691908281036101d957604051916100656060846101dd565b603d83527f6164647265737320617262697465722c2062797465732064656d616e642c206160208401527f64647265737320746f6b656e2c2075696e7432353620746f6b656e496400000060408401526001608052600360a0525f60c052156101ca57836100e59460e052610120526101005260016101605230916102f8565b6101405260017f9b779b17422d0df92223018b32b4d1fa46e071723d6817e2486d003becc55f005560405161236490816104d4823960805181611165015260a05181611190015260c051816111bb015260e0518161199e01526101005181610fdc015261012051818181610299015281816105aa015281816109d801528181610cbe01528181611b8d0152611e78015261014051818181610132015281816105ea015281816108bf01528181610c6f01528181610faa01528181611123015281816116a70152611d58015261016051818181610717015281816109010152611da10152f35b6341bc07ff60e11b5f5260045ffd5b5f80fd5b601f909101601f19168101906001600160401b0382119082101761020057604052565b634e487b7160e01b5f52604160045260245ffd5b6020818303126101d9578051906001600160401b0382116101d95701906080828203126101d95760405191608083016001600160401b03811184821017610200576040528051835260208101516001600160a01b03811681036101d9576020840152604081015180151581036101d95760408401526060810151906001600160401b0382116101d9570181601f820112156101d9578051906001600160401b03821161020057604051926102d2601f8401601f1916602001856101dd565b828452602083830101116101d957815f9260208093018386015e83010152606082015290565b929160405190602082018351926103426015602083818901978089885e810160018060601b03198860601b1683820152600160f81b60348201520301600a198101845201826101dd565b5190206040516351753e3760e11b81526004810182905290956001600160a01b031693905f81602481885afa80156104535787915f916104b9575b5051146104b3579060846020926040519485938492630c1af44f60e31b8452606060048501525180928160648601528585015e5f84838501015260018060a01b0316602483015260016044830152601f801991011681010301815f865af15f918161047f575b5061045e57505f602491604051928380926351753e3760e11b82528760048301525afa80156104535783915f91610431575b50511461042f5750639e6113d560e01b5f5260045260245ffd5b565b61044d91503d805f833e61044581836101dd565b810190610214565b5f610415565b6040513d5f823e3d90fd5b9192809150820361046d575090565b639e6113d560e01b5f5260045260245ffd5b9091506020813d6020116104ab575b8161049b602093836101dd565b810103126101d95751905f6103e3565b3d915061048e565b50505050565b6104cd91503d805f833e61044581836101dd565b5f61037d56fe60806040526004361015610027575b3615610018575f80fd5b631574f9f360e01b5f5260045ffd5b5f5f3560e01c806354fd4d50146111465780635bf2f20d1461110c5780636b122fe014610f6b578063760bd11814610f0d57806388e5b2d914610dd65780638da3721a14610df557806391db0b7e14610dd657806396afb36514610c40578063a4f0d51714610bd3578063b3b902d41461073c578063b587a5eb146106ff578063c1e4a71014610675578063c6ec507014610569578063c93844be14610492578063ce46e04614610476578063e49617e114610451578063e60c3505146104515763ea6ec49c146100f8575061000e565b3461044e57604036600319011261044e57602435906004356101186119f6565b61012181611b67565b61012a84611b67565b9060208101517f000000000000000000000000000000000000000000000000000000000000000080910361043f5761016182612031565b1561043f576101746101208301516115d3565b60a085019081518551036104305761018b86612031565b1561043057610120928660209360c09361026b895191610259604051998a98899788976346d1b90d60e11b8952606060048a0152815160648a01528c82015160848a01526001600160401b0360408301511660a48a01526001600160401b0360608301511660c48a01526001600160401b0360808301511660e48a015251610104890152019d8e60018060a01b0390511661012488015260018060a01b0360e082015116610144880152610100810151151561016488015201516101406101848701526101a4860190611244565b84810360031901602486015290611244565b604483019190915203916001600160a01b03165afa9081156104255786916103eb575b50156103dc576040517f00000000000000000000000000000000000000000000000000000000000000006001600160a01b031691906102cc816112b3565b858152866020820152604051916102e2836112b3565b82526020820152813b156103d857604051634692626760e01b8152815160048201526020918201518051602483015290910151604482015290859081908390606490829084905af191826103bf575b505061034b5763614cf93960e01b84526004839052602484fd5b917ff96e77bc177ae8e2ff25185e7c6d85f8ba97c8bdd9d46933aac70a7a33edf6c0946103856103bb9460018060a01b03855116906120ce565b92516040519687966001600160a01b03909216939180a460015f51602061230f5f395f51905f5255602083526020830190611244565b0390f35b816103c9916112e9565b6103d457845f610331565b8480fd5b8580fd5b630ebe58ef60e11b8552600485fd5b90506020813d60201161041d575b81610406602093836112e9565b810103126103d857610417906114e2565b5f61028e565b3d91506103f9565b6040513d88823e3d90fd5b630ebe58ef60e11b8852600488fd5b63629cd40b60e11b8552600485fd5b80fd5b602061046c61045f366114ae565b61046761199c565b6119dd565b6040519015158152f35b503461044e578060031936011261044e57602090604051908152f35b503461044e57602036600319011261044e576004356001600160401b038111610561576104c3903690600401611437565b6104ce92919261180b565b50820191602081840312610561578035906001600160401b038211610565570191608083820312610561576040519161050683611268565b61050f84611423565b83526020840135906001600160401b03821161044e5750926105386060926103bb95830161135b565b602084015261054960408201611423565b60408401520135606082015260405191829182611464565b5080fd5b8280fd5b503461044e57602036600319011261044e5761058361180b565b5061058c611a2e565b506040516328c44a9960e21b815260048035908201529080826024817f00000000000000000000000000000000000000000000000000000000000000006001600160a01b03165afa918215610668578192610644575b5060208201517f000000000000000000000000000000000000000000000000000000000000000003610635576103bb61062961012084015160208082518301019101611553565b60405191829182611464565b635527981560e11b8152600490fd5b6106619192503d8084833e61065981836112e9565b810190611a8c565b905f6105e2565b50604051903d90823e3d90fd5b503461044e57606036600319011261044e576004356001600160401b0381116105615760806003198236030112610561576106ae6113f9565b604435929091906001600160a01b038416840361044e5760206106f785856106e46106f287604051928391600401888301611773565b03601f1981018352826112e9565b611c15565b604051908152f35b503461044e578060031936011261044e5760206040517f000000000000000000000000000000000000000000000000000000000000000015158152f35b50606036600319011261044e576004356001600160401b03811161056157610768903690600401611437565b61077f6107736113f9565b92604435923691611325565b916107886119f6565b61079b6020845185010160208501611553565b936040850193606060018060a01b03865116960195602087516024604051809481936331a9108f60e11b835260048301525afa908115610bc8578391610b8e575b50336001600160a01b0390911603610b605760018060a01b038551168651813b15610b5c576040516323b872dd60e01b8152336004820152306024820152604481019190915290839081908390606490829084905af19182610b47575b5050610871578451865160405163045b391760e01b815291829161086d91309033906001600160a01b0316600486016120a3565b0390fd5b858560018060a01b03815116602083516024604051809481936331a9108f60e11b835260048301525afa908115610ad5578591610b0d575b50306001600160a01b0390911603610ae05750507f0000000000000000000000000000000000000000000000000000000000000000936001600160401b03604051946108f4866112ce565b33865216908160208601527f00000000000000000000000000000000000000000000000000000000000000001515918260408701528160608701528360808701528460a08701526020604051610949816112b3565b8881528181019788526040518098819263f17325e760e01b8352846004840152516024830152516040604483015260018060a01b0381511660648301526001600160401b03848201511660848301526040810151151560a4830152606081015160c483015260a06109ca608083015160c060e4860152610124850190611244565b9101516101048301520381887f00000000000000000000000000000000000000000000000000000000000000006001600160a01b03165af1958615610ad5578596610aa0575b5091602096916101209360405193610a2785611297565b888552898501526001600160401b0342166040850152606084015285608084015260a08301523360c08301523060e08301526101008201520152817f8f7f2dbafd79125e808bf16a53d7fa4e17b8b6374ced76d946a45f94b7bf4d06339280a360015f51602061230f5f395f51905f5255604051908152f35b9095506020813d602011610acd575b81610abc602093836112e9565b810103126103d45751946020610a10565b3d9150610aaf565b6040513d87823e3d90fd5b51905160405163045b391760e01b815291829161086d91309033906001600160a01b0316600486016120a3565b90506020813d602011610b3f575b81610b28602093836112e9565b810103126103d457610b3990611525565b876108a9565b3d9150610b1b565b81610b51916112e9565b61056557825f610839565b8380fd5b8451865160405163045b391760e01b815291829161086d91309033906001600160a01b0316600486016120a3565b90506020813d602011610bc0575b81610ba9602093836112e9565b8101031261056557610bba90611525565b5f6107dc565b3d9150610b9c565b6040513d85823e3d90fd5b503461044e57604036600319011261044e57600435906001600160401b03821161044e576080600319833603011261044e5760206106f7610c2b84610c39610c196113f9565b91604051938491600401878301611773565b03601f1981018452836112e9565b3391611c15565b5034610db4576020366003190112610db45760043590610c5e6119f6565b610c6782611b67565b9160208301517f0000000000000000000000000000000000000000000000000000000000000000809103610dc757606084016001600160401b0381511615610db857516001600160401b03164210610db8576040517f00000000000000000000000000000000000000000000000000000000000000006001600160a01b031690610cf0816112b3565b8381525f602082015260405192610d06846112b3565b83526020830152803b15610db457604051634692626760e01b815282516004820152602092830151805160248301529092015160448301525f908290606490829084905af19081610d9f575b50610d6a5763614cf93960e01b825260045260249150fd5b60c0830151610d82906001600160a01b0316846120ce565b5060015f51602061230f5f395f51905f5255602060405160018152f35b610dac9193505f906112e9565b5f915f610d52565b5f80fd5b637bf6a16f60e01b5f5260045ffd5b63629cd40b60e11b5f5260045ffd5b602061046c610de4366113a9565b92610df092919261199c565b6115fc565b34610db4576060366003190112610db4576004356001600160401b038111610db4576101406003198236030112610db45760405190610e3382611297565b8060040135825260248101356020830152610e506044820161140f565b6040830152610e616064820161140f565b6060830152610e726084820161140f565b608083015260a481013560a0830152610e8d60c48201611423565b60c0830152610e9e60e48201611423565b60e08301526101048101358015158103610db457610100830152610124810135906001600160401b038211610db4576004610edc923692010161135b565b6101208201526024356001600160401b038111610db457602091610f0761046c92369060040161135b565b906116a0565b34610db4576020366003190112610db4576004356001600160401b038111610db457610f40610f4591369060040161135b565b6115d3565b604080516001600160a01b0390931683526020830181905282916103bb91830190611244565b34610db4575f366003190112610db457606080604051610f8a81611268565b5f81525f60208201525f604082015201526040516351753e3760e11b81527f000000000000000000000000000000000000000000000000000000000000000060048201525f8160248160018060a01b037f0000000000000000000000000000000000000000000000000000000000000000165afa8015611101575f90611051575b6060906103bb604051928392602084528051602085015260018060a01b0360208201511660408501526040810151151582850152015160808084015260a0830190611244565b503d805f833e61106181836112e9565b810190602081830312610db4578051906001600160401b038211610db45701608081830312610db4576040519061109782611268565b8051825260208101516001600160a01b0381168103610db45760208301526110c1604082016114e2565b60408301526060810151906001600160401b038211610db4570182601f82011215610db4576060928160206110f8935191016114ef565b8282015261100b565b6040513d5f823e3d90fd5b34610db4575f366003190112610db45760206040517f00000000000000000000000000000000000000000000000000000000000000008152f35b34610db4575f366003190112610db4576103bb602061123460016111897f000000000000000000000000000000000000000000000000000000000000000061182f565b81846111b47f000000000000000000000000000000000000000000000000000000000000000061182f565b81806111df7f000000000000000000000000000000000000000000000000000000000000000061182f565b9260405199878b985191829101848a015e870190601760f91b83830152805192839101602183015e010190601760f91b84830152805192839101600283015e01015f838201520301601f1981018352826112e9565b6040519182916020835260208301905b805180835260209291819084018484015e5f828201840152601f01601f1916010190565b608081019081106001600160401b0382111761128357604052565b634e487b7160e01b5f52604160045260245ffd5b61014081019081106001600160401b0382111761128357604052565b604081019081106001600160401b0382111761128357604052565b60c081019081106001600160401b0382111761128357604052565b90601f801991011681019081106001600160401b0382111761128357604052565b6001600160401b03811161128357601f01601f191660200190565b9291926113318261130a565b9161133f60405193846112e9565b829481845281830111610db4578281602093845f960137010152565b9080601f83011215610db45781602061137693359101611325565b90565b9181601f84011215610db4578235916001600160401b038311610db4576020808501948460051b010111610db457565b6040600319820112610db4576004356001600160401b038111610db457816113d391600401611379565b92909291602435906001600160401b038211610db4576113f591600401611379565b9091565b602435906001600160401b0382168203610db457565b35906001600160401b0382168203610db457565b35906001600160a01b0382168203610db457565b9181601f84011215610db4578235916001600160401b038311610db45760208381860195010111610db457565b6020815260018060a01b03825116602082015260806060611493602085015183604086015260a0850190611244565b60408501516001600160a01b03168483015293015191015290565b6020600319820112610db457600435906001600160401b038211610db457610140908290036003190112610db45760040190565b51908115158203610db457565b9291926114fb8261130a565b9161150960405193846112e9565b829481845281830111610db4578281602093845f96015e010152565b51906001600160a01b0382168203610db457565b9080601f83011215610db4578151611376926020016114ef565b602081830312610db4578051906001600160401b038211610db4570190608082820312610db4576040519161158783611268565b61159081611525565b835260208101516001600160401b038111610db4576060926115b3918301611539565b60208401526115c460408201611525565b60408401520151606082015290565b6115e69060208082518301019101611553565b80516020909101516001600160a01b0390911691565b929092818403611691575f91345b858410156116865781841015611672578360051b80860135908282116116635784013561013e1985360301811215610db4576116479085016119dd565b15611658576001910393019261160a565b505050505050505f90565b63044044a560e21b5f5260045ffd5b634e487b7160e01b5f52603260045260245ffd5b505050505050600190565b63251f56a160e21b5f5260045ffd5b60208101517f00000000000000000000000000000000000000000000000000000000000000000361176d576116e66101206116f692015160208082518301019101611553565b9160208082518301019101611553565b604082810151908201516001600160a01b03908116911614918261175a575b82611741575b8261172557505090565b6020919250810151818151910120910151602081519101201490565b805182516001600160a01b03908116911614925061171b565b9150606082015160608201511491611715565b50505f90565b602081526001600160a01b0361178883611423565b1660208201526020820135601e1983360301811215610db45782016020813591016001600160401b038211610db4578136038113610db45760c09382606092608060408701528160a0870152868601375f8484018601526001600160a01b036117f360408301611423565b168483015201356080830152601f01601f1916010190565b6040519061181882611268565b5f6060838281528160208201528260408201520152565b805f9172184f03e93ff9f4daa797ed6e38ed64bf6a1f0160401b821015611979575b806d04ee2d6d415b85acef8100000000600a92101561195e575b662386f26fc1000081101561194a575b6305f5e100811015611939575b61271081101561192a575b606481101561191c575b1015611911575b600a602160018401936118b68561130a565b946118c460405196876112e9565b8086526118d3601f199161130a565b013660208701378401015b5f1901916f181899199a1a9b1b9c1cb0b131b232b360811b8282061a835304801561190c57600a90916118de565b505090565b6001909101906118a4565b60646002910493019261189d565b61271060049104930192611893565b6305f5e10060089104930192611888565b662386f26fc100006010910493019261187b565b6d04ee2d6d415b85acef81000000006020910493019261186b565b506040915072184f03e93ff9f4daa797ed6e38ed64bf6a1f0160401b8104611851565b7f00000000000000000000000000000000000000000000000000000000000000006001600160a01b031633036119ce57565b634ca8886760e01b5f5260045ffd5b60e0013560018060a01b038116809103610db457301490565b60025f51602061230f5f395f51905f525414611a1f5760025f51602061230f5f395f51905f5255565b633ee5aeb560e01b5f5260045ffd5b60405190611a3b82611297565b6060610120835f81525f60208201525f60408201525f838201525f60808201525f60a08201525f60c08201525f60e08201525f6101008201520152565b51906001600160401b0382168203610db457565b602081830312610db4578051906001600160401b038211610db4570161014081830312610db45760405191611ac083611297565b8151835260208201516020840152611ada60408301611a78565b6040840152611aeb60608301611a78565b6060840152611afc60808301611a78565b608084015260a082015160a0840152611b1760c08301611525565b60c0840152611b2860e08301611525565b60e0840152611b3a61010083016114e2565b6101008401526101208201516001600160401b038111610db457611b5e9201611539565b61012082015290565b90611b70611a2e565b506040516328c44a9960e21b815260048101839052915f836024817f00000000000000000000000000000000000000000000000000000000000000006001600160a01b03165afa928315611101575f93611bf9575b508251818115918215611bee575b5050611bdc5750565b6301fb6dd160e01b5f5260045260245ffd5b14159050815f611bd3565b611c0e9193503d805f833e61065981836112e9565b915f611bc5565b919290925f93611c236119f6565b611c366020855186010160208601611553565b946040860194606060018060a01b03875116970196602088516024604051809481936331a9108f60e11b835260048301525afa908115611101575f91611ff7575b50336001600160a01b0390911603611fc95785518751906001600160a01b0316803b15610db4576040516323b872dd60e01b815233600482015230602482015260448101929092525f908290606490829084905af19081611fb4575b50611d06578551875160405163045b391760e01b815291829161086d91309033906001600160a01b0316600486016120a3565b91939590929460018060a01b03815116602083516024604051809481936331a9108f60e11b835260048301525afa908115610ad5578591611f7a575b50306001600160a01b0390911603610ae05750507f00000000000000000000000000000000000000000000000000000000000000006001600160401b0360405195611d8c876112ce565b60018060a01b031694858752168060208701527f00000000000000000000000000000000000000000000000000000000000000001515908160408801528460608801528360808801528460a08801526020604051611de9816112b3565b8481528181019889526040518099819263f17325e760e01b8352846004840152516024830152516040604483015260018060a01b0381511660648301526001600160401b03848201511660848301526040810151151560a4830152606081015160c483015260a0611e6a608083015160c060e4860152610124850190611244565b9101516101048301520381887f00000000000000000000000000000000000000000000000000000000000000006001600160a01b03165af1968715610ad5578597611f3a575b508694927f8f7f2dbafd79125e808bf16a53d7fa4e17b8b6374ced76d946a45f94b7bf4d0694926101209260405192611ee884611297565b88845260208401526001600160401b034216604084015260608301528460808301528460a08301528760c08301523060e0830152610100820152015280a39060015f51602061230f5f395f51905f5255565b909493929196506020813d602011611f72575b81611f5a602093836112e9565b81010312610b5c575195929391929091610120611eb0565b3d9150611f4d565b90506020813d602011611fac575b81611f95602093836112e9565b810103126103d457611fa690611525565b5f611d42565b3d9150611f88565b611fc19193505f906112e9565b5f915f611cd3565b8551875160405163045b391760e01b815291829161086d91309033906001600160a01b0316600486016120a3565b90506020813d602011612029575b81612012602093836112e9565b81010312610db45761202390611525565b5f611c77565b3d9150612005565b805115612094576001600160401b036060820151168015159081612089575b5061207a57608001516001600160401b031661206b57600190565b637b6227e960e11b5f5260045ffd5b631ab7da6b60e01b5f5260045ffd5b90504210155f612050565b635c2c7f8960e01b5f5260045ffd5b6001600160a01b03918216815291811660208301529091166040820152606081019190915260800190565b6101206120e991939293015160208082518301019101611553565b90604082019081519260605f910193602085516024604051809481936331a9108f60e11b8352600483015260018060a01b03165afa908115611101575f916122d4575b50306001600160a01b03909116036122a55782518451906001600160a01b0316803b15610db4576040516323b872dd60e01b81523060048201526001600160a01b038816602482015260448101929092525f908290606490829084905af19081612290575b506121c557505051905160405163045b391760e01b815292839261086d92919030906001600160a01b0316600486016120a3565b9290939160018060a01b03815116602083516024604051809481936331a9108f60e11b835260048301525afa908115610ad5578591612256575b506001600160a01b0384811691160361222957505050604051906122246020836112e9565b815290565b51905160405163045b391760e01b815292839261086d92919030906001600160a01b0316600486016120a3565b90506020813d602011612288575b81612271602093836112e9565b810103126103d45761228290611525565b5f6121ff565b3d9150612264565b61229d9192505f906112e9565b5f905f612191565b505051905160405163045b391760e01b815292839261086d92919030906001600160a01b0316600486016120a3565b90506020813d602011612306575b816122ef602093836112e9565b81010312610db45761230090611525565b5f61212c565b3d91506122e256fe9b779b17422d0df92223018b32b4d1fa46e071723d6817e2486d003becc55f00a2646970667358221220597b680b9ed049348d3d1ca0bead9440958b3158778cb700e19909ea96ddd2c164736f6c634300081b0033",
    "linkReferences": {}
  },
  "methodIdentifiers": {
    "ATTESTATION_SCHEMA()": "5bf2f20d",
    "ATTESTATION_SCHEMA_REVOCABLE()": "b587a5eb",
    "attest((bytes32,bytes32,uint64,uint64,uint64,bytes32,address,address,bool,bytes))": "e60c3505",
    "check((bytes32,bytes32,uint64,uint64,uint64,bytes32,address,address,bool,bytes),bytes,bytes32)": "8da3721a",
    "collect(bytes32,bytes32)": "ea6ec49c",
    "decodeCondition(bytes)": "760bd118",
    "decodeObligationData(bytes)": "c93844be",
    "doObligation((address,bytes,address,uint256),uint64)": "a4f0d517",
    "doObligationFor((address,bytes,address,uint256),uint64,address)": "c1e4a710",
    "doObligationRaw(bytes,uint64,bytes32)": "b3b902d4",
    "getObligationData(bytes32)": "c6ec5070",
    "getSchema()": "6b122fe0",
    "isPayable()": "ce46e046",
    "multiAttest((bytes32,bytes32,uint64,uint64,uint64,bytes32,address,address,bool,bytes)[],uint256[])": "91db0b7e",
    "multiRevoke((bytes32,bytes32,uint64,uint64,uint64,bytes32,address,address,bool,bytes)[],uint256[])": "88e5b2d9",
    "reclaim(bytes32)": "96afb365",
    "revoke((bytes32,bytes32,uint64,uint64,uint64,bytes32,address,address,bool,bytes))": "e49617e1",
    "version()": "54fd4d50"
  },
  "id": 123
}