{
  "abi": [
    {
      "type": "constructor",
      "inputs": [
        {
          "name": "_eas",
          "type": "address",
          "internalType": "contract IEAS"
        }
      ],
      "stateMutability": "nonpayable"
    },
    {
      "type": "function",
      "name": "checkObligation",
      "inputs": [
        {
          "name": "fulfillment",
          "type": "tuple",
          "internalType": "struct Attestation",
          "components": [
            {
              "name": "uid",
              "type": "bytes32",
              "internalType": "bytes32"
            },
            {
              "name": "schema",
              "type": "bytes32",
              "internalType": "bytes32"
            },
            {
              "name": "time",
              "type": "uint64",
              "internalType": "uint64"
            },
            {
              "name": "expirationTime",
              "type": "uint64",
              "internalType": "uint64"
            },
            {
              "name": "revocationTime",
              "type": "uint64",
              "internalType": "uint64"
            },
            {
              "name": "refUID",
              "type": "bytes32",
              "internalType": "bytes32"
            },
            {
              "name": "recipient",
              "type": "address",
              "internalType": "address"
            },
            {
              "name": "attester",
              "type": "address",
              "internalType": "address"
            },
            {
              "name": "revocable",
              "type": "bool",
              "internalType": "bool"
            },
            {
              "name": "data",
              "type": "bytes",
              "internalType": "bytes"
            }
          ]
        },
        {
          "name": "",
          "type": "bytes",
          "internalType": "bytes"
        },
        {
          "name": "fulfilling",
          "type": "bytes32",
          "internalType": "bytes32"
        }
      ],
      "outputs": [
        {
          "name": "",
          "type": "bool",
          "internalType": "bool"
        }
      ],
      "stateMutability": "view"
    },
    {
      "type": "function",
      "name": "confirm",
      "inputs": [
        {
          "name": "_fulfillment",
          "type": "bytes32",
          "internalType": "bytes32"
        },
        {
          "name": "_escrow",
          "type": "bytes32",
          "internalType": "bytes32"
        }
      ],
      "outputs": [],
      "stateMutability": "nonpayable"
    },
    {
      "type": "function",
      "name": "confirmations",
      "inputs": [
        {
          "name": "",
          "type": "bytes32",
          "internalType": "bytes32"
        },
        {
          "name": "",
          "type": "bytes32",
          "internalType": "bytes32"
        }
      ],
      "outputs": [
        {
          "name": "",
          "type": "bool",
          "internalType": "bool"
        }
      ],
      "stateMutability": "view"
    },
    {
      "type": "function",
      "name": "eas",
      "inputs": [],
      "outputs": [
        {
          "name": "",
          "type": "address",
          "internalType": "contract IEAS"
        }
      ],
      "stateMutability": "view"
    },
    {
      "type": "function",
      "name": "escrowToFulfillment",
      "inputs": [
        {
          "name": "",
          "type": "bytes32",
          "internalType": "bytes32"
        }
      ],
      "outputs": [
        {
          "name": "",
          "type": "bytes32",
          "internalType": "bytes32"
        }
      ],
      "stateMutability": "view"
    },
    {
      "type": "function",
      "name": "requestConfirmation",
      "inputs": [
        {
          "name": "_fulfillment",
          "type": "bytes32",
          "internalType": "bytes32"
        },
        {
          "name": "_escrow",
          "type": "bytes32",
          "internalType": "bytes32"
        }
      ],
      "outputs": [],
      "stateMutability": "nonpayable"
    },
    {
      "type": "function",
      "name": "revoke",
      "inputs": [
        {
          "name": "_fulfillment",
          "type": "bytes32",
          "internalType": "bytes32"
        },
        {
          "name": "_escrow",
          "type": "bytes32",
          "internalType": "bytes32"
        }
      ],
      "outputs": [],
      "stateMutability": "nonpayable"
    },
    {
      "type": "event",
      "name": "ConfirmationMade",
      "inputs": [
        {
          "name": "fulfillment",
          "type": "bytes32",
          "indexed": true,
          "internalType": "bytes32"
        },
        {
          "name": "escrow",
          "type": "bytes32",
          "indexed": true,
          "internalType": "bytes32"
        }
      ],
      "anonymous": false
    },
    {
      "type": "event",
      "name": "ConfirmationRequested",
      "inputs": [
        {
          "name": "fulfillment",
          "type": "bytes32",
          "indexed": true,
          "internalType": "bytes32"
        },
        {
          "name": "confirmer",
          "type": "address",
          "indexed": true,
          "internalType": "address"
        },
        {
          "name": "escrow",
          "type": "bytes32",
          "indexed": true,
          "internalType": "bytes32"
        }
      ],
      "anonymous": false
    },
    {
      "type": "event",
      "name": "ConfirmationRevoked",
      "inputs": [
        {
          "name": "fulfillment",
          "type": "bytes32",
          "indexed": true,
          "internalType": "bytes32"
        },
        {
          "name": "escrow",
          "type": "bytes32",
          "indexed": true,
          "internalType": "bytes32"
        }
      ],
      "anonymous": false
    },
    {
      "type": "error",
      "name": "AnotherFulfillmentAlreadyConfirmed",
      "inputs": []
    },
    {
      "type": "error",
      "name": "InvalidFulfillment",
      "inputs": []
    },
    {
      "type": "error",
      "name": "NoConfirmationToRevoke",
      "inputs": []
    },
    {
      "type": "error",
      "name": "UnauthorizedConfirmation",
      "inputs": []
    },
    {
      "type": "error",
      "name": "UnauthorizedConfirmationRequest",
      "inputs": []
    },
    {
      "type": "error",
      "name": "UnauthorizedRevocation",
      "inputs": []
    }
  ],
  "bytecode": {
    "object": "0x60a03461007f57601f61098238819003918201601f19168301916001600160401b038311848410176100835780849260209460405283398101031261007f57516001600160a01b038116810361007f576080526040516108ea908161009882396080518181816101d00152818161033b01528181610391015261053e0152f35b5f80fd5b634e487b7160e01b5f52604160045260245ffdfe6080806040526004361015610012575f80fd5b5f3560e01c9081633786930d146106565750806352155df71461051757806357f784ba1461036a5780638150864d14610326578063887d686d146102f3578063c2664610146101a45763e6c9714d14610069575f80fd5b346101a05760603660031901126101a05760043567ffffffffffffffff81116101a05761014060031982360301126101a057604051906100a882610692565b80600401358252602481013560208301526100c5604482016106e5565b60408301526100d6606482016106e5565b60608301526100e7608482016106e5565b608083015260a481013560a083015261010260c482016106fa565b60c083015261011360e482016106fa565b60e083015261010481013580151581036101a0576101008301526101248101359067ffffffffffffffff82116101a0576004610152923692010161072a565b61012082015260243567ffffffffffffffff81116101a05761017890369060040161072a565b50515f525f60205260405f206044355f52602052602060ff60405f2054166040519015158152f35b5f80fd5b346101a0576101b23661067c565b6040516328c44a9960e21b8152600481018290529091905f816024817f00000000000000000000000000000000000000000000000000000000000000006001600160a01b03165afa9081156102e8575f916102c6575b5060c001516001600160a01b031633036102b757805f525f60205260405f20825f5260205260ff60405f2054161580156102a1575b61029257805f525f60205260405f20825f5260205260405f2060ff198154169055815f5260016020525f60408120557f137a0dfcce695307235e039aa2ae70da634ed7f10a6a5a536b3a8c15d758aa1e5f80a3005b6339abb17d60e01b5f5260045ffd5b50815f5260016020528060405f2054141561023d565b630feaf7d560e31b5f5260045ffd5b6102e291503d805f833e6102da81836106c3565b810190610799565b83610208565b6040513d5f823e3d90fd5b346101a0576103013661067c565b905f525f60205260405f20905f52602052602060ff60405f2054166040519015158152f35b346101a0575f3660031901126101a0576040517f00000000000000000000000000000000000000000000000000000000000000006001600160a01b03168152602090f35b346101a0576103783661067c565b6040516328c44a9960e21b8152600481018290529091907f00000000000000000000000000000000000000000000000000000000000000006001600160a01b03165f82602481845afa9081156102e8576024925f926104f9575b505f90604051938480926328c44a9960e21b82528760048301525afa9182156102e8575f926104dd575b5060c001516001600160a01b031633036104ce57518181159182156104c3575b50506104b457815f52600160205260405f205415158061049e575b61048f57805f525f60205260405f20825f5260205260405f20600160ff19825416179055815f5260016020528060405f20557fd22fd165f2b163f7b94d6e2b15443105c17bfae3fa2242150644ab76a95d532e5f80a3005b633ea893c560e21b5f5260045ffd5b50815f5260016020528060405f20541415610437565b630ebe58ef60e11b5f5260045ffd5b14159050818461041c565b6331eb5cd360e11b5f5260045ffd5b6104f29192503d805f833e6102da81836106c3565b90846103fc565b5f919250610510903d8084833e6102da81836106c3565b91906103d2565b346101a0576105253661067c565b6040516328c44a9960e21b8152600481018390529091907f00000000000000000000000000000000000000000000000000000000000000006001600160a01b0316905f81602481855afa9081156102e8575f9161063c575b5060e08101516001600160a01b03163314159081610624575b50610615575f602491604051928380926328c44a9960e21b82528760048301525afa9081156102e8575f916105fb575b5060c001516001600160a01b0316907f93ece828de650a0159786850192cbcd721ab720e1ee81b00365a5c8d63886b315f80a4005b61060f91503d805f833e6102da81836106c3565b836105c6565b63020a627d60e11b5f5260045ffd5b60c001516001600160a01b0316331415905084610596565b61065091503d805f833e6102da81836106c3565b8461057d565b346101a05760203660031901126101a0576020906004355f526001825260405f20548152f35b60409060031901126101a0576004359060243590565b610140810190811067ffffffffffffffff8211176106af57604052565b634e487b7160e01b5f52604160045260245ffd5b90601f8019910116810190811067ffffffffffffffff8211176106af57604052565b359067ffffffffffffffff821682036101a057565b35906001600160a01b03821682036101a057565b67ffffffffffffffff81116106af57601f01601f191660200190565b81601f820112156101a0578035906107418261070e565b9261074f60405194856106c3565b828452602083830101116101a057815f926020809301838601378301015290565b519067ffffffffffffffff821682036101a057565b51906001600160a01b03821682036101a057565b6020818303126101a05780519067ffffffffffffffff82116101a0570190610140828203126101a057604051916107cf83610692565b80518352602081015160208401526107e960408201610770565b60408401526107fa60608201610770565b606084015261080b60808201610770565b608084015260a081015160a084015261082660c08201610785565b60c084015261083760e08201610785565b60e084015261010081015180151581036101a0576101008401526101208101519067ffffffffffffffff82116101a0570181601f820112156101a05780519061087f8261070e565b9261088d60405194856106c3565b828452602083830101116101a057815f9260208093018386015e830101526101208201529056fea2646970667358221220eca30b3d52ac37d15b2c22410a4164da8dc1d7038aa30711234d05e07934431864736f6c634300081b0033",
    "linkReferences": {}
  },
  "methodIdentifiers": {
    "checkObligation((bytes32,bytes32,uint64,uint64,uint64,bytes32,address,address,bool,bytes),bytes,bytes32)": "e6c9714d",
    "confirm(bytes32,bytes32)": "57f784ba",
    "confirmations(bytes32,bytes32)": "887d686d",
    "eas()": "8150864d",
    "escrowToFulfillment(bytes32)": "3786930d",
    "requestConfirmation(bytes32,bytes32)": "52155df7",
    "revoke(bytes32,bytes32)": "c2664610"
  },
  "id": 52
}