{
  "abi": [
    {
      "type": "constructor",
      "inputs": [
        {
          "name": "_eas",
          "type": "address",
          "internalType": "contract IEAS"
        }
      ],
      "stateMutability": "nonpayable"
    },
    {
      "type": "function",
      "name": "checkObligation",
      "inputs": [
        {
          "name": "fulfillment",
          "type": "tuple",
          "internalType": "struct Attestation",
          "components": [
            {
              "name": "uid",
              "type": "bytes32",
              "internalType": "bytes32"
            },
            {
              "name": "schema",
              "type": "bytes32",
              "internalType": "bytes32"
            },
            {
              "name": "time",
              "type": "uint64",
              "internalType": "uint64"
            },
            {
              "name": "expirationTime",
              "type": "uint64",
              "internalType": "uint64"
            },
            {
              "name": "revocationTime",
              "type": "uint64",
              "internalType": "uint64"
            },
            {
              "name": "refUID",
              "type": "bytes32",
              "internalType": "bytes32"
            },
            {
              "name": "recipient",
              "type": "address",
              "internalType": "address"
            },
            {
              "name": "attester",
              "type": "address",
              "internalType": "address"
            },
            {
              "name": "revocable",
              "type": "bool",
              "internalType": "bool"
            },
            {
              "name": "data",
              "type": "bytes",
              "internalType": "bytes"
            }
          ]
        },
        {
          "name": "",
          "type": "bytes",
          "internalType": "bytes"
        },
        {
          "name": "fulfilling",
          "type": "bytes32",
          "internalType": "bytes32"
        }
      ],
      "outputs": [
        {
          "name": "",
          "type": "bool",
          "internalType": "bool"
        }
      ],
      "stateMutability": "view"
    },
    {
      "type": "function",
      "name": "confirm",
      "inputs": [
        {
          "name": "_fulfillment",
          "type": "bytes32",
          "internalType": "bytes32"
        },
        {
          "name": "_escrow",
          "type": "bytes32",
          "internalType": "bytes32"
        }
      ],
      "outputs": [],
      "stateMutability": "nonpayable"
    },
    {
      "type": "function",
      "name": "confirmations",
      "inputs": [
        {
          "name": "",
          "type": "bytes32",
          "internalType": "bytes32"
        },
        {
          "name": "",
          "type": "bytes32",
          "internalType": "bytes32"
        }
      ],
      "outputs": [
        {
          "name": "",
          "type": "bool",
          "internalType": "bool"
        }
      ],
      "stateMutability": "view"
    },
    {
      "type": "function",
      "name": "eas",
      "inputs": [],
      "outputs": [
        {
          "name": "",
          "type": "address",
          "internalType": "contract IEAS"
        }
      ],
      "stateMutability": "view"
    },
    {
      "type": "function",
      "name": "escrowConfirmed",
      "inputs": [
        {
          "name": "",
          "type": "bytes32",
          "internalType": "bytes32"
        }
      ],
      "outputs": [
        {
          "name": "",
          "type": "bool",
          "internalType": "bool"
        }
      ],
      "stateMutability": "view"
    },
    {
      "type": "function",
      "name": "requestConfirmation",
      "inputs": [
        {
          "name": "_fulfillment",
          "type": "bytes32",
          "internalType": "bytes32"
        },
        {
          "name": "_escrow",
          "type": "bytes32",
          "internalType": "bytes32"
        }
      ],
      "outputs": [],
      "stateMutability": "nonpayable"
    },
    {
      "type": "event",
      "name": "ConfirmationMade",
      "inputs": [
        {
          "name": "fulfillment",
          "type": "bytes32",
          "indexed": true,
          "internalType": "bytes32"
        },
        {
          "name": "escrow",
          "type": "bytes32",
          "indexed": true,
          "internalType": "bytes32"
        }
      ],
      "anonymous": false
    },
    {
      "type": "event",
      "name": "ConfirmationRequested",
      "inputs": [
        {
          "name": "fulfillment",
          "type": "bytes32",
          "indexed": true,
          "internalType": "bytes32"
        },
        {
          "name": "confirmer",
          "type": "address",
          "indexed": true,
          "internalType": "address"
        },
        {
          "name": "escrow",
          "type": "bytes32",
          "indexed": true,
          "internalType": "bytes32"
        }
      ],
      "anonymous": false
    },
    {
      "type": "error",
      "name": "EscrowAlreadyConfirmed",
      "inputs": []
    },
    {
      "type": "error",
      "name": "InvalidFulfillment",
      "inputs": []
    },
    {
      "type": "error",
      "name": "UnauthorizedConfirmation",
      "inputs": []
    },
    {
      "type": "error",
      "name": "UnauthorizedConfirmationRequest",
      "inputs": []
    }
  ],
  "bytecode": {
    "object": "0x60a034607457601f61082238819003918201601f19168301916001600160401b03831184841017607857808492602094604052833981010312607457516001600160a01b0381168103607457608052604051610795908161008d82396080518181816101e101528181610266015261040f0152f35b5f80fd5b634e487b7160e01b5f52604160045260245ffdfe6080806040526004361015610012575f80fd5b5f3560e01c90816352155df7146103ed5750806357f784ba1461023f5780637556cad5146102105780638150864d146101cc578063887d686d146101995763e6c9714d1461005e575f80fd5b346101955760603660031901126101955760043567ffffffffffffffff8111610195576101406003198236030112610195576040519061009d8261053d565b80600401358252602481013560208301526100ba60448201610590565b60408301526100cb60648201610590565b60608301526100dc60848201610590565b608083015260a481013560a08301526100f760c482016105a5565b60c083015261010860e482016105a5565b60e08301526101048101358015158103610195576101008301526101248101359067ffffffffffffffff821161019557600461014792369201016105d5565b61012082015260243567ffffffffffffffff81116101955761016d9036906004016105d5565b50515f525f60205260405f206044355f52602052602060ff60405f2054166040519015158152f35b5f80fd5b34610195576101a736610527565b905f525f60205260405f20905f52602052602060ff60405f2054166040519015158152f35b34610195575f366003190112610195576040517f00000000000000000000000000000000000000000000000000000000000000006001600160a01b03168152602090f35b34610195576020366003190112610195576004355f526001602052602060ff60405f2054166040519015158152f35b346101955761024d36610527565b6040516328c44a9960e21b8152600481018290529091907f00000000000000000000000000000000000000000000000000000000000000006001600160a01b03165f82602481845afa9081156103c4576024925f926103cf575b505f90604051938480926328c44a9960e21b82528760048301525afa9182156103c4575f926103a0575b5060c001516001600160a01b031633036103915751818115918215610386575b505061037757815f52600160205260ff60405f20541661036857805f525f60205260405f20825f5260205260405f20600160ff19825416179055815f52600160205260405f20600160ff198254161790557fd22fd165f2b163f7b94d6e2b15443105c17bfae3fa2242150644ab76a95d532e5f80a3005b6336f2b05360e21b5f5260045ffd5b630ebe58ef60e11b5f5260045ffd5b1415905081846102f1565b6331eb5cd360e11b5f5260045ffd5b6103bd9192503d805f833e6103b5818361056e565b810190610644565b90846102d1565b6040513d5f823e3d90fd5b5f9192506103e6903d8084833e6103b5818361056e565b91906102a7565b34610195576103fb36610527565b6328c44a9960e21b835260048301829052917f00000000000000000000000000000000000000000000000000000000000000006001600160a01b0316905f81602481855afa9081156103c4575f9161050d575b5060e08101516001600160a01b031633141590816104f5575b506104e6575f602491604051928380926328c44a9960e21b82528760048301525afa9081156103c4575f916104cc575b5060c001516001600160a01b0316907f93ece828de650a0159786850192cbcd721ab720e1ee81b00365a5c8d63886b315f80a4005b6104e091503d805f833e6103b5818361056e565b83610497565b63020a627d60e11b5f5260045ffd5b60c001516001600160a01b0316331415905084610467565b61052191503d805f833e6103b5818361056e565b8461044e565b6040906003190112610195576004359060243590565b610140810190811067ffffffffffffffff82111761055a57604052565b634e487b7160e01b5f52604160045260245ffd5b90601f8019910116810190811067ffffffffffffffff82111761055a57604052565b359067ffffffffffffffff8216820361019557565b35906001600160a01b038216820361019557565b67ffffffffffffffff811161055a57601f01601f191660200190565b81601f82011215610195578035906105ec826105b9565b926105fa604051948561056e565b8284526020838301011161019557815f926020809301838601378301015290565b519067ffffffffffffffff8216820361019557565b51906001600160a01b038216820361019557565b6020818303126101955780519067ffffffffffffffff821161019557019061014082820312610195576040519161067a8361053d565b80518352602081015160208401526106946040820161061b565b60408401526106a56060820161061b565b60608401526106b66080820161061b565b608084015260a081015160a08401526106d160c08201610630565b60c08401526106e260e08201610630565b60e08401526101008101518015158103610195576101008401526101208101519067ffffffffffffffff8211610195570181601f820112156101955780519061072a826105b9565b92610738604051948561056e565b8284526020838301011161019557815f9260208093018386015e830101526101208201529056fea2646970667358221220029687258c3e665e1483ad9cd8a44251746d792f98cc874ed1bf91651c1499c764736f6c634300081b0033",
    "linkReferences": {}
  },
  "methodIdentifiers": {
    "checkObligation((bytes32,bytes32,uint64,uint64,uint64,bytes32,address,address,bool,bytes),bytes,bytes32)": "e6c9714d",
    "confirm(bytes32,bytes32)": "57f784ba",
    "confirmations(bytes32,bytes32)": "887d686d",
    "eas()": "8150864d",
    "escrowConfirmed(bytes32)": "7556cad5",
    "requestConfirmation(bytes32,bytes32)": "52155df7"
  },
  "id": 53
}