{
  "abi": [
    {
      "type": "constructor",
      "inputs": [
        {
          "name": "_eas",
          "type": "address",
          "internalType": "contract IEAS"
        }
      ],
      "stateMutability": "nonpayable"
    },
    {
      "type": "function",
      "name": "checkObligation",
      "inputs": [
        {
          "name": "fulfillment",
          "type": "tuple",
          "internalType": "struct Attestation",
          "components": [
            {
              "name": "uid",
              "type": "bytes32",
              "internalType": "bytes32"
            },
            {
              "name": "schema",
              "type": "bytes32",
              "internalType": "bytes32"
            },
            {
              "name": "time",
              "type": "uint64",
              "internalType": "uint64"
            },
            {
              "name": "expirationTime",
              "type": "uint64",
              "internalType": "uint64"
            },
            {
              "name": "revocationTime",
              "type": "uint64",
              "internalType": "uint64"
            },
            {
              "name": "refUID",
              "type": "bytes32",
              "internalType": "bytes32"
            },
            {
              "name": "recipient",
              "type": "address",
              "internalType": "address"
            },
            {
              "name": "attester",
              "type": "address",
              "internalType": "address"
            },
            {
              "name": "revocable",
              "type": "bool",
              "internalType": "bool"
            },
            {
              "name": "data",
              "type": "bytes",
              "internalType": "bytes"
            }
          ]
        },
        {
          "name": "",
          "type": "bytes",
          "internalType": "bytes"
        },
        {
          "name": "fulfilling",
          "type": "bytes32",
          "internalType": "bytes32"
        }
      ],
      "outputs": [
        {
          "name": "",
          "type": "bool",
          "internalType": "bool"
        }
      ],
      "stateMutability": "view"
    },
    {
      "type": "function",
      "name": "confirm",
      "inputs": [
        {
          "name": "_fulfillment",
          "type": "bytes32",
          "internalType": "bytes32"
        },
        {
          "name": "_escrow",
          "type": "bytes32",
          "internalType": "bytes32"
        }
      ],
      "outputs": [],
      "stateMutability": "nonpayable"
    },
    {
      "type": "function",
      "name": "confirmations",
      "inputs": [
        {
          "name": "",
          "type": "bytes32",
          "internalType": "bytes32"
        },
        {
          "name": "",
          "type": "bytes32",
          "internalType": "bytes32"
        }
      ],
      "outputs": [
        {
          "name": "",
          "type": "bool",
          "internalType": "bool"
        }
      ],
      "stateMutability": "view"
    },
    {
      "type": "function",
      "name": "eas",
      "inputs": [],
      "outputs": [
        {
          "name": "",
          "type": "address",
          "internalType": "contract IEAS"
        }
      ],
      "stateMutability": "view"
    },
    {
      "type": "function",
      "name": "requestConfirmation",
      "inputs": [
        {
          "name": "_fulfillment",
          "type": "bytes32",
          "internalType": "bytes32"
        },
        {
          "name": "_escrow",
          "type": "bytes32",
          "internalType": "bytes32"
        }
      ],
      "outputs": [],
      "stateMutability": "nonpayable"
    },
    {
      "type": "function",
      "name": "revoke",
      "inputs": [
        {
          "name": "_fulfillment",
          "type": "bytes32",
          "internalType": "bytes32"
        },
        {
          "name": "_escrow",
          "type": "bytes32",
          "internalType": "bytes32"
        }
      ],
      "outputs": [],
      "stateMutability": "nonpayable"
    },
    {
      "type": "event",
      "name": "ConfirmationMade",
      "inputs": [
        {
          "name": "fulfillment",
          "type": "bytes32",
          "indexed": true,
          "internalType": "bytes32"
        },
        {
          "name": "escrow",
          "type": "bytes32",
          "indexed": true,
          "internalType": "bytes32"
        }
      ],
      "anonymous": false
    },
    {
      "type": "event",
      "name": "ConfirmationRequested",
      "inputs": [
        {
          "name": "fulfillment",
          "type": "bytes32",
          "indexed": true,
          "internalType": "bytes32"
        },
        {
          "name": "confirmer",
          "type": "address",
          "indexed": true,
          "internalType": "address"
        },
        {
          "name": "escrow",
          "type": "bytes32",
          "indexed": true,
          "internalType": "bytes32"
        }
      ],
      "anonymous": false
    },
    {
      "type": "event",
      "name": "ConfirmationRevoked",
      "inputs": [
        {
          "name": "fulfillment",
          "type": "bytes32",
          "indexed": true,
          "internalType": "bytes32"
        },
        {
          "name": "escrow",
          "type": "bytes32",
          "indexed": true,
          "internalType": "bytes32"
        }
      ],
      "anonymous": false
    },
    {
      "type": "error",
      "name": "NoConfirmationToRevoke",
      "inputs": []
    },
    {
      "type": "error",
      "name": "UnauthorizedConfirmation",
      "inputs": []
    },
    {
      "type": "error",
      "name": "UnauthorizedConfirmationRequest",
      "inputs": []
    },
    {
      "type": "error",
      "name": "UnauthorizedRevocation",
      "inputs": []
    }
  ],
  "bytecode": {
    "object": "0x60a03461007f57601f61085b38819003918201601f19168301916001600160401b038311848410176100835780849260209460405283398101031261007f57516001600160a01b038116810361007f576080526040516107c3908161009882396080518181816101c50152818161030501528181610360015261043d0152f35b5f80fd5b634e487b7160e01b5f52604160045260245ffdfe6080806040526004361015610012575f80fd5b5f3560e01c90816352155df71461041b5750806357f784ba146103345780638150864d146102f0578063887d686d146102bd578063c2664610146101995763e6c9714d1461005e575f80fd5b346101955760603660031901126101955760043567ffffffffffffffff8111610195576101406003198236030112610195576040519061009d8261056b565b80600401358252602481013560208301526100ba604482016105be565b60408301526100cb606482016105be565b60608301526100dc608482016105be565b608083015260a481013560a08301526100f760c482016105d3565b60c083015261010860e482016105d3565b60e08301526101048101358015158103610195576101008301526101248101359067ffffffffffffffff82116101955760046101479236920101610603565b61012082015260243567ffffffffffffffff81116101955761016d903690600401610603565b50515f525f60205260405f206044355f52602052602060ff60405f2054166040519015158152f35b5f80fd5b34610195576101a736610555565b6040516328c44a9960e21b8152600481018290529091905f816024817f00000000000000000000000000000000000000000000000000000000000000006001600160a01b03165afa9081156102b2575f91610290575b5060c001516001600160a01b0316330361028157805f525f60205260405f20825f5260205260ff60405f2054161561027257805f525f60205260405f20825f5260205260405f2060ff1981541690557f137a0dfcce695307235e039aa2ae70da634ed7f10a6a5a536b3a8c15d758aa1e5f80a3005b6339abb17d60e01b5f5260045ffd5b630feaf7d560e31b5f5260045ffd5b6102ac91503d805f833e6102a4818361059c565b810190610672565b836101fd565b6040513d5f823e3d90fd5b34610195576102cb36610555565b905f525f60205260405f20905f52602052602060ff60405f2054166040519015158152f35b34610195575f366003190112610195576040517f00000000000000000000000000000000000000000000000000000000000000006001600160a01b03168152602090f35b346101955761034236610555565b6040516328c44a9960e21b8152600481018290529091905f816024817f00000000000000000000000000000000000000000000000000000000000000006001600160a01b03165afa9081156102b2575f91610401575b5060c001516001600160a01b031633036103f257805f525f60205260405f20825f5260205260405f20600160ff198254161790557fd22fd165f2b163f7b94d6e2b15443105c17bfae3fa2242150644ab76a95d532e5f80a3005b6331eb5cd360e11b5f5260045ffd5b61041591503d805f833e6102a4818361059c565b83610398565b346101955761042936610555565b6328c44a9960e21b835260048301829052917f00000000000000000000000000000000000000000000000000000000000000006001600160a01b0316905f81602481855afa9081156102b2575f9161053b575b5060e08101516001600160a01b03163314159081610523575b50610514575f602491604051928380926328c44a9960e21b82528760048301525afa9081156102b2575f916104fa575b5060c001516001600160a01b0316907f93ece828de650a0159786850192cbcd721ab720e1ee81b00365a5c8d63886b315f80a4005b61050e91503d805f833e6102a4818361059c565b836104c5565b63020a627d60e11b5f5260045ffd5b60c001516001600160a01b0316331415905084610495565b61054f91503d805f833e6102a4818361059c565b8461047c565b6040906003190112610195576004359060243590565b610140810190811067ffffffffffffffff82111761058857604052565b634e487b7160e01b5f52604160045260245ffd5b90601f8019910116810190811067ffffffffffffffff82111761058857604052565b359067ffffffffffffffff8216820361019557565b35906001600160a01b038216820361019557565b67ffffffffffffffff811161058857601f01601f191660200190565b81601f820112156101955780359061061a826105e7565b92610628604051948561059c565b8284526020838301011161019557815f926020809301838601378301015290565b519067ffffffffffffffff8216820361019557565b51906001600160a01b038216820361019557565b6020818303126101955780519067ffffffffffffffff82116101955701906101408282031261019557604051916106a88361056b565b80518352602081015160208401526106c260408201610649565b60408401526106d360608201610649565b60608401526106e460808201610649565b608084015260a081015160a08401526106ff60c0820161065e565b60c084015261071060e0820161065e565b60e08401526101008101518015158103610195576101008401526101208101519067ffffffffffffffff8211610195570181601f8201121561019557805190610758826105e7565b92610766604051948561059c565b8284526020838301011161019557815f9260208093018386015e830101526101208201529056fea2646970667358221220c134e8f619c6e9edfcd11d111ec571ca41feeea05fa41a961afe835659ac180164736f6c634300081b0033",
    "linkReferences": {}
  },
  "methodIdentifiers": {
    "checkObligation((bytes32,bytes32,uint64,uint64,uint64,bytes32,address,address,bool,bytes),bytes,bytes32)": "e6c9714d",
    "confirm(bytes32,bytes32)": "57f784ba",
    "confirmations(bytes32,bytes32)": "887d686d",
    "eas()": "8150864d",
    "requestConfirmation(bytes32,bytes32)": "52155df7",
    "revoke(bytes32,bytes32)": "c2664610"
  },
  "id": 97
}