{
  "abi": [
    {
      "type": "constructor",
      "inputs": [
        {
          "name": "_eas",
          "type": "address",
          "internalType": "contract IEAS"
        }
      ],
      "stateMutability": "nonpayable"
    },
    {
      "type": "function",
      "name": "check",
      "inputs": [
        {
          "name": "fulfillment",
          "type": "tuple",
          "internalType": "struct Attestation",
          "components": [
            {
              "name": "uid",
              "type": "bytes32",
              "internalType": "bytes32"
            },
            {
              "name": "schema",
              "type": "bytes32",
              "internalType": "bytes32"
            },
            {
              "name": "time",
              "type": "uint64",
              "internalType": "uint64"
            },
            {
              "name": "expirationTime",
              "type": "uint64",
              "internalType": "uint64"
            },
            {
              "name": "revocationTime",
              "type": "uint64",
              "internalType": "uint64"
            },
            {
              "name": "refUID",
              "type": "bytes32",
              "internalType": "bytes32"
            },
            {
              "name": "recipient",
              "type": "address",
              "internalType": "address"
            },
            {
              "name": "attester",
              "type": "address",
              "internalType": "address"
            },
            {
              "name": "revocable",
              "type": "bool",
              "internalType": "bool"
            },
            {
              "name": "data",
              "type": "bytes",
              "internalType": "bytes"
            }
          ]
        },
        {
          "name": "",
          "type": "bytes",
          "internalType": "bytes"
        },
        {
          "name": "escrowUid",
          "type": "bytes32",
          "internalType": "bytes32"
        }
      ],
      "outputs": [
        {
          "name": "",
          "type": "bool",
          "internalType": "bool"
        }
      ],
      "stateMutability": "view"
    },
    {
      "type": "function",
      "name": "confirm",
      "inputs": [
        {
          "name": "_fulfillment",
          "type": "bytes32",
          "internalType": "bytes32"
        },
        {
          "name": "_escrow",
          "type": "bytes32",
          "internalType": "bytes32"
        }
      ],
      "outputs": [],
      "stateMutability": "nonpayable"
    },
    {
      "type": "function",
      "name": "confirmations",
      "inputs": [
        {
          "name": "",
          "type": "bytes32",
          "internalType": "bytes32"
        },
        {
          "name": "",
          "type": "bytes32",
          "internalType": "bytes32"
        }
      ],
      "outputs": [
        {
          "name": "",
          "type": "bool",
          "internalType": "bool"
        }
      ],
      "stateMutability": "view"
    },
    {
      "type": "function",
      "name": "eas",
      "inputs": [],
      "outputs": [
        {
          "name": "",
          "type": "address",
          "internalType": "contract IEAS"
        }
      ],
      "stateMutability": "view"
    },
    {
      "type": "function",
      "name": "requestConfirmation",
      "inputs": [
        {
          "name": "_fulfillment",
          "type": "bytes32",
          "internalType": "bytes32"
        },
        {
          "name": "_escrow",
          "type": "bytes32",
          "internalType": "bytes32"
        }
      ],
      "outputs": [],
      "stateMutability": "nonpayable"
    },
    {
      "type": "function",
      "name": "supportsInterface",
      "inputs": [
        {
          "name": "interfaceId",
          "type": "bytes4",
          "internalType": "bytes4"
        }
      ],
      "outputs": [
        {
          "name": "",
          "type": "bool",
          "internalType": "bool"
        }
      ],
      "stateMutability": "view"
    },
    {
      "type": "event",
      "name": "ConfirmationMade",
      "inputs": [
        {
          "name": "fulfillment",
          "type": "bytes32",
          "indexed": true,
          "internalType": "bytes32"
        },
        {
          "name": "escrow",
          "type": "bytes32",
          "indexed": true,
          "internalType": "bytes32"
        }
      ],
      "anonymous": false
    },
    {
      "type": "event",
      "name": "ConfirmationRequested",
      "inputs": [
        {
          "name": "fulfillment",
          "type": "bytes32",
          "indexed": true,
          "internalType": "bytes32"
        },
        {
          "name": "confirmer",
          "type": "address",
          "indexed": true,
          "internalType": "address"
        },
        {
          "name": "escrow",
          "type": "bytes32",
          "indexed": true,
          "internalType": "bytes32"
        }
      ],
      "anonymous": false
    },
    {
      "type": "error",
      "name": "InvalidFulfillment",
      "inputs": []
    },
    {
      "type": "error",
      "name": "UnauthorizedConfirmation",
      "inputs": []
    },
    {
      "type": "error",
      "name": "UnauthorizedConfirmationRequest",
      "inputs": []
    }
  ],
  "bytecode": {
    "object": "0x60a034607457601f61081138819003918201601f19168301916001600160401b03831184841017607857808492602094604052833981010312607457516001600160a01b0381168103607457608052604051610784908161008d82396080518181816101e10152818161023701526103ab0152f35b5f80fd5b634e487b7160e01b5f52604160045260245ffdfe6080806040526004361015610012575f80fd5b5f3560e01c90816301ffc9a7146104c35750806352155df71461038457806357f784ba146102105780638150864d146101cc578063887d686d1461019957638da3721a1461005e575f80fd5b346101955760603660031901126101955760043567ffffffffffffffff8111610195576101406003198236030112610195576040519061009d8261052c565b80600401358252602481013560208301526100ba6044820161057f565b60408301526100cb6064820161057f565b60608301526100dc6084820161057f565b608083015260a481013560a08301526100f760c48201610594565b60c083015261010860e48201610594565b60e08301526101048101358015158103610195576101008301526101248101359067ffffffffffffffff821161019557600461014792369201016105c4565b61012082015260243567ffffffffffffffff81116101955761016d9036906004016105c4565b50515f525f60205260405f206044355f52602052602060ff60405f2054166040519015158152f35b5f80fd5b34610195576101a736610516565b905f525f60205260405f20905f52602052602060ff60405f2054166040519015158152f35b34610195575f366003190112610195576040517f00000000000000000000000000000000000000000000000000000000000000006001600160a01b03168152602090f35b346101955761021e36610516565b6040516328c44a9960e21b8152600481018290529091907f00000000000000000000000000000000000000000000000000000000000000006001600160a01b03165f82602481845afa90811561035b576024925f92610366575b505f90604051938480926328c44a9960e21b82528760048301525afa91821561035b575f92610337575b5060c001516001600160a01b03163303610328575181811591821561031d575b505061030e57805f525f60205260405f20825f5260205260405f20600160ff198254161790557fd22fd165f2b163f7b94d6e2b15443105c17bfae3fa2242150644ab76a95d532e5f80a3005b630ebe58ef60e11b5f5260045ffd5b1415905081846102c2565b6331eb5cd360e11b5f5260045ffd5b6103549192503d805f833e61034c818361055d565b810190610633565b90846102a2565b6040513d5f823e3d90fd5b5f91925061037d903d8084833e61034c818361055d565b9190610278565b346101955761039236610516565b6040516328c44a9960e21b8152600481018390529091907f00000000000000000000000000000000000000000000000000000000000000006001600160a01b0316905f81602481855afa90811561035b575f916104a9575b5060e08101516001600160a01b03163314159081610491575b50610482575f602491604051928380926328c44a9960e21b82528760048301525afa90811561035b575f91610468575b5060c001516001600160a01b0316907f93ece828de650a0159786850192cbcd721ab720e1ee81b00365a5c8d63886b315f80a4005b61047c91503d805f833e61034c818361055d565b83610433565b63020a627d60e11b5f5260045ffd5b60c001516001600160a01b0316331415905084610403565b6104bd91503d805f833e61034c818361055d565b846103ea565b34610195576020366003190112610195576004359063ffffffff60e01b8216809203610195576020916346d1b90d60e11b8114908115610505575b5015158152f35b6301ffc9a760e01b149050836104fe565b6040906003190112610195576004359060243590565b610140810190811067ffffffffffffffff82111761054957604052565b634e487b7160e01b5f52604160045260245ffd5b90601f8019910116810190811067ffffffffffffffff82111761054957604052565b359067ffffffffffffffff8216820361019557565b35906001600160a01b038216820361019557565b67ffffffffffffffff811161054957601f01601f191660200190565b81601f82011215610195578035906105db826105a8565b926105e9604051948561055d565b8284526020838301011161019557815f926020809301838601378301015290565b519067ffffffffffffffff8216820361019557565b51906001600160a01b038216820361019557565b6020818303126101955780519067ffffffffffffffff82116101955701906101408282031261019557604051916106698361052c565b80518352602081015160208401526106836040820161060a565b60408401526106946060820161060a565b60608401526106a56080820161060a565b608084015260a081015160a08401526106c060c0820161061f565b60c08401526106d160e0820161061f565b60e08401526101008101518015158103610195576101008401526101208101519067ffffffffffffffff8211610195570181601f8201121561019557805190610719826105a8565b92610727604051948561055d565b8284526020838301011161019557815f9260208093018386015e830101526101208201529056fea26469706673582212204e601ab712a5aee3a9782346a6a3adbf9dc0b6a828e6585b94a3501452f92ec764736f6c634300081b0033",
    "linkReferences": {}
  },
  "methodIdentifiers": {
    "check((bytes32,bytes32,uint64,uint64,uint64,bytes32,address,address,bool,bytes),bytes,bytes32)": "8da3721a",
    "confirm(bytes32,bytes32)": "57f784ba",
    "confirmations(bytes32,bytes32)": "887d686d",
    "eas()": "8150864d",
    "requestConfirmation(bytes32,bytes32)": "52155df7",
    "supportsInterface(bytes4)": "01ffc9a7"
  },
  "id": 113
}