{
  "abi": [
    {
      "type": "constructor",
      "inputs": [
        {
          "name": "_eas",
          "type": "address",
          "internalType": "contract IEAS"
        },
        {
          "name": "_schemaRegistry",
          "type": "address",
          "internalType": "contract ISchemaRegistry"
        },
        {
          "name": "_commitDeadline",
          "type": "uint256",
          "internalType": "uint256"
        },
        {
          "name": "_slashedBondRecipient",
          "type": "address",
          "internalType": "address"
        }
      ],
      "stateMutability": "nonpayable"
    },
    {
      "type": "receive",
      "stateMutability": "payable"
    },
    {
      "type": "function",
      "name": "ATTESTATION_SCHEMA",
      "inputs": [],
      "outputs": [
        {
          "name": "",
          "type": "bytes32",
          "internalType": "bytes32"
        }
      ],
      "stateMutability": "view"
    },
    {
      "type": "function",
      "name": "attest",
      "inputs": [
        {
          "name": "attestation",
          "type": "tuple",
          "internalType": "struct Attestation",
          "components": [
            {
              "name": "uid",
              "type": "bytes32",
              "internalType": "bytes32"
            },
            {
              "name": "schema",
              "type": "bytes32",
              "internalType": "bytes32"
            },
            {
              "name": "time",
              "type": "uint64",
              "internalType": "uint64"
            },
            {
              "name": "expirationTime",
              "type": "uint64",
              "internalType": "uint64"
            },
            {
              "name": "revocationTime",
              "type": "uint64",
              "internalType": "uint64"
            },
            {
              "name": "refUID",
              "type": "bytes32",
              "internalType": "bytes32"
            },
            {
              "name": "recipient",
              "type": "address",
              "internalType": "address"
            },
            {
              "name": "attester",
              "type": "address",
              "internalType": "address"
            },
            {
              "name": "revocable",
              "type": "bool",
              "internalType": "bool"
            },
            {
              "name": "data",
              "type": "bytes",
              "internalType": "bytes"
            }
          ]
        }
      ],
      "outputs": [
        {
          "name": "",
          "type": "bool",
          "internalType": "bool"
        }
      ],
      "stateMutability": "payable"
    },
    {
      "type": "function",
      "name": "checkObligation",
      "inputs": [
        {
          "name": "obligation",
          "type": "tuple",
          "internalType": "struct Attestation",
          "components": [
            {
              "name": "uid",
              "type": "bytes32",
              "internalType": "bytes32"
            },
            {
              "name": "schema",
              "type": "bytes32",
              "internalType": "bytes32"
            },
            {
              "name": "time",
              "type": "uint64",
              "internalType": "uint64"
            },
            {
              "name": "expirationTime",
              "type": "uint64",
              "internalType": "uint64"
            },
            {
              "name": "revocationTime",
              "type": "uint64",
              "internalType": "uint64"
            },
            {
              "name": "refUID",
              "type": "bytes32",
              "internalType": "bytes32"
            },
            {
              "name": "recipient",
              "type": "address",
              "internalType": "address"
            },
            {
              "name": "attester",
              "type": "address",
              "internalType": "address"
            },
            {
              "name": "revocable",
              "type": "bool",
              "internalType": "bool"
            },
            {
              "name": "data",
              "type": "bytes",
              "internalType": "bytes"
            }
          ]
        },
        {
          "name": "demand",
          "type": "bytes",
          "internalType": "bytes"
        },
        {
          "name": "",
          "type": "bytes32",
          "internalType": "bytes32"
        }
      ],
      "outputs": [
        {
          "name": "",
          "type": "bool",
          "internalType": "bool"
        }
      ],
      "stateMutability": "view"
    },
    {
      "type": "function",
      "name": "commit",
      "inputs": [
        {
          "name": "commitment",
          "type": "bytes32",
          "internalType": "bytes32"
        }
      ],
      "outputs": [],
      "stateMutability": "payable"
    },
    {
      "type": "function",
      "name": "commitDeadline",
      "inputs": [],
      "outputs": [
        {
          "name": "",
          "type": "uint256",
          "internalType": "uint256"
        }
      ],
      "stateMutability": "view"
    },
    {
      "type": "function",
      "name": "commitmentClaimed",
      "inputs": [
        {
          "name": "",
          "type": "bytes32",
          "internalType": "bytes32"
        }
      ],
      "outputs": [
        {
          "name": "",
          "type": "bool",
          "internalType": "bool"
        }
      ],
      "stateMutability": "view"
    },
    {
      "type": "function",
      "name": "commitments",
      "inputs": [
        {
          "name": "",
          "type": "bytes32",
          "internalType": "bytes32"
        }
      ],
      "outputs": [
        {
          "name": "commitBlock",
          "type": "uint64",
          "internalType": "uint64"
        },
        {
          "name": "commitTimestamp",
          "type": "uint64",
          "internalType": "uint64"
        },
        {
          "name": "committer",
          "type": "address",
          "internalType": "address"
        },
        {
          "name": "bondAmount",
          "type": "uint256",
          "internalType": "uint256"
        }
      ],
      "stateMutability": "view"
    },
    {
      "type": "function",
      "name": "computeCommitment",
      "inputs": [
        {
          "name": "refUID",
          "type": "bytes32",
          "internalType": "bytes32"
        },
        {
          "name": "claimer",
          "type": "address",
          "internalType": "address"
        },
        {
          "name": "data",
          "type": "tuple",
          "internalType": "struct CommitRevealObligation.ObligationData",
          "components": [
            {
              "name": "payload",
              "type": "bytes",
              "internalType": "bytes"
            },
            {
              "name": "salt",
              "type": "bytes32",
              "internalType": "bytes32"
            },
            {
              "name": "schema",
              "type": "bytes32",
              "internalType": "bytes32"
            }
          ]
        }
      ],
      "outputs": [
        {
          "name": "",
          "type": "bytes32",
          "internalType": "bytes32"
        }
      ],
      "stateMutability": "pure"
    },
    {
      "type": "function",
      "name": "decodeDemandData",
      "inputs": [
        {
          "name": "data",
          "type": "bytes",
          "internalType": "bytes"
        }
      ],
      "outputs": [
        {
          "name": "",
          "type": "tuple",
          "internalType": "struct CommitRevealObligation.DemandData",
          "components": [
            {
              "name": "bondAmount",
              "type": "uint256",
              "internalType": "uint256"
            }
          ]
        }
      ],
      "stateMutability": "pure"
    },
    {
      "type": "function",
      "name": "decodeObligationData",
      "inputs": [
        {
          "name": "data",
          "type": "bytes",
          "internalType": "bytes"
        }
      ],
      "outputs": [
        {
          "name": "",
          "type": "tuple",
          "internalType": "struct CommitRevealObligation.ObligationData",
          "components": [
            {
              "name": "payload",
              "type": "bytes",
              "internalType": "bytes"
            },
            {
              "name": "salt",
              "type": "bytes32",
              "internalType": "bytes32"
            },
            {
              "name": "schema",
              "type": "bytes32",
              "internalType": "bytes32"
            }
          ]
        }
      ],
      "stateMutability": "pure"
    },
    {
      "type": "function",
      "name": "doObligation",
      "inputs": [
        {
          "name": "data",
          "type": "tuple",
          "internalType": "struct CommitRevealObligation.ObligationData",
          "components": [
            {
              "name": "payload",
              "type": "bytes",
              "internalType": "bytes"
            },
            {
              "name": "salt",
              "type": "bytes32",
              "internalType": "bytes32"
            },
            {
              "name": "schema",
              "type": "bytes32",
              "internalType": "bytes32"
            }
          ]
        },
        {
          "name": "refUID",
          "type": "bytes32",
          "internalType": "bytes32"
        }
      ],
      "outputs": [
        {
          "name": "uid_",
          "type": "bytes32",
          "internalType": "bytes32"
        }
      ],
      "stateMutability": "nonpayable"
    },
    {
      "type": "function",
      "name": "doObligationFor",
      "inputs": [
        {
          "name": "data",
          "type": "tuple",
          "internalType": "struct CommitRevealObligation.ObligationData",
          "components": [
            {
              "name": "payload",
              "type": "bytes",
              "internalType": "bytes"
            },
            {
              "name": "salt",
              "type": "bytes32",
              "internalType": "bytes32"
            },
            {
              "name": "schema",
              "type": "bytes32",
              "internalType": "bytes32"
            }
          ]
        },
        {
          "name": "recipient",
          "type": "address",
          "internalType": "address"
        },
        {
          "name": "refUID",
          "type": "bytes32",
          "internalType": "bytes32"
        }
      ],
      "outputs": [
        {
          "name": "uid_",
          "type": "bytes32",
          "internalType": "bytes32"
        }
      ],
      "stateMutability": "nonpayable"
    },
    {
      "type": "function",
      "name": "doObligationRaw",
      "inputs": [
        {
          "name": "data",
          "type": "bytes",
          "internalType": "bytes"
        },
        {
          "name": "expirationTime",
          "type": "uint64",
          "internalType": "uint64"
        },
        {
          "name": "refUID",
          "type": "bytes32",
          "internalType": "bytes32"
        }
      ],
      "outputs": [
        {
          "name": "uid_",
          "type": "bytes32",
          "internalType": "bytes32"
        }
      ],
      "stateMutability": "payable"
    },
    {
      "type": "function",
      "name": "getObligationData",
      "inputs": [
        {
          "name": "uid",
          "type": "bytes32",
          "internalType": "bytes32"
        }
      ],
      "outputs": [
        {
          "name": "",
          "type": "tuple",
          "internalType": "struct CommitRevealObligation.ObligationData",
          "components": [
            {
              "name": "payload",
              "type": "bytes",
              "internalType": "bytes"
            },
            {
              "name": "salt",
              "type": "bytes32",
              "internalType": "bytes32"
            },
            {
              "name": "schema",
              "type": "bytes32",
              "internalType": "bytes32"
            }
          ]
        }
      ],
      "stateMutability": "view"
    },
    {
      "type": "function",
      "name": "getSchema",
      "inputs": [],
      "outputs": [
        {
          "name": "",
          "type": "tuple",
          "internalType": "struct SchemaRecord",
          "components": [
            {
              "name": "uid",
              "type": "bytes32",
              "internalType": "bytes32"
            },
            {
              "name": "resolver",
              "type": "address",
              "internalType": "contract ISchemaResolver"
            },
            {
              "name": "revocable",
              "type": "bool",
              "internalType": "bool"
            },
            {
              "name": "schema",
              "type": "string",
              "internalType": "string"
            }
          ]
        }
      ],
      "stateMutability": "view"
    },
    {
      "type": "function",
      "name": "isPayable",
      "inputs": [],
      "outputs": [
        {
          "name": "",
          "type": "bool",
          "internalType": "bool"
        }
      ],
      "stateMutability": "pure"
    },
    {
      "type": "function",
      "name": "multiAttest",
      "inputs": [
        {
          "name": "attestations",
          "type": "tuple[]",
          "internalType": "struct Attestation[]",
          "components": [
            {
              "name": "uid",
              "type": "bytes32",
              "internalType": "bytes32"
            },
            {
              "name": "schema",
              "type": "bytes32",
              "internalType": "bytes32"
            },
            {
              "name": "time",
              "type": "uint64",
              "internalType": "uint64"
            },
            {
              "name": "expirationTime",
              "type": "uint64",
              "internalType": "uint64"
            },
            {
              "name": "revocationTime",
              "type": "uint64",
              "internalType": "uint64"
            },
            {
              "name": "refUID",
              "type": "bytes32",
              "internalType": "bytes32"
            },
            {
              "name": "recipient",
              "type": "address",
              "internalType": "address"
            },
            {
              "name": "attester",
              "type": "address",
              "internalType": "address"
            },
            {
              "name": "revocable",
              "type": "bool",
              "internalType": "bool"
            },
            {
              "name": "data",
              "type": "bytes",
              "internalType": "bytes"
            }
          ]
        },
        {
          "name": "values",
          "type": "uint256[]",
          "internalType": "uint256[]"
        }
      ],
      "outputs": [
        {
          "name": "",
          "type": "bool",
          "internalType": "bool"
        }
      ],
      "stateMutability": "payable"
    },
    {
      "type": "function",
      "name": "multiRevoke",
      "inputs": [
        {
          "name": "attestations",
          "type": "tuple[]",
          "internalType": "struct Attestation[]",
          "components": [
            {
              "name": "uid",
              "type": "bytes32",
              "internalType": "bytes32"
            },
            {
              "name": "schema",
              "type": "bytes32",
              "internalType": "bytes32"
            },
            {
              "name": "time",
              "type": "uint64",
              "internalType": "uint64"
            },
            {
              "name": "expirationTime",
              "type": "uint64",
              "internalType": "uint64"
            },
            {
              "name": "revocationTime",
              "type": "uint64",
              "internalType": "uint64"
            },
            {
              "name": "refUID",
              "type": "bytes32",
              "internalType": "bytes32"
            },
            {
              "name": "recipient",
              "type": "address",
              "internalType": "address"
            },
            {
              "name": "attester",
              "type": "address",
              "internalType": "address"
            },
            {
              "name": "revocable",
              "type": "bool",
              "internalType": "bool"
            },
            {
              "name": "data",
              "type": "bytes",
              "internalType": "bytes"
            }
          ]
        },
        {
          "name": "values",
          "type": "uint256[]",
          "internalType": "uint256[]"
        }
      ],
      "outputs": [
        {
          "name": "",
          "type": "bool",
          "internalType": "bool"
        }
      ],
      "stateMutability": "payable"
    },
    {
      "type": "function",
      "name": "owner",
      "inputs": [],
      "outputs": [
        {
          "name": "",
          "type": "address",
          "internalType": "address"
        }
      ],
      "stateMutability": "view"
    },
    {
      "type": "function",
      "name": "renounceOwnership",
      "inputs": [],
      "outputs": [],
      "stateMutability": "nonpayable"
    },
    {
      "type": "function",
      "name": "revealAndCollect",
      "inputs": [
        {
          "name": "data",
          "type": "tuple",
          "internalType": "struct CommitRevealObligation.ObligationData",
          "components": [
            {
              "name": "payload",
              "type": "bytes",
              "internalType": "bytes"
            },
            {
              "name": "salt",
              "type": "bytes32",
              "internalType": "bytes32"
            },
            {
              "name": "schema",
              "type": "bytes32",
              "internalType": "bytes32"
            }
          ]
        },
        {
          "name": "recipient",
          "type": "address",
          "internalType": "address"
        },
        {
          "name": "escrowContract",
          "type": "address",
          "internalType": "address"
        },
        {
          "name": "escrowUid",
          "type": "bytes32",
          "internalType": "bytes32"
        }
      ],
      "outputs": [
        {
          "name": "fulfillmentUid",
          "type": "bytes32",
          "internalType": "bytes32"
        },
        {
          "name": "collectResult",
          "type": "bytes",
          "internalType": "bytes"
        }
      ],
      "stateMutability": "nonpayable"
    },
    {
      "type": "function",
      "name": "revoke",
      "inputs": [
        {
          "name": "attestation",
          "type": "tuple",
          "internalType": "struct Attestation",
          "components": [
            {
              "name": "uid",
              "type": "bytes32",
              "internalType": "bytes32"
            },
            {
              "name": "schema",
              "type": "bytes32",
              "internalType": "bytes32"
            },
            {
              "name": "time",
              "type": "uint64",
              "internalType": "uint64"
            },
            {
              "name": "expirationTime",
              "type": "uint64",
              "internalType": "uint64"
            },
            {
              "name": "revocationTime",
              "type": "uint64",
              "internalType": "uint64"
            },
            {
              "name": "refUID",
              "type": "bytes32",
              "internalType": "bytes32"
            },
            {
              "name": "recipient",
              "type": "address",
              "internalType": "address"
            },
            {
              "name": "attester",
              "type": "address",
              "internalType": "address"
            },
            {
              "name": "revocable",
              "type": "bool",
              "internalType": "bool"
            },
            {
              "name": "data",
              "type": "bytes",
              "internalType": "bytes"
            }
          ]
        }
      ],
      "outputs": [
        {
          "name": "",
          "type": "bool",
          "internalType": "bool"
        }
      ],
      "stateMutability": "payable"
    },
    {
      "type": "function",
      "name": "setCommitDeadline",
      "inputs": [
        {
          "name": "_commitDeadline",
          "type": "uint256",
          "internalType": "uint256"
        }
      ],
      "outputs": [],
      "stateMutability": "nonpayable"
    },
    {
      "type": "function",
      "name": "setSlashedBondRecipient",
      "inputs": [
        {
          "name": "_slashedBondRecipient",
          "type": "address",
          "internalType": "address"
        }
      ],
      "outputs": [],
      "stateMutability": "nonpayable"
    },
    {
      "type": "function",
      "name": "slashBond",
      "inputs": [
        {
          "name": "commitment",
          "type": "bytes32",
          "internalType": "bytes32"
        }
      ],
      "outputs": [
        {
          "name": "amount",
          "type": "uint256",
          "internalType": "uint256"
        }
      ],
      "stateMutability": "nonpayable"
    },
    {
      "type": "function",
      "name": "slashedBondRecipient",
      "inputs": [],
      "outputs": [
        {
          "name": "",
          "type": "address",
          "internalType": "address"
        }
      ],
      "stateMutability": "view"
    },
    {
      "type": "function",
      "name": "transferOwnership",
      "inputs": [
        {
          "name": "newOwner",
          "type": "address",
          "internalType": "address"
        }
      ],
      "outputs": [],
      "stateMutability": "nonpayable"
    },
    {
      "type": "function",
      "name": "version",
      "inputs": [],
      "outputs": [
        {
          "name": "",
          "type": "string",
          "internalType": "string"
        }
      ],
      "stateMutability": "view"
    },
    {
      "type": "event",
      "name": "BondReclaimed",
      "inputs": [
        {
          "name": "obligationUid",
          "type": "bytes32",
          "indexed": true,
          "internalType": "bytes32"
        },
        {
          "name": "claimer",
          "type": "address",
          "indexed": true,
          "internalType": "address"
        },
        {
          "name": "amount",
          "type": "uint256",
          "indexed": false,
          "internalType": "uint256"
        }
      ],
      "anonymous": false
    },
    {
      "type": "event",
      "name": "BondSlashed",
      "inputs": [
        {
          "name": "commitment",
          "type": "bytes32",
          "indexed": true,
          "internalType": "bytes32"
        },
        {
          "name": "recipient",
          "type": "address",
          "indexed": true,
          "internalType": "address"
        },
        {
          "name": "amount",
          "type": "uint256",
          "indexed": false,
          "internalType": "uint256"
        }
      ],
      "anonymous": false
    },
    {
      "type": "event",
      "name": "Committed",
      "inputs": [
        {
          "name": "commitment",
          "type": "bytes32",
          "indexed": true,
          "internalType": "bytes32"
        },
        {
          "name": "claimer",
          "type": "address",
          "indexed": true,
          "internalType": "address"
        },
        {
          "name": "amount",
          "type": "uint256",
          "indexed": false,
          "internalType": "uint256"
        }
      ],
      "anonymous": false
    },
    {
      "type": "event",
      "name": "OwnershipTransferred",
      "inputs": [
        {
          "name": "previousOwner",
          "type": "address",
          "indexed": true,
          "internalType": "address"
        },
        {
          "name": "newOwner",
          "type": "address",
          "indexed": true,
          "internalType": "address"
        }
      ],
      "anonymous": false
    },
    {
      "type": "error",
      "name": "AccessDenied",
      "inputs": []
    },
    {
      "type": "error",
      "name": "BondAlreadyClaimed",
      "inputs": [
        {
          "name": "commitment",
          "type": "bytes32",
          "internalType": "bytes32"
        }
      ]
    },
    {
      "type": "error",
      "name": "BondTransferFailed",
      "inputs": [
        {
          "name": "claimer",
          "type": "address",
          "internalType": "address"
        },
        {
          "name": "amount",
          "type": "uint256",
          "internalType": "uint256"
        }
      ]
    },
    {
      "type": "error",
      "name": "CommitDeadlineNotReached",
      "inputs": [
        {
          "name": "commitment",
          "type": "bytes32",
          "internalType": "bytes32"
        }
      ]
    },
    {
      "type": "error",
      "name": "CommitmentAlreadyExists",
      "inputs": [
        {
          "name": "commitment",
          "type": "bytes32",
          "internalType": "bytes32"
        }
      ]
    },
    {
      "type": "error",
      "name": "CommitmentMissing",
      "inputs": [
        {
          "name": "commitment",
          "type": "bytes32",
          "internalType": "bytes32"
        },
        {
          "name": "claimer",
          "type": "address",
          "internalType": "address"
        }
      ]
    },
    {
      "type": "error",
      "name": "CommitmentTooRecent",
      "inputs": [
        {
          "name": "commitment",
          "type": "bytes32",
          "internalType": "bytes32"
        },
        {
          "name": "claimer",
          "type": "address",
          "internalType": "address"
        }
      ]
    },
    {
      "type": "error",
      "name": "EmptyCommitment",
      "inputs": []
    },
    {
      "type": "error",
      "name": "EscrowCollectionFailed",
      "inputs": [
        {
          "name": "escrowContract",
          "type": "address",
          "internalType": "address"
        },
        {
          "name": "escrowUid",
          "type": "bytes32",
          "internalType": "bytes32"
        },
        {
          "name": "fulfillmentUid",
          "type": "bytes32",
          "internalType": "bytes32"
        },
        {
          "name": "result",
          "type": "bytes",
          "internalType": "bytes"
        }
      ]
    },
    {
      "type": "error",
      "name": "InsufficientValue",
      "inputs": []
    },
    {
      "type": "error",
      "name": "InvalidEAS",
      "inputs": []
    },
    {
      "type": "error",
      "name": "InvalidLength",
      "inputs": []
    },
    {
      "type": "error",
      "name": "NotFromThisAttester",
      "inputs": []
    },
    {
      "type": "error",
      "name": "NotPayable",
      "inputs": []
    },
    {
      "type": "error",
      "name": "OwnableInvalidOwner",
      "inputs": [
        {
          "name": "owner",
          "type": "address",
          "internalType": "address"
        }
      ]
    },
    {
      "type": "error",
      "name": "OwnableUnauthorizedAccount",
      "inputs": [
        {
          "name": "account",
          "type": "address",
          "internalType": "address"
        }
      ]
    },
    {
      "type": "error",
      "name": "ReentrancyGuardReentrantCall",
      "inputs": []
    },
    {
      "type": "error",
      "name": "RevealTooLate",
      "inputs": [
        {
          "name": "commitment",
          "type": "bytes32",
          "internalType": "bytes32"
        }
      ]
    },
    {
      "type": "error",
      "name": "SchemaRegistrationFailed",
      "inputs": [
        {
          "name": "uid",
          "type": "bytes32",
          "internalType": "bytes32"
        }
      ]
    },
    {
      "type": "error",
      "name": "SlashTransferFailed",
      "inputs": [
        {
          "name": "recipient",
          "type": "address",
          "internalType": "address"
        },
        {
          "name": "amount",
          "type": "uint256",
          "internalType": "uint256"
        }
      ]
    },
    {
      "type": "error",
      "name": "ZeroBondAmount",
      "inputs": []
    }
  ],
  "bytecode": {
    "object": "0x61016080604052346102195760808161268a8038038091610020828561021d565b8339810103126102195780516001600160a01b03811690818103610219576020830151916001600160a01b038316908184036102195760408501516060909501516001600160a01b0381169490859003610219576040519161008360608461021d565b602b83527f6279746573207061796c6f61642c20627974657333322073616c742c2062797460208401526a6573333220736368656d6160a81b60408401526001608052600360a0525f60c0521561020a57836100eb9460e05261012052610100523091610338565b6101405260017f9b779b17422d0df92223018b32b4d1fa46e071723d6817e2486d003becc55f005533156101f7575f8054336001600160a01b0319821681178355604051949290916001600160a01b0316907f8be0079c531659141344cd1fd0a4f28419497f9722a3daafe3b4186f6b6457e09080a3600355600480546001600160a01b0319169190911790556121769081610514823960805181611278015260a051816112a3015260c051816112ce015260e051816120a001526101005181610f650152610120518181816106f601528181610a2e0152611c1d01526101405181818161072e0152818161094201528181610f33015281816110a1015281816119870152611b290152f35b631e4fbdf760e01b5f525f60045260245ffd5b6341bc07ff60e11b5f5260045ffd5b5f80fd5b601f909101601f19168101906001600160401b0382119082101761024057604052565b634e487b7160e01b5f52604160045260245ffd5b602081830312610219578051906001600160401b0382116102195701906080828203126102195760405191608083016001600160401b03811184821017610240576040528051835260208101516001600160a01b0381168103610219576020840152604081015180151581036102195760408401526060810151906001600160401b038211610219570181601f82011215610219578051906001600160401b0382116102405760405192610312601f8401601f19166020018561021d565b8284526020838301011161021957815f9260208093018386015e83010152606082015290565b929160405190602082018351926103826015602083818901978089885e810160018060601b03198860601b1683820152600160f81b60348201520301600a1981018452018261021d565b5190206040516351753e3760e11b81526004810182905290956001600160a01b031693905f81602481885afa80156104935787915f916104f9575b5051146104f3579060846020926040519485938492630c1af44f60e31b8452606060048501525180928160648601528585015e5f84838501015260018060a01b0316602483015260016044830152601f801991011681010301815f865af15f91816104bf575b5061049e57505f602491604051928380926351753e3760e11b82528760048301525afa80156104935783915f91610471575b50511461046f5750639e6113d560e01b5f5260045260245ffd5b565b61048d91503d805f833e610485818361021d565b810190610254565b5f610455565b6040513d5f823e3d90fd5b919280915082036104ad575090565b639e6113d560e01b5f5260045260245ffd5b9091506020813d6020116104eb575b816104db6020938361021d565b810103126102195751905f610423565b3d91506104ce565b50505050565b61050d91503d805f833e610485818361021d565b5f6103bd56fe6080806040526004361015610029575b50361561001a575f80fd5b631574f9f360e01b5f5260045ffd5b5f3560e01c9081631f04b6b6146114b0575080632cfea7ce1461139e5780633d4472651461135b57806354fd4d5014611259578063571573ce146110c45780635bf2f20d1461108a5780636b122fe014610ef4578063715018a614610e9d5780637224760e14610e7c578063838a68d914610e15578063839df94514610db857806388e5b2d914610d725780638da5cb5b14610d9157806391db0b7e14610d72578063a2ff020914610d55578063a50a216214610ce8578063b3b902d4146108e8578063c6ec507014610673578063c93844be146105be578063cd95b7b91461055e578063ce46e04614610544578063d4e063dd14610515578063da18dc7814610472578063e49617e114610457578063e60c350514610457578063e6c9714d14610335578063f14fcbc8146101f25763f2fde38b14610169575f61000f565b346101ee5760203660031901126101ee576101826114e9565b61018a611ed3565b6001600160a01b031680156101db575f80546001600160a01b03198116831782556001600160a01b0316907f8be0079c531659141344cd1fd0a4f28419497f9722a3daafe3b4186f6b6457e09080a3005b631e4fbdf760e01b5f525f60045260245ffd5b5f80fd5b60203660031901126101ee576004358015610326573415610317575f81815260016020819052604090912001546001600160a01b0316610305576040516102388161165b565b6001600160401b03431681526002602082016001600160401b0342168152604083013381526060840191348352855f5260016020526001600160401b0360405f209551166fffffffffffffffff00000000000000008654925160401b16916fffffffffffffffffffffffffffffffff191617178455600184019060018060a01b039051166bffffffffffffffffffffffff60a01b82541617905551910155604051903482527f014da346f1eee9a9a0e466b5406c84ea9a5b4d35bfeb399eebea697a6f66d05b60203393a3005b63c5f89f0560e01b5f5260045260245ffd5b636edb2d2f60e11b5f5260045ffd5b635560fe6360e11b5f5260045ffd5b346101ee5760603660031901126101ee576004356001600160401b0381116101ee5761014060031982360301126101ee5760405190610373826116a5565b8060040135825260248101356020830152610390604482016115e4565b60408301526103a1606482016115e4565b60608301526103b2608482016115e4565b608083015260a481013560a08301526103cd60c482016114ff565b60c08301526103de60e482016114ff565b60e083015261010481013580151581036101ee57610100830152610124810135906001600160401b0382116101ee57600461041c9236920101611784565b6101208201526024356001600160401b0381116101ee5760209161044761044d923690600401611784565b90611980565b6040519015158152f35b602061044d61046536611627565b61046d61209e565b6120df565b346101ee5760603660031901126101ee5761048b6114d3565b604435906001600160401b0382116101ee57606060031983360301126101ee576104cb61050a6020936040516104d9816104cb88820194600401856117a2565b03601f198101835282611712565b519020604080516004358782019081526001600160a01b039096166020870152908501919091529182906060850190565b519020604051908152f35b346101ee5760203660031901126101ee576004355f526002602052602060ff60405f2054166040519015158152f35b346101ee575f3660031901126101ee5760206040515f8152f35b346101ee5760403660031901126101ee576004356001600160401b0381116101ee57606060031982360301126101ee576105b66104cb6105ab6020936040519283916004018683016117a2565b602435903390611b1c565b604051908152f35b346101ee5760203660031901126101ee576004356001600160401b0381116101ee576105ee903690600401611537565b6105f6611947565b508101906020818303126101ee578035906001600160401b0382116101ee5701906060828203126101ee576040519061062e826116c1565b8235926001600160401b0384116101ee5761065060409261066f958301611784565b83526020810135602084015201356040820152604051918291826115f8565b0390f35b346101ee5760203660031901126101ee5761068c611947565b50606061012060405161069e816116a5565b5f81525f60208201525f60408201525f838201525f60808201525f60a08201525f60c08201525f60e08201525f61010082015201526040516328c44a9960e21b815260043560048201525f8160248160018060a01b037f0000000000000000000000000000000000000000000000000000000000000000165afa9081156108dd575f916107eb575b5060208101517f0000000000000000000000000000000000000000000000000000000000000000036107dc57610120015180518101906020818303126101ee576020810151906001600160401b0382116101ee57016060818303126101ee5760405190610792826116c1565b6020810151906001600160401b0382116101ee576107bd60609260208061066f970191840101611966565b83526040810151602084015201516040820152604051918291826115f8565b635527981560e11b5f5260045ffd5b90503d805f833e6107fc8183611712565b8101906020818303126101ee578051906001600160401b0382116101ee5701610140818303126101ee5760405191610833836116a5565b815183526020820151602084015261084d604083016120f8565b604084015261085e606083016120f8565b606084015261086f608083016120f8565b608084015260a082015160a084015261088a60c0830161210c565b60c084015261089b60e0830161210c565b60e08401526108ad6101008301611860565b6101008401526101208201516001600160401b0381116101ee576108d19201611966565b61012082015281610726565b6040513d5f823e3d90fd5b60603660031901126101ee576004356001600160401b0381116101ee57610913903690600401611537565b90602435906001600160401b0382168092036101ee576109389060443593369161174e565b610940612066565b7f0000000000000000000000000000000000000000000000000000000000000000926040519261096f846116dc565b338452806020850152600160408501528160608501528260808501525f60a0850152602060405161099f816116f7565b8681528181019586526040518096819263f17325e760e01b8352846004840152516024830152516040604483015260018060a01b0381511660648301526001600160401b03848201511660848301526040810151151560a4830152606081015160c483015260a0610a20608083015160c060e4860152610124850190611513565b91015161010483015203815f7f00000000000000000000000000000000000000000000000000000000000000006001600160a01b03165af19384156108dd575f94610cb4575b5060405194610a74866116a5565b84865260208601526001600160401b034216604086015260608501525f60808501528060a08501526104cb610af260c08601933385523060e08801526001610100880152806101208801526020815191012060405192839160208301953390876040919493926060820195825260018060a01b031660208201520152565b51902090815f52600160205260405f209060405190610b108261165b565b8254906001600160401b03821683526001600160401b03602084019260401c16825260018060a01b0360018501541692600260408201958587520154936060820194855215610c8e57516001600160401b0316431115610c69575051600354610b81916001600160401b031661183f565b4211610c5657825f52600260205260ff60405f205416610c435751915f52600260205260405f20600160ff198254161790555f8080808560018060a01b038651165af1610bcc611810565b5015610c24577fa9b8d1cb23fc6bfcae1f7ed8ec77868451af44dde191688baa93bb00b7ee491760208095519260018060a01b0390511693604051908152a360015f5160206121215f395f51905f5255604051908152f35b60018060a01b03905116638fdb80a360e01b5f5260045260245260445ffd5b826327d117f760e01b5f5260045260245ffd5b8263b7c2dee760e01b5f5260045260245ffd5b516309e555e360e01b5f90815260048690526001600160a01b03909116602452604490fd5b8151630fa254d360e21b5f90815260048890526001600160a01b03909116602452604490fd5b9093506020813d602011610ce0575b81610cd060209383611712565b810103126101ee57519285610a66565b3d9150610cc3565b346101ee5760603660031901126101ee576004356001600160401b0381116101ee57606060031982360301126101ee576105b6610d3e602092610d4c610d2c6114d3565b916040519384916004018783016117a2565b03601f198101845283611712565b60443591611b1c565b346101ee575f3660031901126101ee576020600354604051908152f35b602061044d610d8036611594565b92610d8c92919261209e565b6118a3565b346101ee575f3660031901126101ee575f546040516001600160a01b039091168152602090f35b346101ee5760203660031901126101ee576004355f526001602052608060405f20805490600260018060a01b03600183015416910154906001600160401b0360405193818116855260401c16602084015260408301526060820152f35b346101ee5760203660031901126101ee576004356001600160401b0381116101ee57610e476020913690600401611537565b908092915f604051610e588161168a565b52810103126101ee57604051602091610e708261168a565b35809152604051908152f35b346101ee5760203660031901126101ee57610e95611ed3565b600435600355005b346101ee575f3660031901126101ee57610eb5611ed3565b5f80546001600160a01b0319811682556001600160a01b03167f8be0079c531659141344cd1fd0a4f28419497f9722a3daafe3b4186f6b6457e08280a3005b346101ee575f3660031901126101ee57606080604051610f138161165b565b5f81525f60208201525f604082015201526040516351753e3760e11b81527f000000000000000000000000000000000000000000000000000000000000000060048201525f8160248160018060a01b037f0000000000000000000000000000000000000000000000000000000000000000165afa80156108dd575f90610fda575b60609061066f604051928392602084528051602085015260018060a01b0360208201511660408501526040810151151582850152015160808084015260a0830190611513565b503d805f833e610fea8183611712565b8101906020818303126101ee578051906001600160401b0382116101ee57016080818303126101ee57604051906110208261165b565b8051825260208101516001600160a01b03811681036101ee57602083015261104a60408201611860565b60408301526060810151906001600160401b0382116101ee570182601f820112156101ee576060928160206110819351910161186d565b82820152610f94565b346101ee575f3660031901126101ee5760206040517f00000000000000000000000000000000000000000000000000000000000000008152f35b346101ee5760203660031901126101ee576004356110e0612066565b805f52600160205260405f20604051906110f98261165b565b8054906001600160401b03821683526001600160401b03602084019260401c1682526060600260018060a01b036001840154169283604087015201549301928352156112425751600354611155916001600160401b031661183f565b42111561122f57815f52600260205260ff60405f20541661121c575190805f52600260205260405f20600160ff198254161790555f8080808560018060a01b03600454165af16111a3611810565b50156111fb579060209160018060a01b0360045416907f5fab42dd23447bf0a6cc6638a8217a7d477b5067842aedf24b881e132c1c133d84604051858152a360015f5160206121215f395f51905f5255604051908152f35b5060018060a01b0360045416631f89846360e21b5f5260045260245260445ffd5b506327d117f760e01b5f5260045260245ffd5b50631439fe2d60e01b5f5260045260245ffd5b82630fa254d360e21b5f526004525f60245260445ffd5b346101ee575f3660031901126101ee5761066f6020611347600161129c7f0000000000000000000000000000000000000000000000000000000000000000611ef9565b81846112c77f0000000000000000000000000000000000000000000000000000000000000000611ef9565b81806112f27f0000000000000000000000000000000000000000000000000000000000000000611ef9565b9260405199878b985191829101848a015e870190601760f91b83830152805192839101602183015e010190601760f91b84830152805192839101600283015e01015f838201520301601f198101835282611712565b604051918291602083526020830190611513565b346101ee5760203660031901126101ee576113746114e9565b61137c611ed3565b600480546001600160a01b0319166001600160a01b0392909216919091179055005b346101ee5760803660031901126101ee576004356001600160401b0381116101ee57606060031982360301126101ee576113d66114d3565b6044356001600160a01b0381169290918383036101ee575f6114176114129382936104cb606435968793604051928391600401602083016117a2565b611b1c565b93604051826020820191632c713cd960e01b835286602482015287604482015260448152611446606482611712565b51925af192611453611810565b931561147757505061066f6040519283928352604060208401526040830190611513565b6114ac8484604051948594630b836fc760e31b8652600486015260248501526044840152608060648401526084830190611513565b0390fd5b346101ee575f3660031901126101ee576004546001600160a01b03168152602090f35b602435906001600160a01b03821682036101ee57565b600435906001600160a01b03821682036101ee57565b35906001600160a01b03821682036101ee57565b805180835260209291819084018484015e5f828201840152601f01601f1916010190565b9181601f840112156101ee578235916001600160401b0383116101ee57602083818601950101116101ee57565b9181601f840112156101ee578235916001600160401b0383116101ee576020808501948460051b0101116101ee57565b60406003198201126101ee576004356001600160401b0381116101ee57816115be91600401611564565b92909291602435906001600160401b0382116101ee576115e091600401611564565b9091565b35906001600160401b03821682036101ee57565b602081526060604061161584518360208601526080850190611513565b93602081015182850152015191015290565b60206003198201126101ee57600435906001600160401b0382116101ee576101409082900360031901126101ee5760040190565b608081019081106001600160401b0382111761167657604052565b634e487b7160e01b5f52604160045260245ffd5b602081019081106001600160401b0382111761167657604052565b61014081019081106001600160401b0382111761167657604052565b606081019081106001600160401b0382111761167657604052565b60c081019081106001600160401b0382111761167657604052565b604081019081106001600160401b0382111761167657604052565b90601f801991011681019081106001600160401b0382111761167657604052565b6001600160401b03811161167657601f01601f191660200190565b92919261175a82611733565b916117686040519384611712565b8294818452818301116101ee578281602093845f960137010152565b9080601f830112156101ee5781602061179f9335910161174e565b90565b602081528135601e19833603018112156101ee5782016020813591016001600160401b0382116101ee5781360381136101ee5760a0938260409260606020870152816080870152868601375f84840186015260208101358285015201356060830152601f01601f1916010190565b3d1561183a573d9061182182611733565b9161182f6040519384611712565b82523d5f602084013e565b606090565b9190820180921161184c57565b634e487b7160e01b5f52601160045260245ffd5b519081151582036101ee57565b92919261187982611733565b916118876040519384611712565b8294818452818301116101ee578281602093845f96015e010152565b929092818403611938575f91345b8584101561192d5781841015611919578360051b808601359082821161190a5784013561013e19853603018112156101ee576118ee9085016120df565b156118ff57600191039301926118b1565b505050505050505f90565b63044044a560e21b5f5260045ffd5b634e487b7160e01b5f52603260045260245ffd5b505050505050600190565b63251f56a160e21b5f5260045ffd5b60405190611954826116c1565b5f604083606081528260208201520152565b9080601f830112156101ee57815161179f9260200161186d565b60208101517f000000000000000000000000000000000000000000000000000000000000000003611b165760a081015160c0820180516101208401518051602091820120604080519283019586526001600160a01b039093169282019290925260608101919091529091906119f881608081016104cb565b51902090815f52600160205260405f209260405191611a168361165b565b8454926001600160401b03841681526001600160401b03602082019460401c168452600260018060a01b03600188015416968760408401520154956060820196875215611af057516001600160401b0316431115611acb57506001600160401b03806040611a8d930151169251166003549061183f565b10611ab957506020828051810103126101ee57602060405192611aaf8461168a565b0151809252511490565b63b7c2dee760e01b5f5260045260245ffd5b516309e555e360e01b5f90815260048590526001600160a01b03909116602452604490fd5b8151630fa254d360e21b5f90815260048790526001600160a01b03909116602452604490fd5b50505f90565b919091611b27612066565b7f00000000000000000000000000000000000000000000000000000000000000009160405193611b56856116dc565b60018060a01b03168085525f6020860152600160408601528160608601528260808601525f60a08601526020604051611b8e816116f7565b8581528181019687526040518097819263f17325e760e01b8352846004840152516024830152516040604483015260018060a01b0381511660648301526001600160401b03848201511660848301526040810151151560a4830152606081015160c483015260a0611c0f608083015160c060e4860152610124850190611513565b91015161010483015203815f7f00000000000000000000000000000000000000000000000000000000000000006001600160a01b03165af19485156108dd575f95611e9f575b5060405193611c63856116a5565b85855260208501526001600160401b03421660408501525f60608501525f60808501528160a0850152611ce160c08501938285523060e087015260016101008701528061012087015260208151910120916104cb6040519384926020840196876040919493926060820195825260018060a01b031660208201520152565b51902091825f52600160205260405f209160405190611cff8261165b565b8354906001600160401b03821683526001600160401b03602084019260401c16825260018060a01b0360018601541692600260408201968588520154936060820194855215611e7957516001600160401b0316431115611e54575051600354611d70916001600160401b031661183f565b4211611e4157835f52600260205260ff60405f205416611e2e5751925f52600260205260405f20600160ff198254161790555f8080808660018060a01b038751165af1611dbb611810565b5015611e0e575190516040519283526001600160a01b0316917fa9b8d1cb23fc6bfcae1f7ed8ec77868451af44dde191688baa93bb00b7ee491790602090a39060015f5160206121215f395f51905f5255565b5060018060a01b03905116638fdb80a360e01b5f5260045260245260445ffd5b836327d117f760e01b5f5260045260245ffd5b8363b7c2dee760e01b5f5260045260245ffd5b516309e555e360e01b5f90815260048790526001600160a01b03909116602452604490fd5b8151630fa254d360e21b5f90815260048990526001600160a01b03909116602452604490fd5b9094506020813d602011611ecb575b81611ebb60209383611712565b810103126101ee5751935f611c55565b3d9150611eae565b5f546001600160a01b03163303611ee657565b63118cdaa760e01b5f523360045260245ffd5b805f9172184f03e93ff9f4daa797ed6e38ed64bf6a1f0160401b821015612043575b806d04ee2d6d415b85acef8100000000600a921015612028575b662386f26fc10000811015612014575b6305f5e100811015612003575b612710811015611ff4575b6064811015611fe6575b1015611fdb575b600a60216001840193611f8085611733565b94611f8e6040519687611712565b808652611f9d601f1991611733565b013660208701378401015b5f1901916f181899199a1a9b1b9c1cb0b131b232b360811b8282061a8353048015611fd657600a9091611fa8565b505090565b600190910190611f6e565b606460029104930192611f67565b61271060049104930192611f5d565b6305f5e10060089104930192611f52565b662386f26fc1000060109104930192611f45565b6d04ee2d6d415b85acef810000000060209104930192611f35565b506040915072184f03e93ff9f4daa797ed6e38ed64bf6a1f0160401b8104611f1b565b60025f5160206121215f395f51905f52541461208f5760025f5160206121215f395f51905f5255565b633ee5aeb560e01b5f5260045ffd5b7f00000000000000000000000000000000000000000000000000000000000000006001600160a01b031633036120d057565b634ca8886760e01b5f5260045ffd5b60e0013560018060a01b0381168091036101ee57301490565b51906001600160401b03821682036101ee57565b51906001600160a01b03821682036101ee5756fe9b779b17422d0df92223018b32b4d1fa46e071723d6817e2486d003becc55f00a2646970667358221220be356d189bb0f7efbe8b974783b64f576be33e4f39f09c6685969970597cbbde64736f6c634300081b0033",
    "linkReferences": {}
  },
  "methodIdentifiers": {
    "ATTESTATION_SCHEMA()": "5bf2f20d",
    "attest((bytes32,bytes32,uint64,uint64,uint64,bytes32,address,address,bool,bytes))": "e60c3505",
    "checkObligation((bytes32,bytes32,uint64,uint64,uint64,bytes32,address,address,bool,bytes),bytes,bytes32)": "e6c9714d",
    "commit(bytes32)": "f14fcbc8",
    "commitDeadline()": "a2ff0209",
    "commitmentClaimed(bytes32)": "d4e063dd",
    "commitments(bytes32)": "839df945",
    "computeCommitment(bytes32,address,(bytes,bytes32,bytes32))": "da18dc78",
    "decodeDemandData(bytes)": "838a68d9",
    "decodeObligationData(bytes)": "c93844be",
    "doObligation((bytes,bytes32,bytes32),bytes32)": "cd95b7b9",
    "doObligationFor((bytes,bytes32,bytes32),address,bytes32)": "a50a2162",
    "doObligationRaw(bytes,uint64,bytes32)": "b3b902d4",
    "getObligationData(bytes32)": "c6ec5070",
    "getSchema()": "6b122fe0",
    "isPayable()": "ce46e046",
    "multiAttest((bytes32,bytes32,uint64,uint64,uint64,bytes32,address,address,bool,bytes)[],uint256[])": "91db0b7e",
    "multiRevoke((bytes32,bytes32,uint64,uint64,uint64,bytes32,address,address,bool,bytes)[],uint256[])": "88e5b2d9",
    "owner()": "8da5cb5b",
    "renounceOwnership()": "715018a6",
    "revealAndCollect((bytes,bytes32,bytes32),address,address,bytes32)": "2cfea7ce",
    "revoke((bytes32,bytes32,uint64,uint64,uint64,bytes32,address,address,bool,bytes))": "e49617e1",
    "setCommitDeadline(uint256)": "7224760e",
    "setSlashedBondRecipient(address)": "3d447265",
    "slashBond(bytes32)": "571573ce",
    "slashedBondRecipient()": "1f04b6b6",
    "transferOwnership(address)": "f2fde38b",
    "version()": "54fd4d50"
  },
  "id": 100
}