{"abi":[{"type":"constructor","inputs":[{"name":"_eas","type":"address","internalType":"contract IEAS"},{"name":"_schemaRegistry","type":"address","internalType":"contract ISchemaRegistry"},{"name":"_bondAmount","type":"uint256","internalType":"uint256"},{"name":"_commitDeadline","type":"uint256","internalType":"uint256"},{"name":"_slashedBondRecipient","type":"address","internalType":"address"}],"stateMutability":"nonpayable"},{"type":"receive","stateMutability":"payable"},{"type":"function","name":"ATTESTATION_SCHEMA","inputs":[],"outputs":[{"name":"","type":"bytes32","internalType":"bytes32"}],"stateMutability":"view"},{"type":"function","name":"attest","inputs":[{"name":"attestation","type":"tuple","internalType":"struct Attestation","components":[{"name":"uid","type":"bytes32","internalType":"bytes32"},{"name":"schema","type":"bytes32","internalType":"bytes32"},{"name":"time","type":"uint64","internalType":"uint64"},{"name":"expirationTime","type":"uint64","internalType":"uint64"},{"name":"revocationTime","type":"uint64","internalType":"uint64"},{"name":"refUID","type":"bytes32","internalType":"bytes32"},{"name":"recipient","type":"address","internalType":"address"},{"name":"attester","type":"address","internalType":"address"},{"name":"revocable","type":"bool","internalType":"bool"},{"name":"data","type":"bytes","internalType":"bytes"}]}],"outputs":[{"name":"","type":"bool","internalType":"bool"}],"stateMutability":"payable"},{"type":"function","name":"bondAmount","inputs":[],"outputs":[{"name":"","type":"uint256","internalType":"uint256"}],"stateMutability":"view"},{"type":"function","name":"checkObligation","inputs":[{"name":"obligation","type":"tuple","internalType":"struct Attestation","components":[{"name":"uid","type":"bytes32","internalType":"bytes32"},{"name":"schema","type":"bytes32","internalType":"bytes32"},{"name":"time","type":"uint64","internalType":"uint64"},{"name":"expirationTime","type":"uint64","internalType":"uint64"},{"name":"revocationTime","type":"uint64","internalType":"uint64"},{"name":"refUID","type":"bytes32","internalType":"bytes32"},{"name":"recipient","type":"address","internalType":"address"},{"name":"attester","type":"address","internalType":"address"},{"name":"revocable","type":"bool","internalType":"bool"},{"name":"data","type":"bytes","internalType":"bytes"}]},{"name":"","type":"bytes","internalType":"bytes"},{"name":"","type":"bytes32","internalType":"bytes32"}],"outputs":[{"name":"","type":"bool","internalType":"bool"}],"stateMutability":"view"},{"type":"function","name":"commit","inputs":[{"name":"commitment","type":"bytes32","internalType":"bytes32"}],"outputs":[],"stateMutability":"payable"},{"type":"function","name":"commitDeadline","inputs":[],"outputs":[{"name":"","type":"uint256","internalType":"uint256"}],"stateMutability":"view"},{"type":"function","name":"commitmentClaimed","inputs":[{"name":"","type":"bytes32","internalType":"bytes32"}],"outputs":[{"name":"","type":"bool","internalType":"bool"}],"stateMutability":"view"},{"type":"function","name":"commitments","inputs":[{"name":"","type":"bytes32","internalType":"bytes32"}],"outputs":[{"name":"commitBlock","type":"uint64","internalType":"uint64"},{"name":"commitTimestamp","type":"uint64","internalType":"uint64"},{"name":"committer","type":"address","internalType":"address"}],"stateMutability":"view"},{"type":"function","name":"computeCommitment","inputs":[{"name":"refUID","type":"bytes32","internalType":"bytes32"},{"name":"claimer","type":"address","internalType":"address"},{"name":"data","type":"tuple","internalType":"struct CommitRevealObligation.ObligationData","components":[{"name":"payload","type":"bytes","internalType":"bytes"},{"name":"salt","type":"bytes32","internalType":"bytes32"},{"name":"schema","type":"bytes32","internalType":"bytes32"}]}],"outputs":[{"name":"","type":"bytes32","internalType":"bytes32"}],"stateMutability":"pure"},{"type":"function","name":"decodeObligationData","inputs":[{"name":"data","type":"bytes","internalType":"bytes"}],"outputs":[{"name":"","type":"tuple","internalType":"struct CommitRevealObligation.ObligationData","components":[{"name":"payload","type":"bytes","internalType":"bytes"},{"name":"salt","type":"bytes32","internalType":"bytes32"},{"name":"schema","type":"bytes32","internalType":"bytes32"}]}],"stateMutability":"pure"},{"type":"function","name":"doObligation","inputs":[{"name":"data","type":"tuple","internalType":"struct CommitRevealObligation.ObligationData","components":[{"name":"payload","type":"bytes","internalType":"bytes"},{"name":"salt","type":"bytes32","internalType":"bytes32"},{"name":"schema","type":"bytes32","internalType":"bytes32"}]},{"name":"refUID","type":"bytes32","internalType":"bytes32"}],"outputs":[{"name":"uid_","type":"bytes32","internalType":"bytes32"}],"stateMutability":"nonpayable"},{"type":"function","name":"doObligationRaw","inputs":[{"name":"data","type":"bytes","internalType":"bytes"},{"name":"expirationTime","type":"uint64","internalType":"uint64"},{"name":"refUID","type":"bytes32","internalType":"bytes32"}],"outputs":[{"name":"uid_","type":"bytes32","internalType":"bytes32"}],"stateMutability":"payable"},{"type":"function","name":"getObligationData","inputs":[{"name":"uid","type":"bytes32","internalType":"bytes32"}],"outputs":[{"name":"","type":"tuple","internalType":"struct CommitRevealObligation.ObligationData","components":[{"name":"payload","type":"bytes","internalType":"bytes"},{"name":"salt","type":"bytes32","internalType":"bytes32"},{"name":"schema","type":"bytes32","internalType":"bytes32"}]}],"stateMutability":"view"},{"type":"function","name":"getSchema","inputs":[],"outputs":[{"name":"","type":"tuple","internalType":"struct SchemaRecord","components":[{"name":"uid","type":"bytes32","internalType":"bytes32"},{"name":"resolver","type":"address","internalType":"contract ISchemaResolver"},{"name":"revocable","type":"bool","internalType":"bool"},{"name":"schema","type":"string","internalType":"string"}]}],"stateMutability":"view"},{"type":"function","name":"isPayable","inputs":[],"outputs":[{"name":"","type":"bool","internalType":"bool"}],"stateMutability":"pure"},{"type":"function","name":"multiAttest","inputs":[{"name":"attestations","type":"tuple[]","internalType":"struct Attestation[]","components":[{"name":"uid","type":"bytes32","internalType":"bytes32"},{"name":"schema","type":"bytes32","internalType":"bytes32"},{"name":"time","type":"uint64","internalType":"uint64"},{"name":"expirationTime","type":"uint64","internalType":"uint64"},{"name":"revocationTime","type":"uint64","internalType":"uint64"},{"name":"refUID","type":"bytes32","internalType":"bytes32"},{"name":"recipient","type":"address","internalType":"address"},{"name":"attester","type":"address","internalType":"address"},{"name":"revocable","type":"bool","internalType":"bool"},{"name":"data","type":"bytes","internalType":"bytes"}]},{"name":"values","type":"uint256[]","internalType":"uint256[]"}],"outputs":[{"name":"","type":"bool","internalType":"bool"}],"stateMutability":"payable"},{"type":"function","name":"multiRevoke","inputs":[{"name":"attestations","type":"tuple[]","internalType":"struct Attestation[]","components":[{"name":"uid","type":"bytes32","internalType":"bytes32"},{"name":"schema","type":"bytes32","internalType":"bytes32"},{"name":"time","type":"uint64","internalType":"uint64"},{"name":"expirationTime","type":"uint64","internalType":"uint64"},{"name":"revocationTime","type":"uint64","internalType":"uint64"},{"name":"refUID","type":"bytes32","internalType":"bytes32"},{"name":"recipient","type":"address","internalType":"address"},{"name":"attester","type":"address","internalType":"address"},{"name":"revocable","type":"bool","internalType":"bool"},{"name":"data","type":"bytes","internalType":"bytes"}]},{"name":"values","type":"uint256[]","internalType":"uint256[]"}],"outputs":[{"name":"","type":"bool","internalType":"bool"}],"stateMutability":"payable"},{"type":"function","name":"reclaimBond","inputs":[{"name":"obligationUid","type":"bytes32","internalType":"bytes32"}],"outputs":[{"name":"amount","type":"uint256","internalType":"uint256"}],"stateMutability":"nonpayable"},{"type":"function","name":"revoke","inputs":[{"name":"attestation","type":"tuple","internalType":"struct Attestation","components":[{"name":"uid","type":"bytes32","internalType":"bytes32"},{"name":"schema","type":"bytes32","internalType":"bytes32"},{"name":"time","type":"uint64","internalType":"uint64"},{"name":"expirationTime","type":"uint64","internalType":"uint64"},{"name":"revocationTime","type":"uint64","internalType":"uint64"},{"name":"refUID","type":"bytes32","internalType":"bytes32"},{"name":"recipient","type":"address","internalType":"address"},{"name":"attester","type":"address","internalType":"address"},{"name":"revocable","type":"bool","internalType":"bool"},{"name":"data","type":"bytes","internalType":"bytes"}]}],"outputs":[{"name":"","type":"bool","internalType":"bool"}],"stateMutability":"payable"},{"type":"function","name":"slashBond","inputs":[{"name":"commitment","type":"bytes32","internalType":"bytes32"}],"outputs":[{"name":"amount","type":"uint256","internalType":"uint256"}],"stateMutability":"nonpayable"},{"type":"function","name":"slashedBondRecipient","inputs":[],"outputs":[{"name":"","type":"address","internalType":"address"}],"stateMutability":"view"},{"type":"function","name":"version","inputs":[],"outputs":[{"name":"","type":"string","internalType":"string"}],"stateMutability":"view"},{"type":"event","name":"BondReclaimed","inputs":[{"name":"obligationUid","type":"bytes32","indexed":true,"internalType":"bytes32"},{"name":"claimer","type":"address","indexed":true,"internalType":"address"},{"name":"amount","type":"uint256","indexed":false,"internalType":"uint256"}],"anonymous":false},{"type":"event","name":"BondSlashed","inputs":[{"name":"commitment","type":"bytes32","indexed":true,"internalType":"bytes32"},{"name":"recipient","type":"address","indexed":true,"internalType":"address"},{"name":"amount","type":"uint256","indexed":false,"internalType":"uint256"}],"anonymous":false},{"type":"event","name":"Committed","inputs":[{"name":"commitment","type":"bytes32","indexed":true,"internalType":"bytes32"},{"name":"claimer","type":"address","indexed":true,"internalType":"address"}],"anonymous":false},{"type":"error","name":"AccessDenied","inputs":[]},{"type":"error","name":"AttestationRevoked","inputs":[]},{"type":"error","name":"BondAlreadyClaimed","inputs":[{"name":"commitment","type":"bytes32","internalType":"bytes32"}]},{"type":"error","name":"BondTransferFailed","inputs":[{"name":"claimer","type":"address","internalType":"address"},{"name":"amount","type":"uint256","internalType":"uint256"}]},{"type":"error","name":"CommitDeadlineNotReached","inputs":[{"name":"commitment","type":"bytes32","internalType":"bytes32"}]},{"type":"error","name":"CommitmentAlreadyExists","inputs":[{"name":"commitment","type":"bytes32","internalType":"bytes32"}]},{"type":"error","name":"CommitmentMissing","inputs":[{"name":"commitment","type":"bytes32","internalType":"bytes32"},{"name":"claimer","type":"address","internalType":"address"}]},{"type":"error","name":"CommitmentTooRecent","inputs":[{"name":"commitment","type":"bytes32","internalType":"bytes32"},{"name":"claimer","type":"address","internalType":"address"}]},{"type":"error","name":"DeadlineExpired","inputs":[]},{"type":"error","name":"EmptyCommitment","inputs":[]},{"type":"error","name":"IncorrectBondAmount","inputs":[{"name":"provided","type":"uint256","internalType":"uint256"},{"name":"required","type":"uint256","internalType":"uint256"}]},{"type":"error","name":"InsufficientValue","inputs":[]},{"type":"error","name":"InvalidEAS","inputs":[]},{"type":"error","name":"InvalidLength","inputs":[]},{"type":"error","name":"InvalidSchema","inputs":[]},{"type":"error","name":"NotFromThisAttester","inputs":[]},{"type":"error","name":"NotPayable","inputs":[]},{"type":"error","name":"ReentrancyGuardReentrantCall","inputs":[]},{"type":"error","name":"SlashTransferFailed","inputs":[{"name":"recipient","type":"address","internalType":"address"},{"name":"amount","type":"uint256","internalType":"uint256"}]}],"bytecode":{"object":"0x6101c080604052346102675760a081611ce4803803809161002082856102a1565b833981010312610267578051906001600160a01b0382168083036102675760208201516001600160a01b038116938482036102675760408401516060850151608090950151959093906001600160a01b038716870361026757604051606081016001600160401b0381118282101761028d57604052602b815260208101927f6279746573207061796c6f61642c20627974657333322073616c742c2062797484526a6573333220736368656d6160a81b60408301526001608052600360a0525f60c0521561027e576084948460209560e05261012052610100525f604051958680958194630c1af44f60e31b8352606060048401525180918160648501528484015e818101830184905230602483015260016044830152601f01601f191681010301925af1908115610273575f9161023d575b506101405260017f9b779b17422d0df92223018b32b4d1fa46e071723d6817e2486d003becc55f005561016052610180526101a052604051611a1f90816102c5823960805181611070015260a0518161109b015260c051816110c6015260e0518161197101526101005181610d0a015261012051818181610767015261180e01526101405181818161039d015281816106ba01528181610cd801528181610e46015261184601526101605181818161013e01528181610aac01528181610baf0152610f22015261018051818181610a030152610edd01526101a051818181610f5b01526111650152f35b90506020813d60201161026b575b81610258602093836102a1565b8101031261026757515f610153565b5f80fd5b3d915061024b565b6040513d5f823e3d90fd5b6341bc07ff60e11b5f5260045ffd5b634e487b7160e01b5f52604160045260245ffd5b601f909101601f19168101906001600160401b0382119082101761028d5760405256fe6080806040526004361015610029575b50361561001a575f80fd5b631574f9f360e01b5f5260045ffd5b5f3560e01c9081631f04b6b6146111535750806354fd4d5014611051578063571573ce14610e695780635bf2f20d14610e2f5780636b122fe014610c995780637b11217d14610acf57806380f323a714610a95578063839df94514610a4557806388e5b2d914610a2657806391db0b7e14610a26578063a2ff0209146109ec578063b3b902d41461095c578063c6ec5070146108ad578063c93844be146107f8578063cd95b7b914610629578063ce46e0461461060f578063d4e063dd146105e0578063da18dc7814610540578063e49617e11461051b578063e60c35051461051b578063e6c9714d146102825763f14fcbc814610127575f61000f565b602036600319011261027e57600435801561026f577f000000000000000000000000000000000000000000000000000000000000000080340361025957505f818152602081905260409020600101546001600160a01b03166102475760405161018f816112f0565b6001600160401b0343168152600160208201916001600160401b03421683526040810192338452845f525f6020526001600160401b0360405f209251166fffffffffffffffff00000000000000008354925160401b16916fffffffffffffffffffffffffffffffff191617178155019060018060a01b039051166bffffffffffffffffffffffff60a01b82541617905533907ffda886b5d38d5d61e432b3acc9f19640a2b8c83c87a9c584a780d3854b309b9c5f80a3005b63c5f89f0560e01b5f5260045260245ffd5b63058b312960e51b5f523460045260245260445ffd5b635560fe6360e11b5f5260045ffd5b5f80fd5b3461027e57606036600319011261027e576004356001600160401b03811161027e57610140600319823603011261027e576040516102bf8161133a565b8160040135815260208101602483013581526102dd60448401611265565b60408301526102ee60648401611265565b6060830190815261030160848501611265565b906080840191825260a084019260a4860135845261032160c487016112a8565b9560c0860196875261033560e482016112a8565b60e0870152610104810135801515810361027e576101008701526101248101356001600160401b03811161027e5761012091600461037692369201016113fe565b95019485526024356001600160401b03811161027e5761039a9036906004016113fe565b507f000000000000000000000000000000000000000000000000000000000000000090510361050c57516001600160401b03168015159081610501575b506104f257516001600160401b03166104e35751825191518051602091820120604080519283019384526001600160a01b039094169382019390935260608101929092529061043381608081015b03601f19810183528261138c565b51902090815f525f60205260405f206040519061044f826112f0565b6001600160401b038154818116845260401c1660208301526001808060a01b0391015416806040830152156104be57516001600160401b031643111561049a57602060405160018152f35b516309e555e360e01b5f9081526004929092526001600160a01b0316602452604490fd5b5051630fa254d360e21b5f9081526004929092526001600160a01b0316602452604490fd5b637b6227e960e11b5f5260045ffd5b631ab7da6b60e01b5f5260045ffd5b9050421015856103d7565b635f9bd90760e11b5f5260045ffd5b6020610536610529366112bc565b61053161196f565b6119b0565b6040519015158152f35b3461027e57606036600319011261027e576024356001600160a01b038116810361027e57604435906001600160401b03821161027e576060600319833603011261027e576104256105d56020936040516105a481610425888201946004018561156b565b519020604080516004358782019081526001600160a01b039096166020870152908501919091529182906060850190565b519020604051908152f35b3461027e57602036600319011261027e576004355f526001602052602060ff60405f2054166040519015158152f35b3461027e575f36600319011261027e5760206040515f8152f35b3461027e57604036600319011261027e576004356001600160401b03811161027e576060600319823603011261027e57610672610425916040519283916004016020830161156b565b61067a611746565b6040519061068782611356565b3382525f602083015260016040830152602435606083015260808201525f60a082015260206040516106b881611371565b7f000000000000000000000000000000000000000000000000000000000000000081528181019283526040518093819263f17325e760e01b8352846004840152516024830152516040604483015260018060a01b0381511660648301526001600160401b03848201511660848301526040810151151560a4830152606081015160c483015260a0610759608083015160c060e4860152610124850190611194565b91015161010483015203815f7f00000000000000000000000000000000000000000000000000000000000000006001600160a01b03165af180156107ed575f906107ba575b60015f5160206119ca5f395f51905f5255604051908152602090f35b506020813d6020116107e5575b816107d46020938361138c565b8101031261027e576020905161079e565b3d91506107c7565b6040513d5f823e3d90fd5b3461027e57602036600319011261027e576004356001600160401b03811161027e57610828903690600401611238565b610830611532565b5081019060208183031261027e578035906001600160401b03821161027e57019060608282031261027e5760405190610868826112f0565b8235926001600160401b03841161027e5761088a6040926108a99583016113fe565b8352602081013560208401520135604082015260405191829182611279565b0390f35b3461027e57602036600319011261027e576108c6611532565b506101206108d56004356117a6565b0151805181019060208183031261027e576020810151906001600160401b03821161027e570160608183031261027e5760405190610912826112f0565b6020810151906001600160401b03821161027e5761093d6060926020806108a9970191840101611551565b8352604081015160208401520151604082015260405191829182611279565b606036600319011261027e576004356001600160401b03811161027e57610987903690600401611238565b602435916001600160401b03831680930361027e576109a79136916113c8565b6109af611746565b604051916109bc83611356565b338352602083015260016040830152604435606083015260808201525f60a082015260206040516106b881611371565b3461027e575f36600319011261027e5760206040517f00000000000000000000000000000000000000000000000000000000000000008152f35b6020610536610a34366111e8565b92610a4092919261196f565b61148e565b3461027e57602036600319011261027e576004355f525f602052606060405f208054906001808060a01b03910154166001600160401b0360405192818116845260401c1660208301526040820152f35b3461027e575f36600319011261027e5760206040517f00000000000000000000000000000000000000000000000000000000000000008152f35b3461027e57602036600319011261027e57600435610aeb611746565b610af4816117a6565b60c081015160a0820151610120909201518051602091820120604080519283019485526001600160a01b039093169282018390526060820152909190610b3d8160808101610425565b51902091825f525f60205260405f2060405190610b59826112f0565b6001600160401b038154818116845260401c1660208301526001808060a01b039101541680604083015215610c8257516001600160401b0316431115610c6b57825f52600160205260ff60405f205416610c58577f0000000000000000000000000000000000000000000000000000000000000000925f52600160205260405f20600160ff198254161790555f80808086865af1610bf561141c565b5015610c425790602092917fa9b8d1cb23fc6bfcae1f7ed8ec77868451af44dde191688baa93bb00b7ee491784604051858152a360015f5160206119ca5f395f51905f5255604051908152f35b50638fdb80a360e01b5f5260045260245260445ffd5b826327d117f760e01b5f5260045260245ffd5b50906309e555e360e01b5f5260045260245260445ffd5b8284630fa254d360e21b5f5260045260245260445ffd5b3461027e575f36600319011261027e57606080604051610cb88161131f565b5f81525f60208201525f604082015201526040516351753e3760e11b81527f000000000000000000000000000000000000000000000000000000000000000060048201525f8160248160018060a01b037f0000000000000000000000000000000000000000000000000000000000000000165afa80156107ed575f90610d7f575b6060906108a9604051928392602084528051602085015260018060a01b0360208201511660408501526040810151151582850152015160808084015260a0830190611194565b503d805f833e610d8f818361138c565b81019060208183031261027e578051906001600160401b03821161027e570160808183031261027e5760405190610dc58261131f565b8051825260208101516001600160a01b038116810361027e576020830152610def6040820161144b565b60408301526060810151906001600160401b03821161027e570182601f8201121561027e57606092816020610e2693519101611458565b82820152610d39565b3461027e575f36600319011261027e5760206040517f00000000000000000000000000000000000000000000000000000000000000008152f35b3461027e57602036600319011261027e57600435610e85611746565b805f525f60205260405f2060408051610e9d816112f0565b82546001600160401b03808216835290831c16602082019081526001909301546001600160a01b031691018190521561103a576001600160401b039051167f000000000000000000000000000000000000000000000000000000000000000081018091116110265742111561101457805f52600160205260ff60405f205416611002577f000000000000000000000000000000000000000000000000000000000000000090805f52600160205260405f20600160ff198254161790557f0000000000000000000000000000000000000000000000000000000000000000905f80808086865af1610f8b61141c565b5015610fe457604051838152602093926001600160a01b031691907f5fab42dd23447bf0a6cc6638a8217a7d477b5067842aedf24b881e132c1c133d908590a360015f5160206119ca5f395f51905f5255604051908152f35b50631f89846360e21b5f5260018060a01b031660045260245260445ffd5b6327d117f760e01b5f5260045260245ffd5b631439fe2d60e01b5f5260045260245ffd5b634e487b7160e01b5f52601160045260245ffd5b50630fa254d360e21b5f526004525f60245260445ffd5b3461027e575f36600319011261027e576108a9602061113f60016110947f00000000000000000000000000000000000000000000000000000000000000006115d9565b81846110bf7f00000000000000000000000000000000000000000000000000000000000000006115d9565b81806110ea7f00000000000000000000000000000000000000000000000000000000000000006115d9565b9260405199878b985191829101848a015e870190601760f91b83830152805192839101602183015e010190601760f91b84830152805192839101600283015e01015f838201520301601f19810183528261138c565b604051918291602083526020830190611194565b3461027e575f36600319011261027e577f00000000000000000000000000000000000000000000000000000000000000006001600160a01b03168152602090f35b805180835260209291819084018484015e5f828201840152601f01601f1916010190565b9181601f8401121561027e578235916001600160401b03831161027e576020808501948460051b01011161027e57565b604060031982011261027e576004356001600160401b03811161027e5781611212916004016111b8565b92909291602435906001600160401b03821161027e57611234916004016111b8565b9091565b9181601f8401121561027e578235916001600160401b03831161027e576020838186019501011161027e57565b35906001600160401b038216820361027e57565b602081526060604061129684518360208601526080850190611194565b93602081015182850152015191015290565b35906001600160a01b038216820361027e57565b602060031982011261027e57600435906001600160401b03821161027e5761014090829003600319011261027e5760040190565b606081019081106001600160401b0382111761130b57604052565b634e487b7160e01b5f52604160045260245ffd5b608081019081106001600160401b0382111761130b57604052565b61014081019081106001600160401b0382111761130b57604052565b60c081019081106001600160401b0382111761130b57604052565b604081019081106001600160401b0382111761130b57604052565b90601f801991011681019081106001600160401b0382111761130b57604052565b6001600160401b03811161130b57601f01601f191660200190565b9291926113d4826113ad565b916113e2604051938461138c565b82948184528183011161027e578281602093845f960137010152565b9080601f8301121561027e57816020611419933591016113c8565b90565b3d15611446573d9061142d826113ad565b9161143b604051938461138c565b82523d5f602084013e565b606090565b5190811515820361027e57565b929192611464826113ad565b91611472604051938461138c565b82948184528183011161027e578281602093845f96015e010152565b929092818403611523575f91345b858410156115185781841015611504578360051b80860135908282116114f55784013561013e198536030181121561027e576114d99085016119b0565b156114ea576001910393019261149c565b505050505050505f90565b63044044a560e21b5f5260045ffd5b634e487b7160e01b5f52603260045260245ffd5b505050505050600190565b63251f56a160e21b5f5260045ffd5b6040519061153f826112f0565b5f604083606081528260208201520152565b9080601f8301121561027e57815161141992602001611458565b602081528135601e198336030181121561027e5782016020813591016001600160401b03821161027e57813603811361027e5760a0938260409260606020870152816080870152868601375f84840186015260208101358285015201356060830152601f01601f1916010190565b805f9172184f03e93ff9f4daa797ed6e38ed64bf6a1f0160401b821015611723575b806d04ee2d6d415b85acef8100000000600a921015611708575b662386f26fc100008110156116f4575b6305f5e1008110156116e3575b6127108110156116d4575b60648110156116c6575b10156116bb575b600a60216001840193611660856113ad565b9461166e604051968761138c565b80865261167d601f19916113ad565b013660208701378401015b5f1901916f181899199a1a9b1b9c1cb0b131b232b360811b8282061a83530480156116b657600a9091611688565b505090565b60019091019061164e565b606460029104930192611647565b6127106004910493019261163d565b6305f5e10060089104930192611632565b662386f26fc1000060109104930192611625565b6d04ee2d6d415b85acef810000000060209104930192611615565b506040915072184f03e93ff9f4daa797ed6e38ed64bf6a1f0160401b81046115fb565b60025f5160206119ca5f395f51905f52541461176f5760025f5160206119ca5f395f51905f5255565b633ee5aeb560e01b5f5260045ffd5b51906001600160401b038216820361027e57565b51906001600160a01b038216820361027e57565b9060606101206040516117b88161133a565b5f81525f60208201525f60408201525f838201525f60808201525f60a08201525f60c08201525f60e08201525f6101008201520152604051916328c44a9960e21b835260048301525f8260248160018060a01b037f0000000000000000000000000000000000000000000000000000000000000000165afa9182156107ed575f9261187b575b5060208201517f00000000000000000000000000000000000000000000000000000000000000000361186c57565b635527981560e11b5f5260045ffd5b9091503d805f833e61188d818361138c565b81019060208183031261027e578051906001600160401b03821161027e57016101408183031261027e57604051916118c48361133a565b81518352602082015160208401526118de6040830161177e565b60408401526118ef6060830161177e565b60608401526119006080830161177e565b608084015260a082015160a084015261191b60c08301611792565b60c084015261192c60e08301611792565b60e084015261193e610100830161144b565b6101008401526101208201516001600160401b03811161027e576119629201611551565b610120820152905f61183e565b7f00000000000000000000000000000000000000000000000000000000000000006001600160a01b031633036119a157565b634ca8886760e01b5f5260045ffd5b60e0013560018060a01b03811680910361027e5730149056fe9b779b17422d0df92223018b32b4d1fa46e071723d6817e2486d003becc55f00a26469706673582212200731910a416536900d54eba2c69c1b1beb47d7e901e22e65d49f61bde1ad08a864736f6c634300081b0033","linkReferences":{}},"methodIdentifiers":{"ATTESTATION_SCHEMA()":"5bf2f20d","attest((bytes32,bytes32,uint64,uint64,uint64,bytes32,address,address,bool,bytes))":"e60c3505","bondAmount()":"80f323a7","checkObligation((bytes32,bytes32,uint64,uint64,uint64,bytes32,address,address,bool,bytes),bytes,bytes32)":"e6c9714d","commit(bytes32)":"f14fcbc8","commitDeadline()":"a2ff0209","commitmentClaimed(bytes32)":"d4e063dd","commitments(bytes32)":"839df945","computeCommitment(bytes32,address,(bytes,bytes32,bytes32))":"da18dc78","decodeObligationData(bytes)":"c93844be","doObligation((bytes,bytes32,bytes32),bytes32)":"cd95b7b9","doObligationRaw(bytes,uint64,bytes32)":"b3b902d4","getObligationData(bytes32)":"c6ec5070","getSchema()":"6b122fe0","isPayable()":"ce46e046","multiAttest((bytes32,bytes32,uint64,uint64,uint64,bytes32,address,address,bool,bytes)[],uint256[])":"91db0b7e","multiRevoke((bytes32,bytes32,uint64,uint64,uint64,bytes32,address,address,bool,bytes)[],uint256[])":"88e5b2d9","reclaimBond(bytes32)":"7b11217d","revoke((bytes32,bytes32,uint64,uint64,uint64,bytes32,address,address,bool,bytes))":"e49617e1","slashBond(bytes32)":"571573ce","slashedBondRecipient()":"1f04b6b6","version()":"54fd4d50"},"id":98}