{
  "abi": [
    {
      "type": "constructor",
      "inputs": [
        {
          "name": "_eas",
          "type": "address",
          "internalType": "contract IEAS"
        },
        {
          "name": "_schemaRegistry",
          "type": "address",
          "internalType": "contract ISchemaRegistry"
        },
        {
          "name": "_slashedBondRecipient",
          "type": "address",
          "internalType": "address"
        }
      ],
      "stateMutability": "nonpayable"
    },
    {
      "type": "receive",
      "stateMutability": "payable"
    },
    {
      "type": "function",
      "name": "ATTESTATION_SCHEMA",
      "inputs": [],
      "outputs": [
        {
          "name": "",
          "type": "bytes32",
          "internalType": "bytes32"
        }
      ],
      "stateMutability": "view"
    },
    {
      "type": "function",
      "name": "ATTESTATION_SCHEMA_REVOCABLE",
      "inputs": [],
      "outputs": [
        {
          "name": "",
          "type": "bool",
          "internalType": "bool"
        }
      ],
      "stateMutability": "view"
    },
    {
      "type": "function",
      "name": "attest",
      "inputs": [
        {
          "name": "attestation",
          "type": "tuple",
          "internalType": "struct Attestation",
          "components": [
            {
              "name": "uid",
              "type": "bytes32",
              "internalType": "bytes32"
            },
            {
              "name": "schema",
              "type": "bytes32",
              "internalType": "bytes32"
            },
            {
              "name": "time",
              "type": "uint64",
              "internalType": "uint64"
            },
            {
              "name": "expirationTime",
              "type": "uint64",
              "internalType": "uint64"
            },
            {
              "name": "revocationTime",
              "type": "uint64",
              "internalType": "uint64"
            },
            {
              "name": "refUID",
              "type": "bytes32",
              "internalType": "bytes32"
            },
            {
              "name": "recipient",
              "type": "address",
              "internalType": "address"
            },
            {
              "name": "attester",
              "type": "address",
              "internalType": "address"
            },
            {
              "name": "revocable",
              "type": "bool",
              "internalType": "bool"
            },
            {
              "name": "data",
              "type": "bytes",
              "internalType": "bytes"
            }
          ]
        }
      ],
      "outputs": [
        {
          "name": "",
          "type": "bool",
          "internalType": "bool"
        }
      ],
      "stateMutability": "payable"
    },
    {
      "type": "function",
      "name": "check",
      "inputs": [
        {
          "name": "obligation",
          "type": "tuple",
          "internalType": "struct Attestation",
          "components": [
            {
              "name": "uid",
              "type": "bytes32",
              "internalType": "bytes32"
            },
            {
              "name": "schema",
              "type": "bytes32",
              "internalType": "bytes32"
            },
            {
              "name": "time",
              "type": "uint64",
              "internalType": "uint64"
            },
            {
              "name": "expirationTime",
              "type": "uint64",
              "internalType": "uint64"
            },
            {
              "name": "revocationTime",
              "type": "uint64",
              "internalType": "uint64"
            },
            {
              "name": "refUID",
              "type": "bytes32",
              "internalType": "bytes32"
            },
            {
              "name": "recipient",
              "type": "address",
              "internalType": "address"
            },
            {
              "name": "attester",
              "type": "address",
              "internalType": "address"
            },
            {
              "name": "revocable",
              "type": "bool",
              "internalType": "bool"
            },
            {
              "name": "data",
              "type": "bytes",
              "internalType": "bytes"
            }
          ]
        },
        {
          "name": "demand",
          "type": "bytes",
          "internalType": "bytes"
        },
        {
          "name": "",
          "type": "bytes32",
          "internalType": "bytes32"
        }
      ],
      "outputs": [
        {
          "name": "",
          "type": "bool",
          "internalType": "bool"
        }
      ],
      "stateMutability": "view"
    },
    {
      "type": "function",
      "name": "commit",
      "inputs": [
        {
          "name": "commitment",
          "type": "bytes32",
          "internalType": "bytes32"
        },
        {
          "name": "commitDeadline",
          "type": "uint256",
          "internalType": "uint256"
        }
      ],
      "outputs": [],
      "stateMutability": "payable"
    },
    {
      "type": "function",
      "name": "commitmentClaimed",
      "inputs": [
        {
          "name": "",
          "type": "bytes32",
          "internalType": "bytes32"
        }
      ],
      "outputs": [
        {
          "name": "",
          "type": "bool",
          "internalType": "bool"
        }
      ],
      "stateMutability": "view"
    },
    {
      "type": "function",
      "name": "commitments",
      "inputs": [
        {
          "name": "",
          "type": "bytes32",
          "internalType": "bytes32"
        }
      ],
      "outputs": [
        {
          "name": "commitBlock",
          "type": "uint64",
          "internalType": "uint64"
        },
        {
          "name": "commitTimestamp",
          "type": "uint64",
          "internalType": "uint64"
        },
        {
          "name": "committer",
          "type": "address",
          "internalType": "address"
        },
        {
          "name": "bondAmount",
          "type": "uint256",
          "internalType": "uint256"
        },
        {
          "name": "commitDeadline",
          "type": "uint256",
          "internalType": "uint256"
        }
      ],
      "stateMutability": "view"
    },
    {
      "type": "function",
      "name": "computeCommitment",
      "inputs": [
        {
          "name": "refUID",
          "type": "bytes32",
          "internalType": "bytes32"
        },
        {
          "name": "claimer",
          "type": "address",
          "internalType": "address"
        },
        {
          "name": "data",
          "type": "tuple",
          "internalType": "struct CommitRevealObligation.ObligationData",
          "components": [
            {
              "name": "payload",
              "type": "bytes",
              "internalType": "bytes"
            },
            {
              "name": "salt",
              "type": "bytes32",
              "internalType": "bytes32"
            },
            {
              "name": "schema",
              "type": "bytes32",
              "internalType": "bytes32"
            }
          ]
        }
      ],
      "outputs": [
        {
          "name": "",
          "type": "bytes32",
          "internalType": "bytes32"
        }
      ],
      "stateMutability": "pure"
    },
    {
      "type": "function",
      "name": "decodeDemandData",
      "inputs": [
        {
          "name": "data",
          "type": "bytes",
          "internalType": "bytes"
        }
      ],
      "outputs": [
        {
          "name": "",
          "type": "tuple",
          "internalType": "struct CommitRevealObligation.DemandData",
          "components": [
            {
              "name": "bondAmount",
              "type": "uint256",
              "internalType": "uint256"
            },
            {
              "name": "commitDeadline",
              "type": "uint256",
              "internalType": "uint256"
            }
          ]
        }
      ],
      "stateMutability": "pure"
    },
    {
      "type": "function",
      "name": "decodeObligationData",
      "inputs": [
        {
          "name": "data",
          "type": "bytes",
          "internalType": "bytes"
        }
      ],
      "outputs": [
        {
          "name": "",
          "type": "tuple",
          "internalType": "struct CommitRevealObligation.ObligationData",
          "components": [
            {
              "name": "payload",
              "type": "bytes",
              "internalType": "bytes"
            },
            {
              "name": "salt",
              "type": "bytes32",
              "internalType": "bytes32"
            },
            {
              "name": "schema",
              "type": "bytes32",
              "internalType": "bytes32"
            }
          ]
        }
      ],
      "stateMutability": "pure"
    },
    {
      "type": "function",
      "name": "doObligation",
      "inputs": [
        {
          "name": "data",
          "type": "tuple",
          "internalType": "struct CommitRevealObligation.ObligationData",
          "components": [
            {
              "name": "payload",
              "type": "bytes",
              "internalType": "bytes"
            },
            {
              "name": "salt",
              "type": "bytes32",
              "internalType": "bytes32"
            },
            {
              "name": "schema",
              "type": "bytes32",
              "internalType": "bytes32"
            }
          ]
        },
        {
          "name": "refUID",
          "type": "bytes32",
          "internalType": "bytes32"
        }
      ],
      "outputs": [
        {
          "name": "uid_",
          "type": "bytes32",
          "internalType": "bytes32"
        }
      ],
      "stateMutability": "nonpayable"
    },
    {
      "type": "function",
      "name": "doObligationFor",
      "inputs": [
        {
          "name": "data",
          "type": "tuple",
          "internalType": "struct CommitRevealObligation.ObligationData",
          "components": [
            {
              "name": "payload",
              "type": "bytes",
              "internalType": "bytes"
            },
            {
              "name": "salt",
              "type": "bytes32",
              "internalType": "bytes32"
            },
            {
              "name": "schema",
              "type": "bytes32",
              "internalType": "bytes32"
            }
          ]
        },
        {
          "name": "recipient",
          "type": "address",
          "internalType": "address"
        },
        {
          "name": "refUID",
          "type": "bytes32",
          "internalType": "bytes32"
        }
      ],
      "outputs": [
        {
          "name": "uid_",
          "type": "bytes32",
          "internalType": "bytes32"
        }
      ],
      "stateMutability": "nonpayable"
    },
    {
      "type": "function",
      "name": "doObligationRaw",
      "inputs": [
        {
          "name": "data",
          "type": "bytes",
          "internalType": "bytes"
        },
        {
          "name": "expirationTime",
          "type": "uint64",
          "internalType": "uint64"
        },
        {
          "name": "refUID",
          "type": "bytes32",
          "internalType": "bytes32"
        }
      ],
      "outputs": [
        {
          "name": "uid_",
          "type": "bytes32",
          "internalType": "bytes32"
        }
      ],
      "stateMutability": "payable"
    },
    {
      "type": "function",
      "name": "getObligationData",
      "inputs": [
        {
          "name": "uid",
          "type": "bytes32",
          "internalType": "bytes32"
        }
      ],
      "outputs": [
        {
          "name": "",
          "type": "tuple",
          "internalType": "struct CommitRevealObligation.ObligationData",
          "components": [
            {
              "name": "payload",
              "type": "bytes",
              "internalType": "bytes"
            },
            {
              "name": "salt",
              "type": "bytes32",
              "internalType": "bytes32"
            },
            {
              "name": "schema",
              "type": "bytes32",
              "internalType": "bytes32"
            }
          ]
        }
      ],
      "stateMutability": "view"
    },
    {
      "type": "function",
      "name": "getSchema",
      "inputs": [],
      "outputs": [
        {
          "name": "",
          "type": "tuple",
          "internalType": "struct SchemaRecord",
          "components": [
            {
              "name": "uid",
              "type": "bytes32",
              "internalType": "bytes32"
            },
            {
              "name": "resolver",
              "type": "address",
              "internalType": "contract ISchemaResolver"
            },
            {
              "name": "revocable",
              "type": "bool",
              "internalType": "bool"
            },
            {
              "name": "schema",
              "type": "string",
              "internalType": "string"
            }
          ]
        }
      ],
      "stateMutability": "view"
    },
    {
      "type": "function",
      "name": "isPayable",
      "inputs": [],
      "outputs": [
        {
          "name": "",
          "type": "bool",
          "internalType": "bool"
        }
      ],
      "stateMutability": "pure"
    },
    {
      "type": "function",
      "name": "multiAttest",
      "inputs": [
        {
          "name": "attestations",
          "type": "tuple[]",
          "internalType": "struct Attestation[]",
          "components": [
            {
              "name": "uid",
              "type": "bytes32",
              "internalType": "bytes32"
            },
            {
              "name": "schema",
              "type": "bytes32",
              "internalType": "bytes32"
            },
            {
              "name": "time",
              "type": "uint64",
              "internalType": "uint64"
            },
            {
              "name": "expirationTime",
              "type": "uint64",
              "internalType": "uint64"
            },
            {
              "name": "revocationTime",
              "type": "uint64",
              "internalType": "uint64"
            },
            {
              "name": "refUID",
              "type": "bytes32",
              "internalType": "bytes32"
            },
            {
              "name": "recipient",
              "type": "address",
              "internalType": "address"
            },
            {
              "name": "attester",
              "type": "address",
              "internalType": "address"
            },
            {
              "name": "revocable",
              "type": "bool",
              "internalType": "bool"
            },
            {
              "name": "data",
              "type": "bytes",
              "internalType": "bytes"
            }
          ]
        },
        {
          "name": "values",
          "type": "uint256[]",
          "internalType": "uint256[]"
        }
      ],
      "outputs": [
        {
          "name": "",
          "type": "bool",
          "internalType": "bool"
        }
      ],
      "stateMutability": "payable"
    },
    {
      "type": "function",
      "name": "multiRevoke",
      "inputs": [
        {
          "name": "attestations",
          "type": "tuple[]",
          "internalType": "struct Attestation[]",
          "components": [
            {
              "name": "uid",
              "type": "bytes32",
              "internalType": "bytes32"
            },
            {
              "name": "schema",
              "type": "bytes32",
              "internalType": "bytes32"
            },
            {
              "name": "time",
              "type": "uint64",
              "internalType": "uint64"
            },
            {
              "name": "expirationTime",
              "type": "uint64",
              "internalType": "uint64"
            },
            {
              "name": "revocationTime",
              "type": "uint64",
              "internalType": "uint64"
            },
            {
              "name": "refUID",
              "type": "bytes32",
              "internalType": "bytes32"
            },
            {
              "name": "recipient",
              "type": "address",
              "internalType": "address"
            },
            {
              "name": "attester",
              "type": "address",
              "internalType": "address"
            },
            {
              "name": "revocable",
              "type": "bool",
              "internalType": "bool"
            },
            {
              "name": "data",
              "type": "bytes",
              "internalType": "bytes"
            }
          ]
        },
        {
          "name": "values",
          "type": "uint256[]",
          "internalType": "uint256[]"
        }
      ],
      "outputs": [
        {
          "name": "",
          "type": "bool",
          "internalType": "bool"
        }
      ],
      "stateMutability": "payable"
    },
    {
      "type": "function",
      "name": "owner",
      "inputs": [],
      "outputs": [
        {
          "name": "",
          "type": "address",
          "internalType": "address"
        }
      ],
      "stateMutability": "view"
    },
    {
      "type": "function",
      "name": "renounceOwnership",
      "inputs": [],
      "outputs": [],
      "stateMutability": "nonpayable"
    },
    {
      "type": "function",
      "name": "revealAndCollect",
      "inputs": [
        {
          "name": "data",
          "type": "tuple",
          "internalType": "struct CommitRevealObligation.ObligationData",
          "components": [
            {
              "name": "payload",
              "type": "bytes",
              "internalType": "bytes"
            },
            {
              "name": "salt",
              "type": "bytes32",
              "internalType": "bytes32"
            },
            {
              "name": "schema",
              "type": "bytes32",
              "internalType": "bytes32"
            }
          ]
        },
        {
          "name": "recipient",
          "type": "address",
          "internalType": "address"
        },
        {
          "name": "escrowContract",
          "type": "address",
          "internalType": "contract IEscrow"
        },
        {
          "name": "escrowUid",
          "type": "bytes32",
          "internalType": "bytes32"
        }
      ],
      "outputs": [
        {
          "name": "fulfillmentUid",
          "type": "bytes32",
          "internalType": "bytes32"
        },
        {
          "name": "collectResult",
          "type": "bytes",
          "internalType": "bytes"
        }
      ],
      "stateMutability": "nonpayable"
    },
    {
      "type": "function",
      "name": "revoke",
      "inputs": [
        {
          "name": "attestation",
          "type": "tuple",
          "internalType": "struct Attestation",
          "components": [
            {
              "name": "uid",
              "type": "bytes32",
              "internalType": "bytes32"
            },
            {
              "name": "schema",
              "type": "bytes32",
              "internalType": "bytes32"
            },
            {
              "name": "time",
              "type": "uint64",
              "internalType": "uint64"
            },
            {
              "name": "expirationTime",
              "type": "uint64",
              "internalType": "uint64"
            },
            {
              "name": "revocationTime",
              "type": "uint64",
              "internalType": "uint64"
            },
            {
              "name": "refUID",
              "type": "bytes32",
              "internalType": "bytes32"
            },
            {
              "name": "recipient",
              "type": "address",
              "internalType": "address"
            },
            {
              "name": "attester",
              "type": "address",
              "internalType": "address"
            },
            {
              "name": "revocable",
              "type": "bool",
              "internalType": "bool"
            },
            {
              "name": "data",
              "type": "bytes",
              "internalType": "bytes"
            }
          ]
        }
      ],
      "outputs": [
        {
          "name": "",
          "type": "bool",
          "internalType": "bool"
        }
      ],
      "stateMutability": "payable"
    },
    {
      "type": "function",
      "name": "setSlashedBondRecipient",
      "inputs": [
        {
          "name": "_slashedBondRecipient",
          "type": "address",
          "internalType": "address"
        }
      ],
      "outputs": [],
      "stateMutability": "nonpayable"
    },
    {
      "type": "function",
      "name": "slashBond",
      "inputs": [
        {
          "name": "commitment",
          "type": "bytes32",
          "internalType": "bytes32"
        }
      ],
      "outputs": [
        {
          "name": "amount",
          "type": "uint256",
          "internalType": "uint256"
        }
      ],
      "stateMutability": "nonpayable"
    },
    {
      "type": "function",
      "name": "slashedBondRecipient",
      "inputs": [],
      "outputs": [
        {
          "name": "",
          "type": "address",
          "internalType": "address"
        }
      ],
      "stateMutability": "view"
    },
    {
      "type": "function",
      "name": "supportsInterface",
      "inputs": [
        {
          "name": "interfaceId",
          "type": "bytes4",
          "internalType": "bytes4"
        }
      ],
      "outputs": [
        {
          "name": "",
          "type": "bool",
          "internalType": "bool"
        }
      ],
      "stateMutability": "view"
    },
    {
      "type": "function",
      "name": "transferOwnership",
      "inputs": [
        {
          "name": "newOwner",
          "type": "address",
          "internalType": "address"
        }
      ],
      "outputs": [],
      "stateMutability": "nonpayable"
    },
    {
      "type": "function",
      "name": "version",
      "inputs": [],
      "outputs": [
        {
          "name": "",
          "type": "string",
          "internalType": "string"
        }
      ],
      "stateMutability": "view"
    },
    {
      "type": "event",
      "name": "BondReclaimed",
      "inputs": [
        {
          "name": "fulfillmentUid",
          "type": "bytes32",
          "indexed": true,
          "internalType": "bytes32"
        },
        {
          "name": "claimer",
          "type": "address",
          "indexed": true,
          "internalType": "address"
        },
        {
          "name": "amount",
          "type": "uint256",
          "indexed": false,
          "internalType": "uint256"
        }
      ],
      "anonymous": false
    },
    {
      "type": "event",
      "name": "BondSlashed",
      "inputs": [
        {
          "name": "commitment",
          "type": "bytes32",
          "indexed": true,
          "internalType": "bytes32"
        },
        {
          "name": "recipient",
          "type": "address",
          "indexed": true,
          "internalType": "address"
        },
        {
          "name": "amount",
          "type": "uint256",
          "indexed": false,
          "internalType": "uint256"
        }
      ],
      "anonymous": false
    },
    {
      "type": "event",
      "name": "Committed",
      "inputs": [
        {
          "name": "commitment",
          "type": "bytes32",
          "indexed": true,
          "internalType": "bytes32"
        },
        {
          "name": "claimer",
          "type": "address",
          "indexed": true,
          "internalType": "address"
        },
        {
          "name": "amount",
          "type": "uint256",
          "indexed": false,
          "internalType": "uint256"
        },
        {
          "name": "commitDeadline",
          "type": "uint256",
          "indexed": false,
          "internalType": "uint256"
        }
      ],
      "anonymous": false
    },
    {
      "type": "event",
      "name": "OwnershipTransferred",
      "inputs": [
        {
          "name": "previousOwner",
          "type": "address",
          "indexed": true,
          "internalType": "address"
        },
        {
          "name": "newOwner",
          "type": "address",
          "indexed": true,
          "internalType": "address"
        }
      ],
      "anonymous": false
    },
    {
      "type": "error",
      "name": "AccessDenied",
      "inputs": []
    },
    {
      "type": "error",
      "name": "BondAlreadyClaimed",
      "inputs": [
        {
          "name": "commitment",
          "type": "bytes32",
          "internalType": "bytes32"
        }
      ]
    },
    {
      "type": "error",
      "name": "BondTransferFailed",
      "inputs": [
        {
          "name": "claimer",
          "type": "address",
          "internalType": "address"
        },
        {
          "name": "amount",
          "type": "uint256",
          "internalType": "uint256"
        }
      ]
    },
    {
      "type": "error",
      "name": "CommitDeadlineNotReached",
      "inputs": [
        {
          "name": "commitment",
          "type": "bytes32",
          "internalType": "bytes32"
        }
      ]
    },
    {
      "type": "error",
      "name": "CommitmentAlreadyExists",
      "inputs": [
        {
          "name": "commitment",
          "type": "bytes32",
          "internalType": "bytes32"
        }
      ]
    },
    {
      "type": "error",
      "name": "CommitmentMissing",
      "inputs": [
        {
          "name": "commitment",
          "type": "bytes32",
          "internalType": "bytes32"
        },
        {
          "name": "claimer",
          "type": "address",
          "internalType": "address"
        }
      ]
    },
    {
      "type": "error",
      "name": "CommitmentTooRecent",
      "inputs": [
        {
          "name": "commitment",
          "type": "bytes32",
          "internalType": "bytes32"
        },
        {
          "name": "claimer",
          "type": "address",
          "internalType": "address"
        }
      ]
    },
    {
      "type": "error",
      "name": "EmptyCommitment",
      "inputs": []
    },
    {
      "type": "error",
      "name": "EscrowCollectionFailed",
      "inputs": [
        {
          "name": "escrowContract",
          "type": "address",
          "internalType": "address"
        },
        {
          "name": "escrowUid",
          "type": "bytes32",
          "internalType": "bytes32"
        },
        {
          "name": "fulfillmentUid",
          "type": "bytes32",
          "internalType": "bytes32"
        },
        {
          "name": "result",
          "type": "bytes",
          "internalType": "bytes"
        }
      ]
    },
    {
      "type": "error",
      "name": "InsufficientValue",
      "inputs": []
    },
    {
      "type": "error",
      "name": "InvalidEAS",
      "inputs": []
    },
    {
      "type": "error",
      "name": "InvalidLength",
      "inputs": []
    },
    {
      "type": "error",
      "name": "NotFromThisAttester",
      "inputs": []
    },
    {
      "type": "error",
      "name": "NotPayable",
      "inputs": []
    },
    {
      "type": "error",
      "name": "OwnableInvalidOwner",
      "inputs": [
        {
          "name": "owner",
          "type": "address",
          "internalType": "address"
        }
      ]
    },
    {
      "type": "error",
      "name": "OwnableUnauthorizedAccount",
      "inputs": [
        {
          "name": "account",
          "type": "address",
          "internalType": "address"
        }
      ]
    },
    {
      "type": "error",
      "name": "ReentrancyGuardReentrantCall",
      "inputs": []
    },
    {
      "type": "error",
      "name": "RevealTooLate",
      "inputs": [
        {
          "name": "commitment",
          "type": "bytes32",
          "internalType": "bytes32"
        }
      ]
    },
    {
      "type": "error",
      "name": "SchemaRegistrationFailed",
      "inputs": [
        {
          "name": "uid",
          "type": "bytes32",
          "internalType": "bytes32"
        }
      ]
    },
    {
      "type": "error",
      "name": "SlashTransferFailed",
      "inputs": [
        {
          "name": "recipient",
          "type": "address",
          "internalType": "address"
        },
        {
          "name": "amount",
          "type": "uint256",
          "internalType": "uint256"
        }
      ]
    },
    {
      "type": "error",
      "name": "UnauthorizedReveal",
      "inputs": [
        {
          "name": "caller",
          "type": "address",
          "internalType": "address"
        },
        {
          "name": "committer",
          "type": "address",
          "internalType": "address"
        },
        {
          "name": "recipient",
          "type": "address",
          "internalType": "address"
        }
      ]
    },
    {
      "type": "error",
      "name": "ZeroBondAmount",
      "inputs": []
    }
  ],
  "bytecode": {
    "object": "0x610180806040523461022d5760608161287080380380916100208285610231565b83398101031261022d5780516001600160a01b0381169182820361022d576020810151926001600160a01b0384169182850361022d57604001516001600160a01b038116949085900361022d576040519161007c606084610231565b602b83527f6279746573207061796c6f61642c20627974657333322073616c742c2062797460208401526a6573333220736368656d6160a81b60408401526001608052600360a0525f60c0521561021e57836100ea9460e0526101205261010052600161016052309161034c565b6101405260017f9b779b17422d0df92223018b32b4d1fa46e071723d6817e2486d003becc55f0055331561020b575f8054336001600160a01b0319821681178355604051939290916001600160a01b0316907f8be0079c531659141344cd1fd0a4f28419497f9722a3daafe3b4186f6b6457e09080a3600380546001600160a01b031916919091179055612348908161052882396080518161133e015260a05181611369015260c05181611394015260e05181612272015261010051816110200152610120518181816105f40152818161098c0152611db501526101405181818161062c0152818161087d01528181610fee0152818161115c01528181611ab70152611c9e0152610160518181816107fd015281816108b50152611cde0152f35b631e4fbdf760e01b5f525f60045260245ffd5b6341bc07ff60e11b5f5260045ffd5b5f80fd5b601f909101601f19168101906001600160401b0382119082101761025457604052565b634e487b7160e01b5f52604160045260245ffd5b60208183031261022d578051906001600160401b03821161022d57019060808282031261022d5760405191608083016001600160401b03811184821017610254576040528051835260208101516001600160a01b038116810361022d5760208401526040810151801515810361022d5760408401526060810151906001600160401b03821161022d570181601f8201121561022d578051906001600160401b0382116102545760405192610326601f8401601f191660200185610231565b8284526020838301011161022d57815f9260208093018386015e83010152606082015290565b929160405190602082018351926103966015602083818901978089885e810160018060601b03198860601b1683820152600160f81b60348201520301600a19810184520182610231565b5190206040516351753e3760e11b81526004810182905290956001600160a01b031693905f81602481885afa80156104a75787915f9161050d575b505114610507579060846020926040519485938492630c1af44f60e31b8452606060048501525180928160648601528585015e5f84838501015260018060a01b0316602483015260016044830152601f801991011681010301815f865af15f91816104d3575b506104b257505f602491604051928380926351753e3760e11b82528760048301525afa80156104a75783915f91610485575b5051146104835750639e6113d560e01b5f5260045260245ffd5b565b6104a191503d805f833e6104998183610231565b810190610268565b5f610469565b6040513d5f823e3d90fd5b919280915082036104c1575090565b639e6113d560e01b5f5260045260245ffd5b9091506020813d6020116104ff575b816104ef60209383610231565b8101031261022d5751905f610437565b3d91506104e2565b50505050565b61052191503d805f833e6104998183610231565b5f6103d156fe6080806040526004361015610029575b50361561001a575f80fd5b631574f9f360e01b5f5260045ffd5b5f3560e01c90816301ffc9a7146115cf575080631f04b6b6146115a75780632cfea7ce146114645780633d4472651461142157806354fd4d501461131f578063571573ce1461117f5780635bf2f20d146111455780636b122fe014610faf578063715018a614610f58578063838a68d914610edc578063839df94514610e7557806388e5b2d914610d175780638da3721a14610d5d5780638da5cb5b14610d3657806391db0b7e14610d17578063a50a216214610caa578063b3b902d414610822578063b587a5eb146107e6578063c6ec507014610571578063c93844be146104bc578063cd95b7b91461045c578063ce46e04614610442578063d4e063dd14610413578063da18dc7814610370578063e49617e11461034b578063e60c35051461034b578063e900ead8146101f25763f2fde38b14610169575f61000f565b346101ee5760203660031901126101ee57610182611638565b61018a6120a5565b6001600160a01b031680156101db575f80546001600160a01b03198116831782556001600160a01b0316907f8be0079c531659141344cd1fd0a4f28419497f9722a3daafe3b4186f6b6457e09080a3005b631e4fbdf760e01b5f525f60045260245ffd5b5f80fd5b60403660031901126101ee57602435600435801561033c57341561032d575f81815260016020819052604090912001546001600160a01b031661031b5760405161023b81611733565b6001600160401b03431681526003602082016001600160401b03421681526040830133815260608401903482526080850192878452865f5260016020526001600160401b0360405f209651166fffffffffffffffff00000000000000008754925160401b16916fffffffffffffffffffffffffffffffff191617178555600185019060018060a01b039051166bffffffffffffffffffffffff60a01b825416179055516002840155519101556040519134835260208301527ff9d7d804568de462be82d5c339adb0889f00ebbebe4ffb8b58abd40aed01108360403393a3005b63c5f89f0560e01b5f5260045260245ffd5b636edb2d2f60e11b5f5260045ffd5b635560fe6360e11b5f5260045ffd5b6020610366610359366118bd565b610361612270565b6122b1565b6040519015158152f35b346101ee5760603660031901126101ee57610389611622565b604435906001600160401b0382116101ee57606060031983360301126101ee576103c96104086020936040516103d7816103c988820194600401856118f1565b03601f1981018352826117ea565b519020604080516004358782019081526001600160a01b039096166020870152908501919091529182906060850190565b519020604051908152f35b346101ee5760203660031901126101ee576004355f526002602052602060ff60405f2054166040519015158152f35b346101ee575f3660031901126101ee5760206040515f8152f35b346101ee5760403660031901126101ee576004356001600160401b0381116101ee57606060031982360301126101ee576104b46103c96104a96020936040519283916004018683016118f1565b602435903390611c91565b604051908152f35b346101ee5760203660031901126101ee576004356001600160401b0381116101ee576104ec903690600401611686565b6104f4611c72565b508101906020818303126101ee578035906001600160401b0382116101ee5701906060828203126101ee576040519061052c826117b4565b8235926001600160401b0384116101ee5761054e60409261056d958301611870565b835260208101356020840152013560408201526040519182918261188e565b0390f35b346101ee5760203660031901126101ee5761058a611c72565b50606061012060405161059c81611798565b5f81525f60208201525f60408201525f838201525f60808201525f60a08201525f60c08201525f60e08201525f61010082015201526040516328c44a9960e21b815260043560048201525f8160248160018060a01b037f0000000000000000000000000000000000000000000000000000000000000000165afa9081156107db575f916106e9575b5060208101517f0000000000000000000000000000000000000000000000000000000000000000036106da57610120015180518101906020818303126101ee576020810151906001600160401b0382116101ee57016060818303126101ee5760405190610690826117b4565b6020810151906001600160401b0382116101ee576106bb60609260208061056d970191840101611995565b835260408101516020840152015160408201526040519182918261188e565b635527981560e11b5f5260045ffd5b90503d805f833e6106fa81836117ea565b8101906020818303126101ee578051906001600160401b0382116101ee5701610140818303126101ee576040519161073183611798565b815183526020820151602084015261074b604083016122ca565b604084015261075c606083016122ca565b606084015261076d608083016122ca565b608084015260a082015160a084015261078860c083016122de565b60c084015261079960e083016122de565b60e08401526107ab61010083016119ff565b6101008401526101208201516001600160401b0381116101ee576107cf9201611995565b61012082015281610624565b6040513d5f823e3d90fd5b346101ee575f3660031901126101ee5760206040517f000000000000000000000000000000000000000000000000000000000000000015158152f35b60603660031901126101ee576004356001600160401b0381116101ee5761084d903690600401611686565b90602435906001600160401b0382168092036101ee576108729060443593369161183a565b9061087b612238565b7f000000000000000000000000000000000000000000000000000000000000000092604051926108aa846117cf565b3384528260208501527f00000000000000000000000000000000000000000000000000000000000000001515928360408601528260608601528160808601525f60a086015260206040516108fd8161177d565b8781528181019687526040518097819263f17325e760e01b8352846004840152516024830152516040604483015260018060a01b0381511660648301526001600160401b03848201511660848301526040810151151560a4830152606081015160c483015260a061097e608083015160c060e4860152610124850190611662565b91015161010483015203815f7f00000000000000000000000000000000000000000000000000000000000000006001600160a01b03165af19485156107db575f95610c74575b506103c991610a5091604051976109da89611798565b87895260208901526001600160401b034216604089015260608801525f60808801528360a088015260c08701943386523060e0890152610100880152806101208801526020815191012060405192839160208301953390876040919493926060820195825260018060a01b031660208201520152565b51902090815f52600160205260405f2060405191610a6d83611733565b81546001600160401b03811684526001600160401b03602085019160401c16815260018060a01b036001840154169160408501948386526003600286015495606083019687520154936080820194855215610c4e5785516001600160a01b0316338114801590610c3a575b610c115750516001600160401b0316431115610bec5750519051610b04916001600160401b03166119de565b4211610bd957825f52600260205260ff60405f205416610bc65751915f52600260205260405f20600160ff198254161790555f8080808560018060a01b038651165af1610b4f6119af565b5015610ba7577fa9b8d1cb23fc6bfcae1f7ed8ec77868451af44dde191688baa93bb00b7ee491760208095519260018060a01b0390511693604051908152a360015f5160206122f35f395f51905f5255604051908152f35b60018060a01b03905116638fdb80a360e01b5f5260045260245260445ffd5b826327d117f760e01b5f5260045260245ffd5b8263b7c2dee760e01b5f5260045260245ffd5b516309e555e360e01b5f90815260048790526001600160a01b03909116602452604490fd5b825163063c75b360e31b5f908152336004526024929092526001600160a01b0316604452606490fd5b5082516001600160a01b0316811415610ad8565b8151630fa254d360e21b5f90815260048990526001600160a01b03909116602452604490fd5b9094506020813d602011610ca2575b81610c90602093836117ea565b810103126101ee5751936103c96109c4565b3d9150610c83565b346101ee5760603660031901126101ee576004356001600160401b0381116101ee57606060031982360301126101ee576104b4610d00602092610d0e610cee611622565b916040519384916004018783016118f1565b03601f1981018452836117ea565b60443591611c91565b6020610366610d25366116e3565b92610d31929192612270565b611a0c565b346101ee575f3660031901126101ee575f546040516001600160a01b039091168152602090f35b346101ee5760603660031901126101ee576004356001600160401b0381116101ee5761014060031982360301126101ee5760405190610d9b82611798565b8060040135825260248101356020830152610db86044820161180b565b6040830152610dc96064820161180b565b6060830152610dda6084820161180b565b608083015260a481013560a0830152610df560c4820161164e565b60c0830152610e0660e4820161164e565b60e083015261010481013580151581036101ee57610100830152610124810135906001600160401b0382116101ee576004610e449236920101611870565b6101208201526024356001600160401b0381116101ee57602091610e6f610366923690600401611870565b90611ab0565b346101ee5760203660031901126101ee576004355f52600160205260a060405f20805490600180841b036001820154169060036002820154910154916001600160401b0360405194818116865260401c166020850152604084015260608301526080820152f35b346101ee5760203660031901126101ee576004356001600160401b0381116101ee57610f0e6040913690600401611686565b9082915f6020839551610f208161177d565b8281520152810103126101ee57604090815190610f3c8261177d565b6020808235938481520191013581528251918252516020820152f35b346101ee575f3660031901126101ee57610f706120a5565b5f80546001600160a01b0319811682556001600160a01b03167f8be0079c531659141344cd1fd0a4f28419497f9722a3daafe3b4186f6b6457e08280a3005b346101ee575f3660031901126101ee57606080604051610fce81611762565b5f81525f60208201525f604082015201526040516351753e3760e11b81527f000000000000000000000000000000000000000000000000000000000000000060048201525f8160248160018060a01b037f0000000000000000000000000000000000000000000000000000000000000000165afa80156107db575f90611095575b60609061056d604051928392602084528051602085015260018060a01b0360208201511660408501526040810151151582850152015160808084015260a0830190611662565b503d805f833e6110a581836117ea565b8101906020818303126101ee578051906001600160401b0382116101ee57016080818303126101ee57604051906110db82611762565b8051825260208101516001600160a01b03811681036101ee576020830152611105604082016119ff565b60408301526060810151906001600160401b0382116101ee570182601f820112156101ee5760609281602061113c9351910161195f565b8282015261104f565b346101ee575f3660031901126101ee5760206040517f00000000000000000000000000000000000000000000000000000000000000008152f35b346101ee5760203660031901126101ee5760043561119b612238565b805f52600160205260405f206040516111b381611733565b8154906001600160401b03821681526001600160401b03602082019260401c16825260018060a01b0360018401541680604083015260806003600286015495606085019687520154920191825215611308576001600160401b0361121b9251169051906119de565b4211156112f557815f52600260205260ff60405f2054166112e2575190805f52600260205260405f20600160ff198254161790555f8080808560018060a01b03600354165af16112696119af565b50156112c1579060209160018060a01b0360035416907f5fab42dd23447bf0a6cc6638a8217a7d477b5067842aedf24b881e132c1c133d84604051858152a360015f5160206122f35f395f51905f5255604051908152f35b5060018060a01b0360035416631f89846360e21b5f5260045260245260445ffd5b506327d117f760e01b5f5260045260245ffd5b50631439fe2d60e01b5f5260045260245ffd5b83630fa254d360e21b5f526004525f60245260445ffd5b346101ee575f3660031901126101ee5761056d602061140d60016113627f00000000000000000000000000000000000000000000000000000000000000006120cb565b818461138d7f00000000000000000000000000000000000000000000000000000000000000006120cb565b81806113b87f00000000000000000000000000000000000000000000000000000000000000006120cb565b9260405199878b985191829101848a015e870190601760f91b83830152805192839101602183015e010190601760f91b84830152805192839101600283015e01015f838201520301601f1981018352826117ea565b604051918291602083526020830190611662565b346101ee5760203660031901126101ee5761143a611638565b6114426120a5565b600380546001600160a01b0319166001600160a01b0392909216919091179055005b346101ee5760803660031901126101ee576004356001600160401b0381116101ee57606060031982360301126101ee5761149c611622565b6044356001600160a01b03811691908290036101ee576114d5926114da916103c9606435958693604051928391600401602083016118f1565b611c91565b604051633a9bb12760e21b81528360048201528160248201525f8160448183875af15f9181611568575b5061154b5750611547906115166119af565b90604051948594630b836fc760e31b8652600486015260248501526044840152608060648401526084830190611662565b0390fd5b9061056d6040519283928352604060208401526040830190611662565b9091503d805f833e61157a81836117ea565b81016020828203126101ee5781516001600160401b0381116101ee576115a09201611995565b9085611504565b346101ee575f3660031901126101ee576003546040516001600160a01b039091168152602090f35b346101ee5760203660031901126101ee576004359063ffffffff60e01b82168092036101ee576020916346d1b90d60e11b8114908115611611575b5015158152f35b6301ffc9a760e01b1490508361160a565b602435906001600160a01b03821682036101ee57565b600435906001600160a01b03821682036101ee57565b35906001600160a01b03821682036101ee57565b805180835260209291819084018484015e5f828201840152601f01601f1916010190565b9181601f840112156101ee578235916001600160401b0383116101ee57602083818601950101116101ee57565b9181601f840112156101ee578235916001600160401b0383116101ee576020808501948460051b0101116101ee57565b60406003198201126101ee576004356001600160401b0381116101ee578161170d916004016116b3565b92909291602435906001600160401b0382116101ee5761172f916004016116b3565b9091565b60a081019081106001600160401b0382111761174e57604052565b634e487b7160e01b5f52604160045260245ffd5b608081019081106001600160401b0382111761174e57604052565b604081019081106001600160401b0382111761174e57604052565b61014081019081106001600160401b0382111761174e57604052565b606081019081106001600160401b0382111761174e57604052565b60c081019081106001600160401b0382111761174e57604052565b90601f801991011681019081106001600160401b0382111761174e57604052565b35906001600160401b03821682036101ee57565b6001600160401b03811161174e57601f01601f191660200190565b9291926118468261181f565b9161185460405193846117ea565b8294818452818301116101ee578281602093845f960137010152565b9080601f830112156101ee5781602061188b9335910161183a565b90565b60208152606060406118ab84518360208601526080850190611662565b93602081015182850152015191015290565b60206003198201126101ee57600435906001600160401b0382116101ee576101409082900360031901126101ee5760040190565b602081528135601e19833603018112156101ee5782016020813591016001600160401b0382116101ee5781360381136101ee5760a0938260409260606020870152816080870152868601375f84840186015260208101358285015201356060830152601f01601f1916010190565b92919261196b8261181f565b9161197960405193846117ea565b8294818452818301116101ee578281602093845f96015e010152565b9080601f830112156101ee57815161188b9260200161195f565b3d156119d9573d906119c08261181f565b916119ce60405193846117ea565b82523d5f602084013e565b606090565b919082018092116119eb57565b634e487b7160e01b5f52601160045260245ffd5b519081151582036101ee57565b929092818403611aa1575f91345b85841015611a965781841015611a82578360051b8086013590828211611a735784013561013e19853603018112156101ee57611a579085016122b1565b15611a685760019103930192611a1a565b505050505050505f90565b63044044a560e21b5f5260045ffd5b634e487b7160e01b5f52603260045260245ffd5b505050505050600190565b63251f56a160e21b5f5260045ffd5b60208101517f000000000000000000000000000000000000000000000000000000000000000003611c6c5760a081015160c0820180516101208401518051602091820120604080519283019586526001600160a01b03909316928201929092526060810191909152909190611b2881608081016103c9565b51902090815f52600160205260405f2092604051611b4581611733565b8454926001600160401b03841682526001600160401b03602083019460401c16845260018060a01b03600187015416918260408201526003600288015497606083019889520154926080820193845215611c4657516001600160401b0316431115611c2157506040868051810103126101ee576040805196611bc68861177d565b6020810151885201519081602088015251908103611c17576001600160401b03806040611bf8940151169351166119de565b10611c0557505190511490565b63b7c2dee760e01b5f5260045260245ffd5b5050505050505f90565b516309e555e360e01b5f90815260048690526001600160a01b03909116602452604490fd5b8151630fa254d360e21b5f90815260048890526001600160a01b03909116602452604490fd5b50505f90565b60405190611c7f826117b4565b5f604083606081528260208201520152565b919091611c9c612238565b7f00000000000000000000000000000000000000000000000000000000000000009160405193611ccb856117cf565b60018060a01b03168085525f60208601527f00000000000000000000000000000000000000000000000000000000000000001515928360408701528260608701528060808701525f60a08701526020604051611d268161177d565b8681528181019788526040518098819263f17325e760e01b8352846004840152516024830152516040604483015260018060a01b0381511660648301526001600160401b03848201511660848301526040810151151560a4830152606081015160c483015260a0611da7608083015160c060e4860152610124850190611662565b91015161010483015203815f7f00000000000000000000000000000000000000000000000000000000000000006001600160a01b03165af19586156107db575f9661206f575b50611e789060405195611dff87611798565b87875260208701526001600160401b03421660408701525f60608701525f60808701528360a087015260c08601948386523060e08801526101008701528061012087015260208151910120916103c96040519384926020840196876040919493926060820195825260018060a01b031660208201520152565b51902091825f52600160205260405f2060405192611e9584611733565b81546001600160401b03811685526001600160401b03602086019160401c16815260018060a01b0360018401541691604086019583875260036002860154956060830196875201549360808201948552156120495786516001600160a01b0316338114801590612035575b610c115750516001600160401b03164311156120105750519051611f2c916001600160401b03166119de565b4211611ffd57835f52600260205260ff60405f205416611fea5751925f52600260205260405f20600160ff198254161790555f8080808660018060a01b038751165af1611f776119af565b5015611fca575190516040519283526001600160a01b0316917fa9b8d1cb23fc6bfcae1f7ed8ec77868451af44dde191688baa93bb00b7ee491790602090a39060015f5160206122f35f395f51905f5255565b5060018060a01b03905116638fdb80a360e01b5f5260045260245260445ffd5b836327d117f760e01b5f5260045260245ffd5b8363b7c2dee760e01b5f5260045260245ffd5b516309e555e360e01b5f90815260048890526001600160a01b03909116602452604490fd5b5082516001600160a01b0316811415611f00565b8151630fa254d360e21b5f90815260048a90526001600160a01b03909116602452604490fd5b9095506020813d60201161209d575b8161208b602093836117ea565b810103126101ee575194611e78611ded565b3d915061207e565b5f546001600160a01b031633036120b857565b63118cdaa760e01b5f523360045260245ffd5b805f9172184f03e93ff9f4daa797ed6e38ed64bf6a1f0160401b821015612215575b806d04ee2d6d415b85acef8100000000600a9210156121fa575b662386f26fc100008110156121e6575b6305f5e1008110156121d5575b6127108110156121c6575b60648110156121b8575b10156121ad575b600a602160018401936121528561181f565b9461216060405196876117ea565b80865261216f601f199161181f565b013660208701378401015b5f1901916f181899199a1a9b1b9c1cb0b131b232b360811b8282061a83530480156121a857600a909161217a565b505090565b600190910190612140565b606460029104930192612139565b6127106004910493019261212f565b6305f5e10060089104930192612124565b662386f26fc1000060109104930192612117565b6d04ee2d6d415b85acef810000000060209104930192612107565b506040915072184f03e93ff9f4daa797ed6e38ed64bf6a1f0160401b81046120ed565b60025f5160206122f35f395f51905f5254146122615760025f5160206122f35f395f51905f5255565b633ee5aeb560e01b5f5260045ffd5b7f00000000000000000000000000000000000000000000000000000000000000006001600160a01b031633036122a257565b634ca8886760e01b5f5260045ffd5b60e0013560018060a01b0381168091036101ee57301490565b51906001600160401b03821682036101ee57565b51906001600160a01b03821682036101ee5756fe9b779b17422d0df92223018b32b4d1fa46e071723d6817e2486d003becc55f00a2646970667358221220137f71c314eaed54ef89c7ed8ed777d32084ac5707e8a3c639e61cf86d04405164736f6c634300081b0033",
    "linkReferences": {}
  },
  "methodIdentifiers": {
    "ATTESTATION_SCHEMA()": "5bf2f20d",
    "ATTESTATION_SCHEMA_REVOCABLE()": "b587a5eb",
    "attest((bytes32,bytes32,uint64,uint64,uint64,bytes32,address,address,bool,bytes))": "e60c3505",
    "check((bytes32,bytes32,uint64,uint64,uint64,bytes32,address,address,bool,bytes),bytes,bytes32)": "8da3721a",
    "commit(bytes32,uint256)": "e900ead8",
    "commitmentClaimed(bytes32)": "d4e063dd",
    "commitments(bytes32)": "839df945",
    "computeCommitment(bytes32,address,(bytes,bytes32,bytes32))": "da18dc78",
    "decodeDemandData(bytes)": "838a68d9",
    "decodeObligationData(bytes)": "c93844be",
    "doObligation((bytes,bytes32,bytes32),bytes32)": "cd95b7b9",
    "doObligationFor((bytes,bytes32,bytes32),address,bytes32)": "a50a2162",
    "doObligationRaw(bytes,uint64,bytes32)": "b3b902d4",
    "getObligationData(bytes32)": "c6ec5070",
    "getSchema()": "6b122fe0",
    "isPayable()": "ce46e046",
    "multiAttest((bytes32,bytes32,uint64,uint64,uint64,bytes32,address,address,bool,bytes)[],uint256[])": "91db0b7e",
    "multiRevoke((bytes32,bytes32,uint64,uint64,uint64,bytes32,address,address,bool,bytes)[],uint256[])": "88e5b2d9",
    "owner()": "8da5cb5b",
    "renounceOwnership()": "715018a6",
    "revealAndCollect((bytes,bytes32,bytes32),address,address,bytes32)": "2cfea7ce",
    "revoke((bytes32,bytes32,uint64,uint64,uint64,bytes32,address,address,bool,bytes))": "e49617e1",
    "setSlashedBondRecipient(address)": "3d447265",
    "slashBond(bytes32)": "571573ce",
    "slashedBondRecipient()": "1f04b6b6",
    "supportsInterface(bytes4)": "01ffc9a7",
    "transferOwnership(address)": "f2fde38b",
    "version()": "54fd4d50"
  },
  "id": 64
}