{"abi":[{"type":"constructor","inputs":[{"name":"_eas","type":"address","internalType":"contract IEAS"},{"name":"_schemaRegistry","type":"address","internalType":"contract ISchemaRegistry"}],"stateMutability":"nonpayable"},{"type":"receive","stateMutability":"payable"},{"type":"function","name":"ATTESTATION_SCHEMA","inputs":[],"outputs":[{"name":"","type":"bytes32","internalType":"bytes32"}],"stateMutability":"view"},{"type":"function","name":"attest","inputs":[{"name":"attestation","type":"tuple","internalType":"struct Attestation","components":[{"name":"uid","type":"bytes32","internalType":"bytes32"},{"name":"schema","type":"bytes32","internalType":"bytes32"},{"name":"time","type":"uint64","internalType":"uint64"},{"name":"expirationTime","type":"uint64","internalType":"uint64"},{"name":"revocationTime","type":"uint64","internalType":"uint64"},{"name":"refUID","type":"bytes32","internalType":"bytes32"},{"name":"recipient","type":"address","internalType":"address"},{"name":"attester","type":"address","internalType":"address"},{"name":"revocable","type":"bool","internalType":"bool"},{"name":"data","type":"bytes","internalType":"bytes"}]}],"outputs":[{"name":"","type":"bool","internalType":"bool"}],"stateMutability":"payable"},{"type":"function","name":"decodeObligationData","inputs":[{"name":"data","type":"bytes","internalType":"bytes"}],"outputs":[{"name":"","type":"tuple","internalType":"struct StringObligation.ObligationData","components":[{"name":"item","type":"string","internalType":"string"}]}],"stateMutability":"pure"},{"type":"function","name":"doObligation","inputs":[{"name":"data","type":"tuple","internalType":"struct StringObligation.ObligationData","components":[{"name":"item","type":"string","internalType":"string"}]},{"name":"refUID","type":"bytes32","internalType":"bytes32"}],"outputs":[{"name":"uid_","type":"bytes32","internalType":"bytes32"}],"stateMutability":"nonpayable"},{"type":"function","name":"doObligationRaw","inputs":[{"name":"data","type":"bytes","internalType":"bytes"},{"name":"expirationTime","type":"uint64","internalType":"uint64"},{"name":"refUID","type":"bytes32","internalType":"bytes32"}],"outputs":[{"name":"uid_","type":"bytes32","internalType":"bytes32"}],"stateMutability":"payable"},{"type":"function","name":"getObligationData","inputs":[{"name":"uid","type":"bytes32","internalType":"bytes32"}],"outputs":[{"name":"","type":"tuple","internalType":"struct StringObligation.ObligationData","components":[{"name":"item","type":"string","internalType":"string"}]}],"stateMutability":"view"},{"type":"function","name":"getSchema","inputs":[],"outputs":[{"name":"","type":"tuple","internalType":"struct SchemaRecord","components":[{"name":"uid","type":"bytes32","internalType":"bytes32"},{"name":"resolver","type":"address","internalType":"contract ISchemaResolver"},{"name":"revocable","type":"bool","internalType":"bool"},{"name":"schema","type":"string","internalType":"string"}]}],"stateMutability":"view"},{"type":"function","name":"isPayable","inputs":[],"outputs":[{"name":"","type":"bool","internalType":"bool"}],"stateMutability":"pure"},{"type":"function","name":"multiAttest","inputs":[{"name":"attestations","type":"tuple[]","internalType":"struct Attestation[]","components":[{"name":"uid","type":"bytes32","internalType":"bytes32"},{"name":"schema","type":"bytes32","internalType":"bytes32"},{"name":"time","type":"uint64","internalType":"uint64"},{"name":"expirationTime","type":"uint64","internalType":"uint64"},{"name":"revocationTime","type":"uint64","internalType":"uint64"},{"name":"refUID","type":"bytes32","internalType":"bytes32"},{"name":"recipient","type":"address","internalType":"address"},{"name":"attester","type":"address","internalType":"address"},{"name":"revocable","type":"bool","internalType":"bool"},{"name":"data","type":"bytes","internalType":"bytes"}]},{"name":"values","type":"uint256[]","internalType":"uint256[]"}],"outputs":[{"name":"","type":"bool","internalType":"bool"}],"stateMutability":"payable"},{"type":"function","name":"multiRevoke","inputs":[{"name":"attestations","type":"tuple[]","internalType":"struct Attestation[]","components":[{"name":"uid","type":"bytes32","internalType":"bytes32"},{"name":"schema","type":"bytes32","internalType":"bytes32"},{"name":"time","type":"uint64","internalType":"uint64"},{"name":"expirationTime","type":"uint64","internalType":"uint64"},{"name":"revocationTime","type":"uint64","internalType":"uint64"},{"name":"refUID","type":"bytes32","internalType":"bytes32"},{"name":"recipient","type":"address","internalType":"address"},{"name":"attester","type":"address","internalType":"address"},{"name":"revocable","type":"bool","internalType":"bool"},{"name":"data","type":"bytes","internalType":"bytes"}]},{"name":"values","type":"uint256[]","internalType":"uint256[]"}],"outputs":[{"name":"","type":"bool","internalType":"bool"}],"stateMutability":"payable"},{"type":"function","name":"revoke","inputs":[{"name":"attestation","type":"tuple","internalType":"struct Attestation","components":[{"name":"uid","type":"bytes32","internalType":"bytes32"},{"name":"schema","type":"bytes32","internalType":"bytes32"},{"name":"time","type":"uint64","internalType":"uint64"},{"name":"expirationTime","type":"uint64","internalType":"uint64"},{"name":"revocationTime","type":"uint64","internalType":"uint64"},{"name":"refUID","type":"bytes32","internalType":"bytes32"},{"name":"recipient","type":"address","internalType":"address"},{"name":"attester","type":"address","internalType":"address"},{"name":"revocable","type":"bool","internalType":"bool"},{"name":"data","type":"bytes","internalType":"bytes"}]}],"outputs":[{"name":"","type":"bool","internalType":"bool"}],"stateMutability":"payable"},{"type":"function","name":"version","inputs":[],"outputs":[{"name":"","type":"string","internalType":"string"}],"stateMutability":"view"},{"type":"error","name":"AccessDenied","inputs":[]},{"type":"error","name":"InsufficientValue","inputs":[]},{"type":"error","name":"InvalidEAS","inputs":[]},{"type":"error","name":"InvalidLength","inputs":[]},{"type":"error","name":"NotFromThisAttester","inputs":[]},{"type":"error","name":"NotPayable","inputs":[]}],"bytecode":{"object":"0x61016080604052346101a4576040816110db803803809161002082856101de565b8339810103126101a45780516001600160a01b038116918282036101a45760200151916001600160a01b0383168084036101a457604080519081016001600160401b038111828210176101ca57604052600b815260208101926a737472696e67206974656d60a81b84526001608052600360a0525f60c052156101bb576084948460209560e05261012052610100525f604051958680958194630c1af44f60e31b8352606060048401525180918160648501528484015e818101830184905230602483015260016044830152601f01601f191681010301925af19081156101b0575f9161017a575b5061014052604051610ed990816102028239608051816108a5015260a051816108d0015260c051816108fb015260e05181610e2301526101005181610738015261012051818181610233015261054d01526101405181818161026b015281816104a00152818161070601526108630152f35b90506020813d6020116101a8575b81610195602093836101de565b810103126101a457515f610108565b5f80fd5b3d9150610188565b6040513d5f823e3d90fd5b6341bc07ff60e11b5f5260045ffd5b634e487b7160e01b5f52604160045260245ffd5b601f909101601f19168101906001600160401b038211908210176101ca5760405256fe60806040526004361015610027575b3615610018575f80fd5b631574f9f360e01b5f5260045ffd5b5f3560e01c806354fd4d50146108865780635bf2f20d1461084c5780636b122fe0146106c75780637e431351146105e157806388e5b2d9146105c257806391db0b7e146105c2578063b3b902d414610416578063c6ec5070146101aa578063c93844be146100f3578063ce46e046146100d5578063e49617e1146100b05763e60c35050361000e575b60206100cb6100be36610a71565b6100c6610e21565b610e62565b6040519015158152f35b346100ef575f3660031901126100ef5760206040515f8152f35b5f80fd5b346100ef5760203660031901126100ef576004356001600160401b0381116100ef57610123903690600401610a28565b606060405161013181610ad4565b528101906020818303126100ef578035906001600160401b0382116100ef57016020818303126100ef576040519061016882610ad4565b8035906001600160401b0382116100ef570182601f820112156100ef576101a69281602061019893359101610c7e565b815260405191829182610a55565b0390f35b346100ef5760203660031901126100ef5760606040516101c981610ad4565b5260606101206040516101db81610aef565b5f81525f60208201525f60408201525f838201525f60808201525f60a08201525f60c08201525f60e08201525f61010082015201526040516328c44a9960e21b815260043560048201525f8160248160018060a01b037f0000000000000000000000000000000000000000000000000000000000000000165afa90811561040b575f91610306575b5060208101517f0000000000000000000000000000000000000000000000000000000000000000036102f757610120015180518101906020818303126100ef576020810151906001600160401b0382116100ef57016020818303126100ef57604051906102cf82610ad4565b6020810151906001600160401b0382116100ef57602061019892816101a69601920101610bc0565b635527981560e11b5f5260045ffd5b90503d805f833e6103178183610b41565b8101906020818303126100ef578051906001600160401b0382116100ef570190610140828203126100ef576040519161034f83610aef565b805183526020810151602084015261036960408201610e7b565b604084015261037a60608201610e7b565b606084015261038b60808201610e7b565b608084015260a081015160a08401526103a660c08201610e8f565b60c08401526103b760e08201610e8f565b60e08401526103c96101008201610b62565b610100840152610120810151906001600160401b0382116100ef57019080601f830112156100ef5781516103ff92602001610b8a565b61012082015281610263565b6040513d5f823e3d90fd5b60603660031901126100ef576004356001600160401b0381116100ef57610441903690600401610a28565b602435916001600160401b0383168093036100ef57610461913691610c7e565b6040519161046e83610b0b565b338352602083015260016040830152604435606083015260808201525f60a0820152602060405161049e81610b26565b7f000000000000000000000000000000000000000000000000000000000000000081528181019283526040518093819263f17325e760e01b8352846004840152516024830152516040604483015260018060a01b0381511660648301526001600160401b03848201511660848301526040810151151560a4830152606081015160c483015260a061053f608083015160c060e4860152610124850190610984565b91015161010483015203815f7f00000000000000000000000000000000000000000000000000000000000000006001600160a01b03165af1801561040b575f9061058f575b604051908152602090f35b506020813d6020116105ba575b816105a960209383610b41565b810103126100ef5760209051610584565b3d915061059c565b60206100cb6105d0366109d8565b926105dc929192610e21565b610bda565b346100ef5760403660031901126100ef576004356001600160401b0381116100ef578036039060206003198301126100ef5760405160208082015291600482013590602219018112156100ef5701602460048201359101906001600160401b0381116100ef5780360382136100ef5782816080926106899460206040850152816060850152848401375f838284010152601f801991011681010301601f198101835282610b41565b6040519061069682610b0b565b3382525f602083015260016040830152602435606083015260808201525f60a0820152602060405161049e81610b26565b346100ef575f3660031901126100ef576060806040516106e681610aa5565b5f81525f60208201525f604082015201526040516351753e3760e11b81527f000000000000000000000000000000000000000000000000000000000000000060048201525f8160248160018060a01b037f0000000000000000000000000000000000000000000000000000000000000000165afa801561040b575f906107ad575b6060906101a6604051928392602084528051602085015260018060a01b0360208201511660408501526040810151151582850152015160808084015260a0830190610984565b503d805f833e6107bd8183610b41565b8101906020818303126100ef578051906001600160401b0382116100ef57016080818303126100ef57604051906107f382610aa5565b8051825260208101516001600160a01b03811681036100ef57602083015261081d60408201610b62565b60408301526060810151926001600160401b0384116100ef576060936108439201610bc0565b82820152610767565b346100ef575f3660031901126100ef5760206040517f00000000000000000000000000000000000000000000000000000000000000008152f35b346100ef575f3660031901126100ef576101a6602061097460016108c97f0000000000000000000000000000000000000000000000000000000000000000610cb4565b81846108f47f0000000000000000000000000000000000000000000000000000000000000000610cb4565b818061091f7f0000000000000000000000000000000000000000000000000000000000000000610cb4565b9260405199878b985191829101848a015e870190601760f91b83830152805192839101602183015e010190601760f91b84830152805192839101600283015e01015f838201520301601f198101835282610b41565b6040519182916020835260208301905b805180835260209291819084018484015e5f828201840152601f01601f1916010190565b9181601f840112156100ef578235916001600160401b0383116100ef576020808501948460051b0101116100ef57565b60406003198201126100ef576004356001600160401b0381116100ef5781610a02916004016109a8565b92909291602435906001600160401b0382116100ef57610a24916004016109a8565b9091565b9181601f840112156100ef578235916001600160401b0383116100ef57602083818601950101116100ef57565b6040610a6e926020835251916020808201520190610984565b90565b60206003198201126100ef57600435906001600160401b0382116100ef576101409082900360031901126100ef5760040190565b608081019081106001600160401b03821117610ac057604052565b634e487b7160e01b5f52604160045260245ffd5b602081019081106001600160401b03821117610ac057604052565b61014081019081106001600160401b03821117610ac057604052565b60c081019081106001600160401b03821117610ac057604052565b604081019081106001600160401b03821117610ac057604052565b90601f801991011681019081106001600160401b03821117610ac057604052565b519081151582036100ef57565b6001600160401b038111610ac057601f01601f191660200190565b929192610b9682610b6f565b91610ba46040519384610b41565b8294818452818301116100ef578281602093845f96015e010152565b9080601f830112156100ef578151610a6e92602001610b8a565b929092818403610c6f575f91345b85841015610c645781841015610c50578360051b8086013590828211610c415784013561013e19853603018112156100ef57610c25908501610e62565b15610c365760019103930192610be8565b505050505050505f90565b63044044a560e21b5f5260045ffd5b634e487b7160e01b5f52603260045260245ffd5b505050505050600190565b63251f56a160e21b5f5260045ffd5b929192610c8a82610b6f565b91610c986040519384610b41565b8294818452818301116100ef578281602093845f960137010152565b805f9172184f03e93ff9f4daa797ed6e38ed64bf6a1f0160401b821015610dfe575b806d04ee2d6d415b85acef8100000000600a921015610de3575b662386f26fc10000811015610dcf575b6305f5e100811015610dbe575b612710811015610daf575b6064811015610da1575b1015610d96575b600a60216001840193610d3b85610b6f565b94610d496040519687610b41565b808652610d58601f1991610b6f565b013660208701378401015b5f1901916f181899199a1a9b1b9c1cb0b131b232b360811b8282061a8353048015610d9157600a9091610d63565b505090565b600190910190610d29565b606460029104930192610d22565b61271060049104930192610d18565b6305f5e10060089104930192610d0d565b662386f26fc1000060109104930192610d00565b6d04ee2d6d415b85acef810000000060209104930192610cf0565b506040915072184f03e93ff9f4daa797ed6e38ed64bf6a1f0160401b8104610cd6565b7f00000000000000000000000000000000000000000000000000000000000000006001600160a01b03163303610e5357565b634ca8886760e01b5f5260045ffd5b60e0013560018060a01b0381168091036100ef57301490565b51906001600160401b03821682036100ef57565b51906001600160a01b03821682036100ef5756fea26469706673582212203b1678d9b595bc3d671ac154045c7774481fb939eef2a8d07e2b3599e37afed464736f6c634300081b0033","linkReferences":{}},"methodIdentifiers":{"ATTESTATION_SCHEMA()":"5bf2f20d","attest((bytes32,bytes32,uint64,uint64,uint64,bytes32,address,address,bool,bytes))":"e60c3505","decodeObligationData(bytes)":"c93844be","doObligation((string),bytes32)":"7e431351","doObligationRaw(bytes,uint64,bytes32)":"b3b902d4","getObligationData(bytes32)":"c6ec5070","getSchema()":"6b122fe0","isPayable()":"ce46e046","multiAttest((bytes32,bytes32,uint64,uint64,uint64,bytes32,address,address,bool,bytes)[],uint256[])":"91db0b7e","multiRevoke((bytes32,bytes32,uint64,uint64,uint64,bytes32,address,address,bool,bytes)[],uint256[])":"88e5b2d9","revoke((bytes32,bytes32,uint64,uint64,uint64,bytes32,address,address,bool,bytes))":"e49617e1","version()":"54fd4d50"},"id":115}