{
  "abi": [
    {
      "type": "constructor",
      "inputs": [
        {
          "name": "_eas",
          "type": "address",
          "internalType": "contract IEAS"
        },
        {
          "name": "_schemaRegistry",
          "type": "address",
          "internalType": "contract ISchemaRegistry"
        }
      ],
      "stateMutability": "nonpayable"
    },
    {
      "type": "receive",
      "stateMutability": "payable"
    },
    {
      "type": "function",
      "name": "REFERENCE_ATTESTATION_SCHEMA",
      "inputs": [],
      "outputs": [
        {
          "name": "",
          "type": "bytes32",
          "internalType": "bytes32"
        }
      ],
      "stateMutability": "view"
    },
    {
      "type": "function",
      "name": "approveEscrow",
      "inputs": [
        {
          "name": "escrow",
          "type": "address",
          "internalType": "address"
        }
      ],
      "outputs": [],
      "stateMutability": "nonpayable"
    },
    {
      "type": "function",
      "name": "approvedEscrows",
      "inputs": [
        {
          "name": "",
          "type": "address",
          "internalType": "address"
        },
        {
          "name": "",
          "type": "address",
          "internalType": "address"
        }
      ],
      "outputs": [
        {
          "name": "",
          "type": "bool",
          "internalType": "bool"
        }
      ],
      "stateMutability": "view"
    },
    {
      "type": "function",
      "name": "attest",
      "inputs": [
        {
          "name": "attestation",
          "type": "tuple",
          "internalType": "struct Attestation",
          "components": [
            {
              "name": "uid",
              "type": "bytes32",
              "internalType": "bytes32"
            },
            {
              "name": "schema",
              "type": "bytes32",
              "internalType": "bytes32"
            },
            {
              "name": "time",
              "type": "uint64",
              "internalType": "uint64"
            },
            {
              "name": "expirationTime",
              "type": "uint64",
              "internalType": "uint64"
            },
            {
              "name": "revocationTime",
              "type": "uint64",
              "internalType": "uint64"
            },
            {
              "name": "refUID",
              "type": "bytes32",
              "internalType": "bytes32"
            },
            {
              "name": "recipient",
              "type": "address",
              "internalType": "address"
            },
            {
              "name": "attester",
              "type": "address",
              "internalType": "address"
            },
            {
              "name": "revocable",
              "type": "bool",
              "internalType": "bool"
            },
            {
              "name": "data",
              "type": "bytes",
              "internalType": "bytes"
            }
          ]
        }
      ],
      "outputs": [
        {
          "name": "",
          "type": "bool",
          "internalType": "bool"
        }
      ],
      "stateMutability": "payable"
    },
    {
      "type": "function",
      "name": "decodeHookData",
      "inputs": [
        {
          "name": "data",
          "type": "bytes",
          "internalType": "bytes"
        }
      ],
      "outputs": [
        {
          "name": "",
          "type": "tuple",
          "internalType": "struct AttestationReferenceEscrowHook.HookData",
          "components": [
            {
              "name": "referencedAttestationUid",
              "type": "bytes32",
              "internalType": "bytes32"
            },
            {
              "name": "recipient",
              "type": "address",
              "internalType": "address"
            },
            {
              "name": "expirationTime",
              "type": "uint64",
              "internalType": "uint64"
            }
          ]
        }
      ],
      "stateMutability": "pure"
    },
    {
      "type": "function",
      "name": "eas",
      "inputs": [],
      "outputs": [
        {
          "name": "",
          "type": "address",
          "internalType": "contract IEAS"
        }
      ],
      "stateMutability": "view"
    },
    {
      "type": "function",
      "name": "encodeHookData",
      "inputs": [
        {
          "name": "hookData",
          "type": "tuple",
          "internalType": "struct AttestationReferenceEscrowHook.HookData",
          "components": [
            {
              "name": "referencedAttestationUid",
              "type": "bytes32",
              "internalType": "bytes32"
            },
            {
              "name": "recipient",
              "type": "address",
              "internalType": "address"
            },
            {
              "name": "expirationTime",
              "type": "uint64",
              "internalType": "uint64"
            }
          ]
        }
      ],
      "outputs": [
        {
          "name": "",
          "type": "bytes",
          "internalType": "bytes"
        }
      ],
      "stateMutability": "pure"
    },
    {
      "type": "function",
      "name": "isEscrowApproved",
      "inputs": [
        {
          "name": "owner",
          "type": "address",
          "internalType": "address"
        },
        {
          "name": "escrow",
          "type": "address",
          "internalType": "address"
        }
      ],
      "outputs": [
        {
          "name": "",
          "type": "bool",
          "internalType": "bool"
        }
      ],
      "stateMutability": "view"
    },
    {
      "type": "function",
      "name": "isPayable",
      "inputs": [],
      "outputs": [
        {
          "name": "",
          "type": "bool",
          "internalType": "bool"
        }
      ],
      "stateMutability": "pure"
    },
    {
      "type": "function",
      "name": "multiAttest",
      "inputs": [
        {
          "name": "attestations",
          "type": "tuple[]",
          "internalType": "struct Attestation[]",
          "components": [
            {
              "name": "uid",
              "type": "bytes32",
              "internalType": "bytes32"
            },
            {
              "name": "schema",
              "type": "bytes32",
              "internalType": "bytes32"
            },
            {
              "name": "time",
              "type": "uint64",
              "internalType": "uint64"
            },
            {
              "name": "expirationTime",
              "type": "uint64",
              "internalType": "uint64"
            },
            {
              "name": "revocationTime",
              "type": "uint64",
              "internalType": "uint64"
            },
            {
              "name": "refUID",
              "type": "bytes32",
              "internalType": "bytes32"
            },
            {
              "name": "recipient",
              "type": "address",
              "internalType": "address"
            },
            {
              "name": "attester",
              "type": "address",
              "internalType": "address"
            },
            {
              "name": "revocable",
              "type": "bool",
              "internalType": "bool"
            },
            {
              "name": "data",
              "type": "bytes",
              "internalType": "bytes"
            }
          ]
        },
        {
          "name": "values",
          "type": "uint256[]",
          "internalType": "uint256[]"
        }
      ],
      "outputs": [
        {
          "name": "",
          "type": "bool",
          "internalType": "bool"
        }
      ],
      "stateMutability": "payable"
    },
    {
      "type": "function",
      "name": "multiRevoke",
      "inputs": [
        {
          "name": "attestations",
          "type": "tuple[]",
          "internalType": "struct Attestation[]",
          "components": [
            {
              "name": "uid",
              "type": "bytes32",
              "internalType": "bytes32"
            },
            {
              "name": "schema",
              "type": "bytes32",
              "internalType": "bytes32"
            },
            {
              "name": "time",
              "type": "uint64",
              "internalType": "uint64"
            },
            {
              "name": "expirationTime",
              "type": "uint64",
              "internalType": "uint64"
            },
            {
              "name": "revocationTime",
              "type": "uint64",
              "internalType": "uint64"
            },
            {
              "name": "refUID",
              "type": "bytes32",
              "internalType": "bytes32"
            },
            {
              "name": "recipient",
              "type": "address",
              "internalType": "address"
            },
            {
              "name": "attester",
              "type": "address",
              "internalType": "address"
            },
            {
              "name": "revocable",
              "type": "bool",
              "internalType": "bool"
            },
            {
              "name": "data",
              "type": "bytes",
              "internalType": "bytes"
            }
          ]
        },
        {
          "name": "values",
          "type": "uint256[]",
          "internalType": "uint256[]"
        }
      ],
      "outputs": [
        {
          "name": "",
          "type": "bool",
          "internalType": "bool"
        }
      ],
      "stateMutability": "payable"
    },
    {
      "type": "function",
      "name": "onAttest",
      "inputs": [
        {
          "name": "",
          "type": "bytes",
          "internalType": "bytes"
        },
        {
          "name": "escrow",
          "type": "tuple",
          "internalType": "struct Attestation",
          "components": [
            {
              "name": "uid",
              "type": "bytes32",
              "internalType": "bytes32"
            },
            {
              "name": "schema",
              "type": "bytes32",
              "internalType": "bytes32"
            },
            {
              "name": "time",
              "type": "uint64",
              "internalType": "uint64"
            },
            {
              "name": "expirationTime",
              "type": "uint64",
              "internalType": "uint64"
            },
            {
              "name": "revocationTime",
              "type": "uint64",
              "internalType": "uint64"
            },
            {
              "name": "refUID",
              "type": "bytes32",
              "internalType": "bytes32"
            },
            {
              "name": "recipient",
              "type": "address",
              "internalType": "address"
            },
            {
              "name": "attester",
              "type": "address",
              "internalType": "address"
            },
            {
              "name": "revocable",
              "type": "bool",
              "internalType": "bool"
            },
            {
              "name": "data",
              "type": "bytes",
              "internalType": "bytes"
            }
          ]
        }
      ],
      "outputs": [],
      "stateMutability": "view"
    },
    {
      "type": "function",
      "name": "onLock",
      "inputs": [
        {
          "name": "data",
          "type": "bytes",
          "internalType": "bytes"
        },
        {
          "name": "from",
          "type": "address",
          "internalType": "address"
        },
        {
          "name": "escrow",
          "type": "address",
          "internalType": "address"
        }
      ],
      "outputs": [],
      "stateMutability": "payable"
    },
    {
      "type": "function",
      "name": "onRelease",
      "inputs": [
        {
          "name": "data",
          "type": "bytes",
          "internalType": "bytes"
        },
        {
          "name": "",
          "type": "address",
          "internalType": "address"
        },
        {
          "name": "escrow",
          "type": "tuple",
          "internalType": "struct Attestation",
          "components": [
            {
              "name": "uid",
              "type": "bytes32",
              "internalType": "bytes32"
            },
            {
              "name": "schema",
              "type": "bytes32",
              "internalType": "bytes32"
            },
            {
              "name": "time",
              "type": "uint64",
              "internalType": "uint64"
            },
            {
              "name": "expirationTime",
              "type": "uint64",
              "internalType": "uint64"
            },
            {
              "name": "revocationTime",
              "type": "uint64",
              "internalType": "uint64"
            },
            {
              "name": "refUID",
              "type": "bytes32",
              "internalType": "bytes32"
            },
            {
              "name": "recipient",
              "type": "address",
              "internalType": "address"
            },
            {
              "name": "attester",
              "type": "address",
              "internalType": "address"
            },
            {
              "name": "revocable",
              "type": "bool",
              "internalType": "bool"
            },
            {
              "name": "data",
              "type": "bytes",
              "internalType": "bytes"
            }
          ]
        },
        {
          "name": "",
          "type": "bytes32",
          "internalType": "bytes32"
        }
      ],
      "outputs": [],
      "stateMutability": "nonpayable"
    },
    {
      "type": "function",
      "name": "onReturn",
      "inputs": [
        {
          "name": "data",
          "type": "bytes",
          "internalType": "bytes"
        },
        {
          "name": "",
          "type": "address",
          "internalType": "address"
        },
        {
          "name": "escrow",
          "type": "tuple",
          "internalType": "struct Attestation",
          "components": [
            {
              "name": "uid",
              "type": "bytes32",
              "internalType": "bytes32"
            },
            {
              "name": "schema",
              "type": "bytes32",
              "internalType": "bytes32"
            },
            {
              "name": "time",
              "type": "uint64",
              "internalType": "uint64"
            },
            {
              "name": "expirationTime",
              "type": "uint64",
              "internalType": "uint64"
            },
            {
              "name": "revocationTime",
              "type": "uint64",
              "internalType": "uint64"
            },
            {
              "name": "refUID",
              "type": "bytes32",
              "internalType": "bytes32"
            },
            {
              "name": "recipient",
              "type": "address",
              "internalType": "address"
            },
            {
              "name": "attester",
              "type": "address",
              "internalType": "address"
            },
            {
              "name": "revocable",
              "type": "bool",
              "internalType": "bool"
            },
            {
              "name": "data",
              "type": "bytes",
              "internalType": "bytes"
            }
          ]
        }
      ],
      "outputs": [],
      "stateMutability": "nonpayable"
    },
    {
      "type": "function",
      "name": "pending",
      "inputs": [
        {
          "name": "",
          "type": "address",
          "internalType": "address"
        },
        {
          "name": "",
          "type": "bytes32",
          "internalType": "bytes32"
        }
      ],
      "outputs": [
        {
          "name": "",
          "type": "uint256",
          "internalType": "uint256"
        }
      ],
      "stateMutability": "view"
    },
    {
      "type": "function",
      "name": "revoke",
      "inputs": [
        {
          "name": "attestation",
          "type": "tuple",
          "internalType": "struct Attestation",
          "components": [
            {
              "name": "uid",
              "type": "bytes32",
              "internalType": "bytes32"
            },
            {
              "name": "schema",
              "type": "bytes32",
              "internalType": "bytes32"
            },
            {
              "name": "time",
              "type": "uint64",
              "internalType": "uint64"
            },
            {
              "name": "expirationTime",
              "type": "uint64",
              "internalType": "uint64"
            },
            {
              "name": "revocationTime",
              "type": "uint64",
              "internalType": "uint64"
            },
            {
              "name": "refUID",
              "type": "bytes32",
              "internalType": "bytes32"
            },
            {
              "name": "recipient",
              "type": "address",
              "internalType": "address"
            },
            {
              "name": "attester",
              "type": "address",
              "internalType": "address"
            },
            {
              "name": "revocable",
              "type": "bool",
              "internalType": "bool"
            },
            {
              "name": "data",
              "type": "bytes",
              "internalType": "bytes"
            }
          ]
        }
      ],
      "outputs": [
        {
          "name": "",
          "type": "bool",
          "internalType": "bool"
        }
      ],
      "stateMutability": "payable"
    },
    {
      "type": "function",
      "name": "unapproveEscrow",
      "inputs": [
        {
          "name": "escrow",
          "type": "address",
          "internalType": "address"
        }
      ],
      "outputs": [],
      "stateMutability": "nonpayable"
    },
    {
      "type": "function",
      "name": "version",
      "inputs": [],
      "outputs": [
        {
          "name": "",
          "type": "string",
          "internalType": "string"
        }
      ],
      "stateMutability": "view"
    },
    {
      "type": "event",
      "name": "EscrowApproval",
      "inputs": [
        {
          "name": "owner",
          "type": "address",
          "indexed": true,
          "internalType": "address"
        },
        {
          "name": "escrow",
          "type": "address",
          "indexed": true,
          "internalType": "address"
        },
        {
          "name": "approved",
          "type": "bool",
          "indexed": false,
          "internalType": "bool"
        }
      ],
      "anonymous": false
    },
    {
      "type": "error",
      "name": "AccessDenied",
      "inputs": []
    },
    {
      "type": "error",
      "name": "AttestationCreationFailed",
      "inputs": []
    },
    {
      "type": "error",
      "name": "EscrowCallerMismatch",
      "inputs": [
        {
          "name": "caller",
          "type": "address",
          "internalType": "address"
        },
        {
          "name": "escrow",
          "type": "address",
          "internalType": "address"
        }
      ]
    },
    {
      "type": "error",
      "name": "InsufficientValue",
      "inputs": []
    },
    {
      "type": "error",
      "name": "InvalidEAS",
      "inputs": []
    },
    {
      "type": "error",
      "name": "InvalidLength",
      "inputs": []
    },
    {
      "type": "error",
      "name": "NoPendingReferenceAttestation",
      "inputs": [
        {
          "name": "caller",
          "type": "address",
          "internalType": "address"
        },
        {
          "name": "hookDataHash",
          "type": "bytes32",
          "internalType": "bytes32"
        }
      ]
    },
    {
      "type": "error",
      "name": "NotPayable",
      "inputs": []
    },
    {
      "type": "error",
      "name": "SchemaRegistrationFailed",
      "inputs": [
        {
          "name": "uid",
          "type": "bytes32",
          "internalType": "bytes32"
        }
      ]
    },
    {
      "type": "error",
      "name": "UnauthorizedEscrowCaller",
      "inputs": [
        {
          "name": "owner",
          "type": "address",
          "internalType": "address"
        },
        {
          "name": "caller",
          "type": "address",
          "internalType": "address"
        }
      ]
    },
    {
      "type": "error",
      "name": "UnexpectedNativeValue",
      "inputs": []
    }
  ],
  "bytecode": {
    "object": "0x610140806040523461011a576040816113428038038091610020828561011e565b83398101031261011a578051906001600160a01b0382169081830361011a5760200151906001600160a01b038216820361011a576001608052600360a0525f60c0521561010b57816100b29260e0526101005260405161008160408261011e565b602081527f62797465733332207265666572656e6365644174746573746174696f6e55696460208201523091610239565b61012052604051610f32908161041082396080518161046a015260a05181610495015260c051816104c0015260e05181610ebd015261010051818181610363015261097f01526101205181818161032b01526108d20152f35b6341bc07ff60e11b5f5260045ffd5b5f80fd5b601f909101601f19168101906001600160401b0382119082101761014157604052565b634e487b7160e01b5f52604160045260245ffd5b60208183031261011a578051906001600160401b03821161011a57019060808282031261011a5760405191608083016001600160401b03811184821017610141576040528051835260208101516001600160a01b038116810361011a5760208401526040810151801515810361011a5760408401526060810151906001600160401b03821161011a570181601f8201121561011a578051906001600160401b0382116101415760405192610213601f8401601f19166020018561011e565b8284526020838301011161011a57815f9260208093018386015e83010152606082015290565b9291604051906020820183519261027f6015602083818901978089885e810160018060601b03198860601b16838201525f60348201520301600a1981018452018261011e565b5190206040516351753e3760e11b81526004810182905290956001600160a01b031693905f81602481885afa801561038f5787915f916103f5575b5051146103ef579060846020926040519485938492630c1af44f60e31b8452606060048501525180928160648601528585015e5f84838501015260018060a01b031660248301525f6044830152601f801991011681010301815f865af15f91816103bb575b5061039a57505f602491604051928380926351753e3760e11b82528760048301525afa801561038f5783915f9161036d575b50511461036b5750639e6113d560e01b5f5260045260245ffd5b565b61038991503d805f833e610381818361011e565b810190610155565b5f610351565b6040513d5f823e3d90fd5b919280915082036103a9575090565b639e6113d560e01b5f5260045260245ffd5b9091506020813d6020116103e7575b816103d76020938361011e565b8101031261011a5751905f61031f565b3d91506103ca565b50505050565b61040991503d805f833e610381818361011e565b5f6102ba56fe60806040526004361015610027575b3615610018575f80fd5b631574f9f360e01b5f5260045ffd5b5f3560e01c80630fa37a1f1461077a578063136befcf146105a75780631dc8160b14610673578063297ae412146105fd5780633d0e5a6a146105a7578063459115281461053957806354fd4d501461044b578063561ca525146103925780638150864d1461034e57806388e5b2d9146102eb5780638e8a4da41461031457806391db0b7e146102eb578063bc72d3ff14610274578063be1e753b14610214578063c18dd493146101d0578063ce46e046146101b6578063e49617e114610184578063e60c3505146101845763f73085df0361000e5734610180576020366003190112610180576004356001600160401b038111610180576101526101316060923690600401610a1e565b5f6040805161013f81610b4f565b8281528260208201520152810190610be8565b60408051825181526020808401516001600160a01b031690820152918101516001600160401b031690820152f35b5f80fd5b60206101a260e061019436610b1b565b61019c610ebb565b01610cef565b6040516001600160a01b0390911630148152f35b34610180575f3660031901126101805760206040515f8152f35b34610180576040366003190112610180576001600160a01b036101f1610a61565b165f52600160205260405f206024355f52602052602060405f2054604051908152f35b34610180576040366003190112610180576004356001600160401b03811161018057610244903690600401610a1e565b50506024356001600160401b0381116101805761014060031982360301126101805761027290600401610d03565b005b346101805760603660031901126101805760405160043560208201526001600160a01b036102a0610a4b565b166040820152604435906001600160401b038216809203610180576102e7916060820152606081526102d3608082610b6a565b604051918291602083526020830190610a77565b0390f35b602061030a6102f936610acb565b92610305929192610ebb565b610c3c565b6040519015158152f35b34610180575f3660031901126101805760206040517f00000000000000000000000000000000000000000000000000000000000000008152f35b34610180575f366003190112610180576040517f00000000000000000000000000000000000000000000000000000000000000006001600160a01b03168152602090f35b34610180576060366003190112610180576004356001600160401b038111610180576103c2903690600401610a1e565b906103cb610a4b565b50604435916001600160401b038311610180576101406003198436030112610180576103fc61040393600401610d03565b3691610ba6565b60208151910120335f52600160205260405f20815f5260205260405f205461042757005b335f52600160205260405f20905f5260205260405f206104478154610bdc565b9055005b34610180575f366003190112610180576102e760206102d3600161048e7f0000000000000000000000000000000000000000000000000000000000000000610d4e565b81846104b97f0000000000000000000000000000000000000000000000000000000000000000610d4e565b81806104e47f0000000000000000000000000000000000000000000000000000000000000000610d4e565b9260405199878b985191829101848a015e870190601760f91b83830152805192839101602183015e010190601760f91b84830152805192839101600283015e01015f838201520301601f198101835282610b6a565b3461018057602036600319011261018057610552610a61565b335f818152602081815260408083206001600160a01b0395909516808452948252808320805460ff19169055519182527fbfe3408398a6b959bc04ab1cfde500aff4ee06af8ed2483286cc8d1feeb85ed991a3005b34610180576040366003190112610180576105c0610a61565b6105c8610a4b565b9060018060a01b03165f525f60205260405f209060018060a01b03165f52602052602060ff60405f2054166040519015158152f35b3461018057602036600319011261018057610616610a61565b335f818152602081815260408083206001600160a01b039590951680845294825291829020805460ff1916600190811790915591519182527fbfe3408398a6b959bc04ab1cfde500aff4ee06af8ed2483286cc8d1feeb85ed991a3005b6060366003190112610180576004356001600160401b0381116101805761069e903690600401610a1e565b906106a7610a4b565b6044356001600160a01b038116908190036101805780330361076457506001600160a01b03165f8181526020818152604080832033845290915290205460ff161561074e57503461073f576106fd913691610ba6565b60208151910120335f52600160205260405f20905f5260205260405f2080545f19811461072b576001019055005b634e487b7160e01b5f52601160045260245ffd5b63e0aeda7d60e01b5f5260045ffd5b6310d5e09d60e11b5f526004523360245260445ffd5b6303e011e160e31b5f523360045260245260445ffd5b34610180576080366003190112610180576004356001600160401b038111610180576107aa903690600401610a1e565b906107b3610a4b565b506044356001600160401b038111610180576101406003198236030112610180576107e090600401610d03565b6107eb368383610ba6565b6020815191012091335f52600160205260405f20835f5260205260405f205415610a075761083d92335f52600160205260405f20905f5260205260405f206108338154610bdc565b9055810190610be8565b805160405190602082015260208152610857604082610b6a565b60018060a01b03602083015116916001600160401b036040820151169051906040519360c085018581106001600160401b038211176109f357604052845260208401525f6040840152606083015260808201525f60a082015260405160408101908082106001600160401b038311176109f3576020916040527f000000000000000000000000000000000000000000000000000000000000000081528181019283526040518093819263f17325e760e01b8352846004840152516024830152516040604483015260018060a01b0381511660648301526001600160401b03848201511660848301526040810151151560a4830152606081015160c483015260a0610971608083015160c060e4860152610124850190610a77565b91015161010483015203815f7f00000000000000000000000000000000000000000000000000000000000000006001600160a01b03165af190816109c4575b5061027257638d7100d760e01b5f5260045ffd5b6020813d6020116109eb575b816109dd60209383610b6a565b8101031261018057516109b0565b3d91506109d0565b634e487b7160e01b5f52604160045260245ffd5b8263f802540360e01b5f523360045260245260445ffd5b9181601f84011215610180578235916001600160401b038311610180576020838186019501011161018057565b602435906001600160a01b038216820361018057565b600435906001600160a01b038216820361018057565b805180835260209291819084018484015e5f828201840152601f01601f1916010190565b9181601f84011215610180578235916001600160401b038311610180576020808501948460051b01011161018057565b6040600319820112610180576004356001600160401b0381116101805781610af591600401610a9b565b92909291602435906001600160401b03821161018057610b1791600401610a9b565b9091565b602060031982011261018057600435906001600160401b038211610180576101409082900360031901126101805760040190565b606081019081106001600160401b038211176109f357604052565b90601f801991011681019081106001600160401b038211176109f357604052565b6001600160401b0381116109f357601f01601f191660200190565b929192610bb282610b8b565b91610bc06040519384610b6a565b829481845281830111610180578281602093845f960137010152565b801561072b575f190190565b908160609103126101805760405190610c0082610b4f565b803582526020810135906001600160a01b038216820361018057604091602084015201356001600160401b038116810361018057604082015290565b929092818403610ce0575f91345b85841015610cd55781841015610cc1578360051b8086013590828211610cb25784013561013e19853603018112156101805730906001600160a01b0390610c9590870160e001610cef565b1603610ca75760019103930192610c4a565b505050505050505f90565b63044044a560e21b5f5260045ffd5b634e487b7160e01b5f52603260045260245ffd5b505050505050600190565b63251f56a160e21b5f5260045ffd5b356001600160a01b03811681036101805790565b60e0016001600160a01b03610d1782610cef565b163303610d215750565b610d2a90610cef565b6303e011e160e31b5f908152336004526001600160a01b0391909116602452604490fd5b805f9172184f03e93ff9f4daa797ed6e38ed64bf6a1f0160401b821015610e98575b806d04ee2d6d415b85acef8100000000600a921015610e7d575b662386f26fc10000811015610e69575b6305f5e100811015610e58575b612710811015610e49575b6064811015610e3b575b1015610e30575b600a60216001840193610dd585610b8b565b94610de36040519687610b6a565b808652610df2601f1991610b8b565b013660208701378401015b5f1901916f181899199a1a9b1b9c1cb0b131b232b360811b8282061a8353048015610e2b57600a9091610dfd565b505090565b600190910190610dc3565b606460029104930192610dbc565b61271060049104930192610db2565b6305f5e10060089104930192610da7565b662386f26fc1000060109104930192610d9a565b6d04ee2d6d415b85acef810000000060209104930192610d8a565b506040915072184f03e93ff9f4daa797ed6e38ed64bf6a1f0160401b8104610d70565b7f00000000000000000000000000000000000000000000000000000000000000006001600160a01b03163303610eed57565b634ca8886760e01b5f5260045ffdfea2646970667358221220b4735639b1498eaffc96153c4a0910b4290c86fc6f007d52f54afe57d7bdc03064736f6c634300081b0033",
    "linkReferences": {}
  },
  "methodIdentifiers": {
    "REFERENCE_ATTESTATION_SCHEMA()": "8e8a4da4",
    "approveEscrow(address)": "297ae412",
    "approvedEscrows(address,address)": "136befcf",
    "attest((bytes32,bytes32,uint64,uint64,uint64,bytes32,address,address,bool,bytes))": "e60c3505",
    "decodeHookData(bytes)": "f73085df",
    "eas()": "8150864d",
    "encodeHookData((bytes32,address,uint64))": "bc72d3ff",
    "isEscrowApproved(address,address)": "3d0e5a6a",
    "isPayable()": "ce46e046",
    "multiAttest((bytes32,bytes32,uint64,uint64,uint64,bytes32,address,address,bool,bytes)[],uint256[])": "91db0b7e",
    "multiRevoke((bytes32,bytes32,uint64,uint64,uint64,bytes32,address,address,bool,bytes)[],uint256[])": "88e5b2d9",
    "onAttest(bytes,(bytes32,bytes32,uint64,uint64,uint64,bytes32,address,address,bool,bytes))": "be1e753b",
    "onLock(bytes,address,address)": "1dc8160b",
    "onRelease(bytes,address,(bytes32,bytes32,uint64,uint64,uint64,bytes32,address,address,bool,bytes),bytes32)": "0fa37a1f",
    "onReturn(bytes,address,(bytes32,bytes32,uint64,uint64,uint64,bytes32,address,address,bool,bytes))": "561ca525",
    "pending(address,bytes32)": "c18dd493",
    "revoke((bytes32,bytes32,uint64,uint64,uint64,bytes32,address,address,bool,bytes))": "e49617e1",
    "unapproveEscrow(address)": "45911528",
    "version()": "54fd4d50"
  },
  "id": 67
}