{
  "abi": [
    {
      "type": "constructor",
      "inputs": [
        {
          "name": "_eas",
          "type": "address",
          "internalType": "contract IEAS"
        },
        {
          "name": "_schemaRegistry",
          "type": "address",
          "internalType": "contract ISchemaRegistry"
        }
      ],
      "stateMutability": "nonpayable"
    },
    {
      "type": "receive",
      "stateMutability": "payable"
    },
    {
      "type": "function",
      "name": "VALIDATION_SCHEMA",
      "inputs": [],
      "outputs": [
        {
          "name": "",
          "type": "bytes32",
          "internalType": "bytes32"
        }
      ],
      "stateMutability": "view"
    },
    {
      "type": "function",
      "name": "attest",
      "inputs": [
        {
          "name": "attestation",
          "type": "tuple",
          "internalType": "struct Attestation",
          "components": [
            {
              "name": "uid",
              "type": "bytes32",
              "internalType": "bytes32"
            },
            {
              "name": "schema",
              "type": "bytes32",
              "internalType": "bytes32"
            },
            {
              "name": "time",
              "type": "uint64",
              "internalType": "uint64"
            },
            {
              "name": "expirationTime",
              "type": "uint64",
              "internalType": "uint64"
            },
            {
              "name": "revocationTime",
              "type": "uint64",
              "internalType": "uint64"
            },
            {
              "name": "refUID",
              "type": "bytes32",
              "internalType": "bytes32"
            },
            {
              "name": "recipient",
              "type": "address",
              "internalType": "address"
            },
            {
              "name": "attester",
              "type": "address",
              "internalType": "address"
            },
            {
              "name": "revocable",
              "type": "bool",
              "internalType": "bool"
            },
            {
              "name": "data",
              "type": "bytes",
              "internalType": "bytes"
            }
          ]
        }
      ],
      "outputs": [
        {
          "name": "",
          "type": "bool",
          "internalType": "bool"
        }
      ],
      "stateMutability": "payable"
    },
    {
      "type": "function",
      "name": "decodeHookData",
      "inputs": [
        {
          "name": "data",
          "type": "bytes",
          "internalType": "bytes"
        }
      ],
      "outputs": [
        {
          "name": "",
          "type": "tuple",
          "internalType": "struct AttestationReferenceEscrowHook.HookData",
          "components": [
            {
              "name": "attestationUid",
              "type": "bytes32",
              "internalType": "bytes32"
            },
            {
              "name": "recipient",
              "type": "address",
              "internalType": "address"
            },
            {
              "name": "validationExpirationTime",
              "type": "uint64",
              "internalType": "uint64"
            },
            {
              "name": "validationRevocable",
              "type": "bool",
              "internalType": "bool"
            }
          ]
        }
      ],
      "stateMutability": "pure"
    },
    {
      "type": "function",
      "name": "eas",
      "inputs": [],
      "outputs": [
        {
          "name": "",
          "type": "address",
          "internalType": "contract IEAS"
        }
      ],
      "stateMutability": "view"
    },
    {
      "type": "function",
      "name": "encodeHookData",
      "inputs": [
        {
          "name": "hookData",
          "type": "tuple",
          "internalType": "struct AttestationReferenceEscrowHook.HookData",
          "components": [
            {
              "name": "attestationUid",
              "type": "bytes32",
              "internalType": "bytes32"
            },
            {
              "name": "recipient",
              "type": "address",
              "internalType": "address"
            },
            {
              "name": "validationExpirationTime",
              "type": "uint64",
              "internalType": "uint64"
            },
            {
              "name": "validationRevocable",
              "type": "bool",
              "internalType": "bool"
            }
          ]
        }
      ],
      "outputs": [
        {
          "name": "",
          "type": "bytes",
          "internalType": "bytes"
        }
      ],
      "stateMutability": "pure"
    },
    {
      "type": "function",
      "name": "isPayable",
      "inputs": [],
      "outputs": [
        {
          "name": "",
          "type": "bool",
          "internalType": "bool"
        }
      ],
      "stateMutability": "pure"
    },
    {
      "type": "function",
      "name": "multiAttest",
      "inputs": [
        {
          "name": "attestations",
          "type": "tuple[]",
          "internalType": "struct Attestation[]",
          "components": [
            {
              "name": "uid",
              "type": "bytes32",
              "internalType": "bytes32"
            },
            {
              "name": "schema",
              "type": "bytes32",
              "internalType": "bytes32"
            },
            {
              "name": "time",
              "type": "uint64",
              "internalType": "uint64"
            },
            {
              "name": "expirationTime",
              "type": "uint64",
              "internalType": "uint64"
            },
            {
              "name": "revocationTime",
              "type": "uint64",
              "internalType": "uint64"
            },
            {
              "name": "refUID",
              "type": "bytes32",
              "internalType": "bytes32"
            },
            {
              "name": "recipient",
              "type": "address",
              "internalType": "address"
            },
            {
              "name": "attester",
              "type": "address",
              "internalType": "address"
            },
            {
              "name": "revocable",
              "type": "bool",
              "internalType": "bool"
            },
            {
              "name": "data",
              "type": "bytes",
              "internalType": "bytes"
            }
          ]
        },
        {
          "name": "values",
          "type": "uint256[]",
          "internalType": "uint256[]"
        }
      ],
      "outputs": [
        {
          "name": "",
          "type": "bool",
          "internalType": "bool"
        }
      ],
      "stateMutability": "payable"
    },
    {
      "type": "function",
      "name": "multiRevoke",
      "inputs": [
        {
          "name": "attestations",
          "type": "tuple[]",
          "internalType": "struct Attestation[]",
          "components": [
            {
              "name": "uid",
              "type": "bytes32",
              "internalType": "bytes32"
            },
            {
              "name": "schema",
              "type": "bytes32",
              "internalType": "bytes32"
            },
            {
              "name": "time",
              "type": "uint64",
              "internalType": "uint64"
            },
            {
              "name": "expirationTime",
              "type": "uint64",
              "internalType": "uint64"
            },
            {
              "name": "revocationTime",
              "type": "uint64",
              "internalType": "uint64"
            },
            {
              "name": "refUID",
              "type": "bytes32",
              "internalType": "bytes32"
            },
            {
              "name": "recipient",
              "type": "address",
              "internalType": "address"
            },
            {
              "name": "attester",
              "type": "address",
              "internalType": "address"
            },
            {
              "name": "revocable",
              "type": "bool",
              "internalType": "bool"
            },
            {
              "name": "data",
              "type": "bytes",
              "internalType": "bytes"
            }
          ]
        },
        {
          "name": "values",
          "type": "uint256[]",
          "internalType": "uint256[]"
        }
      ],
      "outputs": [
        {
          "name": "",
          "type": "bool",
          "internalType": "bool"
        }
      ],
      "stateMutability": "payable"
    },
    {
      "type": "function",
      "name": "onAttest",
      "inputs": [
        {
          "name": "",
          "type": "bytes",
          "internalType": "bytes"
        },
        {
          "name": "",
          "type": "tuple",
          "internalType": "struct Attestation",
          "components": [
            {
              "name": "uid",
              "type": "bytes32",
              "internalType": "bytes32"
            },
            {
              "name": "schema",
              "type": "bytes32",
              "internalType": "bytes32"
            },
            {
              "name": "time",
              "type": "uint64",
              "internalType": "uint64"
            },
            {
              "name": "expirationTime",
              "type": "uint64",
              "internalType": "uint64"
            },
            {
              "name": "revocationTime",
              "type": "uint64",
              "internalType": "uint64"
            },
            {
              "name": "refUID",
              "type": "bytes32",
              "internalType": "bytes32"
            },
            {
              "name": "recipient",
              "type": "address",
              "internalType": "address"
            },
            {
              "name": "attester",
              "type": "address",
              "internalType": "address"
            },
            {
              "name": "revocable",
              "type": "bool",
              "internalType": "bool"
            },
            {
              "name": "data",
              "type": "bytes",
              "internalType": "bytes"
            }
          ]
        }
      ],
      "outputs": [],
      "stateMutability": "nonpayable"
    },
    {
      "type": "function",
      "name": "onLock",
      "inputs": [
        {
          "name": "data",
          "type": "bytes",
          "internalType": "bytes"
        },
        {
          "name": "",
          "type": "address",
          "internalType": "address"
        },
        {
          "name": "",
          "type": "address",
          "internalType": "address"
        }
      ],
      "outputs": [],
      "stateMutability": "payable"
    },
    {
      "type": "function",
      "name": "onRelease",
      "inputs": [
        {
          "name": "data",
          "type": "bytes",
          "internalType": "bytes"
        },
        {
          "name": "",
          "type": "address",
          "internalType": "address"
        },
        {
          "name": "",
          "type": "tuple",
          "internalType": "struct Attestation",
          "components": [
            {
              "name": "uid",
              "type": "bytes32",
              "internalType": "bytes32"
            },
            {
              "name": "schema",
              "type": "bytes32",
              "internalType": "bytes32"
            },
            {
              "name": "time",
              "type": "uint64",
              "internalType": "uint64"
            },
            {
              "name": "expirationTime",
              "type": "uint64",
              "internalType": "uint64"
            },
            {
              "name": "revocationTime",
              "type": "uint64",
              "internalType": "uint64"
            },
            {
              "name": "refUID",
              "type": "bytes32",
              "internalType": "bytes32"
            },
            {
              "name": "recipient",
              "type": "address",
              "internalType": "address"
            },
            {
              "name": "attester",
              "type": "address",
              "internalType": "address"
            },
            {
              "name": "revocable",
              "type": "bool",
              "internalType": "bool"
            },
            {
              "name": "data",
              "type": "bytes",
              "internalType": "bytes"
            }
          ]
        },
        {
          "name": "",
          "type": "bytes32",
          "internalType": "bytes32"
        }
      ],
      "outputs": [],
      "stateMutability": "nonpayable"
    },
    {
      "type": "function",
      "name": "onReturn",
      "inputs": [
        {
          "name": "data",
          "type": "bytes",
          "internalType": "bytes"
        },
        {
          "name": "",
          "type": "address",
          "internalType": "address"
        },
        {
          "name": "",
          "type": "tuple",
          "internalType": "struct Attestation",
          "components": [
            {
              "name": "uid",
              "type": "bytes32",
              "internalType": "bytes32"
            },
            {
              "name": "schema",
              "type": "bytes32",
              "internalType": "bytes32"
            },
            {
              "name": "time",
              "type": "uint64",
              "internalType": "uint64"
            },
            {
              "name": "expirationTime",
              "type": "uint64",
              "internalType": "uint64"
            },
            {
              "name": "revocationTime",
              "type": "uint64",
              "internalType": "uint64"
            },
            {
              "name": "refUID",
              "type": "bytes32",
              "internalType": "bytes32"
            },
            {
              "name": "recipient",
              "type": "address",
              "internalType": "address"
            },
            {
              "name": "attester",
              "type": "address",
              "internalType": "address"
            },
            {
              "name": "revocable",
              "type": "bool",
              "internalType": "bool"
            },
            {
              "name": "data",
              "type": "bytes",
              "internalType": "bytes"
            }
          ]
        }
      ],
      "outputs": [],
      "stateMutability": "nonpayable"
    },
    {
      "type": "function",
      "name": "pending",
      "inputs": [
        {
          "name": "",
          "type": "address",
          "internalType": "address"
        },
        {
          "name": "",
          "type": "bytes32",
          "internalType": "bytes32"
        }
      ],
      "outputs": [
        {
          "name": "",
          "type": "uint256",
          "internalType": "uint256"
        }
      ],
      "stateMutability": "view"
    },
    {
      "type": "function",
      "name": "revoke",
      "inputs": [
        {
          "name": "attestation",
          "type": "tuple",
          "internalType": "struct Attestation",
          "components": [
            {
              "name": "uid",
              "type": "bytes32",
              "internalType": "bytes32"
            },
            {
              "name": "schema",
              "type": "bytes32",
              "internalType": "bytes32"
            },
            {
              "name": "time",
              "type": "uint64",
              "internalType": "uint64"
            },
            {
              "name": "expirationTime",
              "type": "uint64",
              "internalType": "uint64"
            },
            {
              "name": "revocationTime",
              "type": "uint64",
              "internalType": "uint64"
            },
            {
              "name": "refUID",
              "type": "bytes32",
              "internalType": "bytes32"
            },
            {
              "name": "recipient",
              "type": "address",
              "internalType": "address"
            },
            {
              "name": "attester",
              "type": "address",
              "internalType": "address"
            },
            {
              "name": "revocable",
              "type": "bool",
              "internalType": "bool"
            },
            {
              "name": "data",
              "type": "bytes",
              "internalType": "bytes"
            }
          ]
        }
      ],
      "outputs": [
        {
          "name": "",
          "type": "bool",
          "internalType": "bool"
        }
      ],
      "stateMutability": "payable"
    },
    {
      "type": "function",
      "name": "version",
      "inputs": [],
      "outputs": [
        {
          "name": "",
          "type": "string",
          "internalType": "string"
        }
      ],
      "stateMutability": "view"
    },
    {
      "type": "error",
      "name": "AccessDenied",
      "inputs": []
    },
    {
      "type": "error",
      "name": "AttestationCreationFailed",
      "inputs": []
    },
    {
      "type": "error",
      "name": "InsufficientValue",
      "inputs": []
    },
    {
      "type": "error",
      "name": "InvalidEAS",
      "inputs": []
    },
    {
      "type": "error",
      "name": "InvalidLength",
      "inputs": []
    },
    {
      "type": "error",
      "name": "NoPendingValidation",
      "inputs": [
        {
          "name": "caller",
          "type": "address",
          "internalType": "address"
        },
        {
          "name": "hookDataHash",
          "type": "bytes32",
          "internalType": "bytes32"
        }
      ]
    },
    {
      "type": "error",
      "name": "NotPayable",
      "inputs": []
    },
    {
      "type": "error",
      "name": "SchemaRegistrationFailed",
      "inputs": [
        {
          "name": "uid",
          "type": "bytes32",
          "internalType": "bytes32"
        }
      ]
    },
    {
      "type": "error",
      "name": "UnexpectedNativeValue",
      "inputs": []
    }
  ],
  "bytecode": {
    "object": "0x610140806040523461011a5760408161112b8038038091610020828561011e565b83398101031261011a578051906001600160a01b0382169081830361011a5760200151906001600160a01b038216820361011a576001608052600360a0525f60c0521561010b57816100b29260e0526101005260405161008160408261011e565b601f81527f627974657333322076616c6964617465644174746573746174696f6e5569640060208201523091610239565b61012052604051610d169081610415823960805181610437015260a05181610462015260c0518161048d015260e05181610c8801526101005181818161033d01526107a30152610120518181816101a701526106f60152f35b6341bc07ff60e11b5f5260045ffd5b5f80fd5b601f909101601f19168101906001600160401b0382119082101761014157604052565b634e487b7160e01b5f52604160045260245ffd5b60208183031261011a578051906001600160401b03821161011a57019060808282031261011a5760405191608083016001600160401b03811184821017610141576040528051835260208101516001600160a01b038116810361011a5760208401526040810151801515810361011a5760408401526060810151906001600160401b03821161011a570181601f8201121561011a578051906001600160401b0382116101415760405192610213601f8401601f19166020018561011e565b8284526020838301011161011a57815f9260208093018386015e83010152606082015290565b929160405190602082018351926102836015602083818901978089885e810160018060601b03198860601b1683820152600160f81b60348201520301600a1981018452018261011e565b5190206040516351753e3760e11b81526004810182905290956001600160a01b031693905f81602481885afa80156103945787915f916103fa575b5051146103f4579060846020926040519485938492630c1af44f60e31b8452606060048501525180928160648601528585015e5f84838501015260018060a01b0316602483015260016044830152601f801991011681010301815f865af15f91816103c0575b5061039f57505f602491604051928380926351753e3760e11b82528760048301525afa80156103945783915f91610372575b5051146103705750639e6113d560e01b5f5260045260245ffd5b565b61038e91503d805f833e610386818361011e565b810190610155565b5f610356565b6040513d5f823e3d90fd5b919280915082036103ae575090565b639e6113d560e01b5f5260045260245ffd5b9091506020813d6020116103ec575b816103dc6020938361011e565b8101031261011a5751905f610324565b3d91506103cf565b50505050565b61040e91503d805f833e610386818361011e565b5f6102be56fe60806040526004361015610027575b3615610018575f80fd5b631574f9f360e01b5f5260045ffd5b5f3560e01c80630fa37a1f146105a45780631dc8160b1461050657806354fd4d5014610418578063561ca5251461036c5780638150864d1461032857806388e5b2d9146102805780638f70fba51461029f57806391db0b7e14610280578063be1e753b1461022b578063c18dd493146101e4578063ce46e046146101ca578063df61dd2c14610190578063e49617e11461016b578063e60c35051461016b5763f73085df0361000e5734610167576020366003190112610167576004356001600160401b0381116101675761012d6101056080923690600401610844565b5f606060405161011481610975565b8281528260208201528260408201520152810190610a0e565b6060604051918051835260018060a01b0360208201511660208401526001600160401b036040820151166040840152015115156060820152f35b5f80fd5b602061018661017936610941565b610181610c86565b610cc7565b6040519015158152f35b34610167575f3660031901126101675760206040517f00000000000000000000000000000000000000000000000000000000000000008152f35b34610167575f3660031901126101675760206040515f8152f35b34610167576040366003190112610167576004356001600160a01b03811690819003610167575f525f60205260405f206024355f52602052602060405f2054604051908152f35b34610167576040366003190112610167576004356001600160401b0381116101675761025b903690600401610844565b50506024356001600160401b0381116101675761014090600319903603011261016757005b602061018661028e366108f1565b9261029a929192610c86565b610a75565b346101675760803660031901126101675760405160043560208201526001600160a01b036102cb610871565b1660408201526044356001600160401b03811680910361016757606082015260643590811515809203610167576103249160808201526080815261031060a082610990565b60405191829160208352602083019061089d565b0390f35b34610167575f366003190112610167576040517f00000000000000000000000000000000000000000000000000000000000000006001600160a01b03168152602090f35b34610167576060366003190112610167576004356001600160401b0381116101675761039c903690600401610844565b906103a5610871565b506044356001600160401b03811161016757610140906003199036030112610167576103d29136916109cc565b60208151910120335f525f60205260405f20815f5260205260405f20546103f557005b335f525f60205260405f20905f5260205260405f206104148154610a02565b9055005b34610167575f366003190112610167576103246020610310600161045b7f0000000000000000000000000000000000000000000000000000000000000000610b19565b81846104867f0000000000000000000000000000000000000000000000000000000000000000610b19565b81806104b17f0000000000000000000000000000000000000000000000000000000000000000610b19565b9260405199878b985191829101848a015e870190601760f91b83830152805192839101602183015e010190601760f91b84830152805192839101600283015e01015f838201520301601f198101835282610990565b6060366003190112610167576004356001600160401b03811161016757610531903690600401610844565b9061053a610871565b50610543610887565b5034610595576105549136916109cc565b60208151910120335f525f60205260405f20905f5260205260405f2080545f198114610581576001019055005b634e487b7160e01b5f52601160045260245ffd5b63e0aeda7d60e01b5f5260045ffd5b34610167576080366003190112610167576004356001600160401b038111610167576105d4903690600401610844565b906105dd610871565b506044356001600160401b038111610167576101409060031990360301126101675761060a3683836109cc565b6020815191012091335f525f60205260405f20835f5260205260405f20541561082d5761065a92335f525f60205260405f20905f5260205260405f206106508154610a02565b9055810190610a0e565b805160405190602082015260208152610674604082610990565b60018060a01b03602083015116916001600160401b0360408201511690606081015115159051916040519460c086018681106001600160401b0382111761081957604052855260208501526040840152606083015260808201525f60a082015260405160408101908082106001600160401b03831117610819576020916040527f000000000000000000000000000000000000000000000000000000000000000081528181019283526040518093819263f17325e760e01b8352846004840152516024830152516040604483015260018060a01b0381511660648301526001600160401b03848201511660848301526040810151151560a4830152606081015160c483015260a0610795608083015160c060e486015261012485019061089d565b91015161010483015203815f7f00000000000000000000000000000000000000000000000000000000000000006001600160a01b03165af190816107ea575b506107e857638d7100d760e01b5f5260045ffd5b005b6020813d602011610811575b8161080360209383610990565b8101031261016757516107d4565b3d91506107f6565b634e487b7160e01b5f52604160045260245ffd5b8263c0da149960e01b5f523360045260245260445ffd5b9181601f84011215610167578235916001600160401b038311610167576020838186019501011161016757565b602435906001600160a01b038216820361016757565b604435906001600160a01b038216820361016757565b805180835260209291819084018484015e5f828201840152601f01601f1916010190565b9181601f84011215610167578235916001600160401b038311610167576020808501948460051b01011161016757565b6040600319820112610167576004356001600160401b038111610167578161091b916004016108c1565b92909291602435906001600160401b0382116101675761093d916004016108c1565b9091565b602060031982011261016757600435906001600160401b038211610167576101409082900360031901126101675760040190565b608081019081106001600160401b0382111761081957604052565b90601f801991011681019081106001600160401b0382111761081957604052565b6001600160401b03811161081957601f01601f191660200190565b9291926109d8826109b1565b916109e66040519384610990565b829481845281830111610167578281602093845f960137010152565b8015610581575f190190565b908160809103126101675760405190610a2682610975565b8035825260208101356001600160a01b03811681036101675760208301526040810135906001600160401b03821682036101675760609160408401520135801515810361016757606082015290565b929092818403610b0a575f91345b85841015610aff5781841015610aeb578360051b8086013590828211610adc5784013561013e198536030181121561016757610ac0908501610cc7565b15610ad15760019103930192610a83565b505050505050505f90565b63044044a560e21b5f5260045ffd5b634e487b7160e01b5f52603260045260245ffd5b505050505050600190565b63251f56a160e21b5f5260045ffd5b805f9172184f03e93ff9f4daa797ed6e38ed64bf6a1f0160401b821015610c63575b806d04ee2d6d415b85acef8100000000600a921015610c48575b662386f26fc10000811015610c34575b6305f5e100811015610c23575b612710811015610c14575b6064811015610c06575b1015610bfb575b600a60216001840193610ba0856109b1565b94610bae6040519687610990565b808652610bbd601f19916109b1565b013660208701378401015b5f1901916f181899199a1a9b1b9c1cb0b131b232b360811b8282061a8353048015610bf657600a9091610bc8565b505090565b600190910190610b8e565b606460029104930192610b87565b61271060049104930192610b7d565b6305f5e10060089104930192610b72565b662386f26fc1000060109104930192610b65565b6d04ee2d6d415b85acef810000000060209104930192610b55565b506040915072184f03e93ff9f4daa797ed6e38ed64bf6a1f0160401b8104610b3b565b7f00000000000000000000000000000000000000000000000000000000000000006001600160a01b03163303610cb857565b634ca8886760e01b5f5260045ffd5b60e0013560018060a01b0381168091036101675730149056fea26469706673582212202a52585d27859bbdbd647337e194f1c344e2fcd6d36f3c7238410c0974d66cea64736f6c634300081b0033",
    "linkReferences": {}
  },
  "methodIdentifiers": {
    "VALIDATION_SCHEMA()": "df61dd2c",
    "attest((bytes32,bytes32,uint64,uint64,uint64,bytes32,address,address,bool,bytes))": "e60c3505",
    "decodeHookData(bytes)": "f73085df",
    "eas()": "8150864d",
    "encodeHookData((bytes32,address,uint64,bool))": "8f70fba5",
    "isPayable()": "ce46e046",
    "multiAttest((bytes32,bytes32,uint64,uint64,uint64,bytes32,address,address,bool,bytes)[],uint256[])": "91db0b7e",
    "multiRevoke((bytes32,bytes32,uint64,uint64,uint64,bytes32,address,address,bool,bytes)[],uint256[])": "88e5b2d9",
    "onAttest(bytes,(bytes32,bytes32,uint64,uint64,uint64,bytes32,address,address,bool,bytes))": "be1e753b",
    "onLock(bytes,address,address)": "1dc8160b",
    "onRelease(bytes,address,(bytes32,bytes32,uint64,uint64,uint64,bytes32,address,address,bool,bytes),bytes32)": "0fa37a1f",
    "onReturn(bytes,address,(bytes32,bytes32,uint64,uint64,uint64,bytes32,address,address,bool,bytes))": "561ca525",
    "pending(address,bytes32)": "c18dd493",
    "revoke((bytes32,bytes32,uint64,uint64,uint64,bytes32,address,address,bool,bytes))": "e49617e1",
    "version()": "54fd4d50"
  },
  "id": 115
}