{
  "abi": [
    {
      "type": "function",
      "name": "decodeHookData",
      "inputs": [
        {
          "name": "data",
          "type": "bytes",
          "internalType": "bytes"
        }
      ],
      "outputs": [
        {
          "name": "",
          "type": "tuple",
          "internalType": "struct ERC20EscrowHook.HookData",
          "components": [
            {
              "name": "token",
              "type": "address",
              "internalType": "address"
            },
            {
              "name": "amount",
              "type": "uint256",
              "internalType": "uint256"
            }
          ]
        }
      ],
      "stateMutability": "pure"
    },
    {
      "type": "function",
      "name": "deposits",
      "inputs": [
        {
          "name": "",
          "type": "address",
          "internalType": "address"
        },
        {
          "name": "",
          "type": "address",
          "internalType": "address"
        }
      ],
      "outputs": [
        {
          "name": "",
          "type": "uint256",
          "internalType": "uint256"
        }
      ],
      "stateMutability": "view"
    },
    {
      "type": "function",
      "name": "encodeHookData",
      "inputs": [
        {
          "name": "hookData",
          "type": "tuple",
          "internalType": "struct ERC20EscrowHook.HookData",
          "components": [
            {
              "name": "token",
              "type": "address",
              "internalType": "address"
            },
            {
              "name": "amount",
              "type": "uint256",
              "internalType": "uint256"
            }
          ]
        }
      ],
      "outputs": [
        {
          "name": "",
          "type": "bytes",
          "internalType": "bytes"
        }
      ],
      "stateMutability": "pure"
    },
    {
      "type": "function",
      "name": "onLock",
      "inputs": [
        {
          "name": "data",
          "type": "bytes",
          "internalType": "bytes"
        },
        {
          "name": "from",
          "type": "address",
          "internalType": "address"
        },
        {
          "name": "",
          "type": "address",
          "internalType": "address"
        }
      ],
      "outputs": [],
      "stateMutability": "payable"
    },
    {
      "type": "function",
      "name": "onRelease",
      "inputs": [
        {
          "name": "data",
          "type": "bytes",
          "internalType": "bytes"
        },
        {
          "name": "to",
          "type": "address",
          "internalType": "address"
        },
        {
          "name": "",
          "type": "address",
          "internalType": "address"
        }
      ],
      "outputs": [],
      "stateMutability": "nonpayable"
    },
    {
      "type": "function",
      "name": "onReturn",
      "inputs": [
        {
          "name": "data",
          "type": "bytes",
          "internalType": "bytes"
        },
        {
          "name": "to",
          "type": "address",
          "internalType": "address"
        },
        {
          "name": "",
          "type": "address",
          "internalType": "address"
        }
      ],
      "outputs": [],
      "stateMutability": "nonpayable"
    },
    {
      "type": "error",
      "name": "ERC20TransferFailed",
      "inputs": [
        {
          "name": "token",
          "type": "address",
          "internalType": "address"
        },
        {
          "name": "from",
          "type": "address",
          "internalType": "address"
        },
        {
          "name": "to",
          "type": "address",
          "internalType": "address"
        },
        {
          "name": "amount",
          "type": "uint256",
          "internalType": "uint256"
        }
      ]
    },
    {
      "type": "error",
      "name": "InsufficientDeposit",
      "inputs": [
        {
          "name": "caller",
          "type": "address",
          "internalType": "address"
        },
        {
          "name": "token",
          "type": "address",
          "internalType": "address"
        },
        {
          "name": "requested",
          "type": "uint256",
          "internalType": "uint256"
        },
        {
          "name": "available",
          "type": "uint256",
          "internalType": "uint256"
        }
      ]
    },
    {
      "type": "error",
      "name": "NoDeposit",
      "inputs": [
        {
          "name": "caller",
          "type": "address",
          "internalType": "address"
        },
        {
          "name": "token",
          "type": "address",
          "internalType": "address"
        }
      ]
    },
    {
      "type": "error",
      "name": "UnexpectedNativeValue",
      "inputs": []
    }
  ],
  "bytecode": {
    "object": "0x6080806040523460155761078a908161001a8239f35b5f80fdfe60806040526004361015610011575f80fd5b5f3560e01c80631a6a5893146101245780631dc8160b14610197578063488a6ebe146101295780638b9d4539146101245780638f601f66146100ca5763f73085df1461005b575f80fd5b346100c65760203660031901126100c65760043567ffffffffffffffff81116100c6576100ac61009160409236906004016103a6565b5f6020855161009f816106bb565b828152015281019061070d565b602082519160018060a01b03815116835201516020820152f35b5f80fd5b346100c65760403660031901126100c6576100e36103d4565b602435906001600160a01b03821682036100c6576001600160a01b039081165f90815260208181526040808320949093168252928352819020549051908152f35b610441565b346100c65760403660031901126100c657604080516020810191906001600160a01b036101546103d4565b1683526024358282015281815261016c6060826106eb565b8151928391602083525180918160208501528484015e5f828201840152601f01601f19168101030190f35b6101a0366103ea565b5091903461039757816101b791602493019061070d565b80516040516370a0823160e01b81523060048201529193919260209184919082906001600160a01b03165afa91821561034b575f92610363575b508251602080850180516040516323b872dd60e01b5f9081526001600160a01b0387811660045230602452604493909352929694909391169160648180855af19060015f5114821615610356575b5060408290525f60605285516370a0823160e01b8352306004840152602090839060249082906001600160a01b03165afa91821561034b575f92610317575b5015918215610301575b50506102c4575051335f9081526020818152604080832094516001600160a01b0316835293905291909120805490916102c091610747565b9055005b82519151604051634a73404560e11b81526001600160a01b0393841660048201529190921660248201523060448201526064810191909152608490fd5b61030f919250845190610747565b118480610288565b9091506020813d602011610343575b81610333602093836106eb565b810103126100c65751908661027e565b3d9150610326565b6040513d5f823e3d90fd5b3b15153d1516168661023f565b9091506020813d60201161038f575b8161037f602093836106eb565b810103126100c6575190836101f1565b3d9150610372565b63e0aeda7d60e01b5f5260045ffd5b9181601f840112156100c65782359167ffffffffffffffff83116100c657602083818601950101116100c657565b600435906001600160a01b03821682036100c657565b60606003198201126100c6576004359067ffffffffffffffff82116100c657610415916004016103a6565b90916024356001600160a01b03811681036100c657906044356001600160a01b03811681036100c65790565b346100c65761045e610452366103ea565b5092919081019061070d565b335f9081526020818152604080832084516001600160a01b03168452909152902054908115610697576020810191825180821061066057508251810390811161064c57335f9081526020818152604080832085516001600160a01b0390811685529083529281902093909355835192516370a0823160e01b8152868316600482018190529093909284916024918391165afa91821561034b575f92610618575b5060018060a01b03835116908451916040519263a9059cbb60e01b5f52826004526024528260205f60448180865af19160015f5114831615610606575b50602481602093948160405260018060a01b03895116906370a0823160e01b835260048301525afa91821561034b575f926105d2575b50159182156105bc575b505061058357005b519051604051634a73404560e11b81526001600160a01b0392831660048201523060248201529290911660448301526064820152608490fd5b6105ca919250845190610747565b115f8061057b565b9091506020813d6020116105fe575b816105ee602093836106eb565b810103126100c65751905f610571565b3d91506105e1565b3d15903b15151690911690602461053b565b9091506020813d602011610644575b81610634602093836106eb565b810103126100c65751905f6104fe565b3d9150610627565b634e487b7160e01b5f52601160045260245ffd5b915160405163b90e11b560e01b81523360048201526001600160a01b03909116602482015260448101929092526064820152608490fd5b51631f5f09af60e21b5f908152336004526001600160a01b03909116602452604490fd5b6040810190811067ffffffffffffffff8211176106d757604052565b634e487b7160e01b5f52604160045260245ffd5b90601f8019910116810190811067ffffffffffffffff8211176106d757604052565b908160409103126100c65760405190610725826106bb565b8035906001600160a01b03821682036100c65760209183520135602082015290565b9190820180921161064c5756fea2646970667358221220c6b323e5c7c7ef4426a05d069293e506fa504442a6566a16408590fe77b9cccf64736f6c634300081b0033",
    "linkReferences": {}
  },
  "methodIdentifiers": {
    "decodeHookData(bytes)": "f73085df",
    "deposits(address,address)": "8f601f66",
    "encodeHookData((address,uint256))": "488a6ebe",
    "onLock(bytes,address,address)": "1dc8160b",
    "onRelease(bytes,address,address)": "1a6a5893",
    "onReturn(bytes,address,address)": "8b9d4539"
  },
  "id": 89
}