{
  "abi": [
    {
      "type": "function",
      "name": "check",
      "inputs": [
        {
          "name": "fulfillment",
          "type": "tuple",
          "internalType": "struct Attestation",
          "components": [
            {
              "name": "uid",
              "type": "bytes32",
              "internalType": "bytes32"
            },
            {
              "name": "schema",
              "type": "bytes32",
              "internalType": "bytes32"
            },
            {
              "name": "time",
              "type": "uint64",
              "internalType": "uint64"
            },
            {
              "name": "expirationTime",
              "type": "uint64",
              "internalType": "uint64"
            },
            {
              "name": "revocationTime",
              "type": "uint64",
              "internalType": "uint64"
            },
            {
              "name": "refUID",
              "type": "bytes32",
              "internalType": "bytes32"
            },
            {
              "name": "recipient",
              "type": "address",
              "internalType": "address"
            },
            {
              "name": "attester",
              "type": "address",
              "internalType": "address"
            },
            {
              "name": "revocable",
              "type": "bool",
              "internalType": "bool"
            },
            {
              "name": "data",
              "type": "bytes",
              "internalType": "bytes"
            }
          ]
        },
        {
          "name": "demand",
          "type": "bytes",
          "internalType": "bytes"
        },
        {
          "name": "",
          "type": "bytes32",
          "internalType": "bytes32"
        }
      ],
      "outputs": [
        {
          "name": "",
          "type": "bool",
          "internalType": "bool"
        }
      ],
      "stateMutability": "pure"
    },
    {
      "type": "function",
      "name": "decodeDemandData",
      "inputs": [
        {
          "name": "data",
          "type": "bytes",
          "internalType": "bytes"
        }
      ],
      "outputs": [
        {
          "name": "",
          "type": "tuple",
          "internalType": "struct TimeBeforeArbiter.DemandData",
          "components": [
            {
              "name": "time",
              "type": "uint64",
              "internalType": "uint64"
            }
          ]
        }
      ],
      "stateMutability": "pure"
    },
    {
      "type": "error",
      "name": "TimeNotBefore",
      "inputs": []
    }
  ],
  "bytecode": {
    "object": "0x60808060405234601557610340908161001a8239f35b5f80fdfe60806040526004361015610011575f80fd5b5f3560e01c8063838a68d9146101d157638da3721a1461002f575f80fd5b346101b95760603660031901126101b9576004356001600160401b0381116101b95761014060031982360301126101b95760405161014081018181106001600160401b038211176101bd57604052816004013581526024820135602082015261009a6044830161027c565b91604082019283526100ae6064820161027c565b60608301526100bf6084820161027c565b608083015260a481013560a08301526100da60c48201610290565b60c08301526100eb60e48201610290565b60e083015261010481013580151581036101b9576101008301526101248101356001600160401b0381116101b95761012091600461012c92369201016102a4565b9101526024356001600160401b0381116101b95761014e9036906004016102a4565b6020818051810103126101b957602061016561025d565b9101516001600160401b038116918282036101b9575280151591826101a5575b505061019657602060405160018152f35b63abcd2e9760e01b5f5260045ffd5b516001600160401b03161190505f80610185565b5f80fd5b634e487b7160e01b5f52604160045260245ffd5b346101b95760203660031901126101b9576004356001600160401b0381116101b957366023820112156101b95780600401356001600160401b0381116101b95781013660248201116101b9576020905f61022961025d565b52829003126101b957602090610249602461024261025d565b920161027c565b8091526001600160401b0360405191168152f35b60405190602082018281106001600160401b038211176101bd57604052565b35906001600160401b03821682036101b957565b35906001600160a01b03821682036101b957565b81601f820112156101b9578035906001600160401b0382116101bd5760405192601f8301601f19908116603f011684016001600160401b038111858210176101bd57604052828452602083830101116101b957815f92602080930183860137830101529056fea264697066735822122059077c1f5aa0e04c93f3615a96809671e8829729bb47de7b2ca6baf416822c4564736f6c634300081b0033",
    "linkReferences": {}
  },
  "methodIdentifiers": {
    "check((bytes32,bytes32,uint64,uint64,uint64,bytes32,address,address,bool,bytes),bytes,bytes32)": "8da3721a",
    "decodeDemandData(bytes)": "838a68d9"
  },
  "id": 102
}