{
  "abi": [
    {
      "type": "function",
      "name": "check",
      "inputs": [
        {
          "name": "fulfillment",
          "type": "tuple",
          "internalType": "struct Attestation",
          "components": [
            {
              "name": "uid",
              "type": "bytes32",
              "internalType": "bytes32"
            },
            {
              "name": "schema",
              "type": "bytes32",
              "internalType": "bytes32"
            },
            {
              "name": "time",
              "type": "uint64",
              "internalType": "uint64"
            },
            {
              "name": "expirationTime",
              "type": "uint64",
              "internalType": "uint64"
            },
            {
              "name": "revocationTime",
              "type": "uint64",
              "internalType": "uint64"
            },
            {
              "name": "refUID",
              "type": "bytes32",
              "internalType": "bytes32"
            },
            {
              "name": "recipient",
              "type": "address",
              "internalType": "address"
            },
            {
              "name": "attester",
              "type": "address",
              "internalType": "address"
            },
            {
              "name": "revocable",
              "type": "bool",
              "internalType": "bool"
            },
            {
              "name": "data",
              "type": "bytes",
              "internalType": "bytes"
            }
          ]
        },
        {
          "name": "demand",
          "type": "bytes",
          "internalType": "bytes"
        },
        {
          "name": "",
          "type": "bytes32",
          "internalType": "bytes32"
        }
      ],
      "outputs": [
        {
          "name": "",
          "type": "bool",
          "internalType": "bool"
        }
      ],
      "stateMutability": "pure"
    },
    {
      "type": "function",
      "name": "decodeDemandData",
      "inputs": [
        {
          "name": "data",
          "type": "bytes",
          "internalType": "bytes"
        }
      ],
      "outputs": [
        {
          "name": "",
          "type": "tuple",
          "internalType": "struct UidArbiter.DemandData",
          "components": [
            {
              "name": "uid",
              "type": "bytes32",
              "internalType": "bytes32"
            }
          ]
        }
      ],
      "stateMutability": "pure"
    },
    {
      "type": "function",
      "name": "supportsInterface",
      "inputs": [
        {
          "name": "interfaceId",
          "type": "bytes4",
          "internalType": "bytes4"
        }
      ],
      "outputs": [
        {
          "name": "",
          "type": "bool",
          "internalType": "bool"
        }
      ],
      "stateMutability": "view"
    },
    {
      "type": "error",
      "name": "UidMismatched",
      "inputs": []
    }
  ],
  "bytecode": {
    "object": "0x6080806040523460155761036c908161001a8239f35b5f80fdfe6080806040526004361015610012575f80fd5b5f3560e01c90816301ffc9a71461023257508063838a68d9146101b457638da3721a1461003d575f80fd5b3461019c57606036600319011261019c5760043567ffffffffffffffff811161019c57610140600319823603011261019c5760405190610140820182811067ffffffffffffffff8211176101a05760405280600401358252602481013560208301526100ab604482016102a5565b60408301526100bc606482016102a5565b60608301526100cd608482016102a5565b608083015260a481013560a08301526100e860c482016102ba565b60c08301526100f960e482016102ba565b60e0830152610104810135801515810361019c576101008301526101248101359067ffffffffffffffff821161019c57600461013892369201016102ce565b61012082015260243567ffffffffffffffff811161019c5761015e9036906004016102ce565b9060208280518101031261019c576020610176610285565b920151809252510361018d57602060405160018152f35b633f51589560e01b5f5260045ffd5b5f80fd5b634e487b7160e01b5f52604160045260245ffd5b3461019c57602036600319011261019c5760043567ffffffffffffffff811161019c573660238201121561019c57806004013567ffffffffffffffff811161019c57810136602482011161019c576020905f61020e610285565b528290031261019c576020906024610224610285565b910135809152604051908152f35b3461019c57602036600319011261019c576004359063ffffffff60e01b821680920361019c576020916346d1b90d60e11b8114908115610274575b5015158152f35b6301ffc9a760e01b1490508361026d565b604051906020820182811067ffffffffffffffff8211176101a057604052565b359067ffffffffffffffff8216820361019c57565b35906001600160a01b038216820361019c57565b81601f8201121561019c5780359067ffffffffffffffff82116101a05760405192601f8301601f19908116603f0116840167ffffffffffffffff8111858210176101a0576040528284526020838301011161019c57815f92602080930183860137830101529056fea2646970667358221220144baf47adc886019f8fd0433ae2129f01d8d799ce31851621cd2e67512789b564736f6c634300081b0033",
    "linkReferences": {}
  },
  "methodIdentifiers": {
    "check((bytes32,bytes32,uint64,uint64,uint64,bytes32,address,address,bool,bytes),bytes,bytes32)": "8da3721a",
    "decodeDemandData(bytes)": "838a68d9",
    "supportsInterface(bytes4)": "01ffc9a7"
  },
  "id": 110
}