{
  "abi": [
    {
      "type": "constructor",
      "inputs": [
        {
          "name": "_eas",
          "type": "address",
          "internalType": "contract IEAS"
        },
        {
          "name": "_schemaRegistry",
          "type": "address",
          "internalType": "contract ISchemaRegistry"
        }
      ],
      "stateMutability": "nonpayable"
    },
    {
      "type": "receive",
      "stateMutability": "payable"
    },
    {
      "type": "function",
      "name": "ATTESTATION_SCHEMA",
      "inputs": [],
      "outputs": [
        {
          "name": "",
          "type": "bytes32",
          "internalType": "bytes32"
        }
      ],
      "stateMutability": "view"
    },
    {
      "type": "function",
      "name": "attest",
      "inputs": [
        {
          "name": "attestation",
          "type": "tuple",
          "internalType": "struct Attestation",
          "components": [
            {
              "name": "uid",
              "type": "bytes32",
              "internalType": "bytes32"
            },
            {
              "name": "schema",
              "type": "bytes32",
              "internalType": "bytes32"
            },
            {
              "name": "time",
              "type": "uint64",
              "internalType": "uint64"
            },
            {
              "name": "expirationTime",
              "type": "uint64",
              "internalType": "uint64"
            },
            {
              "name": "revocationTime",
              "type": "uint64",
              "internalType": "uint64"
            },
            {
              "name": "refUID",
              "type": "bytes32",
              "internalType": "bytes32"
            },
            {
              "name": "recipient",
              "type": "address",
              "internalType": "address"
            },
            {
              "name": "attester",
              "type": "address",
              "internalType": "address"
            },
            {
              "name": "revocable",
              "type": "bool",
              "internalType": "bool"
            },
            {
              "name": "data",
              "type": "bytes",
              "internalType": "bytes"
            }
          ]
        }
      ],
      "outputs": [
        {
          "name": "",
          "type": "bool",
          "internalType": "bool"
        }
      ],
      "stateMutability": "payable"
    },
    {
      "type": "function",
      "name": "checkObligation",
      "inputs": [
        {
          "name": "obligation",
          "type": "tuple",
          "internalType": "struct Attestation",
          "components": [
            {
              "name": "uid",
              "type": "bytes32",
              "internalType": "bytes32"
            },
            {
              "name": "schema",
              "type": "bytes32",
              "internalType": "bytes32"
            },
            {
              "name": "time",
              "type": "uint64",
              "internalType": "uint64"
            },
            {
              "name": "expirationTime",
              "type": "uint64",
              "internalType": "uint64"
            },
            {
              "name": "revocationTime",
              "type": "uint64",
              "internalType": "uint64"
            },
            {
              "name": "refUID",
              "type": "bytes32",
              "internalType": "bytes32"
            },
            {
              "name": "recipient",
              "type": "address",
              "internalType": "address"
            },
            {
              "name": "attester",
              "type": "address",
              "internalType": "address"
            },
            {
              "name": "revocable",
              "type": "bool",
              "internalType": "bool"
            },
            {
              "name": "data",
              "type": "bytes",
              "internalType": "bytes"
            }
          ]
        },
        {
          "name": "demand",
          "type": "bytes",
          "internalType": "bytes"
        },
        {
          "name": "fulfilling",
          "type": "bytes32",
          "internalType": "bytes32"
        }
      ],
      "outputs": [
        {
          "name": "",
          "type": "bool",
          "internalType": "bool"
        }
      ],
      "stateMutability": "view"
    },
    {
      "type": "function",
      "name": "decodeObligationData",
      "inputs": [
        {
          "name": "data",
          "type": "bytes",
          "internalType": "bytes"
        }
      ],
      "outputs": [
        {
          "name": "",
          "type": "tuple",
          "internalType": "struct ERC1155PaymentObligation.ObligationData",
          "components": [
            {
              "name": "token",
              "type": "address",
              "internalType": "address"
            },
            {
              "name": "tokenId",
              "type": "uint256",
              "internalType": "uint256"
            },
            {
              "name": "amount",
              "type": "uint256",
              "internalType": "uint256"
            },
            {
              "name": "payee",
              "type": "address",
              "internalType": "address"
            }
          ]
        }
      ],
      "stateMutability": "pure"
    },
    {
      "type": "function",
      "name": "doObligation",
      "inputs": [
        {
          "name": "data",
          "type": "tuple",
          "internalType": "struct ERC1155PaymentObligation.ObligationData",
          "components": [
            {
              "name": "token",
              "type": "address",
              "internalType": "address"
            },
            {
              "name": "tokenId",
              "type": "uint256",
              "internalType": "uint256"
            },
            {
              "name": "amount",
              "type": "uint256",
              "internalType": "uint256"
            },
            {
              "name": "payee",
              "type": "address",
              "internalType": "address"
            }
          ]
        },
        {
          "name": "refUID",
          "type": "bytes32",
          "internalType": "bytes32"
        }
      ],
      "outputs": [
        {
          "name": "uid_",
          "type": "bytes32",
          "internalType": "bytes32"
        }
      ],
      "stateMutability": "nonpayable"
    },
    {
      "type": "function",
      "name": "doObligationFor",
      "inputs": [
        {
          "name": "data",
          "type": "tuple",
          "internalType": "struct ERC1155PaymentObligation.ObligationData",
          "components": [
            {
              "name": "token",
              "type": "address",
              "internalType": "address"
            },
            {
              "name": "tokenId",
              "type": "uint256",
              "internalType": "uint256"
            },
            {
              "name": "amount",
              "type": "uint256",
              "internalType": "uint256"
            },
            {
              "name": "payee",
              "type": "address",
              "internalType": "address"
            }
          ]
        },
        {
          "name": "recipient",
          "type": "address",
          "internalType": "address"
        },
        {
          "name": "refUID",
          "type": "bytes32",
          "internalType": "bytes32"
        }
      ],
      "outputs": [
        {
          "name": "uid_",
          "type": "bytes32",
          "internalType": "bytes32"
        }
      ],
      "stateMutability": "nonpayable"
    },
    {
      "type": "function",
      "name": "doObligationRaw",
      "inputs": [
        {
          "name": "data",
          "type": "bytes",
          "internalType": "bytes"
        },
        {
          "name": "expirationTime",
          "type": "uint64",
          "internalType": "uint64"
        },
        {
          "name": "refUID",
          "type": "bytes32",
          "internalType": "bytes32"
        }
      ],
      "outputs": [
        {
          "name": "uid_",
          "type": "bytes32",
          "internalType": "bytes32"
        }
      ],
      "stateMutability": "payable"
    },
    {
      "type": "function",
      "name": "getObligationData",
      "inputs": [
        {
          "name": "uid",
          "type": "bytes32",
          "internalType": "bytes32"
        }
      ],
      "outputs": [
        {
          "name": "",
          "type": "tuple",
          "internalType": "struct ERC1155PaymentObligation.ObligationData",
          "components": [
            {
              "name": "token",
              "type": "address",
              "internalType": "address"
            },
            {
              "name": "tokenId",
              "type": "uint256",
              "internalType": "uint256"
            },
            {
              "name": "amount",
              "type": "uint256",
              "internalType": "uint256"
            },
            {
              "name": "payee",
              "type": "address",
              "internalType": "address"
            }
          ]
        }
      ],
      "stateMutability": "view"
    },
    {
      "type": "function",
      "name": "getSchema",
      "inputs": [],
      "outputs": [
        {
          "name": "",
          "type": "tuple",
          "internalType": "struct SchemaRecord",
          "components": [
            {
              "name": "uid",
              "type": "bytes32",
              "internalType": "bytes32"
            },
            {
              "name": "resolver",
              "type": "address",
              "internalType": "contract ISchemaResolver"
            },
            {
              "name": "revocable",
              "type": "bool",
              "internalType": "bool"
            },
            {
              "name": "schema",
              "type": "string",
              "internalType": "string"
            }
          ]
        }
      ],
      "stateMutability": "view"
    },
    {
      "type": "function",
      "name": "isPayable",
      "inputs": [],
      "outputs": [
        {
          "name": "",
          "type": "bool",
          "internalType": "bool"
        }
      ],
      "stateMutability": "pure"
    },
    {
      "type": "function",
      "name": "multiAttest",
      "inputs": [
        {
          "name": "attestations",
          "type": "tuple[]",
          "internalType": "struct Attestation[]",
          "components": [
            {
              "name": "uid",
              "type": "bytes32",
              "internalType": "bytes32"
            },
            {
              "name": "schema",
              "type": "bytes32",
              "internalType": "bytes32"
            },
            {
              "name": "time",
              "type": "uint64",
              "internalType": "uint64"
            },
            {
              "name": "expirationTime",
              "type": "uint64",
              "internalType": "uint64"
            },
            {
              "name": "revocationTime",
              "type": "uint64",
              "internalType": "uint64"
            },
            {
              "name": "refUID",
              "type": "bytes32",
              "internalType": "bytes32"
            },
            {
              "name": "recipient",
              "type": "address",
              "internalType": "address"
            },
            {
              "name": "attester",
              "type": "address",
              "internalType": "address"
            },
            {
              "name": "revocable",
              "type": "bool",
              "internalType": "bool"
            },
            {
              "name": "data",
              "type": "bytes",
              "internalType": "bytes"
            }
          ]
        },
        {
          "name": "values",
          "type": "uint256[]",
          "internalType": "uint256[]"
        }
      ],
      "outputs": [
        {
          "name": "",
          "type": "bool",
          "internalType": "bool"
        }
      ],
      "stateMutability": "payable"
    },
    {
      "type": "function",
      "name": "multiRevoke",
      "inputs": [
        {
          "name": "attestations",
          "type": "tuple[]",
          "internalType": "struct Attestation[]",
          "components": [
            {
              "name": "uid",
              "type": "bytes32",
              "internalType": "bytes32"
            },
            {
              "name": "schema",
              "type": "bytes32",
              "internalType": "bytes32"
            },
            {
              "name": "time",
              "type": "uint64",
              "internalType": "uint64"
            },
            {
              "name": "expirationTime",
              "type": "uint64",
              "internalType": "uint64"
            },
            {
              "name": "revocationTime",
              "type": "uint64",
              "internalType": "uint64"
            },
            {
              "name": "refUID",
              "type": "bytes32",
              "internalType": "bytes32"
            },
            {
              "name": "recipient",
              "type": "address",
              "internalType": "address"
            },
            {
              "name": "attester",
              "type": "address",
              "internalType": "address"
            },
            {
              "name": "revocable",
              "type": "bool",
              "internalType": "bool"
            },
            {
              "name": "data",
              "type": "bytes",
              "internalType": "bytes"
            }
          ]
        },
        {
          "name": "values",
          "type": "uint256[]",
          "internalType": "uint256[]"
        }
      ],
      "outputs": [
        {
          "name": "",
          "type": "bool",
          "internalType": "bool"
        }
      ],
      "stateMutability": "payable"
    },
    {
      "type": "function",
      "name": "revoke",
      "inputs": [
        {
          "name": "attestation",
          "type": "tuple",
          "internalType": "struct Attestation",
          "components": [
            {
              "name": "uid",
              "type": "bytes32",
              "internalType": "bytes32"
            },
            {
              "name": "schema",
              "type": "bytes32",
              "internalType": "bytes32"
            },
            {
              "name": "time",
              "type": "uint64",
              "internalType": "uint64"
            },
            {
              "name": "expirationTime",
              "type": "uint64",
              "internalType": "uint64"
            },
            {
              "name": "revocationTime",
              "type": "uint64",
              "internalType": "uint64"
            },
            {
              "name": "refUID",
              "type": "bytes32",
              "internalType": "bytes32"
            },
            {
              "name": "recipient",
              "type": "address",
              "internalType": "address"
            },
            {
              "name": "attester",
              "type": "address",
              "internalType": "address"
            },
            {
              "name": "revocable",
              "type": "bool",
              "internalType": "bool"
            },
            {
              "name": "data",
              "type": "bytes",
              "internalType": "bytes"
            }
          ]
        }
      ],
      "outputs": [
        {
          "name": "",
          "type": "bool",
          "internalType": "bool"
        }
      ],
      "stateMutability": "payable"
    },
    {
      "type": "function",
      "name": "version",
      "inputs": [],
      "outputs": [
        {
          "name": "",
          "type": "string",
          "internalType": "string"
        }
      ],
      "stateMutability": "view"
    },
    {
      "type": "event",
      "name": "PaymentMade",
      "inputs": [
        {
          "name": "payment",
          "type": "bytes32",
          "indexed": true,
          "internalType": "bytes32"
        },
        {
          "name": "buyer",
          "type": "address",
          "indexed": true,
          "internalType": "address"
        }
      ],
      "anonymous": false
    },
    {
      "type": "error",
      "name": "AccessDenied",
      "inputs": []
    },
    {
      "type": "error",
      "name": "ERC1155TransferFailed",
      "inputs": [
        {
          "name": "token",
          "type": "address",
          "internalType": "address"
        },
        {
          "name": "from",
          "type": "address",
          "internalType": "address"
        },
        {
          "name": "to",
          "type": "address",
          "internalType": "address"
        },
        {
          "name": "tokenId",
          "type": "uint256",
          "internalType": "uint256"
        },
        {
          "name": "amount",
          "type": "uint256",
          "internalType": "uint256"
        }
      ]
    },
    {
      "type": "error",
      "name": "InsufficientValue",
      "inputs": []
    },
    {
      "type": "error",
      "name": "InvalidEAS",
      "inputs": []
    },
    {
      "type": "error",
      "name": "InvalidLength",
      "inputs": []
    },
    {
      "type": "error",
      "name": "NotFromThisAttester",
      "inputs": []
    },
    {
      "type": "error",
      "name": "NotPayable",
      "inputs": []
    },
    {
      "type": "error",
      "name": "ReentrancyGuardReentrantCall",
      "inputs": []
    },
    {
      "type": "error",
      "name": "SchemaRegistrationFailed",
      "inputs": [
        {
          "name": "uid",
          "type": "bytes32",
          "internalType": "bytes32"
        }
      ]
    }
  ],
  "bytecode": {
    "object": "0x610160806040523461019857604081611a8a8038038091610020828561019c565b833981010312610198578051906001600160a01b0382169081830361019857602001516001600160a01b0381169190828103610198576040519161006560608461019c565b603d83527f6164647265737320746f6b656e2c2075696e7432353620746f6b656e49642c2060208401527f75696e7432353620616d6f756e742c206164647265737320706179656500000060408401526001608052600360a0525f60c0521561018957836100df9460e052610120526101005230916102b7565b6101405260017f9b779b17422d0df92223018b32b4d1fa46e071723d6817e2486d003becc55f00556040516115f79081610493823960805181610afd015260a05181610b28015260c05181610b53015260e05181611535015261010051816109740152610120518181816103860152818161079f01526112e90152610140518181816103be015281816106f20152818161094201528181610abb01528181611020015261123c0152f35b6341bc07ff60e11b5f5260045ffd5b5f80fd5b601f909101601f19168101906001600160401b038211908210176101bf57604052565b634e487b7160e01b5f52604160045260245ffd5b602081830312610198578051906001600160401b0382116101985701906080828203126101985760405191608083016001600160401b038111848210176101bf576040528051835260208101516001600160a01b0381168103610198576020840152604081015180151581036101985760408401526060810151906001600160401b038211610198570181601f82011215610198578051906001600160401b0382116101bf5760405192610291601f8401601f19166020018561019c565b8284526020838301011161019857815f9260208093018386015e83010152606082015290565b929160405190602082018351926103016015602083818901978089885e810160018060601b03198860601b1683820152600160f81b60348201520301600a1981018452018261019c565b5190206040516351753e3760e11b81526004810182905290956001600160a01b031693905f81602481885afa80156104125787915f91610478575b505114610472579060846020926040519485938492630c1af44f60e31b8452606060048501525180928160648601528585015e5f84838501015260018060a01b0316602483015260016044830152601f801991011681010301815f865af15f918161043e575b5061041d57505f602491604051928380926351753e3760e11b82528760048301525afa80156104125783915f916103f0575b5051146103ee5750639e6113d560e01b5f5260045260245ffd5b565b61040c91503d805f833e610404818361019c565b8101906101d3565b5f6103d4565b6040513d5f823e3d90fd5b9192809150820361042c575090565b639e6113d560e01b5f5260045260245ffd5b9091506020813d60201161046a575b8161045a6020938361019c565b810103126101985751905f6103a2565b3d915061044d565b50505050565b61048c91503d805f833e610404818361019c565b5f61033c56fe6080806040526004361015610029575b50361561001a575f80fd5b631574f9f360e01b5f5260045ffd5b5f905f3560e01c90816318c7386d14610be05750806354fd4d5014610ade5780635bf2f20d14610aa45780636b122fe01461090357806388e5b2d9146108e457806391db0b7e146108e4578063a40addb614610880578063b3b902d41461056a578063c6ec507014610301578063c93844be1461022e578063ce46e04614610212578063e49617e1146101f7578063e60c3505146101f75763e6c9714d0361000f57346101f05760603660031901126101f057600435906001600160401b0382116101f05761014060031983360301126101f0576040519161010a83610d83565b806004013583526024810135602084015261012760448201610d0c565b604084015261013860648201610d0c565b606084015261014960848201610d0c565b608084015260a481013560a084015261016460c48201610ccb565b60c084015261017560e48201610ccb565b60e084015261010481013580151581036101f3576101008401526101248101356001600160401b0381116101f3576101b291369101600401610e47565b610120830152602435906001600160401b0382116101f05760206101e6846101dd3660048701610e47565b60443591611017565b6040519015158152f35b80fd5b8280fd5b60206101e661020536610d20565b61020d611533565b611574565b50346101f057806003193601126101f057602090604051908152f35b50346101f05760203660031901126101f0576004356001600160401b0381116102fd576102616080913690600401610cdf565b9080929161026d610f95565b50810103126102fd576102f991506102b260606040519261028d84610d54565b61029681610ccb565b8452602081013560208501526040810135604085015201610ccb565b6060820152604051918291829190916060608082019360018060a01b03815116835260208101516020840152604081015160408401528160018060a01b0391015116910152565b0390f35b5080fd5b50346101f05760203660031901126101f05761031b610f95565b50606061012060405161032d81610d83565b83815283602082015283604082015283838201528360808201528360a08201528360c08201528360e0820152836101008201520152604051906328c44a9960e21b82526004356004830152808260248160018060a01b037f0000000000000000000000000000000000000000000000000000000000000000165afa91821561055d57819261044e575b5060208201517f00000000000000000000000000000000000000000000000000000000000000000361043f576102f96103fd61012084015160208082518301019101610fcd565b604051918291829190916060608082019360018060a01b03815116835260208101516020840152604081015160408401528160018060a01b0391015116910152565b635527981560e11b8152600490fd5b9091503d8083833e6104608183610dd5565b8101906020818303126101f3578051906001600160401b038211610555570190610140828203126101f3576040519161049883610d83565b80518352602081015160208401526104b26040820161158d565b60408401526104c36060820161158d565b60608401526104d46080820161158d565b608084015260a081015160a08401526104ef60c08201610fb9565b60c084015261050060e08201610fb9565b60e08401526105126101008201610eae565b610100840152610120810151906001600160401b03821161055957019080601f8301121561055557815161054892602001610ebb565b610120820152905f6103b6565b8380fd5b8480fd5b50604051903d90823e3d90fd5b50606036600319011261086d576004356001600160401b03811161086d57610596903690600401610cdf565b602435916001600160401b03831680930361086d576105b6913691610e11565b60025f5160206115a25f395f51905f5254146108715760025f5160206115a25f395f51905f52556105f06020825183010160208301610fcd565b9060018060a01b0382511691606081019360018060a01b038551169260208301948551946040850195865192803b1561086d575f928360c4926040519687958694637921219560e11b865233600487015260248601526044850152606484015260a060848401528160a48401525af19081610858575b506106b05750505192519151905160405163334a7d1b60e21b81526001600160a01b0394851660048201523360248201529390921660448401526064830152608482015260a49150fd5b869250604051916106c083610d9f565b338352602083015260016040830152604435606083015260808201528160a082015260206040516106f081610dba565b7f000000000000000000000000000000000000000000000000000000000000000081528181019283526040518093819263f17325e760e01b8352846004840152516024830152516040604483015260018060a01b0381511660648301526001600160401b03848201511660848301526040810151151560a4830152606081015160c483015260a0610791608083015160c060e4860152610124850190610c27565b9101516101048301520381857f00000000000000000000000000000000000000000000000000000000000000006001600160a01b03165af190811561084d57829161081a575b50602091817f4b5d781b1f4414459813c44d669c7821fcdec72a83b67c0303229be68d03ad05339280a360015f5160206115a25f395f51905f5255604051908152f35b90506020813d602011610845575b8161083560209383610dd5565b810103126102fd575160206107d7565b3d9150610828565b6040513d84823e3d90fd5b6108659198505f90610dd5565b5f965f610666565b5f80fd5b633ee5aeb560e01b5f5260045ffd5b3461086d57366003190160c0811261086d5760801361086d576084356001600160a01b038116810361086d576108dc602091604051906108d3826108c5868201610e65565b03601f198101845283610dd5565b60a435916110f2565b604051908152f35b60206101e66108f236610c7b565b926108fe929192611533565b610ef1565b3461086d575f36600319011261086d5760608060405161092281610d54565b5f81525f60208201525f604082015201526040516351753e3760e11b81527f000000000000000000000000000000000000000000000000000000000000000060048201525f8160248160018060a01b037f0000000000000000000000000000000000000000000000000000000000000000165afa8015610a99575f906109e9575b6060906102f9604051928392602084528051602085015260018060a01b0360208201511660408501526040810151151582850152015160808084015260a0830190610c27565b503d805f833e6109f98183610dd5565b81019060208183031261086d578051906001600160401b03821161086d570160808183031261086d5760405190610a2f82610d54565b8051825260208101516001600160a01b038116810361086d576020830152610a5960408201610eae565b60408301526060810151906001600160401b03821161086d570182601f8201121561086d57606092816020610a9093519101610ebb565b828201526109a3565b6040513d5f823e3d90fd5b3461086d575f36600319011261086d5760206040517f00000000000000000000000000000000000000000000000000000000000000008152f35b3461086d575f36600319011261086d576102f96020610bcc6001610b217f00000000000000000000000000000000000000000000000000000000000000006113c6565b8184610b4c7f00000000000000000000000000000000000000000000000000000000000000006113c6565b8180610b777f00000000000000000000000000000000000000000000000000000000000000006113c6565b9260405199878b985191829101848a015e870190601760f91b83830152805192839101602183015e010190601760f91b84830152805192839101600283015e01015f838201520301601f198101835282610dd5565b604051918291602083526020830190610c27565b3461086d57366003190160a0811261086d5760801361086d576108dc81610c1c81610c0e6020809601610e65565b03601f198101835282610dd5565b6084359033906110f2565b805180835260209291819084018484015e5f828201840152601f01601f1916010190565b9181601f8401121561086d578235916001600160401b03831161086d576020808501948460051b01011161086d57565b604060031982011261086d576004356001600160401b03811161086d5781610ca591600401610c4b565b92909291602435906001600160401b03821161086d57610cc791600401610c4b565b9091565b35906001600160a01b038216820361086d57565b9181601f8401121561086d578235916001600160401b03831161086d576020838186019501011161086d57565b35906001600160401b038216820361086d57565b602060031982011261086d57600435906001600160401b03821161086d5761014090829003600319011261086d5760040190565b608081019081106001600160401b03821117610d6f57604052565b634e487b7160e01b5f52604160045260245ffd5b61014081019081106001600160401b03821117610d6f57604052565b60c081019081106001600160401b03821117610d6f57604052565b604081019081106001600160401b03821117610d6f57604052565b90601f801991011681019081106001600160401b03821117610d6f57604052565b6001600160401b038111610d6f57601f01601f191660200190565b929192610e1d82610df6565b91610e2b6040519384610dd5565b82948184528183011161086d578281602093845f960137010152565b9080601f8301121561086d57816020610e6293359101610e11565b90565b6080810191906004356001600160a01b0381169081900361086d578152602435602082015260443560408201526064356001600160a01b038116919082900361086d5760600152565b5190811515820361086d57565b929192610ec782610df6565b91610ed56040519384610dd5565b82948184528183011161086d578281602093845f96015e010152565b929092818403610f86575f91345b85841015610f7b5781841015610f67578360051b8086013590828211610f585784013561013e198536030181121561086d57610f3c908501611574565b15610f4d5760019103930192610eff565b505050505050505f90565b63044044a560e21b5f5260045ffd5b634e487b7160e01b5f52603260045260245ffd5b505050505050600190565b63251f56a160e21b5f5260045ffd5b60405190610fa282610d54565b5f6060838281528260208201528260408201520152565b51906001600160a01b038216820361086d57565b9081608091031261086d5761100f606060405192610fea84610d54565b610ff381610fb9565b8452602081015160208501526040810151604085015201610fb9565b606082015290565b909160208201517f0000000000000000000000000000000000000000000000000000000000000000036110eb5760a0820151036110e55761106961012061107992015160208082518301019101610fcd565b9160208082518301019101610fcd565b815181516001600160a01b0390811691161491826110d2575b826110be575b826110a257505090565b6060908101519101516001600160a01b03908116911614919050565b915060408201516040820151111591611098565b9150602082015160208201511491611092565b50505f90565b5050505f90565b5f5160206115a25f395f51905f52545f9392906002146108715760025f5160206115a25f395f51905f52556111306020835184010160208401610fcd565b9060018060a01b0382511693606083019560018060a01b038751169460208501968751966040870197885192803b1561086d575f928360c4926040519687958694637921219560e11b865233600487015260248601526044850152606484015260a060848401528160a48401525af190816113b1575b506111ee57845188518851885160405163334a7d1b60e21b81526001600160a01b0394851660048201523360248201529390921660448401526064830152608482015260a490fd5b93509350935093506040519361120385610d9f565b60018060a01b03169283855282602086015260016040860152606085015260808401528060a0840152602060405161123a81610dba565b7f000000000000000000000000000000000000000000000000000000000000000081528181019485526040518095819263f17325e760e01b8352846004840152516024830152516040604483015260018060a01b0381511660648301526001600160401b03848201511660848301526040810151151560a4830152606081015160c483015260a06112db608083015160c060e4860152610124850190610c27565b9101516101048301520381847f00000000000000000000000000000000000000000000000000000000000000006001600160a01b03165af192831561055d57819361135b575b507f4b5d781b1f4414459813c44d669c7821fcdec72a83b67c0303229be68d03ad05818492a39060015f5160206115a25f395f51905f5255565b909392506020813d6020116113a9575b8161137860209383610dd5565b81010312610555575191927f4b5d781b1f4414459813c44d669c7821fcdec72a83b67c0303229be68d03ad05611321565b3d915061136b565b6113be9193505f90610dd5565b5f915f6111a6565b805f9172184f03e93ff9f4daa797ed6e38ed64bf6a1f0160401b821015611510575b806d04ee2d6d415b85acef8100000000600a9210156114f5575b662386f26fc100008110156114e1575b6305f5e1008110156114d0575b6127108110156114c1575b60648110156114b3575b10156114a8575b600a6021600184019361144d85610df6565b9461145b6040519687610dd5565b80865261146a601f1991610df6565b013660208701378401015b5f1901916f181899199a1a9b1b9c1cb0b131b232b360811b8282061a83530480156114a357600a9091611475565b505090565b60019091019061143b565b606460029104930192611434565b6127106004910493019261142a565b6305f5e1006008910493019261141f565b662386f26fc1000060109104930192611412565b6d04ee2d6d415b85acef810000000060209104930192611402565b506040915072184f03e93ff9f4daa797ed6e38ed64bf6a1f0160401b81046113e8565b7f00000000000000000000000000000000000000000000000000000000000000006001600160a01b0316330361156557565b634ca8886760e01b5f5260045ffd5b60e0013560018060a01b03811680910361086d57301490565b51906001600160401b038216820361086d5756fe9b779b17422d0df92223018b32b4d1fa46e071723d6817e2486d003becc55f00a2646970667358221220e37c585bc993036b5e482366df6ae258394feba2e612805d3a1fac577e27ed5164736f6c634300081b0033",
    "linkReferences": {}
  },
  "methodIdentifiers": {
    "ATTESTATION_SCHEMA()": "5bf2f20d",
    "attest((bytes32,bytes32,uint64,uint64,uint64,bytes32,address,address,bool,bytes))": "e60c3505",
    "checkObligation((bytes32,bytes32,uint64,uint64,uint64,bytes32,address,address,bool,bytes),bytes,bytes32)": "e6c9714d",
    "decodeObligationData(bytes)": "c93844be",
    "doObligation((address,uint256,uint256,address),bytes32)": "18c7386d",
    "doObligationFor((address,uint256,uint256,address),address,bytes32)": "a40addb6",
    "doObligationRaw(bytes,uint64,bytes32)": "b3b902d4",
    "getObligationData(bytes32)": "c6ec5070",
    "getSchema()": "6b122fe0",
    "isPayable()": "ce46e046",
    "multiAttest((bytes32,bytes32,uint64,uint64,uint64,bytes32,address,address,bool,bytes)[],uint256[])": "91db0b7e",
    "multiRevoke((bytes32,bytes32,uint64,uint64,uint64,bytes32,address,address,bool,bytes)[],uint256[])": "88e5b2d9",
    "revoke((bytes32,bytes32,uint64,uint64,uint64,bytes32,address,address,bool,bytes))": "e49617e1",
    "version()": "54fd4d50"
  },
  "id": 154
}