{
  "abi": [
    {
      "type": "constructor",
      "inputs": [
        {
          "name": "_eas",
          "type": "address",
          "internalType": "contract IEAS"
        },
        {
          "name": "_schemaRegistry",
          "type": "address",
          "internalType": "contract ISchemaRegistry"
        }
      ],
      "stateMutability": "nonpayable"
    },
    {
      "type": "receive",
      "stateMutability": "payable"
    },
    {
      "type": "function",
      "name": "ATTESTATION_SCHEMA",
      "inputs": [],
      "outputs": [
        {
          "name": "",
          "type": "bytes32",
          "internalType": "bytes32"
        }
      ],
      "stateMutability": "view"
    },
    {
      "type": "function",
      "name": "ATTESTATION_SCHEMA_REVOCABLE",
      "inputs": [],
      "outputs": [
        {
          "name": "",
          "type": "bool",
          "internalType": "bool"
        }
      ],
      "stateMutability": "view"
    },
    {
      "type": "function",
      "name": "attest",
      "inputs": [
        {
          "name": "attestation",
          "type": "tuple",
          "internalType": "struct Attestation",
          "components": [
            {
              "name": "uid",
              "type": "bytes32",
              "internalType": "bytes32"
            },
            {
              "name": "schema",
              "type": "bytes32",
              "internalType": "bytes32"
            },
            {
              "name": "time",
              "type": "uint64",
              "internalType": "uint64"
            },
            {
              "name": "expirationTime",
              "type": "uint64",
              "internalType": "uint64"
            },
            {
              "name": "revocationTime",
              "type": "uint64",
              "internalType": "uint64"
            },
            {
              "name": "refUID",
              "type": "bytes32",
              "internalType": "bytes32"
            },
            {
              "name": "recipient",
              "type": "address",
              "internalType": "address"
            },
            {
              "name": "attester",
              "type": "address",
              "internalType": "address"
            },
            {
              "name": "revocable",
              "type": "bool",
              "internalType": "bool"
            },
            {
              "name": "data",
              "type": "bytes",
              "internalType": "bytes"
            }
          ]
        }
      ],
      "outputs": [
        {
          "name": "",
          "type": "bool",
          "internalType": "bool"
        }
      ],
      "stateMutability": "payable"
    },
    {
      "type": "function",
      "name": "check",
      "inputs": [
        {
          "name": "fulfillment",
          "type": "tuple",
          "internalType": "struct Attestation",
          "components": [
            {
              "name": "uid",
              "type": "bytes32",
              "internalType": "bytes32"
            },
            {
              "name": "schema",
              "type": "bytes32",
              "internalType": "bytes32"
            },
            {
              "name": "time",
              "type": "uint64",
              "internalType": "uint64"
            },
            {
              "name": "expirationTime",
              "type": "uint64",
              "internalType": "uint64"
            },
            {
              "name": "revocationTime",
              "type": "uint64",
              "internalType": "uint64"
            },
            {
              "name": "refUID",
              "type": "bytes32",
              "internalType": "bytes32"
            },
            {
              "name": "recipient",
              "type": "address",
              "internalType": "address"
            },
            {
              "name": "attester",
              "type": "address",
              "internalType": "address"
            },
            {
              "name": "revocable",
              "type": "bool",
              "internalType": "bool"
            },
            {
              "name": "data",
              "type": "bytes",
              "internalType": "bytes"
            }
          ]
        },
        {
          "name": "demand",
          "type": "bytes",
          "internalType": "bytes"
        },
        {
          "name": "escrowUid",
          "type": "bytes32",
          "internalType": "bytes32"
        }
      ],
      "outputs": [
        {
          "name": "",
          "type": "bool",
          "internalType": "bool"
        }
      ],
      "stateMutability": "view"
    },
    {
      "type": "function",
      "name": "decodeObligationData",
      "inputs": [
        {
          "name": "data",
          "type": "bytes",
          "internalType": "bytes"
        }
      ],
      "outputs": [
        {
          "name": "",
          "type": "tuple",
          "internalType": "struct ERC1155PaymentObligation.ObligationData",
          "components": [
            {
              "name": "token",
              "type": "address",
              "internalType": "address"
            },
            {
              "name": "tokenId",
              "type": "uint256",
              "internalType": "uint256"
            },
            {
              "name": "amount",
              "type": "uint256",
              "internalType": "uint256"
            },
            {
              "name": "payee",
              "type": "address",
              "internalType": "address"
            }
          ]
        }
      ],
      "stateMutability": "pure"
    },
    {
      "type": "function",
      "name": "doObligation",
      "inputs": [
        {
          "name": "data",
          "type": "tuple",
          "internalType": "struct ERC1155PaymentObligation.ObligationData",
          "components": [
            {
              "name": "token",
              "type": "address",
              "internalType": "address"
            },
            {
              "name": "tokenId",
              "type": "uint256",
              "internalType": "uint256"
            },
            {
              "name": "amount",
              "type": "uint256",
              "internalType": "uint256"
            },
            {
              "name": "payee",
              "type": "address",
              "internalType": "address"
            }
          ]
        },
        {
          "name": "refUID",
          "type": "bytes32",
          "internalType": "bytes32"
        }
      ],
      "outputs": [
        {
          "name": "uid_",
          "type": "bytes32",
          "internalType": "bytes32"
        }
      ],
      "stateMutability": "nonpayable"
    },
    {
      "type": "function",
      "name": "doObligationFor",
      "inputs": [
        {
          "name": "data",
          "type": "tuple",
          "internalType": "struct ERC1155PaymentObligation.ObligationData",
          "components": [
            {
              "name": "token",
              "type": "address",
              "internalType": "address"
            },
            {
              "name": "tokenId",
              "type": "uint256",
              "internalType": "uint256"
            },
            {
              "name": "amount",
              "type": "uint256",
              "internalType": "uint256"
            },
            {
              "name": "payee",
              "type": "address",
              "internalType": "address"
            }
          ]
        },
        {
          "name": "recipient",
          "type": "address",
          "internalType": "address"
        },
        {
          "name": "refUID",
          "type": "bytes32",
          "internalType": "bytes32"
        }
      ],
      "outputs": [
        {
          "name": "uid_",
          "type": "bytes32",
          "internalType": "bytes32"
        }
      ],
      "stateMutability": "nonpayable"
    },
    {
      "type": "function",
      "name": "doObligationRaw",
      "inputs": [
        {
          "name": "data",
          "type": "bytes",
          "internalType": "bytes"
        },
        {
          "name": "expirationTime",
          "type": "uint64",
          "internalType": "uint64"
        },
        {
          "name": "refUID",
          "type": "bytes32",
          "internalType": "bytes32"
        }
      ],
      "outputs": [
        {
          "name": "uid_",
          "type": "bytes32",
          "internalType": "bytes32"
        }
      ],
      "stateMutability": "payable"
    },
    {
      "type": "function",
      "name": "getObligationData",
      "inputs": [
        {
          "name": "uid",
          "type": "bytes32",
          "internalType": "bytes32"
        }
      ],
      "outputs": [
        {
          "name": "",
          "type": "tuple",
          "internalType": "struct ERC1155PaymentObligation.ObligationData",
          "components": [
            {
              "name": "token",
              "type": "address",
              "internalType": "address"
            },
            {
              "name": "tokenId",
              "type": "uint256",
              "internalType": "uint256"
            },
            {
              "name": "amount",
              "type": "uint256",
              "internalType": "uint256"
            },
            {
              "name": "payee",
              "type": "address",
              "internalType": "address"
            }
          ]
        }
      ],
      "stateMutability": "view"
    },
    {
      "type": "function",
      "name": "getSchema",
      "inputs": [],
      "outputs": [
        {
          "name": "",
          "type": "tuple",
          "internalType": "struct SchemaRecord",
          "components": [
            {
              "name": "uid",
              "type": "bytes32",
              "internalType": "bytes32"
            },
            {
              "name": "resolver",
              "type": "address",
              "internalType": "contract ISchemaResolver"
            },
            {
              "name": "revocable",
              "type": "bool",
              "internalType": "bool"
            },
            {
              "name": "schema",
              "type": "string",
              "internalType": "string"
            }
          ]
        }
      ],
      "stateMutability": "view"
    },
    {
      "type": "function",
      "name": "isPayable",
      "inputs": [],
      "outputs": [
        {
          "name": "",
          "type": "bool",
          "internalType": "bool"
        }
      ],
      "stateMutability": "pure"
    },
    {
      "type": "function",
      "name": "multiAttest",
      "inputs": [
        {
          "name": "attestations",
          "type": "tuple[]",
          "internalType": "struct Attestation[]",
          "components": [
            {
              "name": "uid",
              "type": "bytes32",
              "internalType": "bytes32"
            },
            {
              "name": "schema",
              "type": "bytes32",
              "internalType": "bytes32"
            },
            {
              "name": "time",
              "type": "uint64",
              "internalType": "uint64"
            },
            {
              "name": "expirationTime",
              "type": "uint64",
              "internalType": "uint64"
            },
            {
              "name": "revocationTime",
              "type": "uint64",
              "internalType": "uint64"
            },
            {
              "name": "refUID",
              "type": "bytes32",
              "internalType": "bytes32"
            },
            {
              "name": "recipient",
              "type": "address",
              "internalType": "address"
            },
            {
              "name": "attester",
              "type": "address",
              "internalType": "address"
            },
            {
              "name": "revocable",
              "type": "bool",
              "internalType": "bool"
            },
            {
              "name": "data",
              "type": "bytes",
              "internalType": "bytes"
            }
          ]
        },
        {
          "name": "values",
          "type": "uint256[]",
          "internalType": "uint256[]"
        }
      ],
      "outputs": [
        {
          "name": "",
          "type": "bool",
          "internalType": "bool"
        }
      ],
      "stateMutability": "payable"
    },
    {
      "type": "function",
      "name": "multiRevoke",
      "inputs": [
        {
          "name": "attestations",
          "type": "tuple[]",
          "internalType": "struct Attestation[]",
          "components": [
            {
              "name": "uid",
              "type": "bytes32",
              "internalType": "bytes32"
            },
            {
              "name": "schema",
              "type": "bytes32",
              "internalType": "bytes32"
            },
            {
              "name": "time",
              "type": "uint64",
              "internalType": "uint64"
            },
            {
              "name": "expirationTime",
              "type": "uint64",
              "internalType": "uint64"
            },
            {
              "name": "revocationTime",
              "type": "uint64",
              "internalType": "uint64"
            },
            {
              "name": "refUID",
              "type": "bytes32",
              "internalType": "bytes32"
            },
            {
              "name": "recipient",
              "type": "address",
              "internalType": "address"
            },
            {
              "name": "attester",
              "type": "address",
              "internalType": "address"
            },
            {
              "name": "revocable",
              "type": "bool",
              "internalType": "bool"
            },
            {
              "name": "data",
              "type": "bytes",
              "internalType": "bytes"
            }
          ]
        },
        {
          "name": "values",
          "type": "uint256[]",
          "internalType": "uint256[]"
        }
      ],
      "outputs": [
        {
          "name": "",
          "type": "bool",
          "internalType": "bool"
        }
      ],
      "stateMutability": "payable"
    },
    {
      "type": "function",
      "name": "revoke",
      "inputs": [
        {
          "name": "attestation",
          "type": "tuple",
          "internalType": "struct Attestation",
          "components": [
            {
              "name": "uid",
              "type": "bytes32",
              "internalType": "bytes32"
            },
            {
              "name": "schema",
              "type": "bytes32",
              "internalType": "bytes32"
            },
            {
              "name": "time",
              "type": "uint64",
              "internalType": "uint64"
            },
            {
              "name": "expirationTime",
              "type": "uint64",
              "internalType": "uint64"
            },
            {
              "name": "revocationTime",
              "type": "uint64",
              "internalType": "uint64"
            },
            {
              "name": "refUID",
              "type": "bytes32",
              "internalType": "bytes32"
            },
            {
              "name": "recipient",
              "type": "address",
              "internalType": "address"
            },
            {
              "name": "attester",
              "type": "address",
              "internalType": "address"
            },
            {
              "name": "revocable",
              "type": "bool",
              "internalType": "bool"
            },
            {
              "name": "data",
              "type": "bytes",
              "internalType": "bytes"
            }
          ]
        }
      ],
      "outputs": [
        {
          "name": "",
          "type": "bool",
          "internalType": "bool"
        }
      ],
      "stateMutability": "payable"
    },
    {
      "type": "function",
      "name": "supportsInterface",
      "inputs": [
        {
          "name": "interfaceId",
          "type": "bytes4",
          "internalType": "bytes4"
        }
      ],
      "outputs": [
        {
          "name": "",
          "type": "bool",
          "internalType": "bool"
        }
      ],
      "stateMutability": "view"
    },
    {
      "type": "function",
      "name": "version",
      "inputs": [],
      "outputs": [
        {
          "name": "",
          "type": "string",
          "internalType": "string"
        }
      ],
      "stateMutability": "view"
    },
    {
      "type": "event",
      "name": "PaymentMade",
      "inputs": [
        {
          "name": "payment",
          "type": "bytes32",
          "indexed": true,
          "internalType": "bytes32"
        },
        {
          "name": "buyer",
          "type": "address",
          "indexed": true,
          "internalType": "address"
        }
      ],
      "anonymous": false
    },
    {
      "type": "error",
      "name": "AccessDenied",
      "inputs": []
    },
    {
      "type": "error",
      "name": "ERC1155TransferFailed",
      "inputs": [
        {
          "name": "token",
          "type": "address",
          "internalType": "address"
        },
        {
          "name": "from",
          "type": "address",
          "internalType": "address"
        },
        {
          "name": "to",
          "type": "address",
          "internalType": "address"
        },
        {
          "name": "tokenId",
          "type": "uint256",
          "internalType": "uint256"
        },
        {
          "name": "amount",
          "type": "uint256",
          "internalType": "uint256"
        }
      ]
    },
    {
      "type": "error",
      "name": "InsufficientValue",
      "inputs": []
    },
    {
      "type": "error",
      "name": "InvalidEAS",
      "inputs": []
    },
    {
      "type": "error",
      "name": "InvalidLength",
      "inputs": []
    },
    {
      "type": "error",
      "name": "NotFromThisAttester",
      "inputs": []
    },
    {
      "type": "error",
      "name": "NotPayable",
      "inputs": []
    },
    {
      "type": "error",
      "name": "ReentrancyGuardReentrantCall",
      "inputs": []
    },
    {
      "type": "error",
      "name": "SchemaRegistrationFailed",
      "inputs": [
        {
          "name": "uid",
          "type": "bytes32",
          "internalType": "bytes32"
        }
      ]
    }
  ],
  "bytecode": {
    "object": "0x61018080604052346101b557604081611c26803803809161002082856101b9565b8339810103126101b5578051906001600160a01b038216908183036101b557602001516001600160a01b03811691908281036101b557604051916100656060846101b9565b603d83527f6164647265737320746f6b656e2c2075696e7432353620746f6b656e49642c2060208401527f75696e7432353620616d6f756e742c206164647265737320706179656500000060408401526001608052600360a0525f60c052156101a657836100e49460e05261012052610100525f6101605230916102d4565b6101405260017f9b779b17422d0df92223018b32b4d1fa46e071723d6817e2486d003becc55f005560405161177b90816104ab823960805181610bcc015260a05181610bf7015260c05181610c22015260e051816116b901526101005181610a430152610120518181816102800152818161070401526114330152610140518181816102b8015281816105f501528181610a1101528181610b8a01528181611120015261131c01526101605181818161047f0152818161062d015261135c0152f35b6341bc07ff60e11b5f5260045ffd5b5f80fd5b601f909101601f19168101906001600160401b038211908210176101dc57604052565b634e487b7160e01b5f52604160045260245ffd5b6020818303126101b5578051906001600160401b0382116101b55701906080828203126101b55760405191608083016001600160401b038111848210176101dc576040528051835260208101516001600160a01b03811681036101b5576020840152604081015180151581036101b55760408401526060810151906001600160401b0382116101b5570181601f820112156101b5578051906001600160401b0382116101dc57604051926102ae601f8401601f1916602001856101b9565b828452602083830101116101b557815f9260208093018386015e83010152606082015290565b9291604051906020820183519261031a6015602083818901978089885e810160018060601b03198860601b16838201525f60348201520301600a198101845201826101b9565b5190206040516351753e3760e11b81526004810182905290956001600160a01b031693905f81602481885afa801561042a5787915f91610490575b50511461048a579060846020926040519485938492630c1af44f60e31b8452606060048501525180928160648601528585015e5f84838501015260018060a01b031660248301525f6044830152601f801991011681010301815f865af15f9181610456575b5061043557505f602491604051928380926351753e3760e11b82528760048301525afa801561042a5783915f91610408575b5051146104065750639e6113d560e01b5f5260045260245ffd5b565b61042491503d805f833e61041c81836101b9565b8101906101f0565b5f6103ec565b6040513d5f823e3d90fd5b91928091508203610444575090565b639e6113d560e01b5f5260045260245ffd5b9091506020813d602011610482575b81610472602093836101b9565b810103126101b55751905f6103ba565b3d9150610465565b50505050565b6104a491503d805f833e61041c81836101b9565b5f61035556fe6080806040526004361015610029575b50361561001a575f80fd5b631574f9f360e01b5f5260045ffd5b5f5f3560e01c91826301ffc9a714610cf85750816318c7386d14610caf57816354fd4d5014610bad5781635bf2f20d14610b735781636b122fe0146109d257816388e5b2d9146108985781638da3721a146108b757816391db0b7e14610898578163a40addb614610834578163b3b902d4146104a4578163b587a5eb14610468578163c6ec5070146101fc578163c93844be1461012a578163ce46e0461461010c57508063e49617e1146100e75763e60c3505146100e7575f61000f565b60206101026100f536610f55565b6100fd6116b7565b6116f8565b6040519015158152f35b34610127578060031936011261012757602090604051908152f35b80fd5b34610127576020366003190112610127576004356001600160401b0381116101f85761015c6080913690600401610f28565b908092916101686111f2565b50810103126101f8576101f491506101ad60606040519261018884610def565b61019181610ea5565b8452602081013560208501526040810135604085015201610ea5565b6060820152604051918291829190916060608082019360018060a01b03815116835260208101516020840152604081015160408401528160018060a01b0391015116910152565b0390f35b5080fd5b34610127576020366003190112610127576102156111f2565b50606061012060405161022781610e1e565b83815283602082015283604082015283838201528360808201528360a08201528360c08201528360e0820152836101008201520152604051906328c44a9960e21b82526004356004830152808260248160018060a01b037f0000000000000000000000000000000000000000000000000000000000000000165afa91821561045b578192610348575b5060208201517f000000000000000000000000000000000000000000000000000000000000000003610339576101f46102f7610120840151602080825183010191016110cd565b604051918291829190916060608082019360018060a01b03815116835260208101516020840152604081015160408401528160018060a01b0391015116910152565b635527981560e11b8152600490fd5b9091503d8083833e61035a8183610e70565b810190602081830312610457578051906001600160401b03821161044f57019061014082820312610457576040519161039283610e1e565b80518352602081015160208401526103ac60408201611711565b60408401526103bd60608201611711565b60608401526103ce60808201611711565b608084015260a081015160a08401526103e960c082016110b9565b60c08401526103fa60e082016110b9565b60e084015261040c6101008201610fd2565b610100840152610120810151906001600160401b03821161045357019080601f8301121561044f57815161044292602001610fdf565b61012082015290826102b0565b8380fd5b8480fd5b8280fd5b50604051903d90823e3d90fd5b3461012757806003193601126101275760206040517f000000000000000000000000000000000000000000000000000000000000000015158152f35b6060366003190112610821576004356001600160401b038111610821576104cf903690600401610f28565b6024356001600160401b038116939290849003610821576104f590604435923691610ed4565b60025f5160206117265f395f51905f5254146108255760025f5160206117265f395f51905f525561052f60208251830101602083016110cd565b60018060a01b0381511692606082019460018060a01b038651169360208401958651956040860196875192803b15610821575f928360c4926040519687958694637921219560e11b865233600487015260248601526044850152606484015260a060848401528160a48401525af1908161080c575b506105f0575050905193519251915160405163334a7d1b60e21b81526001600160a01b039586166004820152336024820152949093166044850152506064830152608482015260a49150fd5b8793507f0000000000000000000000000000000000000000000000000000000000000000936040519361062285610e3a565b3385528160208601527f00000000000000000000000000000000000000000000000000000000000000001515918260408701528160608701528360808701528460a0870152602060405161067581610e55565b8881528181019788526040518098819263f17325e760e01b8352846004840152516024830152516040604483015260018060a01b0381511660648301526001600160401b03848201511660848301526040810151151560a4830152606081015160c483015260a06106f6608083015160c060e4860152610124850190610d4b565b9101516101048301520381887f00000000000000000000000000000000000000000000000000000000000000006001600160a01b03165af19586156108015785966107cc575b509160209691610120936040519361075385610e1e565b888552898501526001600160401b0342166040850152606084015285608084015260a08301523360c08301523060e08301526101008201520152817f4b5d781b1f4414459813c44d669c7821fcdec72a83b67c0303229be68d03ad05339280a360015f5160206117265f395f51905f5255604051908152f35b9095506020813d6020116107f9575b816107e860209383610e70565b81010312610453575194602061073c565b3d91506107db565b6040513d87823e3d90fd5b6108199193505f90610e70565b5f91896105a4565b5f80fd5b633ee5aeb560e01b5f5260045ffd5b3461082157366003190160c0811261082157608013610821576084356001600160a01b0381168103610821576108906020916040519061088782610879868201610f89565b03601f198101845283610e70565b60a43591611216565b604051908152f35b60206101026108a636610d9f565b926108b29291926116b7565b611015565b34610821576060366003190112610821576004356001600160401b03811161082157610140600319823603011261082157604051906108f582610e1e565b806004013582526024810135602083015261091260448201610e91565b604083015261092360648201610e91565b606083015261093460848201610e91565b608083015260a481013560a083015261094f60c48201610ea5565b60c083015261096060e48201610ea5565b60e0830152610104810135801515810361082157610100830152610124810135906001600160401b03821161082157600461099e9236920101610f0a565b6101208201526024356001600160401b038111610821576020916109c9610102923690600401610f0a565b60443591611117565b34610821575f366003190112610821576060806040516109f181610def565b5f81525f60208201525f604082015201526040516351753e3760e11b81527f000000000000000000000000000000000000000000000000000000000000000060048201525f8160248160018060a01b037f0000000000000000000000000000000000000000000000000000000000000000165afa8015610b68575f90610ab8575b6060906101f4604051928392602084528051602085015260018060a01b0360208201511660408501526040810151151582850152015160808084015260a0830190610d4b565b503d805f833e610ac88183610e70565b810190602081830312610821578051906001600160401b03821161082157016080818303126108215760405190610afe82610def565b8051825260208101516001600160a01b0381168103610821576020830152610b2860408201610fd2565b60408301526060810151906001600160401b038211610821570182601f8201121561082157606092816020610b5f93519101610fdf565b82820152610a72565b6040513d5f823e3d90fd5b34610821575f3660031901126108215760206040517f00000000000000000000000000000000000000000000000000000000000000008152f35b34610821575f366003190112610821576101f46020610c9b6001610bf07f000000000000000000000000000000000000000000000000000000000000000061154a565b8184610c1b7f000000000000000000000000000000000000000000000000000000000000000061154a565b8180610c467f000000000000000000000000000000000000000000000000000000000000000061154a565b9260405199878b985191829101848a015e870190601760f91b83830152805192839101602183015e010190601760f91b84830152805192839101600283015e01015f838201520301601f198101835282610e70565b604051918291602083526020830190610d4b565b3461082157366003190160a0811261082157608013610821576020610890604051610ced81610cdf858201610f89565b03601f198101835282610e70565b608435903390611216565b34610821576020366003190112610821576004359063ffffffff60e01b8216809203610821576020916346d1b90d60e11b8114908115610d3a575b5015158152f35b6301ffc9a760e01b14905083610d33565b805180835260209291819084018484015e5f828201840152601f01601f1916010190565b9181601f84011215610821578235916001600160401b038311610821576020808501948460051b01011161082157565b6040600319820112610821576004356001600160401b0381116108215781610dc991600401610d6f565b92909291602435906001600160401b03821161082157610deb91600401610d6f565b9091565b608081019081106001600160401b03821117610e0a57604052565b634e487b7160e01b5f52604160045260245ffd5b61014081019081106001600160401b03821117610e0a57604052565b60c081019081106001600160401b03821117610e0a57604052565b604081019081106001600160401b03821117610e0a57604052565b90601f801991011681019081106001600160401b03821117610e0a57604052565b35906001600160401b038216820361082157565b35906001600160a01b038216820361082157565b6001600160401b038111610e0a57601f01601f191660200190565b929192610ee082610eb9565b91610eee6040519384610e70565b829481845281830111610821578281602093845f960137010152565b9080601f8301121561082157816020610f2593359101610ed4565b90565b9181601f84011215610821578235916001600160401b038311610821576020838186019501011161082157565b602060031982011261082157600435906001600160401b038211610821576101409082900360031901126108215760040190565b6080810191906004356001600160a01b03811690819003610821578152602435602082015260443560408201526064356001600160a01b03811691908290036108215760600152565b5190811515820361082157565b929192610feb82610eb9565b91610ff96040519384610e70565b829481845281830111610821578281602093845f96015e010152565b9290928184036110aa575f91345b8584101561109f578184101561108b578360051b808601359082821161107c5784013561013e1985360301811215610821576110609085016116f8565b156110715760019103930192611023565b505050505050505f90565b63044044a560e21b5f5260045ffd5b634e487b7160e01b5f52603260045260245ffd5b505050505050600190565b63251f56a160e21b5f5260045ffd5b51906001600160a01b038216820361082157565b908160809103126108215761110f6060604051926110ea84610def565b6110f3816110b9565b84526020810151602085015260408101516040850152016110b9565b606082015290565b909160208201517f0000000000000000000000000000000000000000000000000000000000000000036111eb5760a0820151036111e557611169610120611179920151602080825183010191016110cd565b91602080825183010191016110cd565b815181516001600160a01b0390811691161491826111d2575b826111be575b826111a257505090565b6060908101519101516001600160a01b03908116911614919050565b915060408201516040820151111591611198565b9150602082015160208201511491611192565b50505f90565b5050505f90565b604051906111ff82610def565b5f6060838281528260208201528260408201520152565b5f5160206117265f395f51905f52545f9392906002146108255760025f5160206117265f395f51905f525561125460208351840101602084016110cd565b9060018060a01b0382511693606083019560018060a01b038751169460208501968751966040870197885192803b15610821575f928360c4926040519687958694637921219560e11b865233600487015260248601526044850152606484015260a060848401528160a48401525af19081611535575b5061131257845188518851885160405163334a7d1b60e21b81526001600160a01b0394851660048201523360248201529390921660448401526064830152608482015260a490fd5b93509350935093507f00000000000000000000000000000000000000000000000000000000000000006040519461134886610e3a565b60018060a01b0316938486528360208701527f00000000000000000000000000000000000000000000000000000000000000001515908160408801528060608801528360808801528460a088015260206040516113a481610e55565b8481528181019889526040518099819263f17325e760e01b8352846004840152516024830152516040604483015260018060a01b0381511660648301526001600160401b03848201511660848301526040810151151560a4830152606081015160c483015260a0611425608083015160c060e4860152610124850190610d4b565b9101516101048301520381887f00000000000000000000000000000000000000000000000000000000000000006001600160a01b03165af19687156108015785976114f5575b508694927f4b5d781b1f4414459813c44d669c7821fcdec72a83b67c0303229be68d03ad05949261012092604051926114a384610e1e565b88845260208401526001600160401b034216604084015285606084015285608084015260a08301528760c08301523060e0830152610100820152015280a39060015f5160206117265f395f51905f5255565b909493929196506020813d60201161152d575b8161151560209383610e70565b8101031261044f57519592939192909161012061146b565b3d9150611508565b6115429193505f90610e70565b5f915f6112ca565b805f9172184f03e93ff9f4daa797ed6e38ed64bf6a1f0160401b821015611694575b806d04ee2d6d415b85acef8100000000600a921015611679575b662386f26fc10000811015611665575b6305f5e100811015611654575b612710811015611645575b6064811015611637575b101561162c575b600a602160018401936115d185610eb9565b946115df6040519687610e70565b8086526115ee601f1991610eb9565b013660208701378401015b5f1901916f181899199a1a9b1b9c1cb0b131b232b360811b8282061a835304801561162757600a90916115f9565b505090565b6001909101906115bf565b6064600291049301926115b8565b612710600491049301926115ae565b6305f5e100600891049301926115a3565b662386f26fc1000060109104930192611596565b6d04ee2d6d415b85acef810000000060209104930192611586565b506040915072184f03e93ff9f4daa797ed6e38ed64bf6a1f0160401b810461156c565b7f00000000000000000000000000000000000000000000000000000000000000006001600160a01b031633036116e957565b634ca8886760e01b5f5260045ffd5b60e0013560018060a01b03811680910361082157301490565b51906001600160401b03821682036108215756fe9b779b17422d0df92223018b32b4d1fa46e071723d6817e2486d003becc55f00a264697066735822122005f5d735f73ff73e7ad89bd62f8e07d1e6b169bacdb64afc25bdab2ee3b40efb64736f6c634300081b0033",
    "linkReferences": {}
  },
  "methodIdentifiers": {
    "ATTESTATION_SCHEMA()": "5bf2f20d",
    "ATTESTATION_SCHEMA_REVOCABLE()": "b587a5eb",
    "attest((bytes32,bytes32,uint64,uint64,uint64,bytes32,address,address,bool,bytes))": "e60c3505",
    "check((bytes32,bytes32,uint64,uint64,uint64,bytes32,address,address,bool,bytes),bytes,bytes32)": "8da3721a",
    "decodeObligationData(bytes)": "c93844be",
    "doObligation((address,uint256,uint256,address),bytes32)": "18c7386d",
    "doObligationFor((address,uint256,uint256,address),address,bytes32)": "a40addb6",
    "doObligationRaw(bytes,uint64,bytes32)": "b3b902d4",
    "getObligationData(bytes32)": "c6ec5070",
    "getSchema()": "6b122fe0",
    "isPayable()": "ce46e046",
    "multiAttest((bytes32,bytes32,uint64,uint64,uint64,bytes32,address,address,bool,bytes)[],uint256[])": "91db0b7e",
    "multiRevoke((bytes32,bytes32,uint64,uint64,uint64,bytes32,address,address,bool,bytes)[],uint256[])": "88e5b2d9",
    "revoke((bytes32,bytes32,uint64,uint64,uint64,bytes32,address,address,bool,bytes))": "e49617e1",
    "supportsInterface(bytes4)": "01ffc9a7",
    "version()": "54fd4d50"
  },
  "id": 85
}