{
  "abi": [
    {
      "type": "constructor",
      "inputs": [
        {
          "name": "_eas",
          "type": "address",
          "internalType": "contract IEAS"
        },
        {
          "name": "_schemaRegistry",
          "type": "address",
          "internalType": "contract ISchemaRegistry"
        }
      ],
      "stateMutability": "nonpayable"
    },
    {
      "type": "receive",
      "stateMutability": "payable"
    },
    {
      "type": "function",
      "name": "ATTESTATION_SCHEMA",
      "inputs": [],
      "outputs": [
        {
          "name": "",
          "type": "bytes32",
          "internalType": "bytes32"
        }
      ],
      "stateMutability": "view"
    },
    {
      "type": "function",
      "name": "ATTESTATION_SCHEMA_REVOCABLE",
      "inputs": [],
      "outputs": [
        {
          "name": "",
          "type": "bool",
          "internalType": "bool"
        }
      ],
      "stateMutability": "view"
    },
    {
      "type": "function",
      "name": "attest",
      "inputs": [
        {
          "name": "attestation",
          "type": "tuple",
          "internalType": "struct Attestation",
          "components": [
            {
              "name": "uid",
              "type": "bytes32",
              "internalType": "bytes32"
            },
            {
              "name": "schema",
              "type": "bytes32",
              "internalType": "bytes32"
            },
            {
              "name": "time",
              "type": "uint64",
              "internalType": "uint64"
            },
            {
              "name": "expirationTime",
              "type": "uint64",
              "internalType": "uint64"
            },
            {
              "name": "revocationTime",
              "type": "uint64",
              "internalType": "uint64"
            },
            {
              "name": "refUID",
              "type": "bytes32",
              "internalType": "bytes32"
            },
            {
              "name": "recipient",
              "type": "address",
              "internalType": "address"
            },
            {
              "name": "attester",
              "type": "address",
              "internalType": "address"
            },
            {
              "name": "revocable",
              "type": "bool",
              "internalType": "bool"
            },
            {
              "name": "data",
              "type": "bytes",
              "internalType": "bytes"
            }
          ]
        }
      ],
      "outputs": [
        {
          "name": "",
          "type": "bool",
          "internalType": "bool"
        }
      ],
      "stateMutability": "payable"
    },
    {
      "type": "function",
      "name": "check",
      "inputs": [
        {
          "name": "fulfillment",
          "type": "tuple",
          "internalType": "struct Attestation",
          "components": [
            {
              "name": "uid",
              "type": "bytes32",
              "internalType": "bytes32"
            },
            {
              "name": "schema",
              "type": "bytes32",
              "internalType": "bytes32"
            },
            {
              "name": "time",
              "type": "uint64",
              "internalType": "uint64"
            },
            {
              "name": "expirationTime",
              "type": "uint64",
              "internalType": "uint64"
            },
            {
              "name": "revocationTime",
              "type": "uint64",
              "internalType": "uint64"
            },
            {
              "name": "refUID",
              "type": "bytes32",
              "internalType": "bytes32"
            },
            {
              "name": "recipient",
              "type": "address",
              "internalType": "address"
            },
            {
              "name": "attester",
              "type": "address",
              "internalType": "address"
            },
            {
              "name": "revocable",
              "type": "bool",
              "internalType": "bool"
            },
            {
              "name": "data",
              "type": "bytes",
              "internalType": "bytes"
            }
          ]
        },
        {
          "name": "demand",
          "type": "bytes",
          "internalType": "bytes"
        },
        {
          "name": "escrowUid",
          "type": "bytes32",
          "internalType": "bytes32"
        }
      ],
      "outputs": [
        {
          "name": "",
          "type": "bool",
          "internalType": "bool"
        }
      ],
      "stateMutability": "view"
    },
    {
      "type": "function",
      "name": "decodeObligationData",
      "inputs": [
        {
          "name": "data",
          "type": "bytes",
          "internalType": "bytes"
        }
      ],
      "outputs": [
        {
          "name": "",
          "type": "tuple",
          "internalType": "struct ERC1155PaymentObligation.ObligationData",
          "components": [
            {
              "name": "token",
              "type": "address",
              "internalType": "address"
            },
            {
              "name": "tokenId",
              "type": "uint256",
              "internalType": "uint256"
            },
            {
              "name": "amount",
              "type": "uint256",
              "internalType": "uint256"
            },
            {
              "name": "payee",
              "type": "address",
              "internalType": "address"
            }
          ]
        }
      ],
      "stateMutability": "pure"
    },
    {
      "type": "function",
      "name": "doObligation",
      "inputs": [
        {
          "name": "data",
          "type": "tuple",
          "internalType": "struct ERC1155PaymentObligation.ObligationData",
          "components": [
            {
              "name": "token",
              "type": "address",
              "internalType": "address"
            },
            {
              "name": "tokenId",
              "type": "uint256",
              "internalType": "uint256"
            },
            {
              "name": "amount",
              "type": "uint256",
              "internalType": "uint256"
            },
            {
              "name": "payee",
              "type": "address",
              "internalType": "address"
            }
          ]
        },
        {
          "name": "refUID",
          "type": "bytes32",
          "internalType": "bytes32"
        }
      ],
      "outputs": [
        {
          "name": "uid_",
          "type": "bytes32",
          "internalType": "bytes32"
        }
      ],
      "stateMutability": "nonpayable"
    },
    {
      "type": "function",
      "name": "doObligationFor",
      "inputs": [
        {
          "name": "data",
          "type": "tuple",
          "internalType": "struct ERC1155PaymentObligation.ObligationData",
          "components": [
            {
              "name": "token",
              "type": "address",
              "internalType": "address"
            },
            {
              "name": "tokenId",
              "type": "uint256",
              "internalType": "uint256"
            },
            {
              "name": "amount",
              "type": "uint256",
              "internalType": "uint256"
            },
            {
              "name": "payee",
              "type": "address",
              "internalType": "address"
            }
          ]
        },
        {
          "name": "recipient",
          "type": "address",
          "internalType": "address"
        },
        {
          "name": "refUID",
          "type": "bytes32",
          "internalType": "bytes32"
        }
      ],
      "outputs": [
        {
          "name": "uid_",
          "type": "bytes32",
          "internalType": "bytes32"
        }
      ],
      "stateMutability": "nonpayable"
    },
    {
      "type": "function",
      "name": "doObligationRaw",
      "inputs": [
        {
          "name": "data",
          "type": "bytes",
          "internalType": "bytes"
        },
        {
          "name": "expirationTime",
          "type": "uint64",
          "internalType": "uint64"
        },
        {
          "name": "refUID",
          "type": "bytes32",
          "internalType": "bytes32"
        }
      ],
      "outputs": [
        {
          "name": "uid_",
          "type": "bytes32",
          "internalType": "bytes32"
        }
      ],
      "stateMutability": "payable"
    },
    {
      "type": "function",
      "name": "getObligationData",
      "inputs": [
        {
          "name": "uid",
          "type": "bytes32",
          "internalType": "bytes32"
        }
      ],
      "outputs": [
        {
          "name": "",
          "type": "tuple",
          "internalType": "struct ERC1155PaymentObligation.ObligationData",
          "components": [
            {
              "name": "token",
              "type": "address",
              "internalType": "address"
            },
            {
              "name": "tokenId",
              "type": "uint256",
              "internalType": "uint256"
            },
            {
              "name": "amount",
              "type": "uint256",
              "internalType": "uint256"
            },
            {
              "name": "payee",
              "type": "address",
              "internalType": "address"
            }
          ]
        }
      ],
      "stateMutability": "view"
    },
    {
      "type": "function",
      "name": "getSchema",
      "inputs": [],
      "outputs": [
        {
          "name": "",
          "type": "tuple",
          "internalType": "struct SchemaRecord",
          "components": [
            {
              "name": "uid",
              "type": "bytes32",
              "internalType": "bytes32"
            },
            {
              "name": "resolver",
              "type": "address",
              "internalType": "contract ISchemaResolver"
            },
            {
              "name": "revocable",
              "type": "bool",
              "internalType": "bool"
            },
            {
              "name": "schema",
              "type": "string",
              "internalType": "string"
            }
          ]
        }
      ],
      "stateMutability": "view"
    },
    {
      "type": "function",
      "name": "isPayable",
      "inputs": [],
      "outputs": [
        {
          "name": "",
          "type": "bool",
          "internalType": "bool"
        }
      ],
      "stateMutability": "pure"
    },
    {
      "type": "function",
      "name": "multiAttest",
      "inputs": [
        {
          "name": "attestations",
          "type": "tuple[]",
          "internalType": "struct Attestation[]",
          "components": [
            {
              "name": "uid",
              "type": "bytes32",
              "internalType": "bytes32"
            },
            {
              "name": "schema",
              "type": "bytes32",
              "internalType": "bytes32"
            },
            {
              "name": "time",
              "type": "uint64",
              "internalType": "uint64"
            },
            {
              "name": "expirationTime",
              "type": "uint64",
              "internalType": "uint64"
            },
            {
              "name": "revocationTime",
              "type": "uint64",
              "internalType": "uint64"
            },
            {
              "name": "refUID",
              "type": "bytes32",
              "internalType": "bytes32"
            },
            {
              "name": "recipient",
              "type": "address",
              "internalType": "address"
            },
            {
              "name": "attester",
              "type": "address",
              "internalType": "address"
            },
            {
              "name": "revocable",
              "type": "bool",
              "internalType": "bool"
            },
            {
              "name": "data",
              "type": "bytes",
              "internalType": "bytes"
            }
          ]
        },
        {
          "name": "values",
          "type": "uint256[]",
          "internalType": "uint256[]"
        }
      ],
      "outputs": [
        {
          "name": "",
          "type": "bool",
          "internalType": "bool"
        }
      ],
      "stateMutability": "payable"
    },
    {
      "type": "function",
      "name": "multiRevoke",
      "inputs": [
        {
          "name": "attestations",
          "type": "tuple[]",
          "internalType": "struct Attestation[]",
          "components": [
            {
              "name": "uid",
              "type": "bytes32",
              "internalType": "bytes32"
            },
            {
              "name": "schema",
              "type": "bytes32",
              "internalType": "bytes32"
            },
            {
              "name": "time",
              "type": "uint64",
              "internalType": "uint64"
            },
            {
              "name": "expirationTime",
              "type": "uint64",
              "internalType": "uint64"
            },
            {
              "name": "revocationTime",
              "type": "uint64",
              "internalType": "uint64"
            },
            {
              "name": "refUID",
              "type": "bytes32",
              "internalType": "bytes32"
            },
            {
              "name": "recipient",
              "type": "address",
              "internalType": "address"
            },
            {
              "name": "attester",
              "type": "address",
              "internalType": "address"
            },
            {
              "name": "revocable",
              "type": "bool",
              "internalType": "bool"
            },
            {
              "name": "data",
              "type": "bytes",
              "internalType": "bytes"
            }
          ]
        },
        {
          "name": "values",
          "type": "uint256[]",
          "internalType": "uint256[]"
        }
      ],
      "outputs": [
        {
          "name": "",
          "type": "bool",
          "internalType": "bool"
        }
      ],
      "stateMutability": "payable"
    },
    {
      "type": "function",
      "name": "revoke",
      "inputs": [
        {
          "name": "attestation",
          "type": "tuple",
          "internalType": "struct Attestation",
          "components": [
            {
              "name": "uid",
              "type": "bytes32",
              "internalType": "bytes32"
            },
            {
              "name": "schema",
              "type": "bytes32",
              "internalType": "bytes32"
            },
            {
              "name": "time",
              "type": "uint64",
              "internalType": "uint64"
            },
            {
              "name": "expirationTime",
              "type": "uint64",
              "internalType": "uint64"
            },
            {
              "name": "revocationTime",
              "type": "uint64",
              "internalType": "uint64"
            },
            {
              "name": "refUID",
              "type": "bytes32",
              "internalType": "bytes32"
            },
            {
              "name": "recipient",
              "type": "address",
              "internalType": "address"
            },
            {
              "name": "attester",
              "type": "address",
              "internalType": "address"
            },
            {
              "name": "revocable",
              "type": "bool",
              "internalType": "bool"
            },
            {
              "name": "data",
              "type": "bytes",
              "internalType": "bytes"
            }
          ]
        }
      ],
      "outputs": [
        {
          "name": "",
          "type": "bool",
          "internalType": "bool"
        }
      ],
      "stateMutability": "payable"
    },
    {
      "type": "function",
      "name": "version",
      "inputs": [],
      "outputs": [
        {
          "name": "",
          "type": "string",
          "internalType": "string"
        }
      ],
      "stateMutability": "view"
    },
    {
      "type": "event",
      "name": "PaymentMade",
      "inputs": [
        {
          "name": "payment",
          "type": "bytes32",
          "indexed": true,
          "internalType": "bytes32"
        },
        {
          "name": "buyer",
          "type": "address",
          "indexed": true,
          "internalType": "address"
        }
      ],
      "anonymous": false
    },
    {
      "type": "error",
      "name": "AccessDenied",
      "inputs": []
    },
    {
      "type": "error",
      "name": "ERC1155TransferFailed",
      "inputs": [
        {
          "name": "token",
          "type": "address",
          "internalType": "address"
        },
        {
          "name": "from",
          "type": "address",
          "internalType": "address"
        },
        {
          "name": "to",
          "type": "address",
          "internalType": "address"
        },
        {
          "name": "tokenId",
          "type": "uint256",
          "internalType": "uint256"
        },
        {
          "name": "amount",
          "type": "uint256",
          "internalType": "uint256"
        }
      ]
    },
    {
      "type": "error",
      "name": "InsufficientValue",
      "inputs": []
    },
    {
      "type": "error",
      "name": "InvalidEAS",
      "inputs": []
    },
    {
      "type": "error",
      "name": "InvalidLength",
      "inputs": []
    },
    {
      "type": "error",
      "name": "NotFromThisAttester",
      "inputs": []
    },
    {
      "type": "error",
      "name": "NotPayable",
      "inputs": []
    },
    {
      "type": "error",
      "name": "ReentrancyGuardReentrantCall",
      "inputs": []
    },
    {
      "type": "error",
      "name": "SchemaRegistrationFailed",
      "inputs": [
        {
          "name": "uid",
          "type": "bytes32",
          "internalType": "bytes32"
        }
      ]
    }
  ],
  "bytecode": {
    "object": "0x61018080604052346101b657604081611bcc803803809161002082856101ba565b8339810103126101b6578051906001600160a01b038216908183036101b657602001516001600160a01b03811691908281036101b657604051916100656060846101ba565b603d83527f6164647265737320746f6b656e2c2075696e7432353620746f6b656e49642c2060208401527f75696e7432353620616d6f756e742c206164647265737320706179656500000060408401526001608052600360a0525f60c052156101a757836100e59460e052610120526101005260016101605230916102d5565b6101405260017f9b779b17422d0df92223018b32b4d1fa46e071723d6817e2486d003becc55f005560405161171b90816104b1823960805181610bc1015260a05181610bec015260c05181610c17015260e0518161165901526101005181610a38015261012051818181610275015281816106f901526113d30152610140518181816102ad015281816105ea01528181610a0601528181610b7f015281816110c001526112bc0152610160518181816104740152818161062201526112fc0152f35b6341bc07ff60e11b5f5260045ffd5b5f80fd5b601f909101601f19168101906001600160401b038211908210176101dd57604052565b634e487b7160e01b5f52604160045260245ffd5b6020818303126101b6578051906001600160401b0382116101b65701906080828203126101b65760405191608083016001600160401b038111848210176101dd576040528051835260208101516001600160a01b03811681036101b6576020840152604081015180151581036101b65760408401526060810151906001600160401b0382116101b6570181601f820112156101b6578051906001600160401b0382116101dd57604051926102af601f8401601f1916602001856101ba565b828452602083830101116101b657815f9260208093018386015e83010152606082015290565b9291604051906020820183519261031f6015602083818901978089885e810160018060601b03198860601b1683820152600160f81b60348201520301600a198101845201826101ba565b5190206040516351753e3760e11b81526004810182905290956001600160a01b031693905f81602481885afa80156104305787915f91610496575b505114610490579060846020926040519485938492630c1af44f60e31b8452606060048501525180928160648601528585015e5f84838501015260018060a01b0316602483015260016044830152601f801991011681010301815f865af15f918161045c575b5061043b57505f602491604051928380926351753e3760e11b82528760048301525afa80156104305783915f9161040e575b50511461040c5750639e6113d560e01b5f5260045260245ffd5b565b61042a91503d805f833e61042281836101ba565b8101906101f1565b5f6103f2565b6040513d5f823e3d90fd5b9192809150820361044a575090565b639e6113d560e01b5f5260045260245ffd5b9091506020813d602011610488575b81610478602093836101ba565b810103126101b65751905f6103c0565b3d915061046b565b50505050565b6104aa91503d805f833e61042281836101ba565b5f61035a56fe6080806040526004361015610029575b50361561001a575f80fd5b631574f9f360e01b5f5260045ffd5b5f5f3560e01c91826318c7386d14610ca45750816354fd4d5014610ba25781635bf2f20d14610b685781636b122fe0146109c757816388e5b2d91461088d5781638da3721a146108ac57816391db0b7e1461088d578163a40addb614610829578163b3b902d414610499578163b587a5eb1461045d578163c6ec5070146101f1578163c93844be1461011f578163ce46e0461461010157508063e49617e1146100dc5763e60c3505146100dc575f61000f565b60206100f76100ea36610ef5565b6100f2611657565b611698565b6040519015158152f35b3461011c578060031936011261011c57602090604051908152f35b80fd5b3461011c57602036600319011261011c576004356001600160401b0381116101ed576101516080913690600401610ec8565b9080929161015d611192565b50810103126101ed576101e991506101a260606040519261017d84610d8f565b61018681610e45565b8452602081013560208501526040810135604085015201610e45565b6060820152604051918291829190916060608082019360018060a01b03815116835260208101516020840152604081015160408401528160018060a01b0391015116910152565b0390f35b5080fd5b3461011c57602036600319011261011c5761020a611192565b50606061012060405161021c81610dbe565b83815283602082015283604082015283838201528360808201528360a08201528360c08201528360e0820152836101008201520152604051906328c44a9960e21b82526004356004830152808260248160018060a01b037f0000000000000000000000000000000000000000000000000000000000000000165afa91821561045057819261033d575b5060208201517f00000000000000000000000000000000000000000000000000000000000000000361032e576101e96102ec6101208401516020808251830101910161106d565b604051918291829190916060608082019360018060a01b03815116835260208101516020840152604081015160408401528160018060a01b0391015116910152565b635527981560e11b8152600490fd5b9091503d8083833e61034f8183610e10565b81019060208183031261044c578051906001600160401b0382116104445701906101408282031261044c576040519161038783610dbe565b80518352602081015160208401526103a1604082016116b1565b60408401526103b2606082016116b1565b60608401526103c3608082016116b1565b608084015260a081015160a08401526103de60c08201611059565b60c08401526103ef60e08201611059565b60e08401526104016101008201610f72565b610100840152610120810151906001600160401b03821161044857019080601f8301121561044457815161043792602001610f7f565b61012082015290826102a5565b8380fd5b8480fd5b8280fd5b50604051903d90823e3d90fd5b3461011c578060031936011261011c5760206040517f000000000000000000000000000000000000000000000000000000000000000015158152f35b6060366003190112610816576004356001600160401b038111610816576104c4903690600401610ec8565b6024356001600160401b038116939290849003610816576104ea90604435923691610e74565b60025f5160206116c65f395f51905f52541461081a5760025f5160206116c65f395f51905f5255610524602082518301016020830161106d565b60018060a01b0381511692606082019460018060a01b038651169360208401958651956040860196875192803b15610816575f928360c4926040519687958694637921219560e11b865233600487015260248601526044850152606484015260a060848401528160a48401525af19081610801575b506105e5575050905193519251915160405163334a7d1b60e21b81526001600160a01b039586166004820152336024820152949093166044850152506064830152608482015260a49150fd5b8793507f0000000000000000000000000000000000000000000000000000000000000000936040519361061785610dda565b3385528160208601527f00000000000000000000000000000000000000000000000000000000000000001515918260408701528160608701528360808701528460a0870152602060405161066a81610df5565b8881528181019788526040518098819263f17325e760e01b8352846004840152516024830152516040604483015260018060a01b0381511660648301526001600160401b03848201511660848301526040810151151560a4830152606081015160c483015260a06106eb608083015160c060e4860152610124850190610ceb565b9101516101048301520381887f00000000000000000000000000000000000000000000000000000000000000006001600160a01b03165af19586156107f65785966107c1575b509160209691610120936040519361074885610dbe565b888552898501526001600160401b0342166040850152606084015285608084015260a08301523360c08301523060e08301526101008201520152817f4b5d781b1f4414459813c44d669c7821fcdec72a83b67c0303229be68d03ad05339280a360015f5160206116c65f395f51905f5255604051908152f35b9095506020813d6020116107ee575b816107dd60209383610e10565b810103126104485751946020610731565b3d91506107d0565b6040513d87823e3d90fd5b61080e9193505f90610e10565b5f9189610599565b5f80fd5b633ee5aeb560e01b5f5260045ffd5b3461081657366003190160c0811261081657608013610816576084356001600160a01b0381168103610816576108856020916040519061087c8261086e868201610f29565b03601f198101845283610e10565b60a435916111b6565b604051908152f35b60206100f761089b36610d3f565b926108a7929192611657565b610fb5565b34610816576060366003190112610816576004356001600160401b03811161081657610140600319823603011261081657604051906108ea82610dbe565b806004013582526024810135602083015261090760448201610e31565b604083015261091860648201610e31565b606083015261092960848201610e31565b608083015260a481013560a083015261094460c48201610e45565b60c083015261095560e48201610e45565b60e0830152610104810135801515810361081657610100830152610124810135906001600160401b0382116108165760046109939236920101610eaa565b6101208201526024356001600160401b038111610816576020916109be6100f7923690600401610eaa565b604435916110b7565b34610816575f366003190112610816576060806040516109e681610d8f565b5f81525f60208201525f604082015201526040516351753e3760e11b81527f000000000000000000000000000000000000000000000000000000000000000060048201525f8160248160018060a01b037f0000000000000000000000000000000000000000000000000000000000000000165afa8015610b5d575f90610aad575b6060906101e9604051928392602084528051602085015260018060a01b0360208201511660408501526040810151151582850152015160808084015260a0830190610ceb565b503d805f833e610abd8183610e10565b810190602081830312610816578051906001600160401b03821161081657016080818303126108165760405190610af382610d8f565b8051825260208101516001600160a01b0381168103610816576020830152610b1d60408201610f72565b60408301526060810151906001600160401b038211610816570182601f8201121561081657606092816020610b5493519101610f7f565b82820152610a67565b6040513d5f823e3d90fd5b34610816575f3660031901126108165760206040517f00000000000000000000000000000000000000000000000000000000000000008152f35b34610816575f366003190112610816576101e96020610c906001610be57f00000000000000000000000000000000000000000000000000000000000000006114ea565b8184610c107f00000000000000000000000000000000000000000000000000000000000000006114ea565b8180610c3b7f00000000000000000000000000000000000000000000000000000000000000006114ea565b9260405199878b985191829101848a015e870190601760f91b83830152805192839101602183015e010190601760f91b84830152805192839101600283015e01015f838201520301601f198101835282610e10565b604051918291602083526020830190610ceb565b3461081657366003190160a08112610816576080136108165761088581610ce081610cd26020809601610f29565b03601f198101835282610e10565b6084359033906111b6565b805180835260209291819084018484015e5f828201840152601f01601f1916010190565b9181601f84011215610816578235916001600160401b038311610816576020808501948460051b01011161081657565b6040600319820112610816576004356001600160401b0381116108165781610d6991600401610d0f565b92909291602435906001600160401b03821161081657610d8b91600401610d0f565b9091565b608081019081106001600160401b03821117610daa57604052565b634e487b7160e01b5f52604160045260245ffd5b61014081019081106001600160401b03821117610daa57604052565b60c081019081106001600160401b03821117610daa57604052565b604081019081106001600160401b03821117610daa57604052565b90601f801991011681019081106001600160401b03821117610daa57604052565b35906001600160401b038216820361081657565b35906001600160a01b038216820361081657565b6001600160401b038111610daa57601f01601f191660200190565b929192610e8082610e59565b91610e8e6040519384610e10565b829481845281830111610816578281602093845f960137010152565b9080601f8301121561081657816020610ec593359101610e74565b90565b9181601f84011215610816578235916001600160401b038311610816576020838186019501011161081657565b602060031982011261081657600435906001600160401b038211610816576101409082900360031901126108165760040190565b6080810191906004356001600160a01b03811690819003610816578152602435602082015260443560408201526064356001600160a01b03811691908290036108165760600152565b5190811515820361081657565b929192610f8b82610e59565b91610f996040519384610e10565b829481845281830111610816578281602093845f96015e010152565b92909281840361104a575f91345b8584101561103f578184101561102b578360051b808601359082821161101c5784013561013e198536030181121561081657611000908501611698565b156110115760019103930192610fc3565b505050505050505f90565b63044044a560e21b5f5260045ffd5b634e487b7160e01b5f52603260045260245ffd5b505050505050600190565b63251f56a160e21b5f5260045ffd5b51906001600160a01b038216820361081657565b90816080910312610816576110af60606040519261108a84610d8f565b61109381611059565b8452602081015160208501526040810151604085015201611059565b606082015290565b909160208201517f00000000000000000000000000000000000000000000000000000000000000000361118b5760a082015103611185576111096101206111199201516020808251830101910161106d565b916020808251830101910161106d565b815181516001600160a01b039081169116149182611172575b8261115e575b8261114257505090565b6060908101519101516001600160a01b03908116911614919050565b915060408201516040820151111591611138565b9150602082015160208201511491611132565b50505f90565b5050505f90565b6040519061119f82610d8f565b5f6060838281528260208201528260408201520152565b5f5160206116c65f395f51905f52545f93929060021461081a5760025f5160206116c65f395f51905f52556111f4602083518401016020840161106d565b9060018060a01b0382511693606083019560018060a01b038751169460208501968751966040870197885192803b15610816575f928360c4926040519687958694637921219560e11b865233600487015260248601526044850152606484015260a060848401528160a48401525af190816114d5575b506112b257845188518851885160405163334a7d1b60e21b81526001600160a01b0394851660048201523360248201529390921660448401526064830152608482015260a490fd5b93509350935093507f0000000000000000000000000000000000000000000000000000000000000000604051946112e886610dda565b60018060a01b0316938486528360208701527f00000000000000000000000000000000000000000000000000000000000000001515908160408801528060608801528360808801528460a0880152602060405161134481610df5565b8481528181019889526040518099819263f17325e760e01b8352846004840152516024830152516040604483015260018060a01b0381511660648301526001600160401b03848201511660848301526040810151151560a4830152606081015160c483015260a06113c5608083015160c060e4860152610124850190610ceb565b9101516101048301520381887f00000000000000000000000000000000000000000000000000000000000000006001600160a01b03165af19687156107f6578597611495575b508694927f4b5d781b1f4414459813c44d669c7821fcdec72a83b67c0303229be68d03ad059492610120926040519261144384610dbe565b88845260208401526001600160401b034216604084015285606084015285608084015260a08301528760c08301523060e0830152610100820152015280a39060015f5160206116c65f395f51905f5255565b909493929196506020813d6020116114cd575b816114b560209383610e10565b8101031261044457519592939192909161012061140b565b3d91506114a8565b6114e29193505f90610e10565b5f915f61126a565b805f9172184f03e93ff9f4daa797ed6e38ed64bf6a1f0160401b821015611634575b806d04ee2d6d415b85acef8100000000600a921015611619575b662386f26fc10000811015611605575b6305f5e1008110156115f4575b6127108110156115e5575b60648110156115d7575b10156115cc575b600a6021600184019361157185610e59565b9461157f6040519687610e10565b80865261158e601f1991610e59565b013660208701378401015b5f1901916f181899199a1a9b1b9c1cb0b131b232b360811b8282061a83530480156115c757600a9091611599565b505090565b60019091019061155f565b606460029104930192611558565b6127106004910493019261154e565b6305f5e10060089104930192611543565b662386f26fc1000060109104930192611536565b6d04ee2d6d415b85acef810000000060209104930192611526565b506040915072184f03e93ff9f4daa797ed6e38ed64bf6a1f0160401b810461150c565b7f00000000000000000000000000000000000000000000000000000000000000006001600160a01b0316330361168957565b634ca8886760e01b5f5260045ffd5b60e0013560018060a01b03811680910361081657301490565b51906001600160401b03821682036108165756fe9b779b17422d0df92223018b32b4d1fa46e071723d6817e2486d003becc55f00a264697066735822122054469a916db671de0a9a341604f453d6784e56b07054171ae135da990b63346764736f6c634300081b0033",
    "linkReferences": {}
  },
  "methodIdentifiers": {
    "ATTESTATION_SCHEMA()": "5bf2f20d",
    "ATTESTATION_SCHEMA_REVOCABLE()": "b587a5eb",
    "attest((bytes32,bytes32,uint64,uint64,uint64,bytes32,address,address,bool,bytes))": "e60c3505",
    "check((bytes32,bytes32,uint64,uint64,uint64,bytes32,address,address,bool,bytes),bytes,bytes32)": "8da3721a",
    "decodeObligationData(bytes)": "c93844be",
    "doObligation((address,uint256,uint256,address),bytes32)": "18c7386d",
    "doObligationFor((address,uint256,uint256,address),address,bytes32)": "a40addb6",
    "doObligationRaw(bytes,uint64,bytes32)": "b3b902d4",
    "getObligationData(bytes32)": "c6ec5070",
    "getSchema()": "6b122fe0",
    "isPayable()": "ce46e046",
    "multiAttest((bytes32,bytes32,uint64,uint64,uint64,bytes32,address,address,bool,bytes)[],uint256[])": "91db0b7e",
    "multiRevoke((bytes32,bytes32,uint64,uint64,uint64,bytes32,address,address,bool,bytes)[],uint256[])": "88e5b2d9",
    "revoke((bytes32,bytes32,uint64,uint64,uint64,bytes32,address,address,bool,bytes))": "e49617e1",
    "version()": "54fd4d50"
  },
  "id": 146
}