{
  "abi": [
    {
      "type": "constructor",
      "inputs": [
        {
          "name": "_eas",
          "type": "address",
          "internalType": "contract IEAS"
        },
        {
          "name": "_schemaRegistry",
          "type": "address",
          "internalType": "contract ISchemaRegistry"
        }
      ],
      "stateMutability": "nonpayable"
    },
    {
      "type": "receive",
      "stateMutability": "payable"
    },
    {
      "type": "function",
      "name": "ATTESTATION_SCHEMA",
      "inputs": [],
      "outputs": [
        {
          "name": "",
          "type": "bytes32",
          "internalType": "bytes32"
        }
      ],
      "stateMutability": "view"
    },
    {
      "type": "function",
      "name": "ATTESTATION_SCHEMA_REVOCABLE",
      "inputs": [],
      "outputs": [
        {
          "name": "",
          "type": "bool",
          "internalType": "bool"
        }
      ],
      "stateMutability": "view"
    },
    {
      "type": "function",
      "name": "attest",
      "inputs": [
        {
          "name": "attestation",
          "type": "tuple",
          "internalType": "struct Attestation",
          "components": [
            {
              "name": "uid",
              "type": "bytes32",
              "internalType": "bytes32"
            },
            {
              "name": "schema",
              "type": "bytes32",
              "internalType": "bytes32"
            },
            {
              "name": "time",
              "type": "uint64",
              "internalType": "uint64"
            },
            {
              "name": "expirationTime",
              "type": "uint64",
              "internalType": "uint64"
            },
            {
              "name": "revocationTime",
              "type": "uint64",
              "internalType": "uint64"
            },
            {
              "name": "refUID",
              "type": "bytes32",
              "internalType": "bytes32"
            },
            {
              "name": "recipient",
              "type": "address",
              "internalType": "address"
            },
            {
              "name": "attester",
              "type": "address",
              "internalType": "address"
            },
            {
              "name": "revocable",
              "type": "bool",
              "internalType": "bool"
            },
            {
              "name": "data",
              "type": "bytes",
              "internalType": "bytes"
            }
          ]
        }
      ],
      "outputs": [
        {
          "name": "",
          "type": "bool",
          "internalType": "bool"
        }
      ],
      "stateMutability": "payable"
    },
    {
      "type": "function",
      "name": "check",
      "inputs": [
        {
          "name": "fulfillment",
          "type": "tuple",
          "internalType": "struct Attestation",
          "components": [
            {
              "name": "uid",
              "type": "bytes32",
              "internalType": "bytes32"
            },
            {
              "name": "schema",
              "type": "bytes32",
              "internalType": "bytes32"
            },
            {
              "name": "time",
              "type": "uint64",
              "internalType": "uint64"
            },
            {
              "name": "expirationTime",
              "type": "uint64",
              "internalType": "uint64"
            },
            {
              "name": "revocationTime",
              "type": "uint64",
              "internalType": "uint64"
            },
            {
              "name": "refUID",
              "type": "bytes32",
              "internalType": "bytes32"
            },
            {
              "name": "recipient",
              "type": "address",
              "internalType": "address"
            },
            {
              "name": "attester",
              "type": "address",
              "internalType": "address"
            },
            {
              "name": "revocable",
              "type": "bool",
              "internalType": "bool"
            },
            {
              "name": "data",
              "type": "bytes",
              "internalType": "bytes"
            }
          ]
        },
        {
          "name": "demand",
          "type": "bytes",
          "internalType": "bytes"
        },
        {
          "name": "escrowUid",
          "type": "bytes32",
          "internalType": "bytes32"
        }
      ],
      "outputs": [
        {
          "name": "",
          "type": "bool",
          "internalType": "bool"
        }
      ],
      "stateMutability": "view"
    },
    {
      "type": "function",
      "name": "decodeObligationData",
      "inputs": [
        {
          "name": "data",
          "type": "bytes",
          "internalType": "bytes"
        }
      ],
      "outputs": [
        {
          "name": "",
          "type": "tuple",
          "internalType": "struct ERC20PaymentObligation.ObligationData",
          "components": [
            {
              "name": "token",
              "type": "address",
              "internalType": "address"
            },
            {
              "name": "amount",
              "type": "uint256",
              "internalType": "uint256"
            },
            {
              "name": "payee",
              "type": "address",
              "internalType": "address"
            }
          ]
        }
      ],
      "stateMutability": "pure"
    },
    {
      "type": "function",
      "name": "doObligation",
      "inputs": [
        {
          "name": "data",
          "type": "tuple",
          "internalType": "struct ERC20PaymentObligation.ObligationData",
          "components": [
            {
              "name": "token",
              "type": "address",
              "internalType": "address"
            },
            {
              "name": "amount",
              "type": "uint256",
              "internalType": "uint256"
            },
            {
              "name": "payee",
              "type": "address",
              "internalType": "address"
            }
          ]
        },
        {
          "name": "refUID",
          "type": "bytes32",
          "internalType": "bytes32"
        }
      ],
      "outputs": [
        {
          "name": "uid_",
          "type": "bytes32",
          "internalType": "bytes32"
        }
      ],
      "stateMutability": "nonpayable"
    },
    {
      "type": "function",
      "name": "doObligationFor",
      "inputs": [
        {
          "name": "data",
          "type": "tuple",
          "internalType": "struct ERC20PaymentObligation.ObligationData",
          "components": [
            {
              "name": "token",
              "type": "address",
              "internalType": "address"
            },
            {
              "name": "amount",
              "type": "uint256",
              "internalType": "uint256"
            },
            {
              "name": "payee",
              "type": "address",
              "internalType": "address"
            }
          ]
        },
        {
          "name": "recipient",
          "type": "address",
          "internalType": "address"
        },
        {
          "name": "refUID",
          "type": "bytes32",
          "internalType": "bytes32"
        }
      ],
      "outputs": [
        {
          "name": "uid_",
          "type": "bytes32",
          "internalType": "bytes32"
        }
      ],
      "stateMutability": "nonpayable"
    },
    {
      "type": "function",
      "name": "doObligationRaw",
      "inputs": [
        {
          "name": "data",
          "type": "bytes",
          "internalType": "bytes"
        },
        {
          "name": "expirationTime",
          "type": "uint64",
          "internalType": "uint64"
        },
        {
          "name": "refUID",
          "type": "bytes32",
          "internalType": "bytes32"
        }
      ],
      "outputs": [
        {
          "name": "uid_",
          "type": "bytes32",
          "internalType": "bytes32"
        }
      ],
      "stateMutability": "payable"
    },
    {
      "type": "function",
      "name": "getObligationData",
      "inputs": [
        {
          "name": "uid",
          "type": "bytes32",
          "internalType": "bytes32"
        }
      ],
      "outputs": [
        {
          "name": "",
          "type": "tuple",
          "internalType": "struct ERC20PaymentObligation.ObligationData",
          "components": [
            {
              "name": "token",
              "type": "address",
              "internalType": "address"
            },
            {
              "name": "amount",
              "type": "uint256",
              "internalType": "uint256"
            },
            {
              "name": "payee",
              "type": "address",
              "internalType": "address"
            }
          ]
        }
      ],
      "stateMutability": "view"
    },
    {
      "type": "function",
      "name": "getSchema",
      "inputs": [],
      "outputs": [
        {
          "name": "",
          "type": "tuple",
          "internalType": "struct SchemaRecord",
          "components": [
            {
              "name": "uid",
              "type": "bytes32",
              "internalType": "bytes32"
            },
            {
              "name": "resolver",
              "type": "address",
              "internalType": "contract ISchemaResolver"
            },
            {
              "name": "revocable",
              "type": "bool",
              "internalType": "bool"
            },
            {
              "name": "schema",
              "type": "string",
              "internalType": "string"
            }
          ]
        }
      ],
      "stateMutability": "view"
    },
    {
      "type": "function",
      "name": "isPayable",
      "inputs": [],
      "outputs": [
        {
          "name": "",
          "type": "bool",
          "internalType": "bool"
        }
      ],
      "stateMutability": "pure"
    },
    {
      "type": "function",
      "name": "multiAttest",
      "inputs": [
        {
          "name": "attestations",
          "type": "tuple[]",
          "internalType": "struct Attestation[]",
          "components": [
            {
              "name": "uid",
              "type": "bytes32",
              "internalType": "bytes32"
            },
            {
              "name": "schema",
              "type": "bytes32",
              "internalType": "bytes32"
            },
            {
              "name": "time",
              "type": "uint64",
              "internalType": "uint64"
            },
            {
              "name": "expirationTime",
              "type": "uint64",
              "internalType": "uint64"
            },
            {
              "name": "revocationTime",
              "type": "uint64",
              "internalType": "uint64"
            },
            {
              "name": "refUID",
              "type": "bytes32",
              "internalType": "bytes32"
            },
            {
              "name": "recipient",
              "type": "address",
              "internalType": "address"
            },
            {
              "name": "attester",
              "type": "address",
              "internalType": "address"
            },
            {
              "name": "revocable",
              "type": "bool",
              "internalType": "bool"
            },
            {
              "name": "data",
              "type": "bytes",
              "internalType": "bytes"
            }
          ]
        },
        {
          "name": "values",
          "type": "uint256[]",
          "internalType": "uint256[]"
        }
      ],
      "outputs": [
        {
          "name": "",
          "type": "bool",
          "internalType": "bool"
        }
      ],
      "stateMutability": "payable"
    },
    {
      "type": "function",
      "name": "multiRevoke",
      "inputs": [
        {
          "name": "attestations",
          "type": "tuple[]",
          "internalType": "struct Attestation[]",
          "components": [
            {
              "name": "uid",
              "type": "bytes32",
              "internalType": "bytes32"
            },
            {
              "name": "schema",
              "type": "bytes32",
              "internalType": "bytes32"
            },
            {
              "name": "time",
              "type": "uint64",
              "internalType": "uint64"
            },
            {
              "name": "expirationTime",
              "type": "uint64",
              "internalType": "uint64"
            },
            {
              "name": "revocationTime",
              "type": "uint64",
              "internalType": "uint64"
            },
            {
              "name": "refUID",
              "type": "bytes32",
              "internalType": "bytes32"
            },
            {
              "name": "recipient",
              "type": "address",
              "internalType": "address"
            },
            {
              "name": "attester",
              "type": "address",
              "internalType": "address"
            },
            {
              "name": "revocable",
              "type": "bool",
              "internalType": "bool"
            },
            {
              "name": "data",
              "type": "bytes",
              "internalType": "bytes"
            }
          ]
        },
        {
          "name": "values",
          "type": "uint256[]",
          "internalType": "uint256[]"
        }
      ],
      "outputs": [
        {
          "name": "",
          "type": "bool",
          "internalType": "bool"
        }
      ],
      "stateMutability": "payable"
    },
    {
      "type": "function",
      "name": "revoke",
      "inputs": [
        {
          "name": "attestation",
          "type": "tuple",
          "internalType": "struct Attestation",
          "components": [
            {
              "name": "uid",
              "type": "bytes32",
              "internalType": "bytes32"
            },
            {
              "name": "schema",
              "type": "bytes32",
              "internalType": "bytes32"
            },
            {
              "name": "time",
              "type": "uint64",
              "internalType": "uint64"
            },
            {
              "name": "expirationTime",
              "type": "uint64",
              "internalType": "uint64"
            },
            {
              "name": "revocationTime",
              "type": "uint64",
              "internalType": "uint64"
            },
            {
              "name": "refUID",
              "type": "bytes32",
              "internalType": "bytes32"
            },
            {
              "name": "recipient",
              "type": "address",
              "internalType": "address"
            },
            {
              "name": "attester",
              "type": "address",
              "internalType": "address"
            },
            {
              "name": "revocable",
              "type": "bool",
              "internalType": "bool"
            },
            {
              "name": "data",
              "type": "bytes",
              "internalType": "bytes"
            }
          ]
        }
      ],
      "outputs": [
        {
          "name": "",
          "type": "bool",
          "internalType": "bool"
        }
      ],
      "stateMutability": "payable"
    },
    {
      "type": "function",
      "name": "version",
      "inputs": [],
      "outputs": [
        {
          "name": "",
          "type": "string",
          "internalType": "string"
        }
      ],
      "stateMutability": "view"
    },
    {
      "type": "event",
      "name": "PaymentMade",
      "inputs": [
        {
          "name": "payment",
          "type": "bytes32",
          "indexed": true,
          "internalType": "bytes32"
        },
        {
          "name": "buyer",
          "type": "address",
          "indexed": true,
          "internalType": "address"
        }
      ],
      "anonymous": false
    },
    {
      "type": "error",
      "name": "AccessDenied",
      "inputs": []
    },
    {
      "type": "error",
      "name": "ERC20TransferFailed",
      "inputs": [
        {
          "name": "token",
          "type": "address",
          "internalType": "address"
        },
        {
          "name": "from",
          "type": "address",
          "internalType": "address"
        },
        {
          "name": "to",
          "type": "address",
          "internalType": "address"
        },
        {
          "name": "amount",
          "type": "uint256",
          "internalType": "uint256"
        }
      ]
    },
    {
      "type": "error",
      "name": "InsufficientValue",
      "inputs": []
    },
    {
      "type": "error",
      "name": "InvalidEAS",
      "inputs": []
    },
    {
      "type": "error",
      "name": "InvalidLength",
      "inputs": []
    },
    {
      "type": "error",
      "name": "NotFromThisAttester",
      "inputs": []
    },
    {
      "type": "error",
      "name": "NotPayable",
      "inputs": []
    },
    {
      "type": "error",
      "name": "ReentrancyGuardReentrantCall",
      "inputs": []
    },
    {
      "type": "error",
      "name": "SchemaRegistrationFailed",
      "inputs": [
        {
          "name": "uid",
          "type": "bytes32",
          "internalType": "bytes32"
        }
      ]
    }
  ],
  "bytecode": {
    "object": "0x61018080604052346101a557604081611cd0803803809161002082856101a9565b8339810103126101a5578051906001600160a01b038216908183036101a557602001516001600160a01b03811691908281036101a557604051916100656060846101a9565b602c83527f6164647265737320746f6b656e2c2075696e7432353620616d6f756e742c206160208401526b64647265737320706179656560a01b60408401526001608052600360a0525f60c0521561019657836100d49460e052610120526101005260016101605230916102c4565b6101405260017f9b779b17422d0df92223018b32b4d1fa46e071723d6817e2486d003becc55f005560405161183090816104a0823960805181610bf5015260a05181610c20015260c05181610c4b015260e0518161176e01526101005181610a77015261012051818181610257015281816106df015261147701526101405181818161028f015281816105d101528181610a4501528181610bb30152818161116001526113600152610160518181816104360152818161060801526113a00152f35b6341bc07ff60e11b5f5260045ffd5b5f80fd5b601f909101601f19168101906001600160401b038211908210176101cc57604052565b634e487b7160e01b5f52604160045260245ffd5b6020818303126101a5578051906001600160401b0382116101a55701906080828203126101a55760405191608083016001600160401b038111848210176101cc576040528051835260208101516001600160a01b03811681036101a5576020840152604081015180151581036101a55760408401526060810151906001600160401b0382116101a5570181601f820112156101a5578051906001600160401b0382116101cc576040519261029e601f8401601f1916602001856101a9565b828452602083830101116101a557815f9260208093018386015e83010152606082015290565b9291604051906020820183519261030e6015602083818901978089885e810160018060601b03198860601b1683820152600160f81b60348201520301600a198101845201826101a9565b5190206040516351753e3760e11b81526004810182905290956001600160a01b031693905f81602481885afa801561041f5787915f91610485575b50511461047f579060846020926040519485938492630c1af44f60e31b8452606060048501525180928160648601528585015e5f84838501015260018060a01b0316602483015260016044830152601f801991011681010301815f865af15f918161044b575b5061042a57505f602491604051928380926351753e3760e11b82528760048301525afa801561041f5783915f916103fd575b5051146103fb5750639e6113d560e01b5f5260045260245ffd5b565b61041991503d805f833e61041181836101a9565b8101906101e0565b5f6103e1565b6040513d5f823e3d90fd5b91928091508203610439575090565b639e6113d560e01b5f5260045260245ffd5b9091506020813d602011610477575b81610467602093836101a9565b810103126101a55751905f6103af565b3d915061045a565b50505050565b61049991503d805f833e61041181836101a9565b5f61034956fe6080806040526004361015610029575b50361561001a575f80fd5b631574f9f360e01b5f5260045ffd5b5f3560e01c9081632ba012a514610d3c575080634234757414610cd857806354fd4d5014610bd65780635bf2f20d14610b9c5780636b122fe014610a0657806388e5b2d9146108cc5780638da3721a146108eb57806391db0b7e146108cc578063b3b902d41461045b578063b587a5eb1461041f578063c6ec5070146101d4578063c93844be1461011d578063ce46e046146100ff578063e49617e1146100da5763e60c3505146100da575f61000f565b60206100f56100e836610fa8565b6100f061176c565b6117ad565b6040519015158152f35b34610119575f3660031901126101195760206040515f8152f35b5f80fd5b34610119576020366003190112610119576004356001600160401b0381116101195761014f6060913690600401610f7b565b9080929161015b611219565b5081010312610119576101d090610194604080519261017984610e86565b61018281610d83565b84526020810135602085015201610d83565b6040828101918252805183516001600160a01b039081168252602094850151948201949094529151909216918101919091529081906060820190565b0390f35b34610119576020366003190112610119576101ed611219565b5060606101206040516101ff81610e6a565b5f81525f60208201525f60408201525f838201525f60808201525f60a08201525f60c08201525f60e08201525f61010082015201526040516328c44a9960e21b815260043560048201525f8160248160018060a01b037f0000000000000000000000000000000000000000000000000000000000000000165afa908115610414575f9161030f575b5060208101517f000000000000000000000000000000000000000000000000000000000000000003610300576102ce6101206101d092015160208082518301019101611118565b6040805182516001600160a01b0390811682526020808501519083015292820151909216908201529081906060820190565b635527981560e11b5f5260045ffd5b90503d805f833e6103208183610ed7565b810190602081830312610119578051906001600160401b03821161011957019061014082820312610119576040519161035883610e6a565b8051835260208101516020840152610372604082016117c6565b6040840152610383606082016117c6565b6060840152610394608082016117c6565b608084015260a081015160a08401526103af60c08201611104565b60c08401526103c060e08201611104565b60e08401526103d2610100820161101d565b610100840152610120810151906001600160401b03821161011957019080601f830112156101195781516104089260200161102a565b61012082015281610287565b6040513d5f823e3d90fd5b34610119575f3660031901126101195760206040517f000000000000000000000000000000000000000000000000000000000000000015158152f35b6060366003190112610119576004356001600160401b03811161011957610486903690600401610f7b565b90602435906001600160401b038216809203610119576104ab90604435933691610f27565b60025f5160206117db5f395f51905f5254146108bd5760025f5160206117db5f395f51905f52556104e56020825183010160208301611118565b80516040808301805191516370a0823160e01b81526001600160a01b03928316600482015290939092909160209184916024918391165afa918215610414575f92610889575b5060018060a01b038151169160018060a01b038451169060208301938451604051936323b872dd60e01b5f523360045260245260445260205f60648180855af19060015f511482161561087c575b5060408390525f606052835186516370a0823160e01b85526001600160a01b03908116600486015260209185916024918391165afa928315610414575f93610848575b501591821561081e575b50506107e2575050507f0000000000000000000000000000000000000000000000000000000000000000604051926105fd84610ea1565b3384528060208501527f00000000000000000000000000000000000000000000000000000000000000001515908160408601528560608601528360808601525f60a0860152602060405161065081610ebc565b8481528181019687526040518097819263f17325e760e01b8352846004840152516024830152516040604483015260018060a01b0381511660648301526001600160401b03848201511660848301526040810151151560a4830152606081015160c483015260a06106d1608083015160c060e4860152610124850190610d97565b91015161010483015203815f7f00000000000000000000000000000000000000000000000000000000000000006001600160a01b03165af1948515610414575f956107a7575b509060209561012093926040519361072e85610e6a565b878552888501526001600160401b034216604085015260608401525f608084015260a08301523360c08301523060e0830152610100820152015233817f4b5d781b1f4414459813c44d669c7821fcdec72a83b67c0303229be68d03ad055f80a360015f5160206117db5f395f51905f5255604051908152f35b92919094506020833d6020116107da575b816107c560209383610ed7565b81010312610119579151939091906020610717565b3d91506107b8565b5191519051604051634a73404560e11b81526001600160a01b039384166004820152336024820152929091166044830152606482015260849150fd5b90915083518201809211610834571087806105c6565b634e487b7160e01b5f52601160045260245ffd5b9092506020813d602011610874575b8161086460209383610ed7565b81010312610119575191896105bc565b3d9150610857565b3b15153d15161689610579565b9091506020813d6020116108b5575b816108a560209383610ed7565b810103126101195751908661052b565b3d9150610898565b633ee5aeb560e01b5f5260045ffd5b60206100f56108da36610deb565b926108e692919261176c565b611060565b34610119576060366003190112610119576004356001600160401b038111610119576101406003198236030112610119576040519061092982610e6a565b806004013582526024810135602083015261094660448201610ef8565b604083015261095760648201610ef8565b606083015261096860848201610ef8565b608083015260a481013560a083015261098360c48201610d83565b60c083015261099460e48201610d83565b60e0830152610104810135801515810361011957610100830152610124810135906001600160401b0382116101195760046109d29236920101610f5d565b6101208201526024356001600160401b038111610119576020916109fd6100f5923690600401610f5d565b60443591611157565b34610119575f36600319011261011957606080604051610a2581610e3b565b5f81525f60208201525f604082015201526040516351753e3760e11b81527f000000000000000000000000000000000000000000000000000000000000000060048201525f8160248160018060a01b037f0000000000000000000000000000000000000000000000000000000000000000165afa8015610414575f90610aec575b6060906101d0604051928392602084528051602085015260018060a01b0360208201511660408501526040810151151582850152015160808084015260a0830190610d97565b503d805f833e610afc8183610ed7565b810190602081830312610119578051906001600160401b03821161011957016080818303126101195760405190610b3282610e3b565b8051825260208101516001600160a01b0381168103610119576020830152610b5c6040820161101d565b60408301526060810151906001600160401b038211610119570182601f8201121561011957606092816020610b939351910161102a565b82820152610aa6565b34610119575f3660031901126101195760206040517f00000000000000000000000000000000000000000000000000000000000000008152f35b34610119575f366003190112610119576101d06020610cc46001610c197f00000000000000000000000000000000000000000000000000000000000000006115ff565b8184610c447f00000000000000000000000000000000000000000000000000000000000000006115ff565b8180610c6f7f00000000000000000000000000000000000000000000000000000000000000006115ff565b9260405199878b985191829101848a015e870190601760f91b83830152805192839101602183015e010190601760f91b84830152805192839101600283015e01015f838201520301601f198101835282610ed7565b604051918291602083526020830190610d97565b3461011957366003190160a0811261011957606013610119576064356001600160a01b038116810361011957610d3460209160405190610d2b82610d1d868201610fdc565b03601f198101845283610ed7565b60843591611237565b604051908152f35b34610119573660031901608081126101195760601361011957610d3481610d7881610d6a6020809601610fdc565b03601f198101835282610ed7565b606435903390611237565b35906001600160a01b038216820361011957565b805180835260209291819084018484015e5f828201840152601f01601f1916010190565b9181601f84011215610119578235916001600160401b038311610119576020808501948460051b01011161011957565b6040600319820112610119576004356001600160401b0381116101195781610e1591600401610dbb565b92909291602435906001600160401b03821161011957610e3791600401610dbb565b9091565b608081019081106001600160401b03821117610e5657604052565b634e487b7160e01b5f52604160045260245ffd5b61014081019081106001600160401b03821117610e5657604052565b606081019081106001600160401b03821117610e5657604052565b60c081019081106001600160401b03821117610e5657604052565b604081019081106001600160401b03821117610e5657604052565b90601f801991011681019081106001600160401b03821117610e5657604052565b35906001600160401b038216820361011957565b6001600160401b038111610e5657601f01601f191660200190565b929192610f3382610f0c565b91610f416040519384610ed7565b829481845281830111610119578281602093845f960137010152565b9080601f8301121561011957816020610f7893359101610f27565b90565b9181601f84011215610119578235916001600160401b038311610119576020838186019501011161011957565b602060031982011261011957600435906001600160401b038211610119576101409082900360031901126101195760040190565b6060810191906004356001600160a01b0381169081900361011957815260243560208201526044356001600160a01b03811691908290036101195760400152565b5190811515820361011957565b92919261103682610f0c565b916110446040519384610ed7565b829481845281830111610119578281602093845f96015e010152565b9290928184036110f5575f91345b858410156110ea57818410156110d6578360051b80860135908282116110c75784013561013e1985360301811215610119576110ab9085016117ad565b156110bc576001910393019261106e565b505050505050505f90565b63044044a560e21b5f5260045ffd5b634e487b7160e01b5f52603260045260245ffd5b505050505050600190565b63251f56a160e21b5f5260045ffd5b51906001600160a01b038216820361011957565b908160609103126101195761114f604080519261113484610e86565b61113d81611104565b84526020810151602085015201611104565b604082015290565b909160208201517f0000000000000000000000000000000000000000000000000000000000000000036112125760a08201510361120c576111a96101206111b992015160208082518301019101611118565b9160208082518301019101611118565b815181516001600160a01b0390811691161491826111f8575b826111dc57505090565b6040908101519101516001600160a01b03908116911614919050565b9150602082015160208201511115916111d2565b50505f90565b5050505f90565b6040519061122682610e86565b5f6040838281528260208201520152565b91909160025f5160206117db5f395f51905f5254146108bd5760025f5160206117db5f395f51905f52556112746020825183010160208301611118565b80516040808301805191516370a0823160e01b81526001600160a01b03928316600482015290939092909160209184916024918391165afa918215610414575f926115cb575b5060018060a01b038151169160018060a01b038451169060208301938451604051936323b872dd60e01b5f523360045260245260445260205f60648180855af19060015f51148216156115be575b5060408390525f606052835186516370a0823160e01b85526001600160a01b03908116600486015260209185916024918391165afa928315610414575f9361158a575b5015918215611574575b50506107e2575050507f00000000000000000000000000000000000000000000000000000000000000006040519361138c85610ea1565b60018060a01b0316928385525f60208601527f00000000000000000000000000000000000000000000000000000000000000001515908160408701528060608701528360808701525f60a087015260206040516113e881610ebc565b8481528181019788526040518098819263f17325e760e01b8352846004840152516024830152516040604483015260018060a01b0381511660648301526001600160401b03848201511660848301526040810151151560a4830152606081015160c483015260a0611469608083015160c060e4860152610124850190610d97565b91015161010483015203815f7f00000000000000000000000000000000000000000000000000000000000000006001600160a01b03165af1958615610414575f96611538575b50906101209291604051926114c384610e6a565b87845260208401526001600160401b03421660408401525f60608401525f608084015260a08301528460c08301523060e08301526101008201520152817f4b5d781b1f4414459813c44d669c7821fcdec72a83b67c0303229be68d03ad055f80a39060015f5160206117db5f395f51905f5255565b92919095506020833d60201161156c575b8161155660209383610ed7565b81010312610119576101209251959091926114af565b3d9150611549565b9091508351820180921161083457105f80611355565b9092506020813d6020116115b6575b816115a660209383610ed7565b810103126101195751915f61134b565b3d9150611599565b3b15153d1516165f611308565b9091506020813d6020116115f7575b816115e760209383610ed7565b810103126101195751905f6112ba565b3d91506115da565b805f9172184f03e93ff9f4daa797ed6e38ed64bf6a1f0160401b821015611749575b806d04ee2d6d415b85acef8100000000600a92101561172e575b662386f26fc1000081101561171a575b6305f5e100811015611709575b6127108110156116fa575b60648110156116ec575b10156116e1575b600a6021600184019361168685610f0c565b946116946040519687610ed7565b8086526116a3601f1991610f0c565b013660208701378401015b5f1901916f181899199a1a9b1b9c1cb0b131b232b360811b8282061a83530480156116dc57600a90916116ae565b505090565b600190910190611674565b60646002910493019261166d565b61271060049104930192611663565b6305f5e10060089104930192611658565b662386f26fc100006010910493019261164b565b6d04ee2d6d415b85acef81000000006020910493019261163b565b506040915072184f03e93ff9f4daa797ed6e38ed64bf6a1f0160401b8104611621565b7f00000000000000000000000000000000000000000000000000000000000000006001600160a01b0316330361179e57565b634ca8886760e01b5f5260045ffd5b60e0013560018060a01b03811680910361011957301490565b51906001600160401b03821682036101195756fe9b779b17422d0df92223018b32b4d1fa46e071723d6817e2486d003becc55f00a2646970667358221220909107c5c720f107cef6e348440a7a5840d98de6380e7158e957bd9b668cc9a164736f6c634300081b0033",
    "linkReferences": {}
  },
  "methodIdentifiers": {
    "ATTESTATION_SCHEMA()": "5bf2f20d",
    "ATTESTATION_SCHEMA_REVOCABLE()": "b587a5eb",
    "attest((bytes32,bytes32,uint64,uint64,uint64,bytes32,address,address,bool,bytes))": "e60c3505",
    "check((bytes32,bytes32,uint64,uint64,uint64,bytes32,address,address,bool,bytes),bytes,bytes32)": "8da3721a",
    "decodeObligationData(bytes)": "c93844be",
    "doObligation((address,uint256,address),bytes32)": "2ba012a5",
    "doObligationFor((address,uint256,address),address,bytes32)": "42347574",
    "doObligationRaw(bytes,uint64,bytes32)": "b3b902d4",
    "getObligationData(bytes32)": "c6ec5070",
    "getSchema()": "6b122fe0",
    "isPayable()": "ce46e046",
    "multiAttest((bytes32,bytes32,uint64,uint64,uint64,bytes32,address,address,bool,bytes)[],uint256[])": "91db0b7e",
    "multiRevoke((bytes32,bytes32,uint64,uint64,uint64,bytes32,address,address,bool,bytes)[],uint256[])": "88e5b2d9",
    "revoke((bytes32,bytes32,uint64,uint64,uint64,bytes32,address,address,bool,bytes))": "e49617e1",
    "version()": "54fd4d50"
  },
  "id": 147
}