{
  "abi": [
    {
      "type": "constructor",
      "inputs": [
        {
          "name": "_eas",
          "type": "address",
          "internalType": "contract IEAS"
        },
        {
          "name": "_escrowObligation",
          "type": "address",
          "internalType": "contract TokenBundleEscrowObligation"
        }
      ],
      "stateMutability": "nonpayable"
    },
    {
      "type": "receive",
      "stateMutability": "payable"
    },
    {
      "type": "function",
      "name": "EXECUTOR_SENTINEL",
      "inputs": [],
      "outputs": [
        {
          "name": "",
          "type": "address",
          "internalType": "address"
        }
      ],
      "stateMutability": "view"
    },
    {
      "type": "function",
      "name": "MAX_SPLITS",
      "inputs": [],
      "outputs": [
        {
          "name": "",
          "type": "uint256",
          "internalType": "uint256"
        }
      ],
      "stateMutability": "view"
    },
    {
      "type": "function",
      "name": "activeSettlement",
      "inputs": [],
      "outputs": [
        {
          "name": "",
          "type": "bytes32",
          "internalType": "bytes32"
        }
      ],
      "stateMutability": "view"
    },
    {
      "type": "function",
      "name": "arbitrate",
      "inputs": [
        {
          "name": "fulfillment",
          "type": "bytes32",
          "internalType": "bytes32"
        },
        {
          "name": "escrow",
          "type": "bytes32",
          "internalType": "bytes32"
        },
        {
          "name": "splits",
          "type": "tuple[]",
          "internalType": "struct TokenBundleSplitterBase.BundleSplit[]",
          "components": [
            {
              "name": "recipient",
              "type": "address",
              "internalType": "address"
            },
            {
              "name": "nativeAmount",
              "type": "uint256",
              "internalType": "uint256"
            },
            {
              "name": "erc20Amounts",
              "type": "uint256[]",
              "internalType": "uint256[]"
            },
            {
              "name": "erc721Indices",
              "type": "uint256[]",
              "internalType": "uint256[]"
            },
            {
              "name": "erc1155Amounts",
              "type": "uint256[]",
              "internalType": "uint256[]"
            }
          ]
        }
      ],
      "outputs": [],
      "stateMutability": "nonpayable"
    },
    {
      "type": "function",
      "name": "check",
      "inputs": [
        {
          "name": "fulfillment",
          "type": "tuple",
          "internalType": "struct Attestation",
          "components": [
            {
              "name": "uid",
              "type": "bytes32",
              "internalType": "bytes32"
            },
            {
              "name": "schema",
              "type": "bytes32",
              "internalType": "bytes32"
            },
            {
              "name": "time",
              "type": "uint64",
              "internalType": "uint64"
            },
            {
              "name": "expirationTime",
              "type": "uint64",
              "internalType": "uint64"
            },
            {
              "name": "revocationTime",
              "type": "uint64",
              "internalType": "uint64"
            },
            {
              "name": "refUID",
              "type": "bytes32",
              "internalType": "bytes32"
            },
            {
              "name": "recipient",
              "type": "address",
              "internalType": "address"
            },
            {
              "name": "attester",
              "type": "address",
              "internalType": "address"
            },
            {
              "name": "revocable",
              "type": "bool",
              "internalType": "bool"
            },
            {
              "name": "data",
              "type": "bytes",
              "internalType": "bytes"
            }
          ]
        },
        {
          "name": "demand",
          "type": "bytes",
          "internalType": "bytes"
        },
        {
          "name": "escrow",
          "type": "bytes32",
          "internalType": "bytes32"
        }
      ],
      "outputs": [
        {
          "name": "",
          "type": "bool",
          "internalType": "bool"
        }
      ],
      "stateMutability": "view"
    },
    {
      "type": "function",
      "name": "collectAndDistribute",
      "inputs": [
        {
          "name": "escrow",
          "type": "bytes32",
          "internalType": "bytes32"
        },
        {
          "name": "fulfillment",
          "type": "bytes32",
          "internalType": "bytes32"
        }
      ],
      "outputs": [],
      "stateMutability": "nonpayable"
    },
    {
      "type": "function",
      "name": "createFulfillment",
      "inputs": [
        {
          "name": "obligationContract",
          "type": "address",
          "internalType": "address"
        },
        {
          "name": "data",
          "type": "bytes",
          "internalType": "bytes"
        },
        {
          "name": "expirationTime",
          "type": "uint64",
          "internalType": "uint64"
        },
        {
          "name": "refUID",
          "type": "bytes32",
          "internalType": "bytes32"
        }
      ],
      "outputs": [
        {
          "name": "fulfillmentUid",
          "type": "bytes32",
          "internalType": "bytes32"
        }
      ],
      "stateMutability": "payable"
    },
    {
      "type": "function",
      "name": "decodeDemandData",
      "inputs": [
        {
          "name": "data",
          "type": "bytes",
          "internalType": "bytes"
        }
      ],
      "outputs": [
        {
          "name": "",
          "type": "tuple",
          "internalType": "struct TokenBundleSplitterBase.DemandData",
          "components": [
            {
              "name": "oracle",
              "type": "address",
              "internalType": "address"
            },
            {
              "name": "data",
              "type": "bytes",
              "internalType": "bytes"
            }
          ]
        }
      ],
      "stateMutability": "pure"
    },
    {
      "type": "function",
      "name": "eas",
      "inputs": [],
      "outputs": [
        {
          "name": "",
          "type": "address",
          "internalType": "contract IEAS"
        }
      ],
      "stateMutability": "view"
    },
    {
      "type": "function",
      "name": "escrowObligation",
      "inputs": [],
      "outputs": [
        {
          "name": "",
          "type": "address",
          "internalType": "contract IEscrow"
        }
      ],
      "stateMutability": "view"
    },
    {
      "type": "function",
      "name": "fulfillers",
      "inputs": [
        {
          "name": "",
          "type": "bytes32",
          "internalType": "bytes32"
        }
      ],
      "outputs": [
        {
          "name": "",
          "type": "address",
          "internalType": "address"
        }
      ],
      "stateMutability": "view"
    },
    {
      "type": "function",
      "name": "getSplits",
      "inputs": [
        {
          "name": "oracle",
          "type": "address",
          "internalType": "address"
        },
        {
          "name": "fulfillment",
          "type": "bytes32",
          "internalType": "bytes32"
        },
        {
          "name": "escrow",
          "type": "bytes32",
          "internalType": "bytes32"
        }
      ],
      "outputs": [
        {
          "name": "",
          "type": "tuple[]",
          "internalType": "struct TokenBundleSplitterBase.BundleSplit[]",
          "components": [
            {
              "name": "recipient",
              "type": "address",
              "internalType": "address"
            },
            {
              "name": "nativeAmount",
              "type": "uint256",
              "internalType": "uint256"
            },
            {
              "name": "erc20Amounts",
              "type": "uint256[]",
              "internalType": "uint256[]"
            },
            {
              "name": "erc721Indices",
              "type": "uint256[]",
              "internalType": "uint256[]"
            },
            {
              "name": "erc1155Amounts",
              "type": "uint256[]",
              "internalType": "uint256[]"
            }
          ]
        }
      ],
      "stateMutability": "view"
    },
    {
      "type": "function",
      "name": "hasDecision",
      "inputs": [
        {
          "name": "",
          "type": "address",
          "internalType": "address"
        },
        {
          "name": "",
          "type": "bytes32",
          "internalType": "bytes32"
        }
      ],
      "outputs": [
        {
          "name": "",
          "type": "bool",
          "internalType": "bool"
        }
      ],
      "stateMutability": "view"
    },
    {
      "type": "function",
      "name": "onERC1155BatchReceived",
      "inputs": [
        {
          "name": "",
          "type": "address",
          "internalType": "address"
        },
        {
          "name": "",
          "type": "address",
          "internalType": "address"
        },
        {
          "name": "",
          "type": "uint256[]",
          "internalType": "uint256[]"
        },
        {
          "name": "",
          "type": "uint256[]",
          "internalType": "uint256[]"
        },
        {
          "name": "",
          "type": "bytes",
          "internalType": "bytes"
        }
      ],
      "outputs": [
        {
          "name": "",
          "type": "bytes4",
          "internalType": "bytes4"
        }
      ],
      "stateMutability": "nonpayable"
    },
    {
      "type": "function",
      "name": "onERC1155Received",
      "inputs": [
        {
          "name": "",
          "type": "address",
          "internalType": "address"
        },
        {
          "name": "",
          "type": "address",
          "internalType": "address"
        },
        {
          "name": "",
          "type": "uint256",
          "internalType": "uint256"
        },
        {
          "name": "",
          "type": "uint256",
          "internalType": "uint256"
        },
        {
          "name": "",
          "type": "bytes",
          "internalType": "bytes"
        }
      ],
      "outputs": [
        {
          "name": "",
          "type": "bytes4",
          "internalType": "bytes4"
        }
      ],
      "stateMutability": "nonpayable"
    },
    {
      "type": "function",
      "name": "requestArbitration",
      "inputs": [
        {
          "name": "_fulfillment",
          "type": "bytes32",
          "internalType": "bytes32"
        },
        {
          "name": "_escrow",
          "type": "bytes32",
          "internalType": "bytes32"
        },
        {
          "name": "oracle",
          "type": "address",
          "internalType": "address"
        },
        {
          "name": "demand",
          "type": "bytes",
          "internalType": "bytes"
        }
      ],
      "outputs": [],
      "stateMutability": "nonpayable"
    },
    {
      "type": "function",
      "name": "supportsInterface",
      "inputs": [
        {
          "name": "interfaceId",
          "type": "bytes4",
          "internalType": "bytes4"
        }
      ],
      "outputs": [
        {
          "name": "",
          "type": "bool",
          "internalType": "bool"
        }
      ],
      "stateMutability": "view"
    },
    {
      "type": "function",
      "name": "unsafePartiallyCollectAndDistribute",
      "inputs": [
        {
          "name": "escrow",
          "type": "bytes32",
          "internalType": "bytes32"
        },
        {
          "name": "fulfillment",
          "type": "bytes32",
          "internalType": "bytes32"
        }
      ],
      "outputs": [],
      "stateMutability": "nonpayable"
    },
    {
      "type": "event",
      "name": "ArbitrationMade",
      "inputs": [
        {
          "name": "decisionKey",
          "type": "bytes32",
          "indexed": true,
          "internalType": "bytes32"
        },
        {
          "name": "fulfillmentUid",
          "type": "bytes32",
          "indexed": true,
          "internalType": "bytes32"
        },
        {
          "name": "oracle",
          "type": "address",
          "indexed": true,
          "internalType": "address"
        }
      ],
      "anonymous": false
    },
    {
      "type": "event",
      "name": "ArbitrationRequested",
      "inputs": [
        {
          "name": "fulfillment",
          "type": "bytes32",
          "indexed": true,
          "internalType": "bytes32"
        },
        {
          "name": "escrow",
          "type": "bytes32",
          "indexed": true,
          "internalType": "bytes32"
        },
        {
          "name": "oracle",
          "type": "address",
          "indexed": true,
          "internalType": "address"
        },
        {
          "name": "demand",
          "type": "bytes",
          "indexed": false,
          "internalType": "bytes"
        }
      ],
      "anonymous": false
    },
    {
      "type": "event",
      "name": "ERC1155TransferFailedOnDistribute",
      "inputs": [
        {
          "name": "recipient",
          "type": "address",
          "indexed": true,
          "internalType": "address"
        },
        {
          "name": "token",
          "type": "address",
          "indexed": true,
          "internalType": "address"
        },
        {
          "name": "tokenId",
          "type": "uint256",
          "indexed": false,
          "internalType": "uint256"
        },
        {
          "name": "amount",
          "type": "uint256",
          "indexed": false,
          "internalType": "uint256"
        }
      ],
      "anonymous": false
    },
    {
      "type": "event",
      "name": "ERC20TransferFailedOnDistribute",
      "inputs": [
        {
          "name": "recipient",
          "type": "address",
          "indexed": true,
          "internalType": "address"
        },
        {
          "name": "token",
          "type": "address",
          "indexed": true,
          "internalType": "address"
        },
        {
          "name": "amount",
          "type": "uint256",
          "indexed": false,
          "internalType": "uint256"
        }
      ],
      "anonymous": false
    },
    {
      "type": "event",
      "name": "ERC721TransferFailedOnDistribute",
      "inputs": [
        {
          "name": "recipient",
          "type": "address",
          "indexed": true,
          "internalType": "address"
        },
        {
          "name": "token",
          "type": "address",
          "indexed": true,
          "internalType": "address"
        },
        {
          "name": "tokenId",
          "type": "uint256",
          "indexed": false,
          "internalType": "uint256"
        }
      ],
      "anonymous": false
    },
    {
      "type": "event",
      "name": "EscrowCollectedAndDistributed",
      "inputs": [
        {
          "name": "escrowUid",
          "type": "bytes32",
          "indexed": true,
          "internalType": "bytes32"
        },
        {
          "name": "fulfillmentUid",
          "type": "bytes32",
          "indexed": true,
          "internalType": "bytes32"
        },
        {
          "name": "fulfiller",
          "type": "address",
          "indexed": true,
          "internalType": "address"
        }
      ],
      "anonymous": false
    },
    {
      "type": "event",
      "name": "FulfillmentCreated",
      "inputs": [
        {
          "name": "fulfillmentUid",
          "type": "bytes32",
          "indexed": true,
          "internalType": "bytes32"
        },
        {
          "name": "fulfiller",
          "type": "address",
          "indexed": true,
          "internalType": "address"
        },
        {
          "name": "obligationContract",
          "type": "address",
          "indexed": true,
          "internalType": "address"
        }
      ],
      "anonymous": false
    },
    {
      "type": "event",
      "name": "NativeTransferFailedOnDistribute",
      "inputs": [
        {
          "name": "recipient",
          "type": "address",
          "indexed": true,
          "internalType": "address"
        },
        {
          "name": "amount",
          "type": "uint256",
          "indexed": false,
          "internalType": "uint256"
        }
      ],
      "anonymous": false
    },
    {
      "type": "error",
      "name": "AttestationRevoked",
      "inputs": []
    },
    {
      "type": "error",
      "name": "DeadlineExpired",
      "inputs": []
    },
    {
      "type": "error",
      "name": "ERC1155TransferFailed",
      "inputs": [
        {
          "name": "token",
          "type": "address",
          "internalType": "address"
        },
        {
          "name": "to",
          "type": "address",
          "internalType": "address"
        },
        {
          "name": "tokenId",
          "type": "uint256",
          "internalType": "uint256"
        },
        {
          "name": "amount",
          "type": "uint256",
          "internalType": "uint256"
        }
      ]
    },
    {
      "type": "error",
      "name": "ERC20TransferFailed",
      "inputs": [
        {
          "name": "token",
          "type": "address",
          "internalType": "address"
        },
        {
          "name": "to",
          "type": "address",
          "internalType": "address"
        },
        {
          "name": "amount",
          "type": "uint256",
          "internalType": "uint256"
        }
      ]
    },
    {
      "type": "error",
      "name": "ERC721TransferFailed",
      "inputs": [
        {
          "name": "token",
          "type": "address",
          "internalType": "address"
        },
        {
          "name": "to",
          "type": "address",
          "internalType": "address"
        },
        {
          "name": "tokenId",
          "type": "uint256",
          "internalType": "uint256"
        }
      ]
    },
    {
      "type": "error",
      "name": "EmptySplits",
      "inputs": []
    },
    {
      "type": "error",
      "name": "FulfillerAlreadyRecorded",
      "inputs": [
        {
          "name": "fulfillment",
          "type": "bytes32",
          "internalType": "bytes32"
        }
      ]
    },
    {
      "type": "error",
      "name": "InvalidAttestationUid",
      "inputs": []
    },
    {
      "type": "error",
      "name": "InvalidCollectedAmount",
      "inputs": [
        {
          "name": "expected",
          "type": "uint256",
          "internalType": "uint256"
        },
        {
          "name": "actual",
          "type": "uint256",
          "internalType": "uint256"
        }
      ]
    },
    {
      "type": "error",
      "name": "InvalidCreatedFulfillment",
      "inputs": [
        {
          "name": "fulfillment",
          "type": "bytes32",
          "internalType": "bytes32"
        }
      ]
    },
    {
      "type": "error",
      "name": "InvalidERC721Receipt",
      "inputs": [
        {
          "name": "token",
          "type": "address",
          "internalType": "address"
        },
        {
          "name": "tokenId",
          "type": "uint256",
          "internalType": "uint256"
        }
      ]
    },
    {
      "type": "error",
      "name": "InvalidEscrowAttestation",
      "inputs": []
    },
    {
      "type": "error",
      "name": "InvalidFulfillmentRecipient",
      "inputs": []
    },
    {
      "type": "error",
      "name": "InvalidFulfillmentUid",
      "inputs": []
    },
    {
      "type": "error",
      "name": "NativeTokenTransferFailed",
      "inputs": [
        {
          "name": "to",
          "type": "address",
          "internalType": "address"
        },
        {
          "name": "amount",
          "type": "uint256",
          "internalType": "uint256"
        }
      ]
    },
    {
      "type": "error",
      "name": "NoFulfillerRecorded",
      "inputs": [
        {
          "name": "fulfillment",
          "type": "bytes32",
          "internalType": "bytes32"
        }
      ]
    },
    {
      "type": "error",
      "name": "ReentrancyGuardReentrantCall",
      "inputs": []
    },
    {
      "type": "error",
      "name": "TooManySplits",
      "inputs": [
        {
          "name": "provided",
          "type": "uint256",
          "internalType": "uint256"
        },
        {
          "name": "max",
          "type": "uint256",
          "internalType": "uint256"
        }
      ]
    },
    {
      "type": "error",
      "name": "UnauthorizedArbitrationRequest",
      "inputs": []
    },
    {
      "type": "error",
      "name": "UnauthorizedPartialSettlement",
      "inputs": [
        {
          "name": "fulfillment",
          "type": "bytes32",
          "internalType": "bytes32"
        },
        {
          "name": "caller",
          "type": "address",
          "internalType": "address"
        }
      ]
    }
  ],
  "bytecode": {
    "object": "0x60a0346100d057601f612d3038819003918201601f19168301916001600160401b038311848410176100d45780849260409485528339810103126100d05780516001600160a01b03811691908290036100d057602001516001600160a01b03811691908290036100d05760017f9b779b17422d0df92223018b32b4d1fa46e071723d6817e2486d003becc55f00555f80546001600160a01b031916919091179055608052604051612c4790816100e9823960805181818161042f01528181611ef50152818161245d01526129680152f35b5f80fd5b634e487b7160e01b5f52604160045260245ffdfe608080604052600436101561001c575b50361561001a575f80fd5b005b5f3560e01c90816301ffc9a7146117aa575080632257c0e31461161657806339fcc92b146115f95780633c9d7240146112985780633de93b3814610e765780634e2d3b1214610e445780638150864d14610e1d578063838a68d914610d4157806386314b0d14610c215780638da3721a14610aa5578063a1a8048814610a5c578063b48210ca14610a41578063bc197c81146109ac578063c880c06f14610990578063d1be35071461045e578063d43a0c931461041a578063ed7180e3146101475763f23a6e61146100ee575f61000f565b346101435760a036600319011261014357610107611817565b5061011061182d565b506084356001600160401b038111610143576101309036906004016119b5565b5060405163f23a6e6160e01b8152602090f35b5f80fd5b60803660031901126101435761015b611817565b6024356001600160401b0381116101435761017a9036906004016118a0565b604435906001600160401b038216809203610143576064359361019b611d78565b604051632cee40b560e21b81526060600482015260648101839052946001600160a01b03919091169390828260848801375f60848488010152836024870152806044870152602086608481601f19601f880116810103018134895af19586156103cc575f966103e6575b5085156103d7575f80546040516328c44a9960e21b815260048101899052929190839060249082906001600160a01b03165afa9182156103cc575f926103a8575b508682511494851595610390575b8515610378575b8515610360575b508415610351575b508315610326575b505050610313575f828152600360205260409020546001600160a01b031661030057816020925f526003835260405f2060018060a01b0333166bffffffffffffffffffffffff60a01b8254161790556040519133827ff845579b2e96200541b4e2b438fbb65e772b70ac68265030aa16f6d8e16501d95f80a460015f516020612bf25f395f51905f52558152f35b5063aa8904b160e01b5f5260045260245ffd5b5063f9d7a76560e01b5f5260045260245ffd5b61034092935061012001516020815191012092369161197f565b602081519101201415838080610272565b60a0820151141593508661026a565b60608301516001600160401b03161415945087610262565b60c08301516001600160a01b0316301415955061025b565b60e08301516001600160a01b03168714159550610254565b6103c59192503d805f833e6103bd8183611943565b810190611b3b565b9087610246565b6040513d5f823e3d90fd5b6303acddcd60e41b5f5260045ffd5b9095506020813d602011610412575b8161040260209383611943565b8101031261014357519486610205565b3d91506103f5565b34610143575f366003190112610143576040517f00000000000000000000000000000000000000000000000000000000000000006001600160a01b03168152602090f35b346101435761046c3661188a565b610474611d78565b5f8181526003602052604080822054825491516328c44a9960e21b815260048101859052926001600160a01b0391821692909184916024918391165afa9182156103cc575f92610974575b50331415908161095c575b50610946576104d98183611e72565b5f838152600360205260408120549194909390916001600160a01b03165b835185101561090e5761051f81836001600160a01b036105178989611aa5565b5151166129f6565b9261052a8686611aa5565b519260208401805190816108bd575b50506040840195925f5b87518051821015610637579061055b81600193611aa5565b51610567575b01610543565b8860608c01838060a01b0361057d848351611aa5565b5116908361058c818551611aa5565b51926040519063a9059cbb60e01b5f528d888060a01b0316948560045260245260205f60448180855af190885f511482161561062a575b5090604052156105d7575b50505050610561565b610619817ff74480709fec33a3b1a6a81aaf2a8fa70d719b88009fbee204be461d84f84df0936106106020948a8060a01b039251611aa5565b51169551611aa5565b51604051908152a3888c80836105ce565b3b15153d1516165f6105c3565b505096939290979195505f95606084019760a084019960c08501985b8a51805182101561074d578161066891611aa5565b51908c61067d8360018060a01b039251611aa5565b51169161068b818d51611aa5565b5192803b1561014357604051632142170760e11b81523060048201526001600160a01b038d16602482015260448101949094526001938f915f908290606490829084905af1908161073d575b50610736576106fb906106f183868060a01b039251611aa5565b5116918d51611aa5565b516040519081527f2cdd66d926c3684d9b7be9910be2f61678a88971bc9187ef07b86dc048964aa460208d868060a01b031692a35b01610653565b5050610730565b5f61074791611943565b5f6106d7565b5050949699509497509091955060805f9501945b855180518210156108a8578161077691611aa5565b51610784575b600101610761565b60e087019060018060a01b0361079b828451611aa5565b5116916101008901906107af838351611aa5565b51936107bc848b51611aa5565b5190803b1561014357604051637921219560e11b81523060048201526001600160a01b038f1660248201526044810196909652606486019190915260a060848601525f60a486018190526001958592909190829060c490829084905af19081610898575b50610890576108439161083a82878060a01b039251611aa5565b51169251611aa5565b5161084f838a51611aa5565b5160405191825260208201527f616cfada1d83c91b3ab4d0488d450dbb131a917d044bde559c55552aebdf433f60408d868060a01b031692a35b905061077c565b505050610889565b5f6108a291611943565b8e610820565b505094965094600191929350019392916104f7565b5f80808060018060a01b038b1695865af16108d6612a37565b506105395760207f49883307846eabe1e4a9b4d7e3378305c6115c7df65c270a47f9f9cfe3ab69ad9151604051908152a28880610539565b917f38f05a74107505cf7df4cc8ba5851ede31789102da819ba98b8f39107e73ec6f5f80a460015f516020612bf25f395f51905f5255005b6345fbd31960e11b5f526004523360245260445ffd5b60e001516001600160a01b03163314159050836104ca565b6109899192503d805f833e6103bd8183611943565b90846104bf565b34610143575f36600319011261014357602060405161eeee8152f35b346101435760a0366003190112610143576109c5611817565b506109ce61182d565b506044356001600160401b038111610143576109ee9036906004016119fe565b506064356001600160401b03811161014357610a0e9036906004016119fe565b506084356001600160401b03811161014357610a2e9036906004016119b5565b5060405163bc197c8160e01b8152602090f35b34610143575f36600319011261014357602060405160328152f35b34610143576040366003190112610143576001600160a01b03610a7d611817565b165f52600160205260405f206024355f52602052602060ff60405f2054166040519015158152f35b34610143576060366003190112610143576004356001600160401b0381116101435761014060031982360301126101435760405190610ae382611927565b8060040135825260248101356020830152610b00604482016119d3565b6040830152610b11606482016119d3565b6060830152610b22608482016119d3565b608083015260a481013560a0830152610b3d60c48201611843565b60c0830152610b4e60e48201611843565b60e0830152610104810135801515810361014357610100830152610124810135906001600160401b038211610143576004610b8c92369201016119b5565b6101208201526024356001600160401b03811161014357610bcf610bb7610bda9236906004016119b5565b610bc084612a66565b60208082518301019101611c18565b916044359051611c7b565b9081600254149081610bf4575b6020826040519015158152f35b905060018060a01b039051165f52600160205260405f20905f52602052602060ff60405f20541682610be7565b34610143576080366003190112610143576044356001600160a01b0381169060243590829003610143576064356001600160401b03811161014357610c6a9036906004016119b5565b5f80546040516328c44a9960e21b8152600481018590529190829060249082906001600160a01b03165afa9081156103cc575f91610d27575b5060e08101516001600160a01b03163314159081610d0f575b50610d00577f8c71f7964ccbceaff13fb1c085cf7491115c2bed4a6aca02c6c6208f08609b826040516020815280610cfb6004359460208301906118cd565b0390a4005b63ff323ecb60e01b5f5260045ffd5b60c001516001600160a01b0316331415905084610cbc565b610d3b91503d805f833e6103bd8183611943565b84610ca3565b34610143576020366003190112610143576004356001600160401b03811161014357610d719036906004016118a0565b60606020604051610d818161190c565b5f81520152810190602081830312610143578035906001600160401b03821161014357016040818303126101435760405191610dbc8361190c565b610dc582611843565b835260208201356001600160401b03811161014357610de492016119b5565b9060208101918252610e196040519283926020845260018060a01b0390511660208401525160408084015260608301906118cd565b0390f35b34610143575f366003190112610143575f546040516001600160a01b039091168152602090f35b34610143576020366003190112610143576004355f526003602052602060018060a01b0360405f205416604051908152f35b3461014357610e843661188a565b90610e8d611d78565b610e978282611e72565b5f848152600360205260408120549294926001600160a01b03165b855182101561125f57610ed281856001600160a01b03610517868b611aa5565b93610edd8388611aa5565b5195602087018051908161122a575b50506040870197925f5b89518051821015610fd65781610f0b91611aa5565b51610f19575b600101610ef6565b6060870180516001600160a01b0390610f33908490611aa5565b511690610f41838d51611aa5565b51916040519063a9059cbb60e01b5f5260018060a01b038c16938460045260245260205f60448180855af19060015f5114821615610fc9575b509060405215610f8b575050610f11565b518b92610faf916001600160a01b0390610fa6908390611aa5565b51169351611aa5565b51916307a1d48760e01b5f5260045260245260445260645ffd5b3b15153d1516168e610f7a565b5050939197509194955f94606082019660a082019560c083019a5b895180518a10156110c1578961100691611aa5565b51988c6110208b8b61083a8260018060a01b039251611aa5565b5190803b1561014357604051632142170760e11b81523060048201526001600160a01b038f16602482015260448101929092525f908290606490829084905af190816110b1575b506110a7578c8c6110858c8c610fa68260018060a01b039251611aa5565b519163e3bbfcd760e01b5f5260045260018060a01b031660245260445260645ffd5b6001019850610ff1565b5f6110bb91611943565b8e611067565b5095949a50955091955096955060805f9501945b8551805182101561121457816110ea91611aa5565b516110f8575b6001016110d5565b979260e08893959298019460018060a01b036111158b8851611aa5565b5116986101008501996111298c8c51611aa5565b516111358d8b51611aa5565b51823b1561014357604051637921219560e11b81523060048201526001600160a01b038d1660248201526044810192909252606482015260a060848201525f60a482018190529091829060c490829084905af19081611204575b506111f75760848a8a8a6111c58f6111bd818e6111b48260018060a01b039251611aa5565b51169651611aa5565b519251611aa5565b51604051636bb6a96f60e01b815260048101949094526001600160a01b03909216602484015260448301526064820152fd5b92955092975092976110f0565b5f61120e91611943565b8c61118f565b5050945094956001919293500190929491610eb2565b5f80808060018060a01b038c1695865af1611243612a37565b50610eec5751906338f0620160e21b5f5260045260245260445ffd5b83857f38f05a74107505cf7df4cc8ba5851ede31789102da819ba98b8f39107e73ec6f5f80a460015f516020612bf25f395f51905f5255005b34610143576060366003190112610143576044356024356004356001600160401b0383116101435736602384011215610143578260040135906001600160401b038211610143576024840193602436918460051b0101116101435780156103d7578261130391611c7b565b9281156115ea57603282116115d257335f52600460205260405f20845f5260205260405f208054905f815581611567575b50505f915b80831061138c57505050335f52600160205260405f20825f5260205260405f20600160ff1982541617905533917f316840fa12fff978748bb0addc98aa699d0e100e99cb115876030599d06fb01a5f80a4005b9390919293335f52600460205260405f20825f5260205260405f208054600160401b811015611553576113c491600182018155611cd1565b5050335f52600460205260405f20825f526020526113e58460405f20611cd1565b50926113f2858383611cea565b356001600160a01b03811681036101435784546001600160a01b0319166001600160a01b0391909116178455602061142b868484611cea565b01356001850155600284019261144084611ca1565b6004600386019561145087611ca1565b019061145b82611ca1565b5f5b61147561146b898787611cea565b6040810190611d0c565b90508110156114a957806114a361149c60019361149661146b8d8b8b611cea565b90611d41565b3588611d51565b0161145d565b5096909493505f5b6114c96114bf888686611cea565b6060810190611d0c565b90508110156114f757806114f16114ea6001936114966114bf8c8a8a611cea565b3587611d51565b016114b1565b5095909392505f5b61151761150d878588611cea565b6080810190611d0c565b9050811015611545578061153f61153860019361149661150d8b898c611cea565b3586611d51565b016114ff565b509493600101929150611339565b634e487b7160e01b5f52604160045260245ffd5b816005029160058304036115be575f5260205f20908101905b8181101561133457805f600592555f60018201556115a060028201611ca1565b6115ac60038201611ca1565b6115b860048201611ca1565b01611580565b634e487b7160e01b5f52601160045260245ffd5b5063b268613560e01b5f52600452603260245260445ffd5b63143160cf60e01b5f5260045ffd5b34610143575f366003190112610143576020600254604051908152f35b34610143576060366003190112610143576001600160a01b03611637611817565b165f52600460205260405f20611651604435602435611c7b565b5f5260205260405f20805490611666826119e7565b916116746040519384611943565b8083526020830180925f5260205f205f915b83831061174357848660405191829160208301906020845251809152604083019060408160051b85010192915f905b8282106116c457505050500390f35b919360019193955060206117338192603f198a8203018652885190858060a01b03825116815283820151848201526080611722611710604085015160a0604086015260a0850190611857565b60608501518482036060860152611857565b920151906080818403910152611857565b96019201920185949391926116b5565b60056020600192604051611756816118f1565b848060a01b038654168152848601548382015261177560028701611a5b565b604082015261178660038701611a5b565b606082015261179760048701611a5b565b6080820152815201920192019190611686565b34610143576020366003190112610143576004359063ffffffff60e01b821680920361014357602091630271189760e51b81149081156117ec575b5015158152f35b6346d1b90d60e11b811491508115611806575b50836117e5565b6301ffc9a760e01b149050836117ff565b600435906001600160a01b038216820361014357565b602435906001600160a01b038216820361014357565b35906001600160a01b038216820361014357565b90602080835192838152019201905f5b8181106118745750505090565b8251845260209384019390920191600101611867565b6040906003190112610143576004359060243590565b9181601f84011215610143578235916001600160401b038311610143576020838186019501011161014357565b805180835260209291819084018484015e5f828201840152601f01601f1916010190565b60a081019081106001600160401b0382111761155357604052565b604081019081106001600160401b0382111761155357604052565b61014081019081106001600160401b0382111761155357604052565b90601f801991011681019081106001600160401b0382111761155357604052565b6001600160401b03811161155357601f01601f191660200190565b92919261198b82611964565b916119996040519384611943565b829481845281830111610143578281602093845f960137010152565b9080601f83011215610143578160206119d09335910161197f565b90565b35906001600160401b038216820361014357565b6001600160401b0381116115535760051b60200190565b9080601f83011215610143578135611a15816119e7565b92611a236040519485611943565b81845260208085019260051b82010192831161014357602001905b828210611a4b5750505090565b8135815260209182019101611a3e565b90604051918281549182825260208201905f5260205f20925f5b818110611a8c575050611a8a92500383611943565b565b8454835260019485019487945060209093019201611a75565b8051821015611ab95760209160051b010190565b634e487b7160e01b5f52603260045260245ffd5b51906001600160401b038216820361014357565b51906001600160a01b038216820361014357565b81601f8201121561014357805190611b0c82611964565b92611b1a6040519485611943565b8284526020838301011161014357815f9260208093018386015e8301015290565b602081830312610143578051906001600160401b0382116101435701610140818303126101435760405191611b6f83611927565b8151835260208201516020840152611b8960408301611acd565b6040840152611b9a60608301611acd565b6060840152611bab60808301611acd565b608084015260a082015160a0840152611bc660c08301611ae1565b60c0840152611bd760e08301611ae1565b60e08401526101008201518015158103610143576101008401526101208201516001600160401b03811161014357611c0f9201611af5565b61012082015290565b602081830312610143578051906001600160401b03821161014357016040818303126101435760405191611c4b8361190c565b611c5482611ae1565b835260208201516001600160401b03811161014357611c739201611af5565b602082015290565b906040519060208201928352604082015260408152611c9b606082611943565b51902090565b8054905f815581611cb0575050565b5f5260205f20908101905b818110611cc6575050565b5f8155600101611cbb565b8054821015611ab9575f52600560205f20910201905f90565b9190811015611ab95760051b81013590609e1981360301821215610143570190565b903590601e198136030182121561014357018035906001600160401b03821161014357602001918160051b3603831361014357565b9190811015611ab95760051b0190565b805490600160401b8210156115535760018201808255821015611ab9575f5260205f200155565b60025f516020612bf25f395f51905f525414611da15760025f516020612bf25f395f51905f5255565b633ee5aeb560e01b5f5260045ffd5b9080601f83011215610143578151611dc7816119e7565b92611dd56040519485611943565b81845260208085019260051b82010192831161014357602001905b828210611dfd5750505090565b60208091611e0a84611ae1565b815201910190611df0565b9080601f83011215610143578151611e2c816119e7565b92611e3a6040519485611943565b81845260208085019260051b82010192831161014357602001905b828210611e625750505090565b8151815260209182019101611e55565b906060610120604051611e8481611927565b5f81528260208201525f604082015282808201528260808201528260a08201528260c08201528260e082015282610100820152015260018060a01b035f5416926040516328c44a9960e21b81528360048201525f81602481885afa9081156103cc575f916129dc575b5060e08101517f00000000000000000000000000000000000000000000000000000000000000006001600160a01b0390811691161480159061294d575b61293e5780511561292f576001600160401b036060820151168015159081612924575b50612915576001600160401b03608082015116612906575f602495604051968780926328c44a9960e21b82528760048301525afa9485156103cc575f956128e6575b5061012090611f9d86612a66565b01519081518201946020860192602081880312610143576020810151906001600160401b03821161014357019561014090879003126101435760405195611fe387611927565b611fef60208201611ae1565b875260408101516001600160401b0381116101435784602061201392840101611af5565b93602088019485526060820151604089015260808201516001600160401b0381116101435781602061204792850101611db0565b606089015260a08201516001600160401b0381116101435781602061206e92850101611e15565b608089015260c08201516001600160401b0381116101435781602061209592850101611db0565b60a089015260e08201516001600160401b038111610143578160206120bc92850101611e15565b60c08901526101008201516001600160401b038111610143578160206120e492850101611db0565b60e08901526101208201516001600160401b0381116101435781602061210c92850101611e15565b610100890152610140820151916001600160401b038311610143576121349201602001611e15565b61012087015285925161215760018060a01b039160208082518301019101611c18565b51165f52600460205261216f8560405f209251611c7b565b5f5260205260405f208054612183816119e7565b916121916040519384611943565b81835260208301905f5260205f205f915b83831061287f5750505050905f5b60a0870151805182101561229b576001600160a01b03906121d2908390611aa5565b511660206121e48360c08b0151611aa5565b516024604051809481936331a9108f60e11b835260048301525afa9081156103cc575f91612262575b506001600160a01b03163014612225576001016121b0565b61224b879160c060018060a01b036122418360a0870151611aa5565b5116930151611aa5565b5190631e40975f60e01b5f5260045260245260445ffd5b90506020813d8211612293575b8161227c60209383611943565b810103126101435761228d90611ae1565b5f61220d565b3d915061226f565b5050929093919447916122b2606083015151612a8a565b945f5b6060840151805182101561234d57602491906020906001600160a01b03906122de908490611aa5565b5116604051938480926370a0823160e01b82523060048301525afa80156103cc575f9061231b575b60019250612314828a611aa5565b52016122b5565b506020823d8211612345575b8161233460209383611943565b810103126101435760019151612306565b3d9150612327565b50509194929590939661236460e087015151612a8a565b975f5b60e08801518051821015612424576123cc91906020906001600160a01b0390612391908490611aa5565b51166123a2836101008d0151611aa5565b51604051627eeac760e11b8152306004820152602481019190915293849190829081906044820190565b03915afa80156103cc575f906123f2575b600192506123eb828d611aa5565b5201612367565b506020823d821161241c575b8161240b60209383611943565b8101031261014357600191516123dd565b3d91506123fe565b505091949792969093976124388382611c7b565b600255604051633a9bb12760e21b8152600481019390935260248301525f82604481837f00000000000000000000000000000000000000000000000000000000000000006001600160a01b03165af180156103cc5761283e575b6124ac91505f600298949397985547604087015191612abc565b5f945b6060850151518610156125f0576124c68686612b06565b156125e4575f9660018060a01b036124e2886060890151611aa5565b5116945f5b6060880151805182101561253f5787906001600160a01b039061250b908490611aa5565b51161461251b575b6001016124e7565b986125376001916125308c60808c0151611aa5565b5190612b5e565b999050612513565b505094509596909192966024612555828a611aa5565b51602060018060a01b0361256d8560608c0151611aa5565b5116604051938480926370a0823160e01b82523060048301525afa9182156103cc575f926125ae575b50926125a491600194612abc565b01949591906124af565b9150926020823d82116125dc575b816125c960209383611943565b8101031261014357905190926001612596565b3d91506125bc565b909195946001906125a4565b929450929490505f5b60a086015180518210156126c5576001600160a01b039061261b908390611aa5565b5116602061262d8360c08a0151611aa5565b516024604051809481936331a9108f60e11b835260048301525afa9081156103cc575f9161268c575b50306001600160a01b0390911603612670576001016125f9565b61224b869160c060018060a01b036122418360a0870151611aa5565b90506020813d82116126bd575b816126a660209383611943565b81010312610143576126b790611ae1565b5f612656565b3d9150612699565b5091945f94939092505b60e083015151851015612836576126e68584612b6b565b15612829575f9360018060a01b036127028760e0870151611aa5565b51169161271487610100870151611aa5565b51935f5b60e087015180518210156127885785906001600160a01b039061273c908490611aa5565b51161480612770575b612752575b600101612718565b966127686001916125308a6101208b0151611aa5565b97905061274a565b5085612781826101008a0151611aa5565b5114612745565b505096919495925092506127c861279f8289611aa5565b51602060018060a01b036127b78560e08b0151611aa5565b51166123a2856101008b0151611aa5565b03915afa9182156103cc575f926127f3575b50926127e891600194612abc565b0193909291926126cf565b9150926020823d8211612821575b8161280e60209383611943565b81010312610143579051909260016127da565b3d9150612801565b90936001909392936127e8565b935091935050565b3d805f843e61284d8184611943565b820191602081840312610143578051926001600160401b038411610143576124ac936128799201611af5565b50612492565b60056020600192604051612892816118f1565b848060a01b03865416815284860154838201526128b160028701611a5b565b60408201526128c260038701611a5b565b60608201526128d360048701611a5b565b60808201528152019201920191906121a2565b6101209195506128ff903d805f833e6103bd8183611943565b9490611f8f565b637b6227e960e11b5f5260045ffd5b631ab7da6b60e01b5f5260045ffd5b90504210155f611f4d565b635c2c7f8960e01b5f5260045ffd5b63629cd40b60e11b5f5260045ffd5b50602081810151604051635bf2f20d60e01b815291826004817f00000000000000000000000000000000000000000000000000000000000000006001600160a01b03165afa9182156103cc575f926129a8575b501415611f2a565b9091506020813d6020116129d4575b816129c460209383611943565b810103126101435751905f6129a0565b3d91506129b7565b6129f091503d805f833e6103bd8183611943565b5f611eed565b91906001600160a01b03831661eeee14612a0f57505090565b9091506001600160a01b03821615612a25575090565b6379c5a2db60e01b5f5260045260245ffd5b3d15612a61573d90612a4882611964565b91612a566040519384611943565b82523d5f602084013e565b606090565b60c001516001600160a01b03163003612a7b57565b634672d00f60e01b5f5260045ffd5b90612a94826119e7565b612aa16040519182611943565b8281528092612ab2601f19916119e7565b0190602036910137565b919091808310612aef5782039182116115be57808203612ada575050565b631a3dba0360e31b5f5260045260245260445ffd5b50631a3dba0360e31b5f526004525f60245260445ffd5b60600180516001600160a01b0390612b1f908490611aa5565b5116905f5b838110612b345750505050600190565b8260018060a01b03612b47838551611aa5565b511614612b5657600101612b24565b505050505f90565b919082018092116115be57565b60e081019061010060018060a01b03612b85858551611aa5565b5116910191612b95848451611aa5565b51915f5b858110612bab57505050505050600190565b8160018060a01b03612bbe838651611aa5565b51161480612bdd575b612bd357600101612b99565b5050505050505f90565b5083612bea828751611aa5565b5114612bc756fe9b779b17422d0df92223018b32b4d1fa46e071723d6817e2486d003becc55f00a264697066735822122064ee46aef655832d89d008821c746b6771f3d61cac85004085b0e3f5e578e26e64736f6c634300081b0033",
    "linkReferences": {}
  },
  "methodIdentifiers": {
    "EXECUTOR_SENTINEL()": "c880c06f",
    "MAX_SPLITS()": "b48210ca",
    "activeSettlement()": "39fcc92b",
    "arbitrate(bytes32,bytes32,(address,uint256,uint256[],uint256[],uint256[])[])": "3c9d7240",
    "check((bytes32,bytes32,uint64,uint64,uint64,bytes32,address,address,bool,bytes),bytes,bytes32)": "8da3721a",
    "collectAndDistribute(bytes32,bytes32)": "3de93b38",
    "createFulfillment(address,bytes,uint64,bytes32)": "ed7180e3",
    "decodeDemandData(bytes)": "838a68d9",
    "eas()": "8150864d",
    "escrowObligation()": "d43a0c93",
    "fulfillers(bytes32)": "4e2d3b12",
    "getSplits(address,bytes32,bytes32)": "2257c0e3",
    "hasDecision(address,bytes32)": "a1a80488",
    "onERC1155BatchReceived(address,address,uint256[],uint256[],bytes)": "bc197c81",
    "onERC1155Received(address,address,uint256,uint256,bytes)": "f23a6e61",
    "requestArbitration(bytes32,bytes32,address,bytes)": "86314b0d",
    "supportsInterface(bytes4)": "01ffc9a7",
    "unsafePartiallyCollectAndDistribute(bytes32,bytes32)": "d1be3507"
  },
  "id": 180
}