{
  "abi": [
    {
      "type": "constructor",
      "inputs": [
        {
          "name": "_eas",
          "type": "address",
          "internalType": "contract IEAS"
        },
        {
          "name": "_schemaRegistry",
          "type": "address",
          "internalType": "contract ISchemaRegistry"
        }
      ],
      "stateMutability": "nonpayable"
    },
    {
      "type": "receive",
      "stateMutability": "payable"
    },
    {
      "type": "function",
      "name": "ATTESTATION_SCHEMA",
      "inputs": [],
      "outputs": [
        {
          "name": "",
          "type": "bytes32",
          "internalType": "bytes32"
        }
      ],
      "stateMutability": "view"
    },
    {
      "type": "function",
      "name": "attest",
      "inputs": [
        {
          "name": "attestation",
          "type": "tuple",
          "internalType": "struct Attestation",
          "components": [
            {
              "name": "uid",
              "type": "bytes32",
              "internalType": "bytes32"
            },
            {
              "name": "schema",
              "type": "bytes32",
              "internalType": "bytes32"
            },
            {
              "name": "time",
              "type": "uint64",
              "internalType": "uint64"
            },
            {
              "name": "expirationTime",
              "type": "uint64",
              "internalType": "uint64"
            },
            {
              "name": "revocationTime",
              "type": "uint64",
              "internalType": "uint64"
            },
            {
              "name": "refUID",
              "type": "bytes32",
              "internalType": "bytes32"
            },
            {
              "name": "recipient",
              "type": "address",
              "internalType": "address"
            },
            {
              "name": "attester",
              "type": "address",
              "internalType": "address"
            },
            {
              "name": "revocable",
              "type": "bool",
              "internalType": "bool"
            },
            {
              "name": "data",
              "type": "bytes",
              "internalType": "bytes"
            }
          ]
        }
      ],
      "outputs": [
        {
          "name": "",
          "type": "bool",
          "internalType": "bool"
        }
      ],
      "stateMutability": "payable"
    },
    {
      "type": "function",
      "name": "checkObligation",
      "inputs": [
        {
          "name": "obligation",
          "type": "tuple",
          "internalType": "struct Attestation",
          "components": [
            {
              "name": "uid",
              "type": "bytes32",
              "internalType": "bytes32"
            },
            {
              "name": "schema",
              "type": "bytes32",
              "internalType": "bytes32"
            },
            {
              "name": "time",
              "type": "uint64",
              "internalType": "uint64"
            },
            {
              "name": "expirationTime",
              "type": "uint64",
              "internalType": "uint64"
            },
            {
              "name": "revocationTime",
              "type": "uint64",
              "internalType": "uint64"
            },
            {
              "name": "refUID",
              "type": "bytes32",
              "internalType": "bytes32"
            },
            {
              "name": "recipient",
              "type": "address",
              "internalType": "address"
            },
            {
              "name": "attester",
              "type": "address",
              "internalType": "address"
            },
            {
              "name": "revocable",
              "type": "bool",
              "internalType": "bool"
            },
            {
              "name": "data",
              "type": "bytes",
              "internalType": "bytes"
            }
          ]
        },
        {
          "name": "demand",
          "type": "bytes",
          "internalType": "bytes"
        },
        {
          "name": "",
          "type": "bytes32",
          "internalType": "bytes32"
        }
      ],
      "outputs": [
        {
          "name": "",
          "type": "bool",
          "internalType": "bool"
        }
      ],
      "stateMutability": "view"
    },
    {
      "type": "function",
      "name": "collectEscrow",
      "inputs": [
        {
          "name": "escrow",
          "type": "bytes32",
          "internalType": "bytes32"
        },
        {
          "name": "fulfillment",
          "type": "bytes32",
          "internalType": "bytes32"
        }
      ],
      "outputs": [
        {
          "name": "",
          "type": "bool",
          "internalType": "bool"
        }
      ],
      "stateMutability": "nonpayable"
    },
    {
      "type": "function",
      "name": "collectEscrowRaw",
      "inputs": [
        {
          "name": "_escrow",
          "type": "bytes32",
          "internalType": "bytes32"
        },
        {
          "name": "_fulfillment",
          "type": "bytes32",
          "internalType": "bytes32"
        }
      ],
      "outputs": [
        {
          "name": "",
          "type": "bytes",
          "internalType": "bytes"
        }
      ],
      "stateMutability": "nonpayable"
    },
    {
      "type": "function",
      "name": "decodeObligationData",
      "inputs": [
        {
          "name": "data",
          "type": "bytes",
          "internalType": "bytes"
        }
      ],
      "outputs": [
        {
          "name": "",
          "type": "tuple",
          "internalType": "struct ERC20EscrowObligation.ObligationData",
          "components": [
            {
              "name": "arbiter",
              "type": "address",
              "internalType": "address"
            },
            {
              "name": "demand",
              "type": "bytes",
              "internalType": "bytes"
            },
            {
              "name": "token",
              "type": "address",
              "internalType": "address"
            },
            {
              "name": "amount",
              "type": "uint256",
              "internalType": "uint256"
            }
          ]
        }
      ],
      "stateMutability": "pure"
    },
    {
      "type": "function",
      "name": "doObligation",
      "inputs": [
        {
          "name": "data",
          "type": "tuple",
          "internalType": "struct ERC20EscrowObligation.ObligationData",
          "components": [
            {
              "name": "arbiter",
              "type": "address",
              "internalType": "address"
            },
            {
              "name": "demand",
              "type": "bytes",
              "internalType": "bytes"
            },
            {
              "name": "token",
              "type": "address",
              "internalType": "address"
            },
            {
              "name": "amount",
              "type": "uint256",
              "internalType": "uint256"
            }
          ]
        },
        {
          "name": "expirationTime",
          "type": "uint64",
          "internalType": "uint64"
        }
      ],
      "outputs": [
        {
          "name": "",
          "type": "bytes32",
          "internalType": "bytes32"
        }
      ],
      "stateMutability": "nonpayable"
    },
    {
      "type": "function",
      "name": "doObligationFor",
      "inputs": [
        {
          "name": "data",
          "type": "tuple",
          "internalType": "struct ERC20EscrowObligation.ObligationData",
          "components": [
            {
              "name": "arbiter",
              "type": "address",
              "internalType": "address"
            },
            {
              "name": "demand",
              "type": "bytes",
              "internalType": "bytes"
            },
            {
              "name": "token",
              "type": "address",
              "internalType": "address"
            },
            {
              "name": "amount",
              "type": "uint256",
              "internalType": "uint256"
            }
          ]
        },
        {
          "name": "expirationTime",
          "type": "uint64",
          "internalType": "uint64"
        },
        {
          "name": "recipient",
          "type": "address",
          "internalType": "address"
        }
      ],
      "outputs": [
        {
          "name": "",
          "type": "bytes32",
          "internalType": "bytes32"
        }
      ],
      "stateMutability": "nonpayable"
    },
    {
      "type": "function",
      "name": "doObligationRaw",
      "inputs": [
        {
          "name": "data",
          "type": "bytes",
          "internalType": "bytes"
        },
        {
          "name": "expirationTime",
          "type": "uint64",
          "internalType": "uint64"
        },
        {
          "name": "refUID",
          "type": "bytes32",
          "internalType": "bytes32"
        }
      ],
      "outputs": [
        {
          "name": "uid_",
          "type": "bytes32",
          "internalType": "bytes32"
        }
      ],
      "stateMutability": "payable"
    },
    {
      "type": "function",
      "name": "extractArbiterAndDemand",
      "inputs": [
        {
          "name": "data",
          "type": "bytes",
          "internalType": "bytes"
        }
      ],
      "outputs": [
        {
          "name": "arbiter",
          "type": "address",
          "internalType": "address"
        },
        {
          "name": "demand",
          "type": "bytes",
          "internalType": "bytes"
        }
      ],
      "stateMutability": "pure"
    },
    {
      "type": "function",
      "name": "getObligationData",
      "inputs": [
        {
          "name": "uid",
          "type": "bytes32",
          "internalType": "bytes32"
        }
      ],
      "outputs": [
        {
          "name": "",
          "type": "tuple",
          "internalType": "struct ERC20EscrowObligation.ObligationData",
          "components": [
            {
              "name": "arbiter",
              "type": "address",
              "internalType": "address"
            },
            {
              "name": "demand",
              "type": "bytes",
              "internalType": "bytes"
            },
            {
              "name": "token",
              "type": "address",
              "internalType": "address"
            },
            {
              "name": "amount",
              "type": "uint256",
              "internalType": "uint256"
            }
          ]
        }
      ],
      "stateMutability": "view"
    },
    {
      "type": "function",
      "name": "getSchema",
      "inputs": [],
      "outputs": [
        {
          "name": "",
          "type": "tuple",
          "internalType": "struct SchemaRecord",
          "components": [
            {
              "name": "uid",
              "type": "bytes32",
              "internalType": "bytes32"
            },
            {
              "name": "resolver",
              "type": "address",
              "internalType": "contract ISchemaResolver"
            },
            {
              "name": "revocable",
              "type": "bool",
              "internalType": "bool"
            },
            {
              "name": "schema",
              "type": "string",
              "internalType": "string"
            }
          ]
        }
      ],
      "stateMutability": "view"
    },
    {
      "type": "function",
      "name": "isPayable",
      "inputs": [],
      "outputs": [
        {
          "name": "",
          "type": "bool",
          "internalType": "bool"
        }
      ],
      "stateMutability": "pure"
    },
    {
      "type": "function",
      "name": "multiAttest",
      "inputs": [
        {
          "name": "attestations",
          "type": "tuple[]",
          "internalType": "struct Attestation[]",
          "components": [
            {
              "name": "uid",
              "type": "bytes32",
              "internalType": "bytes32"
            },
            {
              "name": "schema",
              "type": "bytes32",
              "internalType": "bytes32"
            },
            {
              "name": "time",
              "type": "uint64",
              "internalType": "uint64"
            },
            {
              "name": "expirationTime",
              "type": "uint64",
              "internalType": "uint64"
            },
            {
              "name": "revocationTime",
              "type": "uint64",
              "internalType": "uint64"
            },
            {
              "name": "refUID",
              "type": "bytes32",
              "internalType": "bytes32"
            },
            {
              "name": "recipient",
              "type": "address",
              "internalType": "address"
            },
            {
              "name": "attester",
              "type": "address",
              "internalType": "address"
            },
            {
              "name": "revocable",
              "type": "bool",
              "internalType": "bool"
            },
            {
              "name": "data",
              "type": "bytes",
              "internalType": "bytes"
            }
          ]
        },
        {
          "name": "values",
          "type": "uint256[]",
          "internalType": "uint256[]"
        }
      ],
      "outputs": [
        {
          "name": "",
          "type": "bool",
          "internalType": "bool"
        }
      ],
      "stateMutability": "payable"
    },
    {
      "type": "function",
      "name": "multiRevoke",
      "inputs": [
        {
          "name": "attestations",
          "type": "tuple[]",
          "internalType": "struct Attestation[]",
          "components": [
            {
              "name": "uid",
              "type": "bytes32",
              "internalType": "bytes32"
            },
            {
              "name": "schema",
              "type": "bytes32",
              "internalType": "bytes32"
            },
            {
              "name": "time",
              "type": "uint64",
              "internalType": "uint64"
            },
            {
              "name": "expirationTime",
              "type": "uint64",
              "internalType": "uint64"
            },
            {
              "name": "revocationTime",
              "type": "uint64",
              "internalType": "uint64"
            },
            {
              "name": "refUID",
              "type": "bytes32",
              "internalType": "bytes32"
            },
            {
              "name": "recipient",
              "type": "address",
              "internalType": "address"
            },
            {
              "name": "attester",
              "type": "address",
              "internalType": "address"
            },
            {
              "name": "revocable",
              "type": "bool",
              "internalType": "bool"
            },
            {
              "name": "data",
              "type": "bytes",
              "internalType": "bytes"
            }
          ]
        },
        {
          "name": "values",
          "type": "uint256[]",
          "internalType": "uint256[]"
        }
      ],
      "outputs": [
        {
          "name": "",
          "type": "bool",
          "internalType": "bool"
        }
      ],
      "stateMutability": "payable"
    },
    {
      "type": "function",
      "name": "reclaimExpired",
      "inputs": [
        {
          "name": "uid",
          "type": "bytes32",
          "internalType": "bytes32"
        }
      ],
      "outputs": [
        {
          "name": "",
          "type": "bool",
          "internalType": "bool"
        }
      ],
      "stateMutability": "nonpayable"
    },
    {
      "type": "function",
      "name": "revoke",
      "inputs": [
        {
          "name": "attestation",
          "type": "tuple",
          "internalType": "struct Attestation",
          "components": [
            {
              "name": "uid",
              "type": "bytes32",
              "internalType": "bytes32"
            },
            {
              "name": "schema",
              "type": "bytes32",
              "internalType": "bytes32"
            },
            {
              "name": "time",
              "type": "uint64",
              "internalType": "uint64"
            },
            {
              "name": "expirationTime",
              "type": "uint64",
              "internalType": "uint64"
            },
            {
              "name": "revocationTime",
              "type": "uint64",
              "internalType": "uint64"
            },
            {
              "name": "refUID",
              "type": "bytes32",
              "internalType": "bytes32"
            },
            {
              "name": "recipient",
              "type": "address",
              "internalType": "address"
            },
            {
              "name": "attester",
              "type": "address",
              "internalType": "address"
            },
            {
              "name": "revocable",
              "type": "bool",
              "internalType": "bool"
            },
            {
              "name": "data",
              "type": "bytes",
              "internalType": "bytes"
            }
          ]
        }
      ],
      "outputs": [
        {
          "name": "",
          "type": "bool",
          "internalType": "bool"
        }
      ],
      "stateMutability": "payable"
    },
    {
      "type": "function",
      "name": "version",
      "inputs": [],
      "outputs": [
        {
          "name": "",
          "type": "string",
          "internalType": "string"
        }
      ],
      "stateMutability": "view"
    },
    {
      "type": "event",
      "name": "EscrowCollected",
      "inputs": [
        {
          "name": "escrow",
          "type": "bytes32",
          "indexed": true,
          "internalType": "bytes32"
        },
        {
          "name": "fulfillment",
          "type": "bytes32",
          "indexed": true,
          "internalType": "bytes32"
        },
        {
          "name": "fulfiller",
          "type": "address",
          "indexed": true,
          "internalType": "address"
        }
      ],
      "anonymous": false
    },
    {
      "type": "event",
      "name": "EscrowMade",
      "inputs": [
        {
          "name": "escrow",
          "type": "bytes32",
          "indexed": true,
          "internalType": "bytes32"
        },
        {
          "name": "buyer",
          "type": "address",
          "indexed": true,
          "internalType": "address"
        }
      ],
      "anonymous": false
    },
    {
      "type": "error",
      "name": "AccessDenied",
      "inputs": []
    },
    {
      "type": "error",
      "name": "AttestationNotFound",
      "inputs": [
        {
          "name": "attestationId",
          "type": "bytes32",
          "internalType": "bytes32"
        }
      ]
    },
    {
      "type": "error",
      "name": "AttestationRevoked",
      "inputs": []
    },
    {
      "type": "error",
      "name": "DeadlineExpired",
      "inputs": []
    },
    {
      "type": "error",
      "name": "ERC20TransferFailed",
      "inputs": [
        {
          "name": "token",
          "type": "address",
          "internalType": "address"
        },
        {
          "name": "from",
          "type": "address",
          "internalType": "address"
        },
        {
          "name": "to",
          "type": "address",
          "internalType": "address"
        },
        {
          "name": "amount",
          "type": "uint256",
          "internalType": "uint256"
        }
      ]
    },
    {
      "type": "error",
      "name": "InsufficientValue",
      "inputs": []
    },
    {
      "type": "error",
      "name": "InvalidAttestationUid",
      "inputs": []
    },
    {
      "type": "error",
      "name": "InvalidEAS",
      "inputs": []
    },
    {
      "type": "error",
      "name": "InvalidEscrowAttestation",
      "inputs": []
    },
    {
      "type": "error",
      "name": "InvalidFulfillment",
      "inputs": []
    },
    {
      "type": "error",
      "name": "InvalidLength",
      "inputs": []
    },
    {
      "type": "error",
      "name": "InvalidSchema",
      "inputs": []
    },
    {
      "type": "error",
      "name": "NotFromThisAttester",
      "inputs": []
    },
    {
      "type": "error",
      "name": "NotPayable",
      "inputs": []
    },
    {
      "type": "error",
      "name": "ReentrancyGuardReentrantCall",
      "inputs": []
    },
    {
      "type": "error",
      "name": "RevocationFailed",
      "inputs": [
        {
          "name": "attestationId",
          "type": "bytes32",
          "internalType": "bytes32"
        }
      ]
    },
    {
      "type": "error",
      "name": "SchemaRegistrationFailed",
      "inputs": [
        {
          "name": "uid",
          "type": "bytes32",
          "internalType": "bytes32"
        }
      ]
    },
    {
      "type": "error",
      "name": "UnauthorizedCall",
      "inputs": []
    }
  ],
  "bytecode": {
    "object": "0x61016080604052346101bb5760408161257a803803809161002082856101bf565b8339810103126101bb578051906001600160a01b038216908183036101bb57602001516001600160a01b03811691908281036101bb57604051916100656060846101bf565b603c83527f6164647265737320617262697465722c2062797465732064656d616e642c206160208401527f64647265737320746f6b656e2c2075696e7432353620616d6f756e740000000060408401526001608052600360a0525f60c052156101ac57836100df9460e052610120526101005230916102da565b6101405260017f9b779b17422d0df92223018b32b4d1fa46e071723d6817e2486d003becc55f00556040516120c490816104b6823960805181610d28015260a05181610d53015260c05181610d7e015260e05181611aaa01526101005181610b9f015261012051818181610370015281816106e801528181610a120152818161140501528181611a200152611f3f0152610140518181816103b00152818161063b015281816109c301528181610b6d01528181610ce6015281816112ab0152818161162d0152611e920152f35b6341bc07ff60e11b5f5260045ffd5b5f80fd5b601f909101601f19168101906001600160401b038211908210176101e257604052565b634e487b7160e01b5f52604160045260245ffd5b6020818303126101bb578051906001600160401b0382116101bb5701906080828203126101bb5760405191608083016001600160401b038111848210176101e2576040528051835260208101516001600160a01b03811681036101bb576020840152604081015180151581036101bb5760408401526060810151906001600160401b0382116101bb570181601f820112156101bb578051906001600160401b0382116101e257604051926102b4601f8401601f1916602001856101bf565b828452602083830101116101bb57815f9260208093018386015e83010152606082015290565b929160405190602082018351926103246015602083818901978089885e810160018060601b03198860601b1683820152600160f81b60348201520301600a198101845201826101bf565b5190206040516351753e3760e11b81526004810182905290956001600160a01b031693905f81602481885afa80156104355787915f9161049b575b505114610495579060846020926040519485938492630c1af44f60e31b8452606060048501525180928160648601528585015e5f84838501015260018060a01b0316602483015260016044830152601f801991011681010301815f865af15f9181610461575b5061044057505f602491604051928380926351753e3760e11b82528760048301525afa80156104355783915f91610413575b5051146104115750639e6113d560e01b5f5260045260245ffd5b565b61042f91503d805f833e61042781836101bf565b8101906101f6565b5f6103f7565b6040513d5f823e3d90fd5b9192809150820361044f575090565b639e6113d560e01b5f5260045260245ffd5b9091506020813d60201161048d575b8161047d602093836101bf565b810103126101bb5751905f6103c5565b3d9150610470565b50505050565b6104af91503d805f833e61042781836101bf565b5f61035f56fe60806040526004361015610027575b3615610018575f80fd5b631574f9f360e01b5f5260045ffd5b5f5f3560e01c80632c713cd914610df757806354fd4d5014610d095780635bf2f20d14610ccf5780636b122fe014610b2e5780637d2c2931146109945780638371ef591461093557806388e5b2d9146108e7578063891d9ea81461090657806391db0b7e146108e7578063a4f0d5171461087a578063b3b902d4146104c5578063c1e4a7101461043b578063c6ec50701461032f578063c93844be14610258578063ce46e0461461023c578063e49617e114610221578063e60c3505146102215763e6c9714d146100f8575061000e565b3461021a57606036600319011261021a57600435906001600160401b03821161021a57610140600319833603011261021a576040519161013783610e98565b806004013583526024810135602084015261015460448201610ff5565b604084015261016560648201610ff5565b606084015261017660848201610ff5565b608084015260a481013560a084015261019160c48201611036565b60c08401526101a260e48201611036565b60e0840152610104810135801515810361021d576101008401526101248101356001600160401b03811161021d576101df91369101600401610f41565b610120830152602435906001600160401b03821161021a5760206102108461020a3660048701610f41565b9061162b565b6040519015158152f35b80fd5b8280fd5b602061021061022f36611094565b610237611aa8565b611ae9565b503461021a578060031936011261021a57602090604051908152f35b503461021a57602036600319011261021a576004356001600160401b03811161032b57610289903690600401611009565b610294929192611607565b5082019160208184031261032b578035906001600160401b03821161021d57019160808382031261032b57604051916102cc83610e4e565b6102d584611036565b83526020840135906001600160401b03821161021a5750926102fe606092610327958301610f41565b602084015261030f60408201611036565b6040840152013560608201526040519182918261104a565b0390f35b5080fd5b503461021a57602036600319011261021a57610349611607565b506103526118c1565b506040516328c44a9960e21b815260048035908201529080826024817f00000000000000000000000000000000000000000000000000000000000000006001600160a01b03165afa91821561042e57819261040a575b5060208201517f0000000000000000000000000000000000000000000000000000000000000000036103fb576103276103ef61012084015160208082518301019101611139565b6040519182918261104a565b635527981560e11b8152600490fd5b6104279192503d8084833e61041f8183610ecf565b81019061191f565b905f6103a8565b50604051903d90823e3d90fd5b503461021a57606036600319011261021a576004356001600160401b03811161032b576080600319823603011261032b57610474610fdf565b604435929091906001600160a01b038416840361021a5760206104bd85856104aa6104b88760405192839160040188830161156f565b03601f198101835282610ecf565b611d55565b604051908152f35b50606036600319011261021a576004356001600160401b03811161032b576104f4610506913690600401611009565b91906104fe610fdf565b923691610f0b565b61050e611889565b6105216020825183010160208301611139565b6040818101805191516370a0823160e01b81523060048201529091602090829060249082906001600160a01b03165afa90811561086f57869161083d575b50815160609390930180516040516323b872dd60e01b8952336004523060245260449190915290936001600160a01b031660208860648180855af1906001895114821615610830575b50816040528760605260208260248160018060a01b038851166370a0823160e01b82523060048301525afa9182156108255788926107ed575b50159182156107d7575b50506107a15750506001600160401b036040519261060884610eb4565b33845216602083015260016040830152604435606083015260808201528160a0820152602060405161063981610e7d565b7f000000000000000000000000000000000000000000000000000000000000000081528181019283526040518093819263f17325e760e01b8352846004840152516024830152516040604483015260018060a01b0381511660648301526001600160401b03848201511660848301526040810151151560a4830152606081015160c483015260a06106da608083015160c060e4860152610124850190610e2a565b9101516101048301520381857f00000000000000000000000000000000000000000000000000000000000000006001600160a01b03165af1908115610796578291610763575b50602091817f8f7f2dbafd79125e808bf16a53d7fa4e17b8b6374ced76d946a45f94b7bf4d06339280a360015f51602061206f5f395f51905f5255604051908152f35b90506020813d60201161078e575b8161077e60209383610ecf565b8101031261032b57516020610720565b3d9150610771565b6040513d84823e3d90fd5b519051604051634a73404560e11b81526001600160a01b0390921660048301523360248301523060448301526064820152608490fd5b6107e5919250845190611b74565b115f806105eb565b9091506020813d60201161081d575b8161080960209383610ecf565b810103126108195751905f6105e1565b5f80fd5b3d91506107fc565b6040513d8a823e3d90fd5b3b15153d1516165f6105a8565b90506020813d602011610867575b8161085860209383610ecf565b8101031261081957515f61055f565b3d915061084b565b6040513d88823e3d90fd5b503461021a57604036600319011261021a57600435906001600160401b03821161021a576080600319833603011261021a5760206104bd6108d2846108e06108c0610fdf565b9160405193849160040187830161156f565b03601f198101845283610ecf565b3391611d55565b60206102106108f536610f8f565b92610901929192611aa8565b6111e2565b503461021a5761032761092161091b36610e14565b90611286565b604051918291602083526020830190610e2a565b503461021a57602036600319011261021a57600435906001600160401b03821161021a5761096e6109693660048501610f41565b6111b9565b604080516001600160a01b03909316835260208301819052829161032791830190610e2a565b503461081957602036600319011261081957600435906109b2611889565b6109bb826119fa565b9160208301517f0000000000000000000000000000000000000000000000000000000000000000809103610b1f57606084016001600160401b0381511615610b1057516001600160401b03164210610b10576040517f00000000000000000000000000000000000000000000000000000000000000006001600160a01b031690610a4481610e7d565b8381525f602082015260405192610a5a84610e7d565b83526020830152803b1561081957604051634692626760e01b815282516004820152602092830151805160248301529092015160448301525f908290606490829084905af19081610afb575b50610abe5763614cf93960e01b825260045260249150fd5b61012083015160c0840151610ade916001600160a01b0390911690611b95565b5060015f51602061206f5f395f51905f5255602060405160018152f35b610b089193505f90610ecf565b5f915f610aa6565b637bf6a16f60e01b5f5260045ffd5b63629cd40b60e11b5f5260045ffd5b34610819575f36600319011261081957606080604051610b4d81610e4e565b5f81525f60208201525f604082015201526040516351753e3760e11b81527f000000000000000000000000000000000000000000000000000000000000000060048201525f8160248160018060a01b037f0000000000000000000000000000000000000000000000000000000000000000165afa8015610cc4575f90610c14575b606090610327604051928392602084528051602085015260018060a01b0360208201511660408501526040810151151582850152015160808084015260a0830190610e2a565b503d805f833e610c248183610ecf565b810190602081830312610819578051906001600160401b03821161081957016080818303126108195760405190610c5a82610e4e565b8051825260208101516001600160a01b0381168103610819576020830152610c84604082016110c8565b60408301526060810151906001600160401b038211610819570182601f8201121561081957606092816020610cbb935191016110d5565b82820152610bce565b6040513d5f823e3d90fd5b34610819575f3660031901126108195760206040517f00000000000000000000000000000000000000000000000000000000000000008152f35b34610819575f3660031901126108195761032760206109216001610d4c7f000000000000000000000000000000000000000000000000000000000000000061171c565b8184610d777f000000000000000000000000000000000000000000000000000000000000000061171c565b8180610da27f000000000000000000000000000000000000000000000000000000000000000061171c565b9260405199878b985191829101848a015e870190601760f91b83830152805192839101602183015e010190601760f91b84830152805192839101600283015e01015f838201520301601f198101835282610ecf565b3461081957610e0861091b36610e14565b50602060405160018152f35b6040906003190112610819576004359060243590565b805180835260209291819084018484015e5f828201840152601f01601f1916010190565b608081019081106001600160401b03821117610e6957604052565b634e487b7160e01b5f52604160045260245ffd5b604081019081106001600160401b03821117610e6957604052565b61014081019081106001600160401b03821117610e6957604052565b60c081019081106001600160401b03821117610e6957604052565b90601f801991011681019081106001600160401b03821117610e6957604052565b6001600160401b038111610e6957601f01601f191660200190565b929192610f1782610ef0565b91610f256040519384610ecf565b829481845281830111610819578281602093845f960137010152565b9080601f8301121561081957816020610f5c93359101610f0b565b90565b9181601f84011215610819578235916001600160401b038311610819576020808501948460051b01011161081957565b6040600319820112610819576004356001600160401b0381116108195781610fb991600401610f5f565b92909291602435906001600160401b03821161081957610fdb91600401610f5f565b9091565b602435906001600160401b038216820361081957565b35906001600160401b038216820361081957565b9181601f84011215610819578235916001600160401b038311610819576020838186019501011161081957565b35906001600160a01b038216820361081957565b6020815260018060a01b03825116602082015260806060611079602085015183604086015260a0850190610e2a565b60408501516001600160a01b03168483015293015191015290565b602060031982011261081957600435906001600160401b038211610819576101409082900360031901126108195760040190565b5190811515820361081957565b9291926110e182610ef0565b916110ef6040519384610ecf565b829481845281830111610819578281602093845f96015e010152565b51906001600160a01b038216820361081957565b9080601f83011215610819578151610f5c926020016110d5565b602081830312610819578051906001600160401b038211610819570190608082820312610819576040519161116d83610e4e565b6111768161110b565b835260208101516001600160401b0381116108195760609261119991830161111f565b60208401526111aa6040820161110b565b60408401520151606082015290565b6111cc9060208082518301019101611139565b80516020909101516001600160a01b0390911691565b929092818403611277575f91345b8584101561126c5781841015611258578360051b80860135908282116112495784013561013e19853603018112156108195761122d908501611ae9565b1561123e57600191039301926111f0565b505050505050505f90565b63044044a560e21b5f5260045ffd5b634e487b7160e01b5f52603260045260245ffd5b505050505050600190565b63251f56a160e21b5f5260045ffd5b61128e611889565b5f91611299826119fa565b906112a3816119fa565b9160208101517f0000000000000000000000000000000000000000000000000000000000000000809103610b1f576112da82611b02565b15610b1f576101208201916112ef83516111b9565b60a08701918251845103611526578760209360c0936113d76101209751916113c5604051998a988997889763e6c9714d60e01b8952606060048a0152815160648a01528c82015160848a01526001600160401b0360408301511660a48a01526001600160401b0360608301511660c48a01526001600160401b0360808301511660e48a015251610104890152019e8f60018060a01b0390511661012488015260018060a01b0360e082015116610144880152610100810151151561016488015201516101406101848701526101a4860190610e2a565b84810360031901602486015290610e2a565b604483019190915203916001600160a01b03165afa908115610cc4575f91611535575b5015611526576040517f00000000000000000000000000000000000000000000000000000000000000006001600160a01b03169061143781610e7d565b8681525f60208201526040519261144d84610e7d565b83526020830152803b1561081957604051634692626760e01b815282516004820152602092830151805160248301529092015160448301525f908290606490829084905af19081611511575b506114b25763614cf93960e01b85526004849052602485fd5b51825192949391927ff96e77bc177ae8e2ff25185e7c6d85f8ba97c8bdd9d46933aac70a7a33edf6c0916114ef916001600160a01b031690611b95565b94516001600160a01b03169380a49060015f51602061206f5f395f51905f5255565b61151e9196505f90610ecf565b5f945f611499565b630ebe58ef60e11b5f5260045ffd5b90506020813d602011611567575b8161155060209383610ecf565b8101031261081957611561906110c8565b5f6113fa565b3d9150611543565b602081526001600160a01b0361158483611036565b1660208201526020820135601e19833603018112156108195782016020813591016001600160401b0382116108195781360381136108195760c09382606092608060408701528160a0870152868601375f8484018601526001600160a01b036115ef60408301611036565b168483015201356080830152601f01601f1916010190565b6040519061161482610e4e565b5f6060838281528160208201528260408201520152565b7f000000000000000000000000000000000000000000000000000000000000000060208201510361170d5761165f81611b02565b156117075761167f61012061168f92015160208082518301019101611139565b9160208082518301019101611139565b604082810151908201516001600160a01b0390811691161491826116f3575b826116da575b826116be57505090565b6020919250810151818151910120910151602081519101201490565b805182516001600160a01b0390811691161492506116b4565b9150606082015160608201511115916116ae565b50505f90565b635f9bd90760e11b5f5260045ffd5b805f9172184f03e93ff9f4daa797ed6e38ed64bf6a1f0160401b821015611866575b806d04ee2d6d415b85acef8100000000600a92101561184b575b662386f26fc10000811015611837575b6305f5e100811015611826575b612710811015611817575b6064811015611809575b10156117fe575b600a602160018401936117a385610ef0565b946117b16040519687610ecf565b8086526117c0601f1991610ef0565b013660208701378401015b5f1901916f181899199a1a9b1b9c1cb0b131b232b360811b8282061a83530480156117f957600a90916117cb565b505090565b600190910190611791565b60646002910493019261178a565b61271060049104930192611780565b6305f5e10060089104930192611775565b662386f26fc1000060109104930192611768565b6d04ee2d6d415b85acef810000000060209104930192611758565b506040915072184f03e93ff9f4daa797ed6e38ed64bf6a1f0160401b810461173e565b60025f51602061206f5f395f51905f5254146118b25760025f51602061206f5f395f51905f5255565b633ee5aeb560e01b5f5260045ffd5b604051906118ce82610e98565b6060610120835f81525f60208201525f60408201525f838201525f60808201525f60a08201525f60c08201525f60e08201525f6101008201520152565b51906001600160401b038216820361081957565b602081830312610819578051906001600160401b038211610819570161014081830312610819576040519161195383610e98565b815183526020820151602084015261196d6040830161190b565b604084015261197e6060830161190b565b606084015261198f6080830161190b565b608084015260a082015160a08401526119aa60c0830161110b565b60c08401526119bb60e0830161110b565b60e08401526119cd61010083016110c8565b6101008401526101208201516001600160401b038111610819576119f1920161111f565b61012082015290565b90611a036118c1565b506040516328c44a9960e21b815260048101839052915f836024817f00000000000000000000000000000000000000000000000000000000000000006001600160a01b03165afa928315610cc4575f93611a8c575b508251818115918215611a81575b5050611a6f5750565b6301fb6dd160e01b5f5260045260245ffd5b14159050815f611a66565b611aa19193503d805f833e61041f8183610ecf565b915f611a58565b7f00000000000000000000000000000000000000000000000000000000000000006001600160a01b03163303611ada57565b634ca8886760e01b5f5260045ffd5b60e0013560018060a01b03811680910361081957301490565b805115611b65576001600160401b036060820151168015159081611b5a575b50611b4b57608001516001600160401b0316611b3c57600190565b637b6227e960e11b5f5260045ffd5b631ab7da6b60e01b5f5260045ffd5b90504210155f611b21565b635c2c7f8960e01b5f5260045ffd5b91908201809211611b8157565b634e487b7160e01b5f52601160045260245ffd5b611ba89060208082518301019101611139565b6040818101805191516370a0823160e01b81526001600160a01b038581166004830181905294929391929160209184916024918391165afa918215610cc4575f92611d21575b50606060018060a01b038451169101938451916040519263a9059cbb60e01b5f52826004526024528260205f60448180865af19160015f5114831615611d0f575b50602481602093948160405260018060a01b03895116906370a0823160e01b835260048301525afa918215610cc4575f92611cdb575b5015918215611cc5575b5050611c8c57505050604051611c86602082610ecf565b5f815290565b519051604051634a73404560e11b81526001600160a01b0392831660048201523060248201529290911660448301526064820152608490fd5b611cd3919250845190611b74565b115f80611c6f565b9091506020813d602011611d07575b81611cf760209383610ecf565b810103126108195751905f611c65565b3d9150611cea565b3d15903b151516909116906024611c2f565b9091506020813d602011611d4d575b81611d3d60209383610ecf565b810103126108195751905f611bee565b3d9150611d30565b611d5d611889565b611d706020825183010160208301611139565b6040818101805191516370a0823160e01b81523060048201529091602090829060249082906001600160a01b03165afa908115610cc4575f9161203c575b50606060018060a01b03835116930192835190604051916323b872dd60e01b5f52336004523060245260445260205f60648180855af19060015f511482161561202f575b5060408290525f60605283516370a0823160e01b8352306004840152602090839060249082906001600160a01b03165afa918215610cc4575f92611ffb575b5015918215611fe5575b50506107a15750506001600160401b0360405193611e5885610eb4565b60018060a01b031692838552166020840152600160408401525f606084015260808301525f60a08301526020604051611e9081610e7d565b7f000000000000000000000000000000000000000000000000000000000000000081528181019384526040518094819263f17325e760e01b8352846004840152516024830152516040604483015260018060a01b0381511660648301526001600160401b03848201511660848301526040810151151560a4830152606081015160c483015260a0611f31608083015160c060e4860152610124850190610e2a565b91015161010483015203815f7f00000000000000000000000000000000000000000000000000000000000000006001600160a01b03165af1918215610cc4575f92611fb1575b50817f8f7f2dbafd79125e808bf16a53d7fa4e17b8b6374ced76d946a45f94b7bf4d065f80a39060015f51602061206f5f395f51905f5255565b9091506020813d602011611fdd575b81611fcd60209383610ecf565b810103126108195751905f611f77565b3d9150611fc0565b611ff3919250845190611b74565b115f80611e3b565b9091506020813d602011612027575b8161201760209383610ecf565b810103126108195751905f611e31565b3d915061200a565b3b15153d1516165f611df2565b90506020813d602011612066575b8161205760209383610ecf565b8101031261081957515f611dae565b3d915061204a56fe9b779b17422d0df92223018b32b4d1fa46e071723d6817e2486d003becc55f00a264697066735822122003d6ff8534836d80f7a96ddf03bf3c834147c61b89058371289afe57cdf2a95e64736f6c634300081b0033",
    "linkReferences": {}
  },
  "methodIdentifiers": {
    "ATTESTATION_SCHEMA()": "5bf2f20d",
    "attest((bytes32,bytes32,uint64,uint64,uint64,bytes32,address,address,bool,bytes))": "e60c3505",
    "checkObligation((bytes32,bytes32,uint64,uint64,uint64,bytes32,address,address,bool,bytes),bytes,bytes32)": "e6c9714d",
    "collectEscrow(bytes32,bytes32)": "2c713cd9",
    "collectEscrowRaw(bytes32,bytes32)": "891d9ea8",
    "decodeObligationData(bytes)": "c93844be",
    "doObligation((address,bytes,address,uint256),uint64)": "a4f0d517",
    "doObligationFor((address,bytes,address,uint256),uint64,address)": "c1e4a710",
    "doObligationRaw(bytes,uint64,bytes32)": "b3b902d4",
    "extractArbiterAndDemand(bytes)": "8371ef59",
    "getObligationData(bytes32)": "c6ec5070",
    "getSchema()": "6b122fe0",
    "isPayable()": "ce46e046",
    "multiAttest((bytes32,bytes32,uint64,uint64,uint64,bytes32,address,address,bool,bytes)[],uint256[])": "91db0b7e",
    "multiRevoke((bytes32,bytes32,uint64,uint64,uint64,bytes32,address,address,bool,bytes)[],uint256[])": "88e5b2d9",
    "reclaimExpired(bytes32)": "7d2c2931",
    "revoke((bytes32,bytes32,uint64,uint64,uint64,bytes32,address,address,bool,bytes))": "e49617e1",
    "version()": "54fd4d50"
  },
  "id": 79
}