{"abi":[{"type":"constructor","inputs":[{"name":"_eas","type":"address","internalType":"contract IEAS"},{"name":"_schemaRegistry","type":"address","internalType":"contract ISchemaRegistry"}],"stateMutability":"nonpayable"},{"type":"receive","stateMutability":"payable"},{"type":"function","name":"ATTESTATION_SCHEMA","inputs":[],"outputs":[{"name":"","type":"bytes32","internalType":"bytes32"}],"stateMutability":"view"},{"type":"function","name":"attest","inputs":[{"name":"attestation","type":"tuple","internalType":"struct Attestation","components":[{"name":"uid","type":"bytes32","internalType":"bytes32"},{"name":"schema","type":"bytes32","internalType":"bytes32"},{"name":"time","type":"uint64","internalType":"uint64"},{"name":"expirationTime","type":"uint64","internalType":"uint64"},{"name":"revocationTime","type":"uint64","internalType":"uint64"},{"name":"refUID","type":"bytes32","internalType":"bytes32"},{"name":"recipient","type":"address","internalType":"address"},{"name":"attester","type":"address","internalType":"address"},{"name":"revocable","type":"bool","internalType":"bool"},{"name":"data","type":"bytes","internalType":"bytes"}]}],"outputs":[{"name":"","type":"bool","internalType":"bool"}],"stateMutability":"payable"},{"type":"function","name":"checkObligation","inputs":[{"name":"obligation","type":"tuple","internalType":"struct Attestation","components":[{"name":"uid","type":"bytes32","internalType":"bytes32"},{"name":"schema","type":"bytes32","internalType":"bytes32"},{"name":"time","type":"uint64","internalType":"uint64"},{"name":"expirationTime","type":"uint64","internalType":"uint64"},{"name":"revocationTime","type":"uint64","internalType":"uint64"},{"name":"refUID","type":"bytes32","internalType":"bytes32"},{"name":"recipient","type":"address","internalType":"address"},{"name":"attester","type":"address","internalType":"address"},{"name":"revocable","type":"bool","internalType":"bool"},{"name":"data","type":"bytes","internalType":"bytes"}]},{"name":"demand","type":"bytes","internalType":"bytes"},{"name":"","type":"bytes32","internalType":"bytes32"}],"outputs":[{"name":"","type":"bool","internalType":"bool"}],"stateMutability":"view"},{"type":"function","name":"collectEscrow","inputs":[{"name":"escrow","type":"bytes32","internalType":"bytes32"},{"name":"fulfillment","type":"bytes32","internalType":"bytes32"}],"outputs":[{"name":"","type":"bool","internalType":"bool"}],"stateMutability":"nonpayable"},{"type":"function","name":"collectEscrowRaw","inputs":[{"name":"_escrow","type":"bytes32","internalType":"bytes32"},{"name":"_fulfillment","type":"bytes32","internalType":"bytes32"}],"outputs":[{"name":"","type":"bytes","internalType":"bytes"}],"stateMutability":"nonpayable"},{"type":"function","name":"decodeObligationData","inputs":[{"name":"data","type":"bytes","internalType":"bytes"}],"outputs":[{"name":"","type":"tuple","internalType":"struct TokenBundleEscrowObligation.ObligationData","components":[{"name":"arbiter","type":"address","internalType":"address"},{"name":"demand","type":"bytes","internalType":"bytes"},{"name":"nativeAmount","type":"uint256","internalType":"uint256"},{"name":"erc20Tokens","type":"address[]","internalType":"address[]"},{"name":"erc20Amounts","type":"uint256[]","internalType":"uint256[]"},{"name":"erc721Tokens","type":"address[]","internalType":"address[]"},{"name":"erc721TokenIds","type":"uint256[]","internalType":"uint256[]"},{"name":"erc1155Tokens","type":"address[]","internalType":"address[]"},{"name":"erc1155TokenIds","type":"uint256[]","internalType":"uint256[]"},{"name":"erc1155Amounts","type":"uint256[]","internalType":"uint256[]"}]}],"stateMutability":"pure"},{"type":"function","name":"doObligation","inputs":[{"name":"data","type":"tuple","internalType":"struct TokenBundleEscrowObligation.ObligationData","components":[{"name":"arbiter","type":"address","internalType":"address"},{"name":"demand","type":"bytes","internalType":"bytes"},{"name":"nativeAmount","type":"uint256","internalType":"uint256"},{"name":"erc20Tokens","type":"address[]","internalType":"address[]"},{"name":"erc20Amounts","type":"uint256[]","internalType":"uint256[]"},{"name":"erc721Tokens","type":"address[]","internalType":"address[]"},{"name":"erc721TokenIds","type":"uint256[]","internalType":"uint256[]"},{"name":"erc1155Tokens","type":"address[]","internalType":"address[]"},{"name":"erc1155TokenIds","type":"uint256[]","internalType":"uint256[]"},{"name":"erc1155Amounts","type":"uint256[]","internalType":"uint256[]"}]},{"name":"expirationTime","type":"uint64","internalType":"uint64"}],"outputs":[{"name":"","type":"bytes32","internalType":"bytes32"}],"stateMutability":"payable"},{"type":"function","name":"doObligationFor","inputs":[{"name":"data","type":"tuple","internalType":"struct TokenBundleEscrowObligation.ObligationData","components":[{"name":"arbiter","type":"address","internalType":"address"},{"name":"demand","type":"bytes","internalType":"bytes"},{"name":"nativeAmount","type":"uint256","internalType":"uint256"},{"name":"erc20Tokens","type":"address[]","internalType":"address[]"},{"name":"erc20Amounts","type":"uint256[]","internalType":"uint256[]"},{"name":"erc721Tokens","type":"address[]","internalType":"address[]"},{"name":"erc721TokenIds","type":"uint256[]","internalType":"uint256[]"},{"name":"erc1155Tokens","type":"address[]","internalType":"address[]"},{"name":"erc1155TokenIds","type":"uint256[]","internalType":"uint256[]"},{"name":"erc1155Amounts","type":"uint256[]","internalType":"uint256[]"}]},{"name":"expirationTime","type":"uint64","internalType":"uint64"},{"name":"recipient","type":"address","internalType":"address"}],"outputs":[{"name":"","type":"bytes32","internalType":"bytes32"}],"stateMutability":"payable"},{"type":"function","name":"doObligationRaw","inputs":[{"name":"data","type":"bytes","internalType":"bytes"},{"name":"expirationTime","type":"uint64","internalType":"uint64"},{"name":"refUID","type":"bytes32","internalType":"bytes32"}],"outputs":[{"name":"uid_","type":"bytes32","internalType":"bytes32"}],"stateMutability":"payable"},{"type":"function","name":"extractArbiterAndDemand","inputs":[{"name":"data","type":"bytes","internalType":"bytes"}],"outputs":[{"name":"arbiter","type":"address","internalType":"address"},{"name":"demand","type":"bytes","internalType":"bytes"}],"stateMutability":"pure"},{"type":"function","name":"getObligationData","inputs":[{"name":"uid","type":"bytes32","internalType":"bytes32"}],"outputs":[{"name":"","type":"tuple","internalType":"struct TokenBundleEscrowObligation.ObligationData","components":[{"name":"arbiter","type":"address","internalType":"address"},{"name":"demand","type":"bytes","internalType":"bytes"},{"name":"nativeAmount","type":"uint256","internalType":"uint256"},{"name":"erc20Tokens","type":"address[]","internalType":"address[]"},{"name":"erc20Amounts","type":"uint256[]","internalType":"uint256[]"},{"name":"erc721Tokens","type":"address[]","internalType":"address[]"},{"name":"erc721TokenIds","type":"uint256[]","internalType":"uint256[]"},{"name":"erc1155Tokens","type":"address[]","internalType":"address[]"},{"name":"erc1155TokenIds","type":"uint256[]","internalType":"uint256[]"},{"name":"erc1155Amounts","type":"uint256[]","internalType":"uint256[]"}]}],"stateMutability":"view"},{"type":"function","name":"getSchema","inputs":[],"outputs":[{"name":"","type":"tuple","internalType":"struct SchemaRecord","components":[{"name":"uid","type":"bytes32","internalType":"bytes32"},{"name":"resolver","type":"address","internalType":"contract ISchemaResolver"},{"name":"revocable","type":"bool","internalType":"bool"},{"name":"schema","type":"string","internalType":"string"}]}],"stateMutability":"view"},{"type":"function","name":"isPayable","inputs":[],"outputs":[{"name":"","type":"bool","internalType":"bool"}],"stateMutability":"pure"},{"type":"function","name":"multiAttest","inputs":[{"name":"attestations","type":"tuple[]","internalType":"struct Attestation[]","components":[{"name":"uid","type":"bytes32","internalType":"bytes32"},{"name":"schema","type":"bytes32","internalType":"bytes32"},{"name":"time","type":"uint64","internalType":"uint64"},{"name":"expirationTime","type":"uint64","internalType":"uint64"},{"name":"revocationTime","type":"uint64","internalType":"uint64"},{"name":"refUID","type":"bytes32","internalType":"bytes32"},{"name":"recipient","type":"address","internalType":"address"},{"name":"attester","type":"address","internalType":"address"},{"name":"revocable","type":"bool","internalType":"bool"},{"name":"data","type":"bytes","internalType":"bytes"}]},{"name":"values","type":"uint256[]","internalType":"uint256[]"}],"outputs":[{"name":"","type":"bool","internalType":"bool"}],"stateMutability":"payable"},{"type":"function","name":"multiRevoke","inputs":[{"name":"attestations","type":"tuple[]","internalType":"struct Attestation[]","components":[{"name":"uid","type":"bytes32","internalType":"bytes32"},{"name":"schema","type":"bytes32","internalType":"bytes32"},{"name":"time","type":"uint64","internalType":"uint64"},{"name":"expirationTime","type":"uint64","internalType":"uint64"},{"name":"revocationTime","type":"uint64","internalType":"uint64"},{"name":"refUID","type":"bytes32","internalType":"bytes32"},{"name":"recipient","type":"address","internalType":"address"},{"name":"attester","type":"address","internalType":"address"},{"name":"revocable","type":"bool","internalType":"bool"},{"name":"data","type":"bytes","internalType":"bytes"}]},{"name":"values","type":"uint256[]","internalType":"uint256[]"}],"outputs":[{"name":"","type":"bool","internalType":"bool"}],"stateMutability":"payable"},{"type":"function","name":"onERC1155BatchReceived","inputs":[{"name":"","type":"address","internalType":"address"},{"name":"","type":"address","internalType":"address"},{"name":"","type":"uint256[]","internalType":"uint256[]"},{"name":"","type":"uint256[]","internalType":"uint256[]"},{"name":"","type":"bytes","internalType":"bytes"}],"outputs":[{"name":"","type":"bytes4","internalType":"bytes4"}],"stateMutability":"nonpayable"},{"type":"function","name":"onERC1155Received","inputs":[{"name":"","type":"address","internalType":"address"},{"name":"","type":"address","internalType":"address"},{"name":"","type":"uint256","internalType":"uint256"},{"name":"","type":"uint256","internalType":"uint256"},{"name":"","type":"bytes","internalType":"bytes"}],"outputs":[{"name":"","type":"bytes4","internalType":"bytes4"}],"stateMutability":"nonpayable"},{"type":"function","name":"reclaimExpired","inputs":[{"name":"uid","type":"bytes32","internalType":"bytes32"}],"outputs":[{"name":"","type":"bool","internalType":"bool"}],"stateMutability":"nonpayable"},{"type":"function","name":"revoke","inputs":[{"name":"attestation","type":"tuple","internalType":"struct Attestation","components":[{"name":"uid","type":"bytes32","internalType":"bytes32"},{"name":"schema","type":"bytes32","internalType":"bytes32"},{"name":"time","type":"uint64","internalType":"uint64"},{"name":"expirationTime","type":"uint64","internalType":"uint64"},{"name":"revocationTime","type":"uint64","internalType":"uint64"},{"name":"refUID","type":"bytes32","internalType":"bytes32"},{"name":"recipient","type":"address","internalType":"address"},{"name":"attester","type":"address","internalType":"address"},{"name":"revocable","type":"bool","internalType":"bool"},{"name":"data","type":"bytes","internalType":"bytes"}]}],"outputs":[{"name":"","type":"bool","internalType":"bool"}],"stateMutability":"payable"},{"type":"function","name":"supportsInterface","inputs":[{"name":"interfaceId","type":"bytes4","internalType":"bytes4"}],"outputs":[{"name":"","type":"bool","internalType":"bool"}],"stateMutability":"view"},{"type":"function","name":"version","inputs":[],"outputs":[{"name":"","type":"string","internalType":"string"}],"stateMutability":"view"},{"type":"event","name":"ERC1155TransferFailedOnRelease","inputs":[{"name":"token","type":"address","indexed":true,"internalType":"address"},{"name":"to","type":"address","indexed":true,"internalType":"address"},{"name":"tokenId","type":"uint256","indexed":false,"internalType":"uint256"},{"name":"amount","type":"uint256","indexed":false,"internalType":"uint256"}],"anonymous":false},{"type":"event","name":"ERC20TransferFailedOnRelease","inputs":[{"name":"token","type":"address","indexed":true,"internalType":"address"},{"name":"to","type":"address","indexed":true,"internalType":"address"},{"name":"amount","type":"uint256","indexed":false,"internalType":"uint256"}],"anonymous":false},{"type":"event","name":"ERC721TransferFailedOnRelease","inputs":[{"name":"token","type":"address","indexed":true,"internalType":"address"},{"name":"to","type":"address","indexed":true,"internalType":"address"},{"name":"tokenId","type":"uint256","indexed":false,"internalType":"uint256"}],"anonymous":false},{"type":"event","name":"EscrowCollected","inputs":[{"name":"escrow","type":"bytes32","indexed":true,"internalType":"bytes32"},{"name":"fulfillment","type":"bytes32","indexed":true,"internalType":"bytes32"},{"name":"fulfiller","type":"address","indexed":true,"internalType":"address"}],"anonymous":false},{"type":"event","name":"EscrowMade","inputs":[{"name":"escrow","type":"bytes32","indexed":true,"internalType":"bytes32"},{"name":"buyer","type":"address","indexed":true,"internalType":"address"}],"anonymous":false},{"type":"event","name":"NativeTokenTransferFailed","inputs":[{"name":"to","type":"address","indexed":true,"internalType":"address"},{"name":"amount","type":"uint256","indexed":false,"internalType":"uint256"}],"anonymous":false},{"type":"error","name":"AccessDenied","inputs":[]},{"type":"error","name":"ArrayLengthMismatch","inputs":[]},{"type":"error","name":"AttestationNotFound","inputs":[{"name":"attestationId","type":"bytes32","internalType":"bytes32"}]},{"type":"error","name":"AttestationRevoked","inputs":[]},{"type":"error","name":"DeadlineExpired","inputs":[]},{"type":"error","name":"ERC1155TransferFailed","inputs":[{"name":"token","type":"address","internalType":"address"},{"name":"from","type":"address","internalType":"address"},{"name":"to","type":"address","internalType":"address"},{"name":"tokenId","type":"uint256","internalType":"uint256"},{"name":"amount","type":"uint256","internalType":"uint256"}]},{"type":"error","name":"ERC20TransferFailed","inputs":[{"name":"token","type":"address","internalType":"address"},{"name":"from","type":"address","internalType":"address"},{"name":"to","type":"address","internalType":"address"},{"name":"amount","type":"uint256","internalType":"uint256"}]},{"type":"error","name":"ERC721TransferFailed","inputs":[{"name":"token","type":"address","internalType":"address"},{"name":"from","type":"address","internalType":"address"},{"name":"to","type":"address","internalType":"address"},{"name":"tokenId","type":"uint256","internalType":"uint256"}]},{"type":"error","name":"InsufficientPayment","inputs":[{"name":"expected","type":"uint256","internalType":"uint256"},{"name":"received","type":"uint256","internalType":"uint256"}]},{"type":"error","name":"InsufficientValue","inputs":[]},{"type":"error","name":"InvalidEAS","inputs":[]},{"type":"error","name":"InvalidEscrowAttestation","inputs":[]},{"type":"error","name":"InvalidFulfillment","inputs":[]},{"type":"error","name":"InvalidLength","inputs":[]},{"type":"error","name":"InvalidSchema","inputs":[]},{"type":"error","name":"NotFromThisAttester","inputs":[]},{"type":"error","name":"NotPayable","inputs":[]},{"type":"error","name":"RevocationFailed","inputs":[{"name":"attestationId","type":"bytes32","internalType":"bytes32"}]},{"type":"error","name":"UnauthorizedCall","inputs":[]}],"bytecode":{"object":"0x61016080604052346102d85760408161387080380380916100208285610312565b8339810103126102d85780516001600160a01b038116918282036102d85760200151916001600160a01b0383168084036102d85760405161012081016001600160401b038111828210176102fe5760405260e2815260208101927f6164647265737320617262697465722c2062797465732064656d616e642c207584527f696e74323536206e6174697665416d6f756e742c20616464726573735b5d206560408301527f72633230546f6b656e732c2075696e743235365b5d206572633230416d6f756e60608301527f74732c20616464726573735b5d20657263373231546f6b656e732c2075696e7460808301527f3235365b5d20657263373231546f6b656e4964732c20616464726573735b5d2060a08301527f65726331313535546f6b656e732c2075696e743235365b5d206572633131353560c08301527f546f6b656e4964732c2075696e743235365b5d2065726331313535416d6f756e60e083015261747360f01b6101008301526001608052600360a0525f60c052156102ef576084948460209560e05261012052610100525f604051958680958194630c1af44f60e31b8352606060048401525180918160648501528484015e818101830184905230602483015260016044830152601f01601f191681010301925af19081156102e4575f916102ae575b506101405260405161353a9081610336823960805181611466015260a05181611491015260c051816114bc015260e05181612e2a0152610100518161127601526101205181818161054d01528181610e770152818161105d015281816120de0152612d5601526101405181818161058d01528181610dca015281816110ba01528181611244015281816113bd0152818161217e015281816124de0152612ca90152f35b90506020813d6020116102dc575b816102c960209383610312565b810103126102d857515f61020b565b5f80fd5b3d91506102bc565b6040513d5f823e3d90fd5b6341bc07ff60e11b5f5260045ffd5b634e487b7160e01b5f52604160045260245ffd5b601f909101601f19168101906001600160401b038211908210176102fe5760405256fe608080604052600436101561001c575b50361561001a575f80fd5b005b5f905f3560e01c90816301ffc9a714611546575080632c713cd91461153557806354fd4d501461144757806355b0769b146113e05780635bf2f20d146113a65780636b122fe0146112055780637d2c2931146110285780638371ef5914610fc957806388e5b2d914610f7b578063891d9ea814610f9a57806391db0b7e14610f7b578063b3b902d4146106ae578063bc197c8114610618578063c6ec50701461050c578063c93844be14610349578063ce46e0461461032d578063cf84e82c146102a7578063e49617e11461028c578063e60c35051461028c578063e6c9714d146101655763f23a6e610361000f57346101625760a0366003190112610162576101246117bb565b5061012d6117d1565b506084356001600160401b0381116101605761014d9036906004016116f0565b5060405163f23a6e6160e01b8152602090f35b505b80fd5b503461016257606036600319011261016257600435906001600160401b03821161016257610140600319833603011261016257604051916101a583611647565b80600401358352602481013560208401526101c2604482016115e9565b60408401526101d3606482016115e9565b60608401526101e4608482016115e9565b608084015260a481013560a08401526101ff60c482016117e7565b60c084015261021060e482016117e7565b60e08401526101048101358015158103610288576101008401526101248101356001600160401b0381116102885761024d913691016004016116f0565b610120830152602435906001600160401b03821161016257602061027e8461027836600487016116f0565b906124dc565b6040519015158152f35b8280fd5b602061027e61029a366119cb565b6102a2612e28565b612e69565b506060366003190112610162576004356001600160401b038111610160576101406003198236030112610160576102dc6115d3565b604435929091906001600160a01b0384168403610162576020610325858561031261032087604051928391600401888301611a96565b03601f19810183528261167e565b61272c565b604051908152f35b5034610162578060031936011261016257602090604051908152f35b5034610162576020366003190112610162576004356001600160401b0381116101605761037a90369060040161178e565b61038592919261242d565b50820191602081840312610160578035906001600160401b0382116102885701906101408284031261016257604051916103be83611647565b6103c7816117e7565b835260208101356001600160401b03811161028857846103e89183016116f0565b60208401526040810135604084015260608101356001600160401b0381116102885784610416918301612477565b606084015260808101356001600160401b038111610288578461043a918301611812565b608084015260a08101356001600160401b038111610288578461045e918301612477565b60a084015260c08101356001600160401b0381116102885784610482918301611812565b60c084015260e08101356001600160401b03811161028857846104a6918301612477565b60e08401526101008101356001600160401b03811161028857846104cb918301611812565b610100840152610120810135916001600160401b0383116101625750926104f6916105089401611812565b610120820152604051918291826118de565b0390f35b50346101625760203660031901126101625761052661242d565b5061052f611c59565b506040516328c44a9960e21b815260048035908201529080826024817f00000000000000000000000000000000000000000000000000000000000000006001600160a01b03165afa91821561060b5781926105e7575b5060208201517f0000000000000000000000000000000000000000000000000000000000000000036105d8576105086105cc61012084015160208082518301019101611e82565b604051918291826118de565b635527981560e11b8152600490fd5b6106049192503d8084833e6105fc818361167e565b810190611ce5565b905f610585565b50604051903d90823e3d90fd5b50346101625760a0366003190112610162576106326117bb565b5061063b6117d1565b506044356001600160401b0381116101605761065b903690600401611812565b506064356001600160401b0381116101605761067b903690600401611812565b506084356001600160401b0381116101605761069b9036906004016116f0565b5060405163bc197c8160e01b8152602090f35b506060366003190112610162576004356001600160401b03811161016057906106de6106f092369060040161178e565b92906106e86115d3565b9336916116ba565b916107046020845185010160208501611e82565b91606083019182515194608085019586515103610f6c5760a08501908151519160c087019283515103610f5d5760e087019182515194610100890195865151811490811591610f4c575b50610f3d57604089015180610f1f575b50865b8851805182101561087d5760206107c38d610792858d956107898260018060a01b03926132cd565b511692516132cd565b516040516323b872dd60e01b8152336004820152306024820152604481019190915293849283919082906064820190565b03925af189918161083e575b506108395750875b156107e457600101610761565b88518b91610800916001600160a01b03906107899083906132cd565b51604051634a73404560e11b81526001600160a01b039092166004830152336024830152306044830152606482015280608481015b0390fd5b6107d7565b9091506020813d8211610875575b816108596020938361167e565b810103126108715761086a90611c16565b905f6107cf565b8980fd5b3d915061084c565b505085929187918a83955b85518051881015610af0576001600160a01b03906108a79089906132cd565b511660206108b6898c516132cd565b516024604051809481936331a9108f60e11b835260048301525afa908115610ae5578691610aac575b50336001600160a01b0390911603610a945785516001600160a01b03906109079089906132cd565b5116610914888b516132cd565b51813b15610a64576040516323b872dd60e01b8152336004820152306024820152604481019190915290869081908390606490829084905af19182610a7b575b50506109a7578861097288886107898260018060a01b0392516132cd565b5160405163045b391760e01b81526001600160a01b039290921660048301523360248301523060448301526064820152608490fd5b90919293949560018060a01b036109bf8289516132cd565b511660206109ce838c516132cd565b516024604051809481936331a9108f60e11b835260048301525afa908115610a70578791610a33575b50306001600160a01b0390911603610a1757600101959493929190610888565b86518991610972916001600160a01b03906107899083906132cd565b90506020813d8211610a68575b81610a4d6020938361167e565b81010312610a6457610a5e90611cb7565b8a6109f7565b8680fd5b3d9150610a40565b6040513d89823e3d90fd5b81610a859161167e565b610a9057858b610954565b8580fd5b8861097288886107898260018060a01b0392516132cd565b90506020813d8211610add575b81610ac66020938361167e565b81010312610a9057610ad790611cb7565b8a6108df565b3d9150610ab9565b6040513d88823e3d90fd5b509087849386610120819401955b83518051861015610d8057610b5b906020906001600160a01b0390610b249089906132cd565b5116610b31888a516132cd565b51604051627eeac760e11b8152306004820152602481019190915292839190829081906044820190565b03915afa908115610d75578391610d44575b5084516001600160a01b0390610b849088906132cd565b5116610b918789516132cd565b5190610b9e888b516132cd565b5191813b15610a9057610bce928692839283604051809781958294637921219560e11b84523033600486016134cc565b03925af19182610d2b575b5050610c54578787610835610c1089610c08818b610bff8260018060a01b0392516132cd565b511695516132cd565b5194516132cd565b5160405163334a7d1b60e21b81526001600160a01b0390931660048401523360248401523060448401526064830193909352608482019290925290819060a4820190565b959490919295610c7e602060018060a01b03610c718589516132cd565b5116610b31858a516132cd565b03915afa908115610d20578591610ceb575b50610c9c838a516132cd565b518201809211610cd75710610cb75760010193949190610afe565b84610835610c1083610c088189610bff8e9860018060a01b0392516132cd565b634e487b7160e01b85526011600452602485fd5b90506020813d8211610d18575b81610d056020938361167e565b81010312610d14575189610c90565b5f80fd5b3d9150610cf8565b6040513d87823e3d90fd5b81610d359161167e565b610d4057838a610bd9565b8380fd5b90506020813d8211610d6d575b81610d5e6020938361167e565b81010312610d14575188610b6d565b3d9150610d51565b6040513d85823e3d90fd5b50604051906001600160401b0384610d9784611663565b33845216602083015260016040830152604435606083015260808201528160a08201526020604051610dc88161162c565b7f000000000000000000000000000000000000000000000000000000000000000081528181019283526040518093819263f17325e760e01b8352846004840152516024830152516040604483015260018060a01b0381511660648301526001600160401b03848201511660848301526040810151151560a4830152606081015160c483015260a0610e69608083015160c060e48601526101248501906115af565b9101516101048301520381857f00000000000000000000000000000000000000000000000000000000000000006001600160a01b03165af1908115610f14578291610ee1575b50602091817f8f7f2dbafd79125e808bf16a53d7fa4e17b8b6374ced76d946a45f94b7bf4d06339280a3604051908152f35b90506020813d602011610f0c575b81610efc6020938361167e565b8101031261016057516020610eaf565b3d9150610eef565b6040513d84823e3d90fd5b8034101561075e5763b99e2ab760e01b885260045234602452604487fd5b63512509d360e11b8752600487fd5b90506101208a01515114155f61074e565b63512509d360e11b8552600485fd5b63512509d360e11b8352600483fd5b602061027e610f893661173e565b92610f95929192612e28565b612010565b503461016257610508610fb5610faf36611599565b906120b4565b6040519182916020835260208301906115af565b503461016257602036600319011261016257600435906001600160401b03821161016257611002610ffd36600485016116f0565b611fe7565b604080516001600160a01b039093168352602083018190528291610508918301906115af565b5034610d14576020366003190112610d145760043590611046611c59565b506040516328c44a9960e21b8152600481018390527f00000000000000000000000000000000000000000000000000000000000000006001600160a01b031691905f81602481865afa5f91816111e9575b506110af57836301fb6dd160e01b5f5260045260245ffd5b8390926020840151907f00000000000000000000000000000000000000000000000000000000000000008092036111da57606085016001600160401b03815116156111cb57516001600160401b031642106111cb576040516111108161162c565b8381525f6020820152604051926111268461162c565b83526020830152803b15610d1457604051634692626760e01b815282516004820152602092830151805160248301529092015160448301525f908290606490829084905af190816111b6575b5061118a5763614cf93960e01b825260045260249150fd5b61012083015160c08401516111aa916001600160a01b0390911690612ede565b50602060405160018152f35b6111c39193505f9061167e565b5f9184611172565b637bf6a16f60e01b5f5260045ffd5b63629cd40b60e11b5f5260045ffd5b6111fe9192503d805f833e6105fc818361167e565b905f611097565b34610d14575f366003190112610d1457606080604051611224816115fd565b5f81525f60208201525f604082015201526040516351753e3760e11b81527f000000000000000000000000000000000000000000000000000000000000000060048201525f8160248160018060a01b037f0000000000000000000000000000000000000000000000000000000000000000165afa801561139b575f906112eb575b606090610508604051928392602084528051602085015260018060a01b0360208201511660408501526040810151151582850152015160808084015260a08301906115af565b503d805f833e6112fb818361167e565b810190602081830312610d14578051906001600160401b038211610d145701608081830312610d145760405190611331826115fd565b8051825260208101516001600160a01b0381168103610d1457602083015261135b60408201611c16565b60408301526060810151906001600160401b038211610d14570182601f82011215610d145760609281602061139293519101611c23565b828201526112a5565b6040513d5f823e3d90fd5b34610d14575f366003190112610d145760206040517f00000000000000000000000000000000000000000000000000000000000000008152f35b6040366003190112610d14576004356001600160401b038111610d14576101406003198236030112610d14576103256114326020926114406114206115d3565b91604051938491600401878301611a96565b03601f19810184528361167e565b339161272c565b34610d14575f366003190112610d14576105086020610fb5600161148a7f00000000000000000000000000000000000000000000000000000000000000006125bf565b81846114b57f00000000000000000000000000000000000000000000000000000000000000006125bf565b81806114e07f00000000000000000000000000000000000000000000000000000000000000006125bf565b9260405199878b985191829101848a015e870190601760f91b83830152805192839101602183015e010190601760f91b84830152805192839101600283015e01015f838201520301601f19810183528261167e565b34610d14576111aa610faf36611599565b34610d14576020366003190112610d14576004359063ffffffff60e01b8216809203610d1457602091630271189760e51b8114908115611588575b5015158152f35b6301ffc9a760e01b14905083611581565b6040906003190112610d14576004359060243590565b805180835260209291819084018484015e5f828201840152601f01601f1916010190565b602435906001600160401b0382168203610d1457565b35906001600160401b0382168203610d1457565b608081019081106001600160401b0382111761161857604052565b634e487b7160e01b5f52604160045260245ffd5b604081019081106001600160401b0382111761161857604052565b61014081019081106001600160401b0382111761161857604052565b60c081019081106001600160401b0382111761161857604052565b90601f801991011681019081106001600160401b0382111761161857604052565b6001600160401b03811161161857601f01601f191660200190565b9291926116c68261169f565b916116d4604051938461167e565b829481845281830111610d14578281602093845f960137010152565b9080601f83011215610d145781602061170b933591016116ba565b90565b9181601f84011215610d14578235916001600160401b038311610d14576020808501948460051b010111610d1457565b6040600319820112610d14576004356001600160401b038111610d1457816117689160040161170e565b92909291602435906001600160401b038211610d145761178a9160040161170e565b9091565b9181601f84011215610d14578235916001600160401b038311610d145760208381860195010111610d1457565b600435906001600160a01b0382168203610d1457565b602435906001600160a01b0382168203610d1457565b35906001600160a01b0382168203610d1457565b6001600160401b0381116116185760051b60200190565b9080601f83011215610d14578135611829816117fb565b92611837604051948561167e565b81845260208085019260051b820101928311610d1457602001905b82821061185f5750505090565b8135815260209182019101611852565b90602080835192838152019201905f5b81811061188c5750505090565b82516001600160a01b031684526020938401939092019160010161187f565b90602080835192838152019201905f5b8181106118c85750505090565b82518452602093840193909201916001016118bb565b9061170b916020815260018060a01b0382511660208201526101206119b561199f61198861197261195c61194661192660208a015161014060408b01526101608a01906115af565b60408a015160608a015260608a0151601f198a83030160808b015261186f565b6080890151888203601f190160a08a01526118ab565b60a0880151878203601f190160c089015261186f565b60c0870151868203601f190160e08801526118ab565b60e0860151858203601f190161010087015261186f565b610100850151848203601f1901848601526118ab565b92015190610140601f19828503019101526118ab565b6020600319820112610d1457600435906001600160401b038211610d1457610140908290036003190112610d145760040190565b9035601e1982360301811215610d145701602081359101916001600160401b038211610d14578160051b36038313610d1457565b916020908281520191905f5b818110611a4c5750505090565b909192602080600192838060a01b03611a64886117e7565b168152019401929101611a3f565b81835290916001600160fb1b038311610d145760209260051b809284830137010190565b60208152906001600160a01b03611aac826117e7565b1660208301526020810135601e1982360301811215610d14578101916020833593016001600160401b038411610d14578336038113610d1457611bf7611bd6611bb6611b97611b78611b598961170b9a611c039861014060408c0152816101608c01526101808b01375f610180828b010152601f8019910116880160408a013560608a0152610180611b4160608c018c6119ff565b919092601f19828d8303010160808d01520191611a33565b611b6660808a018a6119ff565b898303601f190160a08b015290611a72565b611b8560a08901896119ff565b888303601f190160c08a015290611a33565b611ba460c08801886119ff565b878303601f190160e089015290611a72565b611bc360e08701876119ff565b868303601f190161010088015290611a33565b611be46101008601866119ff565b858303601f190161012087015290611a72565b926101208101906119ff565b91610140601f1982860301910152611a72565b51908115158203610d1457565b929192611c2f8261169f565b91611c3d604051938461167e565b829481845281830111610d14578281602093845f96015e010152565b60405190611c6682611647565b6060610120835f81525f60208201525f60408201525f838201525f60808201525f60a08201525f60c08201525f60e08201525f6101008201520152565b51906001600160401b0382168203610d1457565b51906001600160a01b0382168203610d1457565b9080601f83011215610d1457815161170b92602001611c23565b602081830312610d14578051906001600160401b038211610d14570161014081830312610d145760405191611d1983611647565b8151835260208201516020840152611d3360408301611ca3565b6040840152611d4460608301611ca3565b6060840152611d5560808301611ca3565b608084015260a082015160a0840152611d7060c08301611cb7565b60c0840152611d8160e08301611cb7565b60e0840152611d936101008301611c16565b6101008401526101208201516001600160401b038111610d1457611db79201611ccb565b61012082015290565b9080601f83011215610d14578151611dd7816117fb565b92611de5604051948561167e565b81845260208085019260051b820101928311610d1457602001905b828210611e0d5750505090565b60208091611e1a84611cb7565b815201910190611e00565b9080601f83011215610d14578151611e3c816117fb565b92611e4a604051948561167e565b81845260208085019260051b820101928311610d1457602001905b828210611e725750505090565b8151815260209182019101611e65565b602081830312610d14578051906001600160401b038211610d14570161014081830312610d145760405191611eb683611647565b611ebf82611cb7565b835260208201516001600160401b038111610d145781611ee0918401611ccb565b60208401526040820151604084015260608201516001600160401b038111610d145781611f0e918401611dc0565b606084015260808201516001600160401b038111610d145781611f32918401611e25565b608084015260a08201516001600160401b038111610d145781611f56918401611dc0565b60a084015260c08201516001600160401b038111610d145781611f7a918401611e25565b60c084015260e08201516001600160401b038111610d145781611f9e918401611dc0565b60e08401526101008201516001600160401b038111610d145781611fc3918401611e25565b6101008401526101208201516001600160401b038111610d1457611db79201611e25565b611ffa9060208082518301019101611e82565b80516020909101516001600160a01b0390911691565b9290928184036120a5575f91345b8584101561209a5781841015612086578360051b80860135908282116120775784013561013e1985360301811215610d145761205b908501612e69565b1561206c576001910393019261201e565b505050505050505f90565b63044044a560e21b5f5260045ffd5b634e487b7160e01b5f52603260045260245ffd5b505050505050600190565b63251f56a160e21b5f5260045ffd5b915f6120be611c59565b506120c7611c59565b506040516328c44a9960e21b8152600481018590527f00000000000000000000000000000000000000000000000000000000000000006001600160a01b0316905f81602481855afa5f9181612411575b5061212f57856301fb6dd160e01b5f5260045260245ffd5b94919293946040516328c44a9960e21b81528660048201525f81602481865afa5f91816123f5575b5061216f57866301fb6dd160e01b5f5260045260245ffd5b959192939495926020820151907f00000000000000000000000000000000000000000000000000000000000000008092036111da576121ad83612e82565b156111da5761012083019283516121c390611fe7565b91516040805163e6c9714d60e01b81526060600482018190528a51606483015260208b01516084830152918a01516001600160401b0390811660a4830152918a0151821660c482015260808a015190911660e482015260a089015161010482015260c0890180516001600160a01b0390811661012484015260e08b0151166101448301526101008a015115156101648301526101209099015161014061018483015290938492839290919061227d906101a48501906115af565b838103600319016024850152612292916115af565b60448301919091526001600160a01b039093169203815a93602094fa90811561139b575f916123bb575b50156123ac576040516122ce8161162c565b8681525f6020820152604051926122e48461162c565b83526020830152803b15610d1457604051634692626760e01b815282516004820152602092830151805160248301529092015160448301525f908290606490829084905af19081612397575b506123495763614cf93960e01b85526004849052602485fd5b51825192949391927ff96e77bc177ae8e2ff25185e7c6d85f8ba97c8bdd9d46933aac70a7a33edf6c091612386916001600160a01b031690612ede565b94516001600160a01b03169380a490565b6123a49196505f9061167e565b5f945f612330565b630ebe58ef60e11b5f5260045ffd5b90506020813d6020116123ed575b816123d66020938361167e565b81010312610d14576123e790611c16565b5f6122bc565b3d91506123c9565b61240a9192503d805f833e6105fc818361167e565b905f612157565b6124269192503d805f833e6105fc818361167e565b905f612117565b6040519061243a82611647565b6060610120835f81528260208201525f604082015282808201528260808201528260a08201528260c08201528260e0820152826101008201520152565b9080601f83011215610d1457813561248e816117fb565b9261249c604051948561167e565b81845260208085019260051b820101928311610d1457602001905b8282106124c45750505090565b602080916124d1846117e7565b8152019101906124b7565b7f00000000000000000000000000000000000000000000000000000000000000006020820151036125b05761251081612e82565b156125aa5761253061012061254092015160208082518301019101611e82565b9160208082518301019101611e82565b6040820151604082015111159182612598575b8261257f575b8261256357505090565b6020919250810151818151910120910151602081519101201490565b805182516001600160a01b039081169116149250612559565b91506125a481836132e1565b91612553565b50505f90565b635f9bd90760e11b5f5260045ffd5b805f9172184f03e93ff9f4daa797ed6e38ed64bf6a1f0160401b821015612709575b806d04ee2d6d415b85acef8100000000600a9210156126ee575b662386f26fc100008110156126da575b6305f5e1008110156126c9575b6127108110156126ba575b60648110156126ac575b10156126a1575b600a602160018401936126468561169f565b94612654604051968761167e565b808652612663601f199161169f565b013660208701378401015b5f1901916f181899199a1a9b1b9c1cb0b131b232b360811b8282061a835304801561269c57600a909161266e565b505090565b600190910190612634565b60646002910493019261262d565b61271060049104930192612623565b6305f5e10060089104930192612618565b662386f26fc100006010910493019261260b565b6d04ee2d6d415b85acef8100000000602091049301926125fb565b506040915072184f03e93ff9f4daa797ed6e38ed64bf6a1f0160401b81046125e1565b9190916127426020825183010160208301611e82565b92606084019283515195608086019687515103612e085760a08601908151519360c088019485515103612e085760e0880197885151610100820190815151811490811591612e17575b50612e0857604082015180612dea575b505f5b895180518210156128435760206127c68e610792855f956107898260018060a01b03926132cd565b03925af15f9181612808575b5061280357505f5b156127e75760010161279e565b89518c91610800916001600160a01b03906107899083906132cd565b6127da565b9091506020813d821161283b575b816128236020938361167e565b81010312610d145761283490611c16565b905f6127d2565b3d9150612816565b5050929599509295965092965f965b86518051891015612a61576001600160a01b0390612871908a906132cd565b511660206128808a8d516132cd565b516024604051809481936331a9108f60e11b835260048301525afa90811561139b575f91612a28575b50336001600160a01b0390911603612a105786516001600160a01b03906128d1908a906132cd565b51166128de898c516132cd565b5190803b15610d14576040516323b872dd60e01b815233600482015230602482015260448101929092525f908290606490829084905af19081612a00575b50612939578961097289896107898260018060a01b0392516132cd565b9091929394959660018060a01b03612952828a516132cd565b51166020612961838d516132cd565b516024604051809481936331a9108f60e11b835260048301525afa90811561139b575f916129c7575b50306001600160a01b03909116036129ab5760010196959493929190612852565b87518a91610972916001600160a01b03906107899083906132cd565b90506020813d82116129f8575b816129e16020938361167e565b81010312610d14576129f290611cb7565b5f61298a565b3d91506129d4565b5f612a0a9161167e565b5f61291c565b8961097289896107898260018060a01b0392516132cd565b90506020813d8211612a59575b81612a426020938361167e565b81010312610d1457612a5390611cb7565b5f6128a9565b3d9150612a35565b50939498509450959094506101205f9501965b84518051871015612c5157612aa7906020906001600160a01b0390612a9a908a906132cd565b5116610b31898b516132cd565b03915afa90811561139b575f91612c20575b5085516001600160a01b0390612ad09089906132cd565b5116612add888a516132cd565b51612ae9898c516132cd565b51823b15610d1457612b16925f9283604051809681958294637921219560e11b84523033600486016134cc565b03925af19081612c10575b50612b46578888610835610c108a610c08818c610bff8260018060a01b0392516132cd565b96959091929396612b71602060018060a01b03612b64858a516132cd565b5116610b31858b516132cd565b03915afa90811561139b575f91612bdf575b50612b8f838b516132cd565b518201809211612bcb5710612bab576001019495929190612a74565b85610835610c1083610c08818a610bff8f9860018060a01b0392516132cd565b634e487b7160e01b5f52601160045260245ffd5b90506020813d8211612c08575b81612bf96020938361167e565b81010312610d1457515f612b83565b3d9150612bec565b5f612c1a9161167e565b5f612b21565b90506020813d8211612c49575b81612c3a6020938361167e565b81010312610d1457515f612ab9565b3d9150612c2d565b5095509550915091506001600160401b0360405194612c6f86611663565b60018060a01b031692838652166020850152600160408501525f606085015260808401525f60a08401526020604051612ca78161162c565b7f000000000000000000000000000000000000000000000000000000000000000081528181019485526040518095819263f17325e760e01b8352846004840152516024830152516040604483015260018060a01b0381511660648301526001600160401b03848201511660848301526040810151151560a4830152606081015160c483015260a0612d48608083015160c060e48601526101248501906115af565b91015161010483015203815f7f00000000000000000000000000000000000000000000000000000000000000006001600160a01b03165af192831561139b575f93612db6575b50827f8f7f2dbafd79125e808bf16a53d7fa4e17b8b6374ced76d946a45f94b7bf4d065f80a3565b9092506020813d602011612de2575b81612dd26020938361167e565b81010312610d145751915f612d8e565b3d9150612dc5565b8034101561279b5763b99e2ab760e01b5f526004523460245260445ffd5b63512509d360e11b5f5260045ffd5b90506101208301515114155f61278b565b7f00000000000000000000000000000000000000000000000000000000000000006001600160a01b03163303612e5a57565b634ca8886760e01b5f5260045ffd5b60e0013560018060a01b038116809103610d1457301490565b6001600160401b036060820151168015159081612ed3575b50612ec457608001516001600160401b0316612eb557600190565b637b6227e960e11b5f5260045ffd5b631ab7da6b60e01b5f5260045ffd5b90504210155f612e9a565b612ef49092919260208082518301019101611e82565b916040830180519081613258575b505060808301606084015f5b8151805182101561302e57906020612f735f93612f328460018060a01b03926132cd565b5116612f3f8488516132cd565b5160405163a9059cbb60e01b81526001600160a01b038a166004820152602481019190915294859283919082906044820190565b03925af1805f91612ff3575b60019350612fee57505f5b15612f96575b01612f0e565b818060a01b03612fa78285516132cd565b5116612fb48286516132cd565b51906040519182527f6a0720b70d5a8914c9378c90e36e760e11a1c79840d56909d7562c7c79654e0b6020858060a01b03891693a3612f90565b612f8a565b90506020833d8211613026575b8161300d6020938361167e565b81010312610d1457613020600193611c16565b90612f7f565b3d9150613000565b50505060a08401939260c0840191505f5b85518051821015613129576001600160a01b039061305e9083906132cd565b51169061306c8185516132cd565b51823b15610d14576040516323b872dd60e01b81523060048201526001600160a01b038716602482015260448101919091526001925f908290606490829084905af19081613119575b5061311457818060a01b036130cb8289516132cd565b51166130d88286516132cd565b51906040519182527f0863b761d932722655fba74d8a2c2b32a37c3d52195357bf7b4610ebfc6944e06020858060a01b03891693a35b0161303f565b61310e565b5f6131239161167e565b5f6130b5565b5092945092610120810192506101008101915060e0015f5b8151805182101561323d576001600160a01b03906131609083906132cd565b51169061316e8185516132cd565b519161317b8287516132cd565b5192813b15610d14576001936131ad925f92838c60405196879586948593637921219560e11b855230600486016134cc565b03925af1908161322d575b5061322857818060a01b036131ce8285516132cd565b51166131db8286516132cd565b51906131e88388516132cd565b5160405192835260208301527f15fffc8b1069bee41edd748e645887f613b87a2d861ab91a772fc4a11ebe53026040858060a01b038b1693a35b01613141565b613222565b5f6132379161167e565b5f6131b8565b5050505050905060405161325260208261167e565b5f815290565b5f80808060018060a01b03871695865af13d156132c8573d6132798161169f565b90613287604051928361167e565b81525f60203d92013e5b612f025760207fe3c18804896f0b200e4820c86cb36fe61cddd1654ca6627eb546a1bea97c2e7d9151604051908152a25f80612f02565b613291565b80518210156120865760209160051b010190565b60608101918251516060820190815151116134c4575f5b8151518110156133715784516001600160a01b03906133189083906132cd565b511660018060a01b0361332c8385516132cd565b51161480159061334c575b613343576001016132f8565b50505050505f90565b5061335b8160808601516132cd565b5161336a8260808601516132cd565b5111613337565b5050915060a081019182515160a0820190815151116134c4575f5b8151518110156133fd5784516001600160a01b03906133ac9083906132cd565b511660018060a01b036133c08385516132cd565b5116148015906133d7575b6133435760010161338c565b506133e68160c08601516132cd565b516133f58260c08601516132cd565b5114156133cb565b5050915060e08101918251519260e0820193845151116134c4575f5b8451518110156134ba5781516001600160a01b03906134399083906132cd565b511660018060a01b0361344d8388516132cd565b511614801590613492575b801561346b575b61334357600101613419565b5061347b816101208601516132cd565b5161348b826101208601516132cd565b511161345f565b506134a2816101008601516132cd565b516134b2826101008601516132cd565b511415613458565b5050505050600190565b505050505f90565b6001600160a01b039182168152911660208201526040810191909152606081019190915260a0608082018190525f9082015260c0019056fea26469706673582212206fdb309082a4a9f2dfb9d64cebfb0cf518d14c113e8110879820ef56a72a8d9b64736f6c634300081b0033","linkReferences":{}},"methodIdentifiers":{"ATTESTATION_SCHEMA()":"5bf2f20d","attest((bytes32,bytes32,uint64,uint64,uint64,bytes32,address,address,bool,bytes))":"e60c3505","checkObligation((bytes32,bytes32,uint64,uint64,uint64,bytes32,address,address,bool,bytes),bytes,bytes32)":"e6c9714d","collectEscrow(bytes32,bytes32)":"2c713cd9","collectEscrowRaw(bytes32,bytes32)":"891d9ea8","decodeObligationData(bytes)":"c93844be","doObligation((address,bytes,uint256,address[],uint256[],address[],uint256[],address[],uint256[],uint256[]),uint64)":"55b0769b","doObligationFor((address,bytes,uint256,address[],uint256[],address[],uint256[],address[],uint256[],uint256[]),uint64,address)":"cf84e82c","doObligationRaw(bytes,uint64,bytes32)":"b3b902d4","extractArbiterAndDemand(bytes)":"8371ef59","getObligationData(bytes32)":"c6ec5070","getSchema()":"6b122fe0","isPayable()":"ce46e046","multiAttest((bytes32,bytes32,uint64,uint64,uint64,bytes32,address,address,bool,bytes)[],uint256[])":"91db0b7e","multiRevoke((bytes32,bytes32,uint64,uint64,uint64,bytes32,address,address,bool,bytes)[],uint256[])":"88e5b2d9","onERC1155BatchReceived(address,address,uint256[],uint256[],bytes)":"bc197c81","onERC1155Received(address,address,uint256,uint256,bytes)":"f23a6e61","reclaimExpired(bytes32)":"7d2c2931","revoke((bytes32,bytes32,uint64,uint64,uint64,bytes32,address,address,bool,bytes))":"e49617e1","supportsInterface(bytes4)":"01ffc9a7","version()":"54fd4d50"},"id":90}