{
  "abi": [
    {
      "type": "constructor",
      "inputs": [
        {
          "name": "_eas",
          "type": "address",
          "internalType": "contract IEAS"
        },
        {
          "name": "_schemaRegistry",
          "type": "address",
          "internalType": "contract ISchemaRegistry"
        }
      ],
      "stateMutability": "nonpayable"
    },
    {
      "type": "receive",
      "stateMutability": "payable"
    },
    {
      "type": "function",
      "name": "ATTESTATION_SCHEMA",
      "inputs": [],
      "outputs": [
        {
          "name": "",
          "type": "bytes32",
          "internalType": "bytes32"
        }
      ],
      "stateMutability": "view"
    },
    {
      "type": "function",
      "name": "ATTESTATION_SCHEMA_REVOCABLE",
      "inputs": [],
      "outputs": [
        {
          "name": "",
          "type": "bool",
          "internalType": "bool"
        }
      ],
      "stateMutability": "view"
    },
    {
      "type": "function",
      "name": "attest",
      "inputs": [
        {
          "name": "attestation",
          "type": "tuple",
          "internalType": "struct Attestation",
          "components": [
            {
              "name": "uid",
              "type": "bytes32",
              "internalType": "bytes32"
            },
            {
              "name": "schema",
              "type": "bytes32",
              "internalType": "bytes32"
            },
            {
              "name": "time",
              "type": "uint64",
              "internalType": "uint64"
            },
            {
              "name": "expirationTime",
              "type": "uint64",
              "internalType": "uint64"
            },
            {
              "name": "revocationTime",
              "type": "uint64",
              "internalType": "uint64"
            },
            {
              "name": "refUID",
              "type": "bytes32",
              "internalType": "bytes32"
            },
            {
              "name": "recipient",
              "type": "address",
              "internalType": "address"
            },
            {
              "name": "attester",
              "type": "address",
              "internalType": "address"
            },
            {
              "name": "revocable",
              "type": "bool",
              "internalType": "bool"
            },
            {
              "name": "data",
              "type": "bytes",
              "internalType": "bytes"
            }
          ]
        }
      ],
      "outputs": [
        {
          "name": "",
          "type": "bool",
          "internalType": "bool"
        }
      ],
      "stateMutability": "payable"
    },
    {
      "type": "function",
      "name": "check",
      "inputs": [
        {
          "name": "obligation",
          "type": "tuple",
          "internalType": "struct Attestation",
          "components": [
            {
              "name": "uid",
              "type": "bytes32",
              "internalType": "bytes32"
            },
            {
              "name": "schema",
              "type": "bytes32",
              "internalType": "bytes32"
            },
            {
              "name": "time",
              "type": "uint64",
              "internalType": "uint64"
            },
            {
              "name": "expirationTime",
              "type": "uint64",
              "internalType": "uint64"
            },
            {
              "name": "revocationTime",
              "type": "uint64",
              "internalType": "uint64"
            },
            {
              "name": "refUID",
              "type": "bytes32",
              "internalType": "bytes32"
            },
            {
              "name": "recipient",
              "type": "address",
              "internalType": "address"
            },
            {
              "name": "attester",
              "type": "address",
              "internalType": "address"
            },
            {
              "name": "revocable",
              "type": "bool",
              "internalType": "bool"
            },
            {
              "name": "data",
              "type": "bytes",
              "internalType": "bytes"
            }
          ]
        },
        {
          "name": "demand",
          "type": "bytes",
          "internalType": "bytes"
        },
        {
          "name": "",
          "type": "bytes32",
          "internalType": "bytes32"
        }
      ],
      "outputs": [
        {
          "name": "",
          "type": "bool",
          "internalType": "bool"
        }
      ],
      "stateMutability": "view"
    },
    {
      "type": "function",
      "name": "collect",
      "inputs": [
        {
          "name": "_escrow",
          "type": "bytes32",
          "internalType": "bytes32"
        },
        {
          "name": "_fulfillment",
          "type": "bytes32",
          "internalType": "bytes32"
        }
      ],
      "outputs": [
        {
          "name": "",
          "type": "bytes",
          "internalType": "bytes"
        }
      ],
      "stateMutability": "nonpayable"
    },
    {
      "type": "function",
      "name": "decodeCondition",
      "inputs": [
        {
          "name": "data",
          "type": "bytes",
          "internalType": "bytes"
        }
      ],
      "outputs": [
        {
          "name": "arbiter",
          "type": "address",
          "internalType": "address"
        },
        {
          "name": "demand",
          "type": "bytes",
          "internalType": "bytes"
        }
      ],
      "stateMutability": "pure"
    },
    {
      "type": "function",
      "name": "decodeObligationData",
      "inputs": [
        {
          "name": "data",
          "type": "bytes",
          "internalType": "bytes"
        }
      ],
      "outputs": [
        {
          "name": "",
          "type": "tuple",
          "internalType": "struct UnconditionalERC721EscrowObligation.ObligationData",
          "components": [
            {
              "name": "arbiter",
              "type": "address",
              "internalType": "address"
            },
            {
              "name": "demand",
              "type": "bytes",
              "internalType": "bytes"
            },
            {
              "name": "token",
              "type": "address",
              "internalType": "address"
            },
            {
              "name": "tokenId",
              "type": "uint256",
              "internalType": "uint256"
            }
          ]
        }
      ],
      "stateMutability": "pure"
    },
    {
      "type": "function",
      "name": "doObligation",
      "inputs": [
        {
          "name": "data",
          "type": "tuple",
          "internalType": "struct UnconditionalERC721EscrowObligation.ObligationData",
          "components": [
            {
              "name": "arbiter",
              "type": "address",
              "internalType": "address"
            },
            {
              "name": "demand",
              "type": "bytes",
              "internalType": "bytes"
            },
            {
              "name": "token",
              "type": "address",
              "internalType": "address"
            },
            {
              "name": "tokenId",
              "type": "uint256",
              "internalType": "uint256"
            }
          ]
        },
        {
          "name": "expirationTime",
          "type": "uint64",
          "internalType": "uint64"
        }
      ],
      "outputs": [
        {
          "name": "",
          "type": "bytes32",
          "internalType": "bytes32"
        }
      ],
      "stateMutability": "nonpayable"
    },
    {
      "type": "function",
      "name": "doObligationFor",
      "inputs": [
        {
          "name": "data",
          "type": "tuple",
          "internalType": "struct UnconditionalERC721EscrowObligation.ObligationData",
          "components": [
            {
              "name": "arbiter",
              "type": "address",
              "internalType": "address"
            },
            {
              "name": "demand",
              "type": "bytes",
              "internalType": "bytes"
            },
            {
              "name": "token",
              "type": "address",
              "internalType": "address"
            },
            {
              "name": "tokenId",
              "type": "uint256",
              "internalType": "uint256"
            }
          ]
        },
        {
          "name": "expirationTime",
          "type": "uint64",
          "internalType": "uint64"
        },
        {
          "name": "recipient",
          "type": "address",
          "internalType": "address"
        }
      ],
      "outputs": [
        {
          "name": "",
          "type": "bytes32",
          "internalType": "bytes32"
        }
      ],
      "stateMutability": "nonpayable"
    },
    {
      "type": "function",
      "name": "doObligationRaw",
      "inputs": [
        {
          "name": "data",
          "type": "bytes",
          "internalType": "bytes"
        },
        {
          "name": "expirationTime",
          "type": "uint64",
          "internalType": "uint64"
        },
        {
          "name": "refUID",
          "type": "bytes32",
          "internalType": "bytes32"
        }
      ],
      "outputs": [
        {
          "name": "uid_",
          "type": "bytes32",
          "internalType": "bytes32"
        }
      ],
      "stateMutability": "payable"
    },
    {
      "type": "function",
      "name": "getObligationData",
      "inputs": [
        {
          "name": "uid",
          "type": "bytes32",
          "internalType": "bytes32"
        }
      ],
      "outputs": [
        {
          "name": "",
          "type": "tuple",
          "internalType": "struct UnconditionalERC721EscrowObligation.ObligationData",
          "components": [
            {
              "name": "arbiter",
              "type": "address",
              "internalType": "address"
            },
            {
              "name": "demand",
              "type": "bytes",
              "internalType": "bytes"
            },
            {
              "name": "token",
              "type": "address",
              "internalType": "address"
            },
            {
              "name": "tokenId",
              "type": "uint256",
              "internalType": "uint256"
            }
          ]
        }
      ],
      "stateMutability": "view"
    },
    {
      "type": "function",
      "name": "getSchema",
      "inputs": [],
      "outputs": [
        {
          "name": "",
          "type": "tuple",
          "internalType": "struct SchemaRecord",
          "components": [
            {
              "name": "uid",
              "type": "bytes32",
              "internalType": "bytes32"
            },
            {
              "name": "resolver",
              "type": "address",
              "internalType": "contract ISchemaResolver"
            },
            {
              "name": "revocable",
              "type": "bool",
              "internalType": "bool"
            },
            {
              "name": "schema",
              "type": "string",
              "internalType": "string"
            }
          ]
        }
      ],
      "stateMutability": "view"
    },
    {
      "type": "function",
      "name": "isPayable",
      "inputs": [],
      "outputs": [
        {
          "name": "",
          "type": "bool",
          "internalType": "bool"
        }
      ],
      "stateMutability": "pure"
    },
    {
      "type": "function",
      "name": "multiAttest",
      "inputs": [
        {
          "name": "attestations",
          "type": "tuple[]",
          "internalType": "struct Attestation[]",
          "components": [
            {
              "name": "uid",
              "type": "bytes32",
              "internalType": "bytes32"
            },
            {
              "name": "schema",
              "type": "bytes32",
              "internalType": "bytes32"
            },
            {
              "name": "time",
              "type": "uint64",
              "internalType": "uint64"
            },
            {
              "name": "expirationTime",
              "type": "uint64",
              "internalType": "uint64"
            },
            {
              "name": "revocationTime",
              "type": "uint64",
              "internalType": "uint64"
            },
            {
              "name": "refUID",
              "type": "bytes32",
              "internalType": "bytes32"
            },
            {
              "name": "recipient",
              "type": "address",
              "internalType": "address"
            },
            {
              "name": "attester",
              "type": "address",
              "internalType": "address"
            },
            {
              "name": "revocable",
              "type": "bool",
              "internalType": "bool"
            },
            {
              "name": "data",
              "type": "bytes",
              "internalType": "bytes"
            }
          ]
        },
        {
          "name": "values",
          "type": "uint256[]",
          "internalType": "uint256[]"
        }
      ],
      "outputs": [
        {
          "name": "",
          "type": "bool",
          "internalType": "bool"
        }
      ],
      "stateMutability": "payable"
    },
    {
      "type": "function",
      "name": "multiRevoke",
      "inputs": [
        {
          "name": "attestations",
          "type": "tuple[]",
          "internalType": "struct Attestation[]",
          "components": [
            {
              "name": "uid",
              "type": "bytes32",
              "internalType": "bytes32"
            },
            {
              "name": "schema",
              "type": "bytes32",
              "internalType": "bytes32"
            },
            {
              "name": "time",
              "type": "uint64",
              "internalType": "uint64"
            },
            {
              "name": "expirationTime",
              "type": "uint64",
              "internalType": "uint64"
            },
            {
              "name": "revocationTime",
              "type": "uint64",
              "internalType": "uint64"
            },
            {
              "name": "refUID",
              "type": "bytes32",
              "internalType": "bytes32"
            },
            {
              "name": "recipient",
              "type": "address",
              "internalType": "address"
            },
            {
              "name": "attester",
              "type": "address",
              "internalType": "address"
            },
            {
              "name": "revocable",
              "type": "bool",
              "internalType": "bool"
            },
            {
              "name": "data",
              "type": "bytes",
              "internalType": "bytes"
            }
          ]
        },
        {
          "name": "values",
          "type": "uint256[]",
          "internalType": "uint256[]"
        }
      ],
      "outputs": [
        {
          "name": "",
          "type": "bool",
          "internalType": "bool"
        }
      ],
      "stateMutability": "payable"
    },
    {
      "type": "function",
      "name": "reclaim",
      "inputs": [
        {
          "name": "uid",
          "type": "bytes32",
          "internalType": "bytes32"
        }
      ],
      "outputs": [
        {
          "name": "",
          "type": "bool",
          "internalType": "bool"
        }
      ],
      "stateMutability": "nonpayable"
    },
    {
      "type": "function",
      "name": "revoke",
      "inputs": [
        {
          "name": "attestation",
          "type": "tuple",
          "internalType": "struct Attestation",
          "components": [
            {
              "name": "uid",
              "type": "bytes32",
              "internalType": "bytes32"
            },
            {
              "name": "schema",
              "type": "bytes32",
              "internalType": "bytes32"
            },
            {
              "name": "time",
              "type": "uint64",
              "internalType": "uint64"
            },
            {
              "name": "expirationTime",
              "type": "uint64",
              "internalType": "uint64"
            },
            {
              "name": "revocationTime",
              "type": "uint64",
              "internalType": "uint64"
            },
            {
              "name": "refUID",
              "type": "bytes32",
              "internalType": "bytes32"
            },
            {
              "name": "recipient",
              "type": "address",
              "internalType": "address"
            },
            {
              "name": "attester",
              "type": "address",
              "internalType": "address"
            },
            {
              "name": "revocable",
              "type": "bool",
              "internalType": "bool"
            },
            {
              "name": "data",
              "type": "bytes",
              "internalType": "bytes"
            }
          ]
        }
      ],
      "outputs": [
        {
          "name": "",
          "type": "bool",
          "internalType": "bool"
        }
      ],
      "stateMutability": "payable"
    },
    {
      "type": "function",
      "name": "supportsInterface",
      "inputs": [
        {
          "name": "interfaceId",
          "type": "bytes4",
          "internalType": "bytes4"
        }
      ],
      "outputs": [
        {
          "name": "",
          "type": "bool",
          "internalType": "bool"
        }
      ],
      "stateMutability": "view"
    },
    {
      "type": "function",
      "name": "version",
      "inputs": [],
      "outputs": [
        {
          "name": "",
          "type": "string",
          "internalType": "string"
        }
      ],
      "stateMutability": "view"
    },
    {
      "type": "event",
      "name": "EscrowCollected",
      "inputs": [
        {
          "name": "escrowUid",
          "type": "bytes32",
          "indexed": true,
          "internalType": "bytes32"
        },
        {
          "name": "fulfillmentUid",
          "type": "bytes32",
          "indexed": true,
          "internalType": "bytes32"
        },
        {
          "name": "fulfiller",
          "type": "address",
          "indexed": true,
          "internalType": "address"
        }
      ],
      "anonymous": false
    },
    {
      "type": "event",
      "name": "EscrowMade",
      "inputs": [
        {
          "name": "escrowUid",
          "type": "bytes32",
          "indexed": true,
          "internalType": "bytes32"
        },
        {
          "name": "escrower",
          "type": "address",
          "indexed": true,
          "internalType": "address"
        }
      ],
      "anonymous": false
    },
    {
      "type": "event",
      "name": "EscrowReclaimed",
      "inputs": [
        {
          "name": "escrowUid",
          "type": "bytes32",
          "indexed": true,
          "internalType": "bytes32"
        },
        {
          "name": "escrower",
          "type": "address",
          "indexed": true,
          "internalType": "address"
        }
      ],
      "anonymous": false
    },
    {
      "type": "error",
      "name": "AccessDenied",
      "inputs": []
    },
    {
      "type": "error",
      "name": "AttestationNotFound",
      "inputs": [
        {
          "name": "attestationId",
          "type": "bytes32",
          "internalType": "bytes32"
        }
      ]
    },
    {
      "type": "error",
      "name": "AttestationRevoked",
      "inputs": []
    },
    {
      "type": "error",
      "name": "DeadlineExpired",
      "inputs": []
    },
    {
      "type": "error",
      "name": "ERC721TransferFailed",
      "inputs": [
        {
          "name": "token",
          "type": "address",
          "internalType": "address"
        },
        {
          "name": "from",
          "type": "address",
          "internalType": "address"
        },
        {
          "name": "to",
          "type": "address",
          "internalType": "address"
        },
        {
          "name": "tokenId",
          "type": "uint256",
          "internalType": "uint256"
        }
      ]
    },
    {
      "type": "error",
      "name": "InsufficientValue",
      "inputs": []
    },
    {
      "type": "error",
      "name": "InvalidAttestationUid",
      "inputs": []
    },
    {
      "type": "error",
      "name": "InvalidEAS",
      "inputs": []
    },
    {
      "type": "error",
      "name": "InvalidEscrowAttestation",
      "inputs": []
    },
    {
      "type": "error",
      "name": "InvalidFulfillment",
      "inputs": []
    },
    {
      "type": "error",
      "name": "InvalidLength",
      "inputs": []
    },
    {
      "type": "error",
      "name": "NotFromThisAttester",
      "inputs": []
    },
    {
      "type": "error",
      "name": "NotPayable",
      "inputs": []
    },
    {
      "type": "error",
      "name": "ReentrancyGuardReentrantCall",
      "inputs": []
    },
    {
      "type": "error",
      "name": "RevocationFailed",
      "inputs": [
        {
          "name": "attestationId",
          "type": "bytes32",
          "internalType": "bytes32"
        }
      ]
    },
    {
      "type": "error",
      "name": "SchemaRegistrationFailed",
      "inputs": [
        {
          "name": "uid",
          "type": "bytes32",
          "internalType": "bytes32"
        }
      ]
    },
    {
      "type": "error",
      "name": "UnauthorizedCall",
      "inputs": []
    }
  ],
  "bytecode": {
    "object": "0x61018080604052346101d9576040816128ba803803809161002082856101dd565b8339810103126101d9578051906001600160a01b038216908183036101d957602001516001600160a01b03811691908281036101d957604051916100656060846101dd565b603d83527f6164647265737320617262697465722c2062797465732064656d616e642c206160208401527f64647265737320746f6b656e2c2075696e7432353620746f6b656e496400000060408401526001608052600360a0525f60c052156101ca57836100e59460e052610120526101005260016101605230916102f8565b6101405260017f9b779b17422d0df92223018b32b4d1fa46e071723d6817e2486d003becc55f00556040516123e690816104d48239608051816111d7015260a05181611202015260c0518161122d015260e05181611a920152610100518161104e0152610120518181816102b1015281816105eb01528181610a1901528181610cff01528181611c810152611f6c01526101405181818161013c0152818161062b0152818161090001528181610cb00152818161101c015281816111950152818161179b0152611e4c015261016051818181610758015281816109420152611e950152f35b6341bc07ff60e11b5f5260045ffd5b5f80fd5b601f909101601f19168101906001600160401b0382119082101761020057604052565b634e487b7160e01b5f52604160045260245ffd5b6020818303126101d9578051906001600160401b0382116101d95701906080828203126101d95760405191608083016001600160401b03811184821017610200576040528051835260208101516001600160a01b03811681036101d9576020840152604081015180151581036101d95760408401526060810151906001600160401b0382116101d9570181601f820112156101d9578051906001600160401b03821161020057604051926102d2601f8401601f1916602001856101dd565b828452602083830101116101d957815f9260208093018386015e83010152606082015290565b929160405190602082018351926103426015602083818901978089885e810160018060601b03198860601b1683820152600160f81b60348201520301600a198101845201826101dd565b5190206040516351753e3760e11b81526004810182905290956001600160a01b031693905f81602481885afa80156104535787915f916104b9575b5051146104b3579060846020926040519485938492630c1af44f60e31b8452606060048501525180928160648601528585015e5f84838501015260018060a01b0316602483015260016044830152601f801991011681010301815f865af15f918161047f575b5061045e57505f602491604051928380926351753e3760e11b82528760048301525afa80156104535783915f91610431575b50511461042f5750639e6113d560e01b5f5260045260245ffd5b565b61044d91503d805f833e61044581836101dd565b810190610214565b5f610415565b6040513d5f823e3d90fd5b9192809150820361046d575090565b639e6113d560e01b5f5260045260245ffd5b9091506020813d6020116104ab575b8161049b602093836101dd565b810103126101d95751905f6103e3565b3d915061048e565b50505050565b6104cd91503d805f833e61044581836101dd565b5f61037d56fe6080806040526004361015610029575b50361561001a575f80fd5b631574f9f360e01b5f5260045ffd5b5f905f3560e01c90816301ffc9a7146112ba5750806354fd4d50146111b85780635bf2f20d1461117e5780636b122fe014610fdd578063760bd11814610f7f57806388e5b2d914610e485780638da3721a14610e6757806391db0b7e14610e4857806396afb36514610c81578063a4f0d51714610c14578063b3b902d41461077d578063b587a5eb14610740578063c1e4a710146106b6578063c6ec5070146105aa578063c93844be146104d3578063ce46e046146104b7578063e49617e114610492578063e60c3505146104925763ea6ec49c0361000f573461048f57604036600319011261048f5760243590600435610122611aea565b61012b81611c5b565b61013484611c5b565b9060208101517f000000000000000000000000000000000000000000000000000000000000000080910361048057815115610471576001600160401b036060830151168015159081610466575b50610457576001600160401b036080830151166104485761027160206101208560c06101af838801516116c7565b610283899492945191604051988997889687966346d1b90d60e11b885260606004890152805160648901528b81015160848901526001600160401b0360408201511660a48901526001600160401b0360608201511660c48901526001600160401b0360808201511660e489015260a0810151610104890152019d8e60018060a01b0390511661012488015260018060a01b0360e082015116610144880152610100810151151561016488015201516101406101848701526101a4860190611338565b84810360031901602486015290611338565b604483019190915203916001600160a01b03165afa90811561043d578691610403575b50156103f4576040517f00000000000000000000000000000000000000000000000000000000000000006001600160a01b031691906102e4816113a7565b858152866020820152604051916102fa836113a7565b82526020820152813b156103f057604051634692626760e01b8152815160048201526020918201518051602483015290910151604482015290859081908390606490829084905af191826103d7575b50506103635763614cf93960e01b84526004839052602484fd5b917ff96e77bc177ae8e2ff25185e7c6d85f8ba97c8bdd9d46933aac70a7a33edf6c09461039d6103d39460018060a01b0385511690612150565b92516040519687966001600160a01b03909216939180a460015f5160206123915f395f51905f5255602083526020830190611338565b0390f35b816103e1916113dd565b6103ec57845f610349565b8480fd5b8580fd5b630ebe58ef60e11b8552600485fd5b90506020813d602011610435575b8161041e602093836113dd565b810103126103f05761042f906115d6565b5f6102a6565b3d9150610411565b6040513d88823e3d90fd5b637b6227e960e11b8552600485fd5b631ab7da6b60e01b8552600485fd5b90504210155f610181565b635c2c7f8960e01b8552600485fd5b63629cd40b60e11b8552600485fd5b80fd5b60206104ad6104a0366115a2565b6104a8611a90565b611ad1565b6040519015158152f35b503461048f578060031936011261048f57602090604051908152f35b503461048f57602036600319011261048f576004356001600160401b0381116105a25761050490369060040161152b565b61050f9291926118ff565b508201916020818403126105a2578035906001600160401b0382116105a65701916080838203126105a257604051916105478361135c565b61055084611517565b83526020840135906001600160401b03821161048f5750926105796060926103d395830161144f565b602084015261058a60408201611517565b60408401520135606082015260405191829182611558565b5080fd5b8280fd5b503461048f57602036600319011261048f576105c46118ff565b506105cd611b22565b506040516328c44a9960e21b815260048035908201529080826024817f00000000000000000000000000000000000000000000000000000000000000006001600160a01b03165afa9182156106a9578192610685575b5060208201517f000000000000000000000000000000000000000000000000000000000000000003610676576103d361066a61012084015160208082518301019101611647565b60405191829182611558565b635527981560e11b8152600490fd5b6106a29192503d8084833e61069a81836113dd565b810190611b80565b905f610623565b50604051903d90823e3d90fd5b503461048f57606036600319011261048f576004356001600160401b0381116105a257608060031982360301126105a2576106ef6114ed565b604435929091906001600160a01b038416840361048f576020610738858561072561073387604051928391600401888301611867565b03601f1981018352826113dd565b611d09565b604051908152f35b503461048f578060031936011261048f5760206040517f000000000000000000000000000000000000000000000000000000000000000015158152f35b50606036600319011261048f576004356001600160401b0381116105a2576107a990369060040161152b565b6107c06107b46114ed565b92604435923691611419565b916107c9611aea565b6107dc6020845185010160208501611647565b936040850193606060018060a01b03865116960195602087516024604051809481936331a9108f60e11b835260048301525afa908115610c09578391610bcf575b50336001600160a01b0390911603610ba15760018060a01b038551168651813b15610b9d576040516323b872dd60e01b8152336004820152306024820152604481019190915290839081908390606490829084905af19182610b88575b50506108b2578451865160405163045b391760e01b81529182916108ae91309033906001600160a01b031660048601612125565b0390fd5b858560018060a01b03815116602083516024604051809481936331a9108f60e11b835260048301525afa908115610b16578591610b4e575b50306001600160a01b0390911603610b215750507f0000000000000000000000000000000000000000000000000000000000000000936001600160401b0360405194610935866113c2565b33865216908160208601527f00000000000000000000000000000000000000000000000000000000000000001515918260408701528160608701528360808701528460a0870152602060405161098a816113a7565b8881528181019788526040518098819263f17325e760e01b8352846004840152516024830152516040604483015260018060a01b0381511660648301526001600160401b03848201511660848301526040810151151560a4830152606081015160c483015260a0610a0b608083015160c060e4860152610124850190611338565b9101516101048301520381887f00000000000000000000000000000000000000000000000000000000000000006001600160a01b03165af1958615610b16578596610ae1575b5091602096916101209360405193610a688561138b565b888552898501526001600160401b0342166040850152606084015285608084015260a08301523360c08301523060e08301526101008201520152817f8f7f2dbafd79125e808bf16a53d7fa4e17b8b6374ced76d946a45f94b7bf4d06339280a360015f5160206123915f395f51905f5255604051908152f35b9095506020813d602011610b0e575b81610afd602093836113dd565b810103126103ec5751946020610a51565b3d9150610af0565b6040513d87823e3d90fd5b51905160405163045b391760e01b81529182916108ae91309033906001600160a01b031660048601612125565b90506020813d602011610b80575b81610b69602093836113dd565b810103126103ec57610b7a90611619565b876108ea565b3d9150610b5c565b81610b92916113dd565b6105a657825f61087a565b8380fd5b8451865160405163045b391760e01b81529182916108ae91309033906001600160a01b031660048601612125565b90506020813d602011610c01575b81610bea602093836113dd565b810103126105a657610bfb90611619565b5f61081d565b3d9150610bdd565b6040513d85823e3d90fd5b503461048f57604036600319011261048f57600435906001600160401b03821161048f576080600319833603011261048f576020610738610c6c84610c7a610c5a6114ed565b91604051938491600401878301611867565b03601f1981018452836113dd565b3391611d09565b5034610e26576020366003190112610e265760043590610c9f611aea565b610ca882611c5b565b9160208301517f0000000000000000000000000000000000000000000000000000000000000000809103610e3957606084016001600160401b0381511615610e2a57516001600160401b03164210610e2a576040517f00000000000000000000000000000000000000000000000000000000000000006001600160a01b031690610d31816113a7565b8381525f602082015260405192610d47846113a7565b83526020830152803b15610e2657604051634692626760e01b815282516004820152602092830151805160248301529092015160448301525f908290606490829084905af19081610e11575b50610dab5763614cf93960e01b825260045260249150fd5b60c083018051602094610dc7916001600160a01b031690612150565b5060018060a01b03905116907f655ef333d5efcbf5aa343f02bcd9e3539f9c9f9ee8b9cfa7d8910b1bd7e0a8326040519380a360015f5160206123915f395f51905f525560018152f35b610e1e9193505f906113dd565b5f915f610d93565b5f80fd5b637bf6a16f60e01b5f5260045ffd5b63629cd40b60e11b5f5260045ffd5b60206104ad610e563661149d565b92610e62929192611a90565b6116f0565b34610e26576060366003190112610e26576004356001600160401b038111610e26576101406003198236030112610e265760405190610ea58261138b565b8060040135825260248101356020830152610ec260448201611503565b6040830152610ed360648201611503565b6060830152610ee460848201611503565b608083015260a481013560a0830152610eff60c48201611517565b60c0830152610f1060e48201611517565b60e08301526101048101358015158103610e2657610100830152610124810135906001600160401b038211610e26576004610f4e923692010161144f565b6101208201526024356001600160401b038111610e2657602091610f796104ad92369060040161144f565b90611794565b34610e26576020366003190112610e26576004356001600160401b038111610e2657610fb2610fb791369060040161144f565b6116c7565b604080516001600160a01b0390931683526020830181905282916103d391830190611338565b34610e26575f366003190112610e2657606080604051610ffc8161135c565b5f81525f60208201525f604082015201526040516351753e3760e11b81527f000000000000000000000000000000000000000000000000000000000000000060048201525f8160248160018060a01b037f0000000000000000000000000000000000000000000000000000000000000000165afa8015611173575f906110c3575b6060906103d3604051928392602084528051602085015260018060a01b0360208201511660408501526040810151151582850152015160808084015260a0830190611338565b503d805f833e6110d381836113dd565b810190602081830312610e26578051906001600160401b038211610e265701608081830312610e2657604051906111098261135c565b8051825260208101516001600160a01b0381168103610e26576020830152611133604082016115d6565b60408301526060810151906001600160401b038211610e26570182601f82011215610e265760609281602061116a935191016115e3565b8282015261107d565b6040513d5f823e3d90fd5b34610e26575f366003190112610e265760206040517f00000000000000000000000000000000000000000000000000000000000000008152f35b34610e26575f366003190112610e26576103d360206112a660016111fb7f0000000000000000000000000000000000000000000000000000000000000000611923565b81846112267f0000000000000000000000000000000000000000000000000000000000000000611923565b81806112517f0000000000000000000000000000000000000000000000000000000000000000611923565b9260405199878b985191829101848a015e870190601760f91b83830152805192839101602183015e010190601760f91b84830152805192839101600283015e01015f838201520301601f1981018352826113dd565b604051918291602083526020830190611338565b34610e26576020366003190112610e26576004359063ffffffff60e01b8216809203610e26576020916346d1b90d60e11b811490811590816112ff575b505015158152f35b9061130d575b5083806112f7565b630acaa6e160e01b811491508115611327575b5083611305565b6301ffc9a760e01b14905083611320565b805180835260209291819084018484015e5f828201840152601f01601f1916010190565b608081019081106001600160401b0382111761137757604052565b634e487b7160e01b5f52604160045260245ffd5b61014081019081106001600160401b0382111761137757604052565b604081019081106001600160401b0382111761137757604052565b60c081019081106001600160401b0382111761137757604052565b90601f801991011681019081106001600160401b0382111761137757604052565b6001600160401b03811161137757601f01601f191660200190565b929192611425826113fe565b9161143360405193846113dd565b829481845281830111610e26578281602093845f960137010152565b9080601f83011215610e265781602061146a93359101611419565b90565b9181601f84011215610e26578235916001600160401b038311610e26576020808501948460051b010111610e2657565b6040600319820112610e26576004356001600160401b038111610e2657816114c79160040161146d565b92909291602435906001600160401b038211610e26576114e99160040161146d565b9091565b602435906001600160401b0382168203610e2657565b35906001600160401b0382168203610e2657565b35906001600160a01b0382168203610e2657565b9181601f84011215610e26578235916001600160401b038311610e265760208381860195010111610e2657565b6020815260018060a01b03825116602082015260806060611587602085015183604086015260a0850190611338565b60408501516001600160a01b03168483015293015191015290565b6020600319820112610e2657600435906001600160401b038211610e2657610140908290036003190112610e265760040190565b51908115158203610e2657565b9291926115ef826113fe565b916115fd60405193846113dd565b829481845281830111610e26578281602093845f96015e010152565b51906001600160a01b0382168203610e2657565b9080601f83011215610e2657815161146a926020016115e3565b602081830312610e26578051906001600160401b038211610e26570190608082820312610e26576040519161167b8361135c565b61168481611619565b835260208101516001600160401b038111610e26576060926116a791830161162d565b60208401526116b860408201611619565b60408401520151606082015290565b6116da9060208082518301019101611647565b80516020909101516001600160a01b0390911691565b929092818403611785575f91345b8584101561177a5781841015611766578360051b80860135908282116117575784013561013e1985360301811215610e265761173b908501611ad1565b1561174c57600191039301926116fe565b505050505050505f90565b63044044a560e21b5f5260045ffd5b634e487b7160e01b5f52603260045260245ffd5b505050505050600190565b63251f56a160e21b5f5260045ffd5b60208101517f000000000000000000000000000000000000000000000000000000000000000003611861576117da6101206117ea92015160208082518301019101611647565b9160208082518301019101611647565b604082810151908201516001600160a01b03908116911614918261184e575b82611835575b8261181957505090565b6020919250810151818151910120910151602081519101201490565b805182516001600160a01b03908116911614925061180f565b9150606082015160608201511491611809565b50505f90565b602081526001600160a01b0361187c83611517565b1660208201526020820135601e1983360301811215610e265782016020813591016001600160401b038211610e26578136038113610e265760c09382606092608060408701528160a0870152868601375f8484018601526001600160a01b036118e760408301611517565b168483015201356080830152601f01601f1916010190565b6040519061190c8261135c565b5f6060838281528160208201528260408201520152565b805f9172184f03e93ff9f4daa797ed6e38ed64bf6a1f0160401b821015611a6d575b806d04ee2d6d415b85acef8100000000600a921015611a52575b662386f26fc10000811015611a3e575b6305f5e100811015611a2d575b612710811015611a1e575b6064811015611a10575b1015611a05575b600a602160018401936119aa856113fe565b946119b860405196876113dd565b8086526119c7601f19916113fe565b013660208701378401015b5f1901916f181899199a1a9b1b9c1cb0b131b232b360811b8282061a8353048015611a0057600a90916119d2565b505090565b600190910190611998565b606460029104930192611991565b61271060049104930192611987565b6305f5e1006008910493019261197c565b662386f26fc100006010910493019261196f565b6d04ee2d6d415b85acef81000000006020910493019261195f565b506040915072184f03e93ff9f4daa797ed6e38ed64bf6a1f0160401b8104611945565b7f00000000000000000000000000000000000000000000000000000000000000006001600160a01b03163303611ac257565b634ca8886760e01b5f5260045ffd5b60e0013560018060a01b038116809103610e2657301490565b60025f5160206123915f395f51905f525414611b135760025f5160206123915f395f51905f5255565b633ee5aeb560e01b5f5260045ffd5b60405190611b2f8261138b565b6060610120835f81525f60208201525f60408201525f838201525f60808201525f60a08201525f60c08201525f60e08201525f6101008201520152565b51906001600160401b0382168203610e2657565b602081830312610e26578051906001600160401b038211610e26570161014081830312610e265760405191611bb48361138b565b8151835260208201516020840152611bce60408301611b6c565b6040840152611bdf60608301611b6c565b6060840152611bf060808301611b6c565b608084015260a082015160a0840152611c0b60c08301611619565b60c0840152611c1c60e08301611619565b60e0840152611c2e61010083016115d6565b6101008401526101208201516001600160401b038111610e2657611c52920161162d565b61012082015290565b90611c64611b22565b506040516328c44a9960e21b815260048101839052915f836024817f00000000000000000000000000000000000000000000000000000000000000006001600160a01b03165afa928315611173575f93611ced575b508251818115918215611ce2575b5050611cd05750565b6301fb6dd160e01b5f5260045260245ffd5b14159050815f611cc7565b611d029193503d805f833e61069a81836113dd565b915f611cb9565b919290925f93611d17611aea565b611d2a6020855186010160208601611647565b946040860194606060018060a01b03875116970196602088516024604051809481936331a9108f60e11b835260048301525afa908115611173575f916120eb575b50336001600160a01b03909116036120bd5785518751906001600160a01b0316803b15610e26576040516323b872dd60e01b815233600482015230602482015260448101929092525f908290606490829084905af190816120a8575b50611dfa578551875160405163045b391760e01b81529182916108ae91309033906001600160a01b031660048601612125565b91939590929460018060a01b03815116602083516024604051809481936331a9108f60e11b835260048301525afa908115610b1657859161206e575b50306001600160a01b0390911603610b215750507f00000000000000000000000000000000000000000000000000000000000000006001600160401b0360405195611e80876113c2565b60018060a01b031694858752168060208701527f00000000000000000000000000000000000000000000000000000000000000001515908160408801528460608801528360808801528460a08801526020604051611edd816113a7565b8481528181019889526040518099819263f17325e760e01b8352846004840152516024830152516040604483015260018060a01b0381511660648301526001600160401b03848201511660848301526040810151151560a4830152606081015160c483015260a0611f5e608083015160c060e4860152610124850190611338565b9101516101048301520381887f00000000000000000000000000000000000000000000000000000000000000006001600160a01b03165af1968715610b1657859761202e575b508694927f8f7f2dbafd79125e808bf16a53d7fa4e17b8b6374ced76d946a45f94b7bf4d0694926101209260405192611fdc8461138b565b88845260208401526001600160401b034216604084015260608301528460808301528460a08301528760c08301523060e0830152610100820152015280a39060015f5160206123915f395f51905f5255565b909493929196506020813d602011612066575b8161204e602093836113dd565b81010312610b9d575195929391929091610120611fa4565b3d9150612041565b90506020813d6020116120a0575b81612089602093836113dd565b810103126103ec5761209a90611619565b5f611e36565b3d915061207c565b6120b59193505f906113dd565b5f915f611dc7565b8551875160405163045b391760e01b81529182916108ae91309033906001600160a01b031660048601612125565b90506020813d60201161211d575b81612106602093836113dd565b81010312610e265761211790611619565b5f611d6b565b3d91506120f9565b6001600160a01b03918216815291811660208301529091166040820152606081019190915260800190565b61012061216b91939293015160208082518301019101611647565b90604082019081519260605f910193602085516024604051809481936331a9108f60e11b8352600483015260018060a01b03165afa908115611173575f91612356575b50306001600160a01b03909116036123275782518451906001600160a01b0316803b15610e26576040516323b872dd60e01b81523060048201526001600160a01b038816602482015260448101929092525f908290606490829084905af19081612312575b5061224757505051905160405163045b391760e01b81529283926108ae92919030906001600160a01b031660048601612125565b9290939160018060a01b03815116602083516024604051809481936331a9108f60e11b835260048301525afa908115610b165785916122d8575b506001600160a01b038481169116036122ab57505050604051906122a66020836113dd565b815290565b51905160405163045b391760e01b81529283926108ae92919030906001600160a01b031660048601612125565b90506020813d60201161230a575b816122f3602093836113dd565b810103126103ec5761230490611619565b5f612281565b3d91506122e6565b61231f9192505f906113dd565b5f905f612213565b505051905160405163045b391760e01b81529283926108ae92919030906001600160a01b031660048601612125565b90506020813d602011612388575b81612371602093836113dd565b81010312610e265761238290611619565b5f6121ae565b3d915061236456fe9b779b17422d0df92223018b32b4d1fa46e071723d6817e2486d003becc55f00a2646970667358221220b2906a2e8085116ac05146667c356b9fe7d96c492a16b9f8a5de05952dc54ec364736f6c634300081b0033",
    "linkReferences": {}
  },
  "methodIdentifiers": {
    "ATTESTATION_SCHEMA()": "5bf2f20d",
    "ATTESTATION_SCHEMA_REVOCABLE()": "b587a5eb",
    "attest((bytes32,bytes32,uint64,uint64,uint64,bytes32,address,address,bool,bytes))": "e60c3505",
    "check((bytes32,bytes32,uint64,uint64,uint64,bytes32,address,address,bool,bytes),bytes,bytes32)": "8da3721a",
    "collect(bytes32,bytes32)": "ea6ec49c",
    "decodeCondition(bytes)": "760bd118",
    "decodeObligationData(bytes)": "c93844be",
    "doObligation((address,bytes,address,uint256),uint64)": "a4f0d517",
    "doObligationFor((address,bytes,address,uint256),uint64,address)": "c1e4a710",
    "doObligationRaw(bytes,uint64,bytes32)": "b3b902d4",
    "getObligationData(bytes32)": "c6ec5070",
    "getSchema()": "6b122fe0",
    "isPayable()": "ce46e046",
    "multiAttest((bytes32,bytes32,uint64,uint64,uint64,bytes32,address,address,bool,bytes)[],uint256[])": "91db0b7e",
    "multiRevoke((bytes32,bytes32,uint64,uint64,uint64,bytes32,address,address,bool,bytes)[],uint256[])": "88e5b2d9",
    "reclaim(bytes32)": "96afb365",
    "revoke((bytes32,bytes32,uint64,uint64,uint64,bytes32,address,address,bool,bytes))": "e49617e1",
    "supportsInterface(bytes4)": "01ffc9a7",
    "version()": "54fd4d50"
  },
  "id": 149
}