{
  "abi": [
    {
      "type": "constructor",
      "inputs": [
        {
          "name": "_eas",
          "type": "address",
          "internalType": "contract IEAS"
        }
      ],
      "stateMutability": "nonpayable"
    },
    {
      "type": "function",
      "name": "approveEscrow",
      "inputs": [
        {
          "name": "escrow",
          "type": "address",
          "internalType": "address"
        }
      ],
      "outputs": [],
      "stateMutability": "nonpayable"
    },
    {
      "type": "function",
      "name": "approvedEscrows",
      "inputs": [
        {
          "name": "",
          "type": "address",
          "internalType": "address"
        },
        {
          "name": "",
          "type": "address",
          "internalType": "address"
        }
      ],
      "outputs": [
        {
          "name": "",
          "type": "bool",
          "internalType": "bool"
        }
      ],
      "stateMutability": "view"
    },
    {
      "type": "function",
      "name": "decodeHookData",
      "inputs": [
        {
          "name": "data",
          "type": "bytes",
          "internalType": "bytes"
        }
      ],
      "outputs": [
        {
          "name": "",
          "type": "tuple",
          "internalType": "struct AttestationEscrowHook.HookData",
          "components": [
            {
              "name": "attestation",
              "type": "tuple",
              "internalType": "struct AttestationRequest",
              "components": [
                {
                  "name": "schema",
                  "type": "bytes32",
                  "internalType": "bytes32"
                },
                {
                  "name": "data",
                  "type": "tuple",
                  "internalType": "struct AttestationRequestData",
                  "components": [
                    {
                      "name": "recipient",
                      "type": "address",
                      "internalType": "address"
                    },
                    {
                      "name": "expirationTime",
                      "type": "uint64",
                      "internalType": "uint64"
                    },
                    {
                      "name": "revocable",
                      "type": "bool",
                      "internalType": "bool"
                    },
                    {
                      "name": "refUID",
                      "type": "bytes32",
                      "internalType": "bytes32"
                    },
                    {
                      "name": "data",
                      "type": "bytes",
                      "internalType": "bytes"
                    },
                    {
                      "name": "value",
                      "type": "uint256",
                      "internalType": "uint256"
                    }
                  ]
                }
              ]
            }
          ]
        }
      ],
      "stateMutability": "pure"
    },
    {
      "type": "function",
      "name": "eas",
      "inputs": [],
      "outputs": [
        {
          "name": "",
          "type": "address",
          "internalType": "contract IEAS"
        }
      ],
      "stateMutability": "view"
    },
    {
      "type": "function",
      "name": "encodeHookData",
      "inputs": [
        {
          "name": "hookData",
          "type": "tuple",
          "internalType": "struct AttestationEscrowHook.HookData",
          "components": [
            {
              "name": "attestation",
              "type": "tuple",
              "internalType": "struct AttestationRequest",
              "components": [
                {
                  "name": "schema",
                  "type": "bytes32",
                  "internalType": "bytes32"
                },
                {
                  "name": "data",
                  "type": "tuple",
                  "internalType": "struct AttestationRequestData",
                  "components": [
                    {
                      "name": "recipient",
                      "type": "address",
                      "internalType": "address"
                    },
                    {
                      "name": "expirationTime",
                      "type": "uint64",
                      "internalType": "uint64"
                    },
                    {
                      "name": "revocable",
                      "type": "bool",
                      "internalType": "bool"
                    },
                    {
                      "name": "refUID",
                      "type": "bytes32",
                      "internalType": "bytes32"
                    },
                    {
                      "name": "data",
                      "type": "bytes",
                      "internalType": "bytes"
                    },
                    {
                      "name": "value",
                      "type": "uint256",
                      "internalType": "uint256"
                    }
                  ]
                }
              ]
            }
          ]
        }
      ],
      "outputs": [
        {
          "name": "",
          "type": "bytes",
          "internalType": "bytes"
        }
      ],
      "stateMutability": "pure"
    },
    {
      "type": "function",
      "name": "isEscrowApproved",
      "inputs": [
        {
          "name": "owner",
          "type": "address",
          "internalType": "address"
        },
        {
          "name": "escrow",
          "type": "address",
          "internalType": "address"
        }
      ],
      "outputs": [
        {
          "name": "",
          "type": "bool",
          "internalType": "bool"
        }
      ],
      "stateMutability": "view"
    },
    {
      "type": "function",
      "name": "onAttest",
      "inputs": [
        {
          "name": "",
          "type": "bytes",
          "internalType": "bytes"
        },
        {
          "name": "escrow",
          "type": "tuple",
          "internalType": "struct Attestation",
          "components": [
            {
              "name": "uid",
              "type": "bytes32",
              "internalType": "bytes32"
            },
            {
              "name": "schema",
              "type": "bytes32",
              "internalType": "bytes32"
            },
            {
              "name": "time",
              "type": "uint64",
              "internalType": "uint64"
            },
            {
              "name": "expirationTime",
              "type": "uint64",
              "internalType": "uint64"
            },
            {
              "name": "revocationTime",
              "type": "uint64",
              "internalType": "uint64"
            },
            {
              "name": "refUID",
              "type": "bytes32",
              "internalType": "bytes32"
            },
            {
              "name": "recipient",
              "type": "address",
              "internalType": "address"
            },
            {
              "name": "attester",
              "type": "address",
              "internalType": "address"
            },
            {
              "name": "revocable",
              "type": "bool",
              "internalType": "bool"
            },
            {
              "name": "data",
              "type": "bytes",
              "internalType": "bytes"
            }
          ]
        }
      ],
      "outputs": [],
      "stateMutability": "view"
    },
    {
      "type": "function",
      "name": "onLock",
      "inputs": [
        {
          "name": "data",
          "type": "bytes",
          "internalType": "bytes"
        },
        {
          "name": "from",
          "type": "address",
          "internalType": "address"
        },
        {
          "name": "escrow",
          "type": "address",
          "internalType": "address"
        }
      ],
      "outputs": [],
      "stateMutability": "payable"
    },
    {
      "type": "function",
      "name": "onRelease",
      "inputs": [
        {
          "name": "data",
          "type": "bytes",
          "internalType": "bytes"
        },
        {
          "name": "",
          "type": "address",
          "internalType": "address"
        },
        {
          "name": "escrow",
          "type": "tuple",
          "internalType": "struct Attestation",
          "components": [
            {
              "name": "uid",
              "type": "bytes32",
              "internalType": "bytes32"
            },
            {
              "name": "schema",
              "type": "bytes32",
              "internalType": "bytes32"
            },
            {
              "name": "time",
              "type": "uint64",
              "internalType": "uint64"
            },
            {
              "name": "expirationTime",
              "type": "uint64",
              "internalType": "uint64"
            },
            {
              "name": "revocationTime",
              "type": "uint64",
              "internalType": "uint64"
            },
            {
              "name": "refUID",
              "type": "bytes32",
              "internalType": "bytes32"
            },
            {
              "name": "recipient",
              "type": "address",
              "internalType": "address"
            },
            {
              "name": "attester",
              "type": "address",
              "internalType": "address"
            },
            {
              "name": "revocable",
              "type": "bool",
              "internalType": "bool"
            },
            {
              "name": "data",
              "type": "bytes",
              "internalType": "bytes"
            }
          ]
        },
        {
          "name": "",
          "type": "bytes32",
          "internalType": "bytes32"
        }
      ],
      "outputs": [],
      "stateMutability": "nonpayable"
    },
    {
      "type": "function",
      "name": "onReturn",
      "inputs": [
        {
          "name": "data",
          "type": "bytes",
          "internalType": "bytes"
        },
        {
          "name": "to",
          "type": "address",
          "internalType": "address"
        },
        {
          "name": "escrow",
          "type": "tuple",
          "internalType": "struct Attestation",
          "components": [
            {
              "name": "uid",
              "type": "bytes32",
              "internalType": "bytes32"
            },
            {
              "name": "schema",
              "type": "bytes32",
              "internalType": "bytes32"
            },
            {
              "name": "time",
              "type": "uint64",
              "internalType": "uint64"
            },
            {
              "name": "expirationTime",
              "type": "uint64",
              "internalType": "uint64"
            },
            {
              "name": "revocationTime",
              "type": "uint64",
              "internalType": "uint64"
            },
            {
              "name": "refUID",
              "type": "bytes32",
              "internalType": "bytes32"
            },
            {
              "name": "recipient",
              "type": "address",
              "internalType": "address"
            },
            {
              "name": "attester",
              "type": "address",
              "internalType": "address"
            },
            {
              "name": "revocable",
              "type": "bool",
              "internalType": "bool"
            },
            {
              "name": "data",
              "type": "bytes",
              "internalType": "bytes"
            }
          ]
        }
      ],
      "outputs": [],
      "stateMutability": "nonpayable"
    },
    {
      "type": "function",
      "name": "pending",
      "inputs": [
        {
          "name": "",
          "type": "address",
          "internalType": "address"
        },
        {
          "name": "",
          "type": "bytes32",
          "internalType": "bytes32"
        }
      ],
      "outputs": [
        {
          "name": "",
          "type": "uint256",
          "internalType": "uint256"
        }
      ],
      "stateMutability": "view"
    },
    {
      "type": "function",
      "name": "pendingValue",
      "inputs": [
        {
          "name": "",
          "type": "address",
          "internalType": "address"
        },
        {
          "name": "",
          "type": "bytes32",
          "internalType": "bytes32"
        }
      ],
      "outputs": [
        {
          "name": "",
          "type": "uint256",
          "internalType": "uint256"
        }
      ],
      "stateMutability": "view"
    },
    {
      "type": "function",
      "name": "unapproveEscrow",
      "inputs": [
        {
          "name": "escrow",
          "type": "address",
          "internalType": "address"
        }
      ],
      "outputs": [],
      "stateMutability": "nonpayable"
    },
    {
      "type": "event",
      "name": "EscrowApproval",
      "inputs": [
        {
          "name": "owner",
          "type": "address",
          "indexed": true,
          "internalType": "address"
        },
        {
          "name": "escrow",
          "type": "address",
          "indexed": true,
          "internalType": "address"
        },
        {
          "name": "approved",
          "type": "bool",
          "indexed": false,
          "internalType": "bool"
        }
      ],
      "anonymous": false
    },
    {
      "type": "error",
      "name": "AttestationCreationFailed",
      "inputs": []
    },
    {
      "type": "error",
      "name": "EscrowCallerMismatch",
      "inputs": [
        {
          "name": "caller",
          "type": "address",
          "internalType": "address"
        },
        {
          "name": "escrow",
          "type": "address",
          "internalType": "address"
        }
      ]
    },
    {
      "type": "error",
      "name": "IncorrectPayment",
      "inputs": [
        {
          "name": "expected",
          "type": "uint256",
          "internalType": "uint256"
        },
        {
          "name": "received",
          "type": "uint256",
          "internalType": "uint256"
        }
      ]
    },
    {
      "type": "error",
      "name": "NativeTokenTransferFailed",
      "inputs": [
        {
          "name": "to",
          "type": "address",
          "internalType": "address"
        },
        {
          "name": "amount",
          "type": "uint256",
          "internalType": "uint256"
        }
      ]
    },
    {
      "type": "error",
      "name": "NoPendingAttestation",
      "inputs": [
        {
          "name": "caller",
          "type": "address",
          "internalType": "address"
        },
        {
          "name": "hookDataHash",
          "type": "bytes32",
          "internalType": "bytes32"
        }
      ]
    },
    {
      "type": "error",
      "name": "UnauthorizedEscrowCaller",
      "inputs": [
        {
          "name": "owner",
          "type": "address",
          "internalType": "address"
        },
        {
          "name": "caller",
          "type": "address",
          "internalType": "address"
        }
      ]
    },
    {
      "type": "error",
      "name": "UnexpectedNativeValue",
      "inputs": []
    }
  ],
  "bytecode": {
    "object": "0x60a034606d57601f610d8a38819003918201601f19168301916001600160401b03831184841017607157808492602094604052833981010312606d57516001600160a01b0381168103606d57608052604051610d04908161008682396080518181816103b501526108c50152f35b5f80fd5b634e487b7160e01b5f52604160045260245ffdfe60806040526004361015610011575f80fd5b5f3560e01c80630fa37a1f146107b4578063136befcf1461059f5780631dc8160b1461066b578063297ae412146105f55780633d0e5a6a1461059f5780634591152814610531578063561ca525146103e45780638150864d146103a0578063990df87814610241578063be1e753b146101e1578063c18dd4931461019d578063df339519146101595763f73085df146100a8575f80fd5b34610155576020366003190112610155576004356001600160401b038111610155576101366100de610151923690600401610950565b6040516100ea81610a50565b604051906100f782610a7f565b5f825260405161010681610a9a565b5f81525f60208201525f60408201525f6060820152606060808201525f60a0820152602083015252810190610b54565b604051918291602083525160208084015260408301906109e1565b0390f35b5f80fd5b34610155576040366003190112610155576001600160a01b0361017a610993565b165f52600260205260405f206024355f52602052602060405f2054604051908152f35b34610155576040366003190112610155576001600160a01b036101be610993565b165f52600160205260405f206024355f52602052602060405f2054604051908152f35b34610155576040366003190112610155576004356001600160401b03811161015557610211903690600401610950565b50506024356001600160401b0381116101555761014060031982360301126101555761023f90600401610c83565b005b34610155576020366003190112610155576004356001600160401b03811161015557803603906020600319830112610155576040516020808201529160048201359060421901811215610155576020604084015201600481013560608301526024810135903681900360c21901821215610155576040608084015201600401906001600160a01b036102d2836109a9565b1660a08201526001600160401b036102ec60208401610b33565b1660c08201526102fe60408301610b47565b151560e082015260608201356101008201526080820135601e19833603018112156101555782016020813591016001600160401b03821161015557813603811361015557828260a06101519661038c956101809560c061012087015281610160870152868601375f8584860101520135610140830152601f801991011681010301601f198101835282610ab5565b6040519182916020835260208301906109bd565b34610155575f366003190112610155576040517f00000000000000000000000000000000000000000000000000000000000000006001600160a01b03168152602090f35b34610155576060366003190112610155576004356001600160401b03811161015557610414903690600401610950565b61041c61097d565b906044356001600160401b0381116101555761014060031982360301126101555761044990600401610c83565b610454368285610af1565b6020815191012092335f52600160205260405f20845f5260205260405f205461047957005b6104aa60209160a093335f526001845260405f20875f52845260405f206104a08154610b27565b9055810190610b54565b510151015191335f52600260205260405f20905f5260205260405f206104d1838254610c62565b9055816104da57005b6001600160a01b03165f80808085855af13d1561052c573d6104fb81610ad6565b906105096040519283610ab5565b81525f60203d92013e5b61023f576338f0620160e21b5f5260045260245260445ffd5b610513565b346101555760203660031901126101555761054a610993565b335f818152602081815260408083206001600160a01b0395909516808452948252808320805460ff19169055519182527fbfe3408398a6b959bc04ab1cfde500aff4ee06af8ed2483286cc8d1feeb85ed991a3005b34610155576040366003190112610155576105b8610993565b6105c061097d565b9060018060a01b03165f525f60205260405f209060018060a01b03165f52602052602060ff60405f2054166040519015158152f35b346101555760203660031901126101555761060e610993565b335f818152602081815260408083206001600160a01b039590951680845294825291829020805460ff1916600190811790915591519182527fbfe3408398a6b959bc04ab1cfde500aff4ee06af8ed2483286cc8d1feeb85ed991a3005b6060366003190112610155576004356001600160401b03811161015557610696903690600401610950565b61069e61097d565b6044356001600160a01b038116908190036101555780330361079e57506001600160a01b03165f8181526020818152604080832033845290915290205460ff1615610788575060a060206106f483850185610b54565b5101510151918234036107715761070c913691610af1565b60208151910120335f52600160205260405f20815f5260205260405f2080545f19811461075d576001019055335f52600260205260405f20905f5260205260405f20805491820180921161075d5755005b634e487b7160e01b5f52601160045260245ffd5b82630d35e92160e01b5f526004523460245260445ffd5b6310d5e09d60e11b5f526004523360245260445ffd5b6303e011e160e31b5f523360045260245260445ffd5b34610155576080366003190112610155576004356001600160401b038111610155576107e4903690600401610950565b906107ed61097d565b506044356001600160401b0381116101555761014060031982360301126101555761081a90600401610c83565b610825368383610af1565b6020815191012091335f52600160205260405f20835f5260205260405f20541561093957916108726020926108c194335f526001855260405f20845f52855260405f206104a08154610b27565b60a08382510151015191335f526002845260405f20905f52835260405f2061089b838254610c62565b90555190604051808095819463f17325e760e01b835286600484015260248301906109e1565b03917f00000000000000000000000000000000000000000000000000000000000000006001600160a01b03165af1908161090a575b5061023f57638d7100d760e01b5f5260045ffd5b6020813d602011610931575b8161092360209383610ab5565b8101031261015557516108f6565b3d9150610916565b82634fb00a7b60e11b5f523360045260245260445ffd5b9181601f84011215610155578235916001600160401b038311610155576020838186019501011161015557565b602435906001600160a01b038216820361015557565b600435906001600160a01b038216820361015557565b35906001600160a01b038216820361015557565b805180835260209291819084018484015e5f828201840152601f01601f1916010190565b602090805183520151906040602082015260018060a01b0382511660408201526001600160401b036020830151166060820152604082015115156080820152606082015160a082015260e060a0610a47608085015160c0808601526101008501906109bd565b93015191015290565b602081019081106001600160401b03821117610a6b57604052565b634e487b7160e01b5f52604160045260245ffd5b604081019081106001600160401b03821117610a6b57604052565b60c081019081106001600160401b03821117610a6b57604052565b90601f801991011681019081106001600160401b03821117610a6b57604052565b6001600160401b038111610a6b57601f01601f191660200190565b929192610afd82610ad6565b91610b0b6040519384610ab5565b829481845281830111610155578281602093845f960137010152565b801561075d575f190190565b35906001600160401b038216820361015557565b3590811515820361015557565b602081830312610155578035906001600160401b0382116101555701906020828203126101555760405191610b8883610a50565b8035906001600160401b0382116101555701906040828203126101555760405191610bb283610a7f565b803583526020810135906001600160401b03821161015557019060c0828203126101555760405191610be383610a9a565b610bec816109a9565b8352610bfa60208201610b33565b6020840152610c0b60408201610b47565b60408401526060810135606084015260808101356001600160401b03811161015557810182601f820112156101555760a092816020610c4c93359101610af1565b6080840152013560a08201526020820152815290565b9190820391821161075d57565b356001600160a01b03811681036101555790565b60e0016001600160a01b03610c9782610c6f565b163303610ca15750565b610caa90610c6f565b6303e011e160e31b5f908152336004526001600160a01b0391909116602452604490fdfea2646970667358221220ca8e4caa3a49ce1b30e6a4e5025ab36d060dbbde0f5cf1f987f000e73361b2fb64736f6c634300081b0033",
    "linkReferences": {}
  },
  "methodIdentifiers": {
    "approveEscrow(address)": "297ae412",
    "approvedEscrows(address,address)": "136befcf",
    "decodeHookData(bytes)": "f73085df",
    "eas()": "8150864d",
    "encodeHookData(((bytes32,(address,uint64,bool,bytes32,bytes,uint256))))": "990df878",
    "isEscrowApproved(address,address)": "3d0e5a6a",
    "onAttest(bytes,(bytes32,bytes32,uint64,uint64,uint64,bytes32,address,address,bool,bytes))": "be1e753b",
    "onLock(bytes,address,address)": "1dc8160b",
    "onRelease(bytes,address,(bytes32,bytes32,uint64,uint64,uint64,bytes32,address,address,bool,bytes),bytes32)": "0fa37a1f",
    "onReturn(bytes,address,(bytes32,bytes32,uint64,uint64,uint64,bytes32,address,address,bool,bytes))": "561ca525",
    "pending(address,bytes32)": "c18dd493",
    "pendingValue(address,bytes32)": "df339519",
    "unapproveEscrow(address)": "45911528"
  },
  "id": 126
}