{
  "abi": [
    {
      "type": "constructor",
      "inputs": [
        {
          "name": "_eas",
          "type": "address",
          "internalType": "contract IEAS"
        },
        {
          "name": "_schemaRegistry",
          "type": "address",
          "internalType": "contract ISchemaRegistry"
        }
      ],
      "stateMutability": "nonpayable"
    },
    {
      "type": "receive",
      "stateMutability": "payable"
    },
    {
      "type": "function",
      "name": "VALIDATION_SCHEMA",
      "inputs": [],
      "outputs": [
        {
          "name": "",
          "type": "bytes32",
          "internalType": "bytes32"
        }
      ],
      "stateMutability": "view"
    },
    {
      "type": "function",
      "name": "attest",
      "inputs": [
        {
          "name": "attestation",
          "type": "tuple",
          "internalType": "struct Attestation",
          "components": [
            {
              "name": "uid",
              "type": "bytes32",
              "internalType": "bytes32"
            },
            {
              "name": "schema",
              "type": "bytes32",
              "internalType": "bytes32"
            },
            {
              "name": "time",
              "type": "uint64",
              "internalType": "uint64"
            },
            {
              "name": "expirationTime",
              "type": "uint64",
              "internalType": "uint64"
            },
            {
              "name": "revocationTime",
              "type": "uint64",
              "internalType": "uint64"
            },
            {
              "name": "refUID",
              "type": "bytes32",
              "internalType": "bytes32"
            },
            {
              "name": "recipient",
              "type": "address",
              "internalType": "address"
            },
            {
              "name": "attester",
              "type": "address",
              "internalType": "address"
            },
            {
              "name": "revocable",
              "type": "bool",
              "internalType": "bool"
            },
            {
              "name": "data",
              "type": "bytes",
              "internalType": "bytes"
            }
          ]
        }
      ],
      "outputs": [
        {
          "name": "",
          "type": "bool",
          "internalType": "bool"
        }
      ],
      "stateMutability": "payable"
    },
    {
      "type": "function",
      "name": "decodeHookData",
      "inputs": [
        {
          "name": "data",
          "type": "bytes",
          "internalType": "bytes"
        }
      ],
      "outputs": [
        {
          "name": "",
          "type": "tuple",
          "internalType": "struct AttestationEscrowHook2.HookData",
          "components": [
            {
              "name": "attestationUid",
              "type": "bytes32",
              "internalType": "bytes32"
            },
            {
              "name": "recipient",
              "type": "address",
              "internalType": "address"
            }
          ]
        }
      ],
      "stateMutability": "pure"
    },
    {
      "type": "function",
      "name": "eas",
      "inputs": [],
      "outputs": [
        {
          "name": "",
          "type": "address",
          "internalType": "contract IEAS"
        }
      ],
      "stateMutability": "view"
    },
    {
      "type": "function",
      "name": "encodeHookData",
      "inputs": [
        {
          "name": "hookData",
          "type": "tuple",
          "internalType": "struct AttestationEscrowHook2.HookData",
          "components": [
            {
              "name": "attestationUid",
              "type": "bytes32",
              "internalType": "bytes32"
            },
            {
              "name": "recipient",
              "type": "address",
              "internalType": "address"
            }
          ]
        }
      ],
      "outputs": [
        {
          "name": "",
          "type": "bytes",
          "internalType": "bytes"
        }
      ],
      "stateMutability": "pure"
    },
    {
      "type": "function",
      "name": "isPayable",
      "inputs": [],
      "outputs": [
        {
          "name": "",
          "type": "bool",
          "internalType": "bool"
        }
      ],
      "stateMutability": "pure"
    },
    {
      "type": "function",
      "name": "multiAttest",
      "inputs": [
        {
          "name": "attestations",
          "type": "tuple[]",
          "internalType": "struct Attestation[]",
          "components": [
            {
              "name": "uid",
              "type": "bytes32",
              "internalType": "bytes32"
            },
            {
              "name": "schema",
              "type": "bytes32",
              "internalType": "bytes32"
            },
            {
              "name": "time",
              "type": "uint64",
              "internalType": "uint64"
            },
            {
              "name": "expirationTime",
              "type": "uint64",
              "internalType": "uint64"
            },
            {
              "name": "revocationTime",
              "type": "uint64",
              "internalType": "uint64"
            },
            {
              "name": "refUID",
              "type": "bytes32",
              "internalType": "bytes32"
            },
            {
              "name": "recipient",
              "type": "address",
              "internalType": "address"
            },
            {
              "name": "attester",
              "type": "address",
              "internalType": "address"
            },
            {
              "name": "revocable",
              "type": "bool",
              "internalType": "bool"
            },
            {
              "name": "data",
              "type": "bytes",
              "internalType": "bytes"
            }
          ]
        },
        {
          "name": "values",
          "type": "uint256[]",
          "internalType": "uint256[]"
        }
      ],
      "outputs": [
        {
          "name": "",
          "type": "bool",
          "internalType": "bool"
        }
      ],
      "stateMutability": "payable"
    },
    {
      "type": "function",
      "name": "multiRevoke",
      "inputs": [
        {
          "name": "attestations",
          "type": "tuple[]",
          "internalType": "struct Attestation[]",
          "components": [
            {
              "name": "uid",
              "type": "bytes32",
              "internalType": "bytes32"
            },
            {
              "name": "schema",
              "type": "bytes32",
              "internalType": "bytes32"
            },
            {
              "name": "time",
              "type": "uint64",
              "internalType": "uint64"
            },
            {
              "name": "expirationTime",
              "type": "uint64",
              "internalType": "uint64"
            },
            {
              "name": "revocationTime",
              "type": "uint64",
              "internalType": "uint64"
            },
            {
              "name": "refUID",
              "type": "bytes32",
              "internalType": "bytes32"
            },
            {
              "name": "recipient",
              "type": "address",
              "internalType": "address"
            },
            {
              "name": "attester",
              "type": "address",
              "internalType": "address"
            },
            {
              "name": "revocable",
              "type": "bool",
              "internalType": "bool"
            },
            {
              "name": "data",
              "type": "bytes",
              "internalType": "bytes"
            }
          ]
        },
        {
          "name": "values",
          "type": "uint256[]",
          "internalType": "uint256[]"
        }
      ],
      "outputs": [
        {
          "name": "",
          "type": "bool",
          "internalType": "bool"
        }
      ],
      "stateMutability": "payable"
    },
    {
      "type": "function",
      "name": "onAttest",
      "inputs": [
        {
          "name": "",
          "type": "bytes",
          "internalType": "bytes"
        },
        {
          "name": "",
          "type": "tuple",
          "internalType": "struct Attestation",
          "components": [
            {
              "name": "uid",
              "type": "bytes32",
              "internalType": "bytes32"
            },
            {
              "name": "schema",
              "type": "bytes32",
              "internalType": "bytes32"
            },
            {
              "name": "time",
              "type": "uint64",
              "internalType": "uint64"
            },
            {
              "name": "expirationTime",
              "type": "uint64",
              "internalType": "uint64"
            },
            {
              "name": "revocationTime",
              "type": "uint64",
              "internalType": "uint64"
            },
            {
              "name": "refUID",
              "type": "bytes32",
              "internalType": "bytes32"
            },
            {
              "name": "recipient",
              "type": "address",
              "internalType": "address"
            },
            {
              "name": "attester",
              "type": "address",
              "internalType": "address"
            },
            {
              "name": "revocable",
              "type": "bool",
              "internalType": "bool"
            },
            {
              "name": "data",
              "type": "bytes",
              "internalType": "bytes"
            }
          ]
        }
      ],
      "outputs": [],
      "stateMutability": "nonpayable"
    },
    {
      "type": "function",
      "name": "onLock",
      "inputs": [
        {
          "name": "data",
          "type": "bytes",
          "internalType": "bytes"
        },
        {
          "name": "",
          "type": "address",
          "internalType": "address"
        },
        {
          "name": "",
          "type": "address",
          "internalType": "address"
        }
      ],
      "outputs": [],
      "stateMutability": "payable"
    },
    {
      "type": "function",
      "name": "onRelease",
      "inputs": [
        {
          "name": "data",
          "type": "bytes",
          "internalType": "bytes"
        },
        {
          "name": "",
          "type": "address",
          "internalType": "address"
        },
        {
          "name": "",
          "type": "tuple",
          "internalType": "struct Attestation",
          "components": [
            {
              "name": "uid",
              "type": "bytes32",
              "internalType": "bytes32"
            },
            {
              "name": "schema",
              "type": "bytes32",
              "internalType": "bytes32"
            },
            {
              "name": "time",
              "type": "uint64",
              "internalType": "uint64"
            },
            {
              "name": "expirationTime",
              "type": "uint64",
              "internalType": "uint64"
            },
            {
              "name": "revocationTime",
              "type": "uint64",
              "internalType": "uint64"
            },
            {
              "name": "refUID",
              "type": "bytes32",
              "internalType": "bytes32"
            },
            {
              "name": "recipient",
              "type": "address",
              "internalType": "address"
            },
            {
              "name": "attester",
              "type": "address",
              "internalType": "address"
            },
            {
              "name": "revocable",
              "type": "bool",
              "internalType": "bool"
            },
            {
              "name": "data",
              "type": "bytes",
              "internalType": "bytes"
            }
          ]
        },
        {
          "name": "",
          "type": "bytes32",
          "internalType": "bytes32"
        }
      ],
      "outputs": [],
      "stateMutability": "nonpayable"
    },
    {
      "type": "function",
      "name": "onReturn",
      "inputs": [
        {
          "name": "data",
          "type": "bytes",
          "internalType": "bytes"
        },
        {
          "name": "",
          "type": "address",
          "internalType": "address"
        },
        {
          "name": "",
          "type": "tuple",
          "internalType": "struct Attestation",
          "components": [
            {
              "name": "uid",
              "type": "bytes32",
              "internalType": "bytes32"
            },
            {
              "name": "schema",
              "type": "bytes32",
              "internalType": "bytes32"
            },
            {
              "name": "time",
              "type": "uint64",
              "internalType": "uint64"
            },
            {
              "name": "expirationTime",
              "type": "uint64",
              "internalType": "uint64"
            },
            {
              "name": "revocationTime",
              "type": "uint64",
              "internalType": "uint64"
            },
            {
              "name": "refUID",
              "type": "bytes32",
              "internalType": "bytes32"
            },
            {
              "name": "recipient",
              "type": "address",
              "internalType": "address"
            },
            {
              "name": "attester",
              "type": "address",
              "internalType": "address"
            },
            {
              "name": "revocable",
              "type": "bool",
              "internalType": "bool"
            },
            {
              "name": "data",
              "type": "bytes",
              "internalType": "bytes"
            }
          ]
        }
      ],
      "outputs": [],
      "stateMutability": "nonpayable"
    },
    {
      "type": "function",
      "name": "pending",
      "inputs": [
        {
          "name": "",
          "type": "address",
          "internalType": "address"
        },
        {
          "name": "",
          "type": "bytes32",
          "internalType": "bytes32"
        }
      ],
      "outputs": [
        {
          "name": "",
          "type": "uint256",
          "internalType": "uint256"
        }
      ],
      "stateMutability": "view"
    },
    {
      "type": "function",
      "name": "revoke",
      "inputs": [
        {
          "name": "attestation",
          "type": "tuple",
          "internalType": "struct Attestation",
          "components": [
            {
              "name": "uid",
              "type": "bytes32",
              "internalType": "bytes32"
            },
            {
              "name": "schema",
              "type": "bytes32",
              "internalType": "bytes32"
            },
            {
              "name": "time",
              "type": "uint64",
              "internalType": "uint64"
            },
            {
              "name": "expirationTime",
              "type": "uint64",
              "internalType": "uint64"
            },
            {
              "name": "revocationTime",
              "type": "uint64",
              "internalType": "uint64"
            },
            {
              "name": "refUID",
              "type": "bytes32",
              "internalType": "bytes32"
            },
            {
              "name": "recipient",
              "type": "address",
              "internalType": "address"
            },
            {
              "name": "attester",
              "type": "address",
              "internalType": "address"
            },
            {
              "name": "revocable",
              "type": "bool",
              "internalType": "bool"
            },
            {
              "name": "data",
              "type": "bytes",
              "internalType": "bytes"
            }
          ]
        }
      ],
      "outputs": [
        {
          "name": "",
          "type": "bool",
          "internalType": "bool"
        }
      ],
      "stateMutability": "payable"
    },
    {
      "type": "function",
      "name": "version",
      "inputs": [],
      "outputs": [
        {
          "name": "",
          "type": "string",
          "internalType": "string"
        }
      ],
      "stateMutability": "view"
    },
    {
      "type": "error",
      "name": "AccessDenied",
      "inputs": []
    },
    {
      "type": "error",
      "name": "AttestationCreationFailed",
      "inputs": []
    },
    {
      "type": "error",
      "name": "InsufficientValue",
      "inputs": []
    },
    {
      "type": "error",
      "name": "InvalidEAS",
      "inputs": []
    },
    {
      "type": "error",
      "name": "InvalidLength",
      "inputs": []
    },
    {
      "type": "error",
      "name": "NoPendingValidation",
      "inputs": [
        {
          "name": "caller",
          "type": "address",
          "internalType": "address"
        },
        {
          "name": "hookDataHash",
          "type": "bytes32",
          "internalType": "bytes32"
        }
      ]
    },
    {
      "type": "error",
      "name": "NotPayable",
      "inputs": []
    },
    {
      "type": "error",
      "name": "SchemaRegistrationFailed",
      "inputs": [
        {
          "name": "uid",
          "type": "bytes32",
          "internalType": "bytes32"
        }
      ]
    },
    {
      "type": "error",
      "name": "UnexpectedNativeValue",
      "inputs": []
    }
  ],
  "bytecode": {
    "object": "0x610140806040523461011a576040816110808038038091610020828561011e565b83398101031261011a578051906001600160a01b0382169081830361011a5760200151906001600160a01b038216820361011a576001608052600360a0525f60c0521561010b57816100b29260e0526101005260405161008160408261011e565b601f81527f627974657333322076616c6964617465644174746573746174696f6e5569640060208201523091610239565b61012052604051610c6b90816104158239608051816103e2015260a0518161040d015260c05181610438015260e05181610bdd0152610100518181816102e8015261072701526101205181818161017e015261067a0152f35b6341bc07ff60e11b5f5260045ffd5b5f80fd5b601f909101601f19168101906001600160401b0382119082101761014157604052565b634e487b7160e01b5f52604160045260245ffd5b60208183031261011a578051906001600160401b03821161011a57019060808282031261011a5760405191608083016001600160401b03811184821017610141576040528051835260208101516001600160a01b038116810361011a5760208401526040810151801515810361011a5760408401526060810151906001600160401b03821161011a570181601f8201121561011a578051906001600160401b0382116101415760405192610213601f8401601f19166020018561011e565b8284526020838301011161011a57815f9260208093018386015e83010152606082015290565b929160405190602082018351926102836015602083818901978089885e810160018060601b03198860601b1683820152600160f81b60348201520301600a1981018452018261011e565b5190206040516351753e3760e11b81526004810182905290956001600160a01b031693905f81602481885afa80156103945787915f916103fa575b5051146103f4579060846020926040519485938492630c1af44f60e31b8452606060048501525180928160648601528585015e5f84838501015260018060a01b0316602483015260016044830152601f801991011681010301815f865af15f91816103c0575b5061039f57505f602491604051928380926351753e3760e11b82528760048301525afa80156103945783915f91610372575b5051146103705750639e6113d560e01b5f5260045260245ffd5b565b61038e91503d805f833e610386818361011e565b810190610155565b5f610356565b6040513d5f823e3d90fd5b919280915082036103ae575090565b639e6113d560e01b5f5260045260245ffd5b9091506020813d6020116103ec575b816103dc6020938361011e565b8101031261011a5751905f610324565b3d91506103cf565b50505050565b61040e91503d805f833e610386818361011e565b5f6102be56fe60806040526004361015610027575b3615610018575f80fd5b631574f9f360e01b5f5260045ffd5b5f3560e01c80630fa37a1f1461054f5780631dc8160b146104b157806354fd4d50146103c3578063561ca525146103175780638150864d146102d357806388e5b2d9146102b457806391db0b7e146102b4578063be1e753b1461025f578063c18dd49314610218578063ce46e046146101fe578063dc85227d146101a1578063df61dd2c14610167578063e49617e114610142578063e60c3505146101425763f73085df0361000e573461013e57602036600319011261013e576004356001600160401b03811161013e5761012061010560409236906004016107c8565b5f60208551610113816108f9565b8281520152810190610992565b8151815181526020918201516001600160a01b031691810191909152f35b5f80fd5b602061015d610150366108c5565b610158610bdb565b610c1c565b6040519015158152f35b3461013e575f36600319011261013e5760206040517f00000000000000000000000000000000000000000000000000000000000000008152f35b3461013e57604036600319011261013e5760405160043560208201526101fa906001600160a01b036101d16107f5565b166040820152604081526101e6606082610914565b604051918291602083526020830190610821565b0390f35b3461013e575f36600319011261013e5760206040515f8152f35b3461013e57604036600319011261013e576004356001600160a01b0381169081900361013e575f525f60205260405f206024355f52602052602060405f2054604051908152f35b3461013e57604036600319011261013e576004356001600160401b03811161013e5761028f9036906004016107c8565b50506024356001600160401b03811161013e5761014090600319903603011261013e57005b602061015d6102c236610875565b926102ce929192610bdb565b6109ca565b3461013e575f36600319011261013e576040517f00000000000000000000000000000000000000000000000000000000000000006001600160a01b03168152602090f35b3461013e57606036600319011261013e576004356001600160401b03811161013e576103479036906004016107c8565b906103506107f5565b506044356001600160401b03811161013e5761014090600319903603011261013e5761037d913691610950565b60208151910120335f525f60205260405f20815f5260205260405f20546103a057005b335f525f60205260405f20905f5260205260405f206103bf8154610986565b9055005b3461013e575f36600319011261013e576101fa60206101e660016104067f0000000000000000000000000000000000000000000000000000000000000000610a6e565b81846104317f0000000000000000000000000000000000000000000000000000000000000000610a6e565b818061045c7f0000000000000000000000000000000000000000000000000000000000000000610a6e565b9260405199878b985191829101848a015e870190601760f91b83830152805192839101602183015e010190601760f91b84830152805192839101600283015e01015f838201520301601f198101835282610914565b606036600319011261013e576004356001600160401b03811161013e576104dc9036906004016107c8565b906104e56107f5565b506104ee61080b565b5034610540576104ff913691610950565b60208151910120335f525f60205260405f20905f5260205260405f2080545f19811461052c576001019055005b634e487b7160e01b5f52601160045260245ffd5b63e0aeda7d60e01b5f5260045ffd5b3461013e57608036600319011261013e576004356001600160401b03811161013e5761057f9036906004016107c8565b906105886107f5565b506044356001600160401b03811161013e5761014090600319903603011261013e576105b5368383610950565b6020815191012091335f525f60205260405f20835f5260205260405f2054156107b15761060592335f525f60205260405f20905f5260205260405f206105fb8154610986565b9055810190610992565b80516040519060208201526020815261061f604082610914565b60208201519151604051926001600160a01b031660c084016001600160401b0381118582101761079d5760405283525f60208401525f6040840152606083015260808201525f60a08201526020604051610678816108f9565b7f000000000000000000000000000000000000000000000000000000000000000081528181019283526040518093819263f17325e760e01b8352846004840152516024830152516040604483015260018060a01b0381511660648301526001600160401b03848201511660848301526040810151151560a4830152606081015160c483015260a0610719608083015160c060e4860152610124850190610821565b91015161010483015203815f7f00000000000000000000000000000000000000000000000000000000000000006001600160a01b03165af1908161076e575b5061076c57638d7100d760e01b5f5260045ffd5b005b6020813d602011610795575b8161078760209383610914565b8101031261013e5751610758565b3d915061077a565b634e487b7160e01b5f52604160045260245ffd5b8263c0da149960e01b5f523360045260245260445ffd5b9181601f8401121561013e578235916001600160401b03831161013e576020838186019501011161013e57565b602435906001600160a01b038216820361013e57565b604435906001600160a01b038216820361013e57565b805180835260209291819084018484015e5f828201840152601f01601f1916010190565b9181601f8401121561013e578235916001600160401b03831161013e576020808501948460051b01011161013e57565b604060031982011261013e576004356001600160401b03811161013e578161089f91600401610845565b92909291602435906001600160401b03821161013e576108c191600401610845565b9091565b602060031982011261013e57600435906001600160401b03821161013e5761014090829003600319011261013e5760040190565b604081019081106001600160401b0382111761079d57604052565b90601f801991011681019081106001600160401b0382111761079d57604052565b6001600160401b03811161079d57601f01601f191660200190565b92919261095c82610935565b9161096a6040519384610914565b82948184528183011161013e578281602093845f960137010152565b801561052c575f190190565b9081604091031261013e576020604051916109ac836108f9565b8035835201356001600160a01b038116810361013e57602082015290565b929092818403610a5f575f91345b85841015610a545781841015610a40578360051b8086013590828211610a315784013561013e198536030181121561013e57610a15908501610c1c565b15610a2657600191039301926109d8565b505050505050505f90565b63044044a560e21b5f5260045ffd5b634e487b7160e01b5f52603260045260245ffd5b505050505050600190565b63251f56a160e21b5f5260045ffd5b805f9172184f03e93ff9f4daa797ed6e38ed64bf6a1f0160401b821015610bb8575b806d04ee2d6d415b85acef8100000000600a921015610b9d575b662386f26fc10000811015610b89575b6305f5e100811015610b78575b612710811015610b69575b6064811015610b5b575b1015610b50575b600a60216001840193610af585610935565b94610b036040519687610914565b808652610b12601f1991610935565b013660208701378401015b5f1901916f181899199a1a9b1b9c1cb0b131b232b360811b8282061a8353048015610b4b57600a9091610b1d565b505090565b600190910190610ae3565b606460029104930192610adc565b61271060049104930192610ad2565b6305f5e10060089104930192610ac7565b662386f26fc1000060109104930192610aba565b6d04ee2d6d415b85acef810000000060209104930192610aaa565b506040915072184f03e93ff9f4daa797ed6e38ed64bf6a1f0160401b8104610a90565b7f00000000000000000000000000000000000000000000000000000000000000006001600160a01b03163303610c0d57565b634ca8886760e01b5f5260045ffd5b60e0013560018060a01b03811680910361013e5730149056fea2646970667358221220d3f695354a43527ba257d44e7b86453fe716fd821d36c056c7bd47f25be98b3464736f6c634300081b0033",
    "linkReferences": {}
  },
  "methodIdentifiers": {
    "VALIDATION_SCHEMA()": "df61dd2c",
    "attest((bytes32,bytes32,uint64,uint64,uint64,bytes32,address,address,bool,bytes))": "e60c3505",
    "decodeHookData(bytes)": "f73085df",
    "eas()": "8150864d",
    "encodeHookData((bytes32,address))": "dc85227d",
    "isPayable()": "ce46e046",
    "multiAttest((bytes32,bytes32,uint64,uint64,uint64,bytes32,address,address,bool,bytes)[],uint256[])": "91db0b7e",
    "multiRevoke((bytes32,bytes32,uint64,uint64,uint64,bytes32,address,address,bool,bytes)[],uint256[])": "88e5b2d9",
    "onAttest(bytes,(bytes32,bytes32,uint64,uint64,uint64,bytes32,address,address,bool,bytes))": "be1e753b",
    "onLock(bytes,address,address)": "1dc8160b",
    "onRelease(bytes,address,(bytes32,bytes32,uint64,uint64,uint64,bytes32,address,address,bool,bytes),bytes32)": "0fa37a1f",
    "onReturn(bytes,address,(bytes32,bytes32,uint64,uint64,uint64,bytes32,address,address,bool,bytes))": "561ca525",
    "pending(address,bytes32)": "c18dd493",
    "revoke((bytes32,bytes32,uint64,uint64,uint64,bytes32,address,address,bool,bytes))": "e49617e1",
    "version()": "54fd4d50"
  },
  "id": 88
}