{
  "abi": [
    {
      "type": "function",
      "name": "approveEscrow",
      "inputs": [
        {
          "name": "escrow",
          "type": "address",
          "internalType": "address"
        }
      ],
      "outputs": [],
      "stateMutability": "nonpayable"
    },
    {
      "type": "function",
      "name": "approvedEscrows",
      "inputs": [
        {
          "name": "",
          "type": "address",
          "internalType": "address"
        },
        {
          "name": "",
          "type": "address",
          "internalType": "address"
        }
      ],
      "outputs": [
        {
          "name": "",
          "type": "bool",
          "internalType": "bool"
        }
      ],
      "stateMutability": "view"
    },
    {
      "type": "function",
      "name": "decodeHookData",
      "inputs": [
        {
          "name": "data",
          "type": "bytes",
          "internalType": "bytes"
        }
      ],
      "outputs": [
        {
          "name": "",
          "type": "tuple",
          "internalType": "struct ERC1155EscrowHook.HookData",
          "components": [
            {
              "name": "token",
              "type": "address",
              "internalType": "address"
            },
            {
              "name": "tokenId",
              "type": "uint256",
              "internalType": "uint256"
            },
            {
              "name": "amount",
              "type": "uint256",
              "internalType": "uint256"
            }
          ]
        }
      ],
      "stateMutability": "pure"
    },
    {
      "type": "function",
      "name": "deposits",
      "inputs": [
        {
          "name": "",
          "type": "address",
          "internalType": "address"
        },
        {
          "name": "",
          "type": "address",
          "internalType": "address"
        },
        {
          "name": "",
          "type": "uint256",
          "internalType": "uint256"
        }
      ],
      "outputs": [
        {
          "name": "",
          "type": "uint256",
          "internalType": "uint256"
        }
      ],
      "stateMutability": "view"
    },
    {
      "type": "function",
      "name": "encodeHookData",
      "inputs": [
        {
          "name": "hookData",
          "type": "tuple",
          "internalType": "struct ERC1155EscrowHook.HookData",
          "components": [
            {
              "name": "token",
              "type": "address",
              "internalType": "address"
            },
            {
              "name": "tokenId",
              "type": "uint256",
              "internalType": "uint256"
            },
            {
              "name": "amount",
              "type": "uint256",
              "internalType": "uint256"
            }
          ]
        }
      ],
      "outputs": [
        {
          "name": "",
          "type": "bytes",
          "internalType": "bytes"
        }
      ],
      "stateMutability": "pure"
    },
    {
      "type": "function",
      "name": "isEscrowApproved",
      "inputs": [
        {
          "name": "owner",
          "type": "address",
          "internalType": "address"
        },
        {
          "name": "escrow",
          "type": "address",
          "internalType": "address"
        }
      ],
      "outputs": [
        {
          "name": "",
          "type": "bool",
          "internalType": "bool"
        }
      ],
      "stateMutability": "view"
    },
    {
      "type": "function",
      "name": "onAttest",
      "inputs": [
        {
          "name": "",
          "type": "bytes",
          "internalType": "bytes"
        },
        {
          "name": "",
          "type": "tuple",
          "internalType": "struct Attestation",
          "components": [
            {
              "name": "uid",
              "type": "bytes32",
              "internalType": "bytes32"
            },
            {
              "name": "schema",
              "type": "bytes32",
              "internalType": "bytes32"
            },
            {
              "name": "time",
              "type": "uint64",
              "internalType": "uint64"
            },
            {
              "name": "expirationTime",
              "type": "uint64",
              "internalType": "uint64"
            },
            {
              "name": "revocationTime",
              "type": "uint64",
              "internalType": "uint64"
            },
            {
              "name": "refUID",
              "type": "bytes32",
              "internalType": "bytes32"
            },
            {
              "name": "recipient",
              "type": "address",
              "internalType": "address"
            },
            {
              "name": "attester",
              "type": "address",
              "internalType": "address"
            },
            {
              "name": "revocable",
              "type": "bool",
              "internalType": "bool"
            },
            {
              "name": "data",
              "type": "bytes",
              "internalType": "bytes"
            }
          ]
        }
      ],
      "outputs": [],
      "stateMutability": "nonpayable"
    },
    {
      "type": "function",
      "name": "onERC1155BatchReceived",
      "inputs": [
        {
          "name": "",
          "type": "address",
          "internalType": "address"
        },
        {
          "name": "",
          "type": "address",
          "internalType": "address"
        },
        {
          "name": "",
          "type": "uint256[]",
          "internalType": "uint256[]"
        },
        {
          "name": "",
          "type": "uint256[]",
          "internalType": "uint256[]"
        },
        {
          "name": "",
          "type": "bytes",
          "internalType": "bytes"
        }
      ],
      "outputs": [
        {
          "name": "",
          "type": "bytes4",
          "internalType": "bytes4"
        }
      ],
      "stateMutability": "nonpayable"
    },
    {
      "type": "function",
      "name": "onERC1155Received",
      "inputs": [
        {
          "name": "",
          "type": "address",
          "internalType": "address"
        },
        {
          "name": "",
          "type": "address",
          "internalType": "address"
        },
        {
          "name": "",
          "type": "uint256",
          "internalType": "uint256"
        },
        {
          "name": "",
          "type": "uint256",
          "internalType": "uint256"
        },
        {
          "name": "",
          "type": "bytes",
          "internalType": "bytes"
        }
      ],
      "outputs": [
        {
          "name": "",
          "type": "bytes4",
          "internalType": "bytes4"
        }
      ],
      "stateMutability": "nonpayable"
    },
    {
      "type": "function",
      "name": "onLock",
      "inputs": [
        {
          "name": "data",
          "type": "bytes",
          "internalType": "bytes"
        },
        {
          "name": "from",
          "type": "address",
          "internalType": "address"
        },
        {
          "name": "escrow",
          "type": "address",
          "internalType": "address"
        }
      ],
      "outputs": [],
      "stateMutability": "payable"
    },
    {
      "type": "function",
      "name": "onRelease",
      "inputs": [
        {
          "name": "data",
          "type": "bytes",
          "internalType": "bytes"
        },
        {
          "name": "to",
          "type": "address",
          "internalType": "address"
        },
        {
          "name": "escrow",
          "type": "tuple",
          "internalType": "struct Attestation",
          "components": [
            {
              "name": "uid",
              "type": "bytes32",
              "internalType": "bytes32"
            },
            {
              "name": "schema",
              "type": "bytes32",
              "internalType": "bytes32"
            },
            {
              "name": "time",
              "type": "uint64",
              "internalType": "uint64"
            },
            {
              "name": "expirationTime",
              "type": "uint64",
              "internalType": "uint64"
            },
            {
              "name": "revocationTime",
              "type": "uint64",
              "internalType": "uint64"
            },
            {
              "name": "refUID",
              "type": "bytes32",
              "internalType": "bytes32"
            },
            {
              "name": "recipient",
              "type": "address",
              "internalType": "address"
            },
            {
              "name": "attester",
              "type": "address",
              "internalType": "address"
            },
            {
              "name": "revocable",
              "type": "bool",
              "internalType": "bool"
            },
            {
              "name": "data",
              "type": "bytes",
              "internalType": "bytes"
            }
          ]
        },
        {
          "name": "",
          "type": "bytes32",
          "internalType": "bytes32"
        }
      ],
      "outputs": [],
      "stateMutability": "nonpayable"
    },
    {
      "type": "function",
      "name": "onReturn",
      "inputs": [
        {
          "name": "data",
          "type": "bytes",
          "internalType": "bytes"
        },
        {
          "name": "to",
          "type": "address",
          "internalType": "address"
        },
        {
          "name": "escrow",
          "type": "tuple",
          "internalType": "struct Attestation",
          "components": [
            {
              "name": "uid",
              "type": "bytes32",
              "internalType": "bytes32"
            },
            {
              "name": "schema",
              "type": "bytes32",
              "internalType": "bytes32"
            },
            {
              "name": "time",
              "type": "uint64",
              "internalType": "uint64"
            },
            {
              "name": "expirationTime",
              "type": "uint64",
              "internalType": "uint64"
            },
            {
              "name": "revocationTime",
              "type": "uint64",
              "internalType": "uint64"
            },
            {
              "name": "refUID",
              "type": "bytes32",
              "internalType": "bytes32"
            },
            {
              "name": "recipient",
              "type": "address",
              "internalType": "address"
            },
            {
              "name": "attester",
              "type": "address",
              "internalType": "address"
            },
            {
              "name": "revocable",
              "type": "bool",
              "internalType": "bool"
            },
            {
              "name": "data",
              "type": "bytes",
              "internalType": "bytes"
            }
          ]
        }
      ],
      "outputs": [],
      "stateMutability": "nonpayable"
    },
    {
      "type": "function",
      "name": "supportsInterface",
      "inputs": [
        {
          "name": "interfaceId",
          "type": "bytes4",
          "internalType": "bytes4"
        }
      ],
      "outputs": [
        {
          "name": "",
          "type": "bool",
          "internalType": "bool"
        }
      ],
      "stateMutability": "view"
    },
    {
      "type": "function",
      "name": "unapproveEscrow",
      "inputs": [
        {
          "name": "escrow",
          "type": "address",
          "internalType": "address"
        }
      ],
      "outputs": [],
      "stateMutability": "nonpayable"
    },
    {
      "type": "event",
      "name": "EscrowApproval",
      "inputs": [
        {
          "name": "owner",
          "type": "address",
          "indexed": true,
          "internalType": "address"
        },
        {
          "name": "escrow",
          "type": "address",
          "indexed": true,
          "internalType": "address"
        },
        {
          "name": "approved",
          "type": "bool",
          "indexed": false,
          "internalType": "bool"
        }
      ],
      "anonymous": false
    },
    {
      "type": "error",
      "name": "ERC1155TransferFailed",
      "inputs": [
        {
          "name": "token",
          "type": "address",
          "internalType": "address"
        },
        {
          "name": "from",
          "type": "address",
          "internalType": "address"
        },
        {
          "name": "to",
          "type": "address",
          "internalType": "address"
        },
        {
          "name": "tokenId",
          "type": "uint256",
          "internalType": "uint256"
        },
        {
          "name": "amount",
          "type": "uint256",
          "internalType": "uint256"
        }
      ]
    },
    {
      "type": "error",
      "name": "EscrowCallerMismatch",
      "inputs": [
        {
          "name": "caller",
          "type": "address",
          "internalType": "address"
        },
        {
          "name": "escrow",
          "type": "address",
          "internalType": "address"
        }
      ]
    },
    {
      "type": "error",
      "name": "InsufficientDeposit",
      "inputs": [
        {
          "name": "caller",
          "type": "address",
          "internalType": "address"
        },
        {
          "name": "token",
          "type": "address",
          "internalType": "address"
        },
        {
          "name": "tokenId",
          "type": "uint256",
          "internalType": "uint256"
        },
        {
          "name": "requested",
          "type": "uint256",
          "internalType": "uint256"
        },
        {
          "name": "available",
          "type": "uint256",
          "internalType": "uint256"
        }
      ]
    },
    {
      "type": "error",
      "name": "NoDeposit",
      "inputs": [
        {
          "name": "caller",
          "type": "address",
          "internalType": "address"
        },
        {
          "name": "token",
          "type": "address",
          "internalType": "address"
        },
        {
          "name": "tokenId",
          "type": "uint256",
          "internalType": "uint256"
        }
      ]
    },
    {
      "type": "error",
      "name": "UnauthorizedEscrowCaller",
      "inputs": [
        {
          "name": "owner",
          "type": "address",
          "internalType": "address"
        },
        {
          "name": "caller",
          "type": "address",
          "internalType": "address"
        }
      ]
    },
    {
      "type": "error",
      "name": "UnexpectedNativeValue",
      "inputs": []
    }
  ],
  "bytecode": {
    "object": "0x60808060405234601557610d7f908161001a8239f35b5f80fdfe6080806040526004361015610012575f80fd5b5f905f3560e01c90816301ffc9a7146108e7575080630fa37a1f1461087c578063136befcf146108265780631dc8160b14610502578063297ae412146104895780633d0e5a6a1461043257806345911528146103c0578063561ca5251461034a5780635d93a3fc146102f2578063bc197c811461025c578063be1e753b14610205578063e765fef514610190578063f23a6e611461013a5763f73085df146100b8575f80fd5b34610137576020366003190112610137576004356001600160401b038111610135576060916100ee61011092369060040161093a565b9091604080516100fd81610993565b8281528260208201520152810190610a9f565b6040805182516001600160a01b03168152602080840151908201529181015190820152f35b505b80fd5b50346101375760a03660031901126101375761015461097d565b5061015d610967565b506084356001600160401b0381116101355761017d903690600401610a4a565b5060405163f23a6e6160e01b8152602090f35b50346101375760603660031901126101375760408051602081016001600160a01b036101ba61097d565b168152602435838301526044356060830152606082526101db6080836109c2565b8251938492602084525180928160208601528585015e828201840152601f01601f19168101030190f35b5034610137576040366003190112610137576004356001600160401b0381116101355761023690369060040161093a565b50506024356001600160401b038111610135576101409060031990360301126101375780f35b50346101375760a03660031901126101375761027661097d565b5061027f610967565b506044356001600160401b0381116101355761029f9036906004016109e3565b506064356001600160401b038111610135576102bf9036906004016109e3565b506084356001600160401b038111610135576102df903690600401610a4a565b5060405163bc197c8160e01b8152602090f35b503461013757606036600319011261013757604060209161031161097d565b610319610967565b6001600160a01b0391821683526001855283832091165f908152908452829020604435825283522054604051908152f35b5034610137576060366003190112610137576004356001600160401b0381116101355761037b90369060040161093a565b610383610967565b90604435926001600160401b0384116103bc5761014060031985360301126103bc576103b46103b994600401610b4b565b610b96565b80f35b8480fd5b5034610137576020366003190112610137576103da61097d565b33808352602083815260408085206001600160a01b03949094165f81815294835293819020805460ff19169055518481527fbfe3408398a6b959bc04ab1cfde500aff4ee06af8ed2483286cc8d1feeb85ed99190a380f35b503461013757604036600319011261013757604061044e61097d565b91610457610967565b9260018060a01b0316815280602052209060018060a01b03165f52602052602060ff60405f2054166040519015158152f35b5034610137576020366003190112610137576104a361097d565b33808352602083815260408085206001600160a01b03949094165f81815294835293819020805460ff1916600190811790915590519081527fbfe3408398a6b959bc04ab1cfde500aff4ee06af8ed2483286cc8d1feeb85ed99190a380f35b506060366003190112610780576004356001600160401b0381116107805761052e90369060040161093a565b610536610967565b916044356001600160a01b038116908190036107805780330361081057506001600160a01b0383165f8181526020818152604080832033845290915290205460ff16156107fa5750346107eb5761058f91810190610a9f565b805160208083018051604051627eeac760e11b815230600482015260248101919091529094939092909190839060449082906001600160a01b03165afa9182156107e0575f926107ac575b50805184516040830180519094926001600160a01b03169190823b1561078057604051637921219560e11b81526001600160a01b03881660048201523060248201526044810192909252606482015260a060848201525f60a482018190529091829060c490829084905af19081610797575b506106855750519251905160405163334a7d1b60e21b815293849361068193913091906001600160a01b031660048701610ae3565b0390fd5b81518551604051627eeac760e11b81523060048201526024810191909152929594929190602090839060449082906001600160a01b03165afa91821561078c578792610752575b5083516106d891610b16565b1161072157505133845260016020908152604080862094516001600160a01b03165f9081529482529384902092518552919091529082208054909161071c91610b16565b905580f35b83519251915160405163334a7d1b60e21b81529384936106819390913091906001600160a01b031660048701610ae3565b9091506020813d602011610784575b8161076e602093836109c2565b810103126107805751906106d86106cc565b5f80fd5b3d9150610761565b6040513d89823e3d90fd5b6107a49197505f906109c2565b5f955f61064c565b9091506020813d6020116107d8575b816107c8602093836109c2565b810103126107805751905f6105da565b3d91506107bb565b6040513d5f823e3d90fd5b63e0aeda7d60e01b5f5260045ffd5b6310d5e09d60e11b5f526004523360245260445ffd5b6303e011e160e31b5f523360045260245260445ffd5b346107805760403660031901126107805761083f61097d565b610847610967565b9060018060a01b03165f525f60205260405f209060018060a01b03165f52602052602060ff60405f2054166040519015158152f35b34610780576080366003190112610780576004356001600160401b038111610780576108ac90369060040161093a565b6108b4610967565b90604435926001600160401b038411610780576101406003198536030112610780576103b46108e594600401610b4b565b005b34610780576020366003190112610780576004359063ffffffff60e01b821680920361078057602091630271189760e51b8114908115610929575b5015158152f35b6301ffc9a760e01b14905083610922565b9181601f84011215610780578235916001600160401b038311610780576020838186019501011161078057565b602435906001600160a01b038216820361078057565b600435906001600160a01b038216820361078057565b606081019081106001600160401b038211176109ae57604052565b634e487b7160e01b5f52604160045260245ffd5b90601f801991011681019081106001600160401b038211176109ae57604052565b9080601f83011215610780578135916001600160401b0383116109ae578260051b9060405193610a1660208401866109c2565b845260208085019282010192831161078057602001905b828210610a3a5750505090565b8135815260209182019101610a2d565b81601f82011215610780578035906001600160401b0382116109ae5760405192610a7e601f8401601f1916602001856109c2565b8284526020838301011161078057815f926020809301838601378301015290565b908160609103126107805760405190610ab782610993565b8035906001600160a01b0382168203610780576040918352602081013560208401520135604082015290565b6001600160a01b039182168152918116602083015290911660408201526060810191909152608081019190915260a00190565b91908201809211610b2357565b634e487b7160e01b5f52601160045260245ffd5b356001600160a01b03811681036107805790565b60e0016001600160a01b03610b5f82610b37565b163303610b695750565b610b7290610b37565b6303e011e160e31b5f908152336004526001600160a01b0391909116602452604490fd5b610ba591939293810190610a9f565b335f90815260016020908152604080832084516001600160a01b0316845282528083208285018051855292529091205490929091908215610d1f5760408201928351808210610ce0575083518103908111610b2357335f52600160205260405f2060018060a01b0384511660018060a01b03165f5260205260405f2085515f5260205260405f205560018060a01b0382511684518451823b1561078057604051637921219560e11b81523060048201526001600160a01b03891660248201526044810192909252606482015260a060848201525f60a482018190529091829060c490829084905af19081610cd0575b50610cc95750519151905160405163334a7d1b60e21b815293849361068193919030906001600160a01b031660048701610ae3565b9350505050565b5f610cda916109c2565b5f610c94565b92518551604051637b5793f360e11b81523360048201526001600160a01b0390921660248301526044820152606481019390935260848301525060a490fd5b81518451637bbf8f6560e11b5f908152336004526001600160a01b03909216602452604452606490fdfea264697066735822122017e585afcb8aa8b1ac174aac8fa862daf0dd80eb9e938fbf4cbc916f543b84fd64736f6c634300081b0033",
    "linkReferences": {}
  },
  "methodIdentifiers": {
    "approveEscrow(address)": "297ae412",
    "approvedEscrows(address,address)": "136befcf",
    "decodeHookData(bytes)": "f73085df",
    "deposits(address,address,uint256)": "5d93a3fc",
    "encodeHookData((address,uint256,uint256))": "e765fef5",
    "isEscrowApproved(address,address)": "3d0e5a6a",
    "onAttest(bytes,(bytes32,bytes32,uint64,uint64,uint64,bytes32,address,address,bool,bytes))": "be1e753b",
    "onERC1155BatchReceived(address,address,uint256[],uint256[],bytes)": "bc197c81",
    "onERC1155Received(address,address,uint256,uint256,bytes)": "f23a6e61",
    "onLock(bytes,address,address)": "1dc8160b",
    "onRelease(bytes,address,(bytes32,bytes32,uint64,uint64,uint64,bytes32,address,address,bool,bytes),bytes32)": "0fa37a1f",
    "onReturn(bytes,address,(bytes32,bytes32,uint64,uint64,uint64,bytes32,address,address,bool,bytes))": "561ca525",
    "supportsInterface(bytes4)": "01ffc9a7",
    "unapproveEscrow(address)": "45911528"
  },
  "id": 131
}