{
  "abi": [
    {
      "type": "function",
      "name": "decodeHookData",
      "inputs": [
        {
          "name": "data",
          "type": "bytes",
          "internalType": "bytes"
        }
      ],
      "outputs": [
        {
          "name": "",
          "type": "tuple",
          "internalType": "struct ERC721EscrowHook.HookData",
          "components": [
            {
              "name": "token",
              "type": "address",
              "internalType": "address"
            },
            {
              "name": "tokenId",
              "type": "uint256",
              "internalType": "uint256"
            }
          ]
        }
      ],
      "stateMutability": "pure"
    },
    {
      "type": "function",
      "name": "deposits",
      "inputs": [
        {
          "name": "",
          "type": "address",
          "internalType": "address"
        },
        {
          "name": "",
          "type": "address",
          "internalType": "address"
        },
        {
          "name": "",
          "type": "uint256",
          "internalType": "uint256"
        }
      ],
      "outputs": [
        {
          "name": "",
          "type": "bool",
          "internalType": "bool"
        }
      ],
      "stateMutability": "view"
    },
    {
      "type": "function",
      "name": "encodeHookData",
      "inputs": [
        {
          "name": "hookData",
          "type": "tuple",
          "internalType": "struct ERC721EscrowHook.HookData",
          "components": [
            {
              "name": "token",
              "type": "address",
              "internalType": "address"
            },
            {
              "name": "tokenId",
              "type": "uint256",
              "internalType": "uint256"
            }
          ]
        }
      ],
      "outputs": [
        {
          "name": "",
          "type": "bytes",
          "internalType": "bytes"
        }
      ],
      "stateMutability": "pure"
    },
    {
      "type": "function",
      "name": "onLock",
      "inputs": [
        {
          "name": "data",
          "type": "bytes",
          "internalType": "bytes"
        },
        {
          "name": "from",
          "type": "address",
          "internalType": "address"
        },
        {
          "name": "",
          "type": "address",
          "internalType": "address"
        }
      ],
      "outputs": [],
      "stateMutability": "payable"
    },
    {
      "type": "function",
      "name": "onRelease",
      "inputs": [
        {
          "name": "data",
          "type": "bytes",
          "internalType": "bytes"
        },
        {
          "name": "to",
          "type": "address",
          "internalType": "address"
        },
        {
          "name": "",
          "type": "address",
          "internalType": "address"
        }
      ],
      "outputs": [],
      "stateMutability": "nonpayable"
    },
    {
      "type": "function",
      "name": "onReturn",
      "inputs": [
        {
          "name": "data",
          "type": "bytes",
          "internalType": "bytes"
        },
        {
          "name": "to",
          "type": "address",
          "internalType": "address"
        },
        {
          "name": "",
          "type": "address",
          "internalType": "address"
        }
      ],
      "outputs": [],
      "stateMutability": "nonpayable"
    },
    {
      "type": "error",
      "name": "ERC721TransferFailed",
      "inputs": [
        {
          "name": "token",
          "type": "address",
          "internalType": "address"
        },
        {
          "name": "from",
          "type": "address",
          "internalType": "address"
        },
        {
          "name": "to",
          "type": "address",
          "internalType": "address"
        },
        {
          "name": "tokenId",
          "type": "uint256",
          "internalType": "uint256"
        }
      ]
    },
    {
      "type": "error",
      "name": "NoDeposit",
      "inputs": [
        {
          "name": "caller",
          "type": "address",
          "internalType": "address"
        },
        {
          "name": "token",
          "type": "address",
          "internalType": "address"
        },
        {
          "name": "tokenId",
          "type": "uint256",
          "internalType": "uint256"
        }
      ]
    },
    {
      "type": "error",
      "name": "UnexpectedNativeValue",
      "inputs": []
    }
  ],
  "bytecode": {
    "object": "0x6080806040523460155761079a908161001a8239f35b5f80fdfe60806040526004361015610011575f80fd5b5f5f3560e01c80631a6a5893146100ce5780631dc8160b146101ae578063488a6ebe146101425780635d93a3fc146100d35780638b9d4539146100ce5763f73085df1461005c575f80fd5b346100cb5760203660031901126100cb5760043567ffffffffffffffff81116100c9576040916100936100af923690600401610412565b9091602085516100a28161068e565b82815201528101906106e0565b602082519160018060a01b03815116835201516020820152f35b505b80fd5b6104ad565b50346100cb5760603660031901126100cb576100ed610440565b602435906001600160a01b038216820361013e5760209260ff9260409260018060a01b031682528185528282209060018060a01b03165f528452815f20604435825284522054166040519015158152f35b8280fd5b50346100cb5760403660031901126100cb5760408051602081016001600160a01b0361016c610440565b168152602435838301528282526101846060836106be565b8251938492602084525180928160208601528585015e828201840152601f01601f19168101030190f35b506101b836610456565b509134610403576101cb918101906106e0565b60018060a01b03815116926020820193602085516024604051809481936331a9108f60e11b835260048301525afa9081156103f8575f916103d9575b506001600160a01b038481169116036103ab5781518451906001600160a01b0316803b156103a7576040516323b872dd60e01b81526001600160a01b038616600482015230602482015260448101929092525f908290606490829084905af19081610392575b506102a4575051915160405163045b391760e01b81529283926102a092913091906001600160a01b031660048601610739565b0390fd5b929160018060a01b03825116602084516024604051809481936331a9108f60e11b835260048301525afa908115610387578591610358575b50306001600160a01b039091160361032a57503383526020838152604080852092516001600160a01b03165f9081529282529182902092518452919091528120805460ff1916600117905580f35b9051915160405163045b391760e01b81529283926102a092913091906001600160a01b031660048601610739565b61037a915060203d602011610380575b61037281836106be565b81019061071a565b5f6102dc565b503d610368565b6040513d87823e3d90fd5b61039f9192505f906106be565b5f905f61026d565b5f80fd5b5051915160405163045b391760e01b81529283926102a092913091906001600160a01b031660048601610739565b6103f2915060203d6020116103805761037281836106be565b5f610207565b6040513d5f823e3d90fd5b63e0aeda7d60e01b5f5260045ffd5b9181601f840112156103a75782359167ffffffffffffffff83116103a757602083818601950101116103a757565b600435906001600160a01b03821682036103a757565b60606003198201126103a7576004359067ffffffffffffffff82116103a75761048191600401610412565b90916024356001600160a01b03811681036103a757906044356001600160a01b03811681036103a75790565b346103a7576104ca6104be36610456565b509291908101906106e0565b335f9081526020818152604080832084516001600160a01b031684528252808320828501805185529252822054919392909160ff161561066557335f9081526020818152604080832084516001600160a01b03908116855290835281842086518552909252909120805460ff19169055815183519116803b156103a7576040516323b872dd60e01b81523060048201526001600160a01b038616602482015260448101929092525f908290606490829084905af19081610650575b506105b75751905160405163045b391760e01b81529283926102a092919030906001600160a01b031660048601610739565b60018060a01b03815116602083516024604051809481936331a9108f60e11b835260048301525afa908115610387578591610631575b506001600160a01b03848116911603610604578380f35b51905160405163045b391760e01b81529283926102a092919030906001600160a01b031660048601610739565b61064a915060203d6020116103805761037281836106be565b5f6105ed565b61065d9195505f906106be565b5f935f610585565b519051637bbf8f6560e11b5f908152336004526001600160a01b03909216602452604452606490fd5b6040810190811067ffffffffffffffff8211176106aa57604052565b634e487b7160e01b5f52604160045260245ffd5b90601f8019910116810190811067ffffffffffffffff8211176106aa57604052565b908160409103126103a757604051906106f88261068e565b8035906001600160a01b03821682036103a75760209183520135602082015290565b908160209103126103a757516001600160a01b03811681036103a75790565b6001600160a01b0391821681529181166020830152909116604082015260608101919091526080019056fea264697066735822122009905c05382421a298812560022768c11df3b2cf617a355b0aaa642b0ddd072d64736f6c634300081b0033",
    "linkReferences": {}
  },
  "methodIdentifiers": {
    "decodeHookData(bytes)": "f73085df",
    "deposits(address,address,uint256)": "5d93a3fc",
    "encodeHookData((address,uint256))": "488a6ebe",
    "onLock(bytes,address,address)": "1dc8160b",
    "onRelease(bytes,address,address)": "1a6a5893",
    "onReturn(bytes,address,address)": "8b9d4539"
  },
  "id": 90
}