{
  "abi": [
    {
      "type": "function",
      "name": "approveEscrow",
      "inputs": [
        {
          "name": "escrow",
          "type": "address",
          "internalType": "address"
        }
      ],
      "outputs": [],
      "stateMutability": "nonpayable"
    },
    {
      "type": "function",
      "name": "approvedEscrows",
      "inputs": [
        {
          "name": "",
          "type": "address",
          "internalType": "address"
        },
        {
          "name": "",
          "type": "address",
          "internalType": "address"
        }
      ],
      "outputs": [
        {
          "name": "",
          "type": "bool",
          "internalType": "bool"
        }
      ],
      "stateMutability": "view"
    },
    {
      "type": "function",
      "name": "decodeHookData",
      "inputs": [
        {
          "name": "data",
          "type": "bytes",
          "internalType": "bytes"
        }
      ],
      "outputs": [
        {
          "name": "",
          "type": "tuple",
          "internalType": "struct ERC721EscrowHook.HookData",
          "components": [
            {
              "name": "token",
              "type": "address",
              "internalType": "address"
            },
            {
              "name": "tokenId",
              "type": "uint256",
              "internalType": "uint256"
            }
          ]
        }
      ],
      "stateMutability": "pure"
    },
    {
      "type": "function",
      "name": "deposits",
      "inputs": [
        {
          "name": "",
          "type": "address",
          "internalType": "address"
        },
        {
          "name": "",
          "type": "address",
          "internalType": "address"
        },
        {
          "name": "",
          "type": "uint256",
          "internalType": "uint256"
        }
      ],
      "outputs": [
        {
          "name": "",
          "type": "bool",
          "internalType": "bool"
        }
      ],
      "stateMutability": "view"
    },
    {
      "type": "function",
      "name": "encodeHookData",
      "inputs": [
        {
          "name": "hookData",
          "type": "tuple",
          "internalType": "struct ERC721EscrowHook.HookData",
          "components": [
            {
              "name": "token",
              "type": "address",
              "internalType": "address"
            },
            {
              "name": "tokenId",
              "type": "uint256",
              "internalType": "uint256"
            }
          ]
        }
      ],
      "outputs": [
        {
          "name": "",
          "type": "bytes",
          "internalType": "bytes"
        }
      ],
      "stateMutability": "pure"
    },
    {
      "type": "function",
      "name": "isEscrowApproved",
      "inputs": [
        {
          "name": "owner",
          "type": "address",
          "internalType": "address"
        },
        {
          "name": "escrow",
          "type": "address",
          "internalType": "address"
        }
      ],
      "outputs": [
        {
          "name": "",
          "type": "bool",
          "internalType": "bool"
        }
      ],
      "stateMutability": "view"
    },
    {
      "type": "function",
      "name": "onAttest",
      "inputs": [
        {
          "name": "",
          "type": "bytes",
          "internalType": "bytes"
        },
        {
          "name": "",
          "type": "tuple",
          "internalType": "struct Attestation",
          "components": [
            {
              "name": "uid",
              "type": "bytes32",
              "internalType": "bytes32"
            },
            {
              "name": "schema",
              "type": "bytes32",
              "internalType": "bytes32"
            },
            {
              "name": "time",
              "type": "uint64",
              "internalType": "uint64"
            },
            {
              "name": "expirationTime",
              "type": "uint64",
              "internalType": "uint64"
            },
            {
              "name": "revocationTime",
              "type": "uint64",
              "internalType": "uint64"
            },
            {
              "name": "refUID",
              "type": "bytes32",
              "internalType": "bytes32"
            },
            {
              "name": "recipient",
              "type": "address",
              "internalType": "address"
            },
            {
              "name": "attester",
              "type": "address",
              "internalType": "address"
            },
            {
              "name": "revocable",
              "type": "bool",
              "internalType": "bool"
            },
            {
              "name": "data",
              "type": "bytes",
              "internalType": "bytes"
            }
          ]
        }
      ],
      "outputs": [],
      "stateMutability": "nonpayable"
    },
    {
      "type": "function",
      "name": "onLock",
      "inputs": [
        {
          "name": "data",
          "type": "bytes",
          "internalType": "bytes"
        },
        {
          "name": "from",
          "type": "address",
          "internalType": "address"
        },
        {
          "name": "escrow",
          "type": "address",
          "internalType": "address"
        }
      ],
      "outputs": [],
      "stateMutability": "payable"
    },
    {
      "type": "function",
      "name": "onRelease",
      "inputs": [
        {
          "name": "data",
          "type": "bytes",
          "internalType": "bytes"
        },
        {
          "name": "to",
          "type": "address",
          "internalType": "address"
        },
        {
          "name": "escrow",
          "type": "tuple",
          "internalType": "struct Attestation",
          "components": [
            {
              "name": "uid",
              "type": "bytes32",
              "internalType": "bytes32"
            },
            {
              "name": "schema",
              "type": "bytes32",
              "internalType": "bytes32"
            },
            {
              "name": "time",
              "type": "uint64",
              "internalType": "uint64"
            },
            {
              "name": "expirationTime",
              "type": "uint64",
              "internalType": "uint64"
            },
            {
              "name": "revocationTime",
              "type": "uint64",
              "internalType": "uint64"
            },
            {
              "name": "refUID",
              "type": "bytes32",
              "internalType": "bytes32"
            },
            {
              "name": "recipient",
              "type": "address",
              "internalType": "address"
            },
            {
              "name": "attester",
              "type": "address",
              "internalType": "address"
            },
            {
              "name": "revocable",
              "type": "bool",
              "internalType": "bool"
            },
            {
              "name": "data",
              "type": "bytes",
              "internalType": "bytes"
            }
          ]
        },
        {
          "name": "",
          "type": "bytes32",
          "internalType": "bytes32"
        }
      ],
      "outputs": [],
      "stateMutability": "nonpayable"
    },
    {
      "type": "function",
      "name": "onReturn",
      "inputs": [
        {
          "name": "data",
          "type": "bytes",
          "internalType": "bytes"
        },
        {
          "name": "to",
          "type": "address",
          "internalType": "address"
        },
        {
          "name": "escrow",
          "type": "tuple",
          "internalType": "struct Attestation",
          "components": [
            {
              "name": "uid",
              "type": "bytes32",
              "internalType": "bytes32"
            },
            {
              "name": "schema",
              "type": "bytes32",
              "internalType": "bytes32"
            },
            {
              "name": "time",
              "type": "uint64",
              "internalType": "uint64"
            },
            {
              "name": "expirationTime",
              "type": "uint64",
              "internalType": "uint64"
            },
            {
              "name": "revocationTime",
              "type": "uint64",
              "internalType": "uint64"
            },
            {
              "name": "refUID",
              "type": "bytes32",
              "internalType": "bytes32"
            },
            {
              "name": "recipient",
              "type": "address",
              "internalType": "address"
            },
            {
              "name": "attester",
              "type": "address",
              "internalType": "address"
            },
            {
              "name": "revocable",
              "type": "bool",
              "internalType": "bool"
            },
            {
              "name": "data",
              "type": "bytes",
              "internalType": "bytes"
            }
          ]
        }
      ],
      "outputs": [],
      "stateMutability": "nonpayable"
    },
    {
      "type": "function",
      "name": "unapproveEscrow",
      "inputs": [
        {
          "name": "escrow",
          "type": "address",
          "internalType": "address"
        }
      ],
      "outputs": [],
      "stateMutability": "nonpayable"
    },
    {
      "type": "event",
      "name": "EscrowApproval",
      "inputs": [
        {
          "name": "owner",
          "type": "address",
          "indexed": true,
          "internalType": "address"
        },
        {
          "name": "escrow",
          "type": "address",
          "indexed": true,
          "internalType": "address"
        },
        {
          "name": "approved",
          "type": "bool",
          "indexed": false,
          "internalType": "bool"
        }
      ],
      "anonymous": false
    },
    {
      "type": "error",
      "name": "ERC721TransferFailed",
      "inputs": [
        {
          "name": "token",
          "type": "address",
          "internalType": "address"
        },
        {
          "name": "from",
          "type": "address",
          "internalType": "address"
        },
        {
          "name": "to",
          "type": "address",
          "internalType": "address"
        },
        {
          "name": "tokenId",
          "type": "uint256",
          "internalType": "uint256"
        }
      ]
    },
    {
      "type": "error",
      "name": "EscrowCallerMismatch",
      "inputs": [
        {
          "name": "caller",
          "type": "address",
          "internalType": "address"
        },
        {
          "name": "escrow",
          "type": "address",
          "internalType": "address"
        }
      ]
    },
    {
      "type": "error",
      "name": "NoDeposit",
      "inputs": [
        {
          "name": "caller",
          "type": "address",
          "internalType": "address"
        },
        {
          "name": "token",
          "type": "address",
          "internalType": "address"
        },
        {
          "name": "tokenId",
          "type": "uint256",
          "internalType": "uint256"
        }
      ]
    },
    {
      "type": "error",
      "name": "UnauthorizedEscrowCaller",
      "inputs": [
        {
          "name": "owner",
          "type": "address",
          "internalType": "address"
        },
        {
          "name": "caller",
          "type": "address",
          "internalType": "address"
        }
      ]
    },
    {
      "type": "error",
      "name": "UnexpectedNativeValue",
      "inputs": []
    }
  ],
  "bytecode": {
    "object": "0x60808060405234601557610b4f908161001a8239f35b5f80fdfe60806040526004361015610011575f80fd5b5f5f3560e01c80630fa37a1f1461073c578063136befcf146106e65780631dc8160b146103e1578063297ae412146103685780633d0e5a6a14610311578063459115281461029f578063488a6ebe14610233578063561ca525146101bb5780635d93a3fc1461015e578063be1e753b146101055763f73085df14610093575f80fd5b346101025760203660031901126101025760043567ffffffffffffffff8111610100576040916100ca6100e69236906004016107a9565b9091602085516100d981610803565b8281520152810190610855565b602082519160018060a01b03815116835201516020820152f35b505b80fd5b50346101025760403660031901126101025760043567ffffffffffffffff8111610100576101379036906004016107a9565b505060243567ffffffffffffffff8111610100576101409060031990360301126101025780f35b50346101025760603660031901126101025760ff604060209261017f6107ed565b6101876107d7565b6001600160a01b0391821683526001865283832091165f908152908552829020604435825284522054604051911615158152f35b50346101025760603660031901126101025760043567ffffffffffffffff8111610100576101ed9036906004016107a9565b6101f56107d7565b906044359267ffffffffffffffff841161022f57610140600319853603011261022f5761022761022c946004016108ed565b610938565b80f35b8480fd5b50346101025760403660031901126101025760408051602081016001600160a01b0361025d6107ed565b16815260243583830152828252610275606083610833565b8251938492602084525180928160208601528585015e828201840152601f01601f19168101030190f35b5034610102576020366003190112610102576102b96107ed565b33808352602083815260408085206001600160a01b03949094165f81815294835293819020805460ff19169055518481527fbfe3408398a6b959bc04ab1cfde500aff4ee06af8ed2483286cc8d1feeb85ed99190a380f35b503461010257604036600319011261010257604061032d6107ed565b916103366107d7565b9260018060a01b0316815280602052209060018060a01b03165f52602052602060ff60405f2054166040519015158152f35b5034610102576020366003190112610102576103826107ed565b33808352602083815260408085206001600160a01b03949094165f81815294835293819020805460ff1916600190811790915590519081527fbfe3408398a6b959bc04ab1cfde500aff4ee06af8ed2483286cc8d1feeb85ed99190a380f35b50606036600319011261064e5760043567ffffffffffffffff811161064e5761040e9036906004016107a9565b90916104186107d7565b916044356001600160a01b0381169081900361064e578033036106d057506001600160a01b0383165f8181526020818152604080832033845290915290205490949060ff16156106b957346106aa5761047391810190610855565b9060018060a01b03825116936020830194602086516024604051809481936331a9108f60e11b835260048301525afa90811561069f575f91610680575b506001600160a01b0316036106525781518451906001600160a01b0316803b1561064e576040516323b872dd60e01b81526001600160a01b038616600482015230602482015260448101929092525f908290606490829084905af19081610639575b50610549575051915160405163045b391760e01b815292839261054592913091906001600160a01b0316600486016108ae565b0390fd5b929160018060a01b03825116602084516024604051809481936331a9108f60e11b835260048301525afa90811561062e5785916105ff575b50306001600160a01b03909116036105d1575033835260016020818152604080862093516001600160a01b03165f9081529382529283902093518552929092528220805460ff1916909117905580f35b9051915160405163045b391760e01b815292839261054592913091906001600160a01b0316600486016108ae565b610621915060203d602011610627575b6106198183610833565b81019061088f565b5f610581565b503d61060f565b6040513d87823e3d90fd5b6106469192505f90610833565b5f905f610512565b5f80fd5b5051915160405163045b391760e01b815292839261054592913091906001600160a01b0316600486016108ae565b610699915060203d602011610627576106198183610833565b5f6104b0565b6040513d5f823e3d90fd5b63e0aeda7d60e01b5f5260045ffd5b846310d5e09d60e11b5f526004523360245260445ffd5b6303e011e160e31b5f523360045260245260445ffd5b3461064e57604036600319011261064e576106ff6107ed565b6107076107d7565b9060018060a01b03165f525f60205260405f209060018060a01b03165f52602052602060ff60405f2054166040519015158152f35b3461064e57608036600319011261064e5760043567ffffffffffffffff811161064e5761076d9036906004016107a9565b6107756107d7565b906044359267ffffffffffffffff841161064e57610140600319853603011261064e576102276107a7946004016108ed565b005b9181601f8401121561064e5782359167ffffffffffffffff831161064e576020838186019501011161064e57565b602435906001600160a01b038216820361064e57565b600435906001600160a01b038216820361064e57565b6040810190811067ffffffffffffffff82111761081f57604052565b634e487b7160e01b5f52604160045260245ffd5b90601f8019910116810190811067ffffffffffffffff82111761081f57604052565b9081604091031261064e576040519061086d82610803565b8035906001600160a01b038216820361064e5760209183520135602082015290565b9081602091031261064e57516001600160a01b038116810361064e5790565b6001600160a01b03918216815291811660208301529091166040820152606081019190915260800190565b356001600160a01b038116810361064e5790565b60e0016001600160a01b03610901826108d9565b16330361090b5750565b610914906108d9565b6303e011e160e31b5f908152336004526001600160a01b0391909116602452604490fd5b61094491810190610855565b335f90815260016020908152604080832084516001600160a01b0316845282528083208285018051855292528220549092919060ff1615610aef57335f90815260016020908152604080832085516001600160a01b03908116855290835281842087518552909252909120805460ff19169055825184519116803b1561064e576040516323b872dd60e01b81523060048201526001600160a01b038716602482015260448101929092525f908290606490829084905af19081610ada575b50610a35575051905160405163045b391760e01b815292839261054592919030906001600160a01b0316600486016108ae565b60018060a01b03825116602084516024604051809481936331a9108f60e11b835260048301525afa918215610ace5791610aaf575b506001600160a01b03848116911603610a8257505050565b51905160405163045b391760e01b815292839261054592919030906001600160a01b0316600486016108ae565b610ac8915060203d602011610627576106198183610833565b5f610a6a565b604051903d90823e3d90fd5b610ae79192505f90610833565b5f905f610a02565b50519051637bbf8f6560e11b5f908152336004526001600160a01b03909216602452604452606490fdfea2646970667358221220693b0054c3c6eef36364eadbf42f9bc83283aa9898a7ad957ae3536ad0c934f064736f6c634300081b0033",
    "linkReferences": {}
  },
  "methodIdentifiers": {
    "approveEscrow(address)": "297ae412",
    "approvedEscrows(address,address)": "136befcf",
    "decodeHookData(bytes)": "f73085df",
    "deposits(address,address,uint256)": "5d93a3fc",
    "encodeHookData((address,uint256))": "488a6ebe",
    "isEscrowApproved(address,address)": "3d0e5a6a",
    "onAttest(bytes,(bytes32,bytes32,uint64,uint64,uint64,bytes32,address,address,bool,bytes))": "be1e753b",
    "onLock(bytes,address,address)": "1dc8160b",
    "onRelease(bytes,address,(bytes32,bytes32,uint64,uint64,uint64,bytes32,address,address,bool,bytes),bytes32)": "0fa37a1f",
    "onReturn(bytes,address,(bytes32,bytes32,uint64,uint64,uint64,bytes32,address,address,bool,bytes))": "561ca525",
    "unapproveEscrow(address)": "45911528"
  },
  "id": 143
}