{
  "abi": [
    {
      "type": "function",
      "name": "check",
      "inputs": [
        {
          "name": "fulfillment",
          "type": "tuple",
          "internalType": "struct Attestation",
          "components": [
            {
              "name": "uid",
              "type": "bytes32",
              "internalType": "bytes32"
            },
            {
              "name": "schema",
              "type": "bytes32",
              "internalType": "bytes32"
            },
            {
              "name": "time",
              "type": "uint64",
              "internalType": "uint64"
            },
            {
              "name": "expirationTime",
              "type": "uint64",
              "internalType": "uint64"
            },
            {
              "name": "revocationTime",
              "type": "uint64",
              "internalType": "uint64"
            },
            {
              "name": "refUID",
              "type": "bytes32",
              "internalType": "bytes32"
            },
            {
              "name": "recipient",
              "type": "address",
              "internalType": "address"
            },
            {
              "name": "attester",
              "type": "address",
              "internalType": "address"
            },
            {
              "name": "revocable",
              "type": "bool",
              "internalType": "bool"
            },
            {
              "name": "data",
              "type": "bytes",
              "internalType": "bytes"
            }
          ]
        },
        {
          "name": "",
          "type": "bytes",
          "internalType": "bytes"
        },
        {
          "name": "",
          "type": "bytes32",
          "internalType": "bytes32"
        }
      ],
      "outputs": [
        {
          "name": "",
          "type": "bool",
          "internalType": "bool"
        }
      ],
      "stateMutability": "view"
    },
    {
      "type": "error",
      "name": "AttestationRevoked",
      "inputs": []
    },
    {
      "type": "error",
      "name": "DeadlineExpired",
      "inputs": []
    },
    {
      "type": "error",
      "name": "InvalidAttestationUid",
      "inputs": []
    }
  ],
  "bytecode": {
    "object": "0x6080806040523460155761029c908161001a8239f35b5f80fdfe60806040526004361015610011575f80fd5b5f3560e01c638da3721a14610024575f80fd5b346101bd5760603660031901126101bd5760043567ffffffffffffffff81116101bd5761014060031982360301126101bd57604051610140810181811067ffffffffffffffff8211176101c1576040528160040135815260248201356020820152610091604483016101d5565b60408201526100a2606483016101d5565b90606081019182526100b6608484016101d5565b926080820193845260a481013560a08301526100d460c482016101ea565b60c08301526100e560e482016101ea565b60e083015261010481013580151581036101bd576101008301526101248101359067ffffffffffffffff82116101bd57600461012492369201016101fe565b61012082015260243567ffffffffffffffff81116101bd5761014a9036906004016101fe565b5051156101ae575167ffffffffffffffff1680151590816101a3575b50610194575167ffffffffffffffff1661018557602060405160018152f35b637b6227e960e11b5f5260045ffd5b631ab7da6b60e01b5f5260045ffd5b90504210155f610166565b635c2c7f8960e01b5f5260045ffd5b5f80fd5b634e487b7160e01b5f52604160045260245ffd5b359067ffffffffffffffff821682036101bd57565b35906001600160a01b03821682036101bd57565b81601f820112156101bd5780359067ffffffffffffffff82116101c15760405192601f8301601f19908116603f0116840167ffffffffffffffff8111858210176101c157604052828452602083830101116101bd57815f92602080930183860137830101529056fea2646970667358221220b99dfd9bac978a4dd65e27edf9846553d7763b98c704ca15d356b0c8f4bed27c64736f6c634300081b0033",
    "linkReferences": {}
  },
  "methodIdentifiers": {
    "check((bytes32,bytes32,uint64,uint64,uint64,bytes32,address,address,bool,bytes),bytes,bytes32)": "8da3721a"
  },
  "id": 89
}