{
  "abi": [
    {
      "type": "function",
      "name": "check",
      "inputs": [
        {
          "name": "fulfillment",
          "type": "tuple",
          "internalType": "struct Attestation",
          "components": [
            {
              "name": "uid",
              "type": "bytes32",
              "internalType": "bytes32"
            },
            {
              "name": "schema",
              "type": "bytes32",
              "internalType": "bytes32"
            },
            {
              "name": "time",
              "type": "uint64",
              "internalType": "uint64"
            },
            {
              "name": "expirationTime",
              "type": "uint64",
              "internalType": "uint64"
            },
            {
              "name": "revocationTime",
              "type": "uint64",
              "internalType": "uint64"
            },
            {
              "name": "refUID",
              "type": "bytes32",
              "internalType": "bytes32"
            },
            {
              "name": "recipient",
              "type": "address",
              "internalType": "address"
            },
            {
              "name": "attester",
              "type": "address",
              "internalType": "address"
            },
            {
              "name": "revocable",
              "type": "bool",
              "internalType": "bool"
            },
            {
              "name": "data",
              "type": "bytes",
              "internalType": "bytes"
            }
          ]
        },
        {
          "name": "",
          "type": "bytes",
          "internalType": "bytes"
        },
        {
          "name": "escrowUid",
          "type": "bytes32",
          "internalType": "bytes32"
        }
      ],
      "outputs": [
        {
          "name": "",
          "type": "bool",
          "internalType": "bool"
        }
      ],
      "stateMutability": "pure"
    },
    {
      "type": "function",
      "name": "supportsInterface",
      "inputs": [
        {
          "name": "interfaceId",
          "type": "bytes4",
          "internalType": "bytes4"
        }
      ],
      "outputs": [
        {
          "name": "",
          "type": "bool",
          "internalType": "bool"
        }
      ],
      "stateMutability": "view"
    },
    {
      "type": "error",
      "name": "EscrowReferenceMismatch",
      "inputs": []
    }
  ],
  "bytecode": {
    "object": "0x608080604052346015576102ab908161001a8239f35b5f80fdfe6080806040526004361015610012575f80fd5b5f3560e01c90816301ffc9a7146101915750638da3721a14610032575f80fd5b346101795760603660031901126101795760043567ffffffffffffffff811161017957610140600319823603011261017957604051610140810181811067ffffffffffffffff82111761017d57604052816004013581526024820135602082015261009f604483016101e4565b60408201526100b0606483016101e4565b60608201526100c1608483016101e4565b608082015260a081019160a481013583526100de60c482016101f9565b60c08301526100ef60e482016101f9565b60e083015261010481013580151581036101795761010083015261012481013567ffffffffffffffff811161017957610120916004610131923692010161020d565b91015260243567ffffffffffffffff81116101795761015490369060040161020d565b5060443590510361016a57602060405160018152f35b63bf4bbdcd60e01b5f5260045ffd5b5f80fd5b634e487b7160e01b5f52604160045260245ffd5b34610179576020366003190112610179576004359063ffffffff60e01b8216809203610179576020916346d1b90d60e11b81149081156101d3575b5015158152f35b6301ffc9a760e01b149050836101cc565b359067ffffffffffffffff8216820361017957565b35906001600160a01b038216820361017957565b81601f820112156101795780359067ffffffffffffffff821161017d5760405192601f8301601f19908116603f0116840167ffffffffffffffff81118582101761017d576040528284526020838301011161017957815f92602080930183860137830101529056fea2646970667358221220a350840934c11f2a7cd70daef13cf1d53f1a224125da26f9f37294bf331a245064736f6c634300081b0033",
    "linkReferences": {}
  },
  "methodIdentifiers": {
    "check((bytes32,bytes32,uint64,uint64,uint64,bytes32,address,address,bool,bytes),bytes,bytes32)": "8da3721a",
    "supportsInterface(bytes4)": "01ffc9a7"
  },
  "id": 95
}