{
  "abi": [
    {
      "type": "function",
      "name": "check",
      "inputs": [
        {
          "name": "fulfillment",
          "type": "tuple",
          "internalType": "struct Attestation",
          "components": [
            {
              "name": "uid",
              "type": "bytes32",
              "internalType": "bytes32"
            },
            {
              "name": "schema",
              "type": "bytes32",
              "internalType": "bytes32"
            },
            {
              "name": "time",
              "type": "uint64",
              "internalType": "uint64"
            },
            {
              "name": "expirationTime",
              "type": "uint64",
              "internalType": "uint64"
            },
            {
              "name": "revocationTime",
              "type": "uint64",
              "internalType": "uint64"
            },
            {
              "name": "refUID",
              "type": "bytes32",
              "internalType": "bytes32"
            },
            {
              "name": "recipient",
              "type": "address",
              "internalType": "address"
            },
            {
              "name": "attester",
              "type": "address",
              "internalType": "address"
            },
            {
              "name": "revocable",
              "type": "bool",
              "internalType": "bool"
            },
            {
              "name": "data",
              "type": "bytes",
              "internalType": "bytes"
            }
          ]
        },
        {
          "name": "demand",
          "type": "bytes",
          "internalType": "bytes"
        },
        {
          "name": "",
          "type": "bytes32",
          "internalType": "bytes32"
        }
      ],
      "outputs": [
        {
          "name": "",
          "type": "bool",
          "internalType": "bool"
        }
      ],
      "stateMutability": "pure"
    },
    {
      "type": "function",
      "name": "decodeDemandData",
      "inputs": [
        {
          "name": "data",
          "type": "bytes",
          "internalType": "bytes"
        }
      ],
      "outputs": [
        {
          "name": "",
          "type": "tuple",
          "internalType": "struct AttesterArbiter.DemandData",
          "components": [
            {
              "name": "attester",
              "type": "address",
              "internalType": "address"
            }
          ]
        }
      ],
      "stateMutability": "pure"
    },
    {
      "type": "function",
      "name": "supportsInterface",
      "inputs": [
        {
          "name": "interfaceId",
          "type": "bytes4",
          "internalType": "bytes4"
        }
      ],
      "outputs": [
        {
          "name": "",
          "type": "bool",
          "internalType": "bool"
        }
      ],
      "stateMutability": "view"
    },
    {
      "type": "error",
      "name": "AttesterMismatched",
      "inputs": []
    }
  ],
  "bytecode": {
    "object": "0x60808060405234601557610399908161001a8239f35b5f80fdfe6080806040526004361015610012575f80fd5b5f3560e01c90816301ffc9a71461025f57508063838a68d9146101cf57638da3721a1461003d575f80fd5b346101b75760603660031901126101b75760043567ffffffffffffffff81116101b75761014060031982360301126101b757604051610140810181811067ffffffffffffffff8211176101bb5760405281600401358152602482013560208201526100aa604483016102d2565b60408201526100bb606483016102d2565b60608201526100cc608483016102d2565b608082015260a482013560a08201526100e760c483016102e7565b60c08201526100f860e483016102e7565b9160e0820192835261010481013580151581036101b75761010083015261012481013567ffffffffffffffff81116101b75761012091600461013d92369201016102fb565b91015260243567ffffffffffffffff81116101b7576101609036906004016102fb565b906020828051810103126101b75760206101786102b2565b9201516001600160a01b038116928382036101b75752516001600160a01b0316036101a857602060405160018152f35b63c77ead7160e01b5f5260045ffd5b5f80fd5b634e487b7160e01b5f52604160045260245ffd5b346101b75760203660031901126101b75760043567ffffffffffffffff81116101b757366023820112156101b757806004013567ffffffffffffffff81116101b75781013660248201116101b7576020905f6102296102b2565b52829003126101b75760209061024960246102426102b2565b92016102e7565b908190526040516001600160a01b039091168152f35b346101b75760203660031901126101b7576004359063ffffffff60e01b82168092036101b7576020916346d1b90d60e11b81149081156102a1575b5015158152f35b6301ffc9a760e01b1490508361029a565b604051906020820182811067ffffffffffffffff8211176101bb57604052565b359067ffffffffffffffff821682036101b757565b35906001600160a01b03821682036101b757565b81601f820112156101b75780359067ffffffffffffffff82116101bb5760405192601f8301601f19908116603f0116840167ffffffffffffffff8111858210176101bb57604052828452602083830101116101b757815f92602080930183860137830101529056fea26469706673582212203ef9ac731f73a95a16f01c176c50a176295ce31273f71afd379cf2104057b41964736f6c634300081b0033",
    "linkReferences": {}
  },
  "methodIdentifiers": {
    "check((bytes32,bytes32,uint64,uint64,uint64,bytes32,address,address,bool,bytes),bytes,bytes32)": "8da3721a",
    "decodeDemandData(bytes)": "838a68d9",
    "supportsInterface(bytes4)": "01ffc9a7"
  },
  "id": 99
}