{
  "abi": [
    {
      "type": "function",
      "name": "check",
      "inputs": [
        {
          "name": "fulfillment",
          "type": "tuple",
          "internalType": "struct Attestation",
          "components": [
            {
              "name": "uid",
              "type": "bytes32",
              "internalType": "bytes32"
            },
            {
              "name": "schema",
              "type": "bytes32",
              "internalType": "bytes32"
            },
            {
              "name": "time",
              "type": "uint64",
              "internalType": "uint64"
            },
            {
              "name": "expirationTime",
              "type": "uint64",
              "internalType": "uint64"
            },
            {
              "name": "revocationTime",
              "type": "uint64",
              "internalType": "uint64"
            },
            {
              "name": "refUID",
              "type": "bytes32",
              "internalType": "bytes32"
            },
            {
              "name": "recipient",
              "type": "address",
              "internalType": "address"
            },
            {
              "name": "attester",
              "type": "address",
              "internalType": "address"
            },
            {
              "name": "revocable",
              "type": "bool",
              "internalType": "bool"
            },
            {
              "name": "data",
              "type": "bytes",
              "internalType": "bytes"
            }
          ]
        },
        {
          "name": "demand",
          "type": "bytes",
          "internalType": "bytes"
        },
        {
          "name": "",
          "type": "bytes32",
          "internalType": "bytes32"
        }
      ],
      "outputs": [
        {
          "name": "",
          "type": "bool",
          "internalType": "bool"
        }
      ],
      "stateMutability": "pure"
    },
    {
      "type": "function",
      "name": "decodeDemandData",
      "inputs": [
        {
          "name": "data",
          "type": "bytes",
          "internalType": "bytes"
        }
      ],
      "outputs": [
        {
          "name": "",
          "type": "tuple",
          "internalType": "struct AttesterArbiter.DemandData",
          "components": [
            {
              "name": "attester",
              "type": "address",
              "internalType": "address"
            }
          ]
        }
      ],
      "stateMutability": "pure"
    },
    {
      "type": "error",
      "name": "AttesterMismatched",
      "inputs": []
    }
  ],
  "bytecode": {
    "object": "0x60808060405234601557610338908161001a8239f35b5f80fdfe60806040526004361015610011575f80fd5b5f3560e01c8063838a68d9146101c157638da3721a1461002f575f80fd5b346101a95760603660031901126101a95760043567ffffffffffffffff81116101a95761014060031982360301126101a957604051610140810181811067ffffffffffffffff8211176101ad57604052816004013581526024820135602082015261009c60448301610271565b60408201526100ad60648301610271565b60608201526100be60848301610271565b608082015260a482013560a08201526100d960c48301610286565b60c08201526100ea60e48301610286565b9160e0820192835261010481013580151581036101a95761010083015261012481013567ffffffffffffffff81116101a95761012091600461012f923692010161029a565b91015260243567ffffffffffffffff81116101a95761015290369060040161029a565b906020828051810103126101a957602061016a610251565b9201516001600160a01b038116928382036101a95752516001600160a01b03160361019a57602060405160018152f35b63c77ead7160e01b5f5260045ffd5b5f80fd5b634e487b7160e01b5f52604160045260245ffd5b346101a95760203660031901126101a95760043567ffffffffffffffff81116101a957366023820112156101a957806004013567ffffffffffffffff81116101a95781013660248201116101a9576020905f61021b610251565b52829003126101a95760209061023b6024610234610251565b9201610286565b908190526040516001600160a01b039091168152f35b604051906020820182811067ffffffffffffffff8211176101ad57604052565b359067ffffffffffffffff821682036101a957565b35906001600160a01b03821682036101a957565b81601f820112156101a95780359067ffffffffffffffff82116101ad5760405192601f8301601f19908116603f0116840167ffffffffffffffff8111858210176101ad57604052828452602083830101116101a957815f92602080930183860137830101529056fea26469706673582212206235949dc7f3260c0b30e26a45a509da47736e2b15c2b804f96cc216dc97368964736f6c634300081b0033",
    "linkReferences": {}
  },
  "methodIdentifiers": {
    "check((bytes32,bytes32,uint64,uint64,uint64,bytes32,address,address,bool,bytes),bytes,bytes32)": "8da3721a",
    "decodeDemandData(bytes)": "838a68d9"
  },
  "id": 93
}