{
  "abi": [
    {
      "type": "function",
      "name": "checkObligation",
      "inputs": [
        {
          "name": "obligation",
          "type": "tuple",
          "internalType": "struct Attestation",
          "components": [
            {
              "name": "uid",
              "type": "bytes32",
              "internalType": "bytes32"
            },
            {
              "name": "schema",
              "type": "bytes32",
              "internalType": "bytes32"
            },
            {
              "name": "time",
              "type": "uint64",
              "internalType": "uint64"
            },
            {
              "name": "expirationTime",
              "type": "uint64",
              "internalType": "uint64"
            },
            {
              "name": "revocationTime",
              "type": "uint64",
              "internalType": "uint64"
            },
            {
              "name": "refUID",
              "type": "bytes32",
              "internalType": "bytes32"
            },
            {
              "name": "recipient",
              "type": "address",
              "internalType": "address"
            },
            {
              "name": "attester",
              "type": "address",
              "internalType": "address"
            },
            {
              "name": "revocable",
              "type": "bool",
              "internalType": "bool"
            },
            {
              "name": "data",
              "type": "bytes",
              "internalType": "bytes"
            }
          ]
        },
        {
          "name": "demand",
          "type": "bytes",
          "internalType": "bytes"
        },
        {
          "name": "",
          "type": "bytes32",
          "internalType": "bytes32"
        }
      ],
      "outputs": [
        {
          "name": "",
          "type": "bool",
          "internalType": "bool"
        }
      ],
      "stateMutability": "pure"
    },
    {
      "type": "function",
      "name": "decodeDemandData",
      "inputs": [
        {
          "name": "data",
          "type": "bytes",
          "internalType": "bytes"
        }
      ],
      "outputs": [
        {
          "name": "",
          "type": "tuple",
          "internalType": "struct RefUidArbiter.DemandData",
          "components": [
            {
              "name": "refUID",
              "type": "bytes32",
              "internalType": "bytes32"
            }
          ]
        }
      ],
      "stateMutability": "pure"
    },
    {
      "type": "error",
      "name": "RefUidMismatched",
      "inputs": []
    }
  ],
  "bytecode": {
    "object": "0x6080806040523460155761030c908161001a8239f35b5f80fdfe60806040526004361015610011575f80fd5b5f3560e01c8063838a68d9146101a75763e6c9714d1461002f575f80fd5b3461018f57606036600319011261018f5760043567ffffffffffffffff811161018f57610140600319823603011261018f57604051610140810181811067ffffffffffffffff82111761019357604052816004013581526024820135602082015261009c60448301610245565b60408201526100ad60648301610245565b60608201526100be60848301610245565b608082015260a081019160a481013583526100db60c4820161025a565b60c08301526100ec60e4820161025a565b60e0830152610104810135801515810361018f5761010083015261012481013567ffffffffffffffff811161018f5761012091600461012e923692010161026e565b91015260243567ffffffffffffffff811161018f5761015190369060040161026e565b9060208280518101031261018f576020610169610225565b920151809252510361018057602060405160018152f35b635f11c88560e11b5f5260045ffd5b5f80fd5b634e487b7160e01b5f52604160045260245ffd5b3461018f57602036600319011261018f5760043567ffffffffffffffff811161018f573660238201121561018f57806004013567ffffffffffffffff811161018f57810136602482011161018f576020905f610201610225565b528290031261018f576020906024610217610225565b910135809152604051908152f35b604051906020820182811067ffffffffffffffff82111761019357604052565b359067ffffffffffffffff8216820361018f57565b35906001600160a01b038216820361018f57565b81601f8201121561018f5780359067ffffffffffffffff82116101935760405192601f8301601f19908116603f0116840167ffffffffffffffff811185821017610193576040528284526020838301011161018f57815f92602080930183860137830101529056fea264697066735822122045bb69309467a1c2a2e6c6774cdd2039544b84eb5bfd2c6407af987b15557e1b64736f6c634300081b0033",
    "linkReferences": {}
  },
  "methodIdentifiers": {
    "checkObligation((bytes32,bytes32,uint64,uint64,uint64,bytes32,address,address,bool,bytes),bytes,bytes32)": "e6c9714d",
    "decodeDemandData(bytes)": "838a68d9"
  },
  "id": 88
}