{"abi":[{"type":"constructor","inputs":[{"name":"_eas","type":"address","internalType":"contract IEAS"},{"name":"_schemaRegistry","type":"address","internalType":"contract ISchemaRegistry"}],"stateMutability":"nonpayable"},{"type":"receive","stateMutability":"payable"},{"type":"function","name":"ATTESTATION_SCHEMA","inputs":[],"outputs":[{"name":"","type":"bytes32","internalType":"bytes32"}],"stateMutability":"view"},{"type":"function","name":"attest","inputs":[{"name":"attestation","type":"tuple","internalType":"struct Attestation","components":[{"name":"uid","type":"bytes32","internalType":"bytes32"},{"name":"schema","type":"bytes32","internalType":"bytes32"},{"name":"time","type":"uint64","internalType":"uint64"},{"name":"expirationTime","type":"uint64","internalType":"uint64"},{"name":"revocationTime","type":"uint64","internalType":"uint64"},{"name":"refUID","type":"bytes32","internalType":"bytes32"},{"name":"recipient","type":"address","internalType":"address"},{"name":"attester","type":"address","internalType":"address"},{"name":"revocable","type":"bool","internalType":"bool"},{"name":"data","type":"bytes","internalType":"bytes"}]}],"outputs":[{"name":"","type":"bool","internalType":"bool"}],"stateMutability":"payable"},{"type":"function","name":"checkObligation","inputs":[{"name":"obligation","type":"tuple","internalType":"struct Attestation","components":[{"name":"uid","type":"bytes32","internalType":"bytes32"},{"name":"schema","type":"bytes32","internalType":"bytes32"},{"name":"time","type":"uint64","internalType":"uint64"},{"name":"expirationTime","type":"uint64","internalType":"uint64"},{"name":"revocationTime","type":"uint64","internalType":"uint64"},{"name":"refUID","type":"bytes32","internalType":"bytes32"},{"name":"recipient","type":"address","internalType":"address"},{"name":"attester","type":"address","internalType":"address"},{"name":"revocable","type":"bool","internalType":"bool"},{"name":"data","type":"bytes","internalType":"bytes"}]},{"name":"demand","type":"bytes","internalType":"bytes"},{"name":"","type":"bytes32","internalType":"bytes32"}],"outputs":[{"name":"","type":"bool","internalType":"bool"}],"stateMutability":"view"},{"type":"function","name":"collectEscrow","inputs":[{"name":"escrow","type":"bytes32","internalType":"bytes32"},{"name":"fulfillment","type":"bytes32","internalType":"bytes32"}],"outputs":[{"name":"","type":"bool","internalType":"bool"}],"stateMutability":"nonpayable"},{"type":"function","name":"collectEscrowRaw","inputs":[{"name":"_escrow","type":"bytes32","internalType":"bytes32"},{"name":"_fulfillment","type":"bytes32","internalType":"bytes32"}],"outputs":[{"name":"","type":"bytes","internalType":"bytes"}],"stateMutability":"nonpayable"},{"type":"function","name":"decodeObligationData","inputs":[{"name":"data","type":"bytes","internalType":"bytes"}],"outputs":[{"name":"","type":"tuple","internalType":"struct ERC1155EscrowObligation.ObligationData","components":[{"name":"arbiter","type":"address","internalType":"address"},{"name":"demand","type":"bytes","internalType":"bytes"},{"name":"token","type":"address","internalType":"address"},{"name":"tokenId","type":"uint256","internalType":"uint256"},{"name":"amount","type":"uint256","internalType":"uint256"}]}],"stateMutability":"pure"},{"type":"function","name":"doObligation","inputs":[{"name":"data","type":"tuple","internalType":"struct ERC1155EscrowObligation.ObligationData","components":[{"name":"arbiter","type":"address","internalType":"address"},{"name":"demand","type":"bytes","internalType":"bytes"},{"name":"token","type":"address","internalType":"address"},{"name":"tokenId","type":"uint256","internalType":"uint256"},{"name":"amount","type":"uint256","internalType":"uint256"}]},{"name":"expirationTime","type":"uint64","internalType":"uint64"}],"outputs":[{"name":"","type":"bytes32","internalType":"bytes32"}],"stateMutability":"nonpayable"},{"type":"function","name":"doObligationFor","inputs":[{"name":"data","type":"tuple","internalType":"struct ERC1155EscrowObligation.ObligationData","components":[{"name":"arbiter","type":"address","internalType":"address"},{"name":"demand","type":"bytes","internalType":"bytes"},{"name":"token","type":"address","internalType":"address"},{"name":"tokenId","type":"uint256","internalType":"uint256"},{"name":"amount","type":"uint256","internalType":"uint256"}]},{"name":"expirationTime","type":"uint64","internalType":"uint64"},{"name":"recipient","type":"address","internalType":"address"}],"outputs":[{"name":"","type":"bytes32","internalType":"bytes32"}],"stateMutability":"nonpayable"},{"type":"function","name":"doObligationRaw","inputs":[{"name":"data","type":"bytes","internalType":"bytes"},{"name":"expirationTime","type":"uint64","internalType":"uint64"},{"name":"refUID","type":"bytes32","internalType":"bytes32"}],"outputs":[{"name":"uid_","type":"bytes32","internalType":"bytes32"}],"stateMutability":"payable"},{"type":"function","name":"extractArbiterAndDemand","inputs":[{"name":"data","type":"bytes","internalType":"bytes"}],"outputs":[{"name":"arbiter","type":"address","internalType":"address"},{"name":"demand","type":"bytes","internalType":"bytes"}],"stateMutability":"pure"},{"type":"function","name":"getObligationData","inputs":[{"name":"uid","type":"bytes32","internalType":"bytes32"}],"outputs":[{"name":"","type":"tuple","internalType":"struct ERC1155EscrowObligation.ObligationData","components":[{"name":"arbiter","type":"address","internalType":"address"},{"name":"demand","type":"bytes","internalType":"bytes"},{"name":"token","type":"address","internalType":"address"},{"name":"tokenId","type":"uint256","internalType":"uint256"},{"name":"amount","type":"uint256","internalType":"uint256"}]}],"stateMutability":"view"},{"type":"function","name":"getSchema","inputs":[],"outputs":[{"name":"","type":"tuple","internalType":"struct SchemaRecord","components":[{"name":"uid","type":"bytes32","internalType":"bytes32"},{"name":"resolver","type":"address","internalType":"contract ISchemaResolver"},{"name":"revocable","type":"bool","internalType":"bool"},{"name":"schema","type":"string","internalType":"string"}]}],"stateMutability":"view"},{"type":"function","name":"isPayable","inputs":[],"outputs":[{"name":"","type":"bool","internalType":"bool"}],"stateMutability":"pure"},{"type":"function","name":"multiAttest","inputs":[{"name":"attestations","type":"tuple[]","internalType":"struct Attestation[]","components":[{"name":"uid","type":"bytes32","internalType":"bytes32"},{"name":"schema","type":"bytes32","internalType":"bytes32"},{"name":"time","type":"uint64","internalType":"uint64"},{"name":"expirationTime","type":"uint64","internalType":"uint64"},{"name":"revocationTime","type":"uint64","internalType":"uint64"},{"name":"refUID","type":"bytes32","internalType":"bytes32"},{"name":"recipient","type":"address","internalType":"address"},{"name":"attester","type":"address","internalType":"address"},{"name":"revocable","type":"bool","internalType":"bool"},{"name":"data","type":"bytes","internalType":"bytes"}]},{"name":"values","type":"uint256[]","internalType":"uint256[]"}],"outputs":[{"name":"","type":"bool","internalType":"bool"}],"stateMutability":"payable"},{"type":"function","name":"multiRevoke","inputs":[{"name":"attestations","type":"tuple[]","internalType":"struct Attestation[]","components":[{"name":"uid","type":"bytes32","internalType":"bytes32"},{"name":"schema","type":"bytes32","internalType":"bytes32"},{"name":"time","type":"uint64","internalType":"uint64"},{"name":"expirationTime","type":"uint64","internalType":"uint64"},{"name":"revocationTime","type":"uint64","internalType":"uint64"},{"name":"refUID","type":"bytes32","internalType":"bytes32"},{"name":"recipient","type":"address","internalType":"address"},{"name":"attester","type":"address","internalType":"address"},{"name":"revocable","type":"bool","internalType":"bool"},{"name":"data","type":"bytes","internalType":"bytes"}]},{"name":"values","type":"uint256[]","internalType":"uint256[]"}],"outputs":[{"name":"","type":"bool","internalType":"bool"}],"stateMutability":"payable"},{"type":"function","name":"onERC1155BatchReceived","inputs":[{"name":"","type":"address","internalType":"address"},{"name":"","type":"address","internalType":"address"},{"name":"","type":"uint256[]","internalType":"uint256[]"},{"name":"","type":"uint256[]","internalType":"uint256[]"},{"name":"","type":"bytes","internalType":"bytes"}],"outputs":[{"name":"","type":"bytes4","internalType":"bytes4"}],"stateMutability":"nonpayable"},{"type":"function","name":"onERC1155Received","inputs":[{"name":"","type":"address","internalType":"address"},{"name":"","type":"address","internalType":"address"},{"name":"","type":"uint256","internalType":"uint256"},{"name":"","type":"uint256","internalType":"uint256"},{"name":"","type":"bytes","internalType":"bytes"}],"outputs":[{"name":"","type":"bytes4","internalType":"bytes4"}],"stateMutability":"nonpayable"},{"type":"function","name":"reclaimExpired","inputs":[{"name":"uid","type":"bytes32","internalType":"bytes32"}],"outputs":[{"name":"","type":"bool","internalType":"bool"}],"stateMutability":"nonpayable"},{"type":"function","name":"revoke","inputs":[{"name":"attestation","type":"tuple","internalType":"struct Attestation","components":[{"name":"uid","type":"bytes32","internalType":"bytes32"},{"name":"schema","type":"bytes32","internalType":"bytes32"},{"name":"time","type":"uint64","internalType":"uint64"},{"name":"expirationTime","type":"uint64","internalType":"uint64"},{"name":"revocationTime","type":"uint64","internalType":"uint64"},{"name":"refUID","type":"bytes32","internalType":"bytes32"},{"name":"recipient","type":"address","internalType":"address"},{"name":"attester","type":"address","internalType":"address"},{"name":"revocable","type":"bool","internalType":"bool"},{"name":"data","type":"bytes","internalType":"bytes"}]}],"outputs":[{"name":"","type":"bool","internalType":"bool"}],"stateMutability":"payable"},{"type":"function","name":"supportsInterface","inputs":[{"name":"interfaceId","type":"bytes4","internalType":"bytes4"}],"outputs":[{"name":"","type":"bool","internalType":"bool"}],"stateMutability":"view"},{"type":"function","name":"version","inputs":[],"outputs":[{"name":"","type":"string","internalType":"string"}],"stateMutability":"view"},{"type":"event","name":"EscrowCollected","inputs":[{"name":"escrow","type":"bytes32","indexed":true,"internalType":"bytes32"},{"name":"fulfillment","type":"bytes32","indexed":true,"internalType":"bytes32"},{"name":"fulfiller","type":"address","indexed":true,"internalType":"address"}],"anonymous":false},{"type":"event","name":"EscrowMade","inputs":[{"name":"escrow","type":"bytes32","indexed":true,"internalType":"bytes32"},{"name":"buyer","type":"address","indexed":true,"internalType":"address"}],"anonymous":false},{"type":"error","name":"AccessDenied","inputs":[]},{"type":"error","name":"AttestationNotFound","inputs":[{"name":"attestationId","type":"bytes32","internalType":"bytes32"}]},{"type":"error","name":"AttestationRevoked","inputs":[]},{"type":"error","name":"DeadlineExpired","inputs":[]},{"type":"error","name":"ERC1155TransferFailed","inputs":[{"name":"token","type":"address","internalType":"address"},{"name":"from","type":"address","internalType":"address"},{"name":"to","type":"address","internalType":"address"},{"name":"tokenId","type":"uint256","internalType":"uint256"},{"name":"amount","type":"uint256","internalType":"uint256"}]},{"type":"error","name":"InsufficientValue","inputs":[]},{"type":"error","name":"InvalidEAS","inputs":[]},{"type":"error","name":"InvalidEscrowAttestation","inputs":[]},{"type":"error","name":"InvalidFulfillment","inputs":[]},{"type":"error","name":"InvalidLength","inputs":[]},{"type":"error","name":"InvalidSchema","inputs":[]},{"type":"error","name":"NotFromThisAttester","inputs":[]},{"type":"error","name":"NotPayable","inputs":[]},{"type":"error","name":"RevocationFailed","inputs":[{"name":"attestationId","type":"bytes32","internalType":"bytes32"}]},{"type":"error","name":"UnauthorizedCall","inputs":[]}],"bytecode":{"object":"0x6101608060405234610223576040816126928038038091610020828561025d565b8339810103126102235780516001600160a01b038116918282036102235760200151916001600160a01b03831680840361022357604051608081016001600160401b0381118282101761024957604052604d815260208101927f6164647265737320617262697465722c2062797465732064656d616e642c206184527f64647265737320746f6b656e2c2075696e7432353620746f6b656e49642c207560408301526c1a5b9d0c8d4d88185b5bdd5b9d609a1b60608301526001608052600360a0525f60c0521561023a576084948460209560e05261012052610100525f604051958680958194630c1af44f60e31b8352606060048401525180918160648501528484015e818101830184905230602483015260016044830152601f01601f191681010301925af190811561022f575f916101f9575b50610140526040516124119081610281823960805181610ec1015260a05181610eec015260c05181610f17015260e05181611d2301526101005181610d380152610120518181816104e7015281816108c901528181610b1f0152818161168901526122b20152610140518181816105270152818161081c01528181610b7c01528181610d0601528181610e7f0152818161172901528181611aac01526122050152f35b90506020813d602011610227575b816102146020938361025d565b8101031261022357515f610156565b5f80fd5b3d9150610207565b6040513d5f823e3d90fd5b6341bc07ff60e11b5f5260045ffd5b634e487b7160e01b5f52604160045260245ffd5b601f909101601f19168101906001600160401b038211908210176102495760405256fe6080806040526004361015610029575b50361561001a575f80fd5b631574f9f360e01b5f5260045ffd5b5f905f3560e01c90816301ffc9a714610fa1575080632c713cd914610f9057806354fd4d5014610ea25780635bf2f20d14610e685780636b122fe014610cc75780637d2c293114610aea5780638371ef5914610a8b57806388e5b2d914610a3d578063891d9ea814610a5c57806391db0b7e14610a3d578063b3b902d414610648578063bc197c81146105b2578063c6ec5070146104a6578063c93844be146103c9578063ce46e046146103ad578063cecf1aff14610340578063e49617e114610325578063e60c350514610325578063e6c9714d146101fe578063f23a6e61146101a85763f23be17b0361000f57346101a15760603660031901126101a1576004356001600160401b0381116101a45760a060031982360301126101a457610150611207565b604435929091906001600160a01b03841684036101a1576020610199858561018661019487604051928391600401888301611a08565b03601f1981018352826110ca565b612068565b604051908152f35b80fd5b5080fd5b50346101a15760a03660031901126101a1576101c2611231565b506101cb611247565b506084356001600160401b0381116101a4576101eb90369060040161113c565b5060405163f23a6e6160e01b8152602090f35b50346101a15760603660031901126101a157600435906001600160401b0382116101a15761014060031983360301126101a1576040519161023e83611093565b806004013583526024810135602084015261025b6044820161121d565b604084015261026c6064820161121d565b606084015261027d6084820161121d565b608084015260a481013560a084015261029860c4820161125d565b60c08401526102a960e4820161125d565b60e08401526101048101358015158103610321576101008401526101248101356001600160401b038111610321576102e69136910160040161113c565b610120830152602435906001600160401b0382116101a157602061031784610311366004870161113c565b90611aaa565b6040519015158152f35b8280fd5b60206103176103333661132a565b61033b611d21565b611d62565b50346101a15760403660031901126101a157600435906001600160401b0382116101a15760a060031983360301126101a1576020610199610398846103a6610386611207565b91604051938491600401878301611a08565b03601f1981018452836110ca565b3391612068565b50346101a157806003193601126101a157602090604051908152f35b50346101a15760203660031901126101a1576004356001600160401b0381116101a4576103fa9036906004016111da565b6104059291926119dd565b508201916020818403126101a4578035906001600160401b03821161032157019160a0838203126101a4576040519161043d83611078565b6104468461125d565b83526020840135906001600160401b0382116101a157509261046f6080926104a295830161113c565b60208401526104806040820161125d565b60408401526060810135606084015201356080820152604051918291826112d8565b0390f35b50346101a15760203660031901126101a1576104c06119dd565b506104c96113a1565b506040516328c44a9960e21b815260048035908201529080826024817f00000000000000000000000000000000000000000000000000000000000000006001600160a01b03165afa9182156105a5578192610581575b5060208201517f000000000000000000000000000000000000000000000000000000000000000003610572576104a261056661012084015160208082518301019101611508565b604051918291826112d8565b635527981560e11b8152600490fd5b61059e9192503d8084833e61059681836110ca565b81019061142d565b905f61051f565b50604051903d90823e3d90fd5b50346101a15760a03660031901126101a1576105cc611231565b506105d5611247565b506044356001600160401b0381116101a4576105f5903690600401611271565b506064356001600160401b0381116101a457610615903690600401611271565b506084356001600160401b0381116101a45761063590369060040161113c565b5060405163bc197c8160e01b8152602090f35b5060603660031901126101a1576004356001600160401b0381116101a4576106776106899136906004016111da565b9190610681611207565b923691611106565b61069c6020825183010160208301611508565b604081810180516060840180519351627eeac760e11b815230600482015260248101949094529395939491939290602090829060449082906001600160a01b03165afa908115610a32578791610a00575b5060018060a01b0384511687608087519801978851833b156103215761072e93839283604051809781958294637921219560e11b8452303360048601611dd7565b03925af191826109e7575b505061077657505090519151925160405163334a7d1b60e21b81529384936107729350309033906001600160a01b031660048701611e0f565b0390fd5b83518551604051627eeac760e11b81523060048201526024810191909152889588938893919291602090839060449082906001600160a01b03165afa9182156109dc5788926109a2575b5084516107cc91611e42565b11610971575050506001600160401b03604051926107e9846110af565b33845216602083015260016040830152604435606083015260808201528160a0820152602060405161081a8161105d565b7f000000000000000000000000000000000000000000000000000000000000000081528181019283526040518093819263f17325e760e01b8352846004840152516024830152516040604483015260018060a01b0381511660648301526001600160401b03848201511660848301526040810151151560a4830152606081015160c483015260a06108bb608083015160c060e486015261012485019061100a565b9101516101048301520381857f00000000000000000000000000000000000000000000000000000000000000006001600160a01b03165af1908115610966578291610933575b50602091817f8f7f2dbafd79125e808bf16a53d7fa4e17b8b6374ced76d946a45f94b7bf4d06339280a3604051908152f35b90506020813d60201161095e575b8161094e602093836110ca565b810103126101a457516020610901565b3d9150610941565b6040513d84823e3d90fd5b519051915160405163334a7d1b60e21b8152928392610772929190309033906001600160a01b031660048701611e0f565b9091506020813d6020116109d4575b816109be602093836110ca565b810103126109d05751906107cc6107c0565b5f80fd5b3d91506109b1565b6040513d8a823e3d90fd5b816109f1916110ca565b6109fc57875f610739565b8780fd5b90506020813d602011610a2a575b81610a1b602093836110ca565b810103126109d057515f6106ed565b3d9150610a0e565b6040513d89823e3d90fd5b6020610317610a4b3661118a565b92610a57929192611d21565b6115bb565b50346101a1576104a2610a77610a7136610ff4565b9061165f565b60405191829160208352602083019061100a565b50346101a15760203660031901126101a157600435906001600160401b0382116101a157610ac4610abf366004850161113c565b611592565b604080516001600160a01b0390931683526020830181905282916104a29183019061100a565b50346109d05760203660031901126109d05760043590610b086113a1565b506040516328c44a9960e21b8152600481018390527f00000000000000000000000000000000000000000000000000000000000000006001600160a01b031691905f81602481865afa5f9181610cab575b50610b7157836301fb6dd160e01b5f5260045260245ffd5b8390926020840151907f0000000000000000000000000000000000000000000000000000000000000000809203610c9c57606085016001600160401b0381511615610c8d57516001600160401b03164210610c8d57604051610bd28161105d565b8381525f602082015260405192610be88461105d565b83526020830152803b156109d057604051634692626760e01b815282516004820152602092830151805160248301529092015160448301525f908290606490829084905af19081610c78575b50610c4c5763614cf93960e01b825260045260249150fd5b61012083015160c0840151610c6c916001600160a01b0390911690611e63565b50602060405160018152f35b610c859193505f906110ca565b5f9184610c34565b637bf6a16f60e01b5f5260045ffd5b63629cd40b60e11b5f5260045ffd5b610cc09192503d805f833e61059681836110ca565b905f610b59565b346109d0575f3660031901126109d057606080604051610ce68161102e565b5f81525f60208201525f604082015201526040516351753e3760e11b81527f000000000000000000000000000000000000000000000000000000000000000060048201525f8160248160018060a01b037f0000000000000000000000000000000000000000000000000000000000000000165afa8015610e5d575f90610dad575b6060906104a2604051928392602084528051602085015260018060a01b0360208201511660408501526040810151151582850152015160808084015260a083019061100a565b503d805f833e610dbd81836110ca565b8101906020818303126109d0578051906001600160401b0382116109d057016080818303126109d05760405190610df38261102e565b8051825260208101516001600160a01b03811681036109d0576020830152610e1d6040820161135e565b60408301526060810151906001600160401b0382116109d0570182601f820112156109d057606092816020610e549351910161136b565b82820152610d67565b6040513d5f823e3d90fd5b346109d0575f3660031901126109d05760206040517f00000000000000000000000000000000000000000000000000000000000000008152f35b346109d0575f3660031901126109d0576104a26020610a776001610ee57f0000000000000000000000000000000000000000000000000000000000000000611bb4565b8184610f107f0000000000000000000000000000000000000000000000000000000000000000611bb4565b8180610f3b7f0000000000000000000000000000000000000000000000000000000000000000611bb4565b9260405199878b985191829101848a015e870190601760f91b83830152805192839101602183015e010190601760f91b84830152805192839101600283015e01015f838201520301601f1981018352826110ca565b346109d057610c6c610a7136610ff4565b346109d05760203660031901126109d0576004359063ffffffff60e01b82168092036109d057602091630271189760e51b8114908115610fe3575b5015158152f35b6301ffc9a760e01b14905083610fdc565b60409060031901126109d0576004359060243590565b805180835260209291819084018484015e5f828201840152601f01601f1916010190565b608081019081106001600160401b0382111761104957604052565b634e487b7160e01b5f52604160045260245ffd5b604081019081106001600160401b0382111761104957604052565b60a081019081106001600160401b0382111761104957604052565b61014081019081106001600160401b0382111761104957604052565b60c081019081106001600160401b0382111761104957604052565b90601f801991011681019081106001600160401b0382111761104957604052565b6001600160401b03811161104957601f01601f191660200190565b929192611112826110eb565b9161112060405193846110ca565b8294818452818301116109d0578281602093845f960137010152565b9080601f830112156109d05781602061115793359101611106565b90565b9181601f840112156109d0578235916001600160401b0383116109d0576020808501948460051b0101116109d057565b60406003198201126109d0576004356001600160401b0381116109d057816111b49160040161115a565b92909291602435906001600160401b0382116109d0576111d69160040161115a565b9091565b9181601f840112156109d0578235916001600160401b0383116109d057602083818601950101116109d057565b602435906001600160401b03821682036109d057565b35906001600160401b03821682036109d057565b600435906001600160a01b03821682036109d057565b602435906001600160a01b03821682036109d057565b35906001600160a01b03821682036109d057565b9080601f830112156109d0578135916001600160401b038311611049578260051b90604051936112a460208401866110ca565b84526020808501928201019283116109d057602001905b8282106112c85750505090565b81358152602091820191016112bb565b6020815260018060a01b03825116602082015260a06080611307602085015183604086015260c085019061100a565b93600180841b036040820151166060850152606081015182850152015191015290565b60206003198201126109d057600435906001600160401b0382116109d0576101409082900360031901126109d05760040190565b519081151582036109d057565b929192611377826110eb565b9161138560405193846110ca565b8294818452818301116109d0578281602093845f96015e010152565b604051906113ae82611093565b6060610120835f81525f60208201525f60408201525f838201525f60808201525f60a08201525f60c08201525f60e08201525f6101008201520152565b51906001600160401b03821682036109d057565b51906001600160a01b03821682036109d057565b9080601f830112156109d05781516111579260200161136b565b6020818303126109d0578051906001600160401b0382116109d05701610140818303126109d0576040519161146183611093565b815183526020820151602084015261147b604083016113eb565b604084015261148c606083016113eb565b606084015261149d608083016113eb565b608084015260a082015160a08401526114b860c083016113ff565b60c08401526114c960e083016113ff565b60e08401526114db610100830161135e565b6101008401526101208201516001600160401b0381116109d0576114ff9201611413565b61012082015290565b6020818303126109d0578051906001600160401b0382116109d057019060a0828203126109d0576040519161153c83611078565b611545816113ff565b835260208101516001600160401b0381116109d057608092611568918301611413565b6020840152611579604082016113ff565b6040840152606081015160608401520151608082015290565b6115a59060208082518301019101611508565b80516020909101516001600160a01b0390911691565b929092818403611650575f91345b858410156116455781841015611631578360051b80860135908282116116225784013561013e19853603018112156109d057611606908501611d62565b1561161757600191039301926115c9565b505050505050505f90565b63044044a560e21b5f5260045ffd5b634e487b7160e01b5f52603260045260245ffd5b505050505050600190565b63251f56a160e21b5f5260045ffd5b915f6116696113a1565b506116726113a1565b506040516328c44a9960e21b8152600481018590527f00000000000000000000000000000000000000000000000000000000000000006001600160a01b0316905f81602481855afa5f91816119c1575b506116da57856301fb6dd160e01b5f5260045260245ffd5b94919293946040516328c44a9960e21b81528660048201525f81602481865afa5f91816119a5575b5061171a57866301fb6dd160e01b5f5260045260245ffd5b959192939495926020820151907f0000000000000000000000000000000000000000000000000000000000000000809203610c9c5761175883611d7b565b15610c9c5761012083019261176d8451611592565b60a0880192835181510361195c57516040805163e6c9714d60e01b81526060600482018190528b51606483015260208c01516084830152918b01516001600160401b0390811660a4830152918b0151821660c482015260808b015190911660e4820152935161010485015260c0890180516001600160a01b0390811661012487015260e08b0151166101448601526101008a0151151561016486015261012090990151610140610184860152849283929161182d906101a485019061100a565b8381036003190160248501526118429161100a565b60448301919091526001600160a01b039093169203815a93602094fa908115610e5d575f9161196b575b501561195c5760405161187e8161105d565b8681525f6020820152604051926118948461105d565b83526020830152803b156109d057604051634692626760e01b815282516004820152602092830151805160248301529092015160448301525f908290606490829084905af19081611947575b506118f95763614cf93960e01b85526004849052602485fd5b51825192949391927ff96e77bc177ae8e2ff25185e7c6d85f8ba97c8bdd9d46933aac70a7a33edf6c091611936916001600160a01b031690611e63565b94516001600160a01b03169380a490565b6119549196505f906110ca565b5f945f6118e0565b630ebe58ef60e11b5f5260045ffd5b90506020813d60201161199d575b81611986602093836110ca565b810103126109d0576119979061135e565b5f61186c565b3d9150611979565b6119ba9192503d805f833e61059681836110ca565b905f611702565b6119d69192503d805f833e61059681836110ca565b905f6116c2565b604051906119ea82611078565b5f608083828152606060208201528260408201528260608201520152565b602081526001600160a01b03611a1d8361125d565b1660208201526020820135601e19833603018112156109d05782016020813591016001600160401b0382116109d05781360381136109d05760e0938260809260a060408701528160c0870152868601375f8484018601526001600160a01b03611a886040830161125d565b166060850152606081013582850152013560a0830152601f8019910116010190565b7f0000000000000000000000000000000000000000000000000000000000000000602082015103611ba557611ade81611d7b565b15611b9f57611afe610120611b0e92015160208082518301019101611508565b9160208082518301019101611508565b604082810151908201516001600160a01b039081169116149182611b8c575b82611b78575b82611b5f575b82611b4357505090565b6020919250810151818151910120910151602081519101201490565b805182516001600160a01b039081169116149250611b39565b915060808201516080820151111591611b33565b9150606082015160608201511491611b2d565b50505f90565b635f9bd90760e11b5f5260045ffd5b805f9172184f03e93ff9f4daa797ed6e38ed64bf6a1f0160401b821015611cfe575b806d04ee2d6d415b85acef8100000000600a921015611ce3575b662386f26fc10000811015611ccf575b6305f5e100811015611cbe575b612710811015611caf575b6064811015611ca1575b1015611c96575b600a60216001840193611c3b856110eb565b94611c4960405196876110ca565b808652611c58601f19916110eb565b013660208701378401015b5f1901916f181899199a1a9b1b9c1cb0b131b232b360811b8282061a8353048015611c9157600a9091611c63565b505090565b600190910190611c29565b606460029104930192611c22565b61271060049104930192611c18565b6305f5e10060089104930192611c0d565b662386f26fc1000060109104930192611c00565b6d04ee2d6d415b85acef810000000060209104930192611bf0565b506040915072184f03e93ff9f4daa797ed6e38ed64bf6a1f0160401b8104611bd6565b7f00000000000000000000000000000000000000000000000000000000000000006001600160a01b03163303611d5357565b634ca8886760e01b5f5260045ffd5b60e0013560018060a01b0381168091036109d057301490565b6001600160401b036060820151168015159081611dcc575b50611dbd57608001516001600160401b0316611dae57600190565b637b6227e960e11b5f5260045ffd5b631ab7da6b60e01b5f5260045ffd5b90504210155f611d93565b6001600160a01b039182168152911660208201526040810191909152606081019190915260a0608082018190525f9082015260c00190565b6001600160a01b039182168152918116602083015290911660408201526060810191909152608081019190915260a00190565b91908201809211611e4f57565b634e487b7160e01b5f52601160045260245ffd5b611e769060208082518301019101611508565b604081810180516060840180519351627eeac760e11b81526001600160a01b03878116600483015260248201959095529094935f9260209183916044918391165afa908115610e5d575f91612036575b5060018060a01b03835116608086519501948551823b156109d057611f07925f92838b60405196879586948593637921219560e11b85523060048601611dd7565b03925af19081612021575b50611f48575050519151905160405163334a7d1b60e21b815293849361077293919030906001600160a01b031660048701611e0f565b82518551604051627eeac760e11b81526001600160a01b0389811660048301526024820192909252939796959493929160209184916044918391165afa918215610a32578792611feb575b508351611f9f91611e42565b11611fbc575050505060405190611fb76020836110ca565b815290565b519151905160405163334a7d1b60e21b815293849361077293919030906001600160a01b031660048701611e0f565b9091506020813d602011612019575b81612007602093836110ca565b810103126109d0575190611f9f611f93565b3d9150611ffa565b61202e9193505f906110ca565b5f915f611f12565b90506020813d602011612060575b81612051602093836110ca565b810103126109d057515f611ec6565b3d9150612044565b9190925f906120806020855186010160208601611508565b604081810180516060840180519351627eeac760e11b815230600482015260248101949094529398939791969290602090829060449082906001600160a01b03165afa908115610e5d575f916123a9575b5060018060a01b03875116608089519a01998a51823b156109d057612111925f9283604051809681958294637921219560e11b8452303360048601611dd7565b03925af19081612394575b5061215257865188518a5160405163334a7d1b60e21b81529283926107729291309033906001600160a01b031660048701611e0f565b86518851604051627eeac760e11b81523060048201526024810191909152969995989497939692959493929190602090839060449082906001600160a01b03165afa918215612389578a92612353575b5084516121ae91611e42565b11610971575050506001600160401b03604051926121cb846110af565b60018060a01b0316938484521660208301526001604083015284606083015260808201528360a082015260206040516122038161105d565b7f000000000000000000000000000000000000000000000000000000000000000081528181019283526040518093819263f17325e760e01b8352846004840152516024830152516040604483015260018060a01b0381511660648301526001600160401b03848201511660848301526040810151151560a4830152606081015160c483015260a06122a4608083015160c060e486015261012485019061100a565b9101516101048301520381877f00000000000000000000000000000000000000000000000000000000000000006001600160a01b03165af1908115612348578491612312575b507f8f7f2dbafd79125e808bf16a53d7fa4e17b8b6374ced76d946a45f94b7bf4d06819480a3565b90506020813d602011612340575b8161232d602093836110ca565b8101031261233c57515f6122ea565b8380fd5b3d9150612320565b6040513d86823e3d90fd5b9091506020813d602011612381575b8161236f602093836110ca565b810103126109d05751906121ae6121a2565b3d9150612362565b6040513d8c823e3d90fd5b6123a19197505f906110ca565b5f955f61211c565b90506020813d6020116123d3575b816123c4602093836110ca565b810103126109d057515f6120d1565b3d91506123b756fea2646970667358221220b6d2bcb76a101ac3e58de6a99a294ee6b3933db5cd9de7df63761ca0ffaed03c64736f6c634300081b0033","linkReferences":{}},"methodIdentifiers":{"ATTESTATION_SCHEMA()":"5bf2f20d","attest((bytes32,bytes32,uint64,uint64,uint64,bytes32,address,address,bool,bytes))":"e60c3505","checkObligation((bytes32,bytes32,uint64,uint64,uint64,bytes32,address,address,bool,bytes),bytes,bytes32)":"e6c9714d","collectEscrow(bytes32,bytes32)":"2c713cd9","collectEscrowRaw(bytes32,bytes32)":"891d9ea8","decodeObligationData(bytes)":"c93844be","doObligation((address,bytes,address,uint256,uint256),uint64)":"cecf1aff","doObligationFor((address,bytes,address,uint256,uint256),uint64,address)":"f23be17b","doObligationRaw(bytes,uint64,bytes32)":"b3b902d4","extractArbiterAndDemand(bytes)":"8371ef59","getObligationData(bytes32)":"c6ec5070","getSchema()":"6b122fe0","isPayable()":"ce46e046","multiAttest((bytes32,bytes32,uint64,uint64,uint64,bytes32,address,address,bool,bytes)[],uint256[])":"91db0b7e","multiRevoke((bytes32,bytes32,uint64,uint64,uint64,bytes32,address,address,bool,bytes)[],uint256[])":"88e5b2d9","onERC1155BatchReceived(address,address,uint256[],uint256[],bytes)":"bc197c81","onERC1155Received(address,address,uint256,uint256,bytes)":"f23a6e61","reclaimExpired(bytes32)":"7d2c2931","revoke((bytes32,bytes32,uint64,uint64,uint64,bytes32,address,address,bool,bytes))":"e49617e1","supportsInterface(bytes4)":"01ffc9a7","version()":"54fd4d50"},"id":114}