{
  "abi": [
    {
      "type": "constructor",
      "inputs": [
        {
          "name": "_eas",
          "type": "address",
          "internalType": "contract IEAS"
        },
        {
          "name": "_schemaRegistry",
          "type": "address",
          "internalType": "contract ISchemaRegistry"
        }
      ],
      "stateMutability": "nonpayable"
    },
    {
      "type": "receive",
      "stateMutability": "payable"
    },
    {
      "type": "function",
      "name": "ATTESTATION_SCHEMA",
      "inputs": [],
      "outputs": [
        {
          "name": "",
          "type": "bytes32",
          "internalType": "bytes32"
        }
      ],
      "stateMutability": "view"
    },
    {
      "type": "function",
      "name": "attest",
      "inputs": [
        {
          "name": "attestation",
          "type": "tuple",
          "internalType": "struct Attestation",
          "components": [
            {
              "name": "uid",
              "type": "bytes32",
              "internalType": "bytes32"
            },
            {
              "name": "schema",
              "type": "bytes32",
              "internalType": "bytes32"
            },
            {
              "name": "time",
              "type": "uint64",
              "internalType": "uint64"
            },
            {
              "name": "expirationTime",
              "type": "uint64",
              "internalType": "uint64"
            },
            {
              "name": "revocationTime",
              "type": "uint64",
              "internalType": "uint64"
            },
            {
              "name": "refUID",
              "type": "bytes32",
              "internalType": "bytes32"
            },
            {
              "name": "recipient",
              "type": "address",
              "internalType": "address"
            },
            {
              "name": "attester",
              "type": "address",
              "internalType": "address"
            },
            {
              "name": "revocable",
              "type": "bool",
              "internalType": "bool"
            },
            {
              "name": "data",
              "type": "bytes",
              "internalType": "bytes"
            }
          ]
        }
      ],
      "outputs": [
        {
          "name": "",
          "type": "bool",
          "internalType": "bool"
        }
      ],
      "stateMutability": "payable"
    },
    {
      "type": "function",
      "name": "checkObligation",
      "inputs": [
        {
          "name": "obligation",
          "type": "tuple",
          "internalType": "struct Attestation",
          "components": [
            {
              "name": "uid",
              "type": "bytes32",
              "internalType": "bytes32"
            },
            {
              "name": "schema",
              "type": "bytes32",
              "internalType": "bytes32"
            },
            {
              "name": "time",
              "type": "uint64",
              "internalType": "uint64"
            },
            {
              "name": "expirationTime",
              "type": "uint64",
              "internalType": "uint64"
            },
            {
              "name": "revocationTime",
              "type": "uint64",
              "internalType": "uint64"
            },
            {
              "name": "refUID",
              "type": "bytes32",
              "internalType": "bytes32"
            },
            {
              "name": "recipient",
              "type": "address",
              "internalType": "address"
            },
            {
              "name": "attester",
              "type": "address",
              "internalType": "address"
            },
            {
              "name": "revocable",
              "type": "bool",
              "internalType": "bool"
            },
            {
              "name": "data",
              "type": "bytes",
              "internalType": "bytes"
            }
          ]
        },
        {
          "name": "demand",
          "type": "bytes",
          "internalType": "bytes"
        },
        {
          "name": "",
          "type": "bytes32",
          "internalType": "bytes32"
        }
      ],
      "outputs": [
        {
          "name": "",
          "type": "bool",
          "internalType": "bool"
        }
      ],
      "stateMutability": "view"
    },
    {
      "type": "function",
      "name": "collectEscrow",
      "inputs": [
        {
          "name": "escrow",
          "type": "bytes32",
          "internalType": "bytes32"
        },
        {
          "name": "fulfillment",
          "type": "bytes32",
          "internalType": "bytes32"
        }
      ],
      "outputs": [
        {
          "name": "",
          "type": "bool",
          "internalType": "bool"
        }
      ],
      "stateMutability": "nonpayable"
    },
    {
      "type": "function",
      "name": "collectEscrowRaw",
      "inputs": [
        {
          "name": "_escrow",
          "type": "bytes32",
          "internalType": "bytes32"
        },
        {
          "name": "_fulfillment",
          "type": "bytes32",
          "internalType": "bytes32"
        }
      ],
      "outputs": [
        {
          "name": "",
          "type": "bytes",
          "internalType": "bytes"
        }
      ],
      "stateMutability": "nonpayable"
    },
    {
      "type": "function",
      "name": "decodeObligationData",
      "inputs": [
        {
          "name": "data",
          "type": "bytes",
          "internalType": "bytes"
        }
      ],
      "outputs": [
        {
          "name": "",
          "type": "tuple",
          "internalType": "struct ERC20EscrowObligation.ObligationData",
          "components": [
            {
              "name": "arbiter",
              "type": "address",
              "internalType": "address"
            },
            {
              "name": "demand",
              "type": "bytes",
              "internalType": "bytes"
            },
            {
              "name": "token",
              "type": "address",
              "internalType": "address"
            },
            {
              "name": "amount",
              "type": "uint256",
              "internalType": "uint256"
            }
          ]
        }
      ],
      "stateMutability": "pure"
    },
    {
      "type": "function",
      "name": "doObligation",
      "inputs": [
        {
          "name": "data",
          "type": "tuple",
          "internalType": "struct ERC20EscrowObligation.ObligationData",
          "components": [
            {
              "name": "arbiter",
              "type": "address",
              "internalType": "address"
            },
            {
              "name": "demand",
              "type": "bytes",
              "internalType": "bytes"
            },
            {
              "name": "token",
              "type": "address",
              "internalType": "address"
            },
            {
              "name": "amount",
              "type": "uint256",
              "internalType": "uint256"
            }
          ]
        },
        {
          "name": "expirationTime",
          "type": "uint64",
          "internalType": "uint64"
        }
      ],
      "outputs": [
        {
          "name": "",
          "type": "bytes32",
          "internalType": "bytes32"
        }
      ],
      "stateMutability": "nonpayable"
    },
    {
      "type": "function",
      "name": "doObligationFor",
      "inputs": [
        {
          "name": "data",
          "type": "tuple",
          "internalType": "struct ERC20EscrowObligation.ObligationData",
          "components": [
            {
              "name": "arbiter",
              "type": "address",
              "internalType": "address"
            },
            {
              "name": "demand",
              "type": "bytes",
              "internalType": "bytes"
            },
            {
              "name": "token",
              "type": "address",
              "internalType": "address"
            },
            {
              "name": "amount",
              "type": "uint256",
              "internalType": "uint256"
            }
          ]
        },
        {
          "name": "expirationTime",
          "type": "uint64",
          "internalType": "uint64"
        },
        {
          "name": "recipient",
          "type": "address",
          "internalType": "address"
        }
      ],
      "outputs": [
        {
          "name": "",
          "type": "bytes32",
          "internalType": "bytes32"
        }
      ],
      "stateMutability": "nonpayable"
    },
    {
      "type": "function",
      "name": "doObligationRaw",
      "inputs": [
        {
          "name": "data",
          "type": "bytes",
          "internalType": "bytes"
        },
        {
          "name": "expirationTime",
          "type": "uint64",
          "internalType": "uint64"
        },
        {
          "name": "refUID",
          "type": "bytes32",
          "internalType": "bytes32"
        }
      ],
      "outputs": [
        {
          "name": "uid_",
          "type": "bytes32",
          "internalType": "bytes32"
        }
      ],
      "stateMutability": "payable"
    },
    {
      "type": "function",
      "name": "extractArbiterAndDemand",
      "inputs": [
        {
          "name": "data",
          "type": "bytes",
          "internalType": "bytes"
        }
      ],
      "outputs": [
        {
          "name": "arbiter",
          "type": "address",
          "internalType": "address"
        },
        {
          "name": "demand",
          "type": "bytes",
          "internalType": "bytes"
        }
      ],
      "stateMutability": "pure"
    },
    {
      "type": "function",
      "name": "getObligationData",
      "inputs": [
        {
          "name": "uid",
          "type": "bytes32",
          "internalType": "bytes32"
        }
      ],
      "outputs": [
        {
          "name": "",
          "type": "tuple",
          "internalType": "struct ERC20EscrowObligation.ObligationData",
          "components": [
            {
              "name": "arbiter",
              "type": "address",
              "internalType": "address"
            },
            {
              "name": "demand",
              "type": "bytes",
              "internalType": "bytes"
            },
            {
              "name": "token",
              "type": "address",
              "internalType": "address"
            },
            {
              "name": "amount",
              "type": "uint256",
              "internalType": "uint256"
            }
          ]
        }
      ],
      "stateMutability": "view"
    },
    {
      "type": "function",
      "name": "getSchema",
      "inputs": [],
      "outputs": [
        {
          "name": "",
          "type": "tuple",
          "internalType": "struct SchemaRecord",
          "components": [
            {
              "name": "uid",
              "type": "bytes32",
              "internalType": "bytes32"
            },
            {
              "name": "resolver",
              "type": "address",
              "internalType": "contract ISchemaResolver"
            },
            {
              "name": "revocable",
              "type": "bool",
              "internalType": "bool"
            },
            {
              "name": "schema",
              "type": "string",
              "internalType": "string"
            }
          ]
        }
      ],
      "stateMutability": "view"
    },
    {
      "type": "function",
      "name": "isPayable",
      "inputs": [],
      "outputs": [
        {
          "name": "",
          "type": "bool",
          "internalType": "bool"
        }
      ],
      "stateMutability": "pure"
    },
    {
      "type": "function",
      "name": "multiAttest",
      "inputs": [
        {
          "name": "attestations",
          "type": "tuple[]",
          "internalType": "struct Attestation[]",
          "components": [
            {
              "name": "uid",
              "type": "bytes32",
              "internalType": "bytes32"
            },
            {
              "name": "schema",
              "type": "bytes32",
              "internalType": "bytes32"
            },
            {
              "name": "time",
              "type": "uint64",
              "internalType": "uint64"
            },
            {
              "name": "expirationTime",
              "type": "uint64",
              "internalType": "uint64"
            },
            {
              "name": "revocationTime",
              "type": "uint64",
              "internalType": "uint64"
            },
            {
              "name": "refUID",
              "type": "bytes32",
              "internalType": "bytes32"
            },
            {
              "name": "recipient",
              "type": "address",
              "internalType": "address"
            },
            {
              "name": "attester",
              "type": "address",
              "internalType": "address"
            },
            {
              "name": "revocable",
              "type": "bool",
              "internalType": "bool"
            },
            {
              "name": "data",
              "type": "bytes",
              "internalType": "bytes"
            }
          ]
        },
        {
          "name": "values",
          "type": "uint256[]",
          "internalType": "uint256[]"
        }
      ],
      "outputs": [
        {
          "name": "",
          "type": "bool",
          "internalType": "bool"
        }
      ],
      "stateMutability": "payable"
    },
    {
      "type": "function",
      "name": "multiRevoke",
      "inputs": [
        {
          "name": "attestations",
          "type": "tuple[]",
          "internalType": "struct Attestation[]",
          "components": [
            {
              "name": "uid",
              "type": "bytes32",
              "internalType": "bytes32"
            },
            {
              "name": "schema",
              "type": "bytes32",
              "internalType": "bytes32"
            },
            {
              "name": "time",
              "type": "uint64",
              "internalType": "uint64"
            },
            {
              "name": "expirationTime",
              "type": "uint64",
              "internalType": "uint64"
            },
            {
              "name": "revocationTime",
              "type": "uint64",
              "internalType": "uint64"
            },
            {
              "name": "refUID",
              "type": "bytes32",
              "internalType": "bytes32"
            },
            {
              "name": "recipient",
              "type": "address",
              "internalType": "address"
            },
            {
              "name": "attester",
              "type": "address",
              "internalType": "address"
            },
            {
              "name": "revocable",
              "type": "bool",
              "internalType": "bool"
            },
            {
              "name": "data",
              "type": "bytes",
              "internalType": "bytes"
            }
          ]
        },
        {
          "name": "values",
          "type": "uint256[]",
          "internalType": "uint256[]"
        }
      ],
      "outputs": [
        {
          "name": "",
          "type": "bool",
          "internalType": "bool"
        }
      ],
      "stateMutability": "payable"
    },
    {
      "type": "function",
      "name": "reclaimExpired",
      "inputs": [
        {
          "name": "uid",
          "type": "bytes32",
          "internalType": "bytes32"
        }
      ],
      "outputs": [
        {
          "name": "",
          "type": "bool",
          "internalType": "bool"
        }
      ],
      "stateMutability": "nonpayable"
    },
    {
      "type": "function",
      "name": "revoke",
      "inputs": [
        {
          "name": "attestation",
          "type": "tuple",
          "internalType": "struct Attestation",
          "components": [
            {
              "name": "uid",
              "type": "bytes32",
              "internalType": "bytes32"
            },
            {
              "name": "schema",
              "type": "bytes32",
              "internalType": "bytes32"
            },
            {
              "name": "time",
              "type": "uint64",
              "internalType": "uint64"
            },
            {
              "name": "expirationTime",
              "type": "uint64",
              "internalType": "uint64"
            },
            {
              "name": "revocationTime",
              "type": "uint64",
              "internalType": "uint64"
            },
            {
              "name": "refUID",
              "type": "bytes32",
              "internalType": "bytes32"
            },
            {
              "name": "recipient",
              "type": "address",
              "internalType": "address"
            },
            {
              "name": "attester",
              "type": "address",
              "internalType": "address"
            },
            {
              "name": "revocable",
              "type": "bool",
              "internalType": "bool"
            },
            {
              "name": "data",
              "type": "bytes",
              "internalType": "bytes"
            }
          ]
        }
      ],
      "outputs": [
        {
          "name": "",
          "type": "bool",
          "internalType": "bool"
        }
      ],
      "stateMutability": "payable"
    },
    {
      "type": "function",
      "name": "version",
      "inputs": [],
      "outputs": [
        {
          "name": "",
          "type": "string",
          "internalType": "string"
        }
      ],
      "stateMutability": "view"
    },
    {
      "type": "event",
      "name": "EscrowCollected",
      "inputs": [
        {
          "name": "escrow",
          "type": "bytes32",
          "indexed": true,
          "internalType": "bytes32"
        },
        {
          "name": "fulfillment",
          "type": "bytes32",
          "indexed": true,
          "internalType": "bytes32"
        },
        {
          "name": "fulfiller",
          "type": "address",
          "indexed": true,
          "internalType": "address"
        }
      ],
      "anonymous": false
    },
    {
      "type": "event",
      "name": "EscrowMade",
      "inputs": [
        {
          "name": "escrow",
          "type": "bytes32",
          "indexed": true,
          "internalType": "bytes32"
        },
        {
          "name": "buyer",
          "type": "address",
          "indexed": true,
          "internalType": "address"
        }
      ],
      "anonymous": false
    },
    {
      "type": "error",
      "name": "AccessDenied",
      "inputs": []
    },
    {
      "type": "error",
      "name": "AttestationNotFound",
      "inputs": [
        {
          "name": "attestationId",
          "type": "bytes32",
          "internalType": "bytes32"
        }
      ]
    },
    {
      "type": "error",
      "name": "AttestationRevoked",
      "inputs": []
    },
    {
      "type": "error",
      "name": "DeadlineExpired",
      "inputs": []
    },
    {
      "type": "error",
      "name": "ERC20TransferFailed",
      "inputs": [
        {
          "name": "token",
          "type": "address",
          "internalType": "address"
        },
        {
          "name": "from",
          "type": "address",
          "internalType": "address"
        },
        {
          "name": "to",
          "type": "address",
          "internalType": "address"
        },
        {
          "name": "amount",
          "type": "uint256",
          "internalType": "uint256"
        }
      ]
    },
    {
      "type": "error",
      "name": "InsufficientValue",
      "inputs": []
    },
    {
      "type": "error",
      "name": "InvalidEAS",
      "inputs": []
    },
    {
      "type": "error",
      "name": "InvalidEscrowAttestation",
      "inputs": []
    },
    {
      "type": "error",
      "name": "InvalidFulfillment",
      "inputs": []
    },
    {
      "type": "error",
      "name": "InvalidLength",
      "inputs": []
    },
    {
      "type": "error",
      "name": "InvalidSchema",
      "inputs": []
    },
    {
      "type": "error",
      "name": "NotFromThisAttester",
      "inputs": []
    },
    {
      "type": "error",
      "name": "NotPayable",
      "inputs": []
    },
    {
      "type": "error",
      "name": "RevocationFailed",
      "inputs": [
        {
          "name": "attestationId",
          "type": "bytes32",
          "internalType": "bytes32"
        }
      ]
    },
    {
      "type": "error",
      "name": "UnauthorizedCall",
      "inputs": []
    }
  ],
  "bytecode": {
    "object": "0x610160806040523461020d5760408161235980380380916100208285610247565b83398101031261020d5780516001600160a01b0381169182820361020d5760200151916001600160a01b03831680840361020d57604051606081016001600160401b0381118282101761023357604052603c815260208101927f6164647265737320617262697465722c2062797465732064656d616e642c206184527f64647265737320746f6b656e2c2075696e7432353620616d6f756e740000000060408301526001608052600360a0525f60c05215610224576084948460209560e05261012052610100525f604051958680958194630c1af44f60e31b8352606060048401525180918160648501528484015e818101830184905230602483015260016044830152601f01601f191681010301925af1908115610219575f916101e3575b50610140526040516120ee908161026b823960805181610d90015260a05181610dbb015260c05181610de6015260e05181611ab101526101005181610c07015261012051818181610370015281816106e3015281816109ee015281816114410152611f640152610140518181816103b00152818161063601528181610a4b01528181610bd501528181610d4e015281816114e1015281816118530152611eb70152f35b90506020813d602011610211575b816101fe60209383610247565b8101031261020d57515f610140565b5f80fd5b3d91506101f1565b6040513d5f823e3d90fd5b6341bc07ff60e11b5f5260045ffd5b634e487b7160e01b5f52604160045260245ffd5b601f909101601f19168101906001600160401b038211908210176102335760405256fe60806040526004361015610027575b3615610018575f80fd5b631574f9f360e01b5f5260045ffd5b5f5f3560e01c80632c713cd914610e5f57806354fd4d5014610d715780635bf2f20d14610d375780636b122fe014610b965780637d2c2931146109b95780638371ef591461095a57806388e5b2d91461090c578063891d9ea81461092b57806391db0b7e1461090c578063a4f0d5171461089f578063b3b902d4146104c5578063c1e4a7101461043b578063c6ec50701461032f578063c93844be14610258578063ce46e0461461023c578063e49617e114610221578063e60c3505146102215763e6c9714d146100f8575061000e565b3461021a57606036600319011261021a57600435906001600160401b03821161021a57610140600319833603011261021a576040519161013783610ef0565b80600401358352602481013560208401526101546044820161104d565b60408401526101656064820161104d565b60608401526101766084820161104d565b608084015260a481013560a084015261019160c4820161108e565b60c08401526101a260e4820161108e565b60e0840152610104810135801515810361021d576101008401526101248101356001600160401b03811161021d576101df91369101600401610f99565b610120830152602435906001600160401b03821161021a5760206102108461020a3660048701610f99565b90611851565b6040519015158152f35b80fd5b8280fd5b602061021061022f366110ec565b610237611aaf565b611af0565b503461021a578060031936011261021a57602090604051908152f35b503461021a57602036600319011261021a576004356001600160401b03811161032b57610289903690600401611061565b61029492919261182d565b5082019160208184031261032b578035906001600160401b03821161021d57019160808382031261032b57604051916102cc83610ea6565b6102d58461108e565b83526020840135906001600160401b03821161021a5750926102fe606092610327958301610f99565b602084015261030f6040820161108e565b604084015201356060820152604051918291826110a2565b0390f35b5080fd5b503461021a57602036600319011261021a5761034961182d565b50610352611163565b506040516328c44a9960e21b815260048035908201529080826024817f00000000000000000000000000000000000000000000000000000000000000006001600160a01b03165afa91821561042e57819261040a575b5060208201517f0000000000000000000000000000000000000000000000000000000000000000036103fb576103276103ef610120840151602080825183010191016112ca565b604051918291826110a2565b635527981560e11b8152600490fd5b6104279192503d8084833e61041f8183610f27565b8101906111ef565b905f6103a8565b50604051903d90823e3d90fd5b503461021a57606036600319011261021a576004356001600160401b03811161032b576080600319823603011261032b57610474611037565b604435929091906001600160a01b038416840361021a5760206104bd85856104aa6104b887604051928391600401888301611795565b03601f198101835282610f27565b611d7d565b604051908152f35b50606036600319011261021a576004356001600160401b03811161032b576104f4610506913690600401611061565b91906104fe611037565b923691610f63565b61051960208251830101602083016112ca565b6040818101805191516370a0823160e01b81523060048201529091602090829060249082906001600160a01b03165afa908115610894578691610862575b50856020606060018060a01b038551169501946064865160405194859384926323b872dd60e01b845233600485015230602485015260448401525af1879181610822575b5061081a57506024865b83516040516370a0823160e01b81523060048201529260209184919082906001600160a01b03165afa91821561080f5788926107d7575b50159182156107c1575b505061078b5750506001600160401b036040519261060384610f0c565b33845216602083015260016040830152604435606083015260808201528160a0820152602060405161063481610ed5565b7f000000000000000000000000000000000000000000000000000000000000000081528181019283526040518093819263f17325e760e01b8352846004840152516024830152516040604483015260018060a01b0381511660648301526001600160401b03848201511660848301526040810151151560a4830152606081015160c483015260a06106d5608083015160c060e4860152610124850190610e82565b9101516101048301520381857f00000000000000000000000000000000000000000000000000000000000000006001600160a01b03165af190811561078057829161074d575b50602091817f8f7f2dbafd79125e808bf16a53d7fa4e17b8b6374ced76d946a45f94b7bf4d06339280a3604051908152f35b90506020813d602011610778575b8161076860209383610f27565b8101031261032b5751602061071b565b3d915061075b565b6040513d84823e3d90fd5b519051604051634a73404560e11b81526001600160a01b0390921660048301523360248301523060448301526064820152608490fd5b6107cf919250845190611b65565b115f806105e6565b9091506020813d602011610807575b816107f360209383610f27565b810103126108035751905f6105dc565b5f80fd5b3d91506107e6565b6040513d8a823e3d90fd5b6024906105a5565b9091506020813d60201161085a575b8161083e60209383610f27565b810103126108565761084f90611120565b905f61059b565b8780fd5b3d9150610831565b90506020813d60201161088c575b8161087d60209383610f27565b8101031261080357515f610557565b3d9150610870565b6040513d88823e3d90fd5b503461021a57604036600319011261021a57600435906001600160401b03821161021a576080600319833603011261021a5760206104bd6108f7846109056108e5611037565b91604051938491600401878301611795565b03601f198101845283610f27565b3391611d7d565b602061021061091a36610fe7565b92610926929192611aaf565b611373565b503461021a5761032761094661094036610e6c565b90611417565b604051918291602083526020830190610e82565b503461021a57602036600319011261021a57600435906001600160401b03821161021a5761099361098e3660048501610f99565b61134a565b604080516001600160a01b03909316835260208301819052829161032791830190610e82565b503461080357602036600319011261080357600435906109d7611163565b506040516328c44a9960e21b8152600481018390527f00000000000000000000000000000000000000000000000000000000000000006001600160a01b031691905f81602481865afa5f9181610b7a575b50610a4057836301fb6dd160e01b5f5260045260245ffd5b8390926020840151907f0000000000000000000000000000000000000000000000000000000000000000809203610b6b57606085016001600160401b0381511615610b5c57516001600160401b03164210610b5c57604051610aa181610ed5565b8381525f602082015260405192610ab784610ed5565b83526020830152803b1561080357604051634692626760e01b815282516004820152602092830151805160248301529092015160448301525f908290606490829084905af19081610b47575b50610b1b5763614cf93960e01b825260045260249150fd5b61012083015160c0840151610b3b916001600160a01b0390911690611b86565b50602060405160018152f35b610b549193505f90610f27565b5f9184610b03565b637bf6a16f60e01b5f5260045ffd5b63629cd40b60e11b5f5260045ffd5b610b8f9192503d805f833e61041f8183610f27565b905f610a28565b34610803575f36600319011261080357606080604051610bb581610ea6565b5f81525f60208201525f604082015201526040516351753e3760e11b81527f000000000000000000000000000000000000000000000000000000000000000060048201525f8160248160018060a01b037f0000000000000000000000000000000000000000000000000000000000000000165afa8015610d2c575f90610c7c575b606090610327604051928392602084528051602085015260018060a01b0360208201511660408501526040810151151582850152015160808084015260a0830190610e82565b503d805f833e610c8c8183610f27565b810190602081830312610803578051906001600160401b03821161080357016080818303126108035760405190610cc282610ea6565b8051825260208101516001600160a01b0381168103610803576020830152610cec60408201611120565b60408301526060810151906001600160401b038211610803570182601f8201121561080357606092816020610d239351910161112d565b82820152610c36565b6040513d5f823e3d90fd5b34610803575f3660031901126108035760206040517f00000000000000000000000000000000000000000000000000000000000000008152f35b34610803575f3660031901126108035761032760206109466001610db47f0000000000000000000000000000000000000000000000000000000000000000611942565b8184610ddf7f0000000000000000000000000000000000000000000000000000000000000000611942565b8180610e0a7f0000000000000000000000000000000000000000000000000000000000000000611942565b9260405199878b985191829101848a015e870190601760f91b83830152805192839101602183015e010190601760f91b84830152805192839101600283015e01015f838201520301601f198101835282610f27565b3461080357610b3b610940365b6040906003190112610803576004359060243590565b805180835260209291819084018484015e5f828201840152601f01601f1916010190565b608081019081106001600160401b03821117610ec157604052565b634e487b7160e01b5f52604160045260245ffd5b604081019081106001600160401b03821117610ec157604052565b61014081019081106001600160401b03821117610ec157604052565b60c081019081106001600160401b03821117610ec157604052565b90601f801991011681019081106001600160401b03821117610ec157604052565b6001600160401b038111610ec157601f01601f191660200190565b929192610f6f82610f48565b91610f7d6040519384610f27565b829481845281830111610803578281602093845f960137010152565b9080601f8301121561080357816020610fb493359101610f63565b90565b9181601f84011215610803578235916001600160401b038311610803576020808501948460051b01011161080357565b6040600319820112610803576004356001600160401b038111610803578161101191600401610fb7565b92909291602435906001600160401b0382116108035761103391600401610fb7565b9091565b602435906001600160401b038216820361080357565b35906001600160401b038216820361080357565b9181601f84011215610803578235916001600160401b038311610803576020838186019501011161080357565b35906001600160a01b038216820361080357565b6020815260018060a01b038251166020820152608060606110d1602085015183604086015260a0850190610e82565b60408501516001600160a01b03168483015293015191015290565b602060031982011261080357600435906001600160401b038211610803576101409082900360031901126108035760040190565b5190811515820361080357565b92919261113982610f48565b916111476040519384610f27565b829481845281830111610803578281602093845f96015e010152565b6040519061117082610ef0565b6060610120835f81525f60208201525f60408201525f838201525f60808201525f60a08201525f60c08201525f60e08201525f6101008201520152565b51906001600160401b038216820361080357565b51906001600160a01b038216820361080357565b9080601f83011215610803578151610fb49260200161112d565b602081830312610803578051906001600160401b038211610803570161014081830312610803576040519161122383610ef0565b815183526020820151602084015261123d604083016111ad565b604084015261124e606083016111ad565b606084015261125f608083016111ad565b608084015260a082015160a084015261127a60c083016111c1565b60c084015261128b60e083016111c1565b60e084015261129d6101008301611120565b6101008401526101208201516001600160401b038111610803576112c192016111d5565b61012082015290565b602081830312610803578051906001600160401b03821161080357019060808282031261080357604051916112fe83610ea6565b611307816111c1565b835260208101516001600160401b0381116108035760609261132a9183016111d5565b602084015261133b604082016111c1565b60408401520151606082015290565b61135d90602080825183010191016112ca565b80516020909101516001600160a01b0390911691565b929092818403611408575f91345b858410156113fd57818410156113e9578360051b80860135908282116113da5784013561013e1985360301811215610803576113be908501611af0565b156113cf5760019103930192611381565b505050505050505f90565b63044044a560e21b5f5260045ffd5b634e487b7160e01b5f52603260045260245ffd5b505050505050600190565b63251f56a160e21b5f5260045ffd5b915f611421611163565b5061142a611163565b506040516328c44a9960e21b8152600481018590527f00000000000000000000000000000000000000000000000000000000000000006001600160a01b0316905f81602481855afa5f9181611779575b5061149257856301fb6dd160e01b5f5260045260245ffd5b94919293946040516328c44a9960e21b81528660048201525f81602481865afa5f918161175d575b506114d257866301fb6dd160e01b5f5260045260245ffd5b959192939495926020820151907f0000000000000000000000000000000000000000000000000000000000000000809203610b6b5761151083611b09565b15610b6b57610120830192611525845161134a565b60a0880192835181510361171457516040805163e6c9714d60e01b81526060600482018190528b51606483015260208c01516084830152918b01516001600160401b0390811660a4830152918b0151821660c482015260808b015190911660e4820152935161010485015260c0890180516001600160a01b0390811661012487015260e08b0151166101448601526101008a015115156101648601526101209099015161014061018486015284928392916115e5906101a4850190610e82565b8381036003190160248501526115fa91610e82565b60448301919091526001600160a01b039093169203815a93602094fa908115610d2c575f91611723575b50156117145760405161163681610ed5565b8681525f60208201526040519261164c84610ed5565b83526020830152803b1561080357604051634692626760e01b815282516004820152602092830151805160248301529092015160448301525f908290606490829084905af190816116ff575b506116b15763614cf93960e01b85526004849052602485fd5b51825192949391927ff96e77bc177ae8e2ff25185e7c6d85f8ba97c8bdd9d46933aac70a7a33edf6c0916116ee916001600160a01b031690611b86565b94516001600160a01b03169380a490565b61170c9196505f90610f27565b5f945f611698565b630ebe58ef60e11b5f5260045ffd5b90506020813d602011611755575b8161173e60209383610f27565b810103126108035761174f90611120565b5f611624565b3d9150611731565b6117729192503d805f833e61041f8183610f27565b905f6114ba565b61178e9192503d805f833e61041f8183610f27565b905f61147a565b602081526001600160a01b036117aa8361108e565b1660208201526020820135601e19833603018112156108035782016020813591016001600160401b0382116108035781360381136108035760c09382606092608060408701528160a0870152868601375f8484018601526001600160a01b036118156040830161108e565b168483015201356080830152601f01601f1916010190565b6040519061183a82610ea6565b5f6060838281528160208201528260408201520152565b7f00000000000000000000000000000000000000000000000000000000000000006020820151036119335761188581611b09565b1561192d576118a56101206118b5920151602080825183010191016112ca565b91602080825183010191016112ca565b604082810151908201516001600160a01b039081169116149182611919575b82611900575b826118e457505090565b6020919250810151818151910120910151602081519101201490565b805182516001600160a01b0390811691161492506118da565b9150606082015160608201511115916118d4565b50505f90565b635f9bd90760e11b5f5260045ffd5b805f9172184f03e93ff9f4daa797ed6e38ed64bf6a1f0160401b821015611a8c575b806d04ee2d6d415b85acef8100000000600a921015611a71575b662386f26fc10000811015611a5d575b6305f5e100811015611a4c575b612710811015611a3d575b6064811015611a2f575b1015611a24575b600a602160018401936119c985610f48565b946119d76040519687610f27565b8086526119e6601f1991610f48565b013660208701378401015b5f1901916f181899199a1a9b1b9c1cb0b131b232b360811b8282061a8353048015611a1f57600a90916119f1565b505090565b6001909101906119b7565b6064600291049301926119b0565b612710600491049301926119a6565b6305f5e1006008910493019261199b565b662386f26fc100006010910493019261198e565b6d04ee2d6d415b85acef81000000006020910493019261197e565b506040915072184f03e93ff9f4daa797ed6e38ed64bf6a1f0160401b8104611964565b7f00000000000000000000000000000000000000000000000000000000000000006001600160a01b03163303611ae157565b634ca8886760e01b5f5260045ffd5b60e0013560018060a01b03811680910361080357301490565b6001600160401b036060820151168015159081611b5a575b50611b4b57608001516001600160401b0316611b3c57600190565b637b6227e960e11b5f5260045ffd5b631ab7da6b60e01b5f5260045ffd5b90504210155f611b21565b91908201809211611b7257565b634e487b7160e01b5f52601160045260245ffd5b611b9990602080825183010191016112ca565b6040818101805191516370a0823160e01b81526001600160a01b0385811660048301819052929391929160209184916024918391165afa918215610d2c575f92611d49575b505f6020606060018060a01b0386511696019560448751604051948593849263a9059cbb60e01b845288600485015260248401525af15f9181611d0d575b50611d0857505f5b83516040516370a0823160e01b81526004810193909352602090839060249082906001600160a01b03165afa918215610d2c575f92611cd4575b5015918215611cbe575b5050611c8557505050604051611c7f602082610f27565b5f815290565b519051604051634a73404560e11b81526001600160a01b0392831660048201523060248201529290911660448301526064820152608490fd5b611ccc919250845190611b65565b115f80611c68565b9091506020813d602011611d00575b81611cf060209383610f27565b810103126108035751905f611c5e565b3d9150611ce3565b611c24565b9091506020813d602011611d41575b81611d2960209383610f27565b8101031261080357611d3a90611120565b905f611c1c565b3d9150611d1c565b9091506020813d602011611d75575b81611d6560209383610f27565b810103126108035751905f611bde565b3d9150611d58565b929192611d9360208251830101602083016112ca565b6040818101805191516370a0823160e01b81523060048201529091602090829060249082906001600160a01b03165afa908115610d2c575f91612086575b505f6020606060018060a01b038551169501946064865160405194859384926323b872dd60e01b845233600485015230602485015260448401525af15f918161204a575b50612042575060245f5b83516040516370a0823160e01b81523060048201529260209184919082906001600160a01b03165afa918215610d2c575f9261200e575b5015918215611ff8575b505061078b5750506001600160401b0360405194611e7d86610f0c565b60018060a01b031692838652166020850152600160408501525f606085015260808401525f60a08401526020604051611eb581610ed5565b7f000000000000000000000000000000000000000000000000000000000000000081528181019485526040518095819263f17325e760e01b8352846004840152516024830152516040604483015260018060a01b0381511660648301526001600160401b03848201511660848301526040810151151560a4830152606081015160c483015260a0611f56608083015160c060e4860152610124850190610e82565b91015161010483015203815f7f00000000000000000000000000000000000000000000000000000000000000006001600160a01b03165af1928315610d2c575f93611fc4575b50827f8f7f2dbafd79125e808bf16a53d7fa4e17b8b6374ced76d946a45f94b7bf4d065f80a3565b9092506020813d602011611ff0575b81611fe060209383610f27565b810103126108035751915f611f9c565b3d9150611fd3565b612006919250845190611b65565b115f80611e60565b9091506020813d60201161203a575b8161202a60209383610f27565b810103126108035751905f611e56565b3d915061201d565b602490611e1f565b9091506020813d60201161207e575b8161206660209383610f27565b810103126108035761207790611120565b905f611e15565b3d9150612059565b90506020813d6020116120b0575b816120a160209383610f27565b8101031261080357515f611dd1565b3d915061209456fea2646970667358221220407bf61d6bed625312dbdfa9c7446b8727d4892ecb05e6fa553df53e31b0392064736f6c634300081b0033",
    "linkReferences": {}
  },
  "methodIdentifiers": {
    "ATTESTATION_SCHEMA()": "5bf2f20d",
    "attest((bytes32,bytes32,uint64,uint64,uint64,bytes32,address,address,bool,bytes))": "e60c3505",
    "checkObligation((bytes32,bytes32,uint64,uint64,uint64,bytes32,address,address,bool,bytes),bytes,bytes32)": "e6c9714d",
    "collectEscrow(bytes32,bytes32)": "2c713cd9",
    "collectEscrowRaw(bytes32,bytes32)": "891d9ea8",
    "decodeObligationData(bytes)": "c93844be",
    "doObligation((address,bytes,address,uint256),uint64)": "a4f0d517",
    "doObligationFor((address,bytes,address,uint256),uint64,address)": "c1e4a710",
    "doObligationRaw(bytes,uint64,bytes32)": "b3b902d4",
    "extractArbiterAndDemand(bytes)": "8371ef59",
    "getObligationData(bytes32)": "c6ec5070",
    "getSchema()": "6b122fe0",
    "isPayable()": "ce46e046",
    "multiAttest((bytes32,bytes32,uint64,uint64,uint64,bytes32,address,address,bool,bytes)[],uint256[])": "91db0b7e",
    "multiRevoke((bytes32,bytes32,uint64,uint64,uint64,bytes32,address,address,bool,bytes)[],uint256[])": "88e5b2d9",
    "reclaimExpired(bytes32)": "7d2c2931",
    "revoke((bytes32,bytes32,uint64,uint64,uint64,bytes32,address,address,bool,bytes))": "e49617e1",
    "version()": "54fd4d50"
  },
  "id": 115
}