{"abi":[{"type":"constructor","inputs":[{"name":"_eas","type":"address","internalType":"contract IEAS"},{"name":"_schemaRegistry","type":"address","internalType":"contract ISchemaRegistry"}],"stateMutability":"nonpayable"},{"type":"receive","stateMutability":"payable"},{"type":"function","name":"ATTESTATION_SCHEMA","inputs":[],"outputs":[{"name":"","type":"bytes32","internalType":"bytes32"}],"stateMutability":"view"},{"type":"function","name":"VALIDATION_SCHEMA","inputs":[],"outputs":[{"name":"","type":"bytes32","internalType":"bytes32"}],"stateMutability":"view"},{"type":"function","name":"attest","inputs":[{"name":"attestation","type":"tuple","internalType":"struct Attestation","components":[{"name":"uid","type":"bytes32","internalType":"bytes32"},{"name":"schema","type":"bytes32","internalType":"bytes32"},{"name":"time","type":"uint64","internalType":"uint64"},{"name":"expirationTime","type":"uint64","internalType":"uint64"},{"name":"revocationTime","type":"uint64","internalType":"uint64"},{"name":"refUID","type":"bytes32","internalType":"bytes32"},{"name":"recipient","type":"address","internalType":"address"},{"name":"attester","type":"address","internalType":"address"},{"name":"revocable","type":"bool","internalType":"bool"},{"name":"data","type":"bytes","internalType":"bytes"}]}],"outputs":[{"name":"","type":"bool","internalType":"bool"}],"stateMutability":"payable"},{"type":"function","name":"checkObligation","inputs":[{"name":"obligation","type":"tuple","internalType":"struct Attestation","components":[{"name":"uid","type":"bytes32","internalType":"bytes32"},{"name":"schema","type":"bytes32","internalType":"bytes32"},{"name":"time","type":"uint64","internalType":"uint64"},{"name":"expirationTime","type":"uint64","internalType":"uint64"},{"name":"revocationTime","type":"uint64","internalType":"uint64"},{"name":"refUID","type":"bytes32","internalType":"bytes32"},{"name":"recipient","type":"address","internalType":"address"},{"name":"attester","type":"address","internalType":"address"},{"name":"revocable","type":"bool","internalType":"bool"},{"name":"data","type":"bytes","internalType":"bytes"}]},{"name":"demand","type":"bytes","internalType":"bytes"},{"name":"","type":"bytes32","internalType":"bytes32"}],"outputs":[{"name":"","type":"bool","internalType":"bool"}],"stateMutability":"view"},{"type":"function","name":"collectEscrow","inputs":[{"name":"escrow","type":"bytes32","internalType":"bytes32"},{"name":"fulfillment","type":"bytes32","internalType":"bytes32"}],"outputs":[{"name":"","type":"bytes32","internalType":"bytes32"}],"stateMutability":"nonpayable"},{"type":"function","name":"collectEscrowRaw","inputs":[{"name":"_escrow","type":"bytes32","internalType":"bytes32"},{"name":"_fulfillment","type":"bytes32","internalType":"bytes32"}],"outputs":[{"name":"","type":"bytes","internalType":"bytes"}],"stateMutability":"nonpayable"},{"type":"function","name":"decodeObligationData","inputs":[{"name":"data","type":"bytes","internalType":"bytes"}],"outputs":[{"name":"","type":"tuple","internalType":"struct AttestationEscrowObligation2.ObligationData","components":[{"name":"arbiter","type":"address","internalType":"address"},{"name":"demand","type":"bytes","internalType":"bytes"},{"name":"attestationUid","type":"bytes32","internalType":"bytes32"}]}],"stateMutability":"pure"},{"type":"function","name":"doObligation","inputs":[{"name":"data","type":"tuple","internalType":"struct AttestationEscrowObligation2.ObligationData","components":[{"name":"arbiter","type":"address","internalType":"address"},{"name":"demand","type":"bytes","internalType":"bytes"},{"name":"attestationUid","type":"bytes32","internalType":"bytes32"}]},{"name":"expirationTime","type":"uint64","internalType":"uint64"}],"outputs":[{"name":"","type":"bytes32","internalType":"bytes32"}],"stateMutability":"nonpayable"},{"type":"function","name":"doObligationFor","inputs":[{"name":"data","type":"tuple","internalType":"struct AttestationEscrowObligation2.ObligationData","components":[{"name":"arbiter","type":"address","internalType":"address"},{"name":"demand","type":"bytes","internalType":"bytes"},{"name":"attestationUid","type":"bytes32","internalType":"bytes32"}]},{"name":"expirationTime","type":"uint64","internalType":"uint64"},{"name":"recipient","type":"address","internalType":"address"}],"outputs":[{"name":"","type":"bytes32","internalType":"bytes32"}],"stateMutability":"nonpayable"},{"type":"function","name":"doObligationForRaw","inputs":[{"name":"data","type":"bytes","internalType":"bytes"},{"name":"expirationTime","type":"uint64","internalType":"uint64"},{"name":"payer","type":"address","internalType":"address"},{"name":"recipient","type":"address","internalType":"address"},{"name":"refUID","type":"bytes32","internalType":"bytes32"}],"outputs":[{"name":"uid_","type":"bytes32","internalType":"bytes32"}],"stateMutability":"nonpayable"},{"type":"function","name":"doObligationRaw","inputs":[{"name":"data","type":"bytes","internalType":"bytes"},{"name":"expirationTime","type":"uint64","internalType":"uint64"},{"name":"refUID","type":"bytes32","internalType":"bytes32"}],"outputs":[{"name":"uid_","type":"bytes32","internalType":"bytes32"}],"stateMutability":"nonpayable"},{"type":"function","name":"extractArbiterAndDemand","inputs":[{"name":"data","type":"bytes","internalType":"bytes"}],"outputs":[{"name":"arbiter","type":"address","internalType":"address"},{"name":"demand","type":"bytes","internalType":"bytes"}],"stateMutability":"pure"},{"type":"function","name":"getObligationData","inputs":[{"name":"uid","type":"bytes32","internalType":"bytes32"}],"outputs":[{"name":"","type":"tuple","internalType":"struct AttestationEscrowObligation2.ObligationData","components":[{"name":"arbiter","type":"address","internalType":"address"},{"name":"demand","type":"bytes","internalType":"bytes"},{"name":"attestationUid","type":"bytes32","internalType":"bytes32"}]}],"stateMutability":"view"},{"type":"function","name":"getSchema","inputs":[],"outputs":[{"name":"","type":"tuple","internalType":"struct SchemaRecord","components":[{"name":"uid","type":"bytes32","internalType":"bytes32"},{"name":"resolver","type":"address","internalType":"contract ISchemaResolver"},{"name":"revocable","type":"bool","internalType":"bool"},{"name":"schema","type":"string","internalType":"string"}]}],"stateMutability":"view"},{"type":"function","name":"isPayable","inputs":[],"outputs":[{"name":"","type":"bool","internalType":"bool"}],"stateMutability":"pure"},{"type":"function","name":"multiAttest","inputs":[{"name":"attestations","type":"tuple[]","internalType":"struct Attestation[]","components":[{"name":"uid","type":"bytes32","internalType":"bytes32"},{"name":"schema","type":"bytes32","internalType":"bytes32"},{"name":"time","type":"uint64","internalType":"uint64"},{"name":"expirationTime","type":"uint64","internalType":"uint64"},{"name":"revocationTime","type":"uint64","internalType":"uint64"},{"name":"refUID","type":"bytes32","internalType":"bytes32"},{"name":"recipient","type":"address","internalType":"address"},{"name":"attester","type":"address","internalType":"address"},{"name":"revocable","type":"bool","internalType":"bool"},{"name":"data","type":"bytes","internalType":"bytes"}]},{"name":"values","type":"uint256[]","internalType":"uint256[]"}],"outputs":[{"name":"","type":"bool","internalType":"bool"}],"stateMutability":"payable"},{"type":"function","name":"multiRevoke","inputs":[{"name":"attestations","type":"tuple[]","internalType":"struct Attestation[]","components":[{"name":"uid","type":"bytes32","internalType":"bytes32"},{"name":"schema","type":"bytes32","internalType":"bytes32"},{"name":"time","type":"uint64","internalType":"uint64"},{"name":"expirationTime","type":"uint64","internalType":"uint64"},{"name":"revocationTime","type":"uint64","internalType":"uint64"},{"name":"refUID","type":"bytes32","internalType":"bytes32"},{"name":"recipient","type":"address","internalType":"address"},{"name":"attester","type":"address","internalType":"address"},{"name":"revocable","type":"bool","internalType":"bool"},{"name":"data","type":"bytes","internalType":"bytes"}]},{"name":"values","type":"uint256[]","internalType":"uint256[]"}],"outputs":[{"name":"","type":"bool","internalType":"bool"}],"stateMutability":"payable"},{"type":"function","name":"reclaimExpired","inputs":[{"name":"uid","type":"bytes32","internalType":"bytes32"}],"outputs":[{"name":"","type":"bool","internalType":"bool"}],"stateMutability":"nonpayable"},{"type":"function","name":"revoke","inputs":[{"name":"attestation","type":"tuple","internalType":"struct Attestation","components":[{"name":"uid","type":"bytes32","internalType":"bytes32"},{"name":"schema","type":"bytes32","internalType":"bytes32"},{"name":"time","type":"uint64","internalType":"uint64"},{"name":"expirationTime","type":"uint64","internalType":"uint64"},{"name":"revocationTime","type":"uint64","internalType":"uint64"},{"name":"refUID","type":"bytes32","internalType":"bytes32"},{"name":"recipient","type":"address","internalType":"address"},{"name":"attester","type":"address","internalType":"address"},{"name":"revocable","type":"bool","internalType":"bool"},{"name":"data","type":"bytes","internalType":"bytes"}]}],"outputs":[{"name":"","type":"bool","internalType":"bool"}],"stateMutability":"payable"},{"type":"function","name":"version","inputs":[],"outputs":[{"name":"","type":"string","internalType":"string"}],"stateMutability":"view"},{"type":"event","name":"EscrowCollected","inputs":[{"name":"escrow","type":"bytes32","indexed":true,"internalType":"bytes32"},{"name":"fulfillment","type":"bytes32","indexed":true,"internalType":"bytes32"},{"name":"fulfiller","type":"address","indexed":true,"internalType":"address"}],"anonymous":false},{"type":"event","name":"EscrowMade","inputs":[{"name":"escrow","type":"bytes32","indexed":true,"internalType":"bytes32"},{"name":"buyer","type":"address","indexed":true,"internalType":"address"}],"anonymous":false},{"type":"error","name":"AccessDenied","inputs":[]},{"type":"error","name":"AttestationNotFound","inputs":[{"name":"attestationId","type":"bytes32","internalType":"bytes32"}]},{"type":"error","name":"AttestationRevoked","inputs":[]},{"type":"error","name":"DeadlineExpired","inputs":[]},{"type":"error","name":"InsufficientValue","inputs":[]},{"type":"error","name":"InvalidEAS","inputs":[]},{"type":"error","name":"InvalidEscrowAttestation","inputs":[]},{"type":"error","name":"InvalidFulfillment","inputs":[]},{"type":"error","name":"InvalidLength","inputs":[]},{"type":"error","name":"InvalidSchema","inputs":[]},{"type":"error","name":"NotFromThisAttester","inputs":[]},{"type":"error","name":"NotPayable","inputs":[]},{"type":"error","name":"RevocationFailed","inputs":[{"name":"attestationId","type":"bytes32","internalType":"bytes32"}]},{"type":"error","name":"UnauthorizedCall","inputs":[]}],"bytecode":{"object":"0x610180806040523461027757604081611e10803803809161002082856102e3565b833981010312610277578051906001600160a01b0382169081830361027757602001516001600160a01b03811692908381036102775760405190606082016001600160401b038111838210176102cf576040526035825260208201937f6164647265737320617262697465722c2062797465732064656d616e642c206285527f797465733332206174746573746174696f6e556964000000000000000000000060408401526001608052600460a0525f60c052156102c0578260209360e0526101205261010052608460405180948193630c1af44f60e31b8352606060048401525180918160648501528484015e5f83828401015230602483015260016044830152601f801991011681010301815f865af1908115610283575f9161028e575b505f916020916101405260a460405180948193630c1af44f60e31b835260606004840152601f60648401527f627974657333322076616c6964617465644174746573746174696f6e556964006084840152306024840152600160448401525af1908115610283575f9161024d575b5061016052604051611b0990816103078239608051816109d7015260a05181610a02015260c05181610a2d015260e051816119b30152610100518161085901526101205181818161040401528181610755015281816110d801526117b00152610140518181816104440152818161082701528181610995015281816112b701528181611633015261176c0152610160518181816102cc01526113af0152f35b90506020813d60201161027b575b81610268602093836102e3565b8101031261027757515f6101ae565b5f80fd5b3d915061025b565b6040513d5f823e3d90fd5b90506020813d6020116102b8575b816102a9602093836102e3565b8101031261027757515f610140565b3d915061029c565b6341bc07ff60e11b5f5260045ffd5b634e487b7160e01b5f52604160045260245ffd5b601f909101601f19168101906001600160401b038211908210176102cf5760405256fe60806040526004361015610027575b3615610018575f80fd5b631574f9f360e01b5f5260045ffd5b5f3560e01c80632c713cd914610aa657806354fd4d50146109b85780635bf2f20d1461097e5780636b122fe0146107e85780637d2c29311461071d5780638371ef59146106bf57806388e5b2d914610672578063891d9ea81461069157806391db0b7e14610672578063aadc8f63146105ef578063b3b902d4146105a4578063b5f3baff146104cb578063c6ec5070146103c5578063c93844be14610309578063ce46e046146102ef578063df61dd2c146102b5578063e49617e11461029a578063e60c35051461029a578063e6c9714d146101785763f0ffa1850361000e57346101745760a0366003190112610174576004356001600160401b03811161017457610137903690600401610ce7565b61013f610cbd565b91610148610d14565b606435906001600160a01b03821682036101745760209461016c94608435946116fb565b604051908152f35b5f80fd5b34610174576060366003190112610174576004356001600160401b03811161017457610140600319823603011261017457604051906101b682610b5b565b80600401358252602481013560208301526101d360448201610cd3565b60408301526101e460648201610cd3565b60608301526101f560848201610cd3565b608083015260a481013560a083015261021060c48201610d2a565b60c083015261022160e48201610d2a565b60e0830152610104810135801515810361017457610100830152610124810135906001600160401b03821161017457600461025f9236920101610c1f565b6101208201526024356001600160401b0381116101745760209161028a610290923690600401610c1f565b90611631565b6040519015158152f35b60206102906102a836610d75565b6102b06119b1565b6119f2565b34610174575f3660031901126101745760206040517f00000000000000000000000000000000000000000000000000000000000000008152f35b34610174575f3660031901126101745760206040515f8152f35b34610174576020366003190112610174576004356001600160401b03811161017457610339903690600401610ce7565b610341611612565b50810190602081830312610174578035906001600160401b038211610174570190606082820312610174576040519061037982610b40565b61038283610d2a565b82526020830135926001600160401b038411610174576103a96040926103c1958301610c1f565b60208401520135604082015260405191829182610d3e565b0390f35b34610174576020366003190112610174576103de611612565b506103e7610dec565b506040516328c44a9960e21b815260048035908201525f816024817f00000000000000000000000000000000000000000000000000000000000000006001600160a01b03165afa9081156104c0575f9161049e575b5060208101517f00000000000000000000000000000000000000000000000000000000000000000361048f576104836101206103c192015160208082518301019101610f53565b60405191829182610d3e565b635527981560e11b5f5260045ffd5b6104ba91503d805f833e6104b28183610bad565b810190610e78565b8161043c565b6040513d5f823e3d90fd5b34610174576060366003190112610174576004356001600160401b0381116101745760606003198236030112610174576020610525610508610cbd565b610533610513610d14565b94604051938491600401868301611551565b03601f198101845283610bad565b610553604051948593849363f0ffa18560e01b85523391600486016115cf565b03815f305af180156104c0575f90610571575b602090604051908152f35b506020813d60201161059c575b8161058b60209383610bad565b810103126101745760209051610566565b3d915061057e565b34610174576060366003190112610174576004356001600160401b0381116101745761016c6105d96020923690600401610ce7565b6105e1610cbd565b9160443592339233926116fb565b34610174576040366003190112610174576004356001600160401b038111610174576060600319823603011261017457602061055391610645610653610633610cbd565b92604051928391600401868301611551565b03601f198101835282610bad565b60405163f0ffa18560e01b8152938492839233918291600486016115cf565b602061029061068036610c6d565b9261068c9291926119b1565b611032565b34610174576103c16106ab6106a536610ad7565b906110ae565b604051918291602083526020830190610aed565b34610174576020366003190112610174576004356001600160401b038111610174576106f26106f7913690600401610c1f565b610fc2565b604080516001600160a01b0390931683526020830181905282916103c191830190610aed565b3461017457602036600319011261017457600435610739610dec565b506040516328c44a9960e21b8152600481018290525f816024817f00000000000000000000000000000000000000000000000000000000000000006001600160a01b03165afa5f91816107cc575b5061079f57506301fb6dd160e01b5f5260045260245ffd5b606001516001600160401b031642106107bd57602060405160018152f35b637bf6a16f60e01b5f5260045ffd5b6107e19192503d805f833e6104b28183610bad565b9083610787565b34610174575f3660031901126101745760608060405161080781610b11565b5f81525f60208201525f604082015201526040516351753e3760e11b81527f000000000000000000000000000000000000000000000000000000000000000060048201525f8160248160018060a01b037f0000000000000000000000000000000000000000000000000000000000000000165afa80156104c0575f906108ce575b6060906103c1604051928392602084528051602085015260018060a01b0360208201511660408501526040810151151582850152015160808084015260a0830190610aed565b503d805f833e6108de8183610bad565b810190602081830312610174578051906001600160401b0382116101745701608081830312610174576040519061091482610b11565b8051825260208101516001600160a01b038116810361017457602083015261093e60408201610da9565b60408301526060810151906001600160401b038211610174570182601f820112156101745760609281602061097593519101610db6565b82820152610888565b34610174575f3660031901126101745760206040517f00000000000000000000000000000000000000000000000000000000000000008152f35b34610174575f366003190112610174576103c160206106ab60016109fb7f0000000000000000000000000000000000000000000000000000000000000000611844565b8184610a267f0000000000000000000000000000000000000000000000000000000000000000611844565b8180610a517f0000000000000000000000000000000000000000000000000000000000000000611844565b9260405199878b985191829101848a015e870190601760f91b83830152805192839101602183015e010190601760f91b84830152805192839101600283015e01015f838201520301601f198101835282610bad565b3461017457610ab76106a536610ad7565b602081519181808201938492010103126101745760209051604051908152f35b6040906003190112610174576004359060243590565b805180835260209291819084018484015e5f828201840152601f01601f1916010190565b608081019081106001600160401b03821117610b2c57604052565b634e487b7160e01b5f52604160045260245ffd5b606081019081106001600160401b03821117610b2c57604052565b61014081019081106001600160401b03821117610b2c57604052565b604081019081106001600160401b03821117610b2c57604052565b60c081019081106001600160401b03821117610b2c57604052565b90601f801991011681019081106001600160401b03821117610b2c57604052565b6001600160401b038111610b2c57601f01601f191660200190565b929192610bf582610bce565b91610c036040519384610bad565b829481845281830111610174578281602093845f960137010152565b9080601f8301121561017457816020610c3a93359101610be9565b90565b9181601f84011215610174578235916001600160401b038311610174576020808501948460051b01011161017457565b6040600319820112610174576004356001600160401b0381116101745781610c9791600401610c3d565b92909291602435906001600160401b03821161017457610cb991600401610c3d565b9091565b602435906001600160401b038216820361017457565b35906001600160401b038216820361017457565b9181601f84011215610174578235916001600160401b038311610174576020838186019501011161017457565b604435906001600160a01b038216820361017457565b35906001600160a01b038216820361017457565b6020815260018060a01b03825116602082015260606040610d6c602085015183838601526080850190610aed565b93015191015290565b602060031982011261017457600435906001600160401b038211610174576101409082900360031901126101745760040190565b5190811515820361017457565b929192610dc282610bce565b91610dd06040519384610bad565b829481845281830111610174578281602093845f96015e010152565b60405190610df982610b5b565b6060610120835f81525f60208201525f60408201525f838201525f60808201525f60a08201525f60c08201525f60e08201525f6101008201520152565b51906001600160401b038216820361017457565b51906001600160a01b038216820361017457565b9080601f83011215610174578151610c3a92602001610db6565b602081830312610174578051906001600160401b0382116101745701610140818303126101745760405191610eac83610b5b565b8151835260208201516020840152610ec660408301610e36565b6040840152610ed760608301610e36565b6060840152610ee860808301610e36565b608084015260a082015160a0840152610f0360c08301610e4a565b60c0840152610f1460e08301610e4a565b60e0840152610f266101008301610da9565b6101008401526101208201516001600160401b03811161017457610f4a9201610e5e565b61012082015290565b602081830312610174578051906001600160401b0382116101745701906060828203126101745760405191610f8783610b40565b610f9081610e4a565b835260208101516001600160401b03811161017457604092610fb3918301610e5e565b60208401520151604082015290565b610fd59060208082518301019101610f53565b80516020909101516001600160a01b0390911691565b9190811015610ffb5760051b0190565b634e487b7160e01b5f52603260045260245ffd5b9190811015610ffb5760051b8101359061013e1981360301821215610174570190565b9290919281830361109f575f91345b84841061105357505050505050600190565b61105e848388610feb565b35818111611090576110746102b086888761100f565b156110855760019103930192611041565b505050505050505f90565b63044044a560e21b5f5260045ffd5b63251f56a160e21b5f5260045ffd5b915f6110b8610dec565b506110c1610dec565b506040516328c44a9960e21b8152600481018590527f00000000000000000000000000000000000000000000000000000000000000006001600160a01b0316905f81602481855afa5f9181611535575b5061112957856301fb6dd160e01b5f5260045260245ffd5b9491929394906040516328c44a9960e21b81528660048201525f81602481855afa5f9181611519575b5061116a57866301fb6dd160e01b5f5260045260245ffd5b95929394959161117981611a0b565b1561150a5761125860206101208084019360c08761126a61119a8851610fc2565b91909451916040519889978896879663e6c9714d60e01b885260606004890152805160648901528b81015160848901526001600160401b0360408201511660a48901526001600160401b0360608201511660c48901526001600160401b0360808201511660e489015260a0810151610104890152019d8e60018060a01b0390511661012488015260018060a01b0360e082015116610144880152610100810151151561016488015201516101406101848701526101a4860190610aed565b84810360031901602486015290610aed565b604483019190915203916001600160a01b03165afa9081156104c0575f916114d0575b50156114c15760405161129f81610b77565b8581525f6020820152604051906112b582610b77565b7f0000000000000000000000000000000000000000000000000000000000000000825260208201908152833b1561017457604051634692626760e01b81529151600483015251805160248301526020015160448201525f8160648183875af190816114ac575b506113345763614cf93960e01b86526004859052602486fd5b6113f08695939260209251604061135d60018060a01b0387511692868082518301019101610f53565b0151604051908086830152858252611376604083610bad565b6040519261138384610b92565b83528986840152896040840152606083015260808201528760a0820152604051906113ad82610b77565b7f000000000000000000000000000000000000000000000000000000000000000082528482015260405198898094819363f17325e760e01b835260048301611a66565b03925af19485156114a157849561144d575b507ff96e77bc177ae8e2ff25185e7c6d85f8ba97c8bdd9d46933aac70a7a33edf6c0906040519560208701526020865261143d604087610bad565b516001600160a01b03169380a490565b9094506020813d602011611499575b8161146960209383610bad565b810103126101745751937ff96e77bc177ae8e2ff25185e7c6d85f8ba97c8bdd9d46933aac70a7a33edf6c0611402565b3d915061145c565b6040513d86823e3d90fd5b6114b99197505f90610bad565b5f955f61131b565b630ebe58ef60e11b5f5260045ffd5b90506020813d602011611502575b816114eb60209383610bad565b81010312610174576114fc90610da9565b5f61128d565b3d91506114de565b63629cd40b60e11b5f5260045ffd5b61152e9192503d805f833e6104b28183610bad565b905f611152565b61154a9192503d805f833e6104b28183610bad565b905f611111565b602081526001600160a01b0361156683610d2a565b1660208201526020820135601e19833603018112156101745782016020813591016001600160401b0382116101745781360381136101745760a09382604092606084870152816080870152868601375f84840186015201356060830152601f01601f1916010190565b90935f936001600160401b036115f1608095989760a0865260a0860190610aed565b971660208401526001600160a01b0390811660408401521660608201520152565b6040519061161f82610b40565b5f604083828152606060208201520152565b7f00000000000000000000000000000000000000000000000000000000000000006020820151036116ec5761166581611a0b565b156116e65761168561012061169592015160208082518301019101610f53565b9160208082518301019101610f53565b604082015160408201511491826116cd575b826116b157505090565b6020919250810151818151910120910151602081519101201490565b805182516001600160a01b0390811691161492506116a7565b50505f90565b635f9bd90760e11b5f5260045ffd5b6020935061171f906117ab979692959395611717368284610be9565b503691610be9565b906001600160401b036040519361173585610b92565b60018060a01b031695868552168484015260016040840152606083015260808201525f60a08201526040519061176a82610b77565b7f00000000000000000000000000000000000000000000000000000000000000008252828201526040518095819263f17325e760e01b835260048301611a66565b03815f7f00000000000000000000000000000000000000000000000000000000000000006001600160a01b03165af19283156104c0575f93611810575b50827f8f7f2dbafd79125e808bf16a53d7fa4e17b8b6374ced76d946a45f94b7bf4d065f80a3565b9092506020813d60201161183c575b8161182c60209383610bad565b810103126101745751915f6117e8565b3d915061181f565b805f9172184f03e93ff9f4daa797ed6e38ed64bf6a1f0160401b82101561198e575b806d04ee2d6d415b85acef8100000000600a921015611973575b662386f26fc1000081101561195f575b6305f5e10081101561194e575b61271081101561193f575b6064811015611931575b1015611926575b600a602160018401936118cb85610bce565b946118d96040519687610bad565b8086526118e8601f1991610bce565b013660208701378401015b5f1901916f181899199a1a9b1b9c1cb0b131b232b360811b8282061a835304801561192157600a90916118f3565b505090565b6001909101906118b9565b6064600291049301926118b2565b612710600491049301926118a8565b6305f5e1006008910493019261189d565b662386f26fc1000060109104930192611890565b6d04ee2d6d415b85acef810000000060209104930192611880565b506040915072184f03e93ff9f4daa797ed6e38ed64bf6a1f0160401b8104611866565b7f00000000000000000000000000000000000000000000000000000000000000006001600160a01b031633036119e357565b634ca8886760e01b5f5260045ffd5b60e0013560018060a01b03811680910361017457301490565b6001600160401b036060820151168015159081611a5c575b50611a4d57608001516001600160401b0316611a3e57600190565b637b6227e960e11b5f5260045ffd5b631ab7da6b60e01b5f5260045ffd5b905042115f611a23565b9060209081835280518284015201519060408082015260018060a01b0382511660608201526001600160401b0360208301511660808201526040820151151560a0820152606082015160c082015261010060a0610d6c608085015160c060e0860152610120850190610aed56fea264697066735822122085a8fdf3f32146ea4a41b266be0737a575434e093dba7d0039c8c24c7fcb268f64736f6c634300081c0033","linkReferences":{}},"methodIdentifiers":{"ATTESTATION_SCHEMA()":"5bf2f20d","VALIDATION_SCHEMA()":"df61dd2c","attest((bytes32,bytes32,uint64,uint64,uint64,bytes32,address,address,bool,bytes))":"e60c3505","checkObligation((bytes32,bytes32,uint64,uint64,uint64,bytes32,address,address,bool,bytes),bytes,bytes32)":"e6c9714d","collectEscrow(bytes32,bytes32)":"2c713cd9","collectEscrowRaw(bytes32,bytes32)":"891d9ea8","decodeObligationData(bytes)":"c93844be","doObligation((address,bytes,bytes32),uint64)":"aadc8f63","doObligationFor((address,bytes,bytes32),uint64,address)":"b5f3baff","doObligationForRaw(bytes,uint64,address,address,bytes32)":"f0ffa185","doObligationRaw(bytes,uint64,bytes32)":"b3b902d4","extractArbiterAndDemand(bytes)":"8371ef59","getObligationData(bytes32)":"c6ec5070","getSchema()":"6b122fe0","isPayable()":"ce46e046","multiAttest((bytes32,bytes32,uint64,uint64,uint64,bytes32,address,address,bool,bytes)[],uint256[])":"91db0b7e","multiRevoke((bytes32,bytes32,uint64,uint64,uint64,bytes32,address,address,bool,bytes)[],uint256[])":"88e5b2d9","reclaimExpired(bytes32)":"7d2c2931","revoke((bytes32,bytes32,uint64,uint64,uint64,bytes32,address,address,bool,bytes))":"e49617e1","version()":"54fd4d50"},"id":129}