{"abi":[{"type":"constructor","inputs":[{"name":"_eas","type":"address","internalType":"contract IEAS"},{"name":"_schemaRegistry","type":"address","internalType":"contract ISchemaRegistry"},{"name":"_escrowContract","type":"address","internalType":"contract AttestationEscrowObligation2"}],"stateMutability":"nonpayable"},{"type":"receive","stateMutability":"payable"},{"type":"function","name":"attest","inputs":[{"name":"schema","type":"bytes32","internalType":"bytes32"},{"name":"recipient","type":"address","internalType":"address"},{"name":"expirationTime","type":"uint64","internalType":"uint64"},{"name":"revocable","type":"bool","internalType":"bool"},{"name":"refUID","type":"bytes32","internalType":"bytes32"},{"name":"data","type":"bytes","internalType":"bytes"}],"outputs":[{"name":"","type":"bytes32","internalType":"bytes32"}],"stateMutability":"nonpayable"},{"type":"function","name":"attest","inputs":[{"name":"attestation","type":"tuple","internalType":"struct Attestation","components":[{"name":"uid","type":"bytes32","internalType":"bytes32"},{"name":"schema","type":"bytes32","internalType":"bytes32"},{"name":"time","type":"uint64","internalType":"uint64"},{"name":"expirationTime","type":"uint64","internalType":"uint64"},{"name":"revocationTime","type":"uint64","internalType":"uint64"},{"name":"refUID","type":"bytes32","internalType":"bytes32"},{"name":"recipient","type":"address","internalType":"address"},{"name":"attester","type":"address","internalType":"address"},{"name":"revocable","type":"bool","internalType":"bool"},{"name":"data","type":"bytes","internalType":"bytes"}]}],"outputs":[{"name":"","type":"bool","internalType":"bool"}],"stateMutability":"payable"},{"type":"function","name":"attestAndCreateEscrow","inputs":[{"name":"attestationRequest","type":"tuple","internalType":"struct AttestationRequest","components":[{"name":"schema","type":"bytes32","internalType":"bytes32"},{"name":"data","type":"tuple","internalType":"struct AttestationRequestData","components":[{"name":"recipient","type":"address","internalType":"address"},{"name":"expirationTime","type":"uint64","internalType":"uint64"},{"name":"revocable","type":"bool","internalType":"bool"},{"name":"refUID","type":"bytes32","internalType":"bytes32"},{"name":"data","type":"bytes","internalType":"bytes"},{"name":"value","type":"uint256","internalType":"uint256"}]}]},{"name":"arbiter","type":"address","internalType":"address"},{"name":"demand","type":"bytes","internalType":"bytes"},{"name":"expiration","type":"uint64","internalType":"uint64"}],"outputs":[{"name":"attestationUid","type":"bytes32","internalType":"bytes32"},{"name":"escrowUid","type":"bytes32","internalType":"bytes32"}],"stateMutability":"nonpayable"},{"type":"function","name":"eas","inputs":[],"outputs":[{"name":"","type":"address","internalType":"contract IEAS"}],"stateMutability":"view"},{"type":"function","name":"escrowContract","inputs":[],"outputs":[{"name":"","type":"address","internalType":"contract AttestationEscrowObligation2"}],"stateMutability":"view"},{"type":"function","name":"getSchema","inputs":[{"name":"schemaId","type":"bytes32","internalType":"bytes32"}],"outputs":[{"name":"","type":"tuple","internalType":"struct SchemaRecord","components":[{"name":"uid","type":"bytes32","internalType":"bytes32"},{"name":"resolver","type":"address","internalType":"contract ISchemaResolver"},{"name":"revocable","type":"bool","internalType":"bool"},{"name":"schema","type":"string","internalType":"string"}]}],"stateMutability":"view"},{"type":"function","name":"isPayable","inputs":[],"outputs":[{"name":"","type":"bool","internalType":"bool"}],"stateMutability":"pure"},{"type":"function","name":"multiAttest","inputs":[{"name":"attestations","type":"tuple[]","internalType":"struct Attestation[]","components":[{"name":"uid","type":"bytes32","internalType":"bytes32"},{"name":"schema","type":"bytes32","internalType":"bytes32"},{"name":"time","type":"uint64","internalType":"uint64"},{"name":"expirationTime","type":"uint64","internalType":"uint64"},{"name":"revocationTime","type":"uint64","internalType":"uint64"},{"name":"refUID","type":"bytes32","internalType":"bytes32"},{"name":"recipient","type":"address","internalType":"address"},{"name":"attester","type":"address","internalType":"address"},{"name":"revocable","type":"bool","internalType":"bool"},{"name":"data","type":"bytes","internalType":"bytes"}]},{"name":"values","type":"uint256[]","internalType":"uint256[]"}],"outputs":[{"name":"","type":"bool","internalType":"bool"}],"stateMutability":"payable"},{"type":"function","name":"multiRevoke","inputs":[{"name":"attestations","type":"tuple[]","internalType":"struct Attestation[]","components":[{"name":"uid","type":"bytes32","internalType":"bytes32"},{"name":"schema","type":"bytes32","internalType":"bytes32"},{"name":"time","type":"uint64","internalType":"uint64"},{"name":"expirationTime","type":"uint64","internalType":"uint64"},{"name":"revocationTime","type":"uint64","internalType":"uint64"},{"name":"refUID","type":"bytes32","internalType":"bytes32"},{"name":"recipient","type":"address","internalType":"address"},{"name":"attester","type":"address","internalType":"address"},{"name":"revocable","type":"bool","internalType":"bool"},{"name":"data","type":"bytes","internalType":"bytes"}]},{"name":"values","type":"uint256[]","internalType":"uint256[]"}],"outputs":[{"name":"","type":"bool","internalType":"bool"}],"stateMutability":"payable"},{"type":"function","name":"registerSchema","inputs":[{"name":"schema","type":"string","internalType":"string"},{"name":"resolver","type":"address","internalType":"contract SchemaResolver"},{"name":"revocable","type":"bool","internalType":"bool"}],"outputs":[{"name":"","type":"bytes32","internalType":"bytes32"}],"stateMutability":"nonpayable"},{"type":"function","name":"revoke","inputs":[{"name":"attestation","type":"tuple","internalType":"struct Attestation","components":[{"name":"uid","type":"bytes32","internalType":"bytes32"},{"name":"schema","type":"bytes32","internalType":"bytes32"},{"name":"time","type":"uint64","internalType":"uint64"},{"name":"expirationTime","type":"uint64","internalType":"uint64"},{"name":"revocationTime","type":"uint64","internalType":"uint64"},{"name":"refUID","type":"bytes32","internalType":"bytes32"},{"name":"recipient","type":"address","internalType":"address"},{"name":"attester","type":"address","internalType":"address"},{"name":"revocable","type":"bool","internalType":"bool"},{"name":"data","type":"bytes","internalType":"bytes"}]}],"outputs":[{"name":"","type":"bool","internalType":"bool"}],"stateMutability":"payable"},{"type":"function","name":"schemaRegistry","inputs":[],"outputs":[{"name":"","type":"address","internalType":"contract ISchemaRegistry"}],"stateMutability":"view"},{"type":"function","name":"schemaResolvers","inputs":[{"name":"","type":"bytes32","internalType":"bytes32"}],"outputs":[{"name":"","type":"address","internalType":"address"}],"stateMutability":"view"},{"type":"function","name":"version","inputs":[],"outputs":[{"name":"","type":"string","internalType":"string"}],"stateMutability":"view"},{"type":"event","name":"SchemaRegistered","inputs":[{"name":"schemaId","type":"bytes32","indexed":true,"internalType":"bytes32"},{"name":"schema","type":"string","indexed":false,"internalType":"string"},{"name":"resolver","type":"address","indexed":false,"internalType":"address"}],"anonymous":false},{"type":"error","name":"AccessDenied","inputs":[]},{"type":"error","name":"InsufficientValue","inputs":[]},{"type":"error","name":"InvalidEAS","inputs":[]},{"type":"error","name":"InvalidLength","inputs":[]},{"type":"error","name":"InvalidResolver","inputs":[]},{"type":"error","name":"InvalidSchema","inputs":[]},{"type":"error","name":"NotPayable","inputs":[]}],"bytecode":{"object":"0x6101603461012557601f6110f138819003918201601f19168301916001600160401b03831184841017610129578084926060946040528339810103126101255780516001600160a01b0381169190828103610125576020820151916001600160a01b03831683036101255760400151926001600160a01b0384168403610125576001608052600460a0525f60c05215610116578060e052610100526101205261014052604051610fb3908161013e823960805181610728015260a05181610753015260c0518161077e015260e05181610f3e015261010051818181610460015281816106da0152610b1a0152610120518181816101a20152818161089a015261098e015261014051818181610101015261052d0152f35b6341bc07ff60e11b5f5260045ffd5b5f80fd5b634e487b7160e01b5f52604160045260245ffdfe6080806040526004361015610029575b50361561001a575f80fd5b631574f9f360e01b5f5260045ffd5b5f3560e01c90816313bbebfc14610b8f575080632ac17f32146109bd5780634441bbd91461097957806353d55cc01461080b57806354fd4d50146107095780638150864d146106c557806388e5b2d91461066957806391db0b7e146105ef57806394ede4d014610300578063a2ea7c6e1461014e578063ce46e04614610134578063e42a96e7146100ec578063e49617e1146100cf5763e60c3505146100cf575f61000f565b6100d836610ca7565b506100e1610f3c565b602060405160018152f35b34610130575f366003190112610130576040517f00000000000000000000000000000000000000000000000000000000000000006001600160a01b03168152602090f35b5f80fd5b34610130575f3660031901126101305760206040515f8152f35b346101305760203660031901126101305760608060405161016e81610cdb565b5f81525f60208201525f604082015201526040516351753e3760e11b815260043560048201525f8160248160018060a01b037f0000000000000000000000000000000000000000000000000000000000000000165afa80156102f5575f9061021b575b606090610217604051928392602084528051602085015260018060a01b0360208201511660408501526040810151151582850152015160808084015260a0830190610c03565b0390f35b503d805f833e61022b8183610cf6565b810190602081830312610130578051906001600160401b0382116101305701608081830312610130576040519061026182610cdb565b8051825260208101516001600160a01b0381168103610130576020830152604081015180151581036101305760408301526060810151906001600160401b03821161013057019180601f840112156101305782516102be81610d17565b916102cc6040519384610cf6565b81835260208286010111610130576020815f9282606097018386015e83010152828201526101d1565b6040513d5f823e3d90fd5b34610130576080366003190112610130576004356001600160401b03811161013057803603604060031982011261013057610339610bc0565b6044356001600160401b03811161013057610358903690600401610bd6565b9390606435916001600160401b038316809303610130576040519463f17325e760e01b8652602060048701528160040135602487015260248201359060c2190181121561013057604060448701520160048101356001600160a01b0381169081900361013057606486015260248101356001600160401b03811680910361013057608486015260448101358015158091036101305760a4860152606481013560c48601526084810135602219368390030181121561013057816004910101602081359101906001600160401b0381116101305780360382136101305760209260a46104528994859460c060e4870152610124860191610d68565b91013561010483015203815f7f00000000000000000000000000000000000000000000000000000000000000006001600160a01b03165af19384156102f5575f946105bb575b506040519060608201908282106001600160401b038311176105a75761051c966020956104d39360405260018060a01b031684523691610d32565b918382019283526040820190858252604051968794859463aadc8f6360e01b86526040600487015260018060a01b039051166044860152516060606486015260a4850190610c03565b91516084840152602483015203815f7f00000000000000000000000000000000000000000000000000000000000000006001600160a01b03165af180156102f5575f90610574575b6040809350519182526020820152f35b506020823d60201161059f575b8161058e60209383610cf6565b810103126101305760409151610564565b3d9150610581565b634e487b7160e01b5f52604160045260245ffd5b9093506020813d6020116105e7575b816105d760209383610cf6565b8101031261013057519285610498565b3d91506105ca565b6105f836610c57565b610603929192610f3c565b80820361065a575f90345b83831061062057602060405160018152f35b61062b838387610d88565b3581811161064b5760019161064185878a610dac565b500392019161060e565b63044044a560e21b5f5260045ffd5b63251f56a160e21b5f5260045ffd5b61067236610c57565b61067d929192610f3c565b80820361065a575f90345b83831061069a57602060405160018152f35b6106a5838387610d88565b3581811161064b576001916106bb85878a610dac565b5003920191610688565b34610130575f366003190112610130576040517f00000000000000000000000000000000000000000000000000000000000000006001600160a01b03168152602090f35b34610130575f3660031901126101305761021760206107f7600161074c7f0000000000000000000000000000000000000000000000000000000000000000610dcf565b81846107777f0000000000000000000000000000000000000000000000000000000000000000610dcf565b81806107a27f0000000000000000000000000000000000000000000000000000000000000000610dcf565b9260405199878b985191829101848a015e870190601760f91b83830152805192839101602183015e010190601760f91b84830152805192839101600283015e01015f838201520301601f198101835282610cf6565b604051918291602083526020830190610c03565b34610130576060366003190112610130576004356001600160401b0381116101305761083b903690600401610bd6565b6024356001600160a01b03811691908290036101305760443591821515809303610130576020604051808095630c1af44f60e31b82526060600483015261088660648301878a610d68565b60248301869052604483019190915203815f7f00000000000000000000000000000000000000000000000000000000000000006001600160a01b03165af19283156102f5575f93610942575b5060209383927fe1de970d17b45f7e907a7d4a1b40501d574c2d5ac3426c2ac4acb06f43c1b35a92845f525f875260405f20816bffffffffffffffffffffffff60a01b825416179055610932604051938493604085526040850191610d68565b90878301520390a2604051908152f35b909192506020813d602011610971575b8161095f60209383610cf6565b810103126101305751919060206108d2565b3d9150610952565b34610130575f366003190112610130576040517f00000000000000000000000000000000000000000000000000000000000000006001600160a01b03168152602090f35b346101305760c0366003190112610130576109d6610bc0565b604435906001600160401b038216809203610130576064358015158091036101305760a4356001600160401b03811161013057610a17903690600401610bd6565b90916040519460c08601948686106001600160401b038711176105a757610a5e9560405260018060a01b031686526020860152604085015260843560608501523691610d32565b60808201525f60a082015260405160408101908082106001600160401b038311176105a75760209160405260043581528181019283526040518093819263f17325e760e01b8352846004840152516024830152516040604483015260018060a01b0381511660648301526001600160401b03848201511660848301526040810151151560a4830152606081015160c483015260a0610b0c608083015160c060e4860152610124850190610c03565b91015161010483015203815f7f00000000000000000000000000000000000000000000000000000000000000006001600160a01b03165af180156102f5575f90610b5c575b602090604051908152f35b506020813d602011610b87575b81610b7660209383610cf6565b810103126101305760209051610b51565b3d9150610b69565b34610130576020366003190112610130576004355f90815260208181526040909120546001600160a01b0316825290f35b602435906001600160a01b038216820361013057565b9181601f84011215610130578235916001600160401b038311610130576020838186019501011161013057565b805180835260209291819084018484015e5f828201840152601f01601f1916010190565b9181601f84011215610130578235916001600160401b038311610130576020808501948460051b01011161013057565b6040600319820112610130576004356001600160401b0381116101305781610c8191600401610c27565b92909291602435906001600160401b03821161013057610ca391600401610c27565b9091565b602060031982011261013057600435906001600160401b038211610130576101409082900360031901126101305760040190565b608081019081106001600160401b038211176105a757604052565b90601f801991011681019081106001600160401b038211176105a757604052565b6001600160401b0381116105a757601f01601f191660200190565b929192610d3e82610d17565b91610d4c6040519384610cf6565b829481845281830111610130578281602093845f960137010152565b908060209392818452848401375f828201840152601f01601f1916010190565b9190811015610d985760051b0190565b634e487b7160e01b5f52603260045260245ffd5b9190811015610d985760051b8101359061013e1981360301821215610130570190565b805f9172184f03e93ff9f4daa797ed6e38ed64bf6a1f0160401b821015610f19575b806d04ee2d6d415b85acef8100000000600a921015610efe575b662386f26fc10000811015610eea575b6305f5e100811015610ed9575b612710811015610eca575b6064811015610ebc575b1015610eb1575b600a60216001840193610e5685610d17565b94610e646040519687610cf6565b808652610e73601f1991610d17565b013660208701378401015b5f1901916f181899199a1a9b1b9c1cb0b131b232b360811b8282061a8353048015610eac57600a9091610e7e565b505090565b600190910190610e44565b606460029104930192610e3d565b61271060049104930192610e33565b6305f5e10060089104930192610e28565b662386f26fc1000060109104930192610e1b565b6d04ee2d6d415b85acef810000000060209104930192610e0b565b506040915072184f03e93ff9f4daa797ed6e38ed64bf6a1f0160401b8104610df1565b7f00000000000000000000000000000000000000000000000000000000000000006001600160a01b03163303610f6e57565b634ca8886760e01b5f5260045ffdfea2646970667358221220dbb1c7eb627694917a82d92635f74ae0e84f0999f97d3920a2e8d7a35dc184ae64736f6c634300081c0033","linkReferences":{}},"methodIdentifiers":{"attest((bytes32,bytes32,uint64,uint64,uint64,bytes32,address,address,bool,bytes))":"e60c3505","attest(bytes32,address,uint64,bool,bytes32,bytes)":"2ac17f32","attestAndCreateEscrow((bytes32,(address,uint64,bool,bytes32,bytes,uint256)),address,bytes,uint64)":"94ede4d0","eas()":"8150864d","escrowContract()":"e42a96e7","getSchema(bytes32)":"a2ea7c6e","isPayable()":"ce46e046","multiAttest((bytes32,bytes32,uint64,uint64,uint64,bytes32,address,address,bool,bytes)[],uint256[])":"91db0b7e","multiRevoke((bytes32,bytes32,uint64,uint64,uint64,bytes32,address,address,bool,bytes)[],uint256[])":"88e5b2d9","registerSchema(string,address,bool)":"53d55cc0","revoke((bytes32,bytes32,uint64,uint64,uint64,bytes32,address,address,bool,bytes))":"e49617e1","schemaRegistry()":"4441bbd9","schemaResolvers(bytes32)":"13bbebfc","version()":"54fd4d50"},"id":141}