{"abi":[{"type":"constructor","inputs":[{"name":"_eas","type":"address","internalType":"contract IEAS"},{"name":"_schemaRegistry","type":"address","internalType":"contract ISchemaRegistry"}],"stateMutability":"nonpayable"},{"type":"receive","stateMutability":"payable"},{"type":"function","name":"ATTESTATION_SCHEMA","inputs":[],"outputs":[{"name":"","type":"bytes32","internalType":"bytes32"}],"stateMutability":"view"},{"type":"function","name":"attest","inputs":[{"name":"attestation","type":"tuple","internalType":"struct Attestation","components":[{"name":"uid","type":"bytes32","internalType":"bytes32"},{"name":"schema","type":"bytes32","internalType":"bytes32"},{"name":"time","type":"uint64","internalType":"uint64"},{"name":"expirationTime","type":"uint64","internalType":"uint64"},{"name":"revocationTime","type":"uint64","internalType":"uint64"},{"name":"refUID","type":"bytes32","internalType":"bytes32"},{"name":"recipient","type":"address","internalType":"address"},{"name":"attester","type":"address","internalType":"address"},{"name":"revocable","type":"bool","internalType":"bool"},{"name":"data","type":"bytes","internalType":"bytes"}]}],"outputs":[{"name":"","type":"bool","internalType":"bool"}],"stateMutability":"payable"},{"type":"function","name":"checkObligation","inputs":[{"name":"obligation","type":"tuple","internalType":"struct Attestation","components":[{"name":"uid","type":"bytes32","internalType":"bytes32"},{"name":"schema","type":"bytes32","internalType":"bytes32"},{"name":"time","type":"uint64","internalType":"uint64"},{"name":"expirationTime","type":"uint64","internalType":"uint64"},{"name":"revocationTime","type":"uint64","internalType":"uint64"},{"name":"refUID","type":"bytes32","internalType":"bytes32"},{"name":"recipient","type":"address","internalType":"address"},{"name":"attester","type":"address","internalType":"address"},{"name":"revocable","type":"bool","internalType":"bool"},{"name":"data","type":"bytes","internalType":"bytes"}]},{"name":"demand","type":"bytes","internalType":"bytes"},{"name":"","type":"bytes32","internalType":"bytes32"}],"outputs":[{"name":"","type":"bool","internalType":"bool"}],"stateMutability":"view"},{"type":"function","name":"collectEscrow","inputs":[{"name":"escrow","type":"bytes32","internalType":"bytes32"},{"name":"fulfillment","type":"bytes32","internalType":"bytes32"}],"outputs":[{"name":"","type":"bytes32","internalType":"bytes32"}],"stateMutability":"nonpayable"},{"type":"function","name":"collectEscrowRaw","inputs":[{"name":"_escrow","type":"bytes32","internalType":"bytes32"},{"name":"_fulfillment","type":"bytes32","internalType":"bytes32"}],"outputs":[{"name":"","type":"bytes","internalType":"bytes"}],"stateMutability":"nonpayable"},{"type":"function","name":"decodeObligationData","inputs":[{"name":"data","type":"bytes","internalType":"bytes"}],"outputs":[{"name":"","type":"tuple","internalType":"struct AttestationEscrowObligation.ObligationData","components":[{"name":"arbiter","type":"address","internalType":"address"},{"name":"demand","type":"bytes","internalType":"bytes"},{"name":"attestation","type":"tuple","internalType":"struct AttestationRequest","components":[{"name":"schema","type":"bytes32","internalType":"bytes32"},{"name":"data","type":"tuple","internalType":"struct AttestationRequestData","components":[{"name":"recipient","type":"address","internalType":"address"},{"name":"expirationTime","type":"uint64","internalType":"uint64"},{"name":"revocable","type":"bool","internalType":"bool"},{"name":"refUID","type":"bytes32","internalType":"bytes32"},{"name":"data","type":"bytes","internalType":"bytes"},{"name":"value","type":"uint256","internalType":"uint256"}]}]}]}],"stateMutability":"pure"},{"type":"function","name":"doObligation","inputs":[{"name":"data","type":"tuple","internalType":"struct AttestationEscrowObligation.ObligationData","components":[{"name":"arbiter","type":"address","internalType":"address"},{"name":"demand","type":"bytes","internalType":"bytes"},{"name":"attestation","type":"tuple","internalType":"struct AttestationRequest","components":[{"name":"schema","type":"bytes32","internalType":"bytes32"},{"name":"data","type":"tuple","internalType":"struct AttestationRequestData","components":[{"name":"recipient","type":"address","internalType":"address"},{"name":"expirationTime","type":"uint64","internalType":"uint64"},{"name":"revocable","type":"bool","internalType":"bool"},{"name":"refUID","type":"bytes32","internalType":"bytes32"},{"name":"data","type":"bytes","internalType":"bytes"},{"name":"value","type":"uint256","internalType":"uint256"}]}]}]},{"name":"expirationTime","type":"uint64","internalType":"uint64"}],"outputs":[{"name":"","type":"bytes32","internalType":"bytes32"}],"stateMutability":"nonpayable"},{"type":"function","name":"doObligationFor","inputs":[{"name":"data","type":"tuple","internalType":"struct AttestationEscrowObligation.ObligationData","components":[{"name":"arbiter","type":"address","internalType":"address"},{"name":"demand","type":"bytes","internalType":"bytes"},{"name":"attestation","type":"tuple","internalType":"struct AttestationRequest","components":[{"name":"schema","type":"bytes32","internalType":"bytes32"},{"name":"data","type":"tuple","internalType":"struct AttestationRequestData","components":[{"name":"recipient","type":"address","internalType":"address"},{"name":"expirationTime","type":"uint64","internalType":"uint64"},{"name":"revocable","type":"bool","internalType":"bool"},{"name":"refUID","type":"bytes32","internalType":"bytes32"},{"name":"data","type":"bytes","internalType":"bytes"},{"name":"value","type":"uint256","internalType":"uint256"}]}]}]},{"name":"expirationTime","type":"uint64","internalType":"uint64"},{"name":"recipient","type":"address","internalType":"address"}],"outputs":[{"name":"","type":"bytes32","internalType":"bytes32"}],"stateMutability":"nonpayable"},{"type":"function","name":"doObligationForRaw","inputs":[{"name":"data","type":"bytes","internalType":"bytes"},{"name":"expirationTime","type":"uint64","internalType":"uint64"},{"name":"payer","type":"address","internalType":"address"},{"name":"recipient","type":"address","internalType":"address"},{"name":"refUID","type":"bytes32","internalType":"bytes32"}],"outputs":[{"name":"uid_","type":"bytes32","internalType":"bytes32"}],"stateMutability":"nonpayable"},{"type":"function","name":"doObligationRaw","inputs":[{"name":"data","type":"bytes","internalType":"bytes"},{"name":"expirationTime","type":"uint64","internalType":"uint64"},{"name":"refUID","type":"bytes32","internalType":"bytes32"}],"outputs":[{"name":"uid_","type":"bytes32","internalType":"bytes32"}],"stateMutability":"nonpayable"},{"type":"function","name":"extractArbiterAndDemand","inputs":[{"name":"data","type":"bytes","internalType":"bytes"}],"outputs":[{"name":"arbiter","type":"address","internalType":"address"},{"name":"demand","type":"bytes","internalType":"bytes"}],"stateMutability":"pure"},{"type":"function","name":"getObligationData","inputs":[{"name":"uid","type":"bytes32","internalType":"bytes32"}],"outputs":[{"name":"","type":"tuple","internalType":"struct AttestationEscrowObligation.ObligationData","components":[{"name":"arbiter","type":"address","internalType":"address"},{"name":"demand","type":"bytes","internalType":"bytes"},{"name":"attestation","type":"tuple","internalType":"struct AttestationRequest","components":[{"name":"schema","type":"bytes32","internalType":"bytes32"},{"name":"data","type":"tuple","internalType":"struct AttestationRequestData","components":[{"name":"recipient","type":"address","internalType":"address"},{"name":"expirationTime","type":"uint64","internalType":"uint64"},{"name":"revocable","type":"bool","internalType":"bool"},{"name":"refUID","type":"bytes32","internalType":"bytes32"},{"name":"data","type":"bytes","internalType":"bytes"},{"name":"value","type":"uint256","internalType":"uint256"}]}]}]}],"stateMutability":"view"},{"type":"function","name":"getSchema","inputs":[],"outputs":[{"name":"","type":"tuple","internalType":"struct SchemaRecord","components":[{"name":"uid","type":"bytes32","internalType":"bytes32"},{"name":"resolver","type":"address","internalType":"contract ISchemaResolver"},{"name":"revocable","type":"bool","internalType":"bool"},{"name":"schema","type":"string","internalType":"string"}]}],"stateMutability":"view"},{"type":"function","name":"isPayable","inputs":[],"outputs":[{"name":"","type":"bool","internalType":"bool"}],"stateMutability":"pure"},{"type":"function","name":"multiAttest","inputs":[{"name":"attestations","type":"tuple[]","internalType":"struct Attestation[]","components":[{"name":"uid","type":"bytes32","internalType":"bytes32"},{"name":"schema","type":"bytes32","internalType":"bytes32"},{"name":"time","type":"uint64","internalType":"uint64"},{"name":"expirationTime","type":"uint64","internalType":"uint64"},{"name":"revocationTime","type":"uint64","internalType":"uint64"},{"name":"refUID","type":"bytes32","internalType":"bytes32"},{"name":"recipient","type":"address","internalType":"address"},{"name":"attester","type":"address","internalType":"address"},{"name":"revocable","type":"bool","internalType":"bool"},{"name":"data","type":"bytes","internalType":"bytes"}]},{"name":"values","type":"uint256[]","internalType":"uint256[]"}],"outputs":[{"name":"","type":"bool","internalType":"bool"}],"stateMutability":"payable"},{"type":"function","name":"multiRevoke","inputs":[{"name":"attestations","type":"tuple[]","internalType":"struct Attestation[]","components":[{"name":"uid","type":"bytes32","internalType":"bytes32"},{"name":"schema","type":"bytes32","internalType":"bytes32"},{"name":"time","type":"uint64","internalType":"uint64"},{"name":"expirationTime","type":"uint64","internalType":"uint64"},{"name":"revocationTime","type":"uint64","internalType":"uint64"},{"name":"refUID","type":"bytes32","internalType":"bytes32"},{"name":"recipient","type":"address","internalType":"address"},{"name":"attester","type":"address","internalType":"address"},{"name":"revocable","type":"bool","internalType":"bool"},{"name":"data","type":"bytes","internalType":"bytes"}]},{"name":"values","type":"uint256[]","internalType":"uint256[]"}],"outputs":[{"name":"","type":"bool","internalType":"bool"}],"stateMutability":"payable"},{"type":"function","name":"reclaimExpired","inputs":[{"name":"uid","type":"bytes32","internalType":"bytes32"}],"outputs":[{"name":"","type":"bool","internalType":"bool"}],"stateMutability":"nonpayable"},{"type":"function","name":"revoke","inputs":[{"name":"attestation","type":"tuple","internalType":"struct Attestation","components":[{"name":"uid","type":"bytes32","internalType":"bytes32"},{"name":"schema","type":"bytes32","internalType":"bytes32"},{"name":"time","type":"uint64","internalType":"uint64"},{"name":"expirationTime","type":"uint64","internalType":"uint64"},{"name":"revocationTime","type":"uint64","internalType":"uint64"},{"name":"refUID","type":"bytes32","internalType":"bytes32"},{"name":"recipient","type":"address","internalType":"address"},{"name":"attester","type":"address","internalType":"address"},{"name":"revocable","type":"bool","internalType":"bool"},{"name":"data","type":"bytes","internalType":"bytes"}]}],"outputs":[{"name":"","type":"bool","internalType":"bool"}],"stateMutability":"payable"},{"type":"function","name":"version","inputs":[],"outputs":[{"name":"","type":"string","internalType":"string"}],"stateMutability":"view"},{"type":"event","name":"EscrowCollected","inputs":[{"name":"escrow","type":"bytes32","indexed":true,"internalType":"bytes32"},{"name":"fulfillment","type":"bytes32","indexed":true,"internalType":"bytes32"},{"name":"fulfiller","type":"address","indexed":true,"internalType":"address"}],"anonymous":false},{"type":"event","name":"EscrowMade","inputs":[{"name":"escrow","type":"bytes32","indexed":true,"internalType":"bytes32"},{"name":"buyer","type":"address","indexed":true,"internalType":"address"}],"anonymous":false},{"type":"error","name":"AccessDenied","inputs":[]},{"type":"error","name":"AttestationCreationFailed","inputs":[]},{"type":"error","name":"AttestationNotFound","inputs":[{"name":"attestationId","type":"bytes32","internalType":"bytes32"}]},{"type":"error","name":"AttestationRevoked","inputs":[]},{"type":"error","name":"DeadlineExpired","inputs":[]},{"type":"error","name":"InsufficientValue","inputs":[]},{"type":"error","name":"InvalidEAS","inputs":[]},{"type":"error","name":"InvalidEscrowAttestation","inputs":[]},{"type":"error","name":"InvalidFulfillment","inputs":[]},{"type":"error","name":"InvalidLength","inputs":[]},{"type":"error","name":"InvalidSchema","inputs":[]},{"type":"error","name":"NotFromThisAttester","inputs":[]},{"type":"error","name":"NotPayable","inputs":[]},{"type":"error","name":"RevocationFailed","inputs":[{"name":"attestationId","type":"bytes32","internalType":"bytes32"}]},{"type":"error","name":"UnauthorizedCall","inputs":[]}],"bytecode":{"object":"0x610160806040523461028457604081612008803803809161002082856102be565b8339810103126102845780516001600160a01b038116918282036102845760200151916001600160a01b0383168084036102845760405160e081016001600160401b038111828210176102aa5760405260b1815260208101927f6164647265737320617262697465722c2062797465732064656d616e642c207484527f75706c65286279746573333220736368656d612c207475706c6528616464726560408301527f737320726563697069656e742c2075696e7436342065787069726174696f6e5460608301527f696d652c20626f6f6c207265766f6361626c652c20627974657333322072656660808301527f5549442c20627974657320646174612c2075696e743235362076616c7565292060a0830152703230ba30949030ba3a32b9ba30ba34b7b760791b60c08301526001608052600460a0525f60c0521561029b576084948460209560e05261012052610100525f604051958680958194630c1af44f60e31b8352606060048401525180918160648501528484015e818101830184905230602483015260016044830152601f01601f191681010301925af1908115610290575f9161025a575b5061014052604051611d2690816102e2823960805181610a51015260a05181610a7c015260c05181610aa7015260e05181611c3d015261010051816108d301526101205181818161055d015281816107cf015281816112a10152611a3a01526101405181818161059d015281816108a101528181610a0f015281816114810152818161187601526119ef0152f35b90506020813d602011610288575b81610275602093836102be565b8101031261028457515f6101cc565b5f80fd5b3d9150610268565b6040513d5f823e3d90fd5b6341bc07ff60e11b5f5260045ffd5b634e487b7160e01b5f52604160045260245ffd5b601f909101601f19168101906001600160401b038211908210176102aa5760405256fe60806040526004361015610027575b3615610018575f80fd5b631574f9f360e01b5f5260045ffd5b5f3560e01c80632c713cd914610b2057806354fd4d5014610a325780635bf2f20d146109f85780636b122fe0146108625780637d2c2931146107975780638371ef591461073957806388e5b2d9146106ec578063891d9ea81461070b57806391db0b7e146106ec5780639c13d80e14610664578063b3b902d414610619578063c6ec50701461051e578063c93844be146103a1578063cce1f561146102c2578063ce46e046146102a8578063e49617e11461028d578063e60c35051461028d578063e6c9714d1461016d5763f0ffa1850361000e57346101695760a0366003190112610169576004356001600160401b0381116101695761012c903690600401610d8b565b610134610d37565b9161013d610d61565b606435906001600160a01b038216820361016957602094610161946084359461197e565b604051908152f35b5f80fd5b34610169576060366003190112610169576004356001600160401b03811161016957610140600319823603011261016957604051906101ab82610c0b565b80600401358252602481013560208301526101c860448201610d4d565b60408301526101d960648201610d4d565b60608301526101ea60848201610d4d565b608083015260a481013560a083015261020560c48201610d77565b60c083015261021660e48201610d77565b60e08301526102286101048201610ea2565b610100830152610124810135906001600160401b0382116101695760046102529236920101610c99565b6101208201526024356001600160401b0381116101695760209161027d610283923690600401610c99565b90611874565b6040519015158152f35b602061028361029b36610e6e565b6102a3611c3b565b611c7c565b34610169575f3660031901126101695760206040515f8152f35b34610169576040366003190112610169576004356001600160401b038111610169576060600319823603011261016957602061034591610318610326610306610d37565b926040519283916004018683016116d9565b03601f198101835282610c27565b60405163f0ffa18560e01b8152938492839233918291600486016117d3565b03815f305af18015610396575f90610363575b602090604051908152f35b506020813d60201161038e575b8161037d60209383610c27565b810103126101695760209051610358565b3d9150610370565b6040513d5f823e3d90fd5b34610169576020366003190112610169576004356001600160401b038111610169576103d1903690600401610d8b565b6103d9611816565b50810190602081830312610169578035906001600160401b0382116101695701606081830312610169576040519061041082610bba565b61041981610d77565b825260208101356001600160401b038111610169578361043a918301610c99565b60208301526040810135906001600160401b0382116101695701604081840312610169576040519061046b82610bd5565b803582526020810135906001600160401b03821161016957019260c084820312610169576040519061049c82610bf0565b6104a585610d77565b82526104b360208601610d4d565b60208301526104c460408601610ea2565b6040830152606085013560608301526080850135946001600160401b038611610169576104f860a09261051a978301610c99565b6080840152013560a08201526020820152604082015260405191829182610e27565b0390f35b3461016957602036600319011261016957610537611816565b50610540610ef2565b506040516328c44a9960e21b815260048035908201525f816024817f00000000000000000000000000000000000000000000000000000000000000006001600160a01b03165afa908115610396575f916105f7575b5060208101517f0000000000000000000000000000000000000000000000000000000000000000036105e8576105dc61012061051a92015160208082518301019101611059565b60405191829182610e27565b635527981560e11b5f5260045ffd5b61061391503d805f833e61060b8183610c27565b810190610f7e565b81610595565b34610169576060366003190112610169576004356001600160401b0381116101695761016161064e6020923690600401610d8b565b610656610d37565b91604435923392339261197e565b34610169576060366003190112610169576004356001600160401b03811161016957606060031982360301126101695760206106be6106a1610d37565b6106cc6106ac610d61565b946040519384916004018683016116d9565b03601f198101845283610c27565b610345604051948593849363f0ffa18560e01b85523391600486016117d3565b60206102836106fa36610ce7565b92610706929192611c3b565b6111fb565b346101695761051a61072561071f36610b51565b90611277565b604051918291602083526020830190610b67565b34610169576020366003190112610169576004356001600160401b0381116101695761076c610771913690600401610c99565b61118b565b604080516001600160a01b03909316835260208301819052829161051a91830190610b67565b34610169576020366003190112610169576004356107b3610ef2565b506040516328c44a9960e21b8152600481018290525f816024817f00000000000000000000000000000000000000000000000000000000000000006001600160a01b03165afa5f9181610846575b5061081957506301fb6dd160e01b5f5260045260245ffd5b606001516001600160401b0316421061083757602060405160018152f35b637bf6a16f60e01b5f5260045ffd5b61085b9192503d805f833e61060b8183610c27565b9083610801565b34610169575f3660031901126101695760608060405161088181610b8b565b5f81525f60208201525f604082015201526040516351753e3760e11b81527f000000000000000000000000000000000000000000000000000000000000000060048201525f8160248160018060a01b037f0000000000000000000000000000000000000000000000000000000000000000165afa8015610396575f90610948575b60609061051a604051928392602084528051602085015260018060a01b0360208201511660408501526040810151151582850152015160808084015260a0830190610b67565b503d805f833e6109588183610c27565b810190602081830312610169578051906001600160401b0382116101695701608081830312610169576040519061098e82610b8b565b8051825260208101516001600160a01b03811681036101695760208301526109b860408201610eaf565b60408301526060810151906001600160401b038211610169570182601f82011215610169576060928160206109ef93519101610ebc565b82820152610902565b34610169575f3660031901126101695760206040517f00000000000000000000000000000000000000000000000000000000000000008152f35b34610169575f3660031901126101695761051a60206107256001610a757f0000000000000000000000000000000000000000000000000000000000000000611ace565b8184610aa07f0000000000000000000000000000000000000000000000000000000000000000611ace565b8180610acb7f0000000000000000000000000000000000000000000000000000000000000000611ace565b9260405199878b985191829101848a015e870190601760f91b83830152805192839101602183015e010190601760f91b84830152805192839101600283015e01015f838201520301601f198101835282610c27565b3461016957610b3161071f36610b51565b602081519181808201938492010103126101695760209051604051908152f35b6040906003190112610169576004359060243590565b805180835260209291819084018484015e5f828201840152601f01601f1916010190565b608081019081106001600160401b03821117610ba657604052565b634e487b7160e01b5f52604160045260245ffd5b606081019081106001600160401b03821117610ba657604052565b604081019081106001600160401b03821117610ba657604052565b60c081019081106001600160401b03821117610ba657604052565b61014081019081106001600160401b03821117610ba657604052565b90601f801991011681019081106001600160401b03821117610ba657604052565b6001600160401b038111610ba657601f01601f191660200190565b929192610c6f82610c48565b91610c7d6040519384610c27565b829481845281830111610169578281602093845f960137010152565b9080601f8301121561016957816020610cb493359101610c63565b90565b9181601f84011215610169578235916001600160401b038311610169576020808501948460051b01011161016957565b6040600319820112610169576004356001600160401b0381116101695781610d1191600401610cb7565b92909291602435906001600160401b03821161016957610d3391600401610cb7565b9091565b602435906001600160401b038216820361016957565b35906001600160401b038216820361016957565b604435906001600160a01b038216820361016957565b35906001600160a01b038216820361016957565b9181601f84011215610169578235916001600160401b038311610169576020838186019501011161016957565b602090805183520151906040602082015260018060a01b0382511660408201526001600160401b036020830151166060820152604082015115156080820152606082015160a082015260e060a0610e1e608085015160c080860152610100850190610b67565b93015191015290565b90610cb4916020815260018060a01b0382511660208201526040610e5960208401516060838501526080840190610b67565b920151906060601f1982850301910152610db8565b602060031982011261016957600435906001600160401b038211610169576101409082900360031901126101695760040190565b3590811515820361016957565b5190811515820361016957565b929192610ec882610c48565b91610ed66040519384610c27565b829481845281830111610169578281602093845f96015e010152565b60405190610eff82610c0b565b6060610120835f81525f60208201525f60408201525f838201525f60808201525f60a08201525f60c08201525f60e08201525f6101008201520152565b51906001600160401b038216820361016957565b51906001600160a01b038216820361016957565b9080601f83011215610169578151610cb492602001610ebc565b602081830312610169578051906001600160401b0382116101695701610140818303126101695760405191610fb283610c0b565b8151835260208201516020840152610fcc60408301610f3c565b6040840152610fdd60608301610f3c565b6060840152610fee60808301610f3c565b608084015260a082015160a084015261100960c08301610f50565b60c084015261101a60e08301610f50565b60e084015261102c6101008301610eaf565b6101008401526101208201516001600160401b038111610169576110509201610f64565b61012082015290565b602081830312610169578051906001600160401b038211610169570190606082820312610169576040519161108d83610bba565b61109681610f50565b835260208101516001600160401b03811161016957826110b7918301610f64565b60208401526040810151906001600160401b03821161016957019060408282031261016957604051916110e983610bd5565b805183526020810151906001600160401b03821161016957019060c082820312610169576040519161111a83610bf0565b61112381610f50565b835261113160208201610f3c565b602084015261114260408201610eaf565b60408401526060810151606084015260808101516001600160401b0381116101695760a092611172918301610f64565b6080840152015160a08201526020820152604082015290565b61119e9060208082518301019101611059565b80516020909101516001600160a01b0390911691565b91908110156111c45760051b0190565b634e487b7160e01b5f52603260045260245ffd5b91908110156111c45760051b8101359061013e1981360301821215610169570190565b92909192818303611268575f91345b84841061121c57505050505050600190565b6112278483886111b4565b358181116112595761123d6102a38688876111d8565b1561124e576001910393019261120a565b505050505050505f90565b63044044a560e21b5f5260045ffd5b63251f56a160e21b5f5260045ffd5b915f611281610ef2565b5061128a610ef2565b506040516328c44a9960e21b8152600481018590527f00000000000000000000000000000000000000000000000000000000000000006001600160a01b0316905f81602481855afa5f918161166c575b506112f257856301fb6dd160e01b5f5260045260245ffd5b9491929394906040516328c44a9960e21b81528660048201525f81602481855afa5f9181611650575b5061133357866301fb6dd160e01b5f5260045260245ffd5b9591929394959261134381611c95565b156116415761142260206101208084019360c088611434611364885161118b565b91909451916040519889978896879663e6c9714d60e01b885260606004890152805160648901528b81015160848901526001600160401b0360408201511660a48901526001600160401b0360608201511660c48901526001600160401b0360808201511660e489015260a0810151610104890152019e8f60018060a01b0390511661012488015260018060a01b0360e082015116610144880152610100810151151561016488015201516101406101848701526101a4860190610b67565b84810360031901602486015290610b67565b604483019190915203916001600160a01b03165afa908115610396575f91611607575b50156115f85760405161146981610bd5565b8581525f60208201526040519061147f82610bd5565b7f0000000000000000000000000000000000000000000000000000000000000000825260208201908152833b1561016957604051634692626760e01b81529151600483015251805160248301526020015160448201525f8160648183875af190816115e3575b506114fe5763614cf93960e01b86526004859052602486fd5b6115438692604061151e6020949896979851858082518301019101611059565b015160405194858094819363f17325e760e01b83528760048401526024830190610db8565b03925af18591816115af575b5061156357638d7100d760e01b8552600485fd5b7ff96e77bc177ae8e2ff25185e7c6d85f8ba97c8bdd9d46933aac70a7a33edf6c09094936040519560208701526020865261159f604087610c27565b516001600160a01b03169380a490565b9091506020813d6020116115db575b816115cb60209383610c27565b810103126101695751905f61154f565b3d91506115be565b6115f09197505f90610c27565b5f955f6114e5565b630ebe58ef60e11b5f5260045ffd5b90506020813d602011611639575b8161162260209383610c27565b810103126101695761163390610eaf565b5f611457565b3d9150611615565b63629cd40b60e11b5f5260045ffd5b6116659192503d805f833e61060b8183610c27565b905f61131b565b6116819192503d805f833e61060b8183610c27565b905f6112da565b9035601e19823603018112156101695701602081359101916001600160401b03821161016957813603831361016957565b908060209392818452848401375f828201840152601f01601f1916010190565b602081526001600160a01b036116ee83610d77565b1660208201526117156117046020840184611688565b6060604085015260808401916116b9565b916040810135603e19823603018112156101695701906060601f198285030191015280358252602081013560be1982360301811215610169576040602084015201906001600160a01b0361176883610d77565b1660408201526001600160401b0361178260208401610d4d565b16606082015261179460408301610ea2565b15156080820152606082013560a082015260e060a06117ca6117b96080860186611688565b60c0808701526101008601916116b9565b93013591015290565b90935f936001600160401b036117f5608095989760a0865260a0860190610b67565b971660208401526001600160a01b0390811660408401521660608201520152565b6040519061182382610bba565b815f815260606020820152604080519161183c83610bd5565b5f8352815161184a81610bf0565b5f81525f60208201525f838201525f6060820152606060808201525f60a082015260208401520152565b7f000000000000000000000000000000000000000000000000000000000000000060208201510361196f576118a881611c95565b15611969576118c86101206118d892015160208082518301019101611059565b9160208082518301019101611059565b60408201516040516118fa816103186020820194602086526040830190610db8565b519020604082015160405161191f816103186020820194602086526040830190610db8565b519020149182611950575b8261193457505090565b6020919250810151818151910120910151602081519101201490565b805182516001600160a01b03908116911614925061192a565b50505f90565b635f9bd90760e11b5f5260045ffd5b602093506119a290611a3597969295939561199a368284610c63565b503691610c63565b906001600160401b03604051936119b885610bf0565b60018060a01b031695868552168484015260016040840152606083015260808201525f60a0820152604051906119ed82610bd5565b7f00000000000000000000000000000000000000000000000000000000000000008252828201526040518095819263f17325e760e01b83528460048401526024830190610db8565b03815f7f00000000000000000000000000000000000000000000000000000000000000006001600160a01b03165af1928315610396575f93611a9a575b50827f8f7f2dbafd79125e808bf16a53d7fa4e17b8b6374ced76d946a45f94b7bf4d065f80a3565b9092506020813d602011611ac6575b81611ab660209383610c27565b810103126101695751915f611a72565b3d9150611aa9565b805f9172184f03e93ff9f4daa797ed6e38ed64bf6a1f0160401b821015611c18575b806d04ee2d6d415b85acef8100000000600a921015611bfd575b662386f26fc10000811015611be9575b6305f5e100811015611bd8575b612710811015611bc9575b6064811015611bbb575b1015611bb0575b600a60216001840193611b5585610c48565b94611b636040519687610c27565b808652611b72601f1991610c48565b013660208701378401015b5f1901916f181899199a1a9b1b9c1cb0b131b232b360811b8282061a8353048015611bab57600a9091611b7d565b505090565b600190910190611b43565b606460029104930192611b3c565b61271060049104930192611b32565b6305f5e10060089104930192611b27565b662386f26fc1000060109104930192611b1a565b6d04ee2d6d415b85acef810000000060209104930192611b0a565b506040915072184f03e93ff9f4daa797ed6e38ed64bf6a1f0160401b8104611af0565b7f00000000000000000000000000000000000000000000000000000000000000006001600160a01b03163303611c6d57565b634ca8886760e01b5f5260045ffd5b60e0013560018060a01b03811680910361016957301490565b6001600160401b036060820151168015159081611ce6575b50611cd757608001516001600160401b0316611cc857600190565b637b6227e960e11b5f5260045ffd5b631ab7da6b60e01b5f5260045ffd5b905042115f611cad56fea26469706673582212209c535eeaf0a99187f9ff3a949ec18559a882689e3764bdc0c5f582a280bd1ebd64736f6c634300081c0033","linkReferences":{}},"methodIdentifiers":{"ATTESTATION_SCHEMA()":"5bf2f20d","attest((bytes32,bytes32,uint64,uint64,uint64,bytes32,address,address,bool,bytes))":"e60c3505","checkObligation((bytes32,bytes32,uint64,uint64,uint64,bytes32,address,address,bool,bytes),bytes,bytes32)":"e6c9714d","collectEscrow(bytes32,bytes32)":"2c713cd9","collectEscrowRaw(bytes32,bytes32)":"891d9ea8","decodeObligationData(bytes)":"c93844be","doObligation((address,bytes,(bytes32,(address,uint64,bool,bytes32,bytes,uint256))),uint64)":"cce1f561","doObligationFor((address,bytes,(bytes32,(address,uint64,bool,bytes32,bytes,uint256))),uint64,address)":"9c13d80e","doObligationForRaw(bytes,uint64,address,address,bytes32)":"f0ffa185","doObligationRaw(bytes,uint64,bytes32)":"b3b902d4","extractArbiterAndDemand(bytes)":"8371ef59","getObligationData(bytes32)":"c6ec5070","getSchema()":"6b122fe0","isPayable()":"ce46e046","multiAttest((bytes32,bytes32,uint64,uint64,uint64,bytes32,address,address,bool,bytes)[],uint256[])":"91db0b7e","multiRevoke((bytes32,bytes32,uint64,uint64,uint64,bytes32,address,address,bool,bytes)[],uint256[])":"88e5b2d9","reclaimExpired(bytes32)":"7d2c2931","revoke((bytes32,bytes32,uint64,uint64,uint64,bytes32,address,address,bool,bytes))":"e49617e1","version()":"54fd4d50"},"id":128}