{"abi":[{"type":"constructor","inputs":[{"name":"_eas","type":"address","internalType":"contract IEAS"},{"name":"_schemaRegistry","type":"address","internalType":"contract ISchemaRegistry"}],"stateMutability":"nonpayable"},{"type":"receive","stateMutability":"payable"},{"type":"function","name":"ATTESTATION_SCHEMA","inputs":[],"outputs":[{"name":"","type":"bytes32","internalType":"bytes32"}],"stateMutability":"view"},{"type":"function","name":"attest","inputs":[{"name":"attestation","type":"tuple","internalType":"struct Attestation","components":[{"name":"uid","type":"bytes32","internalType":"bytes32"},{"name":"schema","type":"bytes32","internalType":"bytes32"},{"name":"time","type":"uint64","internalType":"uint64"},{"name":"expirationTime","type":"uint64","internalType":"uint64"},{"name":"revocationTime","type":"uint64","internalType":"uint64"},{"name":"refUID","type":"bytes32","internalType":"bytes32"},{"name":"recipient","type":"address","internalType":"address"},{"name":"attester","type":"address","internalType":"address"},{"name":"revocable","type":"bool","internalType":"bool"},{"name":"data","type":"bytes","internalType":"bytes"}]}],"outputs":[{"name":"","type":"bool","internalType":"bool"}],"stateMutability":"payable"},{"type":"function","name":"checkObligation","inputs":[{"name":"obligation","type":"tuple","internalType":"struct Attestation","components":[{"name":"uid","type":"bytes32","internalType":"bytes32"},{"name":"schema","type":"bytes32","internalType":"bytes32"},{"name":"time","type":"uint64","internalType":"uint64"},{"name":"expirationTime","type":"uint64","internalType":"uint64"},{"name":"revocationTime","type":"uint64","internalType":"uint64"},{"name":"refUID","type":"bytes32","internalType":"bytes32"},{"name":"recipient","type":"address","internalType":"address"},{"name":"attester","type":"address","internalType":"address"},{"name":"revocable","type":"bool","internalType":"bool"},{"name":"data","type":"bytes","internalType":"bytes"}]},{"name":"demand","type":"bytes","internalType":"bytes"},{"name":"","type":"bytes32","internalType":"bytes32"}],"outputs":[{"name":"","type":"bool","internalType":"bool"}],"stateMutability":"view"},{"type":"function","name":"collectEscrow","inputs":[{"name":"escrow","type":"bytes32","internalType":"bytes32"},{"name":"fulfillment","type":"bytes32","internalType":"bytes32"}],"outputs":[{"name":"","type":"bool","internalType":"bool"}],"stateMutability":"nonpayable"},{"type":"function","name":"collectEscrowRaw","inputs":[{"name":"_escrow","type":"bytes32","internalType":"bytes32"},{"name":"_fulfillment","type":"bytes32","internalType":"bytes32"}],"outputs":[{"name":"","type":"bytes","internalType":"bytes"}],"stateMutability":"nonpayable"},{"type":"function","name":"decodeObligationData","inputs":[{"name":"data","type":"bytes","internalType":"bytes"}],"outputs":[{"name":"","type":"tuple","internalType":"struct ERC1155EscrowObligation.ObligationData","components":[{"name":"arbiter","type":"address","internalType":"address"},{"name":"demand","type":"bytes","internalType":"bytes"},{"name":"token","type":"address","internalType":"address"},{"name":"tokenId","type":"uint256","internalType":"uint256"},{"name":"amount","type":"uint256","internalType":"uint256"}]}],"stateMutability":"pure"},{"type":"function","name":"doObligation","inputs":[{"name":"data","type":"tuple","internalType":"struct ERC1155EscrowObligation.ObligationData","components":[{"name":"arbiter","type":"address","internalType":"address"},{"name":"demand","type":"bytes","internalType":"bytes"},{"name":"token","type":"address","internalType":"address"},{"name":"tokenId","type":"uint256","internalType":"uint256"},{"name":"amount","type":"uint256","internalType":"uint256"}]},{"name":"expirationTime","type":"uint64","internalType":"uint64"}],"outputs":[{"name":"","type":"bytes32","internalType":"bytes32"}],"stateMutability":"nonpayable"},{"type":"function","name":"doObligationFor","inputs":[{"name":"data","type":"tuple","internalType":"struct ERC1155EscrowObligation.ObligationData","components":[{"name":"arbiter","type":"address","internalType":"address"},{"name":"demand","type":"bytes","internalType":"bytes"},{"name":"token","type":"address","internalType":"address"},{"name":"tokenId","type":"uint256","internalType":"uint256"},{"name":"amount","type":"uint256","internalType":"uint256"}]},{"name":"expirationTime","type":"uint64","internalType":"uint64"},{"name":"payer","type":"address","internalType":"address"},{"name":"recipient","type":"address","internalType":"address"}],"outputs":[{"name":"","type":"bytes32","internalType":"bytes32"}],"stateMutability":"nonpayable"},{"type":"function","name":"doObligationForRaw","inputs":[{"name":"data","type":"bytes","internalType":"bytes"},{"name":"expirationTime","type":"uint64","internalType":"uint64"},{"name":"payer","type":"address","internalType":"address"},{"name":"recipient","type":"address","internalType":"address"},{"name":"refUID","type":"bytes32","internalType":"bytes32"}],"outputs":[{"name":"uid_","type":"bytes32","internalType":"bytes32"}],"stateMutability":"nonpayable"},{"type":"function","name":"doObligationRaw","inputs":[{"name":"data","type":"bytes","internalType":"bytes"},{"name":"expirationTime","type":"uint64","internalType":"uint64"},{"name":"refUID","type":"bytes32","internalType":"bytes32"}],"outputs":[{"name":"uid_","type":"bytes32","internalType":"bytes32"}],"stateMutability":"nonpayable"},{"type":"function","name":"extractArbiterAndDemand","inputs":[{"name":"data","type":"bytes","internalType":"bytes"}],"outputs":[{"name":"arbiter","type":"address","internalType":"address"},{"name":"demand","type":"bytes","internalType":"bytes"}],"stateMutability":"pure"},{"type":"function","name":"getObligationData","inputs":[{"name":"uid","type":"bytes32","internalType":"bytes32"}],"outputs":[{"name":"","type":"tuple","internalType":"struct ERC1155EscrowObligation.ObligationData","components":[{"name":"arbiter","type":"address","internalType":"address"},{"name":"demand","type":"bytes","internalType":"bytes"},{"name":"token","type":"address","internalType":"address"},{"name":"tokenId","type":"uint256","internalType":"uint256"},{"name":"amount","type":"uint256","internalType":"uint256"}]}],"stateMutability":"view"},{"type":"function","name":"getSchema","inputs":[],"outputs":[{"name":"","type":"tuple","internalType":"struct SchemaRecord","components":[{"name":"uid","type":"bytes32","internalType":"bytes32"},{"name":"resolver","type":"address","internalType":"contract ISchemaResolver"},{"name":"revocable","type":"bool","internalType":"bool"},{"name":"schema","type":"string","internalType":"string"}]}],"stateMutability":"view"},{"type":"function","name":"isPayable","inputs":[],"outputs":[{"name":"","type":"bool","internalType":"bool"}],"stateMutability":"pure"},{"type":"function","name":"multiAttest","inputs":[{"name":"attestations","type":"tuple[]","internalType":"struct Attestation[]","components":[{"name":"uid","type":"bytes32","internalType":"bytes32"},{"name":"schema","type":"bytes32","internalType":"bytes32"},{"name":"time","type":"uint64","internalType":"uint64"},{"name":"expirationTime","type":"uint64","internalType":"uint64"},{"name":"revocationTime","type":"uint64","internalType":"uint64"},{"name":"refUID","type":"bytes32","internalType":"bytes32"},{"name":"recipient","type":"address","internalType":"address"},{"name":"attester","type":"address","internalType":"address"},{"name":"revocable","type":"bool","internalType":"bool"},{"name":"data","type":"bytes","internalType":"bytes"}]},{"name":"values","type":"uint256[]","internalType":"uint256[]"}],"outputs":[{"name":"","type":"bool","internalType":"bool"}],"stateMutability":"payable"},{"type":"function","name":"multiRevoke","inputs":[{"name":"attestations","type":"tuple[]","internalType":"struct Attestation[]","components":[{"name":"uid","type":"bytes32","internalType":"bytes32"},{"name":"schema","type":"bytes32","internalType":"bytes32"},{"name":"time","type":"uint64","internalType":"uint64"},{"name":"expirationTime","type":"uint64","internalType":"uint64"},{"name":"revocationTime","type":"uint64","internalType":"uint64"},{"name":"refUID","type":"bytes32","internalType":"bytes32"},{"name":"recipient","type":"address","internalType":"address"},{"name":"attester","type":"address","internalType":"address"},{"name":"revocable","type":"bool","internalType":"bool"},{"name":"data","type":"bytes","internalType":"bytes"}]},{"name":"values","type":"uint256[]","internalType":"uint256[]"}],"outputs":[{"name":"","type":"bool","internalType":"bool"}],"stateMutability":"payable"},{"type":"function","name":"onERC1155BatchReceived","inputs":[{"name":"","type":"address","internalType":"address"},{"name":"","type":"address","internalType":"address"},{"name":"","type":"uint256[]","internalType":"uint256[]"},{"name":"","type":"uint256[]","internalType":"uint256[]"},{"name":"","type":"bytes","internalType":"bytes"}],"outputs":[{"name":"","type":"bytes4","internalType":"bytes4"}],"stateMutability":"nonpayable"},{"type":"function","name":"onERC1155Received","inputs":[{"name":"","type":"address","internalType":"address"},{"name":"","type":"address","internalType":"address"},{"name":"","type":"uint256","internalType":"uint256"},{"name":"","type":"uint256","internalType":"uint256"},{"name":"","type":"bytes","internalType":"bytes"}],"outputs":[{"name":"","type":"bytes4","internalType":"bytes4"}],"stateMutability":"nonpayable"},{"type":"function","name":"reclaimExpired","inputs":[{"name":"uid","type":"bytes32","internalType":"bytes32"}],"outputs":[{"name":"","type":"bool","internalType":"bool"}],"stateMutability":"nonpayable"},{"type":"function","name":"revoke","inputs":[{"name":"attestation","type":"tuple","internalType":"struct Attestation","components":[{"name":"uid","type":"bytes32","internalType":"bytes32"},{"name":"schema","type":"bytes32","internalType":"bytes32"},{"name":"time","type":"uint64","internalType":"uint64"},{"name":"expirationTime","type":"uint64","internalType":"uint64"},{"name":"revocationTime","type":"uint64","internalType":"uint64"},{"name":"refUID","type":"bytes32","internalType":"bytes32"},{"name":"recipient","type":"address","internalType":"address"},{"name":"attester","type":"address","internalType":"address"},{"name":"revocable","type":"bool","internalType":"bool"},{"name":"data","type":"bytes","internalType":"bytes"}]}],"outputs":[{"name":"","type":"bool","internalType":"bool"}],"stateMutability":"payable"},{"type":"function","name":"supportsInterface","inputs":[{"name":"interfaceId","type":"bytes4","internalType":"bytes4"}],"outputs":[{"name":"","type":"bool","internalType":"bool"}],"stateMutability":"view"},{"type":"function","name":"version","inputs":[],"outputs":[{"name":"","type":"string","internalType":"string"}],"stateMutability":"view"},{"type":"event","name":"EscrowCollected","inputs":[{"name":"escrow","type":"bytes32","indexed":true,"internalType":"bytes32"},{"name":"fulfillment","type":"bytes32","indexed":true,"internalType":"bytes32"},{"name":"fulfiller","type":"address","indexed":true,"internalType":"address"}],"anonymous":false},{"type":"event","name":"EscrowMade","inputs":[{"name":"escrow","type":"bytes32","indexed":true,"internalType":"bytes32"},{"name":"buyer","type":"address","indexed":true,"internalType":"address"}],"anonymous":false},{"type":"error","name":"AccessDenied","inputs":[]},{"type":"error","name":"AttestationNotFound","inputs":[{"name":"attestationId","type":"bytes32","internalType":"bytes32"}]},{"type":"error","name":"AttestationRevoked","inputs":[]},{"type":"error","name":"DeadlineExpired","inputs":[]},{"type":"error","name":"ERC1155TransferFailed","inputs":[{"name":"token","type":"address","internalType":"address"},{"name":"from","type":"address","internalType":"address"},{"name":"to","type":"address","internalType":"address"},{"name":"tokenId","type":"uint256","internalType":"uint256"},{"name":"amount","type":"uint256","internalType":"uint256"}]},{"type":"error","name":"InsufficientValue","inputs":[]},{"type":"error","name":"InvalidEAS","inputs":[]},{"type":"error","name":"InvalidEscrowAttestation","inputs":[]},{"type":"error","name":"InvalidFulfillment","inputs":[]},{"type":"error","name":"InvalidLength","inputs":[]},{"type":"error","name":"InvalidSchema","inputs":[]},{"type":"error","name":"NotFromThisAttester","inputs":[]},{"type":"error","name":"NotPayable","inputs":[]},{"type":"error","name":"RevocationFailed","inputs":[{"name":"attestationId","type":"bytes32","internalType":"bytes32"}]},{"type":"error","name":"UnauthorizedCall","inputs":[]}],"bytecode":{"object":"0x610160806040523461020e576040816121d680380380916100208285610248565b83398101031261020e5780516001600160a01b0381169182820361020e5760200151916001600160a01b03831680840361020e57604051608081016001600160401b0381118282101761023457604052604d815260208101927f6164647265737320617262697465722c2062797465732064656d616e642c206184527f64647265737320746f6b656e2c2075696e7432353620746f6b656e49642c207560408301526c1a5b9d0c8d4d88185b5bdd5b9d609a1b60608301526001608052600460a0525f60c05215610225576084948460209560e05261012052610100525f604051958680958194630c1af44f60e31b8352606060048401525180918160648501528484015e818101830184905230602483015260016044830152601f01601f191681010301925af190811561021a575f916101e4575b5061014052604051611f6a908161026c823960805181610b28015260a05181610b53015260c05181610b7e015260e05181611e810152610100518161099f015261012051818181610540015281816107d2015281816114bd0152611be10152610140518181816105800152818161096d01528181610ae601528181611695015281816119000152611b340152f35b90506020813d602011610212575b816101ff60209383610248565b8101031261020e57515f610156565b5f80fd5b3d91506101f2565b6040513d5f823e3d90fd5b6341bc07ff60e11b5f5260045ffd5b634e487b7160e01b5f52604160045260245ffd5b601f909101601f19168101906001600160401b038211908210176102345760405256fe6080806040526004361015610029575b50361561001a575f80fd5b631574f9f360e01b5f5260045ffd5b5f905f3560e01c90816301ffc9a714610cc0575080632c713cd914610ca35780633dc9f35014610bf757806354fd4d5014610b095780635bf2f20d14610acf5780636b122fe01461092e5780637d2c29311461079a5780638371ef591461073b57806388e5b2d9146106ed578063891d9ea81461070c57806391db0b7e146106ed578063b3b902d4146106a1578063bc197c811461060b578063c6ec5070146104ff578063c93844be14610422578063ce46e04614610406578063cecf1aff14610320578063e49617e114610305578063e60c350514610305578063e6c9714d146101de578063f0ffa1851461017d5763f23a6e610361000f573461017a5760a036600319011261017a5761013c610d7f565b50610145610d95565b506084356001600160401b03811161017857610165903690600401610ed6565b5060405163f23a6e6160e01b8152602090f35b505b80fd5b503461017a5760a036600319011261017a57600435906001600160401b03821161017a5760206101d66101b33660048601610f74565b6101bb610d29565b6101c3610d53565b906101cc610d69565b9260843594611a08565b604051908152f35b503461017a57606036600319011261017a57600435906001600160401b03821161017a57610140600319833603011261017a576040519161021e83610e2d565b806004013583526024810135602084015261023b60448201610d3f565b604084015261024c60648201610d3f565b606084015261025d60848201610d3f565b608084015260a481013560a084015261027860c48201610dab565b60c084015261028960e48201610dab565b60e08401526101048101358015158103610301576101008401526101248101356001600160401b038111610301576102c691369101600401610ed6565b610120830152602435906001600160401b03821161017a5760206102f7846102f13660048701610ed6565b906118fe565b6040519015158152f35b8280fd5b60206102f76103133661105a565b61031b611e7f565b611ec0565b503461017a57604036600319011261017a576004356001600160401b0381116101785760a06003198236030112610178579060206103a592610378610386610366610d29565b9260405192839160040186830161108e565b03601f198101835282610e64565b60405163f0ffa18560e01b815294859283923391829160048601611130565b038184305af19081156103fa57906103c3575b602090604051908152f35b506020813d6020116103f2575b816103dd60209383610e64565b810103126103ee57602090516103b8565b5f80fd5b3d91506103d0565b604051903d90823e3d90fd5b503461017a578060031936011261017a57602090604051908152f35b503461017a57602036600319011261017a576004356001600160401b03811161017857610453903690600401610f74565b61045e9291926118d3565b50820191602081840312610178578035906001600160401b03821161030157019160a083820312610178576040519161049683610e12565b61049f84610dab565b83526020840135906001600160401b03821161017a5750926104c86080926104fb958301610ed6565b60208401526104d960408201610dab565b6040840152606081013560608401520135608082015260405191829182611008565b0390f35b503461017a57602036600319011261017a576105196118d3565b506105226111b6565b506040516328c44a9960e21b815260048035908201529080826024817f00000000000000000000000000000000000000000000000000000000000000006001600160a01b03165afa9182156105fe5781926105da575b5060208201517f0000000000000000000000000000000000000000000000000000000000000000036105cb576104fb6105bf6101208401516020808251830101910161131d565b60405191829182611008565b635527981560e11b8152600490fd5b6105f79192503d8084833e6105ef8183610e64565b810190611242565b905f610578565b50604051903d90823e3d90fd5b503461017a5760a036600319011261017a57610625610d7f565b5061062e610d95565b506044356001600160401b0381116101785761064e903690600401610fa1565b506064356001600160401b0381116101785761066e903690600401610fa1565b506084356001600160401b0381116101785761068e903690600401610ed6565b5060405163bc197c8160e01b8152602090f35b503461017a57606036600319011261017a57600435906001600160401b03821161017a5760206101d66106d73660048601610f74565b6106df610d29565b916044359233923392611a08565b60206102f76106fb36610f24565b92610707929192611e7f565b611417565b503461017a576104fb61072761072136610d13565b90611493565b604051918291602083526020830190610dbf565b503461017a57602036600319011261017a57600435906001600160401b03821161017a5761077461076f3660048501610ed6565b6113a7565b604080516001600160a01b0390931683526020830181905282916104fb91830190610dbf565b346103ee5760203660031901126103ee576004356107b66111b6565b506040516328c44a9960e21b8152600481018290525f816024817f00000000000000000000000000000000000000000000000000000000000000006001600160a01b03165afa5f9181610912575b5061081c57506301fb6dd160e01b5f5260045260245ffd5b6001600160401b036060820151164210610903576108576101208201519160c060018060a01b0391015116916020808251830101910161131d565b60408101805160608301805160809094018051919490926001600160a01b031691823b156103ee576108a4925f9283604051809681958294637921219560e11b84528d3060048601611e14565b03925af190816108f3575b506108e85790519151905160405163334a7d1b60e21b81529384936108e493919030906001600160a01b031660048701611e4c565b0390fd5b602060405160018152f35b5f6108fd91610e64565b5f6108af565b637bf6a16f60e01b5f5260045ffd5b6109279192503d805f833e6105ef8183610e64565b9083610804565b346103ee575f3660031901126103ee5760608060405161094d81610de3565b5f81525f60208201525f604082015201526040516351753e3760e11b81527f000000000000000000000000000000000000000000000000000000000000000060048201525f8160248160018060a01b037f0000000000000000000000000000000000000000000000000000000000000000165afa8015610ac4575f90610a14575b6060906104fb604051928392602084528051602085015260018060a01b0360208201511660408501526040810151151582850152015160808084015260a0830190610dbf565b503d805f833e610a248183610e64565b8101906020818303126103ee578051906001600160401b0382116103ee57016080818303126103ee5760405190610a5a82610de3565b8051825260208101516001600160a01b03811681036103ee576020830152610a8460408201611173565b60408301526060810151906001600160401b0382116103ee570182601f820112156103ee57606092816020610abb93519101611180565b828201526109ce565b6040513d5f823e3d90fd5b346103ee575f3660031901126103ee5760206040517f00000000000000000000000000000000000000000000000000000000000000008152f35b346103ee575f3660031901126103ee576104fb60206107276001610b4c7f0000000000000000000000000000000000000000000000000000000000000000611ca7565b8184610b777f0000000000000000000000000000000000000000000000000000000000000000611ca7565b8180610ba27f0000000000000000000000000000000000000000000000000000000000000000611ca7565b9260405199878b985191829101848a015e870190601760f91b83830152805192839101602183015e010190601760f91b84830152805192839101600283015e01015f838201520301601f198101835282610e64565b346103ee5760803660031901126103ee576004356001600160401b0381116103ee5760a060031982360301126103ee576020610c31610d29565b610c5d610c86610c3f610d53565b94610c6b610c4b610d69565b9160405194859160040188830161108e565b03601f198101855284610e64565b60405163f0ffa18560e01b8152958694859460048601611130565b03815f305af18015610ac4575f906103c357602090604051908152f35b346103ee57610cb461072136610d13565b50602060405160018152f35b346103ee5760203660031901126103ee576004359063ffffffff60e01b82168092036103ee57602091630271189760e51b8114908115610d02575b5015158152f35b6301ffc9a760e01b14905083610cfb565b60409060031901126103ee576004359060243590565b602435906001600160401b03821682036103ee57565b35906001600160401b03821682036103ee57565b604435906001600160a01b03821682036103ee57565b606435906001600160a01b03821682036103ee57565b600435906001600160a01b03821682036103ee57565b602435906001600160a01b03821682036103ee57565b35906001600160a01b03821682036103ee57565b805180835260209291819084018484015e5f828201840152601f01601f1916010190565b608081019081106001600160401b03821117610dfe57604052565b634e487b7160e01b5f52604160045260245ffd5b60a081019081106001600160401b03821117610dfe57604052565b61014081019081106001600160401b03821117610dfe57604052565b604081019081106001600160401b03821117610dfe57604052565b90601f801991011681019081106001600160401b03821117610dfe57604052565b6001600160401b038111610dfe57601f01601f191660200190565b929192610eac82610e85565b91610eba6040519384610e64565b8294818452818301116103ee578281602093845f960137010152565b9080601f830112156103ee57816020610ef193359101610ea0565b90565b9181601f840112156103ee578235916001600160401b0383116103ee576020808501948460051b0101116103ee57565b60406003198201126103ee576004356001600160401b0381116103ee5781610f4e91600401610ef4565b92909291602435906001600160401b0382116103ee57610f7091600401610ef4565b9091565b9181601f840112156103ee578235916001600160401b0383116103ee57602083818601950101116103ee57565b9080601f830112156103ee578135916001600160401b038311610dfe578260051b9060405193610fd46020840186610e64565b84526020808501928201019283116103ee57602001905b828210610ff85750505090565b8135815260209182019101610feb565b6020815260018060a01b03825116602082015260a06080611037602085015183604086015260c0850190610dbf565b93600180841b036040820151166060850152606081015182850152015191015290565b60206003198201126103ee57600435906001600160401b0382116103ee576101409082900360031901126103ee5760040190565b602081526001600160a01b036110a383610dab565b1660208201526020820135601e19833603018112156103ee5782016020813591016001600160401b0382116103ee5781360381136103ee5760e0938260809260a060408701528160c0870152868601375f8484018601526001600160a01b0361110e60408301610dab565b166060850152606081013582850152013560a0830152601f8019910116010190565b90935f936001600160401b03611152608095989760a0865260a0860190610dbf565b971660208401526001600160a01b0390811660408401521660608201520152565b519081151582036103ee57565b92919261118c82610e85565b9161119a6040519384610e64565b8294818452818301116103ee578281602093845f96015e010152565b604051906111c382610e2d565b6060610120835f81525f60208201525f60408201525f838201525f60808201525f60a08201525f60c08201525f60e08201525f6101008201520152565b51906001600160401b03821682036103ee57565b51906001600160a01b03821682036103ee57565b9080601f830112156103ee578151610ef192602001611180565b6020818303126103ee578051906001600160401b0382116103ee5701610140818303126103ee576040519161127683610e2d565b815183526020820151602084015261129060408301611200565b60408401526112a160608301611200565b60608401526112b260808301611200565b608084015260a082015160a08401526112cd60c08301611214565b60c08401526112de60e08301611214565b60e08401526112f06101008301611173565b6101008401526101208201516001600160401b0381116103ee576113149201611228565b61012082015290565b6020818303126103ee578051906001600160401b0382116103ee57019060a0828203126103ee576040519161135183610e12565b61135a81611214565b835260208101516001600160401b0381116103ee5760809261137d918301611228565b602084015261138e60408201611214565b6040840152606081015160608401520151608082015290565b6113ba906020808251830101910161131d565b80516020909101516001600160a01b0390911691565b91908110156113e05760051b0190565b634e487b7160e01b5f52603260045260245ffd5b91908110156113e05760051b8101359061013e19813603018212156103ee570190565b92909192818303611484575f91345b84841061143857505050505050600190565b6114438483886113d0565b358181116114755761145961031b8688876113f4565b1561146a5760019103930192611426565b505050505050505f90565b63044044a560e21b5f5260045ffd5b63251f56a160e21b5f5260045ffd5b915f61149d6111b6565b506114a66111b6565b506040516328c44a9960e21b8152600481018590527f00000000000000000000000000000000000000000000000000000000000000006001600160a01b031692905f81602481875afa5f91816118b7575b5061150f57856301fb6dd160e01b5f5260045260245ffd5b94919293946040516328c44a9960e21b81528660048201525f81602481895afa5f918161189b575b5061154f57866301fb6dd160e01b5f5260045260245ffd5b9592939461155c82611ed9565b1561188c576101208201918251611572906113a7565b91516040805163e6c9714d60e01b81526060600482018190528c51606483015260208d01516084830152918c01516001600160401b0390811660a4830152918c0151821660c482015260808c015190911660e482015260a08b015161010482015260c08b0180516001600160a01b0390811661012484015260e08d0151166101448301526101008c01511515610164830152610120909b015161014061018483015290938492839290919061162c906101a4850190610dbf565b83810360031901602485015261164191610dbf565b60448301919091526001600160a01b039093169203815a93602094fa908115610ac4575f91611852575b50156118435760405161167d81610e49565b8581525f60208201526040519061169382610e49565b7f0000000000000000000000000000000000000000000000000000000000000000825260208201908152823b156103ee5760645f92836020956040519687958694634692626760e01b86525160048601525180516024860152015160448401525af1908161182e575b506117155763614cf93960e01b85526004849052602485fd5b519461173460018060a01b03825116966020808251830101910161131d565b94604086019360018060a01b0385511695606088019760808951910197885191813b1561182a576117839286928392838f60405197889586948593637921219560e11b85523060048601611e14565b03925af19182611811575b50506117c55785518851885160405163334a7d1b60e21b81529283926108e492918e9030906001600160a01b031660048701611e4c565b9397509350935093507ff96e77bc177ae8e2ff25185e7c6d85f8ba97c8bdd9d46933aac70a7a33edf6c0604051946117fe602087610e64565b848652516001600160a01b03169380a490565b8161181b91610e64565b61182657835f61178e565b8380fd5b8580fd5b61183b9196505f90610e64565b5f945f6116fc565b630ebe58ef60e11b5f5260045ffd5b90506020813d602011611884575b8161186d60209383610e64565b810103126103ee5761187e90611173565b5f61166b565b3d9150611860565b63629cd40b60e11b5f5260045ffd5b6118b09192503d805f833e6105ef8183610e64565b905f611537565b6118cc9192503d805f833e6105ef8183610e64565b905f6114f7565b604051906118e082610e12565b5f608083828152606060208201528260408201528260608201520152565b7f00000000000000000000000000000000000000000000000000000000000000006020820151036119f95761193281611ed9565b156119f3576119526101206119629201516020808251830101910161131d565b916020808251830101910161131d565b604082810151908201516001600160a01b0390811691161491826119e0575b826119cc575b826119b3575b8261199757505090565b6020919250810151818151910120910151602081519101201490565b805182516001600160a01b03908116911614925061198d565b915060808201516080820151111591611987565b9150606082015160608201511491611981565b50505f90565b635f9bd90760e11b5f5260045ffd5b91959095949294611a2c611a1d368986610ea0565b6020808251830101910161131d565b9460408601948551945f9560018060a01b031699606089019a60808c519a01998a51823b156103ee57611a7c925f92838f60405196879586948593637921219560e11b8552309060048601611e14565b03925af19081611c92575b50611abd578a8a6108e48b8b60018060a01b03905116935190519060405194859463334a7d1b60e21b8652309160048701611e4c565b929650929650939750611ad39296503691610ea0565b906040519260c084018481106001600160401b03821117611c7e57906001600160401b039160405260018060a01b03169485855216602084015260016040840152606083015260808201528360a08201526020604051611b3281610e49565b7f000000000000000000000000000000000000000000000000000000000000000081528181019283526040518093819263f17325e760e01b8352846004840152516024830152516040604483015260018060a01b0381511660648301526001600160401b03848201511660848301526040810151151560a4830152606081015160c483015260a0611bd3608083015160c060e4860152610124850190610dbf565b9101516101048301520381877f00000000000000000000000000000000000000000000000000000000000000006001600160a01b03165af1908115611c73578491611c41575b507f8f7f2dbafd79125e808bf16a53d7fa4e17b8b6374ced76d946a45f94b7bf4d06819480a3565b90506020813d602011611c6b575b81611c5c60209383610e64565b810103126103ee57515f611c19565b3d9150611c4f565b6040513d86823e3d90fd5b634e487b7160e01b88526041600452602488fd5b611c9f9198505f90610e64565b5f965f611a87565b805f9172184f03e93ff9f4daa797ed6e38ed64bf6a1f0160401b821015611df1575b806d04ee2d6d415b85acef8100000000600a921015611dd6575b662386f26fc10000811015611dc2575b6305f5e100811015611db1575b612710811015611da2575b6064811015611d94575b1015611d89575b600a60216001840193611d2e85610e85565b94611d3c6040519687610e64565b808652611d4b601f1991610e85565b013660208701378401015b5f1901916f181899199a1a9b1b9c1cb0b131b232b360811b8282061a8353048015611d8457600a9091611d56565b505090565b600190910190611d1c565b606460029104930192611d15565b61271060049104930192611d0b565b6305f5e10060089104930192611d00565b662386f26fc1000060109104930192611cf3565b6d04ee2d6d415b85acef810000000060209104930192611ce3565b506040915072184f03e93ff9f4daa797ed6e38ed64bf6a1f0160401b8104611cc9565b6001600160a01b039182168152911660208201526040810191909152606081019190915260a0608082018190525f9082015260c00190565b6001600160a01b039182168152918116602083015290911660408201526060810191909152608081019190915260a00190565b7f00000000000000000000000000000000000000000000000000000000000000006001600160a01b03163303611eb157565b634ca8886760e01b5f5260045ffd5b60e0013560018060a01b0381168091036103ee57301490565b6001600160401b036060820151168015159081611f2a575b50611f1b57608001516001600160401b0316611f0c57600190565b637b6227e960e11b5f5260045ffd5b631ab7da6b60e01b5f5260045ffd5b905042115f611ef156fea26469706673582212208acd9652d02379b0724c54a8781fba9b4fe996eaba7f0b0249ce6e6529ab163664736f6c634300081c0033","linkReferences":{}},"methodIdentifiers":{"ATTESTATION_SCHEMA()":"5bf2f20d","attest((bytes32,bytes32,uint64,uint64,uint64,bytes32,address,address,bool,bytes))":"e60c3505","checkObligation((bytes32,bytes32,uint64,uint64,uint64,bytes32,address,address,bool,bytes),bytes,bytes32)":"e6c9714d","collectEscrow(bytes32,bytes32)":"2c713cd9","collectEscrowRaw(bytes32,bytes32)":"891d9ea8","decodeObligationData(bytes)":"c93844be","doObligation((address,bytes,address,uint256,uint256),uint64)":"cecf1aff","doObligationFor((address,bytes,address,uint256,uint256),uint64,address,address)":"3dc9f350","doObligationForRaw(bytes,uint64,address,address,bytes32)":"f0ffa185","doObligationRaw(bytes,uint64,bytes32)":"b3b902d4","extractArbiterAndDemand(bytes)":"8371ef59","getObligationData(bytes32)":"c6ec5070","getSchema()":"6b122fe0","isPayable()":"ce46e046","multiAttest((bytes32,bytes32,uint64,uint64,uint64,bytes32,address,address,bool,bytes)[],uint256[])":"91db0b7e","multiRevoke((bytes32,bytes32,uint64,uint64,uint64,bytes32,address,address,bool,bytes)[],uint256[])":"88e5b2d9","onERC1155BatchReceived(address,address,uint256[],uint256[],bytes)":"bc197c81","onERC1155Received(address,address,uint256,uint256,bytes)":"f23a6e61","reclaimExpired(bytes32)":"7d2c2931","revoke((bytes32,bytes32,uint64,uint64,uint64,bytes32,address,address,bool,bytes))":"e49617e1","supportsInterface(bytes4)":"01ffc9a7","version()":"54fd4d50"},"id":130}