{"abi":[{"type":"constructor","inputs":[{"name":"_eas","type":"address","internalType":"contract IEAS"},{"name":"_schemaRegistry","type":"address","internalType":"contract ISchemaRegistry"}],"stateMutability":"nonpayable"},{"type":"receive","stateMutability":"payable"},{"type":"function","name":"ATTESTATION_SCHEMA","inputs":[],"outputs":[{"name":"","type":"bytes32","internalType":"bytes32"}],"stateMutability":"view"},{"type":"function","name":"attest","inputs":[{"name":"attestation","type":"tuple","internalType":"struct Attestation","components":[{"name":"uid","type":"bytes32","internalType":"bytes32"},{"name":"schema","type":"bytes32","internalType":"bytes32"},{"name":"time","type":"uint64","internalType":"uint64"},{"name":"expirationTime","type":"uint64","internalType":"uint64"},{"name":"revocationTime","type":"uint64","internalType":"uint64"},{"name":"refUID","type":"bytes32","internalType":"bytes32"},{"name":"recipient","type":"address","internalType":"address"},{"name":"attester","type":"address","internalType":"address"},{"name":"revocable","type":"bool","internalType":"bool"},{"name":"data","type":"bytes","internalType":"bytes"}]}],"outputs":[{"name":"","type":"bool","internalType":"bool"}],"stateMutability":"payable"},{"type":"function","name":"checkObligation","inputs":[{"name":"obligation","type":"tuple","internalType":"struct Attestation","components":[{"name":"uid","type":"bytes32","internalType":"bytes32"},{"name":"schema","type":"bytes32","internalType":"bytes32"},{"name":"time","type":"uint64","internalType":"uint64"},{"name":"expirationTime","type":"uint64","internalType":"uint64"},{"name":"revocationTime","type":"uint64","internalType":"uint64"},{"name":"refUID","type":"bytes32","internalType":"bytes32"},{"name":"recipient","type":"address","internalType":"address"},{"name":"attester","type":"address","internalType":"address"},{"name":"revocable","type":"bool","internalType":"bool"},{"name":"data","type":"bytes","internalType":"bytes"}]},{"name":"demand","type":"bytes","internalType":"bytes"},{"name":"","type":"bytes32","internalType":"bytes32"}],"outputs":[{"name":"","type":"bool","internalType":"bool"}],"stateMutability":"view"},{"type":"function","name":"decodeObligationData","inputs":[{"name":"data","type":"bytes","internalType":"bytes"}],"outputs":[{"name":"","type":"tuple","internalType":"struct ERC1155PaymentObligation.ObligationData","components":[{"name":"token","type":"address","internalType":"address"},{"name":"tokenId","type":"uint256","internalType":"uint256"},{"name":"amount","type":"uint256","internalType":"uint256"},{"name":"payee","type":"address","internalType":"address"}]}],"stateMutability":"pure"},{"type":"function","name":"doObligation","inputs":[{"name":"data","type":"tuple","internalType":"struct ERC1155PaymentObligation.ObligationData","components":[{"name":"token","type":"address","internalType":"address"},{"name":"tokenId","type":"uint256","internalType":"uint256"},{"name":"amount","type":"uint256","internalType":"uint256"},{"name":"payee","type":"address","internalType":"address"}]}],"outputs":[{"name":"uid_","type":"bytes32","internalType":"bytes32"}],"stateMutability":"nonpayable"},{"type":"function","name":"doObligationFor","inputs":[{"name":"data","type":"tuple","internalType":"struct ERC1155PaymentObligation.ObligationData","components":[{"name":"token","type":"address","internalType":"address"},{"name":"tokenId","type":"uint256","internalType":"uint256"},{"name":"amount","type":"uint256","internalType":"uint256"},{"name":"payee","type":"address","internalType":"address"}]},{"name":"payer","type":"address","internalType":"address"},{"name":"recipient","type":"address","internalType":"address"}],"outputs":[{"name":"uid_","type":"bytes32","internalType":"bytes32"}],"stateMutability":"nonpayable"},{"type":"function","name":"doObligationForRaw","inputs":[{"name":"data","type":"bytes","internalType":"bytes"},{"name":"expirationTime","type":"uint64","internalType":"uint64"},{"name":"payer","type":"address","internalType":"address"},{"name":"recipient","type":"address","internalType":"address"},{"name":"refUID","type":"bytes32","internalType":"bytes32"}],"outputs":[{"name":"uid_","type":"bytes32","internalType":"bytes32"}],"stateMutability":"nonpayable"},{"type":"function","name":"doObligationRaw","inputs":[{"name":"data","type":"bytes","internalType":"bytes"},{"name":"expirationTime","type":"uint64","internalType":"uint64"},{"name":"refUID","type":"bytes32","internalType":"bytes32"}],"outputs":[{"name":"uid_","type":"bytes32","internalType":"bytes32"}],"stateMutability":"nonpayable"},{"type":"function","name":"getObligationData","inputs":[{"name":"uid","type":"bytes32","internalType":"bytes32"}],"outputs":[{"name":"","type":"tuple","internalType":"struct ERC1155PaymentObligation.ObligationData","components":[{"name":"token","type":"address","internalType":"address"},{"name":"tokenId","type":"uint256","internalType":"uint256"},{"name":"amount","type":"uint256","internalType":"uint256"},{"name":"payee","type":"address","internalType":"address"}]}],"stateMutability":"view"},{"type":"function","name":"getSchema","inputs":[],"outputs":[{"name":"","type":"tuple","internalType":"struct SchemaRecord","components":[{"name":"uid","type":"bytes32","internalType":"bytes32"},{"name":"resolver","type":"address","internalType":"contract ISchemaResolver"},{"name":"revocable","type":"bool","internalType":"bool"},{"name":"schema","type":"string","internalType":"string"}]}],"stateMutability":"view"},{"type":"function","name":"isPayable","inputs":[],"outputs":[{"name":"","type":"bool","internalType":"bool"}],"stateMutability":"pure"},{"type":"function","name":"multiAttest","inputs":[{"name":"attestations","type":"tuple[]","internalType":"struct Attestation[]","components":[{"name":"uid","type":"bytes32","internalType":"bytes32"},{"name":"schema","type":"bytes32","internalType":"bytes32"},{"name":"time","type":"uint64","internalType":"uint64"},{"name":"expirationTime","type":"uint64","internalType":"uint64"},{"name":"revocationTime","type":"uint64","internalType":"uint64"},{"name":"refUID","type":"bytes32","internalType":"bytes32"},{"name":"recipient","type":"address","internalType":"address"},{"name":"attester","type":"address","internalType":"address"},{"name":"revocable","type":"bool","internalType":"bool"},{"name":"data","type":"bytes","internalType":"bytes"}]},{"name":"values","type":"uint256[]","internalType":"uint256[]"}],"outputs":[{"name":"","type":"bool","internalType":"bool"}],"stateMutability":"payable"},{"type":"function","name":"multiRevoke","inputs":[{"name":"attestations","type":"tuple[]","internalType":"struct Attestation[]","components":[{"name":"uid","type":"bytes32","internalType":"bytes32"},{"name":"schema","type":"bytes32","internalType":"bytes32"},{"name":"time","type":"uint64","internalType":"uint64"},{"name":"expirationTime","type":"uint64","internalType":"uint64"},{"name":"revocationTime","type":"uint64","internalType":"uint64"},{"name":"refUID","type":"bytes32","internalType":"bytes32"},{"name":"recipient","type":"address","internalType":"address"},{"name":"attester","type":"address","internalType":"address"},{"name":"revocable","type":"bool","internalType":"bool"},{"name":"data","type":"bytes","internalType":"bytes"}]},{"name":"values","type":"uint256[]","internalType":"uint256[]"}],"outputs":[{"name":"","type":"bool","internalType":"bool"}],"stateMutability":"payable"},{"type":"function","name":"revoke","inputs":[{"name":"attestation","type":"tuple","internalType":"struct Attestation","components":[{"name":"uid","type":"bytes32","internalType":"bytes32"},{"name":"schema","type":"bytes32","internalType":"bytes32"},{"name":"time","type":"uint64","internalType":"uint64"},{"name":"expirationTime","type":"uint64","internalType":"uint64"},{"name":"revocationTime","type":"uint64","internalType":"uint64"},{"name":"refUID","type":"bytes32","internalType":"bytes32"},{"name":"recipient","type":"address","internalType":"address"},{"name":"attester","type":"address","internalType":"address"},{"name":"revocable","type":"bool","internalType":"bool"},{"name":"data","type":"bytes","internalType":"bytes"}]}],"outputs":[{"name":"","type":"bool","internalType":"bool"}],"stateMutability":"payable"},{"type":"function","name":"version","inputs":[],"outputs":[{"name":"","type":"string","internalType":"string"}],"stateMutability":"view"},{"type":"event","name":"PaymentMade","inputs":[{"name":"payment","type":"bytes32","indexed":true,"internalType":"bytes32"},{"name":"buyer","type":"address","indexed":true,"internalType":"address"}],"anonymous":false},{"type":"error","name":"AccessDenied","inputs":[]},{"type":"error","name":"AttestationRevoked","inputs":[]},{"type":"error","name":"DeadlineExpired","inputs":[]},{"type":"error","name":"ERC1155TransferFailed","inputs":[{"name":"token","type":"address","internalType":"address"},{"name":"from","type":"address","internalType":"address"},{"name":"to","type":"address","internalType":"address"},{"name":"tokenId","type":"uint256","internalType":"uint256"},{"name":"amount","type":"uint256","internalType":"uint256"}]},{"type":"error","name":"InsufficientValue","inputs":[]},{"type":"error","name":"InvalidEAS","inputs":[]},{"type":"error","name":"InvalidLength","inputs":[]},{"type":"error","name":"InvalidSchema","inputs":[]},{"type":"error","name":"NotFromThisAttester","inputs":[]},{"type":"error","name":"NotPayable","inputs":[]}],"bytecode":{"object":"0x61016080604052346101e35760408161166b8038038091610020828561021d565b8339810103126101e35780516001600160a01b038116918282036101e35760200151916001600160a01b0383168084036101e357604051606081016001600160401b0381118282101761020957604052603d815260208101927f6164647265737320746f6b656e2c2075696e7432353620746f6b656e49642c2084527f75696e7432353620616d6f756e742c206164647265737320706179656500000060408301526001608052600460a0525f60c052156101fa576084948460209560e05261012052610100525f604051958680958194630c1af44f60e31b8352606060048401525180918160648501528484015e818101830184905230602483015260016044830152601f01601f191681010301925af19081156101ef575f916101b9575b506101405260405161142a90816102418239608051816109da015260a05181610a05015260c05181610a30015260e051816113880152610100518161085c015261012051818181610583015261113f015261014051818181610264015281816105bb0152818161082a0152818161099801526110920152f35b90506020813d6020116101e7575b816101d46020938361021d565b810103126101e357515f610140565b5f80fd5b3d91506101c7565b6040513d5f823e3d90fd5b6341bc07ff60e11b5f5260045ffd5b634e487b7160e01b5f52604160045260245ffd5b601f909101601f19168101906001600160401b038211908210176102095760405256fe60806040526004361015610027575b3615610018575f80fd5b631574f9f360e01b5f5260045ffd5b5f3560e01c806354fd4d50146109bb5780635bf2f20d146109815780636b122fe0146107eb5780636f0aa0de1461077857806388e5b2d91461075957806391db0b7e14610759578063b3b902d41461070e578063c6ec507014610500578063c93844be14610473578063ce46e04614610459578063e49617e114610434578063e60c350514610434578063e665ba1514610384578063e6c9714d1461014c5763f0ffa1850361000e57346101485760a0366003190112610148576004356001600160401b03811161014857610100903690600401610b71565b610108610b9e565b916044356001600160a01b038116810361014857606435906001600160a01b0382168203610148576020946101409460843594610f24565b604051908152f35b5f80fd5b34610148576060366003190112610148576004356001600160401b038111610148576101406003198236030112610148576040519061018a82610c2b565b806004013582526020820190602481013582526101a960448201610bb4565b60408401526101ba60648201610bb4565b606084019081526101cd60848301610bb4565b916080850192835260a481013560a08601526101eb60c48201610add565b60c08601526101fc60e48201610add565b60e08601526101048101358015158103610148576101008601526101248101356001600160401b0381116101485761012091600461023d9236920101610cb9565b94019384526024356001600160401b03811161014857610261903690600401610cb9565b927f000000000000000000000000000000000000000000000000000000000000000090510361037557516001600160401b0316801515908161036b575b5061035c57516001600160401b031661034d576102d86102c960209351848082518301019101610e98565b91838082518301019101610e98565b815181516001600160a01b03908116911614918261033d575b82610329575b82610309575b50506040519015158152f35b6060908101519101516001600160a01b03908116911614905082806102fd565b9150604082015160408201511115916102f7565b83810151828501511492506102f1565b637b6227e960e11b5f5260045ffd5b631ab7da6b60e01b5f5260045ffd5b905042118461029e565b635f9bd90760e11b5f5260045ffd5b34610148576080366003190112610148576103d860206040516103ba816103ac848201610d1a565b03601f198101835282610c47565b6040518093819263f0ffa18560e01b83523390339060048501610d63565b03815f305af18015610429575f906103f6575b602090604051908152f35b506020813d602011610421575b8161041060209383610c47565b8101031261014857602090516103eb565b3d9150610403565b6040513d5f823e3d90fd5b602061044f61044236610bc8565b61044a611386565b6113c7565b6040519015158152f35b34610148575f3660031901126101485760206040515f8152f35b34610148576020366003190112610148576004356001600160401b038111610148576104ba6104a96104fc923690600401610b71565b6104b1610e60565b50810190610ee2565b604051918291829190916060608082019360018060a01b03815116835260208101516020840152604081015160408401528160018060a01b0391015116910152565b0390f35b3461014857602036600319011261014857610519610e60565b50606061012060405161052b81610c2b565b5f81525f60208201525f60408201525f838201525f60808201525f60a08201525f60c08201525f60e08201525f61010082015201526040516328c44a9960e21b815260043560048201525f8160248160018060a01b037f0000000000000000000000000000000000000000000000000000000000000000165afa908115610429575f91610609575b5060208101517f0000000000000000000000000000000000000000000000000000000000000000036105fa576104ba6101206104fc92015160208082518301019101610e98565b635527981560e11b5f5260045ffd5b90503d805f833e61061a8183610c47565b810190602081830312610148578051906001600160401b03821161014857019061014082820312610148576040519161065283610c2b565b805183526020810151602084015261066c604082016113e0565b604084015261067d606082016113e0565b606084015261068e608082016113e0565b608084015260a081015160a08401526106a960c08201610e84565b60c08401526106ba60e08201610e84565b60e08401526106cc6101008201610cd7565b610100840152610120810151906001600160401b03821161014857019080601f8301121561014857815161070292602001610ce4565b610120820152816105b3565b34610148576060366003190112610148576004356001600160401b038111610148576101406107436020923690600401610b71565b61074b610b9e565b916044359233923392610f24565b602061044f61076736610b21565b92610773929192611386565b610de4565b3461014857366003190160c0811261014857608013610148576084356001600160a01b03811681036101485760a435906001600160a01b0382168203610148576020906040516107cd816103ac858201610d1a565b6103d8604051948593849363f0ffa18560e01b855260048501610d63565b34610148575f3660031901126101485760608060405161080a81610bfc565b5f81525f60208201525f604082015201526040516351753e3760e11b81527f000000000000000000000000000000000000000000000000000000000000000060048201525f8160248160018060a01b037f0000000000000000000000000000000000000000000000000000000000000000165afa8015610429575f906108d1575b6060906104fc604051928392602084528051602085015260018060a01b0360208201511660408501526040810151151582850152015160808084015260a0830190610ab9565b503d805f833e6108e18183610c47565b810190602081830312610148578051906001600160401b0382116101485701608081830312610148576040519061091782610bfc565b8051825260208101516001600160a01b038116810361014857602083015261094160408201610cd7565b60408301526060810151906001600160401b038211610148570182601f820112156101485760609281602061097893519101610ce4565b8282015261088b565b34610148575f3660031901126101485760206040517f00000000000000000000000000000000000000000000000000000000000000008152f35b34610148575f366003190112610148576104fc6020610aa960016109fe7f0000000000000000000000000000000000000000000000000000000000000000611219565b8184610a297f0000000000000000000000000000000000000000000000000000000000000000611219565b8180610a547f0000000000000000000000000000000000000000000000000000000000000000611219565b9260405199878b985191829101848a015e870190601760f91b83830152805192839101602183015e010190601760f91b84830152805192839101600283015e01015f838201520301601f198101835282610c47565b6040519182916020835260208301905b805180835260209291819084018484015e5f828201840152601f01601f1916010190565b35906001600160a01b038216820361014857565b9181601f84011215610148578235916001600160401b038311610148576020808501948460051b01011161014857565b6040600319820112610148576004356001600160401b0381116101485781610b4b91600401610af1565b92909291602435906001600160401b03821161014857610b6d91600401610af1565b9091565b9181601f84011215610148578235916001600160401b038311610148576020838186019501011161014857565b602435906001600160401b038216820361014857565b35906001600160401b038216820361014857565b602060031982011261014857600435906001600160401b038211610148576101409082900360031901126101485760040190565b608081019081106001600160401b03821117610c1757604052565b634e487b7160e01b5f52604160045260245ffd5b61014081019081106001600160401b03821117610c1757604052565b90601f801991011681019081106001600160401b03821117610c1757604052565b6001600160401b038111610c1757601f01601f191660200190565b929192610c8f82610c68565b91610c9d6040519384610c47565b829481845281830111610148578281602093845f960137010152565b9080601f8301121561014857816020610cd493359101610c83565b90565b5190811515820361014857565b929192610cf082610c68565b91610cfe6040519384610c47565b829481845281830111610148578281602093845f96015e010152565b6080810191906004356001600160a01b03811690819003610148578152602435602082015260443560408201526064356001600160a01b03811691908290036101485760600152565b5f929493610d7b60809360a0845260a0840190610ab9565b602083018590526001600160a01b039687166040840152951660608201520152565b9190811015610dad5760051b0190565b634e487b7160e01b5f52603260045260245ffd5b9190811015610dad5760051b8101359061013e1981360301821215610148570190565b92909192818303610e51575f91345b848410610e0557505050505050600190565b610e10848388610d9d565b35818111610e4257610e2661044a868887610dc1565b15610e375760019103930192610df3565b505050505050505f90565b63044044a560e21b5f5260045ffd5b63251f56a160e21b5f5260045ffd5b60405190610e6d82610bfc565b5f6060838281528260208201528260408201520152565b51906001600160a01b038216820361014857565b9081608091031261014857610eda606060405192610eb584610bfc565b610ebe81610e84565b8452602081015160208501526040810151604085015201610e84565b606082015290565b9081608091031261014857610eda606060405192610eff84610bfc565b610f0881610add565b8452602081013560208501526040810135604085015201610add565b95909491939293610f3786880188610ee2565b938451935f98606087019860018060a01b038a5116602089019788519160408b015160018060a01b0383163b1561014857604051637921219560e11b81526001600160a01b03808f16600483015260248201939093526044810194909452606484015260a060848401525f60a4840181905291839160c49183918591165af19081611204575b5061100a5787518a5188516040808c0151905163334a7d1b60e21b81526001600160a01b0394851660048201528d851660248201529390921660448401526064830152608482015260a490fd5b929650929650935061101f9296503691610c83565b906040519260c084018481106001600160401b038211176111f057906001600160401b039160405260018060a01b03169485855216602084015260016040840152606083015260808201528360a0820152604051604081018181106001600160401b038211176111dc57906020916040527f000000000000000000000000000000000000000000000000000000000000000081528181019283526040518093819263f17325e760e01b8352846004840152516024830152516040604483015260018060a01b0381511660648301526001600160401b03848201511660848301526040810151151560a4830152606081015160c483015260a0611131608083015160c060e4860152610124850190610ab9565b9101516101048301520381877f00000000000000000000000000000000000000000000000000000000000000006001600160a01b03165af19081156111d157849161119f575b507f4b5d781b1f4414459813c44d669c7821fcdec72a83b67c0303229be68d03ad05819480a3565b90506020813d6020116111c9575b816111ba60209383610c47565b8101031261014857515f611177565b3d91506111ad565b6040513d86823e3d90fd5b634e487b7160e01b86526041600452602486fd5b634e487b7160e01b88526041600452602488fd5b611211919c505f90610c47565b5f9a5f610fbd565b805f9172184f03e93ff9f4daa797ed6e38ed64bf6a1f0160401b821015611363575b806d04ee2d6d415b85acef8100000000600a921015611348575b662386f26fc10000811015611334575b6305f5e100811015611323575b612710811015611314575b6064811015611306575b10156112fb575b600a602160018401936112a085610c68565b946112ae6040519687610c47565b8086526112bd601f1991610c68565b013660208701378401015b5f1901916f181899199a1a9b1b9c1cb0b131b232b360811b8282061a83530480156112f657600a90916112c8565b505090565b60019091019061128e565b606460029104930192611287565b6127106004910493019261127d565b6305f5e10060089104930192611272565b662386f26fc1000060109104930192611265565b6d04ee2d6d415b85acef810000000060209104930192611255565b506040915072184f03e93ff9f4daa797ed6e38ed64bf6a1f0160401b810461123b565b7f00000000000000000000000000000000000000000000000000000000000000006001600160a01b031633036113b857565b634ca8886760e01b5f5260045ffd5b60e0013560018060a01b03811680910361014857301490565b51906001600160401b03821682036101485756fea2646970667358221220fc164fa34a412f3955bfa15c8bd88884e7a21dcf6540c57b8556c1c24192f17d64736f6c634300081c0033","linkReferences":{}},"methodIdentifiers":{"ATTESTATION_SCHEMA()":"5bf2f20d","attest((bytes32,bytes32,uint64,uint64,uint64,bytes32,address,address,bool,bytes))":"e60c3505","checkObligation((bytes32,bytes32,uint64,uint64,uint64,bytes32,address,address,bool,bytes),bytes,bytes32)":"e6c9714d","decodeObligationData(bytes)":"c93844be","doObligation((address,uint256,uint256,address))":"e665ba15","doObligationFor((address,uint256,uint256,address),address,address)":"6f0aa0de","doObligationForRaw(bytes,uint64,address,address,bytes32)":"f0ffa185","doObligationRaw(bytes,uint64,bytes32)":"b3b902d4","getObligationData(bytes32)":"c6ec5070","getSchema()":"6b122fe0","isPayable()":"ce46e046","multiAttest((bytes32,bytes32,uint64,uint64,uint64,bytes32,address,address,bool,bytes)[],uint256[])":"91db0b7e","multiRevoke((bytes32,bytes32,uint64,uint64,uint64,bytes32,address,address,bool,bytes)[],uint256[])":"88e5b2d9","revoke((bytes32,bytes32,uint64,uint64,uint64,bytes32,address,address,bool,bytes))":"e49617e1","version()":"54fd4d50"},"id":131}