{"abi":[{"type":"constructor","inputs":[{"name":"_eas","type":"address","internalType":"contract IEAS"},{"name":"_erc20Escrow","type":"address","internalType":"contract ERC20EscrowObligation"},{"name":"_erc20Payment","type":"address","internalType":"contract ERC20PaymentObligation"},{"name":"_erc721Escrow","type":"address","internalType":"contract ERC721EscrowObligation"},{"name":"_erc721Payment","type":"address","internalType":"contract ERC721PaymentObligation"},{"name":"_erc1155Escrow","type":"address","internalType":"contract ERC1155EscrowObligation"},{"name":"_erc1155Payment","type":"address","internalType":"contract ERC1155PaymentObligation"},{"name":"_bundleEscrow","type":"address","internalType":"contract TokenBundleEscrowObligation"},{"name":"_bundlePayment","type":"address","internalType":"contract TokenBundlePaymentObligation"}],"stateMutability":"nonpayable"},{"type":"function","name":"buyBundleWithErc1155","inputs":[{"name":"bidToken","type":"address","internalType":"address"},{"name":"bidTokenId","type":"uint256","internalType":"uint256"},{"name":"bidAmount","type":"uint256","internalType":"uint256"},{"name":"askData","type":"tuple","internalType":"struct TokenBundlePaymentObligation.ObligationData","components":[{"name":"erc20Tokens","type":"address[]","internalType":"address[]"},{"name":"erc20Amounts","type":"uint256[]","internalType":"uint256[]"},{"name":"erc721Tokens","type":"address[]","internalType":"address[]"},{"name":"erc721TokenIds","type":"uint256[]","internalType":"uint256[]"},{"name":"erc1155Tokens","type":"address[]","internalType":"address[]"},{"name":"erc1155TokenIds","type":"uint256[]","internalType":"uint256[]"},{"name":"erc1155Amounts","type":"uint256[]","internalType":"uint256[]"},{"name":"payee","type":"address","internalType":"address"}]},{"name":"expiration","type":"uint64","internalType":"uint64"}],"outputs":[{"name":"","type":"bytes32","internalType":"bytes32"}],"stateMutability":"nonpayable"},{"type":"function","name":"buyErc1155ForErc1155","inputs":[{"name":"bidToken","type":"address","internalType":"address"},{"name":"bidTokenId","type":"uint256","internalType":"uint256"},{"name":"bidAmount","type":"uint256","internalType":"uint256"},{"name":"askToken","type":"address","internalType":"address"},{"name":"askId","type":"uint256","internalType":"uint256"},{"name":"askAmount","type":"uint256","internalType":"uint256"},{"name":"expiration","type":"uint64","internalType":"uint64"}],"outputs":[{"name":"","type":"bytes32","internalType":"bytes32"}],"stateMutability":"nonpayable"},{"type":"function","name":"buyErc20WithErc1155","inputs":[{"name":"bidToken","type":"address","internalType":"address"},{"name":"bidTokenId","type":"uint256","internalType":"uint256"},{"name":"bidAmount","type":"uint256","internalType":"uint256"},{"name":"askToken","type":"address","internalType":"address"},{"name":"askAmount","type":"uint256","internalType":"uint256"},{"name":"expiration","type":"uint64","internalType":"uint64"}],"outputs":[{"name":"","type":"bytes32","internalType":"bytes32"}],"stateMutability":"nonpayable"},{"type":"function","name":"buyErc721WithErc1155","inputs":[{"name":"bidToken","type":"address","internalType":"address"},{"name":"bidTokenId","type":"uint256","internalType":"uint256"},{"name":"bidAmount","type":"uint256","internalType":"uint256"},{"name":"askToken","type":"address","internalType":"address"},{"name":"askTokenId","type":"uint256","internalType":"uint256"},{"name":"expiration","type":"uint64","internalType":"uint64"}],"outputs":[{"name":"","type":"bytes32","internalType":"bytes32"}],"stateMutability":"nonpayable"},{"type":"function","name":"payErc1155ForBundle","inputs":[{"name":"buyAttestation","type":"bytes32","internalType":"bytes32"}],"outputs":[{"name":"","type":"bytes32","internalType":"bytes32"}],"stateMutability":"nonpayable"},{"type":"function","name":"payErc1155ForErc1155","inputs":[{"name":"buyAttestation","type":"bytes32","internalType":"bytes32"}],"outputs":[{"name":"","type":"bytes32","internalType":"bytes32"}],"stateMutability":"nonpayable"},{"type":"function","name":"payErc1155ForErc20","inputs":[{"name":"buyAttestation","type":"bytes32","internalType":"bytes32"}],"outputs":[{"name":"","type":"bytes32","internalType":"bytes32"}],"stateMutability":"nonpayable"},{"type":"function","name":"payErc1155ForErc721","inputs":[{"name":"buyAttestation","type":"bytes32","internalType":"bytes32"}],"outputs":[{"name":"","type":"bytes32","internalType":"bytes32"}],"stateMutability":"nonpayable"},{"type":"error","name":"CouldntCollectEscrow","inputs":[]}],"bytecode":{"object":"0x6080346101ae57601f61138738819003918201601f19168301916001600160401b038311848410176101b257808492610120946040528339810103126101ae5780516001600160a01b03811691908290036101ae5760208101516001600160a01b038116908190036101ae5760408201516001600160a01b038116908190036101ae5760608301516001600160a01b03811691908290036101ae5760808401516001600160a01b03811693908490036101ae5760a08501516001600160a01b038116908190036101ae5760c08601516001600160a01b03811691908290036101ae5760e08701516001600160a01b03811697908890036101ae5761010001516001600160a01b03811698908990036101ae5760018060a01b03195f5416175f5560018060a01b0319600154161760015560018060a01b0319600254161760025560018060a01b0319600454161760045560018060a01b0319600354161760035560018060a01b0319600554161760055560018060a01b0319600654161760065560018060a01b0319600754161760075560018060a01b031960085416176008556040516111c090816101c78239f35b5f80fd5b634e487b7160e01b5f52604160045260245ffdfe6080806040526004361015610012575f80fd5b5f3560e01c90816301d71c0f14610b51575080631fa56b2014610b1357806333666e5f1461095e57806336bdb00c146107c35780636d1d261f146106e257806378a56f8f14610570578063af808a2a1461040b5763d7452d9014610074575f80fd5b346103895760203660031901126103895760043560245f60018060a01b03815416604051928380926328c44a9960e21b82528660048301525afa801561039557610120915f916103e9575b50015190815182016020810192602081830312610389576020810151906001600160401b0382116103895701906101209082900312610389576040519261012084018481106001600160401b038211176103d55760405261012260208301610d57565b845260408201516001600160401b0381116103895781602061014692850101610d78565b906020850191825260608301516001600160401b03811161038957816020610170928601016110c8565b604086015260808301516001600160401b038111610389578160206101979286010161112d565b606086015260a08301516001600160401b038111610389578160206101be928601016110c8565b608086015260c08301516001600160401b038111610389578160206101e59286010161112d565b60a086015260e08301516001600160401b0381116103895781602061020c928601016110c8565b60c08601526101008301516001600160401b038111610389578160206102349286010161112d565b60e0860152610120830151916001600160401b038311610389575f9561010061026961027b9460206102e0978199010161112d565b91015251838082518301019101610f39565b60025460408051633785506f60e11b815283516001600160a01b0390811660048301526020850151602483015291840151604482015260609093015181166064840152336084840181905260a4840152919586939290911691839190829060c4820190565b03925af1918215610395575f926103a0575b50600754604051632c713cd960e01b8152600481019290925260248201839052602090829060449082905f906001600160a01b03165af1908115610395575f91610357575b501561034857602090604051908152f35b63a97a981d60e01b5f5260045ffd5b90506020813d60201161038d575b8161037260209383610d22565b810103126103895761038390610d6b565b5f610337565b5f80fd5b3d9150610365565b6040513d5f823e3d90fd5b9091506020813d6020116103cd575b816103bc60209383610d22565b8101031261038957519060206102f2565b3d91506103af565b634e487b7160e01b5f52604160045260245ffd5b61040591503d805f833e6103fd8183610d22565b810190610dcd565b5f6100bf565b346103895760203660031901126103895760246004355f60018060a01b03815416604051938480926328c44a9960e21b82528560048301525afa80156103955761048561027b602061047561012082955f988991610556575b500151828082518301019101610eb9565b0151838082518301019101610f39565b03925af1918215610395575f92610521575b5060205f91604460018060a01b0360045416916040519485938492632c713cd960e01b845260048401528760248401525af1908115610395575f916104e757501561034857602090604051908152f35b90506020813d602011610519575b8161050260209383610d22565b810103126103895761051390610d6b565b82610337565b3d91506104f5565b9091506020813d60201161054e575b8161053d60209383610d22565b810103126103895751906020610497565b3d9150610530565b61056a91503d808b833e6103fd8183610d22565b89610464565b346103895760e036600319011261038957610589610c51565b6064356001600160a01b038116908190036103895760c4356001600160401b038116810361038957600154600254604051610693956020956001600160a01b0394851694909316929091906105dd82610d07565b81526084358682015260a4356040820152336060820152610633604051918783019060609060018060a01b03815116835260208101516020840152604081015160408401528160018060a01b0391015116910152565b6080815261064260a082610d22565b6040519261064f84610cec565b83528583015260018060a01b03166040820152602435606082015260443560808201525f6040518096819582946303dc9f3560e41b84523391339160048601610f83565b03925af18015610395575f906106af575b602090604051908152f35b506020813d6020116106da575b816106c960209383610d22565b8101031261038957602090516106a4565b3d91506106bc565b346103895761069360206106f536610c7b565b60015460035460405192976001600160a01b0392831697929091169594919390929161072083610cd1565b60018060a01b0316825288820152336040820152610769604051918983019060409060018060a01b038151168352602081015160208401528160018060a01b0391015116910152565b60608152610778608082610d22565b6040519461078586610cec565b85528785015260018060a01b03166040840152606083015260808201525f6040518096819582946303dc9f3560e41b84523391339160048601610f83565b346103895760a0366003190112610389576107dc610c51565b606435906001600160401b0382116103895781600401610100600319843603011261038957608435906001600160401b0382168203610389576106939360209361093361064260018060a01b03600154169460018060a01b0360085416946040519384928a808501526109206109156108f66108d76108b861089961087a8a604061010061086a8b8061101a565b92909301526101408d019161104e565b61088760248b018961101a565b8c8303603f190160608e01529061108d565b6108a660448a018861101a565b8b8303603f190160808d01529061104e565b6108c5606489018761101a565b8a8303603f190160a08c01529061108d565b6108e4608488018661101a565b898303603f190160c08b01529061104e565b61090360a487018561101a565b888303603f190160e08a01529061108d565b9160c485019061101a565b858303603f19016101008701529061108d565b906001600160a01b03906109499060e401610c67565b1661012083015203601f198101835282610d22565b346103895760203660031901126103895760043560245f60018060a01b03815416604051928380926328c44a9960e21b82528660048301525afa801561039557610120915f91610af9575b500151908151820191602081840312610389576020810151906001600160401b03821161038957019160a08382031261038957604051906109e982610cec565b6109f560208501610d57565b825260408401516001600160401b038111610389575f94602093608060a0610a2a61027b958880610a5d990191870101610d78565b938488850152610a3c60608201610d57565b60408501528281015160608501520151910152838082518301019101610f39565b03925af1918215610395575f92610ac4575b50600154604051632c713cd960e01b8152600481019290925260248201839052602090829060449082905f906001600160a01b03165af1908115610395575f916104e757501561034857602090604051908152f35b9091506020813d602011610af1575b81610ae060209383610d22565b810103126103895751906020610a6f565b3d9150610ad3565b610b0d91503d805f833e6103fd8183610d22565b836109a9565b34610389576106936020610b2636610c7b565b60015460065460405192976001600160a01b0392831697929091169594919390929161072083610cd1565b34610389576020366003190112610389576004355f8260248160018060a01b038454166328c44a9960e21b82528560048301525afa801561039557610bb561027b602061047561012082955f98899161055657500151828082518301019101610eb9565b03925af1918215610395575f92610c1c575b50600554604051632c713cd960e01b8152600481019290925260248201839052602090829060449082905f906001600160a01b03165af1908115610395575f916104e757501561034857602090604051908152f35b9091506020813d602011610c49575b81610c3860209383610d22565b810103126103895751906020610bc7565b3d9150610c2b565b600435906001600160a01b038216820361038957565b35906001600160a01b038216820361038957565b60c0906003190112610389576004356001600160a01b0381168103610389579060243590604435906064356001600160a01b038116810361038957906084359060a4356001600160401b03811681036103895790565b606081019081106001600160401b038211176103d557604052565b60a081019081106001600160401b038211176103d557604052565b608081019081106001600160401b038211176103d557604052565b90601f801991011681019081106001600160401b038211176103d557604052565b51906001600160401b038216820361038957565b51906001600160a01b038216820361038957565b5190811515820361038957565b81601f82011215610389578051906001600160401b0382116103d55760405192610dac601f8401601f191660200185610d22565b8284526020838301011161038957815f9260208093018386015e8301015290565b602081830312610389578051906001600160401b038211610389570161014081830312610389576040519161014083018381106001600160401b038211176103d5576040528151835260208201516020840152610e2c60408301610d43565b6040840152610e3d60608301610d43565b6060840152610e4e60808301610d43565b608084015260a082015160a0840152610e6960c08301610d57565b60c0840152610e7a60e08301610d57565b60e0840152610e8c6101008301610d6b565b6101008401526101208201516001600160401b03811161038957610eb09201610d78565b61012082015290565b602081830312610389578051906001600160401b0382116103895701906080828203126103895760405191610eed83610d07565b610ef681610d57565b835260208101516001600160401b03811161038957606092610f19918301610d78565b6020840152610f2a60408201610d57565b60408401520151606082015290565b9081608091031261038957610f7b606060405192610f5684610d07565b610f5f81610d57565b8452602081015160208501526040810151604085015201610d57565b606082015290565b926001600160401b036101406020608060609699989581895260018060a01b03815116828a01528281015160a0808b01528051938491826101208d015201858b015e5f84848b01015260018060a01b0360408201511660c08a01528781015160e08a01520151610100880152601f80199101168601019616602085015260018060a01b0316604084015260018060a01b0316910152565b9035601e19823603018112156103895701602081359101916001600160401b038211610389578160051b3603831361038957565b916020908281520191905f5b8181106110675750505090565b909192602080600192838060a01b0361107f88610c67565b16815201940192910161105a565b81835290916001600160fb1b0383116103895760209260051b809284830137010190565b6001600160401b0381116103d55760051b60200190565b9080601f830112156103895781516110df816110b1565b926110ed6040519485610d22565b81845260208085019260051b82010192831161038957602001905b8282106111155750505090565b6020809161112284610d57565b815201910190611108565b9080601f83011215610389578151611144816110b1565b926111526040519485610d22565b81845260208085019260051b82010192831161038957602001905b82821061117a5750505090565b815181526020918201910161116d56fea264697066735822122046c29a851a224e4264c0cd6f63ae33b94050097d145cc7849d13bd9306dbc89164736f6c634300081c0033","linkReferences":{}},"methodIdentifiers":{"buyBundleWithErc1155(address,uint256,uint256,(address[],uint256[],address[],uint256[],address[],uint256[],uint256[],address),uint64)":"36bdb00c","buyErc1155ForErc1155(address,uint256,uint256,address,uint256,uint256,uint64)":"78a56f8f","buyErc20WithErc1155(address,uint256,uint256,address,uint256,uint64)":"6d1d261f","buyErc721WithErc1155(address,uint256,uint256,address,uint256,uint64)":"1fa56b20","payErc1155ForBundle(bytes32)":"d7452d90","payErc1155ForErc1155(bytes32)":"33666e5f","payErc1155ForErc20(bytes32)":"af808a2a","payErc1155ForErc721(bytes32)":"01d71c0f"},"id":142}