{"abi":[{"type":"constructor","inputs":[{"name":"_eas","type":"address","internalType":"contract IEAS"},{"name":"_schemaRegistry","type":"address","internalType":"contract ISchemaRegistry"}],"stateMutability":"nonpayable"},{"type":"receive","stateMutability":"payable"},{"type":"function","name":"ATTESTATION_SCHEMA","inputs":[],"outputs":[{"name":"","type":"bytes32","internalType":"bytes32"}],"stateMutability":"view"},{"type":"function","name":"attest","inputs":[{"name":"attestation","type":"tuple","internalType":"struct Attestation","components":[{"name":"uid","type":"bytes32","internalType":"bytes32"},{"name":"schema","type":"bytes32","internalType":"bytes32"},{"name":"time","type":"uint64","internalType":"uint64"},{"name":"expirationTime","type":"uint64","internalType":"uint64"},{"name":"revocationTime","type":"uint64","internalType":"uint64"},{"name":"refUID","type":"bytes32","internalType":"bytes32"},{"name":"recipient","type":"address","internalType":"address"},{"name":"attester","type":"address","internalType":"address"},{"name":"revocable","type":"bool","internalType":"bool"},{"name":"data","type":"bytes","internalType":"bytes"}]}],"outputs":[{"name":"","type":"bool","internalType":"bool"}],"stateMutability":"payable"},{"type":"function","name":"checkObligation","inputs":[{"name":"obligation","type":"tuple","internalType":"struct Attestation","components":[{"name":"uid","type":"bytes32","internalType":"bytes32"},{"name":"schema","type":"bytes32","internalType":"bytes32"},{"name":"time","type":"uint64","internalType":"uint64"},{"name":"expirationTime","type":"uint64","internalType":"uint64"},{"name":"revocationTime","type":"uint64","internalType":"uint64"},{"name":"refUID","type":"bytes32","internalType":"bytes32"},{"name":"recipient","type":"address","internalType":"address"},{"name":"attester","type":"address","internalType":"address"},{"name":"revocable","type":"bool","internalType":"bool"},{"name":"data","type":"bytes","internalType":"bytes"}]},{"name":"demand","type":"bytes","internalType":"bytes"},{"name":"","type":"bytes32","internalType":"bytes32"}],"outputs":[{"name":"","type":"bool","internalType":"bool"}],"stateMutability":"view"},{"type":"function","name":"collectEscrow","inputs":[{"name":"escrow","type":"bytes32","internalType":"bytes32"},{"name":"fulfillment","type":"bytes32","internalType":"bytes32"}],"outputs":[{"name":"","type":"bool","internalType":"bool"}],"stateMutability":"nonpayable"},{"type":"function","name":"collectEscrowRaw","inputs":[{"name":"_escrow","type":"bytes32","internalType":"bytes32"},{"name":"_fulfillment","type":"bytes32","internalType":"bytes32"}],"outputs":[{"name":"","type":"bytes","internalType":"bytes"}],"stateMutability":"nonpayable"},{"type":"function","name":"decodeObligationData","inputs":[{"name":"data","type":"bytes","internalType":"bytes"}],"outputs":[{"name":"","type":"tuple","internalType":"struct ERC20EscrowObligation.ObligationData","components":[{"name":"arbiter","type":"address","internalType":"address"},{"name":"demand","type":"bytes","internalType":"bytes"},{"name":"token","type":"address","internalType":"address"},{"name":"amount","type":"uint256","internalType":"uint256"}]}],"stateMutability":"pure"},{"type":"function","name":"doObligation","inputs":[{"name":"data","type":"tuple","internalType":"struct ERC20EscrowObligation.ObligationData","components":[{"name":"arbiter","type":"address","internalType":"address"},{"name":"demand","type":"bytes","internalType":"bytes"},{"name":"token","type":"address","internalType":"address"},{"name":"amount","type":"uint256","internalType":"uint256"}]},{"name":"expirationTime","type":"uint64","internalType":"uint64"}],"outputs":[{"name":"","type":"bytes32","internalType":"bytes32"}],"stateMutability":"nonpayable"},{"type":"function","name":"doObligationFor","inputs":[{"name":"data","type":"tuple","internalType":"struct ERC20EscrowObligation.ObligationData","components":[{"name":"arbiter","type":"address","internalType":"address"},{"name":"demand","type":"bytes","internalType":"bytes"},{"name":"token","type":"address","internalType":"address"},{"name":"amount","type":"uint256","internalType":"uint256"}]},{"name":"expirationTime","type":"uint64","internalType":"uint64"},{"name":"payer","type":"address","internalType":"address"},{"name":"recipient","type":"address","internalType":"address"}],"outputs":[{"name":"","type":"bytes32","internalType":"bytes32"}],"stateMutability":"nonpayable"},{"type":"function","name":"doObligationForRaw","inputs":[{"name":"data","type":"bytes","internalType":"bytes"},{"name":"expirationTime","type":"uint64","internalType":"uint64"},{"name":"payer","type":"address","internalType":"address"},{"name":"recipient","type":"address","internalType":"address"},{"name":"refUID","type":"bytes32","internalType":"bytes32"}],"outputs":[{"name":"uid_","type":"bytes32","internalType":"bytes32"}],"stateMutability":"nonpayable"},{"type":"function","name":"doObligationRaw","inputs":[{"name":"data","type":"bytes","internalType":"bytes"},{"name":"expirationTime","type":"uint64","internalType":"uint64"},{"name":"refUID","type":"bytes32","internalType":"bytes32"}],"outputs":[{"name":"uid_","type":"bytes32","internalType":"bytes32"}],"stateMutability":"nonpayable"},{"type":"function","name":"extractArbiterAndDemand","inputs":[{"name":"data","type":"bytes","internalType":"bytes"}],"outputs":[{"name":"arbiter","type":"address","internalType":"address"},{"name":"demand","type":"bytes","internalType":"bytes"}],"stateMutability":"pure"},{"type":"function","name":"getObligationData","inputs":[{"name":"uid","type":"bytes32","internalType":"bytes32"}],"outputs":[{"name":"","type":"tuple","internalType":"struct ERC20EscrowObligation.ObligationData","components":[{"name":"arbiter","type":"address","internalType":"address"},{"name":"demand","type":"bytes","internalType":"bytes"},{"name":"token","type":"address","internalType":"address"},{"name":"amount","type":"uint256","internalType":"uint256"}]}],"stateMutability":"view"},{"type":"function","name":"getSchema","inputs":[],"outputs":[{"name":"","type":"tuple","internalType":"struct SchemaRecord","components":[{"name":"uid","type":"bytes32","internalType":"bytes32"},{"name":"resolver","type":"address","internalType":"contract ISchemaResolver"},{"name":"revocable","type":"bool","internalType":"bool"},{"name":"schema","type":"string","internalType":"string"}]}],"stateMutability":"view"},{"type":"function","name":"isPayable","inputs":[],"outputs":[{"name":"","type":"bool","internalType":"bool"}],"stateMutability":"pure"},{"type":"function","name":"multiAttest","inputs":[{"name":"attestations","type":"tuple[]","internalType":"struct Attestation[]","components":[{"name":"uid","type":"bytes32","internalType":"bytes32"},{"name":"schema","type":"bytes32","internalType":"bytes32"},{"name":"time","type":"uint64","internalType":"uint64"},{"name":"expirationTime","type":"uint64","internalType":"uint64"},{"name":"revocationTime","type":"uint64","internalType":"uint64"},{"name":"refUID","type":"bytes32","internalType":"bytes32"},{"name":"recipient","type":"address","internalType":"address"},{"name":"attester","type":"address","internalType":"address"},{"name":"revocable","type":"bool","internalType":"bool"},{"name":"data","type":"bytes","internalType":"bytes"}]},{"name":"values","type":"uint256[]","internalType":"uint256[]"}],"outputs":[{"name":"","type":"bool","internalType":"bool"}],"stateMutability":"payable"},{"type":"function","name":"multiRevoke","inputs":[{"name":"attestations","type":"tuple[]","internalType":"struct Attestation[]","components":[{"name":"uid","type":"bytes32","internalType":"bytes32"},{"name":"schema","type":"bytes32","internalType":"bytes32"},{"name":"time","type":"uint64","internalType":"uint64"},{"name":"expirationTime","type":"uint64","internalType":"uint64"},{"name":"revocationTime","type":"uint64","internalType":"uint64"},{"name":"refUID","type":"bytes32","internalType":"bytes32"},{"name":"recipient","type":"address","internalType":"address"},{"name":"attester","type":"address","internalType":"address"},{"name":"revocable","type":"bool","internalType":"bool"},{"name":"data","type":"bytes","internalType":"bytes"}]},{"name":"values","type":"uint256[]","internalType":"uint256[]"}],"outputs":[{"name":"","type":"bool","internalType":"bool"}],"stateMutability":"payable"},{"type":"function","name":"reclaimExpired","inputs":[{"name":"uid","type":"bytes32","internalType":"bytes32"}],"outputs":[{"name":"","type":"bool","internalType":"bool"}],"stateMutability":"nonpayable"},{"type":"function","name":"revoke","inputs":[{"name":"attestation","type":"tuple","internalType":"struct Attestation","components":[{"name":"uid","type":"bytes32","internalType":"bytes32"},{"name":"schema","type":"bytes32","internalType":"bytes32"},{"name":"time","type":"uint64","internalType":"uint64"},{"name":"expirationTime","type":"uint64","internalType":"uint64"},{"name":"revocationTime","type":"uint64","internalType":"uint64"},{"name":"refUID","type":"bytes32","internalType":"bytes32"},{"name":"recipient","type":"address","internalType":"address"},{"name":"attester","type":"address","internalType":"address"},{"name":"revocable","type":"bool","internalType":"bool"},{"name":"data","type":"bytes","internalType":"bytes"}]}],"outputs":[{"name":"","type":"bool","internalType":"bool"}],"stateMutability":"payable"},{"type":"function","name":"version","inputs":[],"outputs":[{"name":"","type":"string","internalType":"string"}],"stateMutability":"view"},{"type":"event","name":"EscrowCollected","inputs":[{"name":"escrow","type":"bytes32","indexed":true,"internalType":"bytes32"},{"name":"fulfillment","type":"bytes32","indexed":true,"internalType":"bytes32"},{"name":"fulfiller","type":"address","indexed":true,"internalType":"address"}],"anonymous":false},{"type":"event","name":"EscrowMade","inputs":[{"name":"escrow","type":"bytes32","indexed":true,"internalType":"bytes32"},{"name":"buyer","type":"address","indexed":true,"internalType":"address"}],"anonymous":false},{"type":"error","name":"AccessDenied","inputs":[]},{"type":"error","name":"AttestationNotFound","inputs":[{"name":"attestationId","type":"bytes32","internalType":"bytes32"}]},{"type":"error","name":"AttestationRevoked","inputs":[]},{"type":"error","name":"DeadlineExpired","inputs":[]},{"type":"error","name":"ERC20TransferFailed","inputs":[{"name":"token","type":"address","internalType":"address"},{"name":"from","type":"address","internalType":"address"},{"name":"to","type":"address","internalType":"address"},{"name":"amount","type":"uint256","internalType":"uint256"}]},{"type":"error","name":"InsufficientValue","inputs":[]},{"type":"error","name":"InvalidEAS","inputs":[]},{"type":"error","name":"InvalidEscrowAttestation","inputs":[]},{"type":"error","name":"InvalidFulfillment","inputs":[]},{"type":"error","name":"InvalidLength","inputs":[]},{"type":"error","name":"InvalidSchema","inputs":[]},{"type":"error","name":"NotFromThisAttester","inputs":[]},{"type":"error","name":"NotPayable","inputs":[]},{"type":"error","name":"RevocationFailed","inputs":[{"name":"attestationId","type":"bytes32","internalType":"bytes32"}]},{"type":"error","name":"UnauthorizedCall","inputs":[]}],"bytecode":{"object":"0x61016080604052346101f857604081611ee580380380916100208285610232565b8339810103126101f85780516001600160a01b038116918282036101f85760200151916001600160a01b0383168084036101f857604051606081016001600160401b0381118282101761021e57604052603c815260208101927f6164647265737320617262697465722c2062797465732064656d616e642c206184527f64647265737320746f6b656e2c2075696e7432353620616d6f756e740000000060408301526001608052600460a0525f60c0521561020f576084948460209560e05261012052610100525f604051958680958194630c1af44f60e31b8352606060048401525180918160648501528484015e818101830184905230602483015260016044830152601f01601f191681010301925af1908115610204575f916101ce575b5061014052604051611c8f9081610256823960805181610a0c015260a05181610a37015260c05181610a62015260e05181611ba60152610100518161088e0152610120518181816103c30152818161068c0152818161126701526119260152610140518181816104030152818161085c015281816109ca015281816114460152818161169b01526118790152f35b90506020813d6020116101fc575b816101e960209383610232565b810103126101f857515f610140565b5f80fd5b3d91506101dc565b6040513d5f823e3d90fd5b6341bc07ff60e11b5f5260045ffd5b634e487b7160e01b5f52604160045260245ffd5b601f909101601f19168101906001600160401b0382119082101761021e5760405256fe60806040526004361015610027575b3615610018575f80fd5b631574f9f360e01b5f5260045ffd5b5f3560e01c80632c713cd914610b6a5780633ce55d0214610adb57806354fd4d50146109ed5780635bf2f20d146109b35780636b122fe01461081d5780637d2c2931146106545780638371ef59146105f657806388e5b2d9146105a9578063891d9ea8146105c857806391db0b7e146105a9578063a4f0d517146104d5578063b3b902d41461048a578063c6ec507014610384578063c93844be146102b7578063ce46e0461461029d578063e49617e114610282578063e60c350514610282578063e6c9714d146101605763f0ffa1850361000e573461015c5760a036600319011261015c576004356001600160401b03811161015c576101546101316020923690600401610da1565b610139610b9d565b610141610bc7565b9061014a610bdd565b926084359461178a565b604051908152f35b5f80fd5b3461015c57606036600319011261015c576004356001600160401b03811161015c57610140600319823603011261015c576040519061019e82610c5a565b80600401358252602481013560208301526101bb60448201610bb3565b60408301526101cc60648201610bb3565b60608301526101dd60848201610bb3565b608083015260a481013560a08301526101f860c48201610bf3565b60c083015261020960e48201610bf3565b60e0830152610104810135801515810361015c57610100830152610124810135906001600160401b03821161015c5760046102479236920101610d03565b6101208201526024356001600160401b03811161015c57602091610272610278923690600401610d03565b90611699565b6040519015158152f35b602061027861029036610e18565b610298611ba4565b611be5565b3461015c575f36600319011261015c5760206040515f8152f35b3461015c57602036600319011261015c576004356001600160401b03811161015c576102e7903690600401610da1565b6102ef611675565b5081019060208183031261015c578035906001600160401b03821161015c57019060808282031261015c576040519061032782610c2b565b61033083610bf3565b82526020830135926001600160401b03841161015c57610357606092610380958301610d03565b602084015261036860408201610bf3565b60408401520135606082015260405191829182610dce565b0390f35b3461015c57602036600319011261015c5761039d611675565b506103a6610f6a565b506040516328c44a9960e21b815260048035908201525f816024817f00000000000000000000000000000000000000000000000000000000000000006001600160a01b03165afa90811561047f575f9161045d575b5060208101517f00000000000000000000000000000000000000000000000000000000000000000361044e57610442610120610380920151602080825183010191016110d1565b60405191829182610dce565b635527981560e11b5f5260045ffd5b61047991503d805f833e6104718183610c91565b810190610ff6565b816103fb565b6040513d5f823e3d90fd5b3461015c57606036600319011261015c576004356001600160401b03811161015c576101546104bf6020923690600401610da1565b6104c7610b9d565b91604435923392339261178a565b3461015c57604036600319011261015c576004356001600160401b03811161015c576080600319823603011261015c5760206105589161052b610539610519610b9d565b92604051928391600401868301610e4c565b03601f198101835282610c91565b60405163f0ffa18560e01b815293849283923391829160048601610ee4565b03815f305af1801561047f575f90610576575b602090604051908152f35b506020813d6020116105a1575b8161059060209383610c91565b8101031261015c576020905161056b565b3d9150610583565b60206102786105b736610d51565b926105c3929192611ba4565b6111c1565b3461015c576103806105e26105dc36610b87565b9061123d565b604051918291602083526020830190610c07565b3461015c57602036600319011261015c576004356001600160401b03811161015c5761062961062e913690600401610d03565b611151565b604080516001600160a01b03909316835260208301819052829161038091830190610c07565b3461015c57602036600319011261015c57600435610670610f6a565b506040516328c44a9960e21b8152600481018290525f816024817f00000000000000000000000000000000000000000000000000000000000000006001600160a01b03165afa5f9181610801575b506106d657506301fb6dd160e01b5f5260045260245ffd5b6001600160401b0360608201511642106107f2576107116101208201519160c060018060a01b039101511691602080825183010191016110d1565b6040818101805160609093018051925163a9059cbb60e01b81526001600160a01b0386811660048301526024820194909452909391929091602091839160449183915f91165af15f91816107b6575b506107b157505f5b1561077857602060405160018152f35b519051604051634a73404560e11b81526001600160a01b0392831660048201523060248201529290911660448301526064820152608490fd5b610768565b9091506020813d6020116107ea575b816107d260209383610c91565b8101031261015c576107e390610f27565b9085610760565b3d91506107c5565b637bf6a16f60e01b5f5260045ffd5b6108169192503d805f833e6104718183610c91565b90836106be565b3461015c575f36600319011261015c5760608060405161083c81610c2b565b5f81525f60208201525f604082015201526040516351753e3760e11b81527f000000000000000000000000000000000000000000000000000000000000000060048201525f8160248160018060a01b037f0000000000000000000000000000000000000000000000000000000000000000165afa801561047f575f90610903575b606090610380604051928392602084528051602085015260018060a01b0360208201511660408501526040810151151582850152015160808084015260a0830190610c07565b503d805f833e6109138183610c91565b81019060208183031261015c578051906001600160401b03821161015c570160808183031261015c576040519061094982610c2b565b8051825260208101516001600160a01b038116810361015c57602083015261097360408201610f27565b60408301526060810151906001600160401b03821161015c570182601f8201121561015c576060928160206109aa93519101610f34565b828201526108bd565b3461015c575f36600319011261015c5760206040517f00000000000000000000000000000000000000000000000000000000000000008152f35b3461015c575f36600319011261015c5761038060206105e26001610a307f0000000000000000000000000000000000000000000000000000000000000000611a37565b8184610a5b7f0000000000000000000000000000000000000000000000000000000000000000611a37565b8180610a867f0000000000000000000000000000000000000000000000000000000000000000611a37565b9260405199878b985191829101848a015e870190601760f91b83830152805192839101602183015e010190601760f91b84830152805192839101600283015e01015f838201520301601f198101835282610c91565b3461015c57608036600319011261015c576004356001600160401b03811161015c576080600319823603011261015c576020610b15610b9d565b610b41610558610b23610bc7565b94610b4f610b2f610bdd565b91604051948591600401888301610e4c565b03601f198101855284610c91565b60405163f0ffa18560e01b8152958694859460048601610ee4565b3461015c57610b7b6105dc36610b87565b50602060405160018152f35b604090600319011261015c576004359060243590565b602435906001600160401b038216820361015c57565b35906001600160401b038216820361015c57565b604435906001600160a01b038216820361015c57565b606435906001600160a01b038216820361015c57565b35906001600160a01b038216820361015c57565b805180835260209291819084018484015e5f828201840152601f01601f1916010190565b608081019081106001600160401b03821117610c4657604052565b634e487b7160e01b5f52604160045260245ffd5b61014081019081106001600160401b03821117610c4657604052565b604081019081106001600160401b03821117610c4657604052565b90601f801991011681019081106001600160401b03821117610c4657604052565b6001600160401b038111610c4657601f01601f191660200190565b929192610cd982610cb2565b91610ce76040519384610c91565b82948184528183011161015c578281602093845f960137010152565b9080601f8301121561015c57816020610d1e93359101610ccd565b90565b9181601f8401121561015c578235916001600160401b03831161015c576020808501948460051b01011161015c57565b604060031982011261015c576004356001600160401b03811161015c5781610d7b91600401610d21565b92909291602435906001600160401b03821161015c57610d9d91600401610d21565b9091565b9181601f8401121561015c578235916001600160401b03831161015c576020838186019501011161015c57565b6020815260018060a01b03825116602082015260806060610dfd602085015183604086015260a0850190610c07565b60408501516001600160a01b03168483015293015191015290565b602060031982011261015c57600435906001600160401b03821161015c5761014090829003600319011261015c5760040190565b602081526001600160a01b03610e6183610bf3565b1660208201526020820135601e198336030181121561015c5782016020813591016001600160401b03821161015c57813603811361015c5760c09382606092608060408701528160a0870152868601375f8484018601526001600160a01b03610ecc60408301610bf3565b168483015201356080830152601f01601f1916010190565b90935f936001600160401b03610f06608095989760a0865260a0860190610c07565b971660208401526001600160a01b0390811660408401521660608201520152565b5190811515820361015c57565b929192610f4082610cb2565b91610f4e6040519384610c91565b82948184528183011161015c578281602093845f96015e010152565b60405190610f7782610c5a565b6060610120835f81525f60208201525f60408201525f838201525f60808201525f60a08201525f60c08201525f60e08201525f6101008201520152565b51906001600160401b038216820361015c57565b51906001600160a01b038216820361015c57565b9080601f8301121561015c578151610d1e92602001610f34565b60208183031261015c578051906001600160401b03821161015c57016101408183031261015c576040519161102a83610c5a565b815183526020820151602084015261104460408301610fb4565b604084015261105560608301610fb4565b606084015261106660808301610fb4565b608084015260a082015160a084015261108160c08301610fc8565b60c084015261109260e08301610fc8565b60e08401526110a46101008301610f27565b6101008401526101208201516001600160401b03811161015c576110c89201610fdc565b61012082015290565b60208183031261015c578051906001600160401b03821161015c57019060808282031261015c576040519161110583610c2b565b61110e81610fc8565b835260208101516001600160401b03811161015c57606092611131918301610fdc565b602084015261114260408201610fc8565b60408401520151606082015290565b61116490602080825183010191016110d1565b80516020909101516001600160a01b0390911691565b919081101561118a5760051b0190565b634e487b7160e01b5f52603260045260245ffd5b919081101561118a5760051b8101359061013e198136030182121561015c570190565b9290919281830361122e575f91345b8484106111e257505050505050600190565b6111ed84838861117a565b3581811161121f5761120361029886888761119e565b1561121457600191039301926111d0565b505050505050505f90565b63044044a560e21b5f5260045ffd5b63251f56a160e21b5f5260045ffd5b915f611247610f6a565b50611250610f6a565b506040516328c44a9960e21b8152600481018590527f00000000000000000000000000000000000000000000000000000000000000006001600160a01b0316905f81602481855afa5f9181611659575b506112b857856301fb6dd160e01b5f5260045260245ffd5b94919293946040516328c44a9960e21b81528660048201525f81602481865afa5f918161163d575b506112f857866301fb6dd160e01b5f5260045260245ffd5b9591929394959261130882611bfe565b1561162e576113e760206101208085019460c0886113f96113298951611151565b91909451916040519889978896879663e6c9714d60e01b885260606004890152805160648901528b81015160848901526001600160401b0360408201511660a48901526001600160401b0360608201511660c48901526001600160401b0360808201511660e489015260a0810151610104890152019e8f60018060a01b0390511661012488015260018060a01b0360e082015116610144880152610100810151151561016488015201516101406101848701526101a4860190610c07565b84810360031901602486015290610c07565b604483019190915203916001600160a01b03165afa90811561047f575f916115f4575b50156115e55760405161142e81610c76565b8581525f60208201526040519061144482610c76565b7f0000000000000000000000000000000000000000000000000000000000000000825260208201908152823b1561015c5760645f92836020956040519687958694634692626760e01b86525160048601525180516024860152015160448401525af190816115d0575b506114c65763614cf93960e01b85526004849052602485fd5b9392909193516114e960018060a01b0386511691602080825183010191016110d1565b6040818101805160609093018051925163a9059cbb60e01b81526001600160a01b0386811660048301526024820194909452909391929091602091839160449183918c91165af1879181611590575b5061158b5750855b15610778575050507ff96e77bc177ae8e2ff25185e7c6d85f8ba97c8bdd9d46933aac70a7a33edf6c060405194611578602087610c91565b848652516001600160a01b03169380a490565b611540565b9091506020813d6020116115c8575b816115ac60209383610c91565b810103126115c4576115bd90610f27565b905f611538565b8780fd5b3d915061159f565b6115dd9196505f90610c91565b5f945f6114ad565b630ebe58ef60e11b5f5260045ffd5b90506020813d602011611626575b8161160f60209383610c91565b8101031261015c5761162090610f27565b5f61141c565b3d9150611602565b63629cd40b60e11b5f5260045ffd5b6116529192503d805f833e6104718183610c91565b905f6112e0565b61166e9192503d805f833e6104718183610c91565b905f6112a0565b6040519061168282610c2b565b5f6060838281528160208201528260408201520152565b7f000000000000000000000000000000000000000000000000000000000000000060208201510361177b576116cd81611bfe565b15611775576116ed6101206116fd920151602080825183010191016110d1565b91602080825183010191016110d1565b604082810151908201516001600160a01b039081169116149182611761575b82611748575b8261172c57505090565b6020919250810151818151910120910151602081519101201490565b805182516001600160a01b039081169116149250611722565b91506060820151606082015111159161171c565b50505f90565b635f9bd90760e11b5f5260045ffd5b91939594926117ac61179d368486610ccd565b602080825183010191016110d1565b90604082015f6020606060018060a01b038451169501946064865160405194859384926323b872dd60e01b845260018060a01b038a16600485015230602485015260448401525af15f91816119fb575b506119f657505f5b156119ba5750505090611818913691610ccd565b906040519460c08601908682106001600160401b03831117610c46576001600160401b039160405260018060a01b03169384875216602086015260016040860152606085015260808401525f60a0840152602060405161187781610c76565b7f000000000000000000000000000000000000000000000000000000000000000081528181019485526040518095819263f17325e760e01b8352846004840152516024830152516040604483015260018060a01b0381511660648301526001600160401b03848201511660848301526040810151151560a4830152606081015160c483015260a0611918608083015160c060e4860152610124850190610c07565b91015161010483015203815f7f00000000000000000000000000000000000000000000000000000000000000006001600160a01b03165af192831561047f575f93611986575b50827f8f7f2dbafd79125e808bf16a53d7fa4e17b8b6374ced76d946a45f94b7bf4d065f80a3565b9092506020813d6020116119b2575b816119a260209383610c91565b8101031261015c5751915f61195e565b3d9150611995565b519151604051634a73404560e11b81526001600160a01b0393841660048201529190921660248201523060448201526064810191909152608490fd5b611804565b9091506020813d602011611a2f575b81611a1760209383610c91565b8101031261015c57611a2890610f27565b905f6117fc565b3d9150611a0a565b805f9172184f03e93ff9f4daa797ed6e38ed64bf6a1f0160401b821015611b81575b806d04ee2d6d415b85acef8100000000600a921015611b66575b662386f26fc10000811015611b52575b6305f5e100811015611b41575b612710811015611b32575b6064811015611b24575b1015611b19575b600a60216001840193611abe85610cb2565b94611acc6040519687610c91565b808652611adb601f1991610cb2565b013660208701378401015b5f1901916f181899199a1a9b1b9c1cb0b131b232b360811b8282061a8353048015611b1457600a9091611ae6565b505090565b600190910190611aac565b606460029104930192611aa5565b61271060049104930192611a9b565b6305f5e10060089104930192611a90565b662386f26fc1000060109104930192611a83565b6d04ee2d6d415b85acef810000000060209104930192611a73565b506040915072184f03e93ff9f4daa797ed6e38ed64bf6a1f0160401b8104611a59565b7f00000000000000000000000000000000000000000000000000000000000000006001600160a01b03163303611bd657565b634ca8886760e01b5f5260045ffd5b60e0013560018060a01b03811680910361015c57301490565b6001600160401b036060820151168015159081611c4f575b50611c4057608001516001600160401b0316611c3157600190565b637b6227e960e11b5f5260045ffd5b631ab7da6b60e01b5f5260045ffd5b905042115f611c1656fea26469706673582212202e54c348aeca8664d7ce9ef819b24754ae8d1898f002ca0eac11f5c4dc27810564736f6c634300081c0033","linkReferences":{}},"methodIdentifiers":{"ATTESTATION_SCHEMA()":"5bf2f20d","attest((bytes32,bytes32,uint64,uint64,uint64,bytes32,address,address,bool,bytes))":"e60c3505","checkObligation((bytes32,bytes32,uint64,uint64,uint64,bytes32,address,address,bool,bytes),bytes,bytes32)":"e6c9714d","collectEscrow(bytes32,bytes32)":"2c713cd9","collectEscrowRaw(bytes32,bytes32)":"891d9ea8","decodeObligationData(bytes)":"c93844be","doObligation((address,bytes,address,uint256),uint64)":"a4f0d517","doObligationFor((address,bytes,address,uint256),uint64,address,address)":"3ce55d02","doObligationForRaw(bytes,uint64,address,address,bytes32)":"f0ffa185","doObligationRaw(bytes,uint64,bytes32)":"b3b902d4","extractArbiterAndDemand(bytes)":"8371ef59","getObligationData(bytes32)":"c6ec5070","getSchema()":"6b122fe0","isPayable()":"ce46e046","multiAttest((bytes32,bytes32,uint64,uint64,uint64,bytes32,address,address,bool,bytes)[],uint256[])":"91db0b7e","multiRevoke((bytes32,bytes32,uint64,uint64,uint64,bytes32,address,address,bool,bytes)[],uint256[])":"88e5b2d9","reclaimExpired(bytes32)":"7d2c2931","revoke((bytes32,bytes32,uint64,uint64,uint64,bytes32,address,address,bool,bytes))":"e49617e1","version()":"54fd4d50"},"id":132}