{"abi":[{"type":"constructor","inputs":[{"name":"_eas","type":"address","internalType":"contract IEAS"},{"name":"_schemaRegistry","type":"address","internalType":"contract ISchemaRegistry"}],"stateMutability":"nonpayable"},{"type":"receive","stateMutability":"payable"},{"type":"function","name":"ATTESTATION_SCHEMA","inputs":[],"outputs":[{"name":"","type":"bytes32","internalType":"bytes32"}],"stateMutability":"view"},{"type":"function","name":"attest","inputs":[{"name":"attestation","type":"tuple","internalType":"struct Attestation","components":[{"name":"uid","type":"bytes32","internalType":"bytes32"},{"name":"schema","type":"bytes32","internalType":"bytes32"},{"name":"time","type":"uint64","internalType":"uint64"},{"name":"expirationTime","type":"uint64","internalType":"uint64"},{"name":"revocationTime","type":"uint64","internalType":"uint64"},{"name":"refUID","type":"bytes32","internalType":"bytes32"},{"name":"recipient","type":"address","internalType":"address"},{"name":"attester","type":"address","internalType":"address"},{"name":"revocable","type":"bool","internalType":"bool"},{"name":"data","type":"bytes","internalType":"bytes"}]}],"outputs":[{"name":"","type":"bool","internalType":"bool"}],"stateMutability":"payable"},{"type":"function","name":"checkObligation","inputs":[{"name":"obligation","type":"tuple","internalType":"struct Attestation","components":[{"name":"uid","type":"bytes32","internalType":"bytes32"},{"name":"schema","type":"bytes32","internalType":"bytes32"},{"name":"time","type":"uint64","internalType":"uint64"},{"name":"expirationTime","type":"uint64","internalType":"uint64"},{"name":"revocationTime","type":"uint64","internalType":"uint64"},{"name":"refUID","type":"bytes32","internalType":"bytes32"},{"name":"recipient","type":"address","internalType":"address"},{"name":"attester","type":"address","internalType":"address"},{"name":"revocable","type":"bool","internalType":"bool"},{"name":"data","type":"bytes","internalType":"bytes"}]},{"name":"demand","type":"bytes","internalType":"bytes"},{"name":"","type":"bytes32","internalType":"bytes32"}],"outputs":[{"name":"","type":"bool","internalType":"bool"}],"stateMutability":"view"},{"type":"function","name":"decodeObligationData","inputs":[{"name":"data","type":"bytes","internalType":"bytes"}],"outputs":[{"name":"","type":"tuple","internalType":"struct ERC20PaymentObligation.ObligationData","components":[{"name":"token","type":"address","internalType":"address"},{"name":"amount","type":"uint256","internalType":"uint256"},{"name":"payee","type":"address","internalType":"address"}]}],"stateMutability":"pure"},{"type":"function","name":"doObligation","inputs":[{"name":"data","type":"tuple","internalType":"struct ERC20PaymentObligation.ObligationData","components":[{"name":"token","type":"address","internalType":"address"},{"name":"amount","type":"uint256","internalType":"uint256"},{"name":"payee","type":"address","internalType":"address"}]}],"outputs":[{"name":"uid_","type":"bytes32","internalType":"bytes32"}],"stateMutability":"nonpayable"},{"type":"function","name":"doObligationFor","inputs":[{"name":"data","type":"tuple","internalType":"struct ERC20PaymentObligation.ObligationData","components":[{"name":"token","type":"address","internalType":"address"},{"name":"amount","type":"uint256","internalType":"uint256"},{"name":"payee","type":"address","internalType":"address"}]},{"name":"payer","type":"address","internalType":"address"},{"name":"recipient","type":"address","internalType":"address"}],"outputs":[{"name":"uid_","type":"bytes32","internalType":"bytes32"}],"stateMutability":"nonpayable"},{"type":"function","name":"doObligationForRaw","inputs":[{"name":"data","type":"bytes","internalType":"bytes"},{"name":"expirationTime","type":"uint64","internalType":"uint64"},{"name":"payer","type":"address","internalType":"address"},{"name":"recipient","type":"address","internalType":"address"},{"name":"refUID","type":"bytes32","internalType":"bytes32"}],"outputs":[{"name":"uid_","type":"bytes32","internalType":"bytes32"}],"stateMutability":"nonpayable"},{"type":"function","name":"doObligationRaw","inputs":[{"name":"data","type":"bytes","internalType":"bytes"},{"name":"expirationTime","type":"uint64","internalType":"uint64"},{"name":"refUID","type":"bytes32","internalType":"bytes32"}],"outputs":[{"name":"uid_","type":"bytes32","internalType":"bytes32"}],"stateMutability":"nonpayable"},{"type":"function","name":"getObligationData","inputs":[{"name":"uid","type":"bytes32","internalType":"bytes32"}],"outputs":[{"name":"","type":"tuple","internalType":"struct ERC20PaymentObligation.ObligationData","components":[{"name":"token","type":"address","internalType":"address"},{"name":"amount","type":"uint256","internalType":"uint256"},{"name":"payee","type":"address","internalType":"address"}]}],"stateMutability":"view"},{"type":"function","name":"getSchema","inputs":[],"outputs":[{"name":"","type":"tuple","internalType":"struct SchemaRecord","components":[{"name":"uid","type":"bytes32","internalType":"bytes32"},{"name":"resolver","type":"address","internalType":"contract ISchemaResolver"},{"name":"revocable","type":"bool","internalType":"bool"},{"name":"schema","type":"string","internalType":"string"}]}],"stateMutability":"view"},{"type":"function","name":"isPayable","inputs":[],"outputs":[{"name":"","type":"bool","internalType":"bool"}],"stateMutability":"pure"},{"type":"function","name":"multiAttest","inputs":[{"name":"attestations","type":"tuple[]","internalType":"struct Attestation[]","components":[{"name":"uid","type":"bytes32","internalType":"bytes32"},{"name":"schema","type":"bytes32","internalType":"bytes32"},{"name":"time","type":"uint64","internalType":"uint64"},{"name":"expirationTime","type":"uint64","internalType":"uint64"},{"name":"revocationTime","type":"uint64","internalType":"uint64"},{"name":"refUID","type":"bytes32","internalType":"bytes32"},{"name":"recipient","type":"address","internalType":"address"},{"name":"attester","type":"address","internalType":"address"},{"name":"revocable","type":"bool","internalType":"bool"},{"name":"data","type":"bytes","internalType":"bytes"}]},{"name":"values","type":"uint256[]","internalType":"uint256[]"}],"outputs":[{"name":"","type":"bool","internalType":"bool"}],"stateMutability":"payable"},{"type":"function","name":"multiRevoke","inputs":[{"name":"attestations","type":"tuple[]","internalType":"struct Attestation[]","components":[{"name":"uid","type":"bytes32","internalType":"bytes32"},{"name":"schema","type":"bytes32","internalType":"bytes32"},{"name":"time","type":"uint64","internalType":"uint64"},{"name":"expirationTime","type":"uint64","internalType":"uint64"},{"name":"revocationTime","type":"uint64","internalType":"uint64"},{"name":"refUID","type":"bytes32","internalType":"bytes32"},{"name":"recipient","type":"address","internalType":"address"},{"name":"attester","type":"address","internalType":"address"},{"name":"revocable","type":"bool","internalType":"bool"},{"name":"data","type":"bytes","internalType":"bytes"}]},{"name":"values","type":"uint256[]","internalType":"uint256[]"}],"outputs":[{"name":"","type":"bool","internalType":"bool"}],"stateMutability":"payable"},{"type":"function","name":"revoke","inputs":[{"name":"attestation","type":"tuple","internalType":"struct Attestation","components":[{"name":"uid","type":"bytes32","internalType":"bytes32"},{"name":"schema","type":"bytes32","internalType":"bytes32"},{"name":"time","type":"uint64","internalType":"uint64"},{"name":"expirationTime","type":"uint64","internalType":"uint64"},{"name":"revocationTime","type":"uint64","internalType":"uint64"},{"name":"refUID","type":"bytes32","internalType":"bytes32"},{"name":"recipient","type":"address","internalType":"address"},{"name":"attester","type":"address","internalType":"address"},{"name":"revocable","type":"bool","internalType":"bool"},{"name":"data","type":"bytes","internalType":"bytes"}]}],"outputs":[{"name":"","type":"bool","internalType":"bool"}],"stateMutability":"payable"},{"type":"function","name":"version","inputs":[],"outputs":[{"name":"","type":"string","internalType":"string"}],"stateMutability":"view"},{"type":"event","name":"PaymentMade","inputs":[{"name":"payment","type":"bytes32","indexed":true,"internalType":"bytes32"},{"name":"buyer","type":"address","indexed":true,"internalType":"address"}],"anonymous":false},{"type":"error","name":"AccessDenied","inputs":[]},{"type":"error","name":"AttestationRevoked","inputs":[]},{"type":"error","name":"DeadlineExpired","inputs":[]},{"type":"error","name":"ERC20TransferFailed","inputs":[{"name":"token","type":"address","internalType":"address"},{"name":"from","type":"address","internalType":"address"},{"name":"to","type":"address","internalType":"address"},{"name":"amount","type":"uint256","internalType":"uint256"}]},{"type":"error","name":"InsufficientValue","inputs":[]},{"type":"error","name":"InvalidEAS","inputs":[]},{"type":"error","name":"InvalidLength","inputs":[]},{"type":"error","name":"InvalidSchema","inputs":[]},{"type":"error","name":"NotFromThisAttester","inputs":[]},{"type":"error","name":"NotPayable","inputs":[]}],"bytecode":{"object":"0x61016080604052346101d2576040816115f68038038091610020828561020c565b8339810103126101d25780516001600160a01b038116918282036101d25760200151916001600160a01b0383168084036101d257604051606081016001600160401b038111828210176101f857604052602c815260208101927f6164647265737320746f6b656e2c2075696e7432353620616d6f756e742c206184526b64647265737320706179656560a01b60408301526001608052600460a0525f60c052156101e9576084948460209560e05261012052610100525f604051958680958194630c1af44f60e31b8352606060048401525180918160648501528484015e818101830184905230602483015260016044830152601f01601f191681010301925af19081156101de575f916101a8575b50610140526040516113c6908161023082396080518161099f015260a051816109ca015260c051816109f5015260e05181611324015261010051816108210152610120518181816104a301526110a101526101405181818161025d015281816104db015281816107ef0152818161095d0152610ff40152f35b90506020813d6020116101d6575b816101c36020938361020c565b810103126101d257515f61012f565b5f80fd5b3d91506101b6565b6040513d5f823e3d90fd5b6341bc07ff60e11b5f5260045ffd5b634e487b7160e01b5f52604160045260245ffd5b601f909101601f19168101906001600160401b038211908210176101f85760405256fe60806040526004361015610027575b3615610018575f80fd5b631574f9f360e01b5f5260045ffd5b5f3560e01c806354fd4d50146109805780635bf2f20d146109465780636b122fe0146107b057806388d8b7e21461074857806388e5b2d91461072957806391db0b7e146107295780639b28978c14610684578063b3b902d414610639578063c6ec507014610420578063c93844be146103a3578063ce46e04614610389578063e49617e114610364578063e60c350514610364578063e6c9714d146101455763f0ffa1850361000e57346101415760a0366003190112610141576004356001600160401b03811161014157610100903690600401610b4c565b90610109610b79565b604435929091906001600160a01b0384168403610141576020936101399361012f610aa2565b9260843594610ef6565b604051908152f35b5f80fd5b34610141576060366003190112610141576004356001600160401b038111610141576101406003198236030112610141576040519061018382610c06565b806004013582526020820190602481013582526101a260448201610b8f565b60408401526101b360648201610b8f565b606084019081526101c660848301610b8f565b916080850192835260a481013560a08601526101e460c48201610ab8565b60c08601526101f560e48201610ab8565b60e08601526101048101358015158103610141576101008601526101248101356001600160401b038111610141576101209160046102369236920101610caf565b94019384526024356001600160401b0381116101415761025a903690600401610caf565b927f000000000000000000000000000000000000000000000000000000000000000090510361035557516001600160401b0316801515908161034b575b5061033c57516001600160401b031661032d576102d16102c260209351848082518301019101610e80565b91838082518301019101610e80565b815181516001600160a01b03908116911614918261031c575b826102fc575b50506040519015158152f35b6040908101519101516001600160a01b03908116911614905082806102f0565b8381015182850151111592506102ea565b637b6227e960e11b5f5260045ffd5b631ab7da6b60e01b5f5260045ffd5b9050421184610297565b635f9bd90760e11b5f5260045ffd5b602061037f61037236610ba3565b61037a611322565b611363565b6040519015158152f35b34610141575f3660031901126101415760206040515f8152f35b34610141576020366003190112610141576004356001600160401b038111610141576103ea6103d961041c923690600401610b4c565b6103e1610e4e565b50810190610ebf565b6040805182516001600160a01b0390811682526020808501519083015292820151909216908201529081906060820190565b0390f35b3461014157602036600319011261014157610439610e4e565b50606061012060405161044b81610c06565b5f81525f60208201525f60408201525f838201525f60808201525f60a08201525f60c08201525f60e08201525f61010082015201526040516328c44a9960e21b815260043560048201525f8160248160018060a01b037f0000000000000000000000000000000000000000000000000000000000000000165afa90811561062e575f91610529575b5060208101517f00000000000000000000000000000000000000000000000000000000000000000361051a576103ea61012061041c92015160208082518301019101610e80565b635527981560e11b5f5260045ffd5b90503d805f833e61053a8183610c3d565b810190602081830312610141578051906001600160401b03821161014157019061014082820312610141576040519161057283610c06565b805183526020810151602084015261058c6040820161137c565b604084015261059d6060820161137c565b60608401526105ae6080820161137c565b608084015260a081015160a08401526105c960c08201610e6c565b60c08401526105da60e08201610e6c565b60e08401526105ec6101008201610ccd565b610100840152610120810151906001600160401b03821161014157019080601f8301121561014157815161062292602001610cda565b610120820152816104d3565b6040513d5f823e3d90fd5b34610141576060366003190112610141576004356001600160401b0381116101415761013961066e6020923690600401610b4c565b610676610b79565b916044359233923392610ef6565b34610141576060366003190112610141576106d860206040516106ba816106ac848201610d10565b03601f198101835282610c3d565b6040518093819263f0ffa18560e01b83523390339060048501610d51565b03815f305af1801561062e575f906106f6575b602090604051908152f35b506020813d602011610721575b8161071060209383610c3d565b8101031261014157602090516106eb565b3d9150610703565b602061037f61073736610afc565b92610743929192611322565b610dd2565b3461014157366003190160a081126101415760601361014157610769610aa2565b608435906001600160a01b038216820361014157602090604051610792816106ac858201610d10565b6106d8604051948593849363f0ffa18560e01b855260048501610d51565b34610141575f366003190112610141576060806040516107cf81610bd7565b5f81525f60208201525f604082015201526040516351753e3760e11b81527f000000000000000000000000000000000000000000000000000000000000000060048201525f8160248160018060a01b037f0000000000000000000000000000000000000000000000000000000000000000165afa801561062e575f90610896575b60609061041c604051928392602084528051602085015260018060a01b0360208201511660408501526040810151151582850152015160808084015260a0830190610a7e565b503d805f833e6108a68183610c3d565b810190602081830312610141578051906001600160401b038211610141570160808183031261014157604051906108dc82610bd7565b8051825260208101516001600160a01b038116810361014157602083015261090660408201610ccd565b60408301526060810151906001600160401b038211610141570182601f820112156101415760609281602061093d93519101610cda565b82820152610850565b34610141575f3660031901126101415760206040517f00000000000000000000000000000000000000000000000000000000000000008152f35b34610141575f3660031901126101415761041c6020610a6e60016109c37f00000000000000000000000000000000000000000000000000000000000000006111b5565b81846109ee7f00000000000000000000000000000000000000000000000000000000000000006111b5565b8180610a197f00000000000000000000000000000000000000000000000000000000000000006111b5565b9260405199878b985191829101848a015e870190601760f91b83830152805192839101602183015e010190601760f91b84830152805192839101600283015e01015f838201520301601f198101835282610c3d565b6040519182916020835260208301905b805180835260209291819084018484015e5f828201840152601f01601f1916010190565b606435906001600160a01b038216820361014157565b35906001600160a01b038216820361014157565b9181601f84011215610141578235916001600160401b038311610141576020808501948460051b01011161014157565b6040600319820112610141576004356001600160401b0381116101415781610b2691600401610acc565b92909291602435906001600160401b03821161014157610b4891600401610acc565b9091565b9181601f84011215610141578235916001600160401b038311610141576020838186019501011161014157565b602435906001600160401b038216820361014157565b35906001600160401b038216820361014157565b602060031982011261014157600435906001600160401b038211610141576101409082900360031901126101415760040190565b608081019081106001600160401b03821117610bf257604052565b634e487b7160e01b5f52604160045260245ffd5b61014081019081106001600160401b03821117610bf257604052565b606081019081106001600160401b03821117610bf257604052565b90601f801991011681019081106001600160401b03821117610bf257604052565b6001600160401b038111610bf257601f01601f191660200190565b929192610c8582610c5e565b91610c936040519384610c3d565b829481845281830111610141578281602093845f960137010152565b9080601f8301121561014157816020610cca93359101610c79565b90565b5190811515820361014157565b929192610ce682610c5e565b91610cf46040519384610c3d565b829481845281830111610141578281602093845f96015e010152565b6060810191906004356001600160a01b0381169081900361014157815260243560208201526044356001600160a01b03811691908290036101415760400152565b5f929493610d6960809360a0845260a0840190610a7e565b602083018590526001600160a01b039687166040840152951660608201520152565b9190811015610d9b5760051b0190565b634e487b7160e01b5f52603260045260245ffd5b9190811015610d9b5760051b8101359061013e1981360301821215610141570190565b92909192818303610e3f575f91345b848410610df357505050505050600190565b610dfe848388610d8b565b35818111610e3057610e1461037a868887610daf565b15610e255760019103930192610de1565b505050505050505f90565b63044044a560e21b5f5260045ffd5b63251f56a160e21b5f5260045ffd5b60405190610e5b82610c22565b5f6040838281528260208201520152565b51906001600160a01b038216820361014157565b9081606091031261014157610eb76040805192610e9c84610c22565b610ea581610e6c565b84526020810151602085015201610e6c565b604082015290565b9081606091031261014157610eb76040805192610edb84610c22565b610ee481610ab8565b84526020810135602085015201610ab8565b9193959492610f0782840184610ebf565b8051604080830180516020808601805194516323b872dd60e01b81526001600160a01b0398891660048201819052938916602482015260448101959095529296919592949293929091839160649183915f91165af15f9181611179575b5061117457505f5b15611135575050505090610f81913691610c79565b906040519460c08601908682106001600160401b03831117610bf2576001600160401b039160405260018060a01b03169384875216602086015260016040860152606085015260808401525f60a084015260405160408101908082106001600160401b03831117610bf2576020916040527f000000000000000000000000000000000000000000000000000000000000000081528181019485526040518095819263f17325e760e01b8352846004840152516024830152516040604483015260018060a01b0381511660648301526001600160401b03848201511660848301526040810151151560a4830152606081015160c483015260a0611093608083015160c060e4860152610124850190610a7e565b91015161010483015203815f7f00000000000000000000000000000000000000000000000000000000000000006001600160a01b03165af192831561062e575f93611101575b50827f4b5d781b1f4414459813c44d669c7821fcdec72a83b67c0303229be68d03ad055f80a3565b9092506020813d60201161112d575b8161111d60209383610c3d565b810103126101415751915f6110d9565b3d9150611110565b5192519051604051634a73404560e11b81526001600160a01b039485166004820152602481019390935292166044820152606481019190915260849150fd5b610f6c565b9091506020813d6020116111ad575b8161119560209383610c3d565b81010312610141576111a690610ccd565b905f610f64565b3d9150611188565b805f9172184f03e93ff9f4daa797ed6e38ed64bf6a1f0160401b8210156112ff575b806d04ee2d6d415b85acef8100000000600a9210156112e4575b662386f26fc100008110156112d0575b6305f5e1008110156112bf575b6127108110156112b0575b60648110156112a2575b1015611297575b600a6021600184019361123c85610c5e565b9461124a6040519687610c3d565b808652611259601f1991610c5e565b013660208701378401015b5f1901916f181899199a1a9b1b9c1cb0b131b232b360811b8282061a835304801561129257600a9091611264565b505090565b60019091019061122a565b606460029104930192611223565b61271060049104930192611219565b6305f5e1006008910493019261120e565b662386f26fc1000060109104930192611201565b6d04ee2d6d415b85acef8100000000602091049301926111f1565b506040915072184f03e93ff9f4daa797ed6e38ed64bf6a1f0160401b81046111d7565b7f00000000000000000000000000000000000000000000000000000000000000006001600160a01b0316330361135457565b634ca8886760e01b5f5260045ffd5b60e0013560018060a01b03811680910361014157301490565b51906001600160401b03821682036101415756fea2646970667358221220bed82d1b64a7cb9e4d9d9994a65e4eecf4cfcd069891dfdfc27ff2b2c254c07d64736f6c634300081c0033","linkReferences":{}},"methodIdentifiers":{"ATTESTATION_SCHEMA()":"5bf2f20d","attest((bytes32,bytes32,uint64,uint64,uint64,bytes32,address,address,bool,bytes))":"e60c3505","checkObligation((bytes32,bytes32,uint64,uint64,uint64,bytes32,address,address,bool,bytes),bytes,bytes32)":"e6c9714d","decodeObligationData(bytes)":"c93844be","doObligation((address,uint256,address))":"9b28978c","doObligationFor((address,uint256,address),address,address)":"88d8b7e2","doObligationForRaw(bytes,uint64,address,address,bytes32)":"f0ffa185","doObligationRaw(bytes,uint64,bytes32)":"b3b902d4","getObligationData(bytes32)":"c6ec5070","getSchema()":"6b122fe0","isPayable()":"ce46e046","multiAttest((bytes32,bytes32,uint64,uint64,uint64,bytes32,address,address,bool,bytes)[],uint256[])":"91db0b7e","multiRevoke((bytes32,bytes32,uint64,uint64,uint64,bytes32,address,address,bool,bytes)[],uint256[])":"88e5b2d9","revoke((bytes32,bytes32,uint64,uint64,uint64,bytes32,address,address,bool,bytes))":"e49617e1","version()":"54fd4d50"},"id":133}