{"abi":[{"type":"constructor","inputs":[{"name":"_eas","type":"address","internalType":"contract IEAS"},{"name":"_schemaRegistry","type":"address","internalType":"contract ISchemaRegistry"}],"stateMutability":"nonpayable"},{"type":"receive","stateMutability":"payable"},{"type":"function","name":"ATTESTATION_SCHEMA","inputs":[],"outputs":[{"name":"","type":"bytes32","internalType":"bytes32"}],"stateMutability":"view"},{"type":"function","name":"attest","inputs":[{"name":"attestation","type":"tuple","internalType":"struct Attestation","components":[{"name":"uid","type":"bytes32","internalType":"bytes32"},{"name":"schema","type":"bytes32","internalType":"bytes32"},{"name":"time","type":"uint64","internalType":"uint64"},{"name":"expirationTime","type":"uint64","internalType":"uint64"},{"name":"revocationTime","type":"uint64","internalType":"uint64"},{"name":"refUID","type":"bytes32","internalType":"bytes32"},{"name":"recipient","type":"address","internalType":"address"},{"name":"attester","type":"address","internalType":"address"},{"name":"revocable","type":"bool","internalType":"bool"},{"name":"data","type":"bytes","internalType":"bytes"}]}],"outputs":[{"name":"","type":"bool","internalType":"bool"}],"stateMutability":"payable"},{"type":"function","name":"checkObligation","inputs":[{"name":"obligation","type":"tuple","internalType":"struct Attestation","components":[{"name":"uid","type":"bytes32","internalType":"bytes32"},{"name":"schema","type":"bytes32","internalType":"bytes32"},{"name":"time","type":"uint64","internalType":"uint64"},{"name":"expirationTime","type":"uint64","internalType":"uint64"},{"name":"revocationTime","type":"uint64","internalType":"uint64"},{"name":"refUID","type":"bytes32","internalType":"bytes32"},{"name":"recipient","type":"address","internalType":"address"},{"name":"attester","type":"address","internalType":"address"},{"name":"revocable","type":"bool","internalType":"bool"},{"name":"data","type":"bytes","internalType":"bytes"}]},{"name":"demand","type":"bytes","internalType":"bytes"},{"name":"","type":"bytes32","internalType":"bytes32"}],"outputs":[{"name":"","type":"bool","internalType":"bool"}],"stateMutability":"view"},{"type":"function","name":"collectEscrow","inputs":[{"name":"escrow","type":"bytes32","internalType":"bytes32"},{"name":"fulfillment","type":"bytes32","internalType":"bytes32"}],"outputs":[{"name":"","type":"bool","internalType":"bool"}],"stateMutability":"nonpayable"},{"type":"function","name":"collectEscrowRaw","inputs":[{"name":"_escrow","type":"bytes32","internalType":"bytes32"},{"name":"_fulfillment","type":"bytes32","internalType":"bytes32"}],"outputs":[{"name":"","type":"bytes","internalType":"bytes"}],"stateMutability":"nonpayable"},{"type":"function","name":"decodeObligationData","inputs":[{"name":"data","type":"bytes","internalType":"bytes"}],"outputs":[{"name":"","type":"tuple","internalType":"struct ERC721EscrowObligation.ObligationData","components":[{"name":"arbiter","type":"address","internalType":"address"},{"name":"demand","type":"bytes","internalType":"bytes"},{"name":"token","type":"address","internalType":"address"},{"name":"tokenId","type":"uint256","internalType":"uint256"}]}],"stateMutability":"pure"},{"type":"function","name":"doObligation","inputs":[{"name":"data","type":"tuple","internalType":"struct ERC721EscrowObligation.ObligationData","components":[{"name":"arbiter","type":"address","internalType":"address"},{"name":"demand","type":"bytes","internalType":"bytes"},{"name":"token","type":"address","internalType":"address"},{"name":"tokenId","type":"uint256","internalType":"uint256"}]},{"name":"expirationTime","type":"uint64","internalType":"uint64"}],"outputs":[{"name":"","type":"bytes32","internalType":"bytes32"}],"stateMutability":"nonpayable"},{"type":"function","name":"doObligationFor","inputs":[{"name":"data","type":"tuple","internalType":"struct ERC721EscrowObligation.ObligationData","components":[{"name":"arbiter","type":"address","internalType":"address"},{"name":"demand","type":"bytes","internalType":"bytes"},{"name":"token","type":"address","internalType":"address"},{"name":"tokenId","type":"uint256","internalType":"uint256"}]},{"name":"expirationTime","type":"uint64","internalType":"uint64"},{"name":"payer","type":"address","internalType":"address"},{"name":"recipient","type":"address","internalType":"address"}],"outputs":[{"name":"","type":"bytes32","internalType":"bytes32"}],"stateMutability":"nonpayable"},{"type":"function","name":"doObligationForRaw","inputs":[{"name":"data","type":"bytes","internalType":"bytes"},{"name":"expirationTime","type":"uint64","internalType":"uint64"},{"name":"payer","type":"address","internalType":"address"},{"name":"recipient","type":"address","internalType":"address"},{"name":"refUID","type":"bytes32","internalType":"bytes32"}],"outputs":[{"name":"uid_","type":"bytes32","internalType":"bytes32"}],"stateMutability":"nonpayable"},{"type":"function","name":"doObligationRaw","inputs":[{"name":"data","type":"bytes","internalType":"bytes"},{"name":"expirationTime","type":"uint64","internalType":"uint64"},{"name":"refUID","type":"bytes32","internalType":"bytes32"}],"outputs":[{"name":"uid_","type":"bytes32","internalType":"bytes32"}],"stateMutability":"nonpayable"},{"type":"function","name":"extractArbiterAndDemand","inputs":[{"name":"data","type":"bytes","internalType":"bytes"}],"outputs":[{"name":"arbiter","type":"address","internalType":"address"},{"name":"demand","type":"bytes","internalType":"bytes"}],"stateMutability":"pure"},{"type":"function","name":"getObligationData","inputs":[{"name":"uid","type":"bytes32","internalType":"bytes32"}],"outputs":[{"name":"","type":"tuple","internalType":"struct ERC721EscrowObligation.ObligationData","components":[{"name":"arbiter","type":"address","internalType":"address"},{"name":"demand","type":"bytes","internalType":"bytes"},{"name":"token","type":"address","internalType":"address"},{"name":"tokenId","type":"uint256","internalType":"uint256"}]}],"stateMutability":"view"},{"type":"function","name":"getSchema","inputs":[],"outputs":[{"name":"","type":"tuple","internalType":"struct SchemaRecord","components":[{"name":"uid","type":"bytes32","internalType":"bytes32"},{"name":"resolver","type":"address","internalType":"contract ISchemaResolver"},{"name":"revocable","type":"bool","internalType":"bool"},{"name":"schema","type":"string","internalType":"string"}]}],"stateMutability":"view"},{"type":"function","name":"isPayable","inputs":[],"outputs":[{"name":"","type":"bool","internalType":"bool"}],"stateMutability":"pure"},{"type":"function","name":"multiAttest","inputs":[{"name":"attestations","type":"tuple[]","internalType":"struct Attestation[]","components":[{"name":"uid","type":"bytes32","internalType":"bytes32"},{"name":"schema","type":"bytes32","internalType":"bytes32"},{"name":"time","type":"uint64","internalType":"uint64"},{"name":"expirationTime","type":"uint64","internalType":"uint64"},{"name":"revocationTime","type":"uint64","internalType":"uint64"},{"name":"refUID","type":"bytes32","internalType":"bytes32"},{"name":"recipient","type":"address","internalType":"address"},{"name":"attester","type":"address","internalType":"address"},{"name":"revocable","type":"bool","internalType":"bool"},{"name":"data","type":"bytes","internalType":"bytes"}]},{"name":"values","type":"uint256[]","internalType":"uint256[]"}],"outputs":[{"name":"","type":"bool","internalType":"bool"}],"stateMutability":"payable"},{"type":"function","name":"multiRevoke","inputs":[{"name":"attestations","type":"tuple[]","internalType":"struct Attestation[]","components":[{"name":"uid","type":"bytes32","internalType":"bytes32"},{"name":"schema","type":"bytes32","internalType":"bytes32"},{"name":"time","type":"uint64","internalType":"uint64"},{"name":"expirationTime","type":"uint64","internalType":"uint64"},{"name":"revocationTime","type":"uint64","internalType":"uint64"},{"name":"refUID","type":"bytes32","internalType":"bytes32"},{"name":"recipient","type":"address","internalType":"address"},{"name":"attester","type":"address","internalType":"address"},{"name":"revocable","type":"bool","internalType":"bool"},{"name":"data","type":"bytes","internalType":"bytes"}]},{"name":"values","type":"uint256[]","internalType":"uint256[]"}],"outputs":[{"name":"","type":"bool","internalType":"bool"}],"stateMutability":"payable"},{"type":"function","name":"reclaimExpired","inputs":[{"name":"uid","type":"bytes32","internalType":"bytes32"}],"outputs":[{"name":"","type":"bool","internalType":"bool"}],"stateMutability":"nonpayable"},{"type":"function","name":"revoke","inputs":[{"name":"attestation","type":"tuple","internalType":"struct Attestation","components":[{"name":"uid","type":"bytes32","internalType":"bytes32"},{"name":"schema","type":"bytes32","internalType":"bytes32"},{"name":"time","type":"uint64","internalType":"uint64"},{"name":"expirationTime","type":"uint64","internalType":"uint64"},{"name":"revocationTime","type":"uint64","internalType":"uint64"},{"name":"refUID","type":"bytes32","internalType":"bytes32"},{"name":"recipient","type":"address","internalType":"address"},{"name":"attester","type":"address","internalType":"address"},{"name":"revocable","type":"bool","internalType":"bool"},{"name":"data","type":"bytes","internalType":"bytes"}]}],"outputs":[{"name":"","type":"bool","internalType":"bool"}],"stateMutability":"payable"},{"type":"function","name":"version","inputs":[],"outputs":[{"name":"","type":"string","internalType":"string"}],"stateMutability":"view"},{"type":"event","name":"EscrowCollected","inputs":[{"name":"escrow","type":"bytes32","indexed":true,"internalType":"bytes32"},{"name":"fulfillment","type":"bytes32","indexed":true,"internalType":"bytes32"},{"name":"fulfiller","type":"address","indexed":true,"internalType":"address"}],"anonymous":false},{"type":"event","name":"EscrowMade","inputs":[{"name":"escrow","type":"bytes32","indexed":true,"internalType":"bytes32"},{"name":"buyer","type":"address","indexed":true,"internalType":"address"}],"anonymous":false},{"type":"error","name":"AccessDenied","inputs":[]},{"type":"error","name":"AttestationNotFound","inputs":[{"name":"attestationId","type":"bytes32","internalType":"bytes32"}]},{"type":"error","name":"AttestationRevoked","inputs":[]},{"type":"error","name":"DeadlineExpired","inputs":[]},{"type":"error","name":"ERC721TransferFailed","inputs":[{"name":"token","type":"address","internalType":"address"},{"name":"from","type":"address","internalType":"address"},{"name":"to","type":"address","internalType":"address"},{"name":"tokenId","type":"uint256","internalType":"uint256"}]},{"type":"error","name":"InsufficientValue","inputs":[]},{"type":"error","name":"InvalidEAS","inputs":[]},{"type":"error","name":"InvalidEscrowAttestation","inputs":[]},{"type":"error","name":"InvalidFulfillment","inputs":[]},{"type":"error","name":"InvalidLength","inputs":[]},{"type":"error","name":"InvalidSchema","inputs":[]},{"type":"error","name":"NotFromThisAttester","inputs":[]},{"type":"error","name":"NotPayable","inputs":[]},{"type":"error","name":"RevocationFailed","inputs":[{"name":"attestationId","type":"bytes32","internalType":"bytes32"}]},{"type":"error","name":"UnauthorizedCall","inputs":[]}],"bytecode":{"object":"0x61016080604052346101f857604081611f3e80380380916100208285610232565b8339810103126101f85780516001600160a01b038116918282036101f85760200151916001600160a01b0383168084036101f857604051606081016001600160401b0381118282101761021e57604052603d815260208101927f6164647265737320617262697465722c2062797465732064656d616e642c206184527f64647265737320746f6b656e2c2075696e7432353620746f6b656e496400000060408301526001608052600460a0525f60c0521561020f576084948460209560e05261012052610100525f604051958680958194630c1af44f60e31b8352606060048401525180918160648501528484015e818101830184905230602483015260016044830152601f01601f191681010301925af1908115610204575f916101ce575b5061014052604051611ce89081610256823960805181610a16015260a05181610a41015260c05181610a6c015260e05181611bff0152610100518161088d0152610120518181816103dc015281816106be0152818161128f015261199f01526101405181818161041c0152818161085b015281816109d401528181611468015281816116d701526118f20152f35b90506020813d6020116101fc575b816101e960209383610232565b810103126101f857515f610140565b5f80fd5b3d91506101dc565b6040513d5f823e3d90fd5b6341bc07ff60e11b5f5260045ffd5b634e487b7160e01b5f52604160045260245ffd5b601f909101601f19168101906001600160401b0382119082101761021e5760405256fe60806040526004361015610027575b3615610018575f80fd5b631574f9f360e01b5f5260045ffd5b5f5f3560e01c80632c713cd914610b915780633ce55d0214610ae557806354fd4d50146109f75780635bf2f20d146109bd5780636b122fe01461081c5780637d2c2931146106865780638371ef591461062757806388e5b2d9146105d9578063891d9ea8146105f857806391db0b7e146105d9578063a4f0d517146104f3578063b3b902d4146104a7578063c6ec50701461039b578063c93844be146102c4578063ce46e046146102a8578063e49617e11461028d578063e60c35051461028d578063e6c9714d146101665763f0ffa18514610103575061000e565b346101635760a036600319011261016357600435906001600160401b03821161016357602061015b6101383660048601610dc8565b610140610bc4565b610148610bee565b90610151610c04565b92608435946117c5565b604051908152f35b80fd5b503461016357606036600319011261016357600435906001600160401b03821161016357610140600319833603011261016357604051916101a683610c81565b80600401358352602481013560208401526101c360448201610bda565b60408401526101d460648201610bda565b60608401526101e560848201610bda565b608084015260a481013560a084015261020060c48201610c1a565b60c084015261021160e48201610c1a565b60e08401526101048101358015158103610289576101008401526101248101356001600160401b0381116102895761024e91369101600401610d2a565b610120830152602435906001600160401b03821161016357602061027f846102793660048701610d2a565b906116d5565b6040519015158152f35b8280fd5b602061027f61029b36610e3f565b6102a3611bfd565b611c3e565b5034610163578060031936011261016357602090604051908152f35b5034610163576020366003190112610163576004356001600160401b038111610397576102f5903690600401610dc8565b6103009291926116b1565b50820191602081840312610397578035906001600160401b038211610289570191608083820312610397576040519161033883610c52565b61034184610c1a565b83526020840135906001600160401b03821161016357509261036a606092610393958301610d2a565b602084015261037b60408201610c1a565b60408401520135606082015260405191829182610df5565b0390f35b5080fd5b5034610163576020366003190112610163576103b56116b1565b506103be610f91565b506040516328c44a9960e21b815260048035908201529080826024817f00000000000000000000000000000000000000000000000000000000000000006001600160a01b03165afa91821561049a578192610476575b5060208201517f0000000000000000000000000000000000000000000000000000000000000000036104675761039361045b610120840151602080825183010191016110f8565b60405191829182610df5565b635527981560e11b8152600490fd5b6104939192503d8084833e61048b8183610cb8565b81019061101d565b905f610414565b50604051903d90823e3d90fd5b503461016357606036600319011261016357600435906001600160401b03821161016357602061015b6104dd3660048601610dc8565b6104e5610bc4565b9160443592339233926117c5565b5034610163576040366003190112610163576004356001600160401b0381116103975760806003198236030112610397579060206105789261054b610559610539610bc4565b92604051928391600401868301610e73565b03601f198101835282610cb8565b60405163f0ffa18560e01b815294859283923391829160048601610f0b565b038184305af19081156105cd5790610596575b602090604051908152f35b506020813d6020116105c5575b816105b060209383610cb8565b810103126105c1576020905161058b565b5f80fd5b3d91506105a3565b604051903d90823e3d90fd5b602061027f6105e736610d78565b926105f3929192611bfd565b6111e8565b50346101635761039361061361060d36610bae565b90611264565b604051918291602083526020830190610c2e565b503461016357602036600319011261016357600435906001600160401b0382116101635761066061065b3660048501610d2a565b611178565b604080516001600160a01b03909316835260208301819052829161039391830190610c2e565b346105c15760203660031901126105c1576004356106a2610f91565b506040516328c44a9960e21b8152600481018290525f816024817f00000000000000000000000000000000000000000000000000000000000000006001600160a01b03165afa5f9181610800575b5061070857506301fb6dd160e01b5f5260045260245ffd5b6001600160401b0360608201511642106107f1576107436101208201519160c060018060a01b039101511691602080825183010191016110f8565b6040810180516060909201805190926001600160a01b0316803b156105c1576040516323b872dd60e01b81523060048201526001600160a01b038616602482015260448101929092525f908290606490829084905af190816107e1575b506107d65751905160405163045b391760e01b81529283926107d292919030906001600160a01b031660048601611bd2565b0390fd5b602060405160018152f35b5f6107eb91610cb8565b5f6107a0565b637bf6a16f60e01b5f5260045ffd5b6108159192503d805f833e61048b8183610cb8565b90836106f0565b346105c1575f3660031901126105c15760608060405161083b81610c52565b5f81525f60208201525f604082015201526040516351753e3760e11b81527f000000000000000000000000000000000000000000000000000000000000000060048201525f8160248160018060a01b037f0000000000000000000000000000000000000000000000000000000000000000165afa80156109b2575f90610902575b606090610393604051928392602084528051602085015260018060a01b0360208201511660408501526040810151151582850152015160808084015260a0830190610c2e565b503d805f833e6109128183610cb8565b8101906020818303126105c1578051906001600160401b0382116105c157016080818303126105c1576040519061094882610c52565b8051825260208101516001600160a01b03811681036105c157602083015261097260408201610f4e565b60408301526060810151906001600160401b0382116105c1570182601f820112156105c1576060928160206109a993519101610f5b565b828201526108bc565b6040513d5f823e3d90fd5b346105c1575f3660031901126105c15760206040517f00000000000000000000000000000000000000000000000000000000000000008152f35b346105c1575f3660031901126105c15761039360206106136001610a3a7f0000000000000000000000000000000000000000000000000000000000000000611a65565b8184610a657f0000000000000000000000000000000000000000000000000000000000000000611a65565b8180610a907f0000000000000000000000000000000000000000000000000000000000000000611a65565b9260405199878b985191829101848a015e870190601760f91b83830152805192839101602183015e010190601760f91b84830152805192839101600283015e01015f838201520301601f198101835282610cb8565b346105c15760803660031901126105c1576004356001600160401b0381116105c157608060031982360301126105c1576020610b1f610bc4565b610b4b610b74610b2d610bee565b94610b59610b39610c04565b91604051948591600401888301610e73565b03601f198101855284610cb8565b60405163f0ffa18560e01b8152958694859460048601610f0b565b03815f305af180156109b2575f9061059657602090604051908152f35b346105c157610ba261060d36610bae565b50602060405160018152f35b60409060031901126105c1576004359060243590565b602435906001600160401b03821682036105c157565b35906001600160401b03821682036105c157565b604435906001600160a01b03821682036105c157565b606435906001600160a01b03821682036105c157565b35906001600160a01b03821682036105c157565b805180835260209291819084018484015e5f828201840152601f01601f1916010190565b608081019081106001600160401b03821117610c6d57604052565b634e487b7160e01b5f52604160045260245ffd5b61014081019081106001600160401b03821117610c6d57604052565b604081019081106001600160401b03821117610c6d57604052565b90601f801991011681019081106001600160401b03821117610c6d57604052565b6001600160401b038111610c6d57601f01601f191660200190565b929192610d0082610cd9565b91610d0e6040519384610cb8565b8294818452818301116105c1578281602093845f960137010152565b9080601f830112156105c157816020610d4593359101610cf4565b90565b9181601f840112156105c1578235916001600160401b0383116105c1576020808501948460051b0101116105c157565b60406003198201126105c1576004356001600160401b0381116105c15781610da291600401610d48565b92909291602435906001600160401b0382116105c157610dc491600401610d48565b9091565b9181601f840112156105c1578235916001600160401b0383116105c157602083818601950101116105c157565b6020815260018060a01b03825116602082015260806060610e24602085015183604086015260a0850190610c2e565b60408501516001600160a01b03168483015293015191015290565b60206003198201126105c157600435906001600160401b0382116105c1576101409082900360031901126105c15760040190565b602081526001600160a01b03610e8883610c1a565b1660208201526020820135601e19833603018112156105c15782016020813591016001600160401b0382116105c15781360381136105c15760c09382606092608060408701528160a0870152868601375f8484018601526001600160a01b03610ef360408301610c1a565b168483015201356080830152601f01601f1916010190565b90935f936001600160401b03610f2d608095989760a0865260a0860190610c2e565b971660208401526001600160a01b0390811660408401521660608201520152565b519081151582036105c157565b929192610f6782610cd9565b91610f756040519384610cb8565b8294818452818301116105c1578281602093845f96015e010152565b60405190610f9e82610c81565b6060610120835f81525f60208201525f60408201525f838201525f60808201525f60a08201525f60c08201525f60e08201525f6101008201520152565b51906001600160401b03821682036105c157565b51906001600160a01b03821682036105c157565b9080601f830112156105c1578151610d4592602001610f5b565b6020818303126105c1578051906001600160401b0382116105c15701610140818303126105c1576040519161105183610c81565b815183526020820151602084015261106b60408301610fdb565b604084015261107c60608301610fdb565b606084015261108d60808301610fdb565b608084015260a082015160a08401526110a860c08301610fef565b60c08401526110b960e08301610fef565b60e08401526110cb6101008301610f4e565b6101008401526101208201516001600160401b0381116105c1576110ef9201611003565b61012082015290565b6020818303126105c1578051906001600160401b0382116105c15701906080828203126105c1576040519161112c83610c52565b61113581610fef565b835260208101516001600160401b0381116105c157606092611158918301611003565b602084015261116960408201610fef565b60408401520151606082015290565b61118b90602080825183010191016110f8565b80516020909101516001600160a01b0390911691565b91908110156111b15760051b0190565b634e487b7160e01b5f52603260045260245ffd5b91908110156111b15760051b8101359061013e19813603018212156105c1570190565b92909192818303611255575f91345b84841061120957505050505050600190565b6112148483886111a1565b358181116112465761122a6102a38688876111c5565b1561123b57600191039301926111f7565b505050505050505f90565b63044044a560e21b5f5260045ffd5b63251f56a160e21b5f5260045ffd5b915f9061126f610f91565b50611278610f91565b506040516328c44a9960e21b8152600481018590527f00000000000000000000000000000000000000000000000000000000000000006001600160a01b0316905f81602481855afa5f9181611695575b506112e057856301fb6dd160e01b5f5260045260245ffd5b6040516328c44a9960e21b815260048101869052949593945f81602481865afa5f9181611679575b5061132057866301fb6dd160e01b5f5260045260245ffd5b9161132a82611c57565b1561166a5761140960206101208085019460c08761141b61134b8951611178565b91909451916040519889978896879663e6c9714d60e01b885260606004890152805160648901528b81015160848901526001600160401b0360408201511660a48901526001600160401b0360608201511660c48901526001600160401b0360808201511660e489015260a0810151610104890152019d8e60018060a01b0390511661012488015260018060a01b0360e082015116610144880152610100810151151561016488015201516101406101848701526101a4860190610c2e565b84810360031901602486015290610c2e565b604483019190915203916001600160a01b03165afa9081156109b2575f91611630575b50156116215760405161145081610c9d565b8581525f60208201526040519061146682610c9d565b7f0000000000000000000000000000000000000000000000000000000000000000825260208201908152823b156105c15760645f92836020956040519687958694634692626760e01b86525160048601525180516024860152015160448401525af1908161160c575b506114e85763614cf93960e01b85526004849052602485fd5b51815181516001600160a01b0390911696959161150d916020908201810191016110f8565b604081018051606090920180519097919691926001600160a01b0316803b15611608576040516323b872dd60e01b81523060048201526001600160a01b038b1660248201526044810192909252849081908390606490829084905af191826115ef575b50506115a4578551875160405163045b391760e01b81529182916107d2918c9030906001600160a01b031660048601611bd2565b92955092955092507ff96e77bc177ae8e2ff25185e7c6d85f8ba97c8bdd9d46933aac70a7a33edf6c0604051946115dc602087610cb8565b848652516001600160a01b03169380a490565b816115f991610cb8565b61160457835f611570565b8380fd5b8480fd5b6116199196505f90610cb8565b5f945f6114cf565b630ebe58ef60e11b5f5260045ffd5b90506020813d602011611662575b8161164b60209383610cb8565b810103126105c15761165c90610f4e565b5f61143e565b3d915061163e565b63629cd40b60e11b5f5260045ffd5b61168e9192503d805f833e61048b8183610cb8565b905f611308565b6116aa9192503d805f833e61048b8183610cb8565b905f6112c8565b604051906116be82610c52565b5f6060838281528160208201528260408201520152565b7f00000000000000000000000000000000000000000000000000000000000000006020820151036117b65761170981611c57565b156117b057611729610120611739920151602080825183010191016110f8565b91602080825183010191016110f8565b604082810151908201516001600160a01b03908116911614918261179d575b82611784575b8261176857505090565b6020919250810151818151910120910151602081519101201490565b805182516001600160a01b03908116911614925061175e565b9150606082015160608201511491611758565b50505f90565b635f9bd90760e11b5f5260045ffd5b939591909294956117e96117da368688610cf4565b602080825183010191016110f8565b96604088019586519560605f9760018060a01b03169a01998a5190803b156105c1576040516323b872dd60e01b81526001600160a01b038c16600482015230602482015260448101929092525f908290606490829084905af19081611a50575b5061187c5787518a5160405163045b391760e01b81529182916107d29130908e906001600160a01b031660048601611bd2565b91949750919497506118919295503691610cf4565b906040519260c084018481106001600160401b03821117611a3c57906001600160401b039160405260018060a01b03169485855216602084015260016040840152606083015260808201528360a082015260206040516118f081610c9d565b7f000000000000000000000000000000000000000000000000000000000000000081528181019283526040518093819263f17325e760e01b8352846004840152516024830152516040604483015260018060a01b0381511660648301526001600160401b03848201511660848301526040810151151560a4830152606081015160c483015260a0611991608083015160c060e4860152610124850190610c2e565b9101516101048301520381877f00000000000000000000000000000000000000000000000000000000000000006001600160a01b03165af1908115611a315784916119ff575b507f8f7f2dbafd79125e808bf16a53d7fa4e17b8b6374ced76d946a45f94b7bf4d06819480a3565b90506020813d602011611a29575b81611a1a60209383610cb8565b810103126105c157515f6119d7565b3d9150611a0d565b6040513d86823e3d90fd5b634e487b7160e01b88526041600452602488fd5b611a5d9198505f90610cb8565b5f965f611849565b805f9172184f03e93ff9f4daa797ed6e38ed64bf6a1f0160401b821015611baf575b806d04ee2d6d415b85acef8100000000600a921015611b94575b662386f26fc10000811015611b80575b6305f5e100811015611b6f575b612710811015611b60575b6064811015611b52575b1015611b47575b600a60216001840193611aec85610cd9565b94611afa6040519687610cb8565b808652611b09601f1991610cd9565b013660208701378401015b5f1901916f181899199a1a9b1b9c1cb0b131b232b360811b8282061a8353048015611b4257600a9091611b14565b505090565b600190910190611ada565b606460029104930192611ad3565b61271060049104930192611ac9565b6305f5e10060089104930192611abe565b662386f26fc1000060109104930192611ab1565b6d04ee2d6d415b85acef810000000060209104930192611aa1565b506040915072184f03e93ff9f4daa797ed6e38ed64bf6a1f0160401b8104611a87565b6001600160a01b03918216815291811660208301529091166040820152606081019190915260800190565b7f00000000000000000000000000000000000000000000000000000000000000006001600160a01b03163303611c2f57565b634ca8886760e01b5f5260045ffd5b60e0013560018060a01b0381168091036105c157301490565b6001600160401b036060820151168015159081611ca8575b50611c9957608001516001600160401b0316611c8a57600190565b637b6227e960e11b5f5260045ffd5b631ab7da6b60e01b5f5260045ffd5b905042115f611c6f56fea2646970667358221220d45f15772bf0198a6f8c964306daaaf66e9f545e6db37210bf955cadf4a7123564736f6c634300081c0033","linkReferences":{}},"methodIdentifiers":{"ATTESTATION_SCHEMA()":"5bf2f20d","attest((bytes32,bytes32,uint64,uint64,uint64,bytes32,address,address,bool,bytes))":"e60c3505","checkObligation((bytes32,bytes32,uint64,uint64,uint64,bytes32,address,address,bool,bytes),bytes,bytes32)":"e6c9714d","collectEscrow(bytes32,bytes32)":"2c713cd9","collectEscrowRaw(bytes32,bytes32)":"891d9ea8","decodeObligationData(bytes)":"c93844be","doObligation((address,bytes,address,uint256),uint64)":"a4f0d517","doObligationFor((address,bytes,address,uint256),uint64,address,address)":"3ce55d02","doObligationForRaw(bytes,uint64,address,address,bytes32)":"f0ffa185","doObligationRaw(bytes,uint64,bytes32)":"b3b902d4","extractArbiterAndDemand(bytes)":"8371ef59","getObligationData(bytes32)":"c6ec5070","getSchema()":"6b122fe0","isPayable()":"ce46e046","multiAttest((bytes32,bytes32,uint64,uint64,uint64,bytes32,address,address,bool,bytes)[],uint256[])":"91db0b7e","multiRevoke((bytes32,bytes32,uint64,uint64,uint64,bytes32,address,address,bool,bytes)[],uint256[])":"88e5b2d9","reclaimExpired(bytes32)":"7d2c2931","revoke((bytes32,bytes32,uint64,uint64,uint64,bytes32,address,address,bool,bytes))":"e49617e1","version()":"54fd4d50"},"id":134}