{"abi":[{"type":"constructor","inputs":[{"name":"_eas","type":"address","internalType":"contract IEAS"},{"name":"_schemaRegistry","type":"address","internalType":"contract ISchemaRegistry"}],"stateMutability":"nonpayable"},{"type":"receive","stateMutability":"payable"},{"type":"function","name":"ATTESTATION_SCHEMA","inputs":[],"outputs":[{"name":"","type":"bytes32","internalType":"bytes32"}],"stateMutability":"view"},{"type":"function","name":"attest","inputs":[{"name":"attestation","type":"tuple","internalType":"struct Attestation","components":[{"name":"uid","type":"bytes32","internalType":"bytes32"},{"name":"schema","type":"bytes32","internalType":"bytes32"},{"name":"time","type":"uint64","internalType":"uint64"},{"name":"expirationTime","type":"uint64","internalType":"uint64"},{"name":"revocationTime","type":"uint64","internalType":"uint64"},{"name":"refUID","type":"bytes32","internalType":"bytes32"},{"name":"recipient","type":"address","internalType":"address"},{"name":"attester","type":"address","internalType":"address"},{"name":"revocable","type":"bool","internalType":"bool"},{"name":"data","type":"bytes","internalType":"bytes"}]}],"outputs":[{"name":"","type":"bool","internalType":"bool"}],"stateMutability":"payable"},{"type":"function","name":"decodeObligationData","inputs":[{"name":"data","type":"bytes","internalType":"bytes"}],"outputs":[{"name":"","type":"tuple","internalType":"struct StringObligation.ObligationData","components":[{"name":"item","type":"string","internalType":"string"}]}],"stateMutability":"pure"},{"type":"function","name":"doObligation","inputs":[{"name":"data","type":"tuple","internalType":"struct StringObligation.ObligationData","components":[{"name":"item","type":"string","internalType":"string"}]},{"name":"refUID","type":"bytes32","internalType":"bytes32"}],"outputs":[{"name":"uid_","type":"bytes32","internalType":"bytes32"}],"stateMutability":"nonpayable"},{"type":"function","name":"doObligationForRaw","inputs":[{"name":"data","type":"bytes","internalType":"bytes"},{"name":"expirationTime","type":"uint64","internalType":"uint64"},{"name":"payer","type":"address","internalType":"address"},{"name":"recipient","type":"address","internalType":"address"},{"name":"refUID","type":"bytes32","internalType":"bytes32"}],"outputs":[{"name":"uid_","type":"bytes32","internalType":"bytes32"}],"stateMutability":"nonpayable"},{"type":"function","name":"doObligationRaw","inputs":[{"name":"data","type":"bytes","internalType":"bytes"},{"name":"expirationTime","type":"uint64","internalType":"uint64"},{"name":"refUID","type":"bytes32","internalType":"bytes32"}],"outputs":[{"name":"uid_","type":"bytes32","internalType":"bytes32"}],"stateMutability":"nonpayable"},{"type":"function","name":"getObligationData","inputs":[{"name":"uid","type":"bytes32","internalType":"bytes32"}],"outputs":[{"name":"","type":"tuple","internalType":"struct StringObligation.ObligationData","components":[{"name":"item","type":"string","internalType":"string"}]}],"stateMutability":"view"},{"type":"function","name":"getSchema","inputs":[],"outputs":[{"name":"","type":"tuple","internalType":"struct SchemaRecord","components":[{"name":"uid","type":"bytes32","internalType":"bytes32"},{"name":"resolver","type":"address","internalType":"contract ISchemaResolver"},{"name":"revocable","type":"bool","internalType":"bool"},{"name":"schema","type":"string","internalType":"string"}]}],"stateMutability":"view"},{"type":"function","name":"isPayable","inputs":[],"outputs":[{"name":"","type":"bool","internalType":"bool"}],"stateMutability":"pure"},{"type":"function","name":"multiAttest","inputs":[{"name":"attestations","type":"tuple[]","internalType":"struct Attestation[]","components":[{"name":"uid","type":"bytes32","internalType":"bytes32"},{"name":"schema","type":"bytes32","internalType":"bytes32"},{"name":"time","type":"uint64","internalType":"uint64"},{"name":"expirationTime","type":"uint64","internalType":"uint64"},{"name":"revocationTime","type":"uint64","internalType":"uint64"},{"name":"refUID","type":"bytes32","internalType":"bytes32"},{"name":"recipient","type":"address","internalType":"address"},{"name":"attester","type":"address","internalType":"address"},{"name":"revocable","type":"bool","internalType":"bool"},{"name":"data","type":"bytes","internalType":"bytes"}]},{"name":"values","type":"uint256[]","internalType":"uint256[]"}],"outputs":[{"name":"","type":"bool","internalType":"bool"}],"stateMutability":"payable"},{"type":"function","name":"multiRevoke","inputs":[{"name":"attestations","type":"tuple[]","internalType":"struct Attestation[]","components":[{"name":"uid","type":"bytes32","internalType":"bytes32"},{"name":"schema","type":"bytes32","internalType":"bytes32"},{"name":"time","type":"uint64","internalType":"uint64"},{"name":"expirationTime","type":"uint64","internalType":"uint64"},{"name":"revocationTime","type":"uint64","internalType":"uint64"},{"name":"refUID","type":"bytes32","internalType":"bytes32"},{"name":"recipient","type":"address","internalType":"address"},{"name":"attester","type":"address","internalType":"address"},{"name":"revocable","type":"bool","internalType":"bool"},{"name":"data","type":"bytes","internalType":"bytes"}]},{"name":"values","type":"uint256[]","internalType":"uint256[]"}],"outputs":[{"name":"","type":"bool","internalType":"bool"}],"stateMutability":"payable"},{"type":"function","name":"revoke","inputs":[{"name":"attestation","type":"tuple","internalType":"struct Attestation","components":[{"name":"uid","type":"bytes32","internalType":"bytes32"},{"name":"schema","type":"bytes32","internalType":"bytes32"},{"name":"time","type":"uint64","internalType":"uint64"},{"name":"expirationTime","type":"uint64","internalType":"uint64"},{"name":"revocationTime","type":"uint64","internalType":"uint64"},{"name":"refUID","type":"bytes32","internalType":"bytes32"},{"name":"recipient","type":"address","internalType":"address"},{"name":"attester","type":"address","internalType":"address"},{"name":"revocable","type":"bool","internalType":"bool"},{"name":"data","type":"bytes","internalType":"bytes"}]}],"outputs":[{"name":"","type":"bool","internalType":"bool"}],"stateMutability":"payable"},{"type":"function","name":"version","inputs":[],"outputs":[{"name":"","type":"string","internalType":"string"}],"stateMutability":"view"},{"type":"error","name":"AccessDenied","inputs":[]},{"type":"error","name":"InsufficientValue","inputs":[]},{"type":"error","name":"InvalidEAS","inputs":[]},{"type":"error","name":"InvalidLength","inputs":[]},{"type":"error","name":"NotFromThisAttester","inputs":[]},{"type":"error","name":"NotPayable","inputs":[]}],"bytecode":{"object":"0x61016080604052346101a4576040816111ed803803809161002082856101de565b8339810103126101a45780516001600160a01b038116918282036101a45760200151916001600160a01b0383168084036101a457604080519081016001600160401b038111828210176101ca57604052600b815260208101926a737472696e67206974656d60a81b84526001608052600460a0525f60c052156101bb576084948460209560e05261012052610100525f604051958680958194630c1af44f60e31b8352606060048401525180918160648501528484015e818101830184905230602483015260016044830152601f01601f191681010301925af19081156101b0575f9161017a575b5061014052604051610feb908161020282396080518161080c015260a05181610837015260c05181610862015260e05181610f350152610100518161069f0152610120518181816102aa0152610d5c0152610140518181816102e20152818161066d015281816107ca0152610caf0152f35b90506020813d6020116101a8575b81610195602093836101de565b810103126101a457515f610108565b5f80fd5b3d9150610188565b6040513d5f823e3d90fd5b6341bc07ff60e11b5f5260045ffd5b634e487b7160e01b5f52604160045260245ffd5b601f909101601f19168101906001600160401b038211908210176101ca5760405256fe60806040526004361015610027575b3615610018575f80fd5b631574f9f360e01b5f5260045ffd5b5f3560e01c806354fd4d50146107ed5780635bf2f20d146107b35780636b122fe01461062e5780637e431351146104f557806388e5b2d9146104d657806391db0b7e146104d6578063b3b902d41461048d578063c6ec507014610221578063c93844be1461016a578063ce46e04614610150578063e49617e11461012b578063e60c35051461012b5763f0ffa1850361000e57346101275760a0366003190112610127576004356001600160401b038111610127576100ea90369060040161098f565b6100f26109bc565b916100fb610a22565b506064356001600160a01b03811681036101275760209361011f9360843593610c30565b604051908152f35b5f80fd5b6020610146610139366109ee565b610141610f33565b610f74565b6040519015158152f35b34610127575f3660031901126101275760206040515f8152f35b34610127576020366003190112610127576004356001600160401b0381116101275761019a90369060040161098f565b60606040516101a881610a67565b52810190602081830312610127578035906001600160401b038211610127570160208183031261012757604051906101df82610a67565b8035906001600160401b038211610127570182601f820112156101275761021d9281602061020f93359101610bfa565b8152604051918291826109d2565b0390f35b3461012757602036600319011261012757606060405161024081610a67565b52606061012060405161025281610a82565b5f81525f60208201525f60408201525f838201525f60808201525f60a08201525f60c08201525f60e08201525f61010082015201526040516328c44a9960e21b815260043560048201525f8160248160018060a01b037f0000000000000000000000000000000000000000000000000000000000000000165afa908115610482575f9161037d575b5060208101517f00000000000000000000000000000000000000000000000000000000000000000361036e5761012001518051810190602081830312610127576020810151906001600160401b0382116101275701602081830312610127576040519061034682610a67565b6020810151906001600160401b03821161012757602061020f928161021d9601920101610b1d565b635527981560e11b5f5260045ffd5b90503d805f833e61038e8183610a9e565b810190602081830312610127578051906001600160401b0382116101275701906101408282031261012757604051916103c683610a82565b80518352602081015160208401526103e060408201610f8d565b60408401526103f160608201610f8d565b606084015261040260808201610f8d565b608084015260a081015160a084015261041d60c08201610fa1565b60c084015261042e60e08201610fa1565b60e08401526104406101008201610abf565b610100840152610120810151906001600160401b03821161012757019080601f8301121561012757815161047692602001610ae7565b610120820152816102da565b6040513d5f823e3d90fd5b34610127576060366003190112610127576004356001600160401b0381116101275761011f6104c2602092369060040161098f565b906104cb6109bc565b604435923392610c30565b60206101466104e43661093f565b926104f0929192610f33565b610b7e565b34610127576040366003190112610127576004356001600160401b038111610127578036039060206003198301126101275760405160208082015291600482013590602219018112156101275701602460048201359101916001600160401b038211610127578136038313610127576105a1608082846020956105c397876040850152816060850152848401375f838284010152601f801991011681010301601f198101835282610a9e565b6040518093819263f0ffa18560e01b835260a0600484015260a48301906108eb565b5f6024830152336044830152336064830152602435608483015203815f305af18015610482575f906105fb575b602090604051908152f35b506020813d602011610626575b8161061560209383610a9e565b8101031261012757602090516105f0565b3d9150610608565b34610127575f3660031901126101275760608060405161064d81610a38565b5f81525f60208201525f604082015201526040516351753e3760e11b81527f000000000000000000000000000000000000000000000000000000000000000060048201525f8160248160018060a01b037f0000000000000000000000000000000000000000000000000000000000000000165afa8015610482575f90610714575b60609061021d604051928392602084528051602085015260018060a01b0360208201511660408501526040810151151582850152015160808084015260a08301906108eb565b503d805f833e6107248183610a9e565b810190602081830312610127578051906001600160401b0382116101275701608081830312610127576040519061075a82610a38565b8051825260208101516001600160a01b038116810361012757602083015261078460408201610abf565b60408301526060810151926001600160401b038411610127576060936107aa9201610b1d565b828201526106ce565b34610127575f3660031901126101275760206040517f00000000000000000000000000000000000000000000000000000000000000008152f35b34610127575f3660031901126101275761021d60206108db60016108307f0000000000000000000000000000000000000000000000000000000000000000610dc6565b818461085b7f0000000000000000000000000000000000000000000000000000000000000000610dc6565b81806108867f0000000000000000000000000000000000000000000000000000000000000000610dc6565b9260405199878b985191829101848a015e870190601760f91b83830152805192839101602183015e010190601760f91b84830152805192839101600283015e01015f838201520301601f198101835282610a9e565b6040519182916020835260208301905b805180835260209291819084018484015e5f828201840152601f01601f1916010190565b9181601f84011215610127578235916001600160401b038311610127576020808501948460051b01011161012757565b6040600319820112610127576004356001600160401b03811161012757816109699160040161090f565b92909291602435906001600160401b0382116101275761098b9160040161090f565b9091565b9181601f84011215610127578235916001600160401b038311610127576020838186019501011161012757565b602435906001600160401b038216820361012757565b60406109eb9260208352519160208082015201906108eb565b90565b602060031982011261012757600435906001600160401b038211610127576101409082900360031901126101275760040190565b604435906001600160a01b038216820361012757565b608081019081106001600160401b03821117610a5357604052565b634e487b7160e01b5f52604160045260245ffd5b602081019081106001600160401b03821117610a5357604052565b61014081019081106001600160401b03821117610a5357604052565b90601f801991011681019081106001600160401b03821117610a5357604052565b5190811515820361012757565b6001600160401b038111610a5357601f01601f191660200190565b929192610af382610acc565b91610b016040519384610a9e565b829481845281830111610127578281602093845f96015e010152565b9080601f830112156101275781516109eb92602001610ae7565b9190811015610b475760051b0190565b634e487b7160e01b5f52603260045260245ffd5b9190811015610b475760051b8101359061013e1981360301821215610127570190565b92909192818303610beb575f91345b848410610b9f57505050505050600190565b610baa848388610b37565b35818111610bdc57610bc0610141868887610b5b565b15610bd15760019103930192610b8d565b505050505050505f90565b63044044a560e21b5f5260045ffd5b63251f56a160e21b5f5260045ffd5b929192610c0682610acc565b91610c146040519384610a9e565b829481845281830111610127578281602093845f960137010152565b610c3e919492943691610bfa565b916040519360c08501918583106001600160401b03841117610a53576001600160401b039260405260018060a01b0316855216602084015260016040840152606083015260808201525f60a082015260405160408101908082106001600160401b03831117610a53576020916040527f000000000000000000000000000000000000000000000000000000000000000081528181019283526040518093819263f17325e760e01b8352846004840152516024830152516040604483015260018060a01b0381511660648301526001600160401b03848201511660848301526040810151151560a4830152606081015160c483015260a0610d4e608083015160c060e48601526101248501906108eb565b91015161010483015203815f7f00000000000000000000000000000000000000000000000000000000000000006001600160a01b03165af1908115610482575f91610d97575090565b90506020813d602011610dbe575b81610db260209383610a9e565b81010312610127575190565b3d9150610da5565b805f9172184f03e93ff9f4daa797ed6e38ed64bf6a1f0160401b821015610f10575b806d04ee2d6d415b85acef8100000000600a921015610ef5575b662386f26fc10000811015610ee1575b6305f5e100811015610ed0575b612710811015610ec1575b6064811015610eb3575b1015610ea8575b600a60216001840193610e4d85610acc565b94610e5b6040519687610a9e565b808652610e6a601f1991610acc565b013660208701378401015b5f1901916f181899199a1a9b1b9c1cb0b131b232b360811b8282061a8353048015610ea357600a9091610e75565b505090565b600190910190610e3b565b606460029104930192610e34565b61271060049104930192610e2a565b6305f5e10060089104930192610e1f565b662386f26fc1000060109104930192610e12565b6d04ee2d6d415b85acef810000000060209104930192610e02565b506040915072184f03e93ff9f4daa797ed6e38ed64bf6a1f0160401b8104610de8565b7f00000000000000000000000000000000000000000000000000000000000000006001600160a01b03163303610f6557565b634ca8886760e01b5f5260045ffd5b60e0013560018060a01b03811680910361012757301490565b51906001600160401b038216820361012757565b51906001600160a01b03821682036101275756fea2646970667358221220728d6ad5bc7b2981dc28c301bd64a1dd51d033ec65634a7c970f3d2ef3abe70864736f6c634300081c0033","linkReferences":{}},"methodIdentifiers":{"ATTESTATION_SCHEMA()":"5bf2f20d","attest((bytes32,bytes32,uint64,uint64,uint64,bytes32,address,address,bool,bytes))":"e60c3505","decodeObligationData(bytes)":"c93844be","doObligation((string),bytes32)":"7e431351","doObligationForRaw(bytes,uint64,address,address,bytes32)":"f0ffa185","doObligationRaw(bytes,uint64,bytes32)":"b3b902d4","getObligationData(bytes32)":"c6ec5070","getSchema()":"6b122fe0","isPayable()":"ce46e046","multiAttest((bytes32,bytes32,uint64,uint64,uint64,bytes32,address,address,bool,bytes)[],uint256[])":"91db0b7e","multiRevoke((bytes32,bytes32,uint64,uint64,uint64,bytes32,address,address,bool,bytes)[],uint256[])":"88e5b2d9","revoke((bytes32,bytes32,uint64,uint64,uint64,bytes32,address,address,bool,bytes))":"e49617e1","version()":"54fd4d50"},"id":136}