{"abi":[{"type":"constructor","inputs":[{"name":"_eas","type":"address","internalType":"contract IEAS"},{"name":"_bundleEscrow","type":"address","internalType":"contract TokenBundleEscrowObligation"},{"name":"_bundlePayment","type":"address","internalType":"contract TokenBundlePaymentObligation"}],"stateMutability":"nonpayable"},{"type":"function","name":"buyBundleForBundle","inputs":[{"name":"bidBundle","type":"tuple","internalType":"struct TokenBundleEscrowObligation.ObligationData","components":[{"name":"arbiter","type":"address","internalType":"address"},{"name":"demand","type":"bytes","internalType":"bytes"},{"name":"erc20Tokens","type":"address[]","internalType":"address[]"},{"name":"erc20Amounts","type":"uint256[]","internalType":"uint256[]"},{"name":"erc721Tokens","type":"address[]","internalType":"address[]"},{"name":"erc721TokenIds","type":"uint256[]","internalType":"uint256[]"},{"name":"erc1155Tokens","type":"address[]","internalType":"address[]"},{"name":"erc1155TokenIds","type":"uint256[]","internalType":"uint256[]"},{"name":"erc1155Amounts","type":"uint256[]","internalType":"uint256[]"}]},{"name":"askBundle","type":"tuple","internalType":"struct TokenBundlePaymentObligation.ObligationData","components":[{"name":"erc20Tokens","type":"address[]","internalType":"address[]"},{"name":"erc20Amounts","type":"uint256[]","internalType":"uint256[]"},{"name":"erc721Tokens","type":"address[]","internalType":"address[]"},{"name":"erc721TokenIds","type":"uint256[]","internalType":"uint256[]"},{"name":"erc1155Tokens","type":"address[]","internalType":"address[]"},{"name":"erc1155TokenIds","type":"uint256[]","internalType":"uint256[]"},{"name":"erc1155Amounts","type":"uint256[]","internalType":"uint256[]"},{"name":"payee","type":"address","internalType":"address"}]},{"name":"expiration","type":"uint64","internalType":"uint64"}],"outputs":[{"name":"","type":"bytes32","internalType":"bytes32"}],"stateMutability":"nonpayable"},{"type":"function","name":"payBundleForBundle","inputs":[{"name":"buyAttestation","type":"bytes32","internalType":"bytes32"}],"outputs":[{"name":"","type":"bytes32","internalType":"bytes32"}],"stateMutability":"nonpayable"},{"type":"function","name":"permitAndEscrowBundle","inputs":[{"name":"data","type":"tuple","internalType":"struct TokenBundleEscrowObligation.ObligationData","components":[{"name":"arbiter","type":"address","internalType":"address"},{"name":"demand","type":"bytes","internalType":"bytes"},{"name":"erc20Tokens","type":"address[]","internalType":"address[]"},{"name":"erc20Amounts","type":"uint256[]","internalType":"uint256[]"},{"name":"erc721Tokens","type":"address[]","internalType":"address[]"},{"name":"erc721TokenIds","type":"uint256[]","internalType":"uint256[]"},{"name":"erc1155Tokens","type":"address[]","internalType":"address[]"},{"name":"erc1155TokenIds","type":"uint256[]","internalType":"uint256[]"},{"name":"erc1155Amounts","type":"uint256[]","internalType":"uint256[]"}]},{"name":"expiration","type":"uint64","internalType":"uint64"},{"name":"permits","type":"tuple[]","internalType":"struct TokenBundleBarterUtils.ERC20PermitSignature[]","components":[{"name":"v","type":"uint8","internalType":"uint8"},{"name":"r","type":"bytes32","internalType":"bytes32"},{"name":"s","type":"bytes32","internalType":"bytes32"},{"name":"deadline","type":"uint256","internalType":"uint256"}]}],"outputs":[{"name":"","type":"bytes32","internalType":"bytes32"}],"stateMutability":"nonpayable"},{"type":"function","name":"permitAndEscrowBundleForBundle","inputs":[{"name":"bidBundle","type":"tuple","internalType":"struct TokenBundleEscrowObligation.ObligationData","components":[{"name":"arbiter","type":"address","internalType":"address"},{"name":"demand","type":"bytes","internalType":"bytes"},{"name":"erc20Tokens","type":"address[]","internalType":"address[]"},{"name":"erc20Amounts","type":"uint256[]","internalType":"uint256[]"},{"name":"erc721Tokens","type":"address[]","internalType":"address[]"},{"name":"erc721TokenIds","type":"uint256[]","internalType":"uint256[]"},{"name":"erc1155Tokens","type":"address[]","internalType":"address[]"},{"name":"erc1155TokenIds","type":"uint256[]","internalType":"uint256[]"},{"name":"erc1155Amounts","type":"uint256[]","internalType":"uint256[]"}]},{"name":"askBundle","type":"tuple","internalType":"struct TokenBundlePaymentObligation.ObligationData","components":[{"name":"erc20Tokens","type":"address[]","internalType":"address[]"},{"name":"erc20Amounts","type":"uint256[]","internalType":"uint256[]"},{"name":"erc721Tokens","type":"address[]","internalType":"address[]"},{"name":"erc721TokenIds","type":"uint256[]","internalType":"uint256[]"},{"name":"erc1155Tokens","type":"address[]","internalType":"address[]"},{"name":"erc1155TokenIds","type":"uint256[]","internalType":"uint256[]"},{"name":"erc1155Amounts","type":"uint256[]","internalType":"uint256[]"},{"name":"payee","type":"address","internalType":"address"}]},{"name":"expiration","type":"uint64","internalType":"uint64"},{"name":"permits","type":"tuple[]","internalType":"struct TokenBundleBarterUtils.ERC20PermitSignature[]","components":[{"name":"v","type":"uint8","internalType":"uint8"},{"name":"r","type":"bytes32","internalType":"bytes32"},{"name":"s","type":"bytes32","internalType":"bytes32"},{"name":"deadline","type":"uint256","internalType":"uint256"}]}],"outputs":[{"name":"","type":"bytes32","internalType":"bytes32"}],"stateMutability":"nonpayable"},{"type":"function","name":"permitAndPayBundle","inputs":[{"name":"data","type":"tuple","internalType":"struct TokenBundlePaymentObligation.ObligationData","components":[{"name":"erc20Tokens","type":"address[]","internalType":"address[]"},{"name":"erc20Amounts","type":"uint256[]","internalType":"uint256[]"},{"name":"erc721Tokens","type":"address[]","internalType":"address[]"},{"name":"erc721TokenIds","type":"uint256[]","internalType":"uint256[]"},{"name":"erc1155Tokens","type":"address[]","internalType":"address[]"},{"name":"erc1155TokenIds","type":"uint256[]","internalType":"uint256[]"},{"name":"erc1155Amounts","type":"uint256[]","internalType":"uint256[]"},{"name":"payee","type":"address","internalType":"address"}]},{"name":"permits","type":"tuple[]","internalType":"struct TokenBundleBarterUtils.ERC20PermitSignature[]","components":[{"name":"v","type":"uint8","internalType":"uint8"},{"name":"r","type":"bytes32","internalType":"bytes32"},{"name":"s","type":"bytes32","internalType":"bytes32"},{"name":"deadline","type":"uint256","internalType":"uint256"}]}],"outputs":[{"name":"","type":"bytes32","internalType":"bytes32"}],"stateMutability":"nonpayable"},{"type":"function","name":"permitAndPayBundleForBundle","inputs":[{"name":"buyAttestation","type":"bytes32","internalType":"bytes32"},{"name":"permits","type":"tuple[]","internalType":"struct TokenBundleBarterUtils.ERC20PermitSignature[]","components":[{"name":"v","type":"uint8","internalType":"uint8"},{"name":"r","type":"bytes32","internalType":"bytes32"},{"name":"s","type":"bytes32","internalType":"bytes32"},{"name":"deadline","type":"uint256","internalType":"uint256"}]}],"outputs":[{"name":"","type":"bytes32","internalType":"bytes32"}],"stateMutability":"nonpayable"},{"type":"error","name":"CouldntCollectEscrow","inputs":[]},{"type":"error","name":"InvalidSignatureLength","inputs":[]}],"bytecode":{"object":"0x60803460b957601f611b0338819003918201601f19168301916001600160401b0383118484101760bd5780849260609460405283398101031260b95780516001600160a01b038116919082900360b95760208101516001600160a01b038116919082900360b957604001516001600160a01b038116929083900360b95760018060a01b03195f5416175f5560018060a01b0319600154161760015560018060a01b03196002541617600255604051611a3190816100d28239f35b5f80fd5b634e487b7160e01b5f52604160045260245ffdfe6080806040526004361015610012575f80fd5b5f3560e01c9081631f5c022814610969575080634046f027146107f2578063c34eca7914610770578063dd7cd48514610425578063e8be0b831461037b5763eb71177f1461005e575f80fd5b346101d45760403660031901126101d4576004356001600160401b0381116101d457806004019061010060031982360301126101d4576024356001600160401b0381116101d4576100b3903690600401610af1565b926100be8180611126565b9050840361036c57602483015f5b6100d68380611126565b90508110156101d8576100e98380611126565b6001600160a01b03916100fd91849161115b565b6101069061116b565b600254911691906001600160a01b0316816101218587611126565b61012b929161115b565b3592610138838a896110c7565b6060013590610148848b8a6110c7565b610151906110d7565b9461015d858c8b6110c7565b602001359361016d868d8c6110c7565b6040013590833b156101d45761019f5f969287936040519a8b988997889663d505accf60e01b885233600489016110e5565b03925af19182156101c9576001926101b9575b50016100cc565b5f6101c391610b83565b5f6101b2565b6040513d5f823e3d90fd5b5f80fd5b6102976020610278856102595f878b6102f460018060a01b0360025416956102e16102d66102b66040519c8d9b8c9a8b996334602a9d60e11b8b52606060048c01526102476102408c61016461022e8c806114fb565b9190926101006064820152019161152f565b91896114fb565b8c83036063190160848e01529061156e565b61026660448a01886114fb565b8b83036063190160a48d01529061152f565b61028560648901876114fb565b8a83036063190160c48c01529061156e565b6102a460848801866114fb565b8983036063190160e48b01529061152f565b6102c360a48701856114fb565b888303606319016101048a01529061156e565b9160c48501906114fb565b858303606319016101248701529061156e565b906001600160a01b039061030a9060e40161117f565b1661014483015233602483015233604483015203925af180156101c9575f90610339575b602090604051908152f35b506020813d602011610364575b8161035360209383610b83565b810103126101d4576020905161032e565b3d9150610346565b634be6321b60e01b5f5260045ffd5b346101d45760203660031901126101d45760043560245f60018060a01b03815416604051928380926328c44a9960e21b82528660048301525afa9182156101c9576103f560206103e561012082966103fb965f91610403575b500151828082518301019101610dff565b0151848082518301019101610f61565b906116aa565b604051908152f35b61041f91503d805f833e6104178183610b83565b810190610c3a565b886103d4565b346101d45760603660031901126101d4576004356001600160401b0381116101d45780600401908036036101206003198201126101d457602435926001600160401b0384168094036101d4576044356001600160401b0381116101d457610490903690600401610af1565b94909260448501906104a28285611126565b9050870361036c5791946064810192905f5b6104be8487611126565b90508110156105ab5780878a926104ef6104ea6104db898c611126565b6001600160a01b03949161115b565b61116b565b6001546001600160a01b031691166105118461050b8b8d611126565b9061115b565b35606061051f8688876110c7565b01359260406105518761053b610536828c8b6110c7565b6110d7565b99602061054983838c6110c7565b0135986110c7565b013590833b156101d4576105815f969287936040519a8b988997889663d505accf60e01b885233600489016110e5565b03925af19182156101c95760019261059b575b50016104b4565b5f6105a591610b83565b8a610594565b50600154604051632f29cf5960e21b8152608060048201529591946001600160a01b039182169389926105dd8561117f565b166084890152602487013590602219018112156101d457860191602460048401359301916001600160401b0384116101d45783360383136101d457602097610730866101046107286107086106e88f9d6106aa8f9d998e6106985f9f829f9d6101c46107439f6106c89884610691956106799361012060a48b0152816101a48b0152858a01375f888201850152601f01601f19168701936114fb565b91909260831982888303010160c4880152019161152f565b928a6114fb565b9160e46083198286030191015261156e565b6106b760848a01886114fb565b8d830360831901888f01529061152f565b6106d560a48901876114fb565b8c8303608319016101248e01529061156e565b6106f560c48801866114fb565b8b8303608319016101448d01529061152f565b61071560e48701856114fb565b8a8303608319016101648c01529061156e565b9301906114fb565b858303608319016101848701529061156e565b90602483015233604483015233606483015203925af180156101c9575f9061033957602090604051908152f35b346101d45760603660031901126101d4576004356001600160401b0381116101d45761012060031982360301126101d4576024356001600160401b0381116101d45761010060031982360301126101d4576020916103fb916107ec6107e16107d6610b21565b933690600401611255565b9136906004016113d9565b906117cb565b346101d45760803660031901126101d4576004356001600160401b0381116101d457806004019061012060031982360301126101d457602435916001600160401b0383116101d45761010060031984360301126101d457610851610b21565b906064356001600160401b0381116101d457610871903690600401610af1565b94909260448501906108838285611126565b9050870361036c579194606401915f5b61089d8386611126565b905081101561095557808689926108ba6104ea6104db888b611126565b6001546001600160a01b031691166108d68461050b8a8c611126565b3560606108e48688876110c7565b01359260406108fb8761053b610536828c8b6110c7565b013590833b156101d45761092b5f969287936040519a8b988997889663d505accf60e01b885233600489016110e5565b03925af19182156101c957600192610945575b5001610893565b5f61094f91610b83565b8961093e565b60206103fb83896107ec6107e1368b611255565b346101d45760403660031901126101d4576004356024356001600160401b0381116101d45761099c903690600401610af1565b925f8160248160018060a01b038454166328c44a9960e21b82528760048301525afa9081156101c9576109e96101206109fa936020935f9161040357500151828082518301019101610dff565b015160208082518301019101610f61565b805151840361036c579160208301905f5b84518051821015610ae5576001600160a01b0390610a2a90839061109f565b511690600160a01b600190036002541681855190610a479161109f565b5192610a54838a896110c7565b6060013590610a64848b8a6110c7565b610a6d906110d7565b94610a79858c8b6110c7565b6020013593610a89868d8c6110c7565b6040013590833b156101d457610abb5f969287936040519a8b988997889663d505accf60e01b885233600489016110e5565b03925af19182156101c957600192610ad5575b5001610a0b565b5f610adf91610b83565b87610ace565b60206103fb87856116aa565b9181601f840112156101d4578235916001600160401b0383116101d4576020808501948460071b0101116101d457565b604435906001600160401b03821682036101d457565b61012081019081106001600160401b03821117610b5357604052565b634e487b7160e01b5f52604160045260245ffd5b61010081019081106001600160401b03821117610b5357604052565b90601f801991011681019081106001600160401b03821117610b5357604052565b51906001600160401b03821682036101d457565b51906001600160a01b03821682036101d457565b519081151582036101d457565b6001600160401b038111610b5357601f01601f191660200190565b81601f820112156101d457805190610c0b82610bd9565b92610c196040519485610b83565b828452602083830101116101d457815f9260208093018386015e8301015290565b6020818303126101d4578051906001600160401b0382116101d45701610140818303126101d4576040519161014083018381106001600160401b03821117610b53576040528151835260208201516020840152610c9960408301610ba4565b6040840152610caa60608301610ba4565b6060840152610cbb60808301610ba4565b608084015260a082015160a0840152610cd660c08301610bb8565b60c0840152610ce760e08301610bb8565b60e0840152610cf96101008301610bcc565b6101008401526101208201516001600160401b0381116101d457610d1d9201610bf4565b61012082015290565b6001600160401b038111610b535760051b60200190565b9080601f830112156101d4578151610d5481610d26565b92610d626040519485610b83565b81845260208085019260051b8201019283116101d457602001905b828210610d8a5750505090565b60208091610d9784610bb8565b815201910190610d7d565b9080601f830112156101d4578151610db981610d26565b92610dc76040519485610b83565b81845260208085019260051b8201019283116101d457602001905b828210610def5750505090565b8151815260209182019101610de2565b6020818303126101d4578051906001600160401b0382116101d45701610120818303126101d45760405191610e3383610b37565b610e3c82610bb8565b835260208201516001600160401b0381116101d45781610e5d918401610bf4565b602084015260408201516001600160401b0381116101d45781610e81918401610d3d565b604084015260608201516001600160401b0381116101d45781610ea5918401610da2565b606084015260808201516001600160401b0381116101d45781610ec9918401610d3d565b608084015260a08201516001600160401b0381116101d45781610eed918401610da2565b60a084015260c08201516001600160401b0381116101d45781610f11918401610d3d565b60c084015260e08201516001600160401b0381116101d45781610f35918401610da2565b60e08401526101008201516001600160401b0381116101d457610f589201610da2565b61010082015290565b6020818303126101d4578051906001600160401b0382116101d45701610100818303126101d45760405191610f9583610b67565b81516001600160401b0381116101d45781610fb1918401610d3d565b835260208201516001600160401b0381116101d45781610fd2918401610da2565b602084015260408201516001600160401b0381116101d45781610ff6918401610d3d565b604084015260608201516001600160401b0381116101d4578161101a918401610da2565b606084015260808201516001600160401b0381116101d4578161103e918401610d3d565b608084015260a08201516001600160401b0381116101d45781611062918401610da2565b60a084015260c0820151916001600160401b0383116101d45761108c60e092611097948301610da2565b60c085015201610bb8565b60e082015290565b80518210156110b35760209160051b010190565b634e487b7160e01b5f52603260045260245ffd5b91908110156110b35760071b0190565b3560ff811681036101d45790565b9360c095919897969360ff9360e087019a60018060a01b0316875260018060a01b031660208701526040860152606085015216608083015260a08201520152565b903590601e19813603018212156101d457018035906001600160401b0382116101d457602001918160051b360383136101d457565b91908110156110b35760051b0190565b356001600160a01b03811681036101d45790565b35906001600160a01b03821682036101d457565b9080601f830112156101d45781356111aa81610d26565b926111b86040519485610b83565b81845260208085019260051b8201019283116101d457602001905b8282106111e05750505090565b602080916111ed8461117f565b8152019101906111d3565b9080601f830112156101d457813561120f81610d26565b9261121d6040519485610b83565b81845260208085019260051b8201019283116101d457602001905b8282106112455750505090565b8135815260209182019101611238565b9190610120838203126101d4576040519061126f82610b37565b819361127a8161117f565b835260208101356001600160401b0381116101d457810182601f820112156101d45780356112a781610bd9565b916112b56040519384610b83565b81835284602083830101116101d457815f9260208093018386013783010152602084015260408101356001600160401b0381116101d457826112f8918301611193565b604084015260608101356001600160401b0381116101d4578261131c9183016111f8565b606084015260808101356001600160401b0381116101d45782611340918301611193565b608084015260a08101356001600160401b0381116101d457826113649183016111f8565b60a084015260c08101356001600160401b0381116101d45782611388918301611193565b60c084015260e08101356001600160401b0381116101d457826113ac9183016111f8565b60e0840152610100810135916001600160401b0383116101d457610100926113d492016111f8565b910152565b919091610100818403126101d457604051906113f482610b67565b819381356001600160401b0381116101d45781611412918401611193565b835260208201356001600160401b0381116101d457816114339184016111f8565b602084015260408201356001600160401b0381116101d45781611457918401611193565b604084015260608201356001600160401b0381116101d4578161147b9184016111f8565b606084015260808201356001600160401b0381116101d4578161149f918401611193565b608084015260a08201356001600160401b0381116101d457816114c39184016111f8565b60a084015260c0820135906001600160401b0382116101d457826114f060e094926113d4948694016111f8565b60c08601520161117f565b9035601e19823603018112156101d45701602081359101916001600160401b0382116101d4578160051b360383136101d457565b916020908281520191905f5b8181106115485750505090565b909192602080600192838060a01b036115608861117f565b16815201940192910161153b565b81835290916001600160fb1b0383116101d45760209260051b809284830137010190565b90602080835192838152019201905f5b8181106115af5750505090565b82516001600160a01b03168452602093840193909201916001016115a2565b90602080835192838152019201905f5b8181106115eb5750505090565b82518452602093840193909201916001016115de565b9060e061169761168561167361166161164f61163d61162b89516101008a526101008a0190611592565b60208a015189820360208b01526115ce565b604089015188820360408a0152611592565b606088015187820360608901526115ce565b60808701518682036080880152611592565b60a086015185820360a08701526115ce565b60c085015184820360c08601526115ce565b928101516001600160a01b031691015290565b60206116e15f9360018060a01b0360025416906040519586809481936334602a9d60e11b8352606060048401526064830190611601565b33602483015233604483015203925af19182156101c9575f92611796575b50600154604051632c713cd960e01b8152600481019290925260248201839052602090829060449082905f906001600160a01b03165af19081156101c9575f9161175c575b501561174d5790565b63a97a981d60e01b5f5260045ffd5b90506020813d60201161178e575b8161177760209383610b83565b810103126101d45761178890610bcc565b5f611744565b3d915061176a565b9091506020813d6020116117c3575b816117b260209383610b83565b810103126101d457519060206116ff565b3d91506117a5565b90600160a01b60019003600154169160408101519360608201519160808101519060a081015160c08201519060e083015192610100015193600160a01b600190036002541696604051809960208201602090526040820161182b91611601565b03601f1981018a5261183d908a610b83565b6040519761184a89610b37565b885260208801988952604088019a8b52606088019081526080880191825260a0880192835260c0880193845260e0880194855261010088019586526040519a8b998a99632f29cf5960e21b8b5260048b0160809052600160a01b6001900390511660848b01525160a48a01610120905280518091816101a48d01526020016101c48c015e808a016101c4015f9052601f1990601f011689019051906083198a82036101c4010160c48b01526101c40161190291611592565b90518882036083190160e48a015261191a91906115ce565b9051878203608319016101048901526119339190611592565b90518682036083190161012488015261194c91906115ce565b9051858203608319016101448701526119659190611592565b90518482036083190161016486015261197e91906115ce565b90518382036083190161018485015261199791906115ce565b906001600160401b0316602483015233604483015233606483015203815a6020945f91f19081156101c9575f916119cc575090565b90506020813d6020116119f3575b816119e760209383610b83565b810103126101d4575190565b3d91506119da56fea2646970667358221220ac99ddc7231ad02587b9d6a6d4b45d9e45e3784c607593c8106e51cfe65f0edf64736f6c634300081c0033","linkReferences":{}},"methodIdentifiers":{"buyBundleForBundle((address,bytes,address[],uint256[],address[],uint256[],address[],uint256[],uint256[]),(address[],uint256[],address[],uint256[],address[],uint256[],uint256[],address),uint64)":"c34eca79","payBundleForBundle(bytes32)":"e8be0b83","permitAndEscrowBundle((address,bytes,address[],uint256[],address[],uint256[],address[],uint256[],uint256[]),uint64,(uint8,bytes32,bytes32,uint256)[])":"dd7cd485","permitAndEscrowBundleForBundle((address,bytes,address[],uint256[],address[],uint256[],address[],uint256[],uint256[]),(address[],uint256[],address[],uint256[],address[],uint256[],uint256[],address),uint64,(uint8,bytes32,bytes32,uint256)[])":"4046f027","permitAndPayBundle((address[],uint256[],address[],uint256[],address[],uint256[],uint256[],address),(uint8,bytes32,bytes32,uint256)[])":"eb71177f","permitAndPayBundleForBundle(bytes32,(uint8,bytes32,bytes32,uint256)[])":"1f5c0228"},"id":148}