{"abi":[{"type":"constructor","inputs":[{"name":"_baseObligation","type":"address","internalType":"contract TokenBundleEscrowObligation"},{"name":"_specificAttestation","type":"address","internalType":"contract SpecificAttestationArbiter"}],"stateMutability":"nonpayable"},{"type":"function","name":"checkObligation","inputs":[{"name":"obligation","type":"tuple","internalType":"struct Attestation","components":[{"name":"uid","type":"bytes32","internalType":"bytes32"},{"name":"schema","type":"bytes32","internalType":"bytes32"},{"name":"time","type":"uint64","internalType":"uint64"},{"name":"expirationTime","type":"uint64","internalType":"uint64"},{"name":"revocationTime","type":"uint64","internalType":"uint64"},{"name":"refUID","type":"bytes32","internalType":"bytes32"},{"name":"recipient","type":"address","internalType":"address"},{"name":"attester","type":"address","internalType":"address"},{"name":"revocable","type":"bool","internalType":"bool"},{"name":"data","type":"bytes","internalType":"bytes"}]},{"name":"demand","type":"bytes","internalType":"bytes"},{"name":"counteroffer","type":"bytes32","internalType":"bytes32"}],"outputs":[{"name":"","type":"bool","internalType":"bool"}],"stateMutability":"view"},{"type":"function","name":"paymentObligation","inputs":[],"outputs":[{"name":"","type":"address","internalType":"contract TokenBundleEscrowObligation"}],"stateMutability":"view"},{"type":"function","name":"specificAttestation","inputs":[],"outputs":[{"name":"","type":"address","internalType":"contract SpecificAttestationArbiter"}],"stateMutability":"view"},{"type":"error","name":"ArrayLengthMismatch","inputs":[]},{"type":"error","name":"InvalidObligation","inputs":[]},{"type":"error","name":"InvalidValidation","inputs":[]}],"bytecode":{"object":"0x60c03461009a57601f610b7d38819003918201601f19168301916001600160401b0383118484101761009e57808492604094855283398101031261009a578051906001600160a01b038216820361009a5760200151906001600160a01b038216820361009a5760805260a052604051610aca90816100b38239608051818181610312015261067e015260a05181818161056001526106bf0152f35b5f80fd5b634e487b7160e01b5f52604160045260245ffdfe6080806040526004361015610012575f80fd5b5f3560e01c9081630ac21e33146106ad575080638660b17b146106695763e6c9714d1461003d575f80fd5b346105f15760603660031901126105f1576004356001600160401b0381116105f15761014060031982360301126105f15760405161014081018181106001600160401b038211176105dd57604052816004013581526020810191602481013583526100aa6044820161070f565b60408301526100bb6064820161070f565b90606083019182526100cf6084820161070f565b608084015260a481013560a08401526100ea60c48201610723565b60c08401526100fb60e48201610723565b60e084015261010481013580151581036105f1576101008401526101248101356001600160401b0381116105f15761012091600461013c9236920101610752565b92019182526024356001600160401b0381116105f157610160903690600401610752565b928351840160208101946020818303126105f1576020810151906001600160401b0382116105f157019060e090829003126105f1576040519460e086018681106001600160401b038211176105dd5760405260208201516001600160401b0381116105f1578160206101d4928501016107c3565b865260408201516001600160401b0381116105f1578160206101f892850101610828565b916020870192835260608101516001600160401b0381116105f157826020610222928401016107c3565b6040880190815260808201516001600160401b0381116105f15783602061024b92850101610828565b906060890191825260a08301516001600160401b0381116105f157846020610275928601016107c3565b9260808a0193845260c08101516001600160401b0381116105f15785602061029f92840101610828565b9460a08b0195865260e0820151916001600160401b0383116105f1576102c89201602001610828565b9460c08a019586528951519051510361064d5751519051510361064d57515190515181149182159261065c575b505061064d5751604051635bf2f20d60e01b8152906020826004817f00000000000000000000000000000000000000000000000000000000000000006001600160a01b03165afa918215610642575f9261060e575b50036105f557516001600160401b03168015159081610604575b506105f55751908151820160208101926020818303126105f1576020810151906001600160401b0382116105f157019061012090829003126105f1576040519161012083018381106001600160401b038211176105dd576040526103ca602083016107af565b835260408201516001600160401b0381116105f1576020908301019380601f860112156105f15784516103fc81610737565b9561040a60405197886106ee565b81875282602083830101116105f157815f926020809301838a015e870101526020840194855260608301516001600160401b0381116105f157816020610452928601016107c3565b604085015260808301516001600160401b0381116105f15781602061047992860101610828565b606085015260a08301516001600160401b0381116105f1578160206104a0928601016107c3565b608085015260c08301516001600160401b0381116105f1578160206104c792860101610828565b60a085015260e08301516001600160401b0381116105f1578160206104ee928601016107c3565b60c08501526101008301516001600160401b0381116105f15781602061051692860101610828565b60e0850152610120830151906001600160401b0382116105f15760206105419261054d950101610828565b610100840152826108ad565b156105ce57516001600160a01b039081167f0000000000000000000000000000000000000000000000000000000000000000909116036105ce57516020818051810103126105f1576040519060208201908282106001600160401b038311176105dd576020916040520151809152604435036105ce57602060405160018152f35b634af2691560e01b5f5260045ffd5b634e487b7160e01b5f52604160045260245ffd5b5f80fd5b637a9e2e8d60e01b5f5260045ffd5b905042115f610364565b9091506020813d60201161063a575b8161062a602093836106ee565b810103126105f15751905f61034a565b3d915061061d565b6040513d5f823e3d90fd5b63512509d360e11b5f5260045ffd5b5151141590505f806102f5565b346105f1575f3660031901126105f1576040517f00000000000000000000000000000000000000000000000000000000000000006001600160a01b03168152602090f35b346105f1575f3660031901126105f1577f00000000000000000000000000000000000000000000000000000000000000006001600160a01b03168152602090f35b90601f801991011681019081106001600160401b038211176105dd57604052565b35906001600160401b03821682036105f157565b35906001600160a01b03821682036105f157565b6001600160401b0381116105dd57601f01601f191660200190565b81601f820112156105f15780359061076982610737565b9261077760405194856106ee565b828452602083830101116105f157815f926020809301838601378301015290565b6001600160401b0381116105dd5760051b60200190565b51906001600160a01b03821682036105f157565b9080601f830112156105f15781516107da81610798565b926107e860405194856106ee565b81845260208085019260051b8201019283116105f157602001905b8282106108105750505090565b6020809161081d846107af565b815201910190610803565b9080601f830112156105f157815161083f81610798565b9261084d60405194856106ee565b81845260208085019260051b8201019283116105f157602001905b8282106108755750505090565b8151815260209182019101610868565b80518210156108995760209160051b010190565b634e487b7160e01b5f52603260045260245ffd5b604081019182515181515111610a8d575f5b8151518110156109375783516001600160a01b03906108df908390610885565b511660018060a01b036108f3838551610885565b511614801590610912575b61090a576001016108bf565b505050505f90565b50610921816060850151610885565b51610930826020850151610885565b51116108fe565b509150608081019182515160408201908151511161090a575f5b8151518110156109cb5784516001600160a01b0390610971908390610885565b511660018060a01b03610985838551610885565b5116148015906109a5575b61099c57600101610951565b50505050505f90565b506109b48160a0860151610885565b516109c3826060860151610885565b511415610990565b505060c08201805151608083018051519095501161090a575f5b845151811015610a835781516001600160a01b0390610a05908390610885565b511660018060a01b03610a19838851610885565b511614801590610a5d575b8015610a37575b61099c576001016109e5565b50610a4781610100860151610885565b51610a568260c0860151610885565b5111610a2b565b50610a6c8160e0860151610885565b51610a7b8260a0860151610885565b511415610a24565b5050505050600190565b5050505f9056fea26469706673582212208916de536a954080e9ba7ad5a02a110a3e4d193d8cdcfd0d60caffd851ac80c964736f6c634300081c0033","linkReferences":{}},"methodIdentifiers":{"checkObligation((bytes32,bytes32,uint64,uint64,uint64,bytes32,address,address,bool,bytes),bytes,bytes32)":"e6c9714d","paymentObligation()":"8660b17b","specificAttestation()":"0ac21e33"},"id":122}