{
  "abi": [
    {
      "type": "constructor",
      "inputs": [
        {
          "name": "_eas",
          "type": "address",
          "internalType": "contract IEAS"
        }
      ],
      "stateMutability": "nonpayable"
    },
    {
      "type": "receive",
      "stateMutability": "payable"
    },
    {
      "type": "function",
      "name": "EXECUTOR_SENTINEL",
      "inputs": [],
      "outputs": [
        {
          "name": "",
          "type": "address",
          "internalType": "address"
        }
      ],
      "stateMutability": "view"
    },
    {
      "type": "function",
      "name": "MAX_SPLITS",
      "inputs": [],
      "outputs": [
        {
          "name": "",
          "type": "uint256",
          "internalType": "uint256"
        }
      ],
      "stateMutability": "view"
    },
    {
      "type": "function",
      "name": "arbitrate",
      "inputs": [
        {
          "name": "fulfillment",
          "type": "bytes32",
          "internalType": "bytes32"
        },
        {
          "name": "escrow",
          "type": "bytes32",
          "internalType": "bytes32"
        },
        {
          "name": "splits",
          "type": "tuple[]",
          "internalType": "struct ERC1155Splitter.Split[]",
          "components": [
            {
              "name": "recipient",
              "type": "address",
              "internalType": "address"
            },
            {
              "name": "amount",
              "type": "uint256",
              "internalType": "uint256"
            }
          ]
        }
      ],
      "outputs": [],
      "stateMutability": "nonpayable"
    },
    {
      "type": "function",
      "name": "checkObligation",
      "inputs": [
        {
          "name": "fulfillment",
          "type": "tuple",
          "internalType": "struct Attestation",
          "components": [
            {
              "name": "uid",
              "type": "bytes32",
              "internalType": "bytes32"
            },
            {
              "name": "schema",
              "type": "bytes32",
              "internalType": "bytes32"
            },
            {
              "name": "time",
              "type": "uint64",
              "internalType": "uint64"
            },
            {
              "name": "expirationTime",
              "type": "uint64",
              "internalType": "uint64"
            },
            {
              "name": "revocationTime",
              "type": "uint64",
              "internalType": "uint64"
            },
            {
              "name": "refUID",
              "type": "bytes32",
              "internalType": "bytes32"
            },
            {
              "name": "recipient",
              "type": "address",
              "internalType": "address"
            },
            {
              "name": "attester",
              "type": "address",
              "internalType": "address"
            },
            {
              "name": "revocable",
              "type": "bool",
              "internalType": "bool"
            },
            {
              "name": "data",
              "type": "bytes",
              "internalType": "bytes"
            }
          ]
        },
        {
          "name": "demand",
          "type": "bytes",
          "internalType": "bytes"
        },
        {
          "name": "escrow",
          "type": "bytes32",
          "internalType": "bytes32"
        }
      ],
      "outputs": [
        {
          "name": "",
          "type": "bool",
          "internalType": "bool"
        }
      ],
      "stateMutability": "view"
    },
    {
      "type": "function",
      "name": "collectAndDistribute",
      "inputs": [
        {
          "name": "escrowContract",
          "type": "address",
          "internalType": "address"
        },
        {
          "name": "escrow",
          "type": "bytes32",
          "internalType": "bytes32"
        },
        {
          "name": "fulfillment",
          "type": "bytes32",
          "internalType": "bytes32"
        }
      ],
      "outputs": [],
      "stateMutability": "nonpayable"
    },
    {
      "type": "function",
      "name": "createFulfillment",
      "inputs": [
        {
          "name": "obligationContract",
          "type": "address",
          "internalType": "address"
        },
        {
          "name": "data",
          "type": "bytes",
          "internalType": "bytes"
        },
        {
          "name": "expirationTime",
          "type": "uint64",
          "internalType": "uint64"
        },
        {
          "name": "refUID",
          "type": "bytes32",
          "internalType": "bytes32"
        }
      ],
      "outputs": [
        {
          "name": "fulfillmentUid",
          "type": "bytes32",
          "internalType": "bytes32"
        }
      ],
      "stateMutability": "payable"
    },
    {
      "type": "function",
      "name": "decodeDemandData",
      "inputs": [
        {
          "name": "data",
          "type": "bytes",
          "internalType": "bytes"
        }
      ],
      "outputs": [
        {
          "name": "",
          "type": "tuple",
          "internalType": "struct ERC1155Splitter.DemandData",
          "components": [
            {
              "name": "oracle",
              "type": "address",
              "internalType": "address"
            },
            {
              "name": "data",
              "type": "bytes",
              "internalType": "bytes"
            }
          ]
        }
      ],
      "stateMutability": "pure"
    },
    {
      "type": "function",
      "name": "eas",
      "inputs": [],
      "outputs": [
        {
          "name": "",
          "type": "address",
          "internalType": "contract IEAS"
        }
      ],
      "stateMutability": "view"
    },
    {
      "type": "function",
      "name": "fulfillers",
      "inputs": [
        {
          "name": "",
          "type": "bytes32",
          "internalType": "bytes32"
        }
      ],
      "outputs": [
        {
          "name": "",
          "type": "address",
          "internalType": "address"
        }
      ],
      "stateMutability": "view"
    },
    {
      "type": "function",
      "name": "getSplits",
      "inputs": [
        {
          "name": "oracle",
          "type": "address",
          "internalType": "address"
        },
        {
          "name": "fulfillment",
          "type": "bytes32",
          "internalType": "bytes32"
        },
        {
          "name": "escrow",
          "type": "bytes32",
          "internalType": "bytes32"
        }
      ],
      "outputs": [
        {
          "name": "",
          "type": "tuple[]",
          "internalType": "struct ERC1155Splitter.Split[]",
          "components": [
            {
              "name": "recipient",
              "type": "address",
              "internalType": "address"
            },
            {
              "name": "amount",
              "type": "uint256",
              "internalType": "uint256"
            }
          ]
        }
      ],
      "stateMutability": "view"
    },
    {
      "type": "function",
      "name": "hasDecision",
      "inputs": [
        {
          "name": "",
          "type": "address",
          "internalType": "address"
        },
        {
          "name": "",
          "type": "bytes32",
          "internalType": "bytes32"
        }
      ],
      "outputs": [
        {
          "name": "",
          "type": "bool",
          "internalType": "bool"
        }
      ],
      "stateMutability": "view"
    },
    {
      "type": "function",
      "name": "onERC1155BatchReceived",
      "inputs": [
        {
          "name": "",
          "type": "address",
          "internalType": "address"
        },
        {
          "name": "",
          "type": "address",
          "internalType": "address"
        },
        {
          "name": "",
          "type": "uint256[]",
          "internalType": "uint256[]"
        },
        {
          "name": "",
          "type": "uint256[]",
          "internalType": "uint256[]"
        },
        {
          "name": "",
          "type": "bytes",
          "internalType": "bytes"
        }
      ],
      "outputs": [
        {
          "name": "",
          "type": "bytes4",
          "internalType": "bytes4"
        }
      ],
      "stateMutability": "nonpayable"
    },
    {
      "type": "function",
      "name": "onERC1155Received",
      "inputs": [
        {
          "name": "",
          "type": "address",
          "internalType": "address"
        },
        {
          "name": "",
          "type": "address",
          "internalType": "address"
        },
        {
          "name": "",
          "type": "uint256",
          "internalType": "uint256"
        },
        {
          "name": "",
          "type": "uint256",
          "internalType": "uint256"
        },
        {
          "name": "",
          "type": "bytes",
          "internalType": "bytes"
        }
      ],
      "outputs": [
        {
          "name": "",
          "type": "bytes4",
          "internalType": "bytes4"
        }
      ],
      "stateMutability": "nonpayable"
    },
    {
      "type": "function",
      "name": "requestArbitration",
      "inputs": [
        {
          "name": "_fulfillment",
          "type": "bytes32",
          "internalType": "bytes32"
        },
        {
          "name": "_escrow",
          "type": "bytes32",
          "internalType": "bytes32"
        },
        {
          "name": "oracle",
          "type": "address",
          "internalType": "address"
        },
        {
          "name": "demand",
          "type": "bytes",
          "internalType": "bytes"
        }
      ],
      "outputs": [],
      "stateMutability": "nonpayable"
    },
    {
      "type": "function",
      "name": "supportsInterface",
      "inputs": [
        {
          "name": "interfaceId",
          "type": "bytes4",
          "internalType": "bytes4"
        }
      ],
      "outputs": [
        {
          "name": "",
          "type": "bool",
          "internalType": "bool"
        }
      ],
      "stateMutability": "view"
    },
    {
      "type": "function",
      "name": "unsafePartiallyCollectAndDistribute",
      "inputs": [
        {
          "name": "escrowContract",
          "type": "address",
          "internalType": "address"
        },
        {
          "name": "escrow",
          "type": "bytes32",
          "internalType": "bytes32"
        },
        {
          "name": "fulfillment",
          "type": "bytes32",
          "internalType": "bytes32"
        }
      ],
      "outputs": [],
      "stateMutability": "nonpayable"
    },
    {
      "type": "event",
      "name": "ArbitrationMade",
      "inputs": [
        {
          "name": "decisionKey",
          "type": "bytes32",
          "indexed": true,
          "internalType": "bytes32"
        },
        {
          "name": "obligation",
          "type": "bytes32",
          "indexed": true,
          "internalType": "bytes32"
        },
        {
          "name": "oracle",
          "type": "address",
          "indexed": true,
          "internalType": "address"
        },
        {
          "name": "splits",
          "type": "tuple[]",
          "indexed": false,
          "internalType": "struct ERC1155Splitter.Split[]",
          "components": [
            {
              "name": "recipient",
              "type": "address",
              "internalType": "address"
            },
            {
              "name": "amount",
              "type": "uint256",
              "internalType": "uint256"
            }
          ]
        }
      ],
      "anonymous": false
    },
    {
      "type": "event",
      "name": "ArbitrationRequested",
      "inputs": [
        {
          "name": "fulfillment",
          "type": "bytes32",
          "indexed": true,
          "internalType": "bytes32"
        },
        {
          "name": "escrow",
          "type": "bytes32",
          "indexed": true,
          "internalType": "bytes32"
        },
        {
          "name": "oracle",
          "type": "address",
          "indexed": true,
          "internalType": "address"
        },
        {
          "name": "demand",
          "type": "bytes",
          "indexed": false,
          "internalType": "bytes"
        }
      ],
      "anonymous": false
    },
    {
      "type": "event",
      "name": "ERC1155TransferFailedOnDistribute",
      "inputs": [
        {
          "name": "recipient",
          "type": "address",
          "indexed": true,
          "internalType": "address"
        },
        {
          "name": "token",
          "type": "address",
          "indexed": true,
          "internalType": "address"
        },
        {
          "name": "tokenId",
          "type": "uint256",
          "indexed": false,
          "internalType": "uint256"
        },
        {
          "name": "amount",
          "type": "uint256",
          "indexed": false,
          "internalType": "uint256"
        }
      ],
      "anonymous": false
    },
    {
      "type": "event",
      "name": "EscrowCollectedAndDistributed",
      "inputs": [
        {
          "name": "escrow",
          "type": "bytes32",
          "indexed": true,
          "internalType": "bytes32"
        },
        {
          "name": "fulfillment",
          "type": "bytes32",
          "indexed": true,
          "internalType": "bytes32"
        },
        {
          "name": "fulfiller",
          "type": "address",
          "indexed": true,
          "internalType": "address"
        },
        {
          "name": "token",
          "type": "address",
          "indexed": false,
          "internalType": "address"
        },
        {
          "name": "tokenId",
          "type": "uint256",
          "indexed": false,
          "internalType": "uint256"
        },
        {
          "name": "splits",
          "type": "tuple[]",
          "indexed": false,
          "internalType": "struct ERC1155Splitter.Split[]",
          "components": [
            {
              "name": "recipient",
              "type": "address",
              "internalType": "address"
            },
            {
              "name": "amount",
              "type": "uint256",
              "internalType": "uint256"
            }
          ]
        }
      ],
      "anonymous": false
    },
    {
      "type": "event",
      "name": "FulfillmentCreated",
      "inputs": [
        {
          "name": "fulfillmentUid",
          "type": "bytes32",
          "indexed": true,
          "internalType": "bytes32"
        },
        {
          "name": "fulfiller",
          "type": "address",
          "indexed": true,
          "internalType": "address"
        },
        {
          "name": "obligationContract",
          "type": "address",
          "indexed": true,
          "internalType": "address"
        }
      ],
      "anonymous": false
    },
    {
      "type": "error",
      "name": "AttestationRevoked",
      "inputs": []
    },
    {
      "type": "error",
      "name": "DeadlineExpired",
      "inputs": []
    },
    {
      "type": "error",
      "name": "ERC1155TransferFailed",
      "inputs": [
        {
          "name": "token",
          "type": "address",
          "internalType": "address"
        },
        {
          "name": "to",
          "type": "address",
          "internalType": "address"
        },
        {
          "name": "tokenId",
          "type": "uint256",
          "internalType": "uint256"
        },
        {
          "name": "amount",
          "type": "uint256",
          "internalType": "uint256"
        }
      ]
    },
    {
      "type": "error",
      "name": "EmptySplits",
      "inputs": []
    },
    {
      "type": "error",
      "name": "FulfillerAlreadyRecorded",
      "inputs": [
        {
          "name": "fulfillment",
          "type": "bytes32",
          "internalType": "bytes32"
        }
      ]
    },
    {
      "type": "error",
      "name": "InvalidAttestationUid",
      "inputs": []
    },
    {
      "type": "error",
      "name": "InvalidCollectedAmount",
      "inputs": [
        {
          "name": "expected",
          "type": "uint256",
          "internalType": "uint256"
        },
        {
          "name": "actual",
          "type": "uint256",
          "internalType": "uint256"
        }
      ]
    },
    {
      "type": "error",
      "name": "InvalidCreatedFulfillment",
      "inputs": [
        {
          "name": "fulfillment",
          "type": "bytes32",
          "internalType": "bytes32"
        }
      ]
    },
    {
      "type": "error",
      "name": "InvalidEscrowAttestation",
      "inputs": []
    },
    {
      "type": "error",
      "name": "InvalidFulfillmentRecipient",
      "inputs": []
    },
    {
      "type": "error",
      "name": "InvalidFulfillmentUid",
      "inputs": []
    },
    {
      "type": "error",
      "name": "InvalidSplits",
      "inputs": [
        {
          "name": "totalExpected",
          "type": "uint256",
          "internalType": "uint256"
        },
        {
          "name": "totalProvided",
          "type": "uint256",
          "internalType": "uint256"
        }
      ]
    },
    {
      "type": "error",
      "name": "NativeTokenRefundFailed",
      "inputs": [
        {
          "name": "recipient",
          "type": "address",
          "internalType": "address"
        },
        {
          "name": "amount",
          "type": "uint256",
          "internalType": "uint256"
        }
      ]
    },
    {
      "type": "error",
      "name": "NoFulfillerRecorded",
      "inputs": [
        {
          "name": "fulfillment",
          "type": "bytes32",
          "internalType": "bytes32"
        }
      ]
    },
    {
      "type": "error",
      "name": "ReentrancyGuardReentrantCall",
      "inputs": []
    },
    {
      "type": "error",
      "name": "TooManySplits",
      "inputs": [
        {
          "name": "provided",
          "type": "uint256",
          "internalType": "uint256"
        },
        {
          "name": "max",
          "type": "uint256",
          "internalType": "uint256"
        }
      ]
    },
    {
      "type": "error",
      "name": "UnauthorizedArbitrationRequest",
      "inputs": []
    }
  ],
  "bytecode": {
    "object": "0x608034609357601f611b8738819003918201601f19168301916001600160401b03831184841017609757808492602094604052833981010312609357516001600160a01b0381169081900360935760017f9b779b17422d0df92223018b32b4d1fa46e071723d6817e2486d003becc55f00555f80546001600160a01b031916919091179055604051611adb90816100ac8239f35b5f80fd5b634e487b7160e01b5f52604160045260245ffdfe608080604052600436101561001c575b50361561001a575f80fd5b005b5f3560e01c90816301ffc9a714611008575080632257c0e314610f3f5780634e2d3b1214610f0d5780635123666d14610bc957806373e0d48f14610a595780638150864d14610a32578063838a68d91461095657806386314b0d14610836578063a1a80488146107ed578063b48210ca146107d2578063bc197c811461073d578063c1dd2c6e146105ab578063c880c06f1461058f578063e6c9714d14610411578063ed7180e3146101315763f23a6e61146100d8575f61000f565b3461012d5760a036600319011261012d576100f161105b565b506100fa611071565b506084356001600160401b03811161012d5761011a903690600401611207565b5060405163f23a6e6160e01b8152602090f35b5f80fd5b608036600319011261012d5761014561105b565b6024356001600160401b03811161012d5761016490369060040161110d565b916044356001600160401b03811680910361012d5760643593610185611555565b61018f3447611548565b604051632cee40b560e21b81526060600482015260648101839052956001600160a01b03909416949093828260848901375f60848489010152836024880152806044880152602087608481601f19601f8801168101030181348a5af19687156103c3575f976103dd575b5086156103ce575f80546040516328c44a9960e21b8152600481018a9052929190839060249082906001600160a01b03165afa9182156103c3575f9261039f575b508782511494851595610387575b851561036f575b8515610357575b508415610348575b50831561031d575b50505061030a575f838152600360205260409020546001600160a01b03166102f7575f83815260036020908152604090912080546001600160a01b031916339081179091559093916102b89190611a10565b6040519133827ff845579b2e96200541b4e2b438fbb65e772b70ac68265030aa16f6d8e16501d95f80a460015f516020611a865f395f51905f52558152f35b8263aa8904b160e01b5f5260045260245ffd5b8263f9d7a76560e01b5f5260045260245ffd5b6103379293506101200151602081519101209236916111d1565b602081519101201415848080610266565b60a0820151141593508761025e565b60608301516001600160401b03161415945088610256565b60c08301516001600160a01b0316301415955061024f565b60e08301516001600160a01b03168814159550610248565b6103bc9192503d805f833e6103b48183611195565b810190611328565b908861023a565b6040513d5f823e3d90fd5b6303acddcd60e41b5f5260045ffd5b9096506020813d602011610409575b816103f960209383611195565b8101031261012d575195876101f9565b3d91506103ec565b3461012d57606036600319011261012d576004356001600160401b03811161012d57610140600319823603011261012d576040519061044f82611179565b806004013582526024810135602083015261046c60448201611299565b604083015261047d60648201611299565b606083015261048e60848201611299565b608083015260a481013560a08301526104a960c48201611087565b60c08301526104ba60e48201611087565b60e0830152610104810135801515810361012d57610100830152610124810135906001600160401b03821161012d5760046104f89236920101611207565b6101208201526024356001600160401b03811161012d5761051d903690600401611207565b610526826119ec565b80516001600160a01b0391610543918101602090810191016114e5565b51165f52600260205260405f20905160405160208101918252604435604082015260408152610573606082611195565b5190205f52602052602060ff60405f2054166040519015158152f35b3461012d575f36600319011261012d57602060405161eeee8152f35b3461012d576105cf6105bc3661109b565b8181936105ca959395611555565b61158d565b90835f95939552600360205260018060a01b0360405f205416925f915b86518310156106f15761061485876001600160a01b0361060c878c6114ad565b5151166119ab565b6001600160a01b03821696909590602061062e868b6114ad565b510151883b1561012d57604051637921219560e11b81523060048201526001600160a01b038916602482015260448101889052606481019190915260a060848201525f60a482018190528160c481838d5af190816106e1575b506106d2575050505061069e6020916084966114ad565b510151604051636bb6a96f60e01b815260048101949094526001600160a01b03909216602484015260448301526064820152fd5b965094506001909201916105ec565b5f6106eb91611195565b8a610687565b84917f8068582e206e415cdede1ddbbfbc488773faa51109a0871b26a5a46eec60a4a98588936107278b604051938493846114c1565b0390a460015f516020611a865f395f51905f5255005b3461012d5760a036600319011261012d5761075661105b565b5061075f611071565b506044356001600160401b03811161012d5761077f90369060040161123c565b506064356001600160401b03811161012d5761079f90369060040161123c565b506084356001600160401b03811161012d576107bf903690600401611207565b5060405163bc197c8160e01b8152602090f35b3461012d575f36600319011261012d57602060405160328152f35b3461012d57604036600319011261012d576001600160a01b0361080e61105b565b165f52600260205260405f206024355f52602052602060ff60405f2054166040519015158152f35b3461012d57608036600319011261012d576044356001600160a01b038116906024359082900361012d576064356001600160401b03811161012d5761087f903690600401611207565b5f80546040516328c44a9960e21b8152600481018590529190829060249082906001600160a01b03165afa9081156103c3575f9161093c575b5060e08101516001600160a01b03163314159081610924575b50610915577f8c71f7964ccbceaff13fb1c085cf7491115c2bed4a6aca02c6c6208f08609b82604051602081528061091060043594602083019061113a565b0390a4005b63ff323ecb60e01b5f5260045ffd5b60c001516001600160a01b03163314159050846108d1565b61095091503d805f833e6103b48183611195565b846108b8565b3461012d57602036600319011261012d576004356001600160401b03811161012d5761098690369060040161110d565b606060206040516109968161115e565b5f8152015281019060208183031261012d578035906001600160401b03821161012d570160408183031261012d57604051916109d18361115e565b6109da82611087565b835260208201356001600160401b03811161012d576109f99201611207565b9060208101918252610a2e6040519283926020845260018060a01b03905116602084015251604080840152606083019061113a565b0390f35b3461012d575f36600319011261012d575f546040516001600160a01b039091168152602090f35b3461012d57610a77610a6a3661109b565b81819492936105ca611555565b5f85815260036020526040812054929591926001600160a01b031691905b8451811015610b9457610ab583836001600160a01b0361060c858a6114ad565b906001600160a01b0388166020610acc83896114ad565b51015192813b1561012d57604051637921219560e11b81523060048201526001600160a01b038216602482015260448101889052606481019490945260a060848501525f60a48501819052600194908160c48183875af19081610b84575b50610b7d577f616cfada1d83c91b3ab4d0488d450dbb131a917d044bde559c55552aebdf433f60406020610b5e868c6114ad565b510151928151938a85526020850152868060a01b031692a35b01610a95565b5050610b77565b5f610b8e91611195565b8b610b2a565b50847f8068582e206e415cdede1ddbbfbc488773faa51109a0871b26a5a46eec60a4a9848861072788604051938493846114c1565b3461012d57606036600319011261012d576044356024356004356001600160401b03831161012d573660238401121561012d578260040135906001600160401b03821161012d576024840193602436918460061b01011161012d5780156103ce575f80546040516328c44a9960e21b8152600481018690529190829060249082906001600160a01b03165afa9081156103c357610c7d91610120915f91610ef3575b50015160208082518301019101611403565b8215610ee45760328311610ecc575f905f5b848110610eaa575060800151808203610e955750506040516020810191825283604082015260408152610cc3606082611195565b51902090335f52600160205260405f20825f5260205260405f208054905f815581610e4a575b50505f5b818110610d905750335f52600260205260405f20825f5260205260405f20600160ff1982541617905560405190806020830160208452526040820194905f5b818110610d6057505050807fcb69e0d2c25bc3247c37f1a1b54a09e56f58301351ae8eeb49fb9750045ba7409133950390a4005b909195604080600192838060a01b03610d788b611087565b16815260208a81013590820152019701929101610d2c565b335f52600160205260405f20835f5260205260405f2090610db281848861149d565b9180549068010000000000000000821015610e365760018201808255821015610e22575f5260205f209060011b0182359260018060a01b038416840361012d5781546001600160a01b0319166001600160a01b039094169390931781556020929092013560019283015501610ced565b634e487b7160e01b5f52603260045260245ffd5b634e487b7160e01b5f52604160045260245ffd5b6001600160ff1b0382168203610e81575f5260205f209060011b8101905b81811015610ce9575f8082556001820155600201610e68565b634e487b7160e01b5f52601160045260245ffd5b63ba660bff60e01b5f5260045260245260445ffd5b916020610eb884878a61149d565b01358101809111610e815791600101610c8f565b8263b268613560e01b5f52600452603260245260445ffd5b63143160cf60e01b5f5260045ffd5b610f0791503d805f833e6103b48183611195565b87610c6b565b3461012d57602036600319011261012d576004355f526003602052602060018060a01b0360405f205416604051908152f35b3461012d57610f4d3661109b565b9160018060a01b03165f52600160205260405f20916040519060208201928352604082015260408152610f81606082611195565b5190205f5260205260405f208054610f9881611225565b91610fa66040519384611195565b81835260208301905f5260205f205f915b838310610fd45760405160208082528190610a2e908201886110c5565b60026020600192604051610fe78161115e565b848060a01b0386541681528486015483820152815201920192019190610fb7565b3461012d57602036600319011261012d576004359063ffffffff60e01b821680920361012d57602091630271189760e51b811490811561104a575b5015158152f35b6301ffc9a760e01b14905083611043565b600435906001600160a01b038216820361012d57565b602435906001600160a01b038216820361012d57565b35906001600160a01b038216820361012d57565b606090600319011261012d576004356001600160a01b038116810361012d57906024359060443590565b90602080835192838152019201905f5b8181106110e25750505090565b825180516001600160a01b0316855260209081015181860152604090940193909201916001016110d5565b9181601f8401121561012d578235916001600160401b03831161012d576020838186019501011161012d57565b805180835260209291819084018484015e5f828201840152601f01601f1916010190565b604081019081106001600160401b03821117610e3657604052565b61014081019081106001600160401b03821117610e3657604052565b90601f801991011681019081106001600160401b03821117610e3657604052565b6001600160401b038111610e3657601f01601f191660200190565b9291926111dd826111b6565b916111eb6040519384611195565b82948184528183011161012d578281602093845f960137010152565b9080601f8301121561012d57816020611222933591016111d1565b90565b6001600160401b038111610e365760051b60200190565b9080601f8301121561012d57813561125381611225565b926112616040519485611195565b81845260208085019260051b82010192831161012d57602001905b8282106112895750505090565b813581526020918201910161127c565b35906001600160401b038216820361012d57565b51906001600160401b038216820361012d57565b51906001600160a01b038216820361012d57565b5190811515820361012d57565b81601f8201121561012d578051906112f9826111b6565b926113076040519485611195565b8284526020838301011161012d57815f9260208093018386015e8301015290565b60208183031261012d578051906001600160401b03821161012d57016101408183031261012d576040519161135c83611179565b8151835260208201516020840152611376604083016112ad565b6040840152611387606083016112ad565b6060840152611398608083016112ad565b608084015260a082015160a08401526113b360c083016112c1565b60c08401526113c460e083016112c1565b60e08401526113d661010083016112d5565b6101008401526101208201516001600160401b03811161012d576113fa92016112e2565b61012082015290565b60208183031261012d578051906001600160401b03821161012d57019060a08282031261012d576040519160a083018381106001600160401b03821117610e3657604052611450816112c1565b835260208101516001600160401b03811161012d576080926114739183016112e2565b6020840152611484604082016112c1565b6040840152606081015160608401520151608082015290565b9190811015610e225760061b0190565b8051821015610e225760209160051b010190565b611222939260609260018060a01b03168252602082015281604082015201906110c5565b60208183031261012d578051906001600160401b03821161012d570160408183031261012d57604051916115188361115e565b611521826112c1565b835260208201516001600160401b03811161012d5761154092016112e2565b602082015290565b91908203918211610e8157565b60025f516020611a865f395f51905f52541461157e5760025f516020611a865f395f51905f5255565b633ee5aeb560e01b5f5260045ffd5b91909260018060a01b035f54166040516328c44a9960e21b81528560048201525f81602481855afa9081156103c3575f91611991575b5060e08101516001600160a01b039586169516851480159061192b575b61191c5780511561190d576001600160401b036060820151168015159081611902575b506118f3576001600160401b036080820151166118e4575f602492604051938480926328c44a9960e21b82528860048301525afa9081156103c35761165661012092611667945f916118ca575b506119ec565b015160208082518301019101611403565b60208181015180516001600160a01b039261168892918201810191016114e5565b51165f52600160205260405f206040516020810190858252876040820152604081526116b5606082611195565b5190205f5260205260405f2080546116cc81611225565b916116da6040519384611195565b81835260208301905f5260205f205f915b838310611896575050505060408281015160608401519151627eeac760e11b81523060048201526024810183905292976001600160a01b03909116969195906020846044818b5afa9384156103c3575f9461185f575b509060446020925f6040519586948593632c713cd960e01b8552600485015260248401525af180156103c357611828575b50604051627eeac760e11b81523060048201526024810185905291602083604481895afa9283156103c3575f936117f3575b5060800151918181106117dc57906117bb91611548565b908082036117c7575050565b631a3dba0360e31b5f5260045260245260445ffd5b82631a3dba0360e31b5f526004525f60245260445ffd5b9092506020813d602011611820575b8161180f60209383611195565b8101031261012d57519160806117a4565b3d9150611802565b6020813d602011611857575b8161184160209383611195565b8101031261012d57611852906112d5565b611772565b3d9150611834565b919093506020823d60201161188e575b8161187c60209383611195565b8101031261012d579051926044611741565b3d915061186f565b600260206001926040516118a98161115e565b848060a01b03865416815284860154838201528152019201920191906116eb565b6118de91503d805f833e6103b48183611195565b5f611650565b637b6227e960e11b5f5260045ffd5b631ab7da6b60e01b5f5260045ffd5b90504210155f611603565b635c2c7f8960e01b5f5260045ffd5b63629cd40b60e11b5f5260045ffd5b50602081810151604051635bf2f20d60e01b815291826004818a5afa9182156103c3575f9261195d575b5014156115e0565b9091506020813d602011611989575b8161197960209383611195565b8101031261012d5751905f611955565b3d915061196c565b6119a591503d805f833e6103b48183611195565b5f6115c3565b91906001600160a01b03831661eeee146119c457505090565b9091506001600160a01b038216156119da575090565b6379c5a2db60e01b5f5260045260245ffd5b60c001516001600160a01b03163003611a0157565b634672d00f60e01b5f5260045ffd5b479080821115611a8057611a2391611548565b906001600160a01b03165f80808085855af13d15611a7b573d611a45816111b6565b90611a536040519283611195565b81525f60203d92013e5b15611a66575050565b632247bb8b60e21b5f5260045260245260445ffd5b611a5d565b50505056fe9b779b17422d0df92223018b32b4d1fa46e071723d6817e2486d003becc55f00a2646970667358221220bc44dbd2e414b5ecfd4f107bacb09c16f774097a9da5ca06ad5f6ba2afaddc4164736f6c634300081b0033",
    "linkReferences": {}
  },
  "methodIdentifiers": {
    "EXECUTOR_SENTINEL()": "c880c06f",
    "MAX_SPLITS()": "b48210ca",
    "arbitrate(bytes32,bytes32,(address,uint256)[])": "5123666d",
    "checkObligation((bytes32,bytes32,uint64,uint64,uint64,bytes32,address,address,bool,bytes),bytes,bytes32)": "e6c9714d",
    "collectAndDistribute(address,bytes32,bytes32)": "c1dd2c6e",
    "createFulfillment(address,bytes,uint64,bytes32)": "ed7180e3",
    "decodeDemandData(bytes)": "838a68d9",
    "eas()": "8150864d",
    "fulfillers(bytes32)": "4e2d3b12",
    "getSplits(address,bytes32,bytes32)": "2257c0e3",
    "hasDecision(address,bytes32)": "a1a80488",
    "onERC1155BatchReceived(address,address,uint256[],uint256[],bytes)": "bc197c81",
    "onERC1155Received(address,address,uint256,uint256,bytes)": "f23a6e61",
    "requestArbitration(bytes32,bytes32,address,bytes)": "86314b0d",
    "supportsInterface(bytes4)": "01ffc9a7",
    "unsafePartiallyCollectAndDistribute(address,bytes32,bytes32)": "73e0d48f"
  },
  "id": 165
}