{
  "abi": [
    {
      "type": "constructor",
      "inputs": [
        {
          "name": "_eas",
          "type": "address",
          "internalType": "contract IEAS"
        }
      ],
      "stateMutability": "nonpayable"
    },
    {
      "type": "receive",
      "stateMutability": "payable"
    },
    {
      "type": "function",
      "name": "EXECUTOR_SENTINEL",
      "inputs": [],
      "outputs": [
        {
          "name": "",
          "type": "address",
          "internalType": "address"
        }
      ],
      "stateMutability": "view"
    },
    {
      "type": "function",
      "name": "MAX_SPLITS",
      "inputs": [],
      "outputs": [
        {
          "name": "",
          "type": "uint256",
          "internalType": "uint256"
        }
      ],
      "stateMutability": "view"
    },
    {
      "type": "function",
      "name": "arbitrate",
      "inputs": [
        {
          "name": "fulfillment",
          "type": "bytes32",
          "internalType": "bytes32"
        },
        {
          "name": "escrow",
          "type": "bytes32",
          "internalType": "bytes32"
        },
        {
          "name": "splits",
          "type": "tuple[]",
          "internalType": "struct ERC1155Splitter.Split[]",
          "components": [
            {
              "name": "recipient",
              "type": "address",
              "internalType": "address"
            },
            {
              "name": "amount",
              "type": "uint256",
              "internalType": "uint256"
            }
          ]
        }
      ],
      "outputs": [],
      "stateMutability": "nonpayable"
    },
    {
      "type": "function",
      "name": "check",
      "inputs": [
        {
          "name": "fulfillment",
          "type": "tuple",
          "internalType": "struct Attestation",
          "components": [
            {
              "name": "uid",
              "type": "bytes32",
              "internalType": "bytes32"
            },
            {
              "name": "schema",
              "type": "bytes32",
              "internalType": "bytes32"
            },
            {
              "name": "time",
              "type": "uint64",
              "internalType": "uint64"
            },
            {
              "name": "expirationTime",
              "type": "uint64",
              "internalType": "uint64"
            },
            {
              "name": "revocationTime",
              "type": "uint64",
              "internalType": "uint64"
            },
            {
              "name": "refUID",
              "type": "bytes32",
              "internalType": "bytes32"
            },
            {
              "name": "recipient",
              "type": "address",
              "internalType": "address"
            },
            {
              "name": "attester",
              "type": "address",
              "internalType": "address"
            },
            {
              "name": "revocable",
              "type": "bool",
              "internalType": "bool"
            },
            {
              "name": "data",
              "type": "bytes",
              "internalType": "bytes"
            }
          ]
        },
        {
          "name": "demand",
          "type": "bytes",
          "internalType": "bytes"
        },
        {
          "name": "escrow",
          "type": "bytes32",
          "internalType": "bytes32"
        }
      ],
      "outputs": [
        {
          "name": "",
          "type": "bool",
          "internalType": "bool"
        }
      ],
      "stateMutability": "view"
    },
    {
      "type": "function",
      "name": "collectAndDistribute",
      "inputs": [
        {
          "name": "escrowContract",
          "type": "address",
          "internalType": "address"
        },
        {
          "name": "escrow",
          "type": "bytes32",
          "internalType": "bytes32"
        },
        {
          "name": "fulfillment",
          "type": "bytes32",
          "internalType": "bytes32"
        }
      ],
      "outputs": [],
      "stateMutability": "nonpayable"
    },
    {
      "type": "function",
      "name": "createFulfillment",
      "inputs": [
        {
          "name": "obligationContract",
          "type": "address",
          "internalType": "address"
        },
        {
          "name": "data",
          "type": "bytes",
          "internalType": "bytes"
        },
        {
          "name": "expirationTime",
          "type": "uint64",
          "internalType": "uint64"
        },
        {
          "name": "refUID",
          "type": "bytes32",
          "internalType": "bytes32"
        }
      ],
      "outputs": [
        {
          "name": "fulfillmentUid",
          "type": "bytes32",
          "internalType": "bytes32"
        }
      ],
      "stateMutability": "payable"
    },
    {
      "type": "function",
      "name": "decodeDemandData",
      "inputs": [
        {
          "name": "data",
          "type": "bytes",
          "internalType": "bytes"
        }
      ],
      "outputs": [
        {
          "name": "",
          "type": "tuple",
          "internalType": "struct ERC1155Splitter.DemandData",
          "components": [
            {
              "name": "oracle",
              "type": "address",
              "internalType": "address"
            },
            {
              "name": "data",
              "type": "bytes",
              "internalType": "bytes"
            }
          ]
        }
      ],
      "stateMutability": "pure"
    },
    {
      "type": "function",
      "name": "eas",
      "inputs": [],
      "outputs": [
        {
          "name": "",
          "type": "address",
          "internalType": "contract IEAS"
        }
      ],
      "stateMutability": "view"
    },
    {
      "type": "function",
      "name": "fulfillers",
      "inputs": [
        {
          "name": "",
          "type": "bytes32",
          "internalType": "bytes32"
        }
      ],
      "outputs": [
        {
          "name": "",
          "type": "address",
          "internalType": "address"
        }
      ],
      "stateMutability": "view"
    },
    {
      "type": "function",
      "name": "getSplits",
      "inputs": [
        {
          "name": "oracle",
          "type": "address",
          "internalType": "address"
        },
        {
          "name": "fulfillment",
          "type": "bytes32",
          "internalType": "bytes32"
        },
        {
          "name": "escrow",
          "type": "bytes32",
          "internalType": "bytes32"
        }
      ],
      "outputs": [
        {
          "name": "",
          "type": "tuple[]",
          "internalType": "struct ERC1155Splitter.Split[]",
          "components": [
            {
              "name": "recipient",
              "type": "address",
              "internalType": "address"
            },
            {
              "name": "amount",
              "type": "uint256",
              "internalType": "uint256"
            }
          ]
        }
      ],
      "stateMutability": "view"
    },
    {
      "type": "function",
      "name": "hasDecision",
      "inputs": [
        {
          "name": "",
          "type": "address",
          "internalType": "address"
        },
        {
          "name": "",
          "type": "bytes32",
          "internalType": "bytes32"
        }
      ],
      "outputs": [
        {
          "name": "",
          "type": "bool",
          "internalType": "bool"
        }
      ],
      "stateMutability": "view"
    },
    {
      "type": "function",
      "name": "onERC1155BatchReceived",
      "inputs": [
        {
          "name": "",
          "type": "address",
          "internalType": "address"
        },
        {
          "name": "",
          "type": "address",
          "internalType": "address"
        },
        {
          "name": "",
          "type": "uint256[]",
          "internalType": "uint256[]"
        },
        {
          "name": "",
          "type": "uint256[]",
          "internalType": "uint256[]"
        },
        {
          "name": "",
          "type": "bytes",
          "internalType": "bytes"
        }
      ],
      "outputs": [
        {
          "name": "",
          "type": "bytes4",
          "internalType": "bytes4"
        }
      ],
      "stateMutability": "nonpayable"
    },
    {
      "type": "function",
      "name": "onERC1155Received",
      "inputs": [
        {
          "name": "",
          "type": "address",
          "internalType": "address"
        },
        {
          "name": "",
          "type": "address",
          "internalType": "address"
        },
        {
          "name": "",
          "type": "uint256",
          "internalType": "uint256"
        },
        {
          "name": "",
          "type": "uint256",
          "internalType": "uint256"
        },
        {
          "name": "",
          "type": "bytes",
          "internalType": "bytes"
        }
      ],
      "outputs": [
        {
          "name": "",
          "type": "bytes4",
          "internalType": "bytes4"
        }
      ],
      "stateMutability": "nonpayable"
    },
    {
      "type": "function",
      "name": "requestArbitration",
      "inputs": [
        {
          "name": "_fulfillment",
          "type": "bytes32",
          "internalType": "bytes32"
        },
        {
          "name": "_escrow",
          "type": "bytes32",
          "internalType": "bytes32"
        },
        {
          "name": "oracle",
          "type": "address",
          "internalType": "address"
        },
        {
          "name": "demand",
          "type": "bytes",
          "internalType": "bytes"
        }
      ],
      "outputs": [],
      "stateMutability": "nonpayable"
    },
    {
      "type": "function",
      "name": "supportsInterface",
      "inputs": [
        {
          "name": "interfaceId",
          "type": "bytes4",
          "internalType": "bytes4"
        }
      ],
      "outputs": [
        {
          "name": "",
          "type": "bool",
          "internalType": "bool"
        }
      ],
      "stateMutability": "view"
    },
    {
      "type": "function",
      "name": "unsafePartiallyCollectAndDistribute",
      "inputs": [
        {
          "name": "escrowContract",
          "type": "address",
          "internalType": "address"
        },
        {
          "name": "escrow",
          "type": "bytes32",
          "internalType": "bytes32"
        },
        {
          "name": "fulfillment",
          "type": "bytes32",
          "internalType": "bytes32"
        }
      ],
      "outputs": [],
      "stateMutability": "nonpayable"
    },
    {
      "type": "event",
      "name": "ArbitrationMade",
      "inputs": [
        {
          "name": "decisionKey",
          "type": "bytes32",
          "indexed": true,
          "internalType": "bytes32"
        },
        {
          "name": "fulfillmentUid",
          "type": "bytes32",
          "indexed": true,
          "internalType": "bytes32"
        },
        {
          "name": "oracle",
          "type": "address",
          "indexed": true,
          "internalType": "address"
        },
        {
          "name": "splits",
          "type": "tuple[]",
          "indexed": false,
          "internalType": "struct ERC1155Splitter.Split[]",
          "components": [
            {
              "name": "recipient",
              "type": "address",
              "internalType": "address"
            },
            {
              "name": "amount",
              "type": "uint256",
              "internalType": "uint256"
            }
          ]
        }
      ],
      "anonymous": false
    },
    {
      "type": "event",
      "name": "ArbitrationRequested",
      "inputs": [
        {
          "name": "fulfillment",
          "type": "bytes32",
          "indexed": true,
          "internalType": "bytes32"
        },
        {
          "name": "escrow",
          "type": "bytes32",
          "indexed": true,
          "internalType": "bytes32"
        },
        {
          "name": "oracle",
          "type": "address",
          "indexed": true,
          "internalType": "address"
        },
        {
          "name": "demand",
          "type": "bytes",
          "indexed": false,
          "internalType": "bytes"
        }
      ],
      "anonymous": false
    },
    {
      "type": "event",
      "name": "ERC1155TransferFailedOnDistribute",
      "inputs": [
        {
          "name": "recipient",
          "type": "address",
          "indexed": true,
          "internalType": "address"
        },
        {
          "name": "token",
          "type": "address",
          "indexed": true,
          "internalType": "address"
        },
        {
          "name": "tokenId",
          "type": "uint256",
          "indexed": false,
          "internalType": "uint256"
        },
        {
          "name": "amount",
          "type": "uint256",
          "indexed": false,
          "internalType": "uint256"
        }
      ],
      "anonymous": false
    },
    {
      "type": "event",
      "name": "EscrowCollectedAndDistributed",
      "inputs": [
        {
          "name": "escrow",
          "type": "bytes32",
          "indexed": true,
          "internalType": "bytes32"
        },
        {
          "name": "fulfillment",
          "type": "bytes32",
          "indexed": true,
          "internalType": "bytes32"
        },
        {
          "name": "fulfiller",
          "type": "address",
          "indexed": true,
          "internalType": "address"
        },
        {
          "name": "token",
          "type": "address",
          "indexed": false,
          "internalType": "address"
        },
        {
          "name": "tokenId",
          "type": "uint256",
          "indexed": false,
          "internalType": "uint256"
        },
        {
          "name": "splits",
          "type": "tuple[]",
          "indexed": false,
          "internalType": "struct ERC1155Splitter.Split[]",
          "components": [
            {
              "name": "recipient",
              "type": "address",
              "internalType": "address"
            },
            {
              "name": "amount",
              "type": "uint256",
              "internalType": "uint256"
            }
          ]
        }
      ],
      "anonymous": false
    },
    {
      "type": "event",
      "name": "FulfillmentCreated",
      "inputs": [
        {
          "name": "fulfillmentUid",
          "type": "bytes32",
          "indexed": true,
          "internalType": "bytes32"
        },
        {
          "name": "fulfiller",
          "type": "address",
          "indexed": true,
          "internalType": "address"
        },
        {
          "name": "obligationContract",
          "type": "address",
          "indexed": true,
          "internalType": "address"
        }
      ],
      "anonymous": false
    },
    {
      "type": "error",
      "name": "AttestationRevoked",
      "inputs": []
    },
    {
      "type": "error",
      "name": "DeadlineExpired",
      "inputs": []
    },
    {
      "type": "error",
      "name": "ERC1155TransferFailed",
      "inputs": [
        {
          "name": "token",
          "type": "address",
          "internalType": "address"
        },
        {
          "name": "to",
          "type": "address",
          "internalType": "address"
        },
        {
          "name": "tokenId",
          "type": "uint256",
          "internalType": "uint256"
        },
        {
          "name": "amount",
          "type": "uint256",
          "internalType": "uint256"
        }
      ]
    },
    {
      "type": "error",
      "name": "EmptySplits",
      "inputs": []
    },
    {
      "type": "error",
      "name": "FulfillerAlreadyRecorded",
      "inputs": [
        {
          "name": "fulfillment",
          "type": "bytes32",
          "internalType": "bytes32"
        }
      ]
    },
    {
      "type": "error",
      "name": "InvalidAttestationUid",
      "inputs": []
    },
    {
      "type": "error",
      "name": "InvalidCollectedAmount",
      "inputs": [
        {
          "name": "expected",
          "type": "uint256",
          "internalType": "uint256"
        },
        {
          "name": "actual",
          "type": "uint256",
          "internalType": "uint256"
        }
      ]
    },
    {
      "type": "error",
      "name": "InvalidCreatedFulfillment",
      "inputs": [
        {
          "name": "fulfillment",
          "type": "bytes32",
          "internalType": "bytes32"
        }
      ]
    },
    {
      "type": "error",
      "name": "InvalidEscrowAttestation",
      "inputs": []
    },
    {
      "type": "error",
      "name": "InvalidFulfillmentRecipient",
      "inputs": []
    },
    {
      "type": "error",
      "name": "InvalidFulfillmentUid",
      "inputs": []
    },
    {
      "type": "error",
      "name": "InvalidSplits",
      "inputs": [
        {
          "name": "totalExpected",
          "type": "uint256",
          "internalType": "uint256"
        },
        {
          "name": "totalProvided",
          "type": "uint256",
          "internalType": "uint256"
        }
      ]
    },
    {
      "type": "error",
      "name": "NativeTokenRefundFailed",
      "inputs": [
        {
          "name": "recipient",
          "type": "address",
          "internalType": "address"
        },
        {
          "name": "amount",
          "type": "uint256",
          "internalType": "uint256"
        }
      ]
    },
    {
      "type": "error",
      "name": "NoFulfillerRecorded",
      "inputs": [
        {
          "name": "fulfillment",
          "type": "bytes32",
          "internalType": "bytes32"
        }
      ]
    },
    {
      "type": "error",
      "name": "ReentrancyGuardReentrantCall",
      "inputs": []
    },
    {
      "type": "error",
      "name": "TooManySplits",
      "inputs": [
        {
          "name": "provided",
          "type": "uint256",
          "internalType": "uint256"
        },
        {
          "name": "max",
          "type": "uint256",
          "internalType": "uint256"
        }
      ]
    },
    {
      "type": "error",
      "name": "UnauthorizedArbitrationRequest",
      "inputs": []
    }
  ],
  "bytecode": {
    "object": "0x608034609357601f611b4638819003918201601f19168301916001600160401b03831184841017609757808492602094604052833981010312609357516001600160a01b0381169081900360935760017f9b779b17422d0df92223018b32b4d1fa46e071723d6817e2486d003becc55f00555f80546001600160a01b031916919091179055604051611a9a90816100ac8239f35b5f80fd5b634e487b7160e01b5f52604160045260245ffdfe608080604052600436101561001c575b50361561001a575f80fd5b005b5f3560e01c90816301ffc9a714610fc3575080632257c0e314610f0e5780634e2d3b1214610edc5780635123666d14610bb157806373e0d48f14610a415780638150864d14610a1a578063838a68d91461093e57806386314b0d1461081e5780638da3721a146106b8578063a1a804881461066f578063b48210ca14610654578063bc197c81146105bf578063c1dd2c6e1461042d578063c880c06f14610411578063ed7180e3146101315763f23a6e61146100d8575f61000f565b3461012d5760a036600319011261012d576100f1611016565b506100fa61102c565b506084356001600160401b03811161012d5761011a9036906004016111c2565b5060405163f23a6e6160e01b8152602090f35b5f80fd5b608036600319011261012d57610145611016565b6024356001600160401b03811161012d576101649036906004016110c8565b916044356001600160401b03811680910361012d576064359361018561152b565b61018f34476114e8565b604051632cee40b560e21b81526060600482015260648101839052956001600160a01b03909416949093828260848901375f60848489010152836024880152806044880152602087608481601f19601f8801168101030181348a5af19687156103c3575f976103dd575b5086156103ce575f80546040516328c44a9960e21b8152600481018a9052929190839060249082906001600160a01b03165afa9182156103c3575f9261039f575b508782511494851595610387575b851561036f575b8515610357575b508415610348575b50831561031d575b50505061030a575f838152600260205260409020546001600160a01b03166102f7575f83815260026020908152604090912080546001600160a01b031916339081179091559093916102b891906119cf565b6040519133827ff845579b2e96200541b4e2b438fbb65e772b70ac68265030aa16f6d8e16501d95f80a460015f516020611a455f395f51905f52558152f35b8263aa8904b160e01b5f5260045260245ffd5b8263f9d7a76560e01b5f5260045260245ffd5b61033792935061012001516020815191012092369161118c565b602081519101201415848080610266565b60a0820151141593508761025e565b60608301516001600160401b03161415945088610256565b60c08301516001600160a01b0316301415955061024f565b60e08301516001600160a01b03168814159550610248565b6103bc9192503d805f833e6103b48183611150565b8101906112d6565b908861023a565b6040513d5f823e3d90fd5b6303acddcd60e41b5f5260045ffd5b9096506020813d602011610409575b816103f960209383611150565b8101031261012d575195876101f9565b3d91506103ec565b3461012d575f36600319011261012d57602060405161eeee8152f35b3461012d5761045161043e36611056565b81819361044c95939561152b565b611563565b90835f95939552600260205260018060a01b0360405f205416925f915b86518310156105735761049685876001600160a01b0361048e878c61144d565b51511661196a565b6001600160a01b0382169690959060206104b0868b61144d565b510151883b1561012d57604051637921219560e11b81523060048201526001600160a01b038916602482015260448101889052606481019190915260a060848201525f60a482018190528160c481838d5af19081610563575b50610554575050505061052060209160849661144d565b510151604051636bb6a96f60e01b815260048101949094526001600160a01b03909216602484015260448301526064820152fd5b9650945060019092019161046e565b5f61056d91611150565b8a610509565b84917f8068582e206e415cdede1ddbbfbc488773faa51109a0871b26a5a46eec60a4a98588936105a98b60405193849384611461565b0390a460015f516020611a455f395f51905f5255005b3461012d5760a036600319011261012d576105d8611016565b506105e161102c565b506044356001600160401b03811161012d5761060190369060040161120b565b506064356001600160401b03811161012d5761062190369060040161120b565b506084356001600160401b03811161012d576106419036906004016111c2565b5060405163bc197c8160e01b8152602090f35b3461012d575f36600319011261012d57602060405160328152f35b3461012d57604036600319011261012d576001600160a01b03610690611016565b165f52600160205260405f206024355f52602052602060ff60405f2054166040519015158152f35b3461012d57606036600319011261012d576004356001600160401b03811161012d57610140600319823603011261012d57604051906106f682611134565b8060040135825260248101356020830152610713604482016111e0565b6040830152610724606482016111e0565b6060830152610735608482016111e0565b608083015260a481013560a083015261075060c48201611042565b60c083015261076160e48201611042565b60e0830152610104810135801515810361012d57610100830152610124810135906001600160401b03821161012d57600461079f92369201016111c2565b6101208201526024356001600160401b03811161012d576107c49036906004016111c2565b6107cd826119ab565b80516001600160a01b03916107ea91810160209081019101611485565b51165f52600160205261080560405f209160443590516114f5565b5f52602052602060ff60405f2054166040519015158152f35b3461012d57608036600319011261012d576044356001600160a01b038116906024359082900361012d576064356001600160401b03811161012d576108679036906004016111c2565b5f80546040516328c44a9960e21b8152600481018590529190829060249082906001600160a01b03165afa9081156103c3575f91610924575b5060e08101516001600160a01b0316331415908161090c575b506108fd577f8c71f7964ccbceaff13fb1c085cf7491115c2bed4a6aca02c6c6208f08609b8260405160208152806108f86004359460208301906110f5565b0390a4005b63ff323ecb60e01b5f5260045ffd5b60c001516001600160a01b03163314159050846108b9565b61093891503d805f833e6103b48183611150565b846108a0565b3461012d57602036600319011261012d576004356001600160401b03811161012d5761096e9036906004016110c8565b6060602060405161097e81611119565b5f8152015281019060208183031261012d578035906001600160401b03821161012d570160408183031261012d57604051916109b983611119565b6109c282611042565b835260208201356001600160401b03811161012d576109e192016111c2565b9060208101918252610a166040519283926020845260018060a01b0390511660208401525160408084015260608301906110f5565b0390f35b3461012d575f36600319011261012d575f546040516001600160a01b039091168152602090f35b3461012d57610a5f610a5236611056565b818194929361044c61152b565b5f85815260026020526040812054929591926001600160a01b031691905b8451811015610b7c57610a9d83836001600160a01b0361048e858a61144d565b906001600160a01b0388166020610ab4838961144d565b51015192813b1561012d57604051637921219560e11b81523060048201526001600160a01b038216602482015260448101889052606481019490945260a060848501525f60a48501819052600194908160c48183875af19081610b6c575b50610b65577f616cfada1d83c91b3ab4d0488d450dbb131a917d044bde559c55552aebdf433f60406020610b46868c61144d565b510151928151938a85526020850152868060a01b031692a35b01610a7d565b5050610b5f565b5f610b7691611150565b8b610b12565b50847f8068582e206e415cdede1ddbbfbc488773faa51109a0871b26a5a46eec60a4a984886105a98860405193849384611461565b3461012d57606036600319011261012d576044356024356004356001600160401b03831161012d573660238401121561012d578260040135906001600160401b03821161012d576024840193602436918460061b01011161012d5780156103ce575f80546040516328c44a9960e21b8152600481018690529190829060249082906001600160a01b03165afa80156103c357610120610c66916080935f91610ec2575b500151602080825183010191016113b3565b01518215610eb35760328311610e9b575f905f5b848110610e795750808203610e6457505082610c95916114f5565b90335f52600360205260405f20825f5260205260405f208054905f815581610e19575b50505f5b818110610d5f5750335f52600160205260405f20825f5260205260405f20600160ff1982541617905560405190806020830160208452526040820194905f5b818110610d2f57505050807fcb69e0d2c25bc3247c37f1a1b54a09e56f58301351ae8eeb49fb9750045ba7409133950390a4005b909195604080600192838060a01b03610d478b611042565b16815260208a81013590820152019701929101610cfb565b335f52600360205260405f20835f5260205260405f2090610d8181848861151b565b9180549068010000000000000000821015610e055760018201808255821015610df1575f5260205f209060011b0182359260018060a01b038416840361012d5781546001600160a01b0319166001600160a01b039094169390931781556020929092013560019283015501610cbc565b634e487b7160e01b5f52603260045260245ffd5b634e487b7160e01b5f52604160045260245ffd5b6001600160ff1b0382168203610e50575f5260205f209060011b8101905b81811015610cb8575f8082556001820155600201610e37565b634e487b7160e01b5f52601160045260245ffd5b63ba660bff60e01b5f5260045260245260445ffd5b916020610e8784878a61151b565b01358101809111610e505791600101610c7a565b8263b268613560e01b5f52600452603260245260445ffd5b63143160cf60e01b5f5260045ffd5b610ed691503d805f833e6103b48183611150565b88610c54565b3461012d57602036600319011261012d576004355f526002602052602060018060a01b0360405f205416604051908152f35b3461012d57610f3f610f1f36611056565b6001600160a01b039092165f9081526003602052604090209291906114f5565b5f5260205260405f208054610f53816111f4565b91610f616040519384611150565b81835260208301905f5260205f205f915b838310610f8f5760405160208082528190610a1690820188611080565b60026020600192604051610fa281611119565b848060a01b0386541681528486015483820152815201920192019190610f72565b3461012d57602036600319011261012d576004359063ffffffff60e01b821680920361012d57602091630271189760e51b8114908115611005575b5015158152f35b6301ffc9a760e01b14905083610ffe565b600435906001600160a01b038216820361012d57565b602435906001600160a01b038216820361012d57565b35906001600160a01b038216820361012d57565b606090600319011261012d576004356001600160a01b038116810361012d57906024359060443590565b90602080835192838152019201905f5b81811061109d5750505090565b825180516001600160a01b031685526020908101518186015260409094019390920191600101611090565b9181601f8401121561012d578235916001600160401b03831161012d576020838186019501011161012d57565b805180835260209291819084018484015e5f828201840152601f01601f1916010190565b604081019081106001600160401b03821117610e0557604052565b61014081019081106001600160401b03821117610e0557604052565b90601f801991011681019081106001600160401b03821117610e0557604052565b6001600160401b038111610e0557601f01601f191660200190565b92919261119882611171565b916111a66040519384611150565b82948184528183011161012d578281602093845f960137010152565b9080601f8301121561012d578160206111dd9335910161118c565b90565b35906001600160401b038216820361012d57565b6001600160401b038111610e055760051b60200190565b9080601f8301121561012d578135611222816111f4565b926112306040519485611150565b81845260208085019260051b82010192831161012d57602001905b8282106112585750505090565b813581526020918201910161124b565b51906001600160401b038216820361012d57565b51906001600160a01b038216820361012d57565b81601f8201121561012d578051906112a782611171565b926112b56040519485611150565b8284526020838301011161012d57815f9260208093018386015e8301015290565b60208183031261012d578051906001600160401b03821161012d57016101408183031261012d576040519161130a83611134565b815183526020820151602084015261132460408301611268565b604084015261133560608301611268565b606084015261134660808301611268565b608084015260a082015160a084015261136160c0830161127c565b60c084015261137260e0830161127c565b60e0840152610100820151801515810361012d576101008401526101208201516001600160401b03811161012d576113aa9201611290565b61012082015290565b60208183031261012d578051906001600160401b03821161012d57019060a08282031261012d576040519160a083018381106001600160401b03821117610e05576040526114008161127c565b835260208101516001600160401b03811161012d57608092611423918301611290565b60208401526114346040820161127c565b6040840152606081015160608401520151608082015290565b8051821015610df15760209160051b010190565b6111dd939260609260018060a01b0316825260208201528160408201520190611080565b60208183031261012d578051906001600160401b03821161012d570160408183031261012d57604051916114b883611119565b6114c18261127c565b835260208201516001600160401b03811161012d576114e09201611290565b602082015290565b91908203918211610e5057565b906040519060208201928352604082015260408152611515606082611150565b51902090565b9190811015610df15760061b0190565b60025f516020611a455f395f51905f5254146115545760025f516020611a455f395f51905f5255565b633ee5aeb560e01b5f5260045ffd5b91909260018060a01b035f54166040516328c44a9960e21b81528560048201525f81602481855afa9081156103c3575f91611950575b5060e08101516001600160a01b03958616951685148015906118ea575b6118db578051156118cc576001600160401b0360608201511680151590816118c1575b506118b2576001600160401b036080820151166118a3575f602492604051938480926328c44a9960e21b82528860048301525afa9081156103c35761162c6101209261163d945f91611889575b506119ab565b0151602080825183010191016113b3565b60208181015180516001600160a01b039261165e9291820181019101611485565b51165f52600360205260405f2061167586856114f5565b5f5260205260405f208054611689816111f4565b916116976040519384611150565b81835260208301905f5260205f205f915b838310611855575050505060408281015160608401519151627eeac760e11b81523060048201526024810183905292976001600160a01b03909116969195906020846044818b5afa9384156103c3575f9461181e575b509060445f92836040519586948593633a9bb12760e21b8552600485015260248401525af180156103c3576117e4575b50604051627eeac760e11b81523060048201526024810185905291602083604481895afa9283156103c3575f936117af575b5060800151918181106117985790611777916114e8565b90808203611783575050565b631a3dba0360e31b5f5260045260245260445ffd5b82631a3dba0360e31b5f526004525f60245260445ffd5b9092506020813d6020116117dc575b816117cb60209383611150565b8101031261012d5751916080611760565b3d91506117be565b3d805f833e6117f38183611150565b810160208282031261012d5781516001600160401b03811161012d576118199201611290565b61172e565b919093506020823d60201161184d575b8161183b60209383611150565b8101031261012d5790519260446116fe565b3d915061182e565b6002602060019260405161186881611119565b848060a01b03865416815284860154838201528152019201920191906116a8565b61189d91503d805f833e6103b48183611150565b5f611626565b637b6227e960e11b5f5260045ffd5b631ab7da6b60e01b5f5260045ffd5b90504210155f6115d9565b635c2c7f8960e01b5f5260045ffd5b63629cd40b60e11b5f5260045ffd5b50602081810151604051635bf2f20d60e01b815291826004818a5afa9182156103c3575f9261191c575b5014156115b6565b9091506020813d602011611948575b8161193860209383611150565b8101031261012d5751905f611914565b3d915061192b565b61196491503d805f833e6103b48183611150565b5f611599565b91906001600160a01b03831661eeee1461198357505090565b9091506001600160a01b03821615611999575090565b6379c5a2db60e01b5f5260045260245ffd5b60c001516001600160a01b031630036119c057565b634672d00f60e01b5f5260045ffd5b479080821115611a3f576119e2916114e8565b906001600160a01b03165f80808085855af13d15611a3a573d611a0481611171565b90611a126040519283611150565b81525f60203d92013e5b15611a25575050565b632247bb8b60e21b5f5260045260245260445ffd5b611a1c565b50505056fe9b779b17422d0df92223018b32b4d1fa46e071723d6817e2486d003becc55f00a2646970667358221220fbb0a88af780be83316c34dae79063c1b37331a3a95be64b9c5875d34c32a40964736f6c634300081b0033",
    "linkReferences": {}
  },
  "methodIdentifiers": {
    "EXECUTOR_SENTINEL()": "c880c06f",
    "MAX_SPLITS()": "b48210ca",
    "arbitrate(bytes32,bytes32,(address,uint256)[])": "5123666d",
    "check((bytes32,bytes32,uint64,uint64,uint64,bytes32,address,address,bool,bytes),bytes,bytes32)": "8da3721a",
    "collectAndDistribute(address,bytes32,bytes32)": "c1dd2c6e",
    "createFulfillment(address,bytes,uint64,bytes32)": "ed7180e3",
    "decodeDemandData(bytes)": "838a68d9",
    "eas()": "8150864d",
    "fulfillers(bytes32)": "4e2d3b12",
    "getSplits(address,bytes32,bytes32)": "2257c0e3",
    "hasDecision(address,bytes32)": "a1a80488",
    "onERC1155BatchReceived(address,address,uint256[],uint256[],bytes)": "bc197c81",
    "onERC1155Received(address,address,uint256,uint256,bytes)": "f23a6e61",
    "requestArbitration(bytes32,bytes32,address,bytes)": "86314b0d",
    "supportsInterface(bytes4)": "01ffc9a7",
    "unsafePartiallyCollectAndDistribute(address,bytes32,bytes32)": "73e0d48f"
  },
  "id": 127
}