{
  "abi": [
    {
      "type": "constructor",
      "inputs": [
        {
          "name": "_eas",
          "type": "address",
          "internalType": "contract IEAS"
        }
      ],
      "stateMutability": "nonpayable"
    },
    {
      "type": "receive",
      "stateMutability": "payable"
    },
    {
      "type": "function",
      "name": "EXECUTOR_SENTINEL",
      "inputs": [],
      "outputs": [
        {
          "name": "",
          "type": "address",
          "internalType": "address"
        }
      ],
      "stateMutability": "view"
    },
    {
      "type": "function",
      "name": "MAX_SPLITS",
      "inputs": [],
      "outputs": [
        {
          "name": "",
          "type": "uint256",
          "internalType": "uint256"
        }
      ],
      "stateMutability": "view"
    },
    {
      "type": "function",
      "name": "arbitrate",
      "inputs": [
        {
          "name": "fulfillment",
          "type": "bytes32",
          "internalType": "bytes32"
        },
        {
          "name": "escrow",
          "type": "bytes32",
          "internalType": "bytes32"
        },
        {
          "name": "splits",
          "type": "tuple[]",
          "internalType": "struct NativeTokenSplitter.Split[]",
          "components": [
            {
              "name": "recipient",
              "type": "address",
              "internalType": "address"
            },
            {
              "name": "amount",
              "type": "uint256",
              "internalType": "uint256"
            }
          ]
        }
      ],
      "outputs": [],
      "stateMutability": "nonpayable"
    },
    {
      "type": "function",
      "name": "check",
      "inputs": [
        {
          "name": "fulfillment",
          "type": "tuple",
          "internalType": "struct Attestation",
          "components": [
            {
              "name": "uid",
              "type": "bytes32",
              "internalType": "bytes32"
            },
            {
              "name": "schema",
              "type": "bytes32",
              "internalType": "bytes32"
            },
            {
              "name": "time",
              "type": "uint64",
              "internalType": "uint64"
            },
            {
              "name": "expirationTime",
              "type": "uint64",
              "internalType": "uint64"
            },
            {
              "name": "revocationTime",
              "type": "uint64",
              "internalType": "uint64"
            },
            {
              "name": "refUID",
              "type": "bytes32",
              "internalType": "bytes32"
            },
            {
              "name": "recipient",
              "type": "address",
              "internalType": "address"
            },
            {
              "name": "attester",
              "type": "address",
              "internalType": "address"
            },
            {
              "name": "revocable",
              "type": "bool",
              "internalType": "bool"
            },
            {
              "name": "data",
              "type": "bytes",
              "internalType": "bytes"
            }
          ]
        },
        {
          "name": "demand",
          "type": "bytes",
          "internalType": "bytes"
        },
        {
          "name": "escrow",
          "type": "bytes32",
          "internalType": "bytes32"
        }
      ],
      "outputs": [
        {
          "name": "",
          "type": "bool",
          "internalType": "bool"
        }
      ],
      "stateMutability": "view"
    },
    {
      "type": "function",
      "name": "collectAndDistribute",
      "inputs": [
        {
          "name": "escrowContract",
          "type": "address",
          "internalType": "address"
        },
        {
          "name": "escrow",
          "type": "bytes32",
          "internalType": "bytes32"
        },
        {
          "name": "fulfillment",
          "type": "bytes32",
          "internalType": "bytes32"
        }
      ],
      "outputs": [],
      "stateMutability": "nonpayable"
    },
    {
      "type": "function",
      "name": "createFulfillment",
      "inputs": [
        {
          "name": "obligationContract",
          "type": "address",
          "internalType": "address"
        },
        {
          "name": "data",
          "type": "bytes",
          "internalType": "bytes"
        },
        {
          "name": "expirationTime",
          "type": "uint64",
          "internalType": "uint64"
        },
        {
          "name": "refUID",
          "type": "bytes32",
          "internalType": "bytes32"
        }
      ],
      "outputs": [
        {
          "name": "fulfillmentUid",
          "type": "bytes32",
          "internalType": "bytes32"
        }
      ],
      "stateMutability": "payable"
    },
    {
      "type": "function",
      "name": "decodeDemandData",
      "inputs": [
        {
          "name": "data",
          "type": "bytes",
          "internalType": "bytes"
        }
      ],
      "outputs": [
        {
          "name": "",
          "type": "tuple",
          "internalType": "struct NativeTokenSplitter.DemandData",
          "components": [
            {
              "name": "oracle",
              "type": "address",
              "internalType": "address"
            },
            {
              "name": "data",
              "type": "bytes",
              "internalType": "bytes"
            }
          ]
        }
      ],
      "stateMutability": "pure"
    },
    {
      "type": "function",
      "name": "eas",
      "inputs": [],
      "outputs": [
        {
          "name": "",
          "type": "address",
          "internalType": "contract IEAS"
        }
      ],
      "stateMutability": "view"
    },
    {
      "type": "function",
      "name": "fulfillers",
      "inputs": [
        {
          "name": "",
          "type": "bytes32",
          "internalType": "bytes32"
        }
      ],
      "outputs": [
        {
          "name": "",
          "type": "address",
          "internalType": "address"
        }
      ],
      "stateMutability": "view"
    },
    {
      "type": "function",
      "name": "getSplits",
      "inputs": [
        {
          "name": "oracle",
          "type": "address",
          "internalType": "address"
        },
        {
          "name": "fulfillment",
          "type": "bytes32",
          "internalType": "bytes32"
        },
        {
          "name": "escrow",
          "type": "bytes32",
          "internalType": "bytes32"
        }
      ],
      "outputs": [
        {
          "name": "",
          "type": "tuple[]",
          "internalType": "struct NativeTokenSplitter.Split[]",
          "components": [
            {
              "name": "recipient",
              "type": "address",
              "internalType": "address"
            },
            {
              "name": "amount",
              "type": "uint256",
              "internalType": "uint256"
            }
          ]
        }
      ],
      "stateMutability": "view"
    },
    {
      "type": "function",
      "name": "hasDecision",
      "inputs": [
        {
          "name": "",
          "type": "address",
          "internalType": "address"
        },
        {
          "name": "",
          "type": "bytes32",
          "internalType": "bytes32"
        }
      ],
      "outputs": [
        {
          "name": "",
          "type": "bool",
          "internalType": "bool"
        }
      ],
      "stateMutability": "view"
    },
    {
      "type": "function",
      "name": "requestArbitration",
      "inputs": [
        {
          "name": "_fulfillment",
          "type": "bytes32",
          "internalType": "bytes32"
        },
        {
          "name": "_escrow",
          "type": "bytes32",
          "internalType": "bytes32"
        },
        {
          "name": "oracle",
          "type": "address",
          "internalType": "address"
        },
        {
          "name": "demand",
          "type": "bytes",
          "internalType": "bytes"
        }
      ],
      "outputs": [],
      "stateMutability": "nonpayable"
    },
    {
      "type": "function",
      "name": "unsafePartiallyCollectAndDistribute",
      "inputs": [
        {
          "name": "escrowContract",
          "type": "address",
          "internalType": "address"
        },
        {
          "name": "escrow",
          "type": "bytes32",
          "internalType": "bytes32"
        },
        {
          "name": "fulfillment",
          "type": "bytes32",
          "internalType": "bytes32"
        }
      ],
      "outputs": [],
      "stateMutability": "nonpayable"
    },
    {
      "type": "event",
      "name": "ArbitrationMade",
      "inputs": [
        {
          "name": "decisionKey",
          "type": "bytes32",
          "indexed": true,
          "internalType": "bytes32"
        },
        {
          "name": "fulfillmentUid",
          "type": "bytes32",
          "indexed": true,
          "internalType": "bytes32"
        },
        {
          "name": "oracle",
          "type": "address",
          "indexed": true,
          "internalType": "address"
        },
        {
          "name": "splits",
          "type": "tuple[]",
          "indexed": false,
          "internalType": "struct NativeTokenSplitter.Split[]",
          "components": [
            {
              "name": "recipient",
              "type": "address",
              "internalType": "address"
            },
            {
              "name": "amount",
              "type": "uint256",
              "internalType": "uint256"
            }
          ]
        }
      ],
      "anonymous": false
    },
    {
      "type": "event",
      "name": "ArbitrationRequested",
      "inputs": [
        {
          "name": "fulfillment",
          "type": "bytes32",
          "indexed": true,
          "internalType": "bytes32"
        },
        {
          "name": "escrow",
          "type": "bytes32",
          "indexed": true,
          "internalType": "bytes32"
        },
        {
          "name": "oracle",
          "type": "address",
          "indexed": true,
          "internalType": "address"
        },
        {
          "name": "demand",
          "type": "bytes",
          "indexed": false,
          "internalType": "bytes"
        }
      ],
      "anonymous": false
    },
    {
      "type": "event",
      "name": "EscrowCollectedAndDistributed",
      "inputs": [
        {
          "name": "escrowUid",
          "type": "bytes32",
          "indexed": true,
          "internalType": "bytes32"
        },
        {
          "name": "fulfillmentUid",
          "type": "bytes32",
          "indexed": true,
          "internalType": "bytes32"
        },
        {
          "name": "fulfiller",
          "type": "address",
          "indexed": true,
          "internalType": "address"
        },
        {
          "name": "splits",
          "type": "tuple[]",
          "indexed": false,
          "internalType": "struct NativeTokenSplitter.Split[]",
          "components": [
            {
              "name": "recipient",
              "type": "address",
              "internalType": "address"
            },
            {
              "name": "amount",
              "type": "uint256",
              "internalType": "uint256"
            }
          ]
        }
      ],
      "anonymous": false
    },
    {
      "type": "event",
      "name": "FulfillmentCreated",
      "inputs": [
        {
          "name": "fulfillmentUid",
          "type": "bytes32",
          "indexed": true,
          "internalType": "bytes32"
        },
        {
          "name": "fulfiller",
          "type": "address",
          "indexed": true,
          "internalType": "address"
        },
        {
          "name": "obligationContract",
          "type": "address",
          "indexed": true,
          "internalType": "address"
        }
      ],
      "anonymous": false
    },
    {
      "type": "event",
      "name": "NativeTransferFailedOnDistribute",
      "inputs": [
        {
          "name": "recipient",
          "type": "address",
          "indexed": true,
          "internalType": "address"
        },
        {
          "name": "amount",
          "type": "uint256",
          "indexed": false,
          "internalType": "uint256"
        }
      ],
      "anonymous": false
    },
    {
      "type": "error",
      "name": "AttestationRevoked",
      "inputs": []
    },
    {
      "type": "error",
      "name": "DeadlineExpired",
      "inputs": []
    },
    {
      "type": "error",
      "name": "EmptySplits",
      "inputs": []
    },
    {
      "type": "error",
      "name": "FulfillerAlreadyRecorded",
      "inputs": [
        {
          "name": "fulfillment",
          "type": "bytes32",
          "internalType": "bytes32"
        }
      ]
    },
    {
      "type": "error",
      "name": "InvalidAttestationUid",
      "inputs": []
    },
    {
      "type": "error",
      "name": "InvalidCollectedAmount",
      "inputs": [
        {
          "name": "expected",
          "type": "uint256",
          "internalType": "uint256"
        },
        {
          "name": "actual",
          "type": "uint256",
          "internalType": "uint256"
        }
      ]
    },
    {
      "type": "error",
      "name": "InvalidCreatedFulfillment",
      "inputs": [
        {
          "name": "fulfillment",
          "type": "bytes32",
          "internalType": "bytes32"
        }
      ]
    },
    {
      "type": "error",
      "name": "InvalidEscrowAttestation",
      "inputs": []
    },
    {
      "type": "error",
      "name": "InvalidFulfillmentRecipient",
      "inputs": []
    },
    {
      "type": "error",
      "name": "InvalidFulfillmentUid",
      "inputs": []
    },
    {
      "type": "error",
      "name": "InvalidSplits",
      "inputs": [
        {
          "name": "totalExpected",
          "type": "uint256",
          "internalType": "uint256"
        },
        {
          "name": "totalProvided",
          "type": "uint256",
          "internalType": "uint256"
        }
      ]
    },
    {
      "type": "error",
      "name": "NativeTokenRefundFailed",
      "inputs": [
        {
          "name": "recipient",
          "type": "address",
          "internalType": "address"
        },
        {
          "name": "amount",
          "type": "uint256",
          "internalType": "uint256"
        }
      ]
    },
    {
      "type": "error",
      "name": "NativeTokenTransferFailed",
      "inputs": [
        {
          "name": "to",
          "type": "address",
          "internalType": "address"
        },
        {
          "name": "amount",
          "type": "uint256",
          "internalType": "uint256"
        }
      ]
    },
    {
      "type": "error",
      "name": "NoFulfillerRecorded",
      "inputs": [
        {
          "name": "fulfillment",
          "type": "bytes32",
          "internalType": "bytes32"
        }
      ]
    },
    {
      "type": "error",
      "name": "ReentrancyGuardReentrantCall",
      "inputs": []
    },
    {
      "type": "error",
      "name": "TooManySplits",
      "inputs": [
        {
          "name": "provided",
          "type": "uint256",
          "internalType": "uint256"
        },
        {
          "name": "max",
          "type": "uint256",
          "internalType": "uint256"
        }
      ]
    },
    {
      "type": "error",
      "name": "UnauthorizedArbitrationRequest",
      "inputs": []
    }
  ],
  "bytecode": {
    "object": "0x608034609357601f61173e38819003918201601f19168301916001600160401b03831184841017609757808492602094604052833981010312609357516001600160a01b0381169081900360935760017f9b779b17422d0df92223018b32b4d1fa46e071723d6817e2486d003becc55f00555f80546001600160a01b03191691909117905560405161169290816100ac8239f35b5f80fd5b634e487b7160e01b5f52604160045260245ffdfe6080604052600436101561001a575b3615610018575f80fd5b005b5f3560e01c80632257c0e314610ce95780634e2d3b1214610cb75780635123666d1461098c57806373e0d48f1461089e5780638150864d14610877578063838a68d91461079b57806386314b0d1461067b5780638da3721a14610515578063a1a80488146104cc578063b48210ca146104b1578063c1dd2c6e146103ad578063c880c06f146103915763ed7180e30361000e576080366003190112610385576100c1610da1565b6024356001600160401b038111610385576100e0903690600401610e43565b916044356001600160401b0381168091036103855760643593610101611222565b61010b34476111df565b604051632cee40b560e21b81526060600482015260648101839052956001600160a01b03909416949093828260848901375f60848489010152836024880152806044880152602087608481601f19601f8801168101030181348a5af196871561033f575f97610359575b50861561034a575f80546040516328c44a9960e21b8152600481018a9052929190839060249082906001600160a01b03165afa91821561033f575f9261031b575b508782511494851595610303575b85156102eb575b85156102d3575b5084156102c4575b508315610299575b505050610286575f838152600260205260409020546001600160a01b0316610273575f83815260026020908152604090912080546001600160a01b0319163390811790915590939161023491906115eb565b6040519133827ff845579b2e96200541b4e2b438fbb65e772b70ac68265030aa16f6d8e16501d95f80a460015f51602061163d5f395f51905f52558152f35b8263aa8904b160e01b5f5260045260245ffd5b8263f9d7a76560e01b5f5260045260245ffd5b6102b3929350610120015160208151910120923691610f07565b6020815191012014155f80806101e2565b60a0820151141593505f6101da565b60608301516001600160401b0316141594505f6101d2565b60c08301516001600160a01b031630141595506101cb565b60e08301516001600160a01b031688141595506101c4565b6103389192503d805f833e6103308183610ecb565b810190610fdd565b905f6101b6565b6040513d5f823e3d90fd5b6303acddcd60e41b5f5260045ffd5b9096506020813d602011610389575b8161037560209383610ecb565b810103126103855751955f610175565b5f80fd5b3d9150610368565b34610385575f36600319011261038557602060405161eeee8152f35b34610385576103d06103be36610dcb565b81819492936103cb611222565b61125a565b5f838152600260205260408120549193916001600160a01b0316905b8451811015610468576001600160a01b0361041583858361040d868b611139565b515116611586565b165f8080806020610426878c611139565b510151855af161043461114d565b501561044357506001016103ec565b602061044f8388611139565b510151906338f0620160e21b5f5260045260245260445ffd5b50917fc7918d6463b26dbfeb2ac95f43cbdd4fe5d152c0b6551bc1e9922bd1b1ac328761049b8560405191829182610df5565b0390a460015f51602061163d5f395f51905f5255005b34610385575f36600319011261038557602060405160328152f35b34610385576040366003190112610385576001600160a01b036104ed610da1565b165f52600160205260405f206024355f52602052602060ff60405f2054166040519015158152f35b34610385576060366003190112610385576004356001600160401b038111610385576101406003198236030112610385576040519061055382610eaf565b806004013582526024810135602083015261057060448201610f5b565b604083015261058160648201610f5b565b606083015261059260848201610f5b565b608083015260a481013560a08301526105ad60c48201610db7565b60c08301526105be60e48201610db7565b60e0830152610104810135801515810361038557610100830152610124810135906001600160401b0382116103855760046105fc9236920101610f3d565b6101208201526024356001600160401b03811161038557610621903690600401610f3d565b61062a826115c7565b80516001600160a01b03916106479181016020908101910161117c565b51165f52600160205261066260405f209160443590516111ec565b5f52602052602060ff60405f2054166040519015158152f35b34610385576080366003190112610385576044356001600160a01b0381169060243590829003610385576064356001600160401b038111610385576106c4903690600401610f3d565b5f80546040516328c44a9960e21b8152600481018590529190829060249082906001600160a01b03165afa90811561033f575f91610781575b5060e08101516001600160a01b03163314159081610769575b5061075a577f8c71f7964ccbceaff13fb1c085cf7491115c2bed4a6aca02c6c6208f08609b826040516020815280610755600435946020830190610e70565b0390a4005b63ff323ecb60e01b5f5260045ffd5b60c001516001600160a01b0316331415905084610716565b61079591503d805f833e6103308183610ecb565b846106fd565b34610385576020366003190112610385576004356001600160401b038111610385576107cb903690600401610e43565b606060206040516107db81610e94565b5f81520152810190602081830312610385578035906001600160401b0382116103855701604081830312610385576040519161081683610e94565b61081f82610db7565b835260208201356001600160401b0381116103855761083e9201610f3d565b90602081019182526108736040519283926020845260018060a01b039051166020840152516040808401526060830190610e70565b0390f35b34610385575f366003190112610385575f546040516001600160a01b039091168152602090f35b34610385576108af6103be36610dcb565b5f838152600260205260408120546001600160a01b031693905b8251811015610958576001906001600160a01b036108ed87858361040d868a611139565b165f80808060206108fe878b611139565b510151855af161090c61114d565b501561091a575b50016108c9565b7f49883307846eabe1e4a9b4d7e3378305c6115c7df65c270a47f9f9cfe3ab69ad6020806109488589611139565b510151604051908152a286610913565b50919061049b7fc7918d6463b26dbfeb2ac95f43cbdd4fe5d152c0b6551bc1e9922bd1b1ac32879160405191829182610df5565b34610385576060366003190112610385576044356024356004356001600160401b0383116103855736602384011215610385578260040135906001600160401b038211610385576024840193602436918460061b01011161038557801561034a575f80546040516328c44a9960e21b8152600481018690529190829060249082906001600160a01b03165afa801561033f57610120610a41916040935f91610c9d575b500151602080825183010191016110ba565b01518215610c8e5760328311610c76575f905f5b848110610c545750808203610c3f57505082610a70916111ec565b90335f52600360205260405f20825f5260205260405f208054905f815581610bf4575b50505f5b818110610b3a5750335f52600160205260405f20825f5260205260405f20600160ff1982541617905560405190806020830160208452526040820194905f5b818110610b0a57505050807fcb69e0d2c25bc3247c37f1a1b54a09e56f58301351ae8eeb49fb9750045ba7409133950390a4005b909195604080600192838060a01b03610b228b610db7565b16815260208a81013590820152019701929101610ad6565b335f52600360205260405f20835f5260205260405f2090610b5c818488611212565b9180549068010000000000000000821015610be05760018201808255821015610bcc575f5260205f209060011b0182359260018060a01b03841684036103855781546001600160a01b0319166001600160a01b039094169390931781556020929092013560019283015501610a97565b634e487b7160e01b5f52603260045260245ffd5b634e487b7160e01b5f52604160045260245ffd5b6001600160ff1b0382168203610c2b575f5260205f209060011b8101905b81811015610a93575f8082556001820155600201610c12565b634e487b7160e01b5f52601160045260245ffd5b63ba660bff60e01b5f5260045260245260445ffd5b916020610c6284878a611212565b01358101809111610c2b5791600101610a55565b8263b268613560e01b5f52600452603260245260445ffd5b63143160cf60e01b5f5260045ffd5b610cb191503d805f833e6103308183610ecb565b88610a2f565b34610385576020366003190112610385576004355f526002602052602060018060a01b0360405f205416604051908152f35b3461038557610d1a610cfa36610dcb565b6001600160a01b039092165f9081526003602052604090209291906111ec565b5f5260205260405f2080546001600160401b038111610be05760405191610d4760208360051b0184610ecb565b81835260208301905f5260205f205f915b838310610d6d57604051806108738782610df5565b60026020600192604051610d8081610e94565b848060a01b0386541681528486015483820152815201920192019190610d58565b600435906001600160a01b038216820361038557565b35906001600160a01b038216820361038557565b6060906003190112610385576004356001600160a01b038116810361038557906024359060443590565b60206040818301928281528451809452019201905f5b818110610e185750505090565b825180516001600160a01b031685526020908101518186015260409094019390920191600101610e0b565b9181601f84011215610385578235916001600160401b038311610385576020838186019501011161038557565b805180835260209291819084018484015e5f828201840152601f01601f1916010190565b604081019081106001600160401b03821117610be057604052565b61014081019081106001600160401b03821117610be057604052565b90601f801991011681019081106001600160401b03821117610be057604052565b6001600160401b038111610be057601f01601f191660200190565b929192610f1382610eec565b91610f216040519384610ecb565b829481845281830111610385578281602093845f960137010152565b9080601f8301121561038557816020610f5893359101610f07565b90565b35906001600160401b038216820361038557565b51906001600160401b038216820361038557565b51906001600160a01b038216820361038557565b81601f8201121561038557805190610fae82610eec565b92610fbc6040519485610ecb565b8284526020838301011161038557815f9260208093018386015e8301015290565b602081830312610385578051906001600160401b038211610385570161014081830312610385576040519161101183610eaf565b815183526020820151602084015261102b60408301610f6f565b604084015261103c60608301610f6f565b606084015261104d60808301610f6f565b608084015260a082015160a084015261106860c08301610f83565b60c084015261107960e08301610f83565b60e08401526101008201518015158103610385576101008401526101208201516001600160401b038111610385576110b19201610f97565b61012082015290565b602081830312610385578051906001600160401b0382116103855701906060828203126103855760405191606083018381106001600160401b03821117610be05760405261110781610f83565b835260208101516001600160401b0381116103855760409261112a918301610f97565b60208401520151604082015290565b8051821015610bcc5760209160051b010190565b3d15611177573d9061115e82610eec565b9161116c6040519384610ecb565b82523d5f602084013e565b606090565b602081830312610385578051906001600160401b038211610385570160408183031261038557604051916111af83610e94565b6111b882610f83565b835260208201516001600160401b038111610385576111d79201610f97565b602082015290565b91908203918211610c2b57565b90604051906020820192835260408201526040815261120c606082610ecb565b51902090565b9190811015610bcc5760061b0190565b60025f51602061163d5f395f51905f52541461124b5760025f51602061163d5f395f51905f5255565b633ee5aeb560e01b5f5260045ffd5b9092919260018060a01b035f54166040516328c44a9960e21b81528260048201525f81602481855afa90811561033f575f9161156c575b5060e08101516001600160a01b0394851694168414801590611506575b6114f7578051156114e8576001600160401b0360608201511680151590816114dd575b506114ce576001600160401b036080820151166114bf575f602492604051938480926328c44a9960e21b82528a60048301525afa90811561033f5761132461012092611335945f916114a5575b506115c7565b0151602080825183010191016110ba565b91602083015161135560018060a01b03916020808251830101910161117c565b51165f52600360205260405f2061136c83876111ec565b5f5260205260405f2080546001600160401b038111610be0576040519161139960208360051b0184610ecb565b81835260208301905f5260205f205f915b83831061147157505050505f909560444794836040519586948593633a9bb12760e21b8552600485015260248401525af1801561033f57611437575b506040479201519181811061142057906113ff916111df565b9080820361140b575050565b631a3dba0360e31b5f5260045260245260445ffd5b82631a3dba0360e31b5f526004525f60245260445ffd5b3d805f833e6114468183610ecb565b81016020828203126103855781516001600160401b0381116103855761146c9201610f97565b6113e6565b6002602060019260405161148481610e94565b848060a01b03865416815284860154838201528152019201920191906113aa565b6114b991503d805f833e6103308183610ecb565b5f61131e565b637b6227e960e11b5f5260045ffd5b631ab7da6b60e01b5f5260045ffd5b90504210155f6112d1565b635c2c7f8960e01b5f5260045ffd5b63629cd40b60e11b5f5260045ffd5b50602081810151604051635bf2f20d60e01b81529182600481895afa91821561033f575f92611538575b5014156112ae565b9091506020813d602011611564575b8161155460209383610ecb565b810103126103855751905f611530565b3d9150611547565b61158091503d805f833e6103308183610ecb565b5f611291565b91906001600160a01b03831661eeee1461159f57505090565b9091506001600160a01b038216156115b5575090565b6379c5a2db60e01b5f5260045260245ffd5b60c001516001600160a01b031630036115dc57565b634672d00f60e01b5f5260045ffd5b479080821115611637576115fe916111df565b906001600160a01b03165f80808085855af161161861114d565b5015611622575050565b632247bb8b60e21b5f5260045260245260445ffd5b50505056fe9b779b17422d0df92223018b32b4d1fa46e071723d6817e2486d003becc55f00a26469706673582212204d89b96229ff0c44f1a9058d2715a1eda3f5bd297c6e7d9ed702a12c4942fb1d64736f6c634300081b0033",
    "linkReferences": {}
  },
  "methodIdentifiers": {
    "EXECUTOR_SENTINEL()": "c880c06f",
    "MAX_SPLITS()": "b48210ca",
    "arbitrate(bytes32,bytes32,(address,uint256)[])": "5123666d",
    "check((bytes32,bytes32,uint64,uint64,uint64,bytes32,address,address,bool,bytes),bytes,bytes32)": "8da3721a",
    "collectAndDistribute(address,bytes32,bytes32)": "c1dd2c6e",
    "createFulfillment(address,bytes,uint64,bytes32)": "ed7180e3",
    "decodeDemandData(bytes)": "838a68d9",
    "eas()": "8150864d",
    "fulfillers(bytes32)": "4e2d3b12",
    "getSplits(address,bytes32,bytes32)": "2257c0e3",
    "hasDecision(address,bytes32)": "a1a80488",
    "requestArbitration(bytes32,bytes32,address,bytes)": "86314b0d",
    "unsafePartiallyCollectAndDistribute(address,bytes32,bytes32)": "73e0d48f"
  },
  "id": 160
}