{
  "abi": [
    {
      "type": "constructor",
      "inputs": [
        {
          "name": "_eas",
          "type": "address",
          "internalType": "contract IEAS"
        }
      ],
      "stateMutability": "nonpayable"
    },
    {
      "type": "receive",
      "stateMutability": "payable"
    },
    {
      "type": "function",
      "name": "EXECUTOR_SENTINEL",
      "inputs": [],
      "outputs": [
        {
          "name": "",
          "type": "address",
          "internalType": "address"
        }
      ],
      "stateMutability": "view"
    },
    {
      "type": "function",
      "name": "MAX_SPLITS",
      "inputs": [],
      "outputs": [
        {
          "name": "",
          "type": "uint256",
          "internalType": "uint256"
        }
      ],
      "stateMutability": "view"
    },
    {
      "type": "function",
      "name": "arbitrate",
      "inputs": [
        {
          "name": "fulfillment",
          "type": "bytes32",
          "internalType": "bytes32"
        },
        {
          "name": "escrow",
          "type": "bytes32",
          "internalType": "bytes32"
        },
        {
          "name": "splits",
          "type": "tuple[]",
          "internalType": "struct NativeTokenSplitter.Split[]",
          "components": [
            {
              "name": "recipient",
              "type": "address",
              "internalType": "address"
            },
            {
              "name": "amount",
              "type": "uint256",
              "internalType": "uint256"
            }
          ]
        }
      ],
      "outputs": [],
      "stateMutability": "nonpayable"
    },
    {
      "type": "function",
      "name": "checkObligation",
      "inputs": [
        {
          "name": "fulfillment",
          "type": "tuple",
          "internalType": "struct Attestation",
          "components": [
            {
              "name": "uid",
              "type": "bytes32",
              "internalType": "bytes32"
            },
            {
              "name": "schema",
              "type": "bytes32",
              "internalType": "bytes32"
            },
            {
              "name": "time",
              "type": "uint64",
              "internalType": "uint64"
            },
            {
              "name": "expirationTime",
              "type": "uint64",
              "internalType": "uint64"
            },
            {
              "name": "revocationTime",
              "type": "uint64",
              "internalType": "uint64"
            },
            {
              "name": "refUID",
              "type": "bytes32",
              "internalType": "bytes32"
            },
            {
              "name": "recipient",
              "type": "address",
              "internalType": "address"
            },
            {
              "name": "attester",
              "type": "address",
              "internalType": "address"
            },
            {
              "name": "revocable",
              "type": "bool",
              "internalType": "bool"
            },
            {
              "name": "data",
              "type": "bytes",
              "internalType": "bytes"
            }
          ]
        },
        {
          "name": "demand",
          "type": "bytes",
          "internalType": "bytes"
        },
        {
          "name": "escrow",
          "type": "bytes32",
          "internalType": "bytes32"
        }
      ],
      "outputs": [
        {
          "name": "",
          "type": "bool",
          "internalType": "bool"
        }
      ],
      "stateMutability": "view"
    },
    {
      "type": "function",
      "name": "collectAndDistribute",
      "inputs": [
        {
          "name": "escrowContract",
          "type": "address",
          "internalType": "address"
        },
        {
          "name": "escrow",
          "type": "bytes32",
          "internalType": "bytes32"
        },
        {
          "name": "fulfillment",
          "type": "bytes32",
          "internalType": "bytes32"
        }
      ],
      "outputs": [],
      "stateMutability": "nonpayable"
    },
    {
      "type": "function",
      "name": "createFulfillment",
      "inputs": [
        {
          "name": "obligationContract",
          "type": "address",
          "internalType": "address"
        },
        {
          "name": "data",
          "type": "bytes",
          "internalType": "bytes"
        },
        {
          "name": "expirationTime",
          "type": "uint64",
          "internalType": "uint64"
        },
        {
          "name": "refUID",
          "type": "bytes32",
          "internalType": "bytes32"
        }
      ],
      "outputs": [
        {
          "name": "fulfillmentUid",
          "type": "bytes32",
          "internalType": "bytes32"
        }
      ],
      "stateMutability": "payable"
    },
    {
      "type": "function",
      "name": "decodeDemandData",
      "inputs": [
        {
          "name": "data",
          "type": "bytes",
          "internalType": "bytes"
        }
      ],
      "outputs": [
        {
          "name": "",
          "type": "tuple",
          "internalType": "struct NativeTokenSplitter.DemandData",
          "components": [
            {
              "name": "oracle",
              "type": "address",
              "internalType": "address"
            },
            {
              "name": "data",
              "type": "bytes",
              "internalType": "bytes"
            }
          ]
        }
      ],
      "stateMutability": "pure"
    },
    {
      "type": "function",
      "name": "eas",
      "inputs": [],
      "outputs": [
        {
          "name": "",
          "type": "address",
          "internalType": "contract IEAS"
        }
      ],
      "stateMutability": "view"
    },
    {
      "type": "function",
      "name": "fulfillers",
      "inputs": [
        {
          "name": "",
          "type": "bytes32",
          "internalType": "bytes32"
        }
      ],
      "outputs": [
        {
          "name": "",
          "type": "address",
          "internalType": "address"
        }
      ],
      "stateMutability": "view"
    },
    {
      "type": "function",
      "name": "getSplits",
      "inputs": [
        {
          "name": "oracle",
          "type": "address",
          "internalType": "address"
        },
        {
          "name": "fulfillment",
          "type": "bytes32",
          "internalType": "bytes32"
        },
        {
          "name": "escrow",
          "type": "bytes32",
          "internalType": "bytes32"
        }
      ],
      "outputs": [
        {
          "name": "",
          "type": "tuple[]",
          "internalType": "struct NativeTokenSplitter.Split[]",
          "components": [
            {
              "name": "recipient",
              "type": "address",
              "internalType": "address"
            },
            {
              "name": "amount",
              "type": "uint256",
              "internalType": "uint256"
            }
          ]
        }
      ],
      "stateMutability": "view"
    },
    {
      "type": "function",
      "name": "hasDecision",
      "inputs": [
        {
          "name": "",
          "type": "address",
          "internalType": "address"
        },
        {
          "name": "",
          "type": "bytes32",
          "internalType": "bytes32"
        }
      ],
      "outputs": [
        {
          "name": "",
          "type": "bool",
          "internalType": "bool"
        }
      ],
      "stateMutability": "view"
    },
    {
      "type": "function",
      "name": "requestArbitration",
      "inputs": [
        {
          "name": "_fulfillment",
          "type": "bytes32",
          "internalType": "bytes32"
        },
        {
          "name": "_escrow",
          "type": "bytes32",
          "internalType": "bytes32"
        },
        {
          "name": "oracle",
          "type": "address",
          "internalType": "address"
        },
        {
          "name": "demand",
          "type": "bytes",
          "internalType": "bytes"
        }
      ],
      "outputs": [],
      "stateMutability": "nonpayable"
    },
    {
      "type": "function",
      "name": "unsafePartiallyCollectAndDistribute",
      "inputs": [
        {
          "name": "escrowContract",
          "type": "address",
          "internalType": "address"
        },
        {
          "name": "escrow",
          "type": "bytes32",
          "internalType": "bytes32"
        },
        {
          "name": "fulfillment",
          "type": "bytes32",
          "internalType": "bytes32"
        }
      ],
      "outputs": [],
      "stateMutability": "nonpayable"
    },
    {
      "type": "event",
      "name": "ArbitrationMade",
      "inputs": [
        {
          "name": "decisionKey",
          "type": "bytes32",
          "indexed": true,
          "internalType": "bytes32"
        },
        {
          "name": "obligation",
          "type": "bytes32",
          "indexed": true,
          "internalType": "bytes32"
        },
        {
          "name": "oracle",
          "type": "address",
          "indexed": true,
          "internalType": "address"
        },
        {
          "name": "splits",
          "type": "tuple[]",
          "indexed": false,
          "internalType": "struct NativeTokenSplitter.Split[]",
          "components": [
            {
              "name": "recipient",
              "type": "address",
              "internalType": "address"
            },
            {
              "name": "amount",
              "type": "uint256",
              "internalType": "uint256"
            }
          ]
        }
      ],
      "anonymous": false
    },
    {
      "type": "event",
      "name": "ArbitrationRequested",
      "inputs": [
        {
          "name": "fulfillment",
          "type": "bytes32",
          "indexed": true,
          "internalType": "bytes32"
        },
        {
          "name": "escrow",
          "type": "bytes32",
          "indexed": true,
          "internalType": "bytes32"
        },
        {
          "name": "oracle",
          "type": "address",
          "indexed": true,
          "internalType": "address"
        },
        {
          "name": "demand",
          "type": "bytes",
          "indexed": false,
          "internalType": "bytes"
        }
      ],
      "anonymous": false
    },
    {
      "type": "event",
      "name": "EscrowCollectedAndDistributed",
      "inputs": [
        {
          "name": "escrow",
          "type": "bytes32",
          "indexed": true,
          "internalType": "bytes32"
        },
        {
          "name": "fulfillment",
          "type": "bytes32",
          "indexed": true,
          "internalType": "bytes32"
        },
        {
          "name": "fulfiller",
          "type": "address",
          "indexed": true,
          "internalType": "address"
        },
        {
          "name": "splits",
          "type": "tuple[]",
          "indexed": false,
          "internalType": "struct NativeTokenSplitter.Split[]",
          "components": [
            {
              "name": "recipient",
              "type": "address",
              "internalType": "address"
            },
            {
              "name": "amount",
              "type": "uint256",
              "internalType": "uint256"
            }
          ]
        }
      ],
      "anonymous": false
    },
    {
      "type": "event",
      "name": "FulfillmentCreated",
      "inputs": [
        {
          "name": "fulfillmentUid",
          "type": "bytes32",
          "indexed": true,
          "internalType": "bytes32"
        },
        {
          "name": "fulfiller",
          "type": "address",
          "indexed": true,
          "internalType": "address"
        },
        {
          "name": "obligationContract",
          "type": "address",
          "indexed": true,
          "internalType": "address"
        }
      ],
      "anonymous": false
    },
    {
      "type": "event",
      "name": "NativeTransferFailedOnDistribute",
      "inputs": [
        {
          "name": "recipient",
          "type": "address",
          "indexed": true,
          "internalType": "address"
        },
        {
          "name": "amount",
          "type": "uint256",
          "indexed": false,
          "internalType": "uint256"
        }
      ],
      "anonymous": false
    },
    {
      "type": "error",
      "name": "AttestationRevoked",
      "inputs": []
    },
    {
      "type": "error",
      "name": "DeadlineExpired",
      "inputs": []
    },
    {
      "type": "error",
      "name": "EmptySplits",
      "inputs": []
    },
    {
      "type": "error",
      "name": "FulfillerAlreadyRecorded",
      "inputs": [
        {
          "name": "fulfillment",
          "type": "bytes32",
          "internalType": "bytes32"
        }
      ]
    },
    {
      "type": "error",
      "name": "InvalidAttestationUid",
      "inputs": []
    },
    {
      "type": "error",
      "name": "InvalidCollectedAmount",
      "inputs": [
        {
          "name": "expected",
          "type": "uint256",
          "internalType": "uint256"
        },
        {
          "name": "actual",
          "type": "uint256",
          "internalType": "uint256"
        }
      ]
    },
    {
      "type": "error",
      "name": "InvalidCreatedFulfillment",
      "inputs": [
        {
          "name": "fulfillment",
          "type": "bytes32",
          "internalType": "bytes32"
        }
      ]
    },
    {
      "type": "error",
      "name": "InvalidEscrowAttestation",
      "inputs": []
    },
    {
      "type": "error",
      "name": "InvalidFulfillmentRecipient",
      "inputs": []
    },
    {
      "type": "error",
      "name": "InvalidFulfillmentUid",
      "inputs": []
    },
    {
      "type": "error",
      "name": "InvalidSplits",
      "inputs": [
        {
          "name": "totalExpected",
          "type": "uint256",
          "internalType": "uint256"
        },
        {
          "name": "totalProvided",
          "type": "uint256",
          "internalType": "uint256"
        }
      ]
    },
    {
      "type": "error",
      "name": "NativeTokenRefundFailed",
      "inputs": [
        {
          "name": "to",
          "type": "address",
          "internalType": "address"
        },
        {
          "name": "amount",
          "type": "uint256",
          "internalType": "uint256"
        }
      ]
    },
    {
      "type": "error",
      "name": "NativeTokenTransferFailed",
      "inputs": [
        {
          "name": "to",
          "type": "address",
          "internalType": "address"
        },
        {
          "name": "amount",
          "type": "uint256",
          "internalType": "uint256"
        }
      ]
    },
    {
      "type": "error",
      "name": "NoFulfillerRecorded",
      "inputs": [
        {
          "name": "fulfillment",
          "type": "bytes32",
          "internalType": "bytes32"
        }
      ]
    },
    {
      "type": "error",
      "name": "ReentrancyGuardReentrantCall",
      "inputs": []
    },
    {
      "type": "error",
      "name": "TooManySplits",
      "inputs": [
        {
          "name": "provided",
          "type": "uint256",
          "internalType": "uint256"
        },
        {
          "name": "max",
          "type": "uint256",
          "internalType": "uint256"
        }
      ]
    },
    {
      "type": "error",
      "name": "UnauthorizedArbitrationRequest",
      "inputs": []
    }
  ],
  "bytecode": {
    "object": "0x608034609357601f61178738819003918201601f19168301916001600160401b03831184841017609757808492602094604052833981010312609357516001600160a01b0381169081900360935760017f9b779b17422d0df92223018b32b4d1fa46e071723d6817e2486d003becc55f00555f80546001600160a01b0319169190911790556040516116db90816100ac8239f35b5f80fd5b634e487b7160e01b5f52604160045260245ffdfe608080604052600436101561001c575b50361561001a575f80fd5b005b5f3560e01c9081632257c0e314610d24575080634e2d3b1214610cf25780635123666d146109ae57806373e0d48f146108c05780638150864d14610899578063838a68d9146107bd57806386314b0d1461069d578063a1a8048814610654578063b48210ca14610639578063c1dd2c6e14610535578063c880c06f14610519578063e6c9714d1461039b5763ed7180e3146100b7575f61000f565b608036600319011261038f576100cb610dee565b6024356001600160401b03811161038f576100ea903690600401610e90565b916044356001600160401b03811680910361038f576064359361010b611254565b6101153447611247565b604051632cee40b560e21b81526060600482015260648101839052956001600160a01b03909416949093828260848901375f60848489010152836024880152806044880152602087608481601f19601f8801168101030181348a5af1968715610349575f97610363575b508615610354575f80546040516328c44a9960e21b8152600481018a9052929190839060249082906001600160a01b03165afa918215610349575f92610325575b50878251149485159561030d575b85156102f5575b85156102dd575b5084156102ce575b5083156102a3575b505050610290575f838152600360205260409020546001600160a01b031661027d575f83815260036020908152604090912080546001600160a01b0319163390811790915590939161023e9190611634565b6040519133827ff845579b2e96200541b4e2b438fbb65e772b70ac68265030aa16f6d8e16501d95f80a460015f5160206116865f395f51905f52558152f35b8263aa8904b160e01b5f5260045260245ffd5b8263f9d7a76560e01b5f5260045260245ffd5b6102bd929350610120015160208151910120923691610f54565b6020815191012014155f80806101ec565b60a0820151141593505f6101e4565b60608301516001600160401b0316141594505f6101dc565b60c08301516001600160a01b031630141595506101d5565b60e08301516001600160a01b031688141595506101ce565b6103429192503d805f833e61033a8183610f18565b810190611037565b905f6101c0565b6040513d5f823e3d90fd5b6303acddcd60e41b5f5260045ffd5b9096506020813d602011610393575b8161037f60209383610f18565b8101031261038f5751955f61017f565b5f80fd5b3d9150610372565b3461038f57606036600319011261038f576004356001600160401b03811161038f57610140600319823603011261038f57604051906103d982610efc565b80600401358252602481013560208301526103f660448201610fa8565b604083015261040760648201610fa8565b606083015261041860848201610fa8565b608083015260a481013560a083015261043360c48201610e04565b60c083015261044460e48201610e04565b60e0830152610104810135801515810361038f57610100830152610124810135906001600160401b03821161038f5760046104829236920101610f8a565b6101208201526024356001600160401b03811161038f576104a7903690600401610f8a565b6104b082611610565b80516001600160a01b03916104cd918101602090810191016111e4565b51165f52600260205260405f209051604051602081019182526044356040820152604081526104fd606082610f18565b5190205f52602052602060ff60405f2054166040519015158152f35b3461038f575f36600319011261038f57602060405161eeee8152f35b3461038f5761055861054636610e18565b8181949293610553611254565b61128c565b5f838152600360205260408120549193916001600160a01b0316905b84518110156105f0576001600160a01b0361059d838583610595868b6111a1565b5151166115cf565b165f80808060206105ae878c6111a1565b510151855af16105bc6111b5565b50156105cb5750600101610574565b60206105d783886111a1565b510151906338f0620160e21b5f5260045260245260445ffd5b50917fc7918d6463b26dbfeb2ac95f43cbdd4fe5d152c0b6551bc1e9922bd1b1ac32876106238560405191829182610e42565b0390a460015f5160206116865f395f51905f5255005b3461038f575f36600319011261038f57602060405160328152f35b3461038f57604036600319011261038f576001600160a01b03610675610dee565b165f52600260205260405f206024355f52602052602060ff60405f2054166040519015158152f35b3461038f57608036600319011261038f576044356001600160a01b038116906024359082900361038f576064356001600160401b03811161038f576106e6903690600401610f8a565b5f80546040516328c44a9960e21b8152600481018590529190829060249082906001600160a01b03165afa908115610349575f916107a3575b5060e08101516001600160a01b0316331415908161078b575b5061077c577f8c71f7964ccbceaff13fb1c085cf7491115c2bed4a6aca02c6c6208f08609b826040516020815280610777600435946020830190610ebd565b0390a4005b63ff323ecb60e01b5f5260045ffd5b60c001516001600160a01b0316331415905084610738565b6107b791503d805f833e61033a8183610f18565b8461071f565b3461038f57602036600319011261038f576004356001600160401b03811161038f576107ed903690600401610e90565b606060206040516107fd81610ee1565b5f8152015281019060208183031261038f578035906001600160401b03821161038f570160408183031261038f576040519161083883610ee1565b61084182610e04565b835260208201356001600160401b03811161038f576108609201610f8a565b90602081019182526108956040519283926020845260018060a01b039051166020840152516040808401526060830190610ebd565b0390f35b3461038f575f36600319011261038f575f546040516001600160a01b039091168152602090f35b3461038f576108d161054636610e18565b5f838152600360205260408120546001600160a01b031693905b825181101561097a576001906001600160a01b0361090f878583610595868a6111a1565b165f8080806020610920878b6111a1565b510151855af161092e6111b5565b501561093c575b50016108eb565b7f49883307846eabe1e4a9b4d7e3378305c6115c7df65c270a47f9f9cfe3ab69ad60208061096a85896111a1565b510151604051908152a286610935565b5091906106237fc7918d6463b26dbfeb2ac95f43cbdd4fe5d152c0b6551bc1e9922bd1b1ac32879160405191829182610e42565b3461038f57606036600319011261038f576044356024356004356001600160401b03831161038f573660238401121561038f578260040135906001600160401b03821161038f576024840193602436918460061b01011161038f578015610354575f80546040516328c44a9960e21b8152600481018690529190829060249082906001600160a01b03165afa90811561034957610a6291610120915f91610cd8575b50015160208082518301019101611112565b8215610cc95760328311610cb1575f905f5b848110610c8f575060400151808203610c7a5750506040516020810191825283604082015260408152610aa8606082610f18565b51902090335f52600160205260405f20825f5260205260405f208054905f815581610c2f575b50505f5b818110610b755750335f52600260205260405f20825f5260205260405f20600160ff1982541617905560405190806020830160208452526040820194905f5b818110610b4557505050807fcb69e0d2c25bc3247c37f1a1b54a09e56f58301351ae8eeb49fb9750045ba7409133950390a4005b909195604080600192838060a01b03610b5d8b610e04565b16815260208a81013590820152019701929101610b11565b335f52600160205260405f20835f5260205260405f2090610b97818488611191565b9180549068010000000000000000821015610c1b5760018201808255821015610c07575f5260205f209060011b0182359260018060a01b038416840361038f5781546001600160a01b0319166001600160a01b039094169390931781556020929092013560019283015501610ad2565b634e487b7160e01b5f52603260045260245ffd5b634e487b7160e01b5f52604160045260245ffd5b6001600160ff1b0382168203610c66575f5260205f209060011b8101905b81811015610ace575f8082556001820155600201610c4d565b634e487b7160e01b5f52601160045260245ffd5b63ba660bff60e01b5f5260045260245260445ffd5b916020610c9d84878a611191565b01358101809111610c665791600101610a74565b8263b268613560e01b5f52600452603260245260445ffd5b63143160cf60e01b5f5260045ffd5b610cec91503d805f833e61033a8183610f18565b87610a50565b3461038f57602036600319011261038f576004355f526003602052602060018060a01b0360405f205416604051908152f35b3461038f57610d3236610e18565b92909160018060a01b03165f52600160205260405f209260208201928352604082015260408152610d64606082610f18565b5190205f5260205260405f2080546001600160401b038111610c1b5760405191610d9460208360051b0184610f18565b81835260208301905f5260205f205f915b838310610dba57604051806108958782610e42565b60026020600192604051610dcd81610ee1565b848060a01b0386541681528486015483820152815201920192019190610da5565b600435906001600160a01b038216820361038f57565b35906001600160a01b038216820361038f57565b606090600319011261038f576004356001600160a01b038116810361038f57906024359060443590565b60206040818301928281528451809452019201905f5b818110610e655750505090565b825180516001600160a01b031685526020908101518186015260409094019390920191600101610e58565b9181601f8401121561038f578235916001600160401b03831161038f576020838186019501011161038f57565b805180835260209291819084018484015e5f828201840152601f01601f1916010190565b604081019081106001600160401b03821117610c1b57604052565b61014081019081106001600160401b03821117610c1b57604052565b90601f801991011681019081106001600160401b03821117610c1b57604052565b6001600160401b038111610c1b57601f01601f191660200190565b929192610f6082610f39565b91610f6e6040519384610f18565b82948184528183011161038f578281602093845f960137010152565b9080601f8301121561038f57816020610fa593359101610f54565b90565b35906001600160401b038216820361038f57565b51906001600160401b038216820361038f57565b51906001600160a01b038216820361038f57565b5190811515820361038f57565b81601f8201121561038f5780519061100882610f39565b926110166040519485610f18565b8284526020838301011161038f57815f9260208093018386015e8301015290565b60208183031261038f578051906001600160401b03821161038f57016101408183031261038f576040519161106b83610efc565b815183526020820151602084015261108560408301610fbc565b604084015261109660608301610fbc565b60608401526110a760808301610fbc565b608084015260a082015160a08401526110c260c08301610fd0565b60c08401526110d360e08301610fd0565b60e08401526110e56101008301610fe4565b6101008401526101208201516001600160401b03811161038f576111099201610ff1565b61012082015290565b60208183031261038f578051906001600160401b03821161038f57019060608282031261038f5760405191606083018381106001600160401b03821117610c1b5760405261115f81610fd0565b835260208101516001600160401b03811161038f57604092611182918301610ff1565b60208401520151604082015290565b9190811015610c075760061b0190565b8051821015610c075760209160051b010190565b3d156111df573d906111c682610f39565b916111d46040519384610f18565b82523d5f602084013e565b606090565b60208183031261038f578051906001600160401b03821161038f570160408183031261038f576040519161121783610ee1565b61122082610fd0565b835260208201516001600160401b03811161038f5761123f9201610ff1565b602082015290565b91908203918211610c6657565b60025f5160206116865f395f51905f52541461127d5760025f5160206116865f395f51905f5255565b633ee5aeb560e01b5f5260045ffd5b9092919260018060a01b035f54166040516328c44a9960e21b81528260048201525f81602481855afa908115610349575f916115b5575b5060e08101516001600160a01b039485169416841480159061154f575b61154057805115611531576001600160401b036060820151168015159081611526575b50611517576001600160401b03608082015116611508575f602492604051938480926328c44a9960e21b82528a60048301525afa9081156103495761135661012092611367945f916114ee575b50611610565b015160208082518301019101611112565b91602083015161138760018060a01b0391602080825183010191016111e4565b51165f52600160205260405f206040516020810190878252846040820152604081526113b4606082610f18565b5190205f5260205260405f2080546001600160401b038111610c1b57604051916113e460208360051b0184610f18565b81835260208301905f5260205f205f915b8383106114ba575050505060209095604447945f6040519586948593632c713cd960e01b8552600485015260248401525af1801561034957611483575b506040479201519181811061146c579061144b91611247565b90808203611457575050565b631a3dba0360e31b5f5260045260245260445ffd5b82631a3dba0360e31b5f526004525f60245260445ffd5b6020813d6020116114b2575b8161149c60209383610f18565b8101031261038f576114ad90610fe4565b611432565b3d915061148f565b600260206001926040516114cd81610ee1565b848060a01b03865416815284860154838201528152019201920191906113f5565b61150291503d805f833e61033a8183610f18565b5f611350565b637b6227e960e11b5f5260045ffd5b631ab7da6b60e01b5f5260045ffd5b90504210155f611303565b635c2c7f8960e01b5f5260045ffd5b63629cd40b60e11b5f5260045ffd5b50602081810151604051635bf2f20d60e01b81529182600481895afa918215610349575f92611581575b5014156112e0565b9091506020813d6020116115ad575b8161159d60209383610f18565b8101031261038f5751905f611579565b3d9150611590565b6115c991503d805f833e61033a8183610f18565b5f6112c3565b91906001600160a01b03831661eeee146115e857505090565b9091506001600160a01b038216156115fe575090565b6379c5a2db60e01b5f5260045260245ffd5b60c001516001600160a01b0316300361162557565b634672d00f60e01b5f5260045ffd5b4790808211156116805761164791611247565b906001600160a01b03165f80808085855af16116616111b5565b501561166b575050565b632247bb8b60e21b5f5260045260245260445ffd5b50505056fe9b779b17422d0df92223018b32b4d1fa46e071723d6817e2486d003becc55f00a2646970667358221220e9feba4f6b5e0473f5b9826cbde02e69acf31b4e7d7bfd2ed310c54871ec2b7264736f6c634300081b0033",
    "linkReferences": {}
  },
  "methodIdentifiers": {
    "EXECUTOR_SENTINEL()": "c880c06f",
    "MAX_SPLITS()": "b48210ca",
    "arbitrate(bytes32,bytes32,(address,uint256)[])": "5123666d",
    "checkObligation((bytes32,bytes32,uint64,uint64,uint64,bytes32,address,address,bool,bytes),bytes,bytes32)": "e6c9714d",
    "collectAndDistribute(address,bytes32,bytes32)": "c1dd2c6e",
    "createFulfillment(address,bytes,uint64,bytes32)": "ed7180e3",
    "decodeDemandData(bytes)": "838a68d9",
    "eas()": "8150864d",
    "fulfillers(bytes32)": "4e2d3b12",
    "getSplits(address,bytes32,bytes32)": "2257c0e3",
    "hasDecision(address,bytes32)": "a1a80488",
    "requestArbitration(bytes32,bytes32,address,bytes)": "86314b0d",
    "unsafePartiallyCollectAndDistribute(address,bytes32,bytes32)": "73e0d48f"
  },
  "id": 167
}