{
  "abi": [
    {
      "type": "constructor",
      "inputs": [
        {
          "name": "_eas",
          "type": "address",
          "internalType": "contract IEAS"
        }
      ],
      "stateMutability": "nonpayable"
    },
    {
      "type": "receive",
      "stateMutability": "payable"
    },
    {
      "type": "function",
      "name": "EXECUTOR_SENTINEL",
      "inputs": [],
      "outputs": [
        {
          "name": "",
          "type": "address",
          "internalType": "address"
        }
      ],
      "stateMutability": "view"
    },
    {
      "type": "function",
      "name": "MAX_SPLITS",
      "inputs": [],
      "outputs": [
        {
          "name": "",
          "type": "uint256",
          "internalType": "uint256"
        }
      ],
      "stateMutability": "view"
    },
    {
      "type": "function",
      "name": "arbitrate",
      "inputs": [
        {
          "name": "fulfillment",
          "type": "bytes32",
          "internalType": "bytes32"
        },
        {
          "name": "escrow",
          "type": "bytes32",
          "internalType": "bytes32"
        },
        {
          "name": "splits",
          "type": "tuple[]",
          "internalType": "struct NativeTokenSplitter.Split[]",
          "components": [
            {
              "name": "recipient",
              "type": "address",
              "internalType": "address"
            },
            {
              "name": "amount",
              "type": "uint256",
              "internalType": "uint256"
            }
          ]
        }
      ],
      "outputs": [],
      "stateMutability": "nonpayable"
    },
    {
      "type": "function",
      "name": "check",
      "inputs": [
        {
          "name": "fulfillment",
          "type": "tuple",
          "internalType": "struct Attestation",
          "components": [
            {
              "name": "uid",
              "type": "bytes32",
              "internalType": "bytes32"
            },
            {
              "name": "schema",
              "type": "bytes32",
              "internalType": "bytes32"
            },
            {
              "name": "time",
              "type": "uint64",
              "internalType": "uint64"
            },
            {
              "name": "expirationTime",
              "type": "uint64",
              "internalType": "uint64"
            },
            {
              "name": "revocationTime",
              "type": "uint64",
              "internalType": "uint64"
            },
            {
              "name": "refUID",
              "type": "bytes32",
              "internalType": "bytes32"
            },
            {
              "name": "recipient",
              "type": "address",
              "internalType": "address"
            },
            {
              "name": "attester",
              "type": "address",
              "internalType": "address"
            },
            {
              "name": "revocable",
              "type": "bool",
              "internalType": "bool"
            },
            {
              "name": "data",
              "type": "bytes",
              "internalType": "bytes"
            }
          ]
        },
        {
          "name": "demand",
          "type": "bytes",
          "internalType": "bytes"
        },
        {
          "name": "escrow",
          "type": "bytes32",
          "internalType": "bytes32"
        }
      ],
      "outputs": [
        {
          "name": "",
          "type": "bool",
          "internalType": "bool"
        }
      ],
      "stateMutability": "view"
    },
    {
      "type": "function",
      "name": "collectAndDistribute",
      "inputs": [
        {
          "name": "escrowContract",
          "type": "address",
          "internalType": "address"
        },
        {
          "name": "escrow",
          "type": "bytes32",
          "internalType": "bytes32"
        },
        {
          "name": "fulfillment",
          "type": "bytes32",
          "internalType": "bytes32"
        }
      ],
      "outputs": [],
      "stateMutability": "nonpayable"
    },
    {
      "type": "function",
      "name": "createFulfillment",
      "inputs": [
        {
          "name": "obligationContract",
          "type": "address",
          "internalType": "address"
        },
        {
          "name": "data",
          "type": "bytes",
          "internalType": "bytes"
        },
        {
          "name": "expirationTime",
          "type": "uint64",
          "internalType": "uint64"
        },
        {
          "name": "refUID",
          "type": "bytes32",
          "internalType": "bytes32"
        }
      ],
      "outputs": [
        {
          "name": "fulfillmentUid",
          "type": "bytes32",
          "internalType": "bytes32"
        }
      ],
      "stateMutability": "payable"
    },
    {
      "type": "function",
      "name": "decodeDemandData",
      "inputs": [
        {
          "name": "data",
          "type": "bytes",
          "internalType": "bytes"
        }
      ],
      "outputs": [
        {
          "name": "",
          "type": "tuple",
          "internalType": "struct NativeTokenSplitter.DemandData",
          "components": [
            {
              "name": "oracle",
              "type": "address",
              "internalType": "address"
            },
            {
              "name": "data",
              "type": "bytes",
              "internalType": "bytes"
            }
          ]
        }
      ],
      "stateMutability": "pure"
    },
    {
      "type": "function",
      "name": "eas",
      "inputs": [],
      "outputs": [
        {
          "name": "",
          "type": "address",
          "internalType": "contract IEAS"
        }
      ],
      "stateMutability": "view"
    },
    {
      "type": "function",
      "name": "fulfillers",
      "inputs": [
        {
          "name": "",
          "type": "bytes32",
          "internalType": "bytes32"
        }
      ],
      "outputs": [
        {
          "name": "",
          "type": "address",
          "internalType": "address"
        }
      ],
      "stateMutability": "view"
    },
    {
      "type": "function",
      "name": "getSplits",
      "inputs": [
        {
          "name": "oracle",
          "type": "address",
          "internalType": "address"
        },
        {
          "name": "fulfillment",
          "type": "bytes32",
          "internalType": "bytes32"
        },
        {
          "name": "escrow",
          "type": "bytes32",
          "internalType": "bytes32"
        }
      ],
      "outputs": [
        {
          "name": "",
          "type": "tuple[]",
          "internalType": "struct NativeTokenSplitter.Split[]",
          "components": [
            {
              "name": "recipient",
              "type": "address",
              "internalType": "address"
            },
            {
              "name": "amount",
              "type": "uint256",
              "internalType": "uint256"
            }
          ]
        }
      ],
      "stateMutability": "view"
    },
    {
      "type": "function",
      "name": "hasDecision",
      "inputs": [
        {
          "name": "",
          "type": "address",
          "internalType": "address"
        },
        {
          "name": "",
          "type": "bytes32",
          "internalType": "bytes32"
        }
      ],
      "outputs": [
        {
          "name": "",
          "type": "bool",
          "internalType": "bool"
        }
      ],
      "stateMutability": "view"
    },
    {
      "type": "function",
      "name": "requestArbitration",
      "inputs": [
        {
          "name": "_fulfillment",
          "type": "bytes32",
          "internalType": "bytes32"
        },
        {
          "name": "_escrow",
          "type": "bytes32",
          "internalType": "bytes32"
        },
        {
          "name": "oracle",
          "type": "address",
          "internalType": "address"
        },
        {
          "name": "demand",
          "type": "bytes",
          "internalType": "bytes"
        }
      ],
      "outputs": [],
      "stateMutability": "nonpayable"
    },
    {
      "type": "function",
      "name": "supportsInterface",
      "inputs": [
        {
          "name": "interfaceId",
          "type": "bytes4",
          "internalType": "bytes4"
        }
      ],
      "outputs": [
        {
          "name": "",
          "type": "bool",
          "internalType": "bool"
        }
      ],
      "stateMutability": "view"
    },
    {
      "type": "function",
      "name": "unsafePartiallyCollectAndDistribute",
      "inputs": [
        {
          "name": "escrowContract",
          "type": "address",
          "internalType": "address"
        },
        {
          "name": "escrow",
          "type": "bytes32",
          "internalType": "bytes32"
        },
        {
          "name": "fulfillment",
          "type": "bytes32",
          "internalType": "bytes32"
        }
      ],
      "outputs": [],
      "stateMutability": "nonpayable"
    },
    {
      "type": "event",
      "name": "ArbitrationMade",
      "inputs": [
        {
          "name": "decisionKey",
          "type": "bytes32",
          "indexed": true,
          "internalType": "bytes32"
        },
        {
          "name": "fulfillmentUid",
          "type": "bytes32",
          "indexed": true,
          "internalType": "bytes32"
        },
        {
          "name": "oracle",
          "type": "address",
          "indexed": true,
          "internalType": "address"
        },
        {
          "name": "splits",
          "type": "tuple[]",
          "indexed": false,
          "internalType": "struct NativeTokenSplitter.Split[]",
          "components": [
            {
              "name": "recipient",
              "type": "address",
              "internalType": "address"
            },
            {
              "name": "amount",
              "type": "uint256",
              "internalType": "uint256"
            }
          ]
        }
      ],
      "anonymous": false
    },
    {
      "type": "event",
      "name": "ArbitrationRequested",
      "inputs": [
        {
          "name": "fulfillment",
          "type": "bytes32",
          "indexed": true,
          "internalType": "bytes32"
        },
        {
          "name": "escrow",
          "type": "bytes32",
          "indexed": true,
          "internalType": "bytes32"
        },
        {
          "name": "oracle",
          "type": "address",
          "indexed": true,
          "internalType": "address"
        },
        {
          "name": "demand",
          "type": "bytes",
          "indexed": false,
          "internalType": "bytes"
        }
      ],
      "anonymous": false
    },
    {
      "type": "event",
      "name": "EscrowCollectedAndDistributed",
      "inputs": [
        {
          "name": "escrowUid",
          "type": "bytes32",
          "indexed": true,
          "internalType": "bytes32"
        },
        {
          "name": "fulfillmentUid",
          "type": "bytes32",
          "indexed": true,
          "internalType": "bytes32"
        },
        {
          "name": "fulfiller",
          "type": "address",
          "indexed": true,
          "internalType": "address"
        },
        {
          "name": "splits",
          "type": "tuple[]",
          "indexed": false,
          "internalType": "struct NativeTokenSplitter.Split[]",
          "components": [
            {
              "name": "recipient",
              "type": "address",
              "internalType": "address"
            },
            {
              "name": "amount",
              "type": "uint256",
              "internalType": "uint256"
            }
          ]
        }
      ],
      "anonymous": false
    },
    {
      "type": "event",
      "name": "FulfillmentCreated",
      "inputs": [
        {
          "name": "fulfillmentUid",
          "type": "bytes32",
          "indexed": true,
          "internalType": "bytes32"
        },
        {
          "name": "fulfiller",
          "type": "address",
          "indexed": true,
          "internalType": "address"
        },
        {
          "name": "obligationContract",
          "type": "address",
          "indexed": true,
          "internalType": "address"
        }
      ],
      "anonymous": false
    },
    {
      "type": "event",
      "name": "NativeTransferFailedOnDistribute",
      "inputs": [
        {
          "name": "recipient",
          "type": "address",
          "indexed": true,
          "internalType": "address"
        },
        {
          "name": "amount",
          "type": "uint256",
          "indexed": false,
          "internalType": "uint256"
        }
      ],
      "anonymous": false
    },
    {
      "type": "error",
      "name": "AttestationRevoked",
      "inputs": []
    },
    {
      "type": "error",
      "name": "DeadlineExpired",
      "inputs": []
    },
    {
      "type": "error",
      "name": "EmptySplits",
      "inputs": []
    },
    {
      "type": "error",
      "name": "FulfillerAlreadyRecorded",
      "inputs": [
        {
          "name": "fulfillment",
          "type": "bytes32",
          "internalType": "bytes32"
        }
      ]
    },
    {
      "type": "error",
      "name": "InvalidAttestationUid",
      "inputs": []
    },
    {
      "type": "error",
      "name": "InvalidCollectedAmount",
      "inputs": [
        {
          "name": "expected",
          "type": "uint256",
          "internalType": "uint256"
        },
        {
          "name": "actual",
          "type": "uint256",
          "internalType": "uint256"
        }
      ]
    },
    {
      "type": "error",
      "name": "InvalidCreatedFulfillment",
      "inputs": [
        {
          "name": "fulfillment",
          "type": "bytes32",
          "internalType": "bytes32"
        }
      ]
    },
    {
      "type": "error",
      "name": "InvalidEscrowAttestation",
      "inputs": []
    },
    {
      "type": "error",
      "name": "InvalidFulfillmentRecipient",
      "inputs": []
    },
    {
      "type": "error",
      "name": "InvalidFulfillmentUid",
      "inputs": []
    },
    {
      "type": "error",
      "name": "InvalidSplits",
      "inputs": [
        {
          "name": "totalExpected",
          "type": "uint256",
          "internalType": "uint256"
        },
        {
          "name": "totalProvided",
          "type": "uint256",
          "internalType": "uint256"
        }
      ]
    },
    {
      "type": "error",
      "name": "NativeTokenRefundFailed",
      "inputs": [
        {
          "name": "recipient",
          "type": "address",
          "internalType": "address"
        },
        {
          "name": "amount",
          "type": "uint256",
          "internalType": "uint256"
        }
      ]
    },
    {
      "type": "error",
      "name": "NativeTokenTransferFailed",
      "inputs": [
        {
          "name": "to",
          "type": "address",
          "internalType": "address"
        },
        {
          "name": "amount",
          "type": "uint256",
          "internalType": "uint256"
        }
      ]
    },
    {
      "type": "error",
      "name": "NoFulfillerRecorded",
      "inputs": [
        {
          "name": "fulfillment",
          "type": "bytes32",
          "internalType": "bytes32"
        }
      ]
    },
    {
      "type": "error",
      "name": "ReentrancyGuardReentrantCall",
      "inputs": []
    },
    {
      "type": "error",
      "name": "TooManySplits",
      "inputs": [
        {
          "name": "provided",
          "type": "uint256",
          "internalType": "uint256"
        },
        {
          "name": "max",
          "type": "uint256",
          "internalType": "uint256"
        }
      ]
    },
    {
      "type": "error",
      "name": "UnauthorizedArbitrationRequest",
      "inputs": []
    }
  ],
  "bytecode": {
    "object": "0x608034609357601f6117a638819003918201601f19168301916001600160401b03831184841017609757808492602094604052833981010312609357516001600160a01b0381169081900360935760017f9b779b17422d0df92223018b32b4d1fa46e071723d6817e2486d003becc55f00555f80546001600160a01b0319169190911790556040516116fa90816100ac8239f35b5f80fd5b634e487b7160e01b5f52604160045260245ffdfe608080604052600436101561001c575b50361561001a575f80fd5b005b5f3560e01c90816301ffc9a714610db6575080632257c0e314610cfe5780634e2d3b1214610ccc5780635123666d146109a157806373e0d48f146108b35780638150864d1461088c578063838a68d9146107b057806386314b0d146106905780638da3721a1461052a578063a1a80488146104e1578063b48210ca146104c6578063c1dd2c6e146103c2578063c880c06f146103a65763ed7180e3146100c2575f61000f565b608036600319011261039a576100d6610e09565b6024356001600160401b03811161039a576100f5903690600401610eab565b916044356001600160401b03811680910361039a576064359361011661128a565b6101203447611247565b604051632cee40b560e21b81526060600482015260648101839052956001600160a01b03909416949093828260848901375f60848489010152836024880152806044880152602087608481601f19601f8801168101030181348a5af1968715610354575f9761036e575b50861561035f575f80546040516328c44a9960e21b8152600481018a9052929190839060249082906001600160a01b03165afa918215610354575f92610330575b508782511494851595610318575b8515610300575b85156102e8575b5084156102d9575b5083156102ae575b50505061029b575f838152600260205260409020546001600160a01b0316610288575f83815260026020908152604090912080546001600160a01b031916339081179091559093916102499190611653565b6040519133827ff845579b2e96200541b4e2b438fbb65e772b70ac68265030aa16f6d8e16501d95f80a460015f5160206116a55f395f51905f52558152f35b8263aa8904b160e01b5f5260045260245ffd5b8263f9d7a76560e01b5f5260045260245ffd5b6102c8929350610120015160208151910120923691610f6f565b6020815191012014155f80806101f7565b60a0820151141593505f6101ef565b60608301516001600160401b0316141594505f6101e7565b60c08301516001600160a01b031630141595506101e0565b60e08301516001600160a01b031688141595506101d9565b61034d9192503d805f833e6103458183610f33565b810190611045565b905f6101cb565b6040513d5f823e3d90fd5b6303acddcd60e41b5f5260045ffd5b9096506020813d60201161039e575b8161038a60209383610f33565b8101031261039a5751955f61018a565b5f80fd5b3d915061037d565b3461039a575f36600319011261039a57602060405161eeee8152f35b3461039a576103e56103d336610e33565b81819492936103e061128a565b6112c2565b5f838152600260205260408120549193916001600160a01b0316905b845181101561047d576001600160a01b0361042a838583610422868b6111a1565b5151166115ee565b165f808080602061043b878c6111a1565b510151855af16104496111b5565b50156104585750600101610401565b602061046483886111a1565b510151906338f0620160e21b5f5260045260245260445ffd5b50917fc7918d6463b26dbfeb2ac95f43cbdd4fe5d152c0b6551bc1e9922bd1b1ac32876104b08560405191829182610e5d565b0390a460015f5160206116a55f395f51905f5255005b3461039a575f36600319011261039a57602060405160328152f35b3461039a57604036600319011261039a576001600160a01b03610502610e09565b165f52600160205260405f206024355f52602052602060ff60405f2054166040519015158152f35b3461039a57606036600319011261039a576004356001600160401b03811161039a57610140600319823603011261039a576040519061056882610f17565b806004013582526024810135602083015261058560448201610fc3565b604083015261059660648201610fc3565b60608301526105a760848201610fc3565b608083015260a481013560a08301526105c260c48201610e1f565b60c08301526105d360e48201610e1f565b60e0830152610104810135801515810361039a57610100830152610124810135906001600160401b03821161039a5760046106119236920101610fa5565b6101208201526024356001600160401b03811161039a57610636903690600401610fa5565b61063f8261162f565b80516001600160a01b039161065c918101602090810191016111e4565b51165f52600160205261067760405f20916044359051611254565b5f52602052602060ff60405f2054166040519015158152f35b3461039a57608036600319011261039a576044356001600160a01b038116906024359082900361039a576064356001600160401b03811161039a576106d9903690600401610fa5565b5f80546040516328c44a9960e21b8152600481018590529190829060249082906001600160a01b03165afa908115610354575f91610796575b5060e08101516001600160a01b0316331415908161077e575b5061076f577f8c71f7964ccbceaff13fb1c085cf7491115c2bed4a6aca02c6c6208f08609b82604051602081528061076a600435946020830190610ed8565b0390a4005b63ff323ecb60e01b5f5260045ffd5b60c001516001600160a01b031633141590508461072b565b6107aa91503d805f833e6103458183610f33565b84610712565b3461039a57602036600319011261039a576004356001600160401b03811161039a576107e0903690600401610eab565b606060206040516107f081610efc565b5f8152015281019060208183031261039a578035906001600160401b03821161039a570160408183031261039a576040519161082b83610efc565b61083482610e1f565b835260208201356001600160401b03811161039a576108539201610fa5565b90602081019182526108886040519283926020845260018060a01b039051166020840152516040808401526060830190610ed8565b0390f35b3461039a575f36600319011261039a575f546040516001600160a01b039091168152602090f35b3461039a576108c46103d336610e33565b5f838152600260205260408120546001600160a01b031693905b825181101561096d576001906001600160a01b03610902878583610422868a6111a1565b165f8080806020610913878b6111a1565b510151855af16109216111b5565b501561092f575b50016108de565b7f49883307846eabe1e4a9b4d7e3378305c6115c7df65c270a47f9f9cfe3ab69ad60208061095d85896111a1565b510151604051908152a286610928565b5091906104b07fc7918d6463b26dbfeb2ac95f43cbdd4fe5d152c0b6551bc1e9922bd1b1ac32879160405191829182610e5d565b3461039a57606036600319011261039a576044356024356004356001600160401b03831161039a573660238401121561039a578260040135906001600160401b03821161039a576024840193602436918460061b01011161039a57801561035f575f80546040516328c44a9960e21b8152600481018690529190829060249082906001600160a01b03165afa801561035457610120610a56916040935f91610cb2575b50015160208082518301019101611122565b01518215610ca35760328311610c8b575f905f5b848110610c695750808203610c5457505082610a8591611254565b90335f52600360205260405f20825f5260205260405f208054905f815581610c09575b50505f5b818110610b4f5750335f52600160205260405f20825f5260205260405f20600160ff1982541617905560405190806020830160208452526040820194905f5b818110610b1f57505050807fcb69e0d2c25bc3247c37f1a1b54a09e56f58301351ae8eeb49fb9750045ba7409133950390a4005b909195604080600192838060a01b03610b378b610e1f565b16815260208a81013590820152019701929101610aeb565b335f52600360205260405f20835f5260205260405f2090610b7181848861127a565b9180549068010000000000000000821015610bf55760018201808255821015610be1575f5260205f209060011b0182359260018060a01b038416840361039a5781546001600160a01b0319166001600160a01b039094169390931781556020929092013560019283015501610aac565b634e487b7160e01b5f52603260045260245ffd5b634e487b7160e01b5f52604160045260245ffd5b6001600160ff1b0382168203610c40575f5260205f209060011b8101905b81811015610aa8575f8082556001820155600201610c27565b634e487b7160e01b5f52601160045260245ffd5b63ba660bff60e01b5f5260045260245260445ffd5b916020610c7784878a61127a565b01358101809111610c405791600101610a6a565b8263b268613560e01b5f52600452603260245260445ffd5b63143160cf60e01b5f5260045ffd5b610cc691503d805f833e6103458183610f33565b88610a44565b3461039a57602036600319011261039a576004355f526002602052602060018060a01b0360405f205416604051908152f35b3461039a57610d2f610d0f36610e33565b6001600160a01b039092165f908152600360205260409020929190611254565b5f5260205260405f2080546001600160401b038111610bf55760405191610d5c60208360051b0184610f33565b81835260208301905f5260205f205f915b838310610d8257604051806108888782610e5d565b60026020600192604051610d9581610efc565b848060a01b0386541681528486015483820152815201920192019190610d6d565b3461039a57602036600319011261039a576004359063ffffffff60e01b821680920361039a576020916346d1b90d60e11b8114908115610df8575b5015158152f35b6301ffc9a760e01b14905083610df1565b600435906001600160a01b038216820361039a57565b35906001600160a01b038216820361039a57565b606090600319011261039a576004356001600160a01b038116810361039a57906024359060443590565b60206040818301928281528451809452019201905f5b818110610e805750505090565b825180516001600160a01b031685526020908101518186015260409094019390920191600101610e73565b9181601f8401121561039a578235916001600160401b03831161039a576020838186019501011161039a57565b805180835260209291819084018484015e5f828201840152601f01601f1916010190565b604081019081106001600160401b03821117610bf557604052565b61014081019081106001600160401b03821117610bf557604052565b90601f801991011681019081106001600160401b03821117610bf557604052565b6001600160401b038111610bf557601f01601f191660200190565b929192610f7b82610f54565b91610f896040519384610f33565b82948184528183011161039a578281602093845f960137010152565b9080601f8301121561039a57816020610fc093359101610f6f565b90565b35906001600160401b038216820361039a57565b51906001600160401b038216820361039a57565b51906001600160a01b038216820361039a57565b81601f8201121561039a5780519061101682610f54565b926110246040519485610f33565b8284526020838301011161039a57815f9260208093018386015e8301015290565b60208183031261039a578051906001600160401b03821161039a57016101408183031261039a576040519161107983610f17565b815183526020820151602084015261109360408301610fd7565b60408401526110a460608301610fd7565b60608401526110b560808301610fd7565b608084015260a082015160a08401526110d060c08301610feb565b60c08401526110e160e08301610feb565b60e0840152610100820151801515810361039a576101008401526101208201516001600160401b03811161039a576111199201610fff565b61012082015290565b60208183031261039a578051906001600160401b03821161039a57019060608282031261039a5760405191606083018381106001600160401b03821117610bf55760405261116f81610feb565b835260208101516001600160401b03811161039a57604092611192918301610fff565b60208401520151604082015290565b8051821015610be15760209160051b010190565b3d156111df573d906111c682610f54565b916111d46040519384610f33565b82523d5f602084013e565b606090565b60208183031261039a578051906001600160401b03821161039a570160408183031261039a576040519161121783610efc565b61122082610feb565b835260208201516001600160401b03811161039a5761123f9201610fff565b602082015290565b91908203918211610c4057565b906040519060208201928352604082015260408152611274606082610f33565b51902090565b9190811015610be15760061b0190565b60025f5160206116a55f395f51905f5254146112b35760025f5160206116a55f395f51905f5255565b633ee5aeb560e01b5f5260045ffd5b9092919260018060a01b035f54166040516328c44a9960e21b81528260048201525f81602481855afa908115610354575f916115d4575b5060e08101516001600160a01b039485169416841480159061156e575b61155f57805115611550576001600160401b036060820151168015159081611545575b50611536576001600160401b03608082015116611527575f602492604051938480926328c44a9960e21b82528a60048301525afa9081156103545761138c6101209261139d945f9161150d575b5061162f565b015160208082518301019101611122565b9160208301516113bd60018060a01b0391602080825183010191016111e4565b51165f52600360205260405f206113d48387611254565b5f5260205260405f2080546001600160401b038111610bf5576040519161140160208360051b0184610f33565b81835260208301905f5260205f205f915b8383106114d957505050505f909560444794836040519586948593633a9bb12760e21b8552600485015260248401525af180156103545761149f575b5060404792015191818110611488579061146791611247565b90808203611473575050565b631a3dba0360e31b5f5260045260245260445ffd5b82631a3dba0360e31b5f526004525f60245260445ffd5b3d805f833e6114ae8183610f33565b810160208282031261039a5781516001600160401b03811161039a576114d49201610fff565b61144e565b600260206001926040516114ec81610efc565b848060a01b0386541681528486015483820152815201920192019190611412565b61152191503d805f833e6103458183610f33565b5f611386565b637b6227e960e11b5f5260045ffd5b631ab7da6b60e01b5f5260045ffd5b90504210155f611339565b635c2c7f8960e01b5f5260045ffd5b63629cd40b60e11b5f5260045ffd5b50602081810151604051635bf2f20d60e01b81529182600481895afa918215610354575f926115a0575b501415611316565b9091506020813d6020116115cc575b816115bc60209383610f33565b8101031261039a5751905f611598565b3d91506115af565b6115e891503d805f833e6103458183610f33565b5f6112f9565b91906001600160a01b03831661eeee1461160757505090565b9091506001600160a01b0382161561161d575090565b6379c5a2db60e01b5f5260045260245ffd5b60c001516001600160a01b0316300361164457565b634672d00f60e01b5f5260045ffd5b47908082111561169f5761166691611247565b906001600160a01b03165f80808085855af16116806111b5565b501561168a575050565b632247bb8b60e21b5f5260045260245260445ffd5b50505056fe9b779b17422d0df92223018b32b4d1fa46e071723d6817e2486d003becc55f00a264697066735822122089ccbec78cc92233acb4c1443de97ab772b774b5f790c6bdf162b0de2127c02364736f6c634300081b0033",
    "linkReferences": {}
  },
  "methodIdentifiers": {
    "EXECUTOR_SENTINEL()": "c880c06f",
    "MAX_SPLITS()": "b48210ca",
    "arbitrate(bytes32,bytes32,(address,uint256)[])": "5123666d",
    "check((bytes32,bytes32,uint64,uint64,uint64,bytes32,address,address,bool,bytes),bytes,bytes32)": "8da3721a",
    "collectAndDistribute(address,bytes32,bytes32)": "c1dd2c6e",
    "createFulfillment(address,bytes,uint64,bytes32)": "ed7180e3",
    "decodeDemandData(bytes)": "838a68d9",
    "eas()": "8150864d",
    "fulfillers(bytes32)": "4e2d3b12",
    "getSplits(address,bytes32,bytes32)": "2257c0e3",
    "hasDecision(address,bytes32)": "a1a80488",
    "requestArbitration(bytes32,bytes32,address,bytes)": "86314b0d",
    "supportsInterface(bytes4)": "01ffc9a7",
    "unsafePartiallyCollectAndDistribute(address,bytes32,bytes32)": "73e0d48f"
  },
  "id": 163
}