{
  "abi": [
    {
      "type": "constructor",
      "inputs": [
        {
          "name": "_eas",
          "type": "address",
          "internalType": "contract IEAS"
        }
      ],
      "stateMutability": "nonpayable"
    },
    {
      "type": "receive",
      "stateMutability": "payable"
    },
    {
      "type": "function",
      "name": "EXECUTOR_SENTINEL",
      "inputs": [],
      "outputs": [
        {
          "name": "",
          "type": "address",
          "internalType": "address"
        }
      ],
      "stateMutability": "view"
    },
    {
      "type": "function",
      "name": "MAX_SPLITS",
      "inputs": [],
      "outputs": [
        {
          "name": "",
          "type": "uint256",
          "internalType": "uint256"
        }
      ],
      "stateMutability": "view"
    },
    {
      "type": "function",
      "name": "arbitrate",
      "inputs": [
        {
          "name": "fulfillment",
          "type": "bytes32",
          "internalType": "bytes32"
        },
        {
          "name": "escrow",
          "type": "bytes32",
          "internalType": "bytes32"
        },
        {
          "name": "splits",
          "type": "tuple[]",
          "internalType": "struct TokenBundleSplitterBase.BundleSplit[]",
          "components": [
            {
              "name": "recipient",
              "type": "address",
              "internalType": "address"
            },
            {
              "name": "nativeAmount",
              "type": "uint256",
              "internalType": "uint256"
            },
            {
              "name": "erc20Amounts",
              "type": "uint256[]",
              "internalType": "uint256[]"
            },
            {
              "name": "erc721Indices",
              "type": "uint256[]",
              "internalType": "uint256[]"
            },
            {
              "name": "erc1155Amounts",
              "type": "uint256[]",
              "internalType": "uint256[]"
            }
          ]
        }
      ],
      "outputs": [],
      "stateMutability": "nonpayable"
    },
    {
      "type": "function",
      "name": "checkObligation",
      "inputs": [
        {
          "name": "fulfillment",
          "type": "tuple",
          "internalType": "struct Attestation",
          "components": [
            {
              "name": "uid",
              "type": "bytes32",
              "internalType": "bytes32"
            },
            {
              "name": "schema",
              "type": "bytes32",
              "internalType": "bytes32"
            },
            {
              "name": "time",
              "type": "uint64",
              "internalType": "uint64"
            },
            {
              "name": "expirationTime",
              "type": "uint64",
              "internalType": "uint64"
            },
            {
              "name": "revocationTime",
              "type": "uint64",
              "internalType": "uint64"
            },
            {
              "name": "refUID",
              "type": "bytes32",
              "internalType": "bytes32"
            },
            {
              "name": "recipient",
              "type": "address",
              "internalType": "address"
            },
            {
              "name": "attester",
              "type": "address",
              "internalType": "address"
            },
            {
              "name": "revocable",
              "type": "bool",
              "internalType": "bool"
            },
            {
              "name": "data",
              "type": "bytes",
              "internalType": "bytes"
            }
          ]
        },
        {
          "name": "demand",
          "type": "bytes",
          "internalType": "bytes"
        },
        {
          "name": "escrow",
          "type": "bytes32",
          "internalType": "bytes32"
        }
      ],
      "outputs": [
        {
          "name": "",
          "type": "bool",
          "internalType": "bool"
        }
      ],
      "stateMutability": "view"
    },
    {
      "type": "function",
      "name": "collectAndDistribute",
      "inputs": [
        {
          "name": "escrowContract",
          "type": "address",
          "internalType": "address"
        },
        {
          "name": "escrow",
          "type": "bytes32",
          "internalType": "bytes32"
        },
        {
          "name": "fulfillment",
          "type": "bytes32",
          "internalType": "bytes32"
        }
      ],
      "outputs": [],
      "stateMutability": "nonpayable"
    },
    {
      "type": "function",
      "name": "createFulfillment",
      "inputs": [
        {
          "name": "obligationContract",
          "type": "address",
          "internalType": "address"
        },
        {
          "name": "data",
          "type": "bytes",
          "internalType": "bytes"
        },
        {
          "name": "expirationTime",
          "type": "uint64",
          "internalType": "uint64"
        },
        {
          "name": "refUID",
          "type": "bytes32",
          "internalType": "bytes32"
        }
      ],
      "outputs": [
        {
          "name": "fulfillmentUid",
          "type": "bytes32",
          "internalType": "bytes32"
        }
      ],
      "stateMutability": "payable"
    },
    {
      "type": "function",
      "name": "decodeDemandData",
      "inputs": [
        {
          "name": "data",
          "type": "bytes",
          "internalType": "bytes"
        }
      ],
      "outputs": [
        {
          "name": "",
          "type": "tuple",
          "internalType": "struct TokenBundleSplitterBase.DemandData",
          "components": [
            {
              "name": "oracle",
              "type": "address",
              "internalType": "address"
            },
            {
              "name": "data",
              "type": "bytes",
              "internalType": "bytes"
            }
          ]
        }
      ],
      "stateMutability": "pure"
    },
    {
      "type": "function",
      "name": "eas",
      "inputs": [],
      "outputs": [
        {
          "name": "",
          "type": "address",
          "internalType": "contract IEAS"
        }
      ],
      "stateMutability": "view"
    },
    {
      "type": "function",
      "name": "fulfillers",
      "inputs": [
        {
          "name": "",
          "type": "bytes32",
          "internalType": "bytes32"
        }
      ],
      "outputs": [
        {
          "name": "",
          "type": "address",
          "internalType": "address"
        }
      ],
      "stateMutability": "view"
    },
    {
      "type": "function",
      "name": "getSplits",
      "inputs": [
        {
          "name": "oracle",
          "type": "address",
          "internalType": "address"
        },
        {
          "name": "fulfillment",
          "type": "bytes32",
          "internalType": "bytes32"
        },
        {
          "name": "escrow",
          "type": "bytes32",
          "internalType": "bytes32"
        }
      ],
      "outputs": [
        {
          "name": "",
          "type": "tuple[]",
          "internalType": "struct TokenBundleSplitterBase.BundleSplit[]",
          "components": [
            {
              "name": "recipient",
              "type": "address",
              "internalType": "address"
            },
            {
              "name": "nativeAmount",
              "type": "uint256",
              "internalType": "uint256"
            },
            {
              "name": "erc20Amounts",
              "type": "uint256[]",
              "internalType": "uint256[]"
            },
            {
              "name": "erc721Indices",
              "type": "uint256[]",
              "internalType": "uint256[]"
            },
            {
              "name": "erc1155Amounts",
              "type": "uint256[]",
              "internalType": "uint256[]"
            }
          ]
        }
      ],
      "stateMutability": "view"
    },
    {
      "type": "function",
      "name": "hasDecision",
      "inputs": [
        {
          "name": "",
          "type": "address",
          "internalType": "address"
        },
        {
          "name": "",
          "type": "bytes32",
          "internalType": "bytes32"
        }
      ],
      "outputs": [
        {
          "name": "",
          "type": "bool",
          "internalType": "bool"
        }
      ],
      "stateMutability": "view"
    },
    {
      "type": "function",
      "name": "onERC1155BatchReceived",
      "inputs": [
        {
          "name": "",
          "type": "address",
          "internalType": "address"
        },
        {
          "name": "",
          "type": "address",
          "internalType": "address"
        },
        {
          "name": "",
          "type": "uint256[]",
          "internalType": "uint256[]"
        },
        {
          "name": "",
          "type": "uint256[]",
          "internalType": "uint256[]"
        },
        {
          "name": "",
          "type": "bytes",
          "internalType": "bytes"
        }
      ],
      "outputs": [
        {
          "name": "",
          "type": "bytes4",
          "internalType": "bytes4"
        }
      ],
      "stateMutability": "nonpayable"
    },
    {
      "type": "function",
      "name": "onERC1155Received",
      "inputs": [
        {
          "name": "",
          "type": "address",
          "internalType": "address"
        },
        {
          "name": "",
          "type": "address",
          "internalType": "address"
        },
        {
          "name": "",
          "type": "uint256",
          "internalType": "uint256"
        },
        {
          "name": "",
          "type": "uint256",
          "internalType": "uint256"
        },
        {
          "name": "",
          "type": "bytes",
          "internalType": "bytes"
        }
      ],
      "outputs": [
        {
          "name": "",
          "type": "bytes4",
          "internalType": "bytes4"
        }
      ],
      "stateMutability": "nonpayable"
    },
    {
      "type": "function",
      "name": "requestArbitration",
      "inputs": [
        {
          "name": "_fulfillment",
          "type": "bytes32",
          "internalType": "bytes32"
        },
        {
          "name": "_escrow",
          "type": "bytes32",
          "internalType": "bytes32"
        },
        {
          "name": "oracle",
          "type": "address",
          "internalType": "address"
        },
        {
          "name": "demand",
          "type": "bytes",
          "internalType": "bytes"
        }
      ],
      "outputs": [],
      "stateMutability": "nonpayable"
    },
    {
      "type": "function",
      "name": "supportsInterface",
      "inputs": [
        {
          "name": "interfaceId",
          "type": "bytes4",
          "internalType": "bytes4"
        }
      ],
      "outputs": [
        {
          "name": "",
          "type": "bool",
          "internalType": "bool"
        }
      ],
      "stateMutability": "view"
    },
    {
      "type": "function",
      "name": "unsafePartiallyCollectAndDistribute",
      "inputs": [
        {
          "name": "escrowContract",
          "type": "address",
          "internalType": "address"
        },
        {
          "name": "escrow",
          "type": "bytes32",
          "internalType": "bytes32"
        },
        {
          "name": "fulfillment",
          "type": "bytes32",
          "internalType": "bytes32"
        }
      ],
      "outputs": [],
      "stateMutability": "nonpayable"
    },
    {
      "type": "event",
      "name": "ArbitrationMade",
      "inputs": [
        {
          "name": "decisionKey",
          "type": "bytes32",
          "indexed": true,
          "internalType": "bytes32"
        },
        {
          "name": "obligation",
          "type": "bytes32",
          "indexed": true,
          "internalType": "bytes32"
        },
        {
          "name": "oracle",
          "type": "address",
          "indexed": true,
          "internalType": "address"
        }
      ],
      "anonymous": false
    },
    {
      "type": "event",
      "name": "ArbitrationRequested",
      "inputs": [
        {
          "name": "fulfillment",
          "type": "bytes32",
          "indexed": true,
          "internalType": "bytes32"
        },
        {
          "name": "escrow",
          "type": "bytes32",
          "indexed": true,
          "internalType": "bytes32"
        },
        {
          "name": "oracle",
          "type": "address",
          "indexed": true,
          "internalType": "address"
        },
        {
          "name": "demand",
          "type": "bytes",
          "indexed": false,
          "internalType": "bytes"
        }
      ],
      "anonymous": false
    },
    {
      "type": "event",
      "name": "ERC1155TransferFailedOnDistribute",
      "inputs": [
        {
          "name": "recipient",
          "type": "address",
          "indexed": true,
          "internalType": "address"
        },
        {
          "name": "token",
          "type": "address",
          "indexed": true,
          "internalType": "address"
        },
        {
          "name": "tokenId",
          "type": "uint256",
          "indexed": false,
          "internalType": "uint256"
        },
        {
          "name": "amount",
          "type": "uint256",
          "indexed": false,
          "internalType": "uint256"
        }
      ],
      "anonymous": false
    },
    {
      "type": "event",
      "name": "ERC20TransferFailedOnDistribute",
      "inputs": [
        {
          "name": "recipient",
          "type": "address",
          "indexed": true,
          "internalType": "address"
        },
        {
          "name": "token",
          "type": "address",
          "indexed": true,
          "internalType": "address"
        },
        {
          "name": "amount",
          "type": "uint256",
          "indexed": false,
          "internalType": "uint256"
        }
      ],
      "anonymous": false
    },
    {
      "type": "event",
      "name": "ERC721TransferFailedOnDistribute",
      "inputs": [
        {
          "name": "recipient",
          "type": "address",
          "indexed": true,
          "internalType": "address"
        },
        {
          "name": "token",
          "type": "address",
          "indexed": true,
          "internalType": "address"
        },
        {
          "name": "tokenId",
          "type": "uint256",
          "indexed": false,
          "internalType": "uint256"
        }
      ],
      "anonymous": false
    },
    {
      "type": "event",
      "name": "EscrowCollectedAndDistributed",
      "inputs": [
        {
          "name": "escrow",
          "type": "bytes32",
          "indexed": true,
          "internalType": "bytes32"
        },
        {
          "name": "fulfillment",
          "type": "bytes32",
          "indexed": true,
          "internalType": "bytes32"
        },
        {
          "name": "fulfiller",
          "type": "address",
          "indexed": true,
          "internalType": "address"
        }
      ],
      "anonymous": false
    },
    {
      "type": "event",
      "name": "FulfillmentCreated",
      "inputs": [
        {
          "name": "fulfillmentUid",
          "type": "bytes32",
          "indexed": true,
          "internalType": "bytes32"
        },
        {
          "name": "fulfiller",
          "type": "address",
          "indexed": true,
          "internalType": "address"
        },
        {
          "name": "obligationContract",
          "type": "address",
          "indexed": true,
          "internalType": "address"
        }
      ],
      "anonymous": false
    },
    {
      "type": "event",
      "name": "NativeTransferFailedOnDistribute",
      "inputs": [
        {
          "name": "recipient",
          "type": "address",
          "indexed": true,
          "internalType": "address"
        },
        {
          "name": "amount",
          "type": "uint256",
          "indexed": false,
          "internalType": "uint256"
        }
      ],
      "anonymous": false
    },
    {
      "type": "error",
      "name": "AttestationRevoked",
      "inputs": []
    },
    {
      "type": "error",
      "name": "DeadlineExpired",
      "inputs": []
    },
    {
      "type": "error",
      "name": "ERC1155TransferFailed",
      "inputs": [
        {
          "name": "token",
          "type": "address",
          "internalType": "address"
        },
        {
          "name": "to",
          "type": "address",
          "internalType": "address"
        },
        {
          "name": "tokenId",
          "type": "uint256",
          "internalType": "uint256"
        },
        {
          "name": "amount",
          "type": "uint256",
          "internalType": "uint256"
        }
      ]
    },
    {
      "type": "error",
      "name": "ERC20TransferFailed",
      "inputs": [
        {
          "name": "token",
          "type": "address",
          "internalType": "address"
        },
        {
          "name": "to",
          "type": "address",
          "internalType": "address"
        },
        {
          "name": "amount",
          "type": "uint256",
          "internalType": "uint256"
        }
      ]
    },
    {
      "type": "error",
      "name": "ERC721TransferFailed",
      "inputs": [
        {
          "name": "token",
          "type": "address",
          "internalType": "address"
        },
        {
          "name": "to",
          "type": "address",
          "internalType": "address"
        },
        {
          "name": "tokenId",
          "type": "uint256",
          "internalType": "uint256"
        }
      ]
    },
    {
      "type": "error",
      "name": "EmptySplits",
      "inputs": []
    },
    {
      "type": "error",
      "name": "FulfillerAlreadyRecorded",
      "inputs": [
        {
          "name": "fulfillment",
          "type": "bytes32",
          "internalType": "bytes32"
        }
      ]
    },
    {
      "type": "error",
      "name": "InvalidAttestationUid",
      "inputs": []
    },
    {
      "type": "error",
      "name": "InvalidCollectedAmount",
      "inputs": [
        {
          "name": "expected",
          "type": "uint256",
          "internalType": "uint256"
        },
        {
          "name": "actual",
          "type": "uint256",
          "internalType": "uint256"
        }
      ]
    },
    {
      "type": "error",
      "name": "InvalidCreatedFulfillment",
      "inputs": [
        {
          "name": "fulfillment",
          "type": "bytes32",
          "internalType": "bytes32"
        }
      ]
    },
    {
      "type": "error",
      "name": "InvalidERC721Receipt",
      "inputs": [
        {
          "name": "token",
          "type": "address",
          "internalType": "address"
        },
        {
          "name": "tokenId",
          "type": "uint256",
          "internalType": "uint256"
        }
      ]
    },
    {
      "type": "error",
      "name": "InvalidEscrowAttestation",
      "inputs": []
    },
    {
      "type": "error",
      "name": "InvalidFulfillmentRecipient",
      "inputs": []
    },
    {
      "type": "error",
      "name": "InvalidFulfillmentUid",
      "inputs": []
    },
    {
      "type": "error",
      "name": "NativeTokenRefundFailed",
      "inputs": [
        {
          "name": "recipient",
          "type": "address",
          "internalType": "address"
        },
        {
          "name": "amount",
          "type": "uint256",
          "internalType": "uint256"
        }
      ]
    },
    {
      "type": "error",
      "name": "NativeTokenTransferFailed",
      "inputs": [
        {
          "name": "to",
          "type": "address",
          "internalType": "address"
        },
        {
          "name": "amount",
          "type": "uint256",
          "internalType": "uint256"
        }
      ]
    },
    {
      "type": "error",
      "name": "NoFulfillerRecorded",
      "inputs": [
        {
          "name": "fulfillment",
          "type": "bytes32",
          "internalType": "bytes32"
        }
      ]
    },
    {
      "type": "error",
      "name": "ReentrancyGuardReentrantCall",
      "inputs": []
    },
    {
      "type": "error",
      "name": "TooManySplits",
      "inputs": [
        {
          "name": "provided",
          "type": "uint256",
          "internalType": "uint256"
        },
        {
          "name": "max",
          "type": "uint256",
          "internalType": "uint256"
        }
      ]
    },
    {
      "type": "error",
      "name": "UnauthorizedArbitrationRequest",
      "inputs": []
    }
  ],
  "bytecode": {
    "object": "0x608034609357601f61298638819003918201601f19168301916001600160401b03831184841017609757808492602094604052833981010312609357516001600160a01b0381169081900360935760017f9b779b17422d0df92223018b32b4d1fa46e071723d6817e2486d003becc55f00555f80546001600160a01b0319169190911790556040516128da90816100ac8239f35b5f80fd5b634e487b7160e01b5f52604160045260245ffdfe608080604052600436101561001c575b50361561001a575f80fd5b005b5f3560e01c90816301ffc9a71461167c575080632257c0e3146114f25780633c9d7240146111915780634e2d3b121461115f57806373e0d48f14610ce45780638150864d14610cbd578063838a68d914610be157806386314b0d14610ac1578063a1a8048814610a78578063b48210ca14610a5d578063bc197c81146109c8578063c1dd2c6e14610593578063c880c06f14610577578063e6c9714d14610411578063ed7180e3146101315763f23a6e61146100d8575f61000f565b3461012d5760a036600319011261012d576100f16116cf565b506100fa6116e5565b506084356001600160401b03811161012d5761011a903690600401611881565b5060405163f23a6e6160e01b8152602090f35b5f80fd5b608036600319011261012d576101456116cf565b6024356001600160401b03811161012d5761016490369060040161176c565b916044356001600160401b03811680910361012d5760643593610185611c5c565b61018f3447611b52565b604051632cee40b560e21b81526060600482015260648101839052956001600160a01b03909416949093828260848901375f60848489010152836024880152806044880152602087608481601f19601f8801168101030181348a5af19687156103c3575f976103dd575b5086156103ce575f80546040516328c44a9960e21b8152600481018a9052929190839060249082906001600160a01b03165afa9182156103c3575f9261039f575b508782511494851595610387575b851561036f575b8515610357575b508415610348575b50831561031d575b50505061030a575f838152600260205260409020546001600160a01b03166102f7575f83815260026020908152604090912080546001600160a01b031916339081179091559093916102b891906127b7565b6040519133827ff845579b2e96200541b4e2b438fbb65e772b70ac68265030aa16f6d8e16501d95f80a460015f5160206128855f395f51905f52558152f35b8263aa8904b160e01b5f5260045260245ffd5b8263f9d7a76560e01b5f5260045260245ffd5b61033792935061012001516020815191012092369161184b565b602081519101201415848080610266565b60a0820151141593508761025e565b60608301516001600160401b03161415945088610256565b60c08301516001600160a01b0316301415955061024f565b60e08301516001600160a01b03168814159550610248565b6103bc9192503d805f833e6103b4818361180f565b810190611a14565b908861023a565b6040513d5f823e3d90fd5b6303acddcd60e41b5f5260045ffd5b9096506020813d602011610409575b816103f96020938361180f565b8101031261012d575195876101f9565b3d91506103ec565b3461012d57606036600319011261012d576004356001600160401b03811161012d57610140600319823603011261012d576040519061044f826117f3565b806004013582526024810135602083015261046c60448201611913565b604083015261047d60648201611913565b606083015261048e60848201611913565b608083015260a481013560a08301526104a960c482016116fb565b60c08301526104ba60e482016116fb565b60e0830152610104810135801515810361012d57610100830152610124810135906001600160401b03821161012d5760046104f89236920101611881565b6101208201526024356001600160401b03811161012d5761051d903690600401611881565b61052682612793565b80516001600160a01b039161054391810160209081019101611aef565b51165f52600160205261055e60405f20916044359051611b5f565b5f52602052602060ff60405f2054166040519015158152f35b3461012d575f36600319011261012d57602060405161eeee8152f35b3461012d576105b66105a43661170f565b81819492936105b1611c5c565b611d56565b5f848152600260205260408120549294926001600160a01b03165b855182101561098f576105f981856001600160a01b036105f1868b611971565b515116612723565b936106048388611971565b5195602087018051908161095a575b50506040870197925f5b895180518210156106fd578161063291611971565b51610640575b60010161061d565b6060870180516001600160a01b039061065a908490611971565b511690610668838d51611971565b51916040519063a9059cbb60e01b5f5260018060a01b038c16938460045260245260205f60448180855af19060015f51148216156106f0575b5090604052156106b2575050610638565b518b926106d6916001600160a01b03906106cd908390611971565b51169351611971565b51916307a1d48760e01b5f5260045260245260445260645ffd5b3b15153d1516168e6106a1565b5050939197509194955f94606082019660a082019560c083019a5b895180518a10156107f1578961072d91611971565b51988c6107508b8b6107478260018060a01b039251611971565b51169251611971565b5190803b1561012d57604051632142170760e11b81523060048201526001600160a01b038f16602482015260448101929092525f908290606490829084905af190816107e1575b506107d7578c8c6107b58c8c6106cd8260018060a01b039251611971565b519163e3bbfcd760e01b5f5260045260018060a01b031660245260445260645ffd5b6001019850610718565b5f6107eb9161180f565b8e610797565b5095949a50955091955096955060805f9501945b85518051821015610944578161081a91611971565b51610828575b600101610805565b979260e08893959298019460018060a01b036108458b8851611971565b5116986101008501996108598c8c51611971565b516108658d8b51611971565b51823b1561012d57604051637921219560e11b81523060048201526001600160a01b038d1660248201526044810192909252606482015260a060848201525f60a482018190529091829060c490829084905af19081610934575b506109275760848a8a8a6108f58f6108ed818e6108e48260018060a01b039251611971565b51169651611971565b519251611971565b51604051636bb6a96f60e01b815260048101949094526001600160a01b03909216602484015260448301526064820152fd5b9295509297509297610820565b5f61093e9161180f565b8c6108bf565b50509450949560019192935001909294916105d1565b5f80808060018060a01b038c1695865af1610973612764565b506106135751906338f0620160e21b5f5260045260245260445ffd5b83857f38f05a74107505cf7df4cc8ba5851ede31789102da819ba98b8f39107e73ec6f5f80a460015f5160206128855f395f51905f5255005b3461012d5760a036600319011261012d576109e16116cf565b506109ea6116e5565b506044356001600160401b03811161012d57610a0a9036906004016118b6565b506064356001600160401b03811161012d57610a2a9036906004016118b6565b506084356001600160401b03811161012d57610a4a903690600401611881565b5060405163bc197c8160e01b8152602090f35b3461012d575f36600319011261012d57602060405160328152f35b3461012d57604036600319011261012d576001600160a01b03610a996116cf565b165f52600160205260405f206024355f52602052602060ff60405f2054166040519015158152f35b3461012d57608036600319011261012d576044356001600160a01b038116906024359082900361012d576064356001600160401b03811161012d57610b0a903690600401611881565b5f80546040516328c44a9960e21b8152600481018590529190829060249082906001600160a01b03165afa9081156103c3575f91610bc7575b5060e08101516001600160a01b03163314159081610baf575b50610ba0577f8c71f7964ccbceaff13fb1c085cf7491115c2bed4a6aca02c6c6208f08609b826040516020815280610b9b600435946020830190611799565b0390a4005b63ff323ecb60e01b5f5260045ffd5b60c001516001600160a01b0316331415905084610b5c565b610bdb91503d805f833e6103b4818361180f565b84610b43565b3461012d57602036600319011261012d576004356001600160401b03811161012d57610c1190369060040161176c565b60606020604051610c21816117d8565b5f8152015281019060208183031261012d578035906001600160401b03821161012d570160408183031261012d5760405191610c5c836117d8565b610c65826116fb565b835260208201356001600160401b03811161012d57610c849201611881565b9060208101918252610cb96040519283926020845260018060a01b039051166020840152516040808401526060830190611799565b0390f35b3461012d575f36600319011261012d575f546040516001600160a01b039091168152602090f35b3461012d57610d03610cf53661170f565b8181936105b1959395611c5c565b5f838152600260205260408120549194909390916001600160a01b03165b835185101561112757610d4181836001600160a01b036105f18989611971565b92610d4c8686611971565b519260208401805190816110d6575b50506040840195925f5b87518051821015610e595790610d7d81600193611971565b51610d89575b01610d65565b8860608c01838060a01b03610d9f848351611971565b51169083610dae818551611971565b51926040519063a9059cbb60e01b5f528d888060a01b0316948560045260245260205f60448180855af190885f5114821615610e4c575b509060405215610df9575b50505050610d83565b610e3b817ff74480709fec33a3b1a6a81aaf2a8fa70d719b88009fbee204be461d84f84df093610e326020948a8060a01b039251611971565b51169551611971565b51604051908152a3888c8083610df0565b3b15153d1516165f610de5565b505096939290979195505f95606084019760a084019960c08501985b8a518051821015610f6f5781610e8a91611971565b51908c610e9f8360018060a01b039251611971565b511691610ead818d51611971565b5192803b1561012d57604051632142170760e11b81523060048201526001600160a01b038d16602482015260448101949094526001938f915f908290606490829084905af19081610f5f575b50610f5857610f1d90610f1383868060a01b039251611971565b5116918d51611971565b516040519081527f2cdd66d926c3684d9b7be9910be2f61678a88971bc9187ef07b86dc048964aa460208d868060a01b031692a35b01610e75565b5050610f52565b5f610f699161180f565b5f610ef9565b5050949699509497509091955060805f9501945b855180518210156110c15781610f9891611971565b51610fa6575b600101610f83565b60e087019060018060a01b03610fbd828451611971565b511691610100890190610fd1838351611971565b5193610fde848b51611971565b5190803b1561012d57604051637921219560e11b81523060048201526001600160a01b038f1660248201526044810196909652606486019190915260a060848601525f60a486018190526001958592909190829060c490829084905af190816110b1575b506110a95761105c9161074782878060a01b039251611971565b51611068838a51611971565b5160405191825260208201527f616cfada1d83c91b3ab4d0488d450dbb131a917d044bde559c55552aebdf433f60408d868060a01b031692a35b9050610f9e565b5050506110a2565b5f6110bb9161180f565b8e611042565b50509496509460019192935001939291610d21565b5f80808060018060a01b038b1695865af16110ef612764565b50610d5b5760207f49883307846eabe1e4a9b4d7e3378305c6115c7df65c270a47f9f9cfe3ab69ad9151604051908152a28880610d5b565b917f38f05a74107505cf7df4cc8ba5851ede31789102da819ba98b8f39107e73ec6f5f80a460015f5160206128855f395f51905f5255005b3461012d57602036600319011261012d576004355f526002602052602060018060a01b0360405f205416604051908152f35b3461012d57606036600319011261012d576044356024356004356001600160401b03831161012d573660238401121561012d578260040135906001600160401b03821161012d576024840193602436918460051b01011161012d5780156103ce57826111fc91611b5f565b9281156114e357603282116114cb57335f52600360205260405f20845f5260205260405f208054905f815581611460575b50505f915b80831061128557505050335f52600160205260405f20825f5260205260405f20600160ff1982541617905533917f316840fa12fff978748bb0addc98aa699d0e100e99cb115876030599d06fb01a5f80a4005b9390919293335f52600360205260405f20825f5260205260405f208054600160401b81101561144c576112bd91600182018155611bb5565b5050335f52600360205260405f20825f526020526112de8460405f20611bb5565b50926112eb858383611bce565b356001600160a01b038116810361012d5784546001600160a01b0319166001600160a01b03919091161784556020611324868484611bce565b01356001850155600284019261133984611b85565b6004600386019561134987611b85565b019061135482611b85565b5f5b61136e611364898787611bce565b6040810190611bf0565b90508110156113a2578061139c61139560019361138f6113648d8b8b611bce565b90611c25565b3588611c35565b01611356565b5096909493505f5b6113c26113b8888686611bce565b6060810190611bf0565b90508110156113f057806113ea6113e360019361138f6113b88c8a8a611bce565b3587611c35565b016113aa565b5095909392505f5b611410611406878588611bce565b6080810190611bf0565b905081101561143e578061143861143160019361138f6114068b898c611bce565b3586611c35565b016113f8565b509493600101929150611232565b634e487b7160e01b5f52604160045260245ffd5b816005029160058304036114b7575f5260205f20908101905b8181101561122d57805f600592555f600182015561149960028201611b85565b6114a560038201611b85565b6114b160048201611b85565b01611479565b634e487b7160e01b5f52601160045260245ffd5b5063b268613560e01b5f52600452603260245260445ffd5b63143160cf60e01b5f5260045ffd5b3461012d576115236115033661170f565b6001600160a01b039092165f908152600360205260409020929190611b5f565b5f5260205260405f208054906115388261189f565b91611546604051938461180f565b8083526020830180925f5260205f205f915b83831061161557848660405191829160208301906020845251809152604083019060408160051b85010192915f905b82821061159657505050500390f35b919360019193955060206116058192603f198a8203018652885190858060a01b038251168152838201518482015260806115f46115e2604085015160a0604086015260a0850190611739565b60608501518482036060860152611739565b920151906080818403910152611739565b9601920192018594939192611587565b60056020600192604051611628816117bd565b848060a01b038654168152848601548382015261164760028701611927565b604082015261165860038701611927565b606082015261166960048701611927565b6080820152815201920192019190611558565b3461012d57602036600319011261012d576004359063ffffffff60e01b821680920361012d57602091630271189760e51b81149081156116be575b5015158152f35b6301ffc9a760e01b149050836116b7565b600435906001600160a01b038216820361012d57565b602435906001600160a01b038216820361012d57565b35906001600160a01b038216820361012d57565b606090600319011261012d576004356001600160a01b038116810361012d57906024359060443590565b90602080835192838152019201905f5b8181106117565750505090565b8251845260209384019390920191600101611749565b9181601f8401121561012d578235916001600160401b03831161012d576020838186019501011161012d57565b805180835260209291819084018484015e5f828201840152601f01601f1916010190565b60a081019081106001600160401b0382111761144c57604052565b604081019081106001600160401b0382111761144c57604052565b61014081019081106001600160401b0382111761144c57604052565b90601f801991011681019081106001600160401b0382111761144c57604052565b6001600160401b03811161144c57601f01601f191660200190565b92919261185782611830565b91611865604051938461180f565b82948184528183011161012d578281602093845f960137010152565b9080601f8301121561012d5781602061189c9335910161184b565b90565b6001600160401b03811161144c5760051b60200190565b9080601f8301121561012d5781356118cd8161189f565b926118db604051948561180f565b81845260208085019260051b82010192831161012d57602001905b8282106119035750505090565b81358152602091820191016118f6565b35906001600160401b038216820361012d57565b90604051918281549182825260208201905f5260205f20925f5b8181106119585750506119569250038361180f565b565b8454835260019485019487945060209093019201611941565b80518210156119855760209160051b010190565b634e487b7160e01b5f52603260045260245ffd5b51906001600160401b038216820361012d57565b51906001600160a01b038216820361012d57565b5190811515820361012d57565b81601f8201121561012d578051906119e582611830565b926119f3604051948561180f565b8284526020838301011161012d57815f9260208093018386015e8301015290565b60208183031261012d578051906001600160401b03821161012d57016101408183031261012d5760405191611a48836117f3565b8151835260208201516020840152611a6260408301611999565b6040840152611a7360608301611999565b6060840152611a8460808301611999565b608084015260a082015160a0840152611a9f60c083016119ad565b60c0840152611ab060e083016119ad565b60e0840152611ac261010083016119c1565b6101008401526101208201516001600160401b03811161012d57611ae692016119ce565b61012082015290565b60208183031261012d578051906001600160401b03821161012d570160408183031261012d5760405191611b22836117d8565b611b2b826119ad565b835260208201516001600160401b03811161012d57611b4a92016119ce565b602082015290565b919082039182116114b757565b906040519060208201928352604082015260408152611b7f60608261180f565b51902090565b8054905f815581611b94575050565b5f5260205f20908101905b818110611baa575050565b5f8155600101611b9f565b8054821015611985575f52600560205f20910201905f90565b91908110156119855760051b81013590609e198136030182121561012d570190565b903590601e198136030182121561012d57018035906001600160401b03821161012d57602001918160051b3603831361012d57565b91908110156119855760051b0190565b805490600160401b82101561144c5760018201808255821015611985575f5260205f200155565b60025f5160206128855f395f51905f525414611c855760025f5160206128855f395f51905f5255565b633ee5aeb560e01b5f5260045ffd5b9080601f8301121561012d578151611cab8161189f565b92611cb9604051948561180f565b81845260208085019260051b82010192831161012d57602001905b828210611ce15750505090565b60208091611cee846119ad565b815201910190611cd4565b9080601f8301121561012d578151611d108161189f565b92611d1e604051948561180f565b81845260208085019260051b82010192831161012d57602001905b828210611d465750505090565b8151815260209182019101611d39565b6060610120604051611d67816117f3565b5f81528260208201525f604082015282808201528260808201528260a08201528260c08201528260e082015282610100820152015260018060a01b035f54166040516328c44a9960e21b81528360048201525f81602481855afa9081156103c3575f91612709575b5060e08101516001600160a01b0384811691161480159061269a575b61268b5780511561267c576001600160401b036060820151168015159081612671575b50612662576001600160401b03608082015116612653575f602492604051938480926328c44a9960e21b82528960048301525afa9182156103c35761012092611e5e915f91612639575b50612793565b0151938451850194602086019060208188031261012d576020810151906001600160401b03821161012d570195610140908790031261012d5760405195611ea4876117f3565b611eb0602082016119ad565b875260408101516001600160401b03811161012d57826020611ed4928401016119ce565b91602088019283526060820151604089015260808201516001600160401b03811161012d57816020611f0892850101611c94565b606089015260a08201516001600160401b03811161012d57816020611f2f92850101611cf9565b608089015260c08201516001600160401b03811161012d57816020611f5692850101611c94565b60a089015260e08201516001600160401b03811161012d57816020611f7d92850101611cf9565b60c08901526101008201516001600160401b03811161012d57816020611fa592850101611c94565b60e08901526101208201516001600160401b03811161012d57816020611fcd92850101611cf9565b610100890152610140820151916001600160401b03831161012d57611ff59201602001611cf9565b61012087015251805186916001600160a01b039161201b91602091810182019101611aef565b51165f52600360205260405f206120328587611b5f565b5f5260205260405f2080546120468161189f565b91612054604051938461180f565b81835260208301905f5260205f205f915b8383106125d25750505050945f5b60a0880151805182101561215e576001600160a01b0390612095908390611971565b511660206120a78360c08c0151611971565b516024604051809481936331a9108f60e11b835260048301525afa9081156103c3575f91612125575b506001600160a01b031630146120e857600101612073565b61210e889160c060018060a01b036121048360a0870151611971565b5116930151611971565b5190631e40975f60e01b5f5260045260245260445ffd5b90506020813d8211612156575b8161213f6020938361180f565b8101031261012d57612150906119ad565b5f6120d0565b3d9150612132565b5050919490939592954791612177606086015151612808565b955f5b6060870151805182101561221257602491906020906001600160a01b03906121a3908490611971565b5116604051938480926370a0823160e01b82523060048301525afa80156103c3575f906121e0575b600192506121d9828b611971565b520161217a565b506020823d821161220a575b816121f96020938361180f565b8101031261012d57600191516121cb565b3d91506121ec565b505091949796909295939661222b60e08a015151612808565b965f5b8a60e081015180518310156122df57829161225d836101006020946121046122879860018060a01b0392611971565b51604051627eeac760e11b8152306004820152602481019190915293849190829081906044820190565b03915afa80156103c3575f906122ad575b600192506122a6828c611971565b520161222e565b506020823d82116122d7575b816122c66020938361180f565b8101031261012d5760019151612298565b3d91506122b9565b505050919395976044602092949698995f6040519687948593632c713cd960e01b85526004850152602484015260018060a01b03165af180156103c357612597575b61233291504760408901519161283a565b5f5b6060870151518110156123e45761234b8186611971565b51906024602060018060a01b036123668460608d0151611971565b5116604051928380926370a0823160e01b82523060048301525afa9081156103c3575f916123b2575b506001926123ac916123a58460808d0151611971565b519161283a565b01612334565b90506020813d82116123dc575b816123cc6020938361180f565b8101031261012d5751600161238f565b3d91506123bf565b5091939092505f5b60a086015180518210156124b8576001600160a01b039061240e908390611971565b511660206124208360c08a0151611971565b516024604051809481936331a9108f60e11b835260048301525afa9081156103c3575f9161247f575b50306001600160a01b0390911603612463576001016123ec565b61210e869160c060018060a01b036121048360a0870151611971565b90506020813d82116124b0575b816124996020938361180f565b8101031261012d576124aa906119ad565b5f612449565b3d915061248c565b5050919290925f5b60e08601515181101561258f576124d78185611971565b519061252e602060018060a01b036124f38460e08c0151611971565b5116612504846101008c0151611971565b51604051627eeac760e11b8152306004820152602481019190915292839190829081906044820190565b03915afa9081156103c3575f9161255d575b50600192612557916123a5846101208c0151611971565b016124c0565b90506020813d8211612587575b816125776020938361180f565b8101031261012d57516001612540565b3d915061256a565b509291509250565b6020823d6020116125ca575b816125b06020938361180f565b8101031261012d576125c4612332926119c1565b50612321565b3d91506125a3565b600560206001926040516125e5816117bd565b848060a01b038654168152848601548382015261260460028701611927565b604082015261261560038701611927565b606082015261262660048701611927565b6080820152815201920192019190612065565b61264d91503d805f833e6103b4818361180f565b5f611e58565b637b6227e960e11b5f5260045ffd5b631ab7da6b60e01b5f5260045ffd5b90504210155f611e0e565b635c2c7f8960e01b5f5260045ffd5b63629cd40b60e11b5f5260045ffd5b50602081810151604051635bf2f20d60e01b815291826004816001600160a01b0389165afa9182156103c3575f926126d5575b501415611deb565b9091506020813d602011612701575b816126f16020938361180f565b8101031261012d5751905f6126cd565b3d91506126e4565b61271d91503d805f833e6103b4818361180f565b5f611dcf565b91906001600160a01b03831661eeee1461273c57505090565b9091506001600160a01b03821615612752575090565b6379c5a2db60e01b5f5260045260245ffd5b3d1561278e573d9061277582611830565b91612783604051938461180f565b82523d5f602084013e565b606090565b60c001516001600160a01b031630036127a857565b634672d00f60e01b5f5260045ffd5b479080821115612803576127ca91611b52565b906001600160a01b03165f80808085855af16127e4612764565b50156127ee575050565b632247bb8b60e21b5f5260045260245260445ffd5b505050565b906128128261189f565b61281f604051918261180f565b8281528092612830601f199161189f565b0190602036910137565b9081811061286d579061284c91611b52565b90808203612858575050565b631a3dba0360e31b5f5260045260245260445ffd5b82631a3dba0360e31b5f526004525f60245260445ffdfe9b779b17422d0df92223018b32b4d1fa46e071723d6817e2486d003becc55f00a2646970667358221220ea5a757e945c85c305e73e26e1162502dc199b40b7f8125aa010ec564ac3ff4964736f6c634300081b0033",
    "linkReferences": {}
  },
  "methodIdentifiers": {
    "EXECUTOR_SENTINEL()": "c880c06f",
    "MAX_SPLITS()": "b48210ca",
    "arbitrate(bytes32,bytes32,(address,uint256,uint256[],uint256[],uint256[])[])": "3c9d7240",
    "checkObligation((bytes32,bytes32,uint64,uint64,uint64,bytes32,address,address,bool,bytes),bytes,bytes32)": "e6c9714d",
    "collectAndDistribute(address,bytes32,bytes32)": "c1dd2c6e",
    "createFulfillment(address,bytes,uint64,bytes32)": "ed7180e3",
    "decodeDemandData(bytes)": "838a68d9",
    "eas()": "8150864d",
    "fulfillers(bytes32)": "4e2d3b12",
    "getSplits(address,bytes32,bytes32)": "2257c0e3",
    "hasDecision(address,bytes32)": "a1a80488",
    "onERC1155BatchReceived(address,address,uint256[],uint256[],bytes)": "bc197c81",
    "onERC1155Received(address,address,uint256,uint256,bytes)": "f23a6e61",
    "requestArbitration(bytes32,bytes32,address,bytes)": "86314b0d",
    "supportsInterface(bytes4)": "01ffc9a7",
    "unsafePartiallyCollectAndDistribute(address,bytes32,bytes32)": "73e0d48f"
  },
  "id": 95
}