{
  "abi": [
    {
      "type": "constructor",
      "inputs": [
        {
          "name": "_eas",
          "type": "address",
          "internalType": "contract IEAS"
        },
        {
          "name": "_schemaRegistry",
          "type": "address",
          "internalType": "contract ISchemaRegistry"
        }
      ],
      "stateMutability": "nonpayable"
    },
    {
      "type": "receive",
      "stateMutability": "payable"
    },
    {
      "type": "function",
      "name": "ATTESTATION_SCHEMA",
      "inputs": [],
      "outputs": [
        {
          "name": "",
          "type": "bytes32",
          "internalType": "bytes32"
        }
      ],
      "stateMutability": "view"
    },
    {
      "type": "function",
      "name": "ATTESTATION_SCHEMA_REVOCABLE",
      "inputs": [],
      "outputs": [
        {
          "name": "",
          "type": "bool",
          "internalType": "bool"
        }
      ],
      "stateMutability": "view"
    },
    {
      "type": "function",
      "name": "MAX_HOOKS",
      "inputs": [],
      "outputs": [
        {
          "name": "",
          "type": "uint256",
          "internalType": "uint256"
        }
      ],
      "stateMutability": "view"
    },
    {
      "type": "function",
      "name": "attest",
      "inputs": [
        {
          "name": "attestation",
          "type": "tuple",
          "internalType": "struct Attestation",
          "components": [
            {
              "name": "uid",
              "type": "bytes32",
              "internalType": "bytes32"
            },
            {
              "name": "schema",
              "type": "bytes32",
              "internalType": "bytes32"
            },
            {
              "name": "time",
              "type": "uint64",
              "internalType": "uint64"
            },
            {
              "name": "expirationTime",
              "type": "uint64",
              "internalType": "uint64"
            },
            {
              "name": "revocationTime",
              "type": "uint64",
              "internalType": "uint64"
            },
            {
              "name": "refUID",
              "type": "bytes32",
              "internalType": "bytes32"
            },
            {
              "name": "recipient",
              "type": "address",
              "internalType": "address"
            },
            {
              "name": "attester",
              "type": "address",
              "internalType": "address"
            },
            {
              "name": "revocable",
              "type": "bool",
              "internalType": "bool"
            },
            {
              "name": "data",
              "type": "bytes",
              "internalType": "bytes"
            }
          ]
        }
      ],
      "outputs": [
        {
          "name": "",
          "type": "bool",
          "internalType": "bool"
        }
      ],
      "stateMutability": "payable"
    },
    {
      "type": "function",
      "name": "check",
      "inputs": [
        {
          "name": "obligation",
          "type": "tuple",
          "internalType": "struct Attestation",
          "components": [
            {
              "name": "uid",
              "type": "bytes32",
              "internalType": "bytes32"
            },
            {
              "name": "schema",
              "type": "bytes32",
              "internalType": "bytes32"
            },
            {
              "name": "time",
              "type": "uint64",
              "internalType": "uint64"
            },
            {
              "name": "expirationTime",
              "type": "uint64",
              "internalType": "uint64"
            },
            {
              "name": "revocationTime",
              "type": "uint64",
              "internalType": "uint64"
            },
            {
              "name": "refUID",
              "type": "bytes32",
              "internalType": "bytes32"
            },
            {
              "name": "recipient",
              "type": "address",
              "internalType": "address"
            },
            {
              "name": "attester",
              "type": "address",
              "internalType": "address"
            },
            {
              "name": "revocable",
              "type": "bool",
              "internalType": "bool"
            },
            {
              "name": "data",
              "type": "bytes",
              "internalType": "bytes"
            }
          ]
        },
        {
          "name": "demand",
          "type": "bytes",
          "internalType": "bytes"
        },
        {
          "name": "",
          "type": "bytes32",
          "internalType": "bytes32"
        }
      ],
      "outputs": [
        {
          "name": "",
          "type": "bool",
          "internalType": "bool"
        }
      ],
      "stateMutability": "view"
    },
    {
      "type": "function",
      "name": "collect",
      "inputs": [
        {
          "name": "_escrow",
          "type": "bytes32",
          "internalType": "bytes32"
        },
        {
          "name": "_fulfillment",
          "type": "bytes32",
          "internalType": "bytes32"
        }
      ],
      "outputs": [
        {
          "name": "",
          "type": "bytes",
          "internalType": "bytes"
        }
      ],
      "stateMutability": "nonpayable"
    },
    {
      "type": "function",
      "name": "decodeCondition",
      "inputs": [
        {
          "name": "data",
          "type": "bytes",
          "internalType": "bytes"
        }
      ],
      "outputs": [
        {
          "name": "arbiter",
          "type": "address",
          "internalType": "address"
        },
        {
          "name": "demand",
          "type": "bytes",
          "internalType": "bytes"
        }
      ],
      "stateMutability": "pure"
    },
    {
      "type": "function",
      "name": "decodeObligationData",
      "inputs": [
        {
          "name": "data",
          "type": "bytes",
          "internalType": "bytes"
        }
      ],
      "outputs": [
        {
          "name": "",
          "type": "tuple",
          "internalType": "struct HooksEscrowObligation.ObligationData",
          "components": [
            {
              "name": "arbiter",
              "type": "address",
              "internalType": "address"
            },
            {
              "name": "demand",
              "type": "bytes",
              "internalType": "bytes"
            },
            {
              "name": "hooks",
              "type": "address[]",
              "internalType": "address[]"
            },
            {
              "name": "hookDatas",
              "type": "bytes[]",
              "internalType": "bytes[]"
            },
            {
              "name": "values",
              "type": "uint256[]",
              "internalType": "uint256[]"
            }
          ]
        }
      ],
      "stateMutability": "pure"
    },
    {
      "type": "function",
      "name": "doObligation",
      "inputs": [
        {
          "name": "data",
          "type": "tuple",
          "internalType": "struct HooksEscrowObligation.ObligationData",
          "components": [
            {
              "name": "arbiter",
              "type": "address",
              "internalType": "address"
            },
            {
              "name": "demand",
              "type": "bytes",
              "internalType": "bytes"
            },
            {
              "name": "hooks",
              "type": "address[]",
              "internalType": "address[]"
            },
            {
              "name": "hookDatas",
              "type": "bytes[]",
              "internalType": "bytes[]"
            },
            {
              "name": "values",
              "type": "uint256[]",
              "internalType": "uint256[]"
            }
          ]
        },
        {
          "name": "expirationTime",
          "type": "uint64",
          "internalType": "uint64"
        }
      ],
      "outputs": [
        {
          "name": "",
          "type": "bytes32",
          "internalType": "bytes32"
        }
      ],
      "stateMutability": "payable"
    },
    {
      "type": "function",
      "name": "doObligationFor",
      "inputs": [
        {
          "name": "data",
          "type": "tuple",
          "internalType": "struct HooksEscrowObligation.ObligationData",
          "components": [
            {
              "name": "arbiter",
              "type": "address",
              "internalType": "address"
            },
            {
              "name": "demand",
              "type": "bytes",
              "internalType": "bytes"
            },
            {
              "name": "hooks",
              "type": "address[]",
              "internalType": "address[]"
            },
            {
              "name": "hookDatas",
              "type": "bytes[]",
              "internalType": "bytes[]"
            },
            {
              "name": "values",
              "type": "uint256[]",
              "internalType": "uint256[]"
            }
          ]
        },
        {
          "name": "expirationTime",
          "type": "uint64",
          "internalType": "uint64"
        },
        {
          "name": "recipient",
          "type": "address",
          "internalType": "address"
        }
      ],
      "outputs": [
        {
          "name": "",
          "type": "bytes32",
          "internalType": "bytes32"
        }
      ],
      "stateMutability": "payable"
    },
    {
      "type": "function",
      "name": "doObligationRaw",
      "inputs": [
        {
          "name": "data",
          "type": "bytes",
          "internalType": "bytes"
        },
        {
          "name": "expirationTime",
          "type": "uint64",
          "internalType": "uint64"
        },
        {
          "name": "refUID",
          "type": "bytes32",
          "internalType": "bytes32"
        }
      ],
      "outputs": [
        {
          "name": "uid_",
          "type": "bytes32",
          "internalType": "bytes32"
        }
      ],
      "stateMutability": "payable"
    },
    {
      "type": "function",
      "name": "getObligationData",
      "inputs": [
        {
          "name": "uid",
          "type": "bytes32",
          "internalType": "bytes32"
        }
      ],
      "outputs": [
        {
          "name": "",
          "type": "tuple",
          "internalType": "struct HooksEscrowObligation.ObligationData",
          "components": [
            {
              "name": "arbiter",
              "type": "address",
              "internalType": "address"
            },
            {
              "name": "demand",
              "type": "bytes",
              "internalType": "bytes"
            },
            {
              "name": "hooks",
              "type": "address[]",
              "internalType": "address[]"
            },
            {
              "name": "hookDatas",
              "type": "bytes[]",
              "internalType": "bytes[]"
            },
            {
              "name": "values",
              "type": "uint256[]",
              "internalType": "uint256[]"
            }
          ]
        }
      ],
      "stateMutability": "view"
    },
    {
      "type": "function",
      "name": "getSchema",
      "inputs": [],
      "outputs": [
        {
          "name": "",
          "type": "tuple",
          "internalType": "struct SchemaRecord",
          "components": [
            {
              "name": "uid",
              "type": "bytes32",
              "internalType": "bytes32"
            },
            {
              "name": "resolver",
              "type": "address",
              "internalType": "contract ISchemaResolver"
            },
            {
              "name": "revocable",
              "type": "bool",
              "internalType": "bool"
            },
            {
              "name": "schema",
              "type": "string",
              "internalType": "string"
            }
          ]
        }
      ],
      "stateMutability": "view"
    },
    {
      "type": "function",
      "name": "isPayable",
      "inputs": [],
      "outputs": [
        {
          "name": "",
          "type": "bool",
          "internalType": "bool"
        }
      ],
      "stateMutability": "pure"
    },
    {
      "type": "function",
      "name": "multiAttest",
      "inputs": [
        {
          "name": "attestations",
          "type": "tuple[]",
          "internalType": "struct Attestation[]",
          "components": [
            {
              "name": "uid",
              "type": "bytes32",
              "internalType": "bytes32"
            },
            {
              "name": "schema",
              "type": "bytes32",
              "internalType": "bytes32"
            },
            {
              "name": "time",
              "type": "uint64",
              "internalType": "uint64"
            },
            {
              "name": "expirationTime",
              "type": "uint64",
              "internalType": "uint64"
            },
            {
              "name": "revocationTime",
              "type": "uint64",
              "internalType": "uint64"
            },
            {
              "name": "refUID",
              "type": "bytes32",
              "internalType": "bytes32"
            },
            {
              "name": "recipient",
              "type": "address",
              "internalType": "address"
            },
            {
              "name": "attester",
              "type": "address",
              "internalType": "address"
            },
            {
              "name": "revocable",
              "type": "bool",
              "internalType": "bool"
            },
            {
              "name": "data",
              "type": "bytes",
              "internalType": "bytes"
            }
          ]
        },
        {
          "name": "values",
          "type": "uint256[]",
          "internalType": "uint256[]"
        }
      ],
      "outputs": [
        {
          "name": "",
          "type": "bool",
          "internalType": "bool"
        }
      ],
      "stateMutability": "payable"
    },
    {
      "type": "function",
      "name": "multiRevoke",
      "inputs": [
        {
          "name": "attestations",
          "type": "tuple[]",
          "internalType": "struct Attestation[]",
          "components": [
            {
              "name": "uid",
              "type": "bytes32",
              "internalType": "bytes32"
            },
            {
              "name": "schema",
              "type": "bytes32",
              "internalType": "bytes32"
            },
            {
              "name": "time",
              "type": "uint64",
              "internalType": "uint64"
            },
            {
              "name": "expirationTime",
              "type": "uint64",
              "internalType": "uint64"
            },
            {
              "name": "revocationTime",
              "type": "uint64",
              "internalType": "uint64"
            },
            {
              "name": "refUID",
              "type": "bytes32",
              "internalType": "bytes32"
            },
            {
              "name": "recipient",
              "type": "address",
              "internalType": "address"
            },
            {
              "name": "attester",
              "type": "address",
              "internalType": "address"
            },
            {
              "name": "revocable",
              "type": "bool",
              "internalType": "bool"
            },
            {
              "name": "data",
              "type": "bytes",
              "internalType": "bytes"
            }
          ]
        },
        {
          "name": "values",
          "type": "uint256[]",
          "internalType": "uint256[]"
        }
      ],
      "outputs": [
        {
          "name": "",
          "type": "bool",
          "internalType": "bool"
        }
      ],
      "stateMutability": "payable"
    },
    {
      "type": "function",
      "name": "reclaim",
      "inputs": [
        {
          "name": "uid",
          "type": "bytes32",
          "internalType": "bytes32"
        }
      ],
      "outputs": [
        {
          "name": "",
          "type": "bool",
          "internalType": "bool"
        }
      ],
      "stateMutability": "nonpayable"
    },
    {
      "type": "function",
      "name": "revoke",
      "inputs": [
        {
          "name": "attestation",
          "type": "tuple",
          "internalType": "struct Attestation",
          "components": [
            {
              "name": "uid",
              "type": "bytes32",
              "internalType": "bytes32"
            },
            {
              "name": "schema",
              "type": "bytes32",
              "internalType": "bytes32"
            },
            {
              "name": "time",
              "type": "uint64",
              "internalType": "uint64"
            },
            {
              "name": "expirationTime",
              "type": "uint64",
              "internalType": "uint64"
            },
            {
              "name": "revocationTime",
              "type": "uint64",
              "internalType": "uint64"
            },
            {
              "name": "refUID",
              "type": "bytes32",
              "internalType": "bytes32"
            },
            {
              "name": "recipient",
              "type": "address",
              "internalType": "address"
            },
            {
              "name": "attester",
              "type": "address",
              "internalType": "address"
            },
            {
              "name": "revocable",
              "type": "bool",
              "internalType": "bool"
            },
            {
              "name": "data",
              "type": "bytes",
              "internalType": "bytes"
            }
          ]
        }
      ],
      "outputs": [
        {
          "name": "",
          "type": "bool",
          "internalType": "bool"
        }
      ],
      "stateMutability": "payable"
    },
    {
      "type": "function",
      "name": "version",
      "inputs": [],
      "outputs": [
        {
          "name": "",
          "type": "string",
          "internalType": "string"
        }
      ],
      "stateMutability": "view"
    },
    {
      "type": "event",
      "name": "EscrowCollected",
      "inputs": [
        {
          "name": "escrowUid",
          "type": "bytes32",
          "indexed": true,
          "internalType": "bytes32"
        },
        {
          "name": "fulfillmentUid",
          "type": "bytes32",
          "indexed": true,
          "internalType": "bytes32"
        },
        {
          "name": "fulfiller",
          "type": "address",
          "indexed": true,
          "internalType": "address"
        }
      ],
      "anonymous": false
    },
    {
      "type": "event",
      "name": "EscrowMade",
      "inputs": [
        {
          "name": "escrowUid",
          "type": "bytes32",
          "indexed": true,
          "internalType": "bytes32"
        },
        {
          "name": "escrower",
          "type": "address",
          "indexed": true,
          "internalType": "address"
        }
      ],
      "anonymous": false
    },
    {
      "type": "event",
      "name": "EscrowReclaimed",
      "inputs": [
        {
          "name": "escrowUid",
          "type": "bytes32",
          "indexed": true,
          "internalType": "bytes32"
        },
        {
          "name": "escrower",
          "type": "address",
          "indexed": true,
          "internalType": "address"
        }
      ],
      "anonymous": false
    },
    {
      "type": "error",
      "name": "AccessDenied",
      "inputs": []
    },
    {
      "type": "error",
      "name": "ArrayLengthMismatch",
      "inputs": []
    },
    {
      "type": "error",
      "name": "AttestationNotFound",
      "inputs": [
        {
          "name": "attestationId",
          "type": "bytes32",
          "internalType": "bytes32"
        }
      ]
    },
    {
      "type": "error",
      "name": "AttestationRevoked",
      "inputs": []
    },
    {
      "type": "error",
      "name": "DeadlineExpired",
      "inputs": []
    },
    {
      "type": "error",
      "name": "InsufficientValue",
      "inputs": []
    },
    {
      "type": "error",
      "name": "InvalidAttestationUid",
      "inputs": []
    },
    {
      "type": "error",
      "name": "InvalidEAS",
      "inputs": []
    },
    {
      "type": "error",
      "name": "InvalidEscrowAttestation",
      "inputs": []
    },
    {
      "type": "error",
      "name": "InvalidFulfillment",
      "inputs": []
    },
    {
      "type": "error",
      "name": "InvalidLength",
      "inputs": []
    },
    {
      "type": "error",
      "name": "NotFromThisAttester",
      "inputs": []
    },
    {
      "type": "error",
      "name": "NotPayable",
      "inputs": []
    },
    {
      "type": "error",
      "name": "ReentrancyGuardReentrantCall",
      "inputs": []
    },
    {
      "type": "error",
      "name": "RevocationFailed",
      "inputs": [
        {
          "name": "attestationId",
          "type": "bytes32",
          "internalType": "bytes32"
        }
      ]
    },
    {
      "type": "error",
      "name": "SchemaRegistrationFailed",
      "inputs": [
        {
          "name": "uid",
          "type": "bytes32",
          "internalType": "bytes32"
        }
      ]
    },
    {
      "type": "error",
      "name": "TooManyHooks",
      "inputs": [
        {
          "name": "provided",
          "type": "uint256",
          "internalType": "uint256"
        },
        {
          "name": "max",
          "type": "uint256",
          "internalType": "uint256"
        }
      ]
    },
    {
      "type": "error",
      "name": "UnauthorizedCall",
      "inputs": []
    },
    {
      "type": "error",
      "name": "ValueMismatch",
      "inputs": [
        {
          "name": "expected",
          "type": "uint256",
          "internalType": "uint256"
        },
        {
          "name": "received",
          "type": "uint256",
          "internalType": "uint256"
        }
      ]
    }
  ],
  "bytecode": {
    "object": "0x61018080604052346101ff57604081612ec080380380916100208285610203565b8339810103126101ff578051906001600160a01b038216908183036101ff57602001516001600160a01b03811691908281036101ff5760405191610065608084610203565b605383527f6164647265737320617262697465722c2062797465732064656d616e642c206160208401527f6464726573735b5d20686f6f6b732c2062797465735b5d20686f6f6b4461746160408401527f732c2075696e743235365b5d2076616c7565730000000000000000000000000060608401526001608052600360a0525f60c052156101f0578361010b9460e0526101205261010052600161016052309161031e565b6101405260017f9b779b17422d0df92223018b32b4d1fa46e071723d6817e2486d003becc55f00556040516129c690816104fa8239608051816113a4015260a051816113cf015260c051816113fa015260e051816126110152610100518161121b01526101205181818161020e0152818161078601528181610b2a01528181610da2015281816122c2015261280001526101405181818161013c015281816107c601528181610a1101528181610d53015281816111e90152818161136201528181611e1301526121a101526101605181818161086901528181610a5301526121eb0152f35b6341bc07ff60e11b5f5260045ffd5b5f80fd5b601f909101601f19168101906001600160401b0382119082101761022657604052565b634e487b7160e01b5f52604160045260245ffd5b6020818303126101ff578051906001600160401b0382116101ff5701906080828203126101ff5760405191608083016001600160401b03811184821017610226576040528051835260208101516001600160a01b03811681036101ff576020840152604081015180151581036101ff5760408401526060810151906001600160401b0382116101ff570181601f820112156101ff578051906001600160401b03821161022657604051926102f8601f8401601f191660200185610203565b828452602083830101116101ff57815f9260208093018386015e83010152606082015290565b929160405190602082018351926103686015602083818901978089885e810160018060601b03198860601b1683820152600160f81b60348201520301600a19810184520182610203565b5190206040516351753e3760e11b81526004810182905290956001600160a01b031693905f81602481885afa80156104795787915f916104df575b5051146104d9579060846020926040519485938492630c1af44f60e31b8452606060048501525180928160648601528585015e5f84838501015260018060a01b0316602483015260016044830152601f801991011681010301815f865af15f91816104a5575b5061048457505f602491604051928380926351753e3760e11b82528760048301525afa80156104795783915f91610457575b5051146104555750639e6113d560e01b5f5260045260245ffd5b565b61047391503d805f833e61046b8183610203565b81019061023a565b5f61043b565b6040513d5f823e3d90fd5b91928091508203610493575090565b639e6113d560e01b5f5260045260245ffd5b9091506020813d6020116104d1575b816104c160209383610203565b810103126101ff5751905f610409565b3d91506104b4565b50505050565b6104f391503d805f833e61046b8183610203565b5f6103a356fe6080806040526004361015610029575b50361561001a575f80fd5b631574f9f360e01b5f5260045ffd5b5f905f3560e01c90816306920f96146114a2575080634fa4467c1461148757806354fd4d50146113855780635bf2f20d1461134b5780636b122fe0146111aa578063760bd1181461114c57806388e5b2d9146110155780638da3721a1461103457806391db0b7e1461101557806393abe3dc14610fa757806396afb36514610d26578063b3b902d41461088e578063b587a5eb14610851578063c6ec507014610745578063c93844be14610506578063ce46e046146104ea578063e49617e1146104c5578063e60c3505146104c55763ea6ec49c0361000f57346104c25760403660031901126104c257600435602435610121612669565b61012a826127da565b610133826127da565b906020810151917f00000000000000000000000000000000000000000000000000000000000000008093036104b35761016b8261289c565b156104b3576101208201926101808451611cfd565b9060a08401518551036104a4576101968461289c565b156104a4576101dd6020918651936040518095819482936346d1b90d60e11b8452606060048501526101cb606485018c611fc7565b84810360031901602486015290611553565b604483019190915203916001600160a01b03165afa90811561049957889161045b575b501561044c576040518791907f00000000000000000000000000000000000000000000000000000000000000006001600160a01b031690610240816115c2565b88815283602082015260405192610256846115c2565b83526020830152803b156103bc57604051634692626760e01b8152825160048201526020928301518051602483015290920151604483015290919081908390606490829084905af19182610433575b50506102bf5763614cf93960e01b86526004859052602486fd5b9260c086959401906102e560018060a01b03835116945160208082518301019101611b13565b946102ef8661290e565b604086019560600192875b875180518210156103c05789906001600160a01b039061031b908490612888565b5116610328838851612888565b5190803b156103bc57888391610362838d9561037960405197889687958694630fa37a1f60e01b8652608060048701526084860190611553565b916024850152600319848303016044850152611fc7565b8c606483015203925af180156103b157610398575b50506001016102fa565b816103a291611613565b6103ad57888a61038e565b8880fd5b6040513d84823e3d90fd5b8280fd5b7ff96e77bc177ae8e2ff25185e7c6d85f8ba97c8bdd9d46933aac70a7a33edf6c08a61042f858789604051926103f7602085611613565b858452516040519687966001600160a01b03909216939180a460015f5160206129715f395f51905f5255602083526020830190611553565b0390f35b8161043d91611613565b61044857865f6102a5565b8680fd5b630ebe58ef60e11b8752600487fd5b90506020813d602011610491575b8161047660209383611613565b8101031261048d5761048790611a8b565b5f610200565b8780fd5b3d9150610469565b6040513d8a823e3d90fd5b630ebe58ef60e11b8952600489fd5b63629cd40b60e11b8652600486fd5b80fd5b60206104e06104d33661188a565b6104db61260f565b612650565b6040519015158152f35b50346104c257806003193601126104c257602090604051908152f35b50346104c25760203660031901126104c2576004356001600160401b0381116106f857610537903690600401611723565b610542929192611f9d565b508201916020818403126106f8578035906001600160401b0382116103bc57019060a0828403126104c2576040519161057a836115dd565b6105838161153f565b835260208101356001600160401b0381116103bc57846105a4918301611685565b602084015260408101356001600160401b0381116103bc57810184601f820112156103bc578035906105d582611afc565b916105e36040519384611613565b80835260208084019160051b8301019187831161072957602001905b82821061072d57505050604084015260608101356001600160401b0381116103bc57810184601f820112156103bc5780359061063a82611afc565b916106486040519384611613565b80835260208084019160051b830101918783116107295760208101915b8383106106fc575050505060608401526080810135906001600160401b0382116103bc57019280601f850112156106f8578335936106a285611afc565b926106b06040519485611613565b85845260208085019660051b8301019283116104c25750602001935b8185106106e857608084018390526040518061042f86826117db565b84358152602094850194016106cc565b5080fd5b82356001600160401b03811161048d5760209161071e8b848094870101611685565b815201920191610665565b8580fd5b6020809161073a8461153f565b8152019101906105ff565b50346104c25760203660031901126104c25761075f611f9d565b506107686126a1565b506040516328c44a9960e21b815260048035908201529080826024817f00000000000000000000000000000000000000000000000000000000000000006001600160a01b03165afa918215610844578192610820575b5060208201517f0000000000000000000000000000000000000000000000000000000000000000036108115761042f61080561012084015160208082518301019101611b13565b604051918291826117db565b635527981560e11b8152600490fd5b61083d9192503d8084833e6108358183611613565b8101906126ff565b905f6107be565b50604051903d90823e3d90fd5b50346104c257806003193601126104c25760206040517f000000000000000000000000000000000000000000000000000000000000000015158152f35b5060603660031901126104c2576004356001600160401b0381116106f8576108ba903690600401611723565b6108d16108c5611515565b9260443592369161164f565b906108da612669565b8151916108ef60208083019483010184611b13565b6108f88161290e565b85869460808301915b8251805188101561093f578761091691612888565b51810180911161092b57600190960195610901565b634e487b7160e01b89526011600452602489fd5b509550868895873403610d0e578680985094965084956060604089019801965b88518051821015610a0b576001600160a01b039061097e908390612888565b511661098b828851612888565b5190610998838b51612888565b51813b15610a075789916109ca91604051948580948193631dc8160b60e01b8352606060048401526064830190611553565b33602483015230604483015203925af19081156104995788916109f2575b505060010161095f565b816109fc91611613565b61044857868b6109e8565b8980fd5b505085937f0000000000000000000000000000000000000000000000000000000000000000916001600160401b0360405195610a46876115f8565b33875216938460208701527f00000000000000000000000000000000000000000000000000000000000000001515948560408801528160608801528260808801528760a08801526020604051610a9b816115c2565b8681528181019889526040518099819263f17325e760e01b8352846004840152516024830152516040604483015260018060a01b0381511660648301526001600160401b03848201511660848301526040810151151560a4830152606081015160c483015260a0610b1c608083015160c060e4860152610124850190611553565b91015161010483015203818b7f00000000000000000000000000000000000000000000000000000000000000006001600160a01b03165af1968715610499578897610cd1575b5091602091610bc7949360409897985196610b7c886115a6565b888852848801526001600160401b0342166040880152606087015288608087015260a086015260c08501963388523060e0870152610100860152806101208601528051010190611b13565b92610bd18461290e565b604084019360600192855b85518051821015610c815787906001600160a01b0390610bfd908490612888565b5116610c0a838851612888565b5190803b156103bc57610c418391610c53938360405180968195829463be1e753b60e01b8452604060048501526044840190611553565b8281036003190160248401528d611fc7565b03925af180156103b157610c6c575b5050600101610bdc565b81610c7691611613565b610448578688610c62565b8451845160209185916001600160a01b0316907f8f7f2dbafd79125e808bf16a53d7fa4e17b8b6374ced76d946a45f94b7bf4d068c80a360015f5160206129715f395f51905f5255604051908152f35b9193929096506020823d602011610d06575b81610cf060209383611613565b8101031261048d57905195919290916020610b62565b3d9150610ce3565b630626ade360e41b8752600488905234602452604487fd5b5034610f85576020366003190112610f8557600435610d43612669565b610d4c816127da565b60208101517f0000000000000000000000000000000000000000000000000000000000000000809103610f9857606082016001600160401b0381511615610f8957516001600160401b03164210610f89576040517f00000000000000000000000000000000000000000000000000000000000000006001600160a01b031690610dd4816115c2565b8481525f602082015260405192610dea846115c2565b83526020830152803b15610f8557604051634692626760e01b815282516004820152602092830151805160248301529092015160448301525f908290606490829084905af19081610f70575b50610e4f5763614cf93960e01b83526004829052602483fd5b9060c082019160018060a01b0383511691610e7861012083015160208082518301019101611b13565b93610e828561290e565b604085019460600191865b86518051821015610f235788906001600160a01b0390610eae908490612888565b5116610ebb838751612888565b5190803b156103bc57878391610362838c95610ef56040519788968795869463561ca52560e01b8652606060048701526064860190611553565b03925af180156103b157610f0e575b5050600101610e8d565b81610f1891611613565b61048d57875f610f04565b83516040516020916001600160a01b0316857f655ef333d5efcbf5aa343f02bcd9e3539f9c9f9ee8b9cfa7d8910b1bd7e0a8328d80a360015f5160206129715f395f51905f525560018152f35b610f7d9194505f90611613565b5f925f610e36565b5f80fd5b637bf6a16f60e01b5f5260045ffd5b63629cd40b60e11b5f5260045ffd5b6040366003190112610f85576004356001600160401b038111610f855760a06003198236030112610f855761100d610ff8602092611006610fe6611515565b91604051938491600401878301611943565b03601f198101845283611613565b3391612066565b604051908152f35b60206104e0611023366116d3565b9261102f92919261260f565b611d26565b34610f85576060366003190112610f85576004356001600160401b038111610f85576101406003198236030112610f855760405190611072826115a6565b806004013582526024810135602083015261108f6044820161152b565b60408301526110a06064820161152b565b60608301526110b16084820161152b565b608083015260a481013560a08301526110cc60c4820161153f565b60c08301526110dd60e4820161153f565b60e08301526101048101358015158103610f8557610100830152610124810135906001600160401b038211610f8557600461111b9236920101611685565b6101208201526024356001600160401b038111610f85576020916111466104e0923690600401611685565b90611e0c565b34610f85576020366003190112610f85576004356001600160401b038111610f855761117f611184913690600401611685565b611cfd565b604080516001600160a01b03909316835260208301819052829161042f91830190611553565b34610f85575f366003190112610f85576060806040516111c981611577565b5f81525f60208201525f604082015201526040516351753e3760e11b81527f000000000000000000000000000000000000000000000000000000000000000060048201525f8160248160018060a01b037f0000000000000000000000000000000000000000000000000000000000000000165afa8015611340575f90611290575b60609061042f604051928392602084528051602085015260018060a01b0360208201511660408501526040810151151582850152015160808084015260a0830190611553565b503d805f833e6112a08183611613565b810190602081830312610f85578051906001600160401b038211610f855701608081830312610f8557604051906112d682611577565b8051825260208101516001600160a01b0381168103610f8557602083015261130060408201611a8b565b60408301526060810151906001600160401b038211610f85570182601f82011215610f855760609281602061133793519101611a98565b8282015261124a565b6040513d5f823e3d90fd5b34610f85575f366003190112610f855760206040517f00000000000000000000000000000000000000000000000000000000000000008152f35b34610f85575f366003190112610f855761042f602061147360016113c87f00000000000000000000000000000000000000000000000000000000000000006124a2565b81846113f37f00000000000000000000000000000000000000000000000000000000000000006124a2565b818061141e7f00000000000000000000000000000000000000000000000000000000000000006124a2565b9260405199878b985191829101848a015e870190601760f91b83830152805192839101602183015e010190601760f91b84830152805192839101600283015e01015f838201520301601f198101835282611613565b604051918291602083526020830190611553565b34610f85575f366003190112610f8557602060405160328152f35b6060366003190112610f85576004356001600160401b038111610f855760a06003198236030112610f85576114d5611515565b604435906001600160a01b0382168203610f85578361151060209561150261100d96600401888301611943565b03601f198101835282611613565b612066565b602435906001600160401b0382168203610f8557565b35906001600160401b0382168203610f8557565b35906001600160a01b0382168203610f8557565b805180835260209291819084018484015e5f828201840152601f01601f1916010190565b608081019081106001600160401b0382111761159257604052565b634e487b7160e01b5f52604160045260245ffd5b61014081019081106001600160401b0382111761159257604052565b604081019081106001600160401b0382111761159257604052565b60a081019081106001600160401b0382111761159257604052565b60c081019081106001600160401b0382111761159257604052565b90601f801991011681019081106001600160401b0382111761159257604052565b6001600160401b03811161159257601f01601f191660200190565b92919261165b82611634565b916116696040519384611613565b829481845281830111610f85578281602093845f960137010152565b9080601f83011215610f85578160206116a09335910161164f565b90565b9181601f84011215610f85578235916001600160401b038311610f85576020808501948460051b010111610f8557565b6040600319820112610f85576004356001600160401b038111610f8557816116fd916004016116a3565b92909291602435906001600160401b038211610f855761171f916004016116a3565b9091565b9181601f84011215610f85578235916001600160401b038311610f855760208381860195010111610f8557565b9080602083519182815201916020808360051b8301019401925f915b83831061177b57505050505090565b9091929394602080611799600193601f198682030187528951611553565b9701930193019193929061176c565b90602080835192838152019201905f5b8181106117c55750505090565b82518452602093840193909201916001016117b8565b602080825282516001600160a01b03168183015282015160a060408301529092919061180b9060c0850190611553565b92604082015193601f19828203016060830152602080865192838152019501905f5b81811061186b5750505060806118566116a094956060850151601f198583030184860152611750565b9201519060a0601f19828503019101526117a8565b82516001600160a01b031687526020968701969092019160010161182d565b6020600319820112610f8557600435906001600160401b038211610f8557610140908290036003190112610f855760040190565b9035601e1982360301811215610f855701602081359101916001600160401b038211610f85578136038313610f8557565b908060209392818452848401375f828201840152601f01601f1916010190565b9035601e1982360301811215610f855701602081359101916001600160401b038211610f85578160051b36038313610f8557565b602081526001600160a01b036119588361153f565b16602082015261197f61196e60208401846118be565b60a0604085015260c08401916118ef565b91602061198f604083018361190f565b848603601f1901606086015280865294909101935f5b818110611a65575050506119bc606082018261190f565b601f19848603016080850152808552602085019460208260051b82010195835f925b848410611a2d575050505050508060806119f992019061190f565b828403601f190160a09093019290925281835290916001600160fb1b038311610f855760209260051b809284830137010190565b909192939497602080611a55600193601f19868203018852611a4f8d886118be565b906118ef565b9a019401940192949391906119de565b909194602080600192838060a01b03611a7d8a61153f565b1681520196019291016119a5565b51908115158203610f8557565b929192611aa482611634565b91611ab26040519384611613565b829481845281830111610f85578281602093845f96015e010152565b51906001600160a01b0382168203610f8557565b9080601f83011215610f855781516116a092602001611a98565b6001600160401b0381116115925760051b60200190565b602081830312610f85578051906001600160401b038211610f8557019060a082820312610f855760405191611b47836115dd565b611b5081611ace565b835260208101516001600160401b038111610f855782611b71918301611ae2565b602084015260408101516001600160401b038111610f8557810182601f82011215610f8557805190611ba282611afc565b91611bb06040519384611613565b80835260208084019160051b83010191858311610f8557602001905b828210611ce557505050604084015260608101516001600160401b038111610f8557810182601f82011215610f85578051611c0681611afc565b91611c146040519384611613565b81835260208084019260051b82010191858311610f855760208201905b838210611cb8575050505060608401526080810151906001600160401b038211610f8557019080601f83011215610f85578151611c6d81611afc565b92611c7b6040519485611613565b81845260208085019260051b820101928311610f8557602001905b828210611ca857505050608082015290565b8151815260209182019101611c96565b81516001600160401b038111610f8557602091611cda89848094880101611ae2565b815201910190611c31565b60208091611cf284611ace565b815201910190611bcc565b611d109060208082518301019101611b13565b80516020909101516001600160a01b0390911691565b929092818403611dbb575f91345b85841015611db05781841015611d9c578360051b8086013590828211611d8d5784013561013e1985360301811215610f8557611d71908501612650565b15611d825760019103930192611d34565b505050505050505f90565b63044044a560e21b5f5260045ffd5b634e487b7160e01b5f52603260045260245ffd5b505050505050600190565b63251f56a160e21b5f5260045ffd5b60206040818301928281528451809452019201905f5b818110611ded5750505090565b82516001600160a01b0316845260209384019390920191600101611de0565b60208101517f000000000000000000000000000000000000000000000000000000000000000003611f9757611e52610120611e6292015160208082518301019101611b13565b9160208082518301019101611b13565b815181516001600160a01b039081169116149182611f76575b82611f33575b82611ee0575b82611e9157505090565b6080919250810151604051611eb68161150260208201946020865260408301906117a8565b519020910151604051611ed98161150260208201946020865260408301906117a8565b5190201490565b91506060820151604051611f04816115026020820194602086526040830190611750565b5190206060820151604051611f29816115026020820194602086526040830190611750565b5190201491611e87565b91506040820151604051611f4f81611502602082019485611dca565b5190206040820151604051611f6c81611502602082019485611dca565b5190201491611e81565b91506020820151602081519101206020820151602081519101201491611e7b565b50505f90565b60405190611faa826115dd565b60606080835f815282602082015282604082015282808201520152565b906101406101206116a09380518452602081015160208501526001600160401b0360408201511660408501526001600160401b0360608201511660608501526001600160401b03608082015116608085015260a081015160a085015260018060a01b0360c08201511660c085015260018060a01b0360e08201511660e08501526101008101511515610100850152015191816101208201520190611553565b9061206f612669565b81519061208460208085019385010183611b13565b9161208e8361290e565b5f905f9660808501925b835180518a10156120d657896120ad91612888565b5181018091116120c257600190980197612098565b634e487b7160e01b5f52601160045260245ffd5b5090939692959194975080340361248c57506060870196604001955f5b87518051821015612195576001600160a01b0390612112908390612888565b511690612120818951612888565b519161212d828c51612888565b51813b15610f85575f9161215f91604051958680948193631dc8160b60e01b8352606060048401526064830190611553565b33602483015230604483015203925af191821561134057600192612185575b50016120f3565b5f61218f91611613565b5f61217e565b505093929650935093507f0000000000000000000000000000000000000000000000000000000000000000926001600160401b03604051956121d6876115f8565b60018060a01b031693848752168060208701527f00000000000000000000000000000000000000000000000000000000000000001515908160408801525f60608801528260808801525f60a08801526020604051612233816115c2565b8781528181019889526040518099819263f17325e760e01b8352846004840152516024830152516040604483015260018060a01b0381511660648301526001600160401b03848201511660848301526040810151151560a4830152606081015160c483015260a06122b4608083015160c060e4860152610124850190611553565b91015161010483015203815f7f00000000000000000000000000000000000000000000000000000000000000006001600160a01b03165af1968715611340575f9761244f575b509160209161235f949360409998995197612314896115a6565b8a8952848901526001600160401b034216604089015260608801525f60808801525f60a088015260c087019586523060e0880152610100870152806101208701528051010190611b13565b926123698461290e565b5f946060604086019501955b85518051821015612403576001600160a01b0390612394908390612888565b5116906123a2818951612888565b5191803b15610f8557610c415f916123d9948360405180978195829463be1e753b60e01b8452604060048501526044840190611553565b03925af1918215611340576001926123f3575b5001612375565b5f6123fd91611613565b5f6123ec565b50509350935090519060018060a01b03905116907f8f7f2dbafd79125e808bf16a53d7fa4e17b8b6374ced76d946a45f94b7bf4d065f80a39060015f5160206129715f395f51905f5255565b9193929096506020823d602011612484575b8161246e60209383611613565b81010312610f85579051959192909160206122fa565b3d9150612461565b630626ade360e41b5f526004523460245260445ffd5b805f9172184f03e93ff9f4daa797ed6e38ed64bf6a1f0160401b8210156125ec575b806d04ee2d6d415b85acef8100000000600a9210156125d1575b662386f26fc100008110156125bd575b6305f5e1008110156125ac575b61271081101561259d575b606481101561258f575b1015612584575b600a6021600184019361252985611634565b946125376040519687611613565b808652612546601f1991611634565b013660208701378401015b5f1901916f181899199a1a9b1b9c1cb0b131b232b360811b8282061a835304801561257f57600a9091612551565b505090565b600190910190612517565b606460029104930192612510565b61271060049104930192612506565b6305f5e100600891049301926124fb565b662386f26fc10000601091049301926124ee565b6d04ee2d6d415b85acef8100000000602091049301926124de565b506040915072184f03e93ff9f4daa797ed6e38ed64bf6a1f0160401b81046124c4565b7f00000000000000000000000000000000000000000000000000000000000000006001600160a01b0316330361264157565b634ca8886760e01b5f5260045ffd5b60e0013560018060a01b038116809103610f8557301490565b60025f5160206129715f395f51905f5254146126925760025f5160206129715f395f51905f5255565b633ee5aeb560e01b5f5260045ffd5b604051906126ae826115a6565b6060610120835f81525f60208201525f60408201525f838201525f60808201525f60a08201525f60c08201525f60e08201525f6101008201520152565b51906001600160401b0382168203610f8557565b602081830312610f85578051906001600160401b038211610f85570161014081830312610f855760405191612733836115a6565b815183526020820151602084015261274d604083016126eb565b604084015261275e606083016126eb565b606084015261276f608083016126eb565b608084015260a082015160a084015261278a60c08301611ace565b60c084015261279b60e08301611ace565b60e08401526127ad6101008301611a8b565b6101008401526101208201516001600160401b038111610f85576127d19201611ae2565b61012082015290565b906127e36126a1565b506040516328c44a9960e21b815260048101839052915f836024817f00000000000000000000000000000000000000000000000000000000000000006001600160a01b03165afa928315611340575f9361286c575b508251818115918215612861575b505061284f5750565b6301fb6dd160e01b5f5260045260245ffd5b14159050815f612846565b6128819193503d805f833e6108358183611613565b915f612838565b8051821015611d9c5760209160051b010190565b8051156128ff576001600160401b0360608201511680151590816128f4575b506128e557608001516001600160401b03166128d657600190565b637b6227e960e11b5f5260045ffd5b631ab7da6b60e01b5f5260045ffd5b90504210155f6128bb565b635c2c7f8960e01b5f5260045ffd5b6040810190815151606082015151811491821592612960575b50506129515751516032811161293a5750565b630e9407b360e11b5f52600452603260245260445ffd5b63512509d360e11b5f5260045ffd5b6080015151141590505f8061292756fe9b779b17422d0df92223018b32b4d1fa46e071723d6817e2486d003becc55f00a264697066735822122054f14e6769627e5d2952bab7d924ea0d423ef7400d00226838d0936d1903149364736f6c634300081b0033",
    "linkReferences": {}
  },
  "methodIdentifiers": {
    "ATTESTATION_SCHEMA()": "5bf2f20d",
    "ATTESTATION_SCHEMA_REVOCABLE()": "b587a5eb",
    "MAX_HOOKS()": "4fa4467c",
    "attest((bytes32,bytes32,uint64,uint64,uint64,bytes32,address,address,bool,bytes))": "e60c3505",
    "check((bytes32,bytes32,uint64,uint64,uint64,bytes32,address,address,bool,bytes),bytes,bytes32)": "8da3721a",
    "collect(bytes32,bytes32)": "ea6ec49c",
    "decodeCondition(bytes)": "760bd118",
    "decodeObligationData(bytes)": "c93844be",
    "doObligation((address,bytes,address[],bytes[],uint256[]),uint64)": "93abe3dc",
    "doObligationFor((address,bytes,address[],bytes[],uint256[]),uint64,address)": "06920f96",
    "doObligationRaw(bytes,uint64,bytes32)": "b3b902d4",
    "getObligationData(bytes32)": "c6ec5070",
    "getSchema()": "6b122fe0",
    "isPayable()": "ce46e046",
    "multiAttest((bytes32,bytes32,uint64,uint64,uint64,bytes32,address,address,bool,bytes)[],uint256[])": "91db0b7e",
    "multiRevoke((bytes32,bytes32,uint64,uint64,uint64,bytes32,address,address,bool,bytes)[],uint256[])": "88e5b2d9",
    "reclaim(bytes32)": "96afb365",
    "revoke((bytes32,bytes32,uint64,uint64,uint64,bytes32,address,address,bool,bytes))": "e49617e1",
    "version()": "54fd4d50"
  },
  "id": 102
}