{
  "abi": [
    {
      "type": "constructor",
      "inputs": [
        {
          "name": "_eas",
          "type": "address",
          "internalType": "contract IEAS"
        },
        {
          "name": "_schemaRegistry",
          "type": "address",
          "internalType": "contract ISchemaRegistry"
        }
      ],
      "stateMutability": "nonpayable"
    },
    {
      "type": "receive",
      "stateMutability": "payable"
    },
    {
      "type": "function",
      "name": "ATTESTATION_SCHEMA",
      "inputs": [],
      "outputs": [
        {
          "name": "",
          "type": "bytes32",
          "internalType": "bytes32"
        }
      ],
      "stateMutability": "view"
    },
    {
      "type": "function",
      "name": "ATTESTATION_SCHEMA_REVOCABLE",
      "inputs": [],
      "outputs": [
        {
          "name": "",
          "type": "bool",
          "internalType": "bool"
        }
      ],
      "stateMutability": "view"
    },
    {
      "type": "function",
      "name": "MAX_HOOKS",
      "inputs": [],
      "outputs": [
        {
          "name": "",
          "type": "uint256",
          "internalType": "uint256"
        }
      ],
      "stateMutability": "view"
    },
    {
      "type": "function",
      "name": "attest",
      "inputs": [
        {
          "name": "attestation",
          "type": "tuple",
          "internalType": "struct Attestation",
          "components": [
            {
              "name": "uid",
              "type": "bytes32",
              "internalType": "bytes32"
            },
            {
              "name": "schema",
              "type": "bytes32",
              "internalType": "bytes32"
            },
            {
              "name": "time",
              "type": "uint64",
              "internalType": "uint64"
            },
            {
              "name": "expirationTime",
              "type": "uint64",
              "internalType": "uint64"
            },
            {
              "name": "revocationTime",
              "type": "uint64",
              "internalType": "uint64"
            },
            {
              "name": "refUID",
              "type": "bytes32",
              "internalType": "bytes32"
            },
            {
              "name": "recipient",
              "type": "address",
              "internalType": "address"
            },
            {
              "name": "attester",
              "type": "address",
              "internalType": "address"
            },
            {
              "name": "revocable",
              "type": "bool",
              "internalType": "bool"
            },
            {
              "name": "data",
              "type": "bytes",
              "internalType": "bytes"
            }
          ]
        }
      ],
      "outputs": [
        {
          "name": "",
          "type": "bool",
          "internalType": "bool"
        }
      ],
      "stateMutability": "payable"
    },
    {
      "type": "function",
      "name": "check",
      "inputs": [
        {
          "name": "obligation",
          "type": "tuple",
          "internalType": "struct Attestation",
          "components": [
            {
              "name": "uid",
              "type": "bytes32",
              "internalType": "bytes32"
            },
            {
              "name": "schema",
              "type": "bytes32",
              "internalType": "bytes32"
            },
            {
              "name": "time",
              "type": "uint64",
              "internalType": "uint64"
            },
            {
              "name": "expirationTime",
              "type": "uint64",
              "internalType": "uint64"
            },
            {
              "name": "revocationTime",
              "type": "uint64",
              "internalType": "uint64"
            },
            {
              "name": "refUID",
              "type": "bytes32",
              "internalType": "bytes32"
            },
            {
              "name": "recipient",
              "type": "address",
              "internalType": "address"
            },
            {
              "name": "attester",
              "type": "address",
              "internalType": "address"
            },
            {
              "name": "revocable",
              "type": "bool",
              "internalType": "bool"
            },
            {
              "name": "data",
              "type": "bytes",
              "internalType": "bytes"
            }
          ]
        },
        {
          "name": "demand",
          "type": "bytes",
          "internalType": "bytes"
        },
        {
          "name": "",
          "type": "bytes32",
          "internalType": "bytes32"
        }
      ],
      "outputs": [
        {
          "name": "",
          "type": "bool",
          "internalType": "bool"
        }
      ],
      "stateMutability": "view"
    },
    {
      "type": "function",
      "name": "collect",
      "inputs": [
        {
          "name": "_escrow",
          "type": "bytes32",
          "internalType": "bytes32"
        },
        {
          "name": "_fulfillment",
          "type": "bytes32",
          "internalType": "bytes32"
        }
      ],
      "outputs": [
        {
          "name": "",
          "type": "bytes",
          "internalType": "bytes"
        }
      ],
      "stateMutability": "nonpayable"
    },
    {
      "type": "function",
      "name": "decodeCondition",
      "inputs": [
        {
          "name": "data",
          "type": "bytes",
          "internalType": "bytes"
        }
      ],
      "outputs": [
        {
          "name": "arbiter",
          "type": "address",
          "internalType": "address"
        },
        {
          "name": "demand",
          "type": "bytes",
          "internalType": "bytes"
        }
      ],
      "stateMutability": "pure"
    },
    {
      "type": "function",
      "name": "decodeObligationData",
      "inputs": [
        {
          "name": "data",
          "type": "bytes",
          "internalType": "bytes"
        }
      ],
      "outputs": [
        {
          "name": "",
          "type": "tuple",
          "internalType": "struct HooksEscrowObligation.ObligationData",
          "components": [
            {
              "name": "arbiter",
              "type": "address",
              "internalType": "address"
            },
            {
              "name": "demand",
              "type": "bytes",
              "internalType": "bytes"
            },
            {
              "name": "hooks",
              "type": "address[]",
              "internalType": "address[]"
            },
            {
              "name": "hookDatas",
              "type": "bytes[]",
              "internalType": "bytes[]"
            },
            {
              "name": "values",
              "type": "uint256[]",
              "internalType": "uint256[]"
            }
          ]
        }
      ],
      "stateMutability": "pure"
    },
    {
      "type": "function",
      "name": "doObligation",
      "inputs": [
        {
          "name": "data",
          "type": "tuple",
          "internalType": "struct HooksEscrowObligation.ObligationData",
          "components": [
            {
              "name": "arbiter",
              "type": "address",
              "internalType": "address"
            },
            {
              "name": "demand",
              "type": "bytes",
              "internalType": "bytes"
            },
            {
              "name": "hooks",
              "type": "address[]",
              "internalType": "address[]"
            },
            {
              "name": "hookDatas",
              "type": "bytes[]",
              "internalType": "bytes[]"
            },
            {
              "name": "values",
              "type": "uint256[]",
              "internalType": "uint256[]"
            }
          ]
        },
        {
          "name": "expirationTime",
          "type": "uint64",
          "internalType": "uint64"
        }
      ],
      "outputs": [
        {
          "name": "",
          "type": "bytes32",
          "internalType": "bytes32"
        }
      ],
      "stateMutability": "payable"
    },
    {
      "type": "function",
      "name": "doObligationFor",
      "inputs": [
        {
          "name": "data",
          "type": "tuple",
          "internalType": "struct HooksEscrowObligation.ObligationData",
          "components": [
            {
              "name": "arbiter",
              "type": "address",
              "internalType": "address"
            },
            {
              "name": "demand",
              "type": "bytes",
              "internalType": "bytes"
            },
            {
              "name": "hooks",
              "type": "address[]",
              "internalType": "address[]"
            },
            {
              "name": "hookDatas",
              "type": "bytes[]",
              "internalType": "bytes[]"
            },
            {
              "name": "values",
              "type": "uint256[]",
              "internalType": "uint256[]"
            }
          ]
        },
        {
          "name": "expirationTime",
          "type": "uint64",
          "internalType": "uint64"
        },
        {
          "name": "recipient",
          "type": "address",
          "internalType": "address"
        }
      ],
      "outputs": [
        {
          "name": "",
          "type": "bytes32",
          "internalType": "bytes32"
        }
      ],
      "stateMutability": "payable"
    },
    {
      "type": "function",
      "name": "doObligationRaw",
      "inputs": [
        {
          "name": "data",
          "type": "bytes",
          "internalType": "bytes"
        },
        {
          "name": "expirationTime",
          "type": "uint64",
          "internalType": "uint64"
        },
        {
          "name": "refUID",
          "type": "bytes32",
          "internalType": "bytes32"
        }
      ],
      "outputs": [
        {
          "name": "uid_",
          "type": "bytes32",
          "internalType": "bytes32"
        }
      ],
      "stateMutability": "payable"
    },
    {
      "type": "function",
      "name": "getObligationData",
      "inputs": [
        {
          "name": "uid",
          "type": "bytes32",
          "internalType": "bytes32"
        }
      ],
      "outputs": [
        {
          "name": "",
          "type": "tuple",
          "internalType": "struct HooksEscrowObligation.ObligationData",
          "components": [
            {
              "name": "arbiter",
              "type": "address",
              "internalType": "address"
            },
            {
              "name": "demand",
              "type": "bytes",
              "internalType": "bytes"
            },
            {
              "name": "hooks",
              "type": "address[]",
              "internalType": "address[]"
            },
            {
              "name": "hookDatas",
              "type": "bytes[]",
              "internalType": "bytes[]"
            },
            {
              "name": "values",
              "type": "uint256[]",
              "internalType": "uint256[]"
            }
          ]
        }
      ],
      "stateMutability": "view"
    },
    {
      "type": "function",
      "name": "getSchema",
      "inputs": [],
      "outputs": [
        {
          "name": "",
          "type": "tuple",
          "internalType": "struct SchemaRecord",
          "components": [
            {
              "name": "uid",
              "type": "bytes32",
              "internalType": "bytes32"
            },
            {
              "name": "resolver",
              "type": "address",
              "internalType": "contract ISchemaResolver"
            },
            {
              "name": "revocable",
              "type": "bool",
              "internalType": "bool"
            },
            {
              "name": "schema",
              "type": "string",
              "internalType": "string"
            }
          ]
        }
      ],
      "stateMutability": "view"
    },
    {
      "type": "function",
      "name": "isPayable",
      "inputs": [],
      "outputs": [
        {
          "name": "",
          "type": "bool",
          "internalType": "bool"
        }
      ],
      "stateMutability": "pure"
    },
    {
      "type": "function",
      "name": "multiAttest",
      "inputs": [
        {
          "name": "attestations",
          "type": "tuple[]",
          "internalType": "struct Attestation[]",
          "components": [
            {
              "name": "uid",
              "type": "bytes32",
              "internalType": "bytes32"
            },
            {
              "name": "schema",
              "type": "bytes32",
              "internalType": "bytes32"
            },
            {
              "name": "time",
              "type": "uint64",
              "internalType": "uint64"
            },
            {
              "name": "expirationTime",
              "type": "uint64",
              "internalType": "uint64"
            },
            {
              "name": "revocationTime",
              "type": "uint64",
              "internalType": "uint64"
            },
            {
              "name": "refUID",
              "type": "bytes32",
              "internalType": "bytes32"
            },
            {
              "name": "recipient",
              "type": "address",
              "internalType": "address"
            },
            {
              "name": "attester",
              "type": "address",
              "internalType": "address"
            },
            {
              "name": "revocable",
              "type": "bool",
              "internalType": "bool"
            },
            {
              "name": "data",
              "type": "bytes",
              "internalType": "bytes"
            }
          ]
        },
        {
          "name": "values",
          "type": "uint256[]",
          "internalType": "uint256[]"
        }
      ],
      "outputs": [
        {
          "name": "",
          "type": "bool",
          "internalType": "bool"
        }
      ],
      "stateMutability": "payable"
    },
    {
      "type": "function",
      "name": "multiRevoke",
      "inputs": [
        {
          "name": "attestations",
          "type": "tuple[]",
          "internalType": "struct Attestation[]",
          "components": [
            {
              "name": "uid",
              "type": "bytes32",
              "internalType": "bytes32"
            },
            {
              "name": "schema",
              "type": "bytes32",
              "internalType": "bytes32"
            },
            {
              "name": "time",
              "type": "uint64",
              "internalType": "uint64"
            },
            {
              "name": "expirationTime",
              "type": "uint64",
              "internalType": "uint64"
            },
            {
              "name": "revocationTime",
              "type": "uint64",
              "internalType": "uint64"
            },
            {
              "name": "refUID",
              "type": "bytes32",
              "internalType": "bytes32"
            },
            {
              "name": "recipient",
              "type": "address",
              "internalType": "address"
            },
            {
              "name": "attester",
              "type": "address",
              "internalType": "address"
            },
            {
              "name": "revocable",
              "type": "bool",
              "internalType": "bool"
            },
            {
              "name": "data",
              "type": "bytes",
              "internalType": "bytes"
            }
          ]
        },
        {
          "name": "values",
          "type": "uint256[]",
          "internalType": "uint256[]"
        }
      ],
      "outputs": [
        {
          "name": "",
          "type": "bool",
          "internalType": "bool"
        }
      ],
      "stateMutability": "payable"
    },
    {
      "type": "function",
      "name": "reclaim",
      "inputs": [
        {
          "name": "uid",
          "type": "bytes32",
          "internalType": "bytes32"
        }
      ],
      "outputs": [
        {
          "name": "",
          "type": "bool",
          "internalType": "bool"
        }
      ],
      "stateMutability": "nonpayable"
    },
    {
      "type": "function",
      "name": "revoke",
      "inputs": [
        {
          "name": "attestation",
          "type": "tuple",
          "internalType": "struct Attestation",
          "components": [
            {
              "name": "uid",
              "type": "bytes32",
              "internalType": "bytes32"
            },
            {
              "name": "schema",
              "type": "bytes32",
              "internalType": "bytes32"
            },
            {
              "name": "time",
              "type": "uint64",
              "internalType": "uint64"
            },
            {
              "name": "expirationTime",
              "type": "uint64",
              "internalType": "uint64"
            },
            {
              "name": "revocationTime",
              "type": "uint64",
              "internalType": "uint64"
            },
            {
              "name": "refUID",
              "type": "bytes32",
              "internalType": "bytes32"
            },
            {
              "name": "recipient",
              "type": "address",
              "internalType": "address"
            },
            {
              "name": "attester",
              "type": "address",
              "internalType": "address"
            },
            {
              "name": "revocable",
              "type": "bool",
              "internalType": "bool"
            },
            {
              "name": "data",
              "type": "bytes",
              "internalType": "bytes"
            }
          ]
        }
      ],
      "outputs": [
        {
          "name": "",
          "type": "bool",
          "internalType": "bool"
        }
      ],
      "stateMutability": "payable"
    },
    {
      "type": "function",
      "name": "version",
      "inputs": [],
      "outputs": [
        {
          "name": "",
          "type": "string",
          "internalType": "string"
        }
      ],
      "stateMutability": "view"
    },
    {
      "type": "event",
      "name": "EscrowCollected",
      "inputs": [
        {
          "name": "escrowUid",
          "type": "bytes32",
          "indexed": true,
          "internalType": "bytes32"
        },
        {
          "name": "fulfillmentUid",
          "type": "bytes32",
          "indexed": true,
          "internalType": "bytes32"
        },
        {
          "name": "fulfiller",
          "type": "address",
          "indexed": true,
          "internalType": "address"
        }
      ],
      "anonymous": false
    },
    {
      "type": "event",
      "name": "EscrowMade",
      "inputs": [
        {
          "name": "escrowUid",
          "type": "bytes32",
          "indexed": true,
          "internalType": "bytes32"
        },
        {
          "name": "escrower",
          "type": "address",
          "indexed": true,
          "internalType": "address"
        }
      ],
      "anonymous": false
    },
    {
      "type": "error",
      "name": "AccessDenied",
      "inputs": []
    },
    {
      "type": "error",
      "name": "ArrayLengthMismatch",
      "inputs": []
    },
    {
      "type": "error",
      "name": "AttestationNotFound",
      "inputs": [
        {
          "name": "attestationId",
          "type": "bytes32",
          "internalType": "bytes32"
        }
      ]
    },
    {
      "type": "error",
      "name": "AttestationRevoked",
      "inputs": []
    },
    {
      "type": "error",
      "name": "DeadlineExpired",
      "inputs": []
    },
    {
      "type": "error",
      "name": "InsufficientValue",
      "inputs": []
    },
    {
      "type": "error",
      "name": "InvalidAttestationUid",
      "inputs": []
    },
    {
      "type": "error",
      "name": "InvalidEAS",
      "inputs": []
    },
    {
      "type": "error",
      "name": "InvalidEscrowAttestation",
      "inputs": []
    },
    {
      "type": "error",
      "name": "InvalidFulfillment",
      "inputs": []
    },
    {
      "type": "error",
      "name": "InvalidLength",
      "inputs": []
    },
    {
      "type": "error",
      "name": "NotFromThisAttester",
      "inputs": []
    },
    {
      "type": "error",
      "name": "NotPayable",
      "inputs": []
    },
    {
      "type": "error",
      "name": "ReentrancyGuardReentrantCall",
      "inputs": []
    },
    {
      "type": "error",
      "name": "RevocationFailed",
      "inputs": [
        {
          "name": "attestationId",
          "type": "bytes32",
          "internalType": "bytes32"
        }
      ]
    },
    {
      "type": "error",
      "name": "SchemaRegistrationFailed",
      "inputs": [
        {
          "name": "uid",
          "type": "bytes32",
          "internalType": "bytes32"
        }
      ]
    },
    {
      "type": "error",
      "name": "TooManyHooks",
      "inputs": [
        {
          "name": "provided",
          "type": "uint256",
          "internalType": "uint256"
        },
        {
          "name": "max",
          "type": "uint256",
          "internalType": "uint256"
        }
      ]
    },
    {
      "type": "error",
      "name": "UnauthorizedCall",
      "inputs": []
    },
    {
      "type": "error",
      "name": "ValueMismatch",
      "inputs": [
        {
          "name": "expected",
          "type": "uint256",
          "internalType": "uint256"
        },
        {
          "name": "received",
          "type": "uint256",
          "internalType": "uint256"
        }
      ]
    }
  ],
  "bytecode": {
    "object": "0x61018080604052346101ff57604081612ea380380380916100208285610203565b8339810103126101ff578051906001600160a01b038216908183036101ff57602001516001600160a01b03811691908281036101ff5760405191610065608084610203565b605383527f6164647265737320617262697465722c2062797465732064656d616e642c206160208401527f6464726573735b5d20686f6f6b732c2062797465735b5d20686f6f6b4461746160408401527f732c2075696e743235365b5d2076616c7565730000000000000000000000000060608401526001608052600360a0525f60c052156101f0578361010b9460e0526101205261010052600161016052309161031e565b6101405260017f9b779b17422d0df92223018b32b4d1fa46e071723d6817e2486d003becc55f00556040516129a990816104fa823960805181611387015260a051816113b2015260c051816113dd015260e051816125f4015261010051816111fe01526101205181818161020e0152818161078601528181610b2a01528181610da4015281816122a501526127e301526101405181818161013c015281816107c601528181610a1101528181610d55015281816111cc0152818161134501528181611df6015261218401526101605181818161086901528181610a5301526121ce0152f35b6341bc07ff60e11b5f5260045ffd5b5f80fd5b601f909101601f19168101906001600160401b0382119082101761022657604052565b634e487b7160e01b5f52604160045260245ffd5b6020818303126101ff578051906001600160401b0382116101ff5701906080828203126101ff5760405191608083016001600160401b03811184821017610226576040528051835260208101516001600160a01b03811681036101ff576020840152604081015180151581036101ff5760408401526060810151906001600160401b0382116101ff570181601f820112156101ff578051906001600160401b03821161022657604051926102f8601f8401601f191660200185610203565b828452602083830101116101ff57815f9260208093018386015e83010152606082015290565b929160405190602082018351926103686015602083818901978089885e810160018060601b03198860601b1683820152600160f81b60348201520301600a19810184520182610203565b5190206040516351753e3760e11b81526004810182905290956001600160a01b031693905f81602481885afa80156104795787915f916104df575b5051146104d9579060846020926040519485938492630c1af44f60e31b8452606060048501525180928160648601528585015e5f84838501015260018060a01b0316602483015260016044830152601f801991011681010301815f865af15f91816104a5575b5061048457505f602491604051928380926351753e3760e11b82528760048301525afa80156104795783915f91610457575b5051146104555750639e6113d560e01b5f5260045260245ffd5b565b61047391503d805f833e61046b8183610203565b81019061023a565b5f61043b565b6040513d5f823e3d90fd5b91928091508203610493575090565b639e6113d560e01b5f5260045260245ffd5b9091506020813d6020116104d1575b816104c160209383610203565b810103126101ff5751905f610409565b3d91506104b4565b50505050565b6104f391503d805f833e61046b8183610203565b5f6103a356fe6080806040526004361015610029575b50361561001a575f80fd5b631574f9f360e01b5f5260045ffd5b5f905f3560e01c90816306920f9614611485575080634fa4467c1461146a57806354fd4d50146113685780635bf2f20d1461132e5780636b122fe01461118d578063760bd1181461112f57806388e5b2d914610ff85780638da3721a1461101757806391db0b7e14610ff857806393abe3dc14610f8a57806396afb36514610d26578063b3b902d41461088e578063b587a5eb14610851578063c6ec507014610745578063c93844be14610506578063ce46e046146104ea578063e49617e1146104c5578063e60c3505146104c55763ea6ec49c0361000f57346104c25760403660031901126104c25760043560243561012161264c565b61012a826127bd565b610133826127bd565b906020810151917f00000000000000000000000000000000000000000000000000000000000000008093036104b35761016b8261287f565b156104b3576101208201926101808451611ce0565b9060a08401518551036104a4576101968461287f565b156104a4576101dd6020918651936040518095819482936346d1b90d60e11b8452606060048501526101cb606485018c611faa565b84810360031901602486015290611536565b604483019190915203916001600160a01b03165afa90811561049957889161045b575b501561044c576040518791907f00000000000000000000000000000000000000000000000000000000000000006001600160a01b031690610240816115a5565b88815283602082015260405192610256846115a5565b83526020830152803b156103bc57604051634692626760e01b8152825160048201526020928301518051602483015290920151604483015290919081908390606490829084905af19182610433575b50506102bf5763614cf93960e01b86526004859052602486fd5b9260c086959401906102e560018060a01b03835116945160208082518301019101611af6565b946102ef866128f1565b604086019560600192875b875180518210156103c05789906001600160a01b039061031b90849061286b565b511661032883885161286b565b5190803b156103bc57888391610362838d9561037960405197889687958694630fa37a1f60e01b8652608060048701526084860190611536565b916024850152600319848303016044850152611faa565b8c606483015203925af180156103b157610398575b50506001016102fa565b816103a2916115f6565b6103ad57888a61038e565b8880fd5b6040513d84823e3d90fd5b8280fd5b7ff96e77bc177ae8e2ff25185e7c6d85f8ba97c8bdd9d46933aac70a7a33edf6c08a61042f858789604051926103f76020856115f6565b858452516040519687966001600160a01b03909216939180a460015f5160206129545f395f51905f5255602083526020830190611536565b0390f35b8161043d916115f6565b61044857865f6102a5565b8680fd5b630ebe58ef60e11b8752600487fd5b90506020813d602011610491575b81610476602093836115f6565b8101031261048d5761048790611a6e565b5f610200565b8780fd5b3d9150610469565b6040513d8a823e3d90fd5b630ebe58ef60e11b8952600489fd5b63629cd40b60e11b8652600486fd5b80fd5b60206104e06104d33661186d565b6104db6125f2565b612633565b6040519015158152f35b50346104c257806003193601126104c257602090604051908152f35b50346104c25760203660031901126104c2576004356001600160401b0381116106f857610537903690600401611706565b610542929192611f80565b508201916020818403126106f8578035906001600160401b0382116103bc57019060a0828403126104c2576040519161057a836115c0565b61058381611522565b835260208101356001600160401b0381116103bc57846105a4918301611668565b602084015260408101356001600160401b0381116103bc57810184601f820112156103bc578035906105d582611adf565b916105e360405193846115f6565b80835260208084019160051b8301019187831161072957602001905b82821061072d57505050604084015260608101356001600160401b0381116103bc57810184601f820112156103bc5780359061063a82611adf565b9161064860405193846115f6565b80835260208084019160051b830101918783116107295760208101915b8383106106fc575050505060608401526080810135906001600160401b0382116103bc57019280601f850112156106f8578335936106a285611adf565b926106b060405194856115f6565b85845260208085019660051b8301019283116104c25750602001935b8185106106e857608084018390526040518061042f86826117be565b84358152602094850194016106cc565b5080fd5b82356001600160401b03811161048d5760209161071e8b848094870101611668565b815201920191610665565b8580fd5b6020809161073a84611522565b8152019101906105ff565b50346104c25760203660031901126104c25761075f611f80565b50610768612684565b506040516328c44a9960e21b815260048035908201529080826024817f00000000000000000000000000000000000000000000000000000000000000006001600160a01b03165afa918215610844578192610820575b5060208201517f0000000000000000000000000000000000000000000000000000000000000000036108115761042f61080561012084015160208082518301019101611af6565b604051918291826117be565b635527981560e11b8152600490fd5b61083d9192503d8084833e61083581836115f6565b8101906126e2565b905f6107be565b50604051903d90823e3d90fd5b50346104c257806003193601126104c25760206040517f000000000000000000000000000000000000000000000000000000000000000015158152f35b5060603660031901126104c2576004356001600160401b0381116106f8576108ba903690600401611706565b6108d16108c56114f8565b92604435923691611632565b906108da61264c565b8151916108ef60208083019483010184611af6565b6108f8816128f1565b85869460808301915b8251805188101561093f57876109169161286b565b51810180911161092b57600190960195610901565b634e487b7160e01b89526011600452602489fd5b509550868895873403610d0e578680985094965084956060604089019801965b88518051821015610a0b576001600160a01b039061097e90839061286b565b511661098b82885161286b565b5190610998838b5161286b565b51813b15610a075789916109ca91604051948580948193631dc8160b60e01b8352606060048401526064830190611536565b33602483015230604483015203925af19081156104995788916109f2575b505060010161095f565b816109fc916115f6565b61044857868b6109e8565b8980fd5b505085937f0000000000000000000000000000000000000000000000000000000000000000916001600160401b0360405195610a46876115db565b33875216938460208701527f00000000000000000000000000000000000000000000000000000000000000001515948560408801528160608801528260808801528760a08801526020604051610a9b816115a5565b8681528181019889526040518099819263f17325e760e01b8352846004840152516024830152516040604483015260018060a01b0381511660648301526001600160401b03848201511660848301526040810151151560a4830152606081015160c483015260a0610b1c608083015160c060e4860152610124850190611536565b91015161010483015203818b7f00000000000000000000000000000000000000000000000000000000000000006001600160a01b03165af1968715610499578897610cd1575b5091602091610bc7949360409897985196610b7c88611589565b888852848801526001600160401b0342166040880152606087015288608087015260a086015260c08501963388523060e0870152610100860152806101208601528051010190611af6565b92610bd1846128f1565b604084019360600192855b85518051821015610c815787906001600160a01b0390610bfd90849061286b565b5116610c0a83885161286b565b5190803b156103bc57610c418391610c53938360405180968195829463be1e753b60e01b8452604060048501526044840190611536565b8281036003190160248401528d611faa565b03925af180156103b157610c6c575b5050600101610bdc565b81610c76916115f6565b610448578688610c62565b8451845160209185916001600160a01b0316907f8f7f2dbafd79125e808bf16a53d7fa4e17b8b6374ced76d946a45f94b7bf4d068c80a360015f5160206129545f395f51905f5255604051908152f35b9193929096506020823d602011610d06575b81610cf0602093836115f6565b8101031261048d57905195919290916020610b62565b3d9150610ce3565b630626ade360e41b8752600488905234602452604487fd5b5034610f68576020366003190112610f685760043590610d4461264c565b610d4d826127bd565b9160208301517f0000000000000000000000000000000000000000000000000000000000000000809103610f7b57606084016001600160401b0381511615610f6c57516001600160401b03164210610f6c576040517f00000000000000000000000000000000000000000000000000000000000000006001600160a01b031690610dd6816115a5565b8381525f602082015260405192610dec846115a5565b83526020830152803b15610f6857604051634692626760e01b815282516004820152602092830151805160248301529092015160448301525f908290606490829084905af19081610f53575b50610e505763614cf93960e01b825260045260249150fd5b509060018060a01b0360c082015116610e7761012083015160208082518301019101611af6565b91610e81836128f1565b604083019260600190845b84518051821015610f375786906001600160a01b0390610ead90849061286b565b5116610eba83865161286b565b5190803b156103bc57610ef18391610f09938360405180968195829463561ca52560e01b8452606060048501526064840190611536565b8d60248401526003198382030160448401528b611faa565b03925af180156103b157610f22575b5050600101610e8c565b81610f2c916115f6565b61072957855f610f18565b60015f5160206129545f395f51905f5255602060405160018152f35b610f609193505f906115f6565b5f915f610e38565b5f80fd5b637bf6a16f60e01b5f5260045ffd5b63629cd40b60e11b5f5260045ffd5b6040366003190112610f68576004356001600160401b038111610f685760a06003198236030112610f6857610ff0610fdb602092610fe9610fc96114f8565b91604051938491600401878301611926565b03601f1981018452836115f6565b3391612049565b604051908152f35b60206104e0611006366116b6565b926110129291926125f2565b611d09565b34610f68576060366003190112610f68576004356001600160401b038111610f68576101406003198236030112610f68576040519061105582611589565b80600401358252602481013560208301526110726044820161150e565b60408301526110836064820161150e565b60608301526110946084820161150e565b608083015260a481013560a08301526110af60c48201611522565b60c08301526110c060e48201611522565b60e08301526101048101358015158103610f6857610100830152610124810135906001600160401b038211610f685760046110fe9236920101611668565b6101208201526024356001600160401b038111610f68576020916111296104e0923690600401611668565b90611def565b34610f68576020366003190112610f68576004356001600160401b038111610f6857611162611167913690600401611668565b611ce0565b604080516001600160a01b03909316835260208301819052829161042f91830190611536565b34610f68575f366003190112610f68576060806040516111ac8161155a565b5f81525f60208201525f604082015201526040516351753e3760e11b81527f000000000000000000000000000000000000000000000000000000000000000060048201525f8160248160018060a01b037f0000000000000000000000000000000000000000000000000000000000000000165afa8015611323575f90611273575b60609061042f604051928392602084528051602085015260018060a01b0360208201511660408501526040810151151582850152015160808084015260a0830190611536565b503d805f833e61128381836115f6565b810190602081830312610f68578051906001600160401b038211610f685701608081830312610f6857604051906112b98261155a565b8051825260208101516001600160a01b0381168103610f685760208301526112e360408201611a6e565b60408301526060810151906001600160401b038211610f68570182601f82011215610f685760609281602061131a93519101611a7b565b8282015261122d565b6040513d5f823e3d90fd5b34610f68575f366003190112610f685760206040517f00000000000000000000000000000000000000000000000000000000000000008152f35b34610f68575f366003190112610f685761042f602061145660016113ab7f0000000000000000000000000000000000000000000000000000000000000000612485565b81846113d67f0000000000000000000000000000000000000000000000000000000000000000612485565b81806114017f0000000000000000000000000000000000000000000000000000000000000000612485565b9260405199878b985191829101848a015e870190601760f91b83830152805192839101602183015e010190601760f91b84830152805192839101600283015e01015f838201520301601f1981018352826115f6565b604051918291602083526020830190611536565b34610f68575f366003190112610f6857602060405160328152f35b6060366003190112610f68576004356001600160401b038111610f685760a06003198236030112610f68576114b86114f8565b604435906001600160a01b0382168203610f6857836114f36020956114e5610ff096600401888301611926565b03601f1981018352826115f6565b612049565b602435906001600160401b0382168203610f6857565b35906001600160401b0382168203610f6857565b35906001600160a01b0382168203610f6857565b805180835260209291819084018484015e5f828201840152601f01601f1916010190565b608081019081106001600160401b0382111761157557604052565b634e487b7160e01b5f52604160045260245ffd5b61014081019081106001600160401b0382111761157557604052565b604081019081106001600160401b0382111761157557604052565b60a081019081106001600160401b0382111761157557604052565b60c081019081106001600160401b0382111761157557604052565b90601f801991011681019081106001600160401b0382111761157557604052565b6001600160401b03811161157557601f01601f191660200190565b92919261163e82611617565b9161164c60405193846115f6565b829481845281830111610f68578281602093845f960137010152565b9080601f83011215610f685781602061168393359101611632565b90565b9181601f84011215610f68578235916001600160401b038311610f68576020808501948460051b010111610f6857565b6040600319820112610f68576004356001600160401b038111610f6857816116e091600401611686565b92909291602435906001600160401b038211610f685761170291600401611686565b9091565b9181601f84011215610f68578235916001600160401b038311610f685760208381860195010111610f6857565b9080602083519182815201916020808360051b8301019401925f915b83831061175e57505050505090565b909192939460208061177c600193601f198682030187528951611536565b9701930193019193929061174f565b90602080835192838152019201905f5b8181106117a85750505090565b825184526020938401939092019160010161179b565b602080825282516001600160a01b03168183015282015160a06040830152909291906117ee9060c0850190611536565b92604082015193601f19828203016060830152602080865192838152019501905f5b81811061184e57505050608061183961168394956060850151601f198583030184860152611733565b9201519060a0601f198285030191015261178b565b82516001600160a01b0316875260209687019690920191600101611810565b6020600319820112610f6857600435906001600160401b038211610f6857610140908290036003190112610f685760040190565b9035601e1982360301811215610f685701602081359101916001600160401b038211610f68578136038313610f6857565b908060209392818452848401375f828201840152601f01601f1916010190565b9035601e1982360301811215610f685701602081359101916001600160401b038211610f68578160051b36038313610f6857565b602081526001600160a01b0361193b83611522565b16602082015261196261195160208401846118a1565b60a0604085015260c08401916118d2565b91602061197260408301836118f2565b848603601f1901606086015280865294909101935f5b818110611a485750505061199f60608201826118f2565b601f19848603016080850152808552602085019460208260051b82010195835f925b848410611a10575050505050508060806119dc9201906118f2565b828403601f190160a09093019290925281835290916001600160fb1b038311610f685760209260051b809284830137010190565b909192939497602080611a38600193601f19868203018852611a328d886118a1565b906118d2565b9a019401940192949391906119c1565b909194602080600192838060a01b03611a608a611522565b168152019601929101611988565b51908115158203610f6857565b929192611a8782611617565b91611a9560405193846115f6565b829481845281830111610f68578281602093845f96015e010152565b51906001600160a01b0382168203610f6857565b9080601f83011215610f6857815161168392602001611a7b565b6001600160401b0381116115755760051b60200190565b602081830312610f68578051906001600160401b038211610f6857019060a082820312610f685760405191611b2a836115c0565b611b3381611ab1565b835260208101516001600160401b038111610f685782611b54918301611ac5565b602084015260408101516001600160401b038111610f6857810182601f82011215610f6857805190611b8582611adf565b91611b9360405193846115f6565b80835260208084019160051b83010191858311610f6857602001905b828210611cc857505050604084015260608101516001600160401b038111610f6857810182601f82011215610f68578051611be981611adf565b91611bf760405193846115f6565b81835260208084019260051b82010191858311610f685760208201905b838210611c9b575050505060608401526080810151906001600160401b038211610f6857019080601f83011215610f68578151611c5081611adf565b92611c5e60405194856115f6565b81845260208085019260051b820101928311610f6857602001905b828210611c8b57505050608082015290565b8151815260209182019101611c79565b81516001600160401b038111610f6857602091611cbd89848094880101611ac5565b815201910190611c14565b60208091611cd584611ab1565b815201910190611baf565b611cf39060208082518301019101611af6565b80516020909101516001600160a01b0390911691565b929092818403611d9e575f91345b85841015611d935781841015611d7f578360051b8086013590828211611d705784013561013e1985360301811215610f6857611d54908501612633565b15611d655760019103930192611d17565b505050505050505f90565b63044044a560e21b5f5260045ffd5b634e487b7160e01b5f52603260045260245ffd5b505050505050600190565b63251f56a160e21b5f5260045ffd5b60206040818301928281528451809452019201905f5b818110611dd05750505090565b82516001600160a01b0316845260209384019390920191600101611dc3565b60208101517f000000000000000000000000000000000000000000000000000000000000000003611f7a57611e35610120611e4592015160208082518301019101611af6565b9160208082518301019101611af6565b815181516001600160a01b039081169116149182611f59575b82611f16575b82611ec3575b82611e7457505090565b6080919250810151604051611e99816114e5602082019460208652604083019061178b565b519020910151604051611ebc816114e5602082019460208652604083019061178b565b5190201490565b91506060820151604051611ee7816114e56020820194602086526040830190611733565b5190206060820151604051611f0c816114e56020820194602086526040830190611733565b5190201491611e6a565b91506040820151604051611f32816114e5602082019485611dad565b5190206040820151604051611f4f816114e5602082019485611dad565b5190201491611e64565b91506020820151602081519101206020820151602081519101201491611e5e565b50505f90565b60405190611f8d826115c0565b60606080835f815282602082015282604082015282808201520152565b906101406101206116839380518452602081015160208501526001600160401b0360408201511660408501526001600160401b0360608201511660608501526001600160401b03608082015116608085015260a081015160a085015260018060a01b0360c08201511660c085015260018060a01b0360e08201511660e08501526101008101511515610100850152015191816101208201520190611536565b9061205261264c565b81519061206760208085019385010183611af6565b91612071836128f1565b5f905f9660808501925b835180518a10156120b957896120909161286b565b5181018091116120a55760019098019761207b565b634e487b7160e01b5f52601160045260245ffd5b5090939692959194975080340361246f57506060870196604001955f5b87518051821015612178576001600160a01b03906120f590839061286b565b51169061210381895161286b565b5191612110828c5161286b565b51813b15610f68575f9161214291604051958680948193631dc8160b60e01b8352606060048401526064830190611536565b33602483015230604483015203925af191821561132357600192612168575b50016120d6565b5f612172916115f6565b5f612161565b505093929650935093507f0000000000000000000000000000000000000000000000000000000000000000926001600160401b03604051956121b9876115db565b60018060a01b031693848752168060208701527f00000000000000000000000000000000000000000000000000000000000000001515908160408801525f60608801528260808801525f60a08801526020604051612216816115a5565b8781528181019889526040518099819263f17325e760e01b8352846004840152516024830152516040604483015260018060a01b0381511660648301526001600160401b03848201511660848301526040810151151560a4830152606081015160c483015260a0612297608083015160c060e4860152610124850190611536565b91015161010483015203815f7f00000000000000000000000000000000000000000000000000000000000000006001600160a01b03165af1968715611323575f97612432575b50916020916123429493604099989951976122f789611589565b8a8952848901526001600160401b034216604089015260608801525f60808801525f60a088015260c087019586523060e0880152610100870152806101208701528051010190611af6565b9261234c846128f1565b5f946060604086019501955b855180518210156123e6576001600160a01b039061237790839061286b565b51169061238581895161286b565b5191803b15610f6857610c415f916123bc948360405180978195829463be1e753b60e01b8452604060048501526044840190611536565b03925af1918215611323576001926123d6575b5001612358565b5f6123e0916115f6565b5f6123cf565b50509350935090519060018060a01b03905116907f8f7f2dbafd79125e808bf16a53d7fa4e17b8b6374ced76d946a45f94b7bf4d065f80a39060015f5160206129545f395f51905f5255565b9193929096506020823d602011612467575b81612451602093836115f6565b81010312610f68579051959192909160206122dd565b3d9150612444565b630626ade360e41b5f526004523460245260445ffd5b805f9172184f03e93ff9f4daa797ed6e38ed64bf6a1f0160401b8210156125cf575b806d04ee2d6d415b85acef8100000000600a9210156125b4575b662386f26fc100008110156125a0575b6305f5e10081101561258f575b612710811015612580575b6064811015612572575b1015612567575b600a6021600184019361250c85611617565b9461251a60405196876115f6565b808652612529601f1991611617565b013660208701378401015b5f1901916f181899199a1a9b1b9c1cb0b131b232b360811b8282061a835304801561256257600a9091612534565b505090565b6001909101906124fa565b6064600291049301926124f3565b612710600491049301926124e9565b6305f5e100600891049301926124de565b662386f26fc10000601091049301926124d1565b6d04ee2d6d415b85acef8100000000602091049301926124c1565b506040915072184f03e93ff9f4daa797ed6e38ed64bf6a1f0160401b81046124a7565b7f00000000000000000000000000000000000000000000000000000000000000006001600160a01b0316330361262457565b634ca8886760e01b5f5260045ffd5b60e0013560018060a01b038116809103610f6857301490565b60025f5160206129545f395f51905f5254146126755760025f5160206129545f395f51905f5255565b633ee5aeb560e01b5f5260045ffd5b6040519061269182611589565b6060610120835f81525f60208201525f60408201525f838201525f60808201525f60a08201525f60c08201525f60e08201525f6101008201520152565b51906001600160401b0382168203610f6857565b602081830312610f68578051906001600160401b038211610f68570161014081830312610f68576040519161271683611589565b8151835260208201516020840152612730604083016126ce565b6040840152612741606083016126ce565b6060840152612752608083016126ce565b608084015260a082015160a084015261276d60c08301611ab1565b60c084015261277e60e08301611ab1565b60e08401526127906101008301611a6e565b6101008401526101208201516001600160401b038111610f68576127b49201611ac5565b61012082015290565b906127c6612684565b506040516328c44a9960e21b815260048101839052915f836024817f00000000000000000000000000000000000000000000000000000000000000006001600160a01b03165afa928315611323575f9361284f575b508251818115918215612844575b50506128325750565b6301fb6dd160e01b5f5260045260245ffd5b14159050815f612829565b6128649193503d805f833e61083581836115f6565b915f61281b565b8051821015611d7f5760209160051b010190565b8051156128e2576001600160401b0360608201511680151590816128d7575b506128c857608001516001600160401b03166128b957600190565b637b6227e960e11b5f5260045ffd5b631ab7da6b60e01b5f5260045ffd5b90504210155f61289e565b635c2c7f8960e01b5f5260045ffd5b6040810190815151606082015151811491821592612943575b50506129345751516032811161291d5750565b630e9407b360e11b5f52600452603260245260445ffd5b63512509d360e11b5f5260045ffd5b6080015151141590505f8061290a56fe9b779b17422d0df92223018b32b4d1fa46e071723d6817e2486d003becc55f00a264697066735822122074ef30726854c1665f6e76dce63aecedde412ed19ae606c55046bc997601779d64736f6c634300081b0033",
    "linkReferences": {}
  },
  "methodIdentifiers": {
    "ATTESTATION_SCHEMA()": "5bf2f20d",
    "ATTESTATION_SCHEMA_REVOCABLE()": "b587a5eb",
    "MAX_HOOKS()": "4fa4467c",
    "attest((bytes32,bytes32,uint64,uint64,uint64,bytes32,address,address,bool,bytes))": "e60c3505",
    "check((bytes32,bytes32,uint64,uint64,uint64,bytes32,address,address,bool,bytes),bytes,bytes32)": "8da3721a",
    "collect(bytes32,bytes32)": "ea6ec49c",
    "decodeCondition(bytes)": "760bd118",
    "decodeObligationData(bytes)": "c93844be",
    "doObligation((address,bytes,address[],bytes[],uint256[]),uint64)": "93abe3dc",
    "doObligationFor((address,bytes,address[],bytes[],uint256[]),uint64,address)": "06920f96",
    "doObligationRaw(bytes,uint64,bytes32)": "b3b902d4",
    "getObligationData(bytes32)": "c6ec5070",
    "getSchema()": "6b122fe0",
    "isPayable()": "ce46e046",
    "multiAttest((bytes32,bytes32,uint64,uint64,uint64,bytes32,address,address,bool,bytes)[],uint256[])": "91db0b7e",
    "multiRevoke((bytes32,bytes32,uint64,uint64,uint64,bytes32,address,address,bool,bytes)[],uint256[])": "88e5b2d9",
    "reclaim(bytes32)": "96afb365",
    "revoke((bytes32,bytes32,uint64,uint64,uint64,bytes32,address,address,bool,bytes))": "e49617e1",
    "version()": "54fd4d50"
  },
  "id": 127
}