{
  "abi": [
    {
      "type": "constructor",
      "inputs": [
        {
          "name": "_eas",
          "type": "address",
          "internalType": "contract IEAS"
        },
        {
          "name": "_schemaRegistry",
          "type": "address",
          "internalType": "contract ISchemaRegistry"
        }
      ],
      "stateMutability": "nonpayable"
    },
    {
      "type": "receive",
      "stateMutability": "payable"
    },
    {
      "type": "function",
      "name": "ATTESTATION_SCHEMA",
      "inputs": [],
      "outputs": [
        {
          "name": "",
          "type": "bytes32",
          "internalType": "bytes32"
        }
      ],
      "stateMutability": "view"
    },
    {
      "type": "function",
      "name": "ATTESTATION_SCHEMA_REVOCABLE",
      "inputs": [],
      "outputs": [
        {
          "name": "",
          "type": "bool",
          "internalType": "bool"
        }
      ],
      "stateMutability": "view"
    },
    {
      "type": "function",
      "name": "MAX_HOOKS",
      "inputs": [],
      "outputs": [
        {
          "name": "",
          "type": "uint256",
          "internalType": "uint256"
        }
      ],
      "stateMutability": "view"
    },
    {
      "type": "function",
      "name": "attest",
      "inputs": [
        {
          "name": "attestation",
          "type": "tuple",
          "internalType": "struct Attestation",
          "components": [
            {
              "name": "uid",
              "type": "bytes32",
              "internalType": "bytes32"
            },
            {
              "name": "schema",
              "type": "bytes32",
              "internalType": "bytes32"
            },
            {
              "name": "time",
              "type": "uint64",
              "internalType": "uint64"
            },
            {
              "name": "expirationTime",
              "type": "uint64",
              "internalType": "uint64"
            },
            {
              "name": "revocationTime",
              "type": "uint64",
              "internalType": "uint64"
            },
            {
              "name": "refUID",
              "type": "bytes32",
              "internalType": "bytes32"
            },
            {
              "name": "recipient",
              "type": "address",
              "internalType": "address"
            },
            {
              "name": "attester",
              "type": "address",
              "internalType": "address"
            },
            {
              "name": "revocable",
              "type": "bool",
              "internalType": "bool"
            },
            {
              "name": "data",
              "type": "bytes",
              "internalType": "bytes"
            }
          ]
        }
      ],
      "outputs": [
        {
          "name": "",
          "type": "bool",
          "internalType": "bool"
        }
      ],
      "stateMutability": "payable"
    },
    {
      "type": "function",
      "name": "check",
      "inputs": [
        {
          "name": "obligation",
          "type": "tuple",
          "internalType": "struct Attestation",
          "components": [
            {
              "name": "uid",
              "type": "bytes32",
              "internalType": "bytes32"
            },
            {
              "name": "schema",
              "type": "bytes32",
              "internalType": "bytes32"
            },
            {
              "name": "time",
              "type": "uint64",
              "internalType": "uint64"
            },
            {
              "name": "expirationTime",
              "type": "uint64",
              "internalType": "uint64"
            },
            {
              "name": "revocationTime",
              "type": "uint64",
              "internalType": "uint64"
            },
            {
              "name": "refUID",
              "type": "bytes32",
              "internalType": "bytes32"
            },
            {
              "name": "recipient",
              "type": "address",
              "internalType": "address"
            },
            {
              "name": "attester",
              "type": "address",
              "internalType": "address"
            },
            {
              "name": "revocable",
              "type": "bool",
              "internalType": "bool"
            },
            {
              "name": "data",
              "type": "bytes",
              "internalType": "bytes"
            }
          ]
        },
        {
          "name": "demand",
          "type": "bytes",
          "internalType": "bytes"
        },
        {
          "name": "",
          "type": "bytes32",
          "internalType": "bytes32"
        }
      ],
      "outputs": [
        {
          "name": "",
          "type": "bool",
          "internalType": "bool"
        }
      ],
      "stateMutability": "view"
    },
    {
      "type": "function",
      "name": "collect",
      "inputs": [
        {
          "name": "_escrow",
          "type": "bytes32",
          "internalType": "bytes32"
        },
        {
          "name": "_fulfillment",
          "type": "bytes32",
          "internalType": "bytes32"
        }
      ],
      "outputs": [
        {
          "name": "",
          "type": "bytes",
          "internalType": "bytes"
        }
      ],
      "stateMutability": "nonpayable"
    },
    {
      "type": "function",
      "name": "decodeCondition",
      "inputs": [
        {
          "name": "data",
          "type": "bytes",
          "internalType": "bytes"
        }
      ],
      "outputs": [
        {
          "name": "arbiter",
          "type": "address",
          "internalType": "address"
        },
        {
          "name": "demand",
          "type": "bytes",
          "internalType": "bytes"
        }
      ],
      "stateMutability": "pure"
    },
    {
      "type": "function",
      "name": "decodeObligationData",
      "inputs": [
        {
          "name": "data",
          "type": "bytes",
          "internalType": "bytes"
        }
      ],
      "outputs": [
        {
          "name": "",
          "type": "tuple",
          "internalType": "struct HooksEscrowObligation.ObligationData",
          "components": [
            {
              "name": "arbiter",
              "type": "address",
              "internalType": "address"
            },
            {
              "name": "demand",
              "type": "bytes",
              "internalType": "bytes"
            },
            {
              "name": "hooks",
              "type": "address[]",
              "internalType": "address[]"
            },
            {
              "name": "hookDatas",
              "type": "bytes[]",
              "internalType": "bytes[]"
            },
            {
              "name": "values",
              "type": "uint256[]",
              "internalType": "uint256[]"
            }
          ]
        }
      ],
      "stateMutability": "pure"
    },
    {
      "type": "function",
      "name": "doObligation",
      "inputs": [
        {
          "name": "data",
          "type": "tuple",
          "internalType": "struct HooksEscrowObligation.ObligationData",
          "components": [
            {
              "name": "arbiter",
              "type": "address",
              "internalType": "address"
            },
            {
              "name": "demand",
              "type": "bytes",
              "internalType": "bytes"
            },
            {
              "name": "hooks",
              "type": "address[]",
              "internalType": "address[]"
            },
            {
              "name": "hookDatas",
              "type": "bytes[]",
              "internalType": "bytes[]"
            },
            {
              "name": "values",
              "type": "uint256[]",
              "internalType": "uint256[]"
            }
          ]
        },
        {
          "name": "expirationTime",
          "type": "uint64",
          "internalType": "uint64"
        }
      ],
      "outputs": [
        {
          "name": "",
          "type": "bytes32",
          "internalType": "bytes32"
        }
      ],
      "stateMutability": "payable"
    },
    {
      "type": "function",
      "name": "doObligationFor",
      "inputs": [
        {
          "name": "data",
          "type": "tuple",
          "internalType": "struct HooksEscrowObligation.ObligationData",
          "components": [
            {
              "name": "arbiter",
              "type": "address",
              "internalType": "address"
            },
            {
              "name": "demand",
              "type": "bytes",
              "internalType": "bytes"
            },
            {
              "name": "hooks",
              "type": "address[]",
              "internalType": "address[]"
            },
            {
              "name": "hookDatas",
              "type": "bytes[]",
              "internalType": "bytes[]"
            },
            {
              "name": "values",
              "type": "uint256[]",
              "internalType": "uint256[]"
            }
          ]
        },
        {
          "name": "expirationTime",
          "type": "uint64",
          "internalType": "uint64"
        },
        {
          "name": "recipient",
          "type": "address",
          "internalType": "address"
        }
      ],
      "outputs": [
        {
          "name": "",
          "type": "bytes32",
          "internalType": "bytes32"
        }
      ],
      "stateMutability": "payable"
    },
    {
      "type": "function",
      "name": "doObligationRaw",
      "inputs": [
        {
          "name": "data",
          "type": "bytes",
          "internalType": "bytes"
        },
        {
          "name": "expirationTime",
          "type": "uint64",
          "internalType": "uint64"
        },
        {
          "name": "refUID",
          "type": "bytes32",
          "internalType": "bytes32"
        }
      ],
      "outputs": [
        {
          "name": "uid_",
          "type": "bytes32",
          "internalType": "bytes32"
        }
      ],
      "stateMutability": "payable"
    },
    {
      "type": "function",
      "name": "getObligationData",
      "inputs": [
        {
          "name": "uid",
          "type": "bytes32",
          "internalType": "bytes32"
        }
      ],
      "outputs": [
        {
          "name": "",
          "type": "tuple",
          "internalType": "struct HooksEscrowObligation.ObligationData",
          "components": [
            {
              "name": "arbiter",
              "type": "address",
              "internalType": "address"
            },
            {
              "name": "demand",
              "type": "bytes",
              "internalType": "bytes"
            },
            {
              "name": "hooks",
              "type": "address[]",
              "internalType": "address[]"
            },
            {
              "name": "hookDatas",
              "type": "bytes[]",
              "internalType": "bytes[]"
            },
            {
              "name": "values",
              "type": "uint256[]",
              "internalType": "uint256[]"
            }
          ]
        }
      ],
      "stateMutability": "view"
    },
    {
      "type": "function",
      "name": "getSchema",
      "inputs": [],
      "outputs": [
        {
          "name": "",
          "type": "tuple",
          "internalType": "struct SchemaRecord",
          "components": [
            {
              "name": "uid",
              "type": "bytes32",
              "internalType": "bytes32"
            },
            {
              "name": "resolver",
              "type": "address",
              "internalType": "contract ISchemaResolver"
            },
            {
              "name": "revocable",
              "type": "bool",
              "internalType": "bool"
            },
            {
              "name": "schema",
              "type": "string",
              "internalType": "string"
            }
          ]
        }
      ],
      "stateMutability": "view"
    },
    {
      "type": "function",
      "name": "isPayable",
      "inputs": [],
      "outputs": [
        {
          "name": "",
          "type": "bool",
          "internalType": "bool"
        }
      ],
      "stateMutability": "pure"
    },
    {
      "type": "function",
      "name": "multiAttest",
      "inputs": [
        {
          "name": "attestations",
          "type": "tuple[]",
          "internalType": "struct Attestation[]",
          "components": [
            {
              "name": "uid",
              "type": "bytes32",
              "internalType": "bytes32"
            },
            {
              "name": "schema",
              "type": "bytes32",
              "internalType": "bytes32"
            },
            {
              "name": "time",
              "type": "uint64",
              "internalType": "uint64"
            },
            {
              "name": "expirationTime",
              "type": "uint64",
              "internalType": "uint64"
            },
            {
              "name": "revocationTime",
              "type": "uint64",
              "internalType": "uint64"
            },
            {
              "name": "refUID",
              "type": "bytes32",
              "internalType": "bytes32"
            },
            {
              "name": "recipient",
              "type": "address",
              "internalType": "address"
            },
            {
              "name": "attester",
              "type": "address",
              "internalType": "address"
            },
            {
              "name": "revocable",
              "type": "bool",
              "internalType": "bool"
            },
            {
              "name": "data",
              "type": "bytes",
              "internalType": "bytes"
            }
          ]
        },
        {
          "name": "values",
          "type": "uint256[]",
          "internalType": "uint256[]"
        }
      ],
      "outputs": [
        {
          "name": "",
          "type": "bool",
          "internalType": "bool"
        }
      ],
      "stateMutability": "payable"
    },
    {
      "type": "function",
      "name": "multiRevoke",
      "inputs": [
        {
          "name": "attestations",
          "type": "tuple[]",
          "internalType": "struct Attestation[]",
          "components": [
            {
              "name": "uid",
              "type": "bytes32",
              "internalType": "bytes32"
            },
            {
              "name": "schema",
              "type": "bytes32",
              "internalType": "bytes32"
            },
            {
              "name": "time",
              "type": "uint64",
              "internalType": "uint64"
            },
            {
              "name": "expirationTime",
              "type": "uint64",
              "internalType": "uint64"
            },
            {
              "name": "revocationTime",
              "type": "uint64",
              "internalType": "uint64"
            },
            {
              "name": "refUID",
              "type": "bytes32",
              "internalType": "bytes32"
            },
            {
              "name": "recipient",
              "type": "address",
              "internalType": "address"
            },
            {
              "name": "attester",
              "type": "address",
              "internalType": "address"
            },
            {
              "name": "revocable",
              "type": "bool",
              "internalType": "bool"
            },
            {
              "name": "data",
              "type": "bytes",
              "internalType": "bytes"
            }
          ]
        },
        {
          "name": "values",
          "type": "uint256[]",
          "internalType": "uint256[]"
        }
      ],
      "outputs": [
        {
          "name": "",
          "type": "bool",
          "internalType": "bool"
        }
      ],
      "stateMutability": "payable"
    },
    {
      "type": "function",
      "name": "reclaim",
      "inputs": [
        {
          "name": "uid",
          "type": "bytes32",
          "internalType": "bytes32"
        }
      ],
      "outputs": [
        {
          "name": "",
          "type": "bool",
          "internalType": "bool"
        }
      ],
      "stateMutability": "nonpayable"
    },
    {
      "type": "function",
      "name": "revoke",
      "inputs": [
        {
          "name": "attestation",
          "type": "tuple",
          "internalType": "struct Attestation",
          "components": [
            {
              "name": "uid",
              "type": "bytes32",
              "internalType": "bytes32"
            },
            {
              "name": "schema",
              "type": "bytes32",
              "internalType": "bytes32"
            },
            {
              "name": "time",
              "type": "uint64",
              "internalType": "uint64"
            },
            {
              "name": "expirationTime",
              "type": "uint64",
              "internalType": "uint64"
            },
            {
              "name": "revocationTime",
              "type": "uint64",
              "internalType": "uint64"
            },
            {
              "name": "refUID",
              "type": "bytes32",
              "internalType": "bytes32"
            },
            {
              "name": "recipient",
              "type": "address",
              "internalType": "address"
            },
            {
              "name": "attester",
              "type": "address",
              "internalType": "address"
            },
            {
              "name": "revocable",
              "type": "bool",
              "internalType": "bool"
            },
            {
              "name": "data",
              "type": "bytes",
              "internalType": "bytes"
            }
          ]
        }
      ],
      "outputs": [
        {
          "name": "",
          "type": "bool",
          "internalType": "bool"
        }
      ],
      "stateMutability": "payable"
    },
    {
      "type": "function",
      "name": "supportsInterface",
      "inputs": [
        {
          "name": "interfaceId",
          "type": "bytes4",
          "internalType": "bytes4"
        }
      ],
      "outputs": [
        {
          "name": "",
          "type": "bool",
          "internalType": "bool"
        }
      ],
      "stateMutability": "view"
    },
    {
      "type": "function",
      "name": "version",
      "inputs": [],
      "outputs": [
        {
          "name": "",
          "type": "string",
          "internalType": "string"
        }
      ],
      "stateMutability": "view"
    },
    {
      "type": "event",
      "name": "EscrowCollected",
      "inputs": [
        {
          "name": "escrowUid",
          "type": "bytes32",
          "indexed": true,
          "internalType": "bytes32"
        },
        {
          "name": "fulfillmentUid",
          "type": "bytes32",
          "indexed": true,
          "internalType": "bytes32"
        },
        {
          "name": "fulfiller",
          "type": "address",
          "indexed": true,
          "internalType": "address"
        }
      ],
      "anonymous": false
    },
    {
      "type": "event",
      "name": "EscrowMade",
      "inputs": [
        {
          "name": "escrowUid",
          "type": "bytes32",
          "indexed": true,
          "internalType": "bytes32"
        },
        {
          "name": "escrower",
          "type": "address",
          "indexed": true,
          "internalType": "address"
        }
      ],
      "anonymous": false
    },
    {
      "type": "event",
      "name": "EscrowReclaimed",
      "inputs": [
        {
          "name": "escrowUid",
          "type": "bytes32",
          "indexed": true,
          "internalType": "bytes32"
        },
        {
          "name": "escrower",
          "type": "address",
          "indexed": true,
          "internalType": "address"
        }
      ],
      "anonymous": false
    },
    {
      "type": "error",
      "name": "AccessDenied",
      "inputs": []
    },
    {
      "type": "error",
      "name": "ArrayLengthMismatch",
      "inputs": []
    },
    {
      "type": "error",
      "name": "AttestationNotFound",
      "inputs": [
        {
          "name": "attestationId",
          "type": "bytes32",
          "internalType": "bytes32"
        }
      ]
    },
    {
      "type": "error",
      "name": "AttestationRevoked",
      "inputs": []
    },
    {
      "type": "error",
      "name": "DeadlineExpired",
      "inputs": []
    },
    {
      "type": "error",
      "name": "InsufficientValue",
      "inputs": []
    },
    {
      "type": "error",
      "name": "InvalidAttestationUid",
      "inputs": []
    },
    {
      "type": "error",
      "name": "InvalidEAS",
      "inputs": []
    },
    {
      "type": "error",
      "name": "InvalidEscrowAttestation",
      "inputs": []
    },
    {
      "type": "error",
      "name": "InvalidFulfillment",
      "inputs": []
    },
    {
      "type": "error",
      "name": "InvalidLength",
      "inputs": []
    },
    {
      "type": "error",
      "name": "NotFromThisAttester",
      "inputs": []
    },
    {
      "type": "error",
      "name": "NotPayable",
      "inputs": []
    },
    {
      "type": "error",
      "name": "ReentrancyGuardReentrantCall",
      "inputs": []
    },
    {
      "type": "error",
      "name": "RevocationFailed",
      "inputs": [
        {
          "name": "attestationId",
          "type": "bytes32",
          "internalType": "bytes32"
        }
      ]
    },
    {
      "type": "error",
      "name": "SchemaRegistrationFailed",
      "inputs": [
        {
          "name": "uid",
          "type": "bytes32",
          "internalType": "bytes32"
        }
      ]
    },
    {
      "type": "error",
      "name": "TooManyHooks",
      "inputs": [
        {
          "name": "provided",
          "type": "uint256",
          "internalType": "uint256"
        },
        {
          "name": "max",
          "type": "uint256",
          "internalType": "uint256"
        }
      ]
    },
    {
      "type": "error",
      "name": "UnauthorizedCall",
      "inputs": []
    },
    {
      "type": "error",
      "name": "ValueMismatch",
      "inputs": [
        {
          "name": "expected",
          "type": "uint256",
          "internalType": "uint256"
        },
        {
          "name": "received",
          "type": "uint256",
          "internalType": "uint256"
        }
      ]
    }
  ],
  "bytecode": {
    "object": "0x61018080604052346101ff57604081612f4e80380380916100208285610203565b8339810103126101ff578051906001600160a01b038216908183036101ff57602001516001600160a01b03811691908281036101ff5760405191610065608084610203565b605383527f6164647265737320617262697465722c2062797465732064656d616e642c206160208401527f6464726573735b5d20686f6f6b732c2062797465735b5d20686f6f6b4461746160408401527f732c2075696e743235365b5d2076616c7565730000000000000000000000000060608401526001608052600360a0525f60c052156101f0578361010b9460e0526101205261010052600161016052309161031e565b6101405260017f9b779b17422d0df92223018b32b4d1fa46e071723d6817e2486d003becc55f0055604051612a5490816104fa8239608051816113af015260a051816113da015260c05181611405015260e0518161269f015261010051816112260152610120518181816102190152818161079101528181610b3501528181610dad01528181612350015261288e015261014051818181610147015281816107d101528181610a1c01528181610d5e015281816111f40152818161136d01528181611ea1015261222f01526101605181818161087401528181610a5e01526122790152f35b6341bc07ff60e11b5f5260045ffd5b5f80fd5b601f909101601f19168101906001600160401b0382119082101761022657604052565b634e487b7160e01b5f52604160045260245ffd5b6020818303126101ff578051906001600160401b0382116101ff5701906080828203126101ff5760405191608083016001600160401b03811184821017610226576040528051835260208101516001600160a01b03811681036101ff576020840152604081015180151581036101ff5760408401526060810151906001600160401b0382116101ff570181601f820112156101ff578051906001600160401b03821161022657604051926102f8601f8401601f191660200185610203565b828452602083830101116101ff57815f9260208093018386015e83010152606082015290565b929160405190602082018351926103686015602083818901978089885e810160018060601b03198860601b1683820152600160f81b60348201520301600a19810184520182610203565b5190206040516351753e3760e11b81526004810182905290956001600160a01b031693905f81602481885afa80156104795787915f916104df575b5051146104d9579060846020926040519485938492630c1af44f60e31b8452606060048501525180928160648601528585015e5f84838501015260018060a01b0316602483015260016044830152601f801991011681010301815f865af15f91816104a5575b5061048457505f602491604051928380926351753e3760e11b82528760048301525afa80156104795783915f91610457575b5051146104555750639e6113d560e01b5f5260045260245ffd5b565b61047391503d805f833e61046b8183610203565b81019061023a565b5f61043b565b6040513d5f823e3d90fd5b91928091508203610493575090565b639e6113d560e01b5f5260045260245ffd5b9091506020813d6020116104d1575b816104c160209383610203565b810103126101ff5751905f610409565b3d91506104b4565b50505050565b6104f391503d805f833e61046b8183610203565b5f6103a356fe6080806040526004361015610029575b50361561001a575f80fd5b631574f9f360e01b5f5260045ffd5b5f905f3560e01c90816301ffc9a7146115255750806306920f96146114ad5780634fa4467c1461149257806354fd4d50146113905780635bf2f20d146113565780636b122fe0146111b5578063760bd1181461115757806388e5b2d9146110205780638da3721a1461103f57806391db0b7e1461102057806393abe3dc14610fb257806396afb36514610d31578063b3b902d414610899578063b587a5eb1461085c578063c6ec507014610750578063c93844be14610511578063ce46e046146104f5578063e49617e1146104d0578063e60c3505146104d05763ea6ec49c0361000f57346104cd5760403660031901126104cd5760043560243561012c6126f7565b61013582612868565b61013e82612868565b906020810151917f00000000000000000000000000000000000000000000000000000000000000008093036104be576101768261292a565b156104be5761012082019261018b8451611d8b565b9060a08401518551036104af576101a18461292a565b156104af576101e86020918651936040518095819482936346d1b90d60e11b8452606060048501526101d6606485018c612055565b848103600319016024860152906115e1565b604483019190915203916001600160a01b03165afa9081156104a4578891610466575b5015610457576040518791907f00000000000000000000000000000000000000000000000000000000000000006001600160a01b03169061024b81611650565b8881528360208201526040519261026184611650565b83526020830152803b156103c757604051634692626760e01b8152825160048201526020928301518051602483015290920151604483015290919081908390606490829084905af1918261043e575b50506102ca5763614cf93960e01b86526004859052602486fd5b9260c086959401906102f060018060a01b03835116945160208082518301019101611ba1565b946102fa8661299c565b604086019560600192875b875180518210156103cb5789906001600160a01b0390610326908490612916565b5116610333838851612916565b5190803b156103c75788839161036d838d9561038460405197889687958694630fa37a1f60e01b86526080600487015260848601906115e1565b916024850152600319848303016044850152612055565b8c606483015203925af180156103bc576103a3575b5050600101610305565b816103ad916116a1565b6103b857888a610399565b8880fd5b6040513d84823e3d90fd5b8280fd5b7ff96e77bc177ae8e2ff25185e7c6d85f8ba97c8bdd9d46933aac70a7a33edf6c08a61043a858789604051926104026020856116a1565b858452516040519687966001600160a01b03909216939180a460015f5160206129ff5f395f51905f52556020835260208301906115e1565b0390f35b81610448916116a1565b61045357865f6102b0565b8680fd5b630ebe58ef60e11b8752600487fd5b90506020813d60201161049c575b81610481602093836116a1565b810103126104985761049290611b19565b5f61020b565b8780fd5b3d9150610474565b6040513d8a823e3d90fd5b630ebe58ef60e11b8952600489fd5b63629cd40b60e11b8652600486fd5b80fd5b60206104eb6104de36611918565b6104e661269d565b6126de565b6040519015158152f35b50346104cd57806003193601126104cd57602090604051908152f35b50346104cd5760203660031901126104cd576004356001600160401b038111610703576105429036906004016117b1565b61054d92919261202b565b50820191602081840312610703578035906001600160401b0382116103c757019060a0828403126104cd57604051916105858361166b565b61058e816115cd565b835260208101356001600160401b0381116103c757846105af918301611713565b602084015260408101356001600160401b0381116103c757810184601f820112156103c7578035906105e082611b8a565b916105ee60405193846116a1565b80835260208084019160051b8301019187831161073457602001905b82821061073857505050604084015260608101356001600160401b0381116103c757810184601f820112156103c75780359061064582611b8a565b9161065360405193846116a1565b80835260208084019160051b830101918783116107345760208101915b838310610707575050505060608401526080810135906001600160401b0382116103c757019280601f85011215610703578335936106ad85611b8a565b926106bb60405194856116a1565b85845260208085019660051b8301019283116104cd5750602001935b8185106106f357608084018390526040518061043a8682611869565b84358152602094850194016106d7565b5080fd5b82356001600160401b038111610498576020916107298b848094870101611713565b815201920191610670565b8580fd5b60208091610745846115cd565b81520191019061060a565b50346104cd5760203660031901126104cd5761076a61202b565b5061077361272f565b506040516328c44a9960e21b815260048035908201529080826024817f00000000000000000000000000000000000000000000000000000000000000006001600160a01b03165afa91821561084f57819261082b575b5060208201517f00000000000000000000000000000000000000000000000000000000000000000361081c5761043a61081061012084015160208082518301019101611ba1565b60405191829182611869565b635527981560e11b8152600490fd5b6108489192503d8084833e61084081836116a1565b81019061278d565b905f6107c9565b50604051903d90823e3d90fd5b50346104cd57806003193601126104cd5760206040517f000000000000000000000000000000000000000000000000000000000000000015158152f35b5060603660031901126104cd576004356001600160401b038111610703576108c59036906004016117b1565b6108dc6108d06115a3565b926044359236916116dd565b906108e56126f7565b8151916108fa60208083019483010184611ba1565b6109038161299c565b85869460808301915b8251805188101561094a578761092191612916565b5181018091116109365760019096019561090c565b634e487b7160e01b89526011600452602489fd5b509550868895873403610d19578680985094965084956060604089019801965b88518051821015610a16576001600160a01b0390610989908390612916565b5116610996828851612916565b51906109a3838b51612916565b51813b15610a125789916109d591604051948580948193631dc8160b60e01b83526060600484015260648301906115e1565b33602483015230604483015203925af19081156104a45788916109fd575b505060010161096a565b81610a07916116a1565b61045357868b6109f3565b8980fd5b505085937f0000000000000000000000000000000000000000000000000000000000000000916001600160401b0360405195610a5187611686565b33875216938460208701527f00000000000000000000000000000000000000000000000000000000000000001515948560408801528160608801528260808801528760a08801526020604051610aa681611650565b8681528181019889526040518099819263f17325e760e01b8352846004840152516024830152516040604483015260018060a01b0381511660648301526001600160401b03848201511660848301526040810151151560a4830152606081015160c483015260a0610b27608083015160c060e48601526101248501906115e1565b91015161010483015203818b7f00000000000000000000000000000000000000000000000000000000000000006001600160a01b03165af19687156104a4578897610cdc575b5091602091610bd2949360409897985196610b8788611634565b888852848801526001600160401b0342166040880152606087015288608087015260a086015260c08501963388523060e0870152610100860152806101208601528051010190611ba1565b92610bdc8461299c565b604084019360600192855b85518051821015610c8c5787906001600160a01b0390610c08908490612916565b5116610c15838851612916565b5190803b156103c757610c4c8391610c5e938360405180968195829463be1e753b60e01b84526040600485015260448401906115e1565b8281036003190160248401528d612055565b03925af180156103bc57610c77575b5050600101610be7565b81610c81916116a1565b610453578688610c6d565b8451845160209185916001600160a01b0316907f8f7f2dbafd79125e808bf16a53d7fa4e17b8b6374ced76d946a45f94b7bf4d068c80a360015f5160206129ff5f395f51905f5255604051908152f35b9193929096506020823d602011610d11575b81610cfb602093836116a1565b8101031261049857905195919290916020610b6d565b3d9150610cee565b630626ade360e41b8752600488905234602452604487fd5b5034610f90576020366003190112610f9057600435610d4e6126f7565b610d5781612868565b60208101517f0000000000000000000000000000000000000000000000000000000000000000809103610fa357606082016001600160401b0381511615610f9457516001600160401b03164210610f94576040517f00000000000000000000000000000000000000000000000000000000000000006001600160a01b031690610ddf81611650565b8481525f602082015260405192610df584611650565b83526020830152803b15610f9057604051634692626760e01b815282516004820152602092830151805160248301529092015160448301525f908290606490829084905af19081610f7b575b50610e5a5763614cf93960e01b83526004829052602483fd5b9060c082019160018060a01b0383511691610e8361012083015160208082518301019101611ba1565b93610e8d8561299c565b604085019460600191865b86518051821015610f2e5788906001600160a01b0390610eb9908490612916565b5116610ec6838751612916565b5190803b156103c75787839161036d838c95610f006040519788968795869463561ca52560e01b86526060600487015260648601906115e1565b03925af180156103bc57610f19575b5050600101610e98565b81610f23916116a1565b61049857875f610f0f565b83516040516020916001600160a01b0316857f655ef333d5efcbf5aa343f02bcd9e3539f9c9f9ee8b9cfa7d8910b1bd7e0a8328d80a360015f5160206129ff5f395f51905f525560018152f35b610f889194505f906116a1565b5f925f610e41565b5f80fd5b637bf6a16f60e01b5f5260045ffd5b63629cd40b60e11b5f5260045ffd5b6040366003190112610f90576004356001600160401b038111610f905760a06003198236030112610f9057611018611003602092611011610ff16115a3565b916040519384916004018783016119d1565b03601f1981018452836116a1565b33916120f4565b604051908152f35b60206104eb61102e36611761565b9261103a92919261269d565b611db4565b34610f90576060366003190112610f90576004356001600160401b038111610f90576101406003198236030112610f90576040519061107d82611634565b806004013582526024810135602083015261109a604482016115b9565b60408301526110ab606482016115b9565b60608301526110bc608482016115b9565b608083015260a481013560a08301526110d760c482016115cd565b60c08301526110e860e482016115cd565b60e08301526101048101358015158103610f9057610100830152610124810135906001600160401b038211610f905760046111269236920101611713565b6101208201526024356001600160401b038111610f90576020916111516104eb923690600401611713565b90611e9a565b34610f90576020366003190112610f90576004356001600160401b038111610f905761118a61118f913690600401611713565b611d8b565b604080516001600160a01b03909316835260208301819052829161043a918301906115e1565b34610f90575f366003190112610f90576060806040516111d481611605565b5f81525f60208201525f604082015201526040516351753e3760e11b81527f000000000000000000000000000000000000000000000000000000000000000060048201525f8160248160018060a01b037f0000000000000000000000000000000000000000000000000000000000000000165afa801561134b575f9061129b575b60609061043a604051928392602084528051602085015260018060a01b0360208201511660408501526040810151151582850152015160808084015260a08301906115e1565b503d805f833e6112ab81836116a1565b810190602081830312610f90578051906001600160401b038211610f905701608081830312610f9057604051906112e182611605565b8051825260208101516001600160a01b0381168103610f9057602083015261130b60408201611b19565b60408301526060810151906001600160401b038211610f90570182601f82011215610f905760609281602061134293519101611b26565b82820152611255565b6040513d5f823e3d90fd5b34610f90575f366003190112610f905760206040517f00000000000000000000000000000000000000000000000000000000000000008152f35b34610f90575f366003190112610f905761043a602061147e60016113d37f0000000000000000000000000000000000000000000000000000000000000000612530565b81846113fe7f0000000000000000000000000000000000000000000000000000000000000000612530565b81806114297f0000000000000000000000000000000000000000000000000000000000000000612530565b9260405199878b985191829101848a015e870190601760f91b83830152805192839101602183015e010190601760f91b84830152805192839101600283015e01015f838201520301601f1981018352826116a1565b6040519182916020835260208301906115e1565b34610f90575f366003190112610f9057602060405160328152f35b6060366003190112610f90576004356001600160401b038111610f905760a06003198236030112610f90576114e06115a3565b906044356001600160a01b0381168103610f9057602092611512611520611018946040519283916004018883016119d1565b03601f1981018352826116a1565b6120f4565b34610f90576020366003190112610f90576004359063ffffffff60e01b8216809203610f90576020916346d1b90d60e11b8114908115908161156a575b505015158152f35b90611578575b508380611562565b630acaa6e160e01b811491508115611592575b5083611570565b6301ffc9a760e01b1490508361158b565b602435906001600160401b0382168203610f9057565b35906001600160401b0382168203610f9057565b35906001600160a01b0382168203610f9057565b805180835260209291819084018484015e5f828201840152601f01601f1916010190565b608081019081106001600160401b0382111761162057604052565b634e487b7160e01b5f52604160045260245ffd5b61014081019081106001600160401b0382111761162057604052565b604081019081106001600160401b0382111761162057604052565b60a081019081106001600160401b0382111761162057604052565b60c081019081106001600160401b0382111761162057604052565b90601f801991011681019081106001600160401b0382111761162057604052565b6001600160401b03811161162057601f01601f191660200190565b9291926116e9826116c2565b916116f760405193846116a1565b829481845281830111610f90578281602093845f960137010152565b9080601f83011215610f905781602061172e933591016116dd565b90565b9181601f84011215610f90578235916001600160401b038311610f90576020808501948460051b010111610f9057565b6040600319820112610f90576004356001600160401b038111610f90578161178b91600401611731565b92909291602435906001600160401b038211610f90576117ad91600401611731565b9091565b9181601f84011215610f90578235916001600160401b038311610f905760208381860195010111610f9057565b9080602083519182815201916020808360051b8301019401925f915b83831061180957505050505090565b9091929394602080611827600193601f1986820301875289516115e1565b970193019301919392906117fa565b90602080835192838152019201905f5b8181106118535750505090565b8251845260209384019390920191600101611846565b602080825282516001600160a01b03168183015282015160a06040830152909291906118999060c08501906115e1565b92604082015193601f19828203016060830152602080865192838152019501905f5b8181106118f95750505060806118e461172e94956060850151601f1985830301848601526117de565b9201519060a0601f1982850301910152611836565b82516001600160a01b03168752602096870196909201916001016118bb565b6020600319820112610f9057600435906001600160401b038211610f9057610140908290036003190112610f905760040190565b9035601e1982360301811215610f905701602081359101916001600160401b038211610f90578136038313610f9057565b908060209392818452848401375f828201840152601f01601f1916010190565b9035601e1982360301811215610f905701602081359101916001600160401b038211610f90578160051b36038313610f9057565b602081526001600160a01b036119e6836115cd565b166020820152611a0d6119fc602084018461194c565b60a0604085015260c084019161197d565b916020611a1d604083018361199d565b848603601f1901606086015280865294909101935f5b818110611af357505050611a4a606082018261199d565b601f19848603016080850152808552602085019460208260051b82010195835f925b848410611abb57505050505050806080611a8792019061199d565b828403601f190160a09093019290925281835290916001600160fb1b038311610f905760209260051b809284830137010190565b909192939497602080611ae3600193601f19868203018852611add8d8861194c565b9061197d565b9a01940194019294939190611a6c565b909194602080600192838060a01b03611b0b8a6115cd565b168152019601929101611a33565b51908115158203610f9057565b929192611b32826116c2565b91611b4060405193846116a1565b829481845281830111610f90578281602093845f96015e010152565b51906001600160a01b0382168203610f9057565b9080601f83011215610f9057815161172e92602001611b26565b6001600160401b0381116116205760051b60200190565b602081830312610f90578051906001600160401b038211610f9057019060a082820312610f905760405191611bd58361166b565b611bde81611b5c565b835260208101516001600160401b038111610f905782611bff918301611b70565b602084015260408101516001600160401b038111610f9057810182601f82011215610f9057805190611c3082611b8a565b91611c3e60405193846116a1565b80835260208084019160051b83010191858311610f9057602001905b828210611d7357505050604084015260608101516001600160401b038111610f9057810182601f82011215610f90578051611c9481611b8a565b91611ca260405193846116a1565b81835260208084019260051b82010191858311610f905760208201905b838210611d46575050505060608401526080810151906001600160401b038211610f9057019080601f83011215610f90578151611cfb81611b8a565b92611d0960405194856116a1565b81845260208085019260051b820101928311610f9057602001905b828210611d3657505050608082015290565b8151815260209182019101611d24565b81516001600160401b038111610f9057602091611d6889848094880101611b70565b815201910190611cbf565b60208091611d8084611b5c565b815201910190611c5a565b611d9e9060208082518301019101611ba1565b80516020909101516001600160a01b0390911691565b929092818403611e49575f91345b85841015611e3e5781841015611e2a578360051b8086013590828211611e1b5784013561013e1985360301811215610f9057611dff9085016126de565b15611e105760019103930192611dc2565b505050505050505f90565b63044044a560e21b5f5260045ffd5b634e487b7160e01b5f52603260045260245ffd5b505050505050600190565b63251f56a160e21b5f5260045ffd5b60206040818301928281528451809452019201905f5b818110611e7b5750505090565b82516001600160a01b0316845260209384019390920191600101611e6e565b60208101517f00000000000000000000000000000000000000000000000000000000000000000361202557611ee0610120611ef092015160208082518301019101611ba1565b9160208082518301019101611ba1565b815181516001600160a01b039081169116149182612004575b82611fc1575b82611f6e575b82611f1f57505090565b6080919250810151604051611f44816115126020820194602086526040830190611836565b519020910151604051611f67816115126020820194602086526040830190611836565b5190201490565b91506060820151604051611f928161151260208201946020865260408301906117de565b5190206060820151604051611fb78161151260208201946020865260408301906117de565b5190201491611f15565b91506040820151604051611fdd81611512602082019485611e58565b5190206040820151604051611ffa81611512602082019485611e58565b5190201491611f0f565b91506020820151602081519101206020820151602081519101201491611f09565b50505f90565b604051906120388261166b565b60606080835f815282602082015282604082015282808201520152565b9061014061012061172e9380518452602081015160208501526001600160401b0360408201511660408501526001600160401b0360608201511660608501526001600160401b03608082015116608085015260a081015160a085015260018060a01b0360c08201511660c085015260018060a01b0360e08201511660e085015261010081015115156101008501520151918161012082015201906115e1565b906120fd6126f7565b81519061211260208085019385010183611ba1565b9161211c8361299c565b5f905f9660808501925b835180518a1015612164578961213b91612916565b51810180911161215057600190980197612126565b634e487b7160e01b5f52601160045260245ffd5b5090939692959194975080340361251a57506060870196604001955f5b87518051821015612223576001600160a01b03906121a0908390612916565b5116906121ae818951612916565b51916121bb828c51612916565b51813b15610f90575f916121ed91604051958680948193631dc8160b60e01b83526060600484015260648301906115e1565b33602483015230604483015203925af191821561134b57600192612213575b5001612181565b5f61221d916116a1565b5f61220c565b505093929650935093507f0000000000000000000000000000000000000000000000000000000000000000926001600160401b036040519561226487611686565b60018060a01b031693848752168060208701527f00000000000000000000000000000000000000000000000000000000000000001515908160408801525f60608801528260808801525f60a088015260206040516122c181611650565b8781528181019889526040518099819263f17325e760e01b8352846004840152516024830152516040604483015260018060a01b0381511660648301526001600160401b03848201511660848301526040810151151560a4830152606081015160c483015260a0612342608083015160c060e48601526101248501906115e1565b91015161010483015203815f7f00000000000000000000000000000000000000000000000000000000000000006001600160a01b03165af196871561134b575f976124dd575b50916020916123ed9493604099989951976123a289611634565b8a8952848901526001600160401b034216604089015260608801525f60808801525f60a088015260c087019586523060e0880152610100870152806101208701528051010190611ba1565b926123f78461299c565b5f946060604086019501955b85518051821015612491576001600160a01b0390612422908390612916565b511690612430818951612916565b5191803b15610f9057610c4c5f91612467948360405180978195829463be1e753b60e01b84526040600485015260448401906115e1565b03925af191821561134b57600192612481575b5001612403565b5f61248b916116a1565b5f61247a565b50509350935090519060018060a01b03905116907f8f7f2dbafd79125e808bf16a53d7fa4e17b8b6374ced76d946a45f94b7bf4d065f80a39060015f5160206129ff5f395f51905f5255565b9193929096506020823d602011612512575b816124fc602093836116a1565b81010312610f9057905195919290916020612388565b3d91506124ef565b630626ade360e41b5f526004523460245260445ffd5b805f9172184f03e93ff9f4daa797ed6e38ed64bf6a1f0160401b82101561267a575b806d04ee2d6d415b85acef8100000000600a92101561265f575b662386f26fc1000081101561264b575b6305f5e10081101561263a575b61271081101561262b575b606481101561261d575b1015612612575b600a602160018401936125b7856116c2565b946125c560405196876116a1565b8086526125d4601f19916116c2565b013660208701378401015b5f1901916f181899199a1a9b1b9c1cb0b131b232b360811b8282061a835304801561260d57600a90916125df565b505090565b6001909101906125a5565b60646002910493019261259e565b61271060049104930192612594565b6305f5e10060089104930192612589565b662386f26fc100006010910493019261257c565b6d04ee2d6d415b85acef81000000006020910493019261256c565b506040915072184f03e93ff9f4daa797ed6e38ed64bf6a1f0160401b8104612552565b7f00000000000000000000000000000000000000000000000000000000000000006001600160a01b031633036126cf57565b634ca8886760e01b5f5260045ffd5b60e0013560018060a01b038116809103610f9057301490565b60025f5160206129ff5f395f51905f5254146127205760025f5160206129ff5f395f51905f5255565b633ee5aeb560e01b5f5260045ffd5b6040519061273c82611634565b6060610120835f81525f60208201525f60408201525f838201525f60808201525f60a08201525f60c08201525f60e08201525f6101008201520152565b51906001600160401b0382168203610f9057565b602081830312610f90578051906001600160401b038211610f90570161014081830312610f9057604051916127c183611634565b81518352602082015160208401526127db60408301612779565b60408401526127ec60608301612779565b60608401526127fd60808301612779565b608084015260a082015160a084015261281860c08301611b5c565b60c084015261282960e08301611b5c565b60e084015261283b6101008301611b19565b6101008401526101208201516001600160401b038111610f905761285f9201611b70565b61012082015290565b9061287161272f565b506040516328c44a9960e21b815260048101839052915f836024817f00000000000000000000000000000000000000000000000000000000000000006001600160a01b03165afa92831561134b575f936128fa575b5082518181159182156128ef575b50506128dd5750565b6301fb6dd160e01b5f5260045260245ffd5b14159050815f6128d4565b61290f9193503d805f833e61084081836116a1565b915f6128c6565b8051821015611e2a5760209160051b010190565b80511561298d576001600160401b036060820151168015159081612982575b5061297357608001516001600160401b031661296457600190565b637b6227e960e11b5f5260045ffd5b631ab7da6b60e01b5f5260045ffd5b90504210155f612949565b635c2c7f8960e01b5f5260045ffd5b60408101908151516060820151518114918215926129ee575b50506129df575151603281116129c85750565b630e9407b360e11b5f52600452603260245260445ffd5b63512509d360e11b5f5260045ffd5b6080015151141590505f806129b556fe9b779b17422d0df92223018b32b4d1fa46e071723d6817e2486d003becc55f00a2646970667358221220a10660502747721b2793c2eaf7b54dde213afbd27e04654436091ba476cec1f764736f6c634300081b0033",
    "linkReferences": {}
  },
  "methodIdentifiers": {
    "ATTESTATION_SCHEMA()": "5bf2f20d",
    "ATTESTATION_SCHEMA_REVOCABLE()": "b587a5eb",
    "MAX_HOOKS()": "4fa4467c",
    "attest((bytes32,bytes32,uint64,uint64,uint64,bytes32,address,address,bool,bytes))": "e60c3505",
    "check((bytes32,bytes32,uint64,uint64,uint64,bytes32,address,address,bool,bytes),bytes,bytes32)": "8da3721a",
    "collect(bytes32,bytes32)": "ea6ec49c",
    "decodeCondition(bytes)": "760bd118",
    "decodeObligationData(bytes)": "c93844be",
    "doObligation((address,bytes,address[],bytes[],uint256[]),uint64)": "93abe3dc",
    "doObligationFor((address,bytes,address[],bytes[],uint256[]),uint64,address)": "06920f96",
    "doObligationRaw(bytes,uint64,bytes32)": "b3b902d4",
    "getObligationData(bytes32)": "c6ec5070",
    "getSchema()": "6b122fe0",
    "isPayable()": "ce46e046",
    "multiAttest((bytes32,bytes32,uint64,uint64,uint64,bytes32,address,address,bool,bytes)[],uint256[])": "91db0b7e",
    "multiRevoke((bytes32,bytes32,uint64,uint64,uint64,bytes32,address,address,bool,bytes)[],uint256[])": "88e5b2d9",
    "reclaim(bytes32)": "96afb365",
    "revoke((bytes32,bytes32,uint64,uint64,uint64,bytes32,address,address,bool,bytes))": "e49617e1",
    "supportsInterface(bytes4)": "01ffc9a7",
    "version()": "54fd4d50"
  },
  "id": 87
}