{
  "abi": [
    {
      "type": "constructor",
      "inputs": [
        {
          "name": "_eas",
          "type": "address",
          "internalType": "contract IEAS"
        },
        {
          "name": "_schemaRegistry",
          "type": "address",
          "internalType": "contract ISchemaRegistry"
        }
      ],
      "stateMutability": "nonpayable"
    },
    {
      "type": "receive",
      "stateMutability": "payable"
    },
    {
      "type": "function",
      "name": "ATTESTATION_SCHEMA",
      "inputs": [],
      "outputs": [
        {
          "name": "",
          "type": "bytes32",
          "internalType": "bytes32"
        }
      ],
      "stateMutability": "view"
    },
    {
      "type": "function",
      "name": "attest",
      "inputs": [
        {
          "name": "attestation",
          "type": "tuple",
          "internalType": "struct Attestation",
          "components": [
            {
              "name": "uid",
              "type": "bytes32",
              "internalType": "bytes32"
            },
            {
              "name": "schema",
              "type": "bytes32",
              "internalType": "bytes32"
            },
            {
              "name": "time",
              "type": "uint64",
              "internalType": "uint64"
            },
            {
              "name": "expirationTime",
              "type": "uint64",
              "internalType": "uint64"
            },
            {
              "name": "revocationTime",
              "type": "uint64",
              "internalType": "uint64"
            },
            {
              "name": "refUID",
              "type": "bytes32",
              "internalType": "bytes32"
            },
            {
              "name": "recipient",
              "type": "address",
              "internalType": "address"
            },
            {
              "name": "attester",
              "type": "address",
              "internalType": "address"
            },
            {
              "name": "revocable",
              "type": "bool",
              "internalType": "bool"
            },
            {
              "name": "data",
              "type": "bytes",
              "internalType": "bytes"
            }
          ]
        }
      ],
      "outputs": [
        {
          "name": "",
          "type": "bool",
          "internalType": "bool"
        }
      ],
      "stateMutability": "payable"
    },
    {
      "type": "function",
      "name": "checkObligation",
      "inputs": [
        {
          "name": "obligation",
          "type": "tuple",
          "internalType": "struct Attestation",
          "components": [
            {
              "name": "uid",
              "type": "bytes32",
              "internalType": "bytes32"
            },
            {
              "name": "schema",
              "type": "bytes32",
              "internalType": "bytes32"
            },
            {
              "name": "time",
              "type": "uint64",
              "internalType": "uint64"
            },
            {
              "name": "expirationTime",
              "type": "uint64",
              "internalType": "uint64"
            },
            {
              "name": "revocationTime",
              "type": "uint64",
              "internalType": "uint64"
            },
            {
              "name": "refUID",
              "type": "bytes32",
              "internalType": "bytes32"
            },
            {
              "name": "recipient",
              "type": "address",
              "internalType": "address"
            },
            {
              "name": "attester",
              "type": "address",
              "internalType": "address"
            },
            {
              "name": "revocable",
              "type": "bool",
              "internalType": "bool"
            },
            {
              "name": "data",
              "type": "bytes",
              "internalType": "bytes"
            }
          ]
        },
        {
          "name": "demand",
          "type": "bytes",
          "internalType": "bytes"
        },
        {
          "name": "fulfilling",
          "type": "bytes32",
          "internalType": "bytes32"
        }
      ],
      "outputs": [
        {
          "name": "",
          "type": "bool",
          "internalType": "bool"
        }
      ],
      "stateMutability": "view"
    },
    {
      "type": "function",
      "name": "decodeObligationData",
      "inputs": [
        {
          "name": "data",
          "type": "bytes",
          "internalType": "bytes"
        }
      ],
      "outputs": [
        {
          "name": "",
          "type": "tuple",
          "internalType": "struct ERC1155PaymentObligation.ObligationData",
          "components": [
            {
              "name": "token",
              "type": "address",
              "internalType": "address"
            },
            {
              "name": "tokenId",
              "type": "uint256",
              "internalType": "uint256"
            },
            {
              "name": "amount",
              "type": "uint256",
              "internalType": "uint256"
            },
            {
              "name": "payee",
              "type": "address",
              "internalType": "address"
            }
          ]
        }
      ],
      "stateMutability": "pure"
    },
    {
      "type": "function",
      "name": "doObligation",
      "inputs": [
        {
          "name": "data",
          "type": "tuple",
          "internalType": "struct ERC1155PaymentObligation.ObligationData",
          "components": [
            {
              "name": "token",
              "type": "address",
              "internalType": "address"
            },
            {
              "name": "tokenId",
              "type": "uint256",
              "internalType": "uint256"
            },
            {
              "name": "amount",
              "type": "uint256",
              "internalType": "uint256"
            },
            {
              "name": "payee",
              "type": "address",
              "internalType": "address"
            }
          ]
        },
        {
          "name": "refUID",
          "type": "bytes32",
          "internalType": "bytes32"
        }
      ],
      "outputs": [
        {
          "name": "uid_",
          "type": "bytes32",
          "internalType": "bytes32"
        }
      ],
      "stateMutability": "nonpayable"
    },
    {
      "type": "function",
      "name": "doObligationFor",
      "inputs": [
        {
          "name": "data",
          "type": "tuple",
          "internalType": "struct ERC1155PaymentObligation.ObligationData",
          "components": [
            {
              "name": "token",
              "type": "address",
              "internalType": "address"
            },
            {
              "name": "tokenId",
              "type": "uint256",
              "internalType": "uint256"
            },
            {
              "name": "amount",
              "type": "uint256",
              "internalType": "uint256"
            },
            {
              "name": "payee",
              "type": "address",
              "internalType": "address"
            }
          ]
        },
        {
          "name": "recipient",
          "type": "address",
          "internalType": "address"
        },
        {
          "name": "refUID",
          "type": "bytes32",
          "internalType": "bytes32"
        }
      ],
      "outputs": [
        {
          "name": "uid_",
          "type": "bytes32",
          "internalType": "bytes32"
        }
      ],
      "stateMutability": "nonpayable"
    },
    {
      "type": "function",
      "name": "doObligationRaw",
      "inputs": [
        {
          "name": "data",
          "type": "bytes",
          "internalType": "bytes"
        },
        {
          "name": "expirationTime",
          "type": "uint64",
          "internalType": "uint64"
        },
        {
          "name": "refUID",
          "type": "bytes32",
          "internalType": "bytes32"
        }
      ],
      "outputs": [
        {
          "name": "uid_",
          "type": "bytes32",
          "internalType": "bytes32"
        }
      ],
      "stateMutability": "payable"
    },
    {
      "type": "function",
      "name": "getObligationData",
      "inputs": [
        {
          "name": "uid",
          "type": "bytes32",
          "internalType": "bytes32"
        }
      ],
      "outputs": [
        {
          "name": "",
          "type": "tuple",
          "internalType": "struct ERC1155PaymentObligation.ObligationData",
          "components": [
            {
              "name": "token",
              "type": "address",
              "internalType": "address"
            },
            {
              "name": "tokenId",
              "type": "uint256",
              "internalType": "uint256"
            },
            {
              "name": "amount",
              "type": "uint256",
              "internalType": "uint256"
            },
            {
              "name": "payee",
              "type": "address",
              "internalType": "address"
            }
          ]
        }
      ],
      "stateMutability": "view"
    },
    {
      "type": "function",
      "name": "getSchema",
      "inputs": [],
      "outputs": [
        {
          "name": "",
          "type": "tuple",
          "internalType": "struct SchemaRecord",
          "components": [
            {
              "name": "uid",
              "type": "bytes32",
              "internalType": "bytes32"
            },
            {
              "name": "resolver",
              "type": "address",
              "internalType": "contract ISchemaResolver"
            },
            {
              "name": "revocable",
              "type": "bool",
              "internalType": "bool"
            },
            {
              "name": "schema",
              "type": "string",
              "internalType": "string"
            }
          ]
        }
      ],
      "stateMutability": "view"
    },
    {
      "type": "function",
      "name": "isPayable",
      "inputs": [],
      "outputs": [
        {
          "name": "",
          "type": "bool",
          "internalType": "bool"
        }
      ],
      "stateMutability": "pure"
    },
    {
      "type": "function",
      "name": "multiAttest",
      "inputs": [
        {
          "name": "attestations",
          "type": "tuple[]",
          "internalType": "struct Attestation[]",
          "components": [
            {
              "name": "uid",
              "type": "bytes32",
              "internalType": "bytes32"
            },
            {
              "name": "schema",
              "type": "bytes32",
              "internalType": "bytes32"
            },
            {
              "name": "time",
              "type": "uint64",
              "internalType": "uint64"
            },
            {
              "name": "expirationTime",
              "type": "uint64",
              "internalType": "uint64"
            },
            {
              "name": "revocationTime",
              "type": "uint64",
              "internalType": "uint64"
            },
            {
              "name": "refUID",
              "type": "bytes32",
              "internalType": "bytes32"
            },
            {
              "name": "recipient",
              "type": "address",
              "internalType": "address"
            },
            {
              "name": "attester",
              "type": "address",
              "internalType": "address"
            },
            {
              "name": "revocable",
              "type": "bool",
              "internalType": "bool"
            },
            {
              "name": "data",
              "type": "bytes",
              "internalType": "bytes"
            }
          ]
        },
        {
          "name": "values",
          "type": "uint256[]",
          "internalType": "uint256[]"
        }
      ],
      "outputs": [
        {
          "name": "",
          "type": "bool",
          "internalType": "bool"
        }
      ],
      "stateMutability": "payable"
    },
    {
      "type": "function",
      "name": "multiRevoke",
      "inputs": [
        {
          "name": "attestations",
          "type": "tuple[]",
          "internalType": "struct Attestation[]",
          "components": [
            {
              "name": "uid",
              "type": "bytes32",
              "internalType": "bytes32"
            },
            {
              "name": "schema",
              "type": "bytes32",
              "internalType": "bytes32"
            },
            {
              "name": "time",
              "type": "uint64",
              "internalType": "uint64"
            },
            {
              "name": "expirationTime",
              "type": "uint64",
              "internalType": "uint64"
            },
            {
              "name": "revocationTime",
              "type": "uint64",
              "internalType": "uint64"
            },
            {
              "name": "refUID",
              "type": "bytes32",
              "internalType": "bytes32"
            },
            {
              "name": "recipient",
              "type": "address",
              "internalType": "address"
            },
            {
              "name": "attester",
              "type": "address",
              "internalType": "address"
            },
            {
              "name": "revocable",
              "type": "bool",
              "internalType": "bool"
            },
            {
              "name": "data",
              "type": "bytes",
              "internalType": "bytes"
            }
          ]
        },
        {
          "name": "values",
          "type": "uint256[]",
          "internalType": "uint256[]"
        }
      ],
      "outputs": [
        {
          "name": "",
          "type": "bool",
          "internalType": "bool"
        }
      ],
      "stateMutability": "payable"
    },
    {
      "type": "function",
      "name": "revoke",
      "inputs": [
        {
          "name": "attestation",
          "type": "tuple",
          "internalType": "struct Attestation",
          "components": [
            {
              "name": "uid",
              "type": "bytes32",
              "internalType": "bytes32"
            },
            {
              "name": "schema",
              "type": "bytes32",
              "internalType": "bytes32"
            },
            {
              "name": "time",
              "type": "uint64",
              "internalType": "uint64"
            },
            {
              "name": "expirationTime",
              "type": "uint64",
              "internalType": "uint64"
            },
            {
              "name": "revocationTime",
              "type": "uint64",
              "internalType": "uint64"
            },
            {
              "name": "refUID",
              "type": "bytes32",
              "internalType": "bytes32"
            },
            {
              "name": "recipient",
              "type": "address",
              "internalType": "address"
            },
            {
              "name": "attester",
              "type": "address",
              "internalType": "address"
            },
            {
              "name": "revocable",
              "type": "bool",
              "internalType": "bool"
            },
            {
              "name": "data",
              "type": "bytes",
              "internalType": "bytes"
            }
          ]
        }
      ],
      "outputs": [
        {
          "name": "",
          "type": "bool",
          "internalType": "bool"
        }
      ],
      "stateMutability": "payable"
    },
    {
      "type": "function",
      "name": "version",
      "inputs": [],
      "outputs": [
        {
          "name": "",
          "type": "string",
          "internalType": "string"
        }
      ],
      "stateMutability": "view"
    },
    {
      "type": "event",
      "name": "PaymentMade",
      "inputs": [
        {
          "name": "payment",
          "type": "bytes32",
          "indexed": true,
          "internalType": "bytes32"
        },
        {
          "name": "buyer",
          "type": "address",
          "indexed": true,
          "internalType": "address"
        }
      ],
      "anonymous": false
    },
    {
      "type": "error",
      "name": "AccessDenied",
      "inputs": []
    },
    {
      "type": "error",
      "name": "ERC1155TransferFailed",
      "inputs": [
        {
          "name": "token",
          "type": "address",
          "internalType": "address"
        },
        {
          "name": "from",
          "type": "address",
          "internalType": "address"
        },
        {
          "name": "to",
          "type": "address",
          "internalType": "address"
        },
        {
          "name": "tokenId",
          "type": "uint256",
          "internalType": "uint256"
        },
        {
          "name": "amount",
          "type": "uint256",
          "internalType": "uint256"
        }
      ]
    },
    {
      "type": "error",
      "name": "InsufficientValue",
      "inputs": []
    },
    {
      "type": "error",
      "name": "InvalidEAS",
      "inputs": []
    },
    {
      "type": "error",
      "name": "InvalidLength",
      "inputs": []
    },
    {
      "type": "error",
      "name": "NotFromThisAttester",
      "inputs": []
    },
    {
      "type": "error",
      "name": "NotPayable",
      "inputs": []
    },
    {
      "type": "error",
      "name": "ReentrancyGuardReentrantCall",
      "inputs": []
    },
    {
      "type": "error",
      "name": "SchemaRegistrationFailed",
      "inputs": [
        {
          "name": "uid",
          "type": "bytes32",
          "internalType": "bytes32"
        }
      ]
    }
  ],
  "bytecode": {
    "object": "0x610160806040523461019857604081611b208038038091610020828561019c565b833981010312610198578051906001600160a01b0382169081830361019857602001516001600160a01b0381169190828103610198576040519161006560608461019c565b603d83527f6164647265737320746f6b656e2c2075696e7432353620746f6b656e49642c2060208401527f75696e7432353620616d6f756e742c206164647265737320706179656500000060408401526001608052600360a0525f60c0521561018957836100df9460e052610120526101005230916102b7565b6101405260017f9b779b17422d0df92223018b32b4d1fa46e071723d6817e2486d003becc55f005560405161168d9081610493823960805181610b57015260a05181610b82015260c05181610bad015260e051816115cb015261010051816109ce015261012051818181610386015281816107a801526113460152610140518181816103be015281816106bc0152818161099c01528181610b150152818161107a01526112520152f35b6341bc07ff60e11b5f5260045ffd5b5f80fd5b601f909101601f19168101906001600160401b038211908210176101bf57604052565b634e487b7160e01b5f52604160045260245ffd5b602081830312610198578051906001600160401b0382116101985701906080828203126101985760405191608083016001600160401b038111848210176101bf576040528051835260208101516001600160a01b0381168103610198576020840152604081015180151581036101985760408401526060810151906001600160401b038211610198570181601f82011215610198578051906001600160401b0382116101bf5760405192610291601f8401601f19166020018561019c565b8284526020838301011161019857815f9260208093018386015e83010152606082015290565b929160405190602082018351926103016015602083818901978089885e810160018060601b03198860601b1683820152600160f81b60348201520301600a1981018452018261019c565b5190206040516351753e3760e11b81526004810182905290956001600160a01b031693905f81602481885afa80156104125787915f91610478575b505114610472579060846020926040519485938492630c1af44f60e31b8452606060048501525180928160648601528585015e5f84838501015260018060a01b0316602483015260016044830152601f801991011681010301815f865af15f918161043e575b5061041d57505f602491604051928380926351753e3760e11b82528760048301525afa80156104125783915f916103f0575b5051146103ee5750639e6113d560e01b5f5260045260245ffd5b565b61040c91503d805f833e610404818361019c565b8101906101d3565b5f6103d4565b6040513d5f823e3d90fd5b9192809150820361042c575090565b639e6113d560e01b5f5260045260245ffd5b9091506020813d60201161046a575b8161045a6020938361019c565b810103126101985751905f6103a2565b3d915061044d565b50505050565b61048c91503d805f833e610404818361019c565b5f61033c56fe6080806040526004361015610029575b50361561001a575f80fd5b631574f9f360e01b5f5260045ffd5b5f905f3560e01c90816318c7386d14610c3a5750806354fd4d5014610b385780635bf2f20d14610afe5780636b122fe01461095d57806388e5b2d91461093e57806391db0b7e1461093e578063a40addb6146108da578063b3b902d41461056a578063c6ec507014610301578063c93844be1461022e578063ce46e04614610212578063e49617e1146101f7578063e60c3505146101f75763e6c9714d0361000f57346101f05760603660031901126101f057600435906001600160401b0382116101f05761014060031983360301126101f0576040519161010a83610ddd565b806004013583526024810135602084015261012760448201610d66565b604084015261013860648201610d66565b606084015261014960848201610d66565b608084015260a481013560a084015261016460c48201610d25565b60c084015261017560e48201610d25565b60e084015261010481013580151581036101f3576101008401526101248101356001600160401b0381116101f3576101b291369101600401610ea1565b610120830152602435906001600160401b0382116101f05760206101e6846101dd3660048701610ea1565b60443591611071565b6040519015158152f35b80fd5b8280fd5b60206101e661020536610d7a565b61020d6115c9565b61160a565b50346101f057806003193601126101f057602090604051908152f35b50346101f05760203660031901126101f0576004356001600160401b0381116102fd576102616080913690600401610d39565b9080929161026d610fef565b50810103126102fd576102f991506102b260606040519261028d84610dae565b61029681610d25565b8452602081013560208501526040810135604085015201610d25565b6060820152604051918291829190916060608082019360018060a01b03815116835260208101516020840152604081015160408401528160018060a01b0391015116910152565b0390f35b5080fd5b50346101f05760203660031901126101f05761031b610fef565b50606061012060405161032d81610ddd565b83815283602082015283604082015283838201528360808201528360a08201528360c08201528360e0820152836101008201520152604051906328c44a9960e21b82526004356004830152808260248160018060a01b037f0000000000000000000000000000000000000000000000000000000000000000165afa91821561055d57819261044e575b5060208201517f00000000000000000000000000000000000000000000000000000000000000000361043f576102f96103fd61012084015160208082518301019101611027565b604051918291829190916060608082019360018060a01b03815116835260208101516020840152604081015160408401528160018060a01b0391015116910152565b635527981560e11b8152600490fd5b9091503d8083833e6104608183610e2f565b8101906020818303126101f3578051906001600160401b038211610555570190610140828203126101f3576040519161049883610ddd565b80518352602081015160208401526104b260408201611623565b60408401526104c360608201611623565b60608401526104d460808201611623565b608084015260a081015160a08401526104ef60c08201611013565b60c084015261050060e08201611013565b60e08401526105126101008201610f08565b610100840152610120810151906001600160401b03821161055957019080601f8301121561055557815161054892602001610f15565b610120820152905f6103b6565b8380fd5b8480fd5b50604051903d90823e3d90fd5b5060603660031901126108c7576004356001600160401b0381116108c757610596903690600401610d39565b9190602435906001600160401b0382168092036108c7576105bc90604435943691610e6b565b60025f5160206116385f395f51905f5254146108cb5760025f5160206116385f395f51905f52556105f66020825183010160208301611027565b60018060a01b0381511692606082019460018060a01b038651169360208401958651956040860196875192803b156108c7575f928360c4926040519687958694637921219560e11b865233600487015260248601526044850152606484015260a060848401528160a48401525af190816108b2575b506106b7575050905193519251915160405163334a7d1b60e21b81526001600160a01b039586166004820152336024820152949093166044850152506064830152608482015260a49150fd5b8793507f000000000000000000000000000000000000000000000000000000000000000093604051936106e985610df9565b338552806020860152600160408601528160608601528260808601528360a0860152602060405161071981610e14565b8781528181019687526040518097819263f17325e760e01b8352846004840152516024830152516040604483015260018060a01b0381511660648301526001600160401b03848201511660848301526040810151151560a4830152606081015160c483015260a061079a608083015160c060e4860152610124850190610c81565b9101516101048301520381877f00000000000000000000000000000000000000000000000000000000000000006001600160a01b03165af19485156108a7578495610871575b509461012091602096604051926107f684610ddd565b878452888401526001600160401b0342166040840152606083015284608083015260a08201523360c08201523060e082015260016101008201520152817f4b5d781b1f4414459813c44d669c7821fcdec72a83b67c0303229be68d03ad05339280a360015f5160206116385f395f51905f5255604051908152f35b9094506020813d60201161089f575b8161088d60209383610e2f565b810103126105555751936101206107e0565b3d9150610880565b6040513d86823e3d90fd5b6108bf9193505f90610e2f565b5f915f61066b565b5f80fd5b633ee5aeb560e01b5f5260045ffd5b346108c757366003190160c081126108c7576080136108c7576084356001600160a01b03811681036108c7576109366020916040519061092d8261091f868201610ebf565b03601f198101845283610e2f565b60a4359161114c565b604051908152f35b60206101e661094c36610cd5565b926109589291926115c9565b610f4b565b346108c7575f3660031901126108c75760608060405161097c81610dae565b5f81525f60208201525f604082015201526040516351753e3760e11b81527f000000000000000000000000000000000000000000000000000000000000000060048201525f8160248160018060a01b037f0000000000000000000000000000000000000000000000000000000000000000165afa8015610af3575f90610a43575b6060906102f9604051928392602084528051602085015260018060a01b0360208201511660408501526040810151151582850152015160808084015260a0830190610c81565b503d805f833e610a538183610e2f565b8101906020818303126108c7578051906001600160401b0382116108c757016080818303126108c75760405190610a8982610dae565b8051825260208101516001600160a01b03811681036108c7576020830152610ab360408201610f08565b60408301526060810151906001600160401b0382116108c7570182601f820112156108c757606092816020610aea93519101610f15565b828201526109fd565b6040513d5f823e3d90fd5b346108c7575f3660031901126108c75760206040517f00000000000000000000000000000000000000000000000000000000000000008152f35b346108c7575f3660031901126108c7576102f96020610c266001610b7b7f000000000000000000000000000000000000000000000000000000000000000061145c565b8184610ba67f000000000000000000000000000000000000000000000000000000000000000061145c565b8180610bd17f000000000000000000000000000000000000000000000000000000000000000061145c565b9260405199878b985191829101848a015e870190601760f91b83830152805192839101602183015e010190601760f91b84830152805192839101600283015e01015f838201520301601f198101835282610e2f565b604051918291602083526020830190610c81565b346108c757366003190160a081126108c7576080136108c75761093681610c7681610c686020809601610ebf565b03601f198101835282610e2f565b60843590339061114c565b805180835260209291819084018484015e5f828201840152601f01601f1916010190565b9181601f840112156108c7578235916001600160401b0383116108c7576020808501948460051b0101116108c757565b60406003198201126108c7576004356001600160401b0381116108c75781610cff91600401610ca5565b92909291602435906001600160401b0382116108c757610d2191600401610ca5565b9091565b35906001600160a01b03821682036108c757565b9181601f840112156108c7578235916001600160401b0383116108c757602083818601950101116108c757565b35906001600160401b03821682036108c757565b60206003198201126108c757600435906001600160401b0382116108c7576101409082900360031901126108c75760040190565b608081019081106001600160401b03821117610dc957604052565b634e487b7160e01b5f52604160045260245ffd5b61014081019081106001600160401b03821117610dc957604052565b60c081019081106001600160401b03821117610dc957604052565b604081019081106001600160401b03821117610dc957604052565b90601f801991011681019081106001600160401b03821117610dc957604052565b6001600160401b038111610dc957601f01601f191660200190565b929192610e7782610e50565b91610e856040519384610e2f565b8294818452818301116108c7578281602093845f960137010152565b9080601f830112156108c757816020610ebc93359101610e6b565b90565b6080810191906004356001600160a01b038116908190036108c7578152602435602082015260443560408201526064356001600160a01b03811691908290036108c75760600152565b519081151582036108c757565b929192610f2182610e50565b91610f2f6040519384610e2f565b8294818452818301116108c7578281602093845f96015e010152565b929092818403610fe0575f91345b85841015610fd55781841015610fc1578360051b8086013590828211610fb25784013561013e19853603018112156108c757610f9690850161160a565b15610fa75760019103930192610f59565b505050505050505f90565b63044044a560e21b5f5260045ffd5b634e487b7160e01b5f52603260045260245ffd5b505050505050600190565b63251f56a160e21b5f5260045ffd5b60405190610ffc82610dae565b5f6060838281528260208201528260408201520152565b51906001600160a01b03821682036108c757565b908160809103126108c75761106960606040519261104484610dae565b61104d81611013565b8452602081015160208501526040810151604085015201611013565b606082015290565b909160208201517f0000000000000000000000000000000000000000000000000000000000000000036111455760a08201510361113f576110c36101206110d392015160208082518301019101611027565b9160208082518301019101611027565b815181516001600160a01b03908116911614918261112c575b82611118575b826110fc57505090565b6060908101519101516001600160a01b03908116911614919050565b9150604082015160408201511115916110f2565b91506020820151602082015114916110ec565b50505f90565b5050505f90565b5f5160206116385f395f51905f52545f9392906002146108cb5760025f5160206116385f395f51905f525561118a6020835184010160208401611027565b9060018060a01b0382511693606083019560018060a01b038751169460208501968751966040870197885192803b156108c7575f928360c4926040519687958694637921219560e11b865233600487015260248601526044850152606484015260a060848401528160a48401525af19081611447575b5061124857845188518851885160405163334a7d1b60e21b81526001600160a01b0394851660048201523360248201529390921660448401526064830152608482015260a490fd5b93509350935093507f00000000000000000000000000000000000000000000000000000000000000006040519461127e86610df9565b60018060a01b031693848652836020870152600160408701528060608701528260808701528360a087015260206040516112b781610e14565b8381528181019788526040518098819263f17325e760e01b8352846004840152516024830152516040604483015260018060a01b0381511660648301526001600160401b03848201511660848301526040810151151560a4830152606081015160c483015260a0611338608083015160c060e4860152610124850190610c81565b9101516101048301520381877f00000000000000000000000000000000000000000000000000000000000000006001600160a01b03165af19586156108a7578496611409575b50916101208694927f4b5d781b1f4414459813c44d669c7821fcdec72a83b67c0303229be68d03ad0594604051916113b583610ddd565b87835260208301526001600160401b034216604083015284606083015284608083015260a08201528660c08201523060e08201526001610100820152015280a39060015f5160206116385f395f51905f5255565b9093929195506020813d60201161143f575b8161142860209383610e2f565b810103126101f3575194919290919061012061137e565b3d915061141b565b6114549193505f90610e2f565b5f915f611200565b805f9172184f03e93ff9f4daa797ed6e38ed64bf6a1f0160401b8210156115a6575b806d04ee2d6d415b85acef8100000000600a92101561158b575b662386f26fc10000811015611577575b6305f5e100811015611566575b612710811015611557575b6064811015611549575b101561153e575b600a602160018401936114e385610e50565b946114f16040519687610e2f565b808652611500601f1991610e50565b013660208701378401015b5f1901916f181899199a1a9b1b9c1cb0b131b232b360811b8282061a835304801561153957600a909161150b565b505090565b6001909101906114d1565b6064600291049301926114ca565b612710600491049301926114c0565b6305f5e100600891049301926114b5565b662386f26fc10000601091049301926114a8565b6d04ee2d6d415b85acef810000000060209104930192611498565b506040915072184f03e93ff9f4daa797ed6e38ed64bf6a1f0160401b810461147e565b7f00000000000000000000000000000000000000000000000000000000000000006001600160a01b031633036115fb57565b634ca8886760e01b5f5260045ffd5b60e0013560018060a01b0381168091036108c757301490565b51906001600160401b03821682036108c75756fe9b779b17422d0df92223018b32b4d1fa46e071723d6817e2486d003becc55f00a26469706673582212200f4b889a5b599a94f6c3d113cdeed4eceb6305f6f422f7fa889dbae2478f932464736f6c634300081b0033",
    "linkReferences": {}
  },
  "methodIdentifiers": {
    "ATTESTATION_SCHEMA()": "5bf2f20d",
    "attest((bytes32,bytes32,uint64,uint64,uint64,bytes32,address,address,bool,bytes))": "e60c3505",
    "checkObligation((bytes32,bytes32,uint64,uint64,uint64,bytes32,address,address,bool,bytes),bytes,bytes32)": "e6c9714d",
    "decodeObligationData(bytes)": "c93844be",
    "doObligation((address,uint256,uint256,address),bytes32)": "18c7386d",
    "doObligationFor((address,uint256,uint256,address),address,bytes32)": "a40addb6",
    "doObligationRaw(bytes,uint64,bytes32)": "b3b902d4",
    "getObligationData(bytes32)": "c6ec5070",
    "getSchema()": "6b122fe0",
    "isPayable()": "ce46e046",
    "multiAttest((bytes32,bytes32,uint64,uint64,uint64,bytes32,address,address,bool,bytes)[],uint256[])": "91db0b7e",
    "multiRevoke((bytes32,bytes32,uint64,uint64,uint64,bytes32,address,address,bool,bytes)[],uint256[])": "88e5b2d9",
    "revoke((bytes32,bytes32,uint64,uint64,uint64,bytes32,address,address,bool,bytes))": "e49617e1",
    "version()": "54fd4d50"
  },
  "id": 146
}