{
  "abi": [
    {
      "type": "constructor",
      "inputs": [
        {
          "name": "_eas",
          "type": "address",
          "internalType": "contract IEAS"
        }
      ],
      "stateMutability": "nonpayable"
    },
    {
      "type": "function",
      "name": "attestAndCreateReferenceEscrow",
      "inputs": [
        {
          "name": "escrow",
          "type": "address",
          "internalType": "contract AttestationReferenceEscrowObligation"
        },
        {
          "name": "request",
          "type": "tuple",
          "internalType": "struct AttestationRequest",
          "components": [
            {
              "name": "schema",
              "type": "bytes32",
              "internalType": "bytes32"
            },
            {
              "name": "data",
              "type": "tuple",
              "internalType": "struct AttestationRequestData",
              "components": [
                {
                  "name": "recipient",
                  "type": "address",
                  "internalType": "address"
                },
                {
                  "name": "expirationTime",
                  "type": "uint64",
                  "internalType": "uint64"
                },
                {
                  "name": "revocable",
                  "type": "bool",
                  "internalType": "bool"
                },
                {
                  "name": "refUID",
                  "type": "bytes32",
                  "internalType": "bytes32"
                },
                {
                  "name": "data",
                  "type": "bytes",
                  "internalType": "bytes"
                },
                {
                  "name": "value",
                  "type": "uint256",
                  "internalType": "uint256"
                }
              ]
            }
          ]
        },
        {
          "name": "escrowData",
          "type": "tuple",
          "internalType": "struct AtomicAttestationUtils.ReferenceEscrowData",
          "components": [
            {
              "name": "arbiter",
              "type": "address",
              "internalType": "address"
            },
            {
              "name": "demand",
              "type": "bytes",
              "internalType": "bytes"
            },
            {
              "name": "validationExpirationTime",
              "type": "uint64",
              "internalType": "uint64"
            },
            {
              "name": "validationRevocable",
              "type": "bool",
              "internalType": "bool"
            }
          ]
        },
        {
          "name": "escrowExpirationTime",
          "type": "uint64",
          "internalType": "uint64"
        }
      ],
      "outputs": [
        {
          "name": "attestationUid",
          "type": "bytes32",
          "internalType": "bytes32"
        },
        {
          "name": "escrowUid",
          "type": "bytes32",
          "internalType": "bytes32"
        }
      ],
      "stateMutability": "payable"
    },
    {
      "type": "function",
      "name": "attestAndCreateUnconditionalReferenceEscrow",
      "inputs": [
        {
          "name": "escrow",
          "type": "address",
          "internalType": "contract UnconditionalAttestationReferenceEscrowObligation"
        },
        {
          "name": "request",
          "type": "tuple",
          "internalType": "struct AttestationRequest",
          "components": [
            {
              "name": "schema",
              "type": "bytes32",
              "internalType": "bytes32"
            },
            {
              "name": "data",
              "type": "tuple",
              "internalType": "struct AttestationRequestData",
              "components": [
                {
                  "name": "recipient",
                  "type": "address",
                  "internalType": "address"
                },
                {
                  "name": "expirationTime",
                  "type": "uint64",
                  "internalType": "uint64"
                },
                {
                  "name": "revocable",
                  "type": "bool",
                  "internalType": "bool"
                },
                {
                  "name": "refUID",
                  "type": "bytes32",
                  "internalType": "bytes32"
                },
                {
                  "name": "data",
                  "type": "bytes",
                  "internalType": "bytes"
                },
                {
                  "name": "value",
                  "type": "uint256",
                  "internalType": "uint256"
                }
              ]
            }
          ]
        },
        {
          "name": "escrowData",
          "type": "tuple",
          "internalType": "struct AtomicAttestationUtils.ReferenceEscrowData",
          "components": [
            {
              "name": "arbiter",
              "type": "address",
              "internalType": "address"
            },
            {
              "name": "demand",
              "type": "bytes",
              "internalType": "bytes"
            },
            {
              "name": "validationExpirationTime",
              "type": "uint64",
              "internalType": "uint64"
            },
            {
              "name": "validationRevocable",
              "type": "bool",
              "internalType": "bool"
            }
          ]
        },
        {
          "name": "escrowExpirationTime",
          "type": "uint64",
          "internalType": "uint64"
        }
      ],
      "outputs": [
        {
          "name": "attestationUid",
          "type": "bytes32",
          "internalType": "bytes32"
        },
        {
          "name": "escrowUid",
          "type": "bytes32",
          "internalType": "bytes32"
        }
      ],
      "stateMutability": "payable"
    },
    {
      "type": "function",
      "name": "eas",
      "inputs": [],
      "outputs": [
        {
          "name": "",
          "type": "address",
          "internalType": "contract IEAS"
        }
      ],
      "stateMutability": "view"
    },
    {
      "type": "error",
      "name": "IncorrectAttestationValue",
      "inputs": [
        {
          "name": "expected",
          "type": "uint256",
          "internalType": "uint256"
        },
        {
          "name": "actual",
          "type": "uint256",
          "internalType": "uint256"
        }
      ]
    }
  ],
  "bytecode": {
    "object": "0x60a034606d57601f6105e738819003918201601f19168301916001600160401b03831184841017607157808492602094604052833981010312606d57516001600160a01b0381168103606d57608052604051610561908161008682396080518181816101c701526104aa0152f35b5f80fd5b634e487b7160e01b5f52604160045260245ffdfe60806040526004361015610011575f80fd5b5f3560e01c80637d1e90df1461003a5780638150864d146101b25763910452291461003a575f80fd5b608036600319011261019b576004356001600160a01b0381169081900361019b5760243567ffffffffffffffff811161019b576040600319823603011261019b576044359067ffffffffffffffff821161019b57816004016080600319843603011261019b5761014f9360209261011967ffffffffffffffff6100c76100be6101f6565b9360040161039c565b966100df6100d48761020d565b966024830190610221565b93906100f960646100f260448601610254565b9401610269565b94604051986101078a610276565b6001600160a01b0316895236916102c8565b87870152876040870152166060850152151560808401525f60405180978195829463271fd49360e11b845233916004850161030e565b03925af180156101a7575f90610170575b6040809350519182526020820152f35b506020823d60201161019f575b8161018a602093836102a6565b8101031261019b5760409151610160565b5f80fd5b3d915061017d565b6040513d5f823e3d90fd5b3461019b575f36600319011261019b576040517f00000000000000000000000000000000000000000000000000000000000000006001600160a01b03168152602090f35b6064359067ffffffffffffffff8216820361019b57565b356001600160a01b038116810361019b5790565b903590601e198136030182121561019b570180359067ffffffffffffffff821161019b5760200191813603831361019b57565b3567ffffffffffffffff8116810361019b5790565b35801515810361019b5790565b60a0810190811067ffffffffffffffff82111761029257604052565b634e487b7160e01b5f52604160045260245ffd5b90601f8019910116810190811067ffffffffffffffff82111761029257604052565b92919267ffffffffffffffff821161029257604051916102f2601f8201601f1916602001846102a6565b82948184528183011161019b578281602093845f960137010152565b91939267ffffffffffffffff6040926060855260018060a01b038151166060860152608060c0606060208085015160a0858b01528051918291826101008d0152016101208b015e5f8383838c01010152601f801991011688010101918581015160a08801528360608201511660c08801520151151560e08601529516602084015260018060a01b0316910152565b60208101359060be198136030182121561019b5760a0828201013590813403610514576040805163f17325e760e01b815260206004820152823560248201526044810191909152920180356001600160a01b0381169081900361019b576064840152602081013567ffffffffffffffff811680910361019b576084840152604081013580151580910361019b5760a4840152606081013560c48401526080810135601e198236030181121561019b578101916020833593019267ffffffffffffffff811161019b57803603841361019b57610144858260a08296839560209960c060e487015281610124870152868601375f8484018601520135610104830152601f01601f191681010301917f00000000000000000000000000000000000000000000000000000000000000006001600160a01b03165af19081156101a7575f916104e5575090565b90506020813d60201161050c575b81610500602093836102a6565b8101031261019b575190565b3d91506104f3565b506351f15f6d60e01b5f526004523460245260445ffdfea264697066735822122037e7284ac2a6b8ca8b4f58e33894f7535633a5a778c8b6ba8377d0ac3cf6c4d464736f6c634300081b0033",
    "linkReferences": {}
  },
  "methodIdentifiers": {
    "attestAndCreateReferenceEscrow(address,(bytes32,(address,uint64,bool,bytes32,bytes,uint256)),(address,bytes,uint64,bool),uint64)": "91045229",
    "attestAndCreateUnconditionalReferenceEscrow(address,(bytes32,(address,uint64,bool,bytes32,bytes,uint256)),(address,bytes,uint64,bool),uint64)": "7d1e90df",
    "eas()": "8150864d"
  },
  "id": 124
}