{
  "abi": [
    {
      "type": "constructor",
      "inputs": [
        {
          "name": "_eas",
          "type": "address",
          "internalType": "contract IEAS"
        },
        {
          "name": "_schemaRegistry",
          "type": "address",
          "internalType": "contract ISchemaRegistry"
        }
      ],
      "stateMutability": "nonpayable"
    },
    {
      "type": "receive",
      "stateMutability": "payable"
    },
    {
      "type": "function",
      "name": "attest",
      "inputs": [
        {
          "name": "schema",
          "type": "bytes32",
          "internalType": "bytes32"
        },
        {
          "name": "recipient",
          "type": "address",
          "internalType": "address"
        },
        {
          "name": "expirationTime",
          "type": "uint64",
          "internalType": "uint64"
        },
        {
          "name": "revocable",
          "type": "bool",
          "internalType": "bool"
        },
        {
          "name": "refUID",
          "type": "bytes32",
          "internalType": "bytes32"
        },
        {
          "name": "data",
          "type": "bytes",
          "internalType": "bytes"
        }
      ],
      "outputs": [
        {
          "name": "",
          "type": "bytes32",
          "internalType": "bytes32"
        }
      ],
      "stateMutability": "nonpayable"
    },
    {
      "type": "function",
      "name": "attest",
      "inputs": [
        {
          "name": "attestation",
          "type": "tuple",
          "internalType": "struct Attestation",
          "components": [
            {
              "name": "uid",
              "type": "bytes32",
              "internalType": "bytes32"
            },
            {
              "name": "schema",
              "type": "bytes32",
              "internalType": "bytes32"
            },
            {
              "name": "time",
              "type": "uint64",
              "internalType": "uint64"
            },
            {
              "name": "expirationTime",
              "type": "uint64",
              "internalType": "uint64"
            },
            {
              "name": "revocationTime",
              "type": "uint64",
              "internalType": "uint64"
            },
            {
              "name": "refUID",
              "type": "bytes32",
              "internalType": "bytes32"
            },
            {
              "name": "recipient",
              "type": "address",
              "internalType": "address"
            },
            {
              "name": "attester",
              "type": "address",
              "internalType": "address"
            },
            {
              "name": "revocable",
              "type": "bool",
              "internalType": "bool"
            },
            {
              "name": "data",
              "type": "bytes",
              "internalType": "bytes"
            }
          ]
        }
      ],
      "outputs": [
        {
          "name": "",
          "type": "bool",
          "internalType": "bool"
        }
      ],
      "stateMutability": "payable"
    },
    {
      "type": "function",
      "name": "eas",
      "inputs": [],
      "outputs": [
        {
          "name": "",
          "type": "address",
          "internalType": "contract IEAS"
        }
      ],
      "stateMutability": "view"
    },
    {
      "type": "function",
      "name": "getSchema",
      "inputs": [
        {
          "name": "schemaId",
          "type": "bytes32",
          "internalType": "bytes32"
        }
      ],
      "outputs": [
        {
          "name": "",
          "type": "tuple",
          "internalType": "struct SchemaRecord",
          "components": [
            {
              "name": "uid",
              "type": "bytes32",
              "internalType": "bytes32"
            },
            {
              "name": "resolver",
              "type": "address",
              "internalType": "contract ISchemaResolver"
            },
            {
              "name": "revocable",
              "type": "bool",
              "internalType": "bool"
            },
            {
              "name": "schema",
              "type": "string",
              "internalType": "string"
            }
          ]
        }
      ],
      "stateMutability": "view"
    },
    {
      "type": "function",
      "name": "isPayable",
      "inputs": [],
      "outputs": [
        {
          "name": "",
          "type": "bool",
          "internalType": "bool"
        }
      ],
      "stateMutability": "pure"
    },
    {
      "type": "function",
      "name": "multiAttest",
      "inputs": [
        {
          "name": "attestations",
          "type": "tuple[]",
          "internalType": "struct Attestation[]",
          "components": [
            {
              "name": "uid",
              "type": "bytes32",
              "internalType": "bytes32"
            },
            {
              "name": "schema",
              "type": "bytes32",
              "internalType": "bytes32"
            },
            {
              "name": "time",
              "type": "uint64",
              "internalType": "uint64"
            },
            {
              "name": "expirationTime",
              "type": "uint64",
              "internalType": "uint64"
            },
            {
              "name": "revocationTime",
              "type": "uint64",
              "internalType": "uint64"
            },
            {
              "name": "refUID",
              "type": "bytes32",
              "internalType": "bytes32"
            },
            {
              "name": "recipient",
              "type": "address",
              "internalType": "address"
            },
            {
              "name": "attester",
              "type": "address",
              "internalType": "address"
            },
            {
              "name": "revocable",
              "type": "bool",
              "internalType": "bool"
            },
            {
              "name": "data",
              "type": "bytes",
              "internalType": "bytes"
            }
          ]
        },
        {
          "name": "values",
          "type": "uint256[]",
          "internalType": "uint256[]"
        }
      ],
      "outputs": [
        {
          "name": "",
          "type": "bool",
          "internalType": "bool"
        }
      ],
      "stateMutability": "payable"
    },
    {
      "type": "function",
      "name": "multiRevoke",
      "inputs": [
        {
          "name": "attestations",
          "type": "tuple[]",
          "internalType": "struct Attestation[]",
          "components": [
            {
              "name": "uid",
              "type": "bytes32",
              "internalType": "bytes32"
            },
            {
              "name": "schema",
              "type": "bytes32",
              "internalType": "bytes32"
            },
            {
              "name": "time",
              "type": "uint64",
              "internalType": "uint64"
            },
            {
              "name": "expirationTime",
              "type": "uint64",
              "internalType": "uint64"
            },
            {
              "name": "revocationTime",
              "type": "uint64",
              "internalType": "uint64"
            },
            {
              "name": "refUID",
              "type": "bytes32",
              "internalType": "bytes32"
            },
            {
              "name": "recipient",
              "type": "address",
              "internalType": "address"
            },
            {
              "name": "attester",
              "type": "address",
              "internalType": "address"
            },
            {
              "name": "revocable",
              "type": "bool",
              "internalType": "bool"
            },
            {
              "name": "data",
              "type": "bytes",
              "internalType": "bytes"
            }
          ]
        },
        {
          "name": "values",
          "type": "uint256[]",
          "internalType": "uint256[]"
        }
      ],
      "outputs": [
        {
          "name": "",
          "type": "bool",
          "internalType": "bool"
        }
      ],
      "stateMutability": "payable"
    },
    {
      "type": "function",
      "name": "registerSchema",
      "inputs": [
        {
          "name": "schema",
          "type": "string",
          "internalType": "string"
        },
        {
          "name": "resolver",
          "type": "address",
          "internalType": "contract SchemaResolver"
        },
        {
          "name": "revocable",
          "type": "bool",
          "internalType": "bool"
        }
      ],
      "outputs": [
        {
          "name": "",
          "type": "bytes32",
          "internalType": "bytes32"
        }
      ],
      "stateMutability": "nonpayable"
    },
    {
      "type": "function",
      "name": "revoke",
      "inputs": [
        {
          "name": "attestation",
          "type": "tuple",
          "internalType": "struct Attestation",
          "components": [
            {
              "name": "uid",
              "type": "bytes32",
              "internalType": "bytes32"
            },
            {
              "name": "schema",
              "type": "bytes32",
              "internalType": "bytes32"
            },
            {
              "name": "time",
              "type": "uint64",
              "internalType": "uint64"
            },
            {
              "name": "expirationTime",
              "type": "uint64",
              "internalType": "uint64"
            },
            {
              "name": "revocationTime",
              "type": "uint64",
              "internalType": "uint64"
            },
            {
              "name": "refUID",
              "type": "bytes32",
              "internalType": "bytes32"
            },
            {
              "name": "recipient",
              "type": "address",
              "internalType": "address"
            },
            {
              "name": "attester",
              "type": "address",
              "internalType": "address"
            },
            {
              "name": "revocable",
              "type": "bool",
              "internalType": "bool"
            },
            {
              "name": "data",
              "type": "bytes",
              "internalType": "bytes"
            }
          ]
        }
      ],
      "outputs": [
        {
          "name": "",
          "type": "bool",
          "internalType": "bool"
        }
      ],
      "stateMutability": "payable"
    },
    {
      "type": "function",
      "name": "schemaRegistry",
      "inputs": [],
      "outputs": [
        {
          "name": "",
          "type": "address",
          "internalType": "contract ISchemaRegistry"
        }
      ],
      "stateMutability": "view"
    },
    {
      "type": "function",
      "name": "schemaResolvers",
      "inputs": [
        {
          "name": "",
          "type": "bytes32",
          "internalType": "bytes32"
        }
      ],
      "outputs": [
        {
          "name": "",
          "type": "address",
          "internalType": "address"
        }
      ],
      "stateMutability": "view"
    },
    {
      "type": "function",
      "name": "version",
      "inputs": [],
      "outputs": [
        {
          "name": "",
          "type": "string",
          "internalType": "string"
        }
      ],
      "stateMutability": "view"
    },
    {
      "type": "event",
      "name": "SchemaRegistered",
      "inputs": [
        {
          "name": "schemaId",
          "type": "bytes32",
          "indexed": true,
          "internalType": "bytes32"
        },
        {
          "name": "schema",
          "type": "string",
          "indexed": false,
          "internalType": "string"
        },
        {
          "name": "resolver",
          "type": "address",
          "indexed": false,
          "internalType": "address"
        }
      ],
      "anonymous": false
    },
    {
      "type": "error",
      "name": "AccessDenied",
      "inputs": []
    },
    {
      "type": "error",
      "name": "InsufficientValue",
      "inputs": []
    },
    {
      "type": "error",
      "name": "InvalidEAS",
      "inputs": []
    },
    {
      "type": "error",
      "name": "InvalidLength",
      "inputs": []
    },
    {
      "type": "error",
      "name": "InvalidResolver",
      "inputs": []
    },
    {
      "type": "error",
      "name": "InvalidSchema",
      "inputs": []
    },
    {
      "type": "error",
      "name": "NotPayable",
      "inputs": []
    }
  ],
  "bytecode": {
    "object": "0x610140346100f157601f610d1438819003918201601f19168301916001600160401b038311848410176100f55780849260409485528339810103126100f15780516001600160a01b038116918282036100f15760200151916001600160a01b03831683036100f1576001608052600360a0525f60c052156100e2578060e0526101005261012052604051610c0a908161010a823960805181610332015260a0518161035d015260c05181610388015260e05181610b950152610100518181816102e4015261074e015261012051818181610148015281816104a401526105980152f35b6341bc07ff60e11b5f5260045ffd5b5f80fd5b634e487b7160e01b5f52604160045260245ffdfe6080806040526004361015610029575b50361561001a575f80fd5b631574f9f360e01b5f5260045ffd5b5f3560e01c90816313bbebfc146107d7575080632ac17f32146105c75780634441bbd91461058357806353d55cc01461041557806354fd4d50146103135780638150864d146102cf57806388e5b2d9146102a657806391db0b7e146102a6578063a2ea7c6e146100f4578063ce46e046146100d6578063e49617e1146100b95763e60c3505146100b9575f61000f565b6100c2366108d9565b506100cb610b93565b602060405160018152f35b346100f0575f3660031901126100f05760206040515f8152f35b5f80fd5b346100f05760203660031901126100f0576060806040516101148161090d565b5f81525f60208201525f604082015201526040516351753e3760e11b815260043560048201525f8160248160018060a01b037f0000000000000000000000000000000000000000000000000000000000000000165afa801561029b575f906101c1575b6060906101bd604051928392602084528051602085015260018060a01b0360208201511660408501526040810151151582850152015160808084015260a0830190610835565b0390f35b503d805f833e6101d18183610928565b8101906020818303126100f0578051906001600160401b0382116100f057016080818303126100f057604051906102078261090d565b8051825260208101516001600160a01b03811681036100f0576020830152604081015180151581036100f05760408301526060810151906001600160401b0382116100f057019180601f840112156100f057825161026481610949565b916102726040519384610928565b818352602082860101116100f0576020815f9282606097018386015e8301015282820152610177565b6040513d5f823e3d90fd5b60206102c56102b436610889565b926102c0929192610b93565b6109bb565b6040519015158152f35b346100f0575f3660031901126100f0576040517f00000000000000000000000000000000000000000000000000000000000000006001600160a01b03168152602090f35b346100f0575f3660031901126100f0576101bd602061040160016103567f0000000000000000000000000000000000000000000000000000000000000000610a26565b81846103817f0000000000000000000000000000000000000000000000000000000000000000610a26565b81806103ac7f0000000000000000000000000000000000000000000000000000000000000000610a26565b9260405199878b985191829101848a015e870190601760f91b83830152805192839101602183015e010190601760f91b84830152805192839101600283015e01015f838201520301601f198101835282610928565b604051918291602083526020830190610835565b346100f05760603660031901126100f0576004356001600160401b0381116100f057610445903690600401610808565b6024356001600160a01b03811691908290036100f057604435918215158093036100f0576020604051808095630c1af44f60e31b82526060600483015261049060648301878a610964565b60248301869052604483019190915203815f7f00000000000000000000000000000000000000000000000000000000000000006001600160a01b03165af192831561029b575f9361054c575b5060209383927fe1de970d17b45f7e907a7d4a1b40501d574c2d5ac3426c2ac4acb06f43c1b35a92845f525f875260405f20816bffffffffffffffffffffffff60a01b82541617905561053c604051938493604085526040850191610964565b90878301520390a2604051908152f35b909192506020813d60201161057b575b8161056960209383610928565b810103126100f05751919060206104dc565b3d915061055c565b346100f0575f3660031901126100f0576040517f00000000000000000000000000000000000000000000000000000000000000006001600160a01b03168152602090f35b346100f05760c03660031901126100f0576024356001600160a01b038116908190036100f0576044356001600160401b0381168091036100f0576064358015158091036100f05760a4356001600160401b0381116100f05761062d903690600401610808565b9190926040519460c086018681106001600160401b038211176107c357604052855260208501526040840152608435606084015261066a81610949565b916106786040519384610928565b81835236828201116100f057815f92602092838601378301015260808201525f60a082015260405160408101908082106001600160401b038311176107c35760209160405260043581528181019283526040518093819263f17325e760e01b8352846004840152516024830152516040604483015260018060a01b0381511660648301526001600160401b03848201511660848301526040810151151560a4830152606081015160c483015260a0610740608083015160c060e4860152610124850190610835565b91015161010483015203815f7f00000000000000000000000000000000000000000000000000000000000000006001600160a01b03165af1801561029b575f90610790575b602090604051908152f35b506020813d6020116107bb575b816107aa60209383610928565b810103126100f05760209051610785565b3d915061079d565b634e487b7160e01b5f52604160045260245ffd5b346100f05760203660031901126100f0576004355f90815260208181526040909120546001600160a01b0316825290f35b9181601f840112156100f0578235916001600160401b0383116100f057602083818601950101116100f057565b805180835260209291819084018484015e5f828201840152601f01601f1916010190565b9181601f840112156100f0578235916001600160401b0383116100f0576020808501948460051b0101116100f057565b60406003198201126100f0576004356001600160401b0381116100f057816108b391600401610859565b92909291602435906001600160401b0382116100f0576108d591600401610859565b9091565b60206003198201126100f057600435906001600160401b0382116100f0576101409082900360031901126100f05760040190565b608081019081106001600160401b038211176107c357604052565b90601f801991011681019081106001600160401b038211176107c357604052565b6001600160401b0381116107c357601f01601f191660200190565b908060209392818452848401375f828201840152601f01601f1916010190565b91908110156109a75760051b8101359061013e19813603018212156100f0570190565b634e487b7160e01b5f52603260045260245ffd5b9291828203610a17575f90345b8383106109da57505050505050600190565b848310156109a7578260051b820135818111610a08576001916109fe85878a610984565b50039201916109c8565b63044044a560e21b5f5260045ffd5b63251f56a160e21b5f5260045ffd5b805f9172184f03e93ff9f4daa797ed6e38ed64bf6a1f0160401b821015610b70575b806d04ee2d6d415b85acef8100000000600a921015610b55575b662386f26fc10000811015610b41575b6305f5e100811015610b30575b612710811015610b21575b6064811015610b13575b1015610b08575b600a60216001840193610aad85610949565b94610abb6040519687610928565b808652610aca601f1991610949565b013660208701378401015b5f1901916f181899199a1a9b1b9c1cb0b131b232b360811b8282061a8353048015610b0357600a9091610ad5565b505090565b600190910190610a9b565b606460029104930192610a94565b61271060049104930192610a8a565b6305f5e10060089104930192610a7f565b662386f26fc1000060109104930192610a72565b6d04ee2d6d415b85acef810000000060209104930192610a62565b506040915072184f03e93ff9f4daa797ed6e38ed64bf6a1f0160401b8104610a48565b7f00000000000000000000000000000000000000000000000000000000000000006001600160a01b03163303610bc557565b634ca8886760e01b5f5260045ffdfea26469706673582212206c3f6dc9234fc1f13c2316723c2add47218cd7717fb0ebe72a464f9fad23a1dc64736f6c634300081b0033",
    "linkReferences": {}
  },
  "methodIdentifiers": {
    "attest((bytes32,bytes32,uint64,uint64,uint64,bytes32,address,address,bool,bytes))": "e60c3505",
    "attest(bytes32,address,uint64,bool,bytes32,bytes)": "2ac17f32",
    "eas()": "8150864d",
    "getSchema(bytes32)": "a2ea7c6e",
    "isPayable()": "ce46e046",
    "multiAttest((bytes32,bytes32,uint64,uint64,uint64,bytes32,address,address,bool,bytes)[],uint256[])": "91db0b7e",
    "multiRevoke((bytes32,bytes32,uint64,uint64,uint64,bytes32,address,address,bool,bytes)[],uint256[])": "88e5b2d9",
    "registerSchema(string,address,bool)": "53d55cc0",
    "revoke((bytes32,bytes32,uint64,uint64,uint64,bytes32,address,address,bool,bytes))": "e49617e1",
    "schemaRegistry()": "4441bbd9",
    "schemaResolvers(bytes32)": "13bbebfc",
    "version()": "54fd4d50"
  },
  "id": 96
}