{
  "abi": [
    {
      "type": "constructor",
      "inputs": [
        {
          "name": "_eas",
          "type": "address",
          "internalType": "contract IEAS"
        },
        {
          "name": "_erc20Escrow",
          "type": "address",
          "internalType": "contract ERC20EscrowObligation"
        },
        {
          "name": "_erc20Payment",
          "type": "address",
          "internalType": "contract ERC20PaymentObligation"
        },
        {
          "name": "_erc721Escrow",
          "type": "address",
          "internalType": "contract ERC721EscrowObligation"
        },
        {
          "name": "_erc721Payment",
          "type": "address",
          "internalType": "contract ERC721PaymentObligation"
        },
        {
          "name": "_erc1155Escrow",
          "type": "address",
          "internalType": "contract ERC1155EscrowObligation"
        },
        {
          "name": "_erc1155Payment",
          "type": "address",
          "internalType": "contract ERC1155PaymentObligation"
        },
        {
          "name": "_bundleEscrow",
          "type": "address",
          "internalType": "contract TokenBundleEscrowObligation"
        },
        {
          "name": "_bundlePayment",
          "type": "address",
          "internalType": "contract TokenBundlePaymentObligation"
        },
        {
          "name": "_nativeEscrow",
          "type": "address",
          "internalType": "contract NativeTokenEscrowObligation"
        },
        {
          "name": "_nativePayment",
          "type": "address",
          "internalType": "contract NativeTokenPaymentObligation"
        }
      ],
      "stateMutability": "nonpayable"
    },
    {
      "type": "function",
      "name": "buyBundleWithErc1155",
      "inputs": [
        {
          "name": "bidToken",
          "type": "address",
          "internalType": "address"
        },
        {
          "name": "bidTokenId",
          "type": "uint256",
          "internalType": "uint256"
        },
        {
          "name": "bidAmount",
          "type": "uint256",
          "internalType": "uint256"
        },
        {
          "name": "askData",
          "type": "tuple",
          "internalType": "struct TokenBundlePaymentObligation.ObligationData",
          "components": [
            {
              "name": "nativeAmount",
              "type": "uint256",
              "internalType": "uint256"
            },
            {
              "name": "erc20Tokens",
              "type": "address[]",
              "internalType": "address[]"
            },
            {
              "name": "erc20Amounts",
              "type": "uint256[]",
              "internalType": "uint256[]"
            },
            {
              "name": "erc721Tokens",
              "type": "address[]",
              "internalType": "address[]"
            },
            {
              "name": "erc721TokenIds",
              "type": "uint256[]",
              "internalType": "uint256[]"
            },
            {
              "name": "erc1155Tokens",
              "type": "address[]",
              "internalType": "address[]"
            },
            {
              "name": "erc1155TokenIds",
              "type": "uint256[]",
              "internalType": "uint256[]"
            },
            {
              "name": "erc1155Amounts",
              "type": "uint256[]",
              "internalType": "uint256[]"
            },
            {
              "name": "payee",
              "type": "address",
              "internalType": "address"
            }
          ]
        },
        {
          "name": "expiration",
          "type": "uint64",
          "internalType": "uint64"
        }
      ],
      "outputs": [
        {
          "name": "",
          "type": "bytes32",
          "internalType": "bytes32"
        }
      ],
      "stateMutability": "nonpayable"
    },
    {
      "type": "function",
      "name": "buyErc1155ForErc1155",
      "inputs": [
        {
          "name": "bidToken",
          "type": "address",
          "internalType": "address"
        },
        {
          "name": "bidTokenId",
          "type": "uint256",
          "internalType": "uint256"
        },
        {
          "name": "bidAmount",
          "type": "uint256",
          "internalType": "uint256"
        },
        {
          "name": "askToken",
          "type": "address",
          "internalType": "address"
        },
        {
          "name": "askId",
          "type": "uint256",
          "internalType": "uint256"
        },
        {
          "name": "askAmount",
          "type": "uint256",
          "internalType": "uint256"
        },
        {
          "name": "expiration",
          "type": "uint64",
          "internalType": "uint64"
        }
      ],
      "outputs": [
        {
          "name": "",
          "type": "bytes32",
          "internalType": "bytes32"
        }
      ],
      "stateMutability": "nonpayable"
    },
    {
      "type": "function",
      "name": "buyErc20WithErc1155",
      "inputs": [
        {
          "name": "bidToken",
          "type": "address",
          "internalType": "address"
        },
        {
          "name": "bidTokenId",
          "type": "uint256",
          "internalType": "uint256"
        },
        {
          "name": "bidAmount",
          "type": "uint256",
          "internalType": "uint256"
        },
        {
          "name": "askToken",
          "type": "address",
          "internalType": "address"
        },
        {
          "name": "askAmount",
          "type": "uint256",
          "internalType": "uint256"
        },
        {
          "name": "expiration",
          "type": "uint64",
          "internalType": "uint64"
        }
      ],
      "outputs": [
        {
          "name": "",
          "type": "bytes32",
          "internalType": "bytes32"
        }
      ],
      "stateMutability": "nonpayable"
    },
    {
      "type": "function",
      "name": "buyErc721WithErc1155",
      "inputs": [
        {
          "name": "bidToken",
          "type": "address",
          "internalType": "address"
        },
        {
          "name": "bidTokenId",
          "type": "uint256",
          "internalType": "uint256"
        },
        {
          "name": "bidAmount",
          "type": "uint256",
          "internalType": "uint256"
        },
        {
          "name": "askToken",
          "type": "address",
          "internalType": "address"
        },
        {
          "name": "askTokenId",
          "type": "uint256",
          "internalType": "uint256"
        },
        {
          "name": "expiration",
          "type": "uint64",
          "internalType": "uint64"
        }
      ],
      "outputs": [
        {
          "name": "",
          "type": "bytes32",
          "internalType": "bytes32"
        }
      ],
      "stateMutability": "nonpayable"
    },
    {
      "type": "function",
      "name": "buyEthWithErc1155",
      "inputs": [
        {
          "name": "bidToken",
          "type": "address",
          "internalType": "address"
        },
        {
          "name": "bidTokenId",
          "type": "uint256",
          "internalType": "uint256"
        },
        {
          "name": "bidAmount",
          "type": "uint256",
          "internalType": "uint256"
        },
        {
          "name": "askAmount",
          "type": "uint256",
          "internalType": "uint256"
        },
        {
          "name": "expiration",
          "type": "uint64",
          "internalType": "uint64"
        }
      ],
      "outputs": [
        {
          "name": "",
          "type": "bytes32",
          "internalType": "bytes32"
        }
      ],
      "stateMutability": "nonpayable"
    },
    {
      "type": "function",
      "name": "onERC1155BatchReceived",
      "inputs": [
        {
          "name": "",
          "type": "address",
          "internalType": "address"
        },
        {
          "name": "",
          "type": "address",
          "internalType": "address"
        },
        {
          "name": "",
          "type": "uint256[]",
          "internalType": "uint256[]"
        },
        {
          "name": "",
          "type": "uint256[]",
          "internalType": "uint256[]"
        },
        {
          "name": "",
          "type": "bytes",
          "internalType": "bytes"
        }
      ],
      "outputs": [
        {
          "name": "",
          "type": "bytes4",
          "internalType": "bytes4"
        }
      ],
      "stateMutability": "pure"
    },
    {
      "type": "function",
      "name": "onERC1155Received",
      "inputs": [
        {
          "name": "",
          "type": "address",
          "internalType": "address"
        },
        {
          "name": "",
          "type": "address",
          "internalType": "address"
        },
        {
          "name": "",
          "type": "uint256",
          "internalType": "uint256"
        },
        {
          "name": "",
          "type": "uint256",
          "internalType": "uint256"
        },
        {
          "name": "",
          "type": "bytes",
          "internalType": "bytes"
        }
      ],
      "outputs": [
        {
          "name": "",
          "type": "bytes4",
          "internalType": "bytes4"
        }
      ],
      "stateMutability": "pure"
    },
    {
      "type": "function",
      "name": "payErc1155ForBundle",
      "inputs": [
        {
          "name": "buyAttestation",
          "type": "bytes32",
          "internalType": "bytes32"
        }
      ],
      "outputs": [
        {
          "name": "",
          "type": "bytes32",
          "internalType": "bytes32"
        }
      ],
      "stateMutability": "nonpayable"
    },
    {
      "type": "function",
      "name": "payErc1155ForErc1155",
      "inputs": [
        {
          "name": "buyAttestation",
          "type": "bytes32",
          "internalType": "bytes32"
        }
      ],
      "outputs": [
        {
          "name": "",
          "type": "bytes32",
          "internalType": "bytes32"
        }
      ],
      "stateMutability": "nonpayable"
    },
    {
      "type": "function",
      "name": "payErc1155ForErc20",
      "inputs": [
        {
          "name": "buyAttestation",
          "type": "bytes32",
          "internalType": "bytes32"
        }
      ],
      "outputs": [
        {
          "name": "",
          "type": "bytes32",
          "internalType": "bytes32"
        }
      ],
      "stateMutability": "nonpayable"
    },
    {
      "type": "function",
      "name": "payErc1155ForErc721",
      "inputs": [
        {
          "name": "buyAttestation",
          "type": "bytes32",
          "internalType": "bytes32"
        }
      ],
      "outputs": [
        {
          "name": "",
          "type": "bytes32",
          "internalType": "bytes32"
        }
      ],
      "stateMutability": "nonpayable"
    },
    {
      "type": "function",
      "name": "payErc1155ForEth",
      "inputs": [
        {
          "name": "buyAttestation",
          "type": "bytes32",
          "internalType": "bytes32"
        }
      ],
      "outputs": [
        {
          "name": "",
          "type": "bytes32",
          "internalType": "bytes32"
        }
      ],
      "stateMutability": "nonpayable"
    },
    {
      "type": "function",
      "name": "payEthForErc1155",
      "inputs": [
        {
          "name": "buyAttestation",
          "type": "bytes32",
          "internalType": "bytes32"
        }
      ],
      "outputs": [
        {
          "name": "",
          "type": "bytes32",
          "internalType": "bytes32"
        }
      ],
      "stateMutability": "payable"
    },
    {
      "type": "function",
      "name": "supportsInterface",
      "inputs": [
        {
          "name": "interfaceId",
          "type": "bytes4",
          "internalType": "bytes4"
        }
      ],
      "outputs": [
        {
          "name": "",
          "type": "bool",
          "internalType": "bool"
        }
      ],
      "stateMutability": "pure"
    },
    {
      "type": "error",
      "name": "AttestationNotFound",
      "inputs": [
        {
          "name": "attestationId",
          "type": "bytes32",
          "internalType": "bytes32"
        }
      ]
    },
    {
      "type": "error",
      "name": "CouldntCollectEscrow",
      "inputs": []
    }
  ],
  "bytecode": {
    "object": "0x6080346101ff57601f6122ff38819003918201601f19168301916001600160401b0383118484101761020357808492610160946040528339810103126101ff5780516001600160a01b03811691908290036101ff5760208101516001600160a01b038116908190036101ff5760408201516001600160a01b038116908190036101ff5760608301516001600160a01b038116908190036101ff5760808401516001600160a01b038116908190036101ff5760a08501516001600160a01b03811691908290036101ff5760c08601516001600160a01b03811693908490036101ff5760e08701516001600160a01b03811695908690036101ff576101008801516001600160a01b03811697908890036101ff576101208901516001600160a01b03811699908a90036101ff5761014001516001600160a01b0381169a908b90036101ff5760018060a01b03195f5416175f5560018060a01b0319600154161760015560018060a01b0319600254161760025560018060a01b0319600354161760035560018060a01b0319600454161760045560018060a01b0319600554161760055560018060a01b0319600654161760065560018060a01b0319600754161760075560018060a01b0319600854161760085560018060a01b0319600954161760095560018060a01b0319600a541617600a556040516120e790816102188239f35b5f80fd5b634e487b7160e01b5f52604160045260245ffdfe6080806040526004361015610012575f80fd5b5f905f3560e01c90816301d71c0f1461174a5750806301ffc9a71461170f5780631fa56b2014611618578063253d181d146114ae57806333666e5f146112895780634d2ac84c14610fc8578063576748fb14610e7a5780636d1d261f14610d1c57806378a56f8f14610adf578063af808a2a146108a3578063bc197c811461080a578063d7452d9014610446578063da7af446146101135763f23a6e61146100b8575f80fd5b346101105760a0366003190112610110576100d16119b9565b506100da6119cf565b506084356001600160401b03811161010e576100fa903690600401611a95565b505060405163f23a6e6160e01b8152602090f35b505b80fd5b50346101105760203660031901126101105780546040516328c44a9960e21b81526004803590820181905292918290829060249082906001600160a01b03165afa90811561038c578291610424575b50805115610411576101200151805181019060208183031261040d576020810151906001600160401b0382116103f057019060608282031261040d57604051906101ab82611ac2565b6101b760208401611b93565b82526040830151906001600160401b0382116104095760606101e86102039594936020806040950191870101611bb4565b93846020850152015191015260208082518301019101611d64565b805160208201516040830151929492916001600160a01b031690813b156104095791849161024a9383604051809681958294637921219560e11b8452303360048601611dae565b03925af180156103e5579083916103f4575b505082516006546001600160a01b039182169116813b156103f057839160448392604051948593849263a22cb46560e01b84526004840152600160248401525af180156103e5576103d0575b506020816102db9460018060a01b036006541690856040518098819582946352056edb60e11b8452339060048501611de6565b03925af192831561038c578293610397575b50600954604051632c713cd960e01b81526004810192909252602482018490526020908290604490829086906001600160a01b03165af190811561038c578291610352575b501561034357602082604051908152f35b63a97a981d60e01b8152600490fd5b90506020813d602011610384575b8161036d60209383611b5e565b8101031261010e5761037e90611ba7565b5f610332565b3d9150610360565b6040513d84823e3d90fd5b9092506020813d6020116103c8575b816103b360209383611b5e565b810103126103c457519160206102ed565b5f80fd5b3d91506103a6565b6103db838092611b5e565b61010e575f6102a8565b6040513d85823e3d90fd5b8380fd5b816103fe91611b5e565b61010e57815f61025c565b8480fd5b8280fd5b506024916301fb6dd160e01b8252600452fd5b61044091503d8084833e6104388183611b5e565b810190611c09565b5f610162565b50346101105760203660031901126101105780546040516328c44a9960e21b81526004803590820181905292918290829060249082906001600160a01b03165afa90811561038c57906101209183916107f0575b500151805181019060208201906020818403126103f0576020810151906001600160401b038211610409570191610140908390031261040d57604051906104e082611b42565b6104ec60208401611b93565b825260408301516001600160401b0381116104095781602061051092860101611bb4565b92602083019384526060810151604084015260808101516001600160401b0381116107ec5782602061054492840101611fef565b606084015260a08101516001600160401b0381116107ec5782602061056b92840101612054565b608084015260c08101516001600160401b0381116107ec5782602061059292840101611fef565b60a084015260e08101516001600160401b0381116107ec578260206105b992840101612054565b60c08401526101008101516001600160401b0381116107ec578260206105e192840101611fef565b60e08401526101208101516001600160401b0381116107ec5782602061060992840101612054565b610100840152610140810151906001600160401b0382116107ec5761064e94939260206101209361063b930101612054565b9101525160208082518301019101611d64565b805160208201516040830151929492916001600160a01b031690813b15610409579184916106959383604051809681958294637921219560e11b8452303360048601611dae565b03925af180156103e5579083916107d7575b505082516006546001600160a01b039182169116813b156103f057839160448392604051948593849263a22cb46560e01b84526004840152600160248401525af180156103e5576107c2575b506020816107269460018060a01b036006541690856040518098819582946352056edb60e11b8452339060048501611de6565b03925af192831561038c57829361078d575b50600754604051632c713cd960e01b81526004810192909252602482018490526020908290604490829086906001600160a01b03165af190811561038c57829161035257501561034357602082604051908152f35b9092506020813d6020116107ba575b816107a960209383611b5e565b810103126103c45751916020610738565b3d915061079c565b6107cd838092611b5e565b61010e575f6106f3565b816107e191611b5e565b61010e57815f6106a7565b8580fd5b61080491503d8085833e6104388183611b5e565b5f61049a565b50346101105760a0366003190112610110576108246119b9565b5061082d6119cf565b506044356001600160401b03811161010e5761084d903690600401611a65565b50506064356001600160401b03811161010e5761086e903690600401611a65565b50506084356001600160401b03811161010e5761088f903690600401611a95565b505060405163bc197c8160e01b8152602090f35b50346101105760203660031901126101105780546040516328c44a9960e21b81526004803590820181905292918290829060249082906001600160a01b03165afa90811561038c578291610ac5575b50805115610411576020610916610120610927930151828082518301019101611ce4565b015160208082518301019101611d64565b805160208201516040830151929492916001600160a01b031690813b156104095791849161096e9383604051809681958294637921219560e11b8452303360048601611dae565b03925af180156103e557908391610ab0575b505082516006546001600160a01b039182169116813b156103f057839160448392604051948593849263a22cb46560e01b84526004840152600160248401525af180156103e557610a9b575b506020816109ff9460018060a01b036006541690856040518098819582946352056edb60e11b8452339060048501611de6565b03925af192831561038c578293610a66575b50600154604051632c713cd960e01b81526004810192909252602482018490526020908290604490829086906001600160a01b03165af190811561038c57829161035257501561034357602082604051908152f35b9092506020813d602011610a93575b81610a8260209383611b5e565b810103126103c45751916020610a11565b3d9150610a75565b610aa6838092611b5e565b61010e575f6109cc565b81610aba91611b5e565b61010e57815f610980565b610ad991503d8084833e6104388183611b5e565b5f6108f2565b50346101105760e036600319011261011057610af96119b9565b6064356001600160a01b0381169160243591604435908490036104095760c435916001600160401b03831683036107ec576001600160a01b031692833b156107ec57604051637921219560e11b81528690818180610b5d8787303360048601611dae565b0381838a5af1801561038c57610d07575b50506005546001600160a01b0316843b15610d03576040519063a22cb46560e01b8252600482015260016024820152868160448183895af18015610cf857610ce3575b50600554600654604051610c8898976020976001600160a01b039384169794909316959394929190610be282611b27565b81526084358882015260a4356040820152336060820152610c38604051918983019060609060018060a01b03815116835260208101516020840152604081015160408401528160018060a01b0391015116910152565b60808152610c4760a082611b5e565b60405196610c5488611af1565b8752878701526040860152606085015260808401528460405180978195829463f23be17b60e01b8452339160048501611e2d565b03925af1908115610cd75790610ca4575b602090604051908152f35b506020813d602011610ccf575b81610cbe60209383611b5e565b810103126103c45760209051610c99565b3d9150610cb1565b604051903d90823e3d90fd5b610cee878092611b5e565b6107ec575f610bb1565b6040513d89823e3d90fd5b8680fd5b81610d1191611b5e565b6107ec57855f610b6e565b503461011057610d2b36611a0f565b909491939092916001600160a01b0316803b15610d0357604051637921219560e11b81528790818180610d648888303360048601611dae565b038183875af1801561038c57610e65575b50506005546001600160a01b0316813b15610e61576040519063a22cb46560e01b8252600482015260016024820152878160448183865af18015610e5657610e41575b50600554600254604051610c8899986020986001600160a01b039384169894909316969395939492610de983611ac2565b60018060a01b0316825288820152336040820152610e32604051918983019060409060018060a01b038151168352602081015160208401528160018060a01b0391015116910152565b60608152610c47608082611b5e565b610e4c888092611b5e565b610d03575f610db8565b6040513d8a823e3d90fd5b8780fd5b81610e6f91611b5e565b610d0357865f610d75565b50346101105760a036600319011261011057610e946119b9565b60243560443591610ea36119f9565b6001600160a01b0390911692833b1561040957604051637921219560e11b81528590818180610ed88689303360048601611dae565b0381838a5af1801561038c57610fb3575b50506005546001600160a01b0316843b156107ec576040519063a22cb46560e01b8252600482015260016024820152858160448183895af18015610fa857610f93575b50600554600a54604051610c8897966020966001600160a01b039384169694909316949291610f5a81611b0c565b606435815233888201526040518151818a019081526020928301516001600160a01b031692019190915260408152610c47606082611b5e565b610f9e868092611b5e565b610409575f610f2c565b6040513d88823e3d90fd5b81610fbd91611b5e565b61040957845f610ee9565b50346101105760a036600319011261011057610fe26119b9565b6024359190606435906044356001600160401b0383116103f05782600401946101206003198536030112610409576110186119f9565b926001600160a01b0316803b156107ec57604051637921219560e11b81528681806110498787303360048601611dae565b038183865af18015610cf857908791611274575b50506005546001600160a01b0316813b15610d03576040519063a22cb46560e01b8252600482015260016024820152868160448183865af18015610cf85790879161125f575b5050600554600854604080516020808201528a35918101919091526001600160a01b0391821699919092169682916110de6024830182611f41565b6060850161012090526101608501906110f692611f75565b6111036044840183611f41565b858303603f190160808701526111199291611fb4565b6111266064840183611f41565b858303603f190160a087015261113c9291611f75565b6111496084840183611f41565b858303603f190160c087015261115f9291611fb4565b61116c60a4840183611f41565b858303603f190160e08701526111829291611f75565b61118f60c4840183611f41565b858303603f19016101008701526111a69291611fb4565b9060e483016111b491611f41565b848303603f19016101208601526111cb9291611fb4565b906001600160a01b03906111e290610104016119e5565b1661014083015203601f19810182526111fb9082611b5e565b6040519761120889611af1565b885260208801526040870152606086015260808501526040518094819263f23be17b60e01b83523390600484019261123f93611e2d565b0381845a94602095f1908115610cd75790610ca457602090604051908152f35b8161126991611b5e565b6107ec57855f6110a3565b8161127e91611b5e565b6107ec57855f61105d565b50346101105760203660031901126101105780546040516328c44a9960e21b81526004803590820181905292918290829060249082906001600160a01b03165afa90811561038c576109166101206112f6936020938691611494575b500151828082518301019101611eb7565b805160208201516040830151929492916001600160a01b031690813b156104095791849161133d9383604051809681958294637921219560e11b8452303360048601611dae565b03925af180156103e55790839161147f575b505082516006546001600160a01b039182169116813b156103f057839160448392604051948593849263a22cb46560e01b84526004840152600160248401525af180156103e55761146a575b506020816113ce9460018060a01b036006541690856040518098819582946352056edb60e11b8452339060048501611de6565b03925af192831561038c578293611435575b50600554604051632c713cd960e01b81526004810192909252602482018490526020908290604490829086906001600160a01b03165af190811561038c57829161035257501561034357602082604051908152f35b9092506020813d602011611462575b8161145160209383611b5e565b810103126103c457519160206113e0565b3d9150611444565b611475838092611b5e565b61010e575f61139b565b8161148991611b5e565b61010e57815f61134f565b6114a891503d8088833e6104388183611b5e565b5f6112e5565b5060203660031901126101105780546040516328c44a9960e21b81526004803590820181905292918290829060249082906001600160a01b03165afa90811561038c5782916115fe575b50805115610411576115196101206020920151828082518301019101611eb7565b01519160408380518101031261010e57602061158e608460405161153c81611b0c565b61154f6040858901519889845201611b93565b81850152600a54604051632634e40960e01b8152825160048201526020909201516001600160a01b039081166024840152919788948593919290911690565b3360448401528660648401525af192831561038c5782936114355750600554604051632c713cd960e01b81526004810192909252602482018490526020908290604490829086906001600160a01b03165af190811561038c57829161035257501561034357602082604051908152f35b61161291503d8084833e6104388183611b5e565b5f6114f8565b50346101105761162736611a0f565b909491939092916001600160a01b0316803b15610d0357604051637921219560e11b815287908181806116608888303360048601611dae565b038183875af1801561038c576116fa575b50506005546001600160a01b0316813b15610e61576040519063a22cb46560e01b8252600482015260016024820152878160448183865af18015610e56576116e5575b50600554600454604051610c8899986020986001600160a01b039384169894909316969395939492610de983611ac2565b6116f0888092611b5e565b610d03575f6116b4565b8161170491611b5e565b610d0357865f611671565b50346101105760203660031901126101105760043563ffffffff60e01b811680910361010e57604051630271189760e51b9091148152602090f35b82346103c45760203660031901126103c457600435915f8160248160018060a01b038454166328c44a9960e21b82528760048301525afa908115611981575f9161199f575b5080511561198c5760206109166101206117b3930151828082518301019101611ce4565b9160018060a01b0383511660208401516040850151823b156103c4576117f4925f9283604051809681958294637921219560e11b8452303360048601611dae565b03925af180156119815761196c575b5082516006546001600160a01b039182169116813b156103f057839160448392604051948593849263a22cb46560e01b84526004840152600160248401525af180156103e557611957575b506020816118819460018060a01b036006541690856040518098819582946352056edb60e11b8452339060048501611de6565b03925af192831561038c578293611922575b50600354604051632c713cd960e01b81526004810192909252602482018490526020908290604490829086906001600160a01b03165af190811561038c5782916118e857501561034357602082604051908152f35b90506020813d60201161191a575b8161190360209383611b5e565b8101031261010e5761191490611ba7565b83610332565b3d91506118f6565b9092506020813d60201161194f575b8161193e60209383611b5e565b810103126103c45751916020611893565b3d9150611931565b611962838092611b5e565b61010e578361184e565b6119799192505f90611b5e565b5f9083611803565b6040513d5f823e3d90fd5b826301fb6dd160e01b5f5260045260245ffd5b6119b391503d805f833e6104388183611b5e565b8361178f565b600435906001600160a01b03821682036103c457565b602435906001600160a01b03821682036103c457565b35906001600160a01b03821682036103c457565b608435906001600160401b03821682036103c457565b60c09060031901126103c4576004356001600160a01b03811681036103c4579060243590604435906064356001600160a01b03811681036103c457906084359060a4356001600160401b03811681036103c45790565b9181601f840112156103c4578235916001600160401b0383116103c4576020808501948460051b0101116103c457565b9181601f840112156103c4578235916001600160401b0383116103c457602083818601950101116103c457565b606081019081106001600160401b03821117611add57604052565b634e487b7160e01b5f52604160045260245ffd5b60a081019081106001600160401b03821117611add57604052565b604081019081106001600160401b03821117611add57604052565b608081019081106001600160401b03821117611add57604052565b61014081019081106001600160401b03821117611add57604052565b90601f801991011681019081106001600160401b03821117611add57604052565b51906001600160401b03821682036103c457565b51906001600160a01b03821682036103c457565b519081151582036103c457565b81601f820112156103c4578051906001600160401b038211611add5760405192611be8601f8401601f191660200185611b5e565b828452602083830101116103c457815f9260208093018386015e8301015290565b6020818303126103c4578051906001600160401b0382116103c45701610140818303126103c45760405191611c3d83611b42565b8151835260208201516020840152611c5760408301611b7f565b6040840152611c6860608301611b7f565b6060840152611c7960808301611b7f565b608084015260a082015160a0840152611c9460c08301611b93565b60c0840152611ca560e08301611b93565b60e0840152611cb76101008301611ba7565b6101008401526101208201516001600160401b0381116103c457611cdb9201611bb4565b61012082015290565b6020818303126103c4578051906001600160401b0382116103c45701906080828203126103c45760405191611d1883611b27565b611d2181611b93565b835260208101516001600160401b0381116103c457606092611d44918301611bb4565b6020840152611d5560408201611b93565b60408401520151606082015290565b908160809103126103c457611da6606060405192611d8184611b27565b611d8a81611b93565b8452602081015160208501526040810151604085015201611b93565b606082015290565b6001600160a01b039182168152911660208201526040810191909152606081019190915260a0608082018190525f9082015260c00190565b81516001600160a01b03908116825260208084015190830152604080840151908301526060928301518116928201929092529116608082015260a081019190915260c00190565b9193926001600160401b03610120602060806040956060885260018060a01b0381511660608901528281015160a0838a01528051938491826101008c015201858a015e5f84848a01015260018060a01b03878201511660a0890152606081015160c0890152015160e0870152601f80199101168501019516602084015260018060a01b0316910152565b6020818303126103c4578051906001600160401b0382116103c457019060a0828203126103c45760405191611eeb83611af1565b611ef481611b93565b835260208101516001600160401b0381116103c457608092611f17918301611bb4565b6020840152611f2860408201611b93565b6040840152606081015160608401520151608082015290565b9035601e19823603018112156103c45701602081359101916001600160401b0382116103c4578160051b360383136103c457565b916020908281520191905f5b818110611f8e5750505090565b909192602080600192838060a01b03611fa6886119e5565b168152019401929101611f81565b81835290916001600160fb1b0383116103c45760209260051b809284830137010190565b6001600160401b038111611add5760051b60200190565b9080601f830112156103c457815161200681611fd8565b926120146040519485611b5e565b81845260208085019260051b8201019283116103c457602001905b82821061203c5750505090565b6020809161204984611b93565b81520191019061202f565b9080601f830112156103c457815161206b81611fd8565b926120796040519485611b5e565b81845260208085019260051b8201019283116103c457602001905b8282106120a15750505090565b815181526020918201910161209456fea2646970667358221220fb8f29dd06ec610f9d7f5d67789d5c2b7e0e25d489324530fc963e2a705a122964736f6c634300081b0033",
    "linkReferences": {}
  },
  "methodIdentifiers": {
    "buyBundleWithErc1155(address,uint256,uint256,(uint256,address[],uint256[],address[],uint256[],address[],uint256[],uint256[],address),uint64)": "4d2ac84c",
    "buyErc1155ForErc1155(address,uint256,uint256,address,uint256,uint256,uint64)": "78a56f8f",
    "buyErc20WithErc1155(address,uint256,uint256,address,uint256,uint64)": "6d1d261f",
    "buyErc721WithErc1155(address,uint256,uint256,address,uint256,uint64)": "1fa56b20",
    "buyEthWithErc1155(address,uint256,uint256,uint256,uint64)": "576748fb",
    "onERC1155BatchReceived(address,address,uint256[],uint256[],bytes)": "bc197c81",
    "onERC1155Received(address,address,uint256,uint256,bytes)": "f23a6e61",
    "payErc1155ForBundle(bytes32)": "d7452d90",
    "payErc1155ForErc1155(bytes32)": "33666e5f",
    "payErc1155ForErc20(bytes32)": "af808a2a",
    "payErc1155ForErc721(bytes32)": "01d71c0f",
    "payErc1155ForEth(bytes32)": "da7af446",
    "payEthForErc1155(bytes32)": "253d181d",
    "supportsInterface(bytes4)": "01ffc9a7"
  },
  "id": 117
}