{
  "abi": [
    {
      "type": "constructor",
      "inputs": [
        {
          "name": "_eas",
          "type": "address",
          "internalType": "contract IEAS"
        },
        {
          "name": "_erc20Escrow",
          "type": "address",
          "internalType": "contract ERC20EscrowObligation"
        },
        {
          "name": "_erc20Payment",
          "type": "address",
          "internalType": "contract ERC20PaymentObligation"
        },
        {
          "name": "_erc721Escrow",
          "type": "address",
          "internalType": "contract ERC721EscrowObligation"
        },
        {
          "name": "_erc721Payment",
          "type": "address",
          "internalType": "contract ERC721PaymentObligation"
        },
        {
          "name": "_erc1155Escrow",
          "type": "address",
          "internalType": "contract ERC1155EscrowObligation"
        },
        {
          "name": "_erc1155Payment",
          "type": "address",
          "internalType": "contract ERC1155PaymentObligation"
        },
        {
          "name": "_bundleEscrow",
          "type": "address",
          "internalType": "contract TokenBundleEscrowObligation"
        },
        {
          "name": "_bundlePayment",
          "type": "address",
          "internalType": "contract TokenBundlePaymentObligation"
        },
        {
          "name": "_nativeEscrow",
          "type": "address",
          "internalType": "contract NativeTokenEscrowObligation"
        },
        {
          "name": "_nativePayment",
          "type": "address",
          "internalType": "contract NativeTokenPaymentObligation"
        }
      ],
      "stateMutability": "nonpayable"
    },
    {
      "type": "function",
      "name": "payErc20ForBundle",
      "inputs": [
        {
          "name": "buyAttestation",
          "type": "bytes32",
          "internalType": "bytes32"
        }
      ],
      "outputs": [
        {
          "name": "",
          "type": "bytes32",
          "internalType": "bytes32"
        }
      ],
      "stateMutability": "nonpayable"
    },
    {
      "type": "function",
      "name": "payErc20ForErc1155",
      "inputs": [
        {
          "name": "buyAttestation",
          "type": "bytes32",
          "internalType": "bytes32"
        }
      ],
      "outputs": [
        {
          "name": "",
          "type": "bytes32",
          "internalType": "bytes32"
        }
      ],
      "stateMutability": "nonpayable"
    },
    {
      "type": "function",
      "name": "payErc20ForErc20",
      "inputs": [
        {
          "name": "buyAttestation",
          "type": "bytes32",
          "internalType": "bytes32"
        }
      ],
      "outputs": [
        {
          "name": "",
          "type": "bytes32",
          "internalType": "bytes32"
        }
      ],
      "stateMutability": "nonpayable"
    },
    {
      "type": "function",
      "name": "payErc20ForErc721",
      "inputs": [
        {
          "name": "buyAttestation",
          "type": "bytes32",
          "internalType": "bytes32"
        }
      ],
      "outputs": [
        {
          "name": "",
          "type": "bytes32",
          "internalType": "bytes32"
        }
      ],
      "stateMutability": "nonpayable"
    },
    {
      "type": "function",
      "name": "payErc20ForEth",
      "inputs": [
        {
          "name": "buyAttestation",
          "type": "bytes32",
          "internalType": "bytes32"
        }
      ],
      "outputs": [
        {
          "name": "",
          "type": "bytes32",
          "internalType": "bytes32"
        }
      ],
      "stateMutability": "nonpayable"
    },
    {
      "type": "function",
      "name": "permitAndPayErc20ForBundle",
      "inputs": [
        {
          "name": "buyAttestation",
          "type": "bytes32",
          "internalType": "bytes32"
        },
        {
          "name": "deadline",
          "type": "uint256",
          "internalType": "uint256"
        },
        {
          "name": "v",
          "type": "uint8",
          "internalType": "uint8"
        },
        {
          "name": "r",
          "type": "bytes32",
          "internalType": "bytes32"
        },
        {
          "name": "s",
          "type": "bytes32",
          "internalType": "bytes32"
        }
      ],
      "outputs": [
        {
          "name": "",
          "type": "bytes32",
          "internalType": "bytes32"
        }
      ],
      "stateMutability": "nonpayable"
    },
    {
      "type": "function",
      "name": "permitAndPayErc20ForErc1155",
      "inputs": [
        {
          "name": "buyAttestation",
          "type": "bytes32",
          "internalType": "bytes32"
        },
        {
          "name": "deadline",
          "type": "uint256",
          "internalType": "uint256"
        },
        {
          "name": "v",
          "type": "uint8",
          "internalType": "uint8"
        },
        {
          "name": "r",
          "type": "bytes32",
          "internalType": "bytes32"
        },
        {
          "name": "s",
          "type": "bytes32",
          "internalType": "bytes32"
        }
      ],
      "outputs": [
        {
          "name": "",
          "type": "bytes32",
          "internalType": "bytes32"
        }
      ],
      "stateMutability": "nonpayable"
    },
    {
      "type": "function",
      "name": "permitAndPayErc20ForErc20",
      "inputs": [
        {
          "name": "buyAttestation",
          "type": "bytes32",
          "internalType": "bytes32"
        },
        {
          "name": "deadline",
          "type": "uint256",
          "internalType": "uint256"
        },
        {
          "name": "v",
          "type": "uint8",
          "internalType": "uint8"
        },
        {
          "name": "r",
          "type": "bytes32",
          "internalType": "bytes32"
        },
        {
          "name": "s",
          "type": "bytes32",
          "internalType": "bytes32"
        }
      ],
      "outputs": [
        {
          "name": "",
          "type": "bytes32",
          "internalType": "bytes32"
        }
      ],
      "stateMutability": "nonpayable"
    },
    {
      "type": "function",
      "name": "permitAndPayErc20ForErc721",
      "inputs": [
        {
          "name": "buyAttestation",
          "type": "bytes32",
          "internalType": "bytes32"
        },
        {
          "name": "deadline",
          "type": "uint256",
          "internalType": "uint256"
        },
        {
          "name": "v",
          "type": "uint8",
          "internalType": "uint8"
        },
        {
          "name": "r",
          "type": "bytes32",
          "internalType": "bytes32"
        },
        {
          "name": "s",
          "type": "bytes32",
          "internalType": "bytes32"
        }
      ],
      "outputs": [
        {
          "name": "",
          "type": "bytes32",
          "internalType": "bytes32"
        }
      ],
      "stateMutability": "nonpayable"
    },
    {
      "type": "function",
      "name": "permitAndPayErc20ForEth",
      "inputs": [
        {
          "name": "buyAttestation",
          "type": "bytes32",
          "internalType": "bytes32"
        },
        {
          "name": "deadline",
          "type": "uint256",
          "internalType": "uint256"
        },
        {
          "name": "v",
          "type": "uint8",
          "internalType": "uint8"
        },
        {
          "name": "r",
          "type": "bytes32",
          "internalType": "bytes32"
        },
        {
          "name": "s",
          "type": "bytes32",
          "internalType": "bytes32"
        }
      ],
      "outputs": [
        {
          "name": "",
          "type": "bytes32",
          "internalType": "bytes32"
        }
      ],
      "stateMutability": "nonpayable"
    },
    {
      "type": "function",
      "name": "permitAndPayWithErc20",
      "inputs": [
        {
          "name": "token",
          "type": "address",
          "internalType": "address"
        },
        {
          "name": "amount",
          "type": "uint256",
          "internalType": "uint256"
        },
        {
          "name": "payee",
          "type": "address",
          "internalType": "address"
        },
        {
          "name": "refUID",
          "type": "bytes32",
          "internalType": "bytes32"
        },
        {
          "name": "deadline",
          "type": "uint256",
          "internalType": "uint256"
        },
        {
          "name": "v",
          "type": "uint8",
          "internalType": "uint8"
        },
        {
          "name": "r",
          "type": "bytes32",
          "internalType": "bytes32"
        },
        {
          "name": "s",
          "type": "bytes32",
          "internalType": "bytes32"
        }
      ],
      "outputs": [
        {
          "name": "",
          "type": "bytes32",
          "internalType": "bytes32"
        }
      ],
      "stateMutability": "nonpayable"
    },
    {
      "type": "error",
      "name": "AttestationNotFound",
      "inputs": [
        {
          "name": "attestationId",
          "type": "bytes32",
          "internalType": "bytes32"
        }
      ]
    },
    {
      "type": "error",
      "name": "CouldntCollectEscrow",
      "inputs": []
    },
    {
      "type": "error",
      "name": "PermitFailed",
      "inputs": [
        {
          "name": "token",
          "type": "address",
          "internalType": "address"
        },
        {
          "name": "reason",
          "type": "string",
          "internalType": "string"
        }
      ]
    }
  ],
  "bytecode": {
    "object": "0x6080346101ff57601f611e4138819003918201601f19168301916001600160401b0383118484101761020357808492610160946040528339810103126101ff5780516001600160a01b03811691908290036101ff5760208101516001600160a01b038116908190036101ff5760408201516001600160a01b038116908190036101ff5760608301516001600160a01b038116908190036101ff5760808401516001600160a01b038116908190036101ff5760a08501516001600160a01b03811691908290036101ff5760c08601516001600160a01b03811693908490036101ff5760e08701516001600160a01b03811695908690036101ff576101008801516001600160a01b03811697908890036101ff576101208901516001600160a01b03811699908a90036101ff5761014001516001600160a01b0381169a908b90036101ff5760018060a01b03195f5416175f5560018060a01b0319600154161760015560018060a01b0319600254161760025560018060a01b0319600354161760035560018060a01b0319600454161760045560018060a01b0319600554161760055560018060a01b0319600654161760065560018060a01b0319600754161760075560018060a01b0319600854161760085560018060a01b0319600954161760095560018060a01b0319600a541617600a55604051611c2990816102188239f35b5f80fd5b634e487b7160e01b5f52604160045260245ffdfe6080806040526004361015610012575f80fd5b5f905f3560e01c9081631454e3d214610954575080632bf2ee39146108a95780633f5630c51461064f57806372448d4d1461052c578063759503f214610497578063a611316414610404578063a663332a1461034e578063a6c002e9146102bb578063a82705301461021c578063b56edf541461015e5763e3139e8614610097575f80fd5b3461015b576100a5366109df565b9160248660018060a09897981b03815416604051928380926328c44a9960e21b82528960048301525afa9081156101505791610119602061010961012061012097956101259b9a99978d859e9261012d575b50500151828082518301019101610f55565b0151898082518301019101610c6c565b958661112f565b611a1a565b604051908152f35b61014992503d8091833e6101418183610a56565b810190610b01565b5f806100f7565b6040513d89823e3d90fd5b80fd5b503461015b57602036600319011261015b5760249060043561017e610cab565b5081546040516328c44a9960e21b81526004810183905293839185919082906001600160a01b03165afa80938394610200575b506101c9576301fb6dd160e01b825260045260249150fd5b6101256020916101fa836101ea610120880151828082518301019101610f55565b0151848082518301019101610c6c565b90611a1a565b6102159194503d8085833e6101418183610a56565b925f6101b1565b503461015b57602036600319011261015b5780546040516328c44a9960e21b815260048035908201819052918390829060249082906001600160a01b03165afa9081156102b05760206101ea610120610125959461028f9488859992610295575b50500151828082518301019101610bdc565b90611668565b6102a992503d8091833e6101418183610a56565b5f8061027d565b6040513d85823e3d90fd5b503461015b576102ca366109df565b9160248660018060a09897981b03815416604051928380926328c44a9960e21b82528960048301525afa9081156101505791610119602061010961012061032e97956101259b9a99978d859e92610333575b50500151828082518301019101610cf5565b61148f565b61034792503d8091833e6101418183610a56565b5f8061031c565b503461015b57602036600319011261015b576024600435918060018060a01b03815416604051938480926328c44a9960e21b82528760048301525afa9182156103f75781926103db575b508151156103c7576020610125846103c1836101ea610120880151828082518301019101610e0d565b90611841565b6301fb6dd160e01b81526004839052602490fd5b6103f09192503d8084833e6101418183610a56565b905f610398565b50604051903d90823e3d90fd5b503461015b57610413366109df565b9160248660018060a09897981b03815416604051928380926328c44a9960e21b82528960048301525afa9081156101505791610119602061010961012061047797956101259b9a99978d859e9261047c575b50500151828082518301019101610e0d565b611841565b61049092503d8091833e6101418183610a56565b5f80610465565b503461015b57602036600319011261015b576024600435918060018060a01b03815416604051938480926328c44a9960e21b82528760048301525afa9182156103f7578192610510575b508151156103c75760206101258461050a836101ea610120880151828082518301019101610bdc565b90611297565b6105259192503d8084833e6101418183610a56565b905f6104e1565b503461015b5761053b366109df565b85546040516328c44a9960e21b815260048101879052949694929392908590829060249082906001600160a01b03165afa908115610644576105986101206105a993602093899161062a575b500151828082518301019101610bdc565b015160208082518301019101610c6c565b9560018060a01b0387511691602088015190833b156106265786949392916105eb86926040519889978896879563d505accf60e01b8752303360048901610d8f565b03925af1801561061b57610606575b60206101258585611668565b610611828092610a56565b61015b57806105fa565b6040513d84823e3d90fd5b8680fd5b61063e91503d808b833e6101418183610a56565b5f610587565b6040513d87823e3d90fd5b50346107f1576101003660031901126107f1576004356001600160a01b03811691908290036107f1576044356001600160a01b03811690602435908290036107f15760a4359360ff851685036107f157803b156107f1575f6106d3956040518097819263d505accf60e01b835260e4359060c4359060843589303360048901610d8f565b038183855af1801561089e57610888575b6040516323b872dd60e01b815233600482015230602482015260448101839052939450849360208160648188865af1801561064457610851575b5060025460405163095ea7b360e01b81526001600160a01b0390911660048201526024810183905260208160448188865af1801561064457610809575b50906107aa9160209360018060a01b0360025416926040519261077d84610a0b565b835285830152604082015260405195868094819363108d1d5d60e21b835260643590339060048501610dd0565b03925af19081156107fd57906107c6575b602090604051908152f35b506020813d6020116107f5575b816107e060209383610a56565b810103126107f157602090516107bb565b5f80fd5b3d91506107d3565b604051903d90823e3d90fd5b91906020833d602011610849575b8161082460209383610a56565b810103126108455760209361083b6107aa94610a9f565b509350909161075b565b8480fd5b3d9150610817565b6020813d602011610880575b8161086a60209383610a56565b810103126108455761087b90610a9f565b61071e565b3d915061085d565b9250925f61089591610a56565b5f9183906106e4565b6040513d5f823e3d90fd5b346107f15760203660031901126107f1576004356108c5610cab565b505f80546040516328c44a9960e21b8152600481018490529190829060249082906001600160a01b03165afa5f9181610938575b5061091157506301fb6dd160e01b5f5260045260245ffd5b602091610932836101ea610120610125950151828082518301019101610cf5565b9061148f565b61094d9192503d805f833e6101418183610a56565b90836108f9565b346107f157610962366109df565b5f80546328c44a9960e21b8852600488018790529396929593839060249082906001600160a01b03165afa94851561089e57602096610119886101096101206101259a6109c0985f916109c557500151828082518301019101610bdc565b611297565b6109d991503d805f833e6101418183610a56565b8d610587565b60a09060031901126107f157600435906024359060443560ff811681036107f157906064359060843590565b606081019081106001600160401b03821117610a2657604052565b634e487b7160e01b5f52604160045260245ffd5b61014081019081106001600160401b03821117610a2657604052565b90601f801991011681019081106001600160401b03821117610a2657604052565b51906001600160401b03821682036107f157565b51906001600160a01b03821682036107f157565b519081151582036107f157565b81601f820112156107f1578051906001600160401b038211610a265760405192610ae0601f8401601f191660200185610a56565b828452602083830101116107f157815f9260208093018386015e8301015290565b6020818303126107f1578051906001600160401b0382116107f15701610140818303126107f15760405191610b3583610a3a565b8151835260208201516020840152610b4f60408301610a77565b6040840152610b6060608301610a77565b6060840152610b7160808301610a77565b608084015260a082015160a0840152610b8c60c08301610a8b565b60c0840152610b9d60e08301610a8b565b60e0840152610baf6101008301610a9f565b6101008401526101208201516001600160401b0381116107f157610bd39201610aac565b61012082015290565b6020818303126107f1578051906001600160401b0382116107f15701906080828203126107f15760405191608083018381106001600160401b03821117610a2657604052610c2981610a8b565b835260208101516001600160401b0381116107f157606092610c4c918301610aac565b6020840152610c5d60408201610a8b565b60408401520151606082015290565b908160609103126107f157610ca36040805192610c8884610a0b565b610c9181610a8b565b84526020810151602085015201610a8b565b604082015290565b60405190610cb882610a3a565b6060610120835f81525f60208201525f60408201525f838201525f60808201525f60a08201525f60c08201525f60e08201525f6101008201520152565b6020818303126107f1578051906001600160401b0382116107f157019060a0828203126107f1576040519160a083018381106001600160401b03821117610a2657604052610d4281610a8b565b835260208101516001600160401b0381116107f157608092610d65918301610aac565b6020840152610d7660408201610a8b565b6040840152606081015160608401520151608082015290565b9360c095919897969360ff9360e087019a60018060a01b0316875260018060a01b031660208701526040860152606085015216608083015260a08201520152565b81516001600160a01b0390811682526020808401519083015260409283015181169282019290925291166060820152608081019190915260a00190565b6020818303126107f1578051906001600160401b0382116107f15701906060828203126107f15760405191610e4183610a0b565b610e4a81610a8b565b835260208101516001600160401b0381116107f157604092610e6d918301610aac565b60208401520151604082015290565b6001600160401b038111610a265760051b60200190565b9080601f830112156107f1578151610eaa81610e7c565b92610eb86040519485610a56565b81845260208085019260051b8201019283116107f157602001905b828210610ee05750505090565b60208091610eed84610a8b565b815201910190610ed3565b9080601f830112156107f1578151610f0f81610e7c565b92610f1d6040519485610a56565b81845260208085019260051b8201019283116107f157602001905b828210610f455750505090565b8151815260209182019101610f38565b6020818303126107f1578051906001600160401b0382116107f15701610140818303126107f15760405191610f8983610a3a565b610f9282610a8b565b835260208201516001600160401b0381116107f15781610fb3918401610aac565b60208401526040820151604084015260608201516001600160401b0381116107f15781610fe1918401610e93565b606084015260808201516001600160401b0381116107f15781611005918401610ef8565b608084015260a08201516001600160401b0381116107f15781611029918401610e93565b60a084015260c08201516001600160401b0381116107f1578161104d918401610ef8565b60c084015260e08201516001600160401b0381116107f15781611071918401610e93565b60e08401526101008201516001600160401b0381116107f15781611096918401610ef8565b6101008401526101208201516001600160401b0381116107f157610bd39201610ef8565b5f60443d1061111e576040513d600319016004823e8051913d60248401116001600160401b0384111761112957828201928351916001600160401b038311611121573d84016003190185840160200111611121575061111e92910160200190610a56565b90565b949350505050565b92915050565b93909492918451955f9660018060a01b031690602087015193823b156107f1575f9461117586926040519889978896879563d505accf60e01b8752303360048901610d8f565b03925af1908161125d575b5061125857508160033d11611248575b6308c379a0146111e1575b51604080516308f14ec160e11b81526001600160a01b0390921660048301526024820152600d60448201526c2ab735b737bbb71032b93937b960991b6064820152608490fd5b6111e96110ba565b91826111f5575061119b565b9051604080516308f14ec160e11b81526001600160a01b0390921660048301526024820152825160448201819052909260649284929182906020018585015e828201840152601f01601f19168101030190fd5b50600482803e815160e01c611190565b915050565b61126a9194505f90610a56565b5f925f611180565b906020828203126107f15781516001600160401b0381116107f15761111e9201610aac565b8151602080840180516040516323b872dd60e01b815233600482015230602482015260448101919091529092909190829060649082905f906001600160a01b03165af1801561089e5761144f575b508251600254915160405163095ea7b360e01b81526001600160a01b039384166004820152602481019190915291602091839116815f81604481015b03925af1801561089e5761140c575b506020816113639360018060a01b0360025416905f60405180978195829463108d1d5d60e21b8452339060048501610dd0565b03925af191821561089e575f926113d8575b50600354604051633a9bb12760e21b81526004810192909252602482018390525f908290604490829084906001600160a01b03165af1801561089e576113b9575090565b6113d4903d805f833e6113cc8183610a56565b810190611272565b5090565b9091506020813d602011611404575b816113f460209383610a56565b810103126107f15751905f611375565b3d91506113e7565b916020833d602011611447575b8161142660209383610a56565b810103126107f1578160209161143e61136395610a9f565b50935050611330565b3d9150611419565b6020813d602011611487575b8161146860209383610a56565b810103126107f1576113219161147f602092610a9f565b5091506112e5565b3d915061145b565b8151602080840180516040516323b872dd60e01b815233600482015230602482015260448101919091529092909190829060649082905f906001600160a01b03165af1801561089e57611628575b508251600254915160405163095ea7b360e01b81526001600160a01b039384166004820152602481019190915291602091839116815f81604481015b03925af1801561089e576115e5575b5060208161155b9360018060a01b0360025416905f60405180978195829463108d1d5d60e21b8452339060048501610dd0565b03925af191821561089e575f926115b1575b50600554604051633a9bb12760e21b81526004810192909252602482018390525f908290604490829084906001600160a01b03165af1801561089e576113b9575090565b9091506020813d6020116115dd575b816115cd60209383610a56565b810103126107f15751905f61156d565b3d91506115c0565b916020833d602011611620575b816115ff60209383610a56565b810103126107f1578160209161161761155b95610a9f565b50935050611528565b3d91506115f2565b6020813d602011611660575b8161164160209383610a56565b810103126107f15761151991611658602092610a9f565b5091506114dd565b3d9150611634565b8151602080840180516040516323b872dd60e01b815233600482015230602482015260448101919091529092909190829060649082905f906001600160a01b03165af1801561089e57611801575b508251600254915160405163095ea7b360e01b81526001600160a01b039384166004820152602481019190915291602091839116815f81604481015b03925af1801561089e576117be575b506020816117349360018060a01b0360025416905f60405180978195829463108d1d5d60e21b8452339060048501610dd0565b03925af191821561089e575f9261178a575b50600154604051633a9bb12760e21b81526004810192909252602482018390525f908290604490829084906001600160a01b03165af1801561089e576113b9575090565b9091506020813d6020116117b6575b816117a660209383610a56565b810103126107f15751905f611746565b3d9150611799565b916020833d6020116117f9575b816117d860209383610a56565b810103126107f157816020916117f061173495610a9f565b50935050611701565b3d91506117cb565b6020813d602011611839575b8161181a60209383610a56565b810103126107f1576116f291611831602092610a9f565b5091506116b6565b3d915061180d565b8151602080840180516040516323b872dd60e01b815233600482015230602482015260448101919091529092909190829060649082905f906001600160a01b03165af1801561089e576119da575b508251600254915160405163095ea7b360e01b81526001600160a01b039384166004820152602481019190915291602091839116815f81604481015b03925af1801561089e57611997575b5060208161190d9360018060a01b0360025416905f60405180978195829463108d1d5d60e21b8452339060048501610dd0565b03925af191821561089e575f92611963575b50600954604051633a9bb12760e21b81526004810192909252602482018390525f908290604490829084906001600160a01b03165af1801561089e576113b9575090565b9091506020813d60201161198f575b8161197f60209383610a56565b810103126107f15751905f61191f565b3d9150611972565b916020833d6020116119d2575b816119b160209383610a56565b810103126107f157816020916119c961190d95610a9f565b509350506118da565b3d91506119a4565b6020813d602011611a12575b816119f360209383610a56565b810103126107f1576118cb91611a0a602092610a9f565b50915061188f565b3d91506119e6565b8151602080840180516040516323b872dd60e01b815233600482015230602482015260448101919091529092909190829060649082905f906001600160a01b03165af1801561089e57611bb3575b508251600254915160405163095ea7b360e01b81526001600160a01b039384166004820152602481019190915291602091839116815f81604481015b03925af1801561089e57611b70575b50602081611ae69360018060a01b0360025416905f60405180978195829463108d1d5d60e21b8452339060048501610dd0565b03925af191821561089e575f92611b3c575b50600754604051633a9bb12760e21b81526004810192909252602482018390525f908290604490829084906001600160a01b03165af1801561089e576113b9575090565b9091506020813d602011611b68575b81611b5860209383610a56565b810103126107f15751905f611af8565b3d9150611b4b565b916020833d602011611bab575b81611b8a60209383610a56565b810103126107f15781602091611ba2611ae695610a9f565b50935050611ab3565b3d9150611b7d565b6020813d602011611beb575b81611bcc60209383610a56565b810103126107f157611aa491611be3602092610a9f565b509150611a68565b3d9150611bbf56fea2646970667358221220f271c76b10b9b76d0bb908e11bcc03dcf0fdd6286639043c92d73a92fa715eb664736f6c634300081b0033",
    "linkReferences": {}
  },
  "methodIdentifiers": {
    "payErc20ForBundle(bytes32)": "b56edf54",
    "payErc20ForErc1155(bytes32)": "2bf2ee39",
    "payErc20ForErc20(bytes32)": "a8270530",
    "payErc20ForErc721(bytes32)": "759503f2",
    "payErc20ForEth(bytes32)": "a663332a",
    "permitAndPayErc20ForBundle(bytes32,uint256,uint8,bytes32,bytes32)": "e3139e86",
    "permitAndPayErc20ForErc1155(bytes32,uint256,uint8,bytes32,bytes32)": "a6c002e9",
    "permitAndPayErc20ForErc20(bytes32,uint256,uint8,bytes32,bytes32)": "72448d4d",
    "permitAndPayErc20ForErc721(bytes32,uint256,uint8,bytes32,bytes32)": "1454e3d2",
    "permitAndPayErc20ForEth(bytes32,uint256,uint8,bytes32,bytes32)": "a6113164",
    "permitAndPayWithErc20(address,uint256,address,bytes32,uint256,uint8,bytes32,bytes32)": "3f5630c5"
  },
  "id": 129
}