{
  "abi": [
    {
      "type": "constructor",
      "inputs": [
        {
          "name": "_eas",
          "type": "address",
          "internalType": "contract IEAS"
        },
        {
          "name": "_erc20Escrow",
          "type": "address",
          "internalType": "contract ERC20EscrowObligation"
        },
        {
          "name": "_erc20Payment",
          "type": "address",
          "internalType": "contract ERC20PaymentObligation"
        },
        {
          "name": "_erc721Escrow",
          "type": "address",
          "internalType": "contract ERC721EscrowObligation"
        },
        {
          "name": "_erc721Payment",
          "type": "address",
          "internalType": "contract ERC721PaymentObligation"
        },
        {
          "name": "_erc1155Escrow",
          "type": "address",
          "internalType": "contract ERC1155EscrowObligation"
        },
        {
          "name": "_erc1155Payment",
          "type": "address",
          "internalType": "contract ERC1155PaymentObligation"
        },
        {
          "name": "_bundleEscrow",
          "type": "address",
          "internalType": "contract TokenBundleEscrowObligation"
        },
        {
          "name": "_bundlePayment",
          "type": "address",
          "internalType": "contract TokenBundlePaymentObligation"
        },
        {
          "name": "_nativeEscrow",
          "type": "address",
          "internalType": "contract NativeTokenEscrowObligation"
        },
        {
          "name": "_nativePayment",
          "type": "address",
          "internalType": "contract NativeTokenPaymentObligation"
        }
      ],
      "stateMutability": "nonpayable"
    },
    {
      "type": "function",
      "name": "buyBundleWithErc721",
      "inputs": [
        {
          "name": "bidToken",
          "type": "address",
          "internalType": "address"
        },
        {
          "name": "bidTokenId",
          "type": "uint256",
          "internalType": "uint256"
        },
        {
          "name": "askData",
          "type": "tuple",
          "internalType": "struct TokenBundlePaymentObligation.ObligationData",
          "components": [
            {
              "name": "nativeAmount",
              "type": "uint256",
              "internalType": "uint256"
            },
            {
              "name": "erc20Tokens",
              "type": "address[]",
              "internalType": "address[]"
            },
            {
              "name": "erc20Amounts",
              "type": "uint256[]",
              "internalType": "uint256[]"
            },
            {
              "name": "erc721Tokens",
              "type": "address[]",
              "internalType": "address[]"
            },
            {
              "name": "erc721TokenIds",
              "type": "uint256[]",
              "internalType": "uint256[]"
            },
            {
              "name": "erc1155Tokens",
              "type": "address[]",
              "internalType": "address[]"
            },
            {
              "name": "erc1155TokenIds",
              "type": "uint256[]",
              "internalType": "uint256[]"
            },
            {
              "name": "erc1155Amounts",
              "type": "uint256[]",
              "internalType": "uint256[]"
            },
            {
              "name": "payee",
              "type": "address",
              "internalType": "address"
            }
          ]
        },
        {
          "name": "expiration",
          "type": "uint64",
          "internalType": "uint64"
        }
      ],
      "outputs": [
        {
          "name": "",
          "type": "bytes32",
          "internalType": "bytes32"
        }
      ],
      "stateMutability": "nonpayable"
    },
    {
      "type": "function",
      "name": "buyErc1155WithErc721",
      "inputs": [
        {
          "name": "bidToken",
          "type": "address",
          "internalType": "address"
        },
        {
          "name": "bidTokenId",
          "type": "uint256",
          "internalType": "uint256"
        },
        {
          "name": "askToken",
          "type": "address",
          "internalType": "address"
        },
        {
          "name": "askTokenId",
          "type": "uint256",
          "internalType": "uint256"
        },
        {
          "name": "askAmount",
          "type": "uint256",
          "internalType": "uint256"
        },
        {
          "name": "expiration",
          "type": "uint64",
          "internalType": "uint64"
        }
      ],
      "outputs": [
        {
          "name": "",
          "type": "bytes32",
          "internalType": "bytes32"
        }
      ],
      "stateMutability": "nonpayable"
    },
    {
      "type": "function",
      "name": "buyErc20WithErc721",
      "inputs": [
        {
          "name": "bidToken",
          "type": "address",
          "internalType": "address"
        },
        {
          "name": "bidTokenId",
          "type": "uint256",
          "internalType": "uint256"
        },
        {
          "name": "askToken",
          "type": "address",
          "internalType": "address"
        },
        {
          "name": "askAmount",
          "type": "uint256",
          "internalType": "uint256"
        },
        {
          "name": "expiration",
          "type": "uint64",
          "internalType": "uint64"
        }
      ],
      "outputs": [
        {
          "name": "",
          "type": "bytes32",
          "internalType": "bytes32"
        }
      ],
      "stateMutability": "nonpayable"
    },
    {
      "type": "function",
      "name": "buyErc721ForErc721",
      "inputs": [
        {
          "name": "bidToken",
          "type": "address",
          "internalType": "address"
        },
        {
          "name": "bidTokenId",
          "type": "uint256",
          "internalType": "uint256"
        },
        {
          "name": "askToken",
          "type": "address",
          "internalType": "address"
        },
        {
          "name": "askTokenId",
          "type": "uint256",
          "internalType": "uint256"
        },
        {
          "name": "expiration",
          "type": "uint64",
          "internalType": "uint64"
        }
      ],
      "outputs": [
        {
          "name": "",
          "type": "bytes32",
          "internalType": "bytes32"
        }
      ],
      "stateMutability": "nonpayable"
    },
    {
      "type": "function",
      "name": "buyEthWithErc721",
      "inputs": [
        {
          "name": "bidToken",
          "type": "address",
          "internalType": "address"
        },
        {
          "name": "bidTokenId",
          "type": "uint256",
          "internalType": "uint256"
        },
        {
          "name": "askAmount",
          "type": "uint256",
          "internalType": "uint256"
        },
        {
          "name": "expiration",
          "type": "uint64",
          "internalType": "uint64"
        }
      ],
      "outputs": [
        {
          "name": "",
          "type": "bytes32",
          "internalType": "bytes32"
        }
      ],
      "stateMutability": "nonpayable"
    },
    {
      "type": "function",
      "name": "payErc721ForBundle",
      "inputs": [
        {
          "name": "buyAttestation",
          "type": "bytes32",
          "internalType": "bytes32"
        }
      ],
      "outputs": [
        {
          "name": "",
          "type": "bytes32",
          "internalType": "bytes32"
        }
      ],
      "stateMutability": "nonpayable"
    },
    {
      "type": "function",
      "name": "payErc721ForErc1155",
      "inputs": [
        {
          "name": "buyAttestation",
          "type": "bytes32",
          "internalType": "bytes32"
        }
      ],
      "outputs": [
        {
          "name": "",
          "type": "bytes32",
          "internalType": "bytes32"
        }
      ],
      "stateMutability": "nonpayable"
    },
    {
      "type": "function",
      "name": "payErc721ForErc20",
      "inputs": [
        {
          "name": "buyAttestation",
          "type": "bytes32",
          "internalType": "bytes32"
        }
      ],
      "outputs": [
        {
          "name": "",
          "type": "bytes32",
          "internalType": "bytes32"
        }
      ],
      "stateMutability": "nonpayable"
    },
    {
      "type": "function",
      "name": "payErc721ForErc721",
      "inputs": [
        {
          "name": "buyAttestation",
          "type": "bytes32",
          "internalType": "bytes32"
        }
      ],
      "outputs": [
        {
          "name": "",
          "type": "bytes32",
          "internalType": "bytes32"
        }
      ],
      "stateMutability": "nonpayable"
    },
    {
      "type": "function",
      "name": "payErc721ForEth",
      "inputs": [
        {
          "name": "buyAttestation",
          "type": "bytes32",
          "internalType": "bytes32"
        }
      ],
      "outputs": [
        {
          "name": "",
          "type": "bytes32",
          "internalType": "bytes32"
        }
      ],
      "stateMutability": "nonpayable"
    },
    {
      "type": "function",
      "name": "payEthForErc721",
      "inputs": [
        {
          "name": "buyAttestation",
          "type": "bytes32",
          "internalType": "bytes32"
        }
      ],
      "outputs": [
        {
          "name": "",
          "type": "bytes32",
          "internalType": "bytes32"
        }
      ],
      "stateMutability": "payable"
    },
    {
      "type": "error",
      "name": "AttestationNotFound",
      "inputs": [
        {
          "name": "attestationId",
          "type": "bytes32",
          "internalType": "bytes32"
        }
      ]
    },
    {
      "type": "error",
      "name": "CouldntCollectEscrow",
      "inputs": []
    }
  ],
  "bytecode": {
    "object": "0x6080346101ff57601f61215138819003918201601f19168301916001600160401b0383118484101761020357808492610160946040528339810103126101ff5780516001600160a01b03811691908290036101ff5760208101516001600160a01b038116908190036101ff5760408201516001600160a01b038116908190036101ff5760608301516001600160a01b038116908190036101ff5760808401516001600160a01b038116908190036101ff5760a08501516001600160a01b03811691908290036101ff5760c08601516001600160a01b03811693908490036101ff5760e08701516001600160a01b03811695908690036101ff576101008801516001600160a01b03811697908890036101ff576101208901516001600160a01b03811699908a90036101ff5761014001516001600160a01b0381169a908b90036101ff5760018060a01b03195f5416175f5560018060a01b0319600154161760015560018060a01b0319600254161760025560018060a01b0319600354161760035560018060a01b0319600454161760045560018060a01b0319600554161760055560018060a01b0319600654161760065560018060a01b0319600754161760075560018060a01b0319600854161760085560018060a01b0319600954161760095560018060a01b0319600a541617600a55604051611f3990816102188239f35b5f80fd5b634e487b7160e01b5f52604160045260245ffdfe6080806040526004361015610012575f80fd5b5f905f3560e01c90816341b81d581461162e575080635f19ead1146114af5780636590e21b14611278578063793d455d14610eac57806395aefd7c14610bf8578063add4fc3d14610a7b578063e32aa4631461097d578063e52f91ab1461082a578063ebb48d9014610672578063eff69b5e146103b95763fc6febeb14610097575f80fd5b346103b65760803660031901126103b6576100b061196c565b9060243591604435906001600160401b0382116103b457816004019361012060031984360301126103b0576100e3611996565b916001600160a01b0316803b15610388576040516323b872dd60e01b815285818061011386303360048501611c30565b038183865af1801561038c5790869161039b575b50506003546001600160a01b0316813b156103975760405163095ea7b360e01b81526001600160a01b0391909116600482015260248101839052858160448183865af1801561038c57908691610373575b5050600354600854604080516020808201528935918101919091526001600160a01b0391821698919092169582916101b36024830182611e6c565b6060850161012090526101608501906101cb92611ea0565b6101d86044840183611e6c565b858303603f190160808701526101ee9291611edf565b6101fb6064840183611e6c565b858303603f190160a08701526102119291611ea0565b61021e6084840183611e6c565b858303603f190160c08701526102349291611edf565b61024160a4840183611e6c565b858303603f190160e08701526102579291611ea0565b61026460c4840183611e6c565b858303603f190161010087015261027b9291611edf565b9060e4830161028991611e6c565b848303603f19016101208601526102a09291611edf565b906001600160a01b03906102b79061010401611982565b1661014083015203601f19810182526102d09082611a6b565b604051966102dd886119fe565b875260208701526040860152606085015260405180948192630c1e4a7160e41b83523390600484019261030f93611c96565b0381845a94602095f19081156103675790610330575b602090604051908152f35b506020813d60201161035f575b8161034a60209383611a6b565b8101031261035b5760209051610325565b5f80fd5b3d915061033d565b604051903d90823e3d90fd5b8161037d91611a6b565b61038857845f610178565b8480fd5b6040513d88823e3d90fd5b8580fd5b816103a591611a6b565b61038857845f610127565b8380fd5b825b80fd5b50346103b65760203660031901126103b65780546040516328c44a9960e21b81526004803590820181905292918290829060249082906001600160a01b03165afa9081156105d057610426610120610437936020938691610650575b500151828082518301019101611d13565b015160208082518301019101611bf1565b9160018060a01b0383511660208401908151813b1561038857610475859283926040519485809481936323b872dd60e01b8352303360048501611c30565b03925af1801561064557908491610630575b505083516004549151916001600160a01b039182169116813b156103885760405163095ea7b360e01b81526001600160a01b03919091166004820152602481019290925283908290604490829084905af1801561062557610610575b506004805460405163108d1d5d60e21b81529460209286926001600160a01b03169183918791839161051b9189913391908501611c52565b03925af19283156105d05782936105db575b50600354604051632c713cd960e01b81526004810192909252602482018490526020908290604490829086906001600160a01b03165af19081156105d0578291610592575b501561058357602082604051908152f35b63a97a981d60e01b8152600490fd5b90506020813d6020116105c8575b816105ad60209383611a6b565b810103126105c4576105be90611ab4565b5f610572565b5080fd5b3d91506105a0565b6040513d84823e3d90fd5b9092506020813d602011610608575b816105f760209383611a6b565b8101031261035b575191602061052d565b3d91506105ea565b61061b838092611a6b565b6105c4575f6104e3565b6040513d85823e3d90fd5b8161063a91611a6b565b6103b457825f610487565b6040513d86823e3d90fd5b61066c91503d8088833e6106648183611a6b565b810190611b16565b5f610415565b50346103b657610681366119ac565b9093919290916001600160a01b0316803b15610397576040516323b872dd60e01b815286908181806106b887303360048501611c30565b038183875af180156105d057610815575b50506003546001600160a01b031686823b156103b65760405163095ea7b360e01b81526001600160a01b03929092166004830152602482018490528160448183865af1801561080a576107f5575b506003546004546040516107da98976020976001600160a01b0393841697949093169593949261074683611a35565b60018060a01b031682528782015233604082015261078f604051918883019060409060018060a01b038151168352602081015160208401528160018060a01b0391015116910152565b6060815261079e608082611a6b565b604051956107ab876119fe565b8652868601526040850152606084015284604051809781958294630c1e4a7160e41b8452339160048501611c96565b03925af1908115610367579061033057602090604051908152f35b610800878092611a6b565b610397575f610717565b6040513d89823e3d90fd5b8161081f91611a6b565b61039757855f6106c9565b50346103b65760803660031901126103b65761084461196c565b60243561084f611996565b6001600160a01b0390921691823b156103b0576040516323b872dd60e01b8152849081818061088387303360048501611c30565b038183895af180156105d057610968575b50506003546001600160a01b031684843b156103b65760405163095ea7b360e01b81526001600160a01b03929092166004830152602482018490528160448183885af1801561095d57610948575b50600354600a546040516107da96956020956001600160a01b039384169593909416939161090f81611a50565b6044358152338782015260405181518189019081526020928301516001600160a01b03169201919091526040815261079e606082611a6b565b610953858092611a6b565b6103b0575f6108e2565b6040513d87823e3d90fd5b8161097291611a6b565b6103b057835f610894565b50346103b65761098c366119ac565b9093919290916001600160a01b0316803b15610397576040516323b872dd60e01b815286908181806109c387303360048501611c30565b038183875af180156105d057610a66575b50506003546001600160a01b031686823b156103b65760405163095ea7b360e01b81526001600160a01b03929092166004830152602482018490528160448183865af1801561080a57610a51575b506003546002546040516107da98976020976001600160a01b0393841697949093169593949261074683611a35565b610a5c878092611a6b565b610397575f610a22565b81610a7091611a6b565b61039757855f6109d4565b5060203660031901126103b65780546040516328c44a9960e21b81526004803590820181905292918290829060249082906001600160a01b03165afa9081156105d0578291610bde575b50805115610bcb57610ae66101206020920151828082518301019101611d13565b0151916040838051810103126105c4576020610b5b6084604051610b0981611a50565b610b1c6040858901519889845201611aa0565b81850152600a54604051632634e40960e01b8152825160048201526020909201516001600160a01b039081166024840152919788948593919290911690565b3360448401528660648401525af19283156105d05782936105db5750600354604051632c713cd960e01b81526004810192909252602482018490526020908290604490829086906001600160a01b03165af19081156105d057829161059257501561058357602082604051908152f35b506024916301fb6dd160e01b8252600452fd5b610bf291503d8084833e6106648183611a6b565b5f610ac5565b50346103b65760203660031901126103b65780546040516328c44a9960e21b81526004803590820181905292918290829060249082906001600160a01b03165afa9081156105d0578291610e92575b50805115610bcb57610120015180518101906020818303126103b4576020810151906001600160401b0382116103b05701906060828203126103b45760405190610c9082611a35565b610c9c60208401611aa0565b82526040830151906001600160401b038211610388576060610ccd610ce89594936020806040950191870101611ac1565b93846020850152015191015260208082518301019101611bf1565b9160018060a01b0383511660208401908151813b1561038857610d26859283926040519485809481936323b872dd60e01b8352303360048501611c30565b03925af1801561064557908491610e7d575b505083516004549151916001600160a01b039182169116813b156103885760405163095ea7b360e01b81526001600160a01b03919091166004820152602481019290925283908290604490829084905af1801561062557610e68575b506004805460405163108d1d5d60e21b81529460209286926001600160a01b031691839187918391610dcc9189913391908501611c52565b03925af19283156105d0578293610e33575b50600954604051632c713cd960e01b81526004810192909252602482018490526020908290604490829086906001600160a01b03165af19081156105d057829161059257501561058357602082604051908152f35b9092506020813d602011610e60575b81610e4f60209383611a6b565b8101031261035b5751916020610dde565b3d9150610e42565b610e73838092611a6b565b6105c4575f610d94565b81610e8791611a6b565b6103b457825f610d38565b610ea691503d8084833e6106648183611a6b565b5f610c47565b50346103b65760203660031901126103b65780546040516328c44a9960e21b81526004803590820181905292918290829060249082906001600160a01b03165afa9081156105d0579061012091839161125e575b500151805181019060208201906020818403126103b0576020810151906001600160401b03821161038857019161014090839003126103b45760405190610f4682611a19565b610f5260208401611aa0565b825260408301516001600160401b03811161038857816020610f7692860101611ac1565b92602083019384526060810151604084015260808101516001600160401b03811161039757826020610faa92840101611daa565b606084015260a08101516001600160401b03811161039757826020610fd192840101611e0f565b608084015260c08101516001600160401b03811161039757826020610ff892840101611daa565b60a084015260e08101516001600160401b0381116103975782602061101f92840101611e0f565b60c08401526101008101516001600160401b0381116103975782602061104792840101611daa565b60e08401526101208101516001600160401b0381116103975782602061106f92840101611e0f565b610100840152610140810151906001600160401b038211610397576110b49493926020610120936110a1930101611e0f565b9101525160208082518301019101611bf1565b9160018060a01b0383511660208401908151813b15610388576110f2859283926040519485809481936323b872dd60e01b8352303360048501611c30565b03925af1801561064557908491611249575b505083516004549151916001600160a01b039182169116813b156103885760405163095ea7b360e01b81526001600160a01b03919091166004820152602481019290925283908290604490829084905af1801561062557611234575b506004805460405163108d1d5d60e21b81529460209286926001600160a01b0316918391879183916111989189913391908501611c52565b03925af19283156105d05782936111ff575b50600754604051632c713cd960e01b81526004810192909252602482018490526020908290604490829086906001600160a01b03165af19081156105d057829161059257501561058357602082604051908152f35b9092506020813d60201161122c575b8161121b60209383611a6b565b8101031261035b57519160206111aa565b3d915061120e565b61123f838092611a6b565b6105c4575f611160565b8161125391611a6b565b6103b457825f611104565b61127291503d8085833e6106648183611a6b565b5f610f00565b50346103b65760203660031901126103b65780546040516328c44a9960e21b81526004803590820181905292918290829060249082906001600160a01b03165afa9081156105d0578291611495575b50805115610bcb5760206104266101206112eb930151828082518301019101611d13565b9160018060a01b0383511660208401908151813b1561038857611329859283926040519485809481936323b872dd60e01b8352303360048501611c30565b03925af1801561064557908491611480575b505083516004549151916001600160a01b039182169116813b156103885760405163095ea7b360e01b81526001600160a01b03919091166004820152602481019290925283908290604490829084905af180156106255761146b575b506004805460405163108d1d5d60e21b81529460209286926001600160a01b0316918391879183916113cf9189913391908501611c52565b03925af19283156105d0578293611436575b50600154604051632c713cd960e01b81526004810192909252602482018490526020908290604490829086906001600160a01b03165af19081156105d057829161059257501561058357602082604051908152f35b9092506020813d602011611463575b8161145260209383611a6b565b8101031261035b57519160206113e1565b3d9150611445565b611476838092611a6b565b6105c4575f611397565b8161148a91611a6b565b6103b457825f61133b565b6114a991503d8084833e6106648183611a6b565b5f6112c7565b50346103b65760c03660031901126103b6576114c961196c565b6044356001600160a01b03811691602435918390036103b05760a435906001600160401b0382168203610388576001600160a01b031691823b15610388576040516323b872dd60e01b8152859081818061152886303360048501611c30565b038183895af180156105d057611619575b50506003546001600160a01b031685843b156103b65760405163095ea7b360e01b81526001600160a01b03929092166004830152602482018390528160448183885af1801561038c57611604575b506003546006546040516107da97966020966001600160a01b0393841696949093169492916115b5816119fe565b8181528781019060643582526060604082019160843583520191338352604051938a85015251604084015251606083015260018060a01b0390511660808201526080815261079e60a082611a6b565b61160f868092611a6b565b610388575f611587565b8161162391611a6b565b61038857845f611539565b823461035b57602036600319011261035b57600435915f8160248160018060a01b038454166328c44a9960e21b82528760048301525afa908115611920575f91611952575b5080511561193f576101200151805181019060208183031261035b576020810151906001600160401b03821161035b570160a08183031261035b5760405160a081018181106001600160401b0382111761192b576040526116d660208301611aa0565b81526040820151926001600160401b03841161035b5760a061170561173a956020806080950191870101611ac1565b9384602085015261171860608201611aa0565b6040850152828101516060850152015191015260208082518301019101611bf1565b805160208201805192949290916001600160a01b0316803b1561035b576040516323b872dd60e01b8152915f91839182908490829061177e90303360048501611c30565b03925af180156119205761190b575b5083516004549151916001600160a01b039182169116813b156103885760405163095ea7b360e01b81526001600160a01b03919091166004820152602481019290925283908290604490829084905af18015610625576118f6575b506004805460405163108d1d5d60e21b81529460209286926001600160a01b0316918391879183916118209189913391908501611c52565b03925af19283156105d05782936118c1575b50600554604051632c713cd960e01b81526004810192909252602482018490526020908290604490829086906001600160a01b03165af19081156105d057829161188757501561058357602082604051908152f35b90506020813d6020116118b9575b816118a260209383611a6b565b810103126105c4576118b390611ab4565b83610572565b3d9150611895565b9092506020813d6020116118ee575b816118dd60209383611a6b565b8101031261035b5751916020611832565b3d91506118d0565b611901838092611a6b565b6105c457836117e8565b6119189193505f90611a6b565b5f918461178d565b6040513d5f823e3d90fd5b634e487b7160e01b5f52604160045260245ffd5b826301fb6dd160e01b5f5260045260245ffd5b61196691503d805f833e6106648183611a6b565b83611673565b600435906001600160a01b038216820361035b57565b35906001600160a01b038216820361035b57565b606435906001600160401b038216820361035b57565b60a090600319011261035b576004356001600160a01b038116810361035b5790602435906044356001600160a01b038116810361035b5790606435906084356001600160401b038116810361035b5790565b608081019081106001600160401b0382111761192b57604052565b61014081019081106001600160401b0382111761192b57604052565b606081019081106001600160401b0382111761192b57604052565b604081019081106001600160401b0382111761192b57604052565b90601f801991011681019081106001600160401b0382111761192b57604052565b51906001600160401b038216820361035b57565b51906001600160a01b038216820361035b57565b5190811515820361035b57565b81601f8201121561035b578051906001600160401b03821161192b5760405192611af5601f8401601f191660200185611a6b565b8284526020838301011161035b57815f9260208093018386015e8301015290565b60208183031261035b578051906001600160401b03821161035b57016101408183031261035b5760405191611b4a83611a19565b8151835260208201516020840152611b6460408301611a8c565b6040840152611b7560608301611a8c565b6060840152611b8660808301611a8c565b608084015260a082015160a0840152611ba160c08301611aa0565b60c0840152611bb260e08301611aa0565b60e0840152611bc46101008301611ab4565b6101008401526101208201516001600160401b03811161035b57611be89201611ac1565b61012082015290565b9081606091031261035b57611c286040805192611c0d84611a35565b611c1681611aa0565b84526020810151602085015201611aa0565b604082015290565b6001600160a01b03918216815291166020820152604081019190915260600190565b81516001600160a01b03908116825260208084015190830152604092830151169181019190915260a08101939291608091906001600160a01b031660608201520152565b9193926001600160401b036101006020606060409581885260018060a01b0381511682890152828101516080808a015280519384918260e08c015201858a015e5f84848a01015260018060a01b03878201511660a0890152015160c0870152601f80199101168501019516602084015260018060a01b0316910152565b60208183031261035b578051906001600160401b03821161035b57019060808282031261035b5760405191611d47836119fe565b611d5081611aa0565b835260208101516001600160401b03811161035b57606092611d73918301611ac1565b6020840152611d8460408201611aa0565b60408401520151606082015290565b6001600160401b03811161192b5760051b60200190565b9080601f8301121561035b578151611dc181611d93565b92611dcf6040519485611a6b565b81845260208085019260051b82010192831161035b57602001905b828210611df75750505090565b60208091611e0484611aa0565b815201910190611dea565b9080601f8301121561035b578151611e2681611d93565b92611e346040519485611a6b565b81845260208085019260051b82010192831161035b57602001905b828210611e5c5750505090565b8151815260209182019101611e4f565b9035601e198236030181121561035b5701602081359101916001600160401b03821161035b578160051b3603831361035b57565b916020908281520191905f5b818110611eb95750505090565b909192602080600192838060a01b03611ed188611982565b168152019401929101611eac565b81835290916001600160fb1b03831161035b5760209260051b80928483013701019056fea26469706673582212207cb181ce0d61eb37b7e27ba8d5a00dc5dbce707b0d75819e82f93c35cba1abd664736f6c634300081b0033",
    "linkReferences": {}
  },
  "methodIdentifiers": {
    "buyBundleWithErc721(address,uint256,(uint256,address[],uint256[],address[],uint256[],address[],uint256[],uint256[],address),uint64)": "fc6febeb",
    "buyErc1155WithErc721(address,uint256,address,uint256,uint256,uint64)": "5f19ead1",
    "buyErc20WithErc721(address,uint256,address,uint256,uint64)": "e32aa463",
    "buyErc721ForErc721(address,uint256,address,uint256,uint64)": "ebb48d90",
    "buyEthWithErc721(address,uint256,uint256,uint64)": "e52f91ab",
    "payErc721ForBundle(bytes32)": "793d455d",
    "payErc721ForErc1155(bytes32)": "41b81d58",
    "payErc721ForErc20(bytes32)": "6590e21b",
    "payErc721ForErc721(bytes32)": "eff69b5e",
    "payErc721ForEth(bytes32)": "95aefd7c",
    "payEthForErc721(bytes32)": "add4fc3d"
  },
  "id": 153
}