{
  "abi": [
    {
      "type": "constructor",
      "inputs": [
        {
          "name": "_eas",
          "type": "address",
          "internalType": "contract IEAS"
        },
        {
          "name": "_erc20Escrow",
          "type": "address",
          "internalType": "contract ERC20EscrowObligation"
        },
        {
          "name": "_erc20Payment",
          "type": "address",
          "internalType": "contract ERC20PaymentObligation"
        },
        {
          "name": "_erc721Escrow",
          "type": "address",
          "internalType": "contract ERC721EscrowObligation"
        },
        {
          "name": "_erc721Payment",
          "type": "address",
          "internalType": "contract ERC721PaymentObligation"
        },
        {
          "name": "_erc1155Escrow",
          "type": "address",
          "internalType": "contract ERC1155EscrowObligation"
        },
        {
          "name": "_erc1155Payment",
          "type": "address",
          "internalType": "contract ERC1155PaymentObligation"
        },
        {
          "name": "_bundleEscrow",
          "type": "address",
          "internalType": "contract TokenBundleEscrowObligation"
        },
        {
          "name": "_bundlePayment",
          "type": "address",
          "internalType": "contract TokenBundlePaymentObligation"
        },
        {
          "name": "_nativeEscrow",
          "type": "address",
          "internalType": "contract NativeTokenEscrowObligation"
        },
        {
          "name": "_nativePayment",
          "type": "address",
          "internalType": "contract NativeTokenPaymentObligation"
        }
      ],
      "stateMutability": "nonpayable"
    },
    {
      "type": "function",
      "name": "buyBundleWithErc721",
      "inputs": [
        {
          "name": "bidToken",
          "type": "address",
          "internalType": "address"
        },
        {
          "name": "bidTokenId",
          "type": "uint256",
          "internalType": "uint256"
        },
        {
          "name": "askData",
          "type": "tuple",
          "internalType": "struct TokenBundlePaymentObligation.ObligationData",
          "components": [
            {
              "name": "nativeAmount",
              "type": "uint256",
              "internalType": "uint256"
            },
            {
              "name": "erc20Tokens",
              "type": "address[]",
              "internalType": "address[]"
            },
            {
              "name": "erc20Amounts",
              "type": "uint256[]",
              "internalType": "uint256[]"
            },
            {
              "name": "erc721Tokens",
              "type": "address[]",
              "internalType": "address[]"
            },
            {
              "name": "erc721TokenIds",
              "type": "uint256[]",
              "internalType": "uint256[]"
            },
            {
              "name": "erc1155Tokens",
              "type": "address[]",
              "internalType": "address[]"
            },
            {
              "name": "erc1155TokenIds",
              "type": "uint256[]",
              "internalType": "uint256[]"
            },
            {
              "name": "erc1155Amounts",
              "type": "uint256[]",
              "internalType": "uint256[]"
            },
            {
              "name": "payee",
              "type": "address",
              "internalType": "address"
            }
          ]
        },
        {
          "name": "expiration",
          "type": "uint64",
          "internalType": "uint64"
        }
      ],
      "outputs": [
        {
          "name": "",
          "type": "bytes32",
          "internalType": "bytes32"
        }
      ],
      "stateMutability": "nonpayable"
    },
    {
      "type": "function",
      "name": "buyErc1155WithErc721",
      "inputs": [
        {
          "name": "bidToken",
          "type": "address",
          "internalType": "address"
        },
        {
          "name": "bidTokenId",
          "type": "uint256",
          "internalType": "uint256"
        },
        {
          "name": "askToken",
          "type": "address",
          "internalType": "address"
        },
        {
          "name": "askTokenId",
          "type": "uint256",
          "internalType": "uint256"
        },
        {
          "name": "askAmount",
          "type": "uint256",
          "internalType": "uint256"
        },
        {
          "name": "expiration",
          "type": "uint64",
          "internalType": "uint64"
        }
      ],
      "outputs": [
        {
          "name": "",
          "type": "bytes32",
          "internalType": "bytes32"
        }
      ],
      "stateMutability": "nonpayable"
    },
    {
      "type": "function",
      "name": "buyErc20WithErc721",
      "inputs": [
        {
          "name": "bidToken",
          "type": "address",
          "internalType": "address"
        },
        {
          "name": "bidTokenId",
          "type": "uint256",
          "internalType": "uint256"
        },
        {
          "name": "askToken",
          "type": "address",
          "internalType": "address"
        },
        {
          "name": "askAmount",
          "type": "uint256",
          "internalType": "uint256"
        },
        {
          "name": "expiration",
          "type": "uint64",
          "internalType": "uint64"
        }
      ],
      "outputs": [
        {
          "name": "",
          "type": "bytes32",
          "internalType": "bytes32"
        }
      ],
      "stateMutability": "nonpayable"
    },
    {
      "type": "function",
      "name": "buyErc721ForErc721",
      "inputs": [
        {
          "name": "bidToken",
          "type": "address",
          "internalType": "address"
        },
        {
          "name": "bidTokenId",
          "type": "uint256",
          "internalType": "uint256"
        },
        {
          "name": "askToken",
          "type": "address",
          "internalType": "address"
        },
        {
          "name": "askTokenId",
          "type": "uint256",
          "internalType": "uint256"
        },
        {
          "name": "expiration",
          "type": "uint64",
          "internalType": "uint64"
        }
      ],
      "outputs": [
        {
          "name": "",
          "type": "bytes32",
          "internalType": "bytes32"
        }
      ],
      "stateMutability": "nonpayable"
    },
    {
      "type": "function",
      "name": "buyEthWithErc721",
      "inputs": [
        {
          "name": "bidToken",
          "type": "address",
          "internalType": "address"
        },
        {
          "name": "bidTokenId",
          "type": "uint256",
          "internalType": "uint256"
        },
        {
          "name": "askAmount",
          "type": "uint256",
          "internalType": "uint256"
        },
        {
          "name": "expiration",
          "type": "uint64",
          "internalType": "uint64"
        }
      ],
      "outputs": [
        {
          "name": "",
          "type": "bytes32",
          "internalType": "bytes32"
        }
      ],
      "stateMutability": "nonpayable"
    },
    {
      "type": "function",
      "name": "payErc721ForBundle",
      "inputs": [
        {
          "name": "buyAttestation",
          "type": "bytes32",
          "internalType": "bytes32"
        }
      ],
      "outputs": [
        {
          "name": "",
          "type": "bytes32",
          "internalType": "bytes32"
        }
      ],
      "stateMutability": "nonpayable"
    },
    {
      "type": "function",
      "name": "payErc721ForErc1155",
      "inputs": [
        {
          "name": "buyAttestation",
          "type": "bytes32",
          "internalType": "bytes32"
        }
      ],
      "outputs": [
        {
          "name": "",
          "type": "bytes32",
          "internalType": "bytes32"
        }
      ],
      "stateMutability": "nonpayable"
    },
    {
      "type": "function",
      "name": "payErc721ForErc20",
      "inputs": [
        {
          "name": "buyAttestation",
          "type": "bytes32",
          "internalType": "bytes32"
        }
      ],
      "outputs": [
        {
          "name": "",
          "type": "bytes32",
          "internalType": "bytes32"
        }
      ],
      "stateMutability": "nonpayable"
    },
    {
      "type": "function",
      "name": "payErc721ForErc721",
      "inputs": [
        {
          "name": "buyAttestation",
          "type": "bytes32",
          "internalType": "bytes32"
        }
      ],
      "outputs": [
        {
          "name": "",
          "type": "bytes32",
          "internalType": "bytes32"
        }
      ],
      "stateMutability": "nonpayable"
    },
    {
      "type": "function",
      "name": "payErc721ForEth",
      "inputs": [
        {
          "name": "buyAttestation",
          "type": "bytes32",
          "internalType": "bytes32"
        }
      ],
      "outputs": [
        {
          "name": "",
          "type": "bytes32",
          "internalType": "bytes32"
        }
      ],
      "stateMutability": "nonpayable"
    },
    {
      "type": "function",
      "name": "payEthForErc721",
      "inputs": [
        {
          "name": "buyAttestation",
          "type": "bytes32",
          "internalType": "bytes32"
        }
      ],
      "outputs": [
        {
          "name": "",
          "type": "bytes32",
          "internalType": "bytes32"
        }
      ],
      "stateMutability": "payable"
    },
    {
      "type": "error",
      "name": "AttestationNotFound",
      "inputs": [
        {
          "name": "attestationId",
          "type": "bytes32",
          "internalType": "bytes32"
        }
      ]
    },
    {
      "type": "error",
      "name": "CouldntCollectEscrow",
      "inputs": []
    }
  ],
  "bytecode": {
    "object": "0x6080346101ff57601f6120de38819003918201601f19168301916001600160401b0383118484101761020357808492610160946040528339810103126101ff5780516001600160a01b03811691908290036101ff5760208101516001600160a01b038116908190036101ff5760408201516001600160a01b038116908190036101ff5760608301516001600160a01b038116908190036101ff5760808401516001600160a01b038116908190036101ff5760a08501516001600160a01b03811691908290036101ff5760c08601516001600160a01b03811693908490036101ff5760e08701516001600160a01b03811695908690036101ff576101008801516001600160a01b03811697908890036101ff576101208901516001600160a01b03811699908a90036101ff5761014001516001600160a01b0381169a908b90036101ff5760018060a01b03195f5416175f5560018060a01b0319600154161760015560018060a01b0319600254161760025560018060a01b0319600354161760035560018060a01b0319600454161760045560018060a01b0319600554161760055560018060a01b0319600654161760065560018060a01b0319600754161760075560018060a01b0319600854161760085560018060a01b0319600954161760095560018060a01b0319600a541617600a55604051611ec690816102188239f35b5f80fd5b634e487b7160e01b5f52604160045260245ffdfe6080806040526004361015610012575f80fd5b5f905f3560e01c90816341b81d58146115df575080635f19ead1146114605780636590e21b1461122e578063793d455d14610e7357806395aefd7c14610bc7578063add4fc3d14610a56578063e32aa46314610958578063e52f91ab14610805578063ebb48d901461064d578063eff69b5e146103b95763fc6febeb14610097575f80fd5b346103b65760803660031901126103b6576100b06118dc565b9060243591604435906001600160401b0382116103b457816004019361012060031984360301126103b0576100e3611906565b916001600160a01b0316803b15610388576040516323b872dd60e01b815285818061011386303360048501611b95565b038183865af1801561038c5790869161039b575b50506003546001600160a01b0316813b156103975760405163095ea7b360e01b81526001600160a01b0391909116600482015260248101839052858160448183865af1801561038c57908691610373575b5050600354600854604080516020808201528935918101919091526001600160a01b0391821698919092169582916101b36024830182611df9565b6060850161012090526101608501906101cb92611e2d565b6101d86044840183611df9565b858303603f190160808701526101ee9291611e6c565b6101fb6064840183611df9565b858303603f190160a08701526102119291611e2d565b61021e6084840183611df9565b858303603f190160c08701526102349291611e6c565b61024160a4840183611df9565b858303603f190160e08701526102579291611e2d565b61026460c4840183611df9565b858303603f190161010087015261027b9291611e6c565b9060e4830161028991611df9565b848303603f19016101208601526102a09291611e6c565b906001600160a01b03906102b790610104016118f2565b1661014083015203601f19810182526102d090826119db565b604051966102dd8861196e565b875260208701526040860152606085015260405180948192630c1e4a7160e41b83523390600484019261030f93611c23565b0381845a94602095f19081156103675790610330575b602090604051908152f35b506020813d60201161035f575b8161034a602093836119db565b8101031261035b5760209051610325565b5f80fd5b3d915061033d565b604051903d90823e3d90fd5b8161037d916119db565b61038857845f610178565b8480fd5b6040513d88823e3d90fd5b8580fd5b816103a5916119db565b61038857845f610127565b8380fd5b825b80fd5b50346103b65760203660031901126103b6576004358160248160018060a01b03815416604051928380926328c44a9960e21b82528760048301525afa9081156105dc5761042161012061043293602093869161062b575b500151828082518301019101611ca0565b015160208082518301019101611b56565b805160208201805192949290916001600160a01b0316803b15610388576040516323b872dd60e01b8152918591839182908490829061047690303360048501611b95565b03925af190811561062057849161060b575b5050835160045491516001600160a01b039182169290911690823b156103885760405163095ea7b360e01b81526001600160a01b0392909216600483015260248201529083908290604490829084905af18015610600576105e7575b506004805460405163108d1d5d60e21b81529460209286926001600160a01b03169183918791839161051c9189913391908501611bb7565b03925af19283156105dc5782936105a5575b508190604460018060a01b0360035416916040519687938492633a9bb12760e21b845260048401528760248401525af192831561059857602093610577575b5050604051908152f35b610592913d8091833e61058a81836119db565b810190611bfb565b5f61056d565b50604051903d90823e3d90fd5b915091506020813d6020116105d4575b816105c2602093836119db565b8101031261035b57519082908161052e565b3d91506105b5565b6040513d84823e3d90fd5b6105f28380926119db565b6105fc575f6104e4565b5080fd5b6040513d85823e3d90fd5b81610615916119db565b6103b457825f610488565b6040513d86823e3d90fd5b61064791503d8088833e61063f81836119db565b810190611a79565b5f610410565b50346103b65761065c3661191c565b9093919290916001600160a01b0316803b15610397576040516323b872dd60e01b8152869081818061069387303360048501611b95565b038183875af180156105dc576107f0575b50506003546001600160a01b031686823b156103b65760405163095ea7b360e01b81526001600160a01b03929092166004830152602482018490528160448183865af180156107e5576107d0575b506003546004546040516107b598976020976001600160a01b03938416979490931695939492610721836119a5565b60018060a01b031682528782015233604082015261076a604051918883019060409060018060a01b038151168352602081015160208401528160018060a01b0391015116910152565b606081526107796080826119db565b604051956107868761196e565b8652868601526040850152606084015284604051809781958294630c1e4a7160e41b8452339160048501611c23565b03925af1908115610367579061033057602090604051908152f35b6107db8780926119db565b610397575f6106f2565b6040513d89823e3d90fd5b816107fa916119db565b61039757855f6106a4565b50346103b65760803660031901126103b65761081f6118dc565b60243561082a611906565b6001600160a01b0390921691823b156103b0576040516323b872dd60e01b8152849081818061085e87303360048501611b95565b038183895af180156105dc57610943575b50506003546001600160a01b031684843b156103b65760405163095ea7b360e01b81526001600160a01b03929092166004830152602482018490528160448183885af1801561093857610923575b50600354600a546040516107b596956020956001600160a01b03938416959390941693916108ea816119c0565b6044358152338782015260405181518189019081526020928301516001600160a01b0316920191909152604081526107796060826119db565b61092e8580926119db565b6103b0575f6108bd565b6040513d87823e3d90fd5b8161094d916119db565b6103b057835f61086f565b50346103b6576109673661191c565b9093919290916001600160a01b0316803b15610397576040516323b872dd60e01b8152869081818061099e87303360048501611b95565b038183875af180156105dc57610a41575b50506003546001600160a01b031686823b156103b65760405163095ea7b360e01b81526001600160a01b03929092166004830152602482018490528160448183865af180156107e557610a2c575b506003546002546040516107b598976020976001600160a01b03938416979490931695939492610721836119a5565b610a378780926119db565b610397575f6109fd565b81610a4b916119db565b61039757855f6109af565b5060203660031901126103b65780546040516328c44a9960e21b815260048035908201819052918390829060249082906001600160a01b03165afa908115610600578391610bad575b50805115610b99576020610ac161012085930151828082518301019101611ca0565b0151916040838051810103126105fc576020610b366084604051610ae4816119c0565b610af76040858901519889845201611a10565b81850152600a54604051632634e40960e01b8152825160048201526020909201516001600160a01b039081166024840152919788948593919290911690565b3360448401528660648401525af19283156105dc5782936105a557508190604460018060a01b0360035416916040519687938492633a9bb12760e21b845260048401528760248401525af192831561059857602093610577575050604051908152f35b6301fb6dd160e01b83526004829052602483fd5b610bc191503d8085833e61063f81836119db565b5f610a9f565b50346103b65760203660031901126103b65780546040516328c44a9960e21b815260048035908201819052918390829060249082906001600160a01b03165afa908115610600578391610e59575b50805115610b99576101208391015180518101906020818303126103b4576020810151906001600160401b0382116103b057016060818303126103b457604051610c5e816119a5565b610c6a60208301611a10565b81526040820151926001600160401b038411610388576060610c99610cb4956020806040950191870101611a24565b93846020850152015191015260208082518301019101611b56565b805160208201805192949290916001600160a01b0316803b15610388576040516323b872dd60e01b81529185918391829084908290610cf890303360048501611b95565b03925af1908115610620578491610e44575b5050835160045491516001600160a01b039182169290911690823b156103885760405163095ea7b360e01b81526001600160a01b0392909216600483015260248201529083908290604490829084905af1801561060057610e2f575b506004805460405163108d1d5d60e21b81529460209286926001600160a01b031691839187918391610d9e9189913391908501611bb7565b03925af19283156105dc578293610df8575b508190604460018060a01b0360095416916040519687938492633a9bb12760e21b845260048401528760248401525af192831561059857602093610577575050604051908152f35b915091506020813d602011610e27575b81610e15602093836119db565b8101031261035b575190829081610db0565b3d9150610e08565b610e3a8380926119db565b6105fc575f610d66565b81610e4e916119db565b6103b457825f610d0a565b610e6d91503d8085833e61063f81836119db565b5f610c15565b50346103b65760203660031901126103b6576004358160248160018060a01b03815416604051928380926328c44a9960e21b82528760048301525afa80156105dc57610120918391611214575b5001518051810160208101916020818303126103b0576020810151906001600160401b03821161038857019061014090829003126103b457604051610f0481611989565b610f1060208301611a10565b815260408201516001600160401b03811161038857836020610f3492850101611a24565b91602082019283526060810151604083015260808101516001600160401b03811161039757846020610f6892840101611d37565b606083015260a08101516001600160401b03811161039757846020610f8f92840101611d9c565b608083015260c08101516001600160401b03811161039757846020610fb692840101611d37565b60a083015260e08101516001600160401b03811161039757846020610fdd92840101611d9c565b60c08301526101008101516001600160401b0381116103975784602061100592840101611d37565b60e08301526101208101516001600160401b0381116103975784602061102d92840101611d9c565b6101008301526101408101516001600160401b0381116103975761106f94602061105c92610120940101611d9c565b9101525160208082518301019101611b56565b805160208201805192949290916001600160a01b0316803b15610388576040516323b872dd60e01b815291859183918290849082906110b390303360048501611b95565b03925af19081156106205784916111ff575b5050835160045491516001600160a01b039182169290911690823b156103885760405163095ea7b360e01b81526001600160a01b0392909216600483015260248201529083908290604490829084905af18015610600576111ea575b506004805460405163108d1d5d60e21b81529460209286926001600160a01b0316918391879183916111599189913391908501611bb7565b03925af19283156105dc5782936111b3575b508190604460018060a01b0360075416916040519687938492633a9bb12760e21b845260048401528760248401525af192831561059857602093610577575050604051908152f35b915091506020813d6020116111e2575b816111d0602093836119db565b8101031261035b57519082908161116b565b3d91506111c3565b6111f58380926119db565b6105fc575f611121565b81611209916119db565b6103b457825f6110c5565b61122891503d8085833e61063f81836119db565b5f610ec0565b50346103b65760203660031901126103b65780546040516328c44a9960e21b815260048035908201819052918390829060249082906001600160a01b03165afa908115610600578391611446575b50805115610b99576112a1602061042161012086940151828082518301019101611ca0565b805160208201805192949290916001600160a01b0316803b15610388576040516323b872dd60e01b815291859183918290849082906112e590303360048501611b95565b03925af1908115610620578491611431575b5050835160045491516001600160a01b039182169290911690823b156103885760405163095ea7b360e01b81526001600160a01b0392909216600483015260248201529083908290604490829084905af180156106005761141c575b506004805460405163108d1d5d60e21b81529460209286926001600160a01b03169183918791839161138b9189913391908501611bb7565b03925af19283156105dc5782936113e5575b508190604460018060a01b0360015416916040519687938492633a9bb12760e21b845260048401528760248401525af192831561059857602093610577575050604051908152f35b915091506020813d602011611414575b81611402602093836119db565b8101031261035b57519082908161139d565b3d91506113f5565b6114278380926119db565b6105fc575f611353565b8161143b916119db565b6103b457825f6112f7565b61145a91503d8085833e61063f81836119db565b5f61127c565b50346103b65760c03660031901126103b65761147a6118dc565b6044356001600160a01b03811691602435918390036103b05760a435906001600160401b0382168203610388576001600160a01b031691823b15610388576040516323b872dd60e01b815285908181806114d986303360048501611b95565b038183895af180156105dc576115ca575b50506003546001600160a01b031685843b156103b65760405163095ea7b360e01b81526001600160a01b03929092166004830152602482018390528160448183885af1801561038c576115b5575b506003546006546040516107b597966020966001600160a01b0393841696949093169492916115668161196e565b8181528781019060643582526060604082019160843583520191338352604051938a85015251604084015251606083015260018060a01b0390511660808201526080815261077960a0826119db565b6115c08680926119db565b610388575f611538565b816115d4916119db565b61038857845f6114ea565b90503461035b57602036600319011261035b57600435905f8160248160018060a01b038454166328c44a9960e21b82528660048301525afa908115611890575f916118c2575b508051156118af576101200151805181019060208183031261035b576020810151906001600160401b03821161035b570160a08183031261035b5760405160a081018181106001600160401b0382111761189b5760405261168860208301611a10565b81526040820151926001600160401b03841161035b5760a06116b76116ec956020806080950191870101611a24565b938460208501526116ca60608201611a10565b6040850152828101516060850152015191015260208082518301019101611b56565b805160208201805192939290916001600160a01b0316803b1561035b576040516323b872dd60e01b8152915f91839182908490829061173090303360048501611b95565b03925af1801561189057611879575b50825160045491518593926001600160a01b03928316921690823b156103885760405163095ea7b360e01b81526001600160a01b0392909216600483015260248201529083908290604490829084905af1801561060057611864575b506004805460405163108d1d5d60e21b81529460209286926001600160a01b0316918391879183916117d39189913391908501611bb7565b03925af19283156105dc57829361182d575b508190604460018060a01b0360055416916040519687938492633a9bb12760e21b845260048401528760248401525af192831561059857602093610577575050604051908152f35b915091506020813d60201161185c575b8161184a602093836119db565b8101031261035b5751908290816117e5565b3d915061183d565b61186f8380926119db565b6105fc575f61179b565b611887919294505f906119db565b5f92905f61173f565b6040513d5f823e3d90fd5b634e487b7160e01b5f52604160045260245ffd5b506301fb6dd160e01b5f5260045260245ffd5b6118d691503d805f833e61063f81836119db565b5f611625565b600435906001600160a01b038216820361035b57565b35906001600160a01b038216820361035b57565b606435906001600160401b038216820361035b57565b60a090600319011261035b576004356001600160a01b038116810361035b5790602435906044356001600160a01b038116810361035b5790606435906084356001600160401b038116810361035b5790565b608081019081106001600160401b0382111761189b57604052565b61014081019081106001600160401b0382111761189b57604052565b606081019081106001600160401b0382111761189b57604052565b604081019081106001600160401b0382111761189b57604052565b90601f801991011681019081106001600160401b0382111761189b57604052565b51906001600160401b038216820361035b57565b51906001600160a01b038216820361035b57565b81601f8201121561035b578051906001600160401b03821161189b5760405192611a58601f8401601f1916602001856119db565b8284526020838301011161035b57815f9260208093018386015e8301015290565b60208183031261035b578051906001600160401b03821161035b57016101408183031261035b5760405191611aad83611989565b8151835260208201516020840152611ac7604083016119fc565b6040840152611ad8606083016119fc565b6060840152611ae9608083016119fc565b608084015260a082015160a0840152611b0460c08301611a10565b60c0840152611b1560e08301611a10565b60e0840152610100820151801515810361035b576101008401526101208201516001600160401b03811161035b57611b4d9201611a24565b61012082015290565b9081606091031261035b57611b8d6040805192611b72846119a5565b611b7b81611a10565b84526020810151602085015201611a10565b604082015290565b6001600160a01b03918216815291166020820152604081019190915260600190565b81516001600160a01b03908116825260208084015190830152604092830151169181019190915260a08101939291608091906001600160a01b031660608201520152565b9060208282031261035b5781516001600160401b03811161035b57611c209201611a24565b90565b9193926001600160401b036101006020606060409581885260018060a01b0381511682890152828101516080808a015280519384918260e08c015201858a015e5f84848a01015260018060a01b03878201511660a0890152015160c0870152601f80199101168501019516602084015260018060a01b0316910152565b60208183031261035b578051906001600160401b03821161035b57019060808282031261035b5760405191611cd48361196e565b611cdd81611a10565b835260208101516001600160401b03811161035b57606092611d00918301611a24565b6020840152611d1160408201611a10565b60408401520151606082015290565b6001600160401b03811161189b5760051b60200190565b9080601f8301121561035b578151611d4e81611d20565b92611d5c60405194856119db565b81845260208085019260051b82010192831161035b57602001905b828210611d845750505090565b60208091611d9184611a10565b815201910190611d77565b9080601f8301121561035b578151611db381611d20565b92611dc160405194856119db565b81845260208085019260051b82010192831161035b57602001905b828210611de95750505090565b8151815260209182019101611ddc565b9035601e198236030181121561035b5701602081359101916001600160401b03821161035b578160051b3603831361035b57565b916020908281520191905f5b818110611e465750505090565b909192602080600192838060a01b03611e5e886118f2565b168152019401929101611e39565b81835290916001600160fb1b03831161035b5760209260051b80928483013701019056fea2646970667358221220cc331e18277db5f9f144cf12c6e19cca749f7ea6227927ef09876d5c279e95a564736f6c634300081b0033",
    "linkReferences": {}
  },
  "methodIdentifiers": {
    "buyBundleWithErc721(address,uint256,(uint256,address[],uint256[],address[],uint256[],address[],uint256[],uint256[],address),uint64)": "fc6febeb",
    "buyErc1155WithErc721(address,uint256,address,uint256,uint256,uint64)": "5f19ead1",
    "buyErc20WithErc721(address,uint256,address,uint256,uint64)": "e32aa463",
    "buyErc721ForErc721(address,uint256,address,uint256,uint64)": "ebb48d90",
    "buyEthWithErc721(address,uint256,uint256,uint64)": "e52f91ab",
    "payErc721ForBundle(bytes32)": "793d455d",
    "payErc721ForErc1155(bytes32)": "41b81d58",
    "payErc721ForErc20(bytes32)": "6590e21b",
    "payErc721ForErc721(bytes32)": "eff69b5e",
    "payErc721ForEth(bytes32)": "95aefd7c",
    "payEthForErc721(bytes32)": "add4fc3d"
  },
  "id": 154
}