{
  "abi": [
    {
      "type": "constructor",
      "inputs": [
        {
          "name": "_eas",
          "type": "address",
          "internalType": "contract IEAS"
        },
        {
          "name": "_bundleEscrow",
          "type": "address",
          "internalType": "contract TokenBundleEscrowObligation"
        },
        {
          "name": "_bundlePayment",
          "type": "address",
          "internalType": "contract TokenBundlePaymentObligation"
        }
      ],
      "stateMutability": "nonpayable"
    },
    {
      "type": "function",
      "name": "onERC1155BatchReceived",
      "inputs": [
        {
          "name": "",
          "type": "address",
          "internalType": "address"
        },
        {
          "name": "",
          "type": "address",
          "internalType": "address"
        },
        {
          "name": "",
          "type": "uint256[]",
          "internalType": "uint256[]"
        },
        {
          "name": "",
          "type": "uint256[]",
          "internalType": "uint256[]"
        },
        {
          "name": "",
          "type": "bytes",
          "internalType": "bytes"
        }
      ],
      "outputs": [
        {
          "name": "",
          "type": "bytes4",
          "internalType": "bytes4"
        }
      ],
      "stateMutability": "pure"
    },
    {
      "type": "function",
      "name": "onERC1155Received",
      "inputs": [
        {
          "name": "",
          "type": "address",
          "internalType": "address"
        },
        {
          "name": "",
          "type": "address",
          "internalType": "address"
        },
        {
          "name": "",
          "type": "uint256",
          "internalType": "uint256"
        },
        {
          "name": "",
          "type": "uint256",
          "internalType": "uint256"
        },
        {
          "name": "",
          "type": "bytes",
          "internalType": "bytes"
        }
      ],
      "outputs": [
        {
          "name": "",
          "type": "bytes4",
          "internalType": "bytes4"
        }
      ],
      "stateMutability": "pure"
    },
    {
      "type": "function",
      "name": "payBundleForBundle",
      "inputs": [
        {
          "name": "buyAttestation",
          "type": "bytes32",
          "internalType": "bytes32"
        }
      ],
      "outputs": [
        {
          "name": "",
          "type": "bytes32",
          "internalType": "bytes32"
        }
      ],
      "stateMutability": "payable"
    },
    {
      "type": "function",
      "name": "permitAndPayBundle",
      "inputs": [
        {
          "name": "data",
          "type": "tuple",
          "internalType": "struct TokenBundlePaymentObligation.ObligationData",
          "components": [
            {
              "name": "nativeAmount",
              "type": "uint256",
              "internalType": "uint256"
            },
            {
              "name": "erc20Tokens",
              "type": "address[]",
              "internalType": "address[]"
            },
            {
              "name": "erc20Amounts",
              "type": "uint256[]",
              "internalType": "uint256[]"
            },
            {
              "name": "erc721Tokens",
              "type": "address[]",
              "internalType": "address[]"
            },
            {
              "name": "erc721TokenIds",
              "type": "uint256[]",
              "internalType": "uint256[]"
            },
            {
              "name": "erc1155Tokens",
              "type": "address[]",
              "internalType": "address[]"
            },
            {
              "name": "erc1155TokenIds",
              "type": "uint256[]",
              "internalType": "uint256[]"
            },
            {
              "name": "erc1155Amounts",
              "type": "uint256[]",
              "internalType": "uint256[]"
            },
            {
              "name": "payee",
              "type": "address",
              "internalType": "address"
            }
          ]
        },
        {
          "name": "refUID",
          "type": "bytes32",
          "internalType": "bytes32"
        },
        {
          "name": "permits",
          "type": "tuple[]",
          "internalType": "struct TokenBundleBarterUtils.ERC20PermitSignature[]",
          "components": [
            {
              "name": "v",
              "type": "uint8",
              "internalType": "uint8"
            },
            {
              "name": "r",
              "type": "bytes32",
              "internalType": "bytes32"
            },
            {
              "name": "s",
              "type": "bytes32",
              "internalType": "bytes32"
            },
            {
              "name": "deadline",
              "type": "uint256",
              "internalType": "uint256"
            }
          ]
        }
      ],
      "outputs": [
        {
          "name": "",
          "type": "bytes32",
          "internalType": "bytes32"
        }
      ],
      "stateMutability": "payable"
    },
    {
      "type": "function",
      "name": "permitAndPayBundleForBundle",
      "inputs": [
        {
          "name": "buyAttestation",
          "type": "bytes32",
          "internalType": "bytes32"
        },
        {
          "name": "permits",
          "type": "tuple[]",
          "internalType": "struct TokenBundleBarterUtils.ERC20PermitSignature[]",
          "components": [
            {
              "name": "v",
              "type": "uint8",
              "internalType": "uint8"
            },
            {
              "name": "r",
              "type": "bytes32",
              "internalType": "bytes32"
            },
            {
              "name": "s",
              "type": "bytes32",
              "internalType": "bytes32"
            },
            {
              "name": "deadline",
              "type": "uint256",
              "internalType": "uint256"
            }
          ]
        }
      ],
      "outputs": [
        {
          "name": "",
          "type": "bytes32",
          "internalType": "bytes32"
        }
      ],
      "stateMutability": "payable"
    },
    {
      "type": "function",
      "name": "supportsInterface",
      "inputs": [
        {
          "name": "interfaceId",
          "type": "bytes4",
          "internalType": "bytes4"
        }
      ],
      "outputs": [
        {
          "name": "",
          "type": "bool",
          "internalType": "bool"
        }
      ],
      "stateMutability": "pure"
    },
    {
      "type": "error",
      "name": "CouldntCollectEscrow",
      "inputs": []
    },
    {
      "type": "error",
      "name": "InvalidSignatureLength",
      "inputs": []
    }
  ],
  "bytecode": {
    "object": "0x60803460b957601f6117cb38819003918201601f19168301916001600160401b0383118484101760bd5780849260609460405283398101031260b95780516001600160a01b038116919082900360b95760208101516001600160a01b038116919082900360b957604001516001600160a01b038116929083900360b95760018060a01b03195f5416175f5560018060a01b0319600154161760015560018060a01b031960025416176002556040516116f990816100d28239f35b5f80fd5b634e487b7160e01b5f52604160045260245ffdfe6080806040526004361015610012575f80fd5b5f3560e01c90816301ffc9a714610704575080631761cb5a146103b55780631f5c022814610200578063bc197c8114610168578063e8be0b83146100b85763f23a6e611461005e575f80fd5b346100b45760a03660031901126100b45761007761076a565b50610080610780565b506084356001600160401b0381116100b4576100a09036906004016107da565b505060405163f23a6e6160e01b8152602090f35b5f80fd5b60203660031901126100b45760043560245f60018060a01b03815416604051928380926328c44a9960e21b82528660048301525afa91821561015d5761012d602061011d6101208296610133965f9161013b575b500151828082518301019101610db4565b0151848082518301019101610f19565b906114da565b604051908152f35b61015791503d805f833e61014f81836108ca565b810190610c17565b8861010c565b6040513d5f823e3d90fd5b346100b45760a03660031901126100b45761018161076a565b5061018a610780565b506044356001600160401b0381116100b4576101aa9036906004016107aa565b50506064356001600160401b0381116100b4576101cb9036906004016107aa565b50506084356001600160401b0381116100b4576101ec9036906004016107da565b505060405163bc197c8160e01b8152602090f35b60403660031901126100b4576004356024356001600160401b0381116100b45761022e90369060040161073a565b909160245f60018060a01b03815416604051928380926328c44a9960e21b82528660048301525afa90811561015d57610281610120610292936020935f9161013b57500151828082518301019101610db4565b015160208082518301019101610f19565b91602083019182515182036103a65791926040810192905f5b8551805182101561039a578791906001600160a01b03906102cd908390611063565b51166102da828851611063565b519060606102e9848987610860565b0135906102ff6102fa858a88610860565b610870565b91604061031c868b602061031483838d610860565b013599610860565b0135823b156100b45760405163d505accf60e01b81523360048201523060248201526044810195909552606485019190915260ff92909216608484015260a483019490945260c4820152915f90839060e490829084905af191821561015d5760019261038a575b50016102ab565b5f610394916108ca565b88610383565b602061013384866114da565b634be6321b60e01b5f5260045ffd5b60603660031901126100b4576004356001600160401b0381116100b4578060040161012060031983360301126100b4576044356001600160401b0381116100b45761040490369060040161073a565b602484929401926104158482610807565b905082036103a65791926044840192905f5b6104318284610807565b90508110156105255761044e816104488486610807565b9061083c565b356001600160a01b03811691908290036100b4578791610472826104488988610807565b35906060610481848987610860565b0135906104926102fa858a88610860565b9160406104a7868b602061031483838d610860565b0135823b156100b45760405163d505accf60e01b81523360048201523060248201526044810195909552606485019190915260ff92909216608484015260a483019490945260c4820152915f90839060e490829084905af191821561015d57600192610515575b5001610427565b5f61051f916108ca565b8861050e565b5090915061053336836109c4565b61053c90611077565b6002546001600160a01b031661055236846109c4565b9061055c9161127e565b600160a01b6001900360025416928235916040519586948593849363ef6ce33f60e01b855260048501606090528660648601526105999083610af6565b6084860161012090526101848601906105b192610b2a565b906105bc9083610af6565b8583036063190160a48701526105d29291610b69565b6105df6064840183610af6565b8583036063190160c48701526105f59291610b2a565b6106026084840183610af6565b8583036063190160e48701526106189291610b69565b61062560a4840183610af6565b8583036063190161010487015261063c9291610b2a565b61064960c4840183610af6565b858303606319016101248701526106609291610b69565b9060e4830161066e91610af6565b848303606319016101448601526106859291610b69565b906001600160a01b039061069c9061010401610796565b16610164830152336024830152602435604483015203915a94602095f1801561015d575f906106d1575b602090604051908152f35b506020813d6020116106fc575b816106eb602093836108ca565b810103126100b457602090516106c6565b3d91506106de565b346100b45760203660031901126100b4576004359063ffffffff60e01b82168092036100b457602091630271189760e51b148152f35b9181601f840112156100b4578235916001600160401b0383116100b4576020808501948460071b0101116100b457565b600435906001600160a01b03821682036100b457565b602435906001600160a01b03821682036100b457565b35906001600160a01b03821682036100b457565b9181601f840112156100b4578235916001600160401b0383116100b4576020808501948460051b0101116100b457565b9181601f840112156100b4578235916001600160401b0383116100b457602083818601950101116100b457565b903590601e19813603018212156100b457018035906001600160401b0382116100b457602001918160051b360383136100b457565b919081101561084c5760051b0190565b634e487b7160e01b5f52603260045260245ffd5b919081101561084c5760071b0190565b3560ff811681036100b45790565b61012081019081106001600160401b0382111761089a57604052565b634e487b7160e01b5f52604160045260245ffd5b61014081019081106001600160401b0382111761089a57604052565b90601f801991011681019081106001600160401b0382111761089a57604052565b6001600160401b03811161089a5760051b60200190565b9080601f830112156100b4578135610919816108eb565b9261092760405194856108ca565b81845260208085019260051b8201019283116100b457602001905b82821061094f5750505090565b6020809161095c84610796565b815201910190610942565b9080601f830112156100b457813561097e816108eb565b9261098c60405194856108ca565b81845260208085019260051b8201019283116100b457602001905b8282106109b45750505090565b81358152602091820191016109a7565b919091610120818403126100b457604051906109df8261087e565b81938135835260208201356001600160401b0381116100b45781610a04918401610902565b602084015260408201356001600160401b0381116100b45781610a28918401610967565b604084015260608201356001600160401b0381116100b45781610a4c918401610902565b606084015260808201356001600160401b0381116100b45781610a70918401610967565b608084015260a08201356001600160401b0381116100b45781610a94918401610902565b60a084015260c08201356001600160401b0381116100b45781610ab8918401610967565b60c084015260e0820135906001600160401b0382116100b45782610ae66101009492610af194869401610967565b60e086015201610796565b910152565b9035601e19823603018112156100b45701602081359101916001600160401b0382116100b4578160051b360383136100b457565b916020908281520191905f5b818110610b435750505090565b909192602080600192838060a01b03610b5b88610796565b168152019401929101610b36565b81835290916001600160fb1b0383116100b45760209260051b809284830137010190565b51906001600160401b03821682036100b457565b51906001600160a01b03821682036100b457565b519081151582036100b457565b81601f820112156100b4578051906001600160401b03821161089a5760405192610bf6601f8401601f1916602001856108ca565b828452602083830101116100b457815f9260208093018386015e8301015290565b6020818303126100b4578051906001600160401b0382116100b45701610140818303126100b45760405191610c4b836108ae565b8151835260208201516020840152610c6560408301610b8d565b6040840152610c7660608301610b8d565b6060840152610c8760808301610b8d565b608084015260a082015160a0840152610ca260c08301610ba1565b60c0840152610cb360e08301610ba1565b60e0840152610cc56101008301610bb5565b6101008401526101208201516001600160401b0381116100b457610ce99201610bc2565b61012082015290565b9080601f830112156100b4578151610d09816108eb565b92610d1760405194856108ca565b81845260208085019260051b8201019283116100b457602001905b828210610d3f5750505090565b60208091610d4c84610ba1565b815201910190610d32565b9080601f830112156100b4578151610d6e816108eb565b92610d7c60405194856108ca565b81845260208085019260051b8201019283116100b457602001905b828210610da45750505090565b8151815260209182019101610d97565b6020818303126100b4578051906001600160401b0382116100b45701610140818303126100b45760405191610de8836108ae565b610df182610ba1565b835260208201516001600160401b0381116100b45781610e12918401610bc2565b60208401526040820151604084015260608201516001600160401b0381116100b45781610e40918401610cf2565b606084015260808201516001600160401b0381116100b45781610e64918401610d57565b608084015260a08201516001600160401b0381116100b45781610e88918401610cf2565b60a084015260c08201516001600160401b0381116100b45781610eac918401610d57565b60c084015260e08201516001600160401b0381116100b45781610ed0918401610cf2565b60e08401526101008201516001600160401b0381116100b45781610ef5918401610d57565b6101008401526101208201516001600160401b0381116100b457610ce99201610d57565b6020818303126100b4578051906001600160401b0382116100b45701610120818303126100b45760405191610f4d8361087e565b8151835260208201516001600160401b0381116100b45781610f70918401610cf2565b602084015260408201516001600160401b0381116100b45781610f94918401610d57565b604084015260608201516001600160401b0381116100b45781610fb8918401610cf2565b606084015260808201516001600160401b0381116100b45781610fdc918401610d57565b608084015260a08201516001600160401b0381116100b45781611000918401610cf2565b60a084015260c08201516001600160401b0381116100b45781611024918401610d57565b60c084015260e0820151916001600160401b0383116100b45761104f6101009261105a948301610d57565b60e085015201610ba1565b61010082015290565b805182101561084c5760209160051b010190565b905f5b60208301519081518110156111345760206110e25f936110a18460018060a01b0392611063565b51166110b1846040890151611063565b516040516323b872dd60e01b8152336004820152306024820152604481019190915294859283919082906064820190565b03925af1801561015d576110fb575b600191500161107a565b6020823d821161112c575b81611113602093836108ca565b810103126100b457611126600192610bb5565b506110f1565b3d9150611106565b50505f5b606083015180518210156111c8576001600160a01b039061115a908390611063565b51169061116b816080860151611063565b5191803b156100b4576040516323b872dd60e01b815233600482015230602482015260448101939093525f908390606490829084905af191821561015d576001926111b8575b5001611138565b5f6111c2916108ca565b5f6111b1565b50505f5b60a08301518051821015611278576001600160a01b03906111ee908390611063565b5116906111ff8160c0860151611063565b5161120e8260e0870151611063565b51833b156100b45760c45f92836040519687948593637921219560e11b85523360048601523060248601526044850152606484015260a060848401528160a48401525af191821561015d57600192611268575b50016111cc565b5f611272916108ca565b5f611261565b50509050565b91905f5b602084015190815181101561133f5760206112ed5f936112a98460018060a01b0392611063565b51166112b98460408a0151611063565b5160405163095ea7b360e01b81526001600160a01b0388166004820152602481019190915294859283919082906044820190565b03925af1801561015d57611306575b6001915001611282565b6020823d8211611337575b8161131e602093836108ca565b810103126100b457611331600192610bb5565b506112fc565b3d9150611311565b50505f5b606084015180518210156113d6576001600160a01b0390611365908390611063565b511690611376816080870151611063565b5191803b156100b45760405163095ea7b360e01b81526001600160a01b038516600482015260248101939093525f908390604490829084905af191821561015d576001926113c6575b5001611343565b5f6113d0916108ca565b5f6113bf565b505091905f5b60a08301518051821015611464576001600160a01b03906113fe908390611063565b511690813b156100b45760405163a22cb46560e01b81526001600160a01b038616600482015260016024820152915f908390604490829084905af190811561015d5760a092600192611454575b500190506113dc565b5f61145e916108ca565b5f61144b565b5050915050565b90602080835192838152019201905f5b8181106114885750505090565b82516001600160a01b031684526020938401939092019160010161147b565b90602080835192838152019201905f5b8181106114c45750505090565b82518452602093840193909201916001016114b7565b6114e382611077565b6002546114f9906001600160a01b03168361127e565b602060018060a01b036002541692805193604051809581809463ef6ce33f60e01b825260606004830152805160648301526115dd6115c66115af61159861158261156c6115568d88015161012060848b01526101848a019061146b565b60408801518982036063190160a48b01526114a7565b60608701518882036063190160c48a015261146b565b60808601518782036063190160e48901526114a7565b60a08501518682036063190161010488015261146b565b60c0840151858203606319016101248701526114a7565b60e0830151848203606319016101448601526114a7565b610100909101516001600160a01b03166101648301523360248301526044820188905203925af191821561015d575f9261168f575b50600154604051633a9bb12760e21b81526004810192909252602482018390525f908290604490829084906001600160a01b03165af1801561015d57611656575090565b3d805f833e61166581836108ca565b81016020828203126100b45781516001600160401b0381116100b45761168b9201610bc2565b5090565b9091506020813d6020116116bb575b816116ab602093836108ca565b810103126100b45751905f611612565b3d915061169e56fea2646970667358221220c7fd4ba56ac78181c8409619a260d9a11127b67c562e10c03dfb383b5378d82864736f6c634300081b0033",
    "linkReferences": {}
  },
  "methodIdentifiers": {
    "onERC1155BatchReceived(address,address,uint256[],uint256[],bytes)": "bc197c81",
    "onERC1155Received(address,address,uint256,uint256,bytes)": "f23a6e61",
    "payBundleForBundle(bytes32)": "e8be0b83",
    "permitAndPayBundle((uint256,address[],uint256[],address[],uint256[],address[],uint256[],uint256[],address),bytes32,(uint8,bytes32,bytes32,uint256)[])": "1761cb5a",
    "permitAndPayBundleForBundle(bytes32,(uint8,bytes32,bytes32,uint256)[])": "1f5c0228",
    "supportsInterface(bytes4)": "01ffc9a7"
  },
  "id": 132
}