{
  "abi": [
    {
      "type": "constructor",
      "inputs": [
        {
          "name": "_eas",
          "type": "address",
          "internalType": "contract IEAS"
        },
        {
          "name": "_bundleEscrow",
          "type": "address",
          "internalType": "contract TokenBundleEscrowObligation"
        },
        {
          "name": "_bundlePayment",
          "type": "address",
          "internalType": "contract TokenBundlePaymentObligation"
        }
      ],
      "stateMutability": "nonpayable"
    },
    {
      "type": "function",
      "name": "buyBundleForBundle",
      "inputs": [
        {
          "name": "bidBundle",
          "type": "tuple",
          "internalType": "struct TokenBundleEscrowObligation.ObligationData",
          "components": [
            {
              "name": "arbiter",
              "type": "address",
              "internalType": "address"
            },
            {
              "name": "demand",
              "type": "bytes",
              "internalType": "bytes"
            },
            {
              "name": "nativeAmount",
              "type": "uint256",
              "internalType": "uint256"
            },
            {
              "name": "erc20Tokens",
              "type": "address[]",
              "internalType": "address[]"
            },
            {
              "name": "erc20Amounts",
              "type": "uint256[]",
              "internalType": "uint256[]"
            },
            {
              "name": "erc721Tokens",
              "type": "address[]",
              "internalType": "address[]"
            },
            {
              "name": "erc721TokenIds",
              "type": "uint256[]",
              "internalType": "uint256[]"
            },
            {
              "name": "erc1155Tokens",
              "type": "address[]",
              "internalType": "address[]"
            },
            {
              "name": "erc1155TokenIds",
              "type": "uint256[]",
              "internalType": "uint256[]"
            },
            {
              "name": "erc1155Amounts",
              "type": "uint256[]",
              "internalType": "uint256[]"
            }
          ]
        },
        {
          "name": "askBundle",
          "type": "tuple",
          "internalType": "struct TokenBundlePaymentObligation.ObligationData",
          "components": [
            {
              "name": "nativeAmount",
              "type": "uint256",
              "internalType": "uint256"
            },
            {
              "name": "erc20Tokens",
              "type": "address[]",
              "internalType": "address[]"
            },
            {
              "name": "erc20Amounts",
              "type": "uint256[]",
              "internalType": "uint256[]"
            },
            {
              "name": "erc721Tokens",
              "type": "address[]",
              "internalType": "address[]"
            },
            {
              "name": "erc721TokenIds",
              "type": "uint256[]",
              "internalType": "uint256[]"
            },
            {
              "name": "erc1155Tokens",
              "type": "address[]",
              "internalType": "address[]"
            },
            {
              "name": "erc1155TokenIds",
              "type": "uint256[]",
              "internalType": "uint256[]"
            },
            {
              "name": "erc1155Amounts",
              "type": "uint256[]",
              "internalType": "uint256[]"
            },
            {
              "name": "payee",
              "type": "address",
              "internalType": "address"
            }
          ]
        },
        {
          "name": "expiration",
          "type": "uint64",
          "internalType": "uint64"
        }
      ],
      "outputs": [
        {
          "name": "",
          "type": "bytes32",
          "internalType": "bytes32"
        }
      ],
      "stateMutability": "payable"
    },
    {
      "type": "function",
      "name": "onERC1155BatchReceived",
      "inputs": [
        {
          "name": "",
          "type": "address",
          "internalType": "address"
        },
        {
          "name": "",
          "type": "address",
          "internalType": "address"
        },
        {
          "name": "",
          "type": "uint256[]",
          "internalType": "uint256[]"
        },
        {
          "name": "",
          "type": "uint256[]",
          "internalType": "uint256[]"
        },
        {
          "name": "",
          "type": "bytes",
          "internalType": "bytes"
        }
      ],
      "outputs": [
        {
          "name": "",
          "type": "bytes4",
          "internalType": "bytes4"
        }
      ],
      "stateMutability": "pure"
    },
    {
      "type": "function",
      "name": "onERC1155Received",
      "inputs": [
        {
          "name": "",
          "type": "address",
          "internalType": "address"
        },
        {
          "name": "",
          "type": "address",
          "internalType": "address"
        },
        {
          "name": "",
          "type": "uint256",
          "internalType": "uint256"
        },
        {
          "name": "",
          "type": "uint256",
          "internalType": "uint256"
        },
        {
          "name": "",
          "type": "bytes",
          "internalType": "bytes"
        }
      ],
      "outputs": [
        {
          "name": "",
          "type": "bytes4",
          "internalType": "bytes4"
        }
      ],
      "stateMutability": "pure"
    },
    {
      "type": "function",
      "name": "payBundleForBundle",
      "inputs": [
        {
          "name": "buyAttestation",
          "type": "bytes32",
          "internalType": "bytes32"
        }
      ],
      "outputs": [
        {
          "name": "",
          "type": "bytes32",
          "internalType": "bytes32"
        }
      ],
      "stateMutability": "payable"
    },
    {
      "type": "function",
      "name": "permitAndEscrowBundle",
      "inputs": [
        {
          "name": "data",
          "type": "tuple",
          "internalType": "struct TokenBundleEscrowObligation.ObligationData",
          "components": [
            {
              "name": "arbiter",
              "type": "address",
              "internalType": "address"
            },
            {
              "name": "demand",
              "type": "bytes",
              "internalType": "bytes"
            },
            {
              "name": "nativeAmount",
              "type": "uint256",
              "internalType": "uint256"
            },
            {
              "name": "erc20Tokens",
              "type": "address[]",
              "internalType": "address[]"
            },
            {
              "name": "erc20Amounts",
              "type": "uint256[]",
              "internalType": "uint256[]"
            },
            {
              "name": "erc721Tokens",
              "type": "address[]",
              "internalType": "address[]"
            },
            {
              "name": "erc721TokenIds",
              "type": "uint256[]",
              "internalType": "uint256[]"
            },
            {
              "name": "erc1155Tokens",
              "type": "address[]",
              "internalType": "address[]"
            },
            {
              "name": "erc1155TokenIds",
              "type": "uint256[]",
              "internalType": "uint256[]"
            },
            {
              "name": "erc1155Amounts",
              "type": "uint256[]",
              "internalType": "uint256[]"
            }
          ]
        },
        {
          "name": "expiration",
          "type": "uint64",
          "internalType": "uint64"
        },
        {
          "name": "permits",
          "type": "tuple[]",
          "internalType": "struct TokenBundleBarterUtils.ERC20PermitSignature[]",
          "components": [
            {
              "name": "v",
              "type": "uint8",
              "internalType": "uint8"
            },
            {
              "name": "r",
              "type": "bytes32",
              "internalType": "bytes32"
            },
            {
              "name": "s",
              "type": "bytes32",
              "internalType": "bytes32"
            },
            {
              "name": "deadline",
              "type": "uint256",
              "internalType": "uint256"
            }
          ]
        }
      ],
      "outputs": [
        {
          "name": "",
          "type": "bytes32",
          "internalType": "bytes32"
        }
      ],
      "stateMutability": "payable"
    },
    {
      "type": "function",
      "name": "permitAndEscrowBundleForBundle",
      "inputs": [
        {
          "name": "bidBundle",
          "type": "tuple",
          "internalType": "struct TokenBundleEscrowObligation.ObligationData",
          "components": [
            {
              "name": "arbiter",
              "type": "address",
              "internalType": "address"
            },
            {
              "name": "demand",
              "type": "bytes",
              "internalType": "bytes"
            },
            {
              "name": "nativeAmount",
              "type": "uint256",
              "internalType": "uint256"
            },
            {
              "name": "erc20Tokens",
              "type": "address[]",
              "internalType": "address[]"
            },
            {
              "name": "erc20Amounts",
              "type": "uint256[]",
              "internalType": "uint256[]"
            },
            {
              "name": "erc721Tokens",
              "type": "address[]",
              "internalType": "address[]"
            },
            {
              "name": "erc721TokenIds",
              "type": "uint256[]",
              "internalType": "uint256[]"
            },
            {
              "name": "erc1155Tokens",
              "type": "address[]",
              "internalType": "address[]"
            },
            {
              "name": "erc1155TokenIds",
              "type": "uint256[]",
              "internalType": "uint256[]"
            },
            {
              "name": "erc1155Amounts",
              "type": "uint256[]",
              "internalType": "uint256[]"
            }
          ]
        },
        {
          "name": "askBundle",
          "type": "tuple",
          "internalType": "struct TokenBundlePaymentObligation.ObligationData",
          "components": [
            {
              "name": "nativeAmount",
              "type": "uint256",
              "internalType": "uint256"
            },
            {
              "name": "erc20Tokens",
              "type": "address[]",
              "internalType": "address[]"
            },
            {
              "name": "erc20Amounts",
              "type": "uint256[]",
              "internalType": "uint256[]"
            },
            {
              "name": "erc721Tokens",
              "type": "address[]",
              "internalType": "address[]"
            },
            {
              "name": "erc721TokenIds",
              "type": "uint256[]",
              "internalType": "uint256[]"
            },
            {
              "name": "erc1155Tokens",
              "type": "address[]",
              "internalType": "address[]"
            },
            {
              "name": "erc1155TokenIds",
              "type": "uint256[]",
              "internalType": "uint256[]"
            },
            {
              "name": "erc1155Amounts",
              "type": "uint256[]",
              "internalType": "uint256[]"
            },
            {
              "name": "payee",
              "type": "address",
              "internalType": "address"
            }
          ]
        },
        {
          "name": "expiration",
          "type": "uint64",
          "internalType": "uint64"
        },
        {
          "name": "permits",
          "type": "tuple[]",
          "internalType": "struct TokenBundleBarterUtils.ERC20PermitSignature[]",
          "components": [
            {
              "name": "v",
              "type": "uint8",
              "internalType": "uint8"
            },
            {
              "name": "r",
              "type": "bytes32",
              "internalType": "bytes32"
            },
            {
              "name": "s",
              "type": "bytes32",
              "internalType": "bytes32"
            },
            {
              "name": "deadline",
              "type": "uint256",
              "internalType": "uint256"
            }
          ]
        }
      ],
      "outputs": [
        {
          "name": "",
          "type": "bytes32",
          "internalType": "bytes32"
        }
      ],
      "stateMutability": "payable"
    },
    {
      "type": "function",
      "name": "permitAndPayBundle",
      "inputs": [
        {
          "name": "data",
          "type": "tuple",
          "internalType": "struct TokenBundlePaymentObligation.ObligationData",
          "components": [
            {
              "name": "nativeAmount",
              "type": "uint256",
              "internalType": "uint256"
            },
            {
              "name": "erc20Tokens",
              "type": "address[]",
              "internalType": "address[]"
            },
            {
              "name": "erc20Amounts",
              "type": "uint256[]",
              "internalType": "uint256[]"
            },
            {
              "name": "erc721Tokens",
              "type": "address[]",
              "internalType": "address[]"
            },
            {
              "name": "erc721TokenIds",
              "type": "uint256[]",
              "internalType": "uint256[]"
            },
            {
              "name": "erc1155Tokens",
              "type": "address[]",
              "internalType": "address[]"
            },
            {
              "name": "erc1155TokenIds",
              "type": "uint256[]",
              "internalType": "uint256[]"
            },
            {
              "name": "erc1155Amounts",
              "type": "uint256[]",
              "internalType": "uint256[]"
            },
            {
              "name": "payee",
              "type": "address",
              "internalType": "address"
            }
          ]
        },
        {
          "name": "refUID",
          "type": "bytes32",
          "internalType": "bytes32"
        },
        {
          "name": "permits",
          "type": "tuple[]",
          "internalType": "struct TokenBundleBarterUtils.ERC20PermitSignature[]",
          "components": [
            {
              "name": "v",
              "type": "uint8",
              "internalType": "uint8"
            },
            {
              "name": "r",
              "type": "bytes32",
              "internalType": "bytes32"
            },
            {
              "name": "s",
              "type": "bytes32",
              "internalType": "bytes32"
            },
            {
              "name": "deadline",
              "type": "uint256",
              "internalType": "uint256"
            }
          ]
        }
      ],
      "outputs": [
        {
          "name": "",
          "type": "bytes32",
          "internalType": "bytes32"
        }
      ],
      "stateMutability": "payable"
    },
    {
      "type": "function",
      "name": "permitAndPayBundleForBundle",
      "inputs": [
        {
          "name": "buyAttestation",
          "type": "bytes32",
          "internalType": "bytes32"
        },
        {
          "name": "permits",
          "type": "tuple[]",
          "internalType": "struct TokenBundleBarterUtils.ERC20PermitSignature[]",
          "components": [
            {
              "name": "v",
              "type": "uint8",
              "internalType": "uint8"
            },
            {
              "name": "r",
              "type": "bytes32",
              "internalType": "bytes32"
            },
            {
              "name": "s",
              "type": "bytes32",
              "internalType": "bytes32"
            },
            {
              "name": "deadline",
              "type": "uint256",
              "internalType": "uint256"
            }
          ]
        }
      ],
      "outputs": [
        {
          "name": "",
          "type": "bytes32",
          "internalType": "bytes32"
        }
      ],
      "stateMutability": "payable"
    },
    {
      "type": "function",
      "name": "supportsInterface",
      "inputs": [
        {
          "name": "interfaceId",
          "type": "bytes4",
          "internalType": "bytes4"
        }
      ],
      "outputs": [
        {
          "name": "",
          "type": "bool",
          "internalType": "bool"
        }
      ],
      "stateMutability": "pure"
    },
    {
      "type": "error",
      "name": "CouldntCollectEscrow",
      "inputs": []
    },
    {
      "type": "error",
      "name": "InvalidSignatureLength",
      "inputs": []
    }
  ],
  "bytecode": {
    "object": "0x60803460b957601f6124c238819003918201601f19168301916001600160401b0383118484101760bd5780849260609460405283398101031260b95780516001600160a01b038116919082900360b95760208101516001600160a01b038116919082900360b957604001516001600160a01b038116929083900360b95760018060a01b03195f5416175f5560018060a01b0319600154161760015560018060a01b031960025416176002556040516123f090816100d28239f35b5f80fd5b634e487b7160e01b5f52604160045260245ffdfe6080806040526004361015610012575f80fd5b5f3560e01c90816301ffc9a714610c1d5750806307cadb2c14610aaa5780631761cb5a146107ca5780631f5c022814610656578063304b6b82146105d9578063319b52b014610221578063bc197c8114610189578063e8be0b83146100d95763f23a6e611461007f575f80fd5b346100d55760a03660031901126100d557610098610c99565b506100a1610caf565b506084356001600160401b0381116100d5576100c1903690600401610d09565b505060405163f23a6e6160e01b8152602090f35b5f80fd5b60203660031901126100d55760043560245f60018060a01b03815416604051928380926328c44a9960e21b82528660048301525afa91821561017e5761014e602061013e6101208296610154965f9161015c575b5001518280825183010191016114cf565b0151848082518301019101611634565b90611f0b565b604051908152f35b61017891503d805f833e6101708183610e0d565b810190611332565b8861012d565b6040513d5f823e3d90fd5b346100d55760a03660031901126100d5576101a2610c99565b506101ab610caf565b506044356001600160401b0381116100d5576101cb903690600401610cd9565b50506064356001600160401b0381116100d5576101ec903690600401610cd9565b50506084356001600160401b0381116100d55761020d903690600401610d09565b505060405163bc197c8160e01b8152602090f35b60603660031901126100d5576004356001600160401b0381116100d5573681900390600481016101406003198401126100d5576024356001600160401b0381168091036100d5576044356001600160401b0381116100d557610287903690600401610c69565b91909460648501906102998286610d36565b905084036105ca5791946084810192905f5b6102b58488610d36565b9050811015610395578089916102e56102e06102d1888c610d36565b6001600160a01b039491610d6b565b610d8f565b166102fa826102f4898c610d36565b90610d6b565b35906060610309848b87610da3565b01359061031f61031a858c88610da3565b610db3565b91604061033c868d602061033483838d610da3565b013599610da3565b0135823b156100d5575f9461036b8692604051998a978896879563d505accf60e01b8752303360048901610e2e565b03925af191821561017e57600192610385575b50016102ab565b5f61038f91610e0d565b8a61037e565b50858385896103ac6103a73686610f63565b612030565b6001546103cb906001600160a01b03166103c63687610f63565b612208565b6001546040516333e13a0b60e21b815260606004820152966001600160a01b0391821694604488013593909290919061040388610cc5565b1660648a0152602488013590602219018112156100d557870193602460048601359501976001600160401b0386116100d55785360389136100d55761055c886101246105546105336105138f9d60209f8f9d998e6104c38f829f906101c461056f9f6104bc936104f599826104a4936104d59b61014060848c0152816101a48c0152868b01375f85828b010152601f801991011688019460a4890152611220565b91909260631982888303010160c48801520191611254565b928a611220565b9160e460631982860301910152611293565b6104e260a48a0188611220565b8d8303606319016101048f015290611254565b61050260c4890187611220565b8c830360631901878e015290611293565b61052060e4880186611220565b8b8303606319016101448d015290611254565b610541610104870185611220565b8a8303606319016101648c015290611293565b930190611220565b8583036063190161018487015290611293565b90602483015233604483015203925af1801561017e575f90610597575b602090604051908152f35b506020813d6020116105c2575b816105b160209383610e0d565b810103126100d5576020905161058c565b3d91506105a4565b634be6321b60e01b5f5260045ffd5b60603660031901126100d5576004356001600160401b0381116100d55761014060031982360301126100d5576024356001600160401b0381116100d55761012060031982360301126100d5576020916101549161065061064561063a610c53565b933690600401610f63565b9136906004016110f3565b906118b5565b60403660031901126100d5576004356024356001600160401b0381116100d557610684903690600401610c69565b909160245f60018060a01b03815416604051928380926328c44a9960e21b82528660048301525afa90811561017e576106d76101206106e8936020935f9161015c575001518280825183010191016114cf565b015160208082518301019101611634565b91602083019182515182036105ca5791926040810192905f5b855180518210156107be578791906001600160a01b039061072390839061177e565b511661073082885161177e565b5190606061073f848987610da3565b01359061075061031a858a88610da3565b916040610765868b602061033483838d610da3565b0135823b156100d5575f946107948692604051998a978896879563d505accf60e01b8752303360048901610e2e565b03925af191821561017e576001926107ae575b5001610701565b5f6107b891610e0d565b886107a7565b60206101548486611f0b565b60603660031901126100d5576004356001600160401b0381116100d557806004019061012060031982360301126100d5576044356001600160401b0381116100d55761081a903690600401610c69565b602483949294019261082c8484610d36565b905082036105ca579260448401905f5b6108468286610d36565b90508110156108ff578087916108626102e06102d1868a610d36565b16610871826102f4878a610d36565b35906060610880848987610da3565b01359061089161031a858a88610da3565b9160406108a6868b602061033483838d610da3565b0135823b156100d5575f946108d58692604051998a978896879563d505accf60e01b8752303360048901610e2e565b03925af191821561017e576001926108ef575b500161083c565b5f6108f991610e0d565b886108e8565b8583868461090d36836110f3565b61091690611b11565b6002546001600160a01b031661092c36846110f3565b9061093691611d1e565b600160a01b6001900360025416928235916040519586948593849363ef6ce33f60e01b855260048501606090528660648601526109739083611220565b60848601610120905261018486019061098b92611254565b906109969083611220565b8583036063190160a48701526109ac9291611293565b6109b96064840183611220565b8583036063190160c48701526109cf9291611254565b6109dc6084840183611220565b8583036063190160e48701526109f29291611293565b6109ff60a4840183611220565b85830360631901610104870152610a169291611254565b610a2360c4840183611220565b85830360631901610124870152610a3a9291611293565b9060e48301610a4891611220565b84830360631901610144860152610a5f9291611293565b906001600160a01b0390610a769061010401610cc5565b16610164830152336024830152602435604483015203915a94602095f1801561017e575f9061059757602090604051908152f35b60803660031901126100d5576004356001600160401b0381116100d557806004019061014060031982360301126100d557602435916001600160401b0383116100d55761012060031984360301126100d557610b04610c53565b926064356001600160401b0381116100d557610b24903690600401610c69565b9190946064850190610b368286610d36565b905084036105ca579194608401915f5b610b508387610d36565b9050811015610c0957808891610b6c6102e06102d1878b610d36565b16610b7b826102f4888b610d36565b35906060610b8a848a87610da3565b013590610b9b61031a858b88610da3565b916040610bb0868c602061033483838d610da3565b0135823b156100d5575f94610bdf8692604051998a978896879563d505accf60e01b8752303360048901610e2e565b03925af191821561017e57600192610bf9575b5001610b46565b5f610c0391610e0d565b89610bf2565b60206101548389610650610645368c610f63565b346100d55760203660031901126100d5576004359063ffffffff60e01b82168092036100d557602091630271189760e51b148152f35b604435906001600160401b03821682036100d557565b9181601f840112156100d5578235916001600160401b0383116100d5576020808501948460071b0101116100d557565b600435906001600160a01b03821682036100d557565b602435906001600160a01b03821682036100d557565b35906001600160a01b03821682036100d557565b9181601f840112156100d5578235916001600160401b0383116100d5576020808501948460051b0101116100d557565b9181601f840112156100d5578235916001600160401b0383116100d557602083818601950101116100d557565b903590601e19813603018212156100d557018035906001600160401b0382116100d557602001918160051b360383136100d557565b9190811015610d7b5760051b0190565b634e487b7160e01b5f52603260045260245ffd5b356001600160a01b03811681036100d55790565b9190811015610d7b5760071b0190565b3560ff811681036100d55790565b61014081019081106001600160401b03821117610ddd57604052565b634e487b7160e01b5f52604160045260245ffd5b61012081019081106001600160401b03821117610ddd57604052565b90601f801991011681019081106001600160401b03821117610ddd57604052565b9360c095919897969360ff9360e087019a60018060a01b0316875260018060a01b031660208701526040860152606085015216608083015260a08201520152565b6001600160401b038111610ddd57601f01601f191660200190565b6001600160401b038111610ddd5760051b60200190565b9080601f830112156100d5578135610eb881610e8a565b92610ec66040519485610e0d565b81845260208085019260051b8201019283116100d557602001905b828210610eee5750505090565b60208091610efb84610cc5565b815201910190610ee1565b9080601f830112156100d5578135610f1d81610e8a565b92610f2b6040519485610e0d565b81845260208085019260051b8201019283116100d557602001905b828210610f535750505090565b8135815260209182019101610f46565b9190610140838203126100d55760405190610f7d82610dc1565b8193610f8881610cc5565b835260208101356001600160401b0381116100d557810182601f820112156100d5578035610fb581610e6f565b91610fc36040519384610e0d565b81835284602083830101116100d557815f926020809301838601378301015260208401526040810135604084015260608101356001600160401b0381116100d55782611010918301610ea1565b606084015260808101356001600160401b0381116100d55782611034918301610f06565b608084015260a08101356001600160401b0381116100d55782611058918301610ea1565b60a084015260c08101356001600160401b0381116100d5578261107c918301610f06565b60c084015260e08101356001600160401b0381116100d557826110a0918301610ea1565b60e08401526101008101356001600160401b0381116100d557826110c5918301610f06565b610100840152610120810135916001600160401b0383116100d557610120926110ee9201610f06565b910152565b919091610120818403126100d5576040519061110e82610df1565b81938135835260208201356001600160401b0381116100d55781611133918401610ea1565b602084015260408201356001600160401b0381116100d55781611157918401610f06565b604084015260608201356001600160401b0381116100d5578161117b918401610ea1565b606084015260808201356001600160401b0381116100d5578161119f918401610f06565b608084015260a08201356001600160401b0381116100d557816111c3918401610ea1565b60a084015260c08201356001600160401b0381116100d557816111e7918401610f06565b60c084015260e0820135906001600160401b0382116100d5578261121561010094926110ee94869401610f06565b60e086015201610cc5565b9035601e19823603018112156100d55701602081359101916001600160401b0382116100d5578160051b360383136100d557565b916020908281520191905f5b81811061126d5750505090565b909192602080600192838060a01b0361128588610cc5565b168152019401929101611260565b81835290916001600160fb1b0383116100d55760209260051b809284830137010190565b51906001600160401b03821682036100d557565b51906001600160a01b03821682036100d557565b519081151582036100d557565b81601f820112156100d55780519061130382610e6f565b926113116040519485610e0d565b828452602083830101116100d557815f9260208093018386015e8301015290565b6020818303126100d5578051906001600160401b0382116100d55701610140818303126100d5576040519161136683610dc1565b8151835260208201516020840152611380604083016112b7565b6040840152611391606083016112b7565b60608401526113a2608083016112b7565b608084015260a082015160a08401526113bd60c083016112cb565b60c08401526113ce60e083016112cb565b60e08401526113e061010083016112df565b6101008401526101208201516001600160401b0381116100d55761140492016112ec565b61012082015290565b9080601f830112156100d557815161142481610e8a565b926114326040519485610e0d565b81845260208085019260051b8201019283116100d557602001905b82821061145a5750505090565b60208091611467846112cb565b81520191019061144d565b9080601f830112156100d557815161148981610e8a565b926114976040519485610e0d565b81845260208085019260051b8201019283116100d557602001905b8282106114bf5750505090565b81518152602091820191016114b2565b6020818303126100d5578051906001600160401b0382116100d55701610140818303126100d5576040519161150383610dc1565b61150c826112cb565b835260208201516001600160401b0381116100d5578161152d9184016112ec565b60208401526040820151604084015260608201516001600160401b0381116100d5578161155b91840161140d565b606084015260808201516001600160401b0381116100d5578161157f918401611472565b608084015260a08201516001600160401b0381116100d557816115a391840161140d565b60a084015260c08201516001600160401b0381116100d557816115c7918401611472565b60c084015260e08201516001600160401b0381116100d557816115eb91840161140d565b60e08401526101008201516001600160401b0381116100d55781611610918401611472565b6101008401526101208201516001600160401b0381116100d5576114049201611472565b6020818303126100d5578051906001600160401b0382116100d55701610120818303126100d5576040519161166883610df1565b8151835260208201516001600160401b0381116100d5578161168b91840161140d565b602084015260408201516001600160401b0381116100d557816116af918401611472565b604084015260608201516001600160401b0381116100d557816116d391840161140d565b606084015260808201516001600160401b0381116100d557816116f7918401611472565b608084015260a08201516001600160401b0381116100d5578161171b91840161140d565b60a084015260c08201516001600160401b0381116100d5578161173f918401611472565b60c084015260e0820151916001600160401b0383116100d55761176a61010092611775948301611472565b60e0850152016112cb565b61010082015290565b8051821015610d7b5760209160051b010190565b90602080835192838152019201905f5b8181106117af5750505090565b82516001600160a01b03168452602093840193909201916001016117a2565b90602080835192838152019201905f5b8181106117eb5750505090565b82518452602093840193909201916001016117de565b90815181526101006118a261189061187e61186c61185a61184861183660208a015161012060208b01526101208a0190611792565b60408a015189820360408b01526117ce565b606089015188820360608a0152611792565b608088015187820360808901526117ce565b60a087015186820360a0880152611792565b60c086015185820360c08701526117ce565b60e085015184820360e08601526117ce565b928101516001600160a01b031691015290565b6118be81612030565b6001546118d4906001600160a01b031682612208565b6001546040828101805160025483516020808201526001600160a01b03958616979295909491169291849161190c9190830190611801565b03601f198101845261191e9084610e0d565b519560608501519460808101519060a081015160c082015160e083015191610100840151936101200151946040519761195689610dc1565b885260208801988952604088019c8d52606088019a8b526080880190815260a0880191825260c0880192835260e08801938452610100880194855261012088019586526040519c8d9b8c9a8b9a6333e13a0b60e21b8c5260048c0160609052600160a01b6001900390511660648c01525160848b0161014090528a815191826101a4819301526020016101c48d015e808b016101c4015f9052601f1990601f01168a01915160a48b015251906063198a82036101c4010160c48b01526101c401611a1f91611792565b90518882036063190160e48a0152611a3791906117ce565b905187820360631901610104890152611a509190611792565b905186820360631901610124880152611a6991906117ce565b905185820360631901610144870152611a829190611792565b905184820360631901610164860152611a9b91906117ce565b905183820360631901610184850152611ab491906117ce565b906001600160401b0316602483015233604483015203915a94602095f190811561017e575f91611ae2575090565b90506020813d602011611b09575b81611afd60209383610e0d565b810103126100d5575190565b3d9150611af0565b905f5b6020830151908151811015611bce576020611b7c5f93611b3b8460018060a01b039261177e565b5116611b4b84604089015161177e565b516040516323b872dd60e01b8152336004820152306024820152604481019190915294859283919082906064820190565b03925af1801561017e57611b95575b6001915001611b14565b6020823d8211611bc6575b81611bad60209383610e0d565b810103126100d557611bc06001926112df565b50611b8b565b3d9150611ba0565b50505f5b60608301518051821015611c62576001600160a01b0390611bf490839061177e565b511690611c0581608086015161177e565b5191803b156100d5576040516323b872dd60e01b815233600482015230602482015260448101939093525f908390606490829084905af191821561017e57600192611c52575b5001611bd2565b5f611c5c91610e0d565b5f611c4b565b50505f5b60a08301518051821015611d18576001600160a01b0390611c8890839061177e565b511690611c998160c086015161177e565b51611ca88260e087015161177e565b51833b156100d557604051637921219560e11b81523360048201523060248201526044810192909252606482015260a060848201525f60a482018190529092839060c490829084905af191821561017e57600192611d08575b5001611c66565b5f611d1291610e0d565b5f611d01565b50509050565b91905f5b6020840151908151811015611ddf576020611d8d5f93611d498460018060a01b039261177e565b5116611d598460408a015161177e565b5160405163095ea7b360e01b81526001600160a01b0388166004820152602481019190915294859283919082906044820190565b03925af1801561017e57611da6575b6001915001611d22565b6020823d8211611dd7575b81611dbe60209383610e0d565b810103126100d557611dd16001926112df565b50611d9c565b3d9150611db1565b50505f5b60608401518051821015611e76576001600160a01b0390611e0590839061177e565b511690611e1681608087015161177e565b5191803b156100d55760405163095ea7b360e01b81526001600160a01b038516600482015260248101939093525f908390604490829084905af191821561017e57600192611e66575b5001611de3565b5f611e7091610e0d565b5f611e5f565b505091905f5b60a08301518051821015611f04576001600160a01b0390611e9e90839061177e565b511690813b156100d55760405163a22cb46560e01b81526001600160a01b038616600482015260016024820152915f908390604490829084905af190811561017e5760a092600192611ef4575b50019050611e7c565b5f611efe91610e0d565b5f611eeb565b5050915050565b611f1482611b11565b600254611f2a906001600160a01b031683611d1e565b6020611f6160018060a01b036002541684519460405195868094819363ef6ce33f60e01b8352606060048401526064830190611801565b33602483015287604483015203925af191821561017e575f92611ffc575b50600154604051633a9bb12760e21b81526004810192909252602482018390525f908290604490829084906001600160a01b03165af1801561017e57611fc3575090565b3d805f833e611fd28183610e0d565b81016020828203126100d55781516001600160401b0381116100d557611ff892016112ec565b5090565b9091506020813d602011612028575b8161201860209383610e0d565b810103126100d55751905f611f7f565b3d915061200b565b905f5b60608301519081518110156120bc57602061206a5f9361205a8460018060a01b039261177e565b5116611b4b84608089015161177e565b03925af1801561017e57612083575b6001915001612033565b6020823d82116120b4575b8161209b60209383610e0d565b810103126100d5576120ae6001926112df565b50612079565b3d915061208e565b50505f5b60a08301518051821015612150576001600160a01b03906120e290839061177e565b5116906120f38160c086015161177e565b5191803b156100d5576040516323b872dd60e01b815233600482015230602482015260448101939093525f908390606490829084905af191821561017e57600192612140575b50016120c0565b5f61214a91610e0d565b5f612139565b50505f5b60e08301518051821015611d18576001600160a01b039061217690839061177e565b5116906121888161010086015161177e565b516121988261012087015161177e565b51833b156100d557604051637921219560e11b81523360048201523060248201526044810192909252606482015260a060848201525f60a482018190529092839060c490829084905af191821561017e576001926121f8575b5001612154565b5f61220291610e0d565b5f6121f1565b91905f5b60608401519081518110156122955760206122435f936122338460018060a01b039261177e565b5116611d598460808a015161177e565b03925af1801561017e5761225c575b600191500161220c565b6020823d821161228d575b8161227460209383610e0d565b810103126100d5576122876001926112df565b50612252565b3d9150612267565b50505f5b60a0840151805182101561232c576001600160a01b03906122bb90839061177e565b5116906122cc8160c087015161177e565b5191803b156100d55760405163095ea7b360e01b81526001600160a01b038516600482015260248101939093525f908390604490829084905af191821561017e5760019261231c575b5001612299565b5f61232691610e0d565b5f612315565b505091905f5b60e08301518051821015611f04576001600160a01b039061235490839061177e565b511690813b156100d55760405163a22cb46560e01b81526001600160a01b038616600482015260016024820152915f908390604490829084905af190811561017e5760e0926001926123aa575b50019050612332565b5f6123b491610e0d565b5f6123a156fea2646970667358221220487d9a2a01b0c194da42191c494ab7556ffa6f7cfedf9c0646572f088185873d64736f6c634300081b0033",
    "linkReferences": {}
  },
  "methodIdentifiers": {
    "buyBundleForBundle((address,bytes,uint256,address[],uint256[],address[],uint256[],address[],uint256[],uint256[]),(uint256,address[],uint256[],address[],uint256[],address[],uint256[],uint256[],address),uint64)": "304b6b82",
    "onERC1155BatchReceived(address,address,uint256[],uint256[],bytes)": "bc197c81",
    "onERC1155Received(address,address,uint256,uint256,bytes)": "f23a6e61",
    "payBundleForBundle(bytes32)": "e8be0b83",
    "permitAndEscrowBundle((address,bytes,uint256,address[],uint256[],address[],uint256[],address[],uint256[],uint256[]),uint64,(uint8,bytes32,bytes32,uint256)[])": "319b52b0",
    "permitAndEscrowBundleForBundle((address,bytes,uint256,address[],uint256[],address[],uint256[],address[],uint256[],uint256[]),(uint256,address[],uint256[],address[],uint256[],address[],uint256[],uint256[],address),uint64,(uint8,bytes32,bytes32,uint256)[])": "07cadb2c",
    "permitAndPayBundle((uint256,address[],uint256[],address[],uint256[],address[],uint256[],uint256[],address),bytes32,(uint8,bytes32,bytes32,uint256)[])": "1761cb5a",
    "permitAndPayBundleForBundle(bytes32,(uint8,bytes32,bytes32,uint256)[])": "1f5c0228",
    "supportsInterface(bytes4)": "01ffc9a7"
  },
  "id": 156
}