{
  "abi": [
    {
      "type": "function",
      "name": "MAX_ARBITERS",
      "inputs": [],
      "outputs": [
        {
          "name": "",
          "type": "uint256",
          "internalType": "uint256"
        }
      ],
      "stateMutability": "view"
    },
    {
      "type": "function",
      "name": "check",
      "inputs": [
        {
          "name": "fulfillment",
          "type": "tuple",
          "internalType": "struct Attestation",
          "components": [
            {
              "name": "uid",
              "type": "bytes32",
              "internalType": "bytes32"
            },
            {
              "name": "schema",
              "type": "bytes32",
              "internalType": "bytes32"
            },
            {
              "name": "time",
              "type": "uint64",
              "internalType": "uint64"
            },
            {
              "name": "expirationTime",
              "type": "uint64",
              "internalType": "uint64"
            },
            {
              "name": "revocationTime",
              "type": "uint64",
              "internalType": "uint64"
            },
            {
              "name": "refUID",
              "type": "bytes32",
              "internalType": "bytes32"
            },
            {
              "name": "recipient",
              "type": "address",
              "internalType": "address"
            },
            {
              "name": "attester",
              "type": "address",
              "internalType": "address"
            },
            {
              "name": "revocable",
              "type": "bool",
              "internalType": "bool"
            },
            {
              "name": "data",
              "type": "bytes",
              "internalType": "bytes"
            }
          ]
        },
        {
          "name": "demand",
          "type": "bytes",
          "internalType": "bytes"
        },
        {
          "name": "escrowUid",
          "type": "bytes32",
          "internalType": "bytes32"
        }
      ],
      "outputs": [
        {
          "name": "",
          "type": "bool",
          "internalType": "bool"
        }
      ],
      "stateMutability": "view"
    },
    {
      "type": "function",
      "name": "decodeDemandData",
      "inputs": [
        {
          "name": "data",
          "type": "bytes",
          "internalType": "bytes"
        }
      ],
      "outputs": [
        {
          "name": "",
          "type": "tuple",
          "internalType": "struct AllArbiter.DemandData",
          "components": [
            {
              "name": "arbiters",
              "type": "address[]",
              "internalType": "address[]"
            },
            {
              "name": "demands",
              "type": "bytes[]",
              "internalType": "bytes[]"
            }
          ]
        }
      ],
      "stateMutability": "pure"
    },
    {
      "type": "function",
      "name": "supportsInterface",
      "inputs": [
        {
          "name": "interfaceId",
          "type": "bytes4",
          "internalType": "bytes4"
        }
      ],
      "outputs": [
        {
          "name": "",
          "type": "bool",
          "internalType": "bool"
        }
      ],
      "stateMutability": "view"
    },
    {
      "type": "error",
      "name": "MismatchedArrayLengths",
      "inputs": []
    },
    {
      "type": "error",
      "name": "TooManyArbiters",
      "inputs": [
        {
          "name": "provided",
          "type": "uint256",
          "internalType": "uint256"
        },
        {
          "name": "max",
          "type": "uint256",
          "internalType": "uint256"
        }
      ]
    }
  ],
  "bytecode": {
    "object": "0x6080806040523460155761092c908161001a8239f35b5f80fdfe6080806040526004361015610012575f80fd5b5f3560e01c90816301ffc9a71461041b575080632895693d14610400578063838a68d91461019657638da3721a14610048575f80fd5b3461017e57606036600319011261017e576004356001600160401b03811161017e57610140600319823603011261017e576040519061014082018281106001600160401b038211176101825760405280600401358252602481013560208301526100b4604482016104ce565b60408301526100c5606482016104ce565b60608301526100d6608482016104ce565b608083015260a481013560a08301526100f160c482016104e2565b60c083015261010260e482016104e2565b60e0830152610104810135801515810361017e57610100830152610124810135906001600160401b03821161017e5760046101409236920101610511565b6101208201526024356001600160401b03811161017e5760209161016b610174923690600401610511565b60443591610596565b6040519015158152f35b5f80fd5b634e487b7160e01b5f52604160045260245ffd5b3461017e57602036600319011261017e576004356001600160401b03811161017e573660238201121561017e5780600401356001600160401b03811161017e578101602481019136831161017e57606060206040516101f481610492565b828152015260208183031261017e576024810135906001600160401b03821161017e5701906040908290031261017e576040519061023182610492565b60248101356001600160401b03811161017e5760249082010183601f8201121561017e5780359061026182610557565b9161026f60405193846104ad565b80835260208084019160051b8301019186831161017e57602001905b8282106103e857505050825260448101356001600160401b03811161017e5760249101019180601f8401121561017e5782356102c681610557565b936102d460405195866104ad565b81855260208086019260051b8201019183831161017e5760208201905b8382106103bb5785876020820190815260405191829160208352606083019151916040602085015282518091526020608085019301905f5b818110610399575050505190601f19838203016040840152815180825260208201916020808360051b8301019401925f915b8383106103685786860387f35b919395509193602080610387600193601f19868203018752895161046e565b9701930193019092869594929361035b565b82516001600160a01b0316855286955060209485019490920191600101610329565b81356001600160401b03811161017e576020916103dd87848094880101610511565b8152019101906102f1565b602080916103f5846104e2565b81520191019061028b565b3461017e575f36600319011261017e57602060405160328152f35b3461017e57602036600319011261017e576004359063ffffffff60e01b821680920361017e576020916346d1b90d60e11b811490811561045d575b5015158152f35b6301ffc9a760e01b14905083610456565b805180835260209291819084018484015e5f828201840152601f01601f1916010190565b604081019081106001600160401b0382111761018257604052565b90601f801991011681019081106001600160401b0382111761018257604052565b35906001600160401b038216820361017e57565b35906001600160a01b038216820361017e57565b6001600160401b03811161018257601f01601f191660200190565b81601f8201121561017e57803590610528826104f6565b9261053660405194856104ad565b8284526020838301011161017e57815f926020809301838601378301015290565b6001600160401b0381116101825760051b60200190565b80518210156105825760209160051b010190565b634e487b7160e01b5f52603260045260245ffd5b91908051810192602084019160208186031261017e576020810151906001600160401b03821161017e5701936040908590031261017e57604051936105da85610492565b60208101516001600160401b03811161017e5760209082010183601f8201121561017e57805161060981610557565b9161061760405193846104ad565b81835260208084019260051b8201019086821161017e57602001915b8183106108d657505050855260408101516001600160401b03811161017e5760209101019180601f8401121561017e5782519261066f84610557565b9361067d60405195866104ad565b80855260208086019160051b8301019183831161017e5760208101915b8383106108705750505050506020840191808352845151905103610861578351516032811161084a57505f5b8451805182101561083f576107cb906020906001600160a01b03906106ec90859061056e565b51166106f984875161056e565b519060405180809581946346d1b90d60e11b83526060600484015289516064840152868a015160848401526001600160401b0360408b01511660a48401526001600160401b0360608b01511660c48401526001600160401b0360808b01511660e484015260a08a015161010484015260018060a01b0360c08b01511661012484015260018060a01b0360e08b0151166101448401526101008a015115156101648401526107b96101208b01516101406101848601526101a485019061046e565b8381036003190160248501529061046e565b8a604483015203915afa908115610834575f916107fa575b50156107f1576001016106c6565b50505050505f90565b90506020813d821161082c575b81610814602093836104ad565b8101031261017e5751801515810361017e575f6107e3565b3d9150610807565b6040513d5f823e3d90fd5b505050505050600190565b630fdf70ab60e31b5f52600452603260245260445ffd5b632b477e7160e11b5f5260045ffd5b82516001600160401b03811161017e57820185603f8201121561017e5760208101519161089c836104f6565b6108a960405191826104ad565b838152604083850101881061017e575f602085819660408397018386015e8301015281520192019161069a565b82516001600160a01b038116810361017e5781526020928301920161063356fea264697066735822122066727f9ad44daf3fa9f6ea683bc57215e29bee25d979476ddf5cbd2008c8348a64736f6c634300081b0033",
    "linkReferences": {}
  },
  "methodIdentifiers": {
    "MAX_ARBITERS()": "2895693d",
    "check((bytes32,bytes32,uint64,uint64,uint64,bytes32,address,address,bool,bytes),bytes,bytes32)": "8da3721a",
    "decodeDemandData(bytes)": "838a68d9",
    "supportsInterface(bytes4)": "01ffc9a7"
  },
  "id": 119
}