{
  "abi": [
    {
      "type": "constructor",
      "inputs": [
        {
          "name": "_eas",
          "type": "address",
          "internalType": "contract IEAS"
        },
        {
          "name": "_schemaRegistry",
          "type": "address",
          "internalType": "contract ISchemaRegistry"
        }
      ],
      "stateMutability": "nonpayable"
    },
    {
      "type": "receive",
      "stateMutability": "payable"
    },
    {
      "type": "function",
      "name": "ATTESTATION_SCHEMA",
      "inputs": [],
      "outputs": [
        {
          "name": "",
          "type": "bytes32",
          "internalType": "bytes32"
        }
      ],
      "stateMutability": "view"
    },
    {
      "type": "function",
      "name": "ATTESTATION_SCHEMA_REVOCABLE",
      "inputs": [],
      "outputs": [
        {
          "name": "",
          "type": "bool",
          "internalType": "bool"
        }
      ],
      "stateMutability": "view"
    },
    {
      "type": "function",
      "name": "VALIDATION_SCHEMA",
      "inputs": [],
      "outputs": [
        {
          "name": "",
          "type": "bytes32",
          "internalType": "bytes32"
        }
      ],
      "stateMutability": "view"
    },
    {
      "type": "function",
      "name": "attest",
      "inputs": [
        {
          "name": "attestation",
          "type": "tuple",
          "internalType": "struct Attestation",
          "components": [
            {
              "name": "uid",
              "type": "bytes32",
              "internalType": "bytes32"
            },
            {
              "name": "schema",
              "type": "bytes32",
              "internalType": "bytes32"
            },
            {
              "name": "time",
              "type": "uint64",
              "internalType": "uint64"
            },
            {
              "name": "expirationTime",
              "type": "uint64",
              "internalType": "uint64"
            },
            {
              "name": "revocationTime",
              "type": "uint64",
              "internalType": "uint64"
            },
            {
              "name": "refUID",
              "type": "bytes32",
              "internalType": "bytes32"
            },
            {
              "name": "recipient",
              "type": "address",
              "internalType": "address"
            },
            {
              "name": "attester",
              "type": "address",
              "internalType": "address"
            },
            {
              "name": "revocable",
              "type": "bool",
              "internalType": "bool"
            },
            {
              "name": "data",
              "type": "bytes",
              "internalType": "bytes"
            }
          ]
        }
      ],
      "outputs": [
        {
          "name": "",
          "type": "bool",
          "internalType": "bool"
        }
      ],
      "stateMutability": "payable"
    },
    {
      "type": "function",
      "name": "check",
      "inputs": [
        {
          "name": "obligation",
          "type": "tuple",
          "internalType": "struct Attestation",
          "components": [
            {
              "name": "uid",
              "type": "bytes32",
              "internalType": "bytes32"
            },
            {
              "name": "schema",
              "type": "bytes32",
              "internalType": "bytes32"
            },
            {
              "name": "time",
              "type": "uint64",
              "internalType": "uint64"
            },
            {
              "name": "expirationTime",
              "type": "uint64",
              "internalType": "uint64"
            },
            {
              "name": "revocationTime",
              "type": "uint64",
              "internalType": "uint64"
            },
            {
              "name": "refUID",
              "type": "bytes32",
              "internalType": "bytes32"
            },
            {
              "name": "recipient",
              "type": "address",
              "internalType": "address"
            },
            {
              "name": "attester",
              "type": "address",
              "internalType": "address"
            },
            {
              "name": "revocable",
              "type": "bool",
              "internalType": "bool"
            },
            {
              "name": "data",
              "type": "bytes",
              "internalType": "bytes"
            }
          ]
        },
        {
          "name": "demand",
          "type": "bytes",
          "internalType": "bytes"
        },
        {
          "name": "",
          "type": "bytes32",
          "internalType": "bytes32"
        }
      ],
      "outputs": [
        {
          "name": "",
          "type": "bool",
          "internalType": "bool"
        }
      ],
      "stateMutability": "view"
    },
    {
      "type": "function",
      "name": "collect",
      "inputs": [
        {
          "name": "_escrow",
          "type": "bytes32",
          "internalType": "bytes32"
        },
        {
          "name": "_fulfillment",
          "type": "bytes32",
          "internalType": "bytes32"
        }
      ],
      "outputs": [
        {
          "name": "",
          "type": "bytes",
          "internalType": "bytes"
        }
      ],
      "stateMutability": "nonpayable"
    },
    {
      "type": "function",
      "name": "decodeCondition",
      "inputs": [
        {
          "name": "data",
          "type": "bytes",
          "internalType": "bytes"
        }
      ],
      "outputs": [
        {
          "name": "arbiter",
          "type": "address",
          "internalType": "address"
        },
        {
          "name": "demand",
          "type": "bytes",
          "internalType": "bytes"
        }
      ],
      "stateMutability": "pure"
    },
    {
      "type": "function",
      "name": "decodeObligationData",
      "inputs": [
        {
          "name": "data",
          "type": "bytes",
          "internalType": "bytes"
        }
      ],
      "outputs": [
        {
          "name": "",
          "type": "tuple",
          "internalType": "struct AttestationReferenceEscrowObligation.ObligationData",
          "components": [
            {
              "name": "arbiter",
              "type": "address",
              "internalType": "address"
            },
            {
              "name": "demand",
              "type": "bytes",
              "internalType": "bytes"
            },
            {
              "name": "attestationUid",
              "type": "bytes32",
              "internalType": "bytes32"
            },
            {
              "name": "validationExpirationTime",
              "type": "uint64",
              "internalType": "uint64"
            },
            {
              "name": "validationRevocable",
              "type": "bool",
              "internalType": "bool"
            }
          ]
        }
      ],
      "stateMutability": "pure"
    },
    {
      "type": "function",
      "name": "doObligation",
      "inputs": [
        {
          "name": "data",
          "type": "tuple",
          "internalType": "struct AttestationReferenceEscrowObligation.ObligationData",
          "components": [
            {
              "name": "arbiter",
              "type": "address",
              "internalType": "address"
            },
            {
              "name": "demand",
              "type": "bytes",
              "internalType": "bytes"
            },
            {
              "name": "attestationUid",
              "type": "bytes32",
              "internalType": "bytes32"
            },
            {
              "name": "validationExpirationTime",
              "type": "uint64",
              "internalType": "uint64"
            },
            {
              "name": "validationRevocable",
              "type": "bool",
              "internalType": "bool"
            }
          ]
        },
        {
          "name": "expirationTime",
          "type": "uint64",
          "internalType": "uint64"
        }
      ],
      "outputs": [
        {
          "name": "",
          "type": "bytes32",
          "internalType": "bytes32"
        }
      ],
      "stateMutability": "nonpayable"
    },
    {
      "type": "function",
      "name": "doObligationFor",
      "inputs": [
        {
          "name": "data",
          "type": "tuple",
          "internalType": "struct AttestationReferenceEscrowObligation.ObligationData",
          "components": [
            {
              "name": "arbiter",
              "type": "address",
              "internalType": "address"
            },
            {
              "name": "demand",
              "type": "bytes",
              "internalType": "bytes"
            },
            {
              "name": "attestationUid",
              "type": "bytes32",
              "internalType": "bytes32"
            },
            {
              "name": "validationExpirationTime",
              "type": "uint64",
              "internalType": "uint64"
            },
            {
              "name": "validationRevocable",
              "type": "bool",
              "internalType": "bool"
            }
          ]
        },
        {
          "name": "expirationTime",
          "type": "uint64",
          "internalType": "uint64"
        },
        {
          "name": "recipient",
          "type": "address",
          "internalType": "address"
        }
      ],
      "outputs": [
        {
          "name": "",
          "type": "bytes32",
          "internalType": "bytes32"
        }
      ],
      "stateMutability": "nonpayable"
    },
    {
      "type": "function",
      "name": "doObligationRaw",
      "inputs": [
        {
          "name": "data",
          "type": "bytes",
          "internalType": "bytes"
        },
        {
          "name": "expirationTime",
          "type": "uint64",
          "internalType": "uint64"
        },
        {
          "name": "refUID",
          "type": "bytes32",
          "internalType": "bytes32"
        }
      ],
      "outputs": [
        {
          "name": "uid_",
          "type": "bytes32",
          "internalType": "bytes32"
        }
      ],
      "stateMutability": "payable"
    },
    {
      "type": "function",
      "name": "getObligationData",
      "inputs": [
        {
          "name": "uid",
          "type": "bytes32",
          "internalType": "bytes32"
        }
      ],
      "outputs": [
        {
          "name": "",
          "type": "tuple",
          "internalType": "struct AttestationReferenceEscrowObligation.ObligationData",
          "components": [
            {
              "name": "arbiter",
              "type": "address",
              "internalType": "address"
            },
            {
              "name": "demand",
              "type": "bytes",
              "internalType": "bytes"
            },
            {
              "name": "attestationUid",
              "type": "bytes32",
              "internalType": "bytes32"
            },
            {
              "name": "validationExpirationTime",
              "type": "uint64",
              "internalType": "uint64"
            },
            {
              "name": "validationRevocable",
              "type": "bool",
              "internalType": "bool"
            }
          ]
        }
      ],
      "stateMutability": "view"
    },
    {
      "type": "function",
      "name": "getSchema",
      "inputs": [],
      "outputs": [
        {
          "name": "",
          "type": "tuple",
          "internalType": "struct SchemaRecord",
          "components": [
            {
              "name": "uid",
              "type": "bytes32",
              "internalType": "bytes32"
            },
            {
              "name": "resolver",
              "type": "address",
              "internalType": "contract ISchemaResolver"
            },
            {
              "name": "revocable",
              "type": "bool",
              "internalType": "bool"
            },
            {
              "name": "schema",
              "type": "string",
              "internalType": "string"
            }
          ]
        }
      ],
      "stateMutability": "view"
    },
    {
      "type": "function",
      "name": "isPayable",
      "inputs": [],
      "outputs": [
        {
          "name": "",
          "type": "bool",
          "internalType": "bool"
        }
      ],
      "stateMutability": "pure"
    },
    {
      "type": "function",
      "name": "multiAttest",
      "inputs": [
        {
          "name": "attestations",
          "type": "tuple[]",
          "internalType": "struct Attestation[]",
          "components": [
            {
              "name": "uid",
              "type": "bytes32",
              "internalType": "bytes32"
            },
            {
              "name": "schema",
              "type": "bytes32",
              "internalType": "bytes32"
            },
            {
              "name": "time",
              "type": "uint64",
              "internalType": "uint64"
            },
            {
              "name": "expirationTime",
              "type": "uint64",
              "internalType": "uint64"
            },
            {
              "name": "revocationTime",
              "type": "uint64",
              "internalType": "uint64"
            },
            {
              "name": "refUID",
              "type": "bytes32",
              "internalType": "bytes32"
            },
            {
              "name": "recipient",
              "type": "address",
              "internalType": "address"
            },
            {
              "name": "attester",
              "type": "address",
              "internalType": "address"
            },
            {
              "name": "revocable",
              "type": "bool",
              "internalType": "bool"
            },
            {
              "name": "data",
              "type": "bytes",
              "internalType": "bytes"
            }
          ]
        },
        {
          "name": "values",
          "type": "uint256[]",
          "internalType": "uint256[]"
        }
      ],
      "outputs": [
        {
          "name": "",
          "type": "bool",
          "internalType": "bool"
        }
      ],
      "stateMutability": "payable"
    },
    {
      "type": "function",
      "name": "multiRevoke",
      "inputs": [
        {
          "name": "attestations",
          "type": "tuple[]",
          "internalType": "struct Attestation[]",
          "components": [
            {
              "name": "uid",
              "type": "bytes32",
              "internalType": "bytes32"
            },
            {
              "name": "schema",
              "type": "bytes32",
              "internalType": "bytes32"
            },
            {
              "name": "time",
              "type": "uint64",
              "internalType": "uint64"
            },
            {
              "name": "expirationTime",
              "type": "uint64",
              "internalType": "uint64"
            },
            {
              "name": "revocationTime",
              "type": "uint64",
              "internalType": "uint64"
            },
            {
              "name": "refUID",
              "type": "bytes32",
              "internalType": "bytes32"
            },
            {
              "name": "recipient",
              "type": "address",
              "internalType": "address"
            },
            {
              "name": "attester",
              "type": "address",
              "internalType": "address"
            },
            {
              "name": "revocable",
              "type": "bool",
              "internalType": "bool"
            },
            {
              "name": "data",
              "type": "bytes",
              "internalType": "bytes"
            }
          ]
        },
        {
          "name": "values",
          "type": "uint256[]",
          "internalType": "uint256[]"
        }
      ],
      "outputs": [
        {
          "name": "",
          "type": "bool",
          "internalType": "bool"
        }
      ],
      "stateMutability": "payable"
    },
    {
      "type": "function",
      "name": "reclaim",
      "inputs": [
        {
          "name": "uid",
          "type": "bytes32",
          "internalType": "bytes32"
        }
      ],
      "outputs": [
        {
          "name": "",
          "type": "bool",
          "internalType": "bool"
        }
      ],
      "stateMutability": "nonpayable"
    },
    {
      "type": "function",
      "name": "revoke",
      "inputs": [
        {
          "name": "attestation",
          "type": "tuple",
          "internalType": "struct Attestation",
          "components": [
            {
              "name": "uid",
              "type": "bytes32",
              "internalType": "bytes32"
            },
            {
              "name": "schema",
              "type": "bytes32",
              "internalType": "bytes32"
            },
            {
              "name": "time",
              "type": "uint64",
              "internalType": "uint64"
            },
            {
              "name": "expirationTime",
              "type": "uint64",
              "internalType": "uint64"
            },
            {
              "name": "revocationTime",
              "type": "uint64",
              "internalType": "uint64"
            },
            {
              "name": "refUID",
              "type": "bytes32",
              "internalType": "bytes32"
            },
            {
              "name": "recipient",
              "type": "address",
              "internalType": "address"
            },
            {
              "name": "attester",
              "type": "address",
              "internalType": "address"
            },
            {
              "name": "revocable",
              "type": "bool",
              "internalType": "bool"
            },
            {
              "name": "data",
              "type": "bytes",
              "internalType": "bytes"
            }
          ]
        }
      ],
      "outputs": [
        {
          "name": "",
          "type": "bool",
          "internalType": "bool"
        }
      ],
      "stateMutability": "payable"
    },
    {
      "type": "function",
      "name": "version",
      "inputs": [],
      "outputs": [
        {
          "name": "",
          "type": "string",
          "internalType": "string"
        }
      ],
      "stateMutability": "view"
    },
    {
      "type": "event",
      "name": "EscrowCollected",
      "inputs": [
        {
          "name": "escrowUid",
          "type": "bytes32",
          "indexed": true,
          "internalType": "bytes32"
        },
        {
          "name": "fulfillmentUid",
          "type": "bytes32",
          "indexed": true,
          "internalType": "bytes32"
        },
        {
          "name": "fulfiller",
          "type": "address",
          "indexed": true,
          "internalType": "address"
        }
      ],
      "anonymous": false
    },
    {
      "type": "event",
      "name": "EscrowMade",
      "inputs": [
        {
          "name": "escrowUid",
          "type": "bytes32",
          "indexed": true,
          "internalType": "bytes32"
        },
        {
          "name": "escrower",
          "type": "address",
          "indexed": true,
          "internalType": "address"
        }
      ],
      "anonymous": false
    },
    {
      "type": "event",
      "name": "EscrowReclaimed",
      "inputs": [
        {
          "name": "escrowUid",
          "type": "bytes32",
          "indexed": true,
          "internalType": "bytes32"
        },
        {
          "name": "escrower",
          "type": "address",
          "indexed": true,
          "internalType": "address"
        }
      ],
      "anonymous": false
    },
    {
      "type": "error",
      "name": "AccessDenied",
      "inputs": []
    },
    {
      "type": "error",
      "name": "AttestationNotFound",
      "inputs": [
        {
          "name": "attestationId",
          "type": "bytes32",
          "internalType": "bytes32"
        }
      ]
    },
    {
      "type": "error",
      "name": "AttestationRevoked",
      "inputs": []
    },
    {
      "type": "error",
      "name": "DeadlineExpired",
      "inputs": []
    },
    {
      "type": "error",
      "name": "InsufficientValue",
      "inputs": []
    },
    {
      "type": "error",
      "name": "InvalidAttestationUid",
      "inputs": []
    },
    {
      "type": "error",
      "name": "InvalidEAS",
      "inputs": []
    },
    {
      "type": "error",
      "name": "InvalidEscrowAttestation",
      "inputs": []
    },
    {
      "type": "error",
      "name": "InvalidFulfillment",
      "inputs": []
    },
    {
      "type": "error",
      "name": "InvalidLength",
      "inputs": []
    },
    {
      "type": "error",
      "name": "NotFromThisAttester",
      "inputs": []
    },
    {
      "type": "error",
      "name": "NotPayable",
      "inputs": []
    },
    {
      "type": "error",
      "name": "ReentrancyGuardReentrantCall",
      "inputs": []
    },
    {
      "type": "error",
      "name": "RevocationFailed",
      "inputs": [
        {
          "name": "attestationId",
          "type": "bytes32",
          "internalType": "bytes32"
        }
      ]
    },
    {
      "type": "error",
      "name": "SchemaRegistrationFailed",
      "inputs": [
        {
          "name": "uid",
          "type": "bytes32",
          "internalType": "bytes32"
        }
      ]
    },
    {
      "type": "error",
      "name": "UnauthorizedCall",
      "inputs": []
    }
  ],
  "bytecode": {
    "object": "0x6101a0806040523461026f576040816123fe80380380916100208285610273565b83398101031261026f5780516001600160a01b0381169182820361026f5760200151906001600160a01b03821680830361026f576040519361006360a086610273565b607085527f6164647265737320617262697465722c2062797465732064656d616e642c206260208601527f797465733332206174746573746174696f6e5569642c2075696e74363420766160408601527f6c69646174696f6e45787069726174696f6e54696d652c20626f6f6c2076616c60608601526f69646174696f6e5265766f6361626c6560801b60808601526001608052600360a0525f60c052156102605761018e93826101279360e052610120528361010052600161016052309161038e565b6101405260017f9b779b17422d0df92223018b32b4d1fa46e071723d6817e2486d003becc55f005560405161015d604082610273565b601f81527f627974657333322076616c6964617465644174746573746174696f6e556964006020820152309161038e565b61018052604051611e94908161056a823960805181610f91015260a05181610fbc015260c05181610fe7015260e05181611af301526101005181610e0801526101205181818161029d0152818161073f0152818161094a01528181610ad6015281816118870152611cce01526101405181818161013d0152818161077f0152818161089a01528181610a8701528181610dd601528181610f4f015281816116c801526117ef015261016051818181610822015281816108dd015261183b0152610180518181816103da01526105d70152f35b6341bc07ff60e11b5f5260045ffd5b5f80fd5b601f909101601f19168101906001600160401b0382119082101761029657604052565b634e487b7160e01b5f52604160045260245ffd5b60208183031261026f578051906001600160401b03821161026f57019060808282031261026f5760405191608083016001600160401b03811184821017610296576040528051835260208101516001600160a01b038116810361026f5760208401526040810151801515810361026f5760408401526060810151906001600160401b03821161026f570181601f8201121561026f578051906001600160401b0382116102965760405192610368601f8401601f191660200185610273565b8284526020838301011161026f57815f9260208093018386015e83010152606082015290565b929160405190602082018351926103d86015602083818901978089885e810160018060601b03198860601b1683820152600160f81b60348201520301600a19810184520182610273565b5190206040516351753e3760e11b81526004810182905290956001600160a01b031693905f81602481885afa80156104e95787915f9161054f575b505114610549579060846020926040519485938492630c1af44f60e31b8452606060048501525180928160648601528585015e5f84838501015260018060a01b0316602483015260016044830152601f801991011681010301815f865af15f9181610515575b506104f457505f602491604051928380926351753e3760e11b82528760048301525afa80156104e95783915f916104c7575b5051146104c55750639e6113d560e01b5f5260045260245ffd5b565b6104e391503d805f833e6104db8183610273565b8101906102aa565b5f6104ab565b6040513d5f823e3d90fd5b91928091508203610503575090565b639e6113d560e01b5f5260045260245ffd5b9091506020813d602011610541575b8161053160209383610273565b8101031261026f5751905f610479565b3d9150610524565b50505050565b61056391503d805f833e6104db8183610273565b5f61041356fe6080806040526004361015610029575b50361561001a575f80fd5b631574f9f360e01b5f5260045ffd5b5f905f3560e01c9081633ce645d5146110f9575080634e3fa9261461107457806354fd4d5014610f725780635bf2f20d14610f385780636b122fe014610d97578063760bd11814610d3957806388e5b2d914610c045780638da3721a14610c2357806391db0b7e14610c0457806396afb36514610a58578063b3b902d414610847578063b587a5eb1461080a578063c6ec5070146106fe578063c93844be14610616578063ce46e046146105fa578063df61dd2c146105bf578063e49617e11461059a578063e60c35051461059a5763ea6ec49c0361000f57346105975760403660031901126105975760243590600435610122611b4b565b61012b81611ca8565b61013484611ca8565b906020810151907f00000000000000000000000000000000000000000000000000000000000000008092036105885761016c81611d56565b156105885761012081019061018182516115f4565b60a086939293019182518151036105795761019b87611d56565b156105795751604080516346d1b90d60e11b8152606060048201819052895160648301526020808b01516084840152928a01516001600160401b0390811660a4840152908a0151811660c483015260808a01511660e4820152935161010485015260c0880180516001600160a01b0390811661012487015260e08a01511661014486015261010089015115156101648601526101209098015161014061018486015293949093859391928492839261026f919061025d906101a486019061119e565b8481036003190160248601529061119e565b604483019190915203916001600160a01b03165afa90811561056e578691610534575b5015610525576040517f00000000000000000000000000000000000000000000000000000000000000006001600160a01b031692906102d08161120d565b858152866020820152604051916102e68361120d565b82526020820152823b1561052157604051634692626760e01b8152815160048201526020918201518051602483015290910151604482015285808260648183885af1918261050c575b50506103495763614cf93960e01b85526004849052602485fd5b61041b8594939260209261037060018060a01b038651169151858082518301019101611563565b6001600160401b0360608201511690604060808201511515910151906040519282888501528784526103a360408561125e565b604051946103b086611243565b8552878501526040840152606083015260808201528660a0820152604051906103d88261120d565b7f000000000000000000000000000000000000000000000000000000000000000082528482015260405196878094819363f17325e760e01b835260048301611dc8565b03925af19283156105015784936104a7575b50907ff96e77bc177ae8e2ff25185e7c6d85f8ba97c8bdd9d46933aac70a7a33edf6c0946104a393926040519360208501526020845261046e60408561125e565b516040519687966001600160a01b03909216939180a460015f516020611e3f5f395f51905f525560208352602083019061119e565b0390f35b9250906020833d6020116104f9575b816104c36020938361125e565b810103126104f557915191907ff96e77bc177ae8e2ff25185e7c6d85f8ba97c8bdd9d46933aac70a7a33edf6c061042d565b5f80fd5b3d91506104b6565b6040513d86823e3d90fd5b816105169161125e565b61052157855f61032f565b8580fd5b630ebe58ef60e11b8552600485fd5b90506020813d602011610566575b8161054f6020938361125e565b8101031261052157610560906114de565b5f610292565b3d9150610542565b6040513d88823e3d90fd5b630ebe58ef60e11b8952600489fd5b63629cd40b60e11b8552600485fd5b80fd5b60206105b56105a8366113fe565b6105b0611af1565b611b32565b6040519015158152f35b503461059757806003193601126105975760206040517f00000000000000000000000000000000000000000000000000000000000000008152f35b5034610597578060031936011261059757602090604051908152f35b5034610597576020366003190112610597576004356001600160401b0381116106f65761064790369060040161137b565b6106529291926117b6565b508201916020818403126106f6578035906001600160401b0382116106fa57019160a0838203126106f6576040519161068a83611228565b6106938461118a565b83526020840135906001600160401b0382116105975750836106bf6106e5936080936104a397016112d0565b6020850152604081013560408501526106da60608201611176565b60608501520161136e565b6080820152604051918291826113a8565b5080fd5b8280fd5b5034610597576020366003190112610597576107186117b6565b50610721611b83565b506040516328c44a9960e21b815260048035908201529080826024817f00000000000000000000000000000000000000000000000000000000000000006001600160a01b03165afa9182156107fd5781926107d9575b5060208201517f0000000000000000000000000000000000000000000000000000000000000000036107ca576104a36107be61012084015160208082518301019101611563565b604051918291826113a8565b635527981560e11b8152600490fd5b6107f69192503d8084833e6107ee818361125e565b810190611bcd565b905f610777565b50604051903d90823e3d90fd5b503461059757806003193601126105975760206040517f000000000000000000000000000000000000000000000000000000000000000015158152f35b506060366003190112610597576004356001600160401b0381116106f65761087661094591369060040161137b565b929061088f610883611160565b9160443595369161129a565b90610898611b4b565b7f0000000000000000000000000000000000000000000000000000000000000000906001600160401b03604051916108cf83611243565b3383521680602083015260207f00000000000000000000000000000000000000000000000000000000000000001515928360408201528860608201528560808201528660a0820152604051906109248261120d565b858252828201526040518098819263f17325e760e01b835260048301611dc8565b0381887f00000000000000000000000000000000000000000000000000000000000000006001600160a01b03165af1958615610a4d578596610a12575b5090602096610120939260405193610999856111f1565b888552898501526001600160401b0342166040850152606084015285608084015260a08301523360c08301523060e08301526101008201520152817f8f7f2dbafd79125e808bf16a53d7fa4e17b8b6374ced76d946a45f94b7bf4d06339280a360015f516020611e3f5f395f51905f5255604051908152f35b92919095506020833d602011610a45575b81610a306020938361125e565b810103126104f5579151949091906020610982565b3d9150610a23565b6040513d87823e3d90fd5b50346104f55760203660031901126104f55760043590610a76611b4b565b610a7f82611ca8565b9160208301517f0000000000000000000000000000000000000000000000000000000000000000809103610bf557606084016001600160401b0381511615610be657516001600160401b03164210610be6576040517f00000000000000000000000000000000000000000000000000000000000000006001600160a01b031690610b088161120d565b8381525f602082015260405192610b1e8461120d565b83526020830152803b156104f557604051634692626760e01b815282516004820152602092830151805160248301529092015160448301525f908290606490829084905af19081610bd1575b50610b825763614cf93960e01b825260045260249150fd5b60209260c060018060a01b0391015116907f655ef333d5efcbf5aa343f02bcd9e3539f9c9f9ee8b9cfa7d8910b1bd7e0a8326040519380a360015f516020611e3f5f395f51905f525560018152f35b610bde9193505f9061125e565b5f915f610b6a565b637bf6a16f60e01b5f5260045ffd5b63629cd40b60e11b5f5260045ffd5b60206105b5610c123661131e565b92610c1e929192611af1565b61161d565b346104f55760603660031901126104f5576004356001600160401b0381116104f55761014060031982360301126104f55760405190610c61826111f1565b8060040135825260248101356020830152610c7e60448201611176565b6040830152610c8f60648201611176565b6060830152610ca060848201611176565b608083015260a481013560a0830152610cbb60c4820161118a565b60c0830152610ccc60e4820161118a565b60e0830152610cde610104820161136e565b610100830152610124810135906001600160401b0382116104f5576004610d0892369201016112d0565b6101208201526024356001600160401b0381116104f557602091610d336105b59236906004016112d0565b906116c1565b346104f55760203660031901126104f5576004356001600160401b0381116104f557610d6c610d719136906004016112d0565b6115f4565b604080516001600160a01b0390931683526020830181905282916104a39183019061119e565b346104f5575f3660031901126104f557606080604051610db6816111c2565b5f81525f60208201525f604082015201526040516351753e3760e11b81527f000000000000000000000000000000000000000000000000000000000000000060048201525f8160248160018060a01b037f0000000000000000000000000000000000000000000000000000000000000000165afa8015610f2d575f90610e7d575b6060906104a3604051928392602084528051602085015260018060a01b0360208201511660408501526040810151151582850152015160808084015260a083019061119e565b503d805f833e610e8d818361125e565b8101906020818303126104f5578051906001600160401b0382116104f557016080818303126104f55760405190610ec3826111c2565b8051825260208101516001600160a01b03811681036104f5576020830152610eed604082016114de565b60408301526060810151906001600160401b0382116104f5570182601f820112156104f557606092816020610f24935191016114eb565b82820152610e37565b6040513d5f823e3d90fd5b346104f5575f3660031901126104f55760206040517f00000000000000000000000000000000000000000000000000000000000000008152f35b346104f5575f3660031901126104f5576104a360206110606001610fb57f0000000000000000000000000000000000000000000000000000000000000000611984565b8184610fe07f0000000000000000000000000000000000000000000000000000000000000000611984565b818061100b7f0000000000000000000000000000000000000000000000000000000000000000611984565b9260405199878b985191829101848a015e870190601760f91b83830152805192839101602183015e010190601760f91b84830152805192839101600283015e01015f838201520301601f19810183528261125e565b60405191829160208352602083019061119e565b346104f55760603660031901126104f5576004356001600160401b0381116104f55760a060031982360301126104f5576110ac611160565b906044356001600160a01b03811681036104f5576020926110de6110ec6110f194604051928391600401888301611432565b03601f19810183528261125e565b6117e1565b604051908152f35b346104f55760403660031901126104f5576004356001600160401b0381116104f55760a060031982360301126104f557816110f19161115960209461114b61113f611160565b93600401878301611432565b03601f19810184528361125e565b33916117e1565b602435906001600160401b03821682036104f557565b35906001600160401b03821682036104f557565b35906001600160a01b03821682036104f557565b805180835260209291819084018484015e5f828201840152601f01601f1916010190565b608081019081106001600160401b038211176111dd57604052565b634e487b7160e01b5f52604160045260245ffd5b61014081019081106001600160401b038211176111dd57604052565b604081019081106001600160401b038211176111dd57604052565b60a081019081106001600160401b038211176111dd57604052565b60c081019081106001600160401b038211176111dd57604052565b90601f801991011681019081106001600160401b038211176111dd57604052565b6001600160401b0381116111dd57601f01601f191660200190565b9291926112a68261127f565b916112b4604051938461125e565b8294818452818301116104f5578281602093845f960137010152565b9080601f830112156104f5578160206112eb9335910161129a565b90565b9181601f840112156104f5578235916001600160401b0383116104f5576020808501948460051b0101116104f557565b60406003198201126104f5576004356001600160401b0381116104f55781611348916004016112ee565b92909291602435906001600160401b0382116104f55761136a916004016112ee565b9091565b359081151582036104f557565b9181601f840112156104f5578235916001600160401b0383116104f557602083818601950101116104f557565b6020815260018060a01b03825116602082015260a060806113d7602085015183604086015260c085019061119e565b93604081015160608501526001600160401b03606082015116828501520151151591015290565b60206003198201126104f557600435906001600160401b0382116104f5576101409082900360031901126104f55760040190565b602081526001600160a01b036114478361118a565b1660208201526020820135601e19833603018112156104f5578201602081359101926001600160401b0382116104f55781360384136104f55760806114cb918360e09660a060408801528160c0880152878701375f868587010152604081013560608601526001600160401b036114c060608301611176565b16828601520161136e565b151560a0830152601f01601f1916010190565b519081151582036104f557565b9291926114f78261127f565b91611505604051938461125e565b8294818452818301116104f5578281602093845f96015e010152565b51906001600160a01b03821682036104f557565b9080601f830112156104f55781516112eb926020016114eb565b51906001600160401b03821682036104f557565b6020818303126104f5578051906001600160401b0382116104f5570160a0818303126104f5576040519161159683611228565b61159f82611521565b83526020820151916001600160401b0383116104f5576115c66080926115ec948301611535565b6020850152604081015160408501526115e16060820161154f565b6060850152016114de565b608082015290565b6116079060208082518301019101611563565b80516020909101516001600160a01b0390911691565b9290928184036116b2575f91345b858410156116a75781841015611693578360051b80860135908282116116845784013561013e19853603018112156104f557611668908501611b32565b15611679576001910393019261162b565b505050505050505f90565b63044044a560e21b5f5260045ffd5b634e487b7160e01b5f52603260045260245ffd5b505050505050600190565b63251f56a160e21b5f5260045ffd5b60208101517f0000000000000000000000000000000000000000000000000000000000000000036117b05761170761012061171792015160208082518301019101611563565b9160208082518301019101611563565b6040820151604082015114918261178b575b82611774575b8261175b575b8261173f57505090565b6020919250810151818151910120910151602081519101201490565b805182516001600160a01b039081169116149250611735565b91506080820151151560808201511515149161172f565b91506001600160401b036060830151166001600160401b036060830151161491611729565b50505f90565b604051906117c382611228565b5f608083828152606060208201528260408201528260608201520152565b611882926117ed611b4b565b7f0000000000000000000000000000000000000000000000000000000000000000906001600160401b036040519161182483611243565b60018060a01b0316948583521680602083015260207f00000000000000000000000000000000000000000000000000000000000000001515928360408201525f60608201528560808201525f60a0820152604051906109248261120d565b03815f7f00000000000000000000000000000000000000000000000000000000000000006001600160a01b03165af1958615610f2d575f96611948575b50906101209291604051926118d3846111f1565b87845260208401526001600160401b034216604084015260608301525f60808301525f60a08301528460c08301523060e08301526101008201520152817f8f7f2dbafd79125e808bf16a53d7fa4e17b8b6374ced76d946a45f94b7bf4d065f80a39060015f516020611e3f5f395f51905f5255565b92919095506020833d60201161197c575b816119666020938361125e565b810103126104f5576101209251959091926118bf565b3d9150611959565b805f9172184f03e93ff9f4daa797ed6e38ed64bf6a1f0160401b821015611ace575b806d04ee2d6d415b85acef8100000000600a921015611ab3575b662386f26fc10000811015611a9f575b6305f5e100811015611a8e575b612710811015611a7f575b6064811015611a71575b1015611a66575b600a60216001840193611a0b8561127f565b94611a19604051968761125e565b808652611a28601f199161127f565b013660208701378401015b5f1901916f181899199a1a9b1b9c1cb0b131b232b360811b8282061a8353048015611a6157600a9091611a33565b505090565b6001909101906119f9565b6064600291049301926119f2565b612710600491049301926119e8565b6305f5e100600891049301926119dd565b662386f26fc10000601091049301926119d0565b6d04ee2d6d415b85acef8100000000602091049301926119c0565b506040915072184f03e93ff9f4daa797ed6e38ed64bf6a1f0160401b81046119a6565b7f00000000000000000000000000000000000000000000000000000000000000006001600160a01b03163303611b2357565b634ca8886760e01b5f5260045ffd5b60e0013560018060a01b0381168091036104f557301490565b60025f516020611e3f5f395f51905f525414611b745760025f516020611e3f5f395f51905f5255565b633ee5aeb560e01b5f5260045ffd5b60405190611b90826111f1565b6060610120835f81525f60208201525f60408201525f838201525f60808201525f60a08201525f60c08201525f60e08201525f6101008201520152565b6020818303126104f5578051906001600160401b0382116104f55701610140818303126104f55760405191611c01836111f1565b8151835260208201516020840152611c1b6040830161154f565b6040840152611c2c6060830161154f565b6060840152611c3d6080830161154f565b608084015260a082015160a0840152611c5860c08301611521565b60c0840152611c6960e08301611521565b60e0840152611c7b61010083016114de565b6101008401526101208201516001600160401b0381116104f557611c9f9201611535565b61012082015290565b90611cb1611b83565b506040516328c44a9960e21b815260048101839052915f836024817f00000000000000000000000000000000000000000000000000000000000000006001600160a01b03165afa928315610f2d575f93611d3a575b508251818115918215611d2f575b5050611d1d5750565b6301fb6dd160e01b5f5260045260245ffd5b14159050815f611d14565b611d4f9193503d805f833e6107ee818361125e565b915f611d06565b805115611db9576001600160401b036060820151168015159081611dae575b50611d9f57608001516001600160401b0316611d9057600190565b637b6227e960e11b5f5260045ffd5b631ab7da6b60e01b5f5260045ffd5b90504210155f611d75565b635c2c7f8960e01b5f5260045ffd5b9060209081835280518284015201519060408082015260018060a01b0382511660608201526001600160401b0360208301511660808201526040820151151560a0820152606082015160c082015261010060a0611e35608085015160c060e086015261012085019061119e565b9301519101529056fe9b779b17422d0df92223018b32b4d1fa46e071723d6817e2486d003becc55f00a26469706673582212209155d3aba63459af2e8b479c1441db83e109db313db81a4d3c271517a7f97f0f64736f6c634300081b0033",
    "linkReferences": {}
  },
  "methodIdentifiers": {
    "ATTESTATION_SCHEMA()": "5bf2f20d",
    "ATTESTATION_SCHEMA_REVOCABLE()": "b587a5eb",
    "VALIDATION_SCHEMA()": "df61dd2c",
    "attest((bytes32,bytes32,uint64,uint64,uint64,bytes32,address,address,bool,bytes))": "e60c3505",
    "check((bytes32,bytes32,uint64,uint64,uint64,bytes32,address,address,bool,bytes),bytes,bytes32)": "8da3721a",
    "collect(bytes32,bytes32)": "ea6ec49c",
    "decodeCondition(bytes)": "760bd118",
    "decodeObligationData(bytes)": "c93844be",
    "doObligation((address,bytes,bytes32,uint64,bool),uint64)": "3ce645d5",
    "doObligationFor((address,bytes,bytes32,uint64,bool),uint64,address)": "4e3fa926",
    "doObligationRaw(bytes,uint64,bytes32)": "b3b902d4",
    "getObligationData(bytes32)": "c6ec5070",
    "getSchema()": "6b122fe0",
    "isPayable()": "ce46e046",
    "multiAttest((bytes32,bytes32,uint64,uint64,uint64,bytes32,address,address,bool,bytes)[],uint256[])": "91db0b7e",
    "multiRevoke((bytes32,bytes32,uint64,uint64,uint64,bytes32,address,address,bool,bytes)[],uint256[])": "88e5b2d9",
    "reclaim(bytes32)": "96afb365",
    "revoke((bytes32,bytes32,uint64,uint64,uint64,bytes32,address,address,bool,bytes))": "e49617e1",
    "version()": "54fd4d50"
  },
  "id": 95
}