{
  "abi": [
    {
      "type": "constructor",
      "inputs": [
        {
          "name": "_eas",
          "type": "address",
          "internalType": "contract IEAS"
        },
        {
          "name": "_schemaRegistry",
          "type": "address",
          "internalType": "contract ISchemaRegistry"
        }
      ],
      "stateMutability": "nonpayable"
    },
    {
      "type": "receive",
      "stateMutability": "payable"
    },
    {
      "type": "function",
      "name": "ATTESTATION_SCHEMA",
      "inputs": [],
      "outputs": [
        {
          "name": "",
          "type": "bytes32",
          "internalType": "bytes32"
        }
      ],
      "stateMutability": "view"
    },
    {
      "type": "function",
      "name": "ATTESTATION_SCHEMA_REVOCABLE",
      "inputs": [],
      "outputs": [
        {
          "name": "",
          "type": "bool",
          "internalType": "bool"
        }
      ],
      "stateMutability": "view"
    },
    {
      "type": "function",
      "name": "attest",
      "inputs": [
        {
          "name": "attestation",
          "type": "tuple",
          "internalType": "struct Attestation",
          "components": [
            {
              "name": "uid",
              "type": "bytes32",
              "internalType": "bytes32"
            },
            {
              "name": "schema",
              "type": "bytes32",
              "internalType": "bytes32"
            },
            {
              "name": "time",
              "type": "uint64",
              "internalType": "uint64"
            },
            {
              "name": "expirationTime",
              "type": "uint64",
              "internalType": "uint64"
            },
            {
              "name": "revocationTime",
              "type": "uint64",
              "internalType": "uint64"
            },
            {
              "name": "refUID",
              "type": "bytes32",
              "internalType": "bytes32"
            },
            {
              "name": "recipient",
              "type": "address",
              "internalType": "address"
            },
            {
              "name": "attester",
              "type": "address",
              "internalType": "address"
            },
            {
              "name": "revocable",
              "type": "bool",
              "internalType": "bool"
            },
            {
              "name": "data",
              "type": "bytes",
              "internalType": "bytes"
            }
          ]
        }
      ],
      "outputs": [
        {
          "name": "",
          "type": "bool",
          "internalType": "bool"
        }
      ],
      "stateMutability": "payable"
    },
    {
      "type": "function",
      "name": "check",
      "inputs": [
        {
          "name": "obligation",
          "type": "tuple",
          "internalType": "struct Attestation",
          "components": [
            {
              "name": "uid",
              "type": "bytes32",
              "internalType": "bytes32"
            },
            {
              "name": "schema",
              "type": "bytes32",
              "internalType": "bytes32"
            },
            {
              "name": "time",
              "type": "uint64",
              "internalType": "uint64"
            },
            {
              "name": "expirationTime",
              "type": "uint64",
              "internalType": "uint64"
            },
            {
              "name": "revocationTime",
              "type": "uint64",
              "internalType": "uint64"
            },
            {
              "name": "refUID",
              "type": "bytes32",
              "internalType": "bytes32"
            },
            {
              "name": "recipient",
              "type": "address",
              "internalType": "address"
            },
            {
              "name": "attester",
              "type": "address",
              "internalType": "address"
            },
            {
              "name": "revocable",
              "type": "bool",
              "internalType": "bool"
            },
            {
              "name": "data",
              "type": "bytes",
              "internalType": "bytes"
            }
          ]
        },
        {
          "name": "demand",
          "type": "bytes",
          "internalType": "bytes"
        },
        {
          "name": "",
          "type": "bytes32",
          "internalType": "bytes32"
        }
      ],
      "outputs": [
        {
          "name": "",
          "type": "bool",
          "internalType": "bool"
        }
      ],
      "stateMutability": "view"
    },
    {
      "type": "function",
      "name": "collect",
      "inputs": [
        {
          "name": "_escrow",
          "type": "bytes32",
          "internalType": "bytes32"
        },
        {
          "name": "_fulfillment",
          "type": "bytes32",
          "internalType": "bytes32"
        }
      ],
      "outputs": [
        {
          "name": "",
          "type": "bytes",
          "internalType": "bytes"
        }
      ],
      "stateMutability": "nonpayable"
    },
    {
      "type": "function",
      "name": "decodeCondition",
      "inputs": [
        {
          "name": "data",
          "type": "bytes",
          "internalType": "bytes"
        }
      ],
      "outputs": [
        {
          "name": "arbiter",
          "type": "address",
          "internalType": "address"
        },
        {
          "name": "demand",
          "type": "bytes",
          "internalType": "bytes"
        }
      ],
      "stateMutability": "pure"
    },
    {
      "type": "function",
      "name": "decodeObligationData",
      "inputs": [
        {
          "name": "data",
          "type": "bytes",
          "internalType": "bytes"
        }
      ],
      "outputs": [
        {
          "name": "",
          "type": "tuple",
          "internalType": "struct AttestationEscrowObligation.ObligationData",
          "components": [
            {
              "name": "arbiter",
              "type": "address",
              "internalType": "address"
            },
            {
              "name": "demand",
              "type": "bytes",
              "internalType": "bytes"
            },
            {
              "name": "attestation",
              "type": "tuple",
              "internalType": "struct AttestationRequest",
              "components": [
                {
                  "name": "schema",
                  "type": "bytes32",
                  "internalType": "bytes32"
                },
                {
                  "name": "data",
                  "type": "tuple",
                  "internalType": "struct AttestationRequestData",
                  "components": [
                    {
                      "name": "recipient",
                      "type": "address",
                      "internalType": "address"
                    },
                    {
                      "name": "expirationTime",
                      "type": "uint64",
                      "internalType": "uint64"
                    },
                    {
                      "name": "revocable",
                      "type": "bool",
                      "internalType": "bool"
                    },
                    {
                      "name": "refUID",
                      "type": "bytes32",
                      "internalType": "bytes32"
                    },
                    {
                      "name": "data",
                      "type": "bytes",
                      "internalType": "bytes"
                    },
                    {
                      "name": "value",
                      "type": "uint256",
                      "internalType": "uint256"
                    }
                  ]
                }
              ]
            }
          ]
        }
      ],
      "stateMutability": "pure"
    },
    {
      "type": "function",
      "name": "doObligation",
      "inputs": [
        {
          "name": "data",
          "type": "tuple",
          "internalType": "struct AttestationEscrowObligation.ObligationData",
          "components": [
            {
              "name": "arbiter",
              "type": "address",
              "internalType": "address"
            },
            {
              "name": "demand",
              "type": "bytes",
              "internalType": "bytes"
            },
            {
              "name": "attestation",
              "type": "tuple",
              "internalType": "struct AttestationRequest",
              "components": [
                {
                  "name": "schema",
                  "type": "bytes32",
                  "internalType": "bytes32"
                },
                {
                  "name": "data",
                  "type": "tuple",
                  "internalType": "struct AttestationRequestData",
                  "components": [
                    {
                      "name": "recipient",
                      "type": "address",
                      "internalType": "address"
                    },
                    {
                      "name": "expirationTime",
                      "type": "uint64",
                      "internalType": "uint64"
                    },
                    {
                      "name": "revocable",
                      "type": "bool",
                      "internalType": "bool"
                    },
                    {
                      "name": "refUID",
                      "type": "bytes32",
                      "internalType": "bytes32"
                    },
                    {
                      "name": "data",
                      "type": "bytes",
                      "internalType": "bytes"
                    },
                    {
                      "name": "value",
                      "type": "uint256",
                      "internalType": "uint256"
                    }
                  ]
                }
              ]
            }
          ]
        },
        {
          "name": "expirationTime",
          "type": "uint64",
          "internalType": "uint64"
        }
      ],
      "outputs": [
        {
          "name": "",
          "type": "bytes32",
          "internalType": "bytes32"
        }
      ],
      "stateMutability": "payable"
    },
    {
      "type": "function",
      "name": "doObligationFor",
      "inputs": [
        {
          "name": "data",
          "type": "tuple",
          "internalType": "struct AttestationEscrowObligation.ObligationData",
          "components": [
            {
              "name": "arbiter",
              "type": "address",
              "internalType": "address"
            },
            {
              "name": "demand",
              "type": "bytes",
              "internalType": "bytes"
            },
            {
              "name": "attestation",
              "type": "tuple",
              "internalType": "struct AttestationRequest",
              "components": [
                {
                  "name": "schema",
                  "type": "bytes32",
                  "internalType": "bytes32"
                },
                {
                  "name": "data",
                  "type": "tuple",
                  "internalType": "struct AttestationRequestData",
                  "components": [
                    {
                      "name": "recipient",
                      "type": "address",
                      "internalType": "address"
                    },
                    {
                      "name": "expirationTime",
                      "type": "uint64",
                      "internalType": "uint64"
                    },
                    {
                      "name": "revocable",
                      "type": "bool",
                      "internalType": "bool"
                    },
                    {
                      "name": "refUID",
                      "type": "bytes32",
                      "internalType": "bytes32"
                    },
                    {
                      "name": "data",
                      "type": "bytes",
                      "internalType": "bytes"
                    },
                    {
                      "name": "value",
                      "type": "uint256",
                      "internalType": "uint256"
                    }
                  ]
                }
              ]
            }
          ]
        },
        {
          "name": "expirationTime",
          "type": "uint64",
          "internalType": "uint64"
        },
        {
          "name": "recipient",
          "type": "address",
          "internalType": "address"
        }
      ],
      "outputs": [
        {
          "name": "",
          "type": "bytes32",
          "internalType": "bytes32"
        }
      ],
      "stateMutability": "payable"
    },
    {
      "type": "function",
      "name": "doObligationRaw",
      "inputs": [
        {
          "name": "data",
          "type": "bytes",
          "internalType": "bytes"
        },
        {
          "name": "expirationTime",
          "type": "uint64",
          "internalType": "uint64"
        },
        {
          "name": "refUID",
          "type": "bytes32",
          "internalType": "bytes32"
        }
      ],
      "outputs": [
        {
          "name": "uid_",
          "type": "bytes32",
          "internalType": "bytes32"
        }
      ],
      "stateMutability": "payable"
    },
    {
      "type": "function",
      "name": "getObligationData",
      "inputs": [
        {
          "name": "uid",
          "type": "bytes32",
          "internalType": "bytes32"
        }
      ],
      "outputs": [
        {
          "name": "",
          "type": "tuple",
          "internalType": "struct AttestationEscrowObligation.ObligationData",
          "components": [
            {
              "name": "arbiter",
              "type": "address",
              "internalType": "address"
            },
            {
              "name": "demand",
              "type": "bytes",
              "internalType": "bytes"
            },
            {
              "name": "attestation",
              "type": "tuple",
              "internalType": "struct AttestationRequest",
              "components": [
                {
                  "name": "schema",
                  "type": "bytes32",
                  "internalType": "bytes32"
                },
                {
                  "name": "data",
                  "type": "tuple",
                  "internalType": "struct AttestationRequestData",
                  "components": [
                    {
                      "name": "recipient",
                      "type": "address",
                      "internalType": "address"
                    },
                    {
                      "name": "expirationTime",
                      "type": "uint64",
                      "internalType": "uint64"
                    },
                    {
                      "name": "revocable",
                      "type": "bool",
                      "internalType": "bool"
                    },
                    {
                      "name": "refUID",
                      "type": "bytes32",
                      "internalType": "bytes32"
                    },
                    {
                      "name": "data",
                      "type": "bytes",
                      "internalType": "bytes"
                    },
                    {
                      "name": "value",
                      "type": "uint256",
                      "internalType": "uint256"
                    }
                  ]
                }
              ]
            }
          ]
        }
      ],
      "stateMutability": "view"
    },
    {
      "type": "function",
      "name": "getSchema",
      "inputs": [],
      "outputs": [
        {
          "name": "",
          "type": "tuple",
          "internalType": "struct SchemaRecord",
          "components": [
            {
              "name": "uid",
              "type": "bytes32",
              "internalType": "bytes32"
            },
            {
              "name": "resolver",
              "type": "address",
              "internalType": "contract ISchemaResolver"
            },
            {
              "name": "revocable",
              "type": "bool",
              "internalType": "bool"
            },
            {
              "name": "schema",
              "type": "string",
              "internalType": "string"
            }
          ]
        }
      ],
      "stateMutability": "view"
    },
    {
      "type": "function",
      "name": "isPayable",
      "inputs": [],
      "outputs": [
        {
          "name": "",
          "type": "bool",
          "internalType": "bool"
        }
      ],
      "stateMutability": "pure"
    },
    {
      "type": "function",
      "name": "multiAttest",
      "inputs": [
        {
          "name": "attestations",
          "type": "tuple[]",
          "internalType": "struct Attestation[]",
          "components": [
            {
              "name": "uid",
              "type": "bytes32",
              "internalType": "bytes32"
            },
            {
              "name": "schema",
              "type": "bytes32",
              "internalType": "bytes32"
            },
            {
              "name": "time",
              "type": "uint64",
              "internalType": "uint64"
            },
            {
              "name": "expirationTime",
              "type": "uint64",
              "internalType": "uint64"
            },
            {
              "name": "revocationTime",
              "type": "uint64",
              "internalType": "uint64"
            },
            {
              "name": "refUID",
              "type": "bytes32",
              "internalType": "bytes32"
            },
            {
              "name": "recipient",
              "type": "address",
              "internalType": "address"
            },
            {
              "name": "attester",
              "type": "address",
              "internalType": "address"
            },
            {
              "name": "revocable",
              "type": "bool",
              "internalType": "bool"
            },
            {
              "name": "data",
              "type": "bytes",
              "internalType": "bytes"
            }
          ]
        },
        {
          "name": "values",
          "type": "uint256[]",
          "internalType": "uint256[]"
        }
      ],
      "outputs": [
        {
          "name": "",
          "type": "bool",
          "internalType": "bool"
        }
      ],
      "stateMutability": "payable"
    },
    {
      "type": "function",
      "name": "multiRevoke",
      "inputs": [
        {
          "name": "attestations",
          "type": "tuple[]",
          "internalType": "struct Attestation[]",
          "components": [
            {
              "name": "uid",
              "type": "bytes32",
              "internalType": "bytes32"
            },
            {
              "name": "schema",
              "type": "bytes32",
              "internalType": "bytes32"
            },
            {
              "name": "time",
              "type": "uint64",
              "internalType": "uint64"
            },
            {
              "name": "expirationTime",
              "type": "uint64",
              "internalType": "uint64"
            },
            {
              "name": "revocationTime",
              "type": "uint64",
              "internalType": "uint64"
            },
            {
              "name": "refUID",
              "type": "bytes32",
              "internalType": "bytes32"
            },
            {
              "name": "recipient",
              "type": "address",
              "internalType": "address"
            },
            {
              "name": "attester",
              "type": "address",
              "internalType": "address"
            },
            {
              "name": "revocable",
              "type": "bool",
              "internalType": "bool"
            },
            {
              "name": "data",
              "type": "bytes",
              "internalType": "bytes"
            }
          ]
        },
        {
          "name": "values",
          "type": "uint256[]",
          "internalType": "uint256[]"
        }
      ],
      "outputs": [
        {
          "name": "",
          "type": "bool",
          "internalType": "bool"
        }
      ],
      "stateMutability": "payable"
    },
    {
      "type": "function",
      "name": "reclaim",
      "inputs": [
        {
          "name": "uid",
          "type": "bytes32",
          "internalType": "bytes32"
        }
      ],
      "outputs": [
        {
          "name": "",
          "type": "bool",
          "internalType": "bool"
        }
      ],
      "stateMutability": "nonpayable"
    },
    {
      "type": "function",
      "name": "revoke",
      "inputs": [
        {
          "name": "attestation",
          "type": "tuple",
          "internalType": "struct Attestation",
          "components": [
            {
              "name": "uid",
              "type": "bytes32",
              "internalType": "bytes32"
            },
            {
              "name": "schema",
              "type": "bytes32",
              "internalType": "bytes32"
            },
            {
              "name": "time",
              "type": "uint64",
              "internalType": "uint64"
            },
            {
              "name": "expirationTime",
              "type": "uint64",
              "internalType": "uint64"
            },
            {
              "name": "revocationTime",
              "type": "uint64",
              "internalType": "uint64"
            },
            {
              "name": "refUID",
              "type": "bytes32",
              "internalType": "bytes32"
            },
            {
              "name": "recipient",
              "type": "address",
              "internalType": "address"
            },
            {
              "name": "attester",
              "type": "address",
              "internalType": "address"
            },
            {
              "name": "revocable",
              "type": "bool",
              "internalType": "bool"
            },
            {
              "name": "data",
              "type": "bytes",
              "internalType": "bytes"
            }
          ]
        }
      ],
      "outputs": [
        {
          "name": "",
          "type": "bool",
          "internalType": "bool"
        }
      ],
      "stateMutability": "payable"
    },
    {
      "type": "function",
      "name": "supportsInterface",
      "inputs": [
        {
          "name": "interfaceId",
          "type": "bytes4",
          "internalType": "bytes4"
        }
      ],
      "outputs": [
        {
          "name": "",
          "type": "bool",
          "internalType": "bool"
        }
      ],
      "stateMutability": "view"
    },
    {
      "type": "function",
      "name": "version",
      "inputs": [],
      "outputs": [
        {
          "name": "",
          "type": "string",
          "internalType": "string"
        }
      ],
      "stateMutability": "view"
    },
    {
      "type": "event",
      "name": "EscrowCollected",
      "inputs": [
        {
          "name": "escrowUid",
          "type": "bytes32",
          "indexed": true,
          "internalType": "bytes32"
        },
        {
          "name": "fulfillmentUid",
          "type": "bytes32",
          "indexed": true,
          "internalType": "bytes32"
        },
        {
          "name": "fulfiller",
          "type": "address",
          "indexed": true,
          "internalType": "address"
        }
      ],
      "anonymous": false
    },
    {
      "type": "event",
      "name": "EscrowMade",
      "inputs": [
        {
          "name": "escrowUid",
          "type": "bytes32",
          "indexed": true,
          "internalType": "bytes32"
        },
        {
          "name": "escrower",
          "type": "address",
          "indexed": true,
          "internalType": "address"
        }
      ],
      "anonymous": false
    },
    {
      "type": "event",
      "name": "EscrowReclaimed",
      "inputs": [
        {
          "name": "escrowUid",
          "type": "bytes32",
          "indexed": true,
          "internalType": "bytes32"
        },
        {
          "name": "escrower",
          "type": "address",
          "indexed": true,
          "internalType": "address"
        }
      ],
      "anonymous": false
    },
    {
      "type": "error",
      "name": "AccessDenied",
      "inputs": []
    },
    {
      "type": "error",
      "name": "AttestationCreationFailed",
      "inputs": []
    },
    {
      "type": "error",
      "name": "AttestationNotFound",
      "inputs": [
        {
          "name": "attestationId",
          "type": "bytes32",
          "internalType": "bytes32"
        }
      ]
    },
    {
      "type": "error",
      "name": "AttestationRevoked",
      "inputs": []
    },
    {
      "type": "error",
      "name": "DeadlineExpired",
      "inputs": []
    },
    {
      "type": "error",
      "name": "IncorrectPayment",
      "inputs": [
        {
          "name": "expected",
          "type": "uint256",
          "internalType": "uint256"
        },
        {
          "name": "received",
          "type": "uint256",
          "internalType": "uint256"
        }
      ]
    },
    {
      "type": "error",
      "name": "InsufficientValue",
      "inputs": []
    },
    {
      "type": "error",
      "name": "InvalidAttestationUid",
      "inputs": []
    },
    {
      "type": "error",
      "name": "InvalidEAS",
      "inputs": []
    },
    {
      "type": "error",
      "name": "InvalidEscrowAttestation",
      "inputs": []
    },
    {
      "type": "error",
      "name": "InvalidFulfillment",
      "inputs": []
    },
    {
      "type": "error",
      "name": "InvalidLength",
      "inputs": []
    },
    {
      "type": "error",
      "name": "NativeTokenTransferFailed",
      "inputs": [
        {
          "name": "to",
          "type": "address",
          "internalType": "address"
        },
        {
          "name": "amount",
          "type": "uint256",
          "internalType": "uint256"
        }
      ]
    },
    {
      "type": "error",
      "name": "NotFromThisAttester",
      "inputs": []
    },
    {
      "type": "error",
      "name": "NotPayable",
      "inputs": []
    },
    {
      "type": "error",
      "name": "ReentrancyGuardReentrantCall",
      "inputs": []
    },
    {
      "type": "error",
      "name": "RevocationFailed",
      "inputs": [
        {
          "name": "attestationId",
          "type": "bytes32",
          "internalType": "bytes32"
        }
      ]
    },
    {
      "type": "error",
      "name": "SchemaRegistrationFailed",
      "inputs": [
        {
          "name": "uid",
          "type": "bytes32",
          "internalType": "bytes32"
        }
      ]
    },
    {
      "type": "error",
      "name": "UnauthorizedCall",
      "inputs": []
    },
    {
      "type": "error",
      "name": "UnsupportedRevocableAttestation",
      "inputs": []
    }
  ],
  "bytecode": {
    "object": "0x6101808060405234610265576040816126de80380380916100208285610269565b833981010312610265578051906001600160a01b0382169081830361026557602001516001600160a01b0381169190828103610265576040519161006560e084610269565b60b183527f6164647265737320617262697465722c2062797465732064656d616e642c207460208401527f75706c65286279746573333220736368656d612c207475706c6528616464726560408401527f737320726563697069656e742c2075696e7436342065787069726174696f6e5460608401527f696d652c20626f6f6c207265766f6361626c652c20627974657333322072656660808401527f5549442c20627974657320646174612c2075696e743235362076616c7565292060a0840152703230ba30949030ba3a32b9ba30ba34b7b760791b60c08401526001608052600360a0525f60c0521561025657836101719460e05261012052610100526001610160523091610384565b6101405260017f9b779b17422d0df92223018b32b4d1fa46e071723d6817e2486d003becc55f005560405161217e9081610560823960805181611133015260a0518161115e015260c05181611189015260e05181611c4f01526101005181610faa01526101205181818161029901528181610779015281816109c301528181610bf301528181611e2a0152611f9301526101405181818161013d015281816107b90152818161090c01528181610ba401528181610f78015281816110f1015281816118510152611efb01526101605181818161085c0152818161094f0152611f470152f35b6341bc07ff60e11b5f5260045ffd5b5f80fd5b601f909101601f19168101906001600160401b0382119082101761028c57604052565b634e487b7160e01b5f52604160045260245ffd5b602081830312610265578051906001600160401b0382116102655701906080828203126102655760405191608083016001600160401b0381118482101761028c576040528051835260208101516001600160a01b0381168103610265576020840152604081015180151581036102655760408401526060810151906001600160401b038211610265570181601f82011215610265578051906001600160401b03821161028c576040519261035e601f8401601f191660200185610269565b8284526020838301011161026557815f9260208093018386015e83010152606082015290565b929160405190602082018351926103ce6015602083818901978089885e810160018060601b03198860601b1683820152600160f81b60348201520301600a19810184520182610269565b5190206040516351753e3760e11b81526004810182905290956001600160a01b031693905f81602481885afa80156104df5787915f91610545575b50511461053f579060846020926040519485938492630c1af44f60e31b8452606060048501525180928160648601528585015e5f84838501015260018060a01b0316602483015260016044830152601f801991011681010301815f865af15f918161050b575b506104ea57505f602491604051928380926351753e3760e11b82528760048301525afa80156104df5783915f916104bd575b5051146104bb5750639e6113d560e01b5f5260045260245ffd5b565b6104d991503d805f833e6104d18183610269565b8101906102a0565b5f6104a1565b6040513d5f823e3d90fd5b919280915082036104f9575090565b639e6113d560e01b5f5260045260245ffd5b9091506020813d602011610537575b8161052760209383610269565b810103126102655751905f61046f565b3d915061051a565b50505050565b61055991503d805f833e6104d18183610269565b5f61040956fe6080806040526004361015610029575b50361561001a575f80fd5b631574f9f360e01b5f5260045ffd5b5f905f3560e01c90816301ffc9a7146112165750806354fd4d50146111145780635bf2f20d146110da5780636b122fe014610f39578063760bd11814610edb57806388e5b2d914610da65780638da3721a14610dc557806391db0b7e14610da657806396afb36514610b755780639c13d80e14610af8578063b3b902d414610881578063b587a5eb14610844578063c6ec507014610738578063c93844be146105af578063cce1f5611461053f578063ce46e04614610523578063e49617e1146104fe578063e60c3505146104fe5763ea6ec49c0361000f57346104fb5760403660031901126104fb5760243590600435610122611ca7565b61012b81611e04565b9261013581611e04565b9360208101517f000000000000000000000000000000000000000000000000000000000000000080910361046c5761016c826120b6565b1561046c57610120820191610181835161177d565b60a089019283518151036104ec576101988a6120b6565b156104ec5751604080516346d1b90d60e11b81526060600482018190528c51606483015260208d01516084830152918c01516001600160401b0390811660a4830152918c0151821660c482015260808c015190911660e4820152935161010485015260c08a0180516001600160a01b0390811661012487015260e08c0151166101448601526101008b01511515610164860152610120909a0151610140610184860152849283929161024f906101a4850190611294565b83810360031901602485015261026491611294565b60448301919091526001600160a01b039093169203815a93602094fa9081156104e15786916104a3575b5015610494576040517f00000000000000000000000000000000000000000000000000000000000000006001600160a01b031692906102cc81611303565b858152866020820152604051906102e282611303565b8382526020820152833b1561049057604051634692626760e01b8152815160048201526020918201518051602483015290910151604482015286808260648183895af1918261047b575b50506103465763614cf93960e01b86526004859052602486fd5b61035c604091516020808251830101910161164b565b01908151511461046c5761039a602091519260a08385015101519360405194858094819363f17325e760e01b835287600484015260248301906114dc565b03925af1849181610434575b506103ba57638d7100d760e01b8452600484fd5b917ff96e77bc177ae8e2ff25185e7c6d85f8ba97c8bdd9d46933aac70a7a33edf6c094916104309392604051936020850152602084526103fb604085611354565b516040519687966001600160a01b03909216939180a460015f5160206121295f395f51905f5255602083526020830190611294565b0390f35b9091506020813d602011610464575b8161045060209383611354565b810103126104605751905f6103a6565b5f80fd5b3d9150610443565b63629cd40b60e11b8552600485fd5b8161048591611354565b61049057865f61032c565b8680fd5b630ebe58ef60e11b8552600485fd5b90506020813d6020116104d9575b816104be60209383611354565b810103126104d5576104cf906115c6565b5f61028e565b8580fd5b3d91506104b1565b6040513d88823e3d90fd5b630ebe58ef60e11b8952600489fd5b80fd5b602061051961050c36611592565b610514611c4d565b611c8e565b6040519015158152f35b50346104fb57806003193601126104fb57602090604051908152f35b5060403660031901126104fb57600435906001600160401b0382116104fb57606060031983360301126104fb5760206105a7610592846105a0610580611464565b91604051938491600401878301611988565b03601f198101845283611354565b3391611eb2565b604051908152f35b50346104fb5760203660031901126104fb576004356001600160401b038111610730576105e09036906004016114af565b6105eb929192611a82565b50820191602081840312610730578035906001600160401b0382116107345701906060828403126104fb57604051916106238361131e565b61062c8161148e565b835260208101356001600160401b038111610734578461064d9183016113c6565b60208401526040810135906001600160401b0382116107345701906040828503126104fb576040519161067f83611303565b803583526020810135906001600160401b03821161073457019360c08582031261073057604051916106b083611339565b6106b98661148e565b83526106c76020870161147a565b60208401526106d8604087016114a2565b6040840152606086013560608401526080860135906001600160401b0382116104fb57509461070e60a0926104309783016113c6565b6080840152013560a0820152602082015260408201526040519182918261154b565b5080fd5b8280fd5b50346104fb5760203660031901126104fb57610752611a82565b5061075b611cdf565b506040516328c44a9960e21b815260048035908201529080826024817f00000000000000000000000000000000000000000000000000000000000000006001600160a01b03165afa918215610837578192610813575b5060208201517f000000000000000000000000000000000000000000000000000000000000000003610804576104306107f86101208401516020808251830101910161164b565b6040519182918261154b565b635527981560e11b8152600490fd5b6108309192503d8084833e6108288183611354565b810190611d29565b905f6107b1565b50604051903d90823e3d90fd5b50346104fb57806003193601126104fb5760206040517f000000000000000000000000000000000000000000000000000000000000000015158152f35b5060603660031901126104fb576004356001600160401b038111610730576108ad9036906004016114af565b90916108c66108ba611464565b93604435933691611390565b6108ce611ca7565b60406108e3602083518401016020840161164b565b0160406020825101510151610ae957602060a091510151015193843403610ad1576109be9394507f0000000000000000000000000000000000000000000000000000000000000000906001600160401b036040519161094183611339565b3383521680602083015260207f00000000000000000000000000000000000000000000000000000000000000001515928360408201528860608201528560808201528660a08201526040519061099682611303565b858252828201526040518098819263f17325e760e01b835284600484015260248301906114dc565b0381887f00000000000000000000000000000000000000000000000000000000000000006001600160a01b03165af1958615610ac6578596610a8b575b5090602096610120939260405193610a12856112e7565b888552898501526001600160401b0342166040850152606084015285608084015260a08301523360c08301523060e08301526101008201520152817f8f7f2dbafd79125e808bf16a53d7fa4e17b8b6374ced76d946a45f94b7bf4d06339280a360015f5160206121295f395f51905f5255604051908152f35b92919095506020833d602011610abe575b81610aa960209383611354565b810103126104605791519490919060206109fb565b3d9150610a9c565b6040513d87823e3d90fd5b630d35e92160e01b8352600485905234602452604483fd5b63c24c119360e01b8352600483fd5b5060603660031901126104fb576004356001600160401b038111610730576060600319823603011261073057610b2c611464565b604435929091906001600160a01b03841684036104fb5760206105a78585610b62610b7087604051928391600401888301611988565b03601f198101835282611354565b611eb2565b50346104605760203660031901126104605760043590610b93611ca7565b610b9c82611e04565b9160208301517f0000000000000000000000000000000000000000000000000000000000000000809103610d9757606084016001600160401b0381511615610d8857516001600160401b03164210610d88576040517f00000000000000000000000000000000000000000000000000000000000000006001600160a01b031690610c2581611303565b8381525f602082015260405192610c3b84611303565b83526020830152803b1561046057604051634692626760e01b815282516004820152602092830151805160248301529092015160448301525f908290606490829084905af19081610d73575b50610c9f5763614cf93960e01b825260045260249150fd5b60c0830160a060206040610cc9610120600180861b0386511698015183808251830101910161164b565b01510151015180610d23575b506020935060018060a01b03905116907f655ef333d5efcbf5aa343f02bcd9e3539f9c9f9ee8b9cfa7d8910b1bd7e0a8326040519380a360015f5160206121295f395f51905f525560018152f35b8380808084895af13d15610d6e573d610d3b81611375565b90610d496040519283611354565b81528560203d92013e5b610cd5576338f0620160e21b84526004859052602452604483fd5b610d53565b610d809193505f90611354565b5f915f610c87565b637bf6a16f60e01b5f5260045ffd5b63629cd40b60e11b5f5260045ffd5b6020610519610db436611414565b92610dc0929192611c4d565b6117a6565b34610460576060366003190112610460576004356001600160401b0381116104605761014060031982360301126104605760405190610e03826112e7565b8060040135825260248101356020830152610e206044820161147a565b6040830152610e316064820161147a565b6060830152610e426084820161147a565b608083015260a481013560a0830152610e5d60c4820161148e565b60c0830152610e6e60e4820161148e565b60e0830152610e8061010482016114a2565b610100830152610124810135906001600160401b038211610460576004610eaa92369201016113c6565b6101208201526024356001600160401b03811161046057602091610ed56105199236906004016113c6565b9061184a565b34610460576020366003190112610460576004356001600160401b03811161046057610f0e610f139136906004016113c6565b61177d565b604080516001600160a01b03909316835260208301819052829161043091830190611294565b34610460575f36600319011261046057606080604051610f58816112b8565b5f81525f60208201525f604082015201526040516351753e3760e11b81527f000000000000000000000000000000000000000000000000000000000000000060048201525f8160248160018060a01b037f0000000000000000000000000000000000000000000000000000000000000000165afa80156110cf575f9061101f575b606090610430604051928392602084528051602085015260018060a01b0360208201511660408501526040810151151582850152015160808084015260a0830190611294565b503d805f833e61102f8183611354565b810190602081830312610460578051906001600160401b03821161046057016080818303126104605760405190611065826112b8565b8051825260208101516001600160a01b038116810361046057602083015261108f604082016115c6565b60408301526060810151906001600160401b038211610460570182601f82011215610460576060928160206110c6935191016115d3565b82820152610fd9565b6040513d5f823e3d90fd5b34610460575f3660031901126104605760206040517f00000000000000000000000000000000000000000000000000000000000000008152f35b34610460575f36600319011261046057610430602061120260016111577f0000000000000000000000000000000000000000000000000000000000000000611ae0565b81846111827f0000000000000000000000000000000000000000000000000000000000000000611ae0565b81806111ad7f0000000000000000000000000000000000000000000000000000000000000000611ae0565b9260405199878b985191829101848a015e870190601760f91b83830152805192839101602183015e010190601760f91b84830152805192839101600283015e01015f838201520301601f198101835282611354565b604051918291602083526020830190611294565b34610460576020366003190112610460576004359063ffffffff60e01b8216809203610460576020916346d1b90d60e11b8114908115908161125b575b505015158152f35b90611269575b508380611253565b630acaa6e160e01b811491508115611283575b5083611261565b6301ffc9a760e01b1490508361127c565b805180835260209291819084018484015e5f828201840152601f01601f1916010190565b608081019081106001600160401b038211176112d357604052565b634e487b7160e01b5f52604160045260245ffd5b61014081019081106001600160401b038211176112d357604052565b604081019081106001600160401b038211176112d357604052565b606081019081106001600160401b038211176112d357604052565b60c081019081106001600160401b038211176112d357604052565b90601f801991011681019081106001600160401b038211176112d357604052565b6001600160401b0381116112d357601f01601f191660200190565b92919261139c82611375565b916113aa6040519384611354565b829481845281830111610460578281602093845f960137010152565b9080601f83011215610460578160206113e193359101611390565b90565b9181601f84011215610460578235916001600160401b038311610460576020808501948460051b01011161046057565b6040600319820112610460576004356001600160401b038111610460578161143e916004016113e4565b92909291602435906001600160401b03821161046057611460916004016113e4565b9091565b602435906001600160401b038216820361046057565b35906001600160401b038216820361046057565b35906001600160a01b038216820361046057565b3590811515820361046057565b9181601f84011215610460578235916001600160401b038311610460576020838186019501011161046057565b602090805183520151906040602082015260018060a01b0382511660408201526001600160401b036020830151166060820152604082015115156080820152606082015160a082015260e060a0611542608085015160c080860152610100850190611294565b93015191015290565b906113e1916020815260018060a01b038251166020820152604061157d60208401516060838501526080840190611294565b920151906060601f19828503019101526114dc565b602060031982011261046057600435906001600160401b038211610460576101409082900360031901126104605760040190565b5190811515820361046057565b9291926115df82611375565b916115ed6040519384611354565b829481845281830111610460578281602093845f96015e010152565b51906001600160a01b038216820361046057565b9080601f830112156104605781516113e1926020016115d3565b51906001600160401b038216820361046057565b602081830312610460578051906001600160401b038211610460570190606082820312610460576040519161167f8361131e565b61168881611609565b835260208101516001600160401b03811161046057826116a991830161161d565b60208401526040810151906001600160401b03821161046057019060408282031261046057604051916116db83611303565b805183526020810151906001600160401b03821161046057019060c082820312610460576040519161170c83611339565b61171581611609565b835261172360208201611637565b6020840152611734604082016115c6565b60408401526060810151606084015260808101516001600160401b0381116104605760a09261176491830161161d565b6080840152015160a08201526020820152604082015290565b611790906020808251830101910161164b565b80516020909101516001600160a01b0390911691565b92909281840361183b575f91345b85841015611830578184101561181c578360051b808601359082821161180d5784013561013e1985360301811215610460576117f1908501611c8e565b1561180257600191039301926117b4565b505050505050505f90565b63044044a560e21b5f5260045ffd5b634e487b7160e01b5f52603260045260245ffd5b505050505050600190565b63251f56a160e21b5f5260045ffd5b60208101517f000000000000000000000000000000000000000000000000000000000000000003611931576118906101206118a09201516020808251830101910161164b565b916020808251830101910161164b565b60408201516040516118c281610b6260208201946020865260408301906114dc565b51902060408201516040516118e781610b6260208201946020865260408301906114dc565b519020149182611918575b826118fc57505090565b6020919250810151818151910120910151602081519101201490565b805182516001600160a01b0390811691161492506118f2565b50505f90565b9035601e19823603018112156104605701602081359101916001600160401b03821161046057813603831361046057565b908060209392818452848401375f828201840152601f01601f1916010190565b602081526001600160a01b0361199d8361148e565b1660208201526119c46119b36020840184611937565b606060408501526080840191611968565b916040810135603e19823603018112156104605701906060601f198285030191015280358252602081013560be1982360301811215610460576040602084015201906001600160a01b03611a178361148e565b1660408201526001600160401b03611a316020840161147a565b166060820152611a43604083016114a2565b15156080820152606082013560a082015260e060a0611a79611a686080860186611937565b60c080870152610100860191611968565b93013591015290565b60405190611a8f8261131e565b815f8152606060208201526040805191611aa883611303565b5f83528151611ab681611339565b5f81525f60208201525f838201525f6060820152606060808201525f60a082015260208401520152565b805f9172184f03e93ff9f4daa797ed6e38ed64bf6a1f0160401b821015611c2a575b806d04ee2d6d415b85acef8100000000600a921015611c0f575b662386f26fc10000811015611bfb575b6305f5e100811015611bea575b612710811015611bdb575b6064811015611bcd575b1015611bc2575b600a60216001840193611b6785611375565b94611b756040519687611354565b808652611b84601f1991611375565b013660208701378401015b5f1901916f181899199a1a9b1b9c1cb0b131b232b360811b8282061a8353048015611bbd57600a9091611b8f565b505090565b600190910190611b55565b606460029104930192611b4e565b61271060049104930192611b44565b6305f5e10060089104930192611b39565b662386f26fc1000060109104930192611b2c565b6d04ee2d6d415b85acef810000000060209104930192611b1c565b506040915072184f03e93ff9f4daa797ed6e38ed64bf6a1f0160401b8104611b02565b7f00000000000000000000000000000000000000000000000000000000000000006001600160a01b03163303611c7f57565b634ca8886760e01b5f5260045ffd5b60e0013560018060a01b03811680910361046057301490565b60025f5160206121295f395f51905f525414611cd05760025f5160206121295f395f51905f5255565b633ee5aeb560e01b5f5260045ffd5b60405190611cec826112e7565b6060610120835f81525f60208201525f60408201525f838201525f60808201525f60a08201525f60c08201525f60e08201525f6101008201520152565b602081830312610460578051906001600160401b0382116104605701610140818303126104605760405191611d5d836112e7565b8151835260208201516020840152611d7760408301611637565b6040840152611d8860608301611637565b6060840152611d9960808301611637565b608084015260a082015160a0840152611db460c08301611609565b60c0840152611dc560e08301611609565b60e0840152611dd761010083016115c6565b6101008401526101208201516001600160401b03811161046057611dfb920161161d565b61012082015290565b90611e0d611cdf565b506040516328c44a9960e21b815260048101839052915f836024817f00000000000000000000000000000000000000000000000000000000000000006001600160a01b03165afa9283156110cf575f93611e96575b508251818115918215611e8b575b5050611e795750565b6301fb6dd160e01b5f5260045260245ffd5b14159050815f611e70565b611eab9193503d805f833e6108288183611354565b915f611e62565b929192611ebd611ca7565b6040611ed2602083518401016020840161164b565b01604060208251015101516120a757602060a09151015101519384340361209057611f8e9394507f0000000000000000000000000000000000000000000000000000000000000000906001600160401b0360405191611f3083611339565b60018060a01b0316948583521680602083015260207f00000000000000000000000000000000000000000000000000000000000000001515928360408201525f60608201528560808201525f60a08201526040519061099682611303565b03815f7f00000000000000000000000000000000000000000000000000000000000000006001600160a01b03165af19586156110cf575f96612054575b5090610120929160405192611fdf846112e7565b87845260208401526001600160401b034216604084015260608301525f60808301525f60a08301528460c08301523060e08301526101008201520152817f8f7f2dbafd79125e808bf16a53d7fa4e17b8b6374ced76d946a45f94b7bf4d065f80a39060015f5160206121295f395f51905f5255565b92919095506020833d602011612088575b8161207260209383611354565b8101031261046057610120925195909192611fcb565b3d9150612065565b84630d35e92160e01b5f526004523460245260445ffd5b63c24c119360e01b5f5260045ffd5b805115612119576001600160401b03606082015116801515908161210e575b506120ff57608001516001600160401b03166120f057600190565b637b6227e960e11b5f5260045ffd5b631ab7da6b60e01b5f5260045ffd5b90504210155f6120d5565b635c2c7f8960e01b5f5260045ffdfe9b779b17422d0df92223018b32b4d1fa46e071723d6817e2486d003becc55f00a2646970667358221220535f464fe70e7639df5bfc3720b2596b3845ddad5b6216da5d3e095ef603ac1b64736f6c634300081b0033",
    "linkReferences": {}
  },
  "methodIdentifiers": {
    "ATTESTATION_SCHEMA()": "5bf2f20d",
    "ATTESTATION_SCHEMA_REVOCABLE()": "b587a5eb",
    "attest((bytes32,bytes32,uint64,uint64,uint64,bytes32,address,address,bool,bytes))": "e60c3505",
    "check((bytes32,bytes32,uint64,uint64,uint64,bytes32,address,address,bool,bytes),bytes,bytes32)": "8da3721a",
    "collect(bytes32,bytes32)": "ea6ec49c",
    "decodeCondition(bytes)": "760bd118",
    "decodeObligationData(bytes)": "c93844be",
    "doObligation((address,bytes,(bytes32,(address,uint64,bool,bytes32,bytes,uint256))),uint64)": "cce1f561",
    "doObligationFor((address,bytes,(bytes32,(address,uint64,bool,bytes32,bytes,uint256))),uint64,address)": "9c13d80e",
    "doObligationRaw(bytes,uint64,bytes32)": "b3b902d4",
    "getObligationData(bytes32)": "c6ec5070",
    "getSchema()": "6b122fe0",
    "isPayable()": "ce46e046",
    "multiAttest((bytes32,bytes32,uint64,uint64,uint64,bytes32,address,address,bool,bytes)[],uint256[])": "91db0b7e",
    "multiRevoke((bytes32,bytes32,uint64,uint64,uint64,bytes32,address,address,bool,bytes)[],uint256[])": "88e5b2d9",
    "reclaim(bytes32)": "96afb365",
    "revoke((bytes32,bytes32,uint64,uint64,uint64,bytes32,address,address,bool,bytes))": "e49617e1",
    "supportsInterface(bytes4)": "01ffc9a7",
    "version()": "54fd4d50"
  },
  "id": 75
}