{
  "abi": [
    {
      "type": "constructor",
      "inputs": [
        {
          "name": "_eas",
          "type": "address",
          "internalType": "contract IEAS"
        },
        {
          "name": "_schemaRegistry",
          "type": "address",
          "internalType": "contract ISchemaRegistry"
        }
      ],
      "stateMutability": "nonpayable"
    },
    {
      "type": "receive",
      "stateMutability": "payable"
    },
    {
      "type": "function",
      "name": "ATTESTATION_SCHEMA",
      "inputs": [],
      "outputs": [
        {
          "name": "",
          "type": "bytes32",
          "internalType": "bytes32"
        }
      ],
      "stateMutability": "view"
    },
    {
      "type": "function",
      "name": "ATTESTATION_SCHEMA_REVOCABLE",
      "inputs": [],
      "outputs": [
        {
          "name": "",
          "type": "bool",
          "internalType": "bool"
        }
      ],
      "stateMutability": "view"
    },
    {
      "type": "function",
      "name": "MAX_BUNDLE_ITEMS",
      "inputs": [],
      "outputs": [
        {
          "name": "",
          "type": "uint256",
          "internalType": "uint256"
        }
      ],
      "stateMutability": "view"
    },
    {
      "type": "function",
      "name": "attest",
      "inputs": [
        {
          "name": "attestation",
          "type": "tuple",
          "internalType": "struct Attestation",
          "components": [
            {
              "name": "uid",
              "type": "bytes32",
              "internalType": "bytes32"
            },
            {
              "name": "schema",
              "type": "bytes32",
              "internalType": "bytes32"
            },
            {
              "name": "time",
              "type": "uint64",
              "internalType": "uint64"
            },
            {
              "name": "expirationTime",
              "type": "uint64",
              "internalType": "uint64"
            },
            {
              "name": "revocationTime",
              "type": "uint64",
              "internalType": "uint64"
            },
            {
              "name": "refUID",
              "type": "bytes32",
              "internalType": "bytes32"
            },
            {
              "name": "recipient",
              "type": "address",
              "internalType": "address"
            },
            {
              "name": "attester",
              "type": "address",
              "internalType": "address"
            },
            {
              "name": "revocable",
              "type": "bool",
              "internalType": "bool"
            },
            {
              "name": "data",
              "type": "bytes",
              "internalType": "bytes"
            }
          ]
        }
      ],
      "outputs": [
        {
          "name": "",
          "type": "bool",
          "internalType": "bool"
        }
      ],
      "stateMutability": "payable"
    },
    {
      "type": "function",
      "name": "check",
      "inputs": [
        {
          "name": "obligation",
          "type": "tuple",
          "internalType": "struct Attestation",
          "components": [
            {
              "name": "uid",
              "type": "bytes32",
              "internalType": "bytes32"
            },
            {
              "name": "schema",
              "type": "bytes32",
              "internalType": "bytes32"
            },
            {
              "name": "time",
              "type": "uint64",
              "internalType": "uint64"
            },
            {
              "name": "expirationTime",
              "type": "uint64",
              "internalType": "uint64"
            },
            {
              "name": "revocationTime",
              "type": "uint64",
              "internalType": "uint64"
            },
            {
              "name": "refUID",
              "type": "bytes32",
              "internalType": "bytes32"
            },
            {
              "name": "recipient",
              "type": "address",
              "internalType": "address"
            },
            {
              "name": "attester",
              "type": "address",
              "internalType": "address"
            },
            {
              "name": "revocable",
              "type": "bool",
              "internalType": "bool"
            },
            {
              "name": "data",
              "type": "bytes",
              "internalType": "bytes"
            }
          ]
        },
        {
          "name": "demand",
          "type": "bytes",
          "internalType": "bytes"
        },
        {
          "name": "",
          "type": "bytes32",
          "internalType": "bytes32"
        }
      ],
      "outputs": [
        {
          "name": "",
          "type": "bool",
          "internalType": "bool"
        }
      ],
      "stateMutability": "view"
    },
    {
      "type": "function",
      "name": "collect",
      "inputs": [
        {
          "name": "_escrow",
          "type": "bytes32",
          "internalType": "bytes32"
        },
        {
          "name": "_fulfillment",
          "type": "bytes32",
          "internalType": "bytes32"
        }
      ],
      "outputs": [
        {
          "name": "",
          "type": "bytes",
          "internalType": "bytes"
        }
      ],
      "stateMutability": "nonpayable"
    },
    {
      "type": "function",
      "name": "decodeCondition",
      "inputs": [
        {
          "name": "data",
          "type": "bytes",
          "internalType": "bytes"
        }
      ],
      "outputs": [
        {
          "name": "arbiter",
          "type": "address",
          "internalType": "address"
        },
        {
          "name": "demand",
          "type": "bytes",
          "internalType": "bytes"
        }
      ],
      "stateMutability": "pure"
    },
    {
      "type": "function",
      "name": "decodeObligationData",
      "inputs": [
        {
          "name": "data",
          "type": "bytes",
          "internalType": "bytes"
        }
      ],
      "outputs": [
        {
          "name": "",
          "type": "tuple",
          "internalType": "struct TokenBundleEscrowObligation.ObligationData",
          "components": [
            {
              "name": "arbiter",
              "type": "address",
              "internalType": "address"
            },
            {
              "name": "demand",
              "type": "bytes",
              "internalType": "bytes"
            },
            {
              "name": "nativeAmount",
              "type": "uint256",
              "internalType": "uint256"
            },
            {
              "name": "erc20Tokens",
              "type": "address[]",
              "internalType": "address[]"
            },
            {
              "name": "erc20Amounts",
              "type": "uint256[]",
              "internalType": "uint256[]"
            },
            {
              "name": "erc721Tokens",
              "type": "address[]",
              "internalType": "address[]"
            },
            {
              "name": "erc721TokenIds",
              "type": "uint256[]",
              "internalType": "uint256[]"
            },
            {
              "name": "erc1155Tokens",
              "type": "address[]",
              "internalType": "address[]"
            },
            {
              "name": "erc1155TokenIds",
              "type": "uint256[]",
              "internalType": "uint256[]"
            },
            {
              "name": "erc1155Amounts",
              "type": "uint256[]",
              "internalType": "uint256[]"
            }
          ]
        }
      ],
      "stateMutability": "pure"
    },
    {
      "type": "function",
      "name": "doObligation",
      "inputs": [
        {
          "name": "data",
          "type": "tuple",
          "internalType": "struct TokenBundleEscrowObligation.ObligationData",
          "components": [
            {
              "name": "arbiter",
              "type": "address",
              "internalType": "address"
            },
            {
              "name": "demand",
              "type": "bytes",
              "internalType": "bytes"
            },
            {
              "name": "nativeAmount",
              "type": "uint256",
              "internalType": "uint256"
            },
            {
              "name": "erc20Tokens",
              "type": "address[]",
              "internalType": "address[]"
            },
            {
              "name": "erc20Amounts",
              "type": "uint256[]",
              "internalType": "uint256[]"
            },
            {
              "name": "erc721Tokens",
              "type": "address[]",
              "internalType": "address[]"
            },
            {
              "name": "erc721TokenIds",
              "type": "uint256[]",
              "internalType": "uint256[]"
            },
            {
              "name": "erc1155Tokens",
              "type": "address[]",
              "internalType": "address[]"
            },
            {
              "name": "erc1155TokenIds",
              "type": "uint256[]",
              "internalType": "uint256[]"
            },
            {
              "name": "erc1155Amounts",
              "type": "uint256[]",
              "internalType": "uint256[]"
            }
          ]
        },
        {
          "name": "expirationTime",
          "type": "uint64",
          "internalType": "uint64"
        }
      ],
      "outputs": [
        {
          "name": "",
          "type": "bytes32",
          "internalType": "bytes32"
        }
      ],
      "stateMutability": "payable"
    },
    {
      "type": "function",
      "name": "doObligationFor",
      "inputs": [
        {
          "name": "data",
          "type": "tuple",
          "internalType": "struct TokenBundleEscrowObligation.ObligationData",
          "components": [
            {
              "name": "arbiter",
              "type": "address",
              "internalType": "address"
            },
            {
              "name": "demand",
              "type": "bytes",
              "internalType": "bytes"
            },
            {
              "name": "nativeAmount",
              "type": "uint256",
              "internalType": "uint256"
            },
            {
              "name": "erc20Tokens",
              "type": "address[]",
              "internalType": "address[]"
            },
            {
              "name": "erc20Amounts",
              "type": "uint256[]",
              "internalType": "uint256[]"
            },
            {
              "name": "erc721Tokens",
              "type": "address[]",
              "internalType": "address[]"
            },
            {
              "name": "erc721TokenIds",
              "type": "uint256[]",
              "internalType": "uint256[]"
            },
            {
              "name": "erc1155Tokens",
              "type": "address[]",
              "internalType": "address[]"
            },
            {
              "name": "erc1155TokenIds",
              "type": "uint256[]",
              "internalType": "uint256[]"
            },
            {
              "name": "erc1155Amounts",
              "type": "uint256[]",
              "internalType": "uint256[]"
            }
          ]
        },
        {
          "name": "expirationTime",
          "type": "uint64",
          "internalType": "uint64"
        },
        {
          "name": "recipient",
          "type": "address",
          "internalType": "address"
        }
      ],
      "outputs": [
        {
          "name": "",
          "type": "bytes32",
          "internalType": "bytes32"
        }
      ],
      "stateMutability": "payable"
    },
    {
      "type": "function",
      "name": "doObligationRaw",
      "inputs": [
        {
          "name": "data",
          "type": "bytes",
          "internalType": "bytes"
        },
        {
          "name": "expirationTime",
          "type": "uint64",
          "internalType": "uint64"
        },
        {
          "name": "refUID",
          "type": "bytes32",
          "internalType": "bytes32"
        }
      ],
      "outputs": [
        {
          "name": "uid_",
          "type": "bytes32",
          "internalType": "bytes32"
        }
      ],
      "stateMutability": "payable"
    },
    {
      "type": "function",
      "name": "getObligationData",
      "inputs": [
        {
          "name": "uid",
          "type": "bytes32",
          "internalType": "bytes32"
        }
      ],
      "outputs": [
        {
          "name": "",
          "type": "tuple",
          "internalType": "struct TokenBundleEscrowObligation.ObligationData",
          "components": [
            {
              "name": "arbiter",
              "type": "address",
              "internalType": "address"
            },
            {
              "name": "demand",
              "type": "bytes",
              "internalType": "bytes"
            },
            {
              "name": "nativeAmount",
              "type": "uint256",
              "internalType": "uint256"
            },
            {
              "name": "erc20Tokens",
              "type": "address[]",
              "internalType": "address[]"
            },
            {
              "name": "erc20Amounts",
              "type": "uint256[]",
              "internalType": "uint256[]"
            },
            {
              "name": "erc721Tokens",
              "type": "address[]",
              "internalType": "address[]"
            },
            {
              "name": "erc721TokenIds",
              "type": "uint256[]",
              "internalType": "uint256[]"
            },
            {
              "name": "erc1155Tokens",
              "type": "address[]",
              "internalType": "address[]"
            },
            {
              "name": "erc1155TokenIds",
              "type": "uint256[]",
              "internalType": "uint256[]"
            },
            {
              "name": "erc1155Amounts",
              "type": "uint256[]",
              "internalType": "uint256[]"
            }
          ]
        }
      ],
      "stateMutability": "view"
    },
    {
      "type": "function",
      "name": "getSchema",
      "inputs": [],
      "outputs": [
        {
          "name": "",
          "type": "tuple",
          "internalType": "struct SchemaRecord",
          "components": [
            {
              "name": "uid",
              "type": "bytes32",
              "internalType": "bytes32"
            },
            {
              "name": "resolver",
              "type": "address",
              "internalType": "contract ISchemaResolver"
            },
            {
              "name": "revocable",
              "type": "bool",
              "internalType": "bool"
            },
            {
              "name": "schema",
              "type": "string",
              "internalType": "string"
            }
          ]
        }
      ],
      "stateMutability": "view"
    },
    {
      "type": "function",
      "name": "isPayable",
      "inputs": [],
      "outputs": [
        {
          "name": "",
          "type": "bool",
          "internalType": "bool"
        }
      ],
      "stateMutability": "pure"
    },
    {
      "type": "function",
      "name": "multiAttest",
      "inputs": [
        {
          "name": "attestations",
          "type": "tuple[]",
          "internalType": "struct Attestation[]",
          "components": [
            {
              "name": "uid",
              "type": "bytes32",
              "internalType": "bytes32"
            },
            {
              "name": "schema",
              "type": "bytes32",
              "internalType": "bytes32"
            },
            {
              "name": "time",
              "type": "uint64",
              "internalType": "uint64"
            },
            {
              "name": "expirationTime",
              "type": "uint64",
              "internalType": "uint64"
            },
            {
              "name": "revocationTime",
              "type": "uint64",
              "internalType": "uint64"
            },
            {
              "name": "refUID",
              "type": "bytes32",
              "internalType": "bytes32"
            },
            {
              "name": "recipient",
              "type": "address",
              "internalType": "address"
            },
            {
              "name": "attester",
              "type": "address",
              "internalType": "address"
            },
            {
              "name": "revocable",
              "type": "bool",
              "internalType": "bool"
            },
            {
              "name": "data",
              "type": "bytes",
              "internalType": "bytes"
            }
          ]
        },
        {
          "name": "values",
          "type": "uint256[]",
          "internalType": "uint256[]"
        }
      ],
      "outputs": [
        {
          "name": "",
          "type": "bool",
          "internalType": "bool"
        }
      ],
      "stateMutability": "payable"
    },
    {
      "type": "function",
      "name": "multiRevoke",
      "inputs": [
        {
          "name": "attestations",
          "type": "tuple[]",
          "internalType": "struct Attestation[]",
          "components": [
            {
              "name": "uid",
              "type": "bytes32",
              "internalType": "bytes32"
            },
            {
              "name": "schema",
              "type": "bytes32",
              "internalType": "bytes32"
            },
            {
              "name": "time",
              "type": "uint64",
              "internalType": "uint64"
            },
            {
              "name": "expirationTime",
              "type": "uint64",
              "internalType": "uint64"
            },
            {
              "name": "revocationTime",
              "type": "uint64",
              "internalType": "uint64"
            },
            {
              "name": "refUID",
              "type": "bytes32",
              "internalType": "bytes32"
            },
            {
              "name": "recipient",
              "type": "address",
              "internalType": "address"
            },
            {
              "name": "attester",
              "type": "address",
              "internalType": "address"
            },
            {
              "name": "revocable",
              "type": "bool",
              "internalType": "bool"
            },
            {
              "name": "data",
              "type": "bytes",
              "internalType": "bytes"
            }
          ]
        },
        {
          "name": "values",
          "type": "uint256[]",
          "internalType": "uint256[]"
        }
      ],
      "outputs": [
        {
          "name": "",
          "type": "bool",
          "internalType": "bool"
        }
      ],
      "stateMutability": "payable"
    },
    {
      "type": "function",
      "name": "onERC1155BatchReceived",
      "inputs": [
        {
          "name": "",
          "type": "address",
          "internalType": "address"
        },
        {
          "name": "",
          "type": "address",
          "internalType": "address"
        },
        {
          "name": "",
          "type": "uint256[]",
          "internalType": "uint256[]"
        },
        {
          "name": "",
          "type": "uint256[]",
          "internalType": "uint256[]"
        },
        {
          "name": "",
          "type": "bytes",
          "internalType": "bytes"
        }
      ],
      "outputs": [
        {
          "name": "",
          "type": "bytes4",
          "internalType": "bytes4"
        }
      ],
      "stateMutability": "nonpayable"
    },
    {
      "type": "function",
      "name": "onERC1155Received",
      "inputs": [
        {
          "name": "",
          "type": "address",
          "internalType": "address"
        },
        {
          "name": "",
          "type": "address",
          "internalType": "address"
        },
        {
          "name": "",
          "type": "uint256",
          "internalType": "uint256"
        },
        {
          "name": "",
          "type": "uint256",
          "internalType": "uint256"
        },
        {
          "name": "",
          "type": "bytes",
          "internalType": "bytes"
        }
      ],
      "outputs": [
        {
          "name": "",
          "type": "bytes4",
          "internalType": "bytes4"
        }
      ],
      "stateMutability": "nonpayable"
    },
    {
      "type": "function",
      "name": "reclaim",
      "inputs": [
        {
          "name": "uid",
          "type": "bytes32",
          "internalType": "bytes32"
        }
      ],
      "outputs": [
        {
          "name": "",
          "type": "bool",
          "internalType": "bool"
        }
      ],
      "stateMutability": "nonpayable"
    },
    {
      "type": "function",
      "name": "revoke",
      "inputs": [
        {
          "name": "attestation",
          "type": "tuple",
          "internalType": "struct Attestation",
          "components": [
            {
              "name": "uid",
              "type": "bytes32",
              "internalType": "bytes32"
            },
            {
              "name": "schema",
              "type": "bytes32",
              "internalType": "bytes32"
            },
            {
              "name": "time",
              "type": "uint64",
              "internalType": "uint64"
            },
            {
              "name": "expirationTime",
              "type": "uint64",
              "internalType": "uint64"
            },
            {
              "name": "revocationTime",
              "type": "uint64",
              "internalType": "uint64"
            },
            {
              "name": "refUID",
              "type": "bytes32",
              "internalType": "bytes32"
            },
            {
              "name": "recipient",
              "type": "address",
              "internalType": "address"
            },
            {
              "name": "attester",
              "type": "address",
              "internalType": "address"
            },
            {
              "name": "revocable",
              "type": "bool",
              "internalType": "bool"
            },
            {
              "name": "data",
              "type": "bytes",
              "internalType": "bytes"
            }
          ]
        }
      ],
      "outputs": [
        {
          "name": "",
          "type": "bool",
          "internalType": "bool"
        }
      ],
      "stateMutability": "payable"
    },
    {
      "type": "function",
      "name": "supportsInterface",
      "inputs": [
        {
          "name": "interfaceId",
          "type": "bytes4",
          "internalType": "bytes4"
        }
      ],
      "outputs": [
        {
          "name": "",
          "type": "bool",
          "internalType": "bool"
        }
      ],
      "stateMutability": "view"
    },
    {
      "type": "function",
      "name": "unsafePartiallyCollectEscrow",
      "inputs": [
        {
          "name": "_escrow",
          "type": "bytes32",
          "internalType": "bytes32"
        },
        {
          "name": "_fulfillment",
          "type": "bytes32",
          "internalType": "bytes32"
        }
      ],
      "outputs": [
        {
          "name": "",
          "type": "bool",
          "internalType": "bool"
        }
      ],
      "stateMutability": "nonpayable"
    },
    {
      "type": "function",
      "name": "unsafePartiallyReclaimExpired",
      "inputs": [
        {
          "name": "uid",
          "type": "bytes32",
          "internalType": "bytes32"
        }
      ],
      "outputs": [
        {
          "name": "",
          "type": "bool",
          "internalType": "bool"
        }
      ],
      "stateMutability": "nonpayable"
    },
    {
      "type": "function",
      "name": "version",
      "inputs": [],
      "outputs": [
        {
          "name": "",
          "type": "string",
          "internalType": "string"
        }
      ],
      "stateMutability": "view"
    },
    {
      "type": "event",
      "name": "ERC1155TransferFailedOnRelease",
      "inputs": [
        {
          "name": "token",
          "type": "address",
          "indexed": true,
          "internalType": "address"
        },
        {
          "name": "to",
          "type": "address",
          "indexed": true,
          "internalType": "address"
        },
        {
          "name": "tokenId",
          "type": "uint256",
          "indexed": false,
          "internalType": "uint256"
        },
        {
          "name": "amount",
          "type": "uint256",
          "indexed": false,
          "internalType": "uint256"
        }
      ],
      "anonymous": false
    },
    {
      "type": "event",
      "name": "ERC20TransferFailedOnRelease",
      "inputs": [
        {
          "name": "token",
          "type": "address",
          "indexed": true,
          "internalType": "address"
        },
        {
          "name": "to",
          "type": "address",
          "indexed": true,
          "internalType": "address"
        },
        {
          "name": "amount",
          "type": "uint256",
          "indexed": false,
          "internalType": "uint256"
        }
      ],
      "anonymous": false
    },
    {
      "type": "event",
      "name": "ERC721TransferFailedOnRelease",
      "inputs": [
        {
          "name": "token",
          "type": "address",
          "indexed": true,
          "internalType": "address"
        },
        {
          "name": "to",
          "type": "address",
          "indexed": true,
          "internalType": "address"
        },
        {
          "name": "tokenId",
          "type": "uint256",
          "indexed": false,
          "internalType": "uint256"
        }
      ],
      "anonymous": false
    },
    {
      "type": "event",
      "name": "EscrowCollected",
      "inputs": [
        {
          "name": "escrowUid",
          "type": "bytes32",
          "indexed": true,
          "internalType": "bytes32"
        },
        {
          "name": "fulfillmentUid",
          "type": "bytes32",
          "indexed": true,
          "internalType": "bytes32"
        },
        {
          "name": "fulfiller",
          "type": "address",
          "indexed": true,
          "internalType": "address"
        }
      ],
      "anonymous": false
    },
    {
      "type": "event",
      "name": "EscrowMade",
      "inputs": [
        {
          "name": "escrowUid",
          "type": "bytes32",
          "indexed": true,
          "internalType": "bytes32"
        },
        {
          "name": "escrower",
          "type": "address",
          "indexed": true,
          "internalType": "address"
        }
      ],
      "anonymous": false
    },
    {
      "type": "event",
      "name": "EscrowReclaimed",
      "inputs": [
        {
          "name": "escrowUid",
          "type": "bytes32",
          "indexed": true,
          "internalType": "bytes32"
        },
        {
          "name": "escrower",
          "type": "address",
          "indexed": true,
          "internalType": "address"
        }
      ],
      "anonymous": false
    },
    {
      "type": "event",
      "name": "NativeTokenTransferFailedOnRelease",
      "inputs": [
        {
          "name": "to",
          "type": "address",
          "indexed": true,
          "internalType": "address"
        },
        {
          "name": "amount",
          "type": "uint256",
          "indexed": false,
          "internalType": "uint256"
        }
      ],
      "anonymous": false
    },
    {
      "type": "error",
      "name": "AccessDenied",
      "inputs": []
    },
    {
      "type": "error",
      "name": "ArrayLengthMismatch",
      "inputs": []
    },
    {
      "type": "error",
      "name": "AttestationNotFound",
      "inputs": [
        {
          "name": "attestationId",
          "type": "bytes32",
          "internalType": "bytes32"
        }
      ]
    },
    {
      "type": "error",
      "name": "AttestationRevoked",
      "inputs": []
    },
    {
      "type": "error",
      "name": "DeadlineExpired",
      "inputs": []
    },
    {
      "type": "error",
      "name": "ERC1155TransferFailed",
      "inputs": [
        {
          "name": "token",
          "type": "address",
          "internalType": "address"
        },
        {
          "name": "from",
          "type": "address",
          "internalType": "address"
        },
        {
          "name": "to",
          "type": "address",
          "internalType": "address"
        },
        {
          "name": "tokenId",
          "type": "uint256",
          "internalType": "uint256"
        },
        {
          "name": "amount",
          "type": "uint256",
          "internalType": "uint256"
        }
      ]
    },
    {
      "type": "error",
      "name": "ERC20TransferFailed",
      "inputs": [
        {
          "name": "token",
          "type": "address",
          "internalType": "address"
        },
        {
          "name": "from",
          "type": "address",
          "internalType": "address"
        },
        {
          "name": "to",
          "type": "address",
          "internalType": "address"
        },
        {
          "name": "amount",
          "type": "uint256",
          "internalType": "uint256"
        }
      ]
    },
    {
      "type": "error",
      "name": "ERC721TransferFailed",
      "inputs": [
        {
          "name": "token",
          "type": "address",
          "internalType": "address"
        },
        {
          "name": "from",
          "type": "address",
          "internalType": "address"
        },
        {
          "name": "to",
          "type": "address",
          "internalType": "address"
        },
        {
          "name": "tokenId",
          "type": "uint256",
          "internalType": "uint256"
        }
      ]
    },
    {
      "type": "error",
      "name": "IncorrectPayment",
      "inputs": [
        {
          "name": "expected",
          "type": "uint256",
          "internalType": "uint256"
        },
        {
          "name": "received",
          "type": "uint256",
          "internalType": "uint256"
        }
      ]
    },
    {
      "type": "error",
      "name": "InsufficientValue",
      "inputs": []
    },
    {
      "type": "error",
      "name": "InvalidAttestationUid",
      "inputs": []
    },
    {
      "type": "error",
      "name": "InvalidEAS",
      "inputs": []
    },
    {
      "type": "error",
      "name": "InvalidEscrowAttestation",
      "inputs": []
    },
    {
      "type": "error",
      "name": "InvalidFulfillment",
      "inputs": []
    },
    {
      "type": "error",
      "name": "InvalidLength",
      "inputs": []
    },
    {
      "type": "error",
      "name": "NativeTokenTransferFailed",
      "inputs": [
        {
          "name": "to",
          "type": "address",
          "internalType": "address"
        },
        {
          "name": "amount",
          "type": "uint256",
          "internalType": "uint256"
        }
      ]
    },
    {
      "type": "error",
      "name": "NotFromThisAttester",
      "inputs": []
    },
    {
      "type": "error",
      "name": "NotPayable",
      "inputs": []
    },
    {
      "type": "error",
      "name": "ReentrancyGuardReentrantCall",
      "inputs": []
    },
    {
      "type": "error",
      "name": "RevocationFailed",
      "inputs": [
        {
          "name": "attestationId",
          "type": "bytes32",
          "internalType": "bytes32"
        }
      ]
    },
    {
      "type": "error",
      "name": "SchemaRegistrationFailed",
      "inputs": [
        {
          "name": "uid",
          "type": "bytes32",
          "internalType": "bytes32"
        }
      ]
    },
    {
      "type": "error",
      "name": "TooManyBundleItems",
      "inputs": [
        {
          "name": "provided",
          "type": "uint256",
          "internalType": "uint256"
        },
        {
          "name": "max",
          "type": "uint256",
          "internalType": "uint256"
        }
      ]
    },
    {
      "type": "error",
      "name": "UnauthorizedCall",
      "inputs": []
    }
  ],
  "bytecode": {
    "object": "0x61018080604052346102bc5760408161488a803803809161002082856102c0565b8339810103126102bc5780516001600160a01b038116918282036102bc5760200151916001600160a01b038316908184036102bc57610120936040519161006786846102c0565b60e283527f6164647265737320617262697465722c2062797465732064656d616e642c207560208401527f696e74323536206e6174697665416d6f756e742c20616464726573735b5d206560408401527f72633230546f6b656e732c2075696e743235365b5d206572633230416d6f756e60608401527f74732c20616464726573735b5d20657263373231546f6b656e732c2075696e7460808401527f3235365b5d20657263373231546f6b656e4964732c20616464726573735b5d2060a08401527f65726331313535546f6b656e732c2075696e743235365b5d206572633131353560c08401527f546f6b656e4964732c2075696e743235365b5d2065726331313535416d6f756e60e084015261747360f01b6101008401526001608052600360a0525f60c052156102ad57836101af9460e05285526101005260016101605230916103db565b6101405260017f9b779b17422d0df92223018b32b4d1fa46e071723d6817e2486d003becc55f00556040516142d391826105b7833960805182611a8e015260a05182611aba015260c05182611ae5015260e05182613aaa0152610100518261189201525181818161026f015281816106f3015281816111a3015281816113ac0152818161155c01528181611c8501528181612c6c015261395e0152610140518181816101c5015281816107330152818161108a015281816113450152818161150d01528181611860015281816119e101528181611bc101528181612970015261383e01526101605181818161086c015281816110cc01526138870152f35b6341bc07ff60e11b5f5260045ffd5b5f80fd5b601f909101601f19168101906001600160401b038211908210176102e357604052565b634e487b7160e01b5f52604160045260245ffd5b6020818303126102bc578051906001600160401b0382116102bc5701906080828203126102bc5760405191608083016001600160401b038111848210176102e3576040528051835260208101516001600160a01b03811681036102bc576020840152604081015180151581036102bc5760408401526060810151906001600160401b0382116102bc570181601f820112156102bc578051906001600160401b0382116102e357604051926103b5601f8401601f1916602001856102c0565b828452602083830101116102bc57815f9260208093018386015e83010152606082015290565b929160405190602082018351926104256015602083818901978089885e810160018060601b03198860601b1683820152600160f81b60348201520301600a198101845201826102c0565b5190206040516351753e3760e11b81526004810182905290956001600160a01b031693905f81602481885afa80156105365787915f9161059c575b505114610596579060846020926040519485938492630c1af44f60e31b8452606060048501525180928160648601528585015e5f84838501015260018060a01b0316602483015260016044830152601f801991011681010301815f865af15f9181610562575b5061054157505f602491604051928380926351753e3760e11b82528760048301525afa80156105365783915f91610514575b5051146105125750639e6113d560e01b5f5260045260245ffd5b565b61053091503d805f833e61052881836102c0565b8101906102f7565b5f6104f8565b6040513d5f823e3d90fd5b91928091508203610550575090565b639e6113d560e01b5f5260045260245ffd5b9091506020813d60201161058e575b8161057e602093836102c0565b810103126102bc5751905f6104c6565b3d9150610571565b50505050565b6105b091503d805f833e61052881836102c0565b5f61046056fe6080806040526004361015610029575b50361561001a575f80fd5b631574f9f360e01b5f5260045ffd5b5f905f3560e01c90816301ffc9a714611e1e575080630fcec5b114611b8e57806311453bb714611b7257806354fd4d5014611a6d57806355b0769b14611a045780635bf2f20d146119c95780636b122fe01461181f578063760bd118146117c057806388e5b2d9146116885780638da3721a146116a757806391db0b7e1461168857806396afb365146114de5780639752401614611316578063b3b902d414610891578063b587a5eb14610854578063bc197c81146107be578063c6ec5070146106b2578063c93844be146104ef578063ce46e046146104d3578063cf84e82c1461044d578063e49617e114610428578063e60c350514610428578063ea6ec49c146101935763f23a6e610361000f57346101905760a0366003190112610190576101526120b0565b5061015b6120c6565b506084356001600160401b03811161018e5761017b903690600401612012565b5060405163f23a6e6160e01b8152602090f35b505b80fd5b5034610190576101a236611ebb565b91906101ac612ade565b6101b581612c46565b6101be84612c46565b60208201517f0000000000000000000000000000000000000000000000000000000000000000809103610419576101f483612cf4565b156104195761020761012084015161289c565b9060a084015185510361040a5761021d84612cf4565b1561040a57610249916020918651916040518095819482936346d1b90d60e11b84528a6004850161232e565b03916001600160a01b03165afa9081156103ff5786916103c5575b50156103b6576040517f00000000000000000000000000000000000000000000000000000000000000006001600160a01b031691906102a281611f1f565b858152866020820152604051916102b883611f1f565b82526020820152813b156103b257604051634692626760e01b8152815160048201526020918201518051602483015290910151604482015290859081908390606490829084905af19182610399575b50506103215763614cf93960e01b84526004839052602484fd5b917ff96e77bc177ae8e2ff25185e7c6d85f8ba97c8bdd9d46933aac70a7a33edf6c09461035f60c061039595019360018060a01b0385511690613d01565b92516040519687966001600160a01b03909216939180a460015f51602061427e5f395f51905f5255602083526020830190611ed1565b0390f35b816103a391611fa0565b6103ae57845f610307565b8480fd5b8580fd5b630ebe58ef60e11b8552600485fd5b90506020813d6020116103f7575b816103e060209383611fa0565b810103126103b2576103f190612321565b5f610264565b3d91506103d3565b6040513d88823e3d90fd5b630ebe58ef60e11b8752600487fd5b63629cd40b60e11b8552600485fd5b6020610443610436366122ed565b61043e613aa8565b613ae9565b6040519015158152f35b506060366003190112610190576004356001600160401b03811161018e57610140600319823603011261018e57610482611ef5565b604435929091906001600160a01b03841684036101905760206104cb85856104b86104c687604051928391600401888301612488565b03601f198101835282611fa0565b613271565b604051908152f35b5034610190578060031936011261019057602090604051908152f35b5034610190576020366003190112610190576004356001600160401b03811161018e576105209036906004016120f0565b61052b929192612a2f565b5082019160208184031261018e578035906001600160401b0382116106ae57019061014082840312610190576040519161056483611f69565b61056d816120dc565b835260208101356001600160401b0381116106ae578461058e918301612012565b60208401526040810135604084015260608101356001600160401b0381116106ae57846105bc918301612a79565b606084015260808101356001600160401b0381116106ae57846105e0918301612134565b608084015260a08101356001600160401b0381116106ae5784610604918301612a79565b60a084015260c08101356001600160401b0381116106ae5784610628918301612134565b60c084015260e08101356001600160401b0381116106ae578461064c918301612a79565b60e08401526101008101356001600160401b0381116106ae5784610671918301612134565b610100840152610120810135916001600160401b03831161019057509261069c916103959401612134565b61012082015260405191829182612200565b8280fd5b5034610190576020366003190112610190576106cc612a2f565b506106d5612b16565b506040516328c44a9960e21b815260048035908201529080826024817f00000000000000000000000000000000000000000000000000000000000000006001600160a01b03165afa9182156107b157819261078d575b5060208201517f00000000000000000000000000000000000000000000000000000000000000000361077e576103956107726101208401516020808251830101910161272e565b60405191829182612200565b635527981560e11b8152600490fd5b6107aa9192503d8084833e6107a28183611fa0565b810190612b74565b905f61072b565b50604051903d90823e3d90fd5b50346101905760a0366003190112610190576107d86120b0565b506107e16120c6565b506044356001600160401b03811161018e57610801903690600401612134565b506064356001600160401b03811161018e57610821903690600401612134565b506084356001600160401b03811161018e57610841903690600401612012565b5060405163bc197c8160e01b8152602090f35b503461019057806003193601126101905760206040517f000000000000000000000000000000000000000000000000000000000000000015158152f35b506060366003190112610190576004356001600160401b03811161018e576108bd9036906004016120f0565b6108d46108c8611ef5565b92604435923691611fdc565b926108dd612ade565b6108f0602085518601016020860161272e565b926060840192835151956080860196875151036113075760a086018051519260c0880193845151036112f85760e0880194855151986101008101998a51518114908115916112e7575b506112d8576109596109508a515186515190614231565b88515190614231565b603281116112c1575060408101518034036112ab5750875b89518051821015610b8a576024906020906001600160a01b0390610996908590613b02565b5116604051928380926370a0823160e01b82523060048301525afa908115610b7f57908d8b8d85948294610b44575b50516024946109eb916001600160a01b03906109e2908390613b02565b51169351613b02565b5191604051926323b872dd60e01b835233600452308652604452600160208360648180865af1925114821615610b37575b50906040528b60605260208d610a3a8660018060a01b039251613b02565b5116604051948580926370a0823160e01b82523060048301525afa928315610b2c578f93929185918e94610af0575b5015938415610ace575b50505050610a8357600101610971565b89518c91610aa8916001600160a01b0390610a9f908390613b02565b51169251613b02565b51604051634a73404560e11b8152918291610aca913090339060048601614252565b0390fd5b610ae693945090610adf9151613b02565b5190614231565b115f80838f610a73565b94509250506020833d8211610b24575b81610b0d60209383611fa0565b81010312610b2057838f9351925f610a69565b5f80fd5b3d9150610b00565b6040513d8e823e3d90fd5b3b15153d1516165f610a1c565b9450505050506020813d8211610b77575b81610b6260209383611fa0565b81010312610b20575181908d8b8d60246109c5565b3d9150610b55565b6040513d8c823e3d90fd5b5050908792918a9795969784965b86518051891015610def576001600160a01b0390610bb7908a90613b02565b51166020610bc68a8d51613b02565b516024604051809481936331a9108f60e11b835260048301525afa908115610de4578791610dab575b50336001600160a01b0390911603610d935786516001600160a01b0390610c17908a90613b02565b5116610c24898c51613b02565b51813b15610d63576040516323b872dd60e01b8152336004820152306024820152604481019190915290879081908390606490829084905af19182610d7a575b5050610ca45789610c828989610a9f8260018060a01b039251613b02565b5160405163045b391760e01b8152918291610aca913090339060048601614252565b9091929394959660018060a01b03610cbd828a51613b02565b51166020610ccc838d51613b02565b516024604051809481936331a9108f60e11b835260048301525afa908115610d6f578891610d32575b50306001600160a01b0390911603610d165760010196959493929190610b98565b87518a91610c82916001600160a01b0390610a9f908390613b02565b90506020813d8211610d67575b81610d4c60209383611fa0565b81010312610d6357610d5d9061263e565b8b610cf5565b8780fd5b3d9150610d3f565b6040513d8a823e3d90fd5b81610d8491611fa0565b610d8f57868c610c64565b8680fd5b89610c828989610a9f8260018060a01b039251613b02565b90506020813d8211610ddc575b81610dc560209383611fa0565b81010312610d8f57610dd69061263e565b8b610bef565b3d9150610db8565b6040513d89823e3d90fd5b508493868a949394610120829501965b8451805187101561108557610e5c906020906001600160a01b0390610e25908a90613b02565b5116610e32898b51613b02565b51604051627eeac760e11b8152306004820152602481019190915292839190829081906044820190565b03915afa90811561107a578491611049575b5085516001600160a01b0390610e85908990613b02565b5116610e92888a51613b02565b5190610e9f898c51613b02565b5191813b15610d8f57610ecf928792839283604051809781958294637921219560e11b84523033600486016141f9565b03925af19182611034575b5050610f55578888610aca610f118a610f09818c610f008260018060a01b039251613b02565b51169551613b02565b519451613b02565b5160405163334a7d1b60e21b81526001600160a01b0390931660048401523360248401523060448401526064830193909352608482019290925290819060a4820190565b610fab9097969192939497602060018060a01b03610f74858a51613b02565b5116610f81858b51613b02565b51604051627eeac760e11b8152306004820152602481019190915293849190829081906044820190565b03915afa9182156103ff578692610fff575b50610fcd90610adf848c51613b02565b11610fdf576001019495929190610dff565b85610aca610f1183610f09818a610f008f9860018060a01b039251613b02565b9091506020813d821161102c575b8161101a60209383611fa0565b81010312610b20575190610fcd610fbd565b3d915061100d565b8161103e91611fa0565b6103ae57848b610eda565b90506020813d8211611072575b8161106360209383611fa0565b81010312610b20575189610e6e565b3d9150611056565b6040513d86823e3d90fd5b5093507f0000000000000000000000000000000000000000000000000000000000000000936001600160401b03604051946110bf86611f85565b33865216908160208601527f00000000000000000000000000000000000000000000000000000000000000001515918260408701528160608701528360808701528460a0870152602060405161111481611f1f565b8881528181019788526040518098819263f17325e760e01b8352846004840152516024830152516040604483015260018060a01b0381511660648301526001600160401b03848201511660848301526040810151151560a4830152606081015160c483015260a0611195608083015160c060e4860152610124850190611ed1565b9101516101048301520381887f00000000000000000000000000000000000000000000000000000000000000006001600160a01b03165af19586156112a057859661126b575b50916020969161012093604051936111f285611f69565b888552898501526001600160401b0342166040850152606084015285608084015260a08301523360c08301523060e08301526101008201520152817f8f7f2dbafd79125e808bf16a53d7fa4e17b8b6374ced76d946a45f94b7bf4d06339280a360015f51602061427e5f395f51905f5255604051908152f35b9095506020813d602011611298575b8161128760209383611fa0565b810103126103ae57519460206111db565b3d915061127a565b6040513d87823e3d90fd5b630d35e92160e01b895260045234602452604488fd5b6325b198a560e21b89526004526032602452604488fd5b63512509d360e11b8852600488fd5b90506101208201515114155f610939565b63512509d360e11b8652600486fd5b63512509d360e11b8452600484fd5b50346101905760203660031901126101905760043590611334612ade565b61133d82612c46565b9160208301517f00000000000000000000000000000000000000000000000000000000000000008091036114cf57606084016001600160401b03815116156114b157516001600160401b031642106114c05760c0840180519091906001600160a01b031633036114b1576040517f00000000000000000000000000000000000000000000000000000000000000006001600160a01b031691906113df81611f1f565b848152856020820152604051916113f583611f1f565b82526020820152813b156103ae57604051634692626760e01b8152815160048201526020918201518051602483015290910151604482015290849081908390606490829084905af19182611498575b505061145e5763614cf93960e01b83526004829052602483fd5b610120840151905161147b916001600160a01b0390911690612d95565b5060015f51602061427e5f395f51905f5255602060405160018152f35b816114a291611fa0565b6114ad57835f611444565b8380fd5b637bf6a16f60e01b8452600484fd5b637bf6a16f60e01b8352600483fd5b63629cd40b60e11b8352600483fd5b503461019057602036600319011261019057600435906114fc612ade565b61150582612c46565b9160208301517f00000000000000000000000000000000000000000000000000000000000000008091036114cf57606084016001600160401b03815116156114b157516001600160401b031642106114c0576040517f00000000000000000000000000000000000000000000000000000000000000006001600160a01b0316919061158f81611f1f565b838152846020820152604051916115a583611f1f565b82526020820152813b156114ad57604051634692626760e01b8152815160048201526020918201518051602483015290910151604482015290839081908390606490829084905af19182611673575b505061160d5763614cf93960e01b825260045260249150fd5b60c083018051602094611629916001600160a01b031690613d01565b5060018060a01b03905116907f655ef333d5efcbf5aa343f02bcd9e3539f9c9f9ee8b9cfa7d8910b1bd7e0a8326040519380a360015f51602061427e5f395f51905f525560018152f35b8161167d91611fa0565b6106ae57825f6115f4565b602061044361169636612060565b926116a2929192613aa8565b6128c5565b503461019057606036600319011261019057600435906001600160401b03821161019057610140600319833603011261019057604051916116e783611f69565b806004013583526024810135602084015261170460448201611f0b565b604084015261171560648201611f0b565b606084015261172660848201611f0b565b608084015260a481013560a084015261174160c482016120dc565b60c084015261175260e482016120dc565b60e084015261010481013580151581036106ae576101008401526101248101356001600160401b0381116106ae5761178f91369101600401612012565b610120830152602435906001600160401b038211610190576020610443846117ba3660048701612012565b90612969565b503461019057602036600319011261019057600435906001600160401b038211610190576117f96117f43660048501612012565b61289c565b604080516001600160a01b03909316835260208301819052829161039591830190611ed1565b503461019057806003193601126101905760608060405161183f81611f4e565b8381528360208201528360408201520152604051906351753e3760e11b82527f00000000000000000000000000000000000000000000000000000000000000006004830152808260248160018060a01b037f0000000000000000000000000000000000000000000000000000000000000000165afa9081156119bd578091611908575b606082610395604051928392602084528051602085015260018060a01b0360208201511660408501526040810151151582850152015160808084015260a0830190611ed1565b90503d8082843e6119198184611fa0565b82019160208184031261018e578051906001600160401b0382116106ae570190608082840312610190576040519161195083611f4e565b8051835260208101516001600160a01b03811681036106ae57602084015261197a60408201612321565b60408401526060810151906001600160401b0382116106ae57019083601f8301121561019057506060928160206119b393519101612608565b828201525f6118c2565b604051903d90823e3d90fd5b503461019057806003193601126101905760206040517f00000000000000000000000000000000000000000000000000000000000000008152f35b50604036600319011261019057600435906001600160401b0382116101905761014060031983360301126101905760206104cb611a5884611a66611a46611ef5565b91604051938491600401878301612488565b03601f198101845283611fa0565b3391613271565b50346101905780600319360112610190576020611b5e600161039593611ab27f0000000000000000000000000000000000000000000000000000000000000000613104565b908285611ade7f0000000000000000000000000000000000000000000000000000000000000000613104565b8180611b097f0000000000000000000000000000000000000000000000000000000000000000613104565b926040519a888c995191829101848b015e880190601760f91b83830152805192839101602183015e010190601760f91b84830152805192839101600283015e010190838201520301601f198101835282611fa0565b604051918291602083526020830190611ed1565b5034610190578060031936011261019057602060405160328152f35b5034610b2057611b9d36611ebb565b9190611ba7612ade565b611bb081612c46565b92611bba81612c46565b60208501517f0000000000000000000000000000000000000000000000000000000000000000809103611e0f57611bf086612cf4565b15611e0f5760c0820180519092906001600160a01b03163303611e0057610120870196611c1d885161289c565b929060a0820151835103611dac57611c3482612cf4565b15611dac57611c5f936020935192604051958694859384936346d1b90d60e11b85526004850161232e565b03916001600160a01b03165afa908115611df5575f91611dbb575b5015611dac576040517f00000000000000000000000000000000000000000000000000000000000000006001600160a01b031690611cb781611f1f565b8581525f602082015260405192611ccd84611f1f565b83526020830152803b15610b2057604051634692626760e01b815282516004820152602092830151805160248301529092015160448301525f908290606490829084905af19081611d97575b50611d325763614cf93960e01b84526004839052602484fd5b9351845160209591611d4d916001600160a01b031690612d95565b5060018060a01b03905116917ff96e77bc177ae8e2ff25185e7c6d85f8ba97c8bdd9d46933aac70a7a33edf6c06040519480a460015f51602061427e5f395f51905f525560018152f35b611da49195505f90611fa0565b5f935f611d19565b630ebe58ef60e11b5f5260045ffd5b90506020813d602011611ded575b81611dd660209383611fa0565b81010312610b2057611de790612321565b5f611c7a565b3d9150611dc9565b6040513d5f823e3d90fd5b637bf6a16f60e01b5f5260045ffd5b63629cd40b60e11b5f5260045ffd5b34610b20576020366003190112610b20576004359063ffffffff60e01b8216809203610b20576020916346d1b90d60e11b81149081159081611e63575b505015158152f35b630271189760e51b8114928315611e7f575b5050508380611e5b565b925090611e90575b50838080611e75565b630acaa6e160e01b811491508115611eaa575b5083611e87565b6301ffc9a760e01b14905083611ea3565b6040906003190112610b20576004359060243590565b805180835260209291819084018484015e5f828201840152601f01601f1916010190565b602435906001600160401b0382168203610b2057565b35906001600160401b0382168203610b2057565b604081019081106001600160401b03821117611f3a57604052565b634e487b7160e01b5f52604160045260245ffd5b608081019081106001600160401b03821117611f3a57604052565b61014081019081106001600160401b03821117611f3a57604052565b60c081019081106001600160401b03821117611f3a57604052565b90601f801991011681019081106001600160401b03821117611f3a57604052565b6001600160401b038111611f3a57601f01601f191660200190565b929192611fe882611fc1565b91611ff66040519384611fa0565b829481845281830111610b20578281602093845f960137010152565b9080601f83011215610b205781602061202d93359101611fdc565b90565b9181601f84011215610b20578235916001600160401b038311610b20576020808501948460051b010111610b2057565b6040600319820112610b20576004356001600160401b038111610b20578161208a91600401612030565b92909291602435906001600160401b038211610b20576120ac91600401612030565b9091565b600435906001600160a01b0382168203610b2057565b602435906001600160a01b0382168203610b2057565b35906001600160a01b0382168203610b2057565b9181601f84011215610b20578235916001600160401b038311610b205760208381860195010111610b2057565b6001600160401b038111611f3a5760051b60200190565b9080601f83011215610b2057813561214b8161211d565b926121596040519485611fa0565b81845260208085019260051b820101928311610b2057602001905b8282106121815750505090565b8135815260209182019101612174565b90602080835192838152019201905f5b8181106121ae5750505090565b82516001600160a01b03168452602093840193909201916001016121a1565b90602080835192838152019201905f5b8181106121ea5750505090565b82518452602093840193909201916001016121dd565b9061202d916020815260018060a01b0382511660208201526101206122d76122c16122aa61229461227e61226861224860208a015161014060408b01526101608a0190611ed1565b60408a015160608a015260608a0151601f198a83030160808b0152612191565b6080890151888203601f190160a08a01526121cd565b60a0880151878203601f190160c0890152612191565b60c0870151868203601f190160e08801526121cd565b60e0860151858203601f1901610100870152612191565b610100850151848203601f1901848601526121cd565b92015190610140601f19828503019101526121cd565b6020600319820112610b2057600435906001600160401b038211610b2057610140908290036003190112610b205760040190565b51908115158203610b2057565b9392916123ec906123de61012060409460608952805160608a0152602081015160808a01526001600160401b03868201511660a08a01526001600160401b0360608201511660c08a01526001600160401b0360808201511660e08a015260a08101516101008a015260018060a01b0360c082015116828a015260018060a01b0360e0820151166101408a015261010081015115156101608a015201516101406101808901526101a0880190611ed1565b908682036020880152611ed1565b930152565b9035601e1982360301811215610b205701602081359101916001600160401b038211610b20578160051b36038313610b2057565b916020908281520191905f5b81811061243e5750505090565b909192602080600192838060a01b03612456886120dc565b168152019401929101612431565b81835290916001600160fb1b038311610b205760209260051b809284830137010190565b60208152906001600160a01b0361249e826120dc565b1660208301526020810135601e1982360301811215610b20578101916020833593016001600160401b038411610b20578336038113610b20576125e96125c86125a861258961256a61254b8961202d9a6125f59861014060408c0152816101608c01526101808b01375f610180828b010152601f8019910116880160408a013560608a015261018061253360608c018c6123f1565b919092601f19828d8303010160808d01520191612425565b61255860808a018a6123f1565b898303601f190160a08b015290612464565b61257760a08901896123f1565b888303601f190160c08a015290612425565b61259660c08801886123f1565b878303601f190160e089015290612464565b6125b560e08701876123f1565b868303601f190161010088015290612425565b6125d66101008601866123f1565b858303601f190161012087015290612464565b926101208101906123f1565b91610140601f1982860301910152612464565b92919261261482611fc1565b916126226040519384611fa0565b829481845281830111610b20578281602093845f96015e010152565b51906001600160a01b0382168203610b2057565b9080601f83011215610b2057815161202d92602001612608565b9080601f83011215610b205781516126838161211d565b926126916040519485611fa0565b81845260208085019260051b820101928311610b2057602001905b8282106126b95750505090565b602080916126c68461263e565b8152019101906126ac565b9080601f83011215610b205781516126e88161211d565b926126f66040519485611fa0565b81845260208085019260051b820101928311610b2057602001905b82821061271e5750505090565b8151815260209182019101612711565b602081830312610b20578051906001600160401b038211610b20570161014081830312610b20576040519161276283611f69565b61276b8261263e565b835260208201516001600160401b038111610b20578161278c918401612652565b60208401526040820151604084015260608201516001600160401b038111610b2057816127ba91840161266c565b606084015260808201516001600160401b038111610b2057816127de9184016126d1565b608084015260a08201516001600160401b038111610b20578161280291840161266c565b60a084015260c08201516001600160401b038111610b2057816128269184016126d1565b60c084015260e08201516001600160401b038111610b20578161284a91840161266c565b60e08401526101008201516001600160401b038111610b20578161286f9184016126d1565b6101008401526101208201516001600160401b038111610b205761289392016126d1565b61012082015290565b6128af906020808251830101910161272e565b80516020909101516001600160a01b0390911691565b92909281840361295a575f91345b8584101561294f578184101561293b578360051b808601359082821161292c5784013561013e1985360301811215610b2057612910908501613ae9565b1561292157600191039301926128d3565b505050505050505f90565b63044044a560e21b5f5260045ffd5b634e487b7160e01b5f52603260045260245ffd5b505050505050600190565b63251f56a160e21b5f5260045ffd5b60208101517f000000000000000000000000000000000000000000000000000000000000000003612a29576129af6101206129bf9201516020808251830101910161272e565b916020808251830101910161272e565b6040820151604082015111159182612a17575b826129fe575b826129e257505090565b6020919250810151818151910120910151602081519101201490565b805182516001600160a01b0390811691161492506129d8565b9150612a238183613b16565b916129d2565b50505f90565b60405190612a3c82611f69565b6060610120835f81528260208201525f604082015282808201528260808201528260a08201528260c08201528260e0820152826101008201520152565b9080601f83011215610b20578135612a908161211d565b92612a9e6040519485611fa0565b81845260208085019260051b820101928311610b2057602001905b828210612ac65750505090565b60208091612ad3846120dc565b815201910190612ab9565b60025f51602061427e5f395f51905f525414612b075760025f51602061427e5f395f51905f5255565b633ee5aeb560e01b5f5260045ffd5b60405190612b2382611f69565b6060610120835f81525f60208201525f60408201525f838201525f60808201525f60a08201525f60c08201525f60e08201525f6101008201520152565b51906001600160401b0382168203610b2057565b602081830312610b20578051906001600160401b038211610b20570161014081830312610b205760405191612ba883611f69565b8151835260208201516020840152612bc260408301612b60565b6040840152612bd360608301612b60565b6060840152612be460808301612b60565b608084015260a082015160a0840152612bff60c0830161263e565b60c0840152612c1060e0830161263e565b60e0840152612c226101008301612321565b6101008401526101208201516001600160401b038111610b20576128939201612652565b90612c4f612b16565b506040516328c44a9960e21b815260048101839052915f836024817f00000000000000000000000000000000000000000000000000000000000000006001600160a01b03165afa928315611df5575f93612cd8575b508251818115918215612ccd575b5050612cbb5750565b6301fb6dd160e01b5f5260045260245ffd5b14159050815f612cb2565b612ced9193503d805f833e6107a28183611fa0565b915f612ca4565b805115612d57576001600160401b036060820151168015159081612d4c575b50612d3d57608001516001600160401b0316612d2e57600190565b637b6227e960e11b5f5260045ffd5b631ab7da6b60e01b5f5260045ffd5b90504210155f612d13565b635c2c7f8960e01b5f5260045ffd5b3d15612d90573d90612d7782611fc1565b91612d856040519384611fa0565b82523d5f602084013e565b606090565b612da8906020808251830101910161272e565b60408101805190816130b3575b5090916001600160a01b0381169150608083019060608401905f5b82518051821015612e9b57600191906001600160a01b0390612df3908390613b02565b5116612e00828751613b02565b51906040519163a9059cbb60e01b5f528860045260245260205f60448180855af190845f5114821615612e8e575b509060405215612e3f575b01612dd0565b85828060a01b03612e51838751613b02565b51167f6a0720b70d5a8914c9378c90e36e760e11a1c79840d56909d7562c7c79654e0b6020612e81858a51613b02565b51604051908152a3612e39565b3b15153d1516165f612e2e565b505094939150505f9060a081019060c08101925b82518051821015612f90576001600160a01b0390612ece908390613b02565b511690612edc818651613b02565b51823b15610b20576040516323b872dd60e01b81523060048201526001600160a01b038a16602482015260448101919091526001925f908290606490829084905af19081612f80575b50612f7b5785828060a01b03612f3c838751613b02565b51167f0863b761d932722655fba74d8a2c2b32a37c3d52195357bf7b4610ebfc6944e06020612f6c858a51613b02565b51604051908152a35b01612eaf565b612f75565b5f612f8a91611fa0565b5f612f25565b50506101008101925060e081019150610120015f5b82518051821015613097576001600160a01b0390612fc4908390613b02565b511690612fd2818651613b02565b5191612fdf828551613b02565b5192813b15610b2057600193613011925f92838d60405196879586948593637921219560e11b855230600486016141f9565b03925af19081613087575b506130825785828060a01b03613033838751613b02565b51167f15fffc8b1069bee41edd748e645887f613b87a2d861ab91a772fc4a11ebe53026040613063858a51613b02565b5161306f868951613b02565b5182519182526020820152a35b01612fa5565b61307c565b5f61309191611fa0565b5f61301c565b50505050505090506040516130ad602082611fa0565b5f815290565b5f80808060018060a01b03881695865af16130cc612d66565b50612db55760207ff7c9ce661c79b7ec4fedd33edef0ee43991ab10fc7464e4764925d33e3dfd0bc9151604051908152a25f80612db5565b805f9172184f03e93ff9f4daa797ed6e38ed64bf6a1f0160401b82101561324e575b806d04ee2d6d415b85acef8100000000600a921015613233575b662386f26fc1000081101561321f575b6305f5e10081101561320e575b6127108110156131ff575b60648110156131f1575b10156131e6575b600a6021600184019361318b85611fc1565b946131996040519687611fa0565b8086526131a8601f1991611fc1565b013660208701378401015b5f1901916f181899199a1a9b1b9c1cb0b131b232b360811b8282061a83530480156131e157600a90916131b3565b505090565b600190910190613179565b606460029104930192613172565b61271060049104930192613168565b6305f5e1006008910493019261315d565b662386f26fc1000060109104930192613150565b6d04ee2d6d415b85acef810000000060209104930192613140565b506040915072184f03e93ff9f4daa797ed6e38ed64bf6a1f0160401b8104613126565b9290919261327d612ade565b613290602082518301016020830161272e565b92606084019283515195608086019687515103613a885760a08601908151519360c088019485515103613a885760e0880197885151610100820190815151811490811591613a97575b50613a88576132f96132f08a515187515190614231565b8b515190614231565b60328111613a7157506040820151803403613a5b57505f5b895180518210156134a8576024906020906001600160a01b0390613336908590613b02565b5116604051928380926370a0823160e01b82523060048301525afa908115611df5575f91613477575b508c613378838d610a9f8260018060a01b039251613b02565b5191604051926323b872dd60e01b5f52336004523060245260445260205f60648180865af19160015f5114831615613466575b50602491926040525f60605260208d6133cc8660018060a01b039251613b02565b5116604051938480926370a0823160e01b82523060048301525afa918215611df5578f9385915f9461342e575b5015938415613413575b50505050610a8357600101613311565b61342493945090610adf9151613b02565b115f80838f613403565b94509250506020833d821161345e575b8161344b60209383611fa0565b81010312610b2057838f9351925f6133f9565b3d915061343e565b916024923b15153d151616916133ab565b90506020813d82116134a0575b8161349160209383611fa0565b81010312610b2057515f61335f565b3d9150613484565b5050929599509295965092965f965b86518051891015613692576001600160a01b03906134d6908a90613b02565b511660206134e58a8d51613b02565b516024604051809481936331a9108f60e11b835260048301525afa908115611df5575f91613659575b50336001600160a01b0390911603610d935786516001600160a01b0390613536908a90613b02565b5116613543898c51613b02565b5190803b15610b20576040516323b872dd60e01b815233600482015230602482015260448101929092525f908290606490829084905af19081613649575b5061359e5789610c828989610a9f8260018060a01b039251613b02565b9091929394959660018060a01b036135b7828a51613b02565b511660206135c6838d51613b02565b516024604051809481936331a9108f60e11b835260048301525afa908115611df5575f91613610575b50306001600160a01b0390911603610d1657600101969594939291906134b7565b90506020813d8211613641575b8161362a60209383611fa0565b81010312610b205761363b9061263e565b5f6135ef565b3d915061361d565b5f61365391611fa0565b5f613581565b90506020813d821161368a575b8161367360209383611fa0565b81010312610b20576136849061263e565b5f61350e565b3d9150613666565b50939498509450959094506101205f9501965b84518051871015613833576136cb906020906001600160a01b0390610e25908a90613b02565b03915afa908115611df5575f91613802575b5085516001600160a01b03906136f4908990613b02565b5116613701888a51613b02565b5161370d898c51613b02565b51823b15610b205761373a925f9283604051809681958294637921219560e11b84523033600486016141f9565b03925af190816137f2575b5061376a578888610aca610f118a610f09818c610f008260018060a01b039251613b02565b6137899097969192939497602060018060a01b03610f74858a51613b02565b03915afa918215611df5575f926137bd575b506137ab90610adf848c51613b02565b11610fdf5760010194959291906136a5565b9091506020813d82116137ea575b816137d860209383611fa0565b81010312610b205751906137ab61379b565b3d91506137cb565b5f6137fc91611fa0565b5f613745565b90506020813d821161382b575b8161381c60209383611fa0565b81010312610b2057515f6136dd565b3d915061380f565b5095509550915091507f00000000000000000000000000000000000000000000000000000000000000006001600160401b036040519461387286611f85565b60018060a01b031693848652168060208601527f00000000000000000000000000000000000000000000000000000000000000001515908160408701525f60608701528360808701525f60a087015260206040516138cf81611f1f565b8481528181019788526040518098819263f17325e760e01b8352846004840152516024830152516040604483015260018060a01b0381511660648301526001600160401b03848201511660848301526040810151151560a4830152606081015160c483015260a0613950608083015160c060e4860152610124850190611ed1565b91015161010483015203815f7f00000000000000000000000000000000000000000000000000000000000000006001600160a01b03165af1958615611df5575f96613a1f575b50906101209291604051926139aa84611f69565b87845260208401526001600160401b034216604084015260608301525f60808301525f60a08301528460c08301523060e08301526101008201520152817f8f7f2dbafd79125e808bf16a53d7fa4e17b8b6374ced76d946a45f94b7bf4d065f80a39060015f51602061427e5f395f51905f5255565b92919095506020833d602011613a53575b81613a3d60209383611fa0565b81010312610b2057610120925195909192613996565b3d9150613a30565b630d35e92160e01b5f526004523460245260445ffd5b6325b198a560e21b5f52600452603260245260445ffd5b63512509d360e11b5f5260045ffd5b90506101208301515114155f6132d9565b7f00000000000000000000000000000000000000000000000000000000000000006001600160a01b03163303613ada57565b634ca8886760e01b5f5260045ffd5b60e0013560018060a01b038116809103610b2057301490565b805182101561293b5760209160051b010190565b6060810191825151606082019081515111613cf9575f5b815151811015613ba65784516001600160a01b0390613b4d908390613b02565b511660018060a01b03613b61838551613b02565b511614801590613b81575b613b7857600101613b2d565b50505050505f90565b50613b90816080860151613b02565b51613b9f826080860151613b02565b5111613b6c565b5050915060a081019182515160a082019081515111613cf9575f5b815151811015613c325784516001600160a01b0390613be1908390613b02565b511660018060a01b03613bf5838551613b02565b511614801590613c0c575b613b7857600101613bc1565b50613c1b8160c0860151613b02565b51613c2a8260c0860151613b02565b511415613c00565b5050915060e08101918251519260e082019384515111613cf9575f5b845151811015613cef5781516001600160a01b0390613c6e908390613b02565b511660018060a01b03613c82838851613b02565b511614801590613cc7575b8015613ca0575b613b7857600101613c4e565b50613cb081610120860151613b02565b51613cc082610120860151613b02565b5111613c94565b50613cd781610100860151613b02565b51613ce782610100860151613b02565b511415613c8d565b5050505050600190565b505050505f90565b610120613d1c9193929301516020808251830101910161272e565b60408101805190816141c4575b50909160808301915060608301906001600160a01b038516905f5b83518051821015613efe576024906020906001600160a01b0390613d69908590613b02565b5116604051928380926370a0823160e01b82528860048301525afa908115611df5575f91613ecd575b50602460018060a01b03613da7848851613b02565b5116613db4848951613b02565b51906040519163a9059cbb60e01b5f5287600452835260205f60448180855af19060015f5114821615613ec0575b5090604052602060018060a01b03613dfb868a51613b02565b5116604051938480926370a0823160e01b82528a60048301525afa918215611df5575f92613e8d575b5015918215613e74575b5050613e3c57600101613d44565b84610aca613e5883876109e28c9660018060a01b039251613b02565b51604051634a73404560e11b8152938493309060048601614252565b613e85919250610adf848951613b02565b115f80613e2e565b9091506020813d8211613eb8575b81613ea860209383611fa0565b81010312610b205751905f613e24565b3d9150613e9b565b3b15153d1516165f613de2565b90506020813d8211613ef6575b81613ee760209383611fa0565b81010312610b2057515f613d92565b3d9150613eda565b505060c08501945f945060a08101935091905b83518051861015614093576001600160a01b0390613f30908790613b02565b5116613f3d868851613b02565b5190803b15610b20576040516323b872dd60e01b81523060048201526001600160a01b038a16602482015260448101929092525f908290606490829084905af19081614083575b50613fc25750505081613fa6916109e2610aca9460018060a01b039251613b02565b5160405163045b391760e01b8152938493309060048601614252565b9091949360018060a01b03613fd8828651613b02565b51166020613fe7838851613b02565b516024604051809481936331a9108f60e11b835260048301525afa8015611df55784915f91614048575b506001600160a01b03160361402c5760010193949190613f11565b84610aca613fa683876109e28c9660018060a01b039251613b02565b9150506020813d821161407b575b8161406360209383611fa0565b81010312610b2057614075849161263e565b5f614011565b3d9150614056565b5f61408d91611fa0565b5f613f84565b509350509250505f60e0830161012061010085019401925b815180518410156141af576001600160a01b03906140ca908590613b02565b51166140d7848751613b02565b516140e3858751613b02565b51823b15610b2057614111925f92838b60405196879586948593637921219560e11b855230600486016141f9565b03925af1908161419f575b5061419557508161414a8161415293614141610aca979660018060a01b039251613b02565b51169651613b02565b519251613b02565b5160405163334a7d1b60e21b81526001600160a01b03948516600482015230602482015294909316604485015260648401526084830191909152819060a4820190565b91600101916140ab565b5f6141a991611fa0565b5f61411c565b509450505050506040516130ad602082611fa0565b5f80808060018060a01b03891695865af16141dd612d66565b50613d295751906338f0620160e21b5f5260045260245260445ffd5b6001600160a01b039182168152911660208201526040810191909152606081019190915260a0608082018190525f9082015260c00190565b9190820180921161423e57565b634e487b7160e01b5f52601160045260245ffd5b6001600160a01b0391821681529181166020830152909116604082015260608101919091526080019056fe9b779b17422d0df92223018b32b4d1fa46e071723d6817e2486d003becc55f00a2646970667358221220ad6e01d47b641e87e6846bdd8b6c466c7d18a1ea07359aae41902118265500d164736f6c634300081b0033",
    "linkReferences": {}
  },
  "methodIdentifiers": {
    "ATTESTATION_SCHEMA()": "5bf2f20d",
    "ATTESTATION_SCHEMA_REVOCABLE()": "b587a5eb",
    "MAX_BUNDLE_ITEMS()": "11453bb7",
    "attest((bytes32,bytes32,uint64,uint64,uint64,bytes32,address,address,bool,bytes))": "e60c3505",
    "check((bytes32,bytes32,uint64,uint64,uint64,bytes32,address,address,bool,bytes),bytes,bytes32)": "8da3721a",
    "collect(bytes32,bytes32)": "ea6ec49c",
    "decodeCondition(bytes)": "760bd118",
    "decodeObligationData(bytes)": "c93844be",
    "doObligation((address,bytes,uint256,address[],uint256[],address[],uint256[],address[],uint256[],uint256[]),uint64)": "55b0769b",
    "doObligationFor((address,bytes,uint256,address[],uint256[],address[],uint256[],address[],uint256[],uint256[]),uint64,address)": "cf84e82c",
    "doObligationRaw(bytes,uint64,bytes32)": "b3b902d4",
    "getObligationData(bytes32)": "c6ec5070",
    "getSchema()": "6b122fe0",
    "isPayable()": "ce46e046",
    "multiAttest((bytes32,bytes32,uint64,uint64,uint64,bytes32,address,address,bool,bytes)[],uint256[])": "91db0b7e",
    "multiRevoke((bytes32,bytes32,uint64,uint64,uint64,bytes32,address,address,bool,bytes)[],uint256[])": "88e5b2d9",
    "onERC1155BatchReceived(address,address,uint256[],uint256[],bytes)": "bc197c81",
    "onERC1155Received(address,address,uint256,uint256,bytes)": "f23a6e61",
    "reclaim(bytes32)": "96afb365",
    "revoke((bytes32,bytes32,uint64,uint64,uint64,bytes32,address,address,bool,bytes))": "e49617e1",
    "supportsInterface(bytes4)": "01ffc9a7",
    "unsafePartiallyCollectEscrow(bytes32,bytes32)": "0fcec5b1",
    "unsafePartiallyReclaimExpired(bytes32)": "97524016",
    "version()": "54fd4d50"
  },
  "id": 132
}