{"abi":[{"type":"constructor","inputs":[{"name":"_eas","type":"address","internalType":"contract IEAS"},{"name":"_schemaRegistry","type":"address","internalType":"contract ISchemaRegistry"},{"name":"_bondAmount","type":"uint256","internalType":"uint256"},{"name":"_commitDeadline","type":"uint256","internalType":"uint256"},{"name":"_slashedBondRecipient","type":"address","internalType":"address"}],"stateMutability":"nonpayable"},{"type":"receive","stateMutability":"payable"},{"type":"function","name":"ATTESTATION_SCHEMA","inputs":[],"outputs":[{"name":"","type":"bytes32","internalType":"bytes32"}],"stateMutability":"view"},{"type":"function","name":"attest","inputs":[{"name":"attestation","type":"tuple","internalType":"struct Attestation","components":[{"name":"uid","type":"bytes32","internalType":"bytes32"},{"name":"schema","type":"bytes32","internalType":"bytes32"},{"name":"time","type":"uint64","internalType":"uint64"},{"name":"expirationTime","type":"uint64","internalType":"uint64"},{"name":"revocationTime","type":"uint64","internalType":"uint64"},{"name":"refUID","type":"bytes32","internalType":"bytes32"},{"name":"recipient","type":"address","internalType":"address"},{"name":"attester","type":"address","internalType":"address"},{"name":"revocable","type":"bool","internalType":"bool"},{"name":"data","type":"bytes","internalType":"bytes"}]}],"outputs":[{"name":"","type":"bool","internalType":"bool"}],"stateMutability":"payable"},{"type":"function","name":"bondAmount","inputs":[],"outputs":[{"name":"","type":"uint256","internalType":"uint256"}],"stateMutability":"view"},{"type":"function","name":"checkObligation","inputs":[{"name":"obligation","type":"tuple","internalType":"struct Attestation","components":[{"name":"uid","type":"bytes32","internalType":"bytes32"},{"name":"schema","type":"bytes32","internalType":"bytes32"},{"name":"time","type":"uint64","internalType":"uint64"},{"name":"expirationTime","type":"uint64","internalType":"uint64"},{"name":"revocationTime","type":"uint64","internalType":"uint64"},{"name":"refUID","type":"bytes32","internalType":"bytes32"},{"name":"recipient","type":"address","internalType":"address"},{"name":"attester","type":"address","internalType":"address"},{"name":"revocable","type":"bool","internalType":"bool"},{"name":"data","type":"bytes","internalType":"bytes"}]},{"name":"","type":"bytes","internalType":"bytes"},{"name":"","type":"bytes32","internalType":"bytes32"}],"outputs":[{"name":"","type":"bool","internalType":"bool"}],"stateMutability":"view"},{"type":"function","name":"commit","inputs":[{"name":"commitment","type":"bytes32","internalType":"bytes32"}],"outputs":[],"stateMutability":"payable"},{"type":"function","name":"commitDeadline","inputs":[],"outputs":[{"name":"","type":"uint256","internalType":"uint256"}],"stateMutability":"view"},{"type":"function","name":"commitmentClaimed","inputs":[{"name":"","type":"bytes32","internalType":"bytes32"}],"outputs":[{"name":"","type":"bool","internalType":"bool"}],"stateMutability":"view"},{"type":"function","name":"commitments","inputs":[{"name":"","type":"bytes32","internalType":"bytes32"}],"outputs":[{"name":"commitBlock","type":"uint64","internalType":"uint64"},{"name":"commitTimestamp","type":"uint64","internalType":"uint64"},{"name":"committer","type":"address","internalType":"address"}],"stateMutability":"view"},{"type":"function","name":"computeCommitment","inputs":[{"name":"refUID","type":"bytes32","internalType":"bytes32"},{"name":"claimer","type":"address","internalType":"address"},{"name":"data","type":"tuple","internalType":"struct CommitRevealObligation.ObligationData","components":[{"name":"payload","type":"bytes","internalType":"bytes"},{"name":"salt","type":"bytes32","internalType":"bytes32"},{"name":"schema","type":"bytes32","internalType":"bytes32"}]}],"outputs":[{"name":"","type":"bytes32","internalType":"bytes32"}],"stateMutability":"pure"},{"type":"function","name":"decodeObligationData","inputs":[{"name":"data","type":"bytes","internalType":"bytes"}],"outputs":[{"name":"","type":"tuple","internalType":"struct CommitRevealObligation.ObligationData","components":[{"name":"payload","type":"bytes","internalType":"bytes"},{"name":"salt","type":"bytes32","internalType":"bytes32"},{"name":"schema","type":"bytes32","internalType":"bytes32"}]}],"stateMutability":"pure"},{"type":"function","name":"doObligation","inputs":[{"name":"data","type":"tuple","internalType":"struct CommitRevealObligation.ObligationData","components":[{"name":"payload","type":"bytes","internalType":"bytes"},{"name":"salt","type":"bytes32","internalType":"bytes32"},{"name":"schema","type":"bytes32","internalType":"bytes32"}]},{"name":"refUID","type":"bytes32","internalType":"bytes32"}],"outputs":[{"name":"uid_","type":"bytes32","internalType":"bytes32"}],"stateMutability":"nonpayable"},{"type":"function","name":"doObligationRaw","inputs":[{"name":"data","type":"bytes","internalType":"bytes"},{"name":"expirationTime","type":"uint64","internalType":"uint64"},{"name":"refUID","type":"bytes32","internalType":"bytes32"}],"outputs":[{"name":"uid_","type":"bytes32","internalType":"bytes32"}],"stateMutability":"payable"},{"type":"function","name":"getObligationData","inputs":[{"name":"uid","type":"bytes32","internalType":"bytes32"}],"outputs":[{"name":"","type":"tuple","internalType":"struct CommitRevealObligation.ObligationData","components":[{"name":"payload","type":"bytes","internalType":"bytes"},{"name":"salt","type":"bytes32","internalType":"bytes32"},{"name":"schema","type":"bytes32","internalType":"bytes32"}]}],"stateMutability":"view"},{"type":"function","name":"getSchema","inputs":[],"outputs":[{"name":"","type":"tuple","internalType":"struct SchemaRecord","components":[{"name":"uid","type":"bytes32","internalType":"bytes32"},{"name":"resolver","type":"address","internalType":"contract ISchemaResolver"},{"name":"revocable","type":"bool","internalType":"bool"},{"name":"schema","type":"string","internalType":"string"}]}],"stateMutability":"view"},{"type":"function","name":"isPayable","inputs":[],"outputs":[{"name":"","type":"bool","internalType":"bool"}],"stateMutability":"pure"},{"type":"function","name":"multiAttest","inputs":[{"name":"attestations","type":"tuple[]","internalType":"struct Attestation[]","components":[{"name":"uid","type":"bytes32","internalType":"bytes32"},{"name":"schema","type":"bytes32","internalType":"bytes32"},{"name":"time","type":"uint64","internalType":"uint64"},{"name":"expirationTime","type":"uint64","internalType":"uint64"},{"name":"revocationTime","type":"uint64","internalType":"uint64"},{"name":"refUID","type":"bytes32","internalType":"bytes32"},{"name":"recipient","type":"address","internalType":"address"},{"name":"attester","type":"address","internalType":"address"},{"name":"revocable","type":"bool","internalType":"bool"},{"name":"data","type":"bytes","internalType":"bytes"}]},{"name":"values","type":"uint256[]","internalType":"uint256[]"}],"outputs":[{"name":"","type":"bool","internalType":"bool"}],"stateMutability":"payable"},{"type":"function","name":"multiRevoke","inputs":[{"name":"attestations","type":"tuple[]","internalType":"struct Attestation[]","components":[{"name":"uid","type":"bytes32","internalType":"bytes32"},{"name":"schema","type":"bytes32","internalType":"bytes32"},{"name":"time","type":"uint64","internalType":"uint64"},{"name":"expirationTime","type":"uint64","internalType":"uint64"},{"name":"revocationTime","type":"uint64","internalType":"uint64"},{"name":"refUID","type":"bytes32","internalType":"bytes32"},{"name":"recipient","type":"address","internalType":"address"},{"name":"attester","type":"address","internalType":"address"},{"name":"revocable","type":"bool","internalType":"bool"},{"name":"data","type":"bytes","internalType":"bytes"}]},{"name":"values","type":"uint256[]","internalType":"uint256[]"}],"outputs":[{"name":"","type":"bool","internalType":"bool"}],"stateMutability":"payable"},{"type":"function","name":"owner","inputs":[],"outputs":[{"name":"","type":"address","internalType":"address"}],"stateMutability":"view"},{"type":"function","name":"reclaimBond","inputs":[{"name":"obligationUid","type":"bytes32","internalType":"bytes32"}],"outputs":[{"name":"amount","type":"uint256","internalType":"uint256"}],"stateMutability":"nonpayable"},{"type":"function","name":"renounceOwnership","inputs":[],"outputs":[],"stateMutability":"nonpayable"},{"type":"function","name":"revoke","inputs":[{"name":"attestation","type":"tuple","internalType":"struct Attestation","components":[{"name":"uid","type":"bytes32","internalType":"bytes32"},{"name":"schema","type":"bytes32","internalType":"bytes32"},{"name":"time","type":"uint64","internalType":"uint64"},{"name":"expirationTime","type":"uint64","internalType":"uint64"},{"name":"revocationTime","type":"uint64","internalType":"uint64"},{"name":"refUID","type":"bytes32","internalType":"bytes32"},{"name":"recipient","type":"address","internalType":"address"},{"name":"attester","type":"address","internalType":"address"},{"name":"revocable","type":"bool","internalType":"bool"},{"name":"data","type":"bytes","internalType":"bytes"}]}],"outputs":[{"name":"","type":"bool","internalType":"bool"}],"stateMutability":"payable"},{"type":"function","name":"setBondAmount","inputs":[{"name":"_bondAmount","type":"uint256","internalType":"uint256"}],"outputs":[],"stateMutability":"nonpayable"},{"type":"function","name":"setCommitDeadline","inputs":[{"name":"_commitDeadline","type":"uint256","internalType":"uint256"}],"outputs":[],"stateMutability":"nonpayable"},{"type":"function","name":"setSlashedBondRecipient","inputs":[{"name":"_slashedBondRecipient","type":"address","internalType":"address"}],"outputs":[],"stateMutability":"nonpayable"},{"type":"function","name":"slashBond","inputs":[{"name":"commitment","type":"bytes32","internalType":"bytes32"}],"outputs":[{"name":"amount","type":"uint256","internalType":"uint256"}],"stateMutability":"nonpayable"},{"type":"function","name":"slashedBondRecipient","inputs":[],"outputs":[{"name":"","type":"address","internalType":"address"}],"stateMutability":"view"},{"type":"function","name":"transferOwnership","inputs":[{"name":"newOwner","type":"address","internalType":"address"}],"outputs":[],"stateMutability":"nonpayable"},{"type":"function","name":"version","inputs":[],"outputs":[{"name":"","type":"string","internalType":"string"}],"stateMutability":"view"},{"type":"event","name":"BondReclaimed","inputs":[{"name":"obligationUid","type":"bytes32","indexed":true,"internalType":"bytes32"},{"name":"claimer","type":"address","indexed":true,"internalType":"address"},{"name":"amount","type":"uint256","indexed":false,"internalType":"uint256"}],"anonymous":false},{"type":"event","name":"BondSlashed","inputs":[{"name":"commitment","type":"bytes32","indexed":true,"internalType":"bytes32"},{"name":"recipient","type":"address","indexed":true,"internalType":"address"},{"name":"amount","type":"uint256","indexed":false,"internalType":"uint256"}],"anonymous":false},{"type":"event","name":"Committed","inputs":[{"name":"commitment","type":"bytes32","indexed":true,"internalType":"bytes32"},{"name":"claimer","type":"address","indexed":true,"internalType":"address"}],"anonymous":false},{"type":"event","name":"OwnershipTransferred","inputs":[{"name":"previousOwner","type":"address","indexed":true,"internalType":"address"},{"name":"newOwner","type":"address","indexed":true,"internalType":"address"}],"anonymous":false},{"type":"error","name":"AccessDenied","inputs":[]},{"type":"error","name":"AttestationRevoked","inputs":[]},{"type":"error","name":"BondAlreadyClaimed","inputs":[{"name":"commitment","type":"bytes32","internalType":"bytes32"}]},{"type":"error","name":"BondTransferFailed","inputs":[{"name":"claimer","type":"address","internalType":"address"},{"name":"amount","type":"uint256","internalType":"uint256"}]},{"type":"error","name":"CommitDeadlineNotReached","inputs":[{"name":"commitment","type":"bytes32","internalType":"bytes32"}]},{"type":"error","name":"CommitmentAlreadyExists","inputs":[{"name":"commitment","type":"bytes32","internalType":"bytes32"}]},{"type":"error","name":"CommitmentMissing","inputs":[{"name":"commitment","type":"bytes32","internalType":"bytes32"},{"name":"claimer","type":"address","internalType":"address"}]},{"type":"error","name":"CommitmentTooRecent","inputs":[{"name":"commitment","type":"bytes32","internalType":"bytes32"},{"name":"claimer","type":"address","internalType":"address"}]},{"type":"error","name":"DeadlineExpired","inputs":[]},{"type":"error","name":"EmptyCommitment","inputs":[]},{"type":"error","name":"IncorrectBondAmount","inputs":[{"name":"provided","type":"uint256","internalType":"uint256"},{"name":"required","type":"uint256","internalType":"uint256"}]},{"type":"error","name":"InsufficientValue","inputs":[]},{"type":"error","name":"InvalidEAS","inputs":[]},{"type":"error","name":"InvalidLength","inputs":[]},{"type":"error","name":"InvalidSchema","inputs":[]},{"type":"error","name":"NotFromThisAttester","inputs":[]},{"type":"error","name":"NotPayable","inputs":[]},{"type":"error","name":"OwnableInvalidOwner","inputs":[{"name":"owner","type":"address","internalType":"address"}]},{"type":"error","name":"OwnableUnauthorizedAccount","inputs":[{"name":"account","type":"address","internalType":"address"}]},{"type":"error","name":"ReentrancyGuardReentrantCall","inputs":[]},{"type":"error","name":"SlashTransferFailed","inputs":[{"name":"recipient","type":"address","internalType":"address"},{"name":"amount","type":"uint256","internalType":"uint256"}]}],"bytecode":{"object":"0x610160806040523461028f5760a081611e31803803809161002082856102c9565b83398101031261028f5780516001600160a01b0381169182820361028f5760208101516001600160a01b0381169283820361028f57604083015194608060608501519401519460018060a01b03861680960361028f57604051606081016001600160401b038111828210176102b557604052602b815260208101927f6279746573207061796c6f61642c20627974657333322073616c742c2062797484526a6573333220736368656d6160a81b60408301526001608052600360a0525f60c052156102a6576084948460209560e05261012052610100525f604051958680958194630c1af44f60e31b8352606060048401525180918160648501528484015e818101830184905230602483015260016044830152601f01601f191681010301925af190811561029b575f91610265575b506101405260017f9b779b17422d0df92223018b32b4d1fa46e071723d6817e2486d003becc55f00553315610252575f8054336001600160a01b0319821681178355604051959290916001600160a01b0316907f8be0079c531659141344cd1fd0a4f28419497f9722a3daafe3b4186f6b6457e09080a3600355600455600580546001600160a01b031916919091179055611b4490816102ed823960805181611113015260a0518161113e015260c05181611169015260e05181611a9601526101005181610dfe01526101205181818161081201526119330152610140518181816104470152818161076501528181610dcc01528181610f3a015261196b0152f35b631e4fbdf760e01b5f525f60045260245ffd5b90506020813d602011610293575b81610280602093836102c9565b8101031261028f57515f610150565b5f80fd5b3d9150610273565b6040513d5f823e3d90fd5b6341bc07ff60e11b5f5260045ffd5b634e487b7160e01b5f52604160045260245ffd5b601f909101601f19168101906001600160401b038211908210176102b55760405256fe6080806040526004361015610029575b50361561001a575f80fd5b631574f9f360e01b5f5260045ffd5b5f3560e01c9081631f04b6b61461125a5750806328f9f3e6146112395780633d447265146111f657806354fd4d50146110f4578063571573ce14610f5d5780635bf2f20d14610f235780636b122fe014610d8d578063715018a614610d365780637224760e14610d155780637b11217d14610b6857806380f323a714610b4b578063839df94514610afa57806388e5b2d914610ab45780638da5cb5b14610ad357806391db0b7e14610ab4578063a2ff020914610a97578063b3b902d414610a07578063c6ec507014610958578063c93844be146108a3578063cd95b7b9146106d4578063ce46e046146106ba578063d4e063dd1461068b578063da18dc78146105eb578063e49617e1146105c6578063e60c3505146105c6578063e6c9714d1461032c578063f14fcbc8146101f25763f2fde38b14610169575f61000f565b346101ee5760203660031901126101ee5761018261127d565b61018a6116d8565b6001600160a01b031680156101db575f80546001600160a01b03198116831782556001600160a01b0316907f8be0079c531659141344cd1fd0a4f28419497f9722a3daafe3b4186f6b6457e09080a3005b631e4fbdf760e01b5f525f60045260245ffd5b5f80fd5b60203660031901126101ee57600435801561031d5760035480340361030757505f81815260016020819052604090912001546001600160a01b03166102f55760405161023d816113ef565b6001600160401b0343168152600160208201916001600160401b03421683526040810192338452845f52826020526001600160401b0360405f209251166fffffffffffffffff00000000000000008354925160401b16916fffffffffffffffffffffffffffffffff191617178155019060018060a01b039051166bffffffffffffffffffffffff60a01b82541617905533907ffda886b5d38d5d61e432b3acc9f19640a2b8c83c87a9c584a780d3854b309b9c5f80a3005b63c5f89f0560e01b5f5260045260245ffd5b63058b312960e51b5f523460045260245260445ffd5b635560fe6360e11b5f5260045ffd5b346101ee5760603660031901126101ee576004356001600160401b0381116101ee5761014060031982360301126101ee5760405161036981611439565b81600401358152602081016024830135815261038760448401611378565b604083015261039860648401611378565b606083019081526103ab60848501611378565b906080840191825260a084019260a486013584526103cb60c48701611293565b9560c086019687526103df60e48201611293565b60e087015261010481013580151581036101ee576101008701526101248101356001600160401b0381116101ee5761012091600461042092369201016114fd565b95019485526024356001600160401b0381116101ee576104449036906004016114fd565b507f00000000000000000000000000000000000000000000000000000000000000009051036105b757516001600160401b031680151590816105ac575b5061059d57516001600160401b031661058e5751825191518051602091820120604080519283019384526001600160a01b03909416938201939093526060810192909252906104dd81608081015b03601f19810183528261148b565b51902090815f52600160205260405f20604051906104fa826113ef565b6001600160401b038154818116845260401c1660208301526001808060a01b03910154168060408301521561056957516001600160401b031643111561054557602060405160018152f35b516309e555e360e01b5f9081526004929092526001600160a01b0316602452604490fd5b5051630fa254d360e21b5f9081526004929092526001600160a01b0316602452604490fd5b637b6227e960e11b5f5260045ffd5b631ab7da6b60e01b5f5260045ffd5b905042101585610481565b635f9bd90760e11b5f5260045ffd5b60206105e16105d4366113bb565b6105dc611a94565b611ad5565b6040519015158152f35b346101ee5760603660031901126101ee576024356001600160a01b03811681036101ee57604435906001600160401b0382116101ee57606060031983360301126101ee576104cf61068060209360405161064f816104cf888201946004018561166a565b519020604080516004358782019081526001600160a01b039096166020870152908501919091529182906060850190565b519020604051908152f35b346101ee5760203660031901126101ee576004355f526002602052602060ff60405f2054166040519015158152f35b346101ee575f3660031901126101ee5760206040515f8152f35b346101ee5760403660031901126101ee576004356001600160401b0381116101ee57606060031982360301126101ee5761071d6104cf916040519283916004016020830161166a565b61072561186b565b6040519061073282611455565b3382525f602083015260016040830152602435606083015260808201525f60a0820152602060405161076381611470565b7f000000000000000000000000000000000000000000000000000000000000000081528181019283526040518093819263f17325e760e01b8352846004840152516024830152516040604483015260018060a01b0381511660648301526001600160401b03848201511660848301526040810151151560a4830152606081015160c483015260a0610804608083015160c060e48601526101248501906112a7565b91015161010483015203815f7f00000000000000000000000000000000000000000000000000000000000000006001600160a01b03165af18015610898575f90610865575b60015f516020611aef5f395f51905f5255604051908152602090f35b506020813d602011610890575b8161087f6020938361148b565b810103126101ee5760209051610849565b3d9150610872565b6040513d5f823e3d90fd5b346101ee5760203660031901126101ee576004356001600160401b0381116101ee576108d390369060040161134b565b6108db611631565b508101906020818303126101ee578035906001600160401b0382116101ee5701906060828203126101ee5760405190610913826113ef565b8235926001600160401b0384116101ee576109356040926109549583016114fd565b835260208101356020840152013560408201526040519182918261138c565b0390f35b346101ee5760203660031901126101ee57610971611631565b506101206109806004356118cb565b015180518101906020818303126101ee576020810151906001600160401b0382116101ee57016060818303126101ee57604051906109bd826113ef565b6020810151906001600160401b0382116101ee576109e8606092602080610954970191840101611650565b835260408101516020840152015160408201526040519182918261138c565b60603660031901126101ee576004356001600160401b0381116101ee57610a3290369060040161134b565b602435916001600160401b0383168093036101ee57610a529136916114c7565b610a5a61186b565b60405191610a6783611455565b338352602083015260016040830152604435606083015260808201525f60a0820152602060405161076381611470565b346101ee575f3660031901126101ee576020600454604051908152f35b60206105e1610ac2366112fb565b92610ace929192611a94565b61158d565b346101ee575f3660031901126101ee575f546040516001600160a01b039091168152602090f35b346101ee5760203660031901126101ee576004355f526001602052606060405f208054906001808060a01b03910154166001600160401b0360405192818116845260401c1660208301526040820152f35b346101ee575f3660031901126101ee576020600354604051908152f35b346101ee5760203660031901126101ee57600435610b8461186b565b610b8d816118cb565b60c081015160a0820151610120909201518051602091820120604080519283019485526001600160a01b039093169282018390526060820152909190610bd681608081016104cf565b51902091825f52600160205260405f2060405190610bf3826113ef565b6001600160401b038154818116845260401c1660208301526001808060a01b039101541680604083015215610cfe57516001600160401b0316431115610ce757825f52600260205260ff60405f205416610cd457600354925f52600260205260405f20600160ff198254161790555f80808086865af1610c7161151b565b5015610cbe5790602092917fa9b8d1cb23fc6bfcae1f7ed8ec77868451af44dde191688baa93bb00b7ee491784604051858152a360015f516020611aef5f395f51905f5255604051908152f35b50638fdb80a360e01b5f5260045260245260445ffd5b826327d117f760e01b5f5260045260245ffd5b50906309e555e360e01b5f5260045260245260445ffd5b8284630fa254d360e21b5f5260045260245260445ffd5b346101ee5760203660031901126101ee57610d2e6116d8565b600480359055005b346101ee575f3660031901126101ee57610d4e6116d8565b5f80546001600160a01b0319811682556001600160a01b03167f8be0079c531659141344cd1fd0a4f28419497f9722a3daafe3b4186f6b6457e08280a3005b346101ee575f3660031901126101ee57606080604051610dac8161141e565b5f81525f60208201525f604082015201526040516351753e3760e11b81527f000000000000000000000000000000000000000000000000000000000000000060048201525f8160248160018060a01b037f0000000000000000000000000000000000000000000000000000000000000000165afa8015610898575f90610e73575b606090610954604051928392602084528051602085015260018060a01b0360208201511660408501526040810151151582850152015160808084015260a08301906112a7565b503d805f833e610e83818361148b565b8101906020818303126101ee578051906001600160401b0382116101ee57016080818303126101ee5760405190610eb98261141e565b8051825260208101516001600160a01b03811681036101ee576020830152610ee36040820161154a565b60408301526060810151906001600160401b0382116101ee570182601f820112156101ee57606092816020610f1a93519101611557565b82820152610e2d565b346101ee575f3660031901126101ee5760206040517f00000000000000000000000000000000000000000000000000000000000000008152f35b346101ee5760203660031901126101ee57600435610f7961186b565b805f52600160205260405f2060408051610f92816113ef565b82546001600160401b03808216835290831c16602082019081526001909301546001600160a01b03169101819052156110dd576001600160401b0390511660045481018091116110c9574211156110b757805f52600260205260ff60405f2054166110a55760035490805f52600260205260405f20600160ff198254161790555f8080808560018060a01b03600554165af161102c61151b565b5015611084579060209160018060a01b0360055416907f5fab42dd23447bf0a6cc6638a8217a7d477b5067842aedf24b881e132c1c133d84604051858152a360015f516020611aef5f395f51905f5255604051908152f35b5060018060a01b0360055416631f89846360e21b5f5260045260245260445ffd5b6327d117f760e01b5f5260045260245ffd5b631439fe2d60e01b5f5260045260245ffd5b634e487b7160e01b5f52601160045260245ffd5b50630fa254d360e21b5f526004525f60245260445ffd5b346101ee575f3660031901126101ee5761095460206111e260016111377f00000000000000000000000000000000000000000000000000000000000000006116fe565b81846111627f00000000000000000000000000000000000000000000000000000000000000006116fe565b818061118d7f00000000000000000000000000000000000000000000000000000000000000006116fe565b9260405199878b985191829101848a015e870190601760f91b83830152805192839101602183015e010190601760f91b84830152805192839101600283015e01015f838201520301601f19810183528261148b565b6040519182916020835260208301906112a7565b346101ee5760203660031901126101ee5761120f61127d565b6112176116d8565b600580546001600160a01b0319166001600160a01b0392909216919091179055005b346101ee5760203660031901126101ee576112526116d8565b600435600355005b346101ee575f3660031901126101ee576005546001600160a01b03168152602090f35b600435906001600160a01b03821682036101ee57565b35906001600160a01b03821682036101ee57565b805180835260209291819084018484015e5f828201840152601f01601f1916010190565b9181601f840112156101ee578235916001600160401b0383116101ee576020808501948460051b0101116101ee57565b60406003198201126101ee576004356001600160401b0381116101ee5781611325916004016112cb565b92909291602435906001600160401b0382116101ee57611347916004016112cb565b9091565b9181601f840112156101ee578235916001600160401b0383116101ee57602083818601950101116101ee57565b35906001600160401b03821682036101ee57565b60208152606060406113a9845183602086015260808501906112a7565b93602081015182850152015191015290565b60206003198201126101ee57600435906001600160401b0382116101ee576101409082900360031901126101ee5760040190565b606081019081106001600160401b0382111761140a57604052565b634e487b7160e01b5f52604160045260245ffd5b608081019081106001600160401b0382111761140a57604052565b61014081019081106001600160401b0382111761140a57604052565b60c081019081106001600160401b0382111761140a57604052565b604081019081106001600160401b0382111761140a57604052565b90601f801991011681019081106001600160401b0382111761140a57604052565b6001600160401b03811161140a57601f01601f191660200190565b9291926114d3826114ac565b916114e1604051938461148b565b8294818452818301116101ee578281602093845f960137010152565b9080601f830112156101ee57816020611518933591016114c7565b90565b3d15611545573d9061152c826114ac565b9161153a604051938461148b565b82523d5f602084013e565b606090565b519081151582036101ee57565b929192611563826114ac565b91611571604051938461148b565b8294818452818301116101ee578281602093845f96015e010152565b929092818403611622575f91345b858410156116175781841015611603578360051b80860135908282116115f45784013561013e19853603018112156101ee576115d8908501611ad5565b156115e9576001910393019261159b565b505050505050505f90565b63044044a560e21b5f5260045ffd5b634e487b7160e01b5f52603260045260245ffd5b505050505050600190565b63251f56a160e21b5f5260045ffd5b6040519061163e826113ef565b5f604083606081528260208201520152565b9080601f830112156101ee57815161151892602001611557565b602081528135601e19833603018112156101ee5782016020813591016001600160401b0382116101ee5781360381136101ee5760a0938260409260606020870152816080870152868601375f84840186015260208101358285015201356060830152601f01601f1916010190565b5f546001600160a01b031633036116eb57565b63118cdaa760e01b5f523360045260245ffd5b805f9172184f03e93ff9f4daa797ed6e38ed64bf6a1f0160401b821015611848575b806d04ee2d6d415b85acef8100000000600a92101561182d575b662386f26fc10000811015611819575b6305f5e100811015611808575b6127108110156117f9575b60648110156117eb575b10156117e0575b600a60216001840193611785856114ac565b94611793604051968761148b565b8086526117a2601f19916114ac565b013660208701378401015b5f1901916f181899199a1a9b1b9c1cb0b131b232b360811b8282061a83530480156117db57600a90916117ad565b505090565b600190910190611773565b60646002910493019261176c565b61271060049104930192611762565b6305f5e10060089104930192611757565b662386f26fc100006010910493019261174a565b6d04ee2d6d415b85acef81000000006020910493019261173a565b506040915072184f03e93ff9f4daa797ed6e38ed64bf6a1f0160401b8104611720565b60025f516020611aef5f395f51905f5254146118945760025f516020611aef5f395f51905f5255565b633ee5aeb560e01b5f5260045ffd5b51906001600160401b03821682036101ee57565b51906001600160a01b03821682036101ee57565b9060606101206040516118dd81611439565b5f81525f60208201525f60408201525f838201525f60808201525f60a08201525f60c08201525f60e08201525f6101008201520152604051916328c44a9960e21b835260048301525f8260248160018060a01b037f0000000000000000000000000000000000000000000000000000000000000000165afa918215610898575f926119a0575b5060208201517f00000000000000000000000000000000000000000000000000000000000000000361199157565b635527981560e11b5f5260045ffd5b9091503d805f833e6119b2818361148b565b8101906020818303126101ee578051906001600160401b0382116101ee5701610140818303126101ee57604051916119e983611439565b8151835260208201516020840152611a03604083016118a3565b6040840152611a14606083016118a3565b6060840152611a25608083016118a3565b608084015260a082015160a0840152611a4060c083016118b7565b60c0840152611a5160e083016118b7565b60e0840152611a63610100830161154a565b6101008401526101208201516001600160401b0381116101ee57611a879201611650565b610120820152905f611963565b7f00000000000000000000000000000000000000000000000000000000000000006001600160a01b03163303611ac657565b634ca8886760e01b5f5260045ffd5b60e0013560018060a01b0381168091036101ee5730149056fe9b779b17422d0df92223018b32b4d1fa46e071723d6817e2486d003becc55f00a264697066735822122092ad51c9c9c1839dff48d5958b33a45a81e3341f86b638045e3039cc7f5d5cf264736f6c634300081b0033","linkReferences":{}},"methodIdentifiers":{"ATTESTATION_SCHEMA()":"5bf2f20d","attest((bytes32,bytes32,uint64,uint64,uint64,bytes32,address,address,bool,bytes))":"e60c3505","bondAmount()":"80f323a7","checkObligation((bytes32,bytes32,uint64,uint64,uint64,bytes32,address,address,bool,bytes),bytes,bytes32)":"e6c9714d","commit(bytes32)":"f14fcbc8","commitDeadline()":"a2ff0209","commitmentClaimed(bytes32)":"d4e063dd","commitments(bytes32)":"839df945","computeCommitment(bytes32,address,(bytes,bytes32,bytes32))":"da18dc78","decodeObligationData(bytes)":"c93844be","doObligation((bytes,bytes32,bytes32),bytes32)":"cd95b7b9","doObligationRaw(bytes,uint64,bytes32)":"b3b902d4","getObligationData(bytes32)":"c6ec5070","getSchema()":"6b122fe0","isPayable()":"ce46e046","multiAttest((bytes32,bytes32,uint64,uint64,uint64,bytes32,address,address,bool,bytes)[],uint256[])":"91db0b7e","multiRevoke((bytes32,bytes32,uint64,uint64,uint64,bytes32,address,address,bool,bytes)[],uint256[])":"88e5b2d9","owner()":"8da5cb5b","reclaimBond(bytes32)":"7b11217d","renounceOwnership()":"715018a6","revoke((bytes32,bytes32,uint64,uint64,uint64,bytes32,address,address,bool,bytes))":"e49617e1","setBondAmount(uint256)":"28f9f3e6","setCommitDeadline(uint256)":"7224760e","setSlashedBondRecipient(address)":"3d447265","slashBond(bytes32)":"571573ce","slashedBondRecipient()":"1f04b6b6","transferOwnership(address)":"f2fde38b","version()":"54fd4d50"},"id":102}