{
  "abi": [
    {
      "type": "constructor",
      "inputs": [
        {
          "name": "_eas",
          "type": "address",
          "internalType": "contract IEAS"
        },
        {
          "name": "_schemaRegistry",
          "type": "address",
          "internalType": "contract ISchemaRegistry"
        },
        {
          "name": "_bondAmount",
          "type": "uint256",
          "internalType": "uint256"
        },
        {
          "name": "_commitDeadline",
          "type": "uint256",
          "internalType": "uint256"
        },
        {
          "name": "_slashedBondRecipient",
          "type": "address",
          "internalType": "address"
        }
      ],
      "stateMutability": "nonpayable"
    },
    {
      "type": "receive",
      "stateMutability": "payable"
    },
    {
      "type": "function",
      "name": "ATTESTATION_SCHEMA",
      "inputs": [],
      "outputs": [
        {
          "name": "",
          "type": "bytes32",
          "internalType": "bytes32"
        }
      ],
      "stateMutability": "view"
    },
    {
      "type": "function",
      "name": "attest",
      "inputs": [
        {
          "name": "attestation",
          "type": "tuple",
          "internalType": "struct Attestation",
          "components": [
            {
              "name": "uid",
              "type": "bytes32",
              "internalType": "bytes32"
            },
            {
              "name": "schema",
              "type": "bytes32",
              "internalType": "bytes32"
            },
            {
              "name": "time",
              "type": "uint64",
              "internalType": "uint64"
            },
            {
              "name": "expirationTime",
              "type": "uint64",
              "internalType": "uint64"
            },
            {
              "name": "revocationTime",
              "type": "uint64",
              "internalType": "uint64"
            },
            {
              "name": "refUID",
              "type": "bytes32",
              "internalType": "bytes32"
            },
            {
              "name": "recipient",
              "type": "address",
              "internalType": "address"
            },
            {
              "name": "attester",
              "type": "address",
              "internalType": "address"
            },
            {
              "name": "revocable",
              "type": "bool",
              "internalType": "bool"
            },
            {
              "name": "data",
              "type": "bytes",
              "internalType": "bytes"
            }
          ]
        }
      ],
      "outputs": [
        {
          "name": "",
          "type": "bool",
          "internalType": "bool"
        }
      ],
      "stateMutability": "payable"
    },
    {
      "type": "function",
      "name": "bondAmount",
      "inputs": [],
      "outputs": [
        {
          "name": "",
          "type": "uint256",
          "internalType": "uint256"
        }
      ],
      "stateMutability": "view"
    },
    {
      "type": "function",
      "name": "bondEpochCount",
      "inputs": [],
      "outputs": [
        {
          "name": "",
          "type": "uint256",
          "internalType": "uint256"
        }
      ],
      "stateMutability": "view"
    },
    {
      "type": "function",
      "name": "bondEpochs",
      "inputs": [
        {
          "name": "",
          "type": "uint256",
          "internalType": "uint256"
        }
      ],
      "outputs": [
        {
          "name": "startBlock",
          "type": "uint64",
          "internalType": "uint64"
        },
        {
          "name": "amount",
          "type": "uint256",
          "internalType": "uint256"
        }
      ],
      "stateMutability": "view"
    },
    {
      "type": "function",
      "name": "checkObligation",
      "inputs": [
        {
          "name": "obligation",
          "type": "tuple",
          "internalType": "struct Attestation",
          "components": [
            {
              "name": "uid",
              "type": "bytes32",
              "internalType": "bytes32"
            },
            {
              "name": "schema",
              "type": "bytes32",
              "internalType": "bytes32"
            },
            {
              "name": "time",
              "type": "uint64",
              "internalType": "uint64"
            },
            {
              "name": "expirationTime",
              "type": "uint64",
              "internalType": "uint64"
            },
            {
              "name": "revocationTime",
              "type": "uint64",
              "internalType": "uint64"
            },
            {
              "name": "refUID",
              "type": "bytes32",
              "internalType": "bytes32"
            },
            {
              "name": "recipient",
              "type": "address",
              "internalType": "address"
            },
            {
              "name": "attester",
              "type": "address",
              "internalType": "address"
            },
            {
              "name": "revocable",
              "type": "bool",
              "internalType": "bool"
            },
            {
              "name": "data",
              "type": "bytes",
              "internalType": "bytes"
            }
          ]
        },
        {
          "name": "",
          "type": "bytes",
          "internalType": "bytes"
        },
        {
          "name": "",
          "type": "bytes32",
          "internalType": "bytes32"
        }
      ],
      "outputs": [
        {
          "name": "",
          "type": "bool",
          "internalType": "bool"
        }
      ],
      "stateMutability": "view"
    },
    {
      "type": "function",
      "name": "commit",
      "inputs": [
        {
          "name": "commitment",
          "type": "bytes32",
          "internalType": "bytes32"
        }
      ],
      "outputs": [],
      "stateMutability": "payable"
    },
    {
      "type": "function",
      "name": "commitDeadline",
      "inputs": [],
      "outputs": [
        {
          "name": "",
          "type": "uint256",
          "internalType": "uint256"
        }
      ],
      "stateMutability": "view"
    },
    {
      "type": "function",
      "name": "commitmentClaimed",
      "inputs": [
        {
          "name": "",
          "type": "bytes32",
          "internalType": "bytes32"
        }
      ],
      "outputs": [
        {
          "name": "",
          "type": "bool",
          "internalType": "bool"
        }
      ],
      "stateMutability": "view"
    },
    {
      "type": "function",
      "name": "commitments",
      "inputs": [
        {
          "name": "",
          "type": "bytes32",
          "internalType": "bytes32"
        }
      ],
      "outputs": [
        {
          "name": "commitBlock",
          "type": "uint64",
          "internalType": "uint64"
        },
        {
          "name": "commitTimestamp",
          "type": "uint64",
          "internalType": "uint64"
        },
        {
          "name": "committer",
          "type": "address",
          "internalType": "address"
        }
      ],
      "stateMutability": "view"
    },
    {
      "type": "function",
      "name": "computeCommitment",
      "inputs": [
        {
          "name": "refUID",
          "type": "bytes32",
          "internalType": "bytes32"
        },
        {
          "name": "claimer",
          "type": "address",
          "internalType": "address"
        },
        {
          "name": "data",
          "type": "tuple",
          "internalType": "struct CommitRevealObligation.ObligationData",
          "components": [
            {
              "name": "payload",
              "type": "bytes",
              "internalType": "bytes"
            },
            {
              "name": "salt",
              "type": "bytes32",
              "internalType": "bytes32"
            },
            {
              "name": "schema",
              "type": "bytes32",
              "internalType": "bytes32"
            }
          ]
        }
      ],
      "outputs": [
        {
          "name": "",
          "type": "bytes32",
          "internalType": "bytes32"
        }
      ],
      "stateMutability": "pure"
    },
    {
      "type": "function",
      "name": "decodeObligationData",
      "inputs": [
        {
          "name": "data",
          "type": "bytes",
          "internalType": "bytes"
        }
      ],
      "outputs": [
        {
          "name": "",
          "type": "tuple",
          "internalType": "struct CommitRevealObligation.ObligationData",
          "components": [
            {
              "name": "payload",
              "type": "bytes",
              "internalType": "bytes"
            },
            {
              "name": "salt",
              "type": "bytes32",
              "internalType": "bytes32"
            },
            {
              "name": "schema",
              "type": "bytes32",
              "internalType": "bytes32"
            }
          ]
        }
      ],
      "stateMutability": "pure"
    },
    {
      "type": "function",
      "name": "doObligation",
      "inputs": [
        {
          "name": "data",
          "type": "tuple",
          "internalType": "struct CommitRevealObligation.ObligationData",
          "components": [
            {
              "name": "payload",
              "type": "bytes",
              "internalType": "bytes"
            },
            {
              "name": "salt",
              "type": "bytes32",
              "internalType": "bytes32"
            },
            {
              "name": "schema",
              "type": "bytes32",
              "internalType": "bytes32"
            }
          ]
        },
        {
          "name": "refUID",
          "type": "bytes32",
          "internalType": "bytes32"
        }
      ],
      "outputs": [
        {
          "name": "uid_",
          "type": "bytes32",
          "internalType": "bytes32"
        }
      ],
      "stateMutability": "nonpayable"
    },
    {
      "type": "function",
      "name": "doObligationFor",
      "inputs": [
        {
          "name": "data",
          "type": "tuple",
          "internalType": "struct CommitRevealObligation.ObligationData",
          "components": [
            {
              "name": "payload",
              "type": "bytes",
              "internalType": "bytes"
            },
            {
              "name": "salt",
              "type": "bytes32",
              "internalType": "bytes32"
            },
            {
              "name": "schema",
              "type": "bytes32",
              "internalType": "bytes32"
            }
          ]
        },
        {
          "name": "recipient",
          "type": "address",
          "internalType": "address"
        },
        {
          "name": "refUID",
          "type": "bytes32",
          "internalType": "bytes32"
        }
      ],
      "outputs": [
        {
          "name": "uid_",
          "type": "bytes32",
          "internalType": "bytes32"
        }
      ],
      "stateMutability": "nonpayable"
    },
    {
      "type": "function",
      "name": "doObligationRaw",
      "inputs": [
        {
          "name": "data",
          "type": "bytes",
          "internalType": "bytes"
        },
        {
          "name": "expirationTime",
          "type": "uint64",
          "internalType": "uint64"
        },
        {
          "name": "refUID",
          "type": "bytes32",
          "internalType": "bytes32"
        }
      ],
      "outputs": [
        {
          "name": "uid_",
          "type": "bytes32",
          "internalType": "bytes32"
        }
      ],
      "stateMutability": "payable"
    },
    {
      "type": "function",
      "name": "getObligationData",
      "inputs": [
        {
          "name": "uid",
          "type": "bytes32",
          "internalType": "bytes32"
        }
      ],
      "outputs": [
        {
          "name": "",
          "type": "tuple",
          "internalType": "struct CommitRevealObligation.ObligationData",
          "components": [
            {
              "name": "payload",
              "type": "bytes",
              "internalType": "bytes"
            },
            {
              "name": "salt",
              "type": "bytes32",
              "internalType": "bytes32"
            },
            {
              "name": "schema",
              "type": "bytes32",
              "internalType": "bytes32"
            }
          ]
        }
      ],
      "stateMutability": "view"
    },
    {
      "type": "function",
      "name": "getSchema",
      "inputs": [],
      "outputs": [
        {
          "name": "",
          "type": "tuple",
          "internalType": "struct SchemaRecord",
          "components": [
            {
              "name": "uid",
              "type": "bytes32",
              "internalType": "bytes32"
            },
            {
              "name": "resolver",
              "type": "address",
              "internalType": "contract ISchemaResolver"
            },
            {
              "name": "revocable",
              "type": "bool",
              "internalType": "bool"
            },
            {
              "name": "schema",
              "type": "string",
              "internalType": "string"
            }
          ]
        }
      ],
      "stateMutability": "view"
    },
    {
      "type": "function",
      "name": "isPayable",
      "inputs": [],
      "outputs": [
        {
          "name": "",
          "type": "bool",
          "internalType": "bool"
        }
      ],
      "stateMutability": "pure"
    },
    {
      "type": "function",
      "name": "multiAttest",
      "inputs": [
        {
          "name": "attestations",
          "type": "tuple[]",
          "internalType": "struct Attestation[]",
          "components": [
            {
              "name": "uid",
              "type": "bytes32",
              "internalType": "bytes32"
            },
            {
              "name": "schema",
              "type": "bytes32",
              "internalType": "bytes32"
            },
            {
              "name": "time",
              "type": "uint64",
              "internalType": "uint64"
            },
            {
              "name": "expirationTime",
              "type": "uint64",
              "internalType": "uint64"
            },
            {
              "name": "revocationTime",
              "type": "uint64",
              "internalType": "uint64"
            },
            {
              "name": "refUID",
              "type": "bytes32",
              "internalType": "bytes32"
            },
            {
              "name": "recipient",
              "type": "address",
              "internalType": "address"
            },
            {
              "name": "attester",
              "type": "address",
              "internalType": "address"
            },
            {
              "name": "revocable",
              "type": "bool",
              "internalType": "bool"
            },
            {
              "name": "data",
              "type": "bytes",
              "internalType": "bytes"
            }
          ]
        },
        {
          "name": "values",
          "type": "uint256[]",
          "internalType": "uint256[]"
        }
      ],
      "outputs": [
        {
          "name": "",
          "type": "bool",
          "internalType": "bool"
        }
      ],
      "stateMutability": "payable"
    },
    {
      "type": "function",
      "name": "multiRevoke",
      "inputs": [
        {
          "name": "attestations",
          "type": "tuple[]",
          "internalType": "struct Attestation[]",
          "components": [
            {
              "name": "uid",
              "type": "bytes32",
              "internalType": "bytes32"
            },
            {
              "name": "schema",
              "type": "bytes32",
              "internalType": "bytes32"
            },
            {
              "name": "time",
              "type": "uint64",
              "internalType": "uint64"
            },
            {
              "name": "expirationTime",
              "type": "uint64",
              "internalType": "uint64"
            },
            {
              "name": "revocationTime",
              "type": "uint64",
              "internalType": "uint64"
            },
            {
              "name": "refUID",
              "type": "bytes32",
              "internalType": "bytes32"
            },
            {
              "name": "recipient",
              "type": "address",
              "internalType": "address"
            },
            {
              "name": "attester",
              "type": "address",
              "internalType": "address"
            },
            {
              "name": "revocable",
              "type": "bool",
              "internalType": "bool"
            },
            {
              "name": "data",
              "type": "bytes",
              "internalType": "bytes"
            }
          ]
        },
        {
          "name": "values",
          "type": "uint256[]",
          "internalType": "uint256[]"
        }
      ],
      "outputs": [
        {
          "name": "",
          "type": "bool",
          "internalType": "bool"
        }
      ],
      "stateMutability": "payable"
    },
    {
      "type": "function",
      "name": "owner",
      "inputs": [],
      "outputs": [
        {
          "name": "",
          "type": "address",
          "internalType": "address"
        }
      ],
      "stateMutability": "view"
    },
    {
      "type": "function",
      "name": "renounceOwnership",
      "inputs": [],
      "outputs": [],
      "stateMutability": "nonpayable"
    },
    {
      "type": "function",
      "name": "revealAndCollect",
      "inputs": [
        {
          "name": "data",
          "type": "tuple",
          "internalType": "struct CommitRevealObligation.ObligationData",
          "components": [
            {
              "name": "payload",
              "type": "bytes",
              "internalType": "bytes"
            },
            {
              "name": "salt",
              "type": "bytes32",
              "internalType": "bytes32"
            },
            {
              "name": "schema",
              "type": "bytes32",
              "internalType": "bytes32"
            }
          ]
        },
        {
          "name": "recipient",
          "type": "address",
          "internalType": "address"
        },
        {
          "name": "escrowContract",
          "type": "address",
          "internalType": "address"
        },
        {
          "name": "escrowUid",
          "type": "bytes32",
          "internalType": "bytes32"
        }
      ],
      "outputs": [
        {
          "name": "fulfillmentUid",
          "type": "bytes32",
          "internalType": "bytes32"
        },
        {
          "name": "collectResult",
          "type": "bytes",
          "internalType": "bytes"
        }
      ],
      "stateMutability": "nonpayable"
    },
    {
      "type": "function",
      "name": "revoke",
      "inputs": [
        {
          "name": "attestation",
          "type": "tuple",
          "internalType": "struct Attestation",
          "components": [
            {
              "name": "uid",
              "type": "bytes32",
              "internalType": "bytes32"
            },
            {
              "name": "schema",
              "type": "bytes32",
              "internalType": "bytes32"
            },
            {
              "name": "time",
              "type": "uint64",
              "internalType": "uint64"
            },
            {
              "name": "expirationTime",
              "type": "uint64",
              "internalType": "uint64"
            },
            {
              "name": "revocationTime",
              "type": "uint64",
              "internalType": "uint64"
            },
            {
              "name": "refUID",
              "type": "bytes32",
              "internalType": "bytes32"
            },
            {
              "name": "recipient",
              "type": "address",
              "internalType": "address"
            },
            {
              "name": "attester",
              "type": "address",
              "internalType": "address"
            },
            {
              "name": "revocable",
              "type": "bool",
              "internalType": "bool"
            },
            {
              "name": "data",
              "type": "bytes",
              "internalType": "bytes"
            }
          ]
        }
      ],
      "outputs": [
        {
          "name": "",
          "type": "bool",
          "internalType": "bool"
        }
      ],
      "stateMutability": "payable"
    },
    {
      "type": "function",
      "name": "setBondAmount",
      "inputs": [
        {
          "name": "_bondAmount",
          "type": "uint256",
          "internalType": "uint256"
        }
      ],
      "outputs": [],
      "stateMutability": "nonpayable"
    },
    {
      "type": "function",
      "name": "setCommitDeadline",
      "inputs": [
        {
          "name": "_commitDeadline",
          "type": "uint256",
          "internalType": "uint256"
        }
      ],
      "outputs": [],
      "stateMutability": "nonpayable"
    },
    {
      "type": "function",
      "name": "setSlashedBondRecipient",
      "inputs": [
        {
          "name": "_slashedBondRecipient",
          "type": "address",
          "internalType": "address"
        }
      ],
      "outputs": [],
      "stateMutability": "nonpayable"
    },
    {
      "type": "function",
      "name": "slashBond",
      "inputs": [
        {
          "name": "commitment",
          "type": "bytes32",
          "internalType": "bytes32"
        }
      ],
      "outputs": [
        {
          "name": "amount",
          "type": "uint256",
          "internalType": "uint256"
        }
      ],
      "stateMutability": "nonpayable"
    },
    {
      "type": "function",
      "name": "slashedBondRecipient",
      "inputs": [],
      "outputs": [
        {
          "name": "",
          "type": "address",
          "internalType": "address"
        }
      ],
      "stateMutability": "view"
    },
    {
      "type": "function",
      "name": "transferOwnership",
      "inputs": [
        {
          "name": "newOwner",
          "type": "address",
          "internalType": "address"
        }
      ],
      "outputs": [],
      "stateMutability": "nonpayable"
    },
    {
      "type": "function",
      "name": "version",
      "inputs": [],
      "outputs": [
        {
          "name": "",
          "type": "string",
          "internalType": "string"
        }
      ],
      "stateMutability": "view"
    },
    {
      "type": "event",
      "name": "BondReclaimed",
      "inputs": [
        {
          "name": "obligationUid",
          "type": "bytes32",
          "indexed": true,
          "internalType": "bytes32"
        },
        {
          "name": "claimer",
          "type": "address",
          "indexed": true,
          "internalType": "address"
        },
        {
          "name": "amount",
          "type": "uint256",
          "indexed": false,
          "internalType": "uint256"
        }
      ],
      "anonymous": false
    },
    {
      "type": "event",
      "name": "BondSlashed",
      "inputs": [
        {
          "name": "commitment",
          "type": "bytes32",
          "indexed": true,
          "internalType": "bytes32"
        },
        {
          "name": "recipient",
          "type": "address",
          "indexed": true,
          "internalType": "address"
        },
        {
          "name": "amount",
          "type": "uint256",
          "indexed": false,
          "internalType": "uint256"
        }
      ],
      "anonymous": false
    },
    {
      "type": "event",
      "name": "Committed",
      "inputs": [
        {
          "name": "commitment",
          "type": "bytes32",
          "indexed": true,
          "internalType": "bytes32"
        },
        {
          "name": "claimer",
          "type": "address",
          "indexed": true,
          "internalType": "address"
        }
      ],
      "anonymous": false
    },
    {
      "type": "event",
      "name": "OwnershipTransferred",
      "inputs": [
        {
          "name": "previousOwner",
          "type": "address",
          "indexed": true,
          "internalType": "address"
        },
        {
          "name": "newOwner",
          "type": "address",
          "indexed": true,
          "internalType": "address"
        }
      ],
      "anonymous": false
    },
    {
      "type": "error",
      "name": "AccessDenied",
      "inputs": []
    },
    {
      "type": "error",
      "name": "BondAlreadyClaimed",
      "inputs": [
        {
          "name": "commitment",
          "type": "bytes32",
          "internalType": "bytes32"
        }
      ]
    },
    {
      "type": "error",
      "name": "BondTransferFailed",
      "inputs": [
        {
          "name": "claimer",
          "type": "address",
          "internalType": "address"
        },
        {
          "name": "amount",
          "type": "uint256",
          "internalType": "uint256"
        }
      ]
    },
    {
      "type": "error",
      "name": "CommitDeadlineNotReached",
      "inputs": [
        {
          "name": "commitment",
          "type": "bytes32",
          "internalType": "bytes32"
        }
      ]
    },
    {
      "type": "error",
      "name": "CommitmentAlreadyExists",
      "inputs": [
        {
          "name": "commitment",
          "type": "bytes32",
          "internalType": "bytes32"
        }
      ]
    },
    {
      "type": "error",
      "name": "CommitmentMissing",
      "inputs": [
        {
          "name": "commitment",
          "type": "bytes32",
          "internalType": "bytes32"
        },
        {
          "name": "claimer",
          "type": "address",
          "internalType": "address"
        }
      ]
    },
    {
      "type": "error",
      "name": "CommitmentTooRecent",
      "inputs": [
        {
          "name": "commitment",
          "type": "bytes32",
          "internalType": "bytes32"
        },
        {
          "name": "claimer",
          "type": "address",
          "internalType": "address"
        }
      ]
    },
    {
      "type": "error",
      "name": "EmptyCommitment",
      "inputs": []
    },
    {
      "type": "error",
      "name": "EscrowCollectionFailed",
      "inputs": [
        {
          "name": "escrowContract",
          "type": "address",
          "internalType": "address"
        },
        {
          "name": "escrowUid",
          "type": "bytes32",
          "internalType": "bytes32"
        },
        {
          "name": "fulfillmentUid",
          "type": "bytes32",
          "internalType": "bytes32"
        },
        {
          "name": "result",
          "type": "bytes",
          "internalType": "bytes"
        }
      ]
    },
    {
      "type": "error",
      "name": "IncorrectBondAmount",
      "inputs": [
        {
          "name": "provided",
          "type": "uint256",
          "internalType": "uint256"
        },
        {
          "name": "required",
          "type": "uint256",
          "internalType": "uint256"
        }
      ]
    },
    {
      "type": "error",
      "name": "InsufficientValue",
      "inputs": []
    },
    {
      "type": "error",
      "name": "InvalidEAS",
      "inputs": []
    },
    {
      "type": "error",
      "name": "InvalidLength",
      "inputs": []
    },
    {
      "type": "error",
      "name": "NotFromThisAttester",
      "inputs": []
    },
    {
      "type": "error",
      "name": "NotPayable",
      "inputs": []
    },
    {
      "type": "error",
      "name": "OwnableInvalidOwner",
      "inputs": [
        {
          "name": "owner",
          "type": "address",
          "internalType": "address"
        }
      ]
    },
    {
      "type": "error",
      "name": "OwnableUnauthorizedAccount",
      "inputs": [
        {
          "name": "account",
          "type": "address",
          "internalType": "address"
        }
      ]
    },
    {
      "type": "error",
      "name": "ReentrancyGuardReentrantCall",
      "inputs": []
    },
    {
      "type": "error",
      "name": "RevealTooLate",
      "inputs": [
        {
          "name": "commitment",
          "type": "bytes32",
          "internalType": "bytes32"
        }
      ]
    },
    {
      "type": "error",
      "name": "SchemaRegistrationFailed",
      "inputs": [
        {
          "name": "uid",
          "type": "bytes32",
          "internalType": "bytes32"
        }
      ]
    },
    {
      "type": "error",
      "name": "SlashTransferFailed",
      "inputs": [
        {
          "name": "recipient",
          "type": "address",
          "internalType": "address"
        },
        {
          "name": "amount",
          "type": "uint256",
          "internalType": "uint256"
        }
      ]
    }
  ],
  "bytecode": {
    "object": "0x61016080604052346103025760a08161285a80380380916100208285610306565b833981010312610302578051906001600160a01b038216808303610302576020820151926001600160a01b03841680850361030257604084015192608060608601519501519560018060a01b0387168097036103025760405191610085606084610306565b602b83527f6279746573207061796c6f61642c20627974657333322073616c742c2062797460208401526a6573333220736368656d6160a81b60408401526001608052600360a0525f60c052156102f357836100ed9460e0526101205261010052309161040d565b6101405260017f9b779b17422d0df92223018b32b4d1fa46e071723d6817e2486d003becc55f005533156102e0575f8054336001600160a01b0319821681178355604051939290916001600160a01b0316907f8be0079c531659141344cd1fd0a4f28419497f9722a3daafe3b4186f6b6457e09080a3604082016001600160401b038111838210176102cc576040525f82526020820190815260035490680100000000000000008210156102cc5760018201806003558210156102b85760035f52915160019190911b7fc2575a0e9e593c00f959f8c92f12db2869c3395a3b0502d05e2516446f71f85b810180546001600160401b0319166001600160401b03939093169290921790915590517fc2575a0e9e593c00f959f8c92f12db2869c3395a3b0502d05e2516446f71f85c90910155600455600580546001600160a01b03191691909117905560405161227190816105e98239608051816111a6015260a051816111d1015260c051816111fc015260e051816120c001526101005181610e4b015261012051818181610737015281816108b20152611b3301526101405181818161076f0152818161091701528181610e1901528181610fcd0152818161199b0152611b9f0152f35b634e487b7160e01b5f52603260045260245ffd5b634e487b7160e01b5f52604160045260245ffd5b631e4fbdf760e01b5f525f60045260245ffd5b6341bc07ff60e11b5f5260045ffd5b5f80fd5b601f909101601f19168101906001600160401b038211908210176102cc57604052565b602081830312610302578051906001600160401b0382116103025701906080828203126103025760405191608083016001600160401b038111848210176102cc576040528051835260208101516001600160a01b0381168103610302576020840152604081015180151581036103025760408401526060810151906001600160401b038211610302570181601f82011215610302578051906001600160401b0382116102cc57604051926103e7601f8401601f191660200185610306565b8284526020838301011161030257815f9260208093018386015e83010152606082015290565b929160405190602082018351926104576015602083818901978089885e810160018060601b03198860601b1683820152600160f81b60348201520301600a19810184520182610306565b5190206040516351753e3760e11b81526004810182905290956001600160a01b031693905f81602481885afa80156105685787915f916105ce575b5051146105c8579060846020926040519485938492630c1af44f60e31b8452606060048501525180928160648601528585015e5f84838501015260018060a01b0316602483015260016044830152601f801991011681010301815f865af15f9181610594575b5061057357505f602491604051928380926351753e3760e11b82528760048301525afa80156105685783915f91610546575b5051146105445750639e6113d560e01b5f5260045260245ffd5b565b61056291503d805f833e61055a8183610306565b810190610329565b5f61052a565b6040513d5f823e3d90fd5b91928091508203610582575090565b639e6113d560e01b5f5260045260245ffd5b9091506020813d6020116105c0575b816105b060209383610306565b810103126103025751905f6104f8565b3d91506105a3565b50505050565b6105e291503d805f833e61055a8183610306565b5f61049256fe6080806040526004361015610029575b50361561001a575f80fd5b631574f9f360e01b5f5260045ffd5b5f3560e01c9081631f04b6b6146114eb5750806328f9f3e6146113de5780632cfea7ce146112cc5780633d4472651461128957806354fd4d5014611187578063571573ce14610ff05780635bf2f20d14610fb65780636605239e14610f705780636b122fe014610dda578063715018a614610d835780637224760e14610d6257806380f323a714610d47578063839df94514610cf657806388e5b2d914610cb05780638da5cb5b14610ccf57806391db0b7e14610cb0578063a2ff020914610c93578063a50a216214610c26578063b3b902d414610859578063c6ec5070146106b4578063c93844be146105ff578063cd95b7b91461059f578063ce46e04614610585578063d4e063dd14610556578063d825c0a014610539578063da18dc7814610496578063e49617e11461047b578063e60c35051461047b578063e6c9714d14610359578063f14fcbc8146102135763f2fde38b1461018a575f61000f565b3461020f57602036600319011261020f576101a3611524565b6101ab611afc565b6001600160a01b031680156101fc575f80546001600160a01b03198116831782556001600160a01b0316907f8be0079c531659141344cd1fd0a4f28419497f9722a3daafe3b4186f6b6457e09080a3005b631e4fbdf760e01b5f525f60045260245ffd5b5f80fd5b602036600319011261020f57600435801561034a5761023143612059565b80340361033457505f81815260016020819052604090912001546001600160a01b031661032257604051610264816116e1565b6001600160401b0343168152600160208201916001600160401b03421683526040810192338452845f52826020526001600160401b038060405f20935116166001600160401b03198354161782555167ffffffffffffffff60401b82549160401b169067ffffffffffffffff60401b1916178155019060018060a01b039051166bffffffffffffffffffffffff60a01b82541617905533907ffda886b5d38d5d61e432b3acc9f19640a2b8c83c87a9c584a780d3854b309b9c5f80a3005b63c5f89f0560e01b5f5260045260245ffd5b63058b312960e51b5f523460045260245260445ffd5b635560fe6360e11b5f5260045ffd5b3461020f57606036600319011261020f576004356001600160401b03811161020f57610140600319823603011261020f576040519061039782611717565b80600401358252602481013560208301526103b46044820161164f565b60408301526103c56064820161164f565b60608301526103d66084820161164f565b608083015260a481013560a08301526103f160c4820161153a565b60c083015261040260e4820161153a565b60e0830152610104810135801515810361020f57610100830152610124810135906001600160401b03821161020f57600461044092369201016117c0565b6101208201526024356001600160401b03811161020f5760209161046b6104719236906004016117c0565b50611994565b6040519015158152f35b602061047161048936611692565b6104916120be565b6120ff565b3461020f57606036600319011261020f576104af61150e565b604435906001600160401b03821161020f576060600319833603011261020f576104ef61052e6020936040516104fd816104ef88820194600401856117eb565b03601f19810183528261174e565b519020604080516004358782019081526001600160a01b039096166020870152908501919091529182906060850190565b519020604051908152f35b3461020f575f36600319011261020f576020600354604051908152f35b3461020f57602036600319011261020f576004355f526002602052602060ff60405f2054166040519015158152f35b3461020f575f36600319011261020f5760206040515f8152f35b3461020f57604036600319011261020f576004356001600160401b03811161020f576060600319823603011261020f576105f76104ef6105ec6020936040519283916004018683016117eb565b602435903390611b22565b604051908152f35b3461020f57602036600319011261020f576004356001600160401b03811161020f5761062f903690600401611622565b61063761195b565b5081019060208183031261020f578035906001600160401b03821161020f57019060608282031261020f576040519061066f826116e1565b8235926001600160401b03841161020f576106916040926106b09583016117c0565b8352602081013560208401520135604082015260405191829182611663565b0390f35b3461020f57602036600319011261020f576106cd61195b565b5060606101206040516106df81611717565b5f81525f60208201525f60408201525f838201525f60808201525f60a08201525f60c08201525f60e08201525f61010082015201526040516328c44a9960e21b815260043560048201525f8160248160018060a01b037f0000000000000000000000000000000000000000000000000000000000000000165afa90811561084e575f9161082c575b5060208101517f00000000000000000000000000000000000000000000000000000000000000000361081d576101200151805181019060208183031261020f576020810151906001600160401b03821161020f570160608183031261020f57604051906107d3826116e1565b6020810151906001600160401b03821161020f576107fe6060926020806106b097019184010161197a565b8352604081015160208401520151604082015260405191829182611663565b635527981560e11b5f5260045ffd5b61084891503d805f833e610840818361174e565b810190612140565b81610767565b6040513d5f823e3d90fd5b606036600319011261020f576004356001600160401b03811161020f57610884903690600401611622565b602435916001600160401b03831680930361020f576108a491369161178a565b6108ac612021565b604051917f00000000000000000000000000000000000000000000000000000000000000006001600160a01b0316906108e484611733565b33845260208401526001604084015260443560608401528160808401525f60a08401526020604051610915816116c6565b7f000000000000000000000000000000000000000000000000000000000000000081528181019485526040518095819263f17325e760e01b8352846004840152516024830152516040604483015260018060a01b0381511660648301526001600160401b03848201511660848301526040810151151560a4830152606081015160c483015260a06109b6608083015160c060e486015261012485019061154e565b91015161010483015203815f855af192831561084e575f93610bf2575b505f602491604051928380926328c44a9960e21b82528760048301525afa801561084e5760a0610a32916104ef935f91610bd8575b50015183516020948501206040805195860192835233908601526060850152929182906080820190565b51902090815f52600160205260405f20604051610a4e816116e1565b81546001600160401b038082168352604091821c16602083019081526001909301546001600160a01b0316908201818152929015610bc1576001600160401b03825116431115610baa5751600454610aae916001600160401b03166117de565b4211610b9757835f52600260205260ff60405f205416610b84576001600160401b03610adb915116612059565b925f52600260205260405f20600160ff198254161790555f8080808660018060a01b038651165af1610b0b611859565b5015610b635791817fa9b8d1cb23fc6bfcae1f7ed8ec77868451af44dde191688baa93bb00b7ee49176020809560018060a01b0390511693604051908152a360015f51602061221c5f395f51905f5255604051908152f35b905060018060a01b03905116638fdb80a360e01b5f5260045260245260445ffd5b836327d117f760e01b5f5260045260245ffd5b8363b7c2dee760e01b5f5260045260245ffd5b846309e555e360e01b5f526004523360245260445ffd5b84630fa254d360e21b5f526004523360245260445ffd5b610bec91503d805f833e610840818361174e565b86610a08565b9092506020813d602011610c1e575b81610c0e6020938361174e565b8101031261020f5751915f6109d3565b3d9150610c01565b3461020f57606036600319011261020f576004356001600160401b03811161020f576060600319823603011261020f576105f7610c7c602092610c8a610c6a61150e565b916040519384916004018783016117eb565b03601f19810184528361174e565b60443591611b22565b3461020f575f36600319011261020f576020600454604051908152f35b6020610471610cbe366115d2565b92610cca9291926120be565b6118cb565b3461020f575f36600319011261020f575f546040516001600160a01b039091168152602090f35b3461020f57602036600319011261020f576004355f526001602052606060405f208054906001808060a01b03910154166001600160401b0360405192818116845260401c1660208301526040820152f35b3461020f575f36600319011261020f5760206105f743612059565b3461020f57602036600319011261020f57610d7b611afc565b600480359055005b3461020f575f36600319011261020f57610d9b611afc565b5f80546001600160a01b0319811682556001600160a01b03167f8be0079c531659141344cd1fd0a4f28419497f9722a3daafe3b4186f6b6457e08280a3005b3461020f575f36600319011261020f57606080604051610df9816116fc565b5f81525f60208201525f604082015201526040516351753e3760e11b81527f000000000000000000000000000000000000000000000000000000000000000060048201525f8160248160018060a01b037f0000000000000000000000000000000000000000000000000000000000000000165afa801561084e575f90610ec0575b6060906106b0604051928392602084528051602085015260018060a01b0360208201511660408501526040810151151582850152015160808084015260a083019061154e565b503d805f833e610ed0818361174e565b81019060208183031261020f578051906001600160401b03821161020f570160808183031261020f5760405190610f06826116fc565b8051825260208101516001600160a01b038116810361020f576020830152610f3060408201611888565b60408301526060810151906001600160401b03821161020f570182601f8201121561020f57606092816020610f6793519101611895565b82820152610e7a565b3461020f57602036600319011261020f5760043560035481101561020f57610f99604091611572565b5060016001600160401b0382541691015482519182526020820152f35b3461020f575f36600319011261020f5760206040517f00000000000000000000000000000000000000000000000000000000000000008152f35b3461020f57602036600319011261020f5760043561100c612021565b805f52600160205260405f2060405190611025826116e1565b80546001600160401b038082168452604091821c16602084019081526001909201546001600160a01b0316908301819052156111705751600454611071916001600160401b03166117de565b42111561115d57815f52600260205260ff60405f20541661114a576001600160401b0361109f915116612059565b90805f52600260205260405f20600160ff198254161790555f8080808560018060a01b03600554165af16110d1611859565b5015611129579060209160018060a01b0360055416907f5fab42dd23447bf0a6cc6638a8217a7d477b5067842aedf24b881e132c1c133d84604051858152a360015f51602061221c5f395f51905f5255604051908152f35b5060018060a01b0360055416631f89846360e21b5f5260045260245260445ffd5b506327d117f760e01b5f5260045260245ffd5b50631439fe2d60e01b5f5260045260245ffd5b82630fa254d360e21b5f526004525f60245260445ffd5b3461020f575f36600319011261020f576106b0602061127560016111ca7f0000000000000000000000000000000000000000000000000000000000000000611eb4565b81846111f57f0000000000000000000000000000000000000000000000000000000000000000611eb4565b81806112207f0000000000000000000000000000000000000000000000000000000000000000611eb4565b9260405199878b985191829101848a015e870190601760f91b83830152805192839101602183015e010190601760f91b84830152805192839101600283015e01015f838201520301601f19810183528261174e565b60405191829160208352602083019061154e565b3461020f57602036600319011261020f576112a2611524565b6112aa611afc565b600580546001600160a01b0319166001600160a01b0392909216919091179055005b3461020f57608036600319011261020f576004356001600160401b03811161020f576060600319823603011261020f5761130461150e565b6044356001600160a01b03811692909183830361020f575f6113456113409382936104ef606435968793604051928391600401602083016117eb565b611b22565b93604051826020820191632c713cd960e01b83528660248201528760448201526044815261137460648261174e565b51925af192611381611859565b93156113a55750506106b0604051928392835260406020840152604083019061154e565b6113da8484604051948594630b836fc760e31b865260048601526024850152604484015260806064840152608483019061154e565b0390fd5b3461020f57602036600319011261020f576004356113fa611afc565b600143018043116114d7576003545f198101916001600160401b0316908083116114d757816001600160401b0361143085611572565b5054160361144a575050611445600191611572565b500155005b604051925090611459836116c6565b825260208201928352680100000000000000008110156114c3578060016114839201600355611572565b9290926114b0576001600160401b03806001935116166001600160401b0319845416178355519101555f80f35b634e487b7160e01b5f525f60045260245ffd5b634e487b7160e01b5f52604160045260245ffd5b634e487b7160e01b5f52601160045260245ffd5b3461020f575f36600319011261020f576005546001600160a01b03168152602090f35b602435906001600160a01b038216820361020f57565b600435906001600160a01b038216820361020f57565b35906001600160a01b038216820361020f57565b805180835260209291819084018484015e5f828201840152601f01601f1916010190565b60035481101561158e5760035f5260205f209060011b01905f90565b634e487b7160e01b5f52603260045260245ffd5b9181601f8401121561020f578235916001600160401b03831161020f576020808501948460051b01011161020f57565b604060031982011261020f576004356001600160401b03811161020f57816115fc916004016115a2565b92909291602435906001600160401b03821161020f5761161e916004016115a2565b9091565b9181601f8401121561020f578235916001600160401b03831161020f576020838186019501011161020f57565b35906001600160401b038216820361020f57565b60208152606060406116808451836020860152608085019061154e565b93602081015182850152015191015290565b602060031982011261020f57600435906001600160401b03821161020f5761014090829003600319011261020f5760040190565b604081019081106001600160401b038211176114c357604052565b606081019081106001600160401b038211176114c357604052565b608081019081106001600160401b038211176114c357604052565b61014081019081106001600160401b038211176114c357604052565b60c081019081106001600160401b038211176114c357604052565b90601f801991011681019081106001600160401b038211176114c357604052565b6001600160401b0381116114c357601f01601f191660200190565b9291926117968261176f565b916117a4604051938461174e565b82948184528183011161020f578281602093845f960137010152565b9080601f8301121561020f578160206117db9335910161178a565b90565b919082018092116114d757565b602081528135601e198336030181121561020f5782016020813591016001600160401b03821161020f57813603811361020f5760a0938260409260606020870152816080870152868601375f84840186015260208101358285015201356060830152601f01601f1916010190565b3d15611883573d9061186a8261176f565b91611878604051938461174e565b82523d5f602084013e565b606090565b5190811515820361020f57565b9291926118a18261176f565b916118af604051938461174e565b82948184528183011161020f578281602093845f96015e010152565b92909281840361194c575f91345b85841015611941578184101561158e578360051b80860135908282116119325784013561013e198536030181121561020f576119169085016120ff565b1561192757600191039301926118d9565b505050505050505f90565b63044044a560e21b5f5260045ffd5b505050505050600190565b63251f56a160e21b5f5260045ffd5b60405190611968826116e1565b5f604083606081528260208201520152565b9080601f8301121561020f5781516117db92602001611895565b60208101517f000000000000000000000000000000000000000000000000000000000000000003611af75760a081015160c0820180516101208401518051602091820120604080519283019586526001600160a01b03909316928201929092526060810191909152909190611a0c81608081016104ef565b51902091825f52600160205260405f2091604051611a29816116e1565b83546001600160401b038082168352604091821c16602083019081526001909501546001600160a01b031690820181905215611ad157516001600160401b0316431115611aac57506001600160401b03806040611a8f93015116925116600454906117de565b10611a9a5750600190565b63b7c2dee760e01b5f5260045260245ffd5b516309e555e360e01b5f90815260048590526001600160a01b03909116602452604490fd5b8151630fa254d360e21b5f90815260048790526001600160a01b03909116602452604490fd5b505f90565b5f546001600160a01b03163303611b0f57565b63118cdaa760e01b5f523360045260245ffd5b919091611b2d612021565b604051927f00000000000000000000000000000000000000000000000000000000000000006001600160a01b0316611b6485611733565b60018060a01b038216938486525f60208701526001604087015260608601528260808601525f60a08601526020604051611b9d816116c6565b7f000000000000000000000000000000000000000000000000000000000000000081528181019687526040518097819263f17325e760e01b8352846004840152516024830152516040604483015260018060a01b0381511660648301526001600160401b03848201511660848301526040810151151560a4830152606081015160c483015260a0611c3e608083015160c060e486015261012485019061154e565b91015161010483015203815f855af194851561084e575f95611e80575b505f602491604051928380926328c44a9960e21b82528960048301525afa90811561084e57611cc79160a0915f91611e66575b5001519260208151910120916104ef6040519384926020840196876040919493926060820195825260018060a01b031660208201520152565b51902090815f52600160205260405f2060405190611ce4826116e1565b80546001600160401b038082168452604091821c16602084019081526001909201546001600160a01b0316908301818152939015611e50576001600160401b03835116431115611e3a575051600454611d45916001600160401b03166117de565b4211611e2757825f52600260205260ff60405f205416611e14576001600160401b03611d72915116612059565b915f52600260205260405f20600160ff198254161790555f8080808560018060a01b038651165af1611da2611859565b5015611df557516040519182526001600160a01b03169082907fa9b8d1cb23fc6bfcae1f7ed8ec77868451af44dde191688baa93bb00b7ee491790602090a39060015f51602061221c5f395f51905f5255565b60018060a01b03905116638fdb80a360e01b5f5260045260245260445ffd5b826327d117f760e01b5f5260045260245ffd5b8263b7c2dee760e01b5f5260045260245ffd5b846309e555e360e01b5f5260045260245260445ffd5b84630fa254d360e21b5f5260045260245260445ffd5b611e7a91503d805f833e610840818361174e565b5f611c8e565b9094506020813d602011611eac575b81611e9c6020938361174e565b8101031261020f5751935f611c5b565b3d9150611e8f565b805f9172184f03e93ff9f4daa797ed6e38ed64bf6a1f0160401b821015611ffe575b806d04ee2d6d415b85acef8100000000600a921015611fe3575b662386f26fc10000811015611fcf575b6305f5e100811015611fbe575b612710811015611faf575b6064811015611fa1575b1015611f96575b600a60216001840193611f3b8561176f565b94611f49604051968761174e565b808652611f58601f199161176f565b013660208701378401015b5f1901916f181899199a1a9b1b9c1cb0b131b232b360811b8282061a8353048015611f9157600a9091611f63565b505090565b600190910190611f29565b606460029104930192611f22565b61271060049104930192611f18565b6305f5e10060089104930192611f0d565b662386f26fc1000060109104930192611f00565b6d04ee2d6d415b85acef810000000060209104930192611ef0565b506040915072184f03e93ff9f4daa797ed6e38ed64bf6a1f0160401b8104611ed6565b60025f51602061221c5f395f51905f52541461204a5760025f51602061221c5f395f51905f5255565b633ee5aeb560e01b5f5260045ffd5b90600354805b612067575f80fd5b5f1981018181116114d75761207d602091611572565b5060405161208a816116c6565b60016001600160401b0383541692838352015492839101528410156120b9575080156114d7575f19018061205f565b925050565b7f00000000000000000000000000000000000000000000000000000000000000006001600160a01b031633036120f057565b634ca8886760e01b5f5260045ffd5b60e0013560018060a01b03811680910361020f57301490565b51906001600160401b038216820361020f57565b51906001600160a01b038216820361020f57565b60208183031261020f578051906001600160401b03821161020f57016101408183031261020f576040519161217483611717565b815183526020820151602084015261218e60408301612118565b604084015261219f60608301612118565b60608401526121b060808301612118565b608084015260a082015160a08401526121cb60c0830161212c565b60c08401526121dc60e0830161212c565b60e08401526121ee6101008301611888565b6101008401526101208201516001600160401b03811161020f57612212920161197a565b6101208201529056fe9b779b17422d0df92223018b32b4d1fa46e071723d6817e2486d003becc55f00a264697066735822122017e4ade43ce020c89d6cbf37fbc4676f0503daca4abf3e3223c217edbbd9fdee64736f6c634300081b0033",
    "linkReferences": {}
  },
  "methodIdentifiers": {
    "ATTESTATION_SCHEMA()": "5bf2f20d",
    "attest((bytes32,bytes32,uint64,uint64,uint64,bytes32,address,address,bool,bytes))": "e60c3505",
    "bondAmount()": "80f323a7",
    "bondEpochCount()": "d825c0a0",
    "bondEpochs(uint256)": "6605239e",
    "checkObligation((bytes32,bytes32,uint64,uint64,uint64,bytes32,address,address,bool,bytes),bytes,bytes32)": "e6c9714d",
    "commit(bytes32)": "f14fcbc8",
    "commitDeadline()": "a2ff0209",
    "commitmentClaimed(bytes32)": "d4e063dd",
    "commitments(bytes32)": "839df945",
    "computeCommitment(bytes32,address,(bytes,bytes32,bytes32))": "da18dc78",
    "decodeObligationData(bytes)": "c93844be",
    "doObligation((bytes,bytes32,bytes32),bytes32)": "cd95b7b9",
    "doObligationFor((bytes,bytes32,bytes32),address,bytes32)": "a50a2162",
    "doObligationRaw(bytes,uint64,bytes32)": "b3b902d4",
    "getObligationData(bytes32)": "c6ec5070",
    "getSchema()": "6b122fe0",
    "isPayable()": "ce46e046",
    "multiAttest((bytes32,bytes32,uint64,uint64,uint64,bytes32,address,address,bool,bytes)[],uint256[])": "91db0b7e",
    "multiRevoke((bytes32,bytes32,uint64,uint64,uint64,bytes32,address,address,bool,bytes)[],uint256[])": "88e5b2d9",
    "owner()": "8da5cb5b",
    "renounceOwnership()": "715018a6",
    "revealAndCollect((bytes,bytes32,bytes32),address,address,bytes32)": "2cfea7ce",
    "revoke((bytes32,bytes32,uint64,uint64,uint64,bytes32,address,address,bool,bytes))": "e49617e1",
    "setBondAmount(uint256)": "28f9f3e6",
    "setCommitDeadline(uint256)": "7224760e",
    "setSlashedBondRecipient(address)": "3d447265",
    "slashBond(bytes32)": "571573ce",
    "slashedBondRecipient()": "1f04b6b6",
    "transferOwnership(address)": "f2fde38b",
    "version()": "54fd4d50"
  },
  "id": 123
}