{
  "abi": [
    {
      "type": "constructor",
      "inputs": [
        {
          "name": "_eas",
          "type": "address",
          "internalType": "contract IEAS"
        },
        {
          "name": "_schemaRegistry",
          "type": "address",
          "internalType": "contract ISchemaRegistry"
        },
        {
          "name": "_bondAmount",
          "type": "uint256",
          "internalType": "uint256"
        },
        {
          "name": "_commitDeadline",
          "type": "uint256",
          "internalType": "uint256"
        },
        {
          "name": "_slashedBondRecipient",
          "type": "address",
          "internalType": "address"
        }
      ],
      "stateMutability": "nonpayable"
    },
    {
      "type": "receive",
      "stateMutability": "payable"
    },
    {
      "type": "function",
      "name": "ATTESTATION_SCHEMA",
      "inputs": [],
      "outputs": [
        {
          "name": "",
          "type": "bytes32",
          "internalType": "bytes32"
        }
      ],
      "stateMutability": "view"
    },
    {
      "type": "function",
      "name": "attest",
      "inputs": [
        {
          "name": "attestation",
          "type": "tuple",
          "internalType": "struct Attestation",
          "components": [
            {
              "name": "uid",
              "type": "bytes32",
              "internalType": "bytes32"
            },
            {
              "name": "schema",
              "type": "bytes32",
              "internalType": "bytes32"
            },
            {
              "name": "time",
              "type": "uint64",
              "internalType": "uint64"
            },
            {
              "name": "expirationTime",
              "type": "uint64",
              "internalType": "uint64"
            },
            {
              "name": "revocationTime",
              "type": "uint64",
              "internalType": "uint64"
            },
            {
              "name": "refUID",
              "type": "bytes32",
              "internalType": "bytes32"
            },
            {
              "name": "recipient",
              "type": "address",
              "internalType": "address"
            },
            {
              "name": "attester",
              "type": "address",
              "internalType": "address"
            },
            {
              "name": "revocable",
              "type": "bool",
              "internalType": "bool"
            },
            {
              "name": "data",
              "type": "bytes",
              "internalType": "bytes"
            }
          ]
        }
      ],
      "outputs": [
        {
          "name": "",
          "type": "bool",
          "internalType": "bool"
        }
      ],
      "stateMutability": "payable"
    },
    {
      "type": "function",
      "name": "bondAmount",
      "inputs": [],
      "outputs": [
        {
          "name": "",
          "type": "uint256",
          "internalType": "uint256"
        }
      ],
      "stateMutability": "view"
    },
    {
      "type": "function",
      "name": "bondEpochCount",
      "inputs": [],
      "outputs": [
        {
          "name": "",
          "type": "uint256",
          "internalType": "uint256"
        }
      ],
      "stateMutability": "view"
    },
    {
      "type": "function",
      "name": "bondEpochs",
      "inputs": [
        {
          "name": "",
          "type": "uint256",
          "internalType": "uint256"
        }
      ],
      "outputs": [
        {
          "name": "startBlock",
          "type": "uint64",
          "internalType": "uint64"
        },
        {
          "name": "amount",
          "type": "uint256",
          "internalType": "uint256"
        }
      ],
      "stateMutability": "view"
    },
    {
      "type": "function",
      "name": "checkObligation",
      "inputs": [
        {
          "name": "obligation",
          "type": "tuple",
          "internalType": "struct Attestation",
          "components": [
            {
              "name": "uid",
              "type": "bytes32",
              "internalType": "bytes32"
            },
            {
              "name": "schema",
              "type": "bytes32",
              "internalType": "bytes32"
            },
            {
              "name": "time",
              "type": "uint64",
              "internalType": "uint64"
            },
            {
              "name": "expirationTime",
              "type": "uint64",
              "internalType": "uint64"
            },
            {
              "name": "revocationTime",
              "type": "uint64",
              "internalType": "uint64"
            },
            {
              "name": "refUID",
              "type": "bytes32",
              "internalType": "bytes32"
            },
            {
              "name": "recipient",
              "type": "address",
              "internalType": "address"
            },
            {
              "name": "attester",
              "type": "address",
              "internalType": "address"
            },
            {
              "name": "revocable",
              "type": "bool",
              "internalType": "bool"
            },
            {
              "name": "data",
              "type": "bytes",
              "internalType": "bytes"
            }
          ]
        },
        {
          "name": "",
          "type": "bytes",
          "internalType": "bytes"
        },
        {
          "name": "",
          "type": "bytes32",
          "internalType": "bytes32"
        }
      ],
      "outputs": [
        {
          "name": "",
          "type": "bool",
          "internalType": "bool"
        }
      ],
      "stateMutability": "view"
    },
    {
      "type": "function",
      "name": "commit",
      "inputs": [
        {
          "name": "commitment",
          "type": "bytes32",
          "internalType": "bytes32"
        }
      ],
      "outputs": [],
      "stateMutability": "payable"
    },
    {
      "type": "function",
      "name": "commitDeadline",
      "inputs": [],
      "outputs": [
        {
          "name": "",
          "type": "uint256",
          "internalType": "uint256"
        }
      ],
      "stateMutability": "view"
    },
    {
      "type": "function",
      "name": "commitmentClaimed",
      "inputs": [
        {
          "name": "",
          "type": "bytes32",
          "internalType": "bytes32"
        }
      ],
      "outputs": [
        {
          "name": "",
          "type": "bool",
          "internalType": "bool"
        }
      ],
      "stateMutability": "view"
    },
    {
      "type": "function",
      "name": "commitments",
      "inputs": [
        {
          "name": "",
          "type": "bytes32",
          "internalType": "bytes32"
        }
      ],
      "outputs": [
        {
          "name": "commitBlock",
          "type": "uint64",
          "internalType": "uint64"
        },
        {
          "name": "commitTimestamp",
          "type": "uint64",
          "internalType": "uint64"
        },
        {
          "name": "committer",
          "type": "address",
          "internalType": "address"
        }
      ],
      "stateMutability": "view"
    },
    {
      "type": "function",
      "name": "computeCommitment",
      "inputs": [
        {
          "name": "refUID",
          "type": "bytes32",
          "internalType": "bytes32"
        },
        {
          "name": "claimer",
          "type": "address",
          "internalType": "address"
        },
        {
          "name": "data",
          "type": "tuple",
          "internalType": "struct CommitRevealObligation.ObligationData",
          "components": [
            {
              "name": "payload",
              "type": "bytes",
              "internalType": "bytes"
            },
            {
              "name": "salt",
              "type": "bytes32",
              "internalType": "bytes32"
            },
            {
              "name": "schema",
              "type": "bytes32",
              "internalType": "bytes32"
            }
          ]
        }
      ],
      "outputs": [
        {
          "name": "",
          "type": "bytes32",
          "internalType": "bytes32"
        }
      ],
      "stateMutability": "pure"
    },
    {
      "type": "function",
      "name": "decodeObligationData",
      "inputs": [
        {
          "name": "data",
          "type": "bytes",
          "internalType": "bytes"
        }
      ],
      "outputs": [
        {
          "name": "",
          "type": "tuple",
          "internalType": "struct CommitRevealObligation.ObligationData",
          "components": [
            {
              "name": "payload",
              "type": "bytes",
              "internalType": "bytes"
            },
            {
              "name": "salt",
              "type": "bytes32",
              "internalType": "bytes32"
            },
            {
              "name": "schema",
              "type": "bytes32",
              "internalType": "bytes32"
            }
          ]
        }
      ],
      "stateMutability": "pure"
    },
    {
      "type": "function",
      "name": "doObligation",
      "inputs": [
        {
          "name": "data",
          "type": "tuple",
          "internalType": "struct CommitRevealObligation.ObligationData",
          "components": [
            {
              "name": "payload",
              "type": "bytes",
              "internalType": "bytes"
            },
            {
              "name": "salt",
              "type": "bytes32",
              "internalType": "bytes32"
            },
            {
              "name": "schema",
              "type": "bytes32",
              "internalType": "bytes32"
            }
          ]
        },
        {
          "name": "refUID",
          "type": "bytes32",
          "internalType": "bytes32"
        }
      ],
      "outputs": [
        {
          "name": "uid_",
          "type": "bytes32",
          "internalType": "bytes32"
        }
      ],
      "stateMutability": "nonpayable"
    },
    {
      "type": "function",
      "name": "doObligationFor",
      "inputs": [
        {
          "name": "data",
          "type": "tuple",
          "internalType": "struct CommitRevealObligation.ObligationData",
          "components": [
            {
              "name": "payload",
              "type": "bytes",
              "internalType": "bytes"
            },
            {
              "name": "salt",
              "type": "bytes32",
              "internalType": "bytes32"
            },
            {
              "name": "schema",
              "type": "bytes32",
              "internalType": "bytes32"
            }
          ]
        },
        {
          "name": "recipient",
          "type": "address",
          "internalType": "address"
        },
        {
          "name": "refUID",
          "type": "bytes32",
          "internalType": "bytes32"
        }
      ],
      "outputs": [
        {
          "name": "uid_",
          "type": "bytes32",
          "internalType": "bytes32"
        }
      ],
      "stateMutability": "nonpayable"
    },
    {
      "type": "function",
      "name": "doObligationRaw",
      "inputs": [
        {
          "name": "data",
          "type": "bytes",
          "internalType": "bytes"
        },
        {
          "name": "expirationTime",
          "type": "uint64",
          "internalType": "uint64"
        },
        {
          "name": "refUID",
          "type": "bytes32",
          "internalType": "bytes32"
        }
      ],
      "outputs": [
        {
          "name": "uid_",
          "type": "bytes32",
          "internalType": "bytes32"
        }
      ],
      "stateMutability": "payable"
    },
    {
      "type": "function",
      "name": "getObligationData",
      "inputs": [
        {
          "name": "uid",
          "type": "bytes32",
          "internalType": "bytes32"
        }
      ],
      "outputs": [
        {
          "name": "",
          "type": "tuple",
          "internalType": "struct CommitRevealObligation.ObligationData",
          "components": [
            {
              "name": "payload",
              "type": "bytes",
              "internalType": "bytes"
            },
            {
              "name": "salt",
              "type": "bytes32",
              "internalType": "bytes32"
            },
            {
              "name": "schema",
              "type": "bytes32",
              "internalType": "bytes32"
            }
          ]
        }
      ],
      "stateMutability": "view"
    },
    {
      "type": "function",
      "name": "getSchema",
      "inputs": [],
      "outputs": [
        {
          "name": "",
          "type": "tuple",
          "internalType": "struct SchemaRecord",
          "components": [
            {
              "name": "uid",
              "type": "bytes32",
              "internalType": "bytes32"
            },
            {
              "name": "resolver",
              "type": "address",
              "internalType": "contract ISchemaResolver"
            },
            {
              "name": "revocable",
              "type": "bool",
              "internalType": "bool"
            },
            {
              "name": "schema",
              "type": "string",
              "internalType": "string"
            }
          ]
        }
      ],
      "stateMutability": "view"
    },
    {
      "type": "function",
      "name": "isPayable",
      "inputs": [],
      "outputs": [
        {
          "name": "",
          "type": "bool",
          "internalType": "bool"
        }
      ],
      "stateMutability": "pure"
    },
    {
      "type": "function",
      "name": "multiAttest",
      "inputs": [
        {
          "name": "attestations",
          "type": "tuple[]",
          "internalType": "struct Attestation[]",
          "components": [
            {
              "name": "uid",
              "type": "bytes32",
              "internalType": "bytes32"
            },
            {
              "name": "schema",
              "type": "bytes32",
              "internalType": "bytes32"
            },
            {
              "name": "time",
              "type": "uint64",
              "internalType": "uint64"
            },
            {
              "name": "expirationTime",
              "type": "uint64",
              "internalType": "uint64"
            },
            {
              "name": "revocationTime",
              "type": "uint64",
              "internalType": "uint64"
            },
            {
              "name": "refUID",
              "type": "bytes32",
              "internalType": "bytes32"
            },
            {
              "name": "recipient",
              "type": "address",
              "internalType": "address"
            },
            {
              "name": "attester",
              "type": "address",
              "internalType": "address"
            },
            {
              "name": "revocable",
              "type": "bool",
              "internalType": "bool"
            },
            {
              "name": "data",
              "type": "bytes",
              "internalType": "bytes"
            }
          ]
        },
        {
          "name": "values",
          "type": "uint256[]",
          "internalType": "uint256[]"
        }
      ],
      "outputs": [
        {
          "name": "",
          "type": "bool",
          "internalType": "bool"
        }
      ],
      "stateMutability": "payable"
    },
    {
      "type": "function",
      "name": "multiRevoke",
      "inputs": [
        {
          "name": "attestations",
          "type": "tuple[]",
          "internalType": "struct Attestation[]",
          "components": [
            {
              "name": "uid",
              "type": "bytes32",
              "internalType": "bytes32"
            },
            {
              "name": "schema",
              "type": "bytes32",
              "internalType": "bytes32"
            },
            {
              "name": "time",
              "type": "uint64",
              "internalType": "uint64"
            },
            {
              "name": "expirationTime",
              "type": "uint64",
              "internalType": "uint64"
            },
            {
              "name": "revocationTime",
              "type": "uint64",
              "internalType": "uint64"
            },
            {
              "name": "refUID",
              "type": "bytes32",
              "internalType": "bytes32"
            },
            {
              "name": "recipient",
              "type": "address",
              "internalType": "address"
            },
            {
              "name": "attester",
              "type": "address",
              "internalType": "address"
            },
            {
              "name": "revocable",
              "type": "bool",
              "internalType": "bool"
            },
            {
              "name": "data",
              "type": "bytes",
              "internalType": "bytes"
            }
          ]
        },
        {
          "name": "values",
          "type": "uint256[]",
          "internalType": "uint256[]"
        }
      ],
      "outputs": [
        {
          "name": "",
          "type": "bool",
          "internalType": "bool"
        }
      ],
      "stateMutability": "payable"
    },
    {
      "type": "function",
      "name": "owner",
      "inputs": [],
      "outputs": [
        {
          "name": "",
          "type": "address",
          "internalType": "address"
        }
      ],
      "stateMutability": "view"
    },
    {
      "type": "function",
      "name": "renounceOwnership",
      "inputs": [],
      "outputs": [],
      "stateMutability": "nonpayable"
    },
    {
      "type": "function",
      "name": "revealAndCollect",
      "inputs": [
        {
          "name": "data",
          "type": "tuple",
          "internalType": "struct CommitRevealObligation.ObligationData",
          "components": [
            {
              "name": "payload",
              "type": "bytes",
              "internalType": "bytes"
            },
            {
              "name": "salt",
              "type": "bytes32",
              "internalType": "bytes32"
            },
            {
              "name": "schema",
              "type": "bytes32",
              "internalType": "bytes32"
            }
          ]
        },
        {
          "name": "recipient",
          "type": "address",
          "internalType": "address"
        },
        {
          "name": "escrowContract",
          "type": "address",
          "internalType": "address"
        },
        {
          "name": "escrowUid",
          "type": "bytes32",
          "internalType": "bytes32"
        }
      ],
      "outputs": [
        {
          "name": "fulfillmentUid",
          "type": "bytes32",
          "internalType": "bytes32"
        },
        {
          "name": "collectResult",
          "type": "bytes",
          "internalType": "bytes"
        }
      ],
      "stateMutability": "nonpayable"
    },
    {
      "type": "function",
      "name": "revoke",
      "inputs": [
        {
          "name": "attestation",
          "type": "tuple",
          "internalType": "struct Attestation",
          "components": [
            {
              "name": "uid",
              "type": "bytes32",
              "internalType": "bytes32"
            },
            {
              "name": "schema",
              "type": "bytes32",
              "internalType": "bytes32"
            },
            {
              "name": "time",
              "type": "uint64",
              "internalType": "uint64"
            },
            {
              "name": "expirationTime",
              "type": "uint64",
              "internalType": "uint64"
            },
            {
              "name": "revocationTime",
              "type": "uint64",
              "internalType": "uint64"
            },
            {
              "name": "refUID",
              "type": "bytes32",
              "internalType": "bytes32"
            },
            {
              "name": "recipient",
              "type": "address",
              "internalType": "address"
            },
            {
              "name": "attester",
              "type": "address",
              "internalType": "address"
            },
            {
              "name": "revocable",
              "type": "bool",
              "internalType": "bool"
            },
            {
              "name": "data",
              "type": "bytes",
              "internalType": "bytes"
            }
          ]
        }
      ],
      "outputs": [
        {
          "name": "",
          "type": "bool",
          "internalType": "bool"
        }
      ],
      "stateMutability": "payable"
    },
    {
      "type": "function",
      "name": "setBondAmount",
      "inputs": [
        {
          "name": "_bondAmount",
          "type": "uint256",
          "internalType": "uint256"
        }
      ],
      "outputs": [],
      "stateMutability": "nonpayable"
    },
    {
      "type": "function",
      "name": "setCommitDeadline",
      "inputs": [
        {
          "name": "_commitDeadline",
          "type": "uint256",
          "internalType": "uint256"
        }
      ],
      "outputs": [],
      "stateMutability": "nonpayable"
    },
    {
      "type": "function",
      "name": "setSlashedBondRecipient",
      "inputs": [
        {
          "name": "_slashedBondRecipient",
          "type": "address",
          "internalType": "address"
        }
      ],
      "outputs": [],
      "stateMutability": "nonpayable"
    },
    {
      "type": "function",
      "name": "slashBond",
      "inputs": [
        {
          "name": "commitment",
          "type": "bytes32",
          "internalType": "bytes32"
        }
      ],
      "outputs": [
        {
          "name": "amount",
          "type": "uint256",
          "internalType": "uint256"
        }
      ],
      "stateMutability": "nonpayable"
    },
    {
      "type": "function",
      "name": "slashedBondRecipient",
      "inputs": [],
      "outputs": [
        {
          "name": "",
          "type": "address",
          "internalType": "address"
        }
      ],
      "stateMutability": "view"
    },
    {
      "type": "function",
      "name": "transferOwnership",
      "inputs": [
        {
          "name": "newOwner",
          "type": "address",
          "internalType": "address"
        }
      ],
      "outputs": [],
      "stateMutability": "nonpayable"
    },
    {
      "type": "function",
      "name": "version",
      "inputs": [],
      "outputs": [
        {
          "name": "",
          "type": "string",
          "internalType": "string"
        }
      ],
      "stateMutability": "view"
    },
    {
      "type": "event",
      "name": "BondReclaimed",
      "inputs": [
        {
          "name": "obligationUid",
          "type": "bytes32",
          "indexed": true,
          "internalType": "bytes32"
        },
        {
          "name": "claimer",
          "type": "address",
          "indexed": true,
          "internalType": "address"
        },
        {
          "name": "amount",
          "type": "uint256",
          "indexed": false,
          "internalType": "uint256"
        }
      ],
      "anonymous": false
    },
    {
      "type": "event",
      "name": "BondSlashed",
      "inputs": [
        {
          "name": "commitment",
          "type": "bytes32",
          "indexed": true,
          "internalType": "bytes32"
        },
        {
          "name": "recipient",
          "type": "address",
          "indexed": true,
          "internalType": "address"
        },
        {
          "name": "amount",
          "type": "uint256",
          "indexed": false,
          "internalType": "uint256"
        }
      ],
      "anonymous": false
    },
    {
      "type": "event",
      "name": "Committed",
      "inputs": [
        {
          "name": "commitment",
          "type": "bytes32",
          "indexed": true,
          "internalType": "bytes32"
        },
        {
          "name": "claimer",
          "type": "address",
          "indexed": true,
          "internalType": "address"
        }
      ],
      "anonymous": false
    },
    {
      "type": "event",
      "name": "OwnershipTransferred",
      "inputs": [
        {
          "name": "previousOwner",
          "type": "address",
          "indexed": true,
          "internalType": "address"
        },
        {
          "name": "newOwner",
          "type": "address",
          "indexed": true,
          "internalType": "address"
        }
      ],
      "anonymous": false
    },
    {
      "type": "error",
      "name": "AccessDenied",
      "inputs": []
    },
    {
      "type": "error",
      "name": "BondAlreadyClaimed",
      "inputs": [
        {
          "name": "commitment",
          "type": "bytes32",
          "internalType": "bytes32"
        }
      ]
    },
    {
      "type": "error",
      "name": "BondTransferFailed",
      "inputs": [
        {
          "name": "claimer",
          "type": "address",
          "internalType": "address"
        },
        {
          "name": "amount",
          "type": "uint256",
          "internalType": "uint256"
        }
      ]
    },
    {
      "type": "error",
      "name": "CommitDeadlineNotReached",
      "inputs": [
        {
          "name": "commitment",
          "type": "bytes32",
          "internalType": "bytes32"
        }
      ]
    },
    {
      "type": "error",
      "name": "CommitmentAlreadyExists",
      "inputs": [
        {
          "name": "commitment",
          "type": "bytes32",
          "internalType": "bytes32"
        }
      ]
    },
    {
      "type": "error",
      "name": "CommitmentMissing",
      "inputs": [
        {
          "name": "commitment",
          "type": "bytes32",
          "internalType": "bytes32"
        },
        {
          "name": "claimer",
          "type": "address",
          "internalType": "address"
        }
      ]
    },
    {
      "type": "error",
      "name": "CommitmentTooRecent",
      "inputs": [
        {
          "name": "commitment",
          "type": "bytes32",
          "internalType": "bytes32"
        },
        {
          "name": "claimer",
          "type": "address",
          "internalType": "address"
        }
      ]
    },
    {
      "type": "error",
      "name": "EmptyCommitment",
      "inputs": []
    },
    {
      "type": "error",
      "name": "EscrowCollectionFailed",
      "inputs": [
        {
          "name": "escrowContract",
          "type": "address",
          "internalType": "address"
        },
        {
          "name": "escrowUid",
          "type": "bytes32",
          "internalType": "bytes32"
        },
        {
          "name": "fulfillmentUid",
          "type": "bytes32",
          "internalType": "bytes32"
        },
        {
          "name": "result",
          "type": "bytes",
          "internalType": "bytes"
        }
      ]
    },
    {
      "type": "error",
      "name": "IncorrectBondAmount",
      "inputs": [
        {
          "name": "provided",
          "type": "uint256",
          "internalType": "uint256"
        },
        {
          "name": "required",
          "type": "uint256",
          "internalType": "uint256"
        }
      ]
    },
    {
      "type": "error",
      "name": "InsufficientValue",
      "inputs": []
    },
    {
      "type": "error",
      "name": "InvalidEAS",
      "inputs": []
    },
    {
      "type": "error",
      "name": "InvalidLength",
      "inputs": []
    },
    {
      "type": "error",
      "name": "NotFromThisAttester",
      "inputs": []
    },
    {
      "type": "error",
      "name": "NotPayable",
      "inputs": []
    },
    {
      "type": "error",
      "name": "OwnableInvalidOwner",
      "inputs": [
        {
          "name": "owner",
          "type": "address",
          "internalType": "address"
        }
      ]
    },
    {
      "type": "error",
      "name": "OwnableUnauthorizedAccount",
      "inputs": [
        {
          "name": "account",
          "type": "address",
          "internalType": "address"
        }
      ]
    },
    {
      "type": "error",
      "name": "ReentrancyGuardReentrantCall",
      "inputs": []
    },
    {
      "type": "error",
      "name": "RevealTooLate",
      "inputs": [
        {
          "name": "commitment",
          "type": "bytes32",
          "internalType": "bytes32"
        }
      ]
    },
    {
      "type": "error",
      "name": "SchemaRegistrationFailed",
      "inputs": [
        {
          "name": "uid",
          "type": "bytes32",
          "internalType": "bytes32"
        }
      ]
    },
    {
      "type": "error",
      "name": "SlashTransferFailed",
      "inputs": [
        {
          "name": "recipient",
          "type": "address",
          "internalType": "address"
        },
        {
          "name": "amount",
          "type": "uint256",
          "internalType": "uint256"
        }
      ]
    }
  ],
  "bytecode": {
    "object": "0x61016080604052346103025760a0816128a780380380916100208285610306565b833981010312610302578051906001600160a01b038216808303610302576020820151926001600160a01b03841680850361030257604084015192608060608601519501519560018060a01b0387168097036103025760405191610085606084610306565b602b83527f6279746573207061796c6f61642c20627974657333322073616c742c2062797460208401526a6573333220736368656d6160a81b60408401526001608052600360a0525f60c052156102f357836100ed9460e0526101205261010052309161040d565b6101405260017f9b779b17422d0df92223018b32b4d1fa46e071723d6817e2486d003becc55f005533156102e0575f8054336001600160a01b0319821681178355604051939290916001600160a01b0316907f8be0079c531659141344cd1fd0a4f28419497f9722a3daafe3b4186f6b6457e09080a3604082016001600160401b038111838210176102cc576040525f82526020820190815260035490680100000000000000008210156102cc5760018201806003558210156102b85760035f52915160019190911b7fc2575a0e9e593c00f959f8c92f12db2869c3395a3b0502d05e2516446f71f85b810180546001600160401b0319166001600160401b03939093169290921790915590517fc2575a0e9e593c00f959f8c92f12db2869c3395a3b0502d05e2516446f71f85c90910155600455600580546001600160a01b0319169190911790556040516122be90816105e98239608051816112a9015260a051816112d4015260c051816112ff015260e051816121e801526101005181610f4e01526101205181818161073701528181610a6f0152611d2601526101405181818161076f0152818161098301528181610f1c015281816110d001528181611a9e0152611c320152f35b634e487b7160e01b5f52603260045260245ffd5b634e487b7160e01b5f52604160045260245ffd5b631e4fbdf760e01b5f525f60045260245ffd5b6341bc07ff60e11b5f5260045ffd5b5f80fd5b601f909101601f19168101906001600160401b038211908210176102cc57604052565b602081830312610302578051906001600160401b0382116103025701906080828203126103025760405191608083016001600160401b038111848210176102cc576040528051835260208101516001600160a01b0381168103610302576020840152604081015180151581036103025760408401526060810151906001600160401b038211610302570181601f82011215610302578051906001600160401b0382116102cc57604051926103e7601f8401601f191660200185610306565b8284526020838301011161030257815f9260208093018386015e83010152606082015290565b929160405190602082018351926104576015602083818901978089885e810160018060601b03198860601b1683820152600160f81b60348201520301600a19810184520182610306565b5190206040516351753e3760e11b81526004810182905290956001600160a01b031693905f81602481885afa80156105685787915f916105ce575b5051146105c8579060846020926040519485938492630c1af44f60e31b8452606060048501525180928160648601528585015e5f84838501015260018060a01b0316602483015260016044830152601f801991011681010301815f865af15f9181610594575b5061057357505f602491604051928380926351753e3760e11b82528760048301525afa80156105685783915f91610546575b5051146105445750639e6113d560e01b5f5260045260245ffd5b565b61056291503d805f833e61055a8183610306565b810190610329565b5f61052a565b6040513d5f823e3d90fd5b91928091508203610582575090565b639e6113d560e01b5f5260045260245ffd5b9091506020813d6020116105c0575b816105b060209383610306565b810103126103025751905f6104f8565b3d91506105a3565b50505050565b6105e291503d805f833e61055a8183610306565b5f61049256fe6080806040526004361015610029575b50361561001a575f80fd5b631574f9f360e01b5f5260045ffd5b5f3560e01c9081631f04b6b6146115ee5750806328f9f3e6146114e15780632cfea7ce146113cf5780633d4472651461138c57806354fd4d501461128a578063571573ce146110f35780635bf2f20d146110b95780636605239e146110735780636b122fe014610edd578063715018a614610e865780637224760e14610e6557806380f323a714610e4a578063839df94514610df957806388e5b2d914610db35780638da5cb5b14610dd257806391db0b7e14610db3578063a2ff020914610d96578063a50a216214610d29578063b3b902d414610929578063c6ec5070146106b4578063c93844be146105ff578063cd95b7b91461059f578063ce46e04614610585578063d4e063dd14610556578063d825c0a014610539578063da18dc7814610496578063e49617e11461047b578063e60c35051461047b578063e6c9714d14610359578063f14fcbc8146102135763f2fde38b1461018a575f61000f565b3461020f57602036600319011261020f576101a3611627565b6101ab611bff565b6001600160a01b031680156101fc575f80546001600160a01b03198116831782556001600160a01b0316907f8be0079c531659141344cd1fd0a4f28419497f9722a3daafe3b4186f6b6457e09080a3005b631e4fbdf760e01b5f525f60045260245ffd5b5f80fd5b602036600319011261020f57600435801561034a5761023143612181565b80340361033457505f81815260016020819052604090912001546001600160a01b031661032257604051610264816117e4565b6001600160401b0343168152600160208201916001600160401b03421683526040810192338452845f52826020526001600160401b038060405f20935116166001600160401b03198354161782555167ffffffffffffffff60401b82549160401b169067ffffffffffffffff60401b1916178155019060018060a01b039051166bffffffffffffffffffffffff60a01b82541617905533907ffda886b5d38d5d61e432b3acc9f19640a2b8c83c87a9c584a780d3854b309b9c5f80a3005b63c5f89f0560e01b5f5260045260245ffd5b63058b312960e51b5f523460045260245260445ffd5b635560fe6360e11b5f5260045ffd5b3461020f57606036600319011261020f576004356001600160401b03811161020f57610140600319823603011261020f57604051906103978261181a565b80600401358252602481013560208301526103b460448201611752565b60408301526103c560648201611752565b60608301526103d660848201611752565b608083015260a481013560a08301526103f160c4820161163d565b60c083015261040260e4820161163d565b60e0830152610104810135801515810361020f57610100830152610124810135906001600160401b03821161020f57600461044092369201016118c3565b6101208201526024356001600160401b03811161020f5760209161046b6104719236906004016118c3565b50611a97565b6040519015158152f35b602061047161048936611795565b6104916121e6565b612227565b3461020f57606036600319011261020f576104af611611565b604435906001600160401b03821161020f576060600319833603011261020f576104ef61052e6020936040516104fd816104ef88820194600401856118ee565b03601f198101835282611851565b519020604080516004358782019081526001600160a01b039096166020870152908501919091529182906060850190565b519020604051908152f35b3461020f575f36600319011261020f576020600354604051908152f35b3461020f57602036600319011261020f576004355f526002602052602060ff60405f2054166040519015158152f35b3461020f575f36600319011261020f5760206040515f8152f35b3461020f57604036600319011261020f576004356001600160401b03811161020f576060600319823603011261020f576105f76104ef6105ec6020936040519283916004018683016118ee565b602435903390611c25565b604051908152f35b3461020f57602036600319011261020f576004356001600160401b03811161020f5761062f903690600401611725565b610637611a5e565b5081019060208183031261020f578035906001600160401b03821161020f57019060608282031261020f576040519061066f826117e4565b8235926001600160401b03841161020f576106916040926106b09583016118c3565b8352602081013560208401520135604082015260405191829182611766565b0390f35b3461020f57602036600319011261020f576106cd611a5e565b5060606101206040516106df8161181a565b5f81525f60208201525f60408201525f838201525f60808201525f60a08201525f60c08201525f60e08201525f61010082015201526040516328c44a9960e21b815260043560048201525f8160248160018060a01b037f0000000000000000000000000000000000000000000000000000000000000000165afa90811561091e575f9161082c575b5060208101517f00000000000000000000000000000000000000000000000000000000000000000361081d576101200151805181019060208183031261020f576020810151906001600160401b03821161020f570160608183031261020f57604051906107d3826117e4565b6020810151906001600160401b03821161020f576107fe6060926020806106b0970191840101611a7d565b8352604081015160208401520151604082015260405191829182611766565b635527981560e11b5f5260045ffd5b90503d805f833e61083d8183611851565b81019060208183031261020f578051906001600160401b03821161020f57016101408183031261020f57604051916108748361181a565b815183526020820151602084015261088e60408301612240565b604084015261089f60608301612240565b60608401526108b060808301612240565b608084015260a082015160a08401526108cb60c08301612254565b60c08401526108dc60e08301612254565b60e08401526108ee610100830161198b565b6101008401526101208201516001600160401b03811161020f576109129201611a7d565b61012082015281610767565b6040513d5f823e3d90fd5b606036600319011261020f576004356001600160401b03811161020f57610954903690600401611725565b90602435906001600160401b03821680920361020f576109799060443593369161188d565b610981612149565b7f000000000000000000000000000000000000000000000000000000000000000092604051926109b084611836565b338452806020850152600160408501528160608501528260808501525f60a085015260206040516109e0816117c9565b8681528181019586526040518096819263f17325e760e01b8352846004840152516024830152516040604483015260018060a01b0381511660648301526001600160401b03848201511660848301526040810151151560a4830152606081015160c483015260a0610a61608083015160c060e4860152610124850190611651565b91015161010483015203815f7f00000000000000000000000000000000000000000000000000000000000000006001600160a01b03165af193841561091e575f94610cf5575b5060405194610ab58661181a565b84865260208601526001600160401b034216604086015260608501525f60808501528060a08501526104ef610b3360c08601933385523060e08801526001610100880152806101208801526020815191012060405192839160208301953390876040919493926060820195825260018060a01b031660208201520152565b51902090815f52600160205260405f2060405190610b50826117e4565b80546001600160401b038082168452604091821c16602084019081526001909201546001600160a01b0316908301818152939015610cd0576001600160401b03835116431115610cab575051600454610bb1916001600160401b03166118e1565b4211610c9857825f52600260205260ff60405f205416610c85576001600160401b03610bde915116612181565b915f52600260205260405f20600160ff198254161790555f8080808560018060a01b038651165af1610c0e61195c565b5015610c66577fa9b8d1cb23fc6bfcae1f7ed8ec77868451af44dde191688baa93bb00b7ee491760208095519260018060a01b0390511693604051908152a360015f5160206122695f395f51905f5255604051908152f35b60018060a01b03905116638fdb80a360e01b5f5260045260245260445ffd5b826327d117f760e01b5f5260045260245ffd5b8263b7c2dee760e01b5f5260045260245ffd5b516309e555e360e01b5f90815260048690526001600160a01b03909116602452604490fd5b51630fa254d360e21b5f90815260048690526001600160a01b03909116602452604490fd5b9093506020813d602011610d21575b81610d1160209383611851565b8101031261020f57519285610aa7565b3d9150610d04565b3461020f57606036600319011261020f576004356001600160401b03811161020f576060600319823603011261020f576105f7610d7f602092610d8d610d6d611611565b916040519384916004018783016118ee565b03601f198101845283611851565b60443591611c25565b3461020f575f36600319011261020f576020600454604051908152f35b6020610471610dc1366116d5565b92610dcd9291926121e6565b6119ce565b3461020f575f36600319011261020f575f546040516001600160a01b039091168152602090f35b3461020f57602036600319011261020f576004355f526001602052606060405f208054906001808060a01b03910154166001600160401b0360405192818116845260401c1660208301526040820152f35b3461020f575f36600319011261020f5760206105f743612181565b3461020f57602036600319011261020f57610e7e611bff565b600480359055005b3461020f575f36600319011261020f57610e9e611bff565b5f80546001600160a01b0319811682556001600160a01b03167f8be0079c531659141344cd1fd0a4f28419497f9722a3daafe3b4186f6b6457e08280a3005b3461020f575f36600319011261020f57606080604051610efc816117ff565b5f81525f60208201525f604082015201526040516351753e3760e11b81527f000000000000000000000000000000000000000000000000000000000000000060048201525f8160248160018060a01b037f0000000000000000000000000000000000000000000000000000000000000000165afa801561091e575f90610fc3575b6060906106b0604051928392602084528051602085015260018060a01b0360208201511660408501526040810151151582850152015160808084015260a0830190611651565b503d805f833e610fd38183611851565b81019060208183031261020f578051906001600160401b03821161020f570160808183031261020f5760405190611009826117ff565b8051825260208101516001600160a01b038116810361020f5760208301526110336040820161198b565b60408301526060810151906001600160401b03821161020f570182601f8201121561020f5760609281602061106a93519101611998565b82820152610f7d565b3461020f57602036600319011261020f5760043560035481101561020f5761109c604091611675565b5060016001600160401b0382541691015482519182526020820152f35b3461020f575f36600319011261020f5760206040517f00000000000000000000000000000000000000000000000000000000000000008152f35b3461020f57602036600319011261020f5760043561110f612149565b805f52600160205260405f2060405190611128826117e4565b80546001600160401b038082168452604091821c16602084019081526001909201546001600160a01b0316908301819052156112735751600454611174916001600160401b03166118e1565b42111561126057815f52600260205260ff60405f20541661124d576001600160401b036111a2915116612181565b90805f52600260205260405f20600160ff198254161790555f8080808560018060a01b03600554165af16111d461195c565b501561122c579060209160018060a01b0360055416907f5fab42dd23447bf0a6cc6638a8217a7d477b5067842aedf24b881e132c1c133d84604051858152a360015f5160206122695f395f51905f5255604051908152f35b5060018060a01b0360055416631f89846360e21b5f5260045260245260445ffd5b506327d117f760e01b5f5260045260245ffd5b50631439fe2d60e01b5f5260045260245ffd5b82630fa254d360e21b5f526004525f60245260445ffd5b3461020f575f36600319011261020f576106b0602061137860016112cd7f0000000000000000000000000000000000000000000000000000000000000000611fdc565b81846112f87f0000000000000000000000000000000000000000000000000000000000000000611fdc565b81806113237f0000000000000000000000000000000000000000000000000000000000000000611fdc565b9260405199878b985191829101848a015e870190601760f91b83830152805192839101602183015e010190601760f91b84830152805192839101600283015e01015f838201520301601f198101835282611851565b604051918291602083526020830190611651565b3461020f57602036600319011261020f576113a5611627565b6113ad611bff565b600580546001600160a01b0319166001600160a01b0392909216919091179055005b3461020f57608036600319011261020f576004356001600160401b03811161020f576060600319823603011261020f57611407611611565b6044356001600160a01b03811692909183830361020f575f6114486114439382936104ef606435968793604051928391600401602083016118ee565b611c25565b93604051826020820191632c713cd960e01b835286602482015287604482015260448152611477606482611851565b51925af19261148461195c565b93156114a85750506106b06040519283928352604060208401526040830190611651565b6114dd8484604051948594630b836fc760e31b8652600486015260248501526044840152608060648401526084830190611651565b0390fd5b3461020f57602036600319011261020f576004356114fd611bff565b600143018043116115da576003545f198101916001600160401b0316908083116115da57816001600160401b0361153385611675565b5054160361154d575050611548600191611675565b500155005b60405192509061155c836117c9565b825260208201928352680100000000000000008110156115c6578060016115869201600355611675565b9290926115b3576001600160401b03806001935116166001600160401b0319845416178355519101555f80f35b634e487b7160e01b5f525f60045260245ffd5b634e487b7160e01b5f52604160045260245ffd5b634e487b7160e01b5f52601160045260245ffd5b3461020f575f36600319011261020f576005546001600160a01b03168152602090f35b602435906001600160a01b038216820361020f57565b600435906001600160a01b038216820361020f57565b35906001600160a01b038216820361020f57565b805180835260209291819084018484015e5f828201840152601f01601f1916010190565b6003548110156116915760035f5260205f209060011b01905f90565b634e487b7160e01b5f52603260045260245ffd5b9181601f8401121561020f578235916001600160401b03831161020f576020808501948460051b01011161020f57565b604060031982011261020f576004356001600160401b03811161020f57816116ff916004016116a5565b92909291602435906001600160401b03821161020f57611721916004016116a5565b9091565b9181601f8401121561020f578235916001600160401b03831161020f576020838186019501011161020f57565b35906001600160401b038216820361020f57565b602081526060604061178384518360208601526080850190611651565b93602081015182850152015191015290565b602060031982011261020f57600435906001600160401b03821161020f5761014090829003600319011261020f5760040190565b604081019081106001600160401b038211176115c657604052565b606081019081106001600160401b038211176115c657604052565b608081019081106001600160401b038211176115c657604052565b61014081019081106001600160401b038211176115c657604052565b60c081019081106001600160401b038211176115c657604052565b90601f801991011681019081106001600160401b038211176115c657604052565b6001600160401b0381116115c657601f01601f191660200190565b92919261189982611872565b916118a76040519384611851565b82948184528183011161020f578281602093845f960137010152565b9080601f8301121561020f578160206118de9335910161188d565b90565b919082018092116115da57565b602081528135601e198336030181121561020f5782016020813591016001600160401b03821161020f57813603811361020f5760a0938260409260606020870152816080870152868601375f84840186015260208101358285015201356060830152601f01601f1916010190565b3d15611986573d9061196d82611872565b9161197b6040519384611851565b82523d5f602084013e565b606090565b5190811515820361020f57565b9291926119a482611872565b916119b26040519384611851565b82948184528183011161020f578281602093845f96015e010152565b929092818403611a4f575f91345b85841015611a445781841015611691578360051b8086013590828211611a355784013561013e198536030181121561020f57611a19908501612227565b15611a2a57600191039301926119dc565b505050505050505f90565b63044044a560e21b5f5260045ffd5b505050505050600190565b63251f56a160e21b5f5260045ffd5b60405190611a6b826117e4565b5f604083606081528260208201520152565b9080601f8301121561020f5781516118de92602001611998565b60208101517f000000000000000000000000000000000000000000000000000000000000000003611bfa5760a081015160c0820180516101208401518051602091820120604080519283019586526001600160a01b03909316928201929092526060810191909152909190611b0f81608081016104ef565b51902091825f52600160205260405f2091604051611b2c816117e4565b83546001600160401b038082168352604091821c16602083019081526001909501546001600160a01b031690820181905215611bd457516001600160401b0316431115611baf57506001600160401b03806040611b9293015116925116600454906118e1565b10611b9d5750600190565b63b7c2dee760e01b5f5260045260245ffd5b516309e555e360e01b5f90815260048590526001600160a01b03909116602452604490fd5b8151630fa254d360e21b5f90815260048790526001600160a01b03909116602452604490fd5b505f90565b5f546001600160a01b03163303611c1257565b63118cdaa760e01b5f523360045260245ffd5b919091611c30612149565b7f00000000000000000000000000000000000000000000000000000000000000009160405193611c5f85611836565b60018060a01b03168085525f6020860152600160408601528160608601528260808601525f60a08601526020604051611c97816117c9565b8581528181019687526040518097819263f17325e760e01b8352846004840152516024830152516040604483015260018060a01b0381511660648301526001600160401b03848201511660848301526040810151151560a4830152606081015160c483015260a0611d18608083015160c060e4860152610124850190611651565b91015161010483015203815f7f00000000000000000000000000000000000000000000000000000000000000006001600160a01b03165af194851561091e575f95611fa8575b5060405193611d6c8561181a565b85855260208501526001600160401b03421660408501525f60608501525f60808501528160a0850152611dea60c08501938285523060e087015260016101008701528061012087015260208151910120916104ef6040519384926020840196876040919493926060820195825260018060a01b031660208201520152565b51902091825f52600160205260405f2060405190611e07826117e4565b80546001600160401b038082168452604091821c16602084019081526001909201546001600160a01b0316908301818152949015611f83576001600160401b03835116431115611f5e575051600454611e68916001600160401b03166118e1565b4211611f4b57835f52600260205260ff60405f205416611f38576001600160401b03611e95915116612181565b925f52600260205260405f20600160ff198254161790555f8080808660018060a01b038751165af1611ec561195c565b5015611f18575190516040519283526001600160a01b0316917fa9b8d1cb23fc6bfcae1f7ed8ec77868451af44dde191688baa93bb00b7ee491790602090a39060015f5160206122695f395f51905f5255565b5060018060a01b03905116638fdb80a360e01b5f5260045260245260445ffd5b836327d117f760e01b5f5260045260245ffd5b8363b7c2dee760e01b5f5260045260245ffd5b516309e555e360e01b5f90815260048790526001600160a01b03909116602452604490fd5b51630fa254d360e21b5f90815260048790526001600160a01b03909116602452604490fd5b9094506020813d602011611fd4575b81611fc460209383611851565b8101031261020f5751935f611d5e565b3d9150611fb7565b805f9172184f03e93ff9f4daa797ed6e38ed64bf6a1f0160401b821015612126575b806d04ee2d6d415b85acef8100000000600a92101561210b575b662386f26fc100008110156120f7575b6305f5e1008110156120e6575b6127108110156120d7575b60648110156120c9575b10156120be575b600a6021600184019361206385611872565b946120716040519687611851565b808652612080601f1991611872565b013660208701378401015b5f1901916f181899199a1a9b1b9c1cb0b131b232b360811b8282061a83530480156120b957600a909161208b565b505090565b600190910190612051565b60646002910493019261204a565b61271060049104930192612040565b6305f5e10060089104930192612035565b662386f26fc1000060109104930192612028565b6d04ee2d6d415b85acef810000000060209104930192612018565b506040915072184f03e93ff9f4daa797ed6e38ed64bf6a1f0160401b8104611ffe565b60025f5160206122695f395f51905f5254146121725760025f5160206122695f395f51905f5255565b633ee5aeb560e01b5f5260045ffd5b90600354805b61218f575f80fd5b5f1981018181116115da576121a5602091611675565b506040516121b2816117c9565b60016001600160401b0383541692838352015492839101528410156121e1575080156115da575f190180612187565b925050565b7f00000000000000000000000000000000000000000000000000000000000000006001600160a01b0316330361221857565b634ca8886760e01b5f5260045ffd5b60e0013560018060a01b03811680910361020f57301490565b51906001600160401b038216820361020f57565b51906001600160a01b038216820361020f5756fe9b779b17422d0df92223018b32b4d1fa46e071723d6817e2486d003becc55f00a2646970667358221220c6608c1baab570967908c92446024b8f983b971bb9f985d763594b3b2261dd2764736f6c634300081b0033",
    "linkReferences": {}
  },
  "methodIdentifiers": {
    "ATTESTATION_SCHEMA()": "5bf2f20d",
    "attest((bytes32,bytes32,uint64,uint64,uint64,bytes32,address,address,bool,bytes))": "e60c3505",
    "bondAmount()": "80f323a7",
    "bondEpochCount()": "d825c0a0",
    "bondEpochs(uint256)": "6605239e",
    "checkObligation((bytes32,bytes32,uint64,uint64,uint64,bytes32,address,address,bool,bytes),bytes,bytes32)": "e6c9714d",
    "commit(bytes32)": "f14fcbc8",
    "commitDeadline()": "a2ff0209",
    "commitmentClaimed(bytes32)": "d4e063dd",
    "commitments(bytes32)": "839df945",
    "computeCommitment(bytes32,address,(bytes,bytes32,bytes32))": "da18dc78",
    "decodeObligationData(bytes)": "c93844be",
    "doObligation((bytes,bytes32,bytes32),bytes32)": "cd95b7b9",
    "doObligationFor((bytes,bytes32,bytes32),address,bytes32)": "a50a2162",
    "doObligationRaw(bytes,uint64,bytes32)": "b3b902d4",
    "getObligationData(bytes32)": "c6ec5070",
    "getSchema()": "6b122fe0",
    "isPayable()": "ce46e046",
    "multiAttest((bytes32,bytes32,uint64,uint64,uint64,bytes32,address,address,bool,bytes)[],uint256[])": "91db0b7e",
    "multiRevoke((bytes32,bytes32,uint64,uint64,uint64,bytes32,address,address,bool,bytes)[],uint256[])": "88e5b2d9",
    "owner()": "8da5cb5b",
    "renounceOwnership()": "715018a6",
    "revealAndCollect((bytes,bytes32,bytes32),address,address,bytes32)": "2cfea7ce",
    "revoke((bytes32,bytes32,uint64,uint64,uint64,bytes32,address,address,bool,bytes))": "e49617e1",
    "setBondAmount(uint256)": "28f9f3e6",
    "setCommitDeadline(uint256)": "7224760e",
    "setSlashedBondRecipient(address)": "3d447265",
    "slashBond(bytes32)": "571573ce",
    "slashedBondRecipient()": "1f04b6b6",
    "transferOwnership(address)": "f2fde38b",
    "version()": "54fd4d50"
  },
  "id": 117
}