{
  "abi": [
    {
      "type": "constructor",
      "inputs": [
        {
          "name": "_eas",
          "type": "address",
          "internalType": "contract IEAS"
        },
        {
          "name": "_schemaRegistry",
          "type": "address",
          "internalType": "contract ISchemaRegistry"
        },
        {
          "name": "_bondAmount",
          "type": "uint256",
          "internalType": "uint256"
        },
        {
          "name": "_commitDeadline",
          "type": "uint256",
          "internalType": "uint256"
        },
        {
          "name": "_slashedBondRecipient",
          "type": "address",
          "internalType": "address"
        }
      ],
      "stateMutability": "nonpayable"
    },
    {
      "type": "receive",
      "stateMutability": "payable"
    },
    {
      "type": "function",
      "name": "ATTESTATION_SCHEMA",
      "inputs": [],
      "outputs": [
        {
          "name": "",
          "type": "bytes32",
          "internalType": "bytes32"
        }
      ],
      "stateMutability": "view"
    },
    {
      "type": "function",
      "name": "ATTESTATION_SCHEMA_REVOCABLE",
      "inputs": [],
      "outputs": [
        {
          "name": "",
          "type": "bool",
          "internalType": "bool"
        }
      ],
      "stateMutability": "view"
    },
    {
      "type": "function",
      "name": "attest",
      "inputs": [
        {
          "name": "attestation",
          "type": "tuple",
          "internalType": "struct Attestation",
          "components": [
            {
              "name": "uid",
              "type": "bytes32",
              "internalType": "bytes32"
            },
            {
              "name": "schema",
              "type": "bytes32",
              "internalType": "bytes32"
            },
            {
              "name": "time",
              "type": "uint64",
              "internalType": "uint64"
            },
            {
              "name": "expirationTime",
              "type": "uint64",
              "internalType": "uint64"
            },
            {
              "name": "revocationTime",
              "type": "uint64",
              "internalType": "uint64"
            },
            {
              "name": "refUID",
              "type": "bytes32",
              "internalType": "bytes32"
            },
            {
              "name": "recipient",
              "type": "address",
              "internalType": "address"
            },
            {
              "name": "attester",
              "type": "address",
              "internalType": "address"
            },
            {
              "name": "revocable",
              "type": "bool",
              "internalType": "bool"
            },
            {
              "name": "data",
              "type": "bytes",
              "internalType": "bytes"
            }
          ]
        }
      ],
      "outputs": [
        {
          "name": "",
          "type": "bool",
          "internalType": "bool"
        }
      ],
      "stateMutability": "payable"
    },
    {
      "type": "function",
      "name": "bondAmount",
      "inputs": [],
      "outputs": [
        {
          "name": "",
          "type": "uint256",
          "internalType": "uint256"
        }
      ],
      "stateMutability": "view"
    },
    {
      "type": "function",
      "name": "bondEpochCount",
      "inputs": [],
      "outputs": [
        {
          "name": "",
          "type": "uint256",
          "internalType": "uint256"
        }
      ],
      "stateMutability": "view"
    },
    {
      "type": "function",
      "name": "bondEpochs",
      "inputs": [
        {
          "name": "",
          "type": "uint256",
          "internalType": "uint256"
        }
      ],
      "outputs": [
        {
          "name": "startBlock",
          "type": "uint64",
          "internalType": "uint64"
        },
        {
          "name": "amount",
          "type": "uint256",
          "internalType": "uint256"
        }
      ],
      "stateMutability": "view"
    },
    {
      "type": "function",
      "name": "check",
      "inputs": [
        {
          "name": "obligation",
          "type": "tuple",
          "internalType": "struct Attestation",
          "components": [
            {
              "name": "uid",
              "type": "bytes32",
              "internalType": "bytes32"
            },
            {
              "name": "schema",
              "type": "bytes32",
              "internalType": "bytes32"
            },
            {
              "name": "time",
              "type": "uint64",
              "internalType": "uint64"
            },
            {
              "name": "expirationTime",
              "type": "uint64",
              "internalType": "uint64"
            },
            {
              "name": "revocationTime",
              "type": "uint64",
              "internalType": "uint64"
            },
            {
              "name": "refUID",
              "type": "bytes32",
              "internalType": "bytes32"
            },
            {
              "name": "recipient",
              "type": "address",
              "internalType": "address"
            },
            {
              "name": "attester",
              "type": "address",
              "internalType": "address"
            },
            {
              "name": "revocable",
              "type": "bool",
              "internalType": "bool"
            },
            {
              "name": "data",
              "type": "bytes",
              "internalType": "bytes"
            }
          ]
        },
        {
          "name": "",
          "type": "bytes",
          "internalType": "bytes"
        },
        {
          "name": "",
          "type": "bytes32",
          "internalType": "bytes32"
        }
      ],
      "outputs": [
        {
          "name": "",
          "type": "bool",
          "internalType": "bool"
        }
      ],
      "stateMutability": "view"
    },
    {
      "type": "function",
      "name": "commit",
      "inputs": [
        {
          "name": "commitment",
          "type": "bytes32",
          "internalType": "bytes32"
        }
      ],
      "outputs": [],
      "stateMutability": "payable"
    },
    {
      "type": "function",
      "name": "commitDeadline",
      "inputs": [],
      "outputs": [
        {
          "name": "",
          "type": "uint256",
          "internalType": "uint256"
        }
      ],
      "stateMutability": "view"
    },
    {
      "type": "function",
      "name": "commitmentClaimed",
      "inputs": [
        {
          "name": "",
          "type": "bytes32",
          "internalType": "bytes32"
        }
      ],
      "outputs": [
        {
          "name": "",
          "type": "bool",
          "internalType": "bool"
        }
      ],
      "stateMutability": "view"
    },
    {
      "type": "function",
      "name": "commitments",
      "inputs": [
        {
          "name": "",
          "type": "bytes32",
          "internalType": "bytes32"
        }
      ],
      "outputs": [
        {
          "name": "commitBlock",
          "type": "uint64",
          "internalType": "uint64"
        },
        {
          "name": "commitTimestamp",
          "type": "uint64",
          "internalType": "uint64"
        },
        {
          "name": "committer",
          "type": "address",
          "internalType": "address"
        }
      ],
      "stateMutability": "view"
    },
    {
      "type": "function",
      "name": "computeCommitment",
      "inputs": [
        {
          "name": "refUID",
          "type": "bytes32",
          "internalType": "bytes32"
        },
        {
          "name": "claimer",
          "type": "address",
          "internalType": "address"
        },
        {
          "name": "data",
          "type": "tuple",
          "internalType": "struct GlobalBondCommitRevealObligation.ObligationData",
          "components": [
            {
              "name": "payload",
              "type": "bytes",
              "internalType": "bytes"
            },
            {
              "name": "salt",
              "type": "bytes32",
              "internalType": "bytes32"
            },
            {
              "name": "schema",
              "type": "bytes32",
              "internalType": "bytes32"
            }
          ]
        }
      ],
      "outputs": [
        {
          "name": "",
          "type": "bytes32",
          "internalType": "bytes32"
        }
      ],
      "stateMutability": "pure"
    },
    {
      "type": "function",
      "name": "decodeObligationData",
      "inputs": [
        {
          "name": "data",
          "type": "bytes",
          "internalType": "bytes"
        }
      ],
      "outputs": [
        {
          "name": "",
          "type": "tuple",
          "internalType": "struct GlobalBondCommitRevealObligation.ObligationData",
          "components": [
            {
              "name": "payload",
              "type": "bytes",
              "internalType": "bytes"
            },
            {
              "name": "salt",
              "type": "bytes32",
              "internalType": "bytes32"
            },
            {
              "name": "schema",
              "type": "bytes32",
              "internalType": "bytes32"
            }
          ]
        }
      ],
      "stateMutability": "pure"
    },
    {
      "type": "function",
      "name": "doObligation",
      "inputs": [
        {
          "name": "data",
          "type": "tuple",
          "internalType": "struct GlobalBondCommitRevealObligation.ObligationData",
          "components": [
            {
              "name": "payload",
              "type": "bytes",
              "internalType": "bytes"
            },
            {
              "name": "salt",
              "type": "bytes32",
              "internalType": "bytes32"
            },
            {
              "name": "schema",
              "type": "bytes32",
              "internalType": "bytes32"
            }
          ]
        },
        {
          "name": "refUID",
          "type": "bytes32",
          "internalType": "bytes32"
        }
      ],
      "outputs": [
        {
          "name": "uid_",
          "type": "bytes32",
          "internalType": "bytes32"
        }
      ],
      "stateMutability": "nonpayable"
    },
    {
      "type": "function",
      "name": "doObligationFor",
      "inputs": [
        {
          "name": "data",
          "type": "tuple",
          "internalType": "struct GlobalBondCommitRevealObligation.ObligationData",
          "components": [
            {
              "name": "payload",
              "type": "bytes",
              "internalType": "bytes"
            },
            {
              "name": "salt",
              "type": "bytes32",
              "internalType": "bytes32"
            },
            {
              "name": "schema",
              "type": "bytes32",
              "internalType": "bytes32"
            }
          ]
        },
        {
          "name": "recipient",
          "type": "address",
          "internalType": "address"
        },
        {
          "name": "refUID",
          "type": "bytes32",
          "internalType": "bytes32"
        }
      ],
      "outputs": [
        {
          "name": "uid_",
          "type": "bytes32",
          "internalType": "bytes32"
        }
      ],
      "stateMutability": "nonpayable"
    },
    {
      "type": "function",
      "name": "doObligationRaw",
      "inputs": [
        {
          "name": "data",
          "type": "bytes",
          "internalType": "bytes"
        },
        {
          "name": "expirationTime",
          "type": "uint64",
          "internalType": "uint64"
        },
        {
          "name": "refUID",
          "type": "bytes32",
          "internalType": "bytes32"
        }
      ],
      "outputs": [
        {
          "name": "uid_",
          "type": "bytes32",
          "internalType": "bytes32"
        }
      ],
      "stateMutability": "payable"
    },
    {
      "type": "function",
      "name": "getObligationData",
      "inputs": [
        {
          "name": "uid",
          "type": "bytes32",
          "internalType": "bytes32"
        }
      ],
      "outputs": [
        {
          "name": "",
          "type": "tuple",
          "internalType": "struct GlobalBondCommitRevealObligation.ObligationData",
          "components": [
            {
              "name": "payload",
              "type": "bytes",
              "internalType": "bytes"
            },
            {
              "name": "salt",
              "type": "bytes32",
              "internalType": "bytes32"
            },
            {
              "name": "schema",
              "type": "bytes32",
              "internalType": "bytes32"
            }
          ]
        }
      ],
      "stateMutability": "view"
    },
    {
      "type": "function",
      "name": "getSchema",
      "inputs": [],
      "outputs": [
        {
          "name": "",
          "type": "tuple",
          "internalType": "struct SchemaRecord",
          "components": [
            {
              "name": "uid",
              "type": "bytes32",
              "internalType": "bytes32"
            },
            {
              "name": "resolver",
              "type": "address",
              "internalType": "contract ISchemaResolver"
            },
            {
              "name": "revocable",
              "type": "bool",
              "internalType": "bool"
            },
            {
              "name": "schema",
              "type": "string",
              "internalType": "string"
            }
          ]
        }
      ],
      "stateMutability": "view"
    },
    {
      "type": "function",
      "name": "isPayable",
      "inputs": [],
      "outputs": [
        {
          "name": "",
          "type": "bool",
          "internalType": "bool"
        }
      ],
      "stateMutability": "pure"
    },
    {
      "type": "function",
      "name": "multiAttest",
      "inputs": [
        {
          "name": "attestations",
          "type": "tuple[]",
          "internalType": "struct Attestation[]",
          "components": [
            {
              "name": "uid",
              "type": "bytes32",
              "internalType": "bytes32"
            },
            {
              "name": "schema",
              "type": "bytes32",
              "internalType": "bytes32"
            },
            {
              "name": "time",
              "type": "uint64",
              "internalType": "uint64"
            },
            {
              "name": "expirationTime",
              "type": "uint64",
              "internalType": "uint64"
            },
            {
              "name": "revocationTime",
              "type": "uint64",
              "internalType": "uint64"
            },
            {
              "name": "refUID",
              "type": "bytes32",
              "internalType": "bytes32"
            },
            {
              "name": "recipient",
              "type": "address",
              "internalType": "address"
            },
            {
              "name": "attester",
              "type": "address",
              "internalType": "address"
            },
            {
              "name": "revocable",
              "type": "bool",
              "internalType": "bool"
            },
            {
              "name": "data",
              "type": "bytes",
              "internalType": "bytes"
            }
          ]
        },
        {
          "name": "values",
          "type": "uint256[]",
          "internalType": "uint256[]"
        }
      ],
      "outputs": [
        {
          "name": "",
          "type": "bool",
          "internalType": "bool"
        }
      ],
      "stateMutability": "payable"
    },
    {
      "type": "function",
      "name": "multiRevoke",
      "inputs": [
        {
          "name": "attestations",
          "type": "tuple[]",
          "internalType": "struct Attestation[]",
          "components": [
            {
              "name": "uid",
              "type": "bytes32",
              "internalType": "bytes32"
            },
            {
              "name": "schema",
              "type": "bytes32",
              "internalType": "bytes32"
            },
            {
              "name": "time",
              "type": "uint64",
              "internalType": "uint64"
            },
            {
              "name": "expirationTime",
              "type": "uint64",
              "internalType": "uint64"
            },
            {
              "name": "revocationTime",
              "type": "uint64",
              "internalType": "uint64"
            },
            {
              "name": "refUID",
              "type": "bytes32",
              "internalType": "bytes32"
            },
            {
              "name": "recipient",
              "type": "address",
              "internalType": "address"
            },
            {
              "name": "attester",
              "type": "address",
              "internalType": "address"
            },
            {
              "name": "revocable",
              "type": "bool",
              "internalType": "bool"
            },
            {
              "name": "data",
              "type": "bytes",
              "internalType": "bytes"
            }
          ]
        },
        {
          "name": "values",
          "type": "uint256[]",
          "internalType": "uint256[]"
        }
      ],
      "outputs": [
        {
          "name": "",
          "type": "bool",
          "internalType": "bool"
        }
      ],
      "stateMutability": "payable"
    },
    {
      "type": "function",
      "name": "owner",
      "inputs": [],
      "outputs": [
        {
          "name": "",
          "type": "address",
          "internalType": "address"
        }
      ],
      "stateMutability": "view"
    },
    {
      "type": "function",
      "name": "renounceOwnership",
      "inputs": [],
      "outputs": [],
      "stateMutability": "nonpayable"
    },
    {
      "type": "function",
      "name": "revealAndCollect",
      "inputs": [
        {
          "name": "data",
          "type": "tuple",
          "internalType": "struct GlobalBondCommitRevealObligation.ObligationData",
          "components": [
            {
              "name": "payload",
              "type": "bytes",
              "internalType": "bytes"
            },
            {
              "name": "salt",
              "type": "bytes32",
              "internalType": "bytes32"
            },
            {
              "name": "schema",
              "type": "bytes32",
              "internalType": "bytes32"
            }
          ]
        },
        {
          "name": "recipient",
          "type": "address",
          "internalType": "address"
        },
        {
          "name": "escrowContract",
          "type": "address",
          "internalType": "contract IEscrow"
        },
        {
          "name": "escrowUid",
          "type": "bytes32",
          "internalType": "bytes32"
        }
      ],
      "outputs": [
        {
          "name": "fulfillmentUid",
          "type": "bytes32",
          "internalType": "bytes32"
        },
        {
          "name": "collectResult",
          "type": "bytes",
          "internalType": "bytes"
        }
      ],
      "stateMutability": "nonpayable"
    },
    {
      "type": "function",
      "name": "revoke",
      "inputs": [
        {
          "name": "attestation",
          "type": "tuple",
          "internalType": "struct Attestation",
          "components": [
            {
              "name": "uid",
              "type": "bytes32",
              "internalType": "bytes32"
            },
            {
              "name": "schema",
              "type": "bytes32",
              "internalType": "bytes32"
            },
            {
              "name": "time",
              "type": "uint64",
              "internalType": "uint64"
            },
            {
              "name": "expirationTime",
              "type": "uint64",
              "internalType": "uint64"
            },
            {
              "name": "revocationTime",
              "type": "uint64",
              "internalType": "uint64"
            },
            {
              "name": "refUID",
              "type": "bytes32",
              "internalType": "bytes32"
            },
            {
              "name": "recipient",
              "type": "address",
              "internalType": "address"
            },
            {
              "name": "attester",
              "type": "address",
              "internalType": "address"
            },
            {
              "name": "revocable",
              "type": "bool",
              "internalType": "bool"
            },
            {
              "name": "data",
              "type": "bytes",
              "internalType": "bytes"
            }
          ]
        }
      ],
      "outputs": [
        {
          "name": "",
          "type": "bool",
          "internalType": "bool"
        }
      ],
      "stateMutability": "payable"
    },
    {
      "type": "function",
      "name": "setBondAmount",
      "inputs": [
        {
          "name": "_bondAmount",
          "type": "uint256",
          "internalType": "uint256"
        }
      ],
      "outputs": [],
      "stateMutability": "nonpayable"
    },
    {
      "type": "function",
      "name": "setCommitDeadline",
      "inputs": [
        {
          "name": "_commitDeadline",
          "type": "uint256",
          "internalType": "uint256"
        }
      ],
      "outputs": [],
      "stateMutability": "nonpayable"
    },
    {
      "type": "function",
      "name": "setSlashedBondRecipient",
      "inputs": [
        {
          "name": "_slashedBondRecipient",
          "type": "address",
          "internalType": "address"
        }
      ],
      "outputs": [],
      "stateMutability": "nonpayable"
    },
    {
      "type": "function",
      "name": "slashBond",
      "inputs": [
        {
          "name": "commitment",
          "type": "bytes32",
          "internalType": "bytes32"
        }
      ],
      "outputs": [
        {
          "name": "amount",
          "type": "uint256",
          "internalType": "uint256"
        }
      ],
      "stateMutability": "nonpayable"
    },
    {
      "type": "function",
      "name": "slashedBondRecipient",
      "inputs": [],
      "outputs": [
        {
          "name": "",
          "type": "address",
          "internalType": "address"
        }
      ],
      "stateMutability": "view"
    },
    {
      "type": "function",
      "name": "transferOwnership",
      "inputs": [
        {
          "name": "newOwner",
          "type": "address",
          "internalType": "address"
        }
      ],
      "outputs": [],
      "stateMutability": "nonpayable"
    },
    {
      "type": "function",
      "name": "version",
      "inputs": [],
      "outputs": [
        {
          "name": "",
          "type": "string",
          "internalType": "string"
        }
      ],
      "stateMutability": "view"
    },
    {
      "type": "event",
      "name": "BondReclaimed",
      "inputs": [
        {
          "name": "fulfillmentUid",
          "type": "bytes32",
          "indexed": true,
          "internalType": "bytes32"
        },
        {
          "name": "claimer",
          "type": "address",
          "indexed": true,
          "internalType": "address"
        },
        {
          "name": "amount",
          "type": "uint256",
          "indexed": false,
          "internalType": "uint256"
        }
      ],
      "anonymous": false
    },
    {
      "type": "event",
      "name": "BondSlashed",
      "inputs": [
        {
          "name": "commitment",
          "type": "bytes32",
          "indexed": true,
          "internalType": "bytes32"
        },
        {
          "name": "recipient",
          "type": "address",
          "indexed": true,
          "internalType": "address"
        },
        {
          "name": "amount",
          "type": "uint256",
          "indexed": false,
          "internalType": "uint256"
        }
      ],
      "anonymous": false
    },
    {
      "type": "event",
      "name": "Committed",
      "inputs": [
        {
          "name": "commitment",
          "type": "bytes32",
          "indexed": true,
          "internalType": "bytes32"
        },
        {
          "name": "claimer",
          "type": "address",
          "indexed": true,
          "internalType": "address"
        }
      ],
      "anonymous": false
    },
    {
      "type": "event",
      "name": "OwnershipTransferred",
      "inputs": [
        {
          "name": "previousOwner",
          "type": "address",
          "indexed": true,
          "internalType": "address"
        },
        {
          "name": "newOwner",
          "type": "address",
          "indexed": true,
          "internalType": "address"
        }
      ],
      "anonymous": false
    },
    {
      "type": "error",
      "name": "AccessDenied",
      "inputs": []
    },
    {
      "type": "error",
      "name": "BondAlreadyClaimed",
      "inputs": [
        {
          "name": "commitment",
          "type": "bytes32",
          "internalType": "bytes32"
        }
      ]
    },
    {
      "type": "error",
      "name": "BondTransferFailed",
      "inputs": [
        {
          "name": "claimer",
          "type": "address",
          "internalType": "address"
        },
        {
          "name": "amount",
          "type": "uint256",
          "internalType": "uint256"
        }
      ]
    },
    {
      "type": "error",
      "name": "CommitDeadlineNotReached",
      "inputs": [
        {
          "name": "commitment",
          "type": "bytes32",
          "internalType": "bytes32"
        }
      ]
    },
    {
      "type": "error",
      "name": "CommitmentAlreadyExists",
      "inputs": [
        {
          "name": "commitment",
          "type": "bytes32",
          "internalType": "bytes32"
        }
      ]
    },
    {
      "type": "error",
      "name": "CommitmentMissing",
      "inputs": [
        {
          "name": "commitment",
          "type": "bytes32",
          "internalType": "bytes32"
        },
        {
          "name": "claimer",
          "type": "address",
          "internalType": "address"
        }
      ]
    },
    {
      "type": "error",
      "name": "CommitmentTooRecent",
      "inputs": [
        {
          "name": "commitment",
          "type": "bytes32",
          "internalType": "bytes32"
        },
        {
          "name": "claimer",
          "type": "address",
          "internalType": "address"
        }
      ]
    },
    {
      "type": "error",
      "name": "EmptyCommitment",
      "inputs": []
    },
    {
      "type": "error",
      "name": "EscrowCollectionFailed",
      "inputs": [
        {
          "name": "escrowContract",
          "type": "address",
          "internalType": "address"
        },
        {
          "name": "escrowUid",
          "type": "bytes32",
          "internalType": "bytes32"
        },
        {
          "name": "fulfillmentUid",
          "type": "bytes32",
          "internalType": "bytes32"
        },
        {
          "name": "result",
          "type": "bytes",
          "internalType": "bytes"
        }
      ]
    },
    {
      "type": "error",
      "name": "IncorrectBondAmount",
      "inputs": [
        {
          "name": "provided",
          "type": "uint256",
          "internalType": "uint256"
        },
        {
          "name": "required",
          "type": "uint256",
          "internalType": "uint256"
        }
      ]
    },
    {
      "type": "error",
      "name": "InsufficientValue",
      "inputs": []
    },
    {
      "type": "error",
      "name": "InvalidEAS",
      "inputs": []
    },
    {
      "type": "error",
      "name": "InvalidLength",
      "inputs": []
    },
    {
      "type": "error",
      "name": "NotFromThisAttester",
      "inputs": []
    },
    {
      "type": "error",
      "name": "NotPayable",
      "inputs": []
    },
    {
      "type": "error",
      "name": "OwnableInvalidOwner",
      "inputs": [
        {
          "name": "owner",
          "type": "address",
          "internalType": "address"
        }
      ]
    },
    {
      "type": "error",
      "name": "OwnableUnauthorizedAccount",
      "inputs": [
        {
          "name": "account",
          "type": "address",
          "internalType": "address"
        }
      ]
    },
    {
      "type": "error",
      "name": "ReentrancyGuardReentrantCall",
      "inputs": []
    },
    {
      "type": "error",
      "name": "RevealTooLate",
      "inputs": [
        {
          "name": "commitment",
          "type": "bytes32",
          "internalType": "bytes32"
        }
      ]
    },
    {
      "type": "error",
      "name": "SchemaRegistrationFailed",
      "inputs": [
        {
          "name": "uid",
          "type": "bytes32",
          "internalType": "bytes32"
        }
      ]
    },
    {
      "type": "error",
      "name": "SlashTransferFailed",
      "inputs": [
        {
          "name": "recipient",
          "type": "address",
          "internalType": "address"
        },
        {
          "name": "amount",
          "type": "uint256",
          "internalType": "uint256"
        }
      ]
    }
  ],
  "bytecode": {
    "object": "0x61018080604052346103205760a08161298780380380916100208285610324565b833981010312610320578051906001600160a01b038216808303610320576020820151926001600160a01b03841680850361032057604084015192608060608601519501519560018060a01b0387168097036103205760405191610085606084610324565b602b83527f6279746573207061796c6f61642c20627974657333322073616c742c2062797460208401526a6573333220736368656d6160a81b60408401526001608052600360a0525f60c0521561031157836100f39460e0526101205261010052600161016052309161042b565b6101405260017f9b779b17422d0df92223018b32b4d1fa46e071723d6817e2486d003becc55f005533156102fe575f8054336001600160a01b0319821681178355604051939290916001600160a01b0316907f8be0079c531659141344cd1fd0a4f28419497f9722a3daafe3b4186f6b6457e09080a3604082016001600160401b038111838210176102ea576040525f82526020820190815260035490680100000000000000008210156102ea5760018201806003558210156102d65760035f52915160019190911b7fc2575a0e9e593c00f959f8c92f12db2869c3395a3b0502d05e2516446f71f85b810180546001600160401b0319166001600160401b03939093169290921790915590517fc2575a0e9e593c00f959f8c92f12db2869c3395a3b0502d05e2516446f71f85c90910155600455600580546001600160a01b0319169190911790556040516123809081610607823960805181611316015260a05181611341015260c0518161136c015260e051816122aa01526101005181610fbb01526101205181818161062a015281816109c20152611de7015261014051818181610662015281816108b301528181610f890152818161113d01528181611b1d0152611cd0015261016051818181610833015281816108eb0152611d100152f35b634e487b7160e01b5f52603260045260245ffd5b634e487b7160e01b5f52604160045260245ffd5b631e4fbdf760e01b5f525f60045260245ffd5b6341bc07ff60e11b5f5260045ffd5b5f80fd5b601f909101601f19168101906001600160401b038211908210176102ea57604052565b602081830312610320578051906001600160401b0382116103205701906080828203126103205760405191608083016001600160401b038111848210176102ea576040528051835260208101516001600160a01b0381168103610320576020840152604081015180151581036103205760408401526060810151906001600160401b038211610320570181601f82011215610320578051906001600160401b0382116102ea5760405192610405601f8401601f191660200185610324565b8284526020838301011161032057815f9260208093018386015e83010152606082015290565b929160405190602082018351926104756015602083818901978089885e810160018060601b03198860601b1683820152600160f81b60348201520301600a19810184520182610324565b5190206040516351753e3760e11b81526004810182905290956001600160a01b031693905f81602481885afa80156105865787915f916105ec575b5051146105e6579060846020926040519485938492630c1af44f60e31b8452606060048501525180928160648601528585015e5f84838501015260018060a01b0316602483015260016044830152601f801991011681010301815f865af15f91816105b2575b5061059157505f602491604051928380926351753e3760e11b82528760048301525afa80156105865783915f91610564575b5051146105625750639e6113d560e01b5f5260045260245ffd5b565b61058091503d805f833e6105788183610324565b810190610347565b5f610548565b6040513d5f823e3d90fd5b919280915082036105a0575090565b639e6113d560e01b5f5260045260245ffd5b9091506020813d6020116105de575b816105ce60209383610324565b810103126103205751905f610516565b3d91506105c1565b50505050565b61060091503d805f833e6105788183610324565b5f6104b056fe6080806040526004361015610029575b50361561001a575f80fd5b631574f9f360e01b5f5260045ffd5b5f3560e01c9081631f04b6b61461168c5750806328f9f3e61461157f5780632cfea7ce1461143c5780633d447265146113f957806354fd4d50146112f7578063571573ce146111605780635bf2f20d146111265780636605239e146110e05780636b122fe014610f4a578063715018a614610ef35780637224760e14610ed257806380f323a714610eb7578063839df94514610e6657806388e5b2d914610d085780638da3721a14610d4e5780638da5cb5b14610d2757806391db0b7e14610d08578063a2ff020914610ceb578063a50a216214610c7e578063b3b902d414610858578063b587a5eb1461081c578063c6ec5070146105a7578063c93844be146104f2578063cd95b7b914610492578063ce46e04614610478578063d4e063dd14610449578063d825c0a01461042c578063da18dc7814610389578063e49617e114610364578063e60c350514610364578063f14fcbc81461021e5763f2fde38b14610195575f61000f565b3461021a57602036600319011261021a576101ae6116c5565b6101b6611c9d565b6001600160a01b03168015610207575f80546001600160a01b03198116831782556001600160a01b0316907f8be0079c531659141344cd1fd0a4f28419497f9722a3daafe3b4186f6b6457e09080a3005b631e4fbdf760e01b5f525f60045260245ffd5b5f80fd5b602036600319011261021a5760043580156103555761023c43612243565b80340361033f57505f81815260016020819052604090912001546001600160a01b031661032d5760405161026f816117de565b6001600160401b0343168152600160208201916001600160401b03421683526040810192338452845f52826020526001600160401b038060405f20935116166001600160401b03198354161782555167ffffffffffffffff60401b82549160401b169067ffffffffffffffff60401b1916178155019060018060a01b039051166bffffffffffffffffffffffff60a01b82541617905533907ffda886b5d38d5d61e432b3acc9f19640a2b8c83c87a9c584a780d3854b309b9c5f80a3005b63c5f89f0560e01b5f5260045260245ffd5b63058b312960e51b5f523460045260245260445ffd5b635560fe6360e11b5f5260045ffd5b602061037f6103723661194b565b61037a6122a8565b6122e9565b6040519015158152f35b3461021a57606036600319011261021a576103a26116af565b604435906001600160401b03821161021a576060600319833603011261021a576103e26104216020936040516103f0816103e2888201946004018561198c565b03601f19810183528261184b565b519020604080516004358782019081526001600160a01b039096166020870152908501919091529182906060850190565b519020604051908152f35b3461021a575f36600319011261021a576020600354604051908152f35b3461021a57602036600319011261021a576004355f526002602052602060ff60405f2054166040519015158152f35b3461021a575f36600319011261021a5760206040515f8152f35b3461021a57604036600319011261021a576004356001600160401b03811161021a576060600319823603011261021a576104ea6103e26104df60209360405192839160040186830161198c565b602435903390611cc3565b604051908152f35b3461021a57602036600319011261021a576004356001600160401b03811161021a576105229036906004016118ef565b61052a611c7e565b5081019060208183031261021a578035906001600160401b03821161021a57019060608282031261021a5760405190610562826117de565b8235926001600160401b03841161021a576105846040926105a39583016118d1565b835260208101356020840152013560408201526040519182918261191c565b0390f35b3461021a57602036600319011261021a576105c0611c7e565b5060606101206040516105d281611814565b5f81525f60208201525f60408201525f838201525f60808201525f60a08201525f60c08201525f60e08201525f61010082015201526040516328c44a9960e21b815260043560048201525f8160248160018060a01b037f0000000000000000000000000000000000000000000000000000000000000000165afa908115610811575f9161071f575b5060208101517f000000000000000000000000000000000000000000000000000000000000000003610710576101200151805181019060208183031261021a576020810151906001600160401b03821161021a570160608183031261021a57604051906106c6826117de565b6020810151906001600160401b03821161021a576106f16060926020806105a3970191840101611a30565b835260408101516020840152015160408201526040519182918261191c565b635527981560e11b5f5260045ffd5b90503d805f833e610730818361184b565b81019060208183031261021a578051906001600160401b03821161021a57016101408183031261021a576040519161076783611814565b815183526020820151602084015261078160408301612302565b604084015261079260608301612302565b60608401526107a360808301612302565b608084015260a082015160a08401526107be60c08301612316565b60c08401526107cf60e08301612316565b60e08401526107e16101008301611a79565b6101008401526101208201516001600160401b03811161021a576108059201611a30565b6101208201528161065a565b6040513d5f823e3d90fd5b3461021a575f36600319011261021a5760206040517f000000000000000000000000000000000000000000000000000000000000000015158152f35b606036600319011261021a576004356001600160401b03811161021a576108839036906004016118ef565b90602435906001600160401b03821680920361021a576108a89060443593369161189b565b906108b161220b565b7f000000000000000000000000000000000000000000000000000000000000000092604051926108e084611830565b3384528260208501527f00000000000000000000000000000000000000000000000000000000000000001515928360408601528260608601528160808601525f60a08601526020604051610933816117c3565b8781528181019687526040518097819263f17325e760e01b8352846004840152516024830152516040604483015260018060a01b0381511660648301526001600160401b03848201511660848301526040810151151560a4830152606081015160c483015260a06109b4608083015160c060e48601526101248501906116ef565b91015161010483015203815f7f00000000000000000000000000000000000000000000000000000000000000006001600160a01b03165af1948515610811575f95610c48575b506103e291610a869160405197610a1089611814565b87895260208901526001600160401b034216604089015260608801525f60808801528360a088015260c08701943386523060e0890152610100880152806101208801526020815191012060405192839160208301953390876040919493926060820195825260018060a01b031660208201520152565b51902090815f52600160205260405f2060405190610aa3826117de565b80546001600160401b038082168452604091821c16602084019081526001909201546001600160a01b0316908301818152939015610c23576001600160401b03835116431115610bfe575051600454610b04916001600160401b031661197f565b4211610beb57825f52600260205260ff60405f205416610bd8576001600160401b03610b31915116612243565b915f52600260205260405f20600160ff198254161790555f8080808560018060a01b038651165af1610b61611a4a565b5015610bb9577fa9b8d1cb23fc6bfcae1f7ed8ec77868451af44dde191688baa93bb00b7ee491760208095519260018060a01b0390511693604051908152a360015f51602061232b5f395f51905f5255604051908152f35b60018060a01b03905116638fdb80a360e01b5f5260045260245260445ffd5b826327d117f760e01b5f5260045260245ffd5b8263b7c2dee760e01b5f5260045260245ffd5b516309e555e360e01b5f90815260048690526001600160a01b03909116602452604490fd5b51630fa254d360e21b5f90815260048690526001600160a01b03909116602452604490fd5b9094506020813d602011610c76575b81610c646020938361184b565b8101031261021a5751936103e26109fa565b3d9150610c57565b3461021a57606036600319011261021a576004356001600160401b03811161021a576060600319823603011261021a576104ea610cd4602092610ce2610cc26116af565b9160405193849160040187830161198c565b03601f19810184528361184b565b60443591611cc3565b3461021a575f36600319011261021a576020600454604051908152f35b602061037f610d1636611773565b92610d229291926122a8565b611a86565b3461021a575f36600319011261021a575f546040516001600160a01b039091168152602090f35b3461021a57606036600319011261021a576004356001600160401b03811161021a57610140600319823603011261021a5760405190610d8c82611814565b8060040135825260248101356020830152610da96044820161186c565b6040830152610dba6064820161186c565b6060830152610dcb6084820161186c565b608083015260a481013560a0830152610de660c482016116db565b60c0830152610df760e482016116db565b60e0830152610104810135801515810361021a57610100830152610124810135906001600160401b03821161021a576004610e3592369201016118d1565b6101208201526024356001600160401b03811161021a57602091610e6061037f9236906004016118d1565b50611b16565b3461021a57602036600319011261021a576004355f526001602052606060405f208054906001808060a01b03910154166001600160401b0360405192818116845260401c1660208301526040820152f35b3461021a575f36600319011261021a5760206104ea43612243565b3461021a57602036600319011261021a57610eeb611c9d565b600480359055005b3461021a575f36600319011261021a57610f0b611c9d565b5f80546001600160a01b0319811682556001600160a01b03167f8be0079c531659141344cd1fd0a4f28419497f9722a3daafe3b4186f6b6457e08280a3005b3461021a575f36600319011261021a57606080604051610f69816117f9565b5f81525f60208201525f604082015201526040516351753e3760e11b81527f000000000000000000000000000000000000000000000000000000000000000060048201525f8160248160018060a01b037f0000000000000000000000000000000000000000000000000000000000000000165afa8015610811575f90611030575b6060906105a3604051928392602084528051602085015260018060a01b0360208201511660408501526040810151151582850152015160808084015260a08301906116ef565b503d805f833e611040818361184b565b81019060208183031261021a578051906001600160401b03821161021a570160808183031261021a5760405190611076826117f9565b8051825260208101516001600160a01b038116810361021a5760208301526110a060408201611a79565b60408301526060810151906001600160401b03821161021a570182601f8201121561021a576060928160206110d7935191016119fa565b82820152610fea565b3461021a57602036600319011261021a5760043560035481101561021a57611109604091611713565b5060016001600160401b0382541691015482519182526020820152f35b3461021a575f36600319011261021a5760206040517f00000000000000000000000000000000000000000000000000000000000000008152f35b3461021a57602036600319011261021a5760043561117c61220b565b805f52600160205260405f2060405190611195826117de565b80546001600160401b038082168452604091821c16602084019081526001909201546001600160a01b0316908301819052156112e057516004546111e1916001600160401b031661197f565b4211156112cd57815f52600260205260ff60405f2054166112ba576001600160401b0361120f915116612243565b90805f52600260205260405f20600160ff198254161790555f8080808560018060a01b03600554165af1611241611a4a565b5015611299579060209160018060a01b0360055416907f5fab42dd23447bf0a6cc6638a8217a7d477b5067842aedf24b881e132c1c133d84604051858152a360015f51602061232b5f395f51905f5255604051908152f35b5060018060a01b0360055416631f89846360e21b5f5260045260245260445ffd5b506327d117f760e01b5f5260045260245ffd5b50631439fe2d60e01b5f5260045260245ffd5b82630fa254d360e21b5f526004525f60245260445ffd5b3461021a575f36600319011261021a576105a360206113e5600161133a7f000000000000000000000000000000000000000000000000000000000000000061209e565b81846113657f000000000000000000000000000000000000000000000000000000000000000061209e565b81806113907f000000000000000000000000000000000000000000000000000000000000000061209e565b9260405199878b985191829101848a015e870190601760f91b83830152805192839101602183015e010190601760f91b84830152805192839101600283015e01015f838201520301601f19810183528261184b565b6040519182916020835260208301906116ef565b3461021a57602036600319011261021a576114126116c5565b61141a611c9d565b600580546001600160a01b0319166001600160a01b0392909216919091179055005b3461021a57608036600319011261021a576004356001600160401b03811161021a576060600319823603011261021a576114746116af565b6044356001600160a01b038116919082900361021a576114ad926114b2916103e26064359586936040519283916004016020830161198c565b611cc3565b604051633a9bb12760e21b81528360048201528160248201525f8160448183875af15f9181611540575b50611523575061151f906114ee611a4a565b90604051948594630b836fc760e31b86526004860152602485015260448401526080606484015260848301906116ef565b0390fd5b906105a360405192839283526040602084015260408301906116ef565b9091503d805f833e611552818361184b565b810160208282031261021a5781516001600160401b03811161021a576115789201611a30565b90856114dc565b3461021a57602036600319011261021a5760043561159b611c9d565b60014301804311611678576003545f198101916001600160401b03169080831161167857816001600160401b036115d185611713565b505416036115eb5750506115e6600191611713565b500155005b6040519250906115fa836117c3565b82526020820192835268010000000000000000811015611664578060016116249201600355611713565b929092611651576001600160401b03806001935116166001600160401b0319845416178355519101555f80f35b634e487b7160e01b5f525f60045260245ffd5b634e487b7160e01b5f52604160045260245ffd5b634e487b7160e01b5f52601160045260245ffd5b3461021a575f36600319011261021a576005546001600160a01b03168152602090f35b602435906001600160a01b038216820361021a57565b600435906001600160a01b038216820361021a57565b35906001600160a01b038216820361021a57565b805180835260209291819084018484015e5f828201840152601f01601f1916010190565b60035481101561172f5760035f5260205f209060011b01905f90565b634e487b7160e01b5f52603260045260245ffd5b9181601f8401121561021a578235916001600160401b03831161021a576020808501948460051b01011161021a57565b604060031982011261021a576004356001600160401b03811161021a578161179d91600401611743565b92909291602435906001600160401b03821161021a576117bf91600401611743565b9091565b604081019081106001600160401b0382111761166457604052565b606081019081106001600160401b0382111761166457604052565b608081019081106001600160401b0382111761166457604052565b61014081019081106001600160401b0382111761166457604052565b60c081019081106001600160401b0382111761166457604052565b90601f801991011681019081106001600160401b0382111761166457604052565b35906001600160401b038216820361021a57565b6001600160401b03811161166457601f01601f191660200190565b9291926118a782611880565b916118b5604051938461184b565b82948184528183011161021a578281602093845f960137010152565b9080601f8301121561021a578160206118ec9335910161189b565b90565b9181601f8401121561021a578235916001600160401b03831161021a576020838186019501011161021a57565b6020815260606040611939845183602086015260808501906116ef565b93602081015182850152015191015290565b602060031982011261021a57600435906001600160401b03821161021a5761014090829003600319011261021a5760040190565b9190820180921161167857565b602081528135601e198336030181121561021a5782016020813591016001600160401b03821161021a57813603811361021a5760a0938260409260606020870152816080870152868601375f84840186015260208101358285015201356060830152601f01601f1916010190565b929192611a0682611880565b91611a14604051938461184b565b82948184528183011161021a578281602093845f96015e010152565b9080601f8301121561021a5781516118ec926020016119fa565b3d15611a74573d90611a5b82611880565b91611a69604051938461184b565b82523d5f602084013e565b606090565b5190811515820361021a57565b929092818403611b07575f91345b85841015611afc578184101561172f578360051b8086013590828211611aed5784013561013e198536030181121561021a57611ad19085016122e9565b15611ae25760019103930192611a94565b505050505050505f90565b63044044a560e21b5f5260045ffd5b505050505050600190565b63251f56a160e21b5f5260045ffd5b60208101517f000000000000000000000000000000000000000000000000000000000000000003611c795760a081015160c0820180516101208401518051602091820120604080519283019586526001600160a01b03909316928201929092526060810191909152909190611b8e81608081016103e2565b51902091825f52600160205260405f2091604051611bab816117de565b83546001600160401b038082168352604091821c16602083019081526001909501546001600160a01b031690820181905215611c5357516001600160401b0316431115611c2e57506001600160401b03806040611c11930151169251166004549061197f565b10611c1c5750600190565b63b7c2dee760e01b5f5260045260245ffd5b516309e555e360e01b5f90815260048590526001600160a01b03909116602452604490fd5b8151630fa254d360e21b5f90815260048790526001600160a01b03909116602452604490fd5b505f90565b60405190611c8b826117de565b5f604083606081528260208201520152565b5f546001600160a01b03163303611cb057565b63118cdaa760e01b5f523360045260245ffd5b919091611cce61220b565b7f00000000000000000000000000000000000000000000000000000000000000009160405193611cfd85611830565b60018060a01b03168085525f60208601527f00000000000000000000000000000000000000000000000000000000000000001515928360408701528260608701528060808701525f60a08701526020604051611d58816117c3565b8681528181019788526040518098819263f17325e760e01b8352846004840152516024830152516040604483015260018060a01b0381511660648301526001600160401b03848201511660848301526040810151151560a4830152606081015160c483015260a0611dd9608083015160c060e48601526101248501906116ef565b91015161010483015203815f7f00000000000000000000000000000000000000000000000000000000000000006001600160a01b03165af1958615610811575f96612068575b50611eaa9060405195611e3187611814565b87875260208701526001600160401b03421660408701525f60608701525f60808701528360a087015260c08601948386523060e08801526101008701528061012087015260208151910120916103e26040519384926020840196876040919493926060820195825260018060a01b031660208201520152565b51902091825f52600160205260405f2060405190611ec7826117de565b80546001600160401b038082168452604091821c16602084019081526001909201546001600160a01b0316908301818152949015612043576001600160401b0383511643111561201e575051600454611f28916001600160401b031661197f565b421161200b57835f52600260205260ff60405f205416611ff8576001600160401b03611f55915116612243565b925f52600260205260405f20600160ff198254161790555f8080808660018060a01b038751165af1611f85611a4a565b5015611fd8575190516040519283526001600160a01b0316917fa9b8d1cb23fc6bfcae1f7ed8ec77868451af44dde191688baa93bb00b7ee491790602090a39060015f51602061232b5f395f51905f5255565b5060018060a01b03905116638fdb80a360e01b5f5260045260245260445ffd5b836327d117f760e01b5f5260045260245ffd5b8363b7c2dee760e01b5f5260045260245ffd5b516309e555e360e01b5f90815260048790526001600160a01b03909116602452604490fd5b51630fa254d360e21b5f90815260048790526001600160a01b03909116602452604490fd5b9095506020813d602011612096575b816120846020938361184b565b8101031261021a575194611eaa611e1f565b3d9150612077565b805f9172184f03e93ff9f4daa797ed6e38ed64bf6a1f0160401b8210156121e8575b806d04ee2d6d415b85acef8100000000600a9210156121cd575b662386f26fc100008110156121b9575b6305f5e1008110156121a8575b612710811015612199575b606481101561218b575b1015612180575b600a6021600184019361212585611880565b94612133604051968761184b565b808652612142601f1991611880565b013660208701378401015b5f1901916f181899199a1a9b1b9c1cb0b131b232b360811b8282061a835304801561217b57600a909161214d565b505090565b600190910190612113565b60646002910493019261210c565b61271060049104930192612102565b6305f5e100600891049301926120f7565b662386f26fc10000601091049301926120ea565b6d04ee2d6d415b85acef8100000000602091049301926120da565b506040915072184f03e93ff9f4daa797ed6e38ed64bf6a1f0160401b81046120c0565b60025f51602061232b5f395f51905f5254146122345760025f51602061232b5f395f51905f5255565b633ee5aeb560e01b5f5260045ffd5b90600354805b612251575f80fd5b5f19810181811161167857612267602091611713565b50604051612274816117c3565b60016001600160401b0383541692838352015492839101528410156122a357508015611678575f190180612249565b925050565b7f00000000000000000000000000000000000000000000000000000000000000006001600160a01b031633036122da57565b634ca8886760e01b5f5260045ffd5b60e0013560018060a01b03811680910361021a57301490565b51906001600160401b038216820361021a57565b51906001600160a01b038216820361021a5756fe9b779b17422d0df92223018b32b4d1fa46e071723d6817e2486d003becc55f00a2646970667358221220a1ca28c62726a2251c8cd807d1c9c3dc2ab7a1812d7047db44c8d67abbeb190264736f6c634300081b0033",
    "linkReferences": {}
  },
  "methodIdentifiers": {
    "ATTESTATION_SCHEMA()": "5bf2f20d",
    "ATTESTATION_SCHEMA_REVOCABLE()": "b587a5eb",
    "attest((bytes32,bytes32,uint64,uint64,uint64,bytes32,address,address,bool,bytes))": "e60c3505",
    "bondAmount()": "80f323a7",
    "bondEpochCount()": "d825c0a0",
    "bondEpochs(uint256)": "6605239e",
    "check((bytes32,bytes32,uint64,uint64,uint64,bytes32,address,address,bool,bytes),bytes,bytes32)": "8da3721a",
    "commit(bytes32)": "f14fcbc8",
    "commitDeadline()": "a2ff0209",
    "commitmentClaimed(bytes32)": "d4e063dd",
    "commitments(bytes32)": "839df945",
    "computeCommitment(bytes32,address,(bytes,bytes32,bytes32))": "da18dc78",
    "decodeObligationData(bytes)": "c93844be",
    "doObligation((bytes,bytes32,bytes32),bytes32)": "cd95b7b9",
    "doObligationFor((bytes,bytes32,bytes32),address,bytes32)": "a50a2162",
    "doObligationRaw(bytes,uint64,bytes32)": "b3b902d4",
    "getObligationData(bytes32)": "c6ec5070",
    "getSchema()": "6b122fe0",
    "isPayable()": "ce46e046",
    "multiAttest((bytes32,bytes32,uint64,uint64,uint64,bytes32,address,address,bool,bytes)[],uint256[])": "91db0b7e",
    "multiRevoke((bytes32,bytes32,uint64,uint64,uint64,bytes32,address,address,bool,bytes)[],uint256[])": "88e5b2d9",
    "owner()": "8da5cb5b",
    "renounceOwnership()": "715018a6",
    "revealAndCollect((bytes,bytes32,bytes32),address,address,bytes32)": "2cfea7ce",
    "revoke((bytes32,bytes32,uint64,uint64,uint64,bytes32,address,address,bool,bytes))": "e49617e1",
    "setBondAmount(uint256)": "28f9f3e6",
    "setCommitDeadline(uint256)": "7224760e",
    "setSlashedBondRecipient(address)": "3d447265",
    "slashBond(bytes32)": "571573ce",
    "slashedBondRecipient()": "1f04b6b6",
    "transferOwnership(address)": "f2fde38b",
    "version()": "54fd4d50"
  },
  "id": 92
}