{
  "abi": [
    {
      "type": "constructor",
      "inputs": [
        {
          "name": "_eas",
          "type": "address",
          "internalType": "contract IEAS"
        }
      ],
      "stateMutability": "nonpayable"
    },
    {
      "type": "function",
      "name": "check",
      "inputs": [
        {
          "name": "fulfillment",
          "type": "tuple",
          "internalType": "struct Attestation",
          "components": [
            {
              "name": "uid",
              "type": "bytes32",
              "internalType": "bytes32"
            },
            {
              "name": "schema",
              "type": "bytes32",
              "internalType": "bytes32"
            },
            {
              "name": "time",
              "type": "uint64",
              "internalType": "uint64"
            },
            {
              "name": "expirationTime",
              "type": "uint64",
              "internalType": "uint64"
            },
            {
              "name": "revocationTime",
              "type": "uint64",
              "internalType": "uint64"
            },
            {
              "name": "refUID",
              "type": "bytes32",
              "internalType": "bytes32"
            },
            {
              "name": "recipient",
              "type": "address",
              "internalType": "address"
            },
            {
              "name": "attester",
              "type": "address",
              "internalType": "address"
            },
            {
              "name": "revocable",
              "type": "bool",
              "internalType": "bool"
            },
            {
              "name": "data",
              "type": "bytes",
              "internalType": "bytes"
            }
          ]
        },
        {
          "name": "",
          "type": "bytes",
          "internalType": "bytes"
        },
        {
          "name": "escrowUid",
          "type": "bytes32",
          "internalType": "bytes32"
        }
      ],
      "outputs": [
        {
          "name": "",
          "type": "bool",
          "internalType": "bool"
        }
      ],
      "stateMutability": "view"
    },
    {
      "type": "function",
      "name": "confirm",
      "inputs": [
        {
          "name": "_fulfillment",
          "type": "bytes32",
          "internalType": "bytes32"
        },
        {
          "name": "_escrow",
          "type": "bytes32",
          "internalType": "bytes32"
        }
      ],
      "outputs": [],
      "stateMutability": "nonpayable"
    },
    {
      "type": "function",
      "name": "confirmations",
      "inputs": [
        {
          "name": "",
          "type": "bytes32",
          "internalType": "bytes32"
        },
        {
          "name": "",
          "type": "bytes32",
          "internalType": "bytes32"
        }
      ],
      "outputs": [
        {
          "name": "",
          "type": "bool",
          "internalType": "bool"
        }
      ],
      "stateMutability": "view"
    },
    {
      "type": "function",
      "name": "eas",
      "inputs": [],
      "outputs": [
        {
          "name": "",
          "type": "address",
          "internalType": "contract IEAS"
        }
      ],
      "stateMutability": "view"
    },
    {
      "type": "function",
      "name": "escrowToFulfillment",
      "inputs": [
        {
          "name": "",
          "type": "bytes32",
          "internalType": "bytes32"
        }
      ],
      "outputs": [
        {
          "name": "",
          "type": "bytes32",
          "internalType": "bytes32"
        }
      ],
      "stateMutability": "view"
    },
    {
      "type": "function",
      "name": "requestConfirmation",
      "inputs": [
        {
          "name": "_fulfillment",
          "type": "bytes32",
          "internalType": "bytes32"
        },
        {
          "name": "_escrow",
          "type": "bytes32",
          "internalType": "bytes32"
        }
      ],
      "outputs": [],
      "stateMutability": "nonpayable"
    },
    {
      "type": "function",
      "name": "revoke",
      "inputs": [
        {
          "name": "_fulfillment",
          "type": "bytes32",
          "internalType": "bytes32"
        },
        {
          "name": "_escrow",
          "type": "bytes32",
          "internalType": "bytes32"
        }
      ],
      "outputs": [],
      "stateMutability": "nonpayable"
    },
    {
      "type": "function",
      "name": "supportsInterface",
      "inputs": [
        {
          "name": "interfaceId",
          "type": "bytes4",
          "internalType": "bytes4"
        }
      ],
      "outputs": [
        {
          "name": "",
          "type": "bool",
          "internalType": "bool"
        }
      ],
      "stateMutability": "view"
    },
    {
      "type": "event",
      "name": "ConfirmationMade",
      "inputs": [
        {
          "name": "fulfillment",
          "type": "bytes32",
          "indexed": true,
          "internalType": "bytes32"
        },
        {
          "name": "escrow",
          "type": "bytes32",
          "indexed": true,
          "internalType": "bytes32"
        }
      ],
      "anonymous": false
    },
    {
      "type": "event",
      "name": "ConfirmationRequested",
      "inputs": [
        {
          "name": "fulfillment",
          "type": "bytes32",
          "indexed": true,
          "internalType": "bytes32"
        },
        {
          "name": "confirmer",
          "type": "address",
          "indexed": true,
          "internalType": "address"
        },
        {
          "name": "escrow",
          "type": "bytes32",
          "indexed": true,
          "internalType": "bytes32"
        }
      ],
      "anonymous": false
    },
    {
      "type": "event",
      "name": "ConfirmationRevoked",
      "inputs": [
        {
          "name": "fulfillment",
          "type": "bytes32",
          "indexed": true,
          "internalType": "bytes32"
        },
        {
          "name": "escrow",
          "type": "bytes32",
          "indexed": true,
          "internalType": "bytes32"
        }
      ],
      "anonymous": false
    },
    {
      "type": "error",
      "name": "AnotherFulfillmentAlreadyConfirmed",
      "inputs": []
    },
    {
      "type": "error",
      "name": "InvalidFulfillment",
      "inputs": []
    },
    {
      "type": "error",
      "name": "NoConfirmationToRevoke",
      "inputs": []
    },
    {
      "type": "error",
      "name": "UnauthorizedConfirmation",
      "inputs": []
    },
    {
      "type": "error",
      "name": "UnauthorizedConfirmationRequest",
      "inputs": []
    },
    {
      "type": "error",
      "name": "UnauthorizedRevocation",
      "inputs": []
    }
  ],
  "bytecode": {
    "object": "0x60a03461007e57601f6109e338819003918201601f19168301916001600160401b038311848410176100825780849260209460405283398101031261007e57516001600160a01b038116810361007e5760805260405161094c9081610097823960805181818160a0015281816103460152818161039c01526105490152f35b5f80fd5b634e487b7160e01b5f52604160045260245ffdfe6080806040526004361015610012575f80fd5b5f3560e01c90816301ffc9a71461068b575080633786930d1461066157806352155df71461052257806357f784ba146103755780638150864d14610331578063887d686d146102fe5780638da3721a146101c75763c266461014610074575f80fd5b346101c357610082366106de565b6040516328c44a9960e21b8152600481018290529091905f816024817f00000000000000000000000000000000000000000000000000000000000000006001600160a01b03165afa9081156101b8575f91610196575b5060c001516001600160a01b0316330361018757805f525f60205260405f20825f5260205260ff60405f205416158015610171575b61016257805f525f60205260405f20825f5260205260405f2060ff198154169055815f5260016020525f60408120557f137a0dfcce695307235e039aa2ae70da634ed7f10a6a5a536b3a8c15d758aa1e5f80a3005b6339abb17d60e01b5f5260045ffd5b50815f5260016020528060405f2054141561010d565b630feaf7d560e31b5f5260045ffd5b6101b291503d805f833e6101aa8183610725565b8101906107fb565b5f6100d8565b6040513d5f823e3d90fd5b5f80fd5b346101c35760603660031901126101c35760043567ffffffffffffffff81116101c35761014060031982360301126101c35760405190610206826106f4565b806004013582526024810135602083015261022360448201610747565b604083015261023460648201610747565b606083015261024560848201610747565b608083015260a481013560a083015261026060c4820161075c565b60c083015261027160e4820161075c565b60e083015261010481013580151581036101c3576101008301526101248101359067ffffffffffffffff82116101c35760046102b0923692010161078c565b61012082015260243567ffffffffffffffff81116101c3576102d690369060040161078c565b50515f525f60205260405f206044355f52602052602060ff60405f2054166040519015158152f35b346101c35761030c366106de565b905f525f60205260405f20905f52602052602060ff60405f2054166040519015158152f35b346101c3575f3660031901126101c3576040517f00000000000000000000000000000000000000000000000000000000000000006001600160a01b03168152602090f35b346101c357610383366106de565b6040516328c44a9960e21b8152600481018290529091907f00000000000000000000000000000000000000000000000000000000000000006001600160a01b03165f82602481845afa9081156101b8576024925f92610504575b505f90604051938480926328c44a9960e21b82528760048301525afa9182156101b8575f926104e8575b5060c001516001600160a01b031633036104d957518181159182156104ce575b50506104bf57815f52600160205260405f20541515806104a9575b61049a57805f525f60205260405f20825f5260205260405f20600160ff19825416179055815f5260016020528060405f20557fd22fd165f2b163f7b94d6e2b15443105c17bfae3fa2242150644ab76a95d532e5f80a3005b633ea893c560e21b5f5260045ffd5b50815f5260016020528060405f20541415610442565b630ebe58ef60e11b5f5260045ffd5b141590508184610427565b6331eb5cd360e11b5f5260045ffd5b6104fd9192503d805f833e6101aa8183610725565b9084610407565b5f91925061051b903d8084833e6101aa8183610725565b91906103dd565b346101c357610530366106de565b6040516328c44a9960e21b8152600481018390529091907f00000000000000000000000000000000000000000000000000000000000000006001600160a01b0316905f81602481855afa9081156101b8575f91610647575b5060e08101516001600160a01b0316331415908161062f575b50610620575f602491604051928380926328c44a9960e21b82528760048301525afa9081156101b8575f91610606575b5060c001516001600160a01b0316907f93ece828de650a0159786850192cbcd721ab720e1ee81b00365a5c8d63886b315f80a4005b61061a91503d805f833e6101aa8183610725565b836105d1565b63020a627d60e11b5f5260045ffd5b60c001516001600160a01b03163314159050846105a1565b61065b91503d805f833e6101aa8183610725565b84610588565b346101c35760203660031901126101c3576004355f526001602052602060405f2054604051908152f35b346101c35760203660031901126101c3576004359063ffffffff60e01b82168092036101c3576020916346d1b90d60e11b81149081156106cd575b5015158152f35b6301ffc9a760e01b149050836106c6565b60409060031901126101c3576004359060243590565b610140810190811067ffffffffffffffff82111761071157604052565b634e487b7160e01b5f52604160045260245ffd5b90601f8019910116810190811067ffffffffffffffff82111761071157604052565b359067ffffffffffffffff821682036101c357565b35906001600160a01b03821682036101c357565b67ffffffffffffffff811161071157601f01601f191660200190565b81601f820112156101c3578035906107a382610770565b926107b16040519485610725565b828452602083830101116101c357815f926020809301838601378301015290565b519067ffffffffffffffff821682036101c357565b51906001600160a01b03821682036101c357565b6020818303126101c35780519067ffffffffffffffff82116101c3570190610140828203126101c35760405191610831836106f4565b805183526020810151602084015261084b604082016107d2565b604084015261085c606082016107d2565b606084015261086d608082016107d2565b608084015260a081015160a084015261088860c082016107e7565b60c084015261089960e082016107e7565b60e084015261010081015180151581036101c3576101008401526101208101519067ffffffffffffffff82116101c3570181601f820112156101c3578051906108e182610770565b926108ef6040519485610725565b828452602083830101116101c357815f9260208093018386015e830101526101208201529056fea26469706673582212209b6a79ea737f93da3f5148cab7368c244b7c735f67d3f60aea133fe7c3fd014964736f6c634300081b0033",
    "linkReferences": {}
  },
  "methodIdentifiers": {
    "check((bytes32,bytes32,uint64,uint64,uint64,bytes32,address,address,bool,bytes),bytes,bytes32)": "8da3721a",
    "confirm(bytes32,bytes32)": "57f784ba",
    "confirmations(bytes32,bytes32)": "887d686d",
    "eas()": "8150864d",
    "escrowToFulfillment(bytes32)": "3786930d",
    "requestConfirmation(bytes32,bytes32)": "52155df7",
    "revoke(bytes32,bytes32)": "c2664610",
    "supportsInterface(bytes4)": "01ffc9a7"
  },
  "id": 111
}