{"abi":[{"type":"constructor","inputs":[{"name":"_eas","type":"address","internalType":"contract IEAS"}],"stateMutability":"nonpayable"},{"type":"function","name":"checkObligation","inputs":[{"name":"fulfillment","type":"tuple","internalType":"struct Attestation","components":[{"name":"uid","type":"bytes32","internalType":"bytes32"},{"name":"schema","type":"bytes32","internalType":"bytes32"},{"name":"time","type":"uint64","internalType":"uint64"},{"name":"expirationTime","type":"uint64","internalType":"uint64"},{"name":"revocationTime","type":"uint64","internalType":"uint64"},{"name":"refUID","type":"bytes32","internalType":"bytes32"},{"name":"recipient","type":"address","internalType":"address"},{"name":"attester","type":"address","internalType":"address"},{"name":"revocable","type":"bool","internalType":"bool"},{"name":"data","type":"bytes","internalType":"bytes"}]},{"name":"","type":"bytes","internalType":"bytes"},{"name":"fulfilling","type":"bytes32","internalType":"bytes32"}],"outputs":[{"name":"","type":"bool","internalType":"bool"}],"stateMutability":"view"},{"type":"function","name":"confirm","inputs":[{"name":"_fulfillment","type":"bytes32","internalType":"bytes32"},{"name":"_escrow","type":"bytes32","internalType":"bytes32"}],"outputs":[],"stateMutability":"nonpayable"},{"type":"function","name":"confirmations","inputs":[{"name":"","type":"bytes32","internalType":"bytes32"},{"name":"","type":"bytes32","internalType":"bytes32"}],"outputs":[{"name":"","type":"bool","internalType":"bool"}],"stateMutability":"view"},{"type":"function","name":"eas","inputs":[],"outputs":[{"name":"","type":"address","internalType":"contract IEAS"}],"stateMutability":"view"},{"type":"function","name":"escrowConfirmed","inputs":[{"name":"","type":"bytes32","internalType":"bytes32"}],"outputs":[{"name":"","type":"bool","internalType":"bool"}],"stateMutability":"view"},{"type":"function","name":"requestConfirmation","inputs":[{"name":"_fulfillment","type":"bytes32","internalType":"bytes32"},{"name":"_escrow","type":"bytes32","internalType":"bytes32"}],"outputs":[],"stateMutability":"nonpayable"},{"type":"event","name":"ConfirmationMade","inputs":[{"name":"fulfillment","type":"bytes32","indexed":true,"internalType":"bytes32"},{"name":"escrow","type":"bytes32","indexed":true,"internalType":"bytes32"}],"anonymous":false},{"type":"event","name":"ConfirmationRequested","inputs":[{"name":"fulfillment","type":"bytes32","indexed":true,"internalType":"bytes32"},{"name":"confirmer","type":"address","indexed":true,"internalType":"address"},{"name":"escrow","type":"bytes32","indexed":true,"internalType":"bytes32"}],"anonymous":false},{"type":"error","name":"EscrowAlreadyConfirmed","inputs":[]},{"type":"error","name":"UnauthorizedConfirmation","inputs":[]},{"type":"error","name":"UnauthorizedConfirmationRequest","inputs":[]}],"bytecode":{"object":"0x60a034607457601f6107a838819003918201601f19168301916001600160401b03831184841017607857808492602094604052833981010312607457516001600160a01b038116810360745760805260405161071b908161008d82396080518181816101e10152818161026b01526103950152f35b5f80fd5b634e487b7160e01b5f52604160045260245ffdfe6080806040526004361015610012575f80fd5b5f3560e01c90816352155df7146103735750806357f784ba1461023f5780637556cad5146102105780638150864d146101cc578063887d686d146101995763e6c9714d1461005e575f80fd5b346101955760603660031901126101955760043567ffffffffffffffff8111610195576101406003198236030112610195576040519061009d826104c3565b80600401358252602481013560208301526100ba60448201610516565b60408301526100cb60648201610516565b60608301526100dc60848201610516565b608083015260a481013560a08301526100f760c4820161052b565b60c083015261010860e4820161052b565b60e08301526101048101358015158103610195576101008301526101248101359067ffffffffffffffff8211610195576004610147923692010161055b565b61012082015260243567ffffffffffffffff81116101955761016d90369060040161055b565b50515f525f60205260405f206044355f52602052602060ff60405f2054166040519015158152f35b5f80fd5b34610195576101a7366104ad565b905f525f60205260405f20905f52602052602060ff60405f2054166040519015158152f35b34610195575f366003190112610195576040517f00000000000000000000000000000000000000000000000000000000000000006001600160a01b03168152602090f35b34610195576020366003190112610195576004355f526001602052602060ff60405f2054166040519015158152f35b346101955761024d366104ad565b6040516328c44a9960e21b8152600481018290529091905f816024817f00000000000000000000000000000000000000000000000000000000000000006001600160a01b03165afa908115610368575f91610346575b5060c001516001600160a01b0316330361033757815f52600160205260ff60405f20541661032857805f525f60205260405f20825f5260205260405f20600160ff19825416179055815f52600160205260405f20600160ff198254161790557fd22fd165f2b163f7b94d6e2b15443105c17bfae3fa2242150644ab76a95d532e5f80a3005b6336f2b05360e21b5f5260045ffd5b6331eb5cd360e11b5f5260045ffd5b61036291503d805f833e61035a81836104f4565b8101906105ca565b836102a3565b6040513d5f823e3d90fd5b3461019557610381366104ad565b6328c44a9960e21b835260048301829052917f00000000000000000000000000000000000000000000000000000000000000006001600160a01b0316905f81602481855afa908115610368575f91610493575b5060e08101516001600160a01b0316331415908161047b575b5061046c575f602491604051928380926328c44a9960e21b82528760048301525afa908115610368575f91610452575b5060c001516001600160a01b0316907f93ece828de650a0159786850192cbcd721ab720e1ee81b00365a5c8d63886b315f80a4005b61046691503d805f833e61035a81836104f4565b8361041d565b63020a627d60e11b5f5260045ffd5b60c001516001600160a01b03163314159050846103ed565b6104a791503d805f833e61035a81836104f4565b846103d4565b6040906003190112610195576004359060243590565b610140810190811067ffffffffffffffff8211176104e057604052565b634e487b7160e01b5f52604160045260245ffd5b90601f8019910116810190811067ffffffffffffffff8211176104e057604052565b359067ffffffffffffffff8216820361019557565b35906001600160a01b038216820361019557565b67ffffffffffffffff81116104e057601f01601f191660200190565b81601f82011215610195578035906105728261053f565b9261058060405194856104f4565b8284526020838301011161019557815f926020809301838601378301015290565b519067ffffffffffffffff8216820361019557565b51906001600160a01b038216820361019557565b6020818303126101955780519067ffffffffffffffff8211610195570190610140828203126101955760405191610600836104c3565b805183526020810151602084015261061a604082016105a1565b604084015261062b606082016105a1565b606084015261063c608082016105a1565b608084015260a081015160a084015261065760c082016105b6565b60c084015261066860e082016105b6565b60e08401526101008101518015158103610195576101008401526101208101519067ffffffffffffffff8211610195570181601f82011215610195578051906106b08261053f565b926106be60405194856104f4565b8284526020838301011161019557815f9260208093018386015e830101526101208201529056fea2646970667358221220bd3680b8736cfcab776c7c6bf1d117eb3cde667e20800c0bafa1151635c3820064736f6c634300081b0033","linkReferences":{}},"methodIdentifiers":{"checkObligation((bytes32,bytes32,uint64,uint64,uint64,bytes32,address,address,bool,bytes),bytes,bytes32)":"e6c9714d","confirm(bytes32,bytes32)":"57f784ba","confirmations(bytes32,bytes32)":"887d686d","eas()":"8150864d","escrowConfirmed(bytes32)":"7556cad5","requestConfirmation(bytes32,bytes32)":"52155df7"},"id":96}