{
  "abi": [
    {
      "type": "constructor",
      "inputs": [
        {
          "name": "_eas",
          "type": "address",
          "internalType": "contract IEAS"
        }
      ],
      "stateMutability": "nonpayable"
    },
    {
      "type": "function",
      "name": "check",
      "inputs": [
        {
          "name": "fulfillment",
          "type": "tuple",
          "internalType": "struct Attestation",
          "components": [
            {
              "name": "uid",
              "type": "bytes32",
              "internalType": "bytes32"
            },
            {
              "name": "schema",
              "type": "bytes32",
              "internalType": "bytes32"
            },
            {
              "name": "time",
              "type": "uint64",
              "internalType": "uint64"
            },
            {
              "name": "expirationTime",
              "type": "uint64",
              "internalType": "uint64"
            },
            {
              "name": "revocationTime",
              "type": "uint64",
              "internalType": "uint64"
            },
            {
              "name": "refUID",
              "type": "bytes32",
              "internalType": "bytes32"
            },
            {
              "name": "recipient",
              "type": "address",
              "internalType": "address"
            },
            {
              "name": "attester",
              "type": "address",
              "internalType": "address"
            },
            {
              "name": "revocable",
              "type": "bool",
              "internalType": "bool"
            },
            {
              "name": "data",
              "type": "bytes",
              "internalType": "bytes"
            }
          ]
        },
        {
          "name": "",
          "type": "bytes",
          "internalType": "bytes"
        },
        {
          "name": "escrowUid",
          "type": "bytes32",
          "internalType": "bytes32"
        }
      ],
      "outputs": [
        {
          "name": "",
          "type": "bool",
          "internalType": "bool"
        }
      ],
      "stateMutability": "view"
    },
    {
      "type": "function",
      "name": "confirm",
      "inputs": [
        {
          "name": "_fulfillment",
          "type": "bytes32",
          "internalType": "bytes32"
        },
        {
          "name": "_escrow",
          "type": "bytes32",
          "internalType": "bytes32"
        }
      ],
      "outputs": [],
      "stateMutability": "nonpayable"
    },
    {
      "type": "function",
      "name": "confirmations",
      "inputs": [
        {
          "name": "",
          "type": "bytes32",
          "internalType": "bytes32"
        },
        {
          "name": "",
          "type": "bytes32",
          "internalType": "bytes32"
        }
      ],
      "outputs": [
        {
          "name": "",
          "type": "bool",
          "internalType": "bool"
        }
      ],
      "stateMutability": "view"
    },
    {
      "type": "function",
      "name": "eas",
      "inputs": [],
      "outputs": [
        {
          "name": "",
          "type": "address",
          "internalType": "contract IEAS"
        }
      ],
      "stateMutability": "view"
    },
    {
      "type": "function",
      "name": "requestConfirmation",
      "inputs": [
        {
          "name": "_fulfillment",
          "type": "bytes32",
          "internalType": "bytes32"
        },
        {
          "name": "_escrow",
          "type": "bytes32",
          "internalType": "bytes32"
        }
      ],
      "outputs": [],
      "stateMutability": "nonpayable"
    },
    {
      "type": "event",
      "name": "ConfirmationMade",
      "inputs": [
        {
          "name": "fulfillment",
          "type": "bytes32",
          "indexed": true,
          "internalType": "bytes32"
        },
        {
          "name": "escrow",
          "type": "bytes32",
          "indexed": true,
          "internalType": "bytes32"
        }
      ],
      "anonymous": false
    },
    {
      "type": "event",
      "name": "ConfirmationRequested",
      "inputs": [
        {
          "name": "fulfillment",
          "type": "bytes32",
          "indexed": true,
          "internalType": "bytes32"
        },
        {
          "name": "confirmer",
          "type": "address",
          "indexed": true,
          "internalType": "address"
        },
        {
          "name": "escrow",
          "type": "bytes32",
          "indexed": true,
          "internalType": "bytes32"
        }
      ],
      "anonymous": false
    },
    {
      "type": "error",
      "name": "InvalidFulfillment",
      "inputs": []
    },
    {
      "type": "error",
      "name": "UnauthorizedConfirmation",
      "inputs": []
    },
    {
      "type": "error",
      "name": "UnauthorizedConfirmationRequest",
      "inputs": []
    }
  ],
  "bytecode": {
    "object": "0x60a034607457601f6107ae38819003918201601f19168301916001600160401b03831184841017607857808492602094604052833981010312607457516001600160a01b0381168103607457608052604051610721908161008d82396080518181816101d60152818161022c015261039b0152f35b5f80fd5b634e487b7160e01b5f52604160045260245ffdfe6080806040526004361015610012575f80fd5b5f3560e01c90816352155df7146103795750806357f784ba146102055780638150864d146101c1578063887d686d1461018e57638da3721a14610053575f80fd5b3461018a57606036600319011261018a5760043567ffffffffffffffff811161018a57610140600319823603011261018a5760405190610092826104c9565b80600401358252602481013560208301526100af6044820161051c565b60408301526100c06064820161051c565b60608301526100d16084820161051c565b608083015260a481013560a08301526100ec60c48201610531565b60c08301526100fd60e48201610531565b60e0830152610104810135801515810361018a576101008301526101248101359067ffffffffffffffff821161018a57600461013c9236920101610561565b61012082015260243567ffffffffffffffff811161018a57610162903690600401610561565b50515f525f60205260405f206044355f52602052602060ff60405f2054166040519015158152f35b5f80fd5b3461018a5761019c366104b3565b905f525f60205260405f20905f52602052602060ff60405f2054166040519015158152f35b3461018a575f36600319011261018a576040517f00000000000000000000000000000000000000000000000000000000000000006001600160a01b03168152602090f35b3461018a57610213366104b3565b6040516328c44a9960e21b8152600481018290529091907f00000000000000000000000000000000000000000000000000000000000000006001600160a01b03165f82602481845afa908115610350576024925f9261035b575b505f90604051938480926328c44a9960e21b82528760048301525afa918215610350575f9261032c575b5060c001516001600160a01b0316330361031d5751818115918215610312575b505061030357805f525f60205260405f20825f5260205260405f20600160ff198254161790557fd22fd165f2b163f7b94d6e2b15443105c17bfae3fa2242150644ab76a95d532e5f80a3005b630ebe58ef60e11b5f5260045ffd5b1415905081846102b7565b6331eb5cd360e11b5f5260045ffd5b6103499192503d805f833e61034181836104fa565b8101906105d0565b9084610297565b6040513d5f823e3d90fd5b5f919250610372903d8084833e61034181836104fa565b919061026d565b3461018a57610387366104b3565b6328c44a9960e21b835260048301829052917f00000000000000000000000000000000000000000000000000000000000000006001600160a01b0316905f81602481855afa908115610350575f91610499575b5060e08101516001600160a01b03163314159081610481575b50610472575f602491604051928380926328c44a9960e21b82528760048301525afa908115610350575f91610458575b5060c001516001600160a01b0316907f93ece828de650a0159786850192cbcd721ab720e1ee81b00365a5c8d63886b315f80a4005b61046c91503d805f833e61034181836104fa565b83610423565b63020a627d60e11b5f5260045ffd5b60c001516001600160a01b03163314159050846103f3565b6104ad91503d805f833e61034181836104fa565b846103da565b604090600319011261018a576004359060243590565b610140810190811067ffffffffffffffff8211176104e657604052565b634e487b7160e01b5f52604160045260245ffd5b90601f8019910116810190811067ffffffffffffffff8211176104e657604052565b359067ffffffffffffffff8216820361018a57565b35906001600160a01b038216820361018a57565b67ffffffffffffffff81116104e657601f01601f191660200190565b81601f8201121561018a5780359061057882610545565b9261058660405194856104fa565b8284526020838301011161018a57815f926020809301838601378301015290565b519067ffffffffffffffff8216820361018a57565b51906001600160a01b038216820361018a57565b60208183031261018a5780519067ffffffffffffffff821161018a5701906101408282031261018a5760405191610606836104c9565b8051835260208101516020840152610620604082016105a7565b6040840152610631606082016105a7565b6060840152610642608082016105a7565b608084015260a081015160a084015261065d60c082016105bc565b60c084015261066e60e082016105bc565b60e0840152610100810151801515810361018a576101008401526101208101519067ffffffffffffffff821161018a570181601f8201121561018a578051906106b682610545565b926106c460405194856104fa565b8284526020838301011161018a57815f9260208093018386015e830101526101208201529056fea2646970667358221220dd1dd47bc41a4f507dffedeb57b180b92a9c48216217f422b8f077e4f4cbbe3f64736f6c634300081b0033",
    "linkReferences": {}
  },
  "methodIdentifiers": {
    "check((bytes32,bytes32,uint64,uint64,uint64,bytes32,address,address,bool,bytes),bytes,bytes32)": "8da3721a",
    "confirm(bytes32,bytes32)": "57f784ba",
    "confirmations(bytes32,bytes32)": "887d686d",
    "eas()": "8150864d",
    "requestConfirmation(bytes32,bytes32)": "52155df7"
  },
  "id": 108
}