{
  "abi": [
    {
      "type": "constructor",
      "inputs": [
        {
          "name": "_eas",
          "type": "address",
          "internalType": "contract IEAS"
        },
        {
          "name": "_escrowObligation",
          "type": "address",
          "internalType": "contract NativeTokenEscrowObligation"
        }
      ],
      "stateMutability": "nonpayable"
    },
    {
      "type": "receive",
      "stateMutability": "payable"
    },
    {
      "type": "function",
      "name": "EXECUTOR_SENTINEL",
      "inputs": [],
      "outputs": [
        {
          "name": "",
          "type": "address",
          "internalType": "address"
        }
      ],
      "stateMutability": "view"
    },
    {
      "type": "function",
      "name": "MAX_SPLITS",
      "inputs": [],
      "outputs": [
        {
          "name": "",
          "type": "uint256",
          "internalType": "uint256"
        }
      ],
      "stateMutability": "view"
    },
    {
      "type": "function",
      "name": "activeSettlement",
      "inputs": [],
      "outputs": [
        {
          "name": "",
          "type": "bytes32",
          "internalType": "bytes32"
        }
      ],
      "stateMutability": "view"
    },
    {
      "type": "function",
      "name": "arbitrate",
      "inputs": [
        {
          "name": "intentHash",
          "type": "bytes32",
          "internalType": "bytes32"
        },
        {
          "name": "escrow",
          "type": "bytes32",
          "internalType": "bytes32"
        },
        {
          "name": "splits",
          "type": "tuple[]",
          "internalType": "struct CommitmentNativeTokenSplitter.Split[]",
          "components": [
            {
              "name": "recipient",
              "type": "address",
              "internalType": "address"
            },
            {
              "name": "amount",
              "type": "uint256",
              "internalType": "uint256"
            }
          ]
        }
      ],
      "outputs": [],
      "stateMutability": "nonpayable"
    },
    {
      "type": "function",
      "name": "attestationIntentHash",
      "inputs": [
        {
          "name": "attestation",
          "type": "tuple",
          "internalType": "struct Attestation",
          "components": [
            {
              "name": "uid",
              "type": "bytes32",
              "internalType": "bytes32"
            },
            {
              "name": "schema",
              "type": "bytes32",
              "internalType": "bytes32"
            },
            {
              "name": "time",
              "type": "uint64",
              "internalType": "uint64"
            },
            {
              "name": "expirationTime",
              "type": "uint64",
              "internalType": "uint64"
            },
            {
              "name": "revocationTime",
              "type": "uint64",
              "internalType": "uint64"
            },
            {
              "name": "refUID",
              "type": "bytes32",
              "internalType": "bytes32"
            },
            {
              "name": "recipient",
              "type": "address",
              "internalType": "address"
            },
            {
              "name": "attester",
              "type": "address",
              "internalType": "address"
            },
            {
              "name": "revocable",
              "type": "bool",
              "internalType": "bool"
            },
            {
              "name": "data",
              "type": "bytes",
              "internalType": "bytes"
            }
          ]
        }
      ],
      "outputs": [
        {
          "name": "",
          "type": "bytes32",
          "internalType": "bytes32"
        }
      ],
      "stateMutability": "pure"
    },
    {
      "type": "function",
      "name": "attestationIntentHash",
      "inputs": [
        {
          "name": "schema",
          "type": "bytes32",
          "internalType": "bytes32"
        },
        {
          "name": "attester",
          "type": "address",
          "internalType": "address"
        },
        {
          "name": "recipient",
          "type": "address",
          "internalType": "address"
        },
        {
          "name": "expirationTime",
          "type": "uint64",
          "internalType": "uint64"
        },
        {
          "name": "revocable",
          "type": "bool",
          "internalType": "bool"
        },
        {
          "name": "refUID",
          "type": "bytes32",
          "internalType": "bytes32"
        },
        {
          "name": "dataHash",
          "type": "bytes32",
          "internalType": "bytes32"
        }
      ],
      "outputs": [
        {
          "name": "",
          "type": "bytes32",
          "internalType": "bytes32"
        }
      ],
      "stateMutability": "pure"
    },
    {
      "type": "function",
      "name": "attestationIntentHash",
      "inputs": [
        {
          "name": "schema",
          "type": "bytes32",
          "internalType": "bytes32"
        },
        {
          "name": "attester",
          "type": "address",
          "internalType": "address"
        },
        {
          "name": "recipient",
          "type": "address",
          "internalType": "address"
        },
        {
          "name": "expirationTime",
          "type": "uint64",
          "internalType": "uint64"
        },
        {
          "name": "revocable",
          "type": "bool",
          "internalType": "bool"
        },
        {
          "name": "refUID",
          "type": "bytes32",
          "internalType": "bytes32"
        },
        {
          "name": "data",
          "type": "bytes",
          "internalType": "bytes"
        }
      ],
      "outputs": [
        {
          "name": "",
          "type": "bytes32",
          "internalType": "bytes32"
        }
      ],
      "stateMutability": "pure"
    },
    {
      "type": "function",
      "name": "check",
      "inputs": [
        {
          "name": "fulfillment",
          "type": "tuple",
          "internalType": "struct Attestation",
          "components": [
            {
              "name": "uid",
              "type": "bytes32",
              "internalType": "bytes32"
            },
            {
              "name": "schema",
              "type": "bytes32",
              "internalType": "bytes32"
            },
            {
              "name": "time",
              "type": "uint64",
              "internalType": "uint64"
            },
            {
              "name": "expirationTime",
              "type": "uint64",
              "internalType": "uint64"
            },
            {
              "name": "revocationTime",
              "type": "uint64",
              "internalType": "uint64"
            },
            {
              "name": "refUID",
              "type": "bytes32",
              "internalType": "bytes32"
            },
            {
              "name": "recipient",
              "type": "address",
              "internalType": "address"
            },
            {
              "name": "attester",
              "type": "address",
              "internalType": "address"
            },
            {
              "name": "revocable",
              "type": "bool",
              "internalType": "bool"
            },
            {
              "name": "data",
              "type": "bytes",
              "internalType": "bytes"
            }
          ]
        },
        {
          "name": "demand",
          "type": "bytes",
          "internalType": "bytes"
        },
        {
          "name": "escrow",
          "type": "bytes32",
          "internalType": "bytes32"
        }
      ],
      "outputs": [
        {
          "name": "",
          "type": "bool",
          "internalType": "bool"
        }
      ],
      "stateMutability": "view"
    },
    {
      "type": "function",
      "name": "collectAndDistribute",
      "inputs": [
        {
          "name": "escrow",
          "type": "bytes32",
          "internalType": "bytes32"
        },
        {
          "name": "fulfillment",
          "type": "bytes32",
          "internalType": "bytes32"
        }
      ],
      "outputs": [],
      "stateMutability": "nonpayable"
    },
    {
      "type": "function",
      "name": "createFulfillment",
      "inputs": [
        {
          "name": "obligationContract",
          "type": "address",
          "internalType": "address"
        },
        {
          "name": "data",
          "type": "bytes",
          "internalType": "bytes"
        },
        {
          "name": "expirationTime",
          "type": "uint64",
          "internalType": "uint64"
        },
        {
          "name": "refUID",
          "type": "bytes32",
          "internalType": "bytes32"
        }
      ],
      "outputs": [
        {
          "name": "fulfillmentUid",
          "type": "bytes32",
          "internalType": "bytes32"
        }
      ],
      "stateMutability": "payable"
    },
    {
      "type": "function",
      "name": "createFulfillmentAndCollectAndDistribute",
      "inputs": [
        {
          "name": "escrow",
          "type": "bytes32",
          "internalType": "bytes32"
        },
        {
          "name": "obligationContract",
          "type": "address",
          "internalType": "address"
        },
        {
          "name": "data",
          "type": "bytes",
          "internalType": "bytes"
        },
        {
          "name": "expirationTime",
          "type": "uint64",
          "internalType": "uint64"
        },
        {
          "name": "refUID",
          "type": "bytes32",
          "internalType": "bytes32"
        }
      ],
      "outputs": [
        {
          "name": "fulfillmentUid",
          "type": "bytes32",
          "internalType": "bytes32"
        }
      ],
      "stateMutability": "payable"
    },
    {
      "type": "function",
      "name": "decodeDemandData",
      "inputs": [
        {
          "name": "data",
          "type": "bytes",
          "internalType": "bytes"
        }
      ],
      "outputs": [
        {
          "name": "",
          "type": "tuple",
          "internalType": "struct CommitmentNativeTokenSplitter.DemandData",
          "components": [
            {
              "name": "oracle",
              "type": "address",
              "internalType": "address"
            },
            {
              "name": "data",
              "type": "bytes",
              "internalType": "bytes"
            }
          ]
        }
      ],
      "stateMutability": "pure"
    },
    {
      "type": "function",
      "name": "eas",
      "inputs": [],
      "outputs": [
        {
          "name": "",
          "type": "address",
          "internalType": "contract IEAS"
        }
      ],
      "stateMutability": "view"
    },
    {
      "type": "function",
      "name": "escrowObligation",
      "inputs": [],
      "outputs": [
        {
          "name": "",
          "type": "address",
          "internalType": "contract IEscrow"
        }
      ],
      "stateMutability": "view"
    },
    {
      "type": "function",
      "name": "fulfillers",
      "inputs": [
        {
          "name": "",
          "type": "bytes32",
          "internalType": "bytes32"
        }
      ],
      "outputs": [
        {
          "name": "",
          "type": "address",
          "internalType": "address"
        }
      ],
      "stateMutability": "view"
    },
    {
      "type": "function",
      "name": "fulfillmentIntentHash",
      "inputs": [
        {
          "name": "schema",
          "type": "bytes32",
          "internalType": "bytes32"
        },
        {
          "name": "attester",
          "type": "address",
          "internalType": "address"
        },
        {
          "name": "recipient",
          "type": "address",
          "internalType": "address"
        },
        {
          "name": "expirationTime",
          "type": "uint64",
          "internalType": "uint64"
        },
        {
          "name": "revocable",
          "type": "bool",
          "internalType": "bool"
        },
        {
          "name": "refUID",
          "type": "bytes32",
          "internalType": "bytes32"
        },
        {
          "name": "data",
          "type": "bytes",
          "internalType": "bytes"
        },
        {
          "name": "fulfiller",
          "type": "address",
          "internalType": "address"
        }
      ],
      "outputs": [
        {
          "name": "",
          "type": "bytes32",
          "internalType": "bytes32"
        }
      ],
      "stateMutability": "pure"
    },
    {
      "type": "function",
      "name": "fulfillmentIntentHash",
      "inputs": [
        {
          "name": "schema",
          "type": "bytes32",
          "internalType": "bytes32"
        },
        {
          "name": "attester",
          "type": "address",
          "internalType": "address"
        },
        {
          "name": "recipient",
          "type": "address",
          "internalType": "address"
        },
        {
          "name": "expirationTime",
          "type": "uint64",
          "internalType": "uint64"
        },
        {
          "name": "revocable",
          "type": "bool",
          "internalType": "bool"
        },
        {
          "name": "refUID",
          "type": "bytes32",
          "internalType": "bytes32"
        },
        {
          "name": "dataHash",
          "type": "bytes32",
          "internalType": "bytes32"
        },
        {
          "name": "fulfiller",
          "type": "address",
          "internalType": "address"
        }
      ],
      "outputs": [
        {
          "name": "",
          "type": "bytes32",
          "internalType": "bytes32"
        }
      ],
      "stateMutability": "pure"
    },
    {
      "type": "function",
      "name": "fulfillmentIntentHash",
      "inputs": [
        {
          "name": "attestation",
          "type": "tuple",
          "internalType": "struct Attestation",
          "components": [
            {
              "name": "uid",
              "type": "bytes32",
              "internalType": "bytes32"
            },
            {
              "name": "schema",
              "type": "bytes32",
              "internalType": "bytes32"
            },
            {
              "name": "time",
              "type": "uint64",
              "internalType": "uint64"
            },
            {
              "name": "expirationTime",
              "type": "uint64",
              "internalType": "uint64"
            },
            {
              "name": "revocationTime",
              "type": "uint64",
              "internalType": "uint64"
            },
            {
              "name": "refUID",
              "type": "bytes32",
              "internalType": "bytes32"
            },
            {
              "name": "recipient",
              "type": "address",
              "internalType": "address"
            },
            {
              "name": "attester",
              "type": "address",
              "internalType": "address"
            },
            {
              "name": "revocable",
              "type": "bool",
              "internalType": "bool"
            },
            {
              "name": "data",
              "type": "bytes",
              "internalType": "bytes"
            }
          ]
        },
        {
          "name": "fulfiller",
          "type": "address",
          "internalType": "address"
        }
      ],
      "outputs": [
        {
          "name": "",
          "type": "bytes32",
          "internalType": "bytes32"
        }
      ],
      "stateMutability": "pure"
    },
    {
      "type": "function",
      "name": "getSplits",
      "inputs": [
        {
          "name": "oracle",
          "type": "address",
          "internalType": "address"
        },
        {
          "name": "intentHash",
          "type": "bytes32",
          "internalType": "bytes32"
        },
        {
          "name": "escrow",
          "type": "bytes32",
          "internalType": "bytes32"
        }
      ],
      "outputs": [
        {
          "name": "",
          "type": "tuple[]",
          "internalType": "struct CommitmentNativeTokenSplitter.Split[]",
          "components": [
            {
              "name": "recipient",
              "type": "address",
              "internalType": "address"
            },
            {
              "name": "amount",
              "type": "uint256",
              "internalType": "uint256"
            }
          ]
        }
      ],
      "stateMutability": "view"
    },
    {
      "type": "function",
      "name": "hasDecision",
      "inputs": [
        {
          "name": "",
          "type": "address",
          "internalType": "address"
        },
        {
          "name": "",
          "type": "bytes32",
          "internalType": "bytes32"
        }
      ],
      "outputs": [
        {
          "name": "",
          "type": "bool",
          "internalType": "bool"
        }
      ],
      "stateMutability": "view"
    },
    {
      "type": "function",
      "name": "requestArbitration",
      "inputs": [
        {
          "name": "intentHash",
          "type": "bytes32",
          "internalType": "bytes32"
        },
        {
          "name": "escrow",
          "type": "bytes32",
          "internalType": "bytes32"
        },
        {
          "name": "oracle",
          "type": "address",
          "internalType": "address"
        },
        {
          "name": "demand",
          "type": "bytes",
          "internalType": "bytes"
        }
      ],
      "outputs": [],
      "stateMutability": "nonpayable"
    },
    {
      "type": "function",
      "name": "supportsInterface",
      "inputs": [
        {
          "name": "interfaceId",
          "type": "bytes4",
          "internalType": "bytes4"
        }
      ],
      "outputs": [
        {
          "name": "",
          "type": "bool",
          "internalType": "bool"
        }
      ],
      "stateMutability": "view"
    },
    {
      "type": "function",
      "name": "unsafePartiallyCollectAndDistribute",
      "inputs": [
        {
          "name": "escrow",
          "type": "bytes32",
          "internalType": "bytes32"
        },
        {
          "name": "fulfillment",
          "type": "bytes32",
          "internalType": "bytes32"
        }
      ],
      "outputs": [],
      "stateMutability": "nonpayable"
    },
    {
      "type": "event",
      "name": "ArbitrationMade",
      "inputs": [
        {
          "name": "decisionKey",
          "type": "bytes32",
          "indexed": true,
          "internalType": "bytes32"
        },
        {
          "name": "intentHash",
          "type": "bytes32",
          "indexed": true,
          "internalType": "bytes32"
        },
        {
          "name": "oracle",
          "type": "address",
          "indexed": true,
          "internalType": "address"
        },
        {
          "name": "splits",
          "type": "tuple[]",
          "indexed": false,
          "internalType": "struct CommitmentNativeTokenSplitter.Split[]",
          "components": [
            {
              "name": "recipient",
              "type": "address",
              "internalType": "address"
            },
            {
              "name": "amount",
              "type": "uint256",
              "internalType": "uint256"
            }
          ]
        }
      ],
      "anonymous": false
    },
    {
      "type": "event",
      "name": "ArbitrationRequested",
      "inputs": [
        {
          "name": "fulfillment",
          "type": "bytes32",
          "indexed": true,
          "internalType": "bytes32"
        },
        {
          "name": "escrow",
          "type": "bytes32",
          "indexed": true,
          "internalType": "bytes32"
        },
        {
          "name": "oracle",
          "type": "address",
          "indexed": true,
          "internalType": "address"
        },
        {
          "name": "demand",
          "type": "bytes",
          "indexed": false,
          "internalType": "bytes"
        }
      ],
      "anonymous": false
    },
    {
      "type": "event",
      "name": "CommitmentArbitrationRequested",
      "inputs": [
        {
          "name": "intentHash",
          "type": "bytes32",
          "indexed": true,
          "internalType": "bytes32"
        },
        {
          "name": "escrow",
          "type": "bytes32",
          "indexed": true,
          "internalType": "bytes32"
        },
        {
          "name": "oracle",
          "type": "address",
          "indexed": true,
          "internalType": "address"
        },
        {
          "name": "demand",
          "type": "bytes",
          "indexed": false,
          "internalType": "bytes"
        }
      ],
      "anonymous": false
    },
    {
      "type": "event",
      "name": "EscrowCollectedAndDistributed",
      "inputs": [
        {
          "name": "escrowUid",
          "type": "bytes32",
          "indexed": true,
          "internalType": "bytes32"
        },
        {
          "name": "fulfillmentUid",
          "type": "bytes32",
          "indexed": true,
          "internalType": "bytes32"
        },
        {
          "name": "fulfiller",
          "type": "address",
          "indexed": true,
          "internalType": "address"
        },
        {
          "name": "splits",
          "type": "tuple[]",
          "indexed": false,
          "internalType": "struct CommitmentNativeTokenSplitter.Split[]",
          "components": [
            {
              "name": "recipient",
              "type": "address",
              "internalType": "address"
            },
            {
              "name": "amount",
              "type": "uint256",
              "internalType": "uint256"
            }
          ]
        }
      ],
      "anonymous": false
    },
    {
      "type": "event",
      "name": "FulfillmentCreated",
      "inputs": [
        {
          "name": "fulfillmentUid",
          "type": "bytes32",
          "indexed": true,
          "internalType": "bytes32"
        },
        {
          "name": "fulfiller",
          "type": "address",
          "indexed": true,
          "internalType": "address"
        },
        {
          "name": "obligationContract",
          "type": "address",
          "indexed": true,
          "internalType": "address"
        }
      ],
      "anonymous": false
    },
    {
      "type": "event",
      "name": "NativeTransferFailedOnDistribute",
      "inputs": [
        {
          "name": "recipient",
          "type": "address",
          "indexed": true,
          "internalType": "address"
        },
        {
          "name": "amount",
          "type": "uint256",
          "indexed": false,
          "internalType": "uint256"
        }
      ],
      "anonymous": false
    },
    {
      "type": "error",
      "name": "AttestationRevoked",
      "inputs": []
    },
    {
      "type": "error",
      "name": "DeadlineExpired",
      "inputs": []
    },
    {
      "type": "error",
      "name": "EmptySplits",
      "inputs": []
    },
    {
      "type": "error",
      "name": "FulfillerAlreadyRecorded",
      "inputs": [
        {
          "name": "fulfillment",
          "type": "bytes32",
          "internalType": "bytes32"
        }
      ]
    },
    {
      "type": "error",
      "name": "InvalidAttestationUid",
      "inputs": []
    },
    {
      "type": "error",
      "name": "InvalidCollectedAmount",
      "inputs": [
        {
          "name": "expected",
          "type": "uint256",
          "internalType": "uint256"
        },
        {
          "name": "actual",
          "type": "uint256",
          "internalType": "uint256"
        }
      ]
    },
    {
      "type": "error",
      "name": "InvalidCreatedFulfillment",
      "inputs": [
        {
          "name": "fulfillment",
          "type": "bytes32",
          "internalType": "bytes32"
        }
      ]
    },
    {
      "type": "error",
      "name": "InvalidEscrowAttestation",
      "inputs": []
    },
    {
      "type": "error",
      "name": "InvalidFulfillmentRecipient",
      "inputs": []
    },
    {
      "type": "error",
      "name": "InvalidFulfillmentUid",
      "inputs": []
    },
    {
      "type": "error",
      "name": "InvalidSplits",
      "inputs": [
        {
          "name": "totalExpected",
          "type": "uint256",
          "internalType": "uint256"
        },
        {
          "name": "totalProvided",
          "type": "uint256",
          "internalType": "uint256"
        }
      ]
    },
    {
      "type": "error",
      "name": "NativeTokenTransferFailed",
      "inputs": [
        {
          "name": "to",
          "type": "address",
          "internalType": "address"
        },
        {
          "name": "amount",
          "type": "uint256",
          "internalType": "uint256"
        }
      ]
    },
    {
      "type": "error",
      "name": "NoFulfillerRecorded",
      "inputs": [
        {
          "name": "fulfillment",
          "type": "bytes32",
          "internalType": "bytes32"
        }
      ]
    },
    {
      "type": "error",
      "name": "ReentrancyGuardReentrantCall",
      "inputs": []
    },
    {
      "type": "error",
      "name": "TooManySplits",
      "inputs": [
        {
          "name": "provided",
          "type": "uint256",
          "internalType": "uint256"
        },
        {
          "name": "max",
          "type": "uint256",
          "internalType": "uint256"
        }
      ]
    },
    {
      "type": "error",
      "name": "UnauthorizedArbitrationRequest",
      "inputs": []
    },
    {
      "type": "error",
      "name": "UnauthorizedPartialSettlement",
      "inputs": [
        {
          "name": "fulfillment",
          "type": "bytes32",
          "internalType": "bytes32"
        },
        {
          "name": "caller",
          "type": "address",
          "internalType": "address"
        }
      ]
    }
  ],
  "bytecode": {
    "object": "0x60a0346100c257601f611e6338819003918201601f19168301916001600160401b038311848410176100c65780849260409485528339810103126100c25780516001600160a01b03811691908290036100c257602001516001600160a01b03811691908290036100c25760017f9b779b17422d0df92223018b32b4d1fa46e071723d6817e2486d003becc55f00555f80546001600160a01b031916919091179055608052604051611d8890816100db82396080518181816101b601526116d40152f35b5f80fd5b634e487b7160e01b5f52604160045260245ffdfe608080604052600436101561001c575b50361561001a575f80fd5b005b5f3560e01c90816301ffc9a714610f995750806320249e2014610f165780632257c0e314610e5457806333f37e4a14610e0c57806339fcc92b14610def5780633de93b3814610d305780634e2d3b1214610cfe5780635123666d146109d95780636c09ac16146109625780638150864d1461093b578063838a68d91461085f57806386314b0d146107425780638da3721a146106845780638ed98101146105435780639e22e24c146104f2578063a0c16047146104af578063a1a8048814610466578063b48210ca1461044b578063c880c06f1461042f578063cd8c1ef3146103ba578063d1be3507146101e5578063d43a0c93146101a15763ed7180e314610125575f61000f565b608036600319011261019d5761013961106e565b6024356001600160401b03811161019d57610158903690600401611282565b916044356001600160401b038116810361019d576020936101849361017b611650565b60643593611adc565b60015f516020611d335f395f51905f5255604051908152f35b5f80fd5b3461019d575f36600319011261019d576040517f00000000000000000000000000000000000000000000000000000000000000006001600160a01b03168152602090f35b3461019d576101f33661126c565b906101fc611650565b5f8281526003602052604080822054825491516328c44a9960e21b815260048101869052926001600160a01b0391821692909184916024918391165afa9182156103af575f9261038b575b503314159081610373575b5061035c576102618282611688565b5f838152600360205260408120546001600160a01b031693905b8251811015610312576001906001600160a01b036102a787858361029f868a611334565b515116611a3a565b165f80808060206102b8878b611334565b510151855af16102c6611348565b50156102d4575b500161027b565b7f49883307846eabe1e4a9b4d7e3378305c6115c7df65c270a47f9f9cfe3ab69ad6020806103028589611334565b510151604051908152a2866102cd565b5091906103467fc7918d6463b26dbfeb2ac95f43cbdd4fe5d152c0b6551bc1e9922bd1b1ac3287916040519182918261121e565b0390a460015f516020611d335f395f51905f5255005b506345fbd31960e11b5f526004523360245260445ffd5b60e001516001600160a01b0316331415905083610252565b6103a89192503d805f833e6103a08183611023565b8101906113e5565b9084610247565b6040513d5f823e3d90fd5b3461019d5760e036600319011261019d576103d3611084565b6103db61109a565b906103e4611044565b916103ed6110da565b9160c435926001600160401b03841161019d5760209461041461042795369060040161113a565b8681519101209360a435936004356112d3565b604051908152f35b3461019d575f36600319011261019d57602060405161eeee8152f35b3461019d575f36600319011261019d57602060405160328152f35b3461019d57604036600319011261019d576001600160a01b0361048761106e565b165f52600160205260405f206024355f52602052602060ff60405f2054166040519015158152f35b3461019d57604036600319011261019d576004356001600160401b03811161019d576104276104e46020923690600401611158565b6104ec611084565b906115db565b3461019d5761010036600319011261019d576020610427610511611084565b61051961109a565b610521611044565b9161052a6110da565b6105326110b0565b9360c4359360a435936004356115a4565b60a036600319011261019d5760043561055a611084565b604435906001600160401b03821161019d5761057d610597923690600401611282565b610585611044565b9161058e611650565b60843593611adc565b906105a28282611688565b5f838152600360205260408120549193916001600160a01b0316905b8451811015610632576001600160a01b036105df83858361029f868b611334565b165f80808060206105f0878c611334565b510151855af16105fe611348565b501561060d57506001016105be565b60206106198388611334565b510151906338f0620160e21b5f5260045260245260445ffd5b50816020937fc7918d6463b26dbfeb2ac95f43cbdd4fe5d152c0b6551bc1e9922bd1b1ac3287610668876040519182918261121e565b0390a460015f516020611d335f395f51905f5255604051908152f35b3461019d57606036600319011261019d576004356001600160401b03811161019d576106b4903690600401611158565b6024356001600160401b03811161019d576106f16106d96106fb92369060040161113a565b6106e284611a8b565b60208082518301019101611541565b9160443590611aaf565b9081600254149081610715575b6020826040519015158152f35b905060018060a01b039051165f52600160205260405f20905f52602052602060ff60405f20541682610708565b3461019d57608036600319011261019d5760243561075e61109a565b906064356001600160401b03811161019d5761077e90369060040161113a565b5f80546040516328c44a9960e21b8152600481018590529190829060249082906001600160a01b03165afa9081156103af575f91610845575b5060e08101516001600160a01b0316331415908161082d575b5061081e577f108df26ad37e907e17227d7de58b0e241bfb128eae0ecea60f6bdb6082b2b146604051936020855260018060a01b031693806108196004359460208301906112af565b0390a4005b63ff323ecb60e01b5f5260045ffd5b60c001516001600160a01b03163314159050846107d0565b61085991503d805f833e6103a08183611023565b846107b7565b3461019d57602036600319011261019d576004356001600160401b03811161019d5761088f903690600401611282565b6060602060405161089f81610fec565b5f8152015281019060208183031261019d578035906001600160401b03821161019d570160408183031261019d57604051916108da83610fec565b6108e3826110c6565b835260208201356001600160401b03811161019d57610902920161113a565b90602081019182526109376040519283926020845260018060a01b0390511660208401525160408084015260608301906112af565b0390f35b3461019d575f36600319011261019d575f546040516001600160a01b039091168152602090f35b3461019d5761010036600319011261019d5761097c611084565b61098461109a565b9061098d611044565b6109956110da565b9260c435926001600160401b03841161019d576020946109bc61042795369060040161113a565b936109c56110b0565b948781519101209360a435936004356115a4565b3461019d57606036600319011261019d576044356004356024356001600160401b03831161019d573660238401121561019d578260040135906001600160401b03821161019d576024840193602436918460061b01011161019d575f80546040516328c44a9960e21b8152600481018490529190829060249082906001600160a01b03165afa80156103af57610120610a88916040935f91610ce4575b500151602080825183010191016114c2565b01518215610cd55760328311610cbd575f905f5b848110610c9b5750808203610c86575050610ab79083611630565b90335f52600460205260405f20825f5260205260405f208054905f815581610c3b575b50505f5b818110610b815750335f52600160205260405f20825f5260205260405f20600160ff1982541617905560405190806020830160208452526040820194905f5b818110610b5157505050807fcb69e0d2c25bc3247c37f1a1b54a09e56f58301351ae8eeb49fb9750045ba7409133950390a4005b909195604080600192838060a01b03610b698b6110c6565b16815260208a81013590820152019701929101610b1d565b335f52600460205260405f20835f5260205260405f2090610ba3818488611a7b565b9180549068010000000000000000821015610c275760018201808255821015610c13575f5260205f209060011b0182359260018060a01b038416840361019d5781546001600160a01b0319166001600160a01b039094169390931781556020929092013560019283015501610ade565b634e487b7160e01b5f52603260045260245ffd5b634e487b7160e01b5f52604160045260245ffd5b6001600160ff1b0382168203610c72575f5260205f209060011b8101905b81811015610ada575f8082556001820155600201610c59565b634e487b7160e01b5f52601160045260245ffd5b63ba660bff60e01b5f5260045260245260445ffd5b916020610ca984878a611a7b565b01358101809111610c725791600101610a9c565b8263b268613560e01b5f52600452603260245260445ffd5b63143160cf60e01b5f5260045ffd5b610cf891503d805f833e6103a08183611023565b88610a76565b3461019d57602036600319011261019d576004355f526003602052602060018060a01b0360405f205416604051908152f35b3461019d57610d3e3661126c565b90610d47611650565b610d518282611688565b5f838152600360205260408120549193916001600160a01b0316905b8451811015610dbc576001600160a01b03610d8e83858361029f868b611334565b165f8080806020610d9f878c611334565b510151855af1610dad611348565b501561060d5750600101610d6d565b50917fc7918d6463b26dbfeb2ac95f43cbdd4fe5d152c0b6551bc1e9922bd1b1ac3287610346856040519182918261121e565b3461019d575f36600319011261019d576020600254604051908152f35b3461019d5760e036600319011261019d576020610427610e2a611084565b610e3261109a565b90610e3b611044565b610e436110da565b9060c4359360a435936004356112d3565b3461019d57606036600319011261019d576001600160a01b03610e7561106e565b165f52600460205260405f20610e8f604435602435611630565b5f5260205260405f2080546001600160401b038111610c275760405191610ebc60208360051b0184611023565b81835260208301905f5260205f205f915b838310610ee25760405180610937878261121e565b60026020600192604051610ef581610fec565b848060a01b0386541681528486015483820152815201920192019190610ecd565b3461019d57602036600319011261019d576004356001600160401b03811161019d57610427610f4b6020923690600401611158565b828101519060018060a01b0360e08201511660018060a01b0360c0830151166001600160401b036060840151169061010084015115159261012060a0860151950151888151910120956112d3565b3461019d57602036600319011261019d576004359063ffffffff60e01b821680920361019d576020916346d1b90d60e11b8114908115610fdb575b5015158152f35b6301ffc9a760e01b14905083610fd4565b604081019081106001600160401b03821117610c2757604052565b61014081019081106001600160401b03821117610c2757604052565b90601f801991011681019081106001600160401b03821117610c2757604052565b606435906001600160401b038216820361019d57565b35906001600160401b038216820361019d57565b600435906001600160a01b038216820361019d57565b602435906001600160a01b038216820361019d57565b604435906001600160a01b038216820361019d57565b60e435906001600160a01b038216820361019d57565b35906001600160a01b038216820361019d57565b60843590811515820361019d57565b6001600160401b038111610c2757601f01601f191660200190565b929192611110826110e9565b9161111e6040519384611023565b82948184528183011161019d578281602093845f960137010152565b9080601f8301121561019d5781602061115593359101611104565b90565b91906101408382031261019d576040519061117282611007565b8193803583526020810135602084015261118e6040820161105a565b604084015261119f6060820161105a565b60608401526111b06080820161105a565b608084015260a081013560a08401526111cb60c082016110c6565b60c08401526111dc60e082016110c6565b60e0840152610100810135801515810361019d57610100840152610120810135916001600160401b03831161019d5761012092611219920161113a565b910152565b60206040818301928281528451809452019201905f5b8181106112415750505090565b825180516001600160a01b031685526020908101518186015260409094019390920191600101611234565b604090600319011261019d576004359060243590565b9181601f8401121561019d578235916001600160401b03831161019d576020838186019501011161019d57565b805180835260209291819084018484015e5f828201840152601f01601f1916010190565b959391926001600160401b03919593604051966020880198895260018060a01b0316604088015260018060a01b03166060870152166080850152151560a084015260c083015260e082015260e0815261132e61010082611023565b51902090565b8051821015610c135760209160051b010190565b3d15611372573d90611359826110e9565b916113676040519384611023565b82523d5f602084013e565b606090565b51906001600160401b038216820361019d57565b51906001600160a01b038216820361019d57565b81601f8201121561019d578051906113b6826110e9565b926113c46040519485611023565b8284526020838301011161019d57815f9260208093018386015e8301015290565b60208183031261019d578051906001600160401b03821161019d57016101408183031261019d576040519161141983611007565b815183526020820151602084015261143360408301611377565b604084015261144460608301611377565b606084015261145560808301611377565b608084015260a082015160a084015261147060c0830161138b565b60c084015261148160e0830161138b565b60e0840152610100820151801515810361019d576101008401526101208201516001600160401b03811161019d576114b9920161139f565b61012082015290565b60208183031261019d578051906001600160401b03821161019d57019060608282031261019d5760405191606083018381106001600160401b03821117610c275760405261150f8161138b565b835260208101516001600160401b03811161019d5760409261153291830161139f565b60208401520151604082015290565b60208183031261019d578051906001600160401b03821161019d570160408183031261019d576040519161157483610fec565b61157d8261138b565b835260208201516001600160401b03811161019d5761159c920161139f565b602082015290565b906115b39695949392916112d3565b60408051602081019283526001600160a01b039093168382015282529061132e606082611023565b906111559160208101519060018060a01b0360e08201511660018060a01b0360c0830151166001600160401b036060840151169061010084015115159261012060a086015195015160208151910120956115a4565b90604051906020820192835260408201526040815261132e606082611023565b60025f516020611d335f395f51905f5254146116795760025f516020611d335f395f51905f5255565b633ee5aeb560e01b5f5260045ffd5b5f80546040516328c44a9960e21b815260048101849052939493926001600160a01b039091169183602481855afa9283156103af575f93611a1e575b5060e08301516001600160a01b037f0000000000000000000000000000000000000000000000000000000000000000811692911682148015906119b8575b6119a95783511561199a576001600160401b03606085015116801515908161198f575b50611980576001600160401b03608085015116611971576040516328c44a9960e21b815260048101879052935f85602481875afa9485156103af575f9561194d575b506101206117899161177887611a8b565b0151602080825183010191016114c2565b9360208501516117a960018060a01b039160208082518301019101611541565b51165f5260046020526117c08260405f2092611aaf565b5f5260205260405f2080546001600160401b038111610c2757604051916117ed60208360051b0184611023565b81835260208301905f5260205f205f915b83831061191957505050509560245f4795604051928380926328c44a9960e21b82528660048301525afa9283156103af57611845815f9560449487916118ff575b50611aaf565b600255836040519586948593633a9bb12760e21b8552600485015260248401525af180156103af576118c5575b505f600255604047920151908083106118ae578203918211610c7257808203611899575050565b631a3dba0360e31b5f5260045260245260445ffd5b50631a3dba0360e31b5f526004525f60245260445ffd5b3d805f833e6118d48183611023565b810160208282031261019d5781516001600160401b03811161019d576118fa920161139f565b611872565b61191391503d8089833e6103a08183611023565b5f61183f565b6002602060019260405161192c81610fec565b848060a01b03865416815284860154838201528152019201920191906117fe565b611789919550611969610120913d805f833e6103a08183611023565b959150611767565b637b6227e960e11b5f5260045ffd5b631ab7da6b60e01b5f5260045ffd5b90504210155f611725565b635c2c7f8960e01b5f5260045ffd5b63629cd40b60e11b5f5260045ffd5b50602084810151604051635bf2f20d60e01b81529182600481875afa9182156103af575f926119ea575b501415611702565b9091506020813d602011611a16575b81611a0660209383611023565b8101031261019d5751905f6119e2565b3d91506119f9565b611a339193503d805f833e6103a08183611023565b915f6116c4565b91906001600160a01b03831661eeee14611a5357505090565b9091506001600160a01b03821615611a69575090565b6379c5a2db60e01b5f5260045260245ffd5b9190811015610c135760061b0190565b60c001516001600160a01b03163003611aa057565b634672d00f60e01b5f5260045ffd5b80515f908152600360205260409020546111559291611ad7916001600160a01b0316906115db565b611630565b604051632cee40b560e21b815260606004820152606481018490529495946001600160a01b03909116939092906001600160401b0390828460848701375f608484870101521691826024850152866044850152602084608481601f19601f870116810103018134895af19384156103af575f94611cfe575b5083968415611cef575f80546040516328c44a9960e21b815260048101889052929190839060249082906001600160a01b03165afa9182156103af575f92611cd3575b508582511494851595611cbb575b8515611ca3575b8515611c8b575b508415611c7c575b508315611c51575b505050611c3f575f818152600360205260409020546001600160a01b0316611c2d575f81815260036020526040812080546001600160a01b0319163390811790915591907ff845579b2e96200541b4e2b438fbb65e772b70ac68265030aa16f6d8e16501d99080a4565b63aa8904b160e01b5f5260045260245ffd5b63f9d7a76560e01b5f5260045260245ffd5b611c6b929350610120015160208151910120923691611104565b6020815191012014155f8080611bc3565b60a0820151141593505f611bbb565b60608301516001600160401b0316141594505f611bb3565b60c08301516001600160a01b03163014159550611bac565b60e08301516001600160a01b03168814159550611ba5565b611ce89192503d805f833e6103a08183611023565b905f611b97565b6303acddcd60e41b5f5260045ffd5b9093506020813d602011611d2a575b81611d1a60209383611023565b8101031261019d5751925f611b54565b3d9150611d0d56fe9b779b17422d0df92223018b32b4d1fa46e071723d6817e2486d003becc55f00a26469706673582212200818197cc07da47ff44fe8c5c308f4eda9a2b071b9d37e4ad9d90161f8ee56ad64736f6c634300081b0033",
    "linkReferences": {}
  },
  "methodIdentifiers": {
    "EXECUTOR_SENTINEL()": "c880c06f",
    "MAX_SPLITS()": "b48210ca",
    "activeSettlement()": "39fcc92b",
    "arbitrate(bytes32,bytes32,(address,uint256)[])": "5123666d",
    "attestationIntentHash((bytes32,bytes32,uint64,uint64,uint64,bytes32,address,address,bool,bytes))": "20249e20",
    "attestationIntentHash(bytes32,address,address,uint64,bool,bytes32,bytes)": "cd8c1ef3",
    "attestationIntentHash(bytes32,address,address,uint64,bool,bytes32,bytes32)": "33f37e4a",
    "check((bytes32,bytes32,uint64,uint64,uint64,bytes32,address,address,bool,bytes),bytes,bytes32)": "8da3721a",
    "collectAndDistribute(bytes32,bytes32)": "3de93b38",
    "createFulfillment(address,bytes,uint64,bytes32)": "ed7180e3",
    "createFulfillmentAndCollectAndDistribute(bytes32,address,bytes,uint64,bytes32)": "8ed98101",
    "decodeDemandData(bytes)": "838a68d9",
    "eas()": "8150864d",
    "escrowObligation()": "d43a0c93",
    "fulfillers(bytes32)": "4e2d3b12",
    "fulfillmentIntentHash((bytes32,bytes32,uint64,uint64,uint64,bytes32,address,address,bool,bytes),address)": "a0c16047",
    "fulfillmentIntentHash(bytes32,address,address,uint64,bool,bytes32,bytes,address)": "6c09ac16",
    "fulfillmentIntentHash(bytes32,address,address,uint64,bool,bytes32,bytes32,address)": "9e22e24c",
    "getSplits(address,bytes32,bytes32)": "2257c0e3",
    "hasDecision(address,bytes32)": "a1a80488",
    "requestArbitration(bytes32,bytes32,address,bytes)": "86314b0d",
    "supportsInterface(bytes4)": "01ffc9a7",
    "unsafePartiallyCollectAndDistribute(bytes32,bytes32)": "d1be3507"
  },
  "id": 170
}