{
  "abi": [
    {
      "type": "constructor",
      "inputs": [
        {
          "name": "_eas",
          "type": "address",
          "internalType": "contract IEAS"
        },
        {
          "name": "_escrowObligation",
          "type": "address",
          "internalType": "contract ERC1155EscrowObligation"
        }
      ],
      "stateMutability": "nonpayable"
    },
    {
      "type": "receive",
      "stateMutability": "payable"
    },
    {
      "type": "function",
      "name": "EXECUTOR_SENTINEL",
      "inputs": [],
      "outputs": [
        {
          "name": "",
          "type": "address",
          "internalType": "address"
        }
      ],
      "stateMutability": "view"
    },
    {
      "type": "function",
      "name": "MAX_SPLITS",
      "inputs": [],
      "outputs": [
        {
          "name": "",
          "type": "uint256",
          "internalType": "uint256"
        }
      ],
      "stateMutability": "view"
    },
    {
      "type": "function",
      "name": "activeSettlement",
      "inputs": [],
      "outputs": [
        {
          "name": "",
          "type": "bytes32",
          "internalType": "bytes32"
        }
      ],
      "stateMutability": "view"
    },
    {
      "type": "function",
      "name": "arbitrate",
      "inputs": [
        {
          "name": "intentHash",
          "type": "bytes32",
          "internalType": "bytes32"
        },
        {
          "name": "escrow",
          "type": "bytes32",
          "internalType": "bytes32"
        },
        {
          "name": "splits",
          "type": "tuple[]",
          "internalType": "struct CommitmentERC1155Splitter.Split[]",
          "components": [
            {
              "name": "recipient",
              "type": "address",
              "internalType": "address"
            },
            {
              "name": "amount",
              "type": "uint256",
              "internalType": "uint256"
            }
          ]
        }
      ],
      "outputs": [],
      "stateMutability": "nonpayable"
    },
    {
      "type": "function",
      "name": "attestationIntentHash",
      "inputs": [
        {
          "name": "attestation",
          "type": "tuple",
          "internalType": "struct Attestation",
          "components": [
            {
              "name": "uid",
              "type": "bytes32",
              "internalType": "bytes32"
            },
            {
              "name": "schema",
              "type": "bytes32",
              "internalType": "bytes32"
            },
            {
              "name": "time",
              "type": "uint64",
              "internalType": "uint64"
            },
            {
              "name": "expirationTime",
              "type": "uint64",
              "internalType": "uint64"
            },
            {
              "name": "revocationTime",
              "type": "uint64",
              "internalType": "uint64"
            },
            {
              "name": "refUID",
              "type": "bytes32",
              "internalType": "bytes32"
            },
            {
              "name": "recipient",
              "type": "address",
              "internalType": "address"
            },
            {
              "name": "attester",
              "type": "address",
              "internalType": "address"
            },
            {
              "name": "revocable",
              "type": "bool",
              "internalType": "bool"
            },
            {
              "name": "data",
              "type": "bytes",
              "internalType": "bytes"
            }
          ]
        }
      ],
      "outputs": [
        {
          "name": "",
          "type": "bytes32",
          "internalType": "bytes32"
        }
      ],
      "stateMutability": "pure"
    },
    {
      "type": "function",
      "name": "attestationIntentHash",
      "inputs": [
        {
          "name": "schema",
          "type": "bytes32",
          "internalType": "bytes32"
        },
        {
          "name": "attester",
          "type": "address",
          "internalType": "address"
        },
        {
          "name": "recipient",
          "type": "address",
          "internalType": "address"
        },
        {
          "name": "expirationTime",
          "type": "uint64",
          "internalType": "uint64"
        },
        {
          "name": "revocable",
          "type": "bool",
          "internalType": "bool"
        },
        {
          "name": "refUID",
          "type": "bytes32",
          "internalType": "bytes32"
        },
        {
          "name": "dataHash",
          "type": "bytes32",
          "internalType": "bytes32"
        }
      ],
      "outputs": [
        {
          "name": "",
          "type": "bytes32",
          "internalType": "bytes32"
        }
      ],
      "stateMutability": "pure"
    },
    {
      "type": "function",
      "name": "attestationIntentHash",
      "inputs": [
        {
          "name": "schema",
          "type": "bytes32",
          "internalType": "bytes32"
        },
        {
          "name": "attester",
          "type": "address",
          "internalType": "address"
        },
        {
          "name": "recipient",
          "type": "address",
          "internalType": "address"
        },
        {
          "name": "expirationTime",
          "type": "uint64",
          "internalType": "uint64"
        },
        {
          "name": "revocable",
          "type": "bool",
          "internalType": "bool"
        },
        {
          "name": "refUID",
          "type": "bytes32",
          "internalType": "bytes32"
        },
        {
          "name": "data",
          "type": "bytes",
          "internalType": "bytes"
        }
      ],
      "outputs": [
        {
          "name": "",
          "type": "bytes32",
          "internalType": "bytes32"
        }
      ],
      "stateMutability": "pure"
    },
    {
      "type": "function",
      "name": "check",
      "inputs": [
        {
          "name": "fulfillment",
          "type": "tuple",
          "internalType": "struct Attestation",
          "components": [
            {
              "name": "uid",
              "type": "bytes32",
              "internalType": "bytes32"
            },
            {
              "name": "schema",
              "type": "bytes32",
              "internalType": "bytes32"
            },
            {
              "name": "time",
              "type": "uint64",
              "internalType": "uint64"
            },
            {
              "name": "expirationTime",
              "type": "uint64",
              "internalType": "uint64"
            },
            {
              "name": "revocationTime",
              "type": "uint64",
              "internalType": "uint64"
            },
            {
              "name": "refUID",
              "type": "bytes32",
              "internalType": "bytes32"
            },
            {
              "name": "recipient",
              "type": "address",
              "internalType": "address"
            },
            {
              "name": "attester",
              "type": "address",
              "internalType": "address"
            },
            {
              "name": "revocable",
              "type": "bool",
              "internalType": "bool"
            },
            {
              "name": "data",
              "type": "bytes",
              "internalType": "bytes"
            }
          ]
        },
        {
          "name": "demand",
          "type": "bytes",
          "internalType": "bytes"
        },
        {
          "name": "escrow",
          "type": "bytes32",
          "internalType": "bytes32"
        }
      ],
      "outputs": [
        {
          "name": "",
          "type": "bool",
          "internalType": "bool"
        }
      ],
      "stateMutability": "view"
    },
    {
      "type": "function",
      "name": "collectAndDistribute",
      "inputs": [
        {
          "name": "escrow",
          "type": "bytes32",
          "internalType": "bytes32"
        },
        {
          "name": "fulfillment",
          "type": "bytes32",
          "internalType": "bytes32"
        }
      ],
      "outputs": [],
      "stateMutability": "nonpayable"
    },
    {
      "type": "function",
      "name": "createFulfillment",
      "inputs": [
        {
          "name": "obligationContract",
          "type": "address",
          "internalType": "address"
        },
        {
          "name": "data",
          "type": "bytes",
          "internalType": "bytes"
        },
        {
          "name": "expirationTime",
          "type": "uint64",
          "internalType": "uint64"
        },
        {
          "name": "refUID",
          "type": "bytes32",
          "internalType": "bytes32"
        }
      ],
      "outputs": [
        {
          "name": "fulfillmentUid",
          "type": "bytes32",
          "internalType": "bytes32"
        }
      ],
      "stateMutability": "payable"
    },
    {
      "type": "function",
      "name": "createFulfillmentAndCollectAndDistribute",
      "inputs": [
        {
          "name": "escrow",
          "type": "bytes32",
          "internalType": "bytes32"
        },
        {
          "name": "obligationContract",
          "type": "address",
          "internalType": "address"
        },
        {
          "name": "data",
          "type": "bytes",
          "internalType": "bytes"
        },
        {
          "name": "expirationTime",
          "type": "uint64",
          "internalType": "uint64"
        },
        {
          "name": "refUID",
          "type": "bytes32",
          "internalType": "bytes32"
        }
      ],
      "outputs": [
        {
          "name": "fulfillmentUid",
          "type": "bytes32",
          "internalType": "bytes32"
        }
      ],
      "stateMutability": "payable"
    },
    {
      "type": "function",
      "name": "decodeDemandData",
      "inputs": [
        {
          "name": "data",
          "type": "bytes",
          "internalType": "bytes"
        }
      ],
      "outputs": [
        {
          "name": "",
          "type": "tuple",
          "internalType": "struct CommitmentERC1155Splitter.DemandData",
          "components": [
            {
              "name": "oracle",
              "type": "address",
              "internalType": "address"
            },
            {
              "name": "data",
              "type": "bytes",
              "internalType": "bytes"
            }
          ]
        }
      ],
      "stateMutability": "pure"
    },
    {
      "type": "function",
      "name": "eas",
      "inputs": [],
      "outputs": [
        {
          "name": "",
          "type": "address",
          "internalType": "contract IEAS"
        }
      ],
      "stateMutability": "view"
    },
    {
      "type": "function",
      "name": "escrowObligation",
      "inputs": [],
      "outputs": [
        {
          "name": "",
          "type": "address",
          "internalType": "contract IEscrow"
        }
      ],
      "stateMutability": "view"
    },
    {
      "type": "function",
      "name": "fulfillers",
      "inputs": [
        {
          "name": "",
          "type": "bytes32",
          "internalType": "bytes32"
        }
      ],
      "outputs": [
        {
          "name": "",
          "type": "address",
          "internalType": "address"
        }
      ],
      "stateMutability": "view"
    },
    {
      "type": "function",
      "name": "fulfillmentIntentHash",
      "inputs": [
        {
          "name": "schema",
          "type": "bytes32",
          "internalType": "bytes32"
        },
        {
          "name": "attester",
          "type": "address",
          "internalType": "address"
        },
        {
          "name": "recipient",
          "type": "address",
          "internalType": "address"
        },
        {
          "name": "expirationTime",
          "type": "uint64",
          "internalType": "uint64"
        },
        {
          "name": "revocable",
          "type": "bool",
          "internalType": "bool"
        },
        {
          "name": "refUID",
          "type": "bytes32",
          "internalType": "bytes32"
        },
        {
          "name": "data",
          "type": "bytes",
          "internalType": "bytes"
        },
        {
          "name": "fulfiller",
          "type": "address",
          "internalType": "address"
        }
      ],
      "outputs": [
        {
          "name": "",
          "type": "bytes32",
          "internalType": "bytes32"
        }
      ],
      "stateMutability": "pure"
    },
    {
      "type": "function",
      "name": "fulfillmentIntentHash",
      "inputs": [
        {
          "name": "schema",
          "type": "bytes32",
          "internalType": "bytes32"
        },
        {
          "name": "attester",
          "type": "address",
          "internalType": "address"
        },
        {
          "name": "recipient",
          "type": "address",
          "internalType": "address"
        },
        {
          "name": "expirationTime",
          "type": "uint64",
          "internalType": "uint64"
        },
        {
          "name": "revocable",
          "type": "bool",
          "internalType": "bool"
        },
        {
          "name": "refUID",
          "type": "bytes32",
          "internalType": "bytes32"
        },
        {
          "name": "dataHash",
          "type": "bytes32",
          "internalType": "bytes32"
        },
        {
          "name": "fulfiller",
          "type": "address",
          "internalType": "address"
        }
      ],
      "outputs": [
        {
          "name": "",
          "type": "bytes32",
          "internalType": "bytes32"
        }
      ],
      "stateMutability": "pure"
    },
    {
      "type": "function",
      "name": "fulfillmentIntentHash",
      "inputs": [
        {
          "name": "attestation",
          "type": "tuple",
          "internalType": "struct Attestation",
          "components": [
            {
              "name": "uid",
              "type": "bytes32",
              "internalType": "bytes32"
            },
            {
              "name": "schema",
              "type": "bytes32",
              "internalType": "bytes32"
            },
            {
              "name": "time",
              "type": "uint64",
              "internalType": "uint64"
            },
            {
              "name": "expirationTime",
              "type": "uint64",
              "internalType": "uint64"
            },
            {
              "name": "revocationTime",
              "type": "uint64",
              "internalType": "uint64"
            },
            {
              "name": "refUID",
              "type": "bytes32",
              "internalType": "bytes32"
            },
            {
              "name": "recipient",
              "type": "address",
              "internalType": "address"
            },
            {
              "name": "attester",
              "type": "address",
              "internalType": "address"
            },
            {
              "name": "revocable",
              "type": "bool",
              "internalType": "bool"
            },
            {
              "name": "data",
              "type": "bytes",
              "internalType": "bytes"
            }
          ]
        },
        {
          "name": "fulfiller",
          "type": "address",
          "internalType": "address"
        }
      ],
      "outputs": [
        {
          "name": "",
          "type": "bytes32",
          "internalType": "bytes32"
        }
      ],
      "stateMutability": "pure"
    },
    {
      "type": "function",
      "name": "getSplits",
      "inputs": [
        {
          "name": "oracle",
          "type": "address",
          "internalType": "address"
        },
        {
          "name": "intentHash",
          "type": "bytes32",
          "internalType": "bytes32"
        },
        {
          "name": "escrow",
          "type": "bytes32",
          "internalType": "bytes32"
        }
      ],
      "outputs": [
        {
          "name": "",
          "type": "tuple[]",
          "internalType": "struct CommitmentERC1155Splitter.Split[]",
          "components": [
            {
              "name": "recipient",
              "type": "address",
              "internalType": "address"
            },
            {
              "name": "amount",
              "type": "uint256",
              "internalType": "uint256"
            }
          ]
        }
      ],
      "stateMutability": "view"
    },
    {
      "type": "function",
      "name": "hasDecision",
      "inputs": [
        {
          "name": "",
          "type": "address",
          "internalType": "address"
        },
        {
          "name": "",
          "type": "bytes32",
          "internalType": "bytes32"
        }
      ],
      "outputs": [
        {
          "name": "",
          "type": "bool",
          "internalType": "bool"
        }
      ],
      "stateMutability": "view"
    },
    {
      "type": "function",
      "name": "onERC1155BatchReceived",
      "inputs": [
        {
          "name": "",
          "type": "address",
          "internalType": "address"
        },
        {
          "name": "",
          "type": "address",
          "internalType": "address"
        },
        {
          "name": "",
          "type": "uint256[]",
          "internalType": "uint256[]"
        },
        {
          "name": "",
          "type": "uint256[]",
          "internalType": "uint256[]"
        },
        {
          "name": "",
          "type": "bytes",
          "internalType": "bytes"
        }
      ],
      "outputs": [
        {
          "name": "",
          "type": "bytes4",
          "internalType": "bytes4"
        }
      ],
      "stateMutability": "nonpayable"
    },
    {
      "type": "function",
      "name": "onERC1155Received",
      "inputs": [
        {
          "name": "",
          "type": "address",
          "internalType": "address"
        },
        {
          "name": "",
          "type": "address",
          "internalType": "address"
        },
        {
          "name": "",
          "type": "uint256",
          "internalType": "uint256"
        },
        {
          "name": "",
          "type": "uint256",
          "internalType": "uint256"
        },
        {
          "name": "",
          "type": "bytes",
          "internalType": "bytes"
        }
      ],
      "outputs": [
        {
          "name": "",
          "type": "bytes4",
          "internalType": "bytes4"
        }
      ],
      "stateMutability": "nonpayable"
    },
    {
      "type": "function",
      "name": "requestArbitration",
      "inputs": [
        {
          "name": "intentHash",
          "type": "bytes32",
          "internalType": "bytes32"
        },
        {
          "name": "escrow",
          "type": "bytes32",
          "internalType": "bytes32"
        },
        {
          "name": "oracle",
          "type": "address",
          "internalType": "address"
        },
        {
          "name": "demand",
          "type": "bytes",
          "internalType": "bytes"
        }
      ],
      "outputs": [],
      "stateMutability": "nonpayable"
    },
    {
      "type": "function",
      "name": "supportsInterface",
      "inputs": [
        {
          "name": "interfaceId",
          "type": "bytes4",
          "internalType": "bytes4"
        }
      ],
      "outputs": [
        {
          "name": "",
          "type": "bool",
          "internalType": "bool"
        }
      ],
      "stateMutability": "view"
    },
    {
      "type": "function",
      "name": "unsafePartiallyCollectAndDistribute",
      "inputs": [
        {
          "name": "escrow",
          "type": "bytes32",
          "internalType": "bytes32"
        },
        {
          "name": "fulfillment",
          "type": "bytes32",
          "internalType": "bytes32"
        }
      ],
      "outputs": [],
      "stateMutability": "nonpayable"
    },
    {
      "type": "event",
      "name": "ArbitrationMade",
      "inputs": [
        {
          "name": "decisionKey",
          "type": "bytes32",
          "indexed": true,
          "internalType": "bytes32"
        },
        {
          "name": "intentHash",
          "type": "bytes32",
          "indexed": true,
          "internalType": "bytes32"
        },
        {
          "name": "oracle",
          "type": "address",
          "indexed": true,
          "internalType": "address"
        },
        {
          "name": "splits",
          "type": "tuple[]",
          "indexed": false,
          "internalType": "struct CommitmentERC1155Splitter.Split[]",
          "components": [
            {
              "name": "recipient",
              "type": "address",
              "internalType": "address"
            },
            {
              "name": "amount",
              "type": "uint256",
              "internalType": "uint256"
            }
          ]
        }
      ],
      "anonymous": false
    },
    {
      "type": "event",
      "name": "ArbitrationRequested",
      "inputs": [
        {
          "name": "fulfillment",
          "type": "bytes32",
          "indexed": true,
          "internalType": "bytes32"
        },
        {
          "name": "escrow",
          "type": "bytes32",
          "indexed": true,
          "internalType": "bytes32"
        },
        {
          "name": "oracle",
          "type": "address",
          "indexed": true,
          "internalType": "address"
        },
        {
          "name": "demand",
          "type": "bytes",
          "indexed": false,
          "internalType": "bytes"
        }
      ],
      "anonymous": false
    },
    {
      "type": "event",
      "name": "CommitmentArbitrationRequested",
      "inputs": [
        {
          "name": "intentHash",
          "type": "bytes32",
          "indexed": true,
          "internalType": "bytes32"
        },
        {
          "name": "escrow",
          "type": "bytes32",
          "indexed": true,
          "internalType": "bytes32"
        },
        {
          "name": "oracle",
          "type": "address",
          "indexed": true,
          "internalType": "address"
        },
        {
          "name": "demand",
          "type": "bytes",
          "indexed": false,
          "internalType": "bytes"
        }
      ],
      "anonymous": false
    },
    {
      "type": "event",
      "name": "ERC1155TransferFailedOnDistribute",
      "inputs": [
        {
          "name": "recipient",
          "type": "address",
          "indexed": true,
          "internalType": "address"
        },
        {
          "name": "token",
          "type": "address",
          "indexed": true,
          "internalType": "address"
        },
        {
          "name": "tokenId",
          "type": "uint256",
          "indexed": false,
          "internalType": "uint256"
        },
        {
          "name": "amount",
          "type": "uint256",
          "indexed": false,
          "internalType": "uint256"
        }
      ],
      "anonymous": false
    },
    {
      "type": "event",
      "name": "EscrowCollectedAndDistributed",
      "inputs": [
        {
          "name": "escrow",
          "type": "bytes32",
          "indexed": true,
          "internalType": "bytes32"
        },
        {
          "name": "fulfillment",
          "type": "bytes32",
          "indexed": true,
          "internalType": "bytes32"
        },
        {
          "name": "fulfiller",
          "type": "address",
          "indexed": true,
          "internalType": "address"
        },
        {
          "name": "token",
          "type": "address",
          "indexed": false,
          "internalType": "address"
        },
        {
          "name": "tokenId",
          "type": "uint256",
          "indexed": false,
          "internalType": "uint256"
        },
        {
          "name": "splits",
          "type": "tuple[]",
          "indexed": false,
          "internalType": "struct CommitmentERC1155Splitter.Split[]",
          "components": [
            {
              "name": "recipient",
              "type": "address",
              "internalType": "address"
            },
            {
              "name": "amount",
              "type": "uint256",
              "internalType": "uint256"
            }
          ]
        }
      ],
      "anonymous": false
    },
    {
      "type": "event",
      "name": "FulfillmentCreated",
      "inputs": [
        {
          "name": "fulfillmentUid",
          "type": "bytes32",
          "indexed": true,
          "internalType": "bytes32"
        },
        {
          "name": "fulfiller",
          "type": "address",
          "indexed": true,
          "internalType": "address"
        },
        {
          "name": "obligationContract",
          "type": "address",
          "indexed": true,
          "internalType": "address"
        }
      ],
      "anonymous": false
    },
    {
      "type": "error",
      "name": "AttestationRevoked",
      "inputs": []
    },
    {
      "type": "error",
      "name": "DeadlineExpired",
      "inputs": []
    },
    {
      "type": "error",
      "name": "ERC1155TransferFailed",
      "inputs": [
        {
          "name": "token",
          "type": "address",
          "internalType": "address"
        },
        {
          "name": "to",
          "type": "address",
          "internalType": "address"
        },
        {
          "name": "tokenId",
          "type": "uint256",
          "internalType": "uint256"
        },
        {
          "name": "amount",
          "type": "uint256",
          "internalType": "uint256"
        }
      ]
    },
    {
      "type": "error",
      "name": "EmptySplits",
      "inputs": []
    },
    {
      "type": "error",
      "name": "FulfillerAlreadyRecorded",
      "inputs": [
        {
          "name": "fulfillment",
          "type": "bytes32",
          "internalType": "bytes32"
        }
      ]
    },
    {
      "type": "error",
      "name": "InvalidAttestationUid",
      "inputs": []
    },
    {
      "type": "error",
      "name": "InvalidCollectedAmount",
      "inputs": [
        {
          "name": "expected",
          "type": "uint256",
          "internalType": "uint256"
        },
        {
          "name": "actual",
          "type": "uint256",
          "internalType": "uint256"
        }
      ]
    },
    {
      "type": "error",
      "name": "InvalidCreatedFulfillment",
      "inputs": [
        {
          "name": "fulfillment",
          "type": "bytes32",
          "internalType": "bytes32"
        }
      ]
    },
    {
      "type": "error",
      "name": "InvalidEscrowAttestation",
      "inputs": []
    },
    {
      "type": "error",
      "name": "InvalidFulfillmentRecipient",
      "inputs": []
    },
    {
      "type": "error",
      "name": "InvalidFulfillmentUid",
      "inputs": []
    },
    {
      "type": "error",
      "name": "InvalidSplits",
      "inputs": [
        {
          "name": "totalExpected",
          "type": "uint256",
          "internalType": "uint256"
        },
        {
          "name": "totalProvided",
          "type": "uint256",
          "internalType": "uint256"
        }
      ]
    },
    {
      "type": "error",
      "name": "NoFulfillerRecorded",
      "inputs": [
        {
          "name": "fulfillment",
          "type": "bytes32",
          "internalType": "bytes32"
        }
      ]
    },
    {
      "type": "error",
      "name": "ReentrancyGuardReentrantCall",
      "inputs": []
    },
    {
      "type": "error",
      "name": "TooManySplits",
      "inputs": [
        {
          "name": "provided",
          "type": "uint256",
          "internalType": "uint256"
        },
        {
          "name": "max",
          "type": "uint256",
          "internalType": "uint256"
        }
      ]
    },
    {
      "type": "error",
      "name": "UnauthorizedArbitrationRequest",
      "inputs": []
    },
    {
      "type": "error",
      "name": "UnauthorizedPartialSettlement",
      "inputs": [
        {
          "name": "fulfillment",
          "type": "bytes32",
          "internalType": "bytes32"
        },
        {
          "name": "caller",
          "type": "address",
          "internalType": "address"
        }
      ]
    }
  ],
  "bytecode": {
    "object": "0x60a0346100c257601f61223638819003918201601f19168301916001600160401b038311848410176100c65780849260409485528339810103126100c25780516001600160a01b03811691908290036100c257602001516001600160a01b03811691908290036100c25760017f9b779b17422d0df92223018b32b4d1fa46e071723d6817e2486d003becc55f00555f80546001600160a01b03191691909117905560805260405161215b90816100db823960805181818161022101526119cd0152f35b5f80fd5b634e487b7160e01b5f52604160045260245ffdfe608080604052600436101561001c575b50361561001a575f80fd5b005b5f3560e01c90816301ffc9a7146111c95750806320249e20146111465780632257c0e31461108757806333f37e4a1461103f57806339fcc92b146110225780633de93b3814610f025780634e2d3b1214610ed05780635123666d14610bab5780636c09ac1614610b345780638150864d14610b0d578063838a68d914610a3157806386314b0d146109145780638da3721a146108565780638ed98101146106965780639e22e24c14610645578063a0c1604714610602578063a1a80488146105b9578063b48210ca1461059e578063bc197c8114610509578063c880c06f146104ed578063cd8c1ef314610478578063d1be350714610250578063d43a0c931461020c578063ed7180e3146101945763f23a6e611461013b575f61000f565b346101905760a0366003190112610190576101546112b8565b5061015d6112ce565b506084356001600160401b0381116101905761017d903690600401611384565b5060405163f23a6e6160e01b8152602090f35b5f80fd5b6080366003190112610190576101a86112b8565b6024356001600160401b038111610190576101c79036906004016114c6565b916044356001600160401b0381168103610190576020936101f3936101ea611950565b60643593611eaf565b60015f5160206121065f395f51905f5255604051908152f35b34610190575f366003190112610190576040517f00000000000000000000000000000000000000000000000000000000000000006001600160a01b03168152602090f35b346101905761025e366114b0565b90610267611950565b5f8281526003602052604080822054825491516328c44a9960e21b815260048101869052926001600160a01b0391821692909184916024918391165afa91821561046d575f92610449575b503314159081610431575b5061041a576102cc8282611988565b5f85815260036020526040812054929591926001600160a01b031691905b84518110156103cf5761031283836001600160a01b0361030a858a6115ec565b515116611e0d565b906001600160a01b038816602061032983896115ec565b51015192813b15610190576103585f60019560405180938192637921219560e11b83528c873060048601611600565b038183875af190816103bf575b506103b8577f616cfada1d83c91b3ab4d0488d450dbb131a917d044bde559c55552aebdf433f60406020610399868c6115ec565b510151928151938a85526020850152868060a01b031692a35b016102ea565b50506103b2565b5f6103c99161126d565b8b610365565b50847f8068582e206e415cdede1ddbbfbc488773faa51109a0871b26a5a46eec60a4a984886104048860405193849384611638565b0390a460015f5160206121065f395f51905f5255005b506345fbd31960e11b5f526004523360245260445ffd5b60e001516001600160a01b03163314159050836102bd565b6104669192503d805f833e61045e818361126d565b8101906116ca565b90846102b2565b6040513d5f823e3d90fd5b346101905760e0366003190112610190576104916112ce565b6104996112e4565b906104a261128e565b916104ab611324565b9160c435926001600160401b038411610190576020946104d26104e5953690600401611384565b8681519101209360a4359360043561158b565b604051908152f35b34610190575f36600319011261019057602060405161eeee8152f35b346101905760a0366003190112610190576105226112b8565b5061052b6112ce565b506044356001600160401b0381116101905761054b90369060040161152e565b506064356001600160401b0381116101905761056b90369060040161152e565b506084356001600160401b0381116101905761058b903690600401611384565b5060405163bc197c8160e01b8152602090f35b34610190575f36600319011261019057602060405160328152f35b34610190576040366003190112610190576001600160a01b036105da6112b8565b165f52600160205260405f206024355f52602052602060ff60405f2054166040519015158152f35b34610190576040366003190112610190576004356001600160401b038111610190576104e561063760209236906004016113a2565b61063f6112ce565b906118db565b34610190576101003660031901126101905760206104e56106646112ce565b61066c6112e4565b61067461128e565b9161067d611324565b6106856112fa565b9360c4359360a435936004356118a4565b60a0366003190112610190576004356106ad6112ce565b604435906001600160401b038211610190576106d06106ea9236906004016114c6565b6106d861128e565b916106e1611950565b60843593611eaf565b906106f58282611988565b5f858152600360205260408120549294919390929091906001600160a01b03165b82518410156108025761073681886001600160a01b0361030a88886115ec565b966001600160a01b038716602061074d87876115ec565b51015190803b156101905761077f915f9189838d60405196879586948593637921219560e11b85523060048601611600565b03925af190816107f2575b506107e5575050506107a26107e193926020926115ec565b510151604051636bb6a96f60e01b81526001600160a01b0394851660048201529490931660248501526044840152606483019190915281906084820190565b0390fd5b9650600190930192610716565b5f6107fc9161126d565b8961078a565b8680927f8068582e206e415cdede1ddbbfbc488773faa51109a0871b26a5a46eec60a4a9878961083a60209860405193849384611638565b0390a460015f5160206121065f395f51905f5255604051908152f35b34610190576060366003190112610190576004356001600160401b038111610190576108869036906004016113a2565b6024356001600160401b038111610190576108c36108ab6108cd923690600401611384565b6108b484611e5e565b60208082518301019101611841565b9160443590611e82565b90816002541490816108e7575b6020826040519015158152f35b905060018060a01b039051165f52600160205260405f20905f52602052602060ff60405f205416826108da565b34610190576080366003190112610190576024356109306112e4565b906064356001600160401b03811161019057610950903690600401611384565b5f80546040516328c44a9960e21b8152600481018590529190829060249082906001600160a01b03165afa90811561046d575f91610a17575b5060e08101516001600160a01b031633141590816109ff575b506109f0577f108df26ad37e907e17227d7de58b0e241bfb128eae0ecea60f6bdb6082b2b146604051936020855260018060a01b031693806109eb6004359460208301906114f3565b0390a4005b63ff323ecb60e01b5f5260045ffd5b60c001516001600160a01b03163314159050846109a2565b610a2b91503d805f833e61045e818361126d565b84610989565b34610190576020366003190112610190576004356001600160401b03811161019057610a619036906004016114c6565b60606020604051610a7181611236565b5f81520152810190602081830312610190578035906001600160401b03821161019057016040818303126101905760405191610aac83611236565b610ab582611310565b835260208201356001600160401b03811161019057610ad49201611384565b9060208101918252610b096040519283926020845260018060a01b0390511660208401525160408084015260608301906114f3565b0390f35b34610190575f366003190112610190575f546040516001600160a01b039091168152602090f35b346101905761010036600319011261019057610b4e6112ce565b610b566112e4565b90610b5f61128e565b610b67611324565b9260c435926001600160401b03841161019057602094610b8e6104e5953690600401611384565b93610b976112fa565b948781519101209360a435936004356118a4565b34610190576060366003190112610190576044356004356024356001600160401b0383116101905736602384011215610190578260040135906001600160401b038211610190576024840193602436918460061b010111610190575f80546040516328c44a9960e21b8152600481018490529190829060249082906001600160a01b03165afa801561046d57610120610c5a916080935f91610eb6575b500151602080825183010191016117a7565b01518215610ea75760328311610e8f575f905f5b848110610e6d5750808203610e58575050610c899083611930565b90335f52600460205260405f20825f5260205260405f208054905f815581610e0d575b50505f5b818110610d535750335f52600160205260405f20825f5260205260405f20600160ff1982541617905560405190806020830160208452526040820194905f5b818110610d2357505050807fcb69e0d2c25bc3247c37f1a1b54a09e56f58301351ae8eeb49fb9750045ba7409133950390a4005b909195604080600192838060a01b03610d3b8b611310565b16815260208a81013590820152019701929101610cef565b335f52600460205260405f20835f5260205260405f2090610d75818488611e4e565b9180549068010000000000000000821015610df95760018201808255821015610de5575f5260205f209060011b0182359260018060a01b03841684036101905781546001600160a01b0319166001600160a01b039094169390931781556020929092013560019283015501610cb0565b634e487b7160e01b5f52603260045260245ffd5b634e487b7160e01b5f52604160045260245ffd5b6001600160ff1b0382168203610e44575f5260205f209060011b8101905b81811015610cac575f8082556001820155600201610e2b565b634e487b7160e01b5f52601160045260245ffd5b63ba660bff60e01b5f5260045260245260445ffd5b916020610e7b84878a611e4e565b01358101809111610e445791600101610c6e565b8263b268613560e01b5f52600452603260245260445ffd5b63143160cf60e01b5f5260045ffd5b610eca91503d805f833e61045e818361126d565b88610c48565b34610190576020366003190112610190576004355f526003602052602060018060a01b0360405f205416604051908152f35b3461019057610f10366114b0565b90610f19611950565b610f238282611988565b5f858152600360205260408120549294919390929091906001600160a01b03165b8251841015610fed57610f6481886001600160a01b0361030a88886115ec565b966001600160a01b0387166020610f7b87876115ec565b51015190803b1561019057610fad915f9189838d60405196879586948593637921219560e11b85523060048601611600565b03925af19081610fdd575b50610fd0575050506107a26107e193926020926115ec565b9650600190930192610f44565b5f610fe79161126d565b89610fb8565b86827f8068582e206e415cdede1ddbbfbc488773faa51109a0871b26a5a46eec60a4a987896104048860405193849384611638565b34610190575f366003190112610190576020600254604051908152f35b346101905760e03660031901126101905760206104e561105d6112ce565b6110656112e4565b9061106e61128e565b611076611324565b9060c4359360a4359360043561158b565b34610190576060366003190112610190576001600160a01b036110a86112b8565b165f52600460205260405f206110c2604435602435611930565b5f5260205260405f2080546110d681611517565b916110e4604051938461126d565b81835260208301905f5260205f205f915b8383106111125760405160208082528190610b0990820188611468565b6002602060019260405161112581611236565b848060a01b03865416815284860154838201528152019201920191906110f5565b34610190576020366003190112610190576004356001600160401b038111610190576104e561117b60209236906004016113a2565b828101519060018060a01b0360e08201511660018060a01b0360c0830151166001600160401b036060840151169061010084015115159261012060a08601519501518881519101209561158b565b34610190576020366003190112610190576004359063ffffffff60e01b821680920361019057602091630271189760e51b811490811561120b575b5015158152f35b6346d1b90d60e11b811491508115611225575b5083611204565b6301ffc9a760e01b1490508361121e565b604081019081106001600160401b03821117610df957604052565b61014081019081106001600160401b03821117610df957604052565b90601f801991011681019081106001600160401b03821117610df957604052565b606435906001600160401b038216820361019057565b35906001600160401b038216820361019057565b600435906001600160a01b038216820361019057565b602435906001600160a01b038216820361019057565b604435906001600160a01b038216820361019057565b60e435906001600160a01b038216820361019057565b35906001600160a01b038216820361019057565b60843590811515820361019057565b6001600160401b038111610df957601f01601f191660200190565b92919261135a82611333565b91611368604051938461126d565b829481845281830111610190578281602093845f960137010152565b9080601f830112156101905781602061139f9335910161134e565b90565b91906101408382031261019057604051906113bc82611251565b819380358352602081013560208401526113d8604082016112a4565b60408401526113e9606082016112a4565b60608401526113fa608082016112a4565b608084015260a081013560a084015261141560c08201611310565b60c084015261142660e08201611310565b60e0840152610100810135801515810361019057610100840152610120810135916001600160401b03831161019057610120926114639201611384565b910152565b90602080835192838152019201905f5b8181106114855750505090565b825180516001600160a01b031685526020908101518186015260409094019390920191600101611478565b6040906003190112610190576004359060243590565b9181601f84011215610190578235916001600160401b038311610190576020838186019501011161019057565b805180835260209291819084018484015e5f828201840152601f01601f1916010190565b6001600160401b038111610df95760051b60200190565b9080601f8301121561019057813561154581611517565b92611553604051948561126d565b81845260208085019260051b82010192831161019057602001905b82821061157b5750505090565b813581526020918201910161156e565b959391926001600160401b03919593604051966020880198895260018060a01b0316604088015260018060a01b03166060870152166080850152151560a084015260c083015260e082015260e081526115e66101008261126d565b51902090565b8051821015610de55760209160051b010190565b6001600160a01b039182168152911660208201526040810191909152606081019190915260a0608082018190525f9082015260c00190565b61139f939260609260018060a01b0316825260208201528160408201520190611468565b51906001600160401b038216820361019057565b51906001600160a01b038216820361019057565b81601f820112156101905780519061169b82611333565b926116a9604051948561126d565b8284526020838301011161019057815f9260208093018386015e8301015290565b602081830312610190578051906001600160401b03821161019057016101408183031261019057604051916116fe83611251565b81518352602082015160208401526117186040830161165c565b60408401526117296060830161165c565b606084015261173a6080830161165c565b608084015260a082015160a084015261175560c08301611670565b60c084015261176660e08301611670565b60e08401526101008201518015158103610190576101008401526101208201516001600160401b0381116101905761179e9201611684565b61012082015290565b602081830312610190578051906001600160401b03821161019057019060a082820312610190576040519160a083018381106001600160401b03821117610df9576040526117f481611670565b835260208101516001600160401b03811161019057608092611817918301611684565b602084015261182860408201611670565b6040840152606081015160608401520151608082015290565b602081830312610190578051906001600160401b0382116101905701604081830312610190576040519161187483611236565b61187d82611670565b835260208201516001600160401b0381116101905761189c9201611684565b602082015290565b906118b396959493929161158b565b60408051602081019283526001600160a01b03909316838201528252906115e660608261126d565b9061139f9160208101519060018060a01b0360e08201511660018060a01b0360c0830151166001600160401b036060840151169061010084015115159261012060a086015195015160208151910120956118a4565b9060405190602082019283526040820152604081526115e660608261126d565b60025f5160206121065f395f51905f5254146119795760025f5160206121065f395f51905f5255565b633ee5aeb560e01b5f5260045ffd5b9060018060a01b035f5416926040516328c44a9960e21b81528360048201525f81602481885afa90811561046d575f91611df3575b5060e08101516001600160a01b037f000000000000000000000000000000000000000000000000000000000000000081169691168614801590611d8d575b611d7e57815115611d6f576001600160401b036060830151168015159081611d64575b50611d55576001600160401b03608083015116611d46576040516328c44a9960e21b815260048101859052915f83602481855afa92831561046d575f93611d22575b50610120611a8291611a7185611e5e565b0151602080825183010191016117a7565b916020830151611aa260018060a01b039160208082518301019101611841565b51165f526004602052611ab98660405f2092611e82565b5f5260205260405f208054611acd81611517565b91611adb604051938461126d565b81835260208301905f5260205f205f915b838310611cee575050505060408381015160608501519151627eeac760e11b81523060048201526024810183905292986001600160a01b0390911697919692939092906020856044818c5afa94851561046d575f95611cba575b505f602491604051928380926328c44a9960e21b82528660048301525afa92831561046d57611b81815f956044948791611ca0575b50611e82565b600255836040519586948593633a9bb12760e21b8552600485015260248401525af1801561046d57611c66575b505f600255604051627eeac760e11b81523060048201526024810185905291602083604481895afa92831561046d575f93611c31575b506080015190808310611c1a578203918211610e4457808203611c05575050565b631a3dba0360e31b5f5260045260245260445ffd5b50631a3dba0360e31b5f526004525f60245260445ffd5b9092506020813d602011611c5e575b81611c4d6020938361126d565b810103126101905751916080611be4565b3d9150611c40565b3d805f833e611c75818361126d565b81016020828203126101905781516001600160401b03811161019057611c9b9201611684565b611bae565b611cb491503d8089833e61045e818361126d565b5f611b7b565b9094506020813d602011611ce6575b81611cd66020938361126d565b810103126101905751935f611b46565b3d9150611cc9565b60026020600192604051611d0181611236565b848060a01b0386541681528486015483820152815201920192019190611aec565b611a82919350611d3e610120913d805f833e61045e818361126d565b939150611a60565b637b6227e960e11b5f5260045ffd5b631ab7da6b60e01b5f5260045ffd5b90504210155f611a1e565b635c2c7f8960e01b5f5260045ffd5b63629cd40b60e11b5f5260045ffd5b50602082810151604051635bf2f20d60e01b815291826004818b5afa91821561046d575f92611dbf575b5014156119fb565b9091506020813d602011611deb575b81611ddb6020938361126d565b810103126101905751905f611db7565b3d9150611dce565b611e0791503d805f833e61045e818361126d565b5f6119bd565b91906001600160a01b03831661eeee14611e2657505090565b9091506001600160a01b03821615611e3c575090565b6379c5a2db60e01b5f5260045260245ffd5b9190811015610de55760061b0190565b60c001516001600160a01b03163003611e7357565b634672d00f60e01b5f5260045ffd5b80515f9081526003602052604090205461139f9291611eaa916001600160a01b0316906118db565b611930565b604051632cee40b560e21b815260606004820152606481018490529495946001600160a01b03909116939092906001600160401b0390828460848701375f608484870101521691826024850152866044850152602084608481601f19601f870116810103018134895af193841561046d575f946120d1575b50839684156120c2575f80546040516328c44a9960e21b815260048101889052929190839060249082906001600160a01b03165afa91821561046d575f926120a6575b50858251149485159561208e575b8515612076575b851561205e575b50841561204f575b508315612024575b505050612012575f818152600360205260409020546001600160a01b0316612000575f81815260036020526040812080546001600160a01b0319163390811790915591907ff845579b2e96200541b4e2b438fbb65e772b70ac68265030aa16f6d8e16501d99080a4565b63aa8904b160e01b5f5260045260245ffd5b63f9d7a76560e01b5f5260045260245ffd5b61203e92935061012001516020815191012092369161134e565b6020815191012014155f8080611f96565b60a0820151141593505f611f8e565b60608301516001600160401b0316141594505f611f86565b60c08301516001600160a01b03163014159550611f7f565b60e08301516001600160a01b03168814159550611f78565b6120bb9192503d805f833e61045e818361126d565b905f611f6a565b6303acddcd60e41b5f5260045ffd5b9093506020813d6020116120fd575b816120ed6020938361126d565b810103126101905751925f611f27565b3d91506120e056fe9b779b17422d0df92223018b32b4d1fa46e071723d6817e2486d003becc55f00a264697066735822122065042d5c829813515cac999366b470169f80a46e6ac5c708f2b7ce6a779c101464736f6c634300081b0033",
    "linkReferences": {}
  },
  "methodIdentifiers": {
    "EXECUTOR_SENTINEL()": "c880c06f",
    "MAX_SPLITS()": "b48210ca",
    "activeSettlement()": "39fcc92b",
    "arbitrate(bytes32,bytes32,(address,uint256)[])": "5123666d",
    "attestationIntentHash((bytes32,bytes32,uint64,uint64,uint64,bytes32,address,address,bool,bytes))": "20249e20",
    "attestationIntentHash(bytes32,address,address,uint64,bool,bytes32,bytes)": "cd8c1ef3",
    "attestationIntentHash(bytes32,address,address,uint64,bool,bytes32,bytes32)": "33f37e4a",
    "check((bytes32,bytes32,uint64,uint64,uint64,bytes32,address,address,bool,bytes),bytes,bytes32)": "8da3721a",
    "collectAndDistribute(bytes32,bytes32)": "3de93b38",
    "createFulfillment(address,bytes,uint64,bytes32)": "ed7180e3",
    "createFulfillmentAndCollectAndDistribute(bytes32,address,bytes,uint64,bytes32)": "8ed98101",
    "decodeDemandData(bytes)": "838a68d9",
    "eas()": "8150864d",
    "escrowObligation()": "d43a0c93",
    "fulfillers(bytes32)": "4e2d3b12",
    "fulfillmentIntentHash((bytes32,bytes32,uint64,uint64,uint64,bytes32,address,address,bool,bytes),address)": "a0c16047",
    "fulfillmentIntentHash(bytes32,address,address,uint64,bool,bytes32,bytes,address)": "6c09ac16",
    "fulfillmentIntentHash(bytes32,address,address,uint64,bool,bytes32,bytes32,address)": "9e22e24c",
    "getSplits(address,bytes32,bytes32)": "2257c0e3",
    "hasDecision(address,bytes32)": "a1a80488",
    "onERC1155BatchReceived(address,address,uint256[],uint256[],bytes)": "bc197c81",
    "onERC1155Received(address,address,uint256,uint256,bytes)": "f23a6e61",
    "requestArbitration(bytes32,bytes32,address,bytes)": "86314b0d",
    "supportsInterface(bytes4)": "01ffc9a7",
    "unsafePartiallyCollectAndDistribute(bytes32,bytes32)": "d1be3507"
  },
  "id": 168
}